{
  "_format": "hh-sol-artifact-1",
  "contractName": "EnhancedSmartStakingRewards",
  "sourceName": "contracts/SmartStaking/EnhancedSmartStakingRewards.sol",
  "abi": [
    {
      "inputs": [],
      "stateMutability": "nonpayable",
      "type": "constructor"
    },
    {
      "anonymous": false,
      "inputs": [
        {
          "indexed": true,
          "internalType": "uint8",
          "name": "lockupPeriodIndex",
          "type": "uint8"
        },
        {
          "indexed": false,
          "internalType": "uint256",
          "name": "oldAPY",
          "type": "uint256"
        },
        {
          "indexed": false,
          "internalType": "uint256",
          "name": "newAPY",
          "type": "uint256"
        }
      ],
      "name": "APYUpdated",
      "type": "event"
    },
    {
      "anonymous": false,
      "inputs": [
        {
          "indexed": true,
          "internalType": "address",
          "name": "previousOwner",
          "type": "address"
        },
        {
          "indexed": true,
          "internalType": "address",
          "name": "newOwner",
          "type": "address"
        }
      ],
      "name": "OwnershipTransferred",
      "type": "event"
    },
    {
      "inputs": [
        {
          "internalType": "uint8",
          "name": "lockupPeriodIndex",
          "type": "uint8"
        },
        {
          "internalType": "uint16",
          "name": "totalBoost",
          "type": "uint16"
        }
      ],
      "name": "calculateBoostedAPY",
      "outputs": [
        {
          "internalType": "uint256",
          "name": "apy",
          "type": "uint256"
        }
      ],
      "stateMutability": "view",
      "type": "function"
    },
    {
      "inputs": [
        {
          "internalType": "uint256",
          "name": "depositAmount",
          "type": "uint256"
        },
        {
          "internalType": "uint256",
          "name": "depositTime",
          "type": "uint256"
        },
        {
          "internalType": "uint256",
          "name": "lastClaimTime",
          "type": "uint256"
        },
        {
          "internalType": "uint8",
          "name": "lockupPeriodIndex",
          "type": "uint8"
        },
        {
          "internalType": "uint16",
          "name": "totalBoost",
          "type": "uint16"
        }
      ],
      "name": "calculateBoostedRewards",
      "outputs": [
        {
          "internalType": "uint256",
          "name": "boostedRewards",
          "type": "uint256"
        }
      ],
      "stateMutability": "view",
      "type": "function"
    },
    {
      "inputs": [
        {
          "internalType": "uint256",
          "name": "depositAmount",
          "type": "uint256"
        },
        {
          "internalType": "uint256",
          "name": "depositTime",
          "type": "uint256"
        },
        {
          "internalType": "uint256",
          "name": "lastClaimTime",
          "type": "uint256"
        },
        {
          "internalType": "uint8",
          "name": "lockupPeriodIndex",
          "type": "uint8"
        },
        {
          "internalType": "uint16",
          "name": "totalBoost",
          "type": "uint16"
        },
        {
          "internalType": "uint16",
          "name": "rarityMultiplier",
          "type": "uint16"
        }
      ],
      "name": "calculateBoostedRewardsWithRarityMultiplier",
      "outputs": [
        {
          "internalType": "uint256",
          "name": "boostedRewards",
          "type": "uint256"
        }
      ],
      "stateMutability": "view",
      "type": "function"
    },
    {
      "inputs": [
        {
          "internalType": "uint8",
          "name": "activeSkillCount",
          "type": "uint8"
        }
      ],
      "name": "calculateFeeDiscount",
      "outputs": [
        {
          "internalType": "uint8",
          "name": "discountPercentage",
          "type": "uint8"
        }
      ],
      "stateMutability": "pure",
      "type": "function"
    },
    {
      "inputs": [
        {
          "internalType": "uint256",
          "name": "depositAmount",
          "type": "uint256"
        },
        {
          "internalType": "uint256",
          "name": "depositTime",
          "type": "uint256"
        },
        {
          "internalType": "uint256",
          "name": "lastClaimTime",
          "type": "uint256"
        },
        {
          "internalType": "uint8",
          "name": "lockupPeriodIndex",
          "type": "uint8"
        }
      ],
      "name": "calculateRewards",
      "outputs": [
        {
          "internalType": "uint256",
          "name": "rewards",
          "type": "uint256"
        }
      ],
      "stateMutability": "view",
      "type": "function"
    },
    {
      "inputs": [
        {
          "internalType": "uint8",
          "name": "lockupPeriodIndex",
          "type": "uint8"
        }
      ],
      "name": "getBaseAPY",
      "outputs": [
        {
          "internalType": "uint256",
          "name": "apy",
          "type": "uint256"
        }
      ],
      "stateMutability": "view",
      "type": "function"
    },
    {
      "inputs": [],
      "name": "getLockupPeriodsConfig",
      "outputs": [
        {
          "internalType": "uint256[]",
          "name": "periods",
          "type": "uint256[]"
        },
        {
          "internalType": "uint256[]",
          "name": "apys",
          "type": "uint256[]"
        }
      ],
      "stateMutability": "view",
      "type": "function"
    },
    {
      "inputs": [],
      "name": "owner",
      "outputs": [
        {
          "internalType": "address",
          "name": "",
          "type": "address"
        }
      ],
      "stateMutability": "view",
      "type": "function"
    },
    {
      "inputs": [],
      "name": "renounceOwnership",
      "outputs": [],
      "stateMutability": "nonpayable",
      "type": "function"
    },
    {
      "inputs": [
        {
          "internalType": "address",
          "name": "newOwner",
          "type": "address"
        }
      ],
      "name": "transferOwnership",
      "outputs": [],
      "stateMutability": "nonpayable",
      "type": "function"
    },
    {
      "inputs": [
        {
          "internalType": "uint8",
          "name": "lockupPeriodIndex",
          "type": "uint8"
        },
        {
          "internalType": "uint256",
          "name": "newAPY",
          "type": "uint256"
        }
      ],
      "name": "updateBaseAPY",
      "outputs": [],
      "stateMutability": "nonpayable",
      "type": "function"
    }
  ],
  "bytecode": "0x608060405234610022576100116102a1565b6040516110106104d7823961101090f35b5f80fd5b634e487b7160e01b5f52604160045260245ffd5b90601f01601f191681019081106001600160401b0382111761005b57604052565b610026565b9061007461006d60405190565b928361003a565b565b6001600160401b03811161005b5760200290565b61009661009b91610076565b610060565b90565b6100ab61009b61009b9290565b63ffffffff1690565b634e487b7160e01b5f52601160045260245ffd5b818102929181159184041417156100db57565b6100b4565b915f1960089290920291821b911b5b9181191691161790565b61009b61009b61009b9290565b919061011761009b61011f936100f9565b9083546100e0565b9055565b610074915f91610106565b818110610139575050565b806101465f600193610123565b0161012e565b91909182821061015b57505050565b610074929161016e90915f5260205f2090565b918201910161012e565b9068010000000000000000811161005b5781610195610074935490565b9082815561014c565b6005916101be6101b460019261009b8686610178565b925f5260205f2090565b9204915f5b8381106101d05750505050565b60019060206101e661009b865163ffffffff1690565b94019381840155016101c3565b906100749161019e565b61009b60326100f9565b634e487b7160e01b5f52601260045260245ffd5b8115610225570490565b610207565b61009b60646100f9565b61009b608c6100f9565b61009b60aa6100f9565b61009b60d26100f9565b6005916102686101b460019261009b8686610178565b9204915f5b83811061027a5750505050565b600190602061028a61009b865190565b940193818401550161026d565b9061007491610252565b6102a9610411565b6103446102b6600561008a565b6102cc6102c25f61009e565b63ffffffff168252565b6102e86102db62278d0061009e565b63ffffffff166020830152565b6103046102f76276a70061009e565b63ffffffff166040830152565b61032061031362ed4e0061009e565b63ffffffff166060830152565b61033d6103306301e1338061009e565b63ffffffff166080830152565b60016101f3565b610074610351600561008a565b61040a61040361035f6101fd565b61038e6103fd61037b61223893610375856100f9565b906100c8565b9261039861039460649561038e876100f9565b9061021b565b8852565b6103c26103bb6103b26103a961022a565b610375856100f9565b61038e876100f9565b6020890152565b6103da6103d36103b26103a9610234565b6040890152565b6103f26103eb6103b26103a961023e565b6060890152565b6103756103fd610248565b916100f9565b6080830152565b6002610297565b6100748033610482565b61009b905b6001600160a01b031690565b61009b905461041b565b906001600160a01b03906100ef565b61009b90610420906001600160a01b031682565b61009b90610445565b61009b90610459565b9061047b61009b61011f92610462565b8254610436565b6104a66104a06104915f61042c565b61049b845f61046b565b610462565b91610462565b907f8be0079c531659141344cd1fd0a4f28419497f9722a3daafe3b4186f6b6457e06104d160405190565b5f90a356fe60806040526004361015610011575f80fd5b5f3560e01c8063257a19fe146100c057806326a6d1f0146100bb578063593510de146100b65780636ec50437146100b1578063715018a6146100ac5780638da5cb5b146100a7578063a19b56ac146100a2578063c6b094b01461009d578063ce75a50e14610098578063dde82651146100935763f2fde38b036100c557610472565b610427565b610405565b610396565b61034b565b610302565b6102de565b6102b0565b61020e565b6101cc565b61015d565b5f80fd5b805b036100c557565b905035906100df826100c9565b565b60ff81166100cb565b905035906100df826100e1565b61ffff81166100cb565b905035906100df826100f7565b919060a0838203126100c55761012481846100d2565b9261013282602083016100d2565b9261015a61014384604085016100d2565b93608061015382606087016100ea565b9401610101565b90565b346100c55761018c61017c61017336600461010e565b939290926105fd565b6040519182918290815260200190565b0390f35b6080818303126100c5576101a482826100d2565b9261015a6101b584602085016100d2565b9360606101c582604087016100d2565b94016100ea565b346100c55761018c61017c6101e2366004610190565b9291909161075d565b91906040838203126100c55761015a90602061020782866100ea565b94016100d2565b346100c5576102276102213660046101eb565b90610a1a565b604051005b5f9103126100c557565b9061025661024f610245845190565b8084529260200190565b9260200190565b905f5b8181106102665750505090565b90919261028361027c6001928651815260200190565b9460200190565b929101610259565b604080825261015a9391926102a291840190610236565b916020818403910152610236565b346100c5576102c036600461022c565b6102c8610abe565b9061018c6102d560405190565b9283928361028b565b346100c5576102ee36600461022c565b610227610b0a565b6001600160a01b031690565b346100c55761031236600461022c565b61018c61031d610b25565b604051918291826001600160a01b03909116815260200190565b906020828203126100c55761015a916100ea565b346100c55761018c610366610361366004610337565b610b6d565b6040519182918260ff909116815260200190565b91906040838203126100c55761015a90602061015382866100ea565b346100c55761018c61017c6103ac36600461037a565b90610ba2565b909160c0828403126100c5576103c883836100d2565b926103d681602085016100d2565b926103e482604083016100d2565b9261015a6103f584606085016100ea565b9360a06101538260808701610101565b346100c55761018c61017c61041b3660046103b2565b94939093929192610c1a565b346100c55761018c61017c61043d366004610337565b610cc4565b6001600160a01b0381166100cb565b905035906100df82610442565b906020828203126100c55761015a91610451565b346100c55761022761048536600461045e565b610d62565b6102f661015a61015a926001600160a01b031690565b61015a9061048a565b61015a906104a0565b634e487b7160e01b5f52604160045260245ffd5b90601f01601f1916810190811067ffffffffffffffff8211176104e857604052565b6104b2565b905051906100df826100c9565b906020828203126100c55761015a916104ed565b61053a6100df9461053360609498979561052c608086019a5f870152565b6020850152565b6040830152565b019060ff169052565b6040513d5f823e3d90fd5b61055b61015a61015a9290565b61ffff1690565b61015a61138861054e565b61015a61015a61015a9261ffff1690565b634e487b7160e01b5f52601160045260245ffd5b818102929181159184041417156105a557565b61057e565b61015a61015a61015a9290565b61015a6127106105aa565b634e487b7160e01b5f52601260045260245ffd5b906105e0565b9190565b9081156105eb570490565b6105c2565b919082018092116105a557565b9394936020929161060d306104a9565b9161063461061a60405190565b9687958694859463026a6d1f60e41b86526004860161050e565b03915afa9081156106df575f916106b0575b5080926106525f61054e565b61ffff821611610660575050565b61015a92935061069561068f6106a392610678610562565b9061ffff821661ffff821611156106a9575061056d565b83610592565b61069d6105b7565b906105d6565b906105f0565b905061056d565b6106d2915060203d6020116106d8575b6106ca81836104c6565b8101906104fa565b5f610646565b503d6106c0565b610543565b61015a61015a61015a9260ff1690565b156106fb57565b60405162461bcd60e51b815260206004820152601560248201527f496e76616c6964206c6f636b757020706572696f640000000000000000000000604482015280606481015b0390fd5b919082039182116105a557565b61015a6130d461054e565b9392909161079461079f9161076f5f90565b5061078e61077f61015a60015490565b610788866106e4565b106106f4565b42610745565b61069d610e106105aa565b906107a95f6105aa565b8214610858576107d9916107c86107c26107cd93610d9d565b87610592565b610592565b61069d620f42406105aa565b906107f582946107ef6107ea610752565b61056d565b90610592565b916108086108016105b7565b80946105d6565b90811061084e575b5061081e6108239142610745565b610e6b565b61082c5f6105aa565b8111610836575050565b83916108496106a39261015a9596610592565b6105d6565b935061081e610810565b505050905061015a5f6105aa565b906100df91610873610f36565b610960565b1561087f57565b60405162461bcd60e51b815260206004820152600b60248201526a496e76616c69642041505960a81b6044820152606490fd5b634e487b7160e01b5f52603260045260245ffd5b80548210156108e6576108de6001915f5260205f2090565b910201905f90565b6108b2565b61015a916008021c81565b9061015a91546108eb565b915f1960089290920291821b911b5b9181191691161790565b919061092b61015a610933936105aa565b908354610901565b9055565b61094761015a61015a9260ff1690565b60ff1690565b9081526040810192916100df9160200152565b907fff85ca9cad009bda4f1fb56fd5c3c83df0a2c513752425a84c0adc63b9ba9244906109e66002936109a061099761015a875490565b610788836106e4565b6109a95f6105aa565b831180610a01575b6109ba90610878565b6109e1836109db836109d56109cf828b6108c6565b906108f6565b986108c6565b9061091a565b610937565b926109fc6109f360405190565b9283928361094d565b0390a2565b506109ba610a106127106105aa565b84111590506109b1565b906100df91610866565b61015a9081565b61015a9054610a24565b90610a4e610a44610245845490565b925f5260205f2090565b905f5b818110610a5e5750505090565b909192610a82610a7b600192610a7387610a2b565b815260200190565b9460010190565b929101610a51565b9061015a91610a35565b906100df610aae92610aa560405190565b93848092610a8a565b03836104c6565b61015a90610a94565b610ac86001610ab5565b9061015a6002610ab5565b610adb610f36565b6100df610af9565b6102f661015a61015a9290565b61015a90610ae3565b6100df610b055f610af0565b610f86565b6100df610ad3565b61015a906102f6565b61015a9054610b12565b61015a5f610b1b565b61094761015a61015a9290565b61015a6005610b2e565b610b549060ff165b9160ff1690565b029060ff82169182036105a557565b61015a6032610b2e565b610b7f90610b79610b3b565b90610b45565b9081610b89610b63565b90610b9660ff8316610b4d565b11610b9e5750565b9150565b6109cf610bca91939293610bb35f90565b50610bc361099761015a60025490565b60026108c6565b80926106525f61054e565b909594926100df94610c06610c1092610bff608096610bf860a088019c5f890152565b6020870152565b6040850152565b60ff166060830152565b019061ffff169052565b906020939491969596610c2a5f90565b50610c5b610c37306104a9565b93610c4160405190565b978896879586956312bd0cff60e11b875260048701610bd5565b03915afa9081156106df575f91610ca5575b508092610c7a606461054e565b61ffff821611610c88575050565b61015a929350906107ef610c9b9261056d565b61069d60646105aa565b610cbe915060203d6020116106d8576106ca81836104c6565b5f610c6d565b6109cf61015a91610bb35f90565b6100df90610cde610f36565b610d3e565b15610cea57565b60405162461bcd60e51b815260206004820152602660248201527f4f776e61626c653a206e6577206f776e657220697320746865207a65726f206160448201526564647265737360d01b6064820152608490fd5b6100df90610b05610d516102f65f610af0565b6001600160a01b0383161415610ce3565b6100df90610cd2565b61015a60326105aa565b61015a60646105aa565b61015a608c6105aa565b61015a60aa6105aa565b61015a60d26105aa565b610da65f610b2e565b60ff821614610e6257610db96001610b2e565b60ff821614610e5957610dcc6002610b2e565b60ff821614610e5057610ddf6003610b2e565b60ff821614610e4757610df5610b4d6004610b2e565b14610e3f5760405162461bcd60e51b815260206004820152601b60248201527f496e76616c6964206c6f636b757020706572696f6420696e64657800000000006044820152606490fd5b61015a610d93565b5061015a610d89565b5061015a610d7f565b5061015a610d75565b5061015a610d6b565b610e786301e133806105aa565b811015610eda57610e8b62ed4e006105aa565b811015610ece57610e9e6276a7006105aa565b811015610ec357610eb46105dc62278d006105aa565b1015610d6b5761015a5f6105aa565b5061015a60646105aa565b5061015a61012c6105aa565b5061015a6101f46105aa565b15610eed57565b60405162461bcd60e51b815280610741600482016020808252818101527f4f776e61626c653a2063616c6c6572206973206e6f7420746865206f776e6572604082015260600190565b6100df610f41610b25565b610f5a610f4d336102f6565b916001600160a01b031690565b14610ee6565b906001600160a01b0390610910565b90610f7f61015a610933926104a9565b8254610f60565b610faa610fa4610f955f610b1b565b610f9f845f610f6f565b6104a9565b916104a9565b907f8be0079c531659141344cd1fd0a4f28419497f9722a3daafe3b4186f6b6457e0610fd560405190565b5f90a356fea26469706673582212209fdd15bb96a1cdee2a7ec58c27b95c6c7807b8ab753b2a375c9a2d03fb08f24864736f6c634300081c0033",
  "linkReferences": {},
  "deployedLinkReferences": {}
}