{
  "_format": "hh-sol-artifact-1",
  "contractName": "EnhancedSmartStaking",
  "sourceName": "contracts/SmartStaking/EnhancedSmartStakingCore.sol",
  "abi": [
    {
      "inputs": [
        {
          "internalType": "address",
          "name": "_treasury",
          "type": "address"
        }
      ],
      "stateMutability": "nonpayable",
      "type": "constructor"
    },
    {
      "inputs": [
        {
          "internalType": "address",
          "name": "treasury",
          "type": "address"
        },
        {
          "internalType": "uint256",
          "name": "amount",
          "type": "uint256"
        }
      ],
      "name": "CommissionTransferFailed",
      "type": "error"
    },
    {
      "inputs": [],
      "name": "ContractIsMigrated",
      "type": "error"
    },
    {
      "inputs": [
        {
          "internalType": "uint256",
          "name": "availableToWithdraw",
          "type": "uint256"
        }
      ],
      "name": "DailyWithdrawalLimitExceeded",
      "type": "error"
    },
    {
      "inputs": [
        {
          "internalType": "uint256",
          "name": "provided",
          "type": "uint256"
        },
        {
          "internalType": "uint256",
          "name": "maximum",
          "type": "uint256"
        }
      ],
      "name": "DepositTooHigh",
      "type": "error"
    },
    {
      "inputs": [
        {
          "internalType": "uint256",
          "name": "provided",
          "type": "uint256"
        },
        {
          "internalType": "uint256",
          "name": "minimum",
          "type": "uint256"
        }
      ],
      "name": "DepositTooLow",
      "type": "error"
    },
    {
      "inputs": [],
      "name": "FundsAreLocked",
      "type": "error"
    },
    {
      "inputs": [],
      "name": "InsufficientBalance",
      "type": "error"
    },
    {
      "inputs": [],
      "name": "InvalidAddress",
      "type": "error"
    },
    {
      "inputs": [],
      "name": "InvalidLockupDuration",
      "type": "error"
    },
    {
      "inputs": [
        {
          "internalType": "address",
          "name": "user",
          "type": "address"
        },
        {
          "internalType": "uint16",
          "name": "maxDeposits",
          "type": "uint16"
        }
      ],
      "name": "MaxDepositsReached",
      "type": "error"
    },
    {
      "inputs": [
        {
          "internalType": "string",
          "name": "moduleName",
          "type": "string"
        }
      ],
      "name": "ModuleNotSet",
      "type": "error"
    },
    {
      "inputs": [],
      "name": "NoDepositsFound",
      "type": "error"
    },
    {
      "inputs": [],
      "name": "NoRewardsAvailable",
      "type": "error"
    },
    {
      "inputs": [],
      "name": "OnlyMarketplace",
      "type": "error"
    },
    {
      "inputs": [
        {
          "internalType": "enum IStakingIntegration.SkillType",
          "name": "skillType",
          "type": "uint8"
        }
      ],
      "name": "SkillDisabled",
      "type": "error"
    },
    {
      "anonymous": false,
      "inputs": [
        {
          "indexed": true,
          "internalType": "address",
          "name": "user",
          "type": "address"
        },
        {
          "indexed": false,
          "internalType": "uint256",
          "name": "compoundedAmount",
          "type": "uint256"
        }
      ],
      "name": "AutoCompoundTriggered",
      "type": "event"
    },
    {
      "anonymous": false,
      "inputs": [
        {
          "indexed": true,
          "internalType": "address",
          "name": "receiver",
          "type": "address"
        },
        {
          "indexed": false,
          "internalType": "uint256",
          "name": "amount",
          "type": "uint256"
        },
        {
          "indexed": false,
          "internalType": "uint256",
          "name": "timestamp",
          "type": "uint256"
        }
      ],
      "name": "CommissionPaid",
      "type": "event"
    },
    {
      "anonymous": false,
      "inputs": [
        {
          "indexed": true,
          "internalType": "address",
          "name": "user",
          "type": "address"
        },
        {
          "indexed": false,
          "internalType": "uint256",
          "name": "amount",
          "type": "uint256"
        }
      ],
      "name": "Compounded",
      "type": "event"
    },
    {
      "anonymous": false,
      "inputs": [
        {
          "indexed": true,
          "internalType": "address",
          "name": "user",
          "type": "address"
        },
        {
          "indexed": false,
          "internalType": "uint256",
          "name": "amount",
          "type": "uint256"
        },
        {
          "indexed": false,
          "internalType": "uint256",
          "name": "lockupDuration",
          "type": "uint256"
        }
      ],
      "name": "Deposited",
      "type": "event"
    },
    {
      "anonymous": false,
      "inputs": [
        {
          "indexed": true,
          "internalType": "address",
          "name": "user",
          "type": "address"
        },
        {
          "indexed": false,
          "internalType": "uint256",
          "name": "amount",
          "type": "uint256"
        }
      ],
      "name": "EmergencyWithdrawal",
      "type": "event"
    },
    {
      "anonymous": false,
      "inputs": [
        {
          "indexed": true,
          "internalType": "address",
          "name": "marketplace",
          "type": "address"
        },
        {
          "indexed": false,
          "internalType": "bool",
          "name": "isAuthorized",
          "type": "bool"
        }
      ],
      "name": "MarketplaceAuthorizationUpdated",
      "type": "event"
    },
    {
      "anonymous": false,
      "inputs": [
        {
          "indexed": true,
          "internalType": "string",
          "name": "moduleName",
          "type": "string"
        },
        {
          "indexed": true,
          "internalType": "address",
          "name": "oldModule",
          "type": "address"
        },
        {
          "indexed": true,
          "internalType": "address",
          "name": "newModule",
          "type": "address"
        }
      ],
      "name": "ModuleUpdated",
      "type": "event"
    },
    {
      "anonymous": false,
      "inputs": [
        {
          "indexed": true,
          "internalType": "address",
          "name": "previousOwner",
          "type": "address"
        },
        {
          "indexed": true,
          "internalType": "address",
          "name": "newOwner",
          "type": "address"
        }
      ],
      "name": "OwnershipTransferred",
      "type": "event"
    },
    {
      "anonymous": false,
      "inputs": [
        {
          "indexed": false,
          "internalType": "address",
          "name": "account",
          "type": "address"
        }
      ],
      "name": "Paused",
      "type": "event"
    },
    {
      "anonymous": false,
      "inputs": [
        {
          "indexed": true,
          "internalType": "address",
          "name": "user",
          "type": "address"
        },
        {
          "indexed": true,
          "internalType": "uint256",
          "name": "nftId",
          "type": "uint256"
        },
        {
          "indexed": false,
          "internalType": "enum IStakingIntegration.SkillType",
          "name": "skillType",
          "type": "uint8"
        },
        {
          "indexed": false,
          "internalType": "uint16",
          "name": "effectValue",
          "type": "uint16"
        }
      ],
      "name": "SkillActivated",
      "type": "event"
    },
    {
      "anonymous": false,
      "inputs": [
        {
          "indexed": true,
          "internalType": "address",
          "name": "user",
          "type": "address"
        },
        {
          "indexed": true,
          "internalType": "uint256",
          "name": "nftId",
          "type": "uint256"
        },
        {
          "indexed": false,
          "internalType": "enum IStakingIntegration.SkillType",
          "name": "skillType",
          "type": "uint8"
        }
      ],
      "name": "SkillDeactivated",
      "type": "event"
    },
    {
      "anonymous": false,
      "inputs": [
        {
          "indexed": true,
          "internalType": "address",
          "name": "user",
          "type": "address"
        },
        {
          "indexed": false,
          "internalType": "uint16",
          "name": "level",
          "type": "uint16"
        },
        {
          "indexed": false,
          "internalType": "uint8",
          "name": "maxActiveSkills",
          "type": "uint8"
        },
        {
          "indexed": false,
          "internalType": "uint16",
          "name": "stakingBoostTotal",
          "type": "uint16"
        }
      ],
      "name": "SkillProfileUpdated",
      "type": "event"
    },
    {
      "anonymous": false,
      "inputs": [
        {
          "indexed": true,
          "internalType": "address",
          "name": "oldTreasury",
          "type": "address"
        },
        {
          "indexed": true,
          "internalType": "address",
          "name": "newTreasury",
          "type": "address"
        }
      ],
      "name": "TreasuryUpdated",
      "type": "event"
    },
    {
      "anonymous": false,
      "inputs": [
        {
          "indexed": false,
          "internalType": "address",
          "name": "account",
          "type": "address"
        }
      ],
      "name": "Unpaused",
      "type": "event"
    },
    {
      "anonymous": false,
      "inputs": [
        {
          "indexed": true,
          "internalType": "address",
          "name": "user",
          "type": "address"
        },
        {
          "indexed": false,
          "internalType": "uint256",
          "name": "totalAmount",
          "type": "uint256"
        }
      ],
      "name": "WithdrawAll",
      "type": "event"
    },
    {
      "anonymous": false,
      "inputs": [
        {
          "indexed": true,
          "internalType": "address",
          "name": "user",
          "type": "address"
        },
        {
          "indexed": false,
          "internalType": "uint256",
          "name": "amount",
          "type": "uint256"
        }
      ],
      "name": "Withdrawn",
      "type": "event"
    },
    {
      "inputs": [
        {
          "internalType": "address",
          "name": "",
          "type": "address"
        }
      ],
      "name": "authorizedMarketplaces",
      "outputs": [
        {
          "internalType": "bool",
          "name": "",
          "type": "bool"
        }
      ],
      "stateMutability": "view",
      "type": "function"
    },
    {
      "inputs": [
        {
          "internalType": "address",
          "name": "user",
          "type": "address"
        },
        {
          "internalType": "uint256",
          "name": "baseAPY",
          "type": "uint256"
        }
      ],
      "name": "calculateBoostedAPY",
      "outputs": [
        {
          "internalType": "uint256",
          "name": "",
          "type": "uint256"
        }
      ],
      "stateMutability": "view",
      "type": "function"
    },
    {
      "inputs": [
        {
          "internalType": "address",
          "name": "userAddress",
          "type": "address"
        }
      ],
      "name": "calculateBoostedRewards",
      "outputs": [
        {
          "internalType": "uint256",
          "name": "totalRewards",
          "type": "uint256"
        }
      ],
      "stateMutability": "view",
      "type": "function"
    },
    {
      "inputs": [
        {
          "internalType": "address",
          "name": "userAddress",
          "type": "address"
        }
      ],
      "name": "calculateBoostedRewardsWithRarityMultiplier",
      "outputs": [
        {
          "internalType": "uint256",
          "name": "",
          "type": "uint256"
        }
      ],
      "stateMutability": "view",
      "type": "function"
    },
    {
      "inputs": [
        {
          "internalType": "address",
          "name": "user",
          "type": "address"
        },
        {
          "internalType": "uint256",
          "name": "baseFee",
          "type": "uint256"
        }
      ],
      "name": "calculateFeeDiscount",
      "outputs": [
        {
          "internalType": "uint256",
          "name": "",
          "type": "uint256"
        }
      ],
      "stateMutability": "view",
      "type": "function"
    },
    {
      "inputs": [
        {
          "internalType": "address",
          "name": "user",
          "type": "address"
        },
        {
          "internalType": "uint256",
          "name": "baseLockTime",
          "type": "uint256"
        }
      ],
      "name": "calculateReducedLockTime",
      "outputs": [
        {
          "internalType": "uint256",
          "name": "",
          "type": "uint256"
        }
      ],
      "stateMutability": "view",
      "type": "function"
    },
    {
      "inputs": [
        {
          "internalType": "address",
          "name": "userAddress",
          "type": "address"
        }
      ],
      "name": "calculateRewards",
      "outputs": [
        {
          "internalType": "uint256",
          "name": "totalRewards",
          "type": "uint256"
        }
      ],
      "stateMutability": "view",
      "type": "function"
    },
    {
      "inputs": [
        {
          "internalType": "address",
          "name": "_newTreasury",
          "type": "address"
        }
      ],
      "name": "changeTreasuryAddress",
      "outputs": [],
      "stateMutability": "nonpayable",
      "type": "function"
    },
    {
      "inputs": [
        {
          "internalType": "address",
          "name": "user",
          "type": "address"
        }
      ],
      "name": "checkAutoCompound",
      "outputs": [
        {
          "internalType": "bool",
          "name": "",
          "type": "bool"
        },
        {
          "internalType": "bytes",
          "name": "",
          "type": "bytes"
        }
      ],
      "stateMutability": "view",
      "type": "function"
    },
    {
      "inputs": [],
      "name": "compound",
      "outputs": [],
      "stateMutability": "nonpayable",
      "type": "function"
    },
    {
      "inputs": [
        {
          "internalType": "uint64",
          "name": "_lockupDuration",
          "type": "uint64"
        }
      ],
      "name": "deposit",
      "outputs": [],
      "stateMutability": "payable",
      "type": "function"
    },
    {
      "inputs": [
        {
          "internalType": "uint256",
          "name": "_amount",
          "type": "uint256"
        }
      ],
      "name": "emergencyWithdraw",
      "outputs": [],
      "stateMutability": "nonpayable",
      "type": "function"
    },
    {
      "inputs": [],
      "name": "gamificationModule",
      "outputs": [
        {
          "internalType": "contract IEnhancedSmartStakingGamification",
          "name": "",
          "type": "address"
        }
      ],
      "stateMutability": "view",
      "type": "function"
    },
    {
      "inputs": [
        {
          "internalType": "address",
          "name": "user",
          "type": "address"
        }
      ],
      "name": "getActiveSkills",
      "outputs": [
        {
          "components": [
            {
              "internalType": "enum IStakingIntegration.SkillType",
              "name": "skillType",
              "type": "uint8"
            },
            {
              "internalType": "uint16",
              "name": "effectValue",
              "type": "uint16"
            },
            {
              "internalType": "enum IStakingIntegration.Rarity",
              "name": "rarity",
              "type": "uint8"
            },
            {
              "internalType": "uint64",
              "name": "activatedAt",
              "type": "uint64"
            },
            {
              "internalType": "uint64",
              "name": "cooldownEnds",
              "type": "uint64"
            },
            {
              "internalType": "bool",
              "name": "isActive",
              "type": "bool"
            }
          ],
          "internalType": "struct IStakingIntegration.NFTSkill[]",
          "name": "",
          "type": "tuple[]"
        }
      ],
      "stateMutability": "view",
      "type": "function"
    },
    {
      "inputs": [],
      "name": "getAutoCompoundUsers",
      "outputs": [
        {
          "internalType": "address[]",
          "name": "autoUsers",
          "type": "address[]"
        }
      ],
      "stateMutability": "view",
      "type": "function"
    },
    {
      "inputs": [],
      "name": "getContractBalance",
      "outputs": [
        {
          "internalType": "uint256",
          "name": "",
          "type": "uint256"
        }
      ],
      "stateMutability": "view",
      "type": "function"
    },
    {
      "inputs": [
        {
          "internalType": "address",
          "name": "user",
          "type": "address"
        }
      ],
      "name": "getUser",
      "outputs": [
        {
          "internalType": "address[]",
          "name": "",
          "type": "address[]"
        },
        {
          "internalType": "uint256",
          "name": "",
          "type": "uint256"
        },
        {
          "internalType": "uint64",
          "name": "",
          "type": "uint64"
        }
      ],
      "stateMutability": "view",
      "type": "function"
    },
    {
      "inputs": [
        {
          "internalType": "address",
          "name": "user",
          "type": "address"
        },
        {
          "internalType": "uint256",
          "name": "index",
          "type": "uint256"
        }
      ],
      "name": "getUserDeposit",
      "outputs": [
        {
          "internalType": "uint128",
          "name": "",
          "type": "uint128"
        },
        {
          "internalType": "uint64",
          "name": "",
          "type": "uint64"
        },
        {
          "internalType": "uint64",
          "name": "",
          "type": "uint64"
        },
        {
          "internalType": "uint64",
          "name": "",
          "type": "uint64"
        }
      ],
      "stateMutability": "view",
      "type": "function"
    },
    {
      "inputs": [
        {
          "internalType": "address",
          "name": "userAddress",
          "type": "address"
        }
      ],
      "name": "getUserInfo",
      "outputs": [
        {
          "internalType": "uint256",
          "name": "totalDeposited",
          "type": "uint256"
        },
        {
          "internalType": "uint256",
          "name": "totalRewards",
          "type": "uint256"
        },
        {
          "internalType": "uint256",
          "name": "depositCount",
          "type": "uint256"
        },
        {
          "internalType": "uint256",
          "name": "lastWithdrawTime",
          "type": "uint256"
        }
      ],
      "stateMutability": "view",
      "type": "function"
    },
    {
      "inputs": [
        {
          "internalType": "address",
          "name": "user",
          "type": "address"
        }
      ],
      "name": "getUserSkillProfile",
      "outputs": [
        {
          "components": [
            {
              "internalType": "uint256[]",
              "name": "activeNFTIds",
              "type": "uint256[]"
            },
            {
              "internalType": "uint256",
              "name": "totalXP",
              "type": "uint256"
            },
            {
              "internalType": "uint16",
              "name": "level",
              "type": "uint16"
            },
            {
              "internalType": "uint8",
              "name": "maxActiveSkills",
              "type": "uint8"
            },
            {
              "internalType": "uint16",
              "name": "stakingBoostTotal",
              "type": "uint16"
            },
            {
              "internalType": "uint16",
              "name": "feeDiscountTotal",
              "type": "uint16"
            },
            {
              "internalType": "bool",
              "name": "hasAutoCompound",
              "type": "bool"
            }
          ],
          "internalType": "struct IStakingIntegration.UserSkillProfile",
          "name": "profile",
          "type": "tuple"
        }
      ],
      "stateMutability": "view",
      "type": "function"
    },
    {
      "inputs": [
        {
          "internalType": "address",
          "name": "user",
          "type": "address"
        }
      ],
      "name": "hasAutoCompound",
      "outputs": [
        {
          "internalType": "bool",
          "name": "",
          "type": "bool"
        }
      ],
      "stateMutability": "view",
      "type": "function"
    },
    {
      "inputs": [],
      "name": "migrated",
      "outputs": [
        {
          "internalType": "bool",
          "name": "",
          "type": "bool"
        }
      ],
      "stateMutability": "view",
      "type": "function"
    },
    {
      "inputs": [],
      "name": "newContractAddress",
      "outputs": [
        {
          "internalType": "address",
          "name": "",
          "type": "address"
        }
      ],
      "stateMutability": "view",
      "type": "function"
    },
    {
      "inputs": [
        {
          "internalType": "uint256",
          "name": "nftId",
          "type": "uint256"
        }
      ],
      "name": "nftRarity",
      "outputs": [
        {
          "internalType": "enum IStakingIntegration.Rarity",
          "name": "",
          "type": "uint8"
        }
      ],
      "stateMutability": "view",
      "type": "function"
    },
    {
      "inputs": [
        {
          "internalType": "address",
          "name": "user",
          "type": "address"
        },
        {
          "internalType": "uint256",
          "name": "achievementId",
          "type": "uint256"
        },
        {
          "internalType": "uint256",
          "name": "rewardAmount",
          "type": "uint256"
        }
      ],
      "name": "notifyAchievementUnlocked",
      "outputs": [],
      "stateMutability": "nonpayable",
      "type": "function"
    },
    {
      "inputs": [
        {
          "internalType": "address",
          "name": "user",
          "type": "address"
        },
        {
          "internalType": "uint256",
          "name": "questId",
          "type": "uint256"
        },
        {
          "internalType": "uint256",
          "name": "rewardAmount",
          "type": "uint256"
        }
      ],
      "name": "notifyQuestCompletion",
      "outputs": [],
      "stateMutability": "nonpayable",
      "type": "function"
    },
    {
      "inputs": [
        {
          "internalType": "address",
          "name": "user",
          "type": "address"
        },
        {
          "internalType": "uint256",
          "name": "nftId",
          "type": "uint256"
        },
        {
          "internalType": "enum IStakingIntegration.SkillType",
          "name": "skillType",
          "type": "uint8"
        },
        {
          "internalType": "uint16",
          "name": "effectValue",
          "type": "uint16"
        }
      ],
      "name": "notifySkillActivation",
      "outputs": [],
      "stateMutability": "nonpayable",
      "type": "function"
    },
    {
      "inputs": [
        {
          "internalType": "address",
          "name": "user",
          "type": "address"
        },
        {
          "internalType": "uint256",
          "name": "nftId",
          "type": "uint256"
        }
      ],
      "name": "notifySkillDeactivation",
      "outputs": [],
      "stateMutability": "nonpayable",
      "type": "function"
    },
    {
      "inputs": [],
      "name": "owner",
      "outputs": [
        {
          "internalType": "address",
          "name": "",
          "type": "address"
        }
      ],
      "stateMutability": "view",
      "type": "function"
    },
    {
      "inputs": [],
      "name": "pause",
      "outputs": [],
      "stateMutability": "nonpayable",
      "type": "function"
    },
    {
      "inputs": [],
      "name": "paused",
      "outputs": [
        {
          "internalType": "bool",
          "name": "",
          "type": "bool"
        }
      ],
      "stateMutability": "view",
      "type": "function"
    },
    {
      "inputs": [
        {
          "internalType": "bytes",
          "name": "performData",
          "type": "bytes"
        }
      ],
      "name": "performAutoCompound",
      "outputs": [],
      "stateMutability": "nonpayable",
      "type": "function"
    },
    {
      "inputs": [],
      "name": "renounceOwnership",
      "outputs": [],
      "stateMutability": "nonpayable",
      "type": "function"
    },
    {
      "inputs": [],
      "name": "rewardsModule",
      "outputs": [
        {
          "internalType": "contract IEnhancedSmartStakingRewards",
          "name": "",
          "type": "address"
        }
      ],
      "stateMutability": "view",
      "type": "function"
    },
    {
      "inputs": [
        {
          "internalType": "address",
          "name": "_gamificationModule",
          "type": "address"
        }
      ],
      "name": "setGamificationModule",
      "outputs": [],
      "stateMutability": "nonpayable",
      "type": "function"
    },
    {
      "inputs": [
        {
          "internalType": "address",
          "name": "_marketplace",
          "type": "address"
        }
      ],
      "name": "setMarketplaceAddress",
      "outputs": [],
      "stateMutability": "nonpayable",
      "type": "function"
    },
    {
      "inputs": [
        {
          "internalType": "address",
          "name": "_marketplace",
          "type": "address"
        },
        {
          "internalType": "bool",
          "name": "_isAuthorized",
          "type": "bool"
        }
      ],
      "name": "setMarketplaceAuthorization",
      "outputs": [],
      "stateMutability": "nonpayable",
      "type": "function"
    },
    {
      "inputs": [
        {
          "internalType": "address",
          "name": "_rewardsModule",
          "type": "address"
        }
      ],
      "name": "setRewardsModule",
      "outputs": [],
      "stateMutability": "nonpayable",
      "type": "function"
    },
    {
      "inputs": [
        {
          "internalType": "enum IStakingIntegration.SkillType",
          "name": "skillType",
          "type": "uint8"
        },
        {
          "internalType": "bool",
          "name": "enabled",
          "type": "bool"
        }
      ],
      "name": "setSkillEnabled",
      "outputs": [],
      "stateMutability": "nonpayable",
      "type": "function"
    },
    {
      "inputs": [
        {
          "internalType": "address",
          "name": "_skillsModule",
          "type": "address"
        }
      ],
      "name": "setSkillsModule",
      "outputs": [],
      "stateMutability": "nonpayable",
      "type": "function"
    },
    {
      "inputs": [
        {
          "internalType": "address",
          "name": "",
          "type": "address"
        }
      ],
      "name": "setStakingAddress",
      "outputs": [],
      "stateMutability": "pure",
      "type": "function"
    },
    {
      "inputs": [
        {
          "internalType": "enum IStakingIntegration.SkillType",
          "name": "skillType",
          "type": "uint8"
        }
      ],
      "name": "skillDefaultEffects",
      "outputs": [
        {
          "internalType": "uint16",
          "name": "",
          "type": "uint16"
        }
      ],
      "stateMutability": "view",
      "type": "function"
    },
    {
      "inputs": [
        {
          "internalType": "enum IStakingIntegration.SkillType",
          "name": "skillType",
          "type": "uint8"
        }
      ],
      "name": "skillEnabled",
      "outputs": [
        {
          "internalType": "bool",
          "name": "",
          "type": "bool"
        }
      ],
      "stateMutability": "view",
      "type": "function"
    },
    {
      "inputs": [],
      "name": "skillsModule",
      "outputs": [
        {
          "internalType": "contract IEnhancedSmartStakingSkills",
          "name": "",
          "type": "address"
        }
      ],
      "stateMutability": "view",
      "type": "function"
    },
    {
      "inputs": [],
      "name": "totalPoolBalance",
      "outputs": [
        {
          "internalType": "uint256",
          "name": "",
          "type": "uint256"
        }
      ],
      "stateMutability": "view",
      "type": "function"
    },
    {
      "inputs": [
        {
          "internalType": "address",
          "name": "newOwner",
          "type": "address"
        }
      ],
      "name": "transferOwnership",
      "outputs": [],
      "stateMutability": "nonpayable",
      "type": "function"
    },
    {
      "inputs": [],
      "name": "treasury",
      "outputs": [
        {
          "internalType": "address",
          "name": "",
          "type": "address"
        }
      ],
      "stateMutability": "view",
      "type": "function"
    },
    {
      "inputs": [],
      "name": "uniqueUsersCount",
      "outputs": [
        {
          "internalType": "uint256",
          "name": "",
          "type": "uint256"
        }
      ],
      "stateMutability": "view",
      "type": "function"
    },
    {
      "inputs": [],
      "name": "unpause",
      "outputs": [],
      "stateMutability": "nonpayable",
      "type": "function"
    },
    {
      "inputs": [
        {
          "internalType": "enum IStakingIntegration.SkillType",
          "name": "skillType",
          "type": "uint8"
        },
        {
          "internalType": "uint16",
          "name": "newEffectValue",
          "type": "uint16"
        }
      ],
      "name": "updateSkillEffect",
      "outputs": [],
      "stateMutability": "nonpayable",
      "type": "function"
    },
    {
      "inputs": [
        {
          "internalType": "address",
          "name": "user",
          "type": "address"
        },
        {
          "internalType": "uint256",
          "name": "xpGained",
          "type": "uint256"
        }
      ],
      "name": "updateUserXP",
      "outputs": [],
      "stateMutability": "nonpayable",
      "type": "function"
    },
    {
      "inputs": [],
      "name": "withdraw",
      "outputs": [],
      "stateMutability": "nonpayable",
      "type": "function"
    },
    {
      "inputs": [],
      "name": "withdrawAll",
      "outputs": [],
      "stateMutability": "nonpayable",
      "type": "function"
    },
    {
      "inputs": [],
      "name": "withdrawBoosted",
      "outputs": [],
      "stateMutability": "nonpayable",
      "type": "function"
    },
    {
      "stateMutability": "payable",
      "type": "receive"
    }
  ],
  "bytecode": "0x60806040523461002a576100196100146100bf565b610149565b604051614add6103ae8239614add90f35b5f80fd5b634e487b7160e01b5f52604160045260245ffd5b90601f01601f191681019081106001600160401b0382111761006357604052565b61002e565b9061007c61007560405190565b9283610042565b565b6001600160a01b031690565b90565b6001600160a01b0381160361002a57565b9050519061007c8261008d565b9060208282031261002a5761008a9161009e565b61008a614e8b803803806100d281610068565b9283398101906100ab565b61007e61008a61008a9290565b61008a906100dd565b906001600160a01b03905b9181191691161790565b61008a9061007e906001600160a01b031682565b61008a90610108565b61008a9061011c565b9061013e61008a61014592610125565b82546100f3565b9055565b610151610190565b61015d61007e5f6100ea565b6001600160a01b0382161461017f5761017790600261012e565b61007c6102e8565b63e6c4247b60e01b5f908152600490fd5b61007c6101cf565b61008a61008a61008a9290565b61008a6001610198565b905f19906100fe565b906101c861008a61014592610198565b82546101af565b6101d761020f565b61007c6101e26101a5565b60016101b8565b9060ff60a01b9060a01b6100fe565b9061020861008a61014592151590565b82546101e9565b610217610221565b61007c5f806101f8565b61007c33610359565b61023761008a61008a9290565b60ff1690565b634e487b7160e01b5f52601160045260245ffd5b60ff1660ff81146102625760010190565b61023d565b634e487b7160e01b5f52602160045260245ffd5b6011111561028557565b610267565b9061007c8261027b565b61008a9061028a565b6102ad61008a61008a9260ff1690565b61028a565b906102bc90610294565b5f5260205260405f2090565b9060ff906100fe565b906102e161008a61014592151590565b82546102c8565b6001806102f5600161022a565b905b6102ff575050565b61030c6102376010610294565b60ff8216116103425761033c829161033783610332600d61032c8561029d565b906102b2565b6102d1565b610251565b906102f7565b5050565b61008a9061007e565b61008a9054610346565b61037d6103776103685f61034f565b610372845f61012e565b610125565b91610125565b907f8be0079c531659141344cd1fd0a4f28419497f9722a3daafe3b4186f6b6457e06103a860405190565b5f90a356fe60806040526004361015610022575b3615610018575f80fd5b610020614194565b005b5f3560e01c806311bd459f146103775780631376583814610372578063161ba7811461036d57806318f2f4021461036857806323c8738a146103635780632c678c641461035e5780632f1df47614610359578063313a1954146103545780633bab7a89146102af5780633ccfd60b146102965780633f4ba83a1461034f5780633fd51fbf1461034a57806349be75bb146103455780634b1d06d7146103405780635026d63e1461033b5780635312ea8e146103365780635b0df80a146103315780635c975abb1461032c5780635cb60986146103275780635efc27d614610322578063607110581461031d57806361d027b3146103185780636386c1c71461031357806364ab86751461030e5780636744f776146103095780636af04a57146103045780636f77926b146102ff5780636f9fb98a146102fa578063715018a6146102f557806375af38f2146102f05780638456cb59146102eb578063851265b6146102e6578063853828b6146102e157806389257817146102dc5780638d79bb50146102d75780638da5cb5b146102d25780638ec8eef5146102cd578063992976aa146102c8578063a6f353f0146102c3578063ad293709146102be578063b415ff7a146102b9578063b47cc556146102b4578063b907deee146102af578063bece23ba146102aa578063bf37bb6a146102a5578063c3f78e3a146102a0578063c9f8234f1461029b578063d1cc7bb214610296578063e8ac834514610291578063ef6c4acf1461028c578063f154a54914610287578063f2fde38b14610282578063f4e0d9ac1461027d5763f69e20460361000e57611059565b611044565b61102c565b611005565b610fdd565b610fc1565b61085d565b610fa6565b610f6b565b610f44565b610e6f565b610842565b610e57565b610e3c565b610e21565b610dfe565b610de3565b610db4565b610d6f565b610d56565b610d3d565b610d25565b610d0c565b610cd8565b610cbd565b610c9a565b610c7f565b610c55565b610c11565b610bed565b610bd2565b610ba1565b610b3c565b610aff565b610a8e565b610a76565b610a5b565b610a42565b6109d2565b6109a3565b61095b565b6108eb565b6108b6565b610875565b610826565b6107ba565b61073d565b6106f1565b61064f565b6105f2565b61049d565b61043b565b6001600160a01b031690565b90565b6001600160a01b0381165b0361039d57565b5f80fd5b905035906103ae8261038b565b565b9060208282031261039d57610388916103a1565b9052565b5f5b8381106103d95750505f910152565b81810151838201526020016103ca565b61040a61041360209361041d936103fe815190565b80835293849260200190565b958691016103c8565b601f01601f191690565b0190565b9015158152604060208201819052610388929101906103e9565b3461039d5761045361044e3660046103b0565b611174565b9061046961046060405190565b92839283610421565b0390f35b6001600160401b038116610396565b905035906103ae8261046d565b9060208282031261039d576103889161047c565b6104b06104ab366004610489565b611ac2565b604051005b634e487b7160e01b5f52602160045260245ffd5b601111156104d357565b6104b5565b906103ae826104c9565b610388906104d8565b6103c4906104e2565b600511156104d357565b906103ae826104f4565b610388906104fe565b6103c490610508565b9060a0806103ae936105325f8201515f8601906104eb565b60208181015161ffff169085015261055260408201516040860190610511565b6060818101516001600160401b0316908501526080818101516001600160401b0316908501525b01511515910152565b9061041d8160c09361051a565b906105af6105a861059e845190565b8084529260200190565b9260200190565b905f5b8181106105bf5750505090565b9091926105d96105d26001928651610582565b9460200190565b9291016105b2565b60208082526103889291019061058f565b3461039d5761046961060d6106083660046103b0565b611d27565b604051918291826105e1565b80610396565b905035906103ae82610619565b919060408382031261039d5761038890602061064882866103a1565b940161061f565b3461039d5761046961066b61066536600461062c565b90611f0e565b6040515b9182918290815260200190565b5f91031261039d57565b610388916008021c6001600160a01b031690565b906103889154610686565b6103885f600a61069a565b61037c610388610388926001600160a01b031690565b610388906106b0565b610388906106c6565b6103c4906106cf565b6020810192916103ae91906106d8565b3461039d5761070136600461067c565b61046961070c6106a5565b604051918291826106e1565b610388916008021c5b60ff1690565b906103889154610718565b6103885f6005610727565b3461039d5761074d36600461067c565b610469610758610732565b6040515b91829182901515815260200190565b6011111561039d57565b905035906103ae8261076b565b801515610396565b905035906103ae82610782565b919060408382031261039d576103889060206107b38286610775565b940161078a565b3461039d576104b06107cd366004610797565b906120b2565b61ffff8116610396565b905035906103ae826107d3565b60808183031261039d576107fe82826103a1565b9261038861080f846020850161061f565b93606061081f8260408701610775565b94016107dd565b3461039d576104b06108393660046107ea565b9291909161222a565b3461039d5761046961066b6108583660046103b0565b612236565b3461039d5761086d36600461067c565b6104b061226e565b3461039d5761088536600461067c565b6104b0612289565b909160608284031261039d576103886108a684846103a1565b936040610648826020870161061f565b3461039d576104b06108c936600461088d565b916123b0565b919060408382031261039d5761038890602061081f8286610775565b3461039d576104b06108fe3660046108cf565b9061244c565b906109136105a861059e845190565b905f5b8181106109235750505090565b9091926109426105d260019286516001600160a01b0316815260200190565b929101610916565b602080825261038892910190610904565b3461039d5761096b36600461067c565b610469610976612618565b6040519182918261094a565b610388916008021c81565b906103889154610982565b6103885f600361098d565b3461039d576109b336600461067c565b61046961066b610998565b9060208282031261039d576103889161061f565b3461039d576104b06109e53660046109be565b61286d565b909182601f8301121561039d578135916001600160401b03831161039d57602001926001830284011161039d57565b9060208282031261039d5781356001600160401b03811161039d57610a3e92016109ea565b9091565b3461039d576104b0610a55366004610a19565b90612876565b3461039d57610a6b36600461067c565b610469610758612a34565b3461039d576104b0610a893660046103b0565b612b22565b3461039d576104b0610aa136600461062c565b90612ba7565b610af06103ae94610ae0606094989795610ad0608086019a5f8701906001600160801b03169052565b6001600160401b03166020850152565b6001600160401b03166040830152565b01906001600160401b03169052565b3461039d57610469610b1b610b1536600461062c565b90612c3c565b90610b2894929460405190565b94859485610aa7565b6103885f600261069a565b3461039d57610b4c36600461067c565b610469610b57610b31565b604051918291826001600160a01b03909116815260200190565b610b9d6103ae94610b96606094989795610b8f608086019a5f870152565b6020850152565b6040830152565b0152565b3461039d57610469610bbc610bb73660046103b0565b612cbd565b90610bc994929460405190565b94859485610b71565b3461039d5761046961066b610be83660046103b0565b612db4565b3461039d576104b0610c003660046103b0565b613067565b6103886001600561069a565b3461039d57610c2136600461067c565b610469610b57610c05565b604090610af0610c4d6103ae9597969460608401908482035f860152610904565b966020830152565b3461039d57610469610c70610c6b3660046103b0565b613070565b60405191939193849384610c2c565b3461039d57610c8f36600461067c565b61046961066b6130b2565b3461039d57610caa36600461067c565b6104b06130d7565b6103885f600c61069a565b3461039d57610ccd36600461067c565b61046961070c610cb2565b3461039d57610ce836600461067c565b6104b06130f2565b919060408382031261039d576103889060206107b382866103a1565b3461039d576104b0610d1f366004610cf0565b90613163565b3461039d57610d3536600461067c565b6104b0613466565b3461039d576104b0610d5036600461062c565b906134ed565b3461039d576104b0610d6936600461088d565b9161356f565b3461039d57610d7f36600461067c565b610469610b5761357a565b90610d94906106cf565b5f5260205260405f2090565b5f610daf610388926009610d8a565b610727565b3461039d57610469610758610dca3660046103b0565b610da0565b9060208282031261039d5761038891610775565b3461039d57610469610758610df9366004610dcf565b613583565b3461039d576104b0610e113660046103b0565b61360f565b6103885f600b61069a565b3461039d57610e3136600461067c565b61046961070c610e16565b3461039d57610469610758610e523660046103b0565b61362c565b3461039d576104b0610e6a3660046103b0565b6137b6565b3461039d5761046961066b610e8536600461062c565b906137bf565b90610e9a6105a861059e845190565b905f5b818110610eaa5750505090565b909192610ec06105d26001928651815260200190565b929101610e9d565b906103889060c080610ee760e084015f8701518582035f870152610e8b565b94610ef760208201516020860152565b60408181015161ffff169085015260608181015160ff169085015260808181015161ffff169085015260a08181015161ffff1690850152610579565b602080825261038892910190610ec8565b3461039d57610469610f5f610f5a3660046103b0565b613a35565b60405191829182610f33565b3461039d57610469610f86610f81366004610dcf565b613ce2565b6040519182918261ffff909116815260200190565b6103885f600461098d565b3461039d57610fb636600461067c565b61046961066b610f9b565b3461039d5761046961066b610fd736600461062c565b90613d7b565b3461039d576104b0610ff03660046103b0565b613e69565b6020810192916103ae9190610511565b3461039d5761046961102061101b3660046109be565b613e8e565b60405191829182610ff5565b3461039d576104b061103f3660046103b0565b613fbb565b3461039d576110543660046103b0565b613fc4565b3461039d5761106936600461067c565b6104b061418c565b6103889061037c565b6103889054611071565b61037c6103886103889290565b61038890611084565b634e487b7160e01b5f52604160045260245ffd5b90601f01601f191681019081106001600160401b038211176110cf57604052565b61109a565b906103ae6110e160405190565b92836110ae565b6001600160401b0381116110cf57602090601f01601f19160190565b90611116611111836110e8565b6110d4565b918252565b6103885f611104565b61038861111b565b905051906103ae82610782565b905051906103ae82610619565b919060408382031261039d57610388906020611162828661112c565b9401611139565b6040513d5f823e3d90fd5b90611187611182600c61107a565b6106cf565b6111a361119661037c5f611091565b916001600160a01b031690565b14611264576111b5611182600c61107a565b9160406111c160405190565b6311bd459f60e01b81526001600160a01b038316600482015293849060249082905afa92831561125f575f9361122d575b5082156112245761038861120560405190565b6001600160a01b039290921660208084019190915282526040826110ae565b50610388611124565b61125091935060403d604011611258575b61124881836110ae565b810190611146565b9290926111f2565b503d61123e565b611169565b5f9150610388611124565b6112809061127b614229565b611288565b6103ae61425b565b6103ae906112946142a5565b6112ac565b61038890610721565b6103889054611299565b6112b660056112a2565b6112c3576103ae9061131a565b63f2bcabb960e01b5f90815260045b035ffd5b6103886103886103889290565b610388678ac7230489e800006112d6565b9081526040810192916103ae9160200152565b61038869021e19e0c9bab24000006112d6565b6113226112e3565b80341061135c5750611332611307565b80341161134357506103ae90611796565b6330250a5b60e11b5f908152906112d2903460046112f4565b63ea691a4b60e01b5f908152906112d2903460046112f4565b6113826103886103889290565b6001600160401b031690565b61139b6103886103889290565b61ffff1690565b61038861012c61138e565b6103886103886103889261ffff1690565b6001600160a01b0390911681526040810192916103ae916020905b019061ffff169052565b61038861025861138e565b634e487b7160e01b5f52601160045260245ffd5b919061140d565b9290565b9180830292818404149015171561142057565b6113ee565b6103886127106112d6565b634e487b7160e01b5f52601260045260245ffd5b9061144e565b9190565b908115611459570490565b611430565b9190820391821161142057565b6103889081565b610388905461146b565b905f19905b9181191691161790565b9061149b6103886114a2926112d6565b825461147c565b9055565b9190820180921161142057565b6114c06103886103889290565b6001600160801b031690565b610388906114c0565b61038890546114cc565b6114fa906001600160801b03165b916001600160801b031690565b01906001600160801b03821161142057565b906001600160801b0390611481565b6114c0610388610388926001600160801b031690565b906115416103886114a29261151b565b825461150c565b611563906001600160401b03165b916001600160401b031690565b02906001600160401b03821691820361142057565b61038860806110d4565b634e487b7160e01b5f52603260045260245ffd5b80548210156115b6576115ae6002915f5260205f2090565b910201905f90565b611582565b634e487b7160e01b5f525f60045260245ffd5b9067ffffffffffffffff60801b9060801b611481565b611382610388610388926001600160401b031690565b9061160a6103886114a2926115e4565b82546115ce565b9077ffffffffffffffffffffffffffffffffffffffffffffffff199060c01b611481565b906116456103886114a2926115e4565b8254611611565b906001600160401b0390611481565b9061166b6103886114a2926115e4565b825461164c565b6103ae916001906116dd906060906116cf8561169e61169884516001600160801b031690565b82611531565b6116bb6116b560208501516001600160401b031690565b826115fa565b60408301516001600160401b031690611635565b01516001600160401b031690565b910161165b565b91906116f3576103ae91611672565b6115bb565b90815491600160401b8310156110cf578261171b9160016103ae95018155611596565b906116e4565b6107216103886103889290565b6103c490611721565b6001600160a01b0390911681526060810193926103ae929091604091610b9d90602083019061172e565b610388610388610388926001600160401b031690565b6103c490611761565b9081526040810192916103ae9160200190611777565b61179f5f611375565b6001600160401b038216141580611aa6575b80611a8a575b80611a6e575b80611a51575b611a40576117d5610388336006610d8a565b805490919082906117e46113a2565b906117f161144a836113ad565b1015611a2757506119089061190361182961181b6118156118106113e3565b6113ad565b34611402565b611823611425565b90611444565b91611834833461145e565b9561183d815490565b61184961144a5f6112d6565b14611a05575b61186c611865886118606003611472565b6114a6565b600361148b565b611894600161187a896114b3565b930161188e84611889836114d5565b6114df565b90611531565b6118fe6118a042611375565b916118ee6118bc6114096118b662015180611375565b8b611548565b936118d76118c8611578565b6001600160801b039097168752565b6001600160401b0316602086018190526040860152565b6001600160401b03166060840152565b6116f8565b6142b8565b611915611182600c61107a565b61192461119661037c5f611091565b03611970575b7f73a19dd210f1a7f902193214c0ee91dd35ee5b4d920cba8d519eca65a7b488ca90611955336106cf565b9261196b61196260405190565b92839283611780565b0390a2565b61197d611182600c61107a565b90813b1561039d575f61198f60405190565b9283906375af487760e01b82528183816119ae89833360048501611737565b03925af191821561125f577f73a19dd210f1a7f902193214c0ee91dd35ee5b4d920cba8d519eca65a7b488ca926119e8575b50905061192a565b6119ff905f6119f781836110ae565b81019061067c565b5f6119e0565b611a22611a1b611a156004611472565b60010190565b600461148b565b61184f565b63756a320d60e11b5f908152906112d2903360046113be565b631ab8aa1760e21b5f908152600490fd5b50611a5d61016d611375565b6001600160401b03821614156117c3565b50611a7960b4611375565b6001600160401b03821614156117bd565b50611a95605a611375565b6001600160401b03821614156117b7565b50611ab1601e611375565b6001600160401b03821614156117b1565b6103ae9061126f565b6001600160401b0381116110cf5760208091020190565b9061111661111183611acb565b61038860c06110d4565b611b01611aef565b905f82526020808080808087015f5b8152015f8152015f8152015f8152015f905250565b610388611af9565b5f5b828110611b3b57505050565b602090611b46611b25565b8184015201611b2f565b906103ae611b66611b6084611ae2565b93611acb565b601f190160208401611b2d565b905051906103ae8261076b565b6005111561039d57565b905051906103ae82611b80565b905051906103ae826107d3565b905051906103ae8261046d565b91906101008382031261039d57611c4e9060e0611bcf6101006110d4565b94611bda8382611139565b8652611be98360208301611b73565b6020870152611bfb8360408301611b8a565b6040870152611c0d8360608301611b97565b6060870152611c1f8360808301611b97565b6080870152611c318360a0830161112c565b60a0870152611c438360c08301611ba4565b60c087015201611ba4565b60e0830152565b90929192611c6561111182611acb565b9381855261010060208601920283019281841161039d57915b838310611c8b5750505050565b602061010091611c9b8486611bb1565b815201920191611c7e565b9080601f8301121561039d57815161038892602001611c55565b9060208282031261039d5781516001600160401b03811161039d576103889201611ca6565b90611cee825190565b8110156115b6576020809102010190565b61038890516104d8565b61038890516104fe565b906103c4906104d8565b906103c4906104fe565b611d34611182600b61107a565b611d4361119661037c5f611091565b14611f01575f611d8491611d5a611182600b61107a565b6040519384928391829163eb97e4eb60e01b5b83526001600160a01b031660048301526024820190565b03915afa90811561125f575f91611edf575b50611da7611da2825190565b611b50565b90611db15f6112d6565b611dbc610388835190565b811015611eda5780611ddd6020611dd6611ed59486611ce5565b5101611cff565b611eb9611df96060611def8588611ce5565b51015161ffff1690565b611eb086611ea0611e1e611e196040611e128a86611ce5565b5101611d09565b61434a565b611e90611e3f60c0611e308b87611ce5565b5101516001600160401b031690565b91611e87611e6960a0611e618d611e5b60e0611e30838d611ce5565b99611ce5565b510151151590565b97611e7c611e75611aef565b9b8c611d13565b61ffff1660208b0152565b60408901611d1d565b6001600160401b03166060870152565b6001600160401b03166080850152565b151560a0830152565b611ec38286611ce5565b52611ece8185611ce5565b5060010190565b611db1565b505090565b611efb91503d805f833e611ef381836110ae565b810190611cc0565b5f611d96565b50610388611da25f6112d6565b611f1b611182600b61107a565b611f2a61119661037c5f611091565b148015612000575b611ffc575f611f4891611d5a611182600b61107a565b03915afa801561125f57611f63915f91611fe2575b50614363565b50905080611f705f61138e565b61ffff821614611eda57611fae91611f86611425565b91611f9183916113ad565b11611fca575b611fa3611fa9916113ad565b84611402565b611444565b80821115611fbf576103889161145e565b50506103885f6112d6565b50611fa9611fa3611fda8361138e565b915050611f97565b611ff691503d805f833e611ef381836110ae565b5f611f5d565b5090565b5061200a5f6112d6565b8214611f32565b906103ae9161201e614507565b61204d565b90610d94906104e2565b9060ff90611481565b906120466103886114a292151590565b825461202d565b906120575f6104d8565b612060836104d8565b14612078576120736103ae92600d612023565b612036565b60405162461bcd60e51b815260206004820152600d60248201526c125b9d985b1a59081cdada5b1b609a1b604482015280606481015b0390fd5b906103ae91612011565b9291906120d96120d56120d0336009610d8a565b6112a2565b1590565b6120e6576103ae93612163565b632b35006d60e21b5f908152600490fd5b6006815260209081015b65536b696c6c7360d01b81520190565b602080825261038891016120f7565b6020810192916103ae91906104eb565b6113d96103ae94612159606094989795610b8f608086019a5f8701906001600160a01b03169052565b60408301906104eb565b9190612172611182600b61107a565b61218161119661037c5f611091565b14612210576121976120d56120d084600d612023565b6121f9576121a8611182600b61107a565b90813b1561039d575f80946121d96121bf60405190565b97889687958694630c4e865560e21b865260048601612130565b03925af1801561125f576121ea5750565b6103ae905f6119f781836110ae565b635bb4388360e01b5f9081526112d2836004612120565b60405163125c65b960e21b8152806120ae60048201612111565b906103ae9392916120bc565b61038890612db4565b612247614229565b6112806122526142a5565b6103ae61225f60056112a2565b6112c3576103ae6103ae614542565b6103ae61223f565b61227e614507565b6103ae6103ae6147fe565b6103ae612276565b91906122a46120d56120d0336009610d8a565b6120e6576103ae92612319565b600c815260209081015b6b23b0b6b4b334b1b0ba34b7b760a11b81520190565b602080825261038891016122b1565b6103c4906112d6565b6123126103ae94610b96606094989795610b8f608086019a5f8701906001600160a01b03169052565b01906122e0565b9091612328611182600c61107a565b61233761119661037c5f611091565b1461239657612349611182600c61107a565b803b1561039d57601e935f80946121d961236260405190565b978896879586947fff7e5730000000000000000000000000000000000000000000000000000000005b8652600486016122e9565b60405163125c65b960e21b8152806120ae600482016122d1565b906103ae9291612291565b906103ae916123c8614507565b6123e7565b9160206103ae9294936113d960408201965f8301906104eb565b6123f4611182600b61107a565b61240361119661037c5f611091565b1461221057612415611182600b61107a565b91823b1561039d576121d9925f928361242d60405190565b8096819582946124416395e505d860e01b90565b8452600484016123cd565b906103ae916123bb565b369037565b906103ae61246b611b6084611ae2565b601f190160208401612456565b905051906103ae8261038b565b9092919261249561111182611acb565b938185526020808601920283019281841161039d57915b8383106124b95750505050565b602080916124c78486612478565b8152019201916124ac565b9080601f8301121561039d57815161038892602001612485565b919060608382031261039d57610b9690604061250860606110d4565b94612513838261112c565b86526125228360208301611139565b602087015201611139565b9092919261253d61111182611acb565b93818552606060208601920283019281841161039d57915b8383106125625750505050565b602060609161257184866124ec565b815201920191612555565b9080601f8301121561039d5781516103889260200161252d565b909160608284031261039d5781516001600160401b03811161039d57836125be9184016124d2565b926020830151906001600160401b03821161039d5760406111628261038894870161257c565b9160206103ae92949361231260408201965f8301906122e0565b9160206103ae929493610b9d60408201965f8301906122e0565b612625611182600c61107a565b61263461119661037c5f611091565b1461273057612646611182600c61107a565b631fc8ee5e5f61265560405190565b80936126618460e01b90565b82528180612674600186600484016125e4565b03915afa91821561125f575f92612713575b506126905f6112d6565b8214612700576126cf915f916126c36126ac611182600c61107a565b916126b660405190565b9586948593849360e01b90565b835286600484016125fe565b03915afa90811561125f575f916126e4575090565b611eda91503d805f833e6126f881836110ae565b810190612596565b505061038861270e5f6112d6565b61245b565b6127289192503d805f833e6126f881836110ae565b929150612686565b61038861270e5f6112d6565b6103ae90612748614507565b612788565b3d156127665761275c3d611104565b903d5f602084013e565b606090565b6001600160a01b0390911681526040810192916103ae9160200152565b6127915f6112d6565b81148015612855575b612844576127a8600261107a565b6127b761119661037c5f611091565b14612844576127e75f806127d1611182611182600261107a565b6040515f9186905af16127e261274d565b501590565b612822577f23d6711a1d031134a36921253c75aa59e967d38e369ac625992824315e204f2061196b612818336106cf565b9261066f60405190565b6112d25f91612831600261107a565b63d3cc1fd760e01b84526004840161276b565b63e6c4247b60e01b5f908152600490fd5b50612866612862306106cf565b3190565b811161279a565b6103ae9061273c565b61118290612886928101906103b0565b612893611182600c61107a565b6128a261119661037c5f611091565b14612396576128b081612db4565b6128b95f6112d6565b8114612a0d576128cd610388836006610d8a565b926128d7826114b3565b916128ec6001860161188e85611889836114d5565b61293a5f6128f942611375565b96019384612917612908611578565b6001600160801b039093168352565b6001600160401b0388166020830181905260408301525b6118fe6118ee5f611375565b6129435f6112d6565b61294e610388855490565b8110156129745780611a15875f61296861296f9589611596565b5001611635565b612943565b509291509250612987611182600c61107a565b803b1561039d575f61299860405190565b630c1cca1760e21b81526001600160a01b0384166004820152918290602490829084905af1801561125f577fc16de066392da7e40ceccb739c331fc48a2e76bf147449613c48023d960eec329261196b92612818926129f8575b506106cf565b612a07905f6119f781836110ae565b5f6129f2565b63afb0be3360e01b5f908152600490fd5b6103889060a01c610721565b6103889054612a1e565b6103885f612a2a565b6103ae90612a49614507565b612a5561037c5f611091565b6001600160a01b03821614612844576103ae90612ab7565b906001600160a01b0390611481565b90612a8c6103886114a2926106cf565b8254612a6d565b600c906122bb565b61038890612a93565b60405180612ab181612a9b565b03902090565b612ac4611182600c61107a565b90612ad8612ad1826106cf565b600c612a7c565b612af2612aec612ae6612aa4565b936106cf565b916106cf565b917fe5340bb646fa554a3082f7baa2b415eb1874ff7d4c3f118686180386e71f738e612b1d60405190565b5f90a4565b6103ae90612a3d565b90612b3d6120d56120d0336009610d8a565b6120e6576103ae91612b52611182600c61107a565b612b6161119661037c5f611091565b1461239657612b73611182600c61107a565b91823b1561039d576121d99260025f8094612b8d60405190565b968795869485936375af487760e01b855260048501611737565b906103ae91612b2b565b15612bb857565b60405162461bcd60e51b815260206004820152601560248201527f496e76616c6964206465706f73697420696e64657800000000000000000000006044820152606490fd5b6103889060801c611382565b6103889054612bfd565b6103889060c01c611382565b6103889054612c13565b61038890611382565b6103889054612c29565b612c75915f612c5a610388611ffc94612c525f90565b506006610d8a565b01612c70612c69610388835490565b8310612bb1565b611596565b908190612c81826114d5565b90612ca06001612c99612c9387612c09565b96612c1f565b9401612c32565b9193929190565b610388610388610388926001600160801b031690565b90612ccc610388836006610d8a565b916001830191610388612d03612cfd612cf75f612cf1612ceb896114d5565b97612db4565b98015490565b95612c09565b93612ca7565b949392611761565b6007815260209081015b665265776172647360c81b81520190565b60208082526103889101612d0b565b909160608284031261039d57610388612d4e8484611b97565b936040612d5e8260208701611b97565b9401611b97565b9060208282031261039d5761038891611139565b909594926103ae94612daa6113d992612da3608096612d9c60a088019c5f890152565b6020870152565b6040850152565b60ff166060830152565b905f91612dc4611182600a61107a565b90612dce5f611091565b91612de16001600160a01b038416611196565b14612fd0575f612df5610388836006610d8a565b0190612dff825490565b612e0b61144a5f6112d6565b14612fc257612e195f61138e565b92612e3a611196612e2d611182600b61107a565b926001600160a01b031690565b03612f4c575b50612e4a5f6112d6565b935b612e57610388835490565b851015612f4657612e6b611ffc8684611596565b6020612e81612e7c60018401612c32565b614806565b915f612e90611182600a61107a565b910190612ea4612e9f836114d5565b612ca7565b91612ec2612eb7612ebc612eb784612c09565b611761565b92612c1f565b92612eea89612ed060405190565b97889687958695630e41265d60e41b875260048701612d79565b03915afa801561125f57612f1092612f09925f92612f16575b506114a6565b9460010190565b93612e4c565b612f3891925060203d8111612f3f575b612f3081836110ae565b810190612d65565b905f612f03565b503d612f26565b93505050565b612f79919250606090612f62611182600b61107a565b60405193849283918291630166b5c560e61b611d6d565b03915afa90811561125f575f91612f93575b50905f612e40565b612fb5915060603d606011612fbb575b612fad81836110ae565b810190612d35565b50612f8b565b503d612fa3565b50505090506103885f6112d6565b60405163125c65b960e21b8152806120ae60048201612d26565b6103ae90612ff6614507565b61300261037c5f611091565b6001600160a01b03821614612844576103ae90613038565b600790612d15565b6103889061301a565b60405180612ab181613022565b613045611182600a61107a565b90613059613052826106cf565b600a612a7c565b612af2612aec612ae661302b565b6103ae90612fea565b6103886130869161307f606090565b505f612c52565b600161309461270e5f6112d6565b9101916130ac6130a6612e9f856114d5565b93612c09565b91929190565b612862306106cf565b6130c3614507565b6103ae6103ae6130d25f611091565b6148c2565b6103ae6130bb565b6130e7614507565b6103ae6103ae614946565b6103ae6130df565b906103ae91613107614507565b61311361037c5f611091565b6001600160a01b038216146128445761196b61315982611182856120737f51922599c85464cb24125d27a1c803d6110329ff39eb424c444158c91a5b6335966009610d8a565b9261075c60405190565b906103ae916130fa565b613175614229565b6112806131806142a5565b6103ae61318d60056112a2565b6112c3576103ae61326f565b6131ab906001600160401b0316611556565b01906001600160401b03821161142057565b610388906002611402565b905f036116f3575f808255600190910155565b8181106131e6575050565b806131f35f6002936131c8565b016131db565b91909182821061320857505050565b61322a61322061321a6103ae956131bd565b936131bd565b915f5260205f2090565b91820191016131db565b90600160401b81116110cf578161324c6103ae935490565b908281556131f9565b5f6103ae91613234565b905f036116f3576103ae90613255565b61327d610388336006610d8a565b90600182019061328c826114d5565b6132986114ed5f6114b3565b14613455576132a65f6112d6565b8354849082101561332a57611ffc826132be92611596565b600181016132cb81612c32565b6132d76115565f611375565b1191826132fe575b50506132ed576001016132a6565b633b20f1c360e21b5f908152600490fd5b61332192509061331b6133155f612eb79401612c09565b91612c32565b90613199565b42105f806132df565b5050919061333733612db4565b9061336061181b61334e84611860612e9f866114d5565b9361335a6118106113e3565b90611402565b9061336b828461145e565b93613375306106cf565b3161338661144a61038886896114a6565b10613444576133ef936133c05f80611865946133ba6133cf976133ab611698856114b3565b6133b442611375565b906115fa565b0161325f565b6133ca6003611472565b61145e565b6133d96004611472565b6133e561144a5f6112d6565b1161342e576142b8565b613401816133fc336106cf565b614a0c565b7fd7a4aa9f3dca5f6606ac15d7e1850920201bbb02c38cd986793779f58ae0dfd361196b612818336106cf565b611903611a1b61343e6004611472565b5f190190565b631e9acf1760e31b5f908152600490fd5b636f16c5e960e11b5f908152600490fd5b6103ae61316d565b906134806120d56120d0336009610d8a565b6120e6576103ae91613495611182600b61107a565b6134a461119661037c5f611091565b14612210576134b6611182600b61107a565b91823b1561039d576121d9925f92836134ce60405190565b8096819582946134e2638925781760e01b90565b84526004840161276b565b906103ae9161346e565b919061350a6120d56120d0336009610d8a565b6120e6576103ae929091613521611182600c61107a565b61353061119661037c5f611091565b1461239657613542611182600c61107a565b803b1561039d57601e935f80946121d961355b60405190565b97889687958694630ac9679360e41b61238b565b906103ae92916134f7565b6103885f61107a565b6120d0610388916135915f90565b50600d612023565b6103ae906135a5614507565b6135b161037c5f611091565b6001600160a01b03821614612844576103ae906135df612aec6135d4600261107a565b611182846002612a7c565b907f4ab5be82436d353e61ca18726e984e561f5c1cc7c6d38b29d2553c790434705a61360a60405190565b5f90a3565b6103ae90613599565b9060608282031261039d57610388916124ec565b613639611182600c61107a565b6136425f611091565b906136556001600160a01b038316611196565b1415806136b7575b6136b057613674611196612e2d611182600b61107a565b146136ab575f61368b91611d5a611182600b61107a565b03915afa801561125f576136a5915f91611fe25750614363565b91505090565b505f90565b5050600190565b506136c5611182600c61107a565b60606136d060405190565b6306655b9760e21b81526001600160a01b038516600482015291829060249082905afa90811561125f5761370f915f918291613714575b500151151590565b61365d565b613736915060603d60601161373c575b61372e81836110ae565b810190613618565b5f613707565b503d613724565b6103ae9061374f614507565b61375b61037c5f611091565b6001600160a01b038216146128445780611182600161207361377e946009610d8a565b7f51922599c85464cb24125d27a1c803d6110329ff39eb424c444158c91a5b63356137a860405190565b60018152806020810161196b565b6103ae90613743565b6137cc611182600b61107a565b6137db61119661037c5f611091565b14611ffc5760606137f391612f62611182600b61107a565b03915afa90811561125f575f91613843575b5061380f5f61138e565b61ffff821614611ffc579061383d61383261382c610388946113ad565b83611402565b6118236127106112d6565b906114a6565b61385c915060603d606011612fbb57612fad81836110ae565b50613805565b61038860e06110d4565b613874613862565b9060608252602080808080808088015f8152015f611b10565b61038861386c565b6103886005611721565b909291926138af61111182611acb565b938185526020808601920283019281841161039d57915b8383106138d35750505050565b602080916138e18486611139565b8152019201916138c6565b9080601f8301121561039d5781516103889260200161389f565b60ff8116610396565b905051906103ae82613906565b9190916101208184031261039d576139356101206110d4565b815190936001600160401b03821161039d57613956816139e19385016138ec565b85526139658160208501611b97565b60208601526139778160408501611b97565b60408601526139898160608501611b97565b606086015261399b8160808501611b97565b60808601526139ad8160a0850161112c565b60a08601526139bf8160c08501611b97565b60c08601526139d18160e08501611b97565b60e086015261010080930161390f565b90830152565b9060208282031261039d5781516001600160401b03811161039d57610388920161391c565b909160608284031261039d57610388613a258484611139565b9360406111628260208701611b97565b90613a3e61388d565b8092613a55613a4b613895565b60ff166060840152565b613a6161270e5f6112d6565b8252815f92613a73611182600b61107a565b90613a7d5f611091565b91613a906001600160a01b038416611196565b03613bcf575b50613aaa611196612e2d611182600c61107a565b03613ae0575b60c091500190613ac36120d58351151590565b9081613ad8575b50613ad25750565b60019052565b90505f613aca565b613aed611182600c61107a565b916060613af960405190565b6326a13d5360e21b81526001600160a01b038316600482015293849060249082905afa90811561125f57613b48606092613b6c955f905f92613b9c575b5060208601525b61ffff166040850152565b613b55611182600c61107a565b604051948592839182916306655b9760e21b611d6d565b03915afa801561125f575f613b8c9160c094829161371457500151151590565b15613ab057600181830152613ab0565b613b3d9250613bc19150853d8711613bc8575b613bb981836110ae565b810190613a0c565b5091613b36565b503d613baf565b909350613bdf611182600b61107a565b905f613bea60405190565b635f9bddb560e11b81526001600160a01b038616600482015292839060249082905afa91821561125f57613c3f92613c34926020925f92613caa575b5081519052015161ffff1690565b61ffff166080830152565b613c4c611182600b61107a565b925f613c5760405190565b63eb97e4eb60e01b81526001600160a01b038516600482015294859060249082905afa93841561125f57613ca494613c95915f91611fe25750614363565b61ffff90921660a08501525093565b5f613a96565b613cc79192503d805f833e613cbf81836110ae565b8101906139e7565b905f613c26565b9060208282031261039d5761038891611b97565b613cef611182600b61107a565b613cfe61119661037c5f611091565b14613d71576020613d3391613d16611182600b61107a565b60405193849283918291634411ac5f60e01b835260048301612120565b03915afa90811561125f575f91613d48575090565b610388915060203d602011613d6a575b613d6281836110ae565b810190613cce565b503d613d58565b506103885f61138e565b613d88611182600b61107a565b613d9761119661037c5f611091565b148015613ddb575b611ffc575f613db591611d5a611182600b61107a565b03915afa801561125f57613dcf915f91611fe25750614363565b505080611f705f61138e565b50613de55f6112d6565b8214613d9f565b6103ae90613df8614507565b613e0461037c5f611091565b6001600160a01b03821614612844576103ae90613e3a565b600690612101565b61038890613e1c565b60405180612ab181613e24565b613e47611182600b61107a565b90613e5b613e54826106cf565b600b612a7c565b612af2612aec612ae6613e2d565b6103ae90613dec565b919060408382031261039d57610388906020612d5e8286611b8a565b613e9b611182600b61107a565b613eaa61119661037c5f611091565b146136ab576040613ee291613ec2611182600b61107a565b604051938492839182916239f9d560ea1b83526004830190815260200190565b03915afa801561125f57610388915f91613efd575b5061434a565b613f1f915060403d604011613f24575b613f1781836110ae565b810190613e72565b613ef7565b503d613f0d565b6103ae90613f37614507565b613f97565b15613f4357565b60405162461bcd60e51b815260206004820152602660248201527f4f776e61626c653a206e6577206f776e657220697320746865207a65726f206160448201526564647265737360d01b6064820152608490fd5b6103ae906130d2613faa61037c5f611091565b6001600160a01b0383161415613f3c565b6103ae90613f2b565b60405162461bcd60e51b815260206004820152600e60248201526d4e6f74206170706c696361626c6560901b6044820152606490fd5b614002614229565b61128061400d6142a5565b6103ae61401a60056112a2565b6112c3576103ae61402f610388336006610d8a565b9061403933612db4565b906140435f6112d6565b8214612a0d57614052826114b3565b906140676001850161188e84611889836114d5565b61409e5f61407442611375565b95019283614083612908611578565b6001600160401b03871660208301819052604083015261292e565b6140a75f6112d6565b6140b2610388845490565b8110156140d15780611a15865f6129686140cc9588611596565b6140a7565b509250506140e2611182600c61107a565b6140f161119661037c5f611091565b03614124575b7fc16de066392da7e40ceccb739c331fc48a2e76bf147449613c48023d960eec3261196b612818336106cf565b614131611182600c61107a565b803b1561039d575f61414260405190565b9182906375af487760e01b82528183816141628860013360048501611737565b03925af1801561125f57614177575b506140f7565b614186905f6119f781836110ae565b5f614171565b6103ae613ffa565b61419d336106cf565b7fe37b2ae9cc03ec700b9146c4df2fc797e7a1119c08fc25513755ab5315faa6d26141c760405190565b8061196b4234836112f4565b61038860026112d6565b156141e457565b60405162461bcd60e51b815260206004820152601f60248201527f5265656e7472616e637947756172643a207265656e7472616e742063616c6c006044820152606490fd5b6103ae6142366001611472565b61424a6142416141d3565b918214156141dd565b600161148b565b61038860016112d6565b6103ae61424a614251565b1561426d57565b60405162461bcd60e51b815260206004820152601060248201526f14185d5cd8589b194e881c185d5cd95960821b6044820152606490fd5b6103ae6142b36120d5612a34565b614266565b6142c2600261107a565b6142d161119661037c5f611091565b14612844576142eb5f806127d1611182611182600261107a565b612822577fe37b2ae9cc03ec700b9146c4df2fc797e7a1119c08fc25513755ab5315faa6d261196b614320611182600261107a565b9261432a60405190565b9182914290836112f4565b6143456103886103889260ff1690565b6104fe565b61435e610388916143585f90565b50610508565b614335565b905f9182806143715f6112d6565b61437c610388855190565b811015614470576143956120d560a0611e618488611ce5565b614400576143a86020611dd68387611ce5565b6143b76060611def8488611ce5565b6143c160066104d8565b6143ca836104d8565b148015614456575b614442575b6143e160056104d8565b6143ea836104d8565b1461442d575b5082159081614411575b50614408575b600101614371565b60019150614400565b905061442661442060046104d8565b916104d8565b145f6143fa565b9361383d61443b92956113ad565b925f6143f0565b966144509061383d896113ad565b966143d7565b5061446160076104d8565b61446a836104d8565b146143d2565b5091509261447f61ffff6113ad565b8082116144af575b8085116144a5575b5061449c6144a29161138e565b9361138e565b91565b935061449c61448f565b905080614487565b156144be57565b60405162461bcd60e51b8152806120ae600482016020808252818101527f4f776e61626c653a2063616c6c6572206973206e6f7420746865206f776e6572604082015260600190565b6103ae61451261357a565b61451e6111963361037c565b146144b7565b610388620151806112d6565b610388683635c9adc5dea000006112d6565b614550610388336006610d8a565b90614559614524565b6145638142611444565b61457c61144a610388614577336008610d8a565b611472565b1161474a575b5061458c33612db4565b916145965f6112d6565b8314612a0d5760076145af846118606145773385610d8a565b6145b7614530565b90811061471857506145cd6145e0913390610d8a565b6145da8561186083611472565b9061148b565b6145e95f6112d6565b8154829082101561465057611ffc8261460192611596565b6001810161460e81612c32565b61461a6115565f611375565b119182614630575b50506132ed576001016145e9565b61464792509061331b6133155f612eb79401612c09565b42105f80614622565b5050919061467561466e61181b6146686118106113e3565b85611402565b809361145e565b9161467f306106cf565b3161469061144a61038884876114a6565b106134445761469e42611375565b916146a85f6112d6565b855486908210156146cb5790611a15855f612968846146c696611596565b6146a8565b5050936146de92600161190392016115fa565b6146eb816133fc336106cf565b7f7084f5476618d8e60b11ef0d7d3f06914655adb8793e28ff7f018d4c76d505d561196b612818336106cf565b6147346112d29161472e6145775f953390610d8a565b9061145e565b631aefe80360e21b835260048301526024820190565b61477e612eb7614779614789936147736147635f6112d6565b61476e336007610d8a565b61148b565b42611444565b611375565b61476e336008610d8a565b5f614582565b614797614a97565b6103ae6147c5565b9060ff60a01b9060a01b611481565b906147be6103886114a292151590565b825461479f565b6147cf5f806147ae565b7f5db9ee0a495bf2e6ff9c91a7834c1ba4fdd244a5e8aa4e537bd38aeae4b073aa6147f933610b57565b0390a1565b6103ae61478f565b61480f5f611375565b6001600160401b038216146148b85761482a62278d00611375565b6001600160401b038216146148ad576148456276a700611375565b6001600160401b038216146148a25761486062ed4e00611375565b6001600160401b038216146148975761487f6115566301e13380611375565b1461488d576103885f611721565b6103886004611721565b506103886003611721565b506103886002611721565b506103886001611721565b506103885f611721565b6148db612aec6148d15f61107a565b611182845f612a7c565b907f8be0079c531659141344cd1fd0a4f28419497f9722a3daafe3b4186f6b6457e061360a60405190565b61490e6142a5565b6103ae61491c60015f6147ae565b7f62e78cea01bee320cd4e420270b5ea74000d11b0c9f74754ebdbfc544b05a2586147f933610b57565b6103ae614906565b1561495557565b60405162461bcd60e51b815260206004820152601d60248201527f416464726573733a20696e73756666696369656e742062616c616e63650000006044820152606490fd5b156149a157565b60405162461bcd60e51b815260206004820152603a60248201527f416464726573733a20756e61626c6520746f2073656e642076616c75652c207260448201527f6563697069656e74206d617920686176652072657665727465640000000000006064820152608490fd5b5f6103ae92614a2c8293611182614a22306106cf565b849031101561494e565b90614a3660405190565b90818003925af1614a4561274d565b5061499a565b15614a5257565b60405162461bcd60e51b815260206004820152601460248201527f5061757361626c653a206e6f74207061757365640000000000000000000000006044820152606490fd5b6103ae614aa2612a34565b614a4b56fea26469706673582212208f72fd8d7aff841fa9df13d07ef753981408051b65c467c1ecf5a8f9615ffaeb64736f6c634300081c0033",
  "linkReferences": {},
  "deployedLinkReferences": {}
}