{
  "_format": "hh-sol-artifact-1",
  "contractName": "EnhancedSmartStaking",
  "sourceName": "contracts/SmartStaking/EnhancedSmartStakingCore.sol",
  "abi": [
    {
      "inputs": [
        {
          "internalType": "address",
          "name": "_treasury",
          "type": "address"
        }
      ],
      "stateMutability": "nonpayable",
      "type": "constructor"
    },
    {
      "inputs": [
        {
          "internalType": "address",
          "name": "treasury",
          "type": "address"
        },
        {
          "internalType": "uint256",
          "name": "amount",
          "type": "uint256"
        }
      ],
      "name": "CommissionTransferFailed",
      "type": "error"
    },
    {
      "inputs": [],
      "name": "ContractIsMigrated",
      "type": "error"
    },
    {
      "inputs": [
        {
          "internalType": "uint256",
          "name": "availableToWithdraw",
          "type": "uint256"
        }
      ],
      "name": "DailyWithdrawalLimitExceeded",
      "type": "error"
    },
    {
      "inputs": [
        {
          "internalType": "uint256",
          "name": "provided",
          "type": "uint256"
        },
        {
          "internalType": "uint256",
          "name": "maximum",
          "type": "uint256"
        }
      ],
      "name": "DepositTooHigh",
      "type": "error"
    },
    {
      "inputs": [
        {
          "internalType": "uint256",
          "name": "provided",
          "type": "uint256"
        },
        {
          "internalType": "uint256",
          "name": "minimum",
          "type": "uint256"
        }
      ],
      "name": "DepositTooLow",
      "type": "error"
    },
    {
      "inputs": [],
      "name": "FundsAreLocked",
      "type": "error"
    },
    {
      "inputs": [],
      "name": "InsufficientBalance",
      "type": "error"
    },
    {
      "inputs": [],
      "name": "InvalidAddress",
      "type": "error"
    },
    {
      "inputs": [],
      "name": "InvalidLockupDuration",
      "type": "error"
    },
    {
      "inputs": [
        {
          "internalType": "address",
          "name": "user",
          "type": "address"
        },
        {
          "internalType": "uint16",
          "name": "maxDeposits",
          "type": "uint16"
        }
      ],
      "name": "MaxDepositsReached",
      "type": "error"
    },
    {
      "inputs": [
        {
          "internalType": "string",
          "name": "moduleName",
          "type": "string"
        }
      ],
      "name": "ModuleNotSet",
      "type": "error"
    },
    {
      "inputs": [],
      "name": "NoDepositsFound",
      "type": "error"
    },
    {
      "inputs": [],
      "name": "NoRewardsAvailable",
      "type": "error"
    },
    {
      "inputs": [],
      "name": "OnlyMarketplace",
      "type": "error"
    },
    {
      "inputs": [
        {
          "internalType": "enum IStakingIntegration.SkillType",
          "name": "skillType",
          "type": "uint8"
        }
      ],
      "name": "SkillDisabled",
      "type": "error"
    },
    {
      "anonymous": false,
      "inputs": [
        {
          "indexed": true,
          "internalType": "address",
          "name": "user",
          "type": "address"
        },
        {
          "indexed": false,
          "internalType": "uint256",
          "name": "compoundedAmount",
          "type": "uint256"
        }
      ],
      "name": "AutoCompoundTriggered",
      "type": "event"
    },
    {
      "anonymous": false,
      "inputs": [
        {
          "indexed": true,
          "internalType": "address",
          "name": "receiver",
          "type": "address"
        },
        {
          "indexed": false,
          "internalType": "uint256",
          "name": "amount",
          "type": "uint256"
        },
        {
          "indexed": false,
          "internalType": "uint256",
          "name": "timestamp",
          "type": "uint256"
        }
      ],
      "name": "CommissionPaid",
      "type": "event"
    },
    {
      "anonymous": false,
      "inputs": [
        {
          "indexed": true,
          "internalType": "address",
          "name": "user",
          "type": "address"
        },
        {
          "indexed": false,
          "internalType": "uint256",
          "name": "amount",
          "type": "uint256"
        }
      ],
      "name": "Compounded",
      "type": "event"
    },
    {
      "anonymous": false,
      "inputs": [
        {
          "indexed": true,
          "internalType": "address",
          "name": "user",
          "type": "address"
        },
        {
          "indexed": false,
          "internalType": "uint256",
          "name": "amount",
          "type": "uint256"
        },
        {
          "indexed": false,
          "internalType": "uint256",
          "name": "lockupDuration",
          "type": "uint256"
        }
      ],
      "name": "Deposited",
      "type": "event"
    },
    {
      "anonymous": false,
      "inputs": [
        {
          "indexed": true,
          "internalType": "address",
          "name": "user",
          "type": "address"
        },
        {
          "indexed": false,
          "internalType": "uint256",
          "name": "amount",
          "type": "uint256"
        }
      ],
      "name": "EmergencyWithdrawal",
      "type": "event"
    },
    {
      "anonymous": false,
      "inputs": [
        {
          "indexed": true,
          "internalType": "address",
          "name": "marketplace",
          "type": "address"
        },
        {
          "indexed": false,
          "internalType": "bool",
          "name": "isAuthorized",
          "type": "bool"
        }
      ],
      "name": "MarketplaceAuthorizationUpdated",
      "type": "event"
    },
    {
      "anonymous": false,
      "inputs": [
        {
          "indexed": true,
          "internalType": "string",
          "name": "moduleName",
          "type": "string"
        },
        {
          "indexed": true,
          "internalType": "address",
          "name": "oldModule",
          "type": "address"
        },
        {
          "indexed": true,
          "internalType": "address",
          "name": "newModule",
          "type": "address"
        }
      ],
      "name": "ModuleUpdated",
      "type": "event"
    },
    {
      "anonymous": false,
      "inputs": [
        {
          "indexed": true,
          "internalType": "address",
          "name": "previousOwner",
          "type": "address"
        },
        {
          "indexed": true,
          "internalType": "address",
          "name": "newOwner",
          "type": "address"
        }
      ],
      "name": "OwnershipTransferred",
      "type": "event"
    },
    {
      "anonymous": false,
      "inputs": [
        {
          "indexed": false,
          "internalType": "address",
          "name": "account",
          "type": "address"
        }
      ],
      "name": "Paused",
      "type": "event"
    },
    {
      "anonymous": false,
      "inputs": [
        {
          "indexed": true,
          "internalType": "address",
          "name": "user",
          "type": "address"
        },
        {
          "indexed": true,
          "internalType": "uint256",
          "name": "nftId",
          "type": "uint256"
        },
        {
          "indexed": false,
          "internalType": "enum IStakingIntegration.SkillType",
          "name": "skillType",
          "type": "uint8"
        },
        {
          "indexed": false,
          "internalType": "uint16",
          "name": "effectValue",
          "type": "uint16"
        }
      ],
      "name": "SkillActivated",
      "type": "event"
    },
    {
      "anonymous": false,
      "inputs": [
        {
          "indexed": true,
          "internalType": "address",
          "name": "user",
          "type": "address"
        },
        {
          "indexed": true,
          "internalType": "uint256",
          "name": "nftId",
          "type": "uint256"
        },
        {
          "indexed": false,
          "internalType": "enum IStakingIntegration.SkillType",
          "name": "skillType",
          "type": "uint8"
        }
      ],
      "name": "SkillDeactivated",
      "type": "event"
    },
    {
      "anonymous": false,
      "inputs": [
        {
          "indexed": true,
          "internalType": "address",
          "name": "user",
          "type": "address"
        },
        {
          "indexed": false,
          "internalType": "uint16",
          "name": "level",
          "type": "uint16"
        },
        {
          "indexed": false,
          "internalType": "uint8",
          "name": "maxActiveSkills",
          "type": "uint8"
        },
        {
          "indexed": false,
          "internalType": "uint16",
          "name": "stakingBoostTotal",
          "type": "uint16"
        }
      ],
      "name": "SkillProfileUpdated",
      "type": "event"
    },
    {
      "anonymous": false,
      "inputs": [
        {
          "indexed": true,
          "internalType": "address",
          "name": "oldTreasury",
          "type": "address"
        },
        {
          "indexed": true,
          "internalType": "address",
          "name": "newTreasury",
          "type": "address"
        }
      ],
      "name": "TreasuryUpdated",
      "type": "event"
    },
    {
      "anonymous": false,
      "inputs": [
        {
          "indexed": false,
          "internalType": "address",
          "name": "account",
          "type": "address"
        }
      ],
      "name": "Unpaused",
      "type": "event"
    },
    {
      "anonymous": false,
      "inputs": [
        {
          "indexed": true,
          "internalType": "address",
          "name": "user",
          "type": "address"
        },
        {
          "indexed": false,
          "internalType": "uint256",
          "name": "totalAmount",
          "type": "uint256"
        }
      ],
      "name": "WithdrawAll",
      "type": "event"
    },
    {
      "anonymous": false,
      "inputs": [
        {
          "indexed": true,
          "internalType": "address",
          "name": "user",
          "type": "address"
        },
        {
          "indexed": false,
          "internalType": "uint256",
          "name": "amount",
          "type": "uint256"
        }
      ],
      "name": "Withdrawn",
      "type": "event"
    },
    {
      "inputs": [
        {
          "internalType": "address",
          "name": "",
          "type": "address"
        }
      ],
      "name": "authorizedMarketplaces",
      "outputs": [
        {
          "internalType": "bool",
          "name": "",
          "type": "bool"
        }
      ],
      "stateMutability": "view",
      "type": "function"
    },
    {
      "inputs": [
        {
          "internalType": "address",
          "name": "user",
          "type": "address"
        },
        {
          "internalType": "uint256",
          "name": "baseAPY",
          "type": "uint256"
        }
      ],
      "name": "calculateBoostedAPY",
      "outputs": [
        {
          "internalType": "uint256",
          "name": "",
          "type": "uint256"
        }
      ],
      "stateMutability": "view",
      "type": "function"
    },
    {
      "inputs": [
        {
          "internalType": "address",
          "name": "userAddress",
          "type": "address"
        }
      ],
      "name": "calculateBoostedRewards",
      "outputs": [
        {
          "internalType": "uint256",
          "name": "totalRewards",
          "type": "uint256"
        }
      ],
      "stateMutability": "view",
      "type": "function"
    },
    {
      "inputs": [
        {
          "internalType": "address",
          "name": "userAddress",
          "type": "address"
        }
      ],
      "name": "calculateBoostedRewardsWithRarityMultiplier",
      "outputs": [
        {
          "internalType": "uint256",
          "name": "",
          "type": "uint256"
        }
      ],
      "stateMutability": "view",
      "type": "function"
    },
    {
      "inputs": [
        {
          "internalType": "address",
          "name": "user",
          "type": "address"
        },
        {
          "internalType": "uint256",
          "name": "baseFee",
          "type": "uint256"
        }
      ],
      "name": "calculateFeeDiscount",
      "outputs": [
        {
          "internalType": "uint256",
          "name": "",
          "type": "uint256"
        }
      ],
      "stateMutability": "view",
      "type": "function"
    },
    {
      "inputs": [
        {
          "internalType": "address",
          "name": "user",
          "type": "address"
        },
        {
          "internalType": "uint256",
          "name": "baseLockTime",
          "type": "uint256"
        }
      ],
      "name": "calculateReducedLockTime",
      "outputs": [
        {
          "internalType": "uint256",
          "name": "",
          "type": "uint256"
        }
      ],
      "stateMutability": "view",
      "type": "function"
    },
    {
      "inputs": [
        {
          "internalType": "address",
          "name": "userAddress",
          "type": "address"
        }
      ],
      "name": "calculateRewards",
      "outputs": [
        {
          "internalType": "uint256",
          "name": "totalRewards",
          "type": "uint256"
        }
      ],
      "stateMutability": "view",
      "type": "function"
    },
    {
      "inputs": [
        {
          "internalType": "address",
          "name": "_newTreasury",
          "type": "address"
        }
      ],
      "name": "changeTreasuryAddress",
      "outputs": [],
      "stateMutability": "nonpayable",
      "type": "function"
    },
    {
      "inputs": [
        {
          "internalType": "address",
          "name": "user",
          "type": "address"
        }
      ],
      "name": "checkAutoCompound",
      "outputs": [
        {
          "internalType": "bool",
          "name": "",
          "type": "bool"
        },
        {
          "internalType": "bytes",
          "name": "",
          "type": "bytes"
        }
      ],
      "stateMutability": "view",
      "type": "function"
    },
    {
      "inputs": [],
      "name": "compound",
      "outputs": [],
      "stateMutability": "nonpayable",
      "type": "function"
    },
    {
      "inputs": [
        {
          "internalType": "uint64",
          "name": "_lockupDuration",
          "type": "uint64"
        }
      ],
      "name": "deposit",
      "outputs": [],
      "stateMutability": "payable",
      "type": "function"
    },
    {
      "inputs": [
        {
          "internalType": "uint256",
          "name": "_amount",
          "type": "uint256"
        }
      ],
      "name": "emergencyWithdraw",
      "outputs": [],
      "stateMutability": "nonpayable",
      "type": "function"
    },
    {
      "inputs": [],
      "name": "gamificationModule",
      "outputs": [
        {
          "internalType": "contract IEnhancedSmartStakingGamification",
          "name": "",
          "type": "address"
        }
      ],
      "stateMutability": "view",
      "type": "function"
    },
    {
      "inputs": [
        {
          "internalType": "address",
          "name": "user",
          "type": "address"
        }
      ],
      "name": "getActiveSkills",
      "outputs": [
        {
          "components": [
            {
              "internalType": "enum IStakingIntegration.SkillType",
              "name": "skillType",
              "type": "uint8"
            },
            {
              "internalType": "uint16",
              "name": "effectValue",
              "type": "uint16"
            },
            {
              "internalType": "enum IStakingIntegration.Rarity",
              "name": "rarity",
              "type": "uint8"
            },
            {
              "internalType": "uint64",
              "name": "activatedAt",
              "type": "uint64"
            },
            {
              "internalType": "uint64",
              "name": "cooldownEnds",
              "type": "uint64"
            },
            {
              "internalType": "bool",
              "name": "isActive",
              "type": "bool"
            }
          ],
          "internalType": "struct IStakingIntegration.NFTSkill[]",
          "name": "",
          "type": "tuple[]"
        }
      ],
      "stateMutability": "view",
      "type": "function"
    },
    {
      "inputs": [],
      "name": "getAutoCompoundUsers",
      "outputs": [
        {
          "internalType": "address[]",
          "name": "autoUsers",
          "type": "address[]"
        }
      ],
      "stateMutability": "view",
      "type": "function"
    },
    {
      "inputs": [],
      "name": "getContractBalance",
      "outputs": [
        {
          "internalType": "uint256",
          "name": "",
          "type": "uint256"
        }
      ],
      "stateMutability": "view",
      "type": "function"
    },
    {
      "inputs": [
        {
          "internalType": "address",
          "name": "userAddress",
          "type": "address"
        }
      ],
      "name": "getTotalClaimedRewards",
      "outputs": [
        {
          "internalType": "uint256",
          "name": "",
          "type": "uint256"
        }
      ],
      "stateMutability": "view",
      "type": "function"
    },
    {
      "inputs": [
        {
          "internalType": "address",
          "name": "user",
          "type": "address"
        }
      ],
      "name": "getUser",
      "outputs": [
        {
          "internalType": "address[]",
          "name": "",
          "type": "address[]"
        },
        {
          "internalType": "uint256",
          "name": "",
          "type": "uint256"
        },
        {
          "internalType": "uint64",
          "name": "",
          "type": "uint64"
        }
      ],
      "stateMutability": "view",
      "type": "function"
    },
    {
      "inputs": [
        {
          "internalType": "address",
          "name": "user",
          "type": "address"
        },
        {
          "internalType": "uint256",
          "name": "index",
          "type": "uint256"
        }
      ],
      "name": "getUserDeposit",
      "outputs": [
        {
          "internalType": "uint128",
          "name": "",
          "type": "uint128"
        },
        {
          "internalType": "uint64",
          "name": "",
          "type": "uint64"
        },
        {
          "internalType": "uint64",
          "name": "",
          "type": "uint64"
        },
        {
          "internalType": "uint64",
          "name": "",
          "type": "uint64"
        }
      ],
      "stateMutability": "view",
      "type": "function"
    },
    {
      "inputs": [
        {
          "internalType": "address",
          "name": "userAddress",
          "type": "address"
        }
      ],
      "name": "getUserInfo",
      "outputs": [
        {
          "internalType": "uint256",
          "name": "totalDeposited",
          "type": "uint256"
        },
        {
          "internalType": "uint256",
          "name": "totalRewards",
          "type": "uint256"
        },
        {
          "internalType": "uint256",
          "name": "depositCount",
          "type": "uint256"
        },
        {
          "internalType": "uint256",
          "name": "lastWithdrawTime",
          "type": "uint256"
        }
      ],
      "stateMutability": "view",
      "type": "function"
    },
    {
      "inputs": [
        {
          "internalType": "address",
          "name": "user",
          "type": "address"
        }
      ],
      "name": "getUserSkillProfile",
      "outputs": [
        {
          "components": [
            {
              "internalType": "uint256[]",
              "name": "activeNFTIds",
              "type": "uint256[]"
            },
            {
              "internalType": "uint256",
              "name": "totalXP",
              "type": "uint256"
            },
            {
              "internalType": "uint16",
              "name": "level",
              "type": "uint16"
            },
            {
              "internalType": "uint8",
              "name": "maxActiveSkills",
              "type": "uint8"
            },
            {
              "internalType": "uint16",
              "name": "stakingBoostTotal",
              "type": "uint16"
            },
            {
              "internalType": "uint16",
              "name": "feeDiscountTotal",
              "type": "uint16"
            },
            {
              "internalType": "bool",
              "name": "hasAutoCompound",
              "type": "bool"
            }
          ],
          "internalType": "struct IStakingIntegration.UserSkillProfile",
          "name": "profile",
          "type": "tuple"
        }
      ],
      "stateMutability": "view",
      "type": "function"
    },
    {
      "inputs": [
        {
          "internalType": "address",
          "name": "user",
          "type": "address"
        }
      ],
      "name": "hasAutoCompound",
      "outputs": [
        {
          "internalType": "bool",
          "name": "",
          "type": "bool"
        }
      ],
      "stateMutability": "view",
      "type": "function"
    },
    {
      "inputs": [],
      "name": "migrated",
      "outputs": [
        {
          "internalType": "bool",
          "name": "",
          "type": "bool"
        }
      ],
      "stateMutability": "view",
      "type": "function"
    },
    {
      "inputs": [],
      "name": "newContractAddress",
      "outputs": [
        {
          "internalType": "address",
          "name": "",
          "type": "address"
        }
      ],
      "stateMutability": "view",
      "type": "function"
    },
    {
      "inputs": [
        {
          "internalType": "uint256",
          "name": "nftId",
          "type": "uint256"
        }
      ],
      "name": "nftRarity",
      "outputs": [
        {
          "internalType": "enum IStakingIntegration.Rarity",
          "name": "",
          "type": "uint8"
        }
      ],
      "stateMutability": "view",
      "type": "function"
    },
    {
      "inputs": [
        {
          "internalType": "address",
          "name": "user",
          "type": "address"
        },
        {
          "internalType": "uint256",
          "name": "achievementId",
          "type": "uint256"
        },
        {
          "internalType": "uint256",
          "name": "rewardAmount",
          "type": "uint256"
        }
      ],
      "name": "notifyAchievementUnlocked",
      "outputs": [],
      "stateMutability": "nonpayable",
      "type": "function"
    },
    {
      "inputs": [
        {
          "internalType": "address",
          "name": "user",
          "type": "address"
        },
        {
          "internalType": "uint256",
          "name": "questId",
          "type": "uint256"
        },
        {
          "internalType": "uint256",
          "name": "rewardAmount",
          "type": "uint256"
        }
      ],
      "name": "notifyQuestCompletion",
      "outputs": [],
      "stateMutability": "nonpayable",
      "type": "function"
    },
    {
      "inputs": [
        {
          "internalType": "address",
          "name": "user",
          "type": "address"
        },
        {
          "internalType": "uint256",
          "name": "nftId",
          "type": "uint256"
        },
        {
          "internalType": "enum IStakingIntegration.SkillType",
          "name": "skillType",
          "type": "uint8"
        },
        {
          "internalType": "uint16",
          "name": "effectValue",
          "type": "uint16"
        }
      ],
      "name": "notifySkillActivation",
      "outputs": [],
      "stateMutability": "nonpayable",
      "type": "function"
    },
    {
      "inputs": [
        {
          "internalType": "address",
          "name": "user",
          "type": "address"
        },
        {
          "internalType": "uint256",
          "name": "nftId",
          "type": "uint256"
        }
      ],
      "name": "notifySkillDeactivation",
      "outputs": [],
      "stateMutability": "nonpayable",
      "type": "function"
    },
    {
      "inputs": [],
      "name": "owner",
      "outputs": [
        {
          "internalType": "address",
          "name": "",
          "type": "address"
        }
      ],
      "stateMutability": "view",
      "type": "function"
    },
    {
      "inputs": [],
      "name": "pause",
      "outputs": [],
      "stateMutability": "nonpayable",
      "type": "function"
    },
    {
      "inputs": [],
      "name": "paused",
      "outputs": [
        {
          "internalType": "bool",
          "name": "",
          "type": "bool"
        }
      ],
      "stateMutability": "view",
      "type": "function"
    },
    {
      "inputs": [
        {
          "internalType": "bytes",
          "name": "performData",
          "type": "bytes"
        }
      ],
      "name": "performAutoCompound",
      "outputs": [],
      "stateMutability": "nonpayable",
      "type": "function"
    },
    {
      "inputs": [],
      "name": "renounceOwnership",
      "outputs": [],
      "stateMutability": "nonpayable",
      "type": "function"
    },
    {
      "inputs": [],
      "name": "rewardsModule",
      "outputs": [
        {
          "internalType": "contract IEnhancedSmartStakingRewards",
          "name": "",
          "type": "address"
        }
      ],
      "stateMutability": "view",
      "type": "function"
    },
    {
      "inputs": [
        {
          "internalType": "address",
          "name": "_gamificationModule",
          "type": "address"
        }
      ],
      "name": "setGamificationModule",
      "outputs": [],
      "stateMutability": "nonpayable",
      "type": "function"
    },
    {
      "inputs": [
        {
          "internalType": "address",
          "name": "_marketplace",
          "type": "address"
        }
      ],
      "name": "setMarketplaceAddress",
      "outputs": [],
      "stateMutability": "nonpayable",
      "type": "function"
    },
    {
      "inputs": [
        {
          "internalType": "address",
          "name": "_marketplace",
          "type": "address"
        },
        {
          "internalType": "bool",
          "name": "_isAuthorized",
          "type": "bool"
        }
      ],
      "name": "setMarketplaceAuthorization",
      "outputs": [],
      "stateMutability": "nonpayable",
      "type": "function"
    },
    {
      "inputs": [
        {
          "internalType": "address",
          "name": "_rewardsModule",
          "type": "address"
        }
      ],
      "name": "setRewardsModule",
      "outputs": [],
      "stateMutability": "nonpayable",
      "type": "function"
    },
    {
      "inputs": [
        {
          "internalType": "enum IStakingIntegration.SkillType",
          "name": "skillType",
          "type": "uint8"
        },
        {
          "internalType": "bool",
          "name": "enabled",
          "type": "bool"
        }
      ],
      "name": "setSkillEnabled",
      "outputs": [],
      "stateMutability": "nonpayable",
      "type": "function"
    },
    {
      "inputs": [
        {
          "internalType": "address",
          "name": "_skillsModule",
          "type": "address"
        }
      ],
      "name": "setSkillsModule",
      "outputs": [],
      "stateMutability": "nonpayable",
      "type": "function"
    },
    {
      "inputs": [
        {
          "internalType": "address",
          "name": "",
          "type": "address"
        }
      ],
      "name": "setStakingAddress",
      "outputs": [],
      "stateMutability": "pure",
      "type": "function"
    },
    {
      "inputs": [
        {
          "internalType": "enum IStakingIntegration.SkillType",
          "name": "skillType",
          "type": "uint8"
        }
      ],
      "name": "skillDefaultEffects",
      "outputs": [
        {
          "internalType": "uint16",
          "name": "",
          "type": "uint16"
        }
      ],
      "stateMutability": "view",
      "type": "function"
    },
    {
      "inputs": [
        {
          "internalType": "enum IStakingIntegration.SkillType",
          "name": "skillType",
          "type": "uint8"
        }
      ],
      "name": "skillEnabled",
      "outputs": [
        {
          "internalType": "bool",
          "name": "",
          "type": "bool"
        }
      ],
      "stateMutability": "view",
      "type": "function"
    },
    {
      "inputs": [],
      "name": "skillsModule",
      "outputs": [
        {
          "internalType": "contract IEnhancedSmartStakingSkills",
          "name": "",
          "type": "address"
        }
      ],
      "stateMutability": "view",
      "type": "function"
    },
    {
      "inputs": [],
      "name": "totalPoolBalance",
      "outputs": [
        {
          "internalType": "uint256",
          "name": "",
          "type": "uint256"
        }
      ],
      "stateMutability": "view",
      "type": "function"
    },
    {
      "inputs": [
        {
          "internalType": "address",
          "name": "",
          "type": "address"
        }
      ],
      "name": "totalRewardsClaimed",
      "outputs": [
        {
          "internalType": "uint256",
          "name": "",
          "type": "uint256"
        }
      ],
      "stateMutability": "view",
      "type": "function"
    },
    {
      "inputs": [
        {
          "internalType": "address",
          "name": "newOwner",
          "type": "address"
        }
      ],
      "name": "transferOwnership",
      "outputs": [],
      "stateMutability": "nonpayable",
      "type": "function"
    },
    {
      "inputs": [],
      "name": "treasury",
      "outputs": [
        {
          "internalType": "address",
          "name": "",
          "type": "address"
        }
      ],
      "stateMutability": "view",
      "type": "function"
    },
    {
      "inputs": [],
      "name": "uniqueUsersCount",
      "outputs": [
        {
          "internalType": "uint256",
          "name": "",
          "type": "uint256"
        }
      ],
      "stateMutability": "view",
      "type": "function"
    },
    {
      "inputs": [],
      "name": "unpause",
      "outputs": [],
      "stateMutability": "nonpayable",
      "type": "function"
    },
    {
      "inputs": [
        {
          "internalType": "enum IStakingIntegration.SkillType",
          "name": "skillType",
          "type": "uint8"
        },
        {
          "internalType": "uint16",
          "name": "newEffectValue",
          "type": "uint16"
        }
      ],
      "name": "updateSkillEffect",
      "outputs": [],
      "stateMutability": "nonpayable",
      "type": "function"
    },
    {
      "inputs": [
        {
          "internalType": "address",
          "name": "user",
          "type": "address"
        },
        {
          "internalType": "uint256",
          "name": "xpGained",
          "type": "uint256"
        }
      ],
      "name": "updateUserXP",
      "outputs": [],
      "stateMutability": "nonpayable",
      "type": "function"
    },
    {
      "inputs": [],
      "name": "withdraw",
      "outputs": [],
      "stateMutability": "nonpayable",
      "type": "function"
    },
    {
      "inputs": [],
      "name": "withdrawAll",
      "outputs": [],
      "stateMutability": "nonpayable",
      "type": "function"
    },
    {
      "inputs": [],
      "name": "withdrawBoosted",
      "outputs": [],
      "stateMutability": "nonpayable",
      "type": "function"
    },
    {
      "stateMutability": "payable",
      "type": "receive"
    }
  ],
  "bytecode": "0x60806040523461002a576100196100146100bf565b610149565b604051614b6b6103ae8239614b6b90f35b5f80fd5b634e487b7160e01b5f52604160045260245ffd5b90601f01601f191681019081106001600160401b0382111761006357604052565b61002e565b9061007c61007560405190565b9283610042565b565b6001600160a01b031690565b90565b6001600160a01b0381160361002a57565b9050519061007c8261008d565b9060208282031261002a5761008a9161009e565b61008a614f19803803806100d281610068565b9283398101906100ab565b61007e61008a61008a9290565b61008a906100dd565b906001600160a01b03905b9181191691161790565b61008a9061007e906001600160a01b031682565b61008a90610108565b61008a9061011c565b9061013e61008a61014592610125565b82546100f3565b9055565b610151610190565b61015d61007e5f6100ea565b6001600160a01b0382161461017f5761017790600261012e565b61007c6102e8565b63e6c4247b60e01b5f908152600490fd5b61007c6101cf565b61008a61008a61008a9290565b61008a6001610198565b905f19906100fe565b906101c861008a61014592610198565b82546101af565b6101d761020f565b61007c6101e26101a5565b60016101b8565b9060ff60a01b9060a01b6100fe565b9061020861008a61014592151590565b82546101e9565b610217610221565b61007c5f806101f8565b61007c33610359565b61023761008a61008a9290565b60ff1690565b634e487b7160e01b5f52601160045260245ffd5b60ff1660ff81146102625760010190565b61023d565b634e487b7160e01b5f52602160045260245ffd5b6011111561028557565b610267565b9061007c8261027b565b61008a9061028a565b6102ad61008a61008a9260ff1690565b61028a565b906102bc90610294565b5f5260205260405f2090565b9060ff906100fe565b906102e161008a61014592151590565b82546102c8565b6001806102f5600161022a565b905b6102ff575050565b61030c6102376010610294565b60ff8216116103425761033c829161033783610332600e61032c8561029d565b906102b2565b6102d1565b610251565b906102f7565b5050565b61008a9061007e565b61008a9054610346565b61037d6103776103685f61034f565b610372845f61012e565b610125565b91610125565b907f8be0079c531659141344cd1fd0a4f28419497f9722a3daafe3b4186f6b6457e06103a860405190565b5f90a356fe60806040526004361015610022575b3615610018575f80fd5b610020614219565b005b5f3560e01c806311bd459f146103975780631376583814610392578063161ba7811461038d57806318f2f4021461038857806323c8738a146103835780632c678c641461037e5780632f1df47614610379578063313a1954146103745780633bab7a89146102ca5780633ccfd60b146102b15780633f4ba83a1461036f5780633fd51fbf1461036a57806349be75bb146103655780634b1d06d7146103605780635026d63e1461035b5780635312ea8e146103565780635b0df80a146103515780635c975abb1461034c5780635cb60986146103475780635efc27d614610342578063607110581461033d57806361d027b3146103385780636386c1c71461033357806364ab86751461032e5780636744f776146103295780636af04a57146103245780636f77926b1461031f5780636f9fb98a1461031a578063715018a61461031557806375af38f2146103105780638456cb591461030b578063851265b614610306578063853828b61461030157806389257817146102fc5780638d79bb50146102f75780638da5cb5b146102f25780638ec8eef5146102ed578063992976aa146102e85780639cfc8b8c146102e3578063a6f353f0146102de578063ad293709146102d9578063b415ff7a146102d4578063b47cc556146102cf578063b907deee146102ca578063bece23ba146102c5578063bf37bb6a146102c0578063c3f78e3a146102bb578063c9f8234f146102b6578063d1cc7bb2146102b1578063e8ac8345146102ac578063ef6c4acf146102a7578063f154a549146102a2578063f2fde38b1461029d578063f4e0d9ac14610298578063f69e2046146102935763f6ce90040361000e576110c0565b611094565b61107f565b611067565b611040565b611018565b610ffc565b61087d565b610fe1565b610fa6565b610f7f565b610eaa565b610862565b610e92565b610e77565b610e5c565b610e39565b610e1e565b610e03565b610dd4565b610d8f565b610d76565b610d5d565b610d45565b610d2c565b610cf8565b610cdd565b610cba565b610c9f565b610c75565b610c31565b610c0d565b610bf2565b610bc1565b610b5c565b610b1f565b610aae565b610a96565b610a7b565b610a62565b6109f2565b6109c3565b61097b565b61090b565b6108d6565b610895565b610846565b6107da565b61075d565b610711565b61066f565b610612565b6104bd565b61045b565b6001600160a01b031690565b90565b6001600160a01b0381165b036103bd57565b5f80fd5b905035906103ce826103ab565b565b906020828203126103bd576103a8916103c1565b9052565b5f5b8381106103f95750505f910152565b81810151838201526020016103ea565b61042a61043360209361043d9361041e815190565b80835293849260200190565b958691016103e8565b601f01601f191690565b0190565b90151581526040602082018190526103a892910190610409565b346103bd5761047361046e3660046103d0565b6111de565b9061048961048060405190565b92839283610441565b0390f35b6001600160401b0381166103b6565b905035906103ce8261048d565b906020828203126103bd576103a89161049c565b6104d06104cb3660046104a9565b611b2c565b604051005b634e487b7160e01b5f52602160045260245ffd5b601111156104f357565b6104d5565b906103ce826104e9565b6103a8906104f8565b6103e490610502565b600511156104f357565b906103ce82610514565b6103a89061051e565b6103e490610528565b9060a0806103ce936105525f8201515f86019061050b565b60208181015161ffff169085015261057260408201516040860190610531565b6060818101516001600160401b0316908501526080818101516001600160401b0316908501525b01511515910152565b9061043d8160c09361053a565b906105cf6105c86105be845190565b8084529260200190565b9260200190565b905f5b8181106105df5750505090565b9091926105f96105f260019286516105a2565b9460200190565b9291016105d2565b60208082526103a8929101906105af565b346103bd5761048961062d6106283660046103d0565b611d91565b60405191829182610601565b806103b6565b905035906103ce82610639565b91906040838203126103bd576103a890602061066882866103c1565b940161063f565b346103bd5761048961068b61068536600461064c565b90611f78565b6040515b9182918290815260200190565b5f9103126103bd57565b6103a8916008021c6001600160a01b031690565b906103a891546106a6565b6103a85f600b6106ba565b61039c6103a86103a8926001600160a01b031690565b6103a8906106d0565b6103a8906106e6565b6103e4906106ef565b6020810192916103ce91906106f8565b346103bd5761072136600461069c565b61048961072c6106c5565b60405191829182610701565b6103a8916008021c5b60ff1690565b906103a89154610738565b6103a85f6005610747565b346103bd5761076d36600461069c565b610489610778610752565b6040515b91829182901515815260200190565b601111156103bd57565b905035906103ce8261078b565b8015156103b6565b905035906103ce826107a2565b91906040838203126103bd576103a89060206107d38286610795565b94016107aa565b346103bd576104d06107ed3660046107b7565b9061211c565b61ffff81166103b6565b905035906103ce826107f3565b6080818303126103bd5761081e82826103c1565b926103a861082f846020850161063f565b93606061083f8260408701610795565b94016107fd565b346103bd576104d061085936600461080a565b92919091612294565b346103bd5761048961068b6108783660046103d0565b6122a0565b346103bd5761088d36600461069c565b6104d06122d8565b346103bd576108a536600461069c565b6104d06122f3565b90916060828403126103bd576103a86108c684846103c1565b936040610668826020870161063f565b346103bd576104d06108e93660046108ad565b9161241a565b91906040838203126103bd576103a890602061083f8286610795565b346103bd576104d061091e3660046108ef565b906124b6565b906109336105c86105be845190565b905f5b8181106109435750505090565b9091926109626105f260019286516001600160a01b0316815260200190565b929101610936565b60208082526103a892910190610924565b346103bd5761098b36600461069c565b610489610996612682565b6040519182918261096a565b6103a8916008021c81565b906103a891546109a2565b6103a85f60036109ad565b346103bd576109d336600461069c565b61048961068b6109b8565b906020828203126103bd576103a89161063f565b346103bd576104d0610a053660046109de565b6128d7565b909182601f830112156103bd578135916001600160401b0383116103bd5760200192600183028401116103bd57565b906020828203126103bd5781356001600160401b0381116103bd57610a5e9201610a0a565b9091565b346103bd576104d0610a75366004610a39565b906128e0565b346103bd57610a8b36600461069c565b610489610778612a9e565b346103bd576104d0610aa93660046103d0565b612b8c565b346103bd576104d0610ac136600461064c565b90612c11565b610b106103ce94610b00606094989795610af0608086019a5f8701906001600160801b03169052565b6001600160401b03166020850152565b6001600160401b03166040830152565b01906001600160401b03169052565b346103bd57610489610b3b610b3536600461064c565b90612ca6565b90610b4894929460405190565b94859485610ac7565b6103a85f60026106ba565b346103bd57610b6c36600461069c565b610489610b77610b51565b604051918291826001600160a01b03909116815260200190565b610bbd6103ce94610bb6606094989795610baf608086019a5f870152565b6020850152565b6040830152565b0152565b346103bd57610489610bdc610bd73660046103d0565b612d27565b90610be994929460405190565b94859485610b91565b346103bd5761048961068b610c083660046103d0565b612e1e565b346103bd576104d0610c203660046103d0565b6130d1565b6103a8600160056106ba565b346103bd57610c4136600461069c565b610489610b77610c25565b604090610b10610c6d6103ce9597969460608401908482035f860152610924565b966020830152565b346103bd57610489610c90610c8b3660046103d0565b6130da565b60405191939193849384610c4c565b346103bd57610caf36600461069c565b61048961068b61311c565b346103bd57610cca36600461069c565b6104d0613141565b6103a85f600d6106ba565b346103bd57610ced36600461069c565b61048961072c610cd2565b346103bd57610d0836600461069c565b6104d061315c565b91906040838203126103bd576103a89060206107d382866103c1565b346103bd576104d0610d3f366004610d10565b906131cd565b346103bd57610d5536600461069c565b6104d06134d0565b346103bd576104d0610d7036600461064c565b90613557565b346103bd576104d0610d893660046108ad565b916135d9565b346103bd57610d9f36600461069c565b610489610b776135e4565b90610db4906106ef565b5f5260205260405f2090565b5f610dcf6103a892600a610daa565b610747565b346103bd57610489610778610dea3660046103d0565b610dc0565b906020828203126103bd576103a891610795565b346103bd57610489610778610e19366004610def565b6135ed565b346103bd5761048961068b610e343660046103d0565b613603565b346103bd576104d0610e4c3660046103d0565b613694565b6103a85f600c6106ba565b346103bd57610e6c36600461069c565b61048961072c610e51565b346103bd57610489610778610e8d3660046103d0565b6136b1565b346103bd576104d0610ea53660046103d0565b61383b565b346103bd5761048961068b610ec036600461064c565b90613844565b90610ed56105c86105be845190565b905f5b818110610ee55750505090565b909192610efb6105f26001928651815260200190565b929101610ed8565b906103a89060c080610f2260e084015f8701518582035f870152610ec6565b94610f3260208201516020860152565b60408181015161ffff169085015260608181015160ff169085015260808181015161ffff169085015260a08181015161ffff1690850152610599565b60208082526103a892910190610f03565b346103bd57610489610f9a610f953660046103d0565b613aba565b60405191829182610f6e565b346103bd57610489610fc1610fbc366004610def565b613d67565b6040519182918261ffff909116815260200190565b6103a85f60046109ad565b346103bd57610ff136600461069c565b61048961068b610fd6565b346103bd5761048961068b61101236600461064c565b90613e00565b346103bd576104d061102b3660046103d0565b613eee565b6020810192916103ce9190610531565b346103bd5761048961105b6110563660046109de565b613f13565b60405191829182611030565b346103bd576104d061107a3660046103d0565b614040565b346103bd5761108f3660046103d0565b614049565b346103bd576110a436600461069c565b6104d0614211565b5f6110bb6103a8926009610daa565b6109ad565b346103bd5761048961068b6110d63660046103d0565b6110ac565b6103a89061039c565b6103a890546110db565b61039c6103a86103a89290565b6103a8906110ee565b634e487b7160e01b5f52604160045260245ffd5b90601f01601f191681019081106001600160401b0382111761113957604052565b611104565b906103ce61114b60405190565b9283611118565b6001600160401b03811161113957602090601f01601f19160190565b9061118061117b83611152565b61113e565b918252565b6103a85f61116e565b6103a8611185565b905051906103ce826107a2565b905051906103ce82610639565b91906040838203126103bd576103a89060206111cc8286611196565b94016111a3565b6040513d5f823e3d90fd5b906111f16111ec600d6110e4565b6106ef565b61120d61120061039c5f6110fb565b916001600160a01b031690565b146112ce5761121f6111ec600d6110e4565b91604061122b60405190565b6311bd459f60e01b81526001600160a01b038316600482015293849060249082905afa9283156112c9575f93611297575b50821561128e576103a861126f60405190565b6001600160a01b03929092166020808401919091528252604082611118565b506103a861118e565b6112ba91935060403d6040116112c2575b6112b28183611118565b8101906111b0565b92909261125c565b503d6112a8565b6111d3565b5f91506103a861118e565b6112ea906112e56142ae565b6112f2565b6103ce6142e0565b6103ce906112fe61432a565b611316565b6103a890610741565b6103a89054611303565b611320600561130c565b61132d576103ce90611384565b63f2bcabb960e01b5f90815260045b035ffd5b6103a86103a86103a89290565b6103a8678ac7230489e80000611340565b9081526040810192916103ce9160200152565b6103a869152d02c7e14af6800000611340565b61138c61134d565b8034106113c6575061139c611371565b8034116113ad57506103ce90611800565b6330250a5b60e11b5f9081529061133c9034600461135e565b63ea691a4b60e01b5f9081529061133c9034600461135e565b6113ec6103a86103a89290565b6001600160401b031690565b6114056103a86103a89290565b61ffff1690565b6103a86101906113f8565b6103a86103a86103a89261ffff1690565b6001600160a01b0390911681526040810192916103ce916020905b019061ffff169052565b6103a86102586113f8565b634e487b7160e01b5f52601160045260245ffd5b9190611477565b9290565b9180830292818404149015171561148a57565b611458565b6103a8612710611340565b634e487b7160e01b5f52601260045260245ffd5b906114b8565b9190565b9081156114c3570490565b61149a565b9190820391821161148a57565b6103a89081565b6103a890546114d5565b905f19905b9181191691161790565b906115056103a861150c92611340565b82546114e6565b9055565b9190820180921161148a57565b61152a6103a86103a89290565b6001600160801b031690565b6103a89061152a565b6103a89054611536565b611564906001600160801b03165b916001600160801b031690565b01906001600160801b03821161148a57565b906001600160801b03906114eb565b61152a6103a86103a8926001600160801b031690565b906115ab6103a861150c92611585565b8254611576565b6115cd906001600160401b03165b916001600160401b031690565b02906001600160401b03821691820361148a57565b6103a8608061113e565b634e487b7160e01b5f52603260045260245ffd5b8054821015611620576116186002915f5260205f2090565b910201905f90565b6115ec565b634e487b7160e01b5f525f60045260245ffd5b9067ffffffffffffffff60801b9060801b6114eb565b6113ec6103a86103a8926001600160401b031690565b906116746103a861150c9261164e565b8254611638565b9077ffffffffffffffffffffffffffffffffffffffffffffffff199060c01b6114eb565b906116af6103a861150c9261164e565b825461167b565b906001600160401b03906114eb565b906116d56103a861150c9261164e565b82546116b6565b6103ce91600190611747906060906117398561170861170284516001600160801b031690565b8261159b565b61172561171f60208501516001600160401b031690565b82611664565b60408301516001600160401b03169061169f565b01516001600160401b031690565b91016116c5565b919061175d576103ce916116dc565b611625565b90815491600160401b83101561113957826117859160016103ce95018155611600565b9061174e565b6107416103a86103a89290565b6103e49061178b565b6001600160a01b0390911681526060810193926103ce929091604091610bbd906020830190611798565b6103a86103a86103a8926001600160401b031690565b6103e4906117cb565b9081526040810192916103ce91602001906117e1565b6118095f6113df565b6001600160401b038216141580611b10575b80611af4575b80611ad8575b80611abb575b611aaa5761183f6103a8336006610daa565b8054909190829061184e61140c565b9061185b6114b483611417565b1015611a9157506119729061196d61189361188561187f61187a61144d565b611417565b3461146c565b61188d61148f565b906114ae565b9161189e83346114c8565b956118a7815490565b6118b36114b45f611340565b14611a6f575b6118d66118cf886118ca60036114dc565b611510565b60036114f5565b6118fe60016118e48961151d565b93016118f8846118f38361153f565b611549565b9061159b565b61196861190a426113df565b91611958611926611473611920620151806113df565b8b6115b2565b936119416119326115e2565b6001600160801b039097168752565b6001600160401b0316602086018190526040860152565b6001600160401b03166060840152565b611762565b61433d565b61197f6111ec600d6110e4565b61198e61120061039c5f6110fb565b036119da575b7f73a19dd210f1a7f902193214c0ee91dd35ee5b4d920cba8d519eca65a7b488ca906119bf336106ef565b926119d56119cc60405190565b928392836117ea565b0390a2565b6119e76111ec600d6110e4565b90813b156103bd575f6119f960405190565b9283906375af487760e01b8252818381611a18898333600485016117a1565b03925af19182156112c9577f73a19dd210f1a7f902193214c0ee91dd35ee5b4d920cba8d519eca65a7b488ca92611a52575b509050611994565b611a69905f611a618183611118565b81019061069c565b5f611a4a565b611a8c611a85611a7f60046114dc565b60010190565b60046114f5565b6118b9565b63756a320d60e11b5f9081529061133c90336004611428565b631ab8aa1760e21b5f908152600490fd5b50611ac761016d6113df565b6001600160401b038216141561182d565b50611ae360b46113df565b6001600160401b0382161415611827565b50611aff605a6113df565b6001600160401b0382161415611821565b50611b1b601e6113df565b6001600160401b038216141561181b565b6103ce906112d9565b6001600160401b0381116111395760208091020190565b9061118061117b83611b35565b6103a860c061113e565b611b6b611b59565b905f82526020808080808087015f5b8152015f8152015f8152015f8152015f905250565b6103a8611b63565b5f5b828110611ba557505050565b602090611bb0611b8f565b8184015201611b99565b906103ce611bd0611bca84611b4c565b93611b35565b601f190160208401611b97565b905051906103ce8261078b565b600511156103bd57565b905051906103ce82611bea565b905051906103ce826107f3565b905051906103ce8261048d565b9190610100838203126103bd57611cb89060e0611c3961010061113e565b94611c4483826111a3565b8652611c538360208301611bdd565b6020870152611c658360408301611bf4565b6040870152611c778360608301611c01565b6060870152611c898360808301611c01565b6080870152611c9b8360a08301611196565b60a0870152611cad8360c08301611c0e565b60c087015201611c0e565b60e0830152565b90929192611ccf61117b82611b35565b938185526101006020860192028301928184116103bd57915b838310611cf55750505050565b602061010091611d058486611c1b565b815201920191611ce8565b9080601f830112156103bd5781516103a892602001611cbf565b906020828203126103bd5781516001600160401b0381116103bd576103a89201611d10565b90611d58825190565b811015611620576020809102010190565b6103a890516104f8565b6103a8905161051e565b906103e4906104f8565b906103e49061051e565b611d9e6111ec600c6110e4565b611dad61120061039c5f6110fb565b14611f6b575f611dee91611dc46111ec600c6110e4565b6040519384928391829163eb97e4eb60e01b5b83526001600160a01b031660048301526024820190565b03915afa9081156112c9575f91611f49575b50611e11611e0c825190565b611bba565b90611e1b5f611340565b611e266103a8835190565b811015611f445780611e476020611e40611f3f9486611d4f565b5101611d69565b611f23611e636060611e598588611d4f565b51015161ffff1690565b611f1a86611f0a611e88611e836040611e7c8a86611d4f565b5101611d73565b6143cf565b611efa611ea960c0611e9a8b87611d4f565b5101516001600160401b031690565b91611ef1611ed360a0611ecb8d611ec560e0611e9a838d611d4f565b99611d4f565b510151151590565b97611ee6611edf611b59565b9b8c611d7d565b61ffff1660208b0152565b60408901611d87565b6001600160401b03166060870152565b6001600160401b03166080850152565b151560a0830152565b611f2d8286611d4f565b52611f388185611d4f565b5060010190565b611e1b565b505090565b611f6591503d805f833e611f5d8183611118565b810190611d2a565b5f611e00565b506103a8611e0c5f611340565b611f856111ec600c6110e4565b611f9461120061039c5f6110fb565b14801561206a575b612066575f611fb291611dc46111ec600c6110e4565b03915afa80156112c957611fcd915f9161204c575b506143e8565b50905080611fda5f6113f8565b61ffff821614611f445761201891611ff061148f565b91611ffb8391611417565b11612034575b61200d61201391611417565b8461146c565b6114ae565b80821115612029576103a8916114c8565b50506103a85f611340565b5061201361200d612044836113f8565b915050612001565b61206091503d805f833e611f5d8183611118565b5f611fc7565b5090565b506120745f611340565b8214611f9c565b906103ce9161208861458c565b6120b7565b90610db490610502565b9060ff906114eb565b906120b06103a861150c92151590565b8254612097565b906120c15f6104f8565b6120ca836104f8565b146120e2576120dd6103ce92600e61208d565b6120a0565b60405162461bcd60e51b815260206004820152600d60248201526c125b9d985b1a59081cdada5b1b609a1b604482015280606481015b0390fd5b906103ce9161207b565b92919061214361213f61213a33600a610daa565b61130c565b1590565b612150576103ce936121cd565b632b35006d60e21b5f908152600490fd5b6006815260209081015b65536b696c6c7360d01b81520190565b60208082526103a89101612161565b6020810192916103ce919061050b565b6114436103ce946121c3606094989795610baf608086019a5f8701906001600160a01b03169052565b604083019061050b565b91906121dc6111ec600c6110e4565b6121eb61120061039c5f6110fb565b1461227a5761220161213f61213a84600e61208d565b612263576122126111ec600c6110e4565b90813b156103bd575f809461224361222960405190565b97889687958694630c4e865560e21b86526004860161219a565b03925af180156112c9576122545750565b6103ce905f611a618183611118565b635bb4388360e01b5f90815261133c83600461218a565b60405163125c65b960e21b8152806121186004820161217b565b906103ce939291612126565b6103a890612e1e565b6122b16142ae565b6112ea6122bc61432a565b6103ce6122c9600561130c565b61132d576103ce6103ce6145c7565b6103ce6122a9565b6122e861458c565b6103ce6103ce61488c565b6103ce6122e0565b919061230e61213f61213a33600a610daa565b612150576103ce92612383565b600c815260209081015b6b23b0b6b4b334b1b0ba34b7b760a11b81520190565b60208082526103a8910161231b565b6103e490611340565b61237c6103ce94610bb6606094989795610baf608086019a5f8701906001600160a01b03169052565b019061234a565b90916123926111ec600d6110e4565b6123a161120061039c5f6110fb565b14612400576123b36111ec600d6110e4565b803b156103bd57601e935f80946122436123cc60405190565b978896879586947fff7e5730000000000000000000000000000000000000000000000000000000005b865260048601612353565b60405163125c65b960e21b8152806121186004820161233b565b906103ce92916122fb565b906103ce9161243261458c565b612451565b9160206103ce92949361144360408201965f83019061050b565b61245e6111ec600c6110e4565b61246d61120061039c5f6110fb565b1461227a5761247f6111ec600c6110e4565b91823b156103bd57612243925f928361249760405190565b8096819582946124ab6395e505d860e01b90565b845260048401612437565b906103ce91612425565b369037565b906103ce6124d5611bca84611b4c565b601f1901602084016124c0565b905051906103ce826103ab565b909291926124ff61117b82611b35565b93818552602080860192028301928184116103bd57915b8383106125235750505050565b6020809161253184866124e2565b815201920191612516565b9080601f830112156103bd5781516103a8926020016124ef565b91906060838203126103bd57610bb6906040612572606061113e565b9461257d8382611196565b865261258c83602083016111a3565b6020870152016111a3565b909291926125a761117b82611b35565b9381855260606020860192028301928184116103bd57915b8383106125cc5750505050565b60206060916125db8486612556565b8152019201916125bf565b9080601f830112156103bd5781516103a892602001612597565b90916060828403126103bd5781516001600160401b0381116103bd578361262891840161253c565b926020830151906001600160401b0382116103bd5760406111cc826103a89487016125e6565b9160206103ce92949361237c60408201965f83019061234a565b9160206103ce929493610bbd60408201965f83019061234a565b61268f6111ec600d6110e4565b61269e61120061039c5f6110fb565b1461279a576126b06111ec600d6110e4565b631fc8ee5e5f6126bf60405190565b80936126cb8460e01b90565b825281806126de6001866004840161264e565b03915afa9182156112c9575f9261277d575b506126fa5f611340565b821461276a57612739915f9161272d6127166111ec600d6110e4565b9161272060405190565b9586948593849360e01b90565b83528660048401612668565b03915afa9081156112c9575f9161274e575090565b611f4491503d805f833e6127628183611118565b810190612600565b50506103a86127785f611340565b6124c5565b6127929192503d805f833e6127628183611118565b9291506126f0565b6103a86127785f611340565b6103ce906127b261458c565b6127f2565b3d156127d0576127c63d61116e565b903d5f602084013e565b606090565b6001600160a01b0390911681526040810192916103ce9160200152565b6127fb5f611340565b811480156128bf575b6128ae5761281260026110e4565b61282161120061039c5f6110fb565b146128ae576128515f8061283b6111ec6111ec60026110e4565b6040515f9186905af161284c6127b7565b501590565b61288c577f23d6711a1d031134a36921253c75aa59e967d38e369ac625992824315e204f206119d5612882336106ef565b9261068f60405190565b61133c5f9161289b60026110e4565b63d3cc1fd760e01b8452600484016127d5565b63e6c4247b60e01b5f908152600490fd5b506128d06128cc306106ef565b3190565b8111612804565b6103ce906127a6565b6111ec906128f0928101906103d0565b6128fd6111ec600d6110e4565b61290c61120061039c5f6110fb565b146124005761291a81612e1e565b6129235f611340565b8114612a77576129376103a8836006610daa565b926129418261151d565b91612956600186016118f8856118f38361153f565b6129a45f612963426113df565b960193846129816129726115e2565b6001600160801b039093168352565b6001600160401b0388166020830181905260408301525b6119686119585f6113df565b6129ad5f611340565b6129b86103a8855490565b8110156129de5780611a7f875f6129d26129d99589611600565b500161169f565b6129ad565b5092915092506129f16111ec600d6110e4565b803b156103bd575f612a0260405190565b630c1cca1760e21b81526001600160a01b0384166004820152918290602490829084905af180156112c9577fc16de066392da7e40ceccb739c331fc48a2e76bf147449613c48023d960eec32926119d59261288292612a62575b506106ef565b612a71905f611a618183611118565b5f612a5c565b63afb0be3360e01b5f908152600490fd5b6103a89060a01c610741565b6103a89054612a88565b6103a85f612a94565b6103ce90612ab361458c565b612abf61039c5f6110fb565b6001600160a01b038216146128ae576103ce90612b21565b906001600160a01b03906114eb565b90612af66103a861150c926106ef565b8254612ad7565b600c90612325565b6103a890612afd565b60405180612b1b81612b05565b03902090565b612b2e6111ec600d6110e4565b90612b42612b3b826106ef565b600d612ae6565b612b5c612b56612b50612b0e565b936106ef565b916106ef565b917fe5340bb646fa554a3082f7baa2b415eb1874ff7d4c3f118686180386e71f738e612b8760405190565b5f90a4565b6103ce90612aa7565b90612ba761213f61213a33600a610daa565b612150576103ce91612bbc6111ec600d6110e4565b612bcb61120061039c5f6110fb565b1461240057612bdd6111ec600d6110e4565b91823b156103bd576122439260025f8094612bf760405190565b968795869485936375af487760e01b8552600485016117a1565b906103ce91612b95565b15612c2257565b60405162461bcd60e51b815260206004820152601560248201527f496e76616c6964206465706f73697420696e64657800000000000000000000006044820152606490fd5b6103a89060801c6113ec565b6103a89054612c67565b6103a89060c01c6113ec565b6103a89054612c7d565b6103a8906113ec565b6103a89054612c93565b612cdf915f612cc46103a861206694612cbc5f90565b506006610daa565b01612cda612cd36103a8835490565b8310612c1b565b611600565b908190612ceb8261153f565b90612d0a6001612d03612cfd87612c73565b96612c89565b9401612c9c565b9193929190565b6103a86103a86103a8926001600160801b031690565b90612d366103a8836006610daa565b9160018301916103a8612d6d612d67612d615f612d5b612d558961153f565b97612e1e565b98015490565b95612c73565b93612d11565b9493926117cb565b6007815260209081015b665265776172647360c81b81520190565b60208082526103a89101612d75565b90916060828403126103bd576103a8612db88484611c01565b936040612dc88260208701611c01565b9401611c01565b906020828203126103bd576103a8916111a3565b909594926103ce94612e1461144392612e0d608096612e0660a088019c5f890152565b6020870152565b6040850152565b60ff166060830152565b905f91612e2e6111ec600b6110e4565b90612e385f6110fb565b91612e4b6001600160a01b038416611200565b1461303a575f612e5f6103a8836006610daa565b0190612e69825490565b612e756114b45f611340565b1461302c57612e835f6113f8565b92612ea4611200612e976111ec600c6110e4565b926001600160a01b031690565b03612fb6575b50612eb45f611340565b935b612ec16103a8835490565b851015612fb057612ed56120668684611600565b6020612eeb612ee660018401612c9c565b614894565b915f612efa6111ec600b6110e4565b910190612f0e612f098361153f565b612d11565b91612f2c612f21612f26612f2184612c73565b6117cb565b92612c89565b92612f5489612f3a60405190565b97889687958695630e41265d60e41b875260048701612de3565b03915afa80156112c957612f7a92612f73925f92612f80575b50611510565b9460010190565b93612eb6565b612fa291925060203d8111612fa9575b612f9a8183611118565b810190612dcf565b905f612f6d565b503d612f90565b93505050565b612fe3919250606090612fcc6111ec600c6110e4565b60405193849283918291630166b5c560e61b611dd7565b03915afa9081156112c9575f91612ffd575b50905f612eaa565b61301f915060603d606011613025575b6130178183611118565b810190612d9f565b50612ff5565b503d61300d565b50505090506103a85f611340565b60405163125c65b960e21b81528061211860048201612d90565b6103ce9061306061458c565b61306c61039c5f6110fb565b6001600160a01b038216146128ae576103ce906130a2565b600790612d7f565b6103a890613084565b60405180612b1b8161308c565b6130af6111ec600b6110e4565b906130c36130bc826106ef565b600b612ae6565b612b5c612b56612b50613095565b6103ce90613054565b6103a86130f0916130e9606090565b505f612cbc565b60016130fe6127785f611340565b910191613116613110612f098561153f565b93612c73565b91929190565b6128cc306106ef565b61312d61458c565b6103ce6103ce61313c5f6110fb565b614950565b6103ce613125565b61315161458c565b6103ce6103ce6149d4565b6103ce613149565b906103ce9161317161458c565b61317d61039c5f6110fb565b6001600160a01b038216146128ae576119d56131c3826111ec856120dd7f51922599c85464cb24125d27a1c803d6110329ff39eb424c444158c91a5b633596600a610daa565b9261077c60405190565b906103ce91613164565b6131df6142ae565b6112ea6131ea61432a565b6103ce6131f7600561130c565b61132d576103ce6132d9565b613215906001600160401b03166115c0565b01906001600160401b03821161148a57565b6103a890600261146c565b905f0361175d575f808255600190910155565b818110613250575050565b8061325d5f600293613232565b01613245565b91909182821061327257505050565b61329461328a6132846103ce95613227565b93613227565b915f5260205f2090565b9182019101613245565b90600160401b811161113957816132b66103ce935490565b90828155613263565b5f6103ce9161329e565b905f0361175d576103ce906132bf565b6132e76103a8336006610daa565b9060018201906132f68261153f565b6133026115575f61151d565b146134bf576133105f611340565b83548490821015613394576120668261332892611600565b6001810161333581612c9c565b6133416115c05f6113df565b119182613368575b505061335757600101613310565b633b20f1c360e21b5f908152600490fd5b61338b92509061338561337f5f612f219401612c73565b91612c9c565b90613203565b42105f80613349565b505091906133a133612e1e565b906133ca6118856133b8846118ca612f098661153f565b936133c461187a61144d565b9061146c565b906133d582846114c8565b936133df306106ef565b316133f06114b46103a88689611510565b106134ae576134599361342a5f806118cf94613424613439976134156117028561151d565b61341e426113df565b90611664565b016132c9565b61343460036114dc565b6114c8565b61344360046114dc565b61344f6114b45f611340565b116134985761433d565b61346b81613466336106ef565b614a9a565b7fd7a4aa9f3dca5f6606ac15d7e1850920201bbb02c38cd986793779f58ae0dfd36119d5612882336106ef565b61196d611a856134a860046114dc565b5f190190565b631e9acf1760e31b5f908152600490fd5b636f16c5e960e11b5f908152600490fd5b6103ce6131d7565b906134ea61213f61213a33600a610daa565b612150576103ce916134ff6111ec600c6110e4565b61350e61120061039c5f6110fb565b1461227a576135206111ec600c6110e4565b91823b156103bd57612243925f928361353860405190565b80968195829461354c638925781760e01b90565b8452600484016127d5565b906103ce916134d8565b919061357461213f61213a33600a610daa565b612150576103ce92909161358b6111ec600d6110e4565b61359a61120061039c5f6110fb565b14612400576135ac6111ec600d6110e4565b803b156103bd57601e935f80946122436135c560405190565b97889687958694630ac9679360e41b6123f5565b906103ce9291613561565b6103a85f6110e4565b61213a6103a8916135fb5f90565b50600e61208d565b6136196103a8916136115f90565b506009610daa565b6114dc565b6103ce9061362a61458c565b61363661039c5f6110fb565b6001600160a01b038216146128ae576103ce90613664612b5661365960026110e4565b6111ec846002612ae6565b907f4ab5be82436d353e61ca18726e984e561f5c1cc7c6d38b29d2553c790434705a61368f60405190565b5f90a3565b6103ce9061361e565b906060828203126103bd576103a891612556565b6136be6111ec600d6110e4565b6136c75f6110fb565b906136da6001600160a01b038316611200565b14158061373c575b613735576136f9611200612e976111ec600c6110e4565b14613730575f61371091611dc46111ec600c6110e4565b03915afa80156112c95761372a915f9161204c57506143e8565b91505090565b505f90565b5050600190565b5061374a6111ec600d6110e4565b606061375560405190565b6306655b9760e21b81526001600160a01b038516600482015291829060249082905afa9081156112c957613794915f918291613799575b500151151590565b6136e2565b6137bb915060603d6060116137c1575b6137b38183611118565b81019061369d565b5f61378c565b503d6137a9565b6103ce906137d461458c565b6137e061039c5f6110fb565b6001600160a01b038216146128ae57806111ec60016120dd61380394600a610daa565b7f51922599c85464cb24125d27a1c803d6110329ff39eb424c444158c91a5b633561382d60405190565b6001815280602081016119d5565b6103ce906137c8565b6138516111ec600c6110e4565b61386061120061039c5f6110fb565b1461206657606061387891612fcc6111ec600c6110e4565b03915afa9081156112c9575f916138c8575b506138945f6113f8565b61ffff82161461206657906138c26138b76138b16103a894611417565b8361146c565b61188d612710611340565b90611510565b6138e1915060603d606011613025576130178183611118565b5061388a565b6103a860e061113e565b6138f96138e7565b9060608252602080808080808088015f8152015f611b7a565b6103a86138f1565b6103a8600561178b565b9092919261393461117b82611b35565b93818552602080860192028301928184116103bd57915b8383106139585750505050565b6020809161396684866111a3565b81520192019161394b565b9080601f830112156103bd5781516103a892602001613924565b60ff81166103b6565b905051906103ce8261398b565b919091610120818403126103bd576139ba61012061113e565b815190936001600160401b0382116103bd576139db81613a66938501613971565b85526139ea8160208501611c01565b60208601526139fc8160408501611c01565b6040860152613a0e8160608501611c01565b6060860152613a208160808501611c01565b6080860152613a328160a08501611196565b60a0860152613a448160c08501611c01565b60c0860152613a568160e08501611c01565b60e0860152610100809301613994565b90830152565b906020828203126103bd5781516001600160401b0381116103bd576103a892016139a1565b90916060828403126103bd576103a8613aaa84846111a3565b9360406111cc8260208701611c01565b90613ac3613912565b8092613ada613ad061391a565b60ff166060840152565b613ae66127785f611340565b8252815f92613af86111ec600c6110e4565b90613b025f6110fb565b91613b156001600160a01b038416611200565b03613c54575b50613b2f611200612e976111ec600d6110e4565b03613b65575b60c091500190613b4861213f8351151590565b9081613b5d575b50613b575750565b60019052565b90505f613b4f565b613b726111ec600d6110e4565b916060613b7e60405190565b6326a13d5360e21b81526001600160a01b038316600482015293849060249082905afa9081156112c957613bcd606092613bf1955f905f92613c21575b5060208601525b61ffff166040850152565b613bda6111ec600d6110e4565b604051948592839182916306655b9760e21b611dd7565b03915afa80156112c9575f613c119160c094829161379957500151151590565b15613b3557600181830152613b35565b613bc29250613c469150853d8711613c4d575b613c3e8183611118565b810190613a91565b5091613bbb565b503d613c34565b909350613c646111ec600c6110e4565b905f613c6f60405190565b635f9bddb560e11b81526001600160a01b038616600482015292839060249082905afa9182156112c957613cc492613cb9926020925f92613d2f575b5081519052015161ffff1690565b61ffff166080830152565b613cd16111ec600c6110e4565b925f613cdc60405190565b63eb97e4eb60e01b81526001600160a01b038516600482015294859060249082905afa9384156112c957613d2994613d1a915f9161204c57506143e8565b61ffff90921660a08501525093565b5f613b1b565b613d4c9192503d805f833e613d448183611118565b810190613a6c565b905f613cab565b906020828203126103bd576103a891611c01565b613d746111ec600c6110e4565b613d8361120061039c5f6110fb565b14613df6576020613db891613d9b6111ec600c6110e4565b60405193849283918291634411ac5f60e01b83526004830161218a565b03915afa9081156112c9575f91613dcd575090565b6103a8915060203d602011613def575b613de78183611118565b810190613d53565b503d613ddd565b506103a85f6113f8565b613e0d6111ec600c6110e4565b613e1c61120061039c5f6110fb565b148015613e60575b612066575f613e3a91611dc46111ec600c6110e4565b03915afa80156112c957613e54915f9161204c57506143e8565b505080611fda5f6113f8565b50613e6a5f611340565b8214613e24565b6103ce90613e7d61458c565b613e8961039c5f6110fb565b6001600160a01b038216146128ae576103ce90613ebf565b60069061216b565b6103a890613ea1565b60405180612b1b81613ea9565b613ecc6111ec600c6110e4565b90613ee0613ed9826106ef565b600c612ae6565b612b5c612b56612b50613eb2565b6103ce90613e71565b91906040838203126103bd576103a8906020612dc88286611bf4565b613f206111ec600c6110e4565b613f2f61120061039c5f6110fb565b14613730576040613f6791613f476111ec600c6110e4565b604051938492839182916239f9d560ea1b83526004830190815260200190565b03915afa80156112c9576103a8915f91613f82575b506143cf565b613fa4915060403d604011613fa9575b613f9c8183611118565b810190613ef7565b613f7c565b503d613f92565b6103ce90613fbc61458c565b61401c565b15613fc857565b60405162461bcd60e51b815260206004820152602660248201527f4f776e61626c653a206e6577206f776e657220697320746865207a65726f206160448201526564647265737360d01b6064820152608490fd5b6103ce9061313c61402f61039c5f6110fb565b6001600160a01b0383161415613fc1565b6103ce90613fb0565b60405162461bcd60e51b815260206004820152600e60248201526d4e6f74206170706c696361626c6560901b6044820152606490fd5b6140876142ae565b6112ea61409261432a565b6103ce61409f600561130c565b61132d576103ce6140b46103a8336006610daa565b906140be33612e1e565b906140c85f611340565b8214612a77576140d78261151d565b906140ec600185016118f8846118f38361153f565b6141235f6140f9426113df565b950192836141086129726115e2565b6001600160401b038716602083018190526040830152612998565b61412c5f611340565b6141376103a8845490565b8110156141565780611a7f865f6129d26141519588611600565b61412c565b509250506141676111ec600d6110e4565b61417661120061039c5f6110fb565b036141a9575b7fc16de066392da7e40ceccb739c331fc48a2e76bf147449613c48023d960eec326119d5612882336106ef565b6141b66111ec600d6110e4565b803b156103bd575f6141c760405190565b9182906375af487760e01b82528183816141e788600133600485016117a1565b03925af180156112c9576141fc575b5061417c565b61420b905f611a618183611118565b5f6141f6565b6103ce61407f565b614222336106ef565b7fe37b2ae9cc03ec700b9146c4df2fc797e7a1119c08fc25513755ab5315faa6d261424c60405190565b806119d542348361135e565b6103a86002611340565b1561426957565b60405162461bcd60e51b815260206004820152601f60248201527f5265656e7472616e637947756172643a207265656e7472616e742063616c6c006044820152606490fd5b6103ce6142bb60016114dc565b6142cf6142c6614258565b91821415614262565b60016114f5565b6103a86001611340565b6103ce6142cf6142d6565b156142f257565b60405162461bcd60e51b815260206004820152601060248201526f14185d5cd8589b194e881c185d5cd95960821b6044820152606490fd5b6103ce61433861213f612a9e565b6142eb565b61434760026110e4565b61435661120061039c5f6110fb565b146128ae576143705f8061283b6111ec6111ec60026110e4565b61288c577fe37b2ae9cc03ec700b9146c4df2fc797e7a1119c08fc25513755ab5315faa6d26119d56143a56111ec60026110e4565b926143af60405190565b91829142908361135e565b6143ca6103a86103a89260ff1690565b61051e565b6143e36103a8916143dd5f90565b50610528565b6143ba565b905f9182806143f65f611340565b6144016103a8855190565b8110156144f55761441a61213f60a0611ecb8488611d4f565b6144855761442d6020611e408387611d4f565b61443c6060611e598488611d4f565b61444660066104f8565b61444f836104f8565b1480156144db575b6144c7575b61446660056104f8565b61446f836104f8565b146144b2575b5082159081614496575b5061448d575b6001016143f6565b60019150614485565b90506144ab6144a560046104f8565b916104f8565b145f61447f565b936138c26144c09295611417565b925f614475565b966144d5906138c289611417565b9661445c565b506144e660076104f8565b6144ef836104f8565b14614457565b5091509261450461ffff611417565b808211614534575b80851161452a575b50614521614527916113f8565b936113f8565b91565b9350614521614514565b90508061450c565b1561454357565b60405162461bcd60e51b815280612118600482016020808252818101527f4f776e61626c653a2063616c6c6572206973206e6f7420746865206f776e6572604082015260600190565b6103ce6145976135e4565b6145a36112003361039c565b1461453c565b6103a862015180611340565b6103a8686c6b935b8bbd400000611340565b6145d56103a8336006610daa565b906145de6145a9565b6145e881426114ae565b6145fc6114b46103a8613619336008610daa565b116147d8575b5061460c33612e1e565b916146165f611340565b8314612a7757600761462f846118ca6136193385610daa565b6146376145b5565b9081106147a6575061464d614660913390610daa565b61465a856118ca836114dc565b906114f5565b6146695f611340565b815482908210156146d0576120668261468192611600565b6001810161468e81612c9c565b61469a6115c05f6113df565b1191826146b0575b505061335757600101614669565b6146c792509061338561337f5f612f219401612c73565b42105f806146a2565b505091906146f56146ee6118856146e861187a61144d565b8561146c565b80936114c8565b916146ff306106ef565b316147106114b46103a88487611510565b106134ae5761471e426113df565b916147285f611340565b8554869082101561474b5790611a7f855f6129d28461474696611600565b614728565b50509361476c92600161475e9201611664565b61196d61464d336009610daa565b61477981613466336106ef565b7f7084f5476618d8e60b11ef0d7d3f06914655adb8793e28ff7f018d4c76d505d56119d5612882336106ef565b6147c261133c916147bc6136195f953390610daa565b906114c8565b631aefe80360e21b835260048301526024820190565b61480c612f21614807614817936148016147f15f611340565b6147fc336007610daa565b6114f5565b426114ae565b6113df565b6147fc336008610daa565b5f614602565b614825614b25565b6103ce614853565b9060ff60a01b9060a01b6114eb565b9061484c6103a861150c92151590565b825461482d565b61485d5f8061483c565b7f5db9ee0a495bf2e6ff9c91a7834c1ba4fdd244a5e8aa4e537bd38aeae4b073aa61488733610b77565b0390a1565b6103ce61481d565b61489d5f6113df565b6001600160401b03821614614946576148b862278d006113df565b6001600160401b0382161461493b576148d36276a7006113df565b6001600160401b03821614614930576148ee62ed4e006113df565b6001600160401b038216146149255761490d6115c06301e133806113df565b1461491b576103a85f61178b565b6103a8600461178b565b506103a8600361178b565b506103a8600261178b565b506103a8600161178b565b506103a85f61178b565b614969612b5661495f5f6110e4565b6111ec845f612ae6565b907f8be0079c531659141344cd1fd0a4f28419497f9722a3daafe3b4186f6b6457e061368f60405190565b61499c61432a565b6103ce6149aa60015f61483c565b7f62e78cea01bee320cd4e420270b5ea74000d11b0c9f74754ebdbfc544b05a25861488733610b77565b6103ce614994565b156149e357565b60405162461bcd60e51b815260206004820152601d60248201527f416464726573733a20696e73756666696369656e742062616c616e63650000006044820152606490fd5b15614a2f57565b60405162461bcd60e51b815260206004820152603a60248201527f416464726573733a20756e61626c6520746f2073656e642076616c75652c207260448201527f6563697069656e74206d617920686176652072657665727465640000000000006064820152608490fd5b5f6103ce92614aba82936111ec614ab0306106ef565b84903110156149dc565b90614ac460405190565b90818003925af1614ad36127b7565b50614a28565b15614ae057565b60405162461bcd60e51b815260206004820152601460248201527f5061757361626c653a206e6f74207061757365640000000000000000000000006044820152606490fd5b6103ce614b30612a9e565b614ad956fea2646970667358221220c282f87b762f629ca4c65a369103a3a8f24290de566dc7c1252c57800440efbe64736f6c634300081c0033",
  "linkReferences": {},
  "deployedLinkReferences": {}
}