{
  "_format": "hh-sol-artifact-1",
  "contractName": "EnhancedSmartStaking",
  "sourceName": "contracts/SmartStaking/EnhancedSmartStakingCore.sol",
  "abi": [
    {
      "inputs": [
        {
          "internalType": "address",
          "name": "_treasury",
          "type": "address"
        }
      ],
      "stateMutability": "nonpayable",
      "type": "constructor"
    },
    {
      "inputs": [
        {
          "internalType": "address",
          "name": "treasury",
          "type": "address"
        },
        {
          "internalType": "uint256",
          "name": "amount",
          "type": "uint256"
        }
      ],
      "name": "CommissionTransferFailed",
      "type": "error"
    },
    {
      "inputs": [],
      "name": "ContractIsMigrated",
      "type": "error"
    },
    {
      "inputs": [
        {
          "internalType": "uint256",
          "name": "availableToWithdraw",
          "type": "uint256"
        }
      ],
      "name": "DailyWithdrawalLimitExceeded",
      "type": "error"
    },
    {
      "inputs": [
        {
          "internalType": "uint256",
          "name": "provided",
          "type": "uint256"
        },
        {
          "internalType": "uint256",
          "name": "maximum",
          "type": "uint256"
        }
      ],
      "name": "DepositTooHigh",
      "type": "error"
    },
    {
      "inputs": [
        {
          "internalType": "uint256",
          "name": "provided",
          "type": "uint256"
        },
        {
          "internalType": "uint256",
          "name": "minimum",
          "type": "uint256"
        }
      ],
      "name": "DepositTooLow",
      "type": "error"
    },
    {
      "inputs": [],
      "name": "FundsAreLocked",
      "type": "error"
    },
    {
      "inputs": [],
      "name": "InsufficientBalance",
      "type": "error"
    },
    {
      "inputs": [],
      "name": "InvalidAddress",
      "type": "error"
    },
    {
      "inputs": [],
      "name": "InvalidLockupDuration",
      "type": "error"
    },
    {
      "inputs": [
        {
          "internalType": "address",
          "name": "user",
          "type": "address"
        },
        {
          "internalType": "uint16",
          "name": "maxDeposits",
          "type": "uint16"
        }
      ],
      "name": "MaxDepositsReached",
      "type": "error"
    },
    {
      "inputs": [
        {
          "internalType": "string",
          "name": "moduleName",
          "type": "string"
        }
      ],
      "name": "ModuleNotSet",
      "type": "error"
    },
    {
      "inputs": [],
      "name": "NoDepositsFound",
      "type": "error"
    },
    {
      "inputs": [],
      "name": "NoRewardsAvailable",
      "type": "error"
    },
    {
      "inputs": [],
      "name": "OnlyMarketplace",
      "type": "error"
    },
    {
      "inputs": [
        {
          "internalType": "enum IStakingIntegration.SkillType",
          "name": "skillType",
          "type": "uint8"
        }
      ],
      "name": "SkillDisabled",
      "type": "error"
    },
    {
      "anonymous": false,
      "inputs": [
        {
          "indexed": true,
          "internalType": "address",
          "name": "user",
          "type": "address"
        },
        {
          "indexed": false,
          "internalType": "uint256",
          "name": "compoundedAmount",
          "type": "uint256"
        }
      ],
      "name": "AutoCompoundTriggered",
      "type": "event"
    },
    {
      "anonymous": false,
      "inputs": [
        {
          "indexed": true,
          "internalType": "address",
          "name": "receiver",
          "type": "address"
        },
        {
          "indexed": false,
          "internalType": "uint256",
          "name": "amount",
          "type": "uint256"
        },
        {
          "indexed": false,
          "internalType": "uint256",
          "name": "timestamp",
          "type": "uint256"
        }
      ],
      "name": "CommissionPaid",
      "type": "event"
    },
    {
      "anonymous": false,
      "inputs": [
        {
          "indexed": true,
          "internalType": "address",
          "name": "user",
          "type": "address"
        },
        {
          "indexed": false,
          "internalType": "uint256",
          "name": "amount",
          "type": "uint256"
        }
      ],
      "name": "Compounded",
      "type": "event"
    },
    {
      "anonymous": false,
      "inputs": [
        {
          "indexed": true,
          "internalType": "address",
          "name": "user",
          "type": "address"
        },
        {
          "indexed": false,
          "internalType": "uint256",
          "name": "amount",
          "type": "uint256"
        },
        {
          "indexed": false,
          "internalType": "uint256",
          "name": "lockupDuration",
          "type": "uint256"
        }
      ],
      "name": "Deposited",
      "type": "event"
    },
    {
      "anonymous": false,
      "inputs": [
        {
          "indexed": true,
          "internalType": "address",
          "name": "user",
          "type": "address"
        },
        {
          "indexed": false,
          "internalType": "uint256",
          "name": "amount",
          "type": "uint256"
        }
      ],
      "name": "EmergencyWithdrawal",
      "type": "event"
    },
    {
      "anonymous": false,
      "inputs": [
        {
          "indexed": true,
          "internalType": "address",
          "name": "marketplace",
          "type": "address"
        },
        {
          "indexed": false,
          "internalType": "bool",
          "name": "isAuthorized",
          "type": "bool"
        }
      ],
      "name": "MarketplaceAuthorizationUpdated",
      "type": "event"
    },
    {
      "anonymous": false,
      "inputs": [
        {
          "indexed": true,
          "internalType": "string",
          "name": "moduleName",
          "type": "string"
        },
        {
          "indexed": true,
          "internalType": "address",
          "name": "oldModule",
          "type": "address"
        },
        {
          "indexed": true,
          "internalType": "address",
          "name": "newModule",
          "type": "address"
        }
      ],
      "name": "ModuleUpdated",
      "type": "event"
    },
    {
      "anonymous": false,
      "inputs": [
        {
          "indexed": true,
          "internalType": "address",
          "name": "previousOwner",
          "type": "address"
        },
        {
          "indexed": true,
          "internalType": "address",
          "name": "newOwner",
          "type": "address"
        }
      ],
      "name": "OwnershipTransferred",
      "type": "event"
    },
    {
      "anonymous": false,
      "inputs": [
        {
          "indexed": false,
          "internalType": "address",
          "name": "account",
          "type": "address"
        }
      ],
      "name": "Paused",
      "type": "event"
    },
    {
      "anonymous": false,
      "inputs": [
        {
          "indexed": true,
          "internalType": "address",
          "name": "user",
          "type": "address"
        },
        {
          "indexed": true,
          "internalType": "uint256",
          "name": "nftId",
          "type": "uint256"
        },
        {
          "indexed": false,
          "internalType": "enum IStakingIntegration.SkillType",
          "name": "skillType",
          "type": "uint8"
        },
        {
          "indexed": false,
          "internalType": "uint16",
          "name": "effectValue",
          "type": "uint16"
        }
      ],
      "name": "SkillActivated",
      "type": "event"
    },
    {
      "anonymous": false,
      "inputs": [
        {
          "indexed": true,
          "internalType": "address",
          "name": "user",
          "type": "address"
        },
        {
          "indexed": true,
          "internalType": "uint256",
          "name": "nftId",
          "type": "uint256"
        },
        {
          "indexed": false,
          "internalType": "enum IStakingIntegration.SkillType",
          "name": "skillType",
          "type": "uint8"
        }
      ],
      "name": "SkillDeactivated",
      "type": "event"
    },
    {
      "anonymous": false,
      "inputs": [
        {
          "indexed": true,
          "internalType": "address",
          "name": "user",
          "type": "address"
        },
        {
          "indexed": false,
          "internalType": "uint16",
          "name": "level",
          "type": "uint16"
        },
        {
          "indexed": false,
          "internalType": "uint8",
          "name": "maxActiveSkills",
          "type": "uint8"
        },
        {
          "indexed": false,
          "internalType": "uint16",
          "name": "stakingBoostTotal",
          "type": "uint16"
        }
      ],
      "name": "SkillProfileUpdated",
      "type": "event"
    },
    {
      "anonymous": false,
      "inputs": [
        {
          "indexed": true,
          "internalType": "address",
          "name": "newManager",
          "type": "address"
        }
      ],
      "name": "TreasuryManagerUpdated",
      "type": "event"
    },
    {
      "anonymous": false,
      "inputs": [
        {
          "indexed": true,
          "internalType": "address",
          "name": "oldTreasury",
          "type": "address"
        },
        {
          "indexed": true,
          "internalType": "address",
          "name": "newTreasury",
          "type": "address"
        }
      ],
      "name": "TreasuryUpdated",
      "type": "event"
    },
    {
      "anonymous": false,
      "inputs": [
        {
          "indexed": false,
          "internalType": "address",
          "name": "account",
          "type": "address"
        }
      ],
      "name": "Unpaused",
      "type": "event"
    },
    {
      "anonymous": false,
      "inputs": [
        {
          "indexed": true,
          "internalType": "address",
          "name": "user",
          "type": "address"
        },
        {
          "indexed": false,
          "internalType": "uint256",
          "name": "totalAmount",
          "type": "uint256"
        }
      ],
      "name": "WithdrawAll",
      "type": "event"
    },
    {
      "anonymous": false,
      "inputs": [
        {
          "indexed": true,
          "internalType": "address",
          "name": "user",
          "type": "address"
        },
        {
          "indexed": false,
          "internalType": "uint256",
          "name": "amount",
          "type": "uint256"
        }
      ],
      "name": "Withdrawn",
      "type": "event"
    },
    {
      "inputs": [
        {
          "internalType": "address",
          "name": "",
          "type": "address"
        }
      ],
      "name": "authorizedMarketplaces",
      "outputs": [
        {
          "internalType": "bool",
          "name": "",
          "type": "bool"
        }
      ],
      "stateMutability": "view",
      "type": "function"
    },
    {
      "inputs": [
        {
          "internalType": "address",
          "name": "user",
          "type": "address"
        },
        {
          "internalType": "uint256",
          "name": "baseAPY",
          "type": "uint256"
        }
      ],
      "name": "calculateBoostedAPY",
      "outputs": [
        {
          "internalType": "uint256",
          "name": "",
          "type": "uint256"
        }
      ],
      "stateMutability": "view",
      "type": "function"
    },
    {
      "inputs": [
        {
          "internalType": "address",
          "name": "userAddress",
          "type": "address"
        }
      ],
      "name": "calculateBoostedRewards",
      "outputs": [
        {
          "internalType": "uint256",
          "name": "totalRewards",
          "type": "uint256"
        }
      ],
      "stateMutability": "view",
      "type": "function"
    },
    {
      "inputs": [
        {
          "internalType": "address",
          "name": "userAddress",
          "type": "address"
        }
      ],
      "name": "calculateBoostedRewardsWithRarityMultiplier",
      "outputs": [
        {
          "internalType": "uint256",
          "name": "",
          "type": "uint256"
        }
      ],
      "stateMutability": "view",
      "type": "function"
    },
    {
      "inputs": [
        {
          "internalType": "address",
          "name": "user",
          "type": "address"
        },
        {
          "internalType": "uint256",
          "name": "baseFee",
          "type": "uint256"
        }
      ],
      "name": "calculateFeeDiscount",
      "outputs": [
        {
          "internalType": "uint256",
          "name": "",
          "type": "uint256"
        }
      ],
      "stateMutability": "view",
      "type": "function"
    },
    {
      "inputs": [
        {
          "internalType": "address",
          "name": "user",
          "type": "address"
        },
        {
          "internalType": "uint256",
          "name": "baseLockTime",
          "type": "uint256"
        }
      ],
      "name": "calculateReducedLockTime",
      "outputs": [
        {
          "internalType": "uint256",
          "name": "",
          "type": "uint256"
        }
      ],
      "stateMutability": "view",
      "type": "function"
    },
    {
      "inputs": [
        {
          "internalType": "address",
          "name": "userAddress",
          "type": "address"
        }
      ],
      "name": "calculateRewards",
      "outputs": [
        {
          "internalType": "uint256",
          "name": "totalRewards",
          "type": "uint256"
        }
      ],
      "stateMutability": "view",
      "type": "function"
    },
    {
      "inputs": [
        {
          "internalType": "address",
          "name": "_newTreasury",
          "type": "address"
        }
      ],
      "name": "changeTreasuryAddress",
      "outputs": [],
      "stateMutability": "nonpayable",
      "type": "function"
    },
    {
      "inputs": [
        {
          "internalType": "address",
          "name": "user",
          "type": "address"
        }
      ],
      "name": "checkAutoCompound",
      "outputs": [
        {
          "internalType": "bool",
          "name": "",
          "type": "bool"
        },
        {
          "internalType": "bytes",
          "name": "",
          "type": "bytes"
        }
      ],
      "stateMutability": "view",
      "type": "function"
    },
    {
      "inputs": [],
      "name": "compound",
      "outputs": [],
      "stateMutability": "nonpayable",
      "type": "function"
    },
    {
      "inputs": [
        {
          "internalType": "uint64",
          "name": "_lockupDuration",
          "type": "uint64"
        }
      ],
      "name": "deposit",
      "outputs": [],
      "stateMutability": "payable",
      "type": "function"
    },
    {
      "inputs": [
        {
          "internalType": "uint256",
          "name": "_amount",
          "type": "uint256"
        }
      ],
      "name": "emergencyWithdraw",
      "outputs": [],
      "stateMutability": "nonpayable",
      "type": "function"
    },
    {
      "inputs": [],
      "name": "gamificationModule",
      "outputs": [
        {
          "internalType": "contract IEnhancedSmartStakingGamification",
          "name": "",
          "type": "address"
        }
      ],
      "stateMutability": "view",
      "type": "function"
    },
    {
      "inputs": [
        {
          "internalType": "address",
          "name": "user",
          "type": "address"
        }
      ],
      "name": "getActiveSkills",
      "outputs": [
        {
          "components": [
            {
              "internalType": "enum IStakingIntegration.SkillType",
              "name": "skillType",
              "type": "uint8"
            },
            {
              "internalType": "uint16",
              "name": "effectValue",
              "type": "uint16"
            },
            {
              "internalType": "enum IStakingIntegration.Rarity",
              "name": "rarity",
              "type": "uint8"
            },
            {
              "internalType": "uint64",
              "name": "activatedAt",
              "type": "uint64"
            },
            {
              "internalType": "uint64",
              "name": "cooldownEnds",
              "type": "uint64"
            },
            {
              "internalType": "bool",
              "name": "isActive",
              "type": "bool"
            }
          ],
          "internalType": "struct IStakingIntegration.NFTSkill[]",
          "name": "",
          "type": "tuple[]"
        }
      ],
      "stateMutability": "view",
      "type": "function"
    },
    {
      "inputs": [],
      "name": "getAutoCompoundUsers",
      "outputs": [
        {
          "internalType": "address[]",
          "name": "autoUsers",
          "type": "address[]"
        }
      ],
      "stateMutability": "view",
      "type": "function"
    },
    {
      "inputs": [],
      "name": "getContractBalance",
      "outputs": [
        {
          "internalType": "uint256",
          "name": "",
          "type": "uint256"
        }
      ],
      "stateMutability": "view",
      "type": "function"
    },
    {
      "inputs": [
        {
          "internalType": "address",
          "name": "userAddress",
          "type": "address"
        }
      ],
      "name": "getTotalClaimedRewards",
      "outputs": [
        {
          "internalType": "uint256",
          "name": "",
          "type": "uint256"
        }
      ],
      "stateMutability": "view",
      "type": "function"
    },
    {
      "inputs": [
        {
          "internalType": "address",
          "name": "user",
          "type": "address"
        }
      ],
      "name": "getUser",
      "outputs": [
        {
          "internalType": "address[]",
          "name": "",
          "type": "address[]"
        },
        {
          "internalType": "uint256",
          "name": "",
          "type": "uint256"
        },
        {
          "internalType": "uint64",
          "name": "",
          "type": "uint64"
        }
      ],
      "stateMutability": "view",
      "type": "function"
    },
    {
      "inputs": [
        {
          "internalType": "address",
          "name": "user",
          "type": "address"
        },
        {
          "internalType": "uint256",
          "name": "index",
          "type": "uint256"
        }
      ],
      "name": "getUserDeposit",
      "outputs": [
        {
          "internalType": "uint128",
          "name": "",
          "type": "uint128"
        },
        {
          "internalType": "uint64",
          "name": "",
          "type": "uint64"
        },
        {
          "internalType": "uint64",
          "name": "",
          "type": "uint64"
        },
        {
          "internalType": "uint64",
          "name": "",
          "type": "uint64"
        }
      ],
      "stateMutability": "view",
      "type": "function"
    },
    {
      "inputs": [
        {
          "internalType": "address",
          "name": "userAddress",
          "type": "address"
        }
      ],
      "name": "getUserInfo",
      "outputs": [
        {
          "internalType": "uint256",
          "name": "totalDeposited",
          "type": "uint256"
        },
        {
          "internalType": "uint256",
          "name": "totalRewards",
          "type": "uint256"
        },
        {
          "internalType": "uint256",
          "name": "depositCount",
          "type": "uint256"
        },
        {
          "internalType": "uint256",
          "name": "lastWithdrawTime",
          "type": "uint256"
        }
      ],
      "stateMutability": "view",
      "type": "function"
    },
    {
      "inputs": [
        {
          "internalType": "address",
          "name": "user",
          "type": "address"
        }
      ],
      "name": "getUserSkillProfile",
      "outputs": [
        {
          "components": [
            {
              "internalType": "uint256[]",
              "name": "activeNFTIds",
              "type": "uint256[]"
            },
            {
              "internalType": "uint256",
              "name": "totalXP",
              "type": "uint256"
            },
            {
              "internalType": "uint16",
              "name": "level",
              "type": "uint16"
            },
            {
              "internalType": "uint8",
              "name": "maxActiveSkills",
              "type": "uint8"
            },
            {
              "internalType": "uint16",
              "name": "stakingBoostTotal",
              "type": "uint16"
            },
            {
              "internalType": "uint16",
              "name": "feeDiscountTotal",
              "type": "uint16"
            },
            {
              "internalType": "bool",
              "name": "hasAutoCompound",
              "type": "bool"
            }
          ],
          "internalType": "struct IStakingIntegration.UserSkillProfile",
          "name": "profile",
          "type": "tuple"
        }
      ],
      "stateMutability": "view",
      "type": "function"
    },
    {
      "inputs": [
        {
          "internalType": "address",
          "name": "user",
          "type": "address"
        }
      ],
      "name": "hasAutoCompound",
      "outputs": [
        {
          "internalType": "bool",
          "name": "",
          "type": "bool"
        }
      ],
      "stateMutability": "view",
      "type": "function"
    },
    {
      "inputs": [],
      "name": "migrated",
      "outputs": [
        {
          "internalType": "bool",
          "name": "",
          "type": "bool"
        }
      ],
      "stateMutability": "view",
      "type": "function"
    },
    {
      "inputs": [],
      "name": "newContractAddress",
      "outputs": [
        {
          "internalType": "address",
          "name": "",
          "type": "address"
        }
      ],
      "stateMutability": "view",
      "type": "function"
    },
    {
      "inputs": [
        {
          "internalType": "uint256",
          "name": "nftId",
          "type": "uint256"
        }
      ],
      "name": "nftRarity",
      "outputs": [
        {
          "internalType": "enum IStakingIntegration.Rarity",
          "name": "",
          "type": "uint8"
        }
      ],
      "stateMutability": "view",
      "type": "function"
    },
    {
      "inputs": [
        {
          "internalType": "address",
          "name": "user",
          "type": "address"
        },
        {
          "internalType": "uint256",
          "name": "achievementId",
          "type": "uint256"
        },
        {
          "internalType": "uint256",
          "name": "rewardAmount",
          "type": "uint256"
        }
      ],
      "name": "notifyAchievementUnlocked",
      "outputs": [],
      "stateMutability": "nonpayable",
      "type": "function"
    },
    {
      "inputs": [
        {
          "internalType": "address",
          "name": "user",
          "type": "address"
        },
        {
          "internalType": "uint256",
          "name": "questId",
          "type": "uint256"
        },
        {
          "internalType": "uint256",
          "name": "rewardAmount",
          "type": "uint256"
        }
      ],
      "name": "notifyQuestCompletion",
      "outputs": [],
      "stateMutability": "nonpayable",
      "type": "function"
    },
    {
      "inputs": [
        {
          "internalType": "address",
          "name": "user",
          "type": "address"
        },
        {
          "internalType": "uint256",
          "name": "nftId",
          "type": "uint256"
        },
        {
          "internalType": "enum IStakingIntegration.SkillType",
          "name": "skillType",
          "type": "uint8"
        },
        {
          "internalType": "uint16",
          "name": "effectValue",
          "type": "uint16"
        }
      ],
      "name": "notifySkillActivation",
      "outputs": [],
      "stateMutability": "nonpayable",
      "type": "function"
    },
    {
      "inputs": [
        {
          "internalType": "address",
          "name": "user",
          "type": "address"
        },
        {
          "internalType": "uint256",
          "name": "nftId",
          "type": "uint256"
        }
      ],
      "name": "notifySkillDeactivation",
      "outputs": [],
      "stateMutability": "nonpayable",
      "type": "function"
    },
    {
      "inputs": [],
      "name": "owner",
      "outputs": [
        {
          "internalType": "address",
          "name": "",
          "type": "address"
        }
      ],
      "stateMutability": "view",
      "type": "function"
    },
    {
      "inputs": [],
      "name": "pause",
      "outputs": [],
      "stateMutability": "nonpayable",
      "type": "function"
    },
    {
      "inputs": [],
      "name": "paused",
      "outputs": [
        {
          "internalType": "bool",
          "name": "",
          "type": "bool"
        }
      ],
      "stateMutability": "view",
      "type": "function"
    },
    {
      "inputs": [
        {
          "internalType": "bytes",
          "name": "performData",
          "type": "bytes"
        }
      ],
      "name": "performAutoCompound",
      "outputs": [],
      "stateMutability": "nonpayable",
      "type": "function"
    },
    {
      "inputs": [],
      "name": "renounceOwnership",
      "outputs": [],
      "stateMutability": "nonpayable",
      "type": "function"
    },
    {
      "inputs": [],
      "name": "rewardsModule",
      "outputs": [
        {
          "internalType": "contract IEnhancedSmartStakingRewards",
          "name": "",
          "type": "address"
        }
      ],
      "stateMutability": "view",
      "type": "function"
    },
    {
      "inputs": [
        {
          "internalType": "address",
          "name": "_gamificationModule",
          "type": "address"
        }
      ],
      "name": "setGamificationModule",
      "outputs": [],
      "stateMutability": "nonpayable",
      "type": "function"
    },
    {
      "inputs": [
        {
          "internalType": "address",
          "name": "_marketplace",
          "type": "address"
        }
      ],
      "name": "setMarketplaceAddress",
      "outputs": [],
      "stateMutability": "nonpayable",
      "type": "function"
    },
    {
      "inputs": [
        {
          "internalType": "address",
          "name": "_marketplace",
          "type": "address"
        },
        {
          "internalType": "bool",
          "name": "_isAuthorized",
          "type": "bool"
        }
      ],
      "name": "setMarketplaceAuthorization",
      "outputs": [],
      "stateMutability": "nonpayable",
      "type": "function"
    },
    {
      "inputs": [
        {
          "internalType": "address",
          "name": "_rewardsModule",
          "type": "address"
        }
      ],
      "name": "setRewardsModule",
      "outputs": [],
      "stateMutability": "nonpayable",
      "type": "function"
    },
    {
      "inputs": [
        {
          "internalType": "enum IStakingIntegration.SkillType",
          "name": "skillType",
          "type": "uint8"
        },
        {
          "internalType": "bool",
          "name": "enabled",
          "type": "bool"
        }
      ],
      "name": "setSkillEnabled",
      "outputs": [],
      "stateMutability": "nonpayable",
      "type": "function"
    },
    {
      "inputs": [
        {
          "internalType": "address",
          "name": "_skillsModule",
          "type": "address"
        }
      ],
      "name": "setSkillsModule",
      "outputs": [],
      "stateMutability": "nonpayable",
      "type": "function"
    },
    {
      "inputs": [
        {
          "internalType": "address",
          "name": "",
          "type": "address"
        }
      ],
      "name": "setStakingAddress",
      "outputs": [],
      "stateMutability": "pure",
      "type": "function"
    },
    {
      "inputs": [
        {
          "internalType": "address",
          "name": "_treasuryManager",
          "type": "address"
        }
      ],
      "name": "setTreasuryManager",
      "outputs": [],
      "stateMutability": "nonpayable",
      "type": "function"
    },
    {
      "inputs": [
        {
          "internalType": "enum IStakingIntegration.SkillType",
          "name": "skillType",
          "type": "uint8"
        }
      ],
      "name": "skillDefaultEffects",
      "outputs": [
        {
          "internalType": "uint16",
          "name": "",
          "type": "uint16"
        }
      ],
      "stateMutability": "view",
      "type": "function"
    },
    {
      "inputs": [
        {
          "internalType": "enum IStakingIntegration.SkillType",
          "name": "skillType",
          "type": "uint8"
        }
      ],
      "name": "skillEnabled",
      "outputs": [
        {
          "internalType": "bool",
          "name": "",
          "type": "bool"
        }
      ],
      "stateMutability": "view",
      "type": "function"
    },
    {
      "inputs": [],
      "name": "skillsModule",
      "outputs": [
        {
          "internalType": "contract IEnhancedSmartStakingSkills",
          "name": "",
          "type": "address"
        }
      ],
      "stateMutability": "view",
      "type": "function"
    },
    {
      "inputs": [],
      "name": "totalPoolBalance",
      "outputs": [
        {
          "internalType": "uint256",
          "name": "",
          "type": "uint256"
        }
      ],
      "stateMutability": "view",
      "type": "function"
    },
    {
      "inputs": [
        {
          "internalType": "address",
          "name": "",
          "type": "address"
        }
      ],
      "name": "totalRewardsClaimed",
      "outputs": [
        {
          "internalType": "uint256",
          "name": "",
          "type": "uint256"
        }
      ],
      "stateMutability": "view",
      "type": "function"
    },
    {
      "inputs": [
        {
          "internalType": "address",
          "name": "newOwner",
          "type": "address"
        }
      ],
      "name": "transferOwnership",
      "outputs": [],
      "stateMutability": "nonpayable",
      "type": "function"
    },
    {
      "inputs": [],
      "name": "treasury",
      "outputs": [
        {
          "internalType": "address",
          "name": "",
          "type": "address"
        }
      ],
      "stateMutability": "view",
      "type": "function"
    },
    {
      "inputs": [],
      "name": "treasuryManager",
      "outputs": [
        {
          "internalType": "contract ITreasuryManager",
          "name": "",
          "type": "address"
        }
      ],
      "stateMutability": "view",
      "type": "function"
    },
    {
      "inputs": [],
      "name": "uniqueUsersCount",
      "outputs": [
        {
          "internalType": "uint256",
          "name": "",
          "type": "uint256"
        }
      ],
      "stateMutability": "view",
      "type": "function"
    },
    {
      "inputs": [],
      "name": "unpause",
      "outputs": [],
      "stateMutability": "nonpayable",
      "type": "function"
    },
    {
      "inputs": [
        {
          "internalType": "enum IStakingIntegration.SkillType",
          "name": "skillType",
          "type": "uint8"
        },
        {
          "internalType": "uint16",
          "name": "newEffectValue",
          "type": "uint16"
        }
      ],
      "name": "updateSkillEffect",
      "outputs": [],
      "stateMutability": "nonpayable",
      "type": "function"
    },
    {
      "inputs": [
        {
          "internalType": "address",
          "name": "user",
          "type": "address"
        },
        {
          "internalType": "uint256",
          "name": "xpGained",
          "type": "uint256"
        }
      ],
      "name": "updateUserXP",
      "outputs": [],
      "stateMutability": "nonpayable",
      "type": "function"
    },
    {
      "inputs": [],
      "name": "withdraw",
      "outputs": [],
      "stateMutability": "nonpayable",
      "type": "function"
    },
    {
      "inputs": [],
      "name": "withdrawAll",
      "outputs": [],
      "stateMutability": "nonpayable",
      "type": "function"
    },
    {
      "inputs": [],
      "name": "withdrawBoosted",
      "outputs": [],
      "stateMutability": "nonpayable",
      "type": "function"
    },
    {
      "stateMutability": "payable",
      "type": "receive"
    }
  ],
  "bytecode": "0x60806040523461002a576100196100146100bf565b610149565b604051614d556103ae8239614d5590f35b5f80fd5b634e487b7160e01b5f52604160045260245ffd5b90601f01601f191681019081106001600160401b0382111761006357604052565b61002e565b9061007c61007560405190565b9283610042565b565b6001600160a01b031690565b90565b6001600160a01b0381160361002a57565b9050519061007c8261008d565b9060208282031261002a5761008a9161009e565b61008a615103803803806100d281610068565b9283398101906100ab565b61007e61008a61008a9290565b61008a906100dd565b906001600160a01b03905b9181191691161790565b61008a9061007e906001600160a01b031682565b61008a90610108565b61008a9061011c565b9061013e61008a61014592610125565b82546100f3565b9055565b610151610190565b61015d61007e5f6100ea565b6001600160a01b0382161461017f5761017790600261012e565b61007c6102e8565b63e6c4247b60e01b5f908152600490fd5b61007c6101cf565b61008a61008a61008a9290565b61008a6001610198565b905f19906100fe565b906101c861008a61014592610198565b82546101af565b6101d761020f565b61007c6101e26101a5565b60016101b8565b9060ff60a01b9060a01b6100fe565b9061020861008a61014592151590565b82546101e9565b610217610221565b61007c5f806101f8565b61007c33610359565b61023761008a61008a9290565b60ff1690565b634e487b7160e01b5f52601160045260245ffd5b60ff1660ff81146102625760010190565b61023d565b634e487b7160e01b5f52602160045260245ffd5b6014111561028557565b610267565b9061007c8261027b565b61008a9061028a565b6102ad61008a61008a9260ff1690565b61028a565b906102bc90610294565b5f5260205260405f2090565b9060ff906100fe565b906102e161008a61014592151590565b82546102c8565b6001806102f5600161022a565b905b6102ff575050565b61030c6102376013610294565b60ff8216116103425761033c829161033783610332600f61032c8561029d565b906102b2565b6102d1565b610251565b906102f7565b5050565b61008a9061007e565b61008a9054610346565b61037d6103776103685f61034f565b610372845f61012e565b610125565b91610125565b907f8be0079c531659141344cd1fd0a4f28419497f9722a3daafe3b4186f6b6457e06103a860405190565b5f90a356fe60806040526004361015610022575b3615610018575f80fd5b61002061431e565b005b5f3560e01c806311bd459f146103b757806313765838146103b2578063161ba781146103ad57806318f2f402146103a857806323c8738a146103a35780632c678c641461039e5780632f1df47614610399578063313a1954146103945780633bab7a89146102e55780633ccfd60b146102cc5780633cea70d91461038f5780633f4ba83a1461038a5780633fd51fbf1461038557806349be75bb146103805780634b1d06d71461037b5780635026d63e146103765780635312ea8e146103715780635b0df80a1461036c5780635c975abb146103675780635cb60986146103625780635efc27d61461035d578063607110581461035857806361d027b3146103535780636386c1c71461034e57806364ab8675146103495780636744f776146103445780636af04a571461033f5780636f77926b1461033a5780636f9fb98a14610335578063715018a61461033057806375af38f21461032b5780638456cb5914610326578063851265b614610321578063853828b61461031c57806389257817146103175780638d79bb50146103125780638da5cb5b1461030d5780638ec8eef514610308578063992976aa146103035780639cfc8b8c146102fe578063a6f353f0146102f9578063ad293709146102f4578063b415ff7a146102ef578063b47cc556146102ea578063b907deee146102e5578063bece23ba146102e0578063bf37bb6a146102db578063c3f78e3a146102d6578063c9f8234f146102d1578063d1cc7bb2146102cc578063e8ac8345146102c7578063ef6c4acf146102c2578063f154a549146102bd578063f2fde38b146102b8578063f4e0d9ac146102b3578063f69e2046146102ae578063f6ce9004146102a95763fe47a9f20361000e57611121565b611106565b6110da565b6110c5565b6110ad565b611086565b61105e565b611042565b61089d565b611027565b610fec565b610fc5565b610ef0565b610882565b610ed8565b610ebd565b610ea2565b610e7f565b610e64565b610e49565b610e1a565b610dd5565b610dbc565b610da3565b610d8b565b610d72565b610d3e565b610d23565b610d00565b610ce5565b610cbb565b610c77565b610c53565b610c38565b610c07565b610ba2565b610b65565b610af4565b610adc565b610ac1565b610aa8565b610a38565b610a09565b6109c1565b610951565b61091c565b6108db565b6108c0565b610866565b6107fa565b61077d565b610731565b61068f565b610632565b6104dd565b61047b565b6001600160a01b031690565b90565b6001600160a01b0381165b036103dd57565b5f80fd5b905035906103ee826103cb565b565b906020828203126103dd576103c8916103e1565b9052565b5f5b8381106104195750505f910152565b818101518382015260200161040a565b61044a61045360209361045d9361043e815190565b80835293849260200190565b95869101610408565b601f01601f191690565b0190565b90151581526040602082018190526103c892910190610429565b346103dd5761049361048e3660046103f0565b61123c565b906104a96104a060405190565b92839283610461565b0390f35b6001600160401b0381166103d6565b905035906103ee826104ad565b906020828203126103dd576103c8916104bc565b6104f06104eb3660046104c9565b611b8a565b604051005b634e487b7160e01b5f52602160045260245ffd5b6014111561051357565b6104f5565b906103ee82610509565b6103c890610518565b61040490610522565b6005111561051357565b906103ee82610534565b6103c89061053e565b61040490610548565b9060a0806103ee936105725f8201515f86019061052b565b60208181015161ffff169085015261059260408201516040860190610551565b6060818101516001600160401b0316908501526080818101516001600160401b0316908501525b01511515910152565b9061045d8160c09361055a565b906105ef6105e86105de845190565b8084529260200190565b9260200190565b905f5b8181106105ff5750505090565b90919261061961061260019286516105c2565b9460200190565b9291016105f2565b60208082526103c8929101906105cf565b346103dd576104a961064d6106483660046103f0565b611def565b60405191829182610621565b806103d6565b905035906103ee82610659565b91906040838203126103dd576103c890602061068882866103e1565b940161065f565b346103dd576104a96106ab6106a536600461066c565b90611fd6565b6040515b9182918290815260200190565b5f9103126103dd57565b6103c8916008021c6001600160a01b031690565b906103c891546106c6565b6103c85f600c6106da565b6103bc6103c86103c8926001600160a01b031690565b6103c8906106f0565b6103c890610706565b6104049061070f565b6020810192916103ee9190610718565b346103dd576107413660046106bc565b6104a961074c6106e5565b60405191829182610721565b6103c8916008021c5b60ff1690565b906103c89154610758565b6103c85f6006610767565b346103dd5761078d3660046106bc565b6104a9610798610772565b6040515b91829182901515815260200190565b601411156103dd57565b905035906103ee826107ab565b8015156103d6565b905035906103ee826107c2565b91906040838203126103dd576103c89060206107f382866107b5565b94016107ca565b346103dd576104f061080d3660046107d7565b9061217a565b61ffff81166103d6565b905035906103ee82610813565b6080818303126103dd5761083e82826103e1565b926103c861084f846020850161065f565b93606061085f82604087016107b5565b940161081d565b346103dd576104f061087936600461082a565b929190916122f2565b346103dd576104a96106ab6108983660046103f0565b6122fe565b346103dd576108ad3660046106bc565b6104f0612336565b6103c85f60036106da565b346103dd576108d03660046106bc565b6104a961074c6108b5565b346103dd576108eb3660046106bc565b6104f0612351565b90916060828403126103dd576103c861090c84846103e1565b936040610688826020870161065f565b346103dd576104f061092f3660046108f3565b9161247d565b91906040838203126103dd576103c890602061085f82866107b5565b346103dd576104f0610964366004610935565b90612519565b906109796105e86105de845190565b905f5b8181106109895750505090565b9091926109a861061260019286516001600160a01b0316815260200190565b92910161097c565b60208082526103c89291019061096a565b346103dd576109d13660046106bc565b6104a96109dc6126e5565b604051918291826109b0565b6103c8916008021c81565b906103c891546109e8565b6103c85f60046109f3565b346103dd57610a193660046106bc565b6104a96106ab6109fe565b906020828203126103dd576103c89161065f565b346103dd576104f0610a4b366004610a24565b61293a565b909182601f830112156103dd578135916001600160401b0383116103dd5760200192600183028401116103dd57565b906020828203126103dd5781356001600160401b0381116103dd57610aa49201610a50565b9091565b346103dd576104f0610abb366004610a7f565b90612943565b346103dd57610ad13660046106bc565b6104a9610798612b01565b346103dd576104f0610aef3660046103f0565b612bef565b346103dd576104f0610b0736600461066c565b90612c74565b610b566103ee94610b46606094989795610b36608086019a5f8701906001600160801b03169052565b6001600160401b03166020850152565b6001600160401b03166040830152565b01906001600160401b03169052565b346103dd576104a9610b81610b7b36600461066c565b90612d09565b90610b8e94929460405190565b94859485610b0d565b6103c85f60026106da565b346103dd57610bb23660046106bc565b6104a9610bbd610b97565b604051918291826001600160a01b03909116815260200190565b610c036103ee94610bfc606094989795610bf5608086019a5f870152565b6020850152565b6040830152565b0152565b346103dd576104a9610c22610c1d3660046103f0565b612d8a565b90610c2f94929460405190565b94859485610bd7565b346103dd576104a96106ab610c4e3660046103f0565b612e73565b346103dd576104f0610c663660046103f0565b613126565b6103c8600160066106da565b346103dd57610c873660046106bc565b6104a9610bbd610c6b565b604090610b56610cb36103ee9597969460608401908482035f86015261096a565b966020830152565b346103dd576104a9610cd6610cd13660046103f0565b61312f565b60405191939193849384610c92565b346103dd57610cf53660046106bc565b6104a96106ab613171565b346103dd57610d103660046106bc565b6104f0613196565b6103c85f600e6106da565b346103dd57610d333660046106bc565b6104a961074c610d18565b346103dd57610d4e3660046106bc565b6104f06131b1565b91906040838203126103dd576103c89060206107f382866103e1565b346103dd576104f0610d85366004610d56565b90613222565b346103dd57610d9b3660046106bc565b6104f0613525565b346103dd576104f0610db636600461066c565b906135ac565b346103dd576104f0610dcf3660046108f3565b91613662565b346103dd57610de53660046106bc565b6104a9610bbd61366d565b90610dfa9061070f565b5f5260205260405f2090565b5f610e156103c892600b610df0565b610767565b346103dd576104a9610798610e303660046103f0565b610e06565b906020828203126103dd576103c8916107b5565b346103dd576104a9610798610e5f366004610e35565b613676565b346103dd576104a96106ab610e7a3660046103f0565b61368c565b346103dd576104f0610e923660046103f0565b61371d565b6103c85f600d6106da565b346103dd57610eb23660046106bc565b6104a961074c610e97565b346103dd576104a9610798610ed33660046103f0565b61373a565b346103dd576104f0610eeb3660046103f0565b6138c4565b346103dd576104a96106ab610f0636600461066c565b906138cd565b90610f1b6105e86105de845190565b905f5b818110610f2b5750505090565b909192610f416106126001928651815260200190565b929101610f1e565b906103c89060c080610f6860e084015f8701518582035f870152610f0c565b94610f7860208201516020860152565b60408181015161ffff169085015260608181015160ff169085015260808181015161ffff169085015260a08181015161ffff16908501526105b9565b60208082526103c892910190610f49565b346103dd576104a9610fe0610fdb3660046103f0565b613b43565b60405191829182610fb4565b346103dd576104a9611007611002366004610e35565b613df0565b6040519182918261ffff909116815260200190565b6103c85f60056109f3565b346103dd576110373660046106bc565b6104a96106ab61101c565b346103dd576104a96106ab61105836600461066c565b90613e89565b346103dd576104f06110713660046103f0565b613f77565b6020810192916103ee9190610551565b346103dd576104a96110a161109c366004610a24565b613f9c565b60405191829182611076565b346103dd576104f06110c03660046103f0565b6140c9565b346103dd576110d53660046103f0565b6140d2565b346103dd576110ea3660046106bc565b6104f061429a565b5f6111016103c892600a610df0565b6109f3565b346103dd576104a96106ab61111c3660046103f0565b6110f2565b346103dd576104f06111343660046103f0565b614315565b6103c8906103bc565b6103c89054611139565b6103bc6103c86103c89290565b6103c89061114c565b634e487b7160e01b5f52604160045260245ffd5b90601f01601f191681019081106001600160401b0382111761119757604052565b611162565b906103ee6111a960405190565b9283611176565b6001600160401b03811161119757602090601f01601f19160190565b906111de6111d9836111b0565b61119c565b918252565b6103c85f6111cc565b6103c86111e3565b905051906103ee826107c2565b905051906103ee82610659565b91906040838203126103dd576103c890602061122a82866111f4565b9401611201565b6040513d5f823e3d90fd5b9061124f61124a600e611142565b61070f565b61126b61125e6103bc5f611159565b916001600160a01b031690565b1461132c5761127d61124a600e611142565b91604061128960405190565b6311bd459f60e01b81526001600160a01b038316600482015293849060249082905afa928315611327575f936112f5575b5082156112ec576103c86112cd60405190565b6001600160a01b03929092166020808401919091528252604082611176565b506103c86111ec565b61131891935060403d604011611320575b6113108183611176565b81019061120e565b9290926112ba565b503d611306565b611231565b5f91506103c86111ec565b611348906113436143b3565b611350565b6103ee6143e5565b6103ee9061135c61442f565b611374565b6103c890610761565b6103c89054611361565b61137e600661136a565b61138b576103ee906113e2565b63f2bcabb960e01b5f90815260045b035ffd5b6103c86103c86103c89290565b6103c8678ac7230489e8000061139e565b9081526040810192916103ee9160200152565b6103c869152d02c7e14af680000061139e565b6113ea6113ab565b80341061142457506113fa6113cf565b80341161140b57506103ee9061185e565b6330250a5b60e11b5f9081529061139a903460046113bc565b63ea691a4b60e01b5f9081529061139a903460046113bc565b61144a6103c86103c89290565b6001600160401b031690565b6114636103c86103c89290565b61ffff1690565b6103c8610190611456565b6103c86103c86103c89261ffff1690565b6001600160a01b0390911681526040810192916103ee916020905b019061ffff169052565b6103c8610258611456565b634e487b7160e01b5f52601160045260245ffd5b91906114d5565b9290565b918083029281840414901517156114e857565b6114b6565b6103c861271061139e565b634e487b7160e01b5f52601260045260245ffd5b90611516565b9190565b908115611521570490565b6114f8565b919082039182116114e857565b6103c89081565b6103c89054611533565b905f19905b9181191691161790565b906115636103c861156a9261139e565b8254611544565b9055565b919082018092116114e857565b6115886103c86103c89290565b6001600160801b031690565b6103c890611588565b6103c89054611594565b6115c2906001600160801b03165b916001600160801b031690565b01906001600160801b0382116114e857565b906001600160801b0390611549565b6115886103c86103c8926001600160801b031690565b906116096103c861156a926115e3565b82546115d4565b61162b906001600160401b03165b916001600160401b031690565b02906001600160401b0382169182036114e857565b6103c8608061119c565b634e487b7160e01b5f52603260045260245ffd5b805482101561167e576116766002915f5260205f2090565b910201905f90565b61164a565b634e487b7160e01b5f525f60045260245ffd5b9067ffffffffffffffff60801b9060801b611549565b61144a6103c86103c8926001600160401b031690565b906116d26103c861156a926116ac565b8254611696565b9077ffffffffffffffffffffffffffffffffffffffffffffffff199060c01b611549565b9061170d6103c861156a926116ac565b82546116d9565b906001600160401b0390611549565b906117336103c861156a926116ac565b8254611714565b6103ee916001906117a5906060906117978561176661176084516001600160801b031690565b826115f9565b61178361177d60208501516001600160401b031690565b826116c2565b60408301516001600160401b0316906116fd565b01516001600160401b031690565b9101611723565b91906117bb576103ee9161173a565b611683565b90815491600160401b83101561119757826117e39160016103ee9501815561165e565b906117ac565b6107616103c86103c89290565b610404906117e9565b6001600160a01b0390911681526060810193926103ee929091604091610c039060208301906117f6565b6103c86103c86103c8926001600160401b031690565b61040490611829565b9081526040810192916103ee916020019061183f565b6118675f61143d565b6001600160401b038216141580611b6e575b80611b52575b80611b36575b80611b19575b611b085761189d6103c8336007610df0565b805490919082906118ac61146a565b906118b961151283611475565b1015611aef57506119d0906119cb6118f16118e36118dd6118d86114ab565b611475565b346114ca565b6118eb6114ed565b9061150c565b916118fc8334611526565b95611905815490565b6119116115125f61139e565b14611acd575b61193461192d88611928600461153a565b61156e565b6004611553565b61195c60016119428961157b565b9301611956846119518361159d565b6115a7565b906115f9565b6119c66119684261143d565b916119b66119846114d161197e6201518061143d565b8b611610565b9361199f611990611640565b6001600160801b039097168752565b6001600160401b0316602086018190526040860152565b6001600160401b03166060840152565b6117c0565b614442565b6119dd61124a600e611142565b6119ec61125e6103bc5f611159565b03611a38575b7f73a19dd210f1a7f902193214c0ee91dd35ee5b4d920cba8d519eca65a7b488ca90611a1d3361070f565b92611a33611a2a60405190565b92839283611848565b0390a2565b611a4561124a600e611142565b90813b156103dd575f611a5760405190565b9283906375af487760e01b8252818381611a76898333600485016117ff565b03925af1918215611327577f73a19dd210f1a7f902193214c0ee91dd35ee5b4d920cba8d519eca65a7b488ca92611ab0575b5090506119f2565b611ac7905f611abf8183611176565b8101906106bc565b5f611aa8565b611aea611ae3611add600561153a565b60010190565b6005611553565b611917565b63756a320d60e11b5f9081529061139a90336004611486565b631ab8aa1760e21b5f908152600490fd5b50611b2561016d61143d565b6001600160401b038216141561188b565b50611b4160b461143d565b6001600160401b0382161415611885565b50611b5d605a61143d565b6001600160401b038216141561187f565b50611b79601e61143d565b6001600160401b0382161415611879565b6103ee90611337565b6001600160401b0381116111975760208091020190565b906111de6111d983611b93565b6103c860c061119c565b611bc9611bb7565b905f82526020808080808087015f5b8152015f8152015f8152015f8152015f905250565b6103c8611bc1565b5f5b828110611c0357505050565b602090611c0e611bed565b8184015201611bf7565b906103ee611c2e611c2884611baa565b93611b93565b601f190160208401611bf5565b905051906103ee826107ab565b600511156103dd57565b905051906103ee82611c48565b905051906103ee82610813565b905051906103ee826104ad565b9190610100838203126103dd57611d169060e0611c9761010061119c565b94611ca28382611201565b8652611cb18360208301611c3b565b6020870152611cc38360408301611c52565b6040870152611cd58360608301611c5f565b6060870152611ce78360808301611c5f565b6080870152611cf98360a083016111f4565b60a0870152611d0b8360c08301611c6c565b60c087015201611c6c565b60e0830152565b90929192611d2d6111d982611b93565b938185526101006020860192028301928184116103dd57915b838310611d535750505050565b602061010091611d638486611c79565b815201920191611d46565b9080601f830112156103dd5781516103c892602001611d1d565b906020828203126103dd5781516001600160401b0381116103dd576103c89201611d6e565b90611db6825190565b81101561167e576020809102010190565b6103c89051610518565b6103c8905161053e565b9061040490610518565b906104049061053e565b611dfc61124a600d611142565b611e0b61125e6103bc5f611159565b14611fc9575f611e4c91611e2261124a600d611142565b6040519384928391829163eb97e4eb60e01b5b83526001600160a01b031660048301526024820190565b03915afa908115611327575f91611fa7575b50611e6f611e6a825190565b611c18565b90611e795f61139e565b611e846103c8835190565b811015611fa25780611ea56020611e9e611f9d9486611dad565b5101611dc7565b611f81611ec16060611eb78588611dad565b51015161ffff1690565b611f7886611f68611ee6611ee16040611eda8a86611dad565b5101611dd1565b6145b9565b611f58611f0760c0611ef88b87611dad565b5101516001600160401b031690565b91611f4f611f3160a0611f298d611f2360e0611ef8838d611dad565b99611dad565b510151151590565b97611f44611f3d611bb7565b9b8c611ddb565b61ffff1660208b0152565b60408901611de5565b6001600160401b03166060870152565b6001600160401b03166080850152565b151560a0830152565b611f8b8286611dad565b52611f968185611dad565b5060010190565b611e79565b505090565b611fc391503d805f833e611fbb8183611176565b810190611d88565b5f611e5e565b506103c8611e6a5f61139e565b611fe361124a600d611142565b611ff261125e6103bc5f611159565b1480156120c8575b6120c4575f61201091611e2261124a600d611142565b03915afa80156113275761202b915f916120aa575b506145d2565b509050806120385f611456565b61ffff821614611fa2576120769161204e6114ed565b916120598391611475565b11612092575b61206b61207191611475565b846114ca565b61150c565b80821115612087576103c891611526565b50506103c85f61139e565b5061207161206b6120a283611456565b91505061205f565b6120be91503d805f833e611fbb8183611176565b5f612025565b5090565b506120d25f61139e565b8214611ffa565b906103ee916120e6614776565b612115565b90610dfa90610522565b9060ff90611549565b9061210e6103c861156a92151590565b82546120f5565b9061211f5f610518565b61212883610518565b146121405761213b6103ee92600f6120eb565b6120fe565b60405162461bcd60e51b815260206004820152600d60248201526c125b9d985b1a59081cdada5b1b609a1b604482015280606481015b0390fd5b906103ee916120d9565b9291906121a161219d61219833600b610df0565b61136a565b1590565b6121ae576103ee9361222b565b632b35006d60e21b5f908152600490fd5b6006815260209081015b65536b696c6c7360d01b81520190565b60208082526103c891016121bf565b6020810192916103ee919061052b565b6114a16103ee94612221606094989795610bf5608086019a5f8701906001600160a01b03169052565b604083019061052b565b919061223a61124a600d611142565b61224961125e6103bc5f611159565b146122d85761225f61219d61219884600f6120eb565b6122c15761227061124a600d611142565b90813b156103dd575f80946122a161228760405190565b97889687958694630c4e865560e21b8652600486016121f8565b03925af18015611327576122b25750565b6103ee905f611abf8183611176565b635bb4388360e01b5f90815261139a8360046121e8565b60405163125c65b960e21b815280612176600482016121d9565b906103ee939291612184565b6103c890612e73565b61230f6143b3565b61134861231a61442f565b6103ee612327600661136a565b61138b576103ee6103ee6147b1565b6103ee612307565b612346614776565b6103ee6103ee614a76565b6103ee61233e565b919061236c61219d61219833600b610df0565b6121ae576103ee926123fe565b600c815260209081015b6b23b0b6b4b334b1b0ba34b7b760a11b81520190565b60208082526103c89101612379565b6104049061139e565b909594926103ee946123ed6123f7926123e66080966123df60a088019c5f8901906001600160a01b03169052565b6020870152565b6040850152565b60608301906123a8565b01906123a8565b909161240d61124a600e611142565b61241c61125e6103bc5f611159565b146124635761242e61124a600e611142565b803b156103dd57600f935f80946122a1601e61244960405190565b98899788968795630c9ef7b760e11b8752600487016123b1565b60405163125c65b960e21b81528061217660048201612399565b906103ee9291612359565b906103ee91612495614776565b6124b4565b9160206103ee9294936114a160408201965f83019061052b565b6124c161124a600d611142565b6124d061125e6103bc5f611159565b146122d8576124e261124a600d611142565b91823b156103dd576122a1925f92836124fa60405190565b80968195829461250e6395e505d860e01b90565b84526004840161249a565b906103ee91612488565b369037565b906103ee612538611c2884611baa565b601f190160208401612523565b905051906103ee826103cb565b909291926125626111d982611b93565b93818552602080860192028301928184116103dd57915b8383106125865750505050565b602080916125948486612545565b815201920191612579565b9080601f830112156103dd5781516103c892602001612552565b91906060838203126103dd57610bfc9060406125d5606061119c565b946125e083826111f4565b86526125ef8360208301611201565b602087015201611201565b9092919261260a6111d982611b93565b9381855260606020860192028301928184116103dd57915b83831061262f5750505050565b602060609161263e84866125b9565b815201920191612622565b9080601f830112156103dd5781516103c8926020016125fa565b90916060828403126103dd5781516001600160401b0381116103dd578361268b91840161259f565b926020830151906001600160401b0382116103dd57604061122a826103c8948701612649565b9160206103ee9294936123f760408201965f8301906123a8565b9160206103ee929493610c0360408201965f8301906123a8565b6126f261124a600e611142565b61270161125e6103bc5f611159565b146127fd5761271361124a600e611142565b631fc8ee5e5f61272260405190565b809361272e8460e01b90565b82528180612741600186600484016126b1565b03915afa918215611327575f926127e0575b5061275d5f61139e565b82146127cd5761279c915f9161279061277961124a600e611142565b9161278360405190565b9586948593849360e01b90565b835286600484016126cb565b03915afa908115611327575f916127b1575090565b611fa291503d805f833e6127c58183611176565b810190612663565b50506103c86127db5f61139e565b612528565b6127f59192503d805f833e6127c58183611176565b929150612753565b6103c86127db5f61139e565b6103ee90612815614776565b612855565b3d15612833576128293d6111cc565b903d5f602084013e565b606090565b6001600160a01b0390911681526040810192916103ee9160200152565b61285e5f61139e565b81148015612922575b612911576128756002611142565b61288461125e6103bc5f611159565b14612911576128b45f8061289e61124a61124a6002611142565b6040515f9186905af16128af61281a565b501590565b6128ef577f23d6711a1d031134a36921253c75aa59e967d38e369ac625992824315e204f20611a336128e53361070f565b926106af60405190565b61139a5f916128fe6002611142565b63d3cc1fd760e01b845260048401612838565b63e6c4247b60e01b5f908152600490fd5b5061293361292f3061070f565b3190565b8111612867565b6103ee90612809565b61124a90612953928101906103f0565b61296061124a600e611142565b61296f61125e6103bc5f611159565b146124635761297d81612e73565b6129865f61139e565b8114612ada5761299a6103c8836007610df0565b926129a48261157b565b916129b960018601611956856119518361159d565b612a075f6129c64261143d565b960193846129e46129d5611640565b6001600160801b039093168352565b6001600160401b0388166020830181905260408301525b6119c66119b65f61143d565b612a105f61139e565b612a1b6103c8855490565b811015612a415780611add875f612a35612a3c958961165e565b50016116fd565b612a10565b509291509250612a5461124a600e611142565b803b156103dd575f612a6560405190565b630c1cca1760e21b81526001600160a01b0384166004820152918290602490829084905af18015611327577fc16de066392da7e40ceccb739c331fc48a2e76bf147449613c48023d960eec3292611a33926128e592612ac5575b5061070f565b612ad4905f611abf8183611176565b5f612abf565b63afb0be3360e01b5f908152600490fd5b6103c89060a01c610761565b6103c89054612aeb565b6103c85f612af7565b6103ee90612b16614776565b612b226103bc5f611159565b6001600160a01b03821614612911576103ee90612b84565b906001600160a01b0390611549565b90612b596103c861156a9261070f565b8254612b3a565b600c90612383565b6103c890612b60565b60405180612b7e81612b68565b03902090565b612b9161124a600e611142565b90612ba5612b9e8261070f565b600e612b49565b612bbf612bb9612bb3612b71565b9361070f565b9161070f565b917fe5340bb646fa554a3082f7baa2b415eb1874ff7d4c3f118686180386e71f738e612bea60405190565b5f90a4565b6103ee90612b0a565b90612c0a61219d61219833600b610df0565b6121ae576103ee91612c1f61124a600e611142565b612c2e61125e6103bc5f611159565b1461246357612c4061124a600e611142565b91823b156103dd576122a19260025f8094612c5a60405190565b968795869485936375af487760e01b8552600485016117ff565b906103ee91612bf8565b15612c8557565b60405162461bcd60e51b815260206004820152601560248201527f496e76616c6964206465706f73697420696e64657800000000000000000000006044820152606490fd5b6103c89060801c61144a565b6103c89054612cca565b6103c89060c01c61144a565b6103c89054612ce0565b6103c89061144a565b6103c89054612cf6565b612d42915f612d276103c86120c494612d1f5f90565b506007610df0565b01612d3d612d366103c8835490565b8310612c7e565b61165e565b908190612d4e8261159d565b90612d6d6001612d66612d6087612cd6565b96612cec565b9401612cff565b9193929190565b6103c86103c86103c8926001600160801b031690565b90612d996103c8836007610df0565b9160018301916103c8612dd0612dca612dc45f612dbe612db88961159d565b97612e73565b98015490565b95612cd6565b93612d74565b949392611829565b6007815260209081015b665265776172647360c81b81520190565b60208082526103c89101612dd8565b90916060828403126103dd576103c8612e1b8484611c5f565b936040612e2b8260208701611c5f565b9401611c5f565b906020828203126103dd576103c891611201565b909594926103ee94612e696114a1926123e66080966123df60a088019c5f890152565b60ff166060830152565b905f91612e8361124a600c611142565b90612e8d5f611159565b91612ea06001600160a01b03841661125e565b1461308f575f612eb46103c8836007610df0565b0190612ebe825490565b612eca6115125f61139e565b1461308157612ed85f611456565b92612ef961125e612eec61124a600d611142565b926001600160a01b031690565b0361300b575b50612f095f61139e565b935b612f166103c8835490565b85101561300557612f2a6120c4868461165e565b6020612f40612f3b60018401612cff565b614a7e565b915f612f4f61124a600c611142565b910190612f63612f5e8361159d565b612d74565b91612f81612f76612f7b612f7684612cd6565b611829565b92612cec565b92612fa989612f8f60405190565b97889687958695630e41265d60e41b875260048701612e46565b03915afa801561132757612fcf92612fc8925f92612fd5575b5061156e565b9460010190565b93612f0b565b612ff791925060203d8111612ffe575b612fef8183611176565b810190612e32565b905f612fc2565b503d612fe5565b93505050565b61303891925060609061302161124a600d611142565b60405193849283918291630166b5c560e61b611e35565b03915afa908115611327575f91613052575b50905f612eff565b613074915060603d60601161307a575b61306c8183611176565b810190612e02565b5061304a565b503d613062565b50505090506103c85f61139e565b60405163125c65b960e21b81528061217660048201612df3565b6103ee906130b5614776565b6130c16103bc5f611159565b6001600160a01b03821614612911576103ee906130f7565b600790612de2565b6103c8906130d9565b60405180612b7e816130e1565b61310461124a600c611142565b906131186131118261070f565b600c612b49565b612bbf612bb9612bb36130ea565b6103ee906130a9565b6103c86131459161313e606090565b505f612d1f565b60016131536127db5f61139e565b91019161316b613165612f5e8561159d565b93612cd6565b91929190565b61292f3061070f565b613182614776565b6103ee6103ee6131915f611159565b614b3a565b6103ee61317a565b6131a6614776565b6103ee6103ee614bbe565b6103ee61319e565b906103ee916131c6614776565b6131d26103bc5f611159565b6001600160a01b0382161461291157611a336132188261124a8561213b7f51922599c85464cb24125d27a1c803d6110329ff39eb424c444158c91a5b633596600b610df0565b9261079c60405190565b906103ee916131b9565b6132346143b3565b61134861323f61442f565b6103ee61324c600661136a565b61138b576103ee61332e565b61326a906001600160401b031661161e565b01906001600160401b0382116114e857565b6103c89060026114ca565b905f036117bb575f808255600190910155565b8181106132a5575050565b806132b25f600293613287565b0161329a565b9190918282106132c757505050565b6132e96132df6132d96103ee9561327c565b9361327c565b915f5260205f2090565b918201910161329a565b90600160401b8111611197578161330b6103ee935490565b908281556132b8565b5f6103ee916132f3565b905f036117bb576103ee90613314565b61333c6103c8336007610df0565b90600182019061334b8261159d565b6133576115b55f61157b565b14613514576133655f61139e565b835484908210156133e9576120c48261337d9261165e565b6001810161338a81612cff565b61339661161e5f61143d565b1191826133bd575b50506133ac57600101613365565b633b20f1c360e21b5f908152600490fd5b6133e09250906133da6133d45f612f769401612cd6565b91612cff565b90613258565b42105f8061339e565b505091906133f633612e73565b9061341f6118e361340d84611928612f5e8661159d565b936134196118d86114ab565b906114ca565b9061342a8284611526565b936134343061070f565b316134456115126103c8868961156e565b10613503576134ae9361347f5f8061192d9461347961348e9761346a6117608561157b565b6134734261143d565b906116c2565b0161331e565b613489600461153a565b611526565b613498600561153a565b6134a46115125f61139e565b116134ed57614442565b6134c0816134bb3361070f565b614c84565b7fd7a4aa9f3dca5f6606ac15d7e1850920201bbb02c38cd986793779f58ae0dfd3611a336128e53361070f565b6119cb611ae36134fd600561153a565b5f190190565b631e9acf1760e31b5f908152600490fd5b636f16c5e960e11b5f908152600490fd5b6103ee61322c565b9061353f61219d61219833600b610df0565b6121ae576103ee9161355461124a600d611142565b61356361125e6103bc5f611159565b146122d85761357561124a600d611142565b91823b156103dd576122a1925f928361358d60405190565b8096819582946135a1638925781760e01b90565b845260048401612838565b906103ee9161352d565b91906135c961219d61219833600b610df0565b6121ae576103ee926135ff565b6123f76103ee94610bfc606094989795610bf5608086019a5f8701906001600160a01b03169052565b909161360e61124a600e611142565b61361d61125e6103bc5f611159565b146124635761362f61124a600e611142565b803b156103dd57601e935f80946122a161364860405190565b97889687958694630ac9679360e41b8652600486016135d6565b906103ee92916135b6565b6103c85f611142565b6121986103c8916136845f90565b50600f6120eb565b6136a26103c89161369a5f90565b50600a610df0565b61153a565b6103ee906136b3614776565b6136bf6103bc5f611159565b6001600160a01b03821614612911576103ee906136ed612bb96136e26002611142565b61124a846002612b49565b907f4ab5be82436d353e61ca18726e984e561f5c1cc7c6d38b29d2553c790434705a61371860405190565b5f90a3565b6103ee906136a7565b906060828203126103dd576103c8916125b9565b61374761124a600e611142565b6137505f611159565b906137636001600160a01b03831661125e565b1415806137c5575b6137be5761378261125e612eec61124a600d611142565b146137b9575f61379991611e2261124a600d611142565b03915afa8015611327576137b3915f916120aa57506145d2565b91505090565b505f90565b5050600190565b506137d361124a600e611142565b60606137de60405190565b6306655b9760e21b81526001600160a01b038516600482015291829060249082905afa9081156113275761381d915f918291613822575b500151151590565b61376b565b613844915060603d60601161384a575b61383c8183611176565b810190613726565b5f613815565b503d613832565b6103ee9061385d614776565b6138696103bc5f611159565b6001600160a01b03821614612911578061124a600161213b61388c94600b610df0565b7f51922599c85464cb24125d27a1c803d6110329ff39eb424c444158c91a5b63356138b660405190565b600181528060208101611a33565b6103ee90613851565b6138da61124a600d611142565b6138e961125e6103bc5f611159565b146120c45760606139019161302161124a600d611142565b03915afa908115611327575f91613951575b5061391d5f611456565b61ffff8216146120c4579061394b61394061393a6103c894611475565b836114ca565b6118eb61271061139e565b9061156e565b61396a915060603d60601161307a5761306c8183611176565b50613913565b6103c860e061119c565b613982613970565b9060608252602080808080808088015f8152015f611bd8565b6103c861397a565b6103c860056117e9565b909291926139bd6111d982611b93565b93818552602080860192028301928184116103dd57915b8383106139e15750505050565b602080916139ef8486611201565b8152019201916139d4565b9080601f830112156103dd5781516103c8926020016139ad565b60ff81166103d6565b905051906103ee82613a14565b919091610120818403126103dd57613a4361012061119c565b815190936001600160401b0382116103dd57613a6481613aef9385016139fa565b8552613a738160208501611c5f565b6020860152613a858160408501611c5f565b6040860152613a978160608501611c5f565b6060860152613aa98160808501611c5f565b6080860152613abb8160a085016111f4565b60a0860152613acd8160c08501611c5f565b60c0860152613adf8160e08501611c5f565b60e0860152610100809301613a1d565b90830152565b906020828203126103dd5781516001600160401b0381116103dd576103c89201613a2a565b90916060828403126103dd576103c8613b338484611201565b93604061122a8260208701611c5f565b90613b4c61399b565b8092613b63613b596139a3565b60ff166060840152565b613b6f6127db5f61139e565b8252815f92613b8161124a600d611142565b90613b8b5f611159565b91613b9e6001600160a01b03841661125e565b03613cdd575b50613bb861125e612eec61124a600e611142565b03613bee575b60c091500190613bd161219d8351151590565b9081613be6575b50613be05750565b60019052565b90505f613bd8565b613bfb61124a600e611142565b916060613c0760405190565b6326a13d5360e21b81526001600160a01b038316600482015293849060249082905afa90811561132757613c56606092613c7a955f905f92613caa575b5060208601525b61ffff166040850152565b613c6361124a600e611142565b604051948592839182916306655b9760e21b611e35565b03915afa8015611327575f613c9a9160c094829161382257500151151590565b15613bbe57600181830152613bbe565b613c4b9250613ccf9150853d8711613cd6575b613cc78183611176565b810190613b1a565b5091613c44565b503d613cbd565b909350613ced61124a600d611142565b905f613cf860405190565b635f9bddb560e11b81526001600160a01b038616600482015292839060249082905afa91821561132757613d4d92613d42926020925f92613db8575b5081519052015161ffff1690565b61ffff166080830152565b613d5a61124a600d611142565b925f613d6560405190565b63eb97e4eb60e01b81526001600160a01b038516600482015294859060249082905afa93841561132757613db294613da3915f916120aa57506145d2565b61ffff90921660a08501525093565b5f613ba4565b613dd59192503d805f833e613dcd8183611176565b810190613af5565b905f613d34565b906020828203126103dd576103c891611c5f565b613dfd61124a600d611142565b613e0c61125e6103bc5f611159565b14613e7f576020613e4191613e2461124a600d611142565b60405193849283918291634411ac5f60e01b8352600483016121e8565b03915afa908115611327575f91613e56575090565b6103c8915060203d602011613e78575b613e708183611176565b810190613ddc565b503d613e66565b506103c85f611456565b613e9661124a600d611142565b613ea561125e6103bc5f611159565b148015613ee9575b6120c4575f613ec391611e2261124a600d611142565b03915afa801561132757613edd915f916120aa57506145d2565b5050806120385f611456565b50613ef35f61139e565b8214613ead565b6103ee90613f06614776565b613f126103bc5f611159565b6001600160a01b03821614612911576103ee90613f48565b6006906121c9565b6103c890613f2a565b60405180612b7e81613f32565b613f5561124a600d611142565b90613f69613f628261070f565b600d612b49565b612bbf612bb9612bb3613f3b565b6103ee90613efa565b91906040838203126103dd576103c8906020612e2b8286611c52565b613fa961124a600d611142565b613fb861125e6103bc5f611159565b146137b9576040613ff091613fd061124a600d611142565b604051938492839182916239f9d560ea1b83526004830190815260200190565b03915afa8015611327576103c8915f9161400b575b506145b9565b61402d915060403d604011614032575b6140258183611176565b810190613f80565b614005565b503d61401b565b6103ee90614045614776565b6140a5565b1561405157565b60405162461bcd60e51b815260206004820152602660248201527f4f776e61626c653a206e6577206f776e657220697320746865207a65726f206160448201526564647265737360d01b6064820152608490fd5b6103ee906131916140b86103bc5f611159565b6001600160a01b038316141561404a565b6103ee90614039565b60405162461bcd60e51b815260206004820152600e60248201526d4e6f74206170706c696361626c6560901b6044820152606490fd5b6141106143b3565b61134861411b61442f565b6103ee614128600661136a565b61138b576103ee61413d6103c8336007610df0565b9061414733612e73565b906141515f61139e565b8214612ada576141608261157b565b9061417560018501611956846119518361159d565b6141ac5f6141824261143d565b950192836141916129d5611640565b6001600160401b0387166020830181905260408301526129fb565b6141b55f61139e565b6141c06103c8845490565b8110156141df5780611add865f612a356141da958861165e565b6141b5565b509250506141f061124a600e611142565b6141ff61125e6103bc5f611159565b03614232575b7fc16de066392da7e40ceccb739c331fc48a2e76bf147449613c48023d960eec32611a336128e53361070f565b61423f61124a600e611142565b803b156103dd575f61425060405190565b9182906375af487760e01b825281838161427088600133600485016117ff565b03925af1801561132757614285575b50614205565b614294905f611abf8183611176565b5f61427f565b6103ee614108565b6103ee906142ae614776565b6142ba6103bc5f611159565b6001600160a01b03821614612911576103ee906142e49061124a6142dd8261070f565b6003612b49565b7fd16d2cf254200e4dc6dc82512e9d11673e06a798c40b90cef7583729b4f7a8d461430e60405190565b8080611a33565b6103ee906142a2565b6143273361070f565b7fe37b2ae9cc03ec700b9146c4df2fc797e7a1119c08fc25513755ab5315faa6d261435160405190565b80611a334234836113bc565b6103c8600261139e565b1561436e57565b60405162461bcd60e51b815260206004820152601f60248201527f5265656e7472616e637947756172643a207265656e7472616e742063616c6c006044820152606490fd5b6103ee6143c0600161153a565b6143d46143cb61435d565b91821415614367565b6001611553565b6103c8600161139e565b6103ee6143d46143db565b156143f757565b60405162461bcd60e51b815260206004820152601060248201526f14185d5cd8589b194e881c185d5cd95960821b6044820152606490fd5b6103ee61443d61219d612b01565b6143f0565b61444f61124a6003611142565b6144585f611159565b9061446b6001600160a01b03831661125e565b036144e5575b61448161125e612eec6002611142565b146129115761449b5f8061289e61124a61124a6002611142565b6128ef577fe37b2ae9cc03ec700b9146c4df2fc797e7a1119c08fc25513755ab5315faa6d2611a336144d061124a6002611142565b926144da60405190565b9182914290836113bc565b6144f261124a6003611142565b63ee700cc890803b156103dd57614517915f9161450e60405190565b93849260e01b90565b825260206004830152601260248301527139ba30b5b4b733afb1b7b6b6b4b9b9b4b7b760711b6044830152606490829087905af1908161458f575b50155f0361447157507fe37b2ae9cc03ec700b9146c4df2fc797e7a1119c08fc25513755ab5315faa6d2611a336144d061124a61124a6003611142565b61459e905f611abf8183611176565b5f614552565b6145b46103c86103c89260ff1690565b61053e565b6145cd6103c8916145c75f90565b50610548565b6145a4565b905f9182806145e05f61139e565b6145eb6103c8855190565b8110156146df5761460461219d60a0611f298488611dad565b61466f576146176020611e9e8387611dad565b6146266060611eb78488611dad565b6146306006610518565b61463983610518565b1480156146c5575b6146b1575b6146506005610518565b61465983610518565b1461469c575b5082159081614680575b50614677575b6001016145e0565b6001915061466f565b905061469561468f6004610518565b91610518565b145f614669565b9361394b6146aa9295611475565b925f61465f565b966146bf9061394b89611475565b96614646565b506146d06007610518565b6146d983610518565b14614641565b509150926146ee61ffff611475565b80821161471e575b808511614714575b5061470b61471191611456565b93611456565b91565b935061470b6146fe565b9050806146f6565b1561472d57565b60405162461bcd60e51b815280612176600482016020808252818101527f4f776e61626c653a2063616c6c6572206973206e6f7420746865206f776e6572604082015260600190565b6103ee61478161366d565b61478d61125e336103bc565b14614726565b6103c86201518061139e565b6103c8686c6b935b8bbd40000061139e565b6147bf6103c8336007610df0565b906147c8614793565b6147d2814261150c565b6147e66115126103c86136a2336009610df0565b116149c2575b506147f633612e73565b916148005f61139e565b8314612ada576008614819846119286136a23385610df0565b61482161479f565b908110614990575061483761484a913390610df0565b614844856119288361153a565b90611553565b6148535f61139e565b815482908210156148ba576120c48261486b9261165e565b6001810161487881612cff565b61488461161e5f61143d565b11918261489a575b50506133ac57600101614853565b6148b19250906133da6133d45f612f769401612cd6565b42105f8061488c565b505091906148df6148d86118e36148d26118d86114ab565b856114ca565b8093611526565b916148e93061070f565b316148fa6115126103c8848761156e565b10613503576149084261143d565b916149125f61139e565b855486908210156149355790611add855f612a35846149309661165e565b614912565b50509361495692600161494892016116c2565b6119cb61483733600a610df0565b614963816134bb3361070f565b7f7084f5476618d8e60b11ef0d7d3f06914655adb8793e28ff7f018d4c76d505d5611a336128e53361070f565b6149ac61139a916149a66136a25f953390610df0565b90611526565b631aefe80360e21b835260048301526024820190565b6149f6612f766149f1614a01936149eb6149db5f61139e565b6149e6336008610df0565b611553565b4261150c565b61143d565b6149e6336009610df0565b5f6147ec565b614a0f614d0f565b6103ee614a3d565b9060ff60a01b9060a01b611549565b90614a366103c861156a92151590565b8254614a17565b614a475f80614a26565b7f5db9ee0a495bf2e6ff9c91a7834c1ba4fdd244a5e8aa4e537bd38aeae4b073aa614a7133610bbd565b0390a1565b6103ee614a07565b614a875f61143d565b6001600160401b03821614614b3057614aa262278d0061143d565b6001600160401b03821614614b2557614abd6276a70061143d565b6001600160401b03821614614b1a57614ad862ed4e0061143d565b6001600160401b03821614614b0f57614af761161e6301e1338061143d565b14614b05576103c85f6117e9565b6103c860046117e9565b506103c860036117e9565b506103c860026117e9565b506103c860016117e9565b506103c85f6117e9565b614b53612bb9614b495f611142565b61124a845f612b49565b907f8be0079c531659141344cd1fd0a4f28419497f9722a3daafe3b4186f6b6457e061371860405190565b614b8661442f565b6103ee614b9460015f614a26565b7f62e78cea01bee320cd4e420270b5ea74000d11b0c9f74754ebdbfc544b05a258614a7133610bbd565b6103ee614b7e565b15614bcd57565b60405162461bcd60e51b815260206004820152601d60248201527f416464726573733a20696e73756666696369656e742062616c616e63650000006044820152606490fd5b15614c1957565b60405162461bcd60e51b815260206004820152603a60248201527f416464726573733a20756e61626c6520746f2073656e642076616c75652c207260448201527f6563697069656e74206d617920686176652072657665727465640000000000006064820152608490fd5b5f6103ee92614ca4829361124a614c9a3061070f565b8490311015614bc6565b90614cae60405190565b90818003925af1614cbd61281a565b50614c12565b15614cca57565b60405162461bcd60e51b815260206004820152601460248201527f5061757361626c653a206e6f74207061757365640000000000000000000000006044820152606490fd5b6103ee614d1a612b01565b614cc356fea264697066735822122068ea809d8ba296f9c1108e3853d19adee1c2ae9ade7e8590527c9af34ee9009964736f6c634300081c0033",
  "linkReferences": {},
  "deployedLinkReferences": {}
}