{
  "_format": "hh-sol-artifact-1",
  "contractName": "EnhancedSmartStakingRewards",
  "sourceName": "contracts/SmartStaking/EnhancedSmartStakingRewards.sol",
  "abi": [
    {
      "inputs": [],
      "stateMutability": "nonpayable",
      "type": "constructor"
    },
    {
      "anonymous": false,
      "inputs": [
        {
          "indexed": true,
          "internalType": "uint8",
          "name": "lockupIndex",
          "type": "uint8"
        },
        {
          "indexed": false,
          "internalType": "uint256",
          "name": "newAPY",
          "type": "uint256"
        }
      ],
      "name": "APYUpdated",
      "type": "event"
    },
    {
      "anonymous": false,
      "inputs": [
        {
          "indexed": true,
          "internalType": "address",
          "name": "admin",
          "type": "address"
        },
        {
          "indexed": false,
          "internalType": "uint256",
          "name": "amount",
          "type": "uint256"
        }
      ],
      "name": "EmergencyWithdrawal",
      "type": "event"
    },
    {
      "anonymous": false,
      "inputs": [
        {
          "indexed": true,
          "internalType": "address",
          "name": "previousOwner",
          "type": "address"
        },
        {
          "indexed": true,
          "internalType": "address",
          "name": "newOwner",
          "type": "address"
        }
      ],
      "name": "OwnershipTransferred",
      "type": "event"
    },
    {
      "anonymous": false,
      "inputs": [
        {
          "indexed": true,
          "internalType": "address",
          "name": "user",
          "type": "address"
        },
        {
          "indexed": true,
          "internalType": "uint256",
          "name": "questId",
          "type": "uint256"
        },
        {
          "indexed": false,
          "internalType": "uint256",
          "name": "amount",
          "type": "uint256"
        },
        {
          "indexed": false,
          "internalType": "uint256",
          "name": "boostApplied",
          "type": "uint256"
        }
      ],
      "name": "QuestRewardClaimed",
      "type": "event"
    },
    {
      "anonymous": false,
      "inputs": [
        {
          "indexed": true,
          "internalType": "address",
          "name": "funder",
          "type": "address"
        },
        {
          "indexed": false,
          "internalType": "uint256",
          "name": "amount",
          "type": "uint256"
        }
      ],
      "name": "RewardFunded",
      "type": "event"
    },
    {
      "inputs": [
        {
          "internalType": "uint8",
          "name": "lockupIndex",
          "type": "uint8"
        },
        {
          "internalType": "uint16",
          "name": "stakingBoostTotal",
          "type": "uint16"
        }
      ],
      "name": "calculateBoostedAPY",
      "outputs": [
        {
          "internalType": "uint256",
          "name": "",
          "type": "uint256"
        }
      ],
      "stateMutability": "view",
      "type": "function"
    },
    {
      "inputs": [
        {
          "internalType": "address",
          "name": "user",
          "type": "address"
        },
        {
          "internalType": "uint256",
          "name": "baseReward",
          "type": "uint256"
        }
      ],
      "name": "calculateQuestReward",
      "outputs": [
        {
          "internalType": "uint256",
          "name": "finalReward",
          "type": "uint256"
        }
      ],
      "stateMutability": "view",
      "type": "function"
    },
    {
      "inputs": [
        {
          "internalType": "uint256",
          "name": "depositAmount",
          "type": "uint256"
        },
        {
          "internalType": "uint256",
          "name": "",
          "type": "uint256"
        },
        {
          "internalType": "uint256",
          "name": "lastClaimTime",
          "type": "uint256"
        },
        {
          "internalType": "uint8",
          "name": "lockupPeriodIndex",
          "type": "uint8"
        },
        {
          "internalType": "uint16",
          "name": "stakingBoostTotal",
          "type": "uint16"
        }
      ],
      "name": "calculateStakingRewards",
      "outputs": [
        {
          "internalType": "uint256",
          "name": "rewards",
          "type": "uint256"
        }
      ],
      "stateMutability": "view",
      "type": "function"
    },
    {
      "inputs": [
        {
          "internalType": "uint256",
          "name": "questId",
          "type": "uint256"
        }
      ],
      "name": "claimQuestReward",
      "outputs": [],
      "stateMutability": "nonpayable",
      "type": "function"
    },
    {
      "inputs": [
        {
          "internalType": "uint256",
          "name": "amount",
          "type": "uint256"
        }
      ],
      "name": "emergencyWithdraw",
      "outputs": [],
      "stateMutability": "nonpayable",
      "type": "function"
    },
    {
      "inputs": [],
      "name": "gamificationModule",
      "outputs": [
        {
          "internalType": "contract IEnhancedSmartStakingGamification",
          "name": "",
          "type": "address"
        }
      ],
      "stateMutability": "view",
      "type": "function"
    },
    {
      "inputs": [
        {
          "internalType": "uint8",
          "name": "index",
          "type": "uint8"
        }
      ],
      "name": "getBaseAPY",
      "outputs": [
        {
          "internalType": "uint256",
          "name": "",
          "type": "uint256"
        }
      ],
      "stateMutability": "view",
      "type": "function"
    },
    {
      "inputs": [],
      "name": "getLockupPeriodsConfig",
      "outputs": [
        {
          "internalType": "uint256[]",
          "name": "periods",
          "type": "uint256[]"
        },
        {
          "internalType": "uint256[]",
          "name": "apys",
          "type": "uint256[]"
        }
      ],
      "stateMutability": "view",
      "type": "function"
    },
    {
      "inputs": [],
      "name": "owner",
      "outputs": [
        {
          "internalType": "address",
          "name": "",
          "type": "address"
        }
      ],
      "stateMutability": "view",
      "type": "function"
    },
    {
      "inputs": [],
      "name": "renounceOwnership",
      "outputs": [],
      "stateMutability": "nonpayable",
      "type": "function"
    },
    {
      "inputs": [
        {
          "internalType": "address",
          "name": "_gamificationModule",
          "type": "address"
        }
      ],
      "name": "setGamificationModule",
      "outputs": [],
      "stateMutability": "nonpayable",
      "type": "function"
    },
    {
      "inputs": [
        {
          "internalType": "address",
          "name": "_skillsModule",
          "type": "address"
        }
      ],
      "name": "setSkillsModule",
      "outputs": [],
      "stateMutability": "nonpayable",
      "type": "function"
    },
    {
      "inputs": [
        {
          "internalType": "address",
          "name": "_treasuryManager",
          "type": "address"
        }
      ],
      "name": "setTreasuryManager",
      "outputs": [],
      "stateMutability": "nonpayable",
      "type": "function"
    },
    {
      "inputs": [],
      "name": "skillsModule",
      "outputs": [
        {
          "internalType": "contract IEnhancedSmartStakingSkills",
          "name": "",
          "type": "address"
        }
      ],
      "stateMutability": "view",
      "type": "function"
    },
    {
      "inputs": [
        {
          "internalType": "address",
          "name": "newOwner",
          "type": "address"
        }
      ],
      "name": "transferOwnership",
      "outputs": [],
      "stateMutability": "nonpayable",
      "type": "function"
    },
    {
      "inputs": [],
      "name": "treasuryManager",
      "outputs": [
        {
          "internalType": "contract ITreasuryManager",
          "name": "",
          "type": "address"
        }
      ],
      "stateMutability": "view",
      "type": "function"
    },
    {
      "inputs": [
        {
          "internalType": "uint8",
          "name": "lockupPeriodIndex",
          "type": "uint8"
        },
        {
          "internalType": "uint256",
          "name": "newAPY",
          "type": "uint256"
        }
      ],
      "name": "updateBaseAPY",
      "outputs": [],
      "stateMutability": "nonpayable",
      "type": "function"
    },
    {
      "stateMutability": "payable",
      "type": "receive"
    }
  ],
  "bytecode": "0x60806040523461002257610011610238565b604051611551610479823961155190f35b5f80fd5b634e487b7160e01b5f52604160045260245ffd5b90601f01601f191681019081106001600160401b0382111761005b57604052565b610026565b9061007461006d60405190565b928361003a565b565b6001600160401b03811161005b5760200290565b61009661009b91610076565b610060565b90565b6100ab61009b61009b9290565b63ffffffff1690565b915f1960089290920291821b911b5b9181191691161790565b61009b61009b61009b9290565b91906100eb61009b6100f3936100cd565b9083546100b4565b9055565b610074915f916100da565b81811061010d575050565b8061011a5f6001936100f7565b01610102565b91909182821061012f57505050565b610074929161014290915f5260205f2090565b9182019101610102565b9068010000000000000000811161005b5781610169610074935490565b90828155610120565b60059161019261018860019261009b868661014c565b925f5260205f2090565b9204915f5b8381106101a45750505050565b60019060206101ba61009b865163ffffffff1690565b9401938184015501610197565b9061007491610172565b6101de61009b61009b9290565b61ffff1690565b6005916101fb61018860019261009b868661014c565b9204915f5b83811061020d5750505050565b600190602061022161009b865161ffff1690565b9401938184015501610200565b90610074916101e5565b610240610368565b6102db61024d600561008a565b6102636102595f61009e565b63ffffffff168252565b61027f61027262278d0061009e565b63ffffffff166020830152565b61029b61028e6276a70061009e565b63ffffffff166040830152565b6102b76102aa62ed4e0061009e565b63ffffffff166060830152565b6102d46102c76301e1338061009e565b63ffffffff166080830152565b60056101c7565b6100746102e8600561008a565b6102fd6102f560c56101d1565b61ffff168252565b61031661030b6101486101d1565b61ffff166020830152565b61032f61032461024f6101d1565b61ffff166040830152565b61034861033d6103146101d1565b61ffff166060830152565b61036161035661049f6101d1565b61ffff166080830152565b600661022e565b61007461039a565b61009b60016100cd565b905f19906100c3565b9061039361009b6100f3926100cd565b825461037a565b6103a26103b4565b6100746103ad610370565b6001610383565b61007433610424565b61009b905b6001600160a01b031690565b61009b90546103bd565b906001600160a01b03906100c3565b61009b906103c2906001600160a01b031682565b61009b906103e7565b61009b906103fb565b9061041d61009b6100f392610404565b82546103d8565b6104486104426104335f6103ce565b61043d845f61040d565b610404565b91610404565b907f8be0079c531659141344cd1fd0a4f28419497f9722a3daafe3b4186f6b6457e061047360405190565b5f90a356fe60806040526004361015610022575b3615610018575f80fd5b61002061136a565b005b5f3560e01c80633cea70d9146101315780635312ea8e1461012c578063593510de146101275780635cb60986146101225780636ec504371461011d578063715018a61461011857806375af38f21461011357806375b9ea1d1461010e5780638da5cb5b14610109578063ad29370914610104578063c6b094b0146100ff578063dde82651146100fa578063e41265d0146100f5578063ef6c4acf146100f0578063f2fde38b146100eb578063fb39242d146100e65763fe47a9f20361000e57610585565b610569565b610535565b61051d565b6104fe565b61049e565b61045d565b610408565b6103d6565b6103a5565b61038a565b610367565b610339565b6102a7565b610264565b61020e565b6101b9565b5f91031261014057565b5f80fd5b610159916008021c5b6001600160a01b031690565b90565b906101599154610144565b6101595f600461015c565b61014d610159610159926001600160a01b031690565b61015990610172565b61015990610188565b6101a390610191565b9052565b6020810192916101b7919061019a565b565b34610140576101c9366004610136565b6101e06101d4610167565b604051918291826101a7565b0390f35b805b0361014057565b905035906101b7826101e4565b9060208282031261014057610159916101ed565b34610140576102266102213660046101fa565b610697565b604051005b60ff81166101e6565b905035906101b78261022b565b91906040838203126101405761015990602061025d8286610234565b94016101ed565b3461014057610226610277366004610241565b90610850565b6101e68161014d565b905035906101b78261027d565b906020828203126101405761015991610286565b34610140576102266102ba366004610293565b610917565b906102df6102d86102ce845190565b8084529260200190565b9260200190565b905f5b8181106102ef5750505090565b90919261030c6103056001928651815260200190565b9460200190565b9291016102e2565b604080825261015993919261032b918401906102bf565b9160208184039101526102bf565b3461014057610349366004610136565b6103516109f5565b906101e061035e60405190565b92839283610314565b3461014057610377366004610136565b610226610a26565b6101595f600361015c565b346101405761039a366004610136565b6101e06101d461037f565b34610140576102266103b83660046101fa565b611010565b6101a39061014d565b6020810192916101b791906103bd565b34610140576103e6366004610136565b6101e06103f1611019565b604051918291826103c6565b6101595f600261015c565b3461014057610418366004610136565b6101e06101d46103fd565b61ffff81166101e6565b905035906101b782610423565b9190604083820312610140576101599060206104568286610234565b940161042d565b34610140576101e061047961047336600461043a565b90611056565b6040515b9182918290815260200190565b906020828203126101405761015991610234565b34610140576101e06104796104b436600461048a565b6110a3565b919060a083820312610140576104cf81846101ed565b926104dd82602083016101ed565b926101596104ee84604085016101ed565b9360806104568260608701610234565b34610140576101e06104796105143660046104b9565b939290926110d6565b3461014057610226610530366004610293565b611187565b3461014057610226610548366004610293565b61121f565b91906040838203126101405761015990602061025d8286610286565b34610140576101e061047961057f36600461054d565b90611279565b3461014057610226610598366004610293565b611361565b6101b7906105a96113fa565b61060a565b156105b557565b60405162461bcd60e51b815260206004820152601460248201527f496e73756666696369656e742062616c616e6365000000000000000000000000604482015280606481015b0390fd5b6040513d5f823e3d90fd5b61062561061d61061930610191565b3190565b8211156105ae565b5f8080808461063d610638610638611019565b610191565b82821561068e575bf115610689577f23d6711a1d031134a36921253c75aa59e967d38e369ac625992824315e204f2061068461067a610638611019565b9261047d60405190565b0390a2565b6105ff565b506108fc610645565b6101b79061059d565b906101b7916106ad6113fa565b6107da565b6101596101596101599260ff1690565b156106c957565b60405162461bcd60e51b815260206004820152601560248201527f496e76616c6964206c6f636b757020706572696f6400000000000000000000006044820152606490fd5b6101596101596101599290565b1561072257565b60405162461bcd60e51b815260206004820152600b60248201526a496e76616c69642041505960a81b6044820152606490fd5b634e487b7160e01b5f52603260045260245ffd5b8054821015610789576107816001915f5260205f2090565b910201905f90565b610755565b915f1960089290920291821b911b5b9181191691161790565b91906107b86101596107c09361070e565b90835461078e565b9055565b6107d46101596101599260ff1690565b60ff1690565b61068461067a7f47e648479186dea95868988c8f4a63c72201970c2ebc30e5ab82810e3e3f51249261082061081161015960065490565b61081a836106b2565b106106c2565b61083661082e61271061070e565b86111561071b565b61084b85610845836006610769565b906107a7565b6107c4565b906101b7916106a0565b6101b7906108666113fa565b6108e5565b61014d6101596101599290565b6101599061086b565b1561088857565b60405162461bcd60e51b815260206004820152600f60248201526e496e76616c6964206164647265737360881b6044820152606490fd5b906001600160a01b039061079d565b906108de6101596107c092610191565b82546108bf565b6109106101b7916106386109006108fb5f610878565b61014d565b6109098361014d565b1415610881565b60036108ce565b6101b79061085a565b6101599081565b6101599054610920565b9061094a6109406102ce845490565b925f5260205f2090565b905f5b81811061095a5750505090565b90919261097e61097760019261096f87610927565b815260200190565b9460010190565b92910161094d565b9061015991610931565b634e487b7160e01b5f52604160045260245ffd5b90601f01601f1916810190811067ffffffffffffffff8211176109c657604052565b610990565b906101b76109e5926109dc60405190565b93848092610986565b03836109a4565b610159906109cb565b6109ff60056109ec565b9061015960066109ec565b610a126113fa565b6101b76101b7610a215f610878565b611417565b6101b7610a0a565b610a3f90610a3a6114de565b610d4a565b6101b7611510565b6101599061014d565b6101599054610a47565b15610a6157565b60405162461bcd60e51b815260206004820152601460248201527f47616d696669636174696f6e206e6f74207365740000000000000000000000006044820152606490fd5b906101b7610ab360405190565b92836109a4565b905051906101b7826101e4565b8015156101e6565b905051906101b782610ac7565b919060608382031261014057610b1d906040610af86060610aa6565b94610b038382610aba565b8652610b128360208301610aba565b602087015201610acf565b6040830152565b906060828203126101405761015991610adc565b9160206101b7929493610b5260408201965f8301906103bd565b0152565b15610b5d57565b60405162461bcd60e51b815260206004820152600f60248201526e139bc81c995dd85c9908199bdd5b99608a1b6044820152606490fd5b15610b9b57565b60405162461bcd60e51b815260206004820152601660248201527f52657761726420616c726561647920636c61696d6564000000000000000000006044820152606490fd5b15610be757565b60405162461bcd60e51b815260206004820152600e60248201526d14995dd85c9908195e1c1a5c995960921b6044820152606490fd5b61015960c861070e565b634e487b7160e01b5f52601160045260245ffd5b81810292918115918404141715610c4e57565b610c27565b61015961271061070e565b634e487b7160e01b5f52601260045260245ffd5b90610c7c565b9190565b908115610c87570490565b610c5e565b91908203918211610c4e57565b67ffffffffffffffff81116109c657602090601f01601f19160190565b90610cc8610cc383610c99565b610aa6565b918252565b3d15610ce657610cdc3d610cb6565b903d5f602084013e565b606090565b15610cf257565b60405162461bcd60e51b815260206004820152601960248201527f496e73756666696369656e74207265776172642066756e6473000000000000006044820152606490fd5b9081526040810192916101b79160200152565b610d576106386003610a50565b90610d7e610d645f610878565b92610d77610d718561014d565b9161014d565b1415610a5a565b610d8b6106386003610a50565b6060610d9660405190565b91829063ef4857d760e01b82528180610db3873360048401610b38565b03915afa908115610689575f91610fe1575b50610e18610e10610159602084610def610ddd825190565b610de9610c785f61070e565b11610b56565b610e0b610e06610e026040840151151590565b1590565b610b94565b015190565b421115610be0565b610e29610e23825190565b33611279565b610e4b610e3d610e37610c1d565b83610c3b565b610e45610c53565b90610c72565b610e558183610c8c565b94610e636106386003610a50565b803b15610140575f610e7460405190565b91829063c2dd541960e01b8252818381610e928c3360048401610b38565b03925af1801561068957610fc4575b50610ebb610d71610eb56106386004610a50565b9261014d565b141580610fb3575b15610fab575f80610eff92610ee16106386106386106386004610a50565b90610eeb60405190565b90818003925af1610efa610ccd565b501590565b610fa3575b505b610f1c610f1230610191565b8490311015610ceb565b5f80808086610f2d61063833610191565b828215610f9a575bf11561068957610f6d610f677fc71283499d072556bd9c2a6e2804e030b6490f819431c47fb84484ca6ce59b91925190565b84610c8c565b610f7f610f7933610191565b9361070e565b93610f95610f8c60405190565b92839283610d37565b0390a3565b506108fc610f35565b92505f610f04565b509250610f06565b50610fbd5f61070e565b8111610ec3565b610fdb905f610fd381836109a4565b810190610136565b5f610ea1565b611003915060603d606011611009575b610ffb81836109a4565b810190610b24565b5f610dc5565b503d610ff1565b6101b790610a2e565b6101595f610a50565b610159916008021c81565b906101599154611022565b6101596101596101599261ffff1690565b91908201809211610c4e57565b9061106361015960065490565b61106c836106b2565b10156110985761109261108c611086610159946006610769565b9061102d565b91611038565b90611049565b50506101595f61070e565b6110af61015960065490565b6110b8826106b2565b10156110cc57611086610159916006610769565b506101595f61070e565b939190506110e661015960065490565b6110ef846106b2565b1015611151576110ff9042610c8c565b906111095f61070e565b8214611151576101599361112e6111349261109261108c611086611139986006610769565b90610c3b565b610c3b565b610e45611144610c53565b6111346301e1338061070e565b505050506101595f61070e565b6101b79061116a6113fa565b6111806101b7916106386109006108fb5f610878565b60026108ce565b6101b79061115e565b6101b79061119c6113fa565b6111fc565b156111a857565b60405162461bcd60e51b815260206004820152602660248201527f4f776e61626c653a206e6577206f776e657220697320746865207a65726f206160448201526564647265737360d01b6064820152608490fd5b6101b790610a2161120f6108fb5f610878565b6112188361014d565b14156111a1565b6101b790611190565b905051906101b782610423565b90916060828403126101405761015961124e8484611228565b93604061125e8260208701611228565b9401611228565b6112726101596101599290565b61ffff1690565b6112866106386002610a50565b611295610d716108fb5f610878565b146113045760606112ca916112ad6106386002610a50565b60405193849283918291630166b5c560e61b8352600483016103c6565b03915afa908115610689575f91611308575b506112e65f611265565b61ffff821611156113045790611092610e3d610e3761015994611038565b5090565b61132a915060603d606011611331575b61132281836109a4565b810190611235565b91506112dc565b503d611318565b6101b7906113446113fa565b61135a6101b7916106386109006108fb5f610878565b60046108ce565b6101b790611338565b61137333610191565b7f525b74a34fa7d280989782ff88faded7890117edd2a674614497b9ed45b4598861139d60405190565b3481528060208101610684565b156113b157565b60405162461bcd60e51b8152806105fb600482016020808252818101527f4f776e61626c653a2063616c6c6572206973206e6f7420746865206f776e6572604082015260600190565b6101b7611405611019565b611411610d713361014d565b146113aa565b6114366114306114265f610a50565b610638845f6108ce565b91610191565b907f8be0079c531659141344cd1fd0a4f28419497f9722a3daafe3b4186f6b6457e061146160405190565b8080610f95565b610159600261070e565b1561147957565b60405162461bcd60e51b815260206004820152601f60248201527f5265656e7472616e637947756172643a207265656e7472616e742063616c6c006044820152606490fd5b905f199061079d565b906114d76101596107c09261070e565b82546114be565b6101b76114eb6001610927565b6114ff6114f6611468565b91821415611472565b60016114c7565b610159600161070e565b6101b76114ff61150656fea26469706673582212201f263fe4d0c0496f444747ca8bf0780bea9fcba45fd1bfc95a1202aa09d0f3ad64736f6c634300081c0033",
  "linkReferences": {},
  "deployedLinkReferences": {}
}