{
  "_format": "hh-sol-artifact-1",
  "contractName": "EnhancedSmartStaking",
  "sourceName": "contracts/SmartStaking/EnhancedSmartStakingCore.sol",
  "abi": [
    {
      "inputs": [
        {
          "internalType": "address",
          "name": "_treasury",
          "type": "address"
        }
      ],
      "stateMutability": "nonpayable",
      "type": "constructor"
    },
    {
      "inputs": [
        {
          "internalType": "address",
          "name": "treasury",
          "type": "address"
        },
        {
          "internalType": "uint256",
          "name": "amount",
          "type": "uint256"
        }
      ],
      "name": "CommissionTransferFailed",
      "type": "error"
    },
    {
      "inputs": [],
      "name": "ContractIsMigrated",
      "type": "error"
    },
    {
      "inputs": [
        {
          "internalType": "uint256",
          "name": "availableToWithdraw",
          "type": "uint256"
        }
      ],
      "name": "DailyWithdrawalLimitExceeded",
      "type": "error"
    },
    {
      "inputs": [
        {
          "internalType": "uint256",
          "name": "provided",
          "type": "uint256"
        },
        {
          "internalType": "uint256",
          "name": "maximum",
          "type": "uint256"
        }
      ],
      "name": "DepositTooHigh",
      "type": "error"
    },
    {
      "inputs": [
        {
          "internalType": "uint256",
          "name": "provided",
          "type": "uint256"
        },
        {
          "internalType": "uint256",
          "name": "minimum",
          "type": "uint256"
        }
      ],
      "name": "DepositTooLow",
      "type": "error"
    },
    {
      "inputs": [],
      "name": "FundsAreLocked",
      "type": "error"
    },
    {
      "inputs": [],
      "name": "InsufficientBalance",
      "type": "error"
    },
    {
      "inputs": [],
      "name": "InvalidAddress",
      "type": "error"
    },
    {
      "inputs": [],
      "name": "InvalidLockupDuration",
      "type": "error"
    },
    {
      "inputs": [
        {
          "internalType": "address",
          "name": "user",
          "type": "address"
        },
        {
          "internalType": "uint16",
          "name": "maxDeposits",
          "type": "uint16"
        }
      ],
      "name": "MaxDepositsReached",
      "type": "error"
    },
    {
      "inputs": [
        {
          "internalType": "string",
          "name": "moduleName",
          "type": "string"
        }
      ],
      "name": "ModuleNotSet",
      "type": "error"
    },
    {
      "inputs": [],
      "name": "NoDepositsFound",
      "type": "error"
    },
    {
      "inputs": [],
      "name": "NoRewardsAvailable",
      "type": "error"
    },
    {
      "inputs": [],
      "name": "OnlyMarketplace",
      "type": "error"
    },
    {
      "inputs": [
        {
          "internalType": "enum IStakingIntegration.SkillType",
          "name": "skillType",
          "type": "uint8"
        }
      ],
      "name": "SkillDisabled",
      "type": "error"
    },
    {
      "anonymous": false,
      "inputs": [
        {
          "indexed": true,
          "internalType": "address",
          "name": "user",
          "type": "address"
        },
        {
          "indexed": false,
          "internalType": "uint256",
          "name": "compoundedAmount",
          "type": "uint256"
        }
      ],
      "name": "AutoCompoundTriggered",
      "type": "event"
    },
    {
      "anonymous": false,
      "inputs": [
        {
          "indexed": true,
          "internalType": "address",
          "name": "receiver",
          "type": "address"
        },
        {
          "indexed": false,
          "internalType": "uint256",
          "name": "amount",
          "type": "uint256"
        },
        {
          "indexed": false,
          "internalType": "uint256",
          "name": "timestamp",
          "type": "uint256"
        }
      ],
      "name": "CommissionPaid",
      "type": "event"
    },
    {
      "anonymous": false,
      "inputs": [
        {
          "indexed": true,
          "internalType": "address",
          "name": "user",
          "type": "address"
        },
        {
          "indexed": false,
          "internalType": "uint256",
          "name": "amount",
          "type": "uint256"
        }
      ],
      "name": "Compounded",
      "type": "event"
    },
    {
      "anonymous": false,
      "inputs": [
        {
          "indexed": true,
          "internalType": "address",
          "name": "user",
          "type": "address"
        },
        {
          "indexed": false,
          "internalType": "uint256",
          "name": "amount",
          "type": "uint256"
        },
        {
          "indexed": false,
          "internalType": "uint256",
          "name": "lockupDuration",
          "type": "uint256"
        }
      ],
      "name": "Deposited",
      "type": "event"
    },
    {
      "anonymous": false,
      "inputs": [
        {
          "indexed": true,
          "internalType": "address",
          "name": "user",
          "type": "address"
        },
        {
          "indexed": false,
          "internalType": "uint256",
          "name": "amount",
          "type": "uint256"
        }
      ],
      "name": "EmergencyWithdrawal",
      "type": "event"
    },
    {
      "anonymous": false,
      "inputs": [
        {
          "indexed": true,
          "internalType": "string",
          "name": "moduleName",
          "type": "string"
        },
        {
          "indexed": true,
          "internalType": "address",
          "name": "oldModule",
          "type": "address"
        },
        {
          "indexed": true,
          "internalType": "address",
          "name": "newModule",
          "type": "address"
        }
      ],
      "name": "ModuleUpdated",
      "type": "event"
    },
    {
      "anonymous": false,
      "inputs": [
        {
          "indexed": true,
          "internalType": "address",
          "name": "previousOwner",
          "type": "address"
        },
        {
          "indexed": true,
          "internalType": "address",
          "name": "newOwner",
          "type": "address"
        }
      ],
      "name": "OwnershipTransferred",
      "type": "event"
    },
    {
      "anonymous": false,
      "inputs": [
        {
          "indexed": false,
          "internalType": "address",
          "name": "account",
          "type": "address"
        }
      ],
      "name": "Paused",
      "type": "event"
    },
    {
      "anonymous": false,
      "inputs": [
        {
          "indexed": true,
          "internalType": "address",
          "name": "user",
          "type": "address"
        },
        {
          "indexed": true,
          "internalType": "uint256",
          "name": "nftId",
          "type": "uint256"
        },
        {
          "indexed": false,
          "internalType": "enum IStakingIntegration.SkillType",
          "name": "skillType",
          "type": "uint8"
        },
        {
          "indexed": false,
          "internalType": "uint16",
          "name": "effectValue",
          "type": "uint16"
        }
      ],
      "name": "SkillActivated",
      "type": "event"
    },
    {
      "anonymous": false,
      "inputs": [
        {
          "indexed": true,
          "internalType": "address",
          "name": "user",
          "type": "address"
        },
        {
          "indexed": true,
          "internalType": "uint256",
          "name": "nftId",
          "type": "uint256"
        },
        {
          "indexed": false,
          "internalType": "enum IStakingIntegration.SkillType",
          "name": "skillType",
          "type": "uint8"
        }
      ],
      "name": "SkillDeactivated",
      "type": "event"
    },
    {
      "anonymous": false,
      "inputs": [
        {
          "indexed": true,
          "internalType": "address",
          "name": "user",
          "type": "address"
        },
        {
          "indexed": false,
          "internalType": "uint16",
          "name": "level",
          "type": "uint16"
        },
        {
          "indexed": false,
          "internalType": "uint8",
          "name": "maxActiveSkills",
          "type": "uint8"
        },
        {
          "indexed": false,
          "internalType": "uint16",
          "name": "stakingBoostTotal",
          "type": "uint16"
        }
      ],
      "name": "SkillProfileUpdated",
      "type": "event"
    },
    {
      "anonymous": false,
      "inputs": [
        {
          "indexed": true,
          "internalType": "address",
          "name": "oldTreasury",
          "type": "address"
        },
        {
          "indexed": true,
          "internalType": "address",
          "name": "newTreasury",
          "type": "address"
        }
      ],
      "name": "TreasuryUpdated",
      "type": "event"
    },
    {
      "anonymous": false,
      "inputs": [
        {
          "indexed": false,
          "internalType": "address",
          "name": "account",
          "type": "address"
        }
      ],
      "name": "Unpaused",
      "type": "event"
    },
    {
      "anonymous": false,
      "inputs": [
        {
          "indexed": true,
          "internalType": "address",
          "name": "user",
          "type": "address"
        },
        {
          "indexed": false,
          "internalType": "uint256",
          "name": "totalAmount",
          "type": "uint256"
        }
      ],
      "name": "WithdrawAll",
      "type": "event"
    },
    {
      "anonymous": false,
      "inputs": [
        {
          "indexed": true,
          "internalType": "address",
          "name": "user",
          "type": "address"
        },
        {
          "indexed": false,
          "internalType": "uint256",
          "name": "amount",
          "type": "uint256"
        }
      ],
      "name": "Withdrawn",
      "type": "event"
    },
    {
      "inputs": [
        {
          "internalType": "address",
          "name": "user",
          "type": "address"
        },
        {
          "internalType": "uint256",
          "name": "baseAPY",
          "type": "uint256"
        }
      ],
      "name": "calculateBoostedAPY",
      "outputs": [
        {
          "internalType": "uint256",
          "name": "",
          "type": "uint256"
        }
      ],
      "stateMutability": "view",
      "type": "function"
    },
    {
      "inputs": [
        {
          "internalType": "address",
          "name": "userAddress",
          "type": "address"
        }
      ],
      "name": "calculateBoostedRewards",
      "outputs": [
        {
          "internalType": "uint256",
          "name": "totalRewards",
          "type": "uint256"
        }
      ],
      "stateMutability": "view",
      "type": "function"
    },
    {
      "inputs": [
        {
          "internalType": "address",
          "name": "userAddress",
          "type": "address"
        }
      ],
      "name": "calculateBoostedRewardsWithRarityMultiplier",
      "outputs": [
        {
          "internalType": "uint256",
          "name": "",
          "type": "uint256"
        }
      ],
      "stateMutability": "view",
      "type": "function"
    },
    {
      "inputs": [
        {
          "internalType": "address",
          "name": "user",
          "type": "address"
        },
        {
          "internalType": "uint256",
          "name": "baseFee",
          "type": "uint256"
        }
      ],
      "name": "calculateFeeDiscount",
      "outputs": [
        {
          "internalType": "uint256",
          "name": "",
          "type": "uint256"
        }
      ],
      "stateMutability": "view",
      "type": "function"
    },
    {
      "inputs": [
        {
          "internalType": "address",
          "name": "user",
          "type": "address"
        },
        {
          "internalType": "uint256",
          "name": "baseLockTime",
          "type": "uint256"
        }
      ],
      "name": "calculateReducedLockTime",
      "outputs": [
        {
          "internalType": "uint256",
          "name": "",
          "type": "uint256"
        }
      ],
      "stateMutability": "view",
      "type": "function"
    },
    {
      "inputs": [
        {
          "internalType": "address",
          "name": "userAddress",
          "type": "address"
        }
      ],
      "name": "calculateRewards",
      "outputs": [
        {
          "internalType": "uint256",
          "name": "totalRewards",
          "type": "uint256"
        }
      ],
      "stateMutability": "view",
      "type": "function"
    },
    {
      "inputs": [
        {
          "internalType": "address",
          "name": "_newTreasury",
          "type": "address"
        }
      ],
      "name": "changeTreasuryAddress",
      "outputs": [],
      "stateMutability": "nonpayable",
      "type": "function"
    },
    {
      "inputs": [
        {
          "internalType": "address",
          "name": "user",
          "type": "address"
        }
      ],
      "name": "checkAutoCompound",
      "outputs": [
        {
          "internalType": "bool",
          "name": "",
          "type": "bool"
        },
        {
          "internalType": "bytes",
          "name": "",
          "type": "bytes"
        }
      ],
      "stateMutability": "view",
      "type": "function"
    },
    {
      "inputs": [],
      "name": "compound",
      "outputs": [],
      "stateMutability": "nonpayable",
      "type": "function"
    },
    {
      "inputs": [
        {
          "internalType": "uint64",
          "name": "_lockupDuration",
          "type": "uint64"
        }
      ],
      "name": "deposit",
      "outputs": [],
      "stateMutability": "payable",
      "type": "function"
    },
    {
      "inputs": [
        {
          "internalType": "uint256",
          "name": "_amount",
          "type": "uint256"
        }
      ],
      "name": "emergencyWithdraw",
      "outputs": [],
      "stateMutability": "nonpayable",
      "type": "function"
    },
    {
      "inputs": [],
      "name": "gamificationModule",
      "outputs": [
        {
          "internalType": "contract IEnhancedSmartStakingGamification",
          "name": "",
          "type": "address"
        }
      ],
      "stateMutability": "view",
      "type": "function"
    },
    {
      "inputs": [
        {
          "internalType": "address",
          "name": "user",
          "type": "address"
        }
      ],
      "name": "getActiveSkills",
      "outputs": [
        {
          "components": [
            {
              "internalType": "enum IStakingIntegration.SkillType",
              "name": "skillType",
              "type": "uint8"
            },
            {
              "internalType": "uint16",
              "name": "effectValue",
              "type": "uint16"
            },
            {
              "internalType": "enum IStakingIntegration.Rarity",
              "name": "rarity",
              "type": "uint8"
            },
            {
              "internalType": "uint64",
              "name": "activatedAt",
              "type": "uint64"
            },
            {
              "internalType": "uint64",
              "name": "cooldownEnds",
              "type": "uint64"
            },
            {
              "internalType": "bool",
              "name": "isActive",
              "type": "bool"
            }
          ],
          "internalType": "struct IStakingIntegration.NFTSkill[]",
          "name": "",
          "type": "tuple[]"
        }
      ],
      "stateMutability": "view",
      "type": "function"
    },
    {
      "inputs": [],
      "name": "getAutoCompoundUsers",
      "outputs": [
        {
          "internalType": "address[]",
          "name": "autoUsers",
          "type": "address[]"
        }
      ],
      "stateMutability": "view",
      "type": "function"
    },
    {
      "inputs": [
        {
          "internalType": "address",
          "name": "userAddress",
          "type": "address"
        }
      ],
      "name": "getUserInfo",
      "outputs": [
        {
          "internalType": "uint256",
          "name": "totalDeposited",
          "type": "uint256"
        },
        {
          "internalType": "uint256",
          "name": "totalRewards",
          "type": "uint256"
        },
        {
          "internalType": "uint256",
          "name": "depositCount",
          "type": "uint256"
        },
        {
          "internalType": "uint256",
          "name": "lastWithdrawTime",
          "type": "uint256"
        }
      ],
      "stateMutability": "view",
      "type": "function"
    },
    {
      "inputs": [
        {
          "internalType": "address",
          "name": "user",
          "type": "address"
        }
      ],
      "name": "getUserSkillProfile",
      "outputs": [
        {
          "components": [
            {
              "internalType": "uint256[]",
              "name": "activeNFTIds",
              "type": "uint256[]"
            },
            {
              "internalType": "uint256",
              "name": "totalXP",
              "type": "uint256"
            },
            {
              "internalType": "uint16",
              "name": "level",
              "type": "uint16"
            },
            {
              "internalType": "uint8",
              "name": "maxActiveSkills",
              "type": "uint8"
            },
            {
              "internalType": "uint16",
              "name": "stakingBoostTotal",
              "type": "uint16"
            },
            {
              "internalType": "uint16",
              "name": "feeDiscountTotal",
              "type": "uint16"
            },
            {
              "internalType": "bool",
              "name": "hasAutoCompound",
              "type": "bool"
            }
          ],
          "internalType": "struct IStakingIntegration.UserSkillProfile",
          "name": "profile",
          "type": "tuple"
        }
      ],
      "stateMutability": "view",
      "type": "function"
    },
    {
      "inputs": [
        {
          "internalType": "address",
          "name": "user",
          "type": "address"
        }
      ],
      "name": "hasAutoCompound",
      "outputs": [
        {
          "internalType": "bool",
          "name": "",
          "type": "bool"
        }
      ],
      "stateMutability": "view",
      "type": "function"
    },
    {
      "inputs": [],
      "name": "marketplaceContract",
      "outputs": [
        {
          "internalType": "address",
          "name": "",
          "type": "address"
        }
      ],
      "stateMutability": "view",
      "type": "function"
    },
    {
      "inputs": [],
      "name": "migrated",
      "outputs": [
        {
          "internalType": "bool",
          "name": "",
          "type": "bool"
        }
      ],
      "stateMutability": "view",
      "type": "function"
    },
    {
      "inputs": [],
      "name": "newContractAddress",
      "outputs": [
        {
          "internalType": "address",
          "name": "",
          "type": "address"
        }
      ],
      "stateMutability": "view",
      "type": "function"
    },
    {
      "inputs": [
        {
          "internalType": "uint256",
          "name": "nftId",
          "type": "uint256"
        }
      ],
      "name": "nftRarity",
      "outputs": [
        {
          "internalType": "enum IStakingIntegration.Rarity",
          "name": "",
          "type": "uint8"
        }
      ],
      "stateMutability": "view",
      "type": "function"
    },
    {
      "inputs": [
        {
          "internalType": "address",
          "name": "user",
          "type": "address"
        },
        {
          "internalType": "uint256",
          "name": "achievementId",
          "type": "uint256"
        },
        {
          "internalType": "uint256",
          "name": "rewardAmount",
          "type": "uint256"
        }
      ],
      "name": "notifyAchievementUnlocked",
      "outputs": [],
      "stateMutability": "nonpayable",
      "type": "function"
    },
    {
      "inputs": [
        {
          "internalType": "address",
          "name": "user",
          "type": "address"
        },
        {
          "internalType": "uint256",
          "name": "questId",
          "type": "uint256"
        },
        {
          "internalType": "uint256",
          "name": "rewardAmount",
          "type": "uint256"
        }
      ],
      "name": "notifyQuestCompletion",
      "outputs": [],
      "stateMutability": "nonpayable",
      "type": "function"
    },
    {
      "inputs": [
        {
          "internalType": "address",
          "name": "user",
          "type": "address"
        },
        {
          "internalType": "uint256",
          "name": "nftId",
          "type": "uint256"
        },
        {
          "internalType": "enum IStakingIntegration.SkillType",
          "name": "skillType",
          "type": "uint8"
        },
        {
          "internalType": "uint16",
          "name": "effectValue",
          "type": "uint16"
        }
      ],
      "name": "notifySkillActivation",
      "outputs": [],
      "stateMutability": "nonpayable",
      "type": "function"
    },
    {
      "inputs": [
        {
          "internalType": "address",
          "name": "user",
          "type": "address"
        },
        {
          "internalType": "uint256",
          "name": "nftId",
          "type": "uint256"
        }
      ],
      "name": "notifySkillDeactivation",
      "outputs": [],
      "stateMutability": "nonpayable",
      "type": "function"
    },
    {
      "inputs": [],
      "name": "owner",
      "outputs": [
        {
          "internalType": "address",
          "name": "",
          "type": "address"
        }
      ],
      "stateMutability": "view",
      "type": "function"
    },
    {
      "inputs": [],
      "name": "pause",
      "outputs": [],
      "stateMutability": "nonpayable",
      "type": "function"
    },
    {
      "inputs": [],
      "name": "paused",
      "outputs": [
        {
          "internalType": "bool",
          "name": "",
          "type": "bool"
        }
      ],
      "stateMutability": "view",
      "type": "function"
    },
    {
      "inputs": [
        {
          "internalType": "bytes",
          "name": "performData",
          "type": "bytes"
        }
      ],
      "name": "performAutoCompound",
      "outputs": [],
      "stateMutability": "nonpayable",
      "type": "function"
    },
    {
      "inputs": [],
      "name": "renounceOwnership",
      "outputs": [],
      "stateMutability": "nonpayable",
      "type": "function"
    },
    {
      "inputs": [],
      "name": "rewardsModule",
      "outputs": [
        {
          "internalType": "contract IEnhancedSmartStakingRewards",
          "name": "",
          "type": "address"
        }
      ],
      "stateMutability": "view",
      "type": "function"
    },
    {
      "inputs": [
        {
          "internalType": "address",
          "name": "_gamificationModule",
          "type": "address"
        }
      ],
      "name": "setGamificationModule",
      "outputs": [],
      "stateMutability": "nonpayable",
      "type": "function"
    },
    {
      "inputs": [
        {
          "internalType": "address",
          "name": "_marketplace",
          "type": "address"
        }
      ],
      "name": "setMarketplaceAddress",
      "outputs": [],
      "stateMutability": "nonpayable",
      "type": "function"
    },
    {
      "inputs": [
        {
          "internalType": "address",
          "name": "_rewardsModule",
          "type": "address"
        }
      ],
      "name": "setRewardsModule",
      "outputs": [],
      "stateMutability": "nonpayable",
      "type": "function"
    },
    {
      "inputs": [
        {
          "internalType": "enum IStakingIntegration.SkillType",
          "name": "skillType",
          "type": "uint8"
        },
        {
          "internalType": "bool",
          "name": "enabled",
          "type": "bool"
        }
      ],
      "name": "setSkillEnabled",
      "outputs": [],
      "stateMutability": "nonpayable",
      "type": "function"
    },
    {
      "inputs": [
        {
          "internalType": "address",
          "name": "_skillsModule",
          "type": "address"
        }
      ],
      "name": "setSkillsModule",
      "outputs": [],
      "stateMutability": "nonpayable",
      "type": "function"
    },
    {
      "inputs": [
        {
          "internalType": "address",
          "name": "",
          "type": "address"
        }
      ],
      "name": "setStakingAddress",
      "outputs": [],
      "stateMutability": "pure",
      "type": "function"
    },
    {
      "inputs": [
        {
          "internalType": "enum IStakingIntegration.SkillType",
          "name": "skillType",
          "type": "uint8"
        }
      ],
      "name": "skillDefaultEffects",
      "outputs": [
        {
          "internalType": "uint16",
          "name": "",
          "type": "uint16"
        }
      ],
      "stateMutability": "view",
      "type": "function"
    },
    {
      "inputs": [
        {
          "internalType": "enum IStakingIntegration.SkillType",
          "name": "skillType",
          "type": "uint8"
        }
      ],
      "name": "skillEnabled",
      "outputs": [
        {
          "internalType": "bool",
          "name": "",
          "type": "bool"
        }
      ],
      "stateMutability": "view",
      "type": "function"
    },
    {
      "inputs": [],
      "name": "skillsModule",
      "outputs": [
        {
          "internalType": "contract IEnhancedSmartStakingSkills",
          "name": "",
          "type": "address"
        }
      ],
      "stateMutability": "view",
      "type": "function"
    },
    {
      "inputs": [],
      "name": "totalPoolBalance",
      "outputs": [
        {
          "internalType": "uint256",
          "name": "",
          "type": "uint256"
        }
      ],
      "stateMutability": "view",
      "type": "function"
    },
    {
      "inputs": [
        {
          "internalType": "address",
          "name": "newOwner",
          "type": "address"
        }
      ],
      "name": "transferOwnership",
      "outputs": [],
      "stateMutability": "nonpayable",
      "type": "function"
    },
    {
      "inputs": [],
      "name": "treasury",
      "outputs": [
        {
          "internalType": "address",
          "name": "",
          "type": "address"
        }
      ],
      "stateMutability": "view",
      "type": "function"
    },
    {
      "inputs": [],
      "name": "uniqueUsersCount",
      "outputs": [
        {
          "internalType": "uint256",
          "name": "",
          "type": "uint256"
        }
      ],
      "stateMutability": "view",
      "type": "function"
    },
    {
      "inputs": [],
      "name": "unpause",
      "outputs": [],
      "stateMutability": "nonpayable",
      "type": "function"
    },
    {
      "inputs": [
        {
          "internalType": "enum IStakingIntegration.SkillType",
          "name": "skillType",
          "type": "uint8"
        },
        {
          "internalType": "uint16",
          "name": "newEffectValue",
          "type": "uint16"
        }
      ],
      "name": "updateSkillEffect",
      "outputs": [],
      "stateMutability": "nonpayable",
      "type": "function"
    },
    {
      "inputs": [
        {
          "internalType": "address",
          "name": "user",
          "type": "address"
        },
        {
          "internalType": "uint256",
          "name": "xpGained",
          "type": "uint256"
        }
      ],
      "name": "updateUserXP",
      "outputs": [],
      "stateMutability": "nonpayable",
      "type": "function"
    },
    {
      "inputs": [],
      "name": "withdraw",
      "outputs": [],
      "stateMutability": "nonpayable",
      "type": "function"
    },
    {
      "inputs": [],
      "name": "withdrawAll",
      "outputs": [],
      "stateMutability": "nonpayable",
      "type": "function"
    },
    {
      "inputs": [],
      "name": "withdrawBoosted",
      "outputs": [],
      "stateMutability": "nonpayable",
      "type": "function"
    },
    {
      "stateMutability": "payable",
      "type": "receive"
    }
  ],
  "bytecode": "0x60806040523461002a576100196100146100bf565b610149565b604051614a7a6103ae8239614a7a90f35b5f80fd5b634e487b7160e01b5f52604160045260245ffd5b90601f01601f191681019081106001600160401b0382111761006357604052565b61002e565b9061007c61007560405190565b9283610042565b565b6001600160a01b031690565b90565b6001600160a01b0381160361002a57565b9050519061007c8261008d565b9060208282031261002a5761008a9161009e565b61008a614e28803803806100d281610068565b9283398101906100ab565b61007e61008a61008a9290565b61008a906100dd565b906001600160a01b03905b9181191691161790565b61008a9061007e906001600160a01b031682565b61008a90610108565b61008a9061011c565b9061013e61008a61014592610125565b82546100f3565b9055565b610151610190565b61015d61007e5f6100ea565b6001600160a01b0382161461017f5761017790600261012e565b61007c6102e8565b63e6c4247b60e01b5f908152600490fd5b61007c6101cf565b61008a61008a61008a9290565b61008a6001610198565b905f19906100fe565b906101c861008a61014592610198565b82546101af565b6101d761020f565b61007c6101e26101a5565b60016101b8565b9060ff60a01b9060a01b6100fe565b9061020861008a61014592151590565b82546101e9565b610217610221565b61007c5f806101f8565b61007c33610359565b61023761008a61008a9290565b60ff1690565b634e487b7160e01b5f52601160045260245ffd5b60ff1660ff81146102625760010190565b61023d565b634e487b7160e01b5f52602160045260245ffd5b6011111561028557565b610267565b9061007c8261027b565b61008a9061028a565b6102ad61008a61008a9260ff1690565b61028a565b906102bc90610294565b5f5260205260405f2090565b9060ff906100fe565b906102e161008a61014592151590565b82546102c8565b6001806102f5600161022a565b905b6102ff575050565b61030c6102376010610294565b60ff8216116103425761033c829161033783610332600d61032c8561029d565b906102b2565b6102d1565b610251565b906102f7565b5050565b61008a9061007e565b61008a9054610346565b61037d6103776103685f61034f565b610372845f61012e565b610125565b91610125565b907f8be0079c531659141344cd1fd0a4f28419497f9722a3daafe3b4186f6b6457e06103a860405190565b5f90a356fe60806040526004361015610022575b3615610018575f80fd5b61002061439c565b005b5f3560e01c806311bd459f14610341578063137658381461033c578063161ba7811461033757806318f2f4021461033257806323c8738a1461032d5780632c678c64146103285780632f1df47614610323578063313a19541461031e5780633bab7a89146103195780633ccfd60b146103145780633f4ba83a1461030f5780633fd51fbf1461030a57806349be75bb146103055780634b1d06d7146103005780635026d63e146102fb5780635312ea8e146102f65780635b0df80a146102f15780635c975abb146102ec5780635cb60986146102e75780635efc27d6146102e257806361d027b3146102dd5780636386c1c7146102d857806364ab8675146102d35780636744f776146102ce5780636af04a57146102c9578063715018a6146102c457806375af38f2146102bf5780638456cb59146102ba578063853828b6146102b557806389257817146102b05780638d79bb50146102ab5780638da5cb5b146102a6578063992976aa146102a1578063a6f353f01461029c578063ad29370914610297578063b415ff7a14610292578063b47cc5561461028d578063b907deee14610288578063bece23ba14610283578063bf37bb6a1461027e578063c3f78e3a14610279578063c9f8234f14610274578063d1bb5cf11461026f578063d1cc7bb21461026a578063e8ac834514610265578063ef6c4acf14610260578063f154a5491461025b578063f2fde38b14610256578063f4e0d9ac146102515763f69e20460361000e57610f09565b610ef4565b610edc565b610eb5565b610e8d565b610e71565b610e59565b610e3e565b610e18565b610ddd565b610db6565b610ce1565b610cc6565b610cae565b610c93565b610c78565b610c55565b610c3a565b610c0b565b610bf2565b610bd9565b610bc1565b610ba9565b610b8e565b610b6b565b610b50565b610b2c565b610b11565b610ae0565b610a7b565b610a57565b610a3f565b610a24565b610a0b565b61099b565b61096c565b610924565b6108b4565b61087f565b61083e565b610826565b61080b565b6107ef565b610783565b610707565b6106bb565b610619565b6105bc565b610467565b610405565b6001600160a01b031690565b90565b6001600160a01b0381165b0361036757565b5f80fd5b9050359061037882610355565b565b90602082820312610367576103529161036b565b9052565b5f5b8381106103a35750505f910152565b8181015183820152602001610394565b6103d46103dd6020936103e7936103c8815190565b80835293849260200190565b95869101610392565b601f01601f191690565b0190565b9015158152604060208201819052610352929101906103b3565b346103675761041d61041836600461037a565b611024565b9061043361042a60405190565b928392836103eb565b0390f35b6001600160401b038116610360565b9050359061037882610437565b906020828203126103675761035291610446565b61047a610475366004610453565b611988565b604051005b634e487b7160e01b5f52602160045260245ffd5b6011111561049d57565b61047f565b9061037882610493565b610352906104a2565b61038e906104ac565b6005111561049d57565b90610378826104be565b610352906104c8565b61038e906104d2565b9060a080610378936104fc5f8201515f8601906104b5565b60208181015161ffff169085015261051c604082015160408601906104db565b6060818101516001600160401b0316908501526080818101516001600160401b0316908501525b01511515910152565b906103e78160c0936104e4565b90610579610572610568845190565b8084529260200190565b9260200190565b905f5b8181106105895750505090565b9091926105a361059c600192865161054c565b9460200190565b92910161057c565b602080825261035292910190610559565b34610367576104336105d76105d236600461037a565b611bed565b604051918291826105ab565b80610360565b90503590610378826105e3565b919060408382031261036757610352906020610612828661036b565b94016105e9565b346103675761043361063561062f3660046105f6565b90611dd4565b6040515b9182918290815260200190565b5f91031261036757565b610352916008021c6001600160a01b031690565b906103529154610650565b6103525f600a610664565b610346610352610352926001600160a01b031690565b6103529061067a565b61035290610690565b61038e90610699565b60208101929161037891906106a2565b34610367576106cb366004610646565b6104336106d661066f565b604051918291826106ab565b610352916008021c5b60ff1690565b9061035291546106e2565b6103525f60056106f1565b3461036757610717366004610646565b6104336107226106fc565b60405191829182901515815260200190565b6011111561036757565b9050359061037882610734565b801515610360565b905035906103788261074b565b91906040838203126103675761035290602061077c828661073e565b9401610753565b346103675761047a610796366004610760565b90611f78565b61ffff8116610360565b905035906103788261079c565b608081830312610367576107c7828261036b565b926103526107d884602085016105e9565b9360606107e8826040870161073e565b94016107a6565b346103675761047a6108023660046107b3565b929190916120ee565b346103675761043361063561082136600461037a565b612207565b3461036757610836366004610646565b61047a61273e565b346103675761084e366004610646565b61047a612759565b90916060828403126103675761035261086f848461036b565b93604061061282602087016105e9565b346103675761047a610892366004610856565b9161287e565b9190604083820312610367576103529060206107e8828661073e565b346103675761047a6108c7366004610898565b9061291a565b906108dc610572610568845190565b905f5b8181106108ec5750505090565b90919261090b61059c60019286516001600160a01b0316815260200190565b9291016108df565b6020808252610352929101906108cd565b3461036757610934366004610646565b61043361093f612ae6565b60405191829182610913565b610352916008021c81565b90610352915461094b565b6103525f6003610956565b346103675761097c366004610646565b610433610635610961565b9060208282031261036757610352916105e9565b346103675761047a6109ae366004610987565b612d31565b909182601f83011215610367578135916001600160401b03831161036757602001926001830284011161036757565b906020828203126103675781356001600160401b03811161036757610a0792016109b3565b9091565b346103675761047a610a1e3660046109e2565b90612d3a565b3461036757610a34366004610646565b610433610722612ee0565b346103675761047a610a5236600461037a565b612fce565b346103675761047a610a6a3660046105f6565b90613051565b6103525f6002610664565b3461036757610a8b366004610646565b610433610a96610a70565b604051918291826001600160a01b03909116815260200190565b610adc61037894610ad5606094989795610ace608086019a5f870152565b6020850152565b6040830152565b0152565b3461036757610433610afb610af636600461037a565b61305b565b90610b0894929460405190565b94859485610ab0565b3461036757610433610635610b2736600461037a565b6130d0565b346103675761047a610b3f36600461037a565b613263565b61035260016005610664565b3461036757610b60366004610646565b610433610a96610b44565b3461036757610b7b366004610646565b61047a613288565b6103525f600c610664565b3461036757610b9e366004610646565b6104336106d6610b83565b3461036757610bb9366004610646565b61047a6132a3565b3461036757610bd1366004610646565b61047a61354d565b346103675761047a610bec3660046105f6565b906135d2565b346103675761047a610c05366004610856565b91613652565b3461036757610c1b366004610646565b610433610a9661365d565b90602082820312610367576103529161073e565b3461036757610433610722610c50366004610c26565b613666565b346103675761047a610c6836600461037a565b6136f2565b6103525f600b610664565b3461036757610c88366004610646565b6104336106d6610c6d565b3461036757610433610722610ca936600461037a565b61370f565b346103675761047a610cc136600461037a565b613858565b3461036757610433610635610cdc36600461037a565b613861565b3461036757610433610635610cf73660046105f6565b9061386a565b90610d0c610572610568845190565b905f5b818110610d1c5750505090565b909192610d3261059c6001928651815260200190565b929101610d0f565b906103529060c080610d5960e084015f8701518582035f870152610cfd565b94610d6960208201516020860152565b60408181015161ffff169085015260608181015160ff169085015260808181015161ffff169085015260a08181015161ffff1690850152610543565b602080825261035292910190610d3a565b3461036757610433610dd1610dcc36600461037a565b613a96565b60405191829182610da5565b3461036757610433610df8610df3366004610c26565b613d38565b6040519182918261ffff909116815260200190565b6103525f6004610956565b3461036757610e28366004610646565b610433610635610e0d565b6103525f6009610664565b3461036757610e4e366004610646565b610433610a96610e33565b3461036757610e69366004610646565b61047a613f7b565b3461036757610433610635610e873660046105f6565b90613f83565b346103675761047a610ea036600461037a565b614071565b60208101929161037891906104db565b3461036757610433610ed0610ecb366004610987565b614096565b60405191829182610ea5565b346103675761047a610eef36600461037a565b6141c3565b3461036757610f0436600461037a565b6141cc565b3461036757610f19366004610646565b61047a614394565b61035290610346565b6103529054610f21565b6103466103526103529290565b61035290610f34565b634e487b7160e01b5f52604160045260245ffd5b90601f01601f191681019081106001600160401b03821117610f7f57604052565b610f4a565b90610378610f9160405190565b9283610f5e565b6001600160401b038111610f7f57602090601f01601f19160190565b90610fc6610fc183610f98565b610f84565b918252565b6103525f610fb4565b610352610fcb565b905051906103788261074b565b90505190610378826105e3565b9190604083820312610367576103529060206110128286610fdc565b9401610fe9565b6040513d5f823e3d90fd5b90611037611032600c610f2a565b610699565b6110536110466103465f610f41565b916001600160a01b031690565b1461111457611065611032600c610f2a565b91604061107160405190565b6311bd459f60e01b81526001600160a01b038316600482015293849060249082905afa92831561110f575f936110dd575b5082156110d4576103526110b560405190565b6001600160a01b03929092166020808401919091528252604082610f5e565b50610352610fd4565b61110091935060403d604011611108575b6110f88183610f5e565b810190610ff6565b9290926110a2565b503d6110ee565b611019565b5f9150610352610fd4565b6111309061112b614431565b611138565b610378614463565b610378906111446144ad565b61115c565b610352906106eb565b6103529054611149565b6111666005611152565b61117357610378906111ca565b63f2bcabb960e01b5f90815260045b035ffd5b6103526103526103529290565b610352678ac7230489e80000611186565b9081526040810192916103789160200152565b61035269021e19e0c9bab2400000611186565b6111d2611193565b80341061120c57506111e26111b7565b8034116111f357506103789061165c565b6330250a5b60e11b5f90815290611182903460046111a4565b63ea691a4b60e01b5f90815290611182903460046111a4565b6112326103526103529290565b6001600160401b031690565b9061124890610699565b5f5260205260405f2090565b6112616103526103529290565b61ffff1690565b61035261012c611254565b6103526103526103529261ffff1690565b6001600160a01b039091168152604081019291610378916020905b019061ffff169052565b610352610258611254565b634e487b7160e01b5f52601160045260245ffd5b91906112d3565b9290565b918083029281840414901517156112e657565b6112b4565b610352612710611186565b634e487b7160e01b5f52601260045260245ffd5b90611314565b9190565b90811561131f570490565b6112f6565b919082039182116112e657565b6103529081565b6103529054611331565b905f19905b9181191691161790565b9061136161035261136892611186565b8254611342565b9055565b919082018092116112e657565b6113866103526103529290565b6001600160801b031690565b61035290611386565b6103529054611392565b6113c0906001600160801b03165b916001600160801b031690565b01906001600160801b0382116112e657565b906001600160801b0390611347565b611386610352610352926001600160801b031690565b90611407610352611368926113e1565b82546113d2565b611429906001600160401b03165b916001600160401b031690565b02906001600160401b0382169182036112e657565b6103526080610f84565b634e487b7160e01b5f52603260045260245ffd5b805482101561147c576114746002915f5260205f2090565b910201905f90565b611448565b634e487b7160e01b5f525f60045260245ffd5b9067ffffffffffffffff60801b9060801b611347565b611232610352610352926001600160401b031690565b906114d0610352611368926114aa565b8254611494565b9077ffffffffffffffffffffffffffffffffffffffffffffffff199060c01b611347565b9061150b610352611368926114aa565b82546114d7565b906001600160401b0390611347565b90611531610352611368926114aa565b8254611512565b610378916001906115a3906060906115958561156461155e84516001600160801b031690565b826113f7565b61158161157b60208501516001600160401b031690565b826114c0565b60408301516001600160401b0316906114fb565b01516001600160401b031690565b9101611521565b91906115b95761037891611538565b611481565b90815491600160401b831015610f7f57826115e19160016103789501815561145c565b906115aa565b6106eb6103526103529290565b61038e906115e7565b6001600160a01b039091168152606081019392610378929091604091610adc9060208301906115f4565b610352610352610352926001600160401b031690565b61038e90611627565b908152604081019291610378916020019061163d565b6116655f611225565b6001600160401b03821614158061196c575b80611950575b80611934575b80611917575b6119065761169b61035233600661123e565b805490919082906116aa611268565b906116b761131083611273565b10156118ed57506117ce906117c96116ef6116e16116db6116d66112a9565b611273565b346112c8565b6116e96112eb565b9061130a565b916116fa8334611324565b95611703815490565b61170f6113105f611186565b146118cb575b61173261172b886117266003611338565b61136c565b6003611351565b61175a600161174089611379565b93016117548461174f8361139b565b6113a5565b906113f7565b6117c461176642611225565b916117b46117826112cf61177c62015180611225565b8b61140e565b9361179d61178e61143e565b6001600160801b039097168752565b6001600160401b0316602086018190526040860152565b6001600160401b03166060840152565b6115be565b6144c0565b6117db611032600c610f2a565b6117ea6110466103465f610f41565b03611836575b7f73a19dd210f1a7f902193214c0ee91dd35ee5b4d920cba8d519eca65a7b488ca9061181b33610699565b9261183161182860405190565b92839283611646565b0390a2565b611843611032600c610f2a565b90813b15610367575f61185560405190565b9283906375af487760e01b8252818381611874898333600485016115fd565b03925af191821561110f577f73a19dd210f1a7f902193214c0ee91dd35ee5b4d920cba8d519eca65a7b488ca926118ae575b5090506117f0565b6118c5905f6118bd8183610f5e565b810190610646565b5f6118a6565b6118e86118e16118db6004611338565b60010190565b6004611351565b611715565b63756a320d60e11b5f9081529061118290336004611284565b631ab8aa1760e21b5f908152600490fd5b5061192361016d611225565b6001600160401b0382161415611689565b5061193f60b4611225565b6001600160401b0382161415611683565b5061195b605a611225565b6001600160401b038216141561167d565b50611977601e611225565b6001600160401b0382161415611677565b6103789061111f565b6001600160401b038111610f7f5760208091020190565b90610fc6610fc183611991565b61035260c0610f84565b6119c76119b5565b905f82526020808080808087015f5b8152015f8152015f8152015f8152015f905250565b6103526119bf565b5f5b828110611a0157505050565b602090611a0c6119eb565b81840152016119f5565b90610378611a2c611a26846119a8565b93611991565b601f1901602084016119f3565b9050519061037882610734565b6005111561036757565b9050519061037882611a46565b905051906103788261079c565b9050519061037882610437565b91906101008382031261036757611b149060e0611a95610100610f84565b94611aa08382610fe9565b8652611aaf8360208301611a39565b6020870152611ac18360408301611a50565b6040870152611ad38360608301611a5d565b6060870152611ae58360808301611a5d565b6080870152611af78360a08301610fdc565b60a0870152611b098360c08301611a6a565b60c087015201611a6a565b60e0830152565b90929192611b2b610fc182611991565b9381855261010060208601920283019281841161036757915b838310611b515750505050565b602061010091611b618486611a77565b815201920191611b44565b9080601f8301121561036757815161035292602001611b1b565b906020828203126103675781516001600160401b038111610367576103529201611b6c565b90611bb4825190565b81101561147c576020809102010190565b61035290516104a2565b61035290516104c8565b9061038e906104a2565b9061038e906104c8565b611bfa611032600b610f2a565b611c096110466103465f610f41565b14611dc7575f611c4a91611c20611032600b610f2a565b6040519384928391829163eb97e4eb60e01b5b83526001600160a01b031660048301526024820190565b03915afa90811561110f575f91611da5575b50611c6d611c68825190565b611a16565b90611c775f611186565b611c82610352835190565b811015611da05780611ca36020611c9c611d9b9486611bab565b5101611bc5565b611d7f611cbf6060611cb58588611bab565b51015161ffff1690565b611d7686611d66611ce4611cdf6040611cd88a86611bab565b5101611bcf565b614552565b611d56611d0560c0611cf68b87611bab565b5101516001600160401b031690565b91611d4d611d2f60a0611d278d611d2160e0611cf6838d611bab565b99611bab565b510151151590565b97611d42611d3b6119b5565b9b8c611bd9565b61ffff1660208b0152565b60408901611be3565b6001600160401b03166060870152565b6001600160401b03166080850152565b151560a0830152565b611d898286611bab565b52611d948185611bab565b5060010190565b611c77565b505090565b611dc191503d805f833e611db98183610f5e565b810190611b86565b5f611c5c565b50610352611c685f611186565b611de1611032600b610f2a565b611df06110466103465f610f41565b148015611ec6575b611ec2575f611e0e91611c20611032600b610f2a565b03915afa801561110f57611e29915f91611ea8575b5061456b565b50905080611e365f611254565b61ffff821614611da057611e7491611e4c6112eb565b91611e578391611273565b11611e90575b611e69611e6f91611273565b846112c8565b61130a565b80821115611e855761035291611324565b50506103525f611186565b50611e6f611e69611ea083611254565b915050611e5d565b611ebc91503d805f833e611db98183610f5e565b5f611e23565b5090565b50611ed05f611186565b8214611df8565b9061037891611ee461470f565b611f13565b90611248906104ac565b9060ff90611347565b90611f0c61035261136892151590565b8254611ef3565b90611f1d5f6104a2565b611f26836104a2565b14611f3e57611f3961037892600d611ee9565b611efc565b60405162461bcd60e51b815260206004820152600d60248201526c125b9d985b1a59081cdada5b1b609a1b604482015280606481015b0390fd5b9061037891611ed7565b929190611f926103466009610f2a565b3303611fa1576103789361201e565b632b35006d60e21b5f908152600490fd5b6006815260209081015b65536b696c6c7360d01b81520190565b60208082526103529101611fb2565b60208101929161037891906104b5565b61129f61037894612014606094989795610ace608086019a5f8701906001600160a01b03169052565b60408301906104b5565b919061202d611032600b610f2a565b61203c6110466103465f610f41565b146120d45761205b61205761205284600d611ee9565b611152565b1590565b6120bd5761206c611032600b610f2a565b90813b15610367575f809461209d61208360405190565b97889687958694630c4e865560e21b865260048601611feb565b03925af1801561110f576120ae5750565b610378905f6118bd8183610f5e565b635bb4388360e01b5f908152611182836004611fdb565b60405163125c65b960e21b815280611f7460048201611fcc565b90610378939291611f82565b6007815260209081015b665265776172647360c81b81520190565b602080825261035291016120fa565b90916060828403126103675761035261213d8484611a5d565b93604061214d8260208701611a5d565b9401611a5d565b61035290611232565b6103529054612154565b610352610352610352926001600160801b031690565b6103529060801c611232565b610352905461217d565b6103529060c01c611232565b6103529054612193565b906020828203126103675761035291610fe9565b91946121fc61129f929897956121f260a0966121eb6103789a6121e460c08a019e5f8b0152565b6020890152565b6040870152565b60ff166060850152565b61ffff166080830152565b905f91612217611032600a610f2a565b6122205f610f41565b906122336001600160a01b038316611046565b146124145761225861104661224b611032600b610f2a565b926001600160a01b031690565b146120d4575f61226c61035283600661123e565b0190612276825490565b6122826113105f611186565b146124075760606122b19161229a611032600b610f2a565b60405193849283918291630166b5c560e61b611c33565b03915afa91821561110f575f915f936123d3575b506122cf5f611186565b945b6122dc610352835490565b8610156123cc576122f0611ec2878461145c565b60206123066123016001840161215d565b61472c565b915f612315611032600a610f2a565b9101906123296123248361139b565b612167565b9161234761233c61234161233c84612189565b611627565b9261219f565b926123708a8a61235660405190565b9889978896879663673ad28760e11b8852600488016121bd565b03915afa801561110f576123969261238f925f9261239c575b5061136c565b9560010190565b946122d1565b6123be91925060203d81116123c5575b6123b68183610f5e565b8101906121a9565b905f612389565b503d6123ac565b9450505050565b9092506123f8915060603d606011612400575b6123f08183610f5e565b810190612124565b9290926122c5565b503d6123e6565b505090506103525f611186565b60405163125c65b960e21b815280611f7460048201612115565b612436614431565b6111306124416144ad565b61037861244e6005611152565b6111735761037861249c565b61035262015180611186565b610352683635c9adc5dea00000611186565b61248a906001600160401b031661141c565b01906001600160401b0382116112e657565b6124aa61035233600661123e565b906124b361245a565b6124bd814261130a565b6124d66113106103526124d133600861123e565b611338565b116126f9575b506124e6336130d0565b916124f05f611186565b83146126e8576007612509846117266124d1338561123e565b612511612466565b9081106126b6575061252761253a91339061123e565b6125348561172683611338565b90611351565b6125435f611186565b815482908210156125c757611ec28261255b9261145c565b600181016125688161215d565b61257461141c5f611225565b11918261259b575b505061258a57600101612543565b633b20f1c360e21b5f908152600490fd5b6125be9250906125b86125b25f61233c9401612189565b9161215d565b90612478565b42105f8061257c565b505091906125ec6125e56116e16125df6116d66112a9565b856112c8565b8093611324565b916125f630610699565b31612607611310610352848761136c565b106126a55761261542611225565b9161261f5f611186565b8554869082101561264957906118db855f61263d846126449661145c565b50016114fb565b61261f565b50509361265c9260016117c992016114c0565b61266e8161266933610699565b6148a6565b7f7084f5476618d8e60b11ef0d7d3f06914655adb8793e28ff7f018d4c76d505d561183161269b33610699565b9261063960405190565b631e9acf1760e31b5f908152600490fd5b6126d2611182916126cc6124d15f95339061123e565b90611324565b631aefe80360e21b835260048301526024820190565b63afb0be3360e01b5f908152600490fd5b61272d61233c612728612738936127226127125f611186565b61271d33600761123e565b611351565b4261130a565b611225565b61271d33600861123e565b5f6124dc565b61037861242e565b61274e61470f565b610378610378614954565b610378612746565b91906127706103466009610f2a565b3303611fa157610378926127e7565b600c815260209081015b6b23b0b6b4b334b1b0ba34b7b760a11b81520190565b6020808252610352910161277f565b61038e90611186565b6127e061037894610ad5606094989795610ace608086019a5f8701906001600160a01b03169052565b01906127ae565b90916127f6611032600c610f2a565b6128056110466103465f610f41565b1461286457612817611032600c610f2a565b803b1561036757601e935f809461209d61283060405190565b978896879586947fff7e5730000000000000000000000000000000000000000000000000000000005b8652600486016127b7565b60405163125c65b960e21b815280611f746004820161279f565b906103789291612761565b906103789161289661470f565b6128b5565b91602061037892949361129f60408201965f8301906104b5565b6128c2611032600b610f2a565b6128d16110466103465f610f41565b146120d4576128e3611032600b610f2a565b91823b156103675761209d925f92836128fb60405190565b80968195829461290f6395e505d860e01b90565b84526004840161289b565b9061037891612889565b369037565b90610378612939611a26846119a8565b601f190160208401612924565b9050519061037882610355565b90929192612963610fc182611991565b938185526020808601920283019281841161036757915b8383106129875750505050565b602080916129958486612946565b81520192019161297a565b9080601f8301121561036757815161035292602001612953565b919060608382031261036757610ad59060406129d66060610f84565b946129e18382610fdc565b86526129f08360208301610fe9565b602087015201610fe9565b90929192612a0b610fc182611991565b93818552606060208601920283019281841161036757915b838310612a305750505050565b6020606091612a3f84866129ba565b815201920191612a23565b9080601f83011215610367578151610352926020016129fb565b90916060828403126103675781516001600160401b0381116103675783612a8c9184016129a0565b926020830151906001600160401b03821161036757604061101282610352948701612a4a565b9160206103789294936127e060408201965f8301906127ae565b916020610378929493610adc60408201965f8301906127ae565b612af3611032600c610f2a565b612b026110466103465f610f41565b14612bfe57612b14611032600c610f2a565b631fc8ee5e5f612b2360405190565b8093612b2f8460e01b90565b82528180612b4260018660048401612ab2565b03915afa91821561110f575f92612be1575b50612b5e5f611186565b8214612bce57612b9d915f91612b91612b7a611032600c610f2a565b91612b8460405190565b9586948593849360e01b90565b83528660048401612acc565b03915afa90811561110f575f91612bb2575090565b611da091503d805f833e612bc68183610f5e565b810190612a64565b5050610352612bdc5f611186565b612929565b612bf69192503d805f833e612bc68183610f5e565b929150612b54565b610352612bdc5f611186565b61037890612c1661470f565b612c56565b3d15612c3457612c2a3d610fb4565b903d5f602084013e565b606090565b6001600160a01b0390911681526040810192916103789160200152565b612c5f5f611186565b81148015612d19575b612d0857612c766002610f2a565b612c856110466103465f610f41565b14612d0857612cb55f80612c9f6110326110326002610f2a565b6040515f9186905af1612cb0612c1b565b501590565b612ce6577f23d6711a1d031134a36921253c75aa59e967d38e369ac625992824315e204f2061183161269b33610699565b6111825f91612cf56002610f2a565b63d3cc1fd760e01b845260048401612c39565b63e6c4247b60e01b5f908152600490fd5b50612d2a612d2630610699565b3190565b8111612c68565b61037890612c0a565b61103290612d4a9281019061037a565b612d57611032600c610f2a565b612d666110466103465f610f41565b1461286457612d7481612207565b612d7d5f611186565b81146126e857612d9161035283600661123e565b92612d9b82611379565b91612db0600186016117548561174f8361139b565b612dfe5f612dbd42611225565b96019384612ddb612dcc61143e565b6001600160801b039093168352565b6001600160401b0388166020830181905260408301525b6117c46117b45f611225565b612e075f611186565b612e12610352855490565b811015612e3157806118db875f61263d612e2c958961145c565b612e07565b509291509250612e44611032600c610f2a565b803b15610367575f612e5560405190565b630c1cca1760e21b81526001600160a01b0384166004820152918290602490829084905af1801561110f577fc16de066392da7e40ceccb739c331fc48a2e76bf147449613c48023d960eec32926118319261269b92612eb5575b50610699565b612ec4905f6118bd8183610f5e565b5f612eaf565b6103529060a01c6106eb565b6103529054612eca565b6103525f612ed6565b61037890612ef561470f565b612f016103465f610f41565b6001600160a01b03821614612d085761037890612f63565b906001600160a01b0390611347565b90612f3861035261136892610699565b8254612f19565b600c90612789565b61035290612f3f565b60405180612f5d81612f47565b03902090565b612f70611032600c610f2a565b90612f84612f7d82610699565b600c612f28565b612f9e612f98612f92612f50565b93610699565b91610699565b917fe5340bb646fa554a3082f7baa2b415eb1874ff7d4c3f118686180386e71f738e612fc960405190565b5f90a4565b61037890612ee9565b90612fe56103466009610f2a565b3303611fa15761037891612ffc611032600c610f2a565b61300b6110466103465f610f41565b146128645761301d611032600c610f2a565b91823b156103675761209d9260025f809461303760405190565b968795869485936375af487760e01b8552600485016115fd565b9061037891612fd7565b9061306a61035283600661123e565b9160018301916103526130a161309b6130955f61308f6130898961139b565b976130d0565b98015490565b95612189565b93612167565b949392611627565b6130c761037894610ad5606094989795610ace608086019a5f870152565b019060ff169052565b905f916130e0611032600a610f2a565b6130ef6110466103465f610f41565b14612414576131036103525f92600661123e565b0180546131126113105f611186565b146131da576131205f611186565b925b61312d610352835490565b8410156131d557613141611ec2858461145c565b60206131526123016001840161215d565b915f613161611032600a610f2a565b9101906131706123248361139b565b9161318361233c61234161233c84612189565b926131aa61319060405190565b9687958694859463026a6d1f60e41b8652600486016130a9565b03915afa801561110f576131cf926131c8925f9261239c575061136c565b9360010190565b92613122565b925050565b5090506103525f611186565b610378906131f261470f565b6131fe6103465f610f41565b6001600160a01b03821614612d085761037890613234565b600790612104565b61035290613216565b60405180612f5d8161321e565b613241611032600a610f2a565b9061325561324e82610699565b600a612f28565b612f9e612f98612f92613227565b610378906131e6565b61327461470f565b6103786103786132835f610f41565b61495c565b61037861326c565b61329861470f565b6103786103786149e0565b610378613290565b6132b3614431565b6111306132be6144ad565b6103786132cb6005611152565b61117357610378613389565b6103529060026112c8565b905f036115b9575f808255600190910155565b818110613300575050565b8061330d5f6002936132e2565b016132f5565b91909182821061332257505050565b61334461333a613334610378956132d7565b936132d7565b915f5260205f2090565b91820191016132f5565b90600160401b8111610f7f5781613366610378935490565b90828155613313565b5f6103789161334e565b905f036115b9576103789061336f565b61339761035233600661123e565b9060018201906133a68261139b565b6133b26113b35f611379565b1461353c576133c05f611186565b8354849082101561342757611ec2826133d89261145c565b600181016133e58161215d565b6133f161141c5f611225565b119182613407575b505061258a576001016133c0565b61341e9250906125b86125b25f61233c9401612189565b42105f806133f9565b50509190613434336130d0565b9061345d6116e161344b846117266123248661139b565b936134576116d66112a9565b906112c8565b906134688284611324565b9361347230610699565b31613483611310610352868961136c565b106126a5576134ec936134bd5f8061172b946134b76134cc976134a861155e85611379565b6134b142611225565b906114c0565b01613379565b6134c76003611338565b611324565b6134d66004611338565b6134e26113105f611186565b11613526576144c0565b6134f98161266933610699565b7fd7a4aa9f3dca5f6606ac15d7e1850920201bbb02c38cd986793779f58ae0dfd361183161269b33610699565b6117c96118e16135366004611338565b5f190190565b636f16c5e960e11b5f908152600490fd5b6103786132ab565b906135636103466009610f2a565b3303611fa1576103789161357a611032600b610f2a565b6135896110466103465f610f41565b146120d45761359b611032600b610f2a565b91823b156103675761209d925f92836135b360405190565b8096819582946135c7638925781760e01b90565b845260048401612c39565b9061037891613555565b91906135eb6103466009610f2a565b3303611fa157610378929091613604611032600c610f2a565b6136136110466103465f610f41565b1461286457613625611032600c610f2a565b803b1561036757601e935f809461209d61363e60405190565b97889687958694630ac9679360e41b612859565b9061037892916135dc565b6103525f610f2a565b612052610352916136745f90565b50600d611ee9565b6103789061368861470f565b6136946103465f610f41565b6001600160a01b03821614612d0857610378906136c2612f986136b76002610f2a565b611032846002612f28565b907f4ab5be82436d353e61ca18726e984e561f5c1cc7c6d38b29d2553c790434705a6136ed60405190565b5f90a3565b6103789061367c565b9060608282031261036757610352916129ba565b61371c611032600c610f2a565b6137255f610f41565b906137386001600160a01b038316611046565b14158061379a575b6137935761375761104661224b611032600b610f2a565b1461378e575f61376e91611c20611032600b610f2a565b03915afa801561110f57613788915f91611ea8575061456b565b91505090565b505f90565b5050600190565b506137a8611032600c610f2a565b60606137b360405190565b6306655b9760e21b81526001600160a01b038516600482015291829060249082905afa90811561110f576137f2915f9182916137f7575b500151151590565b613740565b613819915060603d60601161381f575b6138118183610f5e565b8101906136fb565b5f6137ea565b503d613807565b6103789061383261470f565b61383e6103465f610f41565b6001600160a01b03821614612d0857610378906009612f28565b61037890613826565b61035290612207565b613877611032600b610f2a565b6138866110466103465f610f41565b14611ec257606061389e9161229a611032600b610f2a565b03915afa90811561110f575f916138ee575b506138ba5f611254565b61ffff821614611ec257906138e86138dd6138d761035294611273565b836112c8565b6116e9612710611186565b9061136c565b613907915060603d606011612400576123f08183610f5e565b506138b0565b61035260e0610f84565b61391f61390d565b9060608252602080808080808088015f8152015f6119d6565b610352613917565b610352600a6115e7565b9092919261395a610fc182611991565b938185526020808601920283019281841161036757915b83831061397e5750505050565b6020809161398c8486610fe9565b815201920191613971565b9080601f830112156103675781516103529260200161394a565b60ff8116610360565b90505190610378826139b1565b91909160a081840312610367576139de60a0610f84565b925f8201516001600160401b0381116103675782613a0383608093613a419601613997565b8652613a128360208301611a5d565b6020870152613a248360408301611a5d565b6040870152613a368360608301611a5d565b6060870152016139ba565b6080830152565b906020828203126103675781516001600160401b0381116103675761035292016139c7565b909160608284031261036757610352613a868484610fe9565b9360406110128260208701611a5d565b90613a9f613938565b8092613ab6613aac613940565b60ff166060840152565b613ac2612bdc5f611186565b8252815f92613ad4611032600b610f2a565b90613ade5f610f41565b91613af16001600160a01b038416611046565b03613c30575b50613b0b61104661224b611032600c610f2a565b03613b41575b60c091500190613b246120578351151590565b9081613b39575b50613b335750565b60019052565b90505f613b2b565b613b4e611032600c610f2a565b916060613b5a60405190565b6326a13d5360e21b81526001600160a01b038316600482015293849060249082905afa90811561110f57613ba9606092613bcd955f905f92613bfd575b5060208601525b61ffff166040850152565b613bb6611032600c610f2a565b604051948592839182916306655b9760e21b611c33565b03915afa801561110f575f613bed9160c09482916137f757500151151590565b15613b1157600181830152613b11565b613b9e9250613c229150853d8711613c29575b613c1a8183610f5e565b810190613a6d565b5091613b97565b503d613c10565b909350613c40611032600b610f2a565b905f613c4b60405190565b635f9bddb560e11b81526001600160a01b038616600482015292839060249082905afa91821561110f57613c95926121fc926020925f92613d00575b5081519052015161ffff1690565b613ca2611032600b610f2a565b925f613cad60405190565b63eb97e4eb60e01b81526001600160a01b038516600482015294859060249082905afa93841561110f57613cfa94613ceb915f91611ea8575061456b565b61ffff90921660a08501525093565b5f613af7565b613d1d9192503d805f833e613d158183610f5e565b810190613a48565b905f613c87565b906020828203126103675761035291611a5d565b613d45611032600b610f2a565b613d546110466103465f610f41565b14613dc7576020613d8991613d6c611032600b610f2a565b60405193849283918291634411ac5f60e01b835260048301611fdb565b03915afa90811561110f575f91613d9e575090565b610352915060203d602011613dc0575b613db88183610f5e565b810190613d24565b503d613dae565b506103525f611254565b613dd9614431565b611130613de46144ad565b610378613df16005611152565b61117357610378613e0661035233600661123e565b90613e0f61245a565b613e19814261130a565b613e2d6113106103526124d133600861123e565b11613f5c575b50613e3d33612207565b91613e475f611186565b83146126e8576007613e60846117266124d1338561123e565b613e68612466565b9081106126b65750612527613e7e91339061123e565b613e875f611186565b81548290821015613eee57611ec282613e9f9261145c565b60018101613eac8161215d565b613eb861141c5f611225565b119182613ece575b505061258a57600101613e87565b613ee59250906125b86125b25f61233c9401612189565b42105f80613ec0565b50509190613f066125e56116e16125df6116d66112a9565b91613f1030610699565b31613f21611310610352848761136c565b106126a557613f2f42611225565b91613f395f611186565b8554869082101561264957906118db855f61263d84613f579661145c565b613f39565b61272d61233c612728613f75936127226127125f611186565b5f613e33565b610378613dd1565b613f90611032600b610f2a565b613f9f6110466103465f610f41565b148015613fe3575b611ec2575f613fbd91611c20611032600b610f2a565b03915afa801561110f57613fd7915f91611ea8575061456b565b505080611e365f611254565b50613fed5f611186565b8214613fa7565b6103789061400061470f565b61400c6103465f610f41565b6001600160a01b03821614612d085761037890614042565b600690611fbc565b61035290614024565b60405180612f5d8161402c565b61404f611032600b610f2a565b9061406361405c82610699565b600b612f28565b612f9e612f98612f92614035565b61037890613ff4565b91906040838203126103675761035290602061214d8286611a50565b6140a3611032600b610f2a565b6140b26110466103465f610f41565b1461378e5760406140ea916140ca611032600b610f2a565b604051938492839182916239f9d560ea1b83526004830190815260200190565b03915afa801561110f57610352915f91614105575b50614552565b614127915060403d60401161412c575b61411f8183610f5e565b81019061407a565b6140ff565b503d614115565b6103789061413f61470f565b61419f565b1561414b57565b60405162461bcd60e51b815260206004820152602660248201527f4f776e61626c653a206e6577206f776e657220697320746865207a65726f206160448201526564647265737360d01b6064820152608490fd5b610378906132836141b26103465f610f41565b6001600160a01b0383161415614144565b61037890614133565b60405162461bcd60e51b815260206004820152600e60248201526d4e6f74206170706c696361626c6560901b6044820152606490fd5b61420a614431565b6111306142156144ad565b6103786142226005611152565b6111735761037861423761035233600661123e565b90614241336130d0565b9061424b5f611186565b82146126e85761425a82611379565b9061426f600185016117548461174f8361139b565b6142a65f61427c42611225565b9501928361428b612dcc61143e565b6001600160401b038716602083018190526040830152612df2565b6142af5f611186565b6142ba610352845490565b8110156142d957806118db865f61263d6142d4958861145c565b6142af565b509250506142ea611032600c610f2a565b6142f96110466103465f610f41565b0361432c575b7fc16de066392da7e40ceccb739c331fc48a2e76bf147449613c48023d960eec3261183161269b33610699565b614339611032600c610f2a565b803b15610367575f61434a60405190565b9182906375af487760e01b825281838161436a88600133600485016115fd565b03925af1801561110f5761437f575b506142ff565b61438e905f6118bd8183610f5e565b5f614379565b610378614202565b6143a533610699565b7fe37b2ae9cc03ec700b9146c4df2fc797e7a1119c08fc25513755ab5315faa6d26143cf60405190565b806118314234836111a4565b6103526002611186565b156143ec57565b60405162461bcd60e51b815260206004820152601f60248201527f5265656e7472616e637947756172643a207265656e7472616e742063616c6c006044820152606490fd5b61037861443e6001611338565b6144526144496143db565b918214156143e5565b6001611351565b6103526001611186565b610378614452614459565b1561447557565b60405162461bcd60e51b815260206004820152601060248201526f14185d5cd8589b194e881c185d5cd95960821b6044820152606490fd5b6103786144bb612057612ee0565b61446e565b6144ca6002610f2a565b6144d96110466103465f610f41565b14612d08576144f35f80612c9f6110326110326002610f2a565b612ce6577fe37b2ae9cc03ec700b9146c4df2fc797e7a1119c08fc25513755ab5315faa6d26118316145286110326002610f2a565b9261453260405190565b9182914290836111a4565b61454d6103526103529260ff1690565b6104c8565b614566610352916145605f90565b506104d2565b61453d565b905f9182806145795f611186565b614584610352855190565b8110156146785761459d61205760a0611d278488611bab565b614608576145b06020611c9c8387611bab565b6145bf6060611cb58488611bab565b6145c960066104a2565b6145d2836104a2565b14801561465e575b61464a575b6145e960056104a2565b6145f2836104a2565b14614635575b5082159081614619575b50614610575b600101614579565b60019150614608565b905061462e61462860046104a2565b916104a2565b145f614602565b936138e86146439295611273565b925f6145f8565b96614658906138e889611273565b966145df565b5061466960076104a2565b614672836104a2565b146145da565b5091509261468761ffff611273565b8082116146b7575b8085116146ad575b506146a46146aa91611254565b93611254565b91565b93506146a4614697565b90508061468f565b156146c657565b60405162461bcd60e51b815280611f74600482016020808252818101527f4f776e61626c653a2063616c6c6572206973206e6f7420746865206f776e6572604082015260600190565b61037861471a61365d565b61472661104633610346565b146146bf565b6147355f611225565b6001600160401b038216146147de5761475062278d00611225565b6001600160401b038216146147d35761476b6276a700611225565b6001600160401b038216146147c85761478662ed4e00611225565b6001600160401b038216146147bd576147a561141c6301e13380611225565b146147b3576103525f6115e7565b61035260046115e7565b5061035260036115e7565b5061035260026115e7565b5061035260016115e7565b506103525f6115e7565b156147ef57565b60405162461bcd60e51b815260206004820152601d60248201527f416464726573733a20696e73756666696369656e742062616c616e63650000006044820152606490fd5b1561483b57565b60405162461bcd60e51b815260206004820152603a60248201527f416464726573733a20756e61626c6520746f2073656e642076616c75652c207260448201527f6563697069656e74206d617920686176652072657665727465640000000000006064820152608490fd5b5f610378926148c682936110326148bc30610699565b84903110156147e8565b906148d060405190565b90818003925af16148df612c1b565b50614834565b6148ed614a34565b61037861491b565b9060ff60a01b9060a01b611347565b9061491461035261136892151590565b82546148f5565b6149255f80614904565b7f5db9ee0a495bf2e6ff9c91a7834c1ba4fdd244a5e8aa4e537bd38aeae4b073aa61494f33610a96565b0390a1565b6103786148e5565b614975612f9861496b5f610f2a565b611032845f612f28565b907f8be0079c531659141344cd1fd0a4f28419497f9722a3daafe3b4186f6b6457e06136ed60405190565b6149a86144ad565b6103786149b660015f614904565b7f62e78cea01bee320cd4e420270b5ea74000d11b0c9f74754ebdbfc544b05a25861494f33610a96565b6103786149a0565b156149ef57565b60405162461bcd60e51b815260206004820152601460248201527f5061757361626c653a206e6f74207061757365640000000000000000000000006044820152606490fd5b610378614a3f612ee0565b6149e856fea26469706673582212205290a90eb44bc1f652230aa223a4d176b65b043db9c7235f303aa867f2edd3e664736f6c634300081c0033",
  "linkReferences": {},
  "deployedLinkReferences": {}
}