{
  "_format": "hh-sol-artifact-1",
  "contractName": "EnhancedSmartStaking",
  "sourceName": "contracts/SmartStaking/EnhancedSmartStakingCore.sol",
  "abi": [
    {
      "inputs": [
        {
          "internalType": "address",
          "name": "_treasury",
          "type": "address"
        }
      ],
      "stateMutability": "nonpayable",
      "type": "constructor"
    },
    {
      "inputs": [
        {
          "internalType": "address",
          "name": "treasury",
          "type": "address"
        },
        {
          "internalType": "uint256",
          "name": "amount",
          "type": "uint256"
        }
      ],
      "name": "CommissionTransferFailed",
      "type": "error"
    },
    {
      "inputs": [],
      "name": "ContractIsMigrated",
      "type": "error"
    },
    {
      "inputs": [
        {
          "internalType": "uint256",
          "name": "availableToWithdraw",
          "type": "uint256"
        }
      ],
      "name": "DailyWithdrawalLimitExceeded",
      "type": "error"
    },
    {
      "inputs": [
        {
          "internalType": "uint256",
          "name": "provided",
          "type": "uint256"
        },
        {
          "internalType": "uint256",
          "name": "maximum",
          "type": "uint256"
        }
      ],
      "name": "DepositTooHigh",
      "type": "error"
    },
    {
      "inputs": [
        {
          "internalType": "uint256",
          "name": "provided",
          "type": "uint256"
        },
        {
          "internalType": "uint256",
          "name": "minimum",
          "type": "uint256"
        }
      ],
      "name": "DepositTooLow",
      "type": "error"
    },
    {
      "inputs": [],
      "name": "FundsAreLocked",
      "type": "error"
    },
    {
      "inputs": [],
      "name": "InsufficientBalance",
      "type": "error"
    },
    {
      "inputs": [],
      "name": "InvalidAddress",
      "type": "error"
    },
    {
      "inputs": [],
      "name": "InvalidLockupDuration",
      "type": "error"
    },
    {
      "inputs": [
        {
          "internalType": "address",
          "name": "user",
          "type": "address"
        },
        {
          "internalType": "uint16",
          "name": "maxDeposits",
          "type": "uint16"
        }
      ],
      "name": "MaxDepositsReached",
      "type": "error"
    },
    {
      "inputs": [
        {
          "internalType": "string",
          "name": "moduleName",
          "type": "string"
        }
      ],
      "name": "ModuleNotSet",
      "type": "error"
    },
    {
      "inputs": [],
      "name": "NoDepositsFound",
      "type": "error"
    },
    {
      "inputs": [],
      "name": "NoRewardsAvailable",
      "type": "error"
    },
    {
      "inputs": [],
      "name": "OnlyMarketplace",
      "type": "error"
    },
    {
      "inputs": [
        {
          "internalType": "enum IStakingIntegration.SkillType",
          "name": "skillType",
          "type": "uint8"
        }
      ],
      "name": "SkillDisabled",
      "type": "error"
    },
    {
      "anonymous": false,
      "inputs": [
        {
          "indexed": true,
          "internalType": "address",
          "name": "user",
          "type": "address"
        },
        {
          "indexed": false,
          "internalType": "uint256",
          "name": "compoundedAmount",
          "type": "uint256"
        }
      ],
      "name": "AutoCompoundTriggered",
      "type": "event"
    },
    {
      "anonymous": false,
      "inputs": [
        {
          "indexed": true,
          "internalType": "address",
          "name": "receiver",
          "type": "address"
        },
        {
          "indexed": false,
          "internalType": "uint256",
          "name": "amount",
          "type": "uint256"
        },
        {
          "indexed": false,
          "internalType": "uint256",
          "name": "timestamp",
          "type": "uint256"
        }
      ],
      "name": "CommissionPaid",
      "type": "event"
    },
    {
      "anonymous": false,
      "inputs": [
        {
          "indexed": true,
          "internalType": "address",
          "name": "user",
          "type": "address"
        },
        {
          "indexed": false,
          "internalType": "uint256",
          "name": "amount",
          "type": "uint256"
        }
      ],
      "name": "Compounded",
      "type": "event"
    },
    {
      "anonymous": false,
      "inputs": [
        {
          "indexed": true,
          "internalType": "address",
          "name": "user",
          "type": "address"
        },
        {
          "indexed": false,
          "internalType": "uint256",
          "name": "amount",
          "type": "uint256"
        },
        {
          "indexed": false,
          "internalType": "uint256",
          "name": "lockupDuration",
          "type": "uint256"
        }
      ],
      "name": "Deposited",
      "type": "event"
    },
    {
      "anonymous": false,
      "inputs": [
        {
          "indexed": true,
          "internalType": "address",
          "name": "user",
          "type": "address"
        },
        {
          "indexed": false,
          "internalType": "uint256",
          "name": "amount",
          "type": "uint256"
        }
      ],
      "name": "EmergencyWithdrawal",
      "type": "event"
    },
    {
      "anonymous": false,
      "inputs": [
        {
          "indexed": true,
          "internalType": "string",
          "name": "moduleName",
          "type": "string"
        },
        {
          "indexed": true,
          "internalType": "address",
          "name": "oldModule",
          "type": "address"
        },
        {
          "indexed": true,
          "internalType": "address",
          "name": "newModule",
          "type": "address"
        }
      ],
      "name": "ModuleUpdated",
      "type": "event"
    },
    {
      "anonymous": false,
      "inputs": [
        {
          "indexed": true,
          "internalType": "address",
          "name": "previousOwner",
          "type": "address"
        },
        {
          "indexed": true,
          "internalType": "address",
          "name": "newOwner",
          "type": "address"
        }
      ],
      "name": "OwnershipTransferred",
      "type": "event"
    },
    {
      "anonymous": false,
      "inputs": [
        {
          "indexed": false,
          "internalType": "address",
          "name": "account",
          "type": "address"
        }
      ],
      "name": "Paused",
      "type": "event"
    },
    {
      "anonymous": false,
      "inputs": [
        {
          "indexed": true,
          "internalType": "address",
          "name": "user",
          "type": "address"
        },
        {
          "indexed": true,
          "internalType": "uint256",
          "name": "nftId",
          "type": "uint256"
        },
        {
          "indexed": false,
          "internalType": "enum IStakingIntegration.SkillType",
          "name": "skillType",
          "type": "uint8"
        },
        {
          "indexed": false,
          "internalType": "uint16",
          "name": "effectValue",
          "type": "uint16"
        }
      ],
      "name": "SkillActivated",
      "type": "event"
    },
    {
      "anonymous": false,
      "inputs": [
        {
          "indexed": true,
          "internalType": "address",
          "name": "user",
          "type": "address"
        },
        {
          "indexed": true,
          "internalType": "uint256",
          "name": "nftId",
          "type": "uint256"
        },
        {
          "indexed": false,
          "internalType": "enum IStakingIntegration.SkillType",
          "name": "skillType",
          "type": "uint8"
        }
      ],
      "name": "SkillDeactivated",
      "type": "event"
    },
    {
      "anonymous": false,
      "inputs": [
        {
          "indexed": true,
          "internalType": "address",
          "name": "user",
          "type": "address"
        },
        {
          "indexed": false,
          "internalType": "uint16",
          "name": "level",
          "type": "uint16"
        },
        {
          "indexed": false,
          "internalType": "uint8",
          "name": "maxActiveSkills",
          "type": "uint8"
        },
        {
          "indexed": false,
          "internalType": "uint16",
          "name": "stakingBoostTotal",
          "type": "uint16"
        }
      ],
      "name": "SkillProfileUpdated",
      "type": "event"
    },
    {
      "anonymous": false,
      "inputs": [
        {
          "indexed": true,
          "internalType": "address",
          "name": "oldTreasury",
          "type": "address"
        },
        {
          "indexed": true,
          "internalType": "address",
          "name": "newTreasury",
          "type": "address"
        }
      ],
      "name": "TreasuryUpdated",
      "type": "event"
    },
    {
      "anonymous": false,
      "inputs": [
        {
          "indexed": false,
          "internalType": "address",
          "name": "account",
          "type": "address"
        }
      ],
      "name": "Unpaused",
      "type": "event"
    },
    {
      "anonymous": false,
      "inputs": [
        {
          "indexed": true,
          "internalType": "address",
          "name": "user",
          "type": "address"
        },
        {
          "indexed": false,
          "internalType": "uint256",
          "name": "totalAmount",
          "type": "uint256"
        }
      ],
      "name": "WithdrawAll",
      "type": "event"
    },
    {
      "anonymous": false,
      "inputs": [
        {
          "indexed": true,
          "internalType": "address",
          "name": "user",
          "type": "address"
        },
        {
          "indexed": false,
          "internalType": "uint256",
          "name": "amount",
          "type": "uint256"
        }
      ],
      "name": "Withdrawn",
      "type": "event"
    },
    {
      "inputs": [
        {
          "internalType": "address",
          "name": "user",
          "type": "address"
        },
        {
          "internalType": "uint256",
          "name": "baseAPY",
          "type": "uint256"
        }
      ],
      "name": "calculateBoostedAPY",
      "outputs": [
        {
          "internalType": "uint256",
          "name": "",
          "type": "uint256"
        }
      ],
      "stateMutability": "view",
      "type": "function"
    },
    {
      "inputs": [
        {
          "internalType": "address",
          "name": "userAddress",
          "type": "address"
        }
      ],
      "name": "calculateBoostedRewards",
      "outputs": [
        {
          "internalType": "uint256",
          "name": "totalRewards",
          "type": "uint256"
        }
      ],
      "stateMutability": "view",
      "type": "function"
    },
    {
      "inputs": [
        {
          "internalType": "address",
          "name": "userAddress",
          "type": "address"
        }
      ],
      "name": "calculateBoostedRewardsWithRarityMultiplier",
      "outputs": [
        {
          "internalType": "uint256",
          "name": "",
          "type": "uint256"
        }
      ],
      "stateMutability": "view",
      "type": "function"
    },
    {
      "inputs": [
        {
          "internalType": "address",
          "name": "user",
          "type": "address"
        },
        {
          "internalType": "uint256",
          "name": "baseFee",
          "type": "uint256"
        }
      ],
      "name": "calculateFeeDiscount",
      "outputs": [
        {
          "internalType": "uint256",
          "name": "",
          "type": "uint256"
        }
      ],
      "stateMutability": "view",
      "type": "function"
    },
    {
      "inputs": [
        {
          "internalType": "address",
          "name": "user",
          "type": "address"
        },
        {
          "internalType": "uint256",
          "name": "baseLockTime",
          "type": "uint256"
        }
      ],
      "name": "calculateReducedLockTime",
      "outputs": [
        {
          "internalType": "uint256",
          "name": "",
          "type": "uint256"
        }
      ],
      "stateMutability": "view",
      "type": "function"
    },
    {
      "inputs": [
        {
          "internalType": "address",
          "name": "userAddress",
          "type": "address"
        }
      ],
      "name": "calculateRewards",
      "outputs": [
        {
          "internalType": "uint256",
          "name": "totalRewards",
          "type": "uint256"
        }
      ],
      "stateMutability": "view",
      "type": "function"
    },
    {
      "inputs": [
        {
          "internalType": "address",
          "name": "_newTreasury",
          "type": "address"
        }
      ],
      "name": "changeTreasuryAddress",
      "outputs": [],
      "stateMutability": "nonpayable",
      "type": "function"
    },
    {
      "inputs": [
        {
          "internalType": "address",
          "name": "user",
          "type": "address"
        }
      ],
      "name": "checkAutoCompound",
      "outputs": [
        {
          "internalType": "bool",
          "name": "",
          "type": "bool"
        },
        {
          "internalType": "bytes",
          "name": "",
          "type": "bytes"
        }
      ],
      "stateMutability": "view",
      "type": "function"
    },
    {
      "inputs": [],
      "name": "compound",
      "outputs": [],
      "stateMutability": "nonpayable",
      "type": "function"
    },
    {
      "inputs": [
        {
          "internalType": "uint64",
          "name": "_lockupDuration",
          "type": "uint64"
        }
      ],
      "name": "deposit",
      "outputs": [],
      "stateMutability": "payable",
      "type": "function"
    },
    {
      "inputs": [
        {
          "internalType": "uint256",
          "name": "_amount",
          "type": "uint256"
        }
      ],
      "name": "emergencyWithdraw",
      "outputs": [],
      "stateMutability": "nonpayable",
      "type": "function"
    },
    {
      "inputs": [],
      "name": "gamificationModule",
      "outputs": [
        {
          "internalType": "contract IEnhancedSmartStakingGamification",
          "name": "",
          "type": "address"
        }
      ],
      "stateMutability": "view",
      "type": "function"
    },
    {
      "inputs": [
        {
          "internalType": "address",
          "name": "user",
          "type": "address"
        }
      ],
      "name": "getActiveSkills",
      "outputs": [
        {
          "components": [
            {
              "internalType": "enum IStakingIntegration.SkillType",
              "name": "skillType",
              "type": "uint8"
            },
            {
              "internalType": "uint16",
              "name": "effectValue",
              "type": "uint16"
            },
            {
              "internalType": "enum IStakingIntegration.Rarity",
              "name": "rarity",
              "type": "uint8"
            },
            {
              "internalType": "uint64",
              "name": "activatedAt",
              "type": "uint64"
            },
            {
              "internalType": "uint64",
              "name": "cooldownEnds",
              "type": "uint64"
            },
            {
              "internalType": "bool",
              "name": "isActive",
              "type": "bool"
            }
          ],
          "internalType": "struct IStakingIntegration.NFTSkill[]",
          "name": "",
          "type": "tuple[]"
        }
      ],
      "stateMutability": "view",
      "type": "function"
    },
    {
      "inputs": [],
      "name": "getAutoCompoundUsers",
      "outputs": [
        {
          "internalType": "address[]",
          "name": "autoUsers",
          "type": "address[]"
        }
      ],
      "stateMutability": "view",
      "type": "function"
    },
    {
      "inputs": [
        {
          "internalType": "address",
          "name": "userAddress",
          "type": "address"
        }
      ],
      "name": "getUserInfo",
      "outputs": [
        {
          "internalType": "uint256",
          "name": "totalDeposited",
          "type": "uint256"
        },
        {
          "internalType": "uint256",
          "name": "totalRewards",
          "type": "uint256"
        },
        {
          "internalType": "uint256",
          "name": "depositCount",
          "type": "uint256"
        },
        {
          "internalType": "uint256",
          "name": "lastWithdrawTime",
          "type": "uint256"
        }
      ],
      "stateMutability": "view",
      "type": "function"
    },
    {
      "inputs": [
        {
          "internalType": "address",
          "name": "user",
          "type": "address"
        }
      ],
      "name": "getUserSkillProfile",
      "outputs": [
        {
          "components": [
            {
              "internalType": "uint256[]",
              "name": "activeNFTIds",
              "type": "uint256[]"
            },
            {
              "internalType": "uint256",
              "name": "totalXP",
              "type": "uint256"
            },
            {
              "internalType": "uint16",
              "name": "level",
              "type": "uint16"
            },
            {
              "internalType": "uint8",
              "name": "maxActiveSkills",
              "type": "uint8"
            },
            {
              "internalType": "uint16",
              "name": "stakingBoostTotal",
              "type": "uint16"
            },
            {
              "internalType": "uint16",
              "name": "feeDiscountTotal",
              "type": "uint16"
            },
            {
              "internalType": "bool",
              "name": "hasAutoCompound",
              "type": "bool"
            }
          ],
          "internalType": "struct IStakingIntegration.UserSkillProfile",
          "name": "profile",
          "type": "tuple"
        }
      ],
      "stateMutability": "view",
      "type": "function"
    },
    {
      "inputs": [
        {
          "internalType": "address",
          "name": "user",
          "type": "address"
        }
      ],
      "name": "hasAutoCompound",
      "outputs": [
        {
          "internalType": "bool",
          "name": "",
          "type": "bool"
        }
      ],
      "stateMutability": "view",
      "type": "function"
    },
    {
      "inputs": [],
      "name": "marketplaceContract",
      "outputs": [
        {
          "internalType": "address",
          "name": "",
          "type": "address"
        }
      ],
      "stateMutability": "view",
      "type": "function"
    },
    {
      "inputs": [],
      "name": "migrated",
      "outputs": [
        {
          "internalType": "bool",
          "name": "",
          "type": "bool"
        }
      ],
      "stateMutability": "view",
      "type": "function"
    },
    {
      "inputs": [],
      "name": "newContractAddress",
      "outputs": [
        {
          "internalType": "address",
          "name": "",
          "type": "address"
        }
      ],
      "stateMutability": "view",
      "type": "function"
    },
    {
      "inputs": [
        {
          "internalType": "uint256",
          "name": "nftId",
          "type": "uint256"
        }
      ],
      "name": "nftRarity",
      "outputs": [
        {
          "internalType": "enum IStakingIntegration.Rarity",
          "name": "",
          "type": "uint8"
        }
      ],
      "stateMutability": "view",
      "type": "function"
    },
    {
      "inputs": [
        {
          "internalType": "address",
          "name": "user",
          "type": "address"
        },
        {
          "internalType": "uint256",
          "name": "achievementId",
          "type": "uint256"
        },
        {
          "internalType": "uint256",
          "name": "rewardAmount",
          "type": "uint256"
        }
      ],
      "name": "notifyAchievementUnlocked",
      "outputs": [],
      "stateMutability": "nonpayable",
      "type": "function"
    },
    {
      "inputs": [
        {
          "internalType": "address",
          "name": "user",
          "type": "address"
        },
        {
          "internalType": "uint256",
          "name": "questId",
          "type": "uint256"
        },
        {
          "internalType": "uint256",
          "name": "rewardAmount",
          "type": "uint256"
        }
      ],
      "name": "notifyQuestCompletion",
      "outputs": [],
      "stateMutability": "nonpayable",
      "type": "function"
    },
    {
      "inputs": [
        {
          "internalType": "address",
          "name": "user",
          "type": "address"
        },
        {
          "internalType": "uint256",
          "name": "nftId",
          "type": "uint256"
        },
        {
          "internalType": "enum IStakingIntegration.SkillType",
          "name": "skillType",
          "type": "uint8"
        },
        {
          "internalType": "uint16",
          "name": "effectValue",
          "type": "uint16"
        }
      ],
      "name": "notifySkillActivation",
      "outputs": [],
      "stateMutability": "nonpayable",
      "type": "function"
    },
    {
      "inputs": [
        {
          "internalType": "address",
          "name": "user",
          "type": "address"
        },
        {
          "internalType": "uint256",
          "name": "nftId",
          "type": "uint256"
        }
      ],
      "name": "notifySkillDeactivation",
      "outputs": [],
      "stateMutability": "nonpayable",
      "type": "function"
    },
    {
      "inputs": [],
      "name": "owner",
      "outputs": [
        {
          "internalType": "address",
          "name": "",
          "type": "address"
        }
      ],
      "stateMutability": "view",
      "type": "function"
    },
    {
      "inputs": [],
      "name": "pause",
      "outputs": [],
      "stateMutability": "nonpayable",
      "type": "function"
    },
    {
      "inputs": [],
      "name": "paused",
      "outputs": [
        {
          "internalType": "bool",
          "name": "",
          "type": "bool"
        }
      ],
      "stateMutability": "view",
      "type": "function"
    },
    {
      "inputs": [
        {
          "internalType": "bytes",
          "name": "performData",
          "type": "bytes"
        }
      ],
      "name": "performAutoCompound",
      "outputs": [],
      "stateMutability": "nonpayable",
      "type": "function"
    },
    {
      "inputs": [],
      "name": "renounceOwnership",
      "outputs": [],
      "stateMutability": "nonpayable",
      "type": "function"
    },
    {
      "inputs": [],
      "name": "rewardsModule",
      "outputs": [
        {
          "internalType": "contract IEnhancedSmartStakingRewards",
          "name": "",
          "type": "address"
        }
      ],
      "stateMutability": "view",
      "type": "function"
    },
    {
      "inputs": [
        {
          "internalType": "address",
          "name": "_gamificationModule",
          "type": "address"
        }
      ],
      "name": "setGamificationModule",
      "outputs": [],
      "stateMutability": "nonpayable",
      "type": "function"
    },
    {
      "inputs": [
        {
          "internalType": "address",
          "name": "_marketplace",
          "type": "address"
        }
      ],
      "name": "setMarketplaceAddress",
      "outputs": [],
      "stateMutability": "nonpayable",
      "type": "function"
    },
    {
      "inputs": [
        {
          "internalType": "address",
          "name": "_rewardsModule",
          "type": "address"
        }
      ],
      "name": "setRewardsModule",
      "outputs": [],
      "stateMutability": "nonpayable",
      "type": "function"
    },
    {
      "inputs": [
        {
          "internalType": "enum IStakingIntegration.SkillType",
          "name": "skillType",
          "type": "uint8"
        },
        {
          "internalType": "bool",
          "name": "enabled",
          "type": "bool"
        }
      ],
      "name": "setSkillEnabled",
      "outputs": [],
      "stateMutability": "nonpayable",
      "type": "function"
    },
    {
      "inputs": [
        {
          "internalType": "address",
          "name": "_skillsModule",
          "type": "address"
        }
      ],
      "name": "setSkillsModule",
      "outputs": [],
      "stateMutability": "nonpayable",
      "type": "function"
    },
    {
      "inputs": [
        {
          "internalType": "address",
          "name": "",
          "type": "address"
        }
      ],
      "name": "setStakingAddress",
      "outputs": [],
      "stateMutability": "pure",
      "type": "function"
    },
    {
      "inputs": [
        {
          "internalType": "enum IStakingIntegration.SkillType",
          "name": "skillType",
          "type": "uint8"
        }
      ],
      "name": "skillDefaultEffects",
      "outputs": [
        {
          "internalType": "uint16",
          "name": "",
          "type": "uint16"
        }
      ],
      "stateMutability": "view",
      "type": "function"
    },
    {
      "inputs": [
        {
          "internalType": "enum IStakingIntegration.SkillType",
          "name": "skillType",
          "type": "uint8"
        }
      ],
      "name": "skillEnabled",
      "outputs": [
        {
          "internalType": "bool",
          "name": "",
          "type": "bool"
        }
      ],
      "stateMutability": "view",
      "type": "function"
    },
    {
      "inputs": [],
      "name": "skillsModule",
      "outputs": [
        {
          "internalType": "contract IEnhancedSmartStakingSkills",
          "name": "",
          "type": "address"
        }
      ],
      "stateMutability": "view",
      "type": "function"
    },
    {
      "inputs": [],
      "name": "totalPoolBalance",
      "outputs": [
        {
          "internalType": "uint256",
          "name": "",
          "type": "uint256"
        }
      ],
      "stateMutability": "view",
      "type": "function"
    },
    {
      "inputs": [
        {
          "internalType": "address",
          "name": "newOwner",
          "type": "address"
        }
      ],
      "name": "transferOwnership",
      "outputs": [],
      "stateMutability": "nonpayable",
      "type": "function"
    },
    {
      "inputs": [],
      "name": "treasury",
      "outputs": [
        {
          "internalType": "address",
          "name": "",
          "type": "address"
        }
      ],
      "stateMutability": "view",
      "type": "function"
    },
    {
      "inputs": [],
      "name": "uniqueUsersCount",
      "outputs": [
        {
          "internalType": "uint256",
          "name": "",
          "type": "uint256"
        }
      ],
      "stateMutability": "view",
      "type": "function"
    },
    {
      "inputs": [],
      "name": "unpause",
      "outputs": [],
      "stateMutability": "nonpayable",
      "type": "function"
    },
    {
      "inputs": [
        {
          "internalType": "enum IStakingIntegration.SkillType",
          "name": "skillType",
          "type": "uint8"
        },
        {
          "internalType": "uint16",
          "name": "newEffectValue",
          "type": "uint16"
        }
      ],
      "name": "updateSkillEffect",
      "outputs": [],
      "stateMutability": "nonpayable",
      "type": "function"
    },
    {
      "inputs": [
        {
          "internalType": "address",
          "name": "user",
          "type": "address"
        },
        {
          "internalType": "uint256",
          "name": "xpGained",
          "type": "uint256"
        }
      ],
      "name": "updateUserXP",
      "outputs": [],
      "stateMutability": "nonpayable",
      "type": "function"
    },
    {
      "inputs": [],
      "name": "withdraw",
      "outputs": [],
      "stateMutability": "nonpayable",
      "type": "function"
    },
    {
      "inputs": [],
      "name": "withdrawAll",
      "outputs": [],
      "stateMutability": "nonpayable",
      "type": "function"
    },
    {
      "inputs": [],
      "name": "withdrawBoosted",
      "outputs": [],
      "stateMutability": "nonpayable",
      "type": "function"
    },
    {
      "stateMutability": "payable",
      "type": "receive"
    }
  ],
  "bytecode": "0x60806040523461002a576100196100146100bf565b610149565b6040516147a66103ae82396147a690f35b5f80fd5b634e487b7160e01b5f52604160045260245ffd5b90601f01601f191681019081106001600160401b0382111761006357604052565b61002e565b9061007c61007560405190565b9283610042565b565b6001600160a01b031690565b90565b6001600160a01b0381160361002a57565b9050519061007c8261008d565b9060208282031261002a5761008a9161009e565b61008a614b54803803806100d281610068565b9283398101906100ab565b61007e61008a61008a9290565b61008a906100dd565b906001600160a01b03905b9181191691161790565b61008a9061007e906001600160a01b031682565b61008a90610108565b61008a9061011c565b9061013e61008a61014592610125565b82546100f3565b9055565b610151610190565b61015d61007e5f6100ea565b6001600160a01b0382161461017f5761017790600261012e565b61007c6102e8565b63e6c4247b60e01b5f908152600490fd5b61007c6101cf565b61008a61008a61008a9290565b61008a6001610198565b905f19906100fe565b906101c861008a61014592610198565b82546101af565b6101d761020f565b61007c6101e26101a5565b60016101b8565b9060ff60a01b9060a01b6100fe565b9061020861008a61014592151590565b82546101e9565b610217610221565b61007c5f806101f8565b61007c33610359565b61023761008a61008a9290565b60ff1690565b634e487b7160e01b5f52601160045260245ffd5b60ff1660ff81146102625760010190565b61023d565b634e487b7160e01b5f52602160045260245ffd5b6011111561028557565b610267565b9061007c8261027b565b61008a9061028a565b6102ad61008a61008a9260ff1690565b61028a565b906102bc90610294565b5f5260205260405f2090565b9060ff906100fe565b906102e161008a61014592151590565b82546102c8565b6001806102f5600161022a565b905b6102ff575050565b61030c6102376010610294565b60ff8216116103425761033c829161033783610332600d61032c8561029d565b906102b2565b6102d1565b610251565b906102f7565b5050565b61008a9061007e565b61008a9054610346565b61037d6103776103685f61034f565b610372845f61012e565b610125565b91610125565b907f8be0079c531659141344cd1fd0a4f28419497f9722a3daafe3b4186f6b6457e06103a860405190565b5f90a356fe60806040526004361015610022575b3615610018575f80fd5b610020613e5d565b005b5f3560e01c806311bd459f146103375780631376583814610332578063161ba7811461032d57806318f2f4021461032857806323c8738a146103235780632c678c641461031e5780632f1df47614610319578063313a1954146103145780633bab7a89146102885780633ccfd60b1461026a5780633f4ba83a1461030f5780633fd51fbf1461030a57806349be75bb146103055780634b1d06d7146103005780635026d63e146102fb5780635312ea8e146102f65780635b0df80a146102f15780635c975abb146102ec5780635cb60986146102e75780635efc27d6146102e257806361d027b3146102dd5780636386c1c7146102d857806364ab8675146102d35780636744f776146102ce5780636af04a57146102c9578063715018a6146102c457806375af38f2146102bf5780638456cb59146102ba578063853828b6146102b557806389257817146102b05780638d79bb50146102ab5780638da5cb5b146102a6578063992976aa146102a1578063a6f353f01461029c578063ad29370914610297578063b415ff7a14610292578063b47cc5561461028d578063b907deee14610288578063bece23ba14610283578063bf37bb6a1461027e578063c3f78e3a14610279578063c9f8234f14610274578063d1bb5cf11461026f578063d1cc7bb21461026a578063e8ac834514610265578063ef6c4acf14610260578063f154a5491461025b578063f2fde38b14610256578063f4e0d9ac146102515763f69e20460361000e57610ecc565b610eb7565b610e9f565b610e78565b610e50565b610e34565b61081c565b610e19565b610df3565b610db8565b610d91565b610cbc565b610801565b610ca4565b610c89565b610c6e565b610c4b565b610c30565b610c01565b610be8565b610bcf565b610bb7565b610b9f565b610b84565b610b61565b610b46565b610b22565b610b07565b610ad6565b610a71565b610a4d565b610a35565b610a1a565b610a01565b610991565b610962565b61091a565b6108aa565b610875565b610834565b6107e5565b610779565b6106fd565b6106b1565b61060f565b6105b2565b61045d565b6103fb565b6001600160a01b031690565b90565b6001600160a01b0381165b0361035d57565b5f80fd5b9050359061036e8261034b565b565b9060208282031261035d5761034891610361565b9052565b5f5b8381106103995750505f910152565b818101518382015260200161038a565b6103ca6103d36020936103dd936103be815190565b80835293849260200190565b95869101610388565b601f01601f191690565b0190565b9015158152604060208201819052610348929101906103a9565b3461035d5761041361040e366004610370565b610fe7565b9061042961042060405190565b928392836103e1565b0390f35b6001600160401b038116610356565b9050359061036e8261042d565b9060208282031261035d576103489161043c565b61047061046b366004610449565b61194b565b604051005b634e487b7160e01b5f52602160045260245ffd5b6011111561049357565b610475565b9061036e82610489565b61034890610498565b610384906104a2565b6005111561049357565b9061036e826104b4565b610348906104be565b610384906104c8565b9060a08061036e936104f25f8201515f8601906104ab565b60208181015161ffff1690850152610512604082015160408601906104d1565b6060818101516001600160401b0316908501526080818101516001600160401b0316908501525b01511515910152565b906103dd8160c0936104da565b9061056f61056861055e845190565b8084529260200190565b9260200190565b905f5b81811061057f5750505090565b9091926105996105926001928651610542565b9460200190565b929101610572565b60208082526103489291019061054f565b3461035d576104296105cd6105c8366004610370565b611bb0565b604051918291826105a1565b80610356565b9050359061036e826105d9565b919060408382031261035d576103489060206106088286610361565b94016105df565b3461035d5761042961062b6106253660046105ec565b90611d97565b6040515b9182918290815260200190565b5f91031261035d57565b610348916008021c6001600160a01b031690565b906103489154610646565b6103485f600a61065a565b61033c610348610348926001600160a01b031690565b61034890610670565b61034890610686565b6103849061068f565b60208101929161036e9190610698565b3461035d576106c136600461063c565b6104296106cc610665565b604051918291826106a1565b610348916008021c5b60ff1690565b9061034891546106d8565b6103485f60056106e7565b3461035d5761070d36600461063c565b6104296107186106f2565b60405191829182901515815260200190565b6011111561035d57565b9050359061036e8261072a565b801515610356565b9050359061036e82610741565b919060408382031261035d576103489060206107728286610734565b9401610749565b3461035d5761047061078c366004610756565b90611f3b565b61ffff8116610356565b9050359061036e82610792565b60808183031261035d576107bd8282610361565b926103486107ce84602085016105df565b9360606107de8260408701610734565b940161079c565b3461035d576104706107f83660046107a9565b929190916120b1565b3461035d5761042961062b610817366004610370565b6120bd565b3461035d5761082c36600461063c565b6104706120f5565b3461035d5761084436600461063c565b610470612110565b909160608284031261035d576103486108658484610361565b93604061060882602087016105df565b3461035d5761047061088836600461084c565b91612235565b919060408382031261035d576103489060206107de8286610734565b3461035d576104706108bd36600461088e565b906122d1565b906108d261056861055e845190565b905f5b8181106108e25750505090565b90919261090161059260019286516001600160a01b0316815260200190565b9291016108d5565b6020808252610348929101906108c3565b3461035d5761092a36600461063c565b61042961093561249d565b60405191829182610909565b610348916008021c81565b906103489154610941565b6103485f600361094c565b3461035d5761097236600461063c565b61042961062b610957565b9060208282031261035d57610348916105df565b3461035d576104706109a436600461097d565b6126f2565b909182601f8301121561035d578135916001600160401b03831161035d57602001926001830284011161035d57565b9060208282031261035d5781356001600160401b03811161035d576109fd92016109a9565b9091565b3461035d57610470610a143660046109d8565b906126fb565b3461035d57610a2a36600461063c565b6104296107186128b9565b3461035d57610470610a48366004610370565b6129a7565b3461035d57610470610a603660046105ec565b90612a2a565b6103485f600261065a565b3461035d57610a8136600461063c565b610429610a8c610a66565b604051918291826001600160a01b03909116815260200190565b610ad261036e94610acb606094989795610ac4608086019a5f870152565b6020850152565b6040830152565b0152565b3461035d57610429610af1610aec366004610370565b612a60565b90610afe94929460405190565b94859485610aa6565b3461035d5761042961062b610b1d366004610370565b612b80565b3461035d57610470610b35366004610370565b612e33565b6103486001600561065a565b3461035d57610b5636600461063c565b610429610a8c610b3a565b3461035d57610b7136600461063c565b610470612e58565b6103485f600c61065a565b3461035d57610b9436600461063c565b6104296106cc610b79565b3461035d57610baf36600461063c565b610470612e73565b3461035d57610bc736600461063c565b610470613174565b3461035d57610470610be23660046105ec565b906131f9565b3461035d57610470610bfb36600461084c565b91613279565b3461035d57610c1136600461063c565b610429610a8c613284565b9060208282031261035d5761034891610734565b3461035d57610429610718610c46366004610c1c565b61328d565b3461035d57610470610c5e366004610370565b613319565b6103485f600b61065a565b3461035d57610c7e36600461063c565b6104296106cc610c63565b3461035d57610429610718610c9f366004610370565b613336565b3461035d57610470610cb7366004610370565b61347f565b3461035d5761042961062b610cd23660046105ec565b90613488565b90610ce761056861055e845190565b905f5b818110610cf75750505090565b909192610d0d6105926001928651815260200190565b929101610cea565b906103489060c080610d3460e084015f8701518582035f870152610cd8565b94610d4460208201516020860152565b60408181015161ffff169085015260608181015160ff169085015260808181015161ffff169085015260a08181015161ffff1690850152610539565b602080825261034892910190610d15565b3461035d57610429610dac610da7366004610370565b6136fe565b60405191829182610d80565b3461035d57610429610dd3610dce366004610c1c565b6139ab565b6040519182918261ffff909116815260200190565b6103485f600461094c565b3461035d57610e0336600461063c565b61042961062b610de8565b6103485f600961065a565b3461035d57610e2936600461063c565b610429610a8c610e0e565b3461035d5761042961062b610e4a3660046105ec565b90613a44565b3461035d57610470610e63366004610370565b613b32565b60208101929161036e91906104d1565b3461035d57610429610e93610e8e36600461097d565b613b57565b60405191829182610e68565b3461035d57610470610eb2366004610370565b613c84565b3461035d57610ec7366004610370565b613c8d565b3461035d57610edc36600461063c565b610470613e55565b6103489061033c565b6103489054610ee4565b61033c6103486103489290565b61034890610ef7565b634e487b7160e01b5f52604160045260245ffd5b90601f01601f191681019081106001600160401b03821117610f4257604052565b610f0d565b9061036e610f5460405190565b9283610f21565b6001600160401b038111610f4257602090601f01601f19160190565b90610f89610f8483610f5b565b610f47565b918252565b6103485f610f77565b610348610f8e565b9050519061036e82610741565b9050519061036e826105d9565b919060408382031261035d57610348906020610fd58286610f9f565b9401610fac565b6040513d5f823e3d90fd5b90610ffa610ff5600c610eed565b61068f565b61101661100961033c5f610f04565b916001600160a01b031690565b146110d757611028610ff5600c610eed565b91604061103460405190565b6311bd459f60e01b81526001600160a01b038316600482015293849060249082905afa9283156110d2575f936110a0575b5082156110975761034861107860405190565b6001600160a01b03929092166020808401919091528252604082610f21565b50610348610f97565b6110c391935060403d6040116110cb575b6110bb8183610f21565b810190610fb9565b929092611065565b503d6110b1565b610fdc565b5f9150610348610f97565b6110f3906110ee613ef2565b6110fb565b61036e613f24565b61036e90611107613f6e565b61111f565b610348906106e1565b610348905461110c565b6111296005611115565b6111365761036e9061118d565b63f2bcabb960e01b5f90815260045b035ffd5b6103486103486103489290565b610348678ac7230489e80000611149565b90815260408101929161036e9160200152565b61034869021e19e0c9bab2400000611149565b611195611156565b8034106111cf57506111a561117a565b8034116111b6575061036e9061161f565b6330250a5b60e11b5f9081529061114590346004611167565b63ea691a4b60e01b5f9081529061114590346004611167565b6111f56103486103489290565b6001600160401b031690565b9061120b9061068f565b5f5260205260405f2090565b6112246103486103489290565b61ffff1690565b61034861012c611217565b6103486103486103489261ffff1690565b6001600160a01b03909116815260408101929161036e916020905b019061ffff169052565b610348610258611217565b634e487b7160e01b5f52601160045260245ffd5b9190611296565b9290565b918083029281840414901517156112a957565b611277565b610348612710611149565b634e487b7160e01b5f52601260045260245ffd5b906112d7565b9190565b9081156112e2570490565b6112b9565b919082039182116112a957565b6103489081565b61034890546112f4565b905f19905b9181191691161790565b9061132461034861132b92611149565b8254611305565b9055565b919082018092116112a957565b6113496103486103489290565b6001600160801b031690565b61034890611349565b6103489054611355565b611383906001600160801b03165b916001600160801b031690565b01906001600160801b0382116112a957565b906001600160801b039061130a565b611349610348610348926001600160801b031690565b906113ca61034861132b926113a4565b8254611395565b6113ec906001600160401b03165b916001600160401b031690565b02906001600160401b0382169182036112a957565b6103486080610f47565b634e487b7160e01b5f52603260045260245ffd5b805482101561143f576114376002915f5260205f2090565b910201905f90565b61140b565b634e487b7160e01b5f525f60045260245ffd5b9067ffffffffffffffff60801b9060801b61130a565b6111f5610348610348926001600160401b031690565b9061149361034861132b9261146d565b8254611457565b9077ffffffffffffffffffffffffffffffffffffffffffffffff199060c01b61130a565b906114ce61034861132b9261146d565b825461149a565b906001600160401b039061130a565b906114f461034861132b9261146d565b82546114d5565b61036e91600190611566906060906115588561152761152184516001600160801b031690565b826113ba565b61154461153e60208501516001600160401b031690565b82611483565b60408301516001600160401b0316906114be565b01516001600160401b031690565b91016114e4565b919061157c5761036e916114fb565b611444565b90815491600160401b831015610f4257826115a491600161036e9501815561141f565b9061156d565b6106e16103486103489290565b610384906115aa565b6001600160a01b03909116815260608101939261036e929091604091610ad29060208301906115b7565b610348610348610348926001600160401b031690565b610384906115ea565b90815260408101929161036e9160200190611600565b6116285f6111e8565b6001600160401b03821614158061192f575b80611913575b806118f7575b806118da575b6118c95761165e610348336006611201565b8054909190829061166d61122b565b9061167a6112d383611236565b10156118b057506117919061178c6116b26116a461169e61169961126c565b611236565b3461128b565b6116ac6112ae565b906112cd565b916116bd83346112e7565b956116c6815490565b6116d26112d35f611149565b1461188e575b6116f56116ee886116e960036112fb565b61132f565b6003611314565b61171d60016117038961133c565b9301611717846117128361135e565b611368565b906113ba565b611787611729426111e8565b9161177761174561129261173f620151806111e8565b8b6113d1565b93611760611751611401565b6001600160801b039097168752565b6001600160401b0316602086018190526040860152565b6001600160401b03166060840152565b611581565b613f81565b61179e610ff5600c610eed565b6117ad61100961033c5f610f04565b036117f9575b7f73a19dd210f1a7f902193214c0ee91dd35ee5b4d920cba8d519eca65a7b488ca906117de3361068f565b926117f46117eb60405190565b92839283611609565b0390a2565b611806610ff5600c610eed565b90813b1561035d575f61181860405190565b9283906375af487760e01b8252818381611837898333600485016115c0565b03925af19182156110d2577f73a19dd210f1a7f902193214c0ee91dd35ee5b4d920cba8d519eca65a7b488ca92611871575b5090506117b3565b611888905f6118808183610f21565b81019061063c565b5f611869565b6118ab6118a461189e60046112fb565b60010190565b6004611314565b6116d8565b63756a320d60e11b5f9081529061114590336004611247565b631ab8aa1760e21b5f908152600490fd5b506118e661016d6111e8565b6001600160401b038216141561164c565b5061190260b46111e8565b6001600160401b0382161415611646565b5061191e605a6111e8565b6001600160401b0382161415611640565b5061193a601e6111e8565b6001600160401b038216141561163a565b61036e906110e2565b6001600160401b038111610f425760208091020190565b90610f89610f8483611954565b61034860c0610f47565b61198a611978565b905f82526020808080808087015f5b8152015f8152015f8152015f8152015f905250565b610348611982565b5f5b8281106119c457505050565b6020906119cf6119ae565b81840152016119b8565b9061036e6119ef6119e98461196b565b93611954565b601f1901602084016119b6565b9050519061036e8261072a565b6005111561035d57565b9050519061036e82611a09565b9050519061036e82610792565b9050519061036e8261042d565b91906101008382031261035d57611ad79060e0611a58610100610f47565b94611a638382610fac565b8652611a7283602083016119fc565b6020870152611a848360408301611a13565b6040870152611a968360608301611a20565b6060870152611aa88360808301611a20565b6080870152611aba8360a08301610f9f565b60a0870152611acc8360c08301611a2d565b60c087015201611a2d565b60e0830152565b90929192611aee610f8482611954565b9381855261010060208601920283019281841161035d57915b838310611b145750505050565b602061010091611b248486611a3a565b815201920191611b07565b9080601f8301121561035d57815161034892602001611ade565b9060208282031261035d5781516001600160401b03811161035d576103489201611b2f565b90611b77825190565b81101561143f576020809102010190565b6103489051610498565b61034890516104be565b9061038490610498565b90610384906104be565b611bbd610ff5600b610eed565b611bcc61100961033c5f610f04565b14611d8a575f611c0d91611be3610ff5600b610eed565b6040519384928391829163eb97e4eb60e01b5b83526001600160a01b031660048301526024820190565b03915afa9081156110d2575f91611d68575b50611c30611c2b825190565b6119d9565b90611c3a5f611149565b611c45610348835190565b811015611d635780611c666020611c5f611d5e9486611b6e565b5101611b88565b611d42611c826060611c788588611b6e565b51015161ffff1690565b611d3986611d29611ca7611ca26040611c9b8a86611b6e565b5101611b92565b614013565b611d19611cc860c0611cb98b87611b6e565b5101516001600160401b031690565b91611d10611cf260a0611cea8d611ce460e0611cb9838d611b6e565b99611b6e565b510151151590565b97611d05611cfe611978565b9b8c611b9c565b61ffff1660208b0152565b60408901611ba6565b6001600160401b03166060870152565b6001600160401b03166080850152565b151560a0830152565b611d4c8286611b6e565b52611d578185611b6e565b5060010190565b611c3a565b505090565b611d8491503d805f833e611d7c8183610f21565b810190611b49565b5f611c1f565b50610348611c2b5f611149565b611da4610ff5600b610eed565b611db361100961033c5f610f04565b148015611e89575b611e85575f611dd191611be3610ff5600b610eed565b03915afa80156110d257611dec915f91611e6b575b5061402c565b50905080611df95f611217565b61ffff821614611d6357611e3791611e0f6112ae565b91611e1a8391611236565b11611e53575b611e2c611e3291611236565b8461128b565b6112cd565b80821115611e4857610348916112e7565b50506103485f611149565b50611e32611e2c611e6383611217565b915050611e20565b611e7f91503d805f833e611d7c8183610f21565b5f611de6565b5090565b50611e935f611149565b8214611dbb565b9061036e91611ea76141d0565b611ed6565b9061120b906104a2565b9060ff9061130a565b90611ecf61034861132b92151590565b8254611eb6565b90611ee05f610498565b611ee983610498565b14611f0157611efc61036e92600d611eac565b611ebf565b60405162461bcd60e51b815260206004820152600d60248201526c125b9d985b1a59081cdada5b1b609a1b604482015280606481015b0390fd5b9061036e91611e9a565b929190611f5561033c6009610eed565b3303611f645761036e93611fe1565b632b35006d60e21b5f908152600490fd5b6006815260209081015b65536b696c6c7360d01b81520190565b60208082526103489101611f75565b60208101929161036e91906104ab565b61126261036e94611fd7606094989795610ac4608086019a5f8701906001600160a01b03169052565b60408301906104ab565b9190611ff0610ff5600b610eed565b611fff61100961033c5f610f04565b146120975761201e61201a61201584600d611eac565b611115565b1590565b6120805761202f610ff5600b610eed565b90813b1561035d575f809461206061204660405190565b97889687958694630c4e865560e21b865260048601611fae565b03925af180156110d2576120715750565b61036e905f6118808183610f21565b635bb4388360e01b5f908152611145836004611f9e565b60405163125c65b960e21b815280611f3760048201611f8f565b9061036e939291611f45565b61034890612b80565b6120ce613ef2565b6110f36120d9613f6e565b61036e6120e66005611115565b6111365761036e61036e61420b565b61036e6120c6565b6121056141d0565b61036e61036e6144c7565b61036e6120fd565b919061212761033c6009610eed565b3303611f645761036e9261219e565b600c815260209081015b6b23b0b6b4b334b1b0ba34b7b760a11b81520190565b60208082526103489101612136565b61038490611149565b61219761036e94610acb606094989795610ac4608086019a5f8701906001600160a01b03169052565b0190612165565b90916121ad610ff5600c610eed565b6121bc61100961033c5f610f04565b1461221b576121ce610ff5600c610eed565b803b1561035d57601e935f80946120606121e760405190565b978896879586947fff7e5730000000000000000000000000000000000000000000000000000000005b86526004860161216e565b60405163125c65b960e21b815280611f3760048201612156565b9061036e9291612118565b9061036e9161224d6141d0565b61226c565b91602061036e92949361126260408201965f8301906104ab565b612279610ff5600b610eed565b61228861100961033c5f610f04565b146120975761229a610ff5600b610eed565b91823b1561035d57612060925f92836122b260405190565b8096819582946122c66395e505d860e01b90565b845260048401612252565b9061036e91612240565b369037565b9061036e6122f06119e98461196b565b601f1901602084016122db565b9050519061036e8261034b565b9092919261231a610f8482611954565b938185526020808601920283019281841161035d57915b83831061233e5750505050565b6020809161234c84866122fd565b815201920191612331565b9080601f8301121561035d5781516103489260200161230a565b919060608382031261035d57610acb90604061238d6060610f47565b946123988382610f9f565b86526123a78360208301610fac565b602087015201610fac565b909291926123c2610f8482611954565b93818552606060208601920283019281841161035d57915b8383106123e75750505050565b60206060916123f68486612371565b8152019201916123da565b9080601f8301121561035d578151610348926020016123b2565b909160608284031261035d5781516001600160401b03811161035d5783612443918401612357565b926020830151906001600160401b03821161035d576040610fd582610348948701612401565b91602061036e92949361219760408201965f830190612165565b91602061036e929493610ad260408201965f830190612165565b6124aa610ff5600c610eed565b6124b961100961033c5f610f04565b146125b5576124cb610ff5600c610eed565b631fc8ee5e5f6124da60405190565b80936124e68460e01b90565b825281806124f960018660048401612469565b03915afa9182156110d2575f92612598575b506125155f611149565b821461258557612554915f91612548612531610ff5600c610eed565b9161253b60405190565b9586948593849360e01b90565b83528660048401612483565b03915afa9081156110d2575f91612569575090565b611d6391503d805f833e61257d8183610f21565b81019061241b565b50506103486125935f611149565b6122e0565b6125ad9192503d805f833e61257d8183610f21565b92915061250b565b6103486125935f611149565b61036e906125cd6141d0565b61260d565b3d156125eb576125e13d610f77565b903d5f602084013e565b606090565b6001600160a01b03909116815260408101929161036e9160200152565b6126165f611149565b811480156126da575b6126c95761262d6002610eed565b61263c61100961033c5f610f04565b146126c95761266c5f80612656610ff5610ff56002610eed565b6040515f9186905af16126676125d2565b501590565b6126a7577f23d6711a1d031134a36921253c75aa59e967d38e369ac625992824315e204f206117f461269d3361068f565b9261062f60405190565b6111455f916126b66002610eed565b63d3cc1fd760e01b8452600484016125f0565b63e6c4247b60e01b5f908152600490fd5b506126eb6126e73061068f565b3190565b811161261f565b61036e906125c1565b610ff59061270b92810190610370565b612718610ff5600c610eed565b61272761100961033c5f610f04565b1461221b5761273581612b80565b61273e5f611149565b811461289257612752610348836006611201565b9261275c8261133c565b9161277160018601611717856117128361135e565b6127bf5f61277e426111e8565b9601938461279c61278d611401565b6001600160801b039093168352565b6001600160401b0388166020830181905260408301525b6117876117775f6111e8565b6127c85f611149565b6127d3610348855490565b8110156127f9578061189e875f6127ed6127f4958961141f565b50016114be565b6127c8565b50929150925061280c610ff5600c610eed565b803b1561035d575f61281d60405190565b630c1cca1760e21b81526001600160a01b0384166004820152918290602490829084905af180156110d2577fc16de066392da7e40ceccb739c331fc48a2e76bf147449613c48023d960eec32926117f49261269d9261287d575b5061068f565b61288c905f6118808183610f21565b5f612877565b63afb0be3360e01b5f908152600490fd5b6103489060a01c6106e1565b61034890546128a3565b6103485f6128af565b61036e906128ce6141d0565b6128da61033c5f610f04565b6001600160a01b038216146126c95761036e9061293c565b906001600160a01b039061130a565b9061291161034861132b9261068f565b82546128f2565b600c90612140565b61034890612918565b6040518061293681612920565b03902090565b612949610ff5600c610eed565b9061295d6129568261068f565b600c612901565b61297761297161296b612929565b9361068f565b9161068f565b917fe5340bb646fa554a3082f7baa2b415eb1874ff7d4c3f118686180386e71f738e6129a260405190565b5f90a4565b61036e906128c2565b906129be61033c6009610eed565b3303611f645761036e916129d5610ff5600c610eed565b6129e461100961033c5f610f04565b1461221b576129f6610ff5600c610eed565b91823b1561035d576120609260025f8094612a1060405190565b968795869485936375af487760e01b8552600485016115c0565b9061036e916129b0565b6103489060801c6111f5565b6103489054612a34565b610348610348610348926001600160801b031690565b90612a6f610348836006611201565b916001830191610348612aa6612aa0612a9a5f612a94612a8e8961135e565b97612b80565b98015490565b95612a40565b93612a4a565b9493926115ea565b6007815260209081015b665265776172647360c81b81520190565b60208082526103489101612aae565b909160608284031261035d57610348612af18484611a20565b936040612b018260208701611a20565b9401611a20565b610348906111f5565b6103489054612b08565b6103489060c01c6111f5565b6103489054612b1b565b9060208282031261035d5761034891610fac565b9095949261036e94612b7661126292612b6f608096612b6860a088019c5f890152565b6020870152565b6040850152565b60ff166060830152565b905f91612b90610ff5600a610eed565b90612b9a5f610f04565b91612bad6001600160a01b038416611009565b14612d9c575f612bc1610348836006611201565b0190612bcb825490565b612bd76112d35f611149565b14612d8e57612be55f611217565b92612c06611009612bf9610ff5600b610eed565b926001600160a01b031690565b03612d18575b50612c165f611149565b935b612c23610348835490565b851015612d1257612c37611e85868461141f565b6020612c4d612c4860018401612b11565b6144cf565b915f612c5c610ff5600a610eed565b910190612c70612c6b8361135e565b612a4a565b91612c8e612c83612c88612c8384612a40565b6115ea565b92612b27565b92612cb689612c9c60405190565b97889687958695630e41265d60e41b875260048701612b45565b03915afa80156110d257612cdc92612cd5925f92612ce2575b5061132f565b9460010190565b93612c18565b612d0491925060203d8111612d0b575b612cfc8183610f21565b810190612b31565b905f612ccf565b503d612cf2565b93505050565b612d45919250606090612d2e610ff5600b610eed565b60405193849283918291630166b5c560e61b611bf6565b03915afa9081156110d2575f91612d5f575b50905f612c0c565b612d81915060603d606011612d87575b612d798183610f21565b810190612ad8565b50612d57565b503d612d6f565b50505090506103485f611149565b60405163125c65b960e21b815280611f3760048201612ac9565b61036e90612dc26141d0565b612dce61033c5f610f04565b6001600160a01b038216146126c95761036e90612e04565b600790612ab8565b61034890612de6565b6040518061293681612dee565b612e11610ff5600a610eed565b90612e25612e1e8261068f565b600a612901565b61297761297161296b612df7565b61036e90612db6565b612e446141d0565b61036e61036e612e535f610f04565b61458b565b61036e612e3c565b612e686141d0565b61036e61036e61460f565b61036e612e60565b612e83613ef2565b6110f3612e8e613f6e565b61036e612e9b6005611115565b6111365761036e612f7d565b612eb9906001600160401b03166113df565b01906001600160401b0382116112a957565b61034890600261128b565b905f0361157c575f808255600190910155565b818110612ef4575050565b80612f015f600293612ed6565b01612ee9565b919091828210612f1657505050565b612f38612f2e612f2861036e95612ecb565b93612ecb565b915f5260205f2090565b9182019101612ee9565b90600160401b8111610f425781612f5a61036e935490565b90828155612f07565b5f61036e91612f42565b905f0361157c5761036e90612f63565b612f8b610348336006611201565b906001820190612f9a8261135e565b612fa66113765f61133c565b1461316357612fb45f611149565b8354849082101561303857611e8582612fcc9261141f565b60018101612fd981612b11565b612fe56113df5f6111e8565b11918261300c575b5050612ffb57600101612fb4565b633b20f1c360e21b5f908152600490fd5b61302f9250906130296130235f612c839401612a40565b91612b11565b90612ea7565b42105f80612fed565b5050919061304533612b80565b9061306e6116a461305c846116e9612c6b8661135e565b9361306861169961126c565b9061128b565b9061307982846112e7565b936130833061068f565b316130946112d3610348868961132f565b10613152576130fd936130ce5f806116ee946130c86130dd976130b96115218561133c565b6130c2426111e8565b90611483565b01612f6d565b6130d860036112fb565b6112e7565b6130e760046112fb565b6130f36112d35f611149565b1161313c57613f81565b61310f8161310a3361068f565b6146d5565b7fd7a4aa9f3dca5f6606ac15d7e1850920201bbb02c38cd986793779f58ae0dfd36117f461269d3361068f565b61178c6118a461314c60046112fb565b5f190190565b631e9acf1760e31b5f908152600490fd5b636f16c5e960e11b5f908152600490fd5b61036e612e7b565b9061318a61033c6009610eed565b3303611f645761036e916131a1610ff5600b610eed565b6131b061100961033c5f610f04565b14612097576131c2610ff5600b610eed565b91823b1561035d57612060925f92836131da60405190565b8096819582946131ee638925781760e01b90565b8452600484016125f0565b9061036e9161317c565b919061321261033c6009610eed565b3303611f645761036e92909161322b610ff5600c610eed565b61323a61100961033c5f610f04565b1461221b5761324c610ff5600c610eed565b803b1561035d57601e935f809461206061326560405190565b97889687958694630ac9679360e41b612210565b9061036e9291613203565b6103485f610eed565b6120156103489161329b5f90565b50600d611eac565b61036e906132af6141d0565b6132bb61033c5f610f04565b6001600160a01b038216146126c95761036e906132e96129716132de6002610eed565b610ff5846002612901565b907f4ab5be82436d353e61ca18726e984e561f5c1cc7c6d38b29d2553c790434705a61331460405190565b5f90a3565b61036e906132a3565b9060608282031261035d5761034891612371565b613343610ff5600c610eed565b61334c5f610f04565b9061335f6001600160a01b038316611009565b1415806133c1575b6133ba5761337e611009612bf9610ff5600b610eed565b146133b5575f61339591611be3610ff5600b610eed565b03915afa80156110d2576133af915f91611e6b575061402c565b91505090565b505f90565b5050600190565b506133cf610ff5600c610eed565b60606133da60405190565b6306655b9760e21b81526001600160a01b038516600482015291829060249082905afa9081156110d257613419915f91829161341e575b500151151590565b613367565b613440915060603d606011613446575b6134388183610f21565b810190613322565b5f613411565b503d61342e565b61036e906134596141d0565b61346561033c5f610f04565b6001600160a01b038216146126c95761036e906009612901565b61036e9061344d565b613495610ff5600b610eed565b6134a461100961033c5f610f04565b14611e855760606134bc91612d2e610ff5600b610eed565b03915afa9081156110d2575f9161350c575b506134d85f611217565b61ffff821614611e8557906135066134fb6134f561034894611236565b8361128b565b6116ac612710611149565b9061132f565b613525915060603d606011612d8757612d798183610f21565b506134ce565b61034860e0610f47565b61353d61352b565b9060608252602080808080808088015f8152015f611999565b610348613535565b610348600a6115aa565b90929192613578610f8482611954565b938185526020808601920283019281841161035d57915b83831061359c5750505050565b602080916135aa8486610fac565b81520192019161358f565b9080601f8301121561035d57815161034892602001613568565b60ff8116610356565b9050519061036e826135cf565b9190916101208184031261035d576135fe610120610f47565b815190936001600160401b03821161035d5761361f816136aa9385016135b5565b855261362e8160208501611a20565b60208601526136408160408501611a20565b60408601526136528160608501611a20565b60608601526136648160808501611a20565b60808601526136768160a08501610f9f565b60a08601526136888160c08501611a20565b60c086015261369a8160e08501611a20565b60e08601526101008093016135d8565b90830152565b9060208282031261035d5781516001600160401b03811161035d5761034892016135e5565b909160608284031261035d576103486136ee8484610fac565b936040610fd58260208701611a20565b90613707613556565b809261371e61371461355e565b60ff166060840152565b61372a6125935f611149565b8252815f9261373c610ff5600b610eed565b906137465f610f04565b916137596001600160a01b038416611009565b03613898575b50613773611009612bf9610ff5600c610eed565b036137a9575b60c09150019061378c61201a8351151590565b90816137a1575b5061379b5750565b60019052565b90505f613793565b6137b6610ff5600c610eed565b9160606137c260405190565b6326a13d5360e21b81526001600160a01b038316600482015293849060249082905afa9081156110d257613811606092613835955f905f92613865575b5060208601525b61ffff166040850152565b61381e610ff5600c610eed565b604051948592839182916306655b9760e21b611bf6565b03915afa80156110d2575f6138559160c094829161341e57500151151590565b1561377957600181830152613779565b613806925061388a9150853d8711613891575b6138828183610f21565b8101906136d5565b50916137ff565b503d613878565b9093506138a8610ff5600b610eed565b905f6138b360405190565b635f9bddb560e11b81526001600160a01b038616600482015292839060249082905afa9182156110d257613908926138fd926020925f92613973575b5081519052015161ffff1690565b61ffff166080830152565b613915610ff5600b610eed565b925f61392060405190565b63eb97e4eb60e01b81526001600160a01b038516600482015294859060249082905afa9384156110d25761396d9461395e915f91611e6b575061402c565b61ffff90921660a08501525093565b5f61375f565b6139909192503d805f833e6139888183610f21565b8101906136b0565b905f6138ef565b9060208282031261035d5761034891611a20565b6139b8610ff5600b610eed565b6139c761100961033c5f610f04565b14613a3a5760206139fc916139df610ff5600b610eed565b60405193849283918291634411ac5f60e01b835260048301611f9e565b03915afa9081156110d2575f91613a11575090565b610348915060203d602011613a33575b613a2b8183610f21565b810190613997565b503d613a21565b506103485f611217565b613a51610ff5600b610eed565b613a6061100961033c5f610f04565b148015613aa4575b611e85575f613a7e91611be3610ff5600b610eed565b03915afa80156110d257613a98915f91611e6b575061402c565b505080611df95f611217565b50613aae5f611149565b8214613a68565b61036e90613ac16141d0565b613acd61033c5f610f04565b6001600160a01b038216146126c95761036e90613b03565b600690611f7f565b61034890613ae5565b6040518061293681613aed565b613b10610ff5600b610eed565b90613b24613b1d8261068f565b600b612901565b61297761297161296b613af6565b61036e90613ab5565b919060408382031261035d57610348906020612b018286611a13565b613b64610ff5600b610eed565b613b7361100961033c5f610f04565b146133b5576040613bab91613b8b610ff5600b610eed565b604051938492839182916239f9d560ea1b83526004830190815260200190565b03915afa80156110d257610348915f91613bc6575b50614013565b613be8915060403d604011613bed575b613be08183610f21565b810190613b3b565b613bc0565b503d613bd6565b61036e90613c006141d0565b613c60565b15613c0c57565b60405162461bcd60e51b815260206004820152602660248201527f4f776e61626c653a206e6577206f776e657220697320746865207a65726f206160448201526564647265737360d01b6064820152608490fd5b61036e90612e53613c7361033c5f610f04565b6001600160a01b0383161415613c05565b61036e90613bf4565b60405162461bcd60e51b815260206004820152600e60248201526d4e6f74206170706c696361626c6560901b6044820152606490fd5b613ccb613ef2565b6110f3613cd6613f6e565b61036e613ce36005611115565b6111365761036e613cf8610348336006611201565b90613d0233612b80565b90613d0c5f611149565b821461289257613d1b8261133c565b90613d3060018501611717846117128361135e565b613d675f613d3d426111e8565b95019283613d4c61278d611401565b6001600160401b0387166020830181905260408301526127b3565b613d705f611149565b613d7b610348845490565b811015613d9a578061189e865f6127ed613d95958861141f565b613d70565b50925050613dab610ff5600c610eed565b613dba61100961033c5f610f04565b03613ded575b7fc16de066392da7e40ceccb739c331fc48a2e76bf147449613c48023d960eec326117f461269d3361068f565b613dfa610ff5600c610eed565b803b1561035d575f613e0b60405190565b9182906375af487760e01b8252818381613e2b88600133600485016115c0565b03925af180156110d257613e40575b50613dc0565b613e4f905f6118808183610f21565b5f613e3a565b61036e613cc3565b613e663361068f565b7fe37b2ae9cc03ec700b9146c4df2fc797e7a1119c08fc25513755ab5315faa6d2613e9060405190565b806117f4423483611167565b6103486002611149565b15613ead57565b60405162461bcd60e51b815260206004820152601f60248201527f5265656e7472616e637947756172643a207265656e7472616e742063616c6c006044820152606490fd5b61036e613eff60016112fb565b613f13613f0a613e9c565b91821415613ea6565b6001611314565b6103486001611149565b61036e613f13613f1a565b15613f3657565b60405162461bcd60e51b815260206004820152601060248201526f14185d5cd8589b194e881c185d5cd95960821b6044820152606490fd5b61036e613f7c61201a6128b9565b613f2f565b613f8b6002610eed565b613f9a61100961033c5f610f04565b146126c957613fb45f80612656610ff5610ff56002610eed565b6126a7577fe37b2ae9cc03ec700b9146c4df2fc797e7a1119c08fc25513755ab5315faa6d26117f4613fe9610ff56002610eed565b92613ff360405190565b918291429083611167565b61400e6103486103489260ff1690565b6104be565b614027610348916140215f90565b506104c8565b613ffe565b905f91828061403a5f611149565b614045610348855190565b8110156141395761405e61201a60a0611cea8488611b6e565b6140c9576140716020611c5f8387611b6e565b6140806060611c788488611b6e565b61408a6006610498565b61409383610498565b14801561411f575b61410b575b6140aa6005610498565b6140b383610498565b146140f6575b50821590816140da575b506140d1575b60010161403a565b600191506140c9565b90506140ef6140e96004610498565b91610498565b145f6140c3565b936135066141049295611236565b925f6140b9565b966141199061350689611236565b966140a0565b5061412a6007610498565b61413383610498565b1461409b565b5091509261414861ffff611236565b808211614178575b80851161416e575b5061416561416b91611217565b93611217565b91565b9350614165614158565b905080614150565b1561418757565b60405162461bcd60e51b815280611f37600482016020808252818101527f4f776e61626c653a2063616c6c6572206973206e6f7420746865206f776e6572604082015260600190565b61036e6141db613284565b6141e76110093361033c565b14614180565b61034862015180611149565b610348683635c9adc5dea00000611149565b614219610348336006611201565b906142226141ed565b61422c81426112cd565b6142456112d3610348614240336008611201565b6112fb565b11614413575b5061425533612b80565b9161425f5f611149565b8314612892576007614278846116e96142403385611201565b6142806141f9565b9081106143e157506142966142a9913390611201565b6142a3856116e9836112fb565b90611314565b6142b25f611149565b8154829082101561431957611e85826142ca9261141f565b600181016142d781612b11565b6142e36113df5f6111e8565b1191826142f9575b5050612ffb576001016142b2565b6143109250906130296130235f612c839401612a40565b42105f806142eb565b5050919061433e6143376116a461433161169961126c565b8561128b565b80936112e7565b916143483061068f565b316143596112d3610348848761132f565b1061315257614367426111e8565b916143715f611149565b85548690821015614394579061189e855f6127ed8461438f9661141f565b614371565b5050936143a792600161178c9201611483565b6143b48161310a3361068f565b7f7084f5476618d8e60b11ef0d7d3f06914655adb8793e28ff7f018d4c76d505d56117f461269d3361068f565b6143fd611145916143f76142405f953390611201565b906112e7565b631aefe80360e21b835260048301526024820190565b614447612c836144426144529361443c61442c5f611149565b614437336007611201565b611314565b426112cd565b6111e8565b614437336008611201565b5f61424b565b614460614760565b61036e61448e565b9060ff60a01b9060a01b61130a565b9061448761034861132b92151590565b8254614468565b6144985f80614477565b7f5db9ee0a495bf2e6ff9c91a7834c1ba4fdd244a5e8aa4e537bd38aeae4b073aa6144c233610a8c565b0390a1565b61036e614458565b6144d85f6111e8565b6001600160401b03821614614581576144f362278d006111e8565b6001600160401b038216146145765761450e6276a7006111e8565b6001600160401b0382161461456b5761452962ed4e006111e8565b6001600160401b03821614614560576145486113df6301e133806111e8565b14614556576103485f6115aa565b61034860046115aa565b5061034860036115aa565b5061034860026115aa565b5061034860016115aa565b506103485f6115aa565b6145a461297161459a5f610eed565b610ff5845f612901565b907f8be0079c531659141344cd1fd0a4f28419497f9722a3daafe3b4186f6b6457e061331460405190565b6145d7613f6e565b61036e6145e560015f614477565b7f62e78cea01bee320cd4e420270b5ea74000d11b0c9f74754ebdbfc544b05a2586144c233610a8c565b61036e6145cf565b1561461e57565b60405162461bcd60e51b815260206004820152601d60248201527f416464726573733a20696e73756666696369656e742062616c616e63650000006044820152606490fd5b1561466a57565b60405162461bcd60e51b815260206004820152603a60248201527f416464726573733a20756e61626c6520746f2073656e642076616c75652c207260448201527f6563697069656e74206d617920686176652072657665727465640000000000006064820152608490fd5b5f61036e926146f58293610ff56146eb3061068f565b8490311015614617565b906146ff60405190565b90818003925af161470e6125d2565b50614663565b1561471b57565b60405162461bcd60e51b815260206004820152601460248201527f5061757361626c653a206e6f74207061757365640000000000000000000000006044820152606490fd5b61036e61476b6128b9565b61471456fea2646970667358221220f5176694fddfe8e939c427543ea7a7afbfea54856829d876d0d7458cd3c2827164736f6c634300081c0033",
  "linkReferences": {},
  "deployedLinkReferences": {}
}