{
  "_format": "hh-sol-artifact-1",
  "contractName": "EnhancedSmartStakingGamification",
  "sourceName": "contracts/SmartStaking/EnhancedSmartStakingGamification.sol",
  "abi": [
    {
      "inputs": [],
      "stateMutability": "nonpayable",
      "type": "constructor"
    },
    {
      "anonymous": false,
      "inputs": [
        {
          "indexed": true,
          "internalType": "address",
          "name": "user",
          "type": "address"
        },
        {
          "indexed": false,
          "internalType": "uint256",
          "name": "achievementId",
          "type": "uint256"
        },
        {
          "indexed": false,
          "internalType": "uint256",
          "name": "rewardAmount",
          "type": "uint256"
        }
      ],
      "name": "AchievementUnlocked",
      "type": "event"
    },
    {
      "anonymous": false,
      "inputs": [
        {
          "indexed": true,
          "internalType": "address",
          "name": "user",
          "type": "address"
        }
      ],
      "name": "AutoCompoundDisabled",
      "type": "event"
    },
    {
      "anonymous": false,
      "inputs": [
        {
          "indexed": true,
          "internalType": "address",
          "name": "user",
          "type": "address"
        },
        {
          "indexed": false,
          "internalType": "uint256",
          "name": "minAmount",
          "type": "uint256"
        }
      ],
      "name": "AutoCompoundEnabled",
      "type": "event"
    },
    {
      "anonymous": false,
      "inputs": [
        {
          "indexed": true,
          "internalType": "address",
          "name": "user",
          "type": "address"
        },
        {
          "indexed": false,
          "internalType": "uint256",
          "name": "amount",
          "type": "uint256"
        }
      ],
      "name": "AutoCompoundExecuted",
      "type": "event"
    },
    {
      "anonymous": false,
      "inputs": [
        {
          "indexed": true,
          "internalType": "address",
          "name": "user",
          "type": "address"
        },
        {
          "indexed": false,
          "internalType": "uint256",
          "name": "badgeId",
          "type": "uint256"
        },
        {
          "indexed": false,
          "internalType": "string",
          "name": "name",
          "type": "string"
        }
      ],
      "name": "BadgeEarned",
      "type": "event"
    },
    {
      "anonymous": false,
      "inputs": [
        {
          "indexed": true,
          "internalType": "address",
          "name": "user",
          "type": "address"
        },
        {
          "indexed": false,
          "internalType": "uint16",
          "name": "newLevel",
          "type": "uint16"
        }
      ],
      "name": "LevelUp",
      "type": "event"
    },
    {
      "anonymous": false,
      "inputs": [
        {
          "indexed": true,
          "internalType": "address",
          "name": "previousOwner",
          "type": "address"
        },
        {
          "indexed": true,
          "internalType": "address",
          "name": "newOwner",
          "type": "address"
        }
      ],
      "name": "OwnershipTransferred",
      "type": "event"
    },
    {
      "anonymous": false,
      "inputs": [
        {
          "indexed": true,
          "internalType": "address",
          "name": "user",
          "type": "address"
        },
        {
          "indexed": false,
          "internalType": "uint256",
          "name": "questId",
          "type": "uint256"
        },
        {
          "indexed": false,
          "internalType": "uint256",
          "name": "rewardAmount",
          "type": "uint256"
        }
      ],
      "name": "QuestCompleted",
      "type": "event"
    },
    {
      "anonymous": false,
      "inputs": [
        {
          "indexed": true,
          "internalType": "address",
          "name": "user",
          "type": "address"
        },
        {
          "indexed": false,
          "internalType": "string",
          "name": "rewardType",
          "type": "string"
        },
        {
          "indexed": false,
          "internalType": "uint256",
          "name": "amount",
          "type": "uint256"
        }
      ],
      "name": "RewardExpired",
      "type": "event"
    },
    {
      "anonymous": false,
      "inputs": [
        {
          "indexed": true,
          "internalType": "address",
          "name": "user",
          "type": "address"
        },
        {
          "indexed": false,
          "internalType": "uint256",
          "name": "amount",
          "type": "uint256"
        }
      ],
      "name": "RewardPaid",
      "type": "event"
    },
    {
      "anonymous": false,
      "inputs": [
        {
          "indexed": true,
          "internalType": "address",
          "name": "user",
          "type": "address"
        },
        {
          "indexed": false,
          "internalType": "uint256",
          "name": "newXP",
          "type": "uint256"
        },
        {
          "indexed": false,
          "internalType": "uint16",
          "name": "newLevel",
          "type": "uint16"
        }
      ],
      "name": "XPUpdated",
      "type": "event"
    },
    {
      "inputs": [],
      "name": "LEVEL_UP_REWARD",
      "outputs": [
        {
          "internalType": "uint256",
          "name": "",
          "type": "uint256"
        }
      ],
      "stateMutability": "view",
      "type": "function"
    },
    {
      "inputs": [
        {
          "internalType": "address",
          "name": "user",
          "type": "address"
        },
        {
          "internalType": "uint256",
          "name": "id",
          "type": "uint256"
        },
        {
          "internalType": "string",
          "name": "name",
          "type": "string"
        },
        {
          "internalType": "string",
          "name": "description",
          "type": "string"
        }
      ],
      "name": "awardBadge",
      "outputs": [],
      "stateMutability": "nonpayable",
      "type": "function"
    },
    {
      "inputs": [
        {
          "internalType": "address[]",
          "name": "users",
          "type": "address[]"
        }
      ],
      "name": "batchAutoCompound",
      "outputs": [],
      "stateMutability": "nonpayable",
      "type": "function"
    },
    {
      "inputs": [
        {
          "internalType": "uint256",
          "name": "xp",
          "type": "uint256"
        }
      ],
      "name": "calculateLevel",
      "outputs": [
        {
          "internalType": "uint16",
          "name": "level",
          "type": "uint16"
        }
      ],
      "stateMutability": "pure",
      "type": "function"
    },
    {
      "inputs": [
        {
          "internalType": "address",
          "name": "user",
          "type": "address"
        }
      ],
      "name": "checkAutoCompound",
      "outputs": [
        {
          "internalType": "bool",
          "name": "shouldCompound",
          "type": "bool"
        },
        {
          "internalType": "uint256",
          "name": "compoundAmount",
          "type": "uint256"
        }
      ],
      "stateMutability": "view",
      "type": "function"
    },
    {
      "inputs": [
        {
          "internalType": "uint256",
          "name": "achievementId",
          "type": "uint256"
        }
      ],
      "name": "claimAchievementReward",
      "outputs": [],
      "stateMutability": "nonpayable",
      "type": "function"
    },
    {
      "inputs": [
        {
          "internalType": "uint256",
          "name": "questId",
          "type": "uint256"
        }
      ],
      "name": "claimQuestReward",
      "outputs": [],
      "stateMutability": "nonpayable",
      "type": "function"
    },
    {
      "inputs": [
        {
          "internalType": "address",
          "name": "user",
          "type": "address"
        },
        {
          "internalType": "uint256",
          "name": "questId",
          "type": "uint256"
        },
        {
          "internalType": "uint256",
          "name": "rewardAmount",
          "type": "uint256"
        },
        {
          "internalType": "uint256",
          "name": "expirationDays",
          "type": "uint256"
        }
      ],
      "name": "completeQuest",
      "outputs": [],
      "stateMutability": "nonpayable",
      "type": "function"
    },
    {
      "inputs": [],
      "name": "coreStakingContract",
      "outputs": [
        {
          "internalType": "address",
          "name": "",
          "type": "address"
        }
      ],
      "stateMutability": "view",
      "type": "function"
    },
    {
      "inputs": [],
      "name": "disableAutoCompound",
      "outputs": [],
      "stateMutability": "nonpayable",
      "type": "function"
    },
    {
      "inputs": [
        {
          "internalType": "uint256",
          "name": "minAmount",
          "type": "uint256"
        }
      ],
      "name": "enableAutoCompound",
      "outputs": [],
      "stateMutability": "nonpayable",
      "type": "function"
    },
    {
      "inputs": [
        {
          "internalType": "address",
          "name": "user",
          "type": "address"
        },
        {
          "internalType": "uint256[]",
          "name": "achievementIds",
          "type": "uint256[]"
        }
      ],
      "name": "expireAchievementRewards",
      "outputs": [],
      "stateMutability": "nonpayable",
      "type": "function"
    },
    {
      "inputs": [
        {
          "internalType": "address",
          "name": "user",
          "type": "address"
        },
        {
          "internalType": "uint256[]",
          "name": "questIds",
          "type": "uint256[]"
        }
      ],
      "name": "expireQuestRewards",
      "outputs": [],
      "stateMutability": "nonpayable",
      "type": "function"
    },
    {
      "inputs": [
        {
          "internalType": "address",
          "name": "user",
          "type": "address"
        },
        {
          "internalType": "uint256",
          "name": "achievementId",
          "type": "uint256"
        }
      ],
      "name": "getAchievementReward",
      "outputs": [
        {
          "components": [
            {
              "internalType": "uint256",
              "name": "amount",
              "type": "uint256"
            },
            {
              "internalType": "uint256",
              "name": "expirationTime",
              "type": "uint256"
            },
            {
              "internalType": "bool",
              "name": "claimed",
              "type": "bool"
            }
          ],
          "internalType": "struct IEnhancedSmartStakingGamification.AchievementReward",
          "name": "reward",
          "type": "tuple"
        }
      ],
      "stateMutability": "view",
      "type": "function"
    },
    {
      "inputs": [
        {
          "internalType": "address",
          "name": "user",
          "type": "address"
        }
      ],
      "name": "getAllAchievementRewards",
      "outputs": [
        {
          "internalType": "uint256[]",
          "name": "achievementIds",
          "type": "uint256[]"
        },
        {
          "components": [
            {
              "internalType": "uint256",
              "name": "amount",
              "type": "uint256"
            },
            {
              "internalType": "uint256",
              "name": "expirationTime",
              "type": "uint256"
            },
            {
              "internalType": "bool",
              "name": "claimed",
              "type": "bool"
            }
          ],
          "internalType": "struct IEnhancedSmartStakingGamification.AchievementReward[]",
          "name": "rewards",
          "type": "tuple[]"
        }
      ],
      "stateMutability": "view",
      "type": "function"
    },
    {
      "inputs": [
        {
          "internalType": "address",
          "name": "user",
          "type": "address"
        }
      ],
      "name": "getAllQuestRewards",
      "outputs": [
        {
          "internalType": "uint256[]",
          "name": "questIds",
          "type": "uint256[]"
        },
        {
          "components": [
            {
              "internalType": "uint256",
              "name": "amount",
              "type": "uint256"
            },
            {
              "internalType": "uint256",
              "name": "expirationTime",
              "type": "uint256"
            },
            {
              "internalType": "bool",
              "name": "claimed",
              "type": "bool"
            }
          ],
          "internalType": "struct IEnhancedSmartStakingGamification.QuestReward[]",
          "name": "rewards",
          "type": "tuple[]"
        }
      ],
      "stateMutability": "view",
      "type": "function"
    },
    {
      "inputs": [
        {
          "internalType": "address",
          "name": "user",
          "type": "address"
        }
      ],
      "name": "getAutoCompoundConfig",
      "outputs": [
        {
          "components": [
            {
              "internalType": "bool",
              "name": "enabled",
              "type": "bool"
            },
            {
              "internalType": "uint256",
              "name": "minAmount",
              "type": "uint256"
            },
            {
              "internalType": "uint256",
              "name": "lastCompoundTime",
              "type": "uint256"
            }
          ],
          "internalType": "struct IEnhancedSmartStakingGamification.AutoCompoundConfig",
          "name": "config",
          "type": "tuple"
        }
      ],
      "stateMutability": "view",
      "type": "function"
    },
    {
      "inputs": [
        {
          "internalType": "uint256",
          "name": "offset",
          "type": "uint256"
        },
        {
          "internalType": "uint256",
          "name": "limit",
          "type": "uint256"
        }
      ],
      "name": "getAutoCompoundUsersPage",
      "outputs": [
        {
          "internalType": "address[]",
          "name": "users",
          "type": "address[]"
        },
        {
          "components": [
            {
              "internalType": "bool",
              "name": "enabled",
              "type": "bool"
            },
            {
              "internalType": "uint256",
              "name": "minAmount",
              "type": "uint256"
            },
            {
              "internalType": "uint256",
              "name": "lastCompoundTime",
              "type": "uint256"
            }
          ],
          "internalType": "struct IEnhancedSmartStakingGamification.AutoCompoundConfig[]",
          "name": "configs",
          "type": "tuple[]"
        },
        {
          "internalType": "uint256",
          "name": "total",
          "type": "uint256"
        }
      ],
      "stateMutability": "view",
      "type": "function"
    },
    {
      "inputs": [
        {
          "internalType": "address",
          "name": "user",
          "type": "address"
        },
        {
          "internalType": "uint256",
          "name": "questId",
          "type": "uint256"
        }
      ],
      "name": "getQuestReward",
      "outputs": [
        {
          "components": [
            {
              "internalType": "uint256",
              "name": "amount",
              "type": "uint256"
            },
            {
              "internalType": "uint256",
              "name": "expirationTime",
              "type": "uint256"
            },
            {
              "internalType": "bool",
              "name": "claimed",
              "type": "bool"
            }
          ],
          "internalType": "struct IEnhancedSmartStakingGamification.QuestReward",
          "name": "reward",
          "type": "tuple"
        }
      ],
      "stateMutability": "view",
      "type": "function"
    },
    {
      "inputs": [
        {
          "internalType": "address",
          "name": "user",
          "type": "address"
        }
      ],
      "name": "getUserBadges",
      "outputs": [
        {
          "components": [
            {
              "internalType": "uint256",
              "name": "id",
              "type": "uint256"
            },
            {
              "internalType": "string",
              "name": "name",
              "type": "string"
            },
            {
              "internalType": "string",
              "name": "description",
              "type": "string"
            },
            {
              "internalType": "uint256",
              "name": "dateEarned",
              "type": "uint256"
            }
          ],
          "internalType": "struct EnhancedSmartStakingGamification.Badge[]",
          "name": "",
          "type": "tuple[]"
        }
      ],
      "stateMutability": "view",
      "type": "function"
    },
    {
      "inputs": [
        {
          "internalType": "address",
          "name": "user",
          "type": "address"
        }
      ],
      "name": "getUserXPInfo",
      "outputs": [
        {
          "internalType": "uint256",
          "name": "xp",
          "type": "uint256"
        },
        {
          "internalType": "uint16",
          "name": "level",
          "type": "uint16"
        },
        {
          "internalType": "uint256",
          "name": "xpToNextLevel",
          "type": "uint256"
        }
      ],
      "stateMutability": "view",
      "type": "function"
    },
    {
      "inputs": [
        {
          "internalType": "uint16",
          "name": "level",
          "type": "uint16"
        }
      ],
      "name": "getXPForLevel",
      "outputs": [
        {
          "internalType": "uint256",
          "name": "xp",
          "type": "uint256"
        }
      ],
      "stateMutability": "pure",
      "type": "function"
    },
    {
      "inputs": [],
      "name": "marketplaceContract",
      "outputs": [
        {
          "internalType": "address",
          "name": "",
          "type": "address"
        }
      ],
      "stateMutability": "view",
      "type": "function"
    },
    {
      "inputs": [],
      "name": "owner",
      "outputs": [
        {
          "internalType": "address",
          "name": "",
          "type": "address"
        }
      ],
      "stateMutability": "view",
      "type": "function"
    },
    {
      "inputs": [
        {
          "internalType": "address",
          "name": "user",
          "type": "address"
        }
      ],
      "name": "performAutoCompound",
      "outputs": [],
      "stateMutability": "nonpayable",
      "type": "function"
    },
    {
      "inputs": [],
      "name": "renounceOwnership",
      "outputs": [],
      "stateMutability": "nonpayable",
      "type": "function"
    },
    {
      "inputs": [
        {
          "internalType": "address",
          "name": "_coreStaking",
          "type": "address"
        }
      ],
      "name": "setCoreStakingContract",
      "outputs": [],
      "stateMutability": "nonpayable",
      "type": "function"
    },
    {
      "inputs": [
        {
          "internalType": "address",
          "name": "_marketplace",
          "type": "address"
        }
      ],
      "name": "setMarketplaceContract",
      "outputs": [],
      "stateMutability": "nonpayable",
      "type": "function"
    },
    {
      "inputs": [
        {
          "internalType": "address",
          "name": "user",
          "type": "address"
        },
        {
          "internalType": "uint256",
          "name": "questId",
          "type": "uint256"
        }
      ],
      "name": "setQuestClaimed",
      "outputs": [],
      "stateMutability": "nonpayable",
      "type": "function"
    },
    {
      "inputs": [
        {
          "internalType": "address",
          "name": "user",
          "type": "address"
        },
        {
          "internalType": "uint256",
          "name": "xp",
          "type": "uint256"
        }
      ],
      "name": "setUserXP",
      "outputs": [],
      "stateMutability": "nonpayable",
      "type": "function"
    },
    {
      "inputs": [
        {
          "internalType": "address",
          "name": "newOwner",
          "type": "address"
        }
      ],
      "name": "transferOwnership",
      "outputs": [],
      "stateMutability": "nonpayable",
      "type": "function"
    },
    {
      "inputs": [
        {
          "internalType": "address",
          "name": "user",
          "type": "address"
        },
        {
          "internalType": "uint256",
          "name": "achievementId",
          "type": "uint256"
        },
        {
          "internalType": "uint256",
          "name": "rewardAmount",
          "type": "uint256"
        },
        {
          "internalType": "uint256",
          "name": "expirationDays",
          "type": "uint256"
        }
      ],
      "name": "unlockAchievement",
      "outputs": [],
      "stateMutability": "nonpayable",
      "type": "function"
    },
    {
      "inputs": [
        {
          "internalType": "address",
          "name": "user",
          "type": "address"
        },
        {
          "internalType": "uint8",
          "name": "actionType",
          "type": "uint8"
        },
        {
          "internalType": "uint256",
          "name": "amount",
          "type": "uint256"
        }
      ],
      "name": "updateUserXP",
      "outputs": [],
      "stateMutability": "nonpayable",
      "type": "function"
    },
    {
      "stateMutability": "payable",
      "type": "receive"
    }
  ],
  "bytecode": "0x60806040523461002257610011610026565b604051612f8a6101038239612f8a90f35b5f80fd5b61002e610030565b565b61002e80336100ae565b61004b905b6001600160a01b031690565b90565b61004b905461003a565b61004b9061003f906001600160a01b031682565b61004b90610058565b61004b9061006c565b9061008e61004b6100aa92610075565b82546001600160a01b0319166001600160a01b03919091161790565b9055565b6100d26100cc6100bd5f61004e565b6100c7845f61007e565b610075565b91610075565b907f8be0079c531659141344cd1fd0a4f28419497f9722a3daafe3b4186f6b6457e06100fd60405190565b5f90a356fe6080604052600436101561001a575b3615610018575f80fd5b005b5f3560e01c80631102610e1461022957806311bd459f1461022457806319956e5c1461021f5780631fc8ee5e1461021a5780632a538cfd146102155780633073285c14610210578063342de6871461020b57806337c245fe146102065780633e3721a21461020157806343db9218146101fc578063456fab38146101f7578063486a51ee146101f2578063549d5c77146101ed578063715018a6146101e857806375af4877146101e357806375b9ea1d146101de5780638da5cb5b146101d9578063910418be146101d45780639a84f54c146101cf578063a9579612146101ca578063ac967930146101c5578063af6532e6146101c0578063c2dd5419146101bb578063c642b854146101b6578063d1bb5cf1146101b1578063dca4c9f8146101ac578063dce3dc1f146101a7578063dedd3430146101a2578063e3f116831461019d578063ef4857d714610198578063f283f37214610193578063f2fde38b1461018e5763ff7e57300361000e57610d3d565b610d25565b610d09565b610ce1565b610ca3565b610c29565b610bee565b610bd6565b610bbb565b610b79565b610b60565b610b47565b610b2b565b610add565b610a97565b610a60565b610a05565b6109ed565b6109d4565b61097d565b610965565b61094a565b6108f3565b6108aa565b61087a565b61072f565b6105e4565b6104fd565b6104e4565b61044f565b610315565b6102b1565b610276565b6001600160a01b031690565b90565b6001600160a01b0381165b0361024f57565b5f80fd5b905035906102608261023d565b565b9060208282031261024f5761023a91610253565b3461024f5761028e610289366004610262565b610e46565b60405180805b0390f35b9052565b90151581526040810192916102609160200152565b3461024f576102c96102c4366004610262565b610ebd565b906102946102d660405190565b9283928361029c565b805115158252610260919060409081906102fe60208201516020860152565b0151910152565b60608101929161026091906102df565b3461024f5761029461033061032b366004610262565b610fbb565b60405191829182610305565b80610248565b905035906102608261033c565b919060408382031261024f5761023a90602061036b8286610342565b9401610342565b0190565b9061039661038f610385845190565b8084529260200190565b9260200190565b905f5b8181106103a65750505090565b9091926103cc6103c560019286516001600160a01b0316815260200190565b9460200190565b929101610399565b90610372816060936102df565b906103f061038f610385845190565b905f5b8181106104005750505090565b9091926104136103c560019286516103d4565b9291016103f3565b93929061044a6102609361043c60409360608901908982035f8b0152610376565b9087820360208901526103e1565b940152565b3461024f5761029461046b61046536600461034f565b906110c1565b6040519193919384938461041b565b909182601f8301121561024f5781359167ffffffffffffffff831161024f57602001926020830284011161024f57565b91909160408184031261024f576104c18382610253565b92602082013567ffffffffffffffff811161024f576104e0920161047a565b9091565b3461024f5761028e6104f73660046104aa565b9161140b565b3461024f5761028e610510366004610262565b611542565b9061052461038f610385845190565b905f5b8181106105345750505090565b90919261054a6103c56001928651815260200190565b929101610527565b805182526102609190604090819061056f60208201516020860152565b01511515910152565b9061037281606093610552565b9061059461038f610385845190565b905f5b8181106105a45750505090565b9091926105b76103c56001928651610578565b929101610597565b604080825261023a9391926105d691840190610515565b916020818403910152610585565b3461024f576105fc6105f7366004610262565b61165d565b9061029461060960405190565b928392836105bf565b5f5b8381106106235750505f910152565b8181015183820152602001610614565b61065461065d60209361037293610648815190565b80835293849260200190565b95869101610612565b601f01601f191690565b805182529061023a906060806106a161068f6080850160208801518682036020880152610633565b60408701518582036040870152610633565b940151910152565b9061023a91610667565b906106c96106bf835190565b8083529160200190565b90816106db6020830284019460200190565b925f915b8383106106ee57505050505090565b9091929394602061071161070a838560019503875289516106a9565b9760200190565b93019301919392906106df565b602080825261023a929101906106b3565b3461024f5761029461074a610745366004610262565b611885565b6040519182918261071e565b634e487b7160e01b5f52604160045260245ffd5b90601f01601f1916810190811067ffffffffffffffff82111761078c57604052565b610756565b9061026061079e60405190565b928361076a565b67ffffffffffffffff811161078c57602090601f01601f19160190565b90825f939282370152565b909291926107e26107dd826107a5565b610791565b938185528183011161024f576102609160208501906107c2565b9080601f8301121561024f5781602061023a933591016107cd565b9060808282031261024f5761082c8183610253565b9261083a8260208501610342565b92604081013567ffffffffffffffff811161024f578361085b9183016107fc565b92606082013567ffffffffffffffff811161024f5761023a92016107fc565b3461024f5761028e61088d366004610817565b92919091611bd2565b9060208282031261024f5761023a91610342565b3461024f5761028e6108bd366004610896565b611cb1565b5f91031261024f57565b61023a61023a61023a9290565b61023a6801158e460913d000006108cc565b61023a6108d9565b3461024f576109033660046108c2565b61029461090e6108eb565b6040515b9182918290815260200190565b61ffff8116610248565b905035906102608261091f565b9060208282031261024f5761023a91610929565b3461024f5761029461090e610960366004610936565b611d49565b3461024f5761028e610978366004610262565b611d93565b3461024f5761098d3660046108c2565b61028e611db8565b60ff8116610248565b9050359061026082610995565b909160608284031261024f5761023a6109c48484610253565b93604061036b826020870161099e565b3461024f5761028e6109e73660046109ab565b91611e29565b3461024f5761028e610a00366004610896565b611e34565b3461024f57610a153660046108c2565b610294610a20611e4b565b604051918291826001600160a01b03909116815260200190565b9060208282031261024f57813567ffffffffffffffff811161024f576104e0920161047a565b3461024f5761028e610a73366004610a3a565b90611f20565b90815261ffff90911660208201526060810192916102609160400152565b3461024f57610294610ab2610aad366004610262565b611f6b565b60405191939193849384610a79565b919060408382031261024f5761023a90602061036b8286610253565b3461024f5761028e610af0366004610ac1565b90612122565b60808183031261024f57610b0a8282610253565b9261023a610b1b8460208501610342565b93606061036b8260408701610342565b3461024f5761028e610b3e366004610af6565b92919091612354565b3461024f5761028e610b5a3660046104aa565b916124bb565b3461024f5761028e610b73366004610ac1565b90612558565b3461024f57610b893660046108c2565b61028e612562565b61023a916008021c6001600160a01b031690565b9061023a9154610b91565b61023a5f6001610ba5565b3461024f57610bcb3660046108c2565b610294610a20610bb0565b3461024f5761028e610be9366004610896565b61260f565b3461024f57610294610c09610c04366004610896565b61268e565b6040519182918261ffff909116815260200190565b61023a5f6002610ba5565b3461024f57610c393660046108c2565b610294610a20610c1e565b90610c5361038f610385845190565b905f5b818110610c635750505090565b909192610c766103c56001928651610578565b929101610c56565b604080825261023a939192610c9591840190610515565b916020818403910152610c44565b3461024f57610cbb610cb6366004610262565b61271f565b90610294610cc860405190565b92839283610c7e565b6060810192916102609190610552565b3461024f57610294610cfd610cf7366004610ac1565b90612776565b60405191829182610cd1565b3461024f57610294610cfd610d1f366004610ac1565b90612791565b3461024f5761028e610d38366004610262565b61283c565b3461024f5761028e610d50366004610af6565b92919091612945565b61026090610d656129a1565b610e1b565b61022e61023a61023a9290565b61023a90610d6a565b15610d8757565b60405162461bcd60e51b815260206004820152600f60248201526e496e76616c6964206164647265737360881b604482015280606481015b0390fd5b906001600160a01b03905b9181191691161790565b61022e61023a61023a926001600160a01b031690565b61023a90610dd8565b61023a90610dee565b90610e1061023a610e1792610df7565b8254610dc3565b9055565b61026090610e3f610e2e61022e5f610d77565b6001600160a01b0383161415610d80565b6001610e00565b61026090610d59565b90610e5990610df7565b5f5260205260405f2090565b61023a905b60ff1690565b61023a9054610e65565b61023a9081565b61023a9054610e7a565b61023a620151806108cc565b634e487b7160e01b5f52601160045260245ffd5b91908201809211610eb857565b610e97565b61023a610ed391610ecb5f90565b506009610e4f565b610ee3610edf82610e70565b1590565b610f3257610f0761023a610ef960028401610e81565b610f01610e8b565b90610eab565b4210610f3257610f165f6108cc565b610f2d610f2961023a6001849501610e81565b9190565b101591565b505f9061023a5f6108cc565b61023a6060610791565b610f50610f3e565b5f80825260208201819052604082015290565b61023a610f48565b90610260610fab6002610f7c610f3e565b94610f8f610f8982610e70565b15158752565b610fa5610f9e60018301610e81565b6020880152565b01610e81565b6040840152565b61023a90610f6b565b610fca61023a91610ecb610f63565b610fb2565b67ffffffffffffffff811161078c5760208091020190565b90610ff46107dd83610fcf565b918252565b369037565b9061026061101461100e84610fe7565b93610fcf565b601f190160208401610ff9565b5f5b82811061102f57505050565b60209061103a610f63565b8184015201611023565b9061026061105461100e84610fe7565b601f190160208401611021565b91908203918211610eb857565b634e487b7160e01b5f52603260045260245ffd5b80548210156110a25761109a6001915f5260205f2090565b910201905f90565b61106e565b906110b0825190565b8110156110a2576020809102010190565b9091600a80549384808510156111bb57506110dc9084610eab565b838582116111b3575b6110ee91611061565b926110f884610ffe565b92839061110486611044565b9687916111105f6108cc565b885b8110156111a7576111a0818b61118e82611188610fca8e6111668f8f61114e916111426111129d61114893610eab565b90611082565b90610ba5565b61115886846110a7565b906001600160a01b03169052565b611182611175856009936110a7565b516001600160a01b031690565b90610e4f565b926110a7565b52611199818d6110a7565b5060010190565b9050611110565b50945094509450945050565b8591506110e5565b9350505091506111ca5f6108cc565b91610f296111d784610ffe565b93611044565b61023a9061022e565b61023a90546111dd565b156111f757565b60405162461bcd60e51b815260206004820152600e60248201526d139bdd08185d5d1a1bdc9a5e995960921b6044820152606490fd5b90610260929161124061022e60016111e6565b33148015611276575b801561125e575b611259906111f0565b6112ff565b5061125961126d61022e611e4b565b33149050611250565b5061128461022e60026111e6565b3314611249565b91908110156110a2576020020190565b3561023a8161033c565b90610e59906108cc565b905f1990610dce565b906112c861023a610e17926108cc565b82546112af565b6040808252600b908201526a1858da1a595d995b595b9d60aa1b6060820152919061026090602060808501940152565b90929161130b5f6108cc565b81811015611404576113679061134161023a611328866006610e4f565b61133b61133685888c61128b565b61129b565b906112a5565b611350610edf60028301610e70565b806113ed575b806113d1575b61136c575060010190565b61130b565b61138861137882610e81565b916113825f6108cc565b906112b8565b7f285f43474825690efbe14e9d2daef4821d5ba90d53fe73e15559e36f0a9bb5236113c86113b587610df7565b926113bf60405190565b918291826112cf565b0390a25f611199565b506113db81610e81565b6113e7610f295f6108cc565b1161135c565b506113fd61023a60018301610e81565b4211611356565b5050509050565b90610260929161122d565b1561141d57565b60405162461bcd60e51b81526020600482015260096024820152684f6e6c7920636f726560b81b6044820152606490fd5b6102609061146961146261022e60026111e6565b3314611416565b6114d3565b1561147557565b60405162461bcd60e51b815260206004820152601960248201527f4175746f2d636f6d706f756e64206e6f7420656e61626c6564000000000000006044820152606490fd5b610298906108cc565b60208101929161026091906114ba565b611508906115036114e861023a836009610e4f565b6114f96114f482610e70565b61146e565b60024291016112b8565b610df7565b7f6bd630cb3c7c517a4dbe9d60df9726db5c7b4beed12eb76cba0c93951a20acf661153260405190565b8061153d5f826114c3565b0390a2565b6102609061144e565b9061156461155a610385845490565b925f5260205f2090565b905f5b8181106115745750505090565b90919261159861159160019261158987610e81565b815260200190565b9460010190565b929101611567565b9061023a9161154b565b906102606115c4926115bb60405190565b938480926115a0565b038361076a565b61023a906115aa565b5f5b8281106115e257505050565b6020906115ed610f63565b81840152016115d6565b9061026061160761100e84610fe7565b601f1901602084016115d4565b9061026061164b6002611625610f3e565b9461163661163282610e81565b8752565b611645610f9e60018301610e81565b01610e70565b15156040840152565b61023a90611614565b9061167161166c836008610e4f565b6115cb565b9161168261167d845190565b6115f7565b908161168d5f6108cc565b61169861023a875190565b8110156116e4576116df906116ca6116c56116b4866006610e4f565b61133b6116c1858c6110a7565b5190565b611654565b6116d482876110a7565b5261119981866110a7565b61168d565b5092915050565b634e487b7160e01b5f52602260045260245ffd5b906001600283049216801561171f575b602083101461171a57565b6116eb565b91607f169161170f565b80545f93929161174561173b836116ff565b8085529360200190565b9160018116908115611794575060011461175e57505050565b61176f91929394505f5260205f2090565b915f925b8184106117805750500190565b805484840152602090930192600101611773565b92949550505060ff1916825215156020020190565b9061023a91611729565b906102606115c4926117c460405190565b938480926117a9565b61023a6080610791565b9061026061181a60036117e86117cd565b946117f561163282610e81565b611804610f9e600183016117b3565b610fa5611813600283016117b3565b6040880152565b6060840152565b61023a906117d7565b90611833825490565b61183c81610fe7565b9261184e60208501915f5260205f2090565b5f915b83831061185e5750505050565b6004602060019261186e85611821565b815201920192019190611851565b61023a9061182a565b61189c61023a91611894606090565b50600d610e4f565b61187c565b906102609392916118b561022e60016111e6565b331480156118eb575b80156118d3575b6118ce906111f0565b611b54565b506118ce6118e261022e611e4b565b331490506118c5565b506118f961022e60026111e6565b33146118be565b80548210156110a25761109a6004915f5260205f2090565b634e487b7160e01b5f525f60045260245ffd5b915f1960089290920291821b911b610dce565b921b90565b919061195461023a610e17936108cc565b90835461192b565b610260915f91611943565b818110611972575050565b8061197f5f60019361195c565b01611967565b9190601f811161199457505050565b6119a4610260935f5260205f2090565b906020601f8401819004830193106119c6575b6020601f909101040190611967565b90915081906119b7565b906119d9815190565b9067ffffffffffffffff821161078c576119fd826119f785546116ff565b85611985565b602090601f8311600114611a3657610e1792915f9183611a2b575b50505f19600883021c1916906002021790565b015190505f80611a18565b601f19831691611a49855f5260205f2090565b925f5b818110611a8557509160029391856001969410611a6d575b50505002019055565b01515f196008601f8516021c191690555f8080611a64565b91936020600181928787015181550195019201611a4c565b90610260916119d0565b6003611af8606061026094611ac5611abf5f83015190565b866112b8565b611adc611ad3602083015190565b60018701611a9d565b611af3611aea604083015190565b60028701611a9d565b015190565b91016112b8565b9190611b0e5761026091611aa7565b611918565b90815491600160401b83101561078c5782611b3691600161026095018155611900565b90611aff565b90815260406020820181905261023a92910190610633565b611bbc906115037fee48ad85a8081671a3e9ea552bb829b3619542eb24eccc4f98e740e44441ef53949395611b8d61023a84600d610e4f565b611bac611b986117cd565b92611ba18a8552565b610fab886020860152565b611bb7426060840152565b611b13565b9261153d611bc960405190565b92839283611b3c565b906102609392916118a1565b15611be557565b60405162461bcd60e51b8152602060048201526009602482015268139bc81c995dd85c9960ba1b6044820152606490fd5b15611c1d57565b60405162461bcd60e51b815260206004820152600f60248201526e105b1c9958591e4818db185a5b5959608a1b6044820152606490fd5b15611c5b57565b60405162461bcd60e51b815260206004820152600e60248201526d14995dd85c9908195e1c1a5c995960921b6044820152606490fd5b9060ff90610dce565b90611caa61023a610e1792151590565b8254611c91565b6001611ccd61023a61026093611cc8336006610e4f565b6112a5565b611ceb611cd982610e81565b611ce5610f295f6108cc565b11611bde565b611d16611d0e61023a846002850194610fa5611d09610edf88610e70565b611c16565b421115611c54565b611c9a565b61023a60326108cc565b61023a61023a61023a9261ffff1690565b81810292918115918404141715610eb857565b61023a90611d67611d61611d5b611d1b565b92611d25565b80611d36565b90611d36565b61026090611d796129a1565b61026090611d8c610e2e61022e5f610d77565b6002610e00565b61026090611d6d565b611da46129a1565b610260610260611db35f610d77565b6129cb565b610260611d9c565b906102609291611dd361022e60016111e6565b33148015611e09575b8015611df1575b611dec906111f0565b611e1e565b50611dec611e0061022e611e4b565b33149050611de3565b50611e1761022e60026111e6565b3314611ddc565b906102609291612a35565b906102609291611dc0565b6001611ccd61023a61026093611cc8336005610e4f565b61023a5f6111e6565b9061026091611e6961146261022e60026111e6565b611e78565b3561023a8161023d565b90611e825f6108cc565b81811015611f1b57611ebb906009611eb05f611645611eaa611ea586898b61128b565b611e6e565b84610e4f565b611ec0575060010190565b611e82565b6114f9611ed591611182611ea585888a61128b565b611ee6611503611ea583868861128b565b7f6bd630cb3c7c517a4dbe9d60df9726db5c7b4beed12eb76cba0c93951a20acf6611f1060405190565b806113c85f826114c3565b505050565b9061026091611e54565b61023a905b61ffff1690565b61023a9054611f2a565b611f2f61023a61023a9290565b611f5e9061ffff165b9161ffff1690565b019061ffff8211610eb857565b90611f7f611f7a836003610e4f565b610e81565b90611f94611f8f83946004610e4f565b611f36565b91611fc6611fb4611faf85611fa96001611f40565b90611f4d565b611d25565b611d67611fbf611d1b565b9180611d36565b90818110611fd957505061023a5f6108cc565b61023a91611061565b9061026091611fef6129a1565b612053565b634e487b7160e01b5f52601260045260245ffd5b8115612012570490565b611ff4565b61023a60646108cc565b9061ffff90610dce565b611f2f61023a61023a9261ffff1690565b9061204c61023a610e179261202b565b8254612021565b5f516020612f355f395f51905f529061207683612071836003610e4f565b6112b8565b61207f5f611f40565b90612088611d1b565b808510156120fe575b5061209a612017565b806120a484611d25565b116120e8575b5080611503836120be6120c3946004610e4f565b61203c565b9261153d6120d060405190565b9283928390815261ffff909116602082015260400190565b6120c39192506120f790611f40565b91906120aa565b61211b9192506121116121169186612008565b612c57565b611f40565b905f612091565b9061026091611fe2565b1561213357565b60405162461bcd60e51b815260206004820152601060248201526f4f6e6c79206d61726b6574706c61636560801b6044820152606490fd5b9061026093929161218961218261022e60016111e6565b331461212c565b61226a565b1561219557565b60405162461bcd60e51b815260206004820152601c60248201527f416368696576656d656e7420616c726561647920756e6c6f636b6564000000006044820152606490fd5b60026122106040610260946121f2611abf5f83015190565b612209612200602083015190565b600187016112b8565b0151151590565b9101611c9a565b90610260916121da565b90815491600160401b83101561078c578261224491600161026095018155611082565b90611943565b610e6a61023a61023a9290565b9081526040810192916102609160200152565b61233e9061230a6122d56122cf7f0d2905f03971dd710b34c1a52dde26e0e95c254f1b25942b22ce357c654f6dd79695976122c36122b15f610fa58c611cc88a6006610e4f565b6122bd610f295f6108cc565b1461218e565b611d67620151806108cc565b42610eab565b6122f06122e0610f3e565b916122e9878452565b6020830152565b5f604082015261230587611cc8856006610e4f565b612217565b6123218561231c61023a846008610e4f565b612221565b61150361232e600361224a565b6123375f6108cc565b9083612a35565b9261153d61234b60405190565b92839283612257565b9061026093929161216b565b90610260929161237361022e60016111e6565b331480156123a9575b8015612391575b61238c906111f0565b6123e8565b5061238c6123a061022e611e4b565b33149050612383565b506123b761022e60026111e6565b331461237c565b6040808252600590820152641c5d595cdd60da1b6060820152919061026090602060808501940152565b9092916123f45f6108cc565b81811015611404576124379061241161023a611328866005610e4f565b612420610edf60028301610e70565b806124a4575b80612488575b61243c575060010190565b6123f4565b61244861137882610e81565b7f285f43474825690efbe14e9d2daef4821d5ba90d53fe73e15559e36f0a9bb5236113c861247587610df7565b9261247f60405190565b918291826123be565b5061249281610e81565b61249e610f295f6108cc565b1161242c565b506124b461023a60018301610e81565b4211612426565b906102609291612360565b90610260916124d861022e60016111e6565b3314801561250e575b80156124f6575b6124f1906111f0565b612523565b506124f161250561022e611e4b565b331490506124e8565b5061251c61022e60026111e6565b33146124e1565b600261253c61023a61026094611cc86001956005610e4f565b612548611cd982610e81565b01611d16611d09610edf83610e70565b90610260916124c6565b61257b5f8061257561023a336009610e4f565b01611c9a565b61258433612d76565b61258d33610df7565b7f6261cd224ca7837202388cf5a145d988e1c6a393b5a83a5e4e0468a73c056d106125b760405190565b808061153d565b61023a662386f26fc100006108cc565b156125d557565b60405162461bcd60e51b81526020600482015260126024820152714d696e20616d6f756e7420746f6f206c6f7760701b6044820152606490fd5b61262561261d61023a6125be565b8210156125ce565b61264e61263661023a336009610e4f565b612641600182611c9a565b6114f983600183016112b8565b61265733612e46565b7f874f2472bc32dd2ed26b78dcda03999da713251b667ce8003d62ca684ad3d72961153d61268433610df7565b9261091260405190565b612696611d1b565b8082106126d457612111612116916126ad93612008565b806126b6612017565b906126c18291611d25565b116126ca575090565b61023a9150611f40565b505061023a5f611f40565b5f5b8281106126ed57505050565b6020906126f8610f63565b81840152016126e1565b9061026061271261100e84610fe7565b601f1901602084016126df565b9061272e61166c836007610e4f565b9161273f61273a845190565b612702565b908161274a5f6108cc565b61275561023a875190565b8110156116e457612771906116ca6116c56116b4866005610e4f565b61274a565b61023a91611cc86116c592612789610f63565b506005610e4f565b61023a91611cc86116c5926127a4610f63565b506006610e4f565b610260906127b86129a1565b612818565b156127c457565b60405162461bcd60e51b815260206004820152602660248201527f4f776e61626c653a206e6577206f776e657220697320746865207a65726f206160448201526564647265737360d01b6064820152608490fd5b61026090611db361282b61022e5f610d77565b6001600160a01b03831614156127bd565b610260906127ac565b9061026093929161285c61218261022e60016111e6565b6128ad565b1561286857565b60405162461bcd60e51b815260206004820152601760248201527f517565737420616c726561647920636f6d706c657465640000000000000000006044820152606490fd5b61233e906129266129066122cf7fe0b5124b12e878158288d1002ed1fb960faff0ec1c7b3168f86d9d1afd1b0d8b9695976122c36128f45f610fa58c611cc88a6005610e4f565b612900610f295f6108cc565b14612861565b6129116122e0610f3e565b5f604082015261230587611cc8856005610e4f565b6129388561231c61023a846007610e4f565b61150361232e600261224a565b90610260939291612845565b1561295857565b60405162461bcd60e51b815280610dbf600482016020808252818101527f4f776e61626c653a2063616c6c6572206973206e6f7420746865206f776e6572604082015260600190565b6102606129ac611e4b565b6129c56129b83361022e565b916001600160a01b031690565b14612951565b6129ea6129e46129da5f6111e6565b611503845f610e00565b91610df7565b907f8be0079c531659141344cd1fd0a4f28419497f9722a3daafe3b4186f6b6457e0612a1560405190565b5f90a3565b612a279061ffff16611f56565b90039061ffff8211610eb857565b9190612a405f6108cc565b90612a4a5f61224a565b60ff821603612b9a575050612a94612a815f516020612f355f395f51905f5292612a7b670de0b6b3a76400006108cc565b90612008565b612a8f611f7a856003610e4f565b610eab565b91612aa483612071836003610e4f565b612aad5f611f40565b90612ab6611d1b565b80851015612b80575b50612ac8612017565b80612ad284611d25565b11612b6a575b5080612aeb611f8f6120c3936004610e4f565b61ffff811661ffff851611612b01575b50610df7565b612b5e611faf612b6492612b1a876120be876004610e4f565b612b2385610df7565b7f544e2df6bb9ef7416b348b09833618e722751066f5f219dcd35b9403ab23add2612b4d60405190565b61ffff8a168152602090a286612a1a565b82612ebb565b5f612afb565b6120c3919250612b7990611f40565b9190612ad8565b612b939192506121116121169186612008565b905f612abf565b909150612ba7600161224a565b60ff821603612bd25750505f516020612f355f395f51905f52612a94612bcd60056108cc565b612a81565b612bdc600261224a565b60ff821603612c025750505f516020612f355f395f51905f52612a94612bcd60326108cc565b612c16612c0f600361224a565b9160ff1690565b14612c33575b612a945f516020612f355f395f51905f5291612a81565b505f516020612f355f395f51905f52612a94612c4f60c86108cc565b915050612c1c565b905f612c6360036108cc565b831115612cdd5750612c94826002612c84612c7e60026108cc565b83612008565b916001938493610f0160016108cc565b935b612ca1575b50505050565b90919294612cac8190565b861015612cd75750612cce612cc586612a8f8185612008565b612a7b846108cc565b92919082612c96565b94612c9b565b91612cea610f295f6108cc565b03612cf157565b905061023a60016108cc565b91906008610dce91029161193e6001600160a01b03841b90565b9190612d2861023a610e1793610df7565b908354612cfd565b634e487b7160e01b5f52603160045260245ffd5b610260915f91612d17565b80548015612d71575f190190612d6e612d688383611082565b90612d44565b55565b612d30565b612d89612d8482600c610e4f565b610e70565b612d905750565b5f612df161026092600b612ddd612dd8612dad611f7a8585610e4f565b600a90612dcb612dbb835490565b612dc560016108cc565b90611061565b90818103612df657505090565b612d4f565b612dec84611d1684600c610e4f565b610e4f565b61195c565b612071612e0961114861023a9486611082565b612e1d81612e178588611082565b90612d17565b87610e4f565b90815491600160401b83101561078c5782612e1791600161026095018155611082565b612e57610edf612d8483600c610e4f565b612e5e5750565b6001611d1661026092612e7e612e73600a5490565b61207183600b610e4f565b612e8981600a612e23565b600c610e4f565b90610ff46107dd836107a5565b3d15612eb657612eac3d612e90565b903d5f602084013e565b606090565b90612ec890611d676108d9565b90612ed230610df7565b8290311015612edf575050565b5f80612eed61150384610df7565b6040515f9186905af1612efe612e9d565b50612f07575050565b61153d6126847fe2403640ba68fed3a2f88b7557551d1993f84b99bb10ff833f0cf8db0c5e048692610df756fe36b46cf5759d0fd1227e4c888046e2764bcb699ad4acc5ada90dfceff1dc2e1ba264697066735822122035a6da38d8420d505ea371f39347e591909f739640e8e389b80a5ecd40a41a4a64736f6c634300081c0033",
  "linkReferences": {},
  "deployedLinkReferences": {}
}