{
  "_format": "hh-sol-artifact-1",
  "contractName": "EnhancedSmartStakingSkills",
  "sourceName": "contracts/SmartStaking/EnhancedSmartStakingSkills.sol",
  "abi": [
    {
      "inputs": [],
      "stateMutability": "nonpayable",
      "type": "constructor"
    },
    {
      "anonymous": false,
      "inputs": [
        {
          "indexed": true,
          "internalType": "address",
          "name": "user",
          "type": "address"
        },
        {
          "indexed": false,
          "internalType": "string",
          "name": "boostType",
          "type": "string"
        },
        {
          "indexed": false,
          "internalType": "uint256",
          "name": "attemptedValue",
          "type": "uint256"
        },
        {
          "indexed": false,
          "internalType": "uint256",
          "name": "maxAllowed",
          "type": "uint256"
        }
      ],
      "name": "BoostLimitReached",
      "type": "event"
    },
    {
      "anonymous": false,
      "inputs": [
        {
          "indexed": true,
          "internalType": "address",
          "name": "previousOwner",
          "type": "address"
        },
        {
          "indexed": true,
          "internalType": "address",
          "name": "newOwner",
          "type": "address"
        }
      ],
      "name": "OwnershipTransferred",
      "type": "event"
    },
    {
      "anonymous": false,
      "inputs": [
        {
          "indexed": true,
          "internalType": "address",
          "name": "user",
          "type": "address"
        },
        {
          "indexed": true,
          "internalType": "uint256",
          "name": "nftId",
          "type": "uint256"
        },
        {
          "indexed": false,
          "internalType": "enum IStakingIntegration.SkillType",
          "name": "skillType",
          "type": "uint8"
        },
        {
          "indexed": false,
          "internalType": "uint16",
          "name": "effectValue",
          "type": "uint16"
        },
        {
          "indexed": false,
          "internalType": "uint16",
          "name": "totalBoost",
          "type": "uint16"
        }
      ],
      "name": "SkillActivated",
      "type": "event"
    },
    {
      "anonymous": false,
      "inputs": [
        {
          "indexed": true,
          "internalType": "address",
          "name": "user",
          "type": "address"
        },
        {
          "indexed": false,
          "internalType": "uint256",
          "name": "nftId",
          "type": "uint256"
        },
        {
          "indexed": false,
          "internalType": "string",
          "name": "reason",
          "type": "string"
        }
      ],
      "name": "SkillActivationRejected",
      "type": "event"
    },
    {
      "anonymous": false,
      "inputs": [
        {
          "indexed": true,
          "internalType": "address",
          "name": "user",
          "type": "address"
        },
        {
          "indexed": true,
          "internalType": "uint256",
          "name": "nftId",
          "type": "uint256"
        },
        {
          "indexed": false,
          "internalType": "enum IStakingIntegration.SkillType",
          "name": "skillType",
          "type": "uint8"
        },
        {
          "indexed": false,
          "internalType": "uint16",
          "name": "totalBoost",
          "type": "uint16"
        }
      ],
      "name": "SkillDeactivated",
      "type": "event"
    },
    {
      "anonymous": false,
      "inputs": [
        {
          "indexed": true,
          "internalType": "uint256",
          "name": "nftId",
          "type": "uint256"
        },
        {
          "indexed": false,
          "internalType": "enum IEnhancedSmartStakingSkills.SkillRarity",
          "name": "rarity",
          "type": "uint8"
        },
        {
          "indexed": false,
          "internalType": "uint16",
          "name": "rarityMultiplier",
          "type": "uint16"
        }
      ],
      "name": "SkillRarityUpdated",
      "type": "event"
    },
    {
      "inputs": [
        {
          "internalType": "uint256[]",
          "name": "nftIds",
          "type": "uint256[]"
        },
        {
          "internalType": "enum IEnhancedSmartStakingSkills.SkillRarity[]",
          "name": "rarities",
          "type": "uint8[]"
        }
      ],
      "name": "batchSetSkillRarity",
      "outputs": [],
      "stateMutability": "nonpayable",
      "type": "function"
    },
    {
      "inputs": [],
      "name": "coreStakingContract",
      "outputs": [
        {
          "internalType": "address",
          "name": "",
          "type": "address"
        }
      ],
      "stateMutability": "view",
      "type": "function"
    },
    {
      "inputs": [
        {
          "internalType": "address",
          "name": "user",
          "type": "address"
        }
      ],
      "name": "getActiveSkillsWithDetails",
      "outputs": [
        {
          "components": [
            {
              "internalType": "uint256",
              "name": "nftId",
              "type": "uint256"
            },
            {
              "internalType": "enum IStakingIntegration.SkillType",
              "name": "skillType",
              "type": "uint8"
            },
            {
              "internalType": "enum IEnhancedSmartStakingSkills.SkillRarity",
              "name": "rarity",
              "type": "uint8"
            },
            {
              "internalType": "uint16",
              "name": "boost",
              "type": "uint16"
            },
            {
              "internalType": "uint16",
              "name": "rarityMultiplier",
              "type": "uint16"
            },
            {
              "internalType": "bool",
              "name": "isActive",
              "type": "bool"
            },
            {
              "internalType": "uint64",
              "name": "activatedAt",
              "type": "uint64"
            },
            {
              "internalType": "uint64",
              "name": "cooldownEnds",
              "type": "uint64"
            }
          ],
          "internalType": "struct IEnhancedSmartStakingSkills.SkillInfo[]",
          "name": "skills",
          "type": "tuple[]"
        }
      ],
      "stateMutability": "view",
      "type": "function"
    },
    {
      "inputs": [],
      "name": "getAllSkillBoosts",
      "outputs": [
        {
          "internalType": "enum IStakingIntegration.SkillType[]",
          "name": "skillTypes",
          "type": "uint8[]"
        },
        {
          "internalType": "uint16[]",
          "name": "boosts",
          "type": "uint16[]"
        }
      ],
      "stateMutability": "view",
      "type": "function"
    },
    {
      "inputs": [
        {
          "internalType": "enum IStakingIntegration.SkillType",
          "name": "skillType",
          "type": "uint8"
        }
      ],
      "name": "getSkillBoost",
      "outputs": [
        {
          "internalType": "uint16",
          "name": "boost",
          "type": "uint16"
        }
      ],
      "stateMutability": "view",
      "type": "function"
    },
    {
      "inputs": [
        {
          "internalType": "uint256",
          "name": "nftId",
          "type": "uint256"
        }
      ],
      "name": "getSkillRarity",
      "outputs": [
        {
          "internalType": "enum IEnhancedSmartStakingSkills.SkillRarity",
          "name": "rarity",
          "type": "uint8"
        },
        {
          "internalType": "uint16",
          "name": "multiplier",
          "type": "uint16"
        }
      ],
      "stateMutability": "view",
      "type": "function"
    },
    {
      "inputs": [
        {
          "internalType": "address",
          "name": "user",
          "type": "address"
        }
      ],
      "name": "getUserBoosts",
      "outputs": [
        {
          "internalType": "uint16",
          "name": "totalBoost",
          "type": "uint16"
        },
        {
          "internalType": "uint16",
          "name": "rarityMultiplier",
          "type": "uint16"
        },
        {
          "internalType": "uint16",
          "name": "effectiveBoost",
          "type": "uint16"
        }
      ],
      "stateMutability": "view",
      "type": "function"
    },
    {
      "inputs": [
        {
          "internalType": "address",
          "name": "user",
          "type": "address"
        }
      ],
      "name": "getUserSkillProfile",
      "outputs": [
        {
          "components": [
            {
              "internalType": "uint256[]",
              "name": "activeSkillNFTIds",
              "type": "uint256[]"
            },
            {
              "internalType": "uint16",
              "name": "totalBoost",
              "type": "uint16"
            },
            {
              "internalType": "uint16",
              "name": "stakingBoostTotal",
              "type": "uint16"
            },
            {
              "internalType": "uint16",
              "name": "feeDiscountTotal",
              "type": "uint16"
            },
            {
              "internalType": "uint16",
              "name": "lockTimeReduction",
              "type": "uint16"
            },
            {
              "internalType": "bool",
              "name": "hasAutoCompound",
              "type": "bool"
            },
            {
              "internalType": "uint16",
              "name": "rarityMultiplier",
              "type": "uint16"
            },
            {
              "internalType": "uint16",
              "name": "level",
              "type": "uint16"
            },
            {
              "internalType": "uint8",
              "name": "activeSkillCount",
              "type": "uint8"
            }
          ],
          "internalType": "struct IEnhancedSmartStakingSkills.UserSkillProfile",
          "name": "profile",
          "type": "tuple"
        }
      ],
      "stateMutability": "view",
      "type": "function"
    },
    {
      "inputs": [
        {
          "internalType": "address",
          "name": "user",
          "type": "address"
        },
        {
          "internalType": "uint256",
          "name": "nftId",
          "type": "uint256"
        }
      ],
      "name": "isSkillActive",
      "outputs": [
        {
          "internalType": "bool",
          "name": "isActive",
          "type": "bool"
        }
      ],
      "stateMutability": "view",
      "type": "function"
    },
    {
      "inputs": [],
      "name": "marketplaceContract",
      "outputs": [
        {
          "internalType": "address",
          "name": "",
          "type": "address"
        }
      ],
      "stateMutability": "view",
      "type": "function"
    },
    {
      "inputs": [
        {
          "internalType": "address",
          "name": "user",
          "type": "address"
        },
        {
          "internalType": "uint256",
          "name": "nftId",
          "type": "uint256"
        },
        {
          "internalType": "enum IStakingIntegration.SkillType",
          "name": "skillType",
          "type": "uint8"
        },
        {
          "internalType": "uint16",
          "name": "effectValue",
          "type": "uint16"
        }
      ],
      "name": "notifySkillActivation",
      "outputs": [],
      "stateMutability": "nonpayable",
      "type": "function"
    },
    {
      "inputs": [
        {
          "internalType": "address",
          "name": "user",
          "type": "address"
        },
        {
          "internalType": "uint256",
          "name": "nftId",
          "type": "uint256"
        }
      ],
      "name": "notifySkillDeactivation",
      "outputs": [],
      "stateMutability": "nonpayable",
      "type": "function"
    },
    {
      "inputs": [],
      "name": "owner",
      "outputs": [
        {
          "internalType": "address",
          "name": "",
          "type": "address"
        }
      ],
      "stateMutability": "view",
      "type": "function"
    },
    {
      "inputs": [],
      "name": "renounceOwnership",
      "outputs": [],
      "stateMutability": "nonpayable",
      "type": "function"
    },
    {
      "inputs": [
        {
          "internalType": "address",
          "name": "_coreStaking",
          "type": "address"
        }
      ],
      "name": "setCoreStakingContract",
      "outputs": [],
      "stateMutability": "nonpayable",
      "type": "function"
    },
    {
      "inputs": [
        {
          "internalType": "address",
          "name": "_marketplace",
          "type": "address"
        }
      ],
      "name": "setMarketplaceContract",
      "outputs": [],
      "stateMutability": "nonpayable",
      "type": "function"
    },
    {
      "inputs": [
        {
          "internalType": "uint256",
          "name": "nftId",
          "type": "uint256"
        },
        {
          "internalType": "enum IEnhancedSmartStakingSkills.SkillRarity",
          "name": "rarity",
          "type": "uint8"
        }
      ],
      "name": "setSkillRarity",
      "outputs": [],
      "stateMutability": "nonpayable",
      "type": "function"
    },
    {
      "inputs": [
        {
          "internalType": "address",
          "name": "newOwner",
          "type": "address"
        }
      ],
      "name": "transferOwnership",
      "outputs": [],
      "stateMutability": "nonpayable",
      "type": "function"
    },
    {
      "inputs": [
        {
          "internalType": "enum IStakingIntegration.SkillType",
          "name": "skillType",
          "type": "uint8"
        },
        {
          "internalType": "uint16",
          "name": "newBoost",
          "type": "uint16"
        }
      ],
      "name": "updateSkillBoost",
      "outputs": [],
      "stateMutability": "nonpayable",
      "type": "function"
    }
  ],
  "bytecode": "0x608060405234610022576100116100ee565b604051612d116103a18239612d1190f35b5f80fd5b6100366100336100339290565b90565b61ffff1690565b634e487b7160e01b5f52602160045260245ffd5b6005111561005b57565b61003d565b9061006a82610051565b565b61003390610060565b9061007f9061006c565b5f5260205260405f2090565b9061ffff905b9181191691161790565b6100366100336100339261ffff1690565b906100bc6100336100c39261009b565b825461008b565b9055565b6014111561005b57565b9061006a826100c7565b610033906100d1565b9061007f906100db565b6100f66102db565b61006a6101036064610026565b6101186008916101135f84610075565b6100ac565b6101306101256096610026565b610113600184610075565b61014861013d60c8610026565b610113600284610075565b61016161015661012c610026565b610113600384610075565b61017a61016f6101f4610026565b610113600484610075565b61011360136101885f610026565b6102b860079161019c816101135f866100e4565b610244816101136101ae610177610026565b986101be8a61011360018a6100e4565b6102266101cc6102ee610026565b6101db8161011360028c6100e4565b6101f46101e96105dc610026565b61011360038c6100e4565b6102038561011360048c6100e4565b61021b61021060bc610026565b61011360058c6100e4565b61011360068a6100e4565b61023e610234610753610026565b61011389806100e4565b866100e4565b610253816101136009866100e4565b61026281610113600a866100e4565b61027181610113600b866100e4565b61028081610113600c866100e4565b61028f86610113600d866100e4565b61029e81610113600e866100e4565b6102ad81610113600f866100e4565b6101136010846100e4565b6102c7846101136011846100e4565b6102d6846101136012846100e4565b6100e4565b61006a803361034c565b610033905b6001600160a01b031690565b61003390546102e5565b906001600160a01b0390610091565b610033906102ea906001600160a01b031682565b6100339061030f565b61003390610323565b906103456100336100c39261032c565b8254610300565b61037061036a61035b5f6102f6565b610365845f610335565b61032c565b9161032c565b907f8be0079c531659141344cd1fd0a4f28419497f9722a3daafe3b4186f6b6457e061039b60405190565b5f90a356fe60806040526004361015610011575f80fd5b5f3560e01c80631102610e146101405780631e26d5891461013b5780632e2dc84a1461013657806330c1d2e714610131578063313a19541461012c5780634411ac5f14610127578063549d5c771461012257806359ad71401461011d578063715018a61461011857806389257817146101135780638da5cb5b1461010e57806395e505d814610109578063bf37bb6a14610104578063d1bb5cf1146100ff578063d349e1d9146100fa578063dedd3430146100f5578063e7e75400146100f0578063eb97e4eb146100eb5763f2fde38b0361014557610909565b6108e2565b6107dc565b61076d565b610734565b61062d565b6105dc565b6104cd565b61047c565b610463565b61044b565b610417565b6103ce565b61039e565b61036e565b6102d6565b610293565b6101fc565b61018d565b5f80fd5b6001600160a01b031690565b90565b6001600160a01b0381165b0361014557565b9050359061017782610158565b565b90602082820312610145576101559161016a565b34610145576101a56101a0366004610179565b610a0e565b60405180805b0390f35b80610163565b90503590610177826101af565b6005111561014557565b90503590610177826101c2565b9190604083820312610145576101559060206101f582866101b5565b94016101cc565b34610145576101a561020f3660046101d9565b90610bab565b909182601f830112156101455781359167ffffffffffffffff831161014557602001926020830284011161014557565b909160408284031261014557813567ffffffffffffffff8111610145578361026e918401610215565b929093602082013567ffffffffffffffff81116101455761028f9201610215565b9091565b34610145576101a56102a6366004610245565b92919091610d5b565b9190604083820312610145576101559060206102cb828661016a565b94016101b5565b9052565b34610145576101ab6102f26102ec3660046102af565b90610d71565b60405191829182901515815260200190565b6014111561014557565b9050359061017782610304565b61ffff8116610163565b905035906101778261031b565b60808183031261014557610346828261016a565b9261015561035784602085016101b5565b936060610367826040870161030e565b9401610325565b34610145576101a5610381366004610332565b92919091611bf2565b90602082820312610145576101559161030e565b34610145576101ab6103b96103b436600461038a565b611bfe565b6040519182918261ffff909116815260200190565b34610145576101a56103e1366004610179565b611c3a565b61ffff909116815260608101939261017792909160409161040d905b61ffff166020830152565b019061ffff169052565b34610145576101ab61043261042d366004610179565b611c43565b604051919391938493846103e6565b5f91031261014557565b346101455761045b366004610441565b6101a5611cdd565b34610145576101a56104763660046102af565b90611e2b565b346101455761048c366004610441565b6101ab610497611e35565b604051918291826001600160a01b03909116815260200190565b919060408382031261014557610155906020610367828661030e565b34610145576101a56104e03660046104b1565b90611ed0565b0190565b9061050a6105036104f9845190565b8084529260200190565b9260200190565b905f5b81811061051a5750505090565b9091926105376105306001928651815260200190565b9460200190565b92910161050d565b90610155906101008061056061012084015f8701518582035f8701526104ea565b60208087015161ffff16908501529460408181015161ffff169085015260608181015161ffff169085015260808181015161ffff169085015260a08181015115159085015260c08181015161ffff169085015260e08181015161ffff1690850152015160ff16910152565b60208082526101559291019061053f565b34610145576101ab6105f76105f2366004610179565b6121a5565b604051918291826105cb565b610155916008021c6001600160a01b031690565b906101559154610603565b6101555f6001610617565b346101455761063d366004610441565b6101ab610497610622565b634e487b7160e01b5f52602160045260245ffd5b6014111561066657565b610648565b906101778261065c565b6101559061066b565b6102d290610675565b906104e68160209361067e565b906106a36105036104f9845190565b905f5b8181106106b35750505090565b9091926106c66105306001928651610687565b9291016106a6565b906106dd6105036104f9845190565b905f5b8181106106ed5750505090565b909192610707610530600192865161ffff16815260200190565b9291016106e0565b604080825261015593919261072691840190610694565b9160208184039101526106ce565b3461014557610744366004610441565b61074c61226e565b906101ab61075960405190565b9283928361070f565b6101555f6002610617565b346101455761077d366004610441565b6101ab610497610762565b9060208282031261014557610155916101b5565b6005111561066657565b906101778261079c565b610155906107a6565b6102d2906107b0565b91602061017792949361040d60408201965f8301906107b9565b34610145576107f46107ef366004610788565b612313565b906101ab61080160405190565b928392836107c2565b80518252610177919060e090819061082a6020820151602086019061067e565b61083c604082015160408601906107b9565b60608181015161ffff169085015260808181015161ffff169085015260a08181015115159085015260c08181015167ffffffffffffffff1690850152015167ffffffffffffffff16910152565b906104e6816101009361080a565b906108a66105036104f9845190565b905f5b8181106108b65750505090565b9091926108c96105306001928651610889565b9291016108a9565b602080825261015592910190610897565b34610145576101ab6108fd6108f8366004610179565b61240a565b604051918291826108d1565b34610145576101a561091c366004610179565b6125d5565b6101779061092d61262e565b6109e3565b6101496101556101559290565b61015590610932565b1561094f57565b60405162461bcd60e51b815260206004820152600f60248201526e496e76616c6964206164647265737360881b604482015280606481015b0390fd5b906001600160a01b03905b9181191691161790565b610149610155610155926001600160a01b031690565b610155906109a0565b610155906109b6565b906109d86101556109df926109bf565b825461098b565b9055565b61017790610a076109f66101495f61093f565b6001600160a01b0383161415610948565b60016109c8565b61017790610921565b61015590610149565b6101559054610a17565b15610a3157565b60405162461bcd60e51b815260206004820152601060248201526f4f6e6c79206d61726b6574706c61636560801b6044820152606490fd5b9061017791610a85610a7e6101496001610a20565b3314610a2a565b610b2a565b15610a9157565b60405162461bcd60e51b815260206004820152600e60248201526d496e76616c69642072617269747960901b6044820152606490fd5b6101556101556101559290565b90610ade90610ac7565b5f5260205260405f2090565b9060ff90610996565b90610b036101556109df926107b0565b8254610aea565b90610ade906107b0565b610155905b61ffff1690565b6101559054610b14565b7fe4c060b5d1855b8343036624828df128ad5b506efec729de52efe055fcf2085d90610b69610b5960046107a6565b610b62856107a6565b1115610a8a565b610b7d83610b78836006610ad4565b610af3565b610b99610b93610b8e856008610b0a565b610b20565b91610ac7565b92610ba661080160405190565b0390a2565b9061017791610a69565b90610177939291610bcc610a7e6101496001610a20565b610c4c565b15610bd857565b60405162461bcd60e51b815260206004820152600f60248201526e098cadccee8d040dad2e6dac2e8c6d608b1b6044820152606490fd5b634e487b7160e01b5f52603260045260245ffd5b9190811015610c33576020020190565b610c0f565b35610155816101c2565b35610155816101af565b9392908093610c5c838614610bd1565b610c655f610ac7565b855b811015610d5257610d4b81867fe4c060b5d1855b8343036624828df128ad5b506efec729de52efe055fcf2085d8a610d35610d2f610cca868c610d29610cfb838f610d06610c679f610cca818f80610ce2610ccf610cca610ce7978e8096610c23565b610c38565b610b62610cdc60046107a6565b916107a6565b610c23565b610b788c610d00610cfb8787600694610c23565b610c42565b90610ad4565b610d23610b8e8d610d1d610cca868a600894610c23565b90610b0a565b99610c23565b97610c23565b93610ac7565b92610d4261080160405190565b0390a260010190565b9050610c65565b50945050505050565b90610177939291610bb5565b90610ade906109bf565b90610d8b61015561015593610d835f90565b506003610d67565b612658565b90610177939291610da7610a7e6101496001610a20565b6112b4565b15610db357565b60405162461bcd60e51b8152602060048201526012602482015271496e76616c696420736b696c6c207479706560701b6044820152606490fd5b15610df457565b60405162461bcd60e51b815260206004820152601460248201527f536b696c6c20616c7265616479206163746976650000000000000000000000006044820152606490fd5b610e466101556101559290565b60ff1690565b6101556005610e39565b6101556101556101559260ff1690565b15610e6d57565b60405162461bcd60e51b815260206004820152601260248201527113585e081cdada5b1b1cc81c995858da195960721b6044820152606490fd5b610b196101556101559290565b90610ade90610675565b61015590610e46565b6101559054610ebe565b6101556101556101559261ffff1690565b634e487b7160e01b5f52601160045260245ffd5b81810292918115918404141715610f0957565b610ee2565b634e487b7160e01b5f52601260045260245ffd5b90610f2c565b9190565b908115610f37570490565b610f0e565b6101559060301c610b19565b6101559054610f3c565b610f639061ffff165b9161ffff1690565b019061ffff8211610f0957565b610155610ea6610ac7565b6060808252600e908201526d3637b1b5afb932b23ab1ba34b7b760911b608082015290929161017791604090610fb760a082015b966020830152565b0152565b6101559060201c610b19565b6101559054610fbb565b6101556115f9610ac7565b6060808252600c908201526b19995957d91a5cd8dbdd5b9d60a21b608082015290929161017791604090610fb760a08201610faf565b6101559060101c610b19565b6101559054611012565b6060808252600790820152667374616b696e6760c81b608082015290929161017791604090610fb760a08201610faf565b90610b036101556109df92610675565b9062ffff009060081b610996565b610b196101556101559261ffff1690565b906110986101556109df92611077565b8254611069565b6110ac6101556101559290565b67ffffffffffffffff1690565b906affffffffffffffff0000009060181b610996565b6110ac6101556101559267ffffffffffffffff1690565b906110f66101556109df926110cf565b82546110b9565b9072ffffffffffffffff00000000000000000000009060581b610996565b9061112b6101556109df926110cf565b82546110fd565b9060ff60981b9060981b610996565b906111516101556109df92151590565b8254611132565b9061ffff90610996565b906111726101556109df92611077565b8254611158565b9060ff60681b9060681b610996565b610e466101556101559260ff1690565b906111a86101556109df92611188565b8254611179565b6101559060481c610b19565b61015590546111af565b906affff0000000000000000009060481b610996565b906111eb6101556109df92611077565b82546111c5565b9068ff00000000000000009060401b610996565b906112166101556109df92151590565b82546111f2565b9067ffff0000000000009060301b610996565b906112406101556109df92611077565b825461121d565b9065ffff000000009060201b610996565b906112686101556109df92611077565b8254611247565b9063ffff00009060101b610996565b9061128e6101556109df92611077565b825461126f565b60409061040d610177949695939661040260608401985f85019061067e565b91926112d26112c25f61066b565b6112cb8661066b565b1415610dac565b6003936112f56112f06112ec85610d8b610155898b610d67565b1590565b610ded565b611303610155856004610d67565b9161133561131c611317610155888a610d67565b612678565b61132f610f2861132a610e4c565b610e56565b10610e66565b61133e5f610ea7565b61ffff82161115611bdd57915b60069061138b610b8e6113666113618886610ad4565b610ec7565b61136f5f6107a6565b611378826107a6565b1480611bbd575b611baa575b6008610b0a565b916113c26113bd6113ad61139e88610ed1565b6113a787610ed1565b90610ef6565b6113b76064610ac7565b90610f22565b610ea7565b926001926113cf8461066b565b6113d88761066b565b148015611b90575b8015611b77575b8015611b5d575b8015611b43575b8015611b29575b8015611b0f575b156118025761142461141f8661141a87850161101e565b610f52565b610ed1565b61142c610f70565b908181116117485750506115cd94846115b4948c6115ae9561151f8e9f8e9f7fcc2690f10d3d819287fb2ccf72d49018cd5fb1e545873e633c503ac034930d4d9f8f8f9261150e6115ba9f610155938161141a9f611500611508946115149a6114cd5f6114c56115199f8e6113179f8e6114b86114c0926114b36101558461015598610d67565b612691565b506005610d67565b610ad4565b019182611059565b6114d78682611088565b6114e96114e34261109f565b826110e6565b6114fb6114f55f61109f565b8261111b565b611141565b019e8f610b20565b8d611162565b87610d67565b610e39565b87611198565b611528866111bb565b611534610f5b5f610ea7565b14611730575b611546610b19876111bb565b61ffff821611611720575b5061155b8361066b565b6115648b61066b565b14908115611704575b81156116ea575b5080156116d0575b80156116b6575b801561169c575b8015611682575b156115d25750506115a8610b8e9161141a8461101e565b8261127e565b976109bf565b95610ac7565b956115c460405190565b93849384611295565b0390a3565b6115db9061066b565b6115e48961066b565b148015611668575b156116085750611602610b8e9161141a84610fc7565b82611258565b611612600561066b565b61161b8961066b565b036116375750611631610b8e9161141a84610f48565b82611230565b9050611643600461066b565b61164c8861066b565b14611658575b50610b20565b6116629082611206565b5f611652565b50611673600761066b565b61167c8961066b565b146115ec565b5061168d600d61066b565b6116968a61066b565b14611591565b506116a7601361066b565b6116b08a61066b565b1461158a565b506116c1601261066b565b6116ca8a61066b565b14611583565b506116db601161066b565b6116e48a61066b565b1461157c565b6116f4915061066b565b6116fd8a61066b565b145f611574565b9050611710600261066b565b6117198b61066b565b149061156d565b61172a90866111db565b5f611551565b61174361173d6064610ea7565b876111db565b61153a565b965099505050505050610ba69291507f5548fa99d7bee8f6d9dc9ff8e10c4a7252a37d317005804af18cc3c3247473546117a27fc4a62a0323fd3f6748c666cae66aea30daa57b62aaa8a8eeaa89be144bb44e23956109bf565b9586926117ba6117b160405190565b92839283611028565b0390a260405191829182908152604060208201819052601c908201527f5374616b696e6720626f6f7374206c696d697420657863656564656400000000606082015260800190565b61180b8361066b565b6118148761066b565b148015611af5575b1561197c5761183361141f8661141a878501610fc7565b61183b610fd1565b908181116118c25750506115cd94846115b4948c6115ae9561151f8e9f8e9f7fcc2690f10d3d819287fb2ccf72d49018cd5fb1e545873e633c503ac034930d4d9f8f8f9261150e6115ba9f610155938161141a9f611500611508946115149a6114cd5f6114c56115199f8e6113179f8e6114b86114c0926114b36101558461015598610d67565b965099505050505050610ba69291507f5548fa99d7bee8f6d9dc9ff8e10c4a7252a37d317005804af18cc3c32474735461191c7fc4a62a0323fd3f6748c666cae66aea30daa57b62aaa8a8eeaa89be144bb44e23956109bf565b95869261193461192b60405190565b92839283610fdc565b0390a260405191829182908152604060208201819052601b908201527f46656520646973636f756e74206c696d69742065786365656465640000000000606082015260800190565b611986600561066b565b61198f8761066b565b14611a12575b6115cd94846115b4948c6115ae9561151f8e9f8e9f7fcc2690f10d3d819287fb2ccf72d49018cd5fb1e545873e633c503ac034930d4d9f8f8f9261150e6115ba9f610155938161141a9f611500611508946115149a6114cd5f6114c56115199f8e6113179f8e6114b86114c0926114b36101558461015598610d67565b611a2461141f8661141a878501610f48565b611a2c610f70565b90818111611a3b575050611995565b965099505050505050610ba69291507f5548fa99d7bee8f6d9dc9ff8e10c4a7252a37d317005804af18cc3c324747354611a957fc4a62a0323fd3f6748c666cae66aea30daa57b62aaa8a8eeaa89be144bb44e23956109bf565b958692611aad611aa460405190565b92839283610f7b565b0390a260405191829182908152604060208201819052601d908201527f4c6f636b20726564756374696f6e206c696d6974206578636565646564000000606082015260800190565b50611b00600761066b565b611b098761066b565b1461181c565b50611b1a600d61066b565b611b238761066b565b14611403565b50611b34601361066b565b611b3d8761066b565b146113fc565b50611b4e601261066b565b611b578761066b565b146113f5565b50611b68601161066b565b611b718761066b565b146113ee565b50611b818a61066b565b611b8a8761066b565b146113e7565b50611b9b600261066b565b611ba48761066b565b146113e0565b611bb85f610b788a88610ad4565b611384565b50611bcb6113618987610ad4565b611bd7610cdc5f6107a6565b1461137f565b50611bec610b8e826007610eb4565b9161134b565b90610177939291610d90565b610b8e61015591611c0c5f90565b506007610eb4565b61017790611c2061262e565b61017790611c336109f66101495f61093f565b60026109c8565b61017790611c14565b611c5b610155600192611c535f90565b506004610d67565b0190611c668261101e565b908192611c72816111bb565b611c7e610f5b5f610ea7565b03611caa57506101556113bd6113ad611c976064610ea7565b6113a7611ca48297610ed1565b91610ed1565b6113bd6113ad611cbc610155936111bb565b611c97565b611cc961262e565b610177610177611cd85f61093f565b6126a9565b610177611cc1565b9061017791611cfa610a7e6101496001610a20565b611d58565b15611d0657565b60405162461bcd60e51b815260206004820152601060248201526f536b696c6c206e6f742061637469766560801b6044820152606490fd5b91602061017792949361040d60408201965f83019061067e565b90611d73611d6e82610d8b610155866003610d67565b611cff565b7f709f86ffdc2166bd4851014cbf752901db2aca80b80ee474cbf2328540bcf7df611da6610155836114c0866005610d67565b92611de75f611db486610ec7565b95611dcc86611dc7610155876003610d67565b6126ff565b5001611dd85f82611141565b611de14261109f565b9061111b565b611df081612717565b611e15610d2f611e0f6001611e09610155866004610d67565b01610b20565b926109bf565b936115cd611e2260405190565b92839283611d3e565b9061017791611ce5565b6101555f610a20565b9061017791611e4b61262e565b611e8d565b15611e5757565b60405162461bcd60e51b815260206004820152600e60248201526d084dedee6e840e8dede40d0d2ced60931b6044820152606490fd5b90611ecb61017792611eaa611ea15f61066b565b6112cb8361066b565b611ec4611eb86109c4610ea7565b61ffff85161115611e50565b6007610eb4565b611162565b9061017791611e3e565b634e487b7160e01b5f52604160045260245ffd5b90601f01601f1916810190811067ffffffffffffffff821117611f1057604052565b611eda565b90610177611f2260405190565b9283611eee565b610155610120611f15565b611f3c611f29565b9060608252602080808080808080808a015f8152015f5b8152015f8152015f8152015f8152015f8152015f8152015f905250565b610155611f34565b6101559081565b6101559054611f78565b90611fa2611f986104f9845490565b925f5260205f2090565b905f5b818110611fb25750505090565b909192611fd6611fcf600192611fc787611f7f565b815260200190565b9460010190565b929101611fa5565b9061015591611f89565b9061017761200292611ff960405190565b93848092611fde565b0383611eee565b6101559060401c610e46565b6101559054612009565b6101559060581c610b19565b610155905461201f565b6101559060681c610e46565b6101559054612035565b90610177612120600161205c611f29565b9461206d61206982611fe8565b8752565b61208661207b838301610b20565b61ffff166020880152565b61209f61209483830161101e565b61ffff166040880152565b6120b86120ad838301610fc7565b61ffff166060880152565b6120d16120c6838301610f48565b61ffff166080880152565b6120e86120df838301612015565b151560a0880152565b6121016120f68383016111bb565b61ffff1660c0880152565b61211a61210f83830161202b565b61ffff1660e0880152565b01612041565b60ff16610100840152565b6101559061204b565b67ffffffffffffffff8111611f105760208091020190565b9061215e61215983612134565b611f15565b918252565b369037565b9061017761217e6121788461214c565b93612134565b601f190160208401612163565b90612194825190565b811015610c33576020809102010190565b906121ae611f70565b506121c26121bd836004610d67565b61212b565b9160036121d6611317610155846003610d67565b926121e084612168565b85526121eb5f610ac7565b845b8110156122315761222a816122246122146121ed9461220f6101558a8a610d67565b612a3c565b612221835f8c015161218b565b52565b60010190565b90506121eb565b5092505050565b6101556014610e39565b6001610155910160ff1690565b61225f6101556101559260ff1690565b61066b565b906102d29061066b565b612276612238565b61227f81610e56565b61228881612168565b906122938291612168565b93849061229f5f610e39565b60ff86165b60ff8216101561230a57612303816122fe6122e3610b8e6122c76122a49661224f565b611ec4816122de8d6122d889610e56565b9061218b565b612264565b6122f56122ef84610e56565b8c61218b565b9061ffff169052565b612242565b905061229f565b50925092509250565b611361612329916123215f90565b506006610ad4565b90610155610b8e836008610b0a565b610155610100611f15565b61234b612338565b905f825260208080808080808089015f611f53565b610155612343565b5f5b82811061237657505050565b602090612381612360565b818401520161236a565b9061017761239b6121788461214c565b601f190160208401612368565b6101559060081c610b19565b61015590546123a8565b6101559060981c610e46565b61015590546123be565b6101559060181c6110ac565b61015590546123d4565b6101559060581c6110ac565b61015590546123ea565b906102d2906107a6565b9060039161241f611317610155836003610d67565b926124298461238b565b9283906124355f610ac7565b8681101561253c57806124488686610d67565b9061245291612a3c565b61245d816006610ad4565b61246690610ec7565b81612472886005610d67565b9061247c91610ad4565b61248581610ec7565b9161248f826123b4565b61249a826008610b0a565b6124a390610b20565b906124ad846123ca565b926124b7856123e0565b946124c1906123f6565b956124ca612338565b9788526124da9060208901612264565b6124e79060408801612400565b61ffff16606086015261ffff166080850152151560a084015267ffffffffffffffff1660c083015267ffffffffffffffff1660e0820152612528828861218b565b52612533818761218b565b50600101612435565b50935093505050565b6101779061255161262e565b6125b1565b1561255d57565b60405162461bcd60e51b815260206004820152602660248201527f4f776e61626c653a206e6577206f776e657220697320746865207a65726f206160448201526564647265737360d01b6064820152608490fd5b61017790611cd86125c46101495f61093f565b6001600160a01b0383161415612556565b61017790612545565b156125e557565b60405162461bcd60e51b815280610987600482016020808252818101527f4f776e61626c653a2063616c6c6572206973206e6f7420746865206f776e6572604082015260600190565b610177612639611e35565b61265261264533610149565b916001600160a01b031690565b146125de565b90612673610f285f6101559461266b5f90565b500192610ac7565b612a5f565b61268c5f610155926126875f90565b500190565b612a8d565b906126a4610f285f6101559461266b5f90565b612b37565b6126cd6126c76126b85f610a20565b6126c2845f6109c8565b6109bf565b916109bf565b907f8be0079c531659141344cd1fd0a4f28419497f9722a3daafe3b4186f6b6457e06126f860405190565b80806115cd565b90612712610f285f6101559461266b5f90565b612c01565b906004612728610155846004610d67565b926127325f610ea7565b9161275f60018601936127458186611162565b61274f818661127e565b6127598186611258565b84611230565b6127695f84611206565b60036127876127816115146113176101558786610d67565b85611198565b60649561279d6127976064610ea7565b866111db565b6127ad6113176101558685610d67565b956127b75f610ac7565b875b811015612a28576128c981612224896128c38d8b6128556127e56127b99961220f6101558f8690610d67565b926127f9610155856114c060059687610d67565b956128366113bd5f612818610b8e6008610d1d61136160069c8d610ad4565b9901936113b7610b9361282d61141f886123b4565b6113a78d610ed1565b96612843610b19836111bb565b61ffff821611612a18575b5050610ec7565b906001926128628461066b565b61286b8461066b565b1480156129fe575b80156129e5575b80156129cb575b80156129b1575b8015612997575b801561297d575b156128d0575050506128b7818a016128b18561141a8361101e565b9061127e565b88019161141a83610b20565b90611162565b90506127b7565b6128d99061066b565b6128e28361066b565b148015612963575b1561290f57505061290a818a016129048561141a83610fc7565b90611258565b6128b7565b6129189061066b565b6129218261066b565b03612940575061290a818a0161293a8561141a83610f48565b90611230565b61295261294c8d61066b565b9161066b565b0361290a5761290a81808b01611206565b5061296e600761066b565b6129778361066b565b146128ea565b50612988600d61066b565b6129918461066b565b14612896565b506129a2601361066b565b6129ab8461066b565b1461288f565b506129bc601261066b565b6129c58461066b565b14612888565b506129d6601161066b565b6129df8461066b565b14612881565b506129ef8d61066b565b6129f88461066b565b1461287a565b50612a09600261066b565b612a128461066b565b14612873565b612a21916111db565b8f5f61284e565b509650505050505050565b61015590610ac7565b61015591612a4f5f612a54936126875f90565b612cc4565b612a33565b90610ade565b612a7c916001612a7792612a705f90565b5001612a59565b611f7f565b612a88610f285f610ac7565b141590565b5f61015591612a995f90565b50015490565b8054821015610c3357612ab76001915f5260205f2090565b910201905f90565b915f1960089290920291821b911b610996565b9190612ae16101556109df9390565b908354612abf565b9081549168010000000000000000831015611f105782612b1191600161017795018155612a9f565b90612ad2565b905f1990610996565b90612b306101556109df92610ac7565b8254612b17565b612b446112ec8383612a5f565b15612b7657612b7191612b6c906001612b6584612b618482612ae9565b5490565b9301612a59565b612b20565b600190565b50505f90565b91908203918211610f0957565b610155916008021c81565b906101559154612b89565b634e487b7160e01b5f52603160045260245ffd5b610177915f91612ad2565b80548015612be0575f190190612bdd612bd78383612a9f565b90612bb3565b55565b612b9f565b9190612ae16101556109df93610ac7565b610177915f91612be5565b90612c12612a778260018501612a59565b612c1b5f610ac7565b8114612cbd57612c7f610155925f92612c7495612c796001978893612c48612c4286610ac7565b82612b7c565b88850191612c66612c57845490565b612c6089610ac7565b90612b7c565b828103612c84575b50505090565b612bbe565b01612a59565b612bf6565b612b11612cad612cb594612ca4612c9e612b6c9589612a9f565b90612b94565b92839188612a9f565b888801612a59565b5f8080612c6e565b5050505f90565b610155915f612c9e92612cd45f90565b5001612a9f56fea2646970667358221220053355a3015e54dfe88f12f5d3284d92948f685eefd106910f5c2c4198994e9264736f6c634300081c0033",
  "linkReferences": {},
  "deployedLinkReferences": {}
}