{
  "_format": "hh-sol-artifact-1",
  "contractName": "GameifiedMarketplaceCoreV1",
  "sourceName": "contracts/Marketplace/GameifiedMarketplaceCoreV1.sol",
  "abi": [
    {
      "inputs": [],
      "stateMutability": "nonpayable",
      "type": "constructor"
    },
    {
      "anonymous": false,
      "inputs": [
        {
          "indexed": false,
          "internalType": "address",
          "name": "previousAdmin",
          "type": "address"
        },
        {
          "indexed": false,
          "internalType": "address",
          "name": "newAdmin",
          "type": "address"
        }
      ],
      "name": "AdminChanged",
      "type": "event"
    },
    {
      "anonymous": false,
      "inputs": [
        {
          "indexed": true,
          "internalType": "address",
          "name": "owner",
          "type": "address"
        },
        {
          "indexed": true,
          "internalType": "address",
          "name": "approved",
          "type": "address"
        },
        {
          "indexed": true,
          "internalType": "uint256",
          "name": "tokenId",
          "type": "uint256"
        }
      ],
      "name": "Approval",
      "type": "event"
    },
    {
      "anonymous": false,
      "inputs": [
        {
          "indexed": true,
          "internalType": "address",
          "name": "owner",
          "type": "address"
        },
        {
          "indexed": true,
          "internalType": "address",
          "name": "operator",
          "type": "address"
        },
        {
          "indexed": false,
          "internalType": "bool",
          "name": "approved",
          "type": "bool"
        }
      ],
      "name": "ApprovalForAll",
      "type": "event"
    },
    {
      "anonymous": false,
      "inputs": [
        {
          "indexed": false,
          "internalType": "uint256",
          "name": "_fromTokenId",
          "type": "uint256"
        },
        {
          "indexed": false,
          "internalType": "uint256",
          "name": "_toTokenId",
          "type": "uint256"
        }
      ],
      "name": "BatchMetadataUpdate",
      "type": "event"
    },
    {
      "anonymous": false,
      "inputs": [
        {
          "indexed": true,
          "internalType": "address",
          "name": "beacon",
          "type": "address"
        }
      ],
      "name": "BeaconUpgraded",
      "type": "event"
    },
    {
      "anonymous": false,
      "inputs": [
        {
          "indexed": true,
          "internalType": "address",
          "name": "user",
          "type": "address"
        },
        {
          "indexed": true,
          "internalType": "uint256",
          "name": "tokenId",
          "type": "uint256"
        },
        {
          "indexed": false,
          "internalType": "string",
          "name": "comment",
          "type": "string"
        }
      ],
      "name": "CommentAdded",
      "type": "event"
    },
    {
      "anonymous": false,
      "inputs": [
        {
          "indexed": false,
          "internalType": "uint8",
          "name": "version",
          "type": "uint8"
        }
      ],
      "name": "Initialized",
      "type": "event"
    },
    {
      "anonymous": false,
      "inputs": [
        {
          "indexed": true,
          "internalType": "address",
          "name": "user",
          "type": "address"
        },
        {
          "indexed": true,
          "internalType": "uint256",
          "name": "tokenId",
          "type": "uint256"
        },
        {
          "indexed": false,
          "internalType": "bool",
          "name": "liked",
          "type": "bool"
        }
      ],
      "name": "LikeToggled",
      "type": "event"
    },
    {
      "anonymous": false,
      "inputs": [
        {
          "indexed": false,
          "internalType": "uint256",
          "name": "_tokenId",
          "type": "uint256"
        }
      ],
      "name": "MetadataUpdate",
      "type": "event"
    },
    {
      "anonymous": false,
      "inputs": [
        {
          "indexed": true,
          "internalType": "address",
          "name": "seller",
          "type": "address"
        },
        {
          "indexed": true,
          "internalType": "address",
          "name": "buyer",
          "type": "address"
        },
        {
          "indexed": true,
          "internalType": "uint256",
          "name": "tokenId",
          "type": "uint256"
        },
        {
          "indexed": false,
          "internalType": "uint256",
          "name": "amount",
          "type": "uint256"
        }
      ],
      "name": "OfferAccepted",
      "type": "event"
    },
    {
      "anonymous": false,
      "inputs": [
        {
          "indexed": true,
          "internalType": "address",
          "name": "offeror",
          "type": "address"
        },
        {
          "indexed": true,
          "internalType": "uint256",
          "name": "tokenId",
          "type": "uint256"
        },
        {
          "indexed": false,
          "internalType": "uint256",
          "name": "amount",
          "type": "uint256"
        }
      ],
      "name": "OfferMade",
      "type": "event"
    },
    {
      "anonymous": false,
      "inputs": [
        {
          "indexed": false,
          "internalType": "address",
          "name": "account",
          "type": "address"
        }
      ],
      "name": "Paused",
      "type": "event"
    },
    {
      "anonymous": false,
      "inputs": [
        {
          "indexed": true,
          "internalType": "address",
          "name": "from",
          "type": "address"
        },
        {
          "indexed": false,
          "internalType": "uint256",
          "name": "amount",
          "type": "uint256"
        },
        {
          "indexed": true,
          "internalType": "address",
          "name": "to",
          "type": "address"
        },
        {
          "indexed": false,
          "internalType": "string",
          "name": "operation",
          "type": "string"
        }
      ],
      "name": "PlatformFeeTransferred",
      "type": "event"
    },
    {
      "anonymous": false,
      "inputs": [
        {
          "indexed": true,
          "internalType": "address",
          "name": "seller",
          "type": "address"
        },
        {
          "indexed": true,
          "internalType": "uint256",
          "name": "tokenId",
          "type": "uint256"
        },
        {
          "indexed": false,
          "internalType": "uint256",
          "name": "newPrice",
          "type": "uint256"
        }
      ],
      "name": "PriceUpdated",
      "type": "event"
    },
    {
      "anonymous": false,
      "inputs": [
        {
          "indexed": true,
          "internalType": "bytes32",
          "name": "role",
          "type": "bytes32"
        },
        {
          "indexed": true,
          "internalType": "bytes32",
          "name": "previousAdminRole",
          "type": "bytes32"
        },
        {
          "indexed": true,
          "internalType": "bytes32",
          "name": "newAdminRole",
          "type": "bytes32"
        }
      ],
      "name": "RoleAdminChanged",
      "type": "event"
    },
    {
      "anonymous": false,
      "inputs": [
        {
          "indexed": true,
          "internalType": "bytes32",
          "name": "role",
          "type": "bytes32"
        },
        {
          "indexed": true,
          "internalType": "address",
          "name": "account",
          "type": "address"
        },
        {
          "indexed": true,
          "internalType": "address",
          "name": "sender",
          "type": "address"
        }
      ],
      "name": "RoleGranted",
      "type": "event"
    },
    {
      "anonymous": false,
      "inputs": [
        {
          "indexed": true,
          "internalType": "bytes32",
          "name": "role",
          "type": "bytes32"
        },
        {
          "indexed": true,
          "internalType": "address",
          "name": "account",
          "type": "address"
        },
        {
          "indexed": true,
          "internalType": "address",
          "name": "sender",
          "type": "address"
        }
      ],
      "name": "RoleRevoked",
      "type": "event"
    },
    {
      "anonymous": false,
      "inputs": [
        {
          "indexed": true,
          "internalType": "address",
          "name": "creator",
          "type": "address"
        },
        {
          "indexed": true,
          "internalType": "uint256",
          "name": "tokenId",
          "type": "uint256"
        },
        {
          "indexed": false,
          "internalType": "string",
          "name": "uri",
          "type": "string"
        }
      ],
      "name": "TokenCreated",
      "type": "event"
    },
    {
      "anonymous": false,
      "inputs": [
        {
          "indexed": true,
          "internalType": "address",
          "name": "seller",
          "type": "address"
        },
        {
          "indexed": true,
          "internalType": "uint256",
          "name": "tokenId",
          "type": "uint256"
        },
        {
          "indexed": false,
          "internalType": "uint256",
          "name": "price",
          "type": "uint256"
        }
      ],
      "name": "TokenListed",
      "type": "event"
    },
    {
      "anonymous": false,
      "inputs": [
        {
          "indexed": true,
          "internalType": "address",
          "name": "seller",
          "type": "address"
        },
        {
          "indexed": true,
          "internalType": "address",
          "name": "buyer",
          "type": "address"
        },
        {
          "indexed": true,
          "internalType": "uint256",
          "name": "tokenId",
          "type": "uint256"
        },
        {
          "indexed": false,
          "internalType": "uint256",
          "name": "price",
          "type": "uint256"
        }
      ],
      "name": "TokenSold",
      "type": "event"
    },
    {
      "anonymous": false,
      "inputs": [
        {
          "indexed": true,
          "internalType": "address",
          "name": "seller",
          "type": "address"
        },
        {
          "indexed": true,
          "internalType": "uint256",
          "name": "tokenId",
          "type": "uint256"
        }
      ],
      "name": "TokenUnlisted",
      "type": "event"
    },
    {
      "anonymous": false,
      "inputs": [
        {
          "indexed": true,
          "internalType": "address",
          "name": "from",
          "type": "address"
        },
        {
          "indexed": true,
          "internalType": "address",
          "name": "to",
          "type": "address"
        },
        {
          "indexed": true,
          "internalType": "uint256",
          "name": "tokenId",
          "type": "uint256"
        }
      ],
      "name": "Transfer",
      "type": "event"
    },
    {
      "anonymous": false,
      "inputs": [
        {
          "indexed": false,
          "internalType": "address",
          "name": "account",
          "type": "address"
        }
      ],
      "name": "Unpaused",
      "type": "event"
    },
    {
      "anonymous": false,
      "inputs": [
        {
          "indexed": true,
          "internalType": "address",
          "name": "implementation",
          "type": "address"
        }
      ],
      "name": "Upgraded",
      "type": "event"
    },
    {
      "inputs": [],
      "name": "ADMIN_ROLE",
      "outputs": [
        {
          "internalType": "bytes32",
          "name": "",
          "type": "bytes32"
        }
      ],
      "stateMutability": "view",
      "type": "function"
    },
    {
      "inputs": [],
      "name": "DEFAULT_ADMIN_ROLE",
      "outputs": [
        {
          "internalType": "bytes32",
          "name": "",
          "type": "bytes32"
        }
      ],
      "stateMutability": "view",
      "type": "function"
    },
    {
      "inputs": [],
      "name": "PLATFORM_FEE_PERCENTAGE",
      "outputs": [
        {
          "internalType": "uint256",
          "name": "",
          "type": "uint256"
        }
      ],
      "stateMutability": "view",
      "type": "function"
    },
    {
      "inputs": [],
      "name": "UPGRADER_ROLE",
      "outputs": [
        {
          "internalType": "bytes32",
          "name": "",
          "type": "bytes32"
        }
      ],
      "stateMutability": "view",
      "type": "function"
    },
    {
      "inputs": [
        {
          "internalType": "uint256",
          "name": "_tokenId",
          "type": "uint256"
        },
        {
          "internalType": "uint256",
          "name": "_offerIndex",
          "type": "uint256"
        }
      ],
      "name": "acceptOffer",
      "outputs": [],
      "stateMutability": "nonpayable",
      "type": "function"
    },
    {
      "inputs": [
        {
          "internalType": "uint256",
          "name": "_tokenId",
          "type": "uint256"
        },
        {
          "internalType": "string",
          "name": "_text",
          "type": "string"
        }
      ],
      "name": "addComment",
      "outputs": [],
      "stateMutability": "nonpayable",
      "type": "function"
    },
    {
      "inputs": [
        {
          "internalType": "address",
          "name": "to",
          "type": "address"
        },
        {
          "internalType": "uint256",
          "name": "tokenId",
          "type": "uint256"
        }
      ],
      "name": "approve",
      "outputs": [],
      "stateMutability": "nonpayable",
      "type": "function"
    },
    {
      "inputs": [
        {
          "internalType": "address",
          "name": "owner",
          "type": "address"
        }
      ],
      "name": "balanceOf",
      "outputs": [
        {
          "internalType": "uint256",
          "name": "",
          "type": "uint256"
        }
      ],
      "stateMutability": "view",
      "type": "function"
    },
    {
      "inputs": [
        {
          "internalType": "uint256",
          "name": "_tokenId",
          "type": "uint256"
        }
      ],
      "name": "buyToken",
      "outputs": [],
      "stateMutability": "payable",
      "type": "function"
    },
    {
      "inputs": [
        {
          "internalType": "uint256",
          "name": "_tokenId",
          "type": "uint256"
        },
        {
          "internalType": "uint256",
          "name": "_offerIndex",
          "type": "uint256"
        }
      ],
      "name": "cancelOffer",
      "outputs": [],
      "stateMutability": "nonpayable",
      "type": "function"
    },
    {
      "inputs": [
        {
          "internalType": "string",
          "name": "_tokenURI",
          "type": "string"
        },
        {
          "internalType": "string",
          "name": "_category",
          "type": "string"
        },
        {
          "internalType": "uint96",
          "name": "_royaltyPercentage",
          "type": "uint96"
        }
      ],
      "name": "createStandardNFT",
      "outputs": [
        {
          "internalType": "uint256",
          "name": "",
          "type": "uint256"
        }
      ],
      "stateMutability": "nonpayable",
      "type": "function"
    },
    {
      "inputs": [
        {
          "internalType": "string",
          "name": "_tokenURI",
          "type": "string"
        },
        {
          "internalType": "string",
          "name": "_category",
          "type": "string"
        },
        {
          "internalType": "uint96",
          "name": "_royaltyPercentage",
          "type": "uint96"
        },
        {
          "internalType": "uint256",
          "name": "_count",
          "type": "uint256"
        }
      ],
      "name": "createStandardNFTBatch",
      "outputs": [
        {
          "internalType": "uint256[]",
          "name": "",
          "type": "uint256[]"
        }
      ],
      "stateMutability": "nonpayable",
      "type": "function"
    },
    {
      "inputs": [
        {
          "internalType": "uint256",
          "name": "tokenId",
          "type": "uint256"
        }
      ],
      "name": "getApproved",
      "outputs": [
        {
          "internalType": "address",
          "name": "",
          "type": "address"
        }
      ],
      "stateMutability": "view",
      "type": "function"
    },
    {
      "inputs": [],
      "name": "getListedNFTs",
      "outputs": [
        {
          "internalType": "uint256[]",
          "name": "",
          "type": "uint256[]"
        }
      ],
      "stateMutability": "view",
      "type": "function"
    },
    {
      "inputs": [
        {
          "internalType": "uint256",
          "name": "_tokenId",
          "type": "uint256"
        }
      ],
      "name": "getNFTComments",
      "outputs": [
        {
          "internalType": "string[]",
          "name": "",
          "type": "string[]"
        }
      ],
      "stateMutability": "view",
      "type": "function"
    },
    {
      "inputs": [
        {
          "internalType": "uint256",
          "name": "_tokenId",
          "type": "uint256"
        }
      ],
      "name": "getNFTLikeCount",
      "outputs": [
        {
          "internalType": "uint256",
          "name": "",
          "type": "uint256"
        }
      ],
      "stateMutability": "view",
      "type": "function"
    },
    {
      "inputs": [
        {
          "internalType": "uint256",
          "name": "_tokenId",
          "type": "uint256"
        }
      ],
      "name": "getNFTMetadata",
      "outputs": [
        {
          "components": [
            {
              "internalType": "address",
              "name": "creator",
              "type": "address"
            },
            {
              "internalType": "string",
              "name": "uri",
              "type": "string"
            },
            {
              "internalType": "string",
              "name": "category",
              "type": "string"
            },
            {
              "internalType": "uint256",
              "name": "createdAt",
              "type": "uint256"
            },
            {
              "internalType": "uint96",
              "name": "royaltyPercentage",
              "type": "uint96"
            }
          ],
          "internalType": "struct GameifiedMarketplaceCoreV1.NFTMetadata",
          "name": "",
          "type": "tuple"
        }
      ],
      "stateMutability": "view",
      "type": "function"
    },
    {
      "inputs": [
        {
          "internalType": "uint256",
          "name": "_tokenId",
          "type": "uint256"
        }
      ],
      "name": "getNFTOffers",
      "outputs": [
        {
          "components": [
            {
              "internalType": "address",
              "name": "offeror",
              "type": "address"
            },
            {
              "internalType": "uint256",
              "name": "amount",
              "type": "uint256"
            },
            {
              "internalType": "uint8",
              "name": "expiresInDays",
              "type": "uint8"
            },
            {
              "internalType": "uint256",
              "name": "timestamp",
              "type": "uint256"
            }
          ],
          "internalType": "struct GameifiedMarketplaceCoreV1.Offer[]",
          "name": "",
          "type": "tuple[]"
        }
      ],
      "stateMutability": "view",
      "type": "function"
    },
    {
      "inputs": [
        {
          "internalType": "bytes32",
          "name": "role",
          "type": "bytes32"
        }
      ],
      "name": "getRoleAdmin",
      "outputs": [
        {
          "internalType": "bytes32",
          "name": "",
          "type": "bytes32"
        }
      ],
      "stateMutability": "view",
      "type": "function"
    },
    {
      "inputs": [
        {
          "internalType": "address",
          "name": "_user",
          "type": "address"
        }
      ],
      "name": "getUserCreatedNFTs",
      "outputs": [
        {
          "internalType": "uint256[]",
          "name": "",
          "type": "uint256[]"
        }
      ],
      "stateMutability": "view",
      "type": "function"
    },
    {
      "inputs": [
        {
          "internalType": "address",
          "name": "_user",
          "type": "address"
        }
      ],
      "name": "getUserNFTs",
      "outputs": [
        {
          "internalType": "uint256[]",
          "name": "",
          "type": "uint256[]"
        }
      ],
      "stateMutability": "view",
      "type": "function"
    },
    {
      "inputs": [
        {
          "internalType": "bytes32",
          "name": "role",
          "type": "bytes32"
        },
        {
          "internalType": "address",
          "name": "account",
          "type": "address"
        }
      ],
      "name": "grantRole",
      "outputs": [],
      "stateMutability": "nonpayable",
      "type": "function"
    },
    {
      "inputs": [
        {
          "internalType": "bytes32",
          "name": "role",
          "type": "bytes32"
        },
        {
          "internalType": "address",
          "name": "account",
          "type": "address"
        }
      ],
      "name": "hasRole",
      "outputs": [
        {
          "internalType": "bool",
          "name": "",
          "type": "bool"
        }
      ],
      "stateMutability": "view",
      "type": "function"
    },
    {
      "inputs": [
        {
          "internalType": "address",
          "name": "_platformTreasury",
          "type": "address"
        }
      ],
      "name": "initialize",
      "outputs": [],
      "stateMutability": "nonpayable",
      "type": "function"
    },
    {
      "inputs": [
        {
          "internalType": "address",
          "name": "owner",
          "type": "address"
        },
        {
          "internalType": "address",
          "name": "operator",
          "type": "address"
        }
      ],
      "name": "isApprovedForAll",
      "outputs": [
        {
          "internalType": "bool",
          "name": "",
          "type": "bool"
        }
      ],
      "stateMutability": "view",
      "type": "function"
    },
    {
      "inputs": [
        {
          "internalType": "uint256",
          "name": "",
          "type": "uint256"
        }
      ],
      "name": "isListed",
      "outputs": [
        {
          "internalType": "bool",
          "name": "",
          "type": "bool"
        }
      ],
      "stateMutability": "view",
      "type": "function"
    },
    {
      "inputs": [],
      "name": "levelingSystemAddress",
      "outputs": [
        {
          "internalType": "address",
          "name": "",
          "type": "address"
        }
      ],
      "stateMutability": "view",
      "type": "function"
    },
    {
      "inputs": [
        {
          "internalType": "uint256",
          "name": "_tokenId",
          "type": "uint256"
        },
        {
          "internalType": "uint256",
          "name": "_price",
          "type": "uint256"
        }
      ],
      "name": "listTokenForSale",
      "outputs": [],
      "stateMutability": "nonpayable",
      "type": "function"
    },
    {
      "inputs": [
        {
          "internalType": "uint256",
          "name": "",
          "type": "uint256"
        }
      ],
      "name": "listedPrice",
      "outputs": [
        {
          "internalType": "uint256",
          "name": "",
          "type": "uint256"
        }
      ],
      "stateMutability": "view",
      "type": "function"
    },
    {
      "inputs": [
        {
          "internalType": "uint256",
          "name": "_tokenId",
          "type": "uint256"
        },
        {
          "internalType": "uint8",
          "name": "_expiresInDays",
          "type": "uint8"
        }
      ],
      "name": "makeOffer",
      "outputs": [],
      "stateMutability": "payable",
      "type": "function"
    },
    {
      "inputs": [],
      "name": "name",
      "outputs": [
        {
          "internalType": "string",
          "name": "",
          "type": "string"
        }
      ],
      "stateMutability": "view",
      "type": "function"
    },
    {
      "inputs": [
        {
          "internalType": "uint256",
          "name": "",
          "type": "uint256"
        },
        {
          "internalType": "uint256",
          "name": "",
          "type": "uint256"
        }
      ],
      "name": "nftComments",
      "outputs": [
        {
          "internalType": "string",
          "name": "",
          "type": "string"
        }
      ],
      "stateMutability": "view",
      "type": "function"
    },
    {
      "inputs": [
        {
          "internalType": "uint256",
          "name": "",
          "type": "uint256"
        }
      ],
      "name": "nftLikeCount",
      "outputs": [
        {
          "internalType": "uint256",
          "name": "",
          "type": "uint256"
        }
      ],
      "stateMutability": "view",
      "type": "function"
    },
    {
      "inputs": [
        {
          "internalType": "uint256",
          "name": "",
          "type": "uint256"
        },
        {
          "internalType": "address",
          "name": "",
          "type": "address"
        }
      ],
      "name": "nftLikes",
      "outputs": [
        {
          "internalType": "bool",
          "name": "",
          "type": "bool"
        }
      ],
      "stateMutability": "view",
      "type": "function"
    },
    {
      "inputs": [
        {
          "internalType": "uint256",
          "name": "",
          "type": "uint256"
        }
      ],
      "name": "nftMetadata",
      "outputs": [
        {
          "internalType": "address",
          "name": "creator",
          "type": "address"
        },
        {
          "internalType": "string",
          "name": "uri",
          "type": "string"
        },
        {
          "internalType": "string",
          "name": "category",
          "type": "string"
        },
        {
          "internalType": "uint256",
          "name": "createdAt",
          "type": "uint256"
        },
        {
          "internalType": "uint96",
          "name": "royaltyPercentage",
          "type": "uint96"
        }
      ],
      "stateMutability": "view",
      "type": "function"
    },
    {
      "inputs": [
        {
          "internalType": "uint256",
          "name": "",
          "type": "uint256"
        },
        {
          "internalType": "uint256",
          "name": "",
          "type": "uint256"
        }
      ],
      "name": "nftOffers",
      "outputs": [
        {
          "internalType": "address",
          "name": "offeror",
          "type": "address"
        },
        {
          "internalType": "uint256",
          "name": "amount",
          "type": "uint256"
        },
        {
          "internalType": "uint8",
          "name": "expiresInDays",
          "type": "uint8"
        },
        {
          "internalType": "uint256",
          "name": "timestamp",
          "type": "uint256"
        }
      ],
      "stateMutability": "view",
      "type": "function"
    },
    {
      "inputs": [
        {
          "internalType": "uint256",
          "name": "tokenId",
          "type": "uint256"
        }
      ],
      "name": "ownerOf",
      "outputs": [
        {
          "internalType": "address",
          "name": "",
          "type": "address"
        }
      ],
      "stateMutability": "view",
      "type": "function"
    },
    {
      "inputs": [],
      "name": "pause",
      "outputs": [],
      "stateMutability": "nonpayable",
      "type": "function"
    },
    {
      "inputs": [],
      "name": "paused",
      "outputs": [
        {
          "internalType": "bool",
          "name": "",
          "type": "bool"
        }
      ],
      "stateMutability": "view",
      "type": "function"
    },
    {
      "inputs": [],
      "name": "platformTreasury",
      "outputs": [
        {
          "internalType": "address",
          "name": "",
          "type": "address"
        }
      ],
      "stateMutability": "view",
      "type": "function"
    },
    {
      "inputs": [],
      "name": "proxiableUUID",
      "outputs": [
        {
          "internalType": "bytes32",
          "name": "",
          "type": "bytes32"
        }
      ],
      "stateMutability": "view",
      "type": "function"
    },
    {
      "inputs": [],
      "name": "referralSystemAddress",
      "outputs": [
        {
          "internalType": "address",
          "name": "",
          "type": "address"
        }
      ],
      "stateMutability": "view",
      "type": "function"
    },
    {
      "inputs": [
        {
          "internalType": "bytes32",
          "name": "role",
          "type": "bytes32"
        },
        {
          "internalType": "address",
          "name": "account",
          "type": "address"
        }
      ],
      "name": "renounceRole",
      "outputs": [],
      "stateMutability": "nonpayable",
      "type": "function"
    },
    {
      "inputs": [
        {
          "internalType": "bytes32",
          "name": "role",
          "type": "bytes32"
        },
        {
          "internalType": "address",
          "name": "account",
          "type": "address"
        }
      ],
      "name": "revokeRole",
      "outputs": [],
      "stateMutability": "nonpayable",
      "type": "function"
    },
    {
      "inputs": [
        {
          "internalType": "uint256",
          "name": "tokenId",
          "type": "uint256"
        },
        {
          "internalType": "uint256",
          "name": "salePrice",
          "type": "uint256"
        }
      ],
      "name": "royaltyInfo",
      "outputs": [
        {
          "internalType": "address",
          "name": "",
          "type": "address"
        },
        {
          "internalType": "uint256",
          "name": "",
          "type": "uint256"
        }
      ],
      "stateMutability": "view",
      "type": "function"
    },
    {
      "inputs": [
        {
          "internalType": "address",
          "name": "from",
          "type": "address"
        },
        {
          "internalType": "address",
          "name": "to",
          "type": "address"
        },
        {
          "internalType": "uint256",
          "name": "tokenId",
          "type": "uint256"
        }
      ],
      "name": "safeTransferFrom",
      "outputs": [],
      "stateMutability": "nonpayable",
      "type": "function"
    },
    {
      "inputs": [
        {
          "internalType": "address",
          "name": "from",
          "type": "address"
        },
        {
          "internalType": "address",
          "name": "to",
          "type": "address"
        },
        {
          "internalType": "uint256",
          "name": "tokenId",
          "type": "uint256"
        },
        {
          "internalType": "bytes",
          "name": "data",
          "type": "bytes"
        }
      ],
      "name": "safeTransferFrom",
      "outputs": [],
      "stateMutability": "nonpayable",
      "type": "function"
    },
    {
      "inputs": [
        {
          "internalType": "address",
          "name": "operator",
          "type": "address"
        },
        {
          "internalType": "bool",
          "name": "approved",
          "type": "bool"
        }
      ],
      "name": "setApprovalForAll",
      "outputs": [],
      "stateMutability": "nonpayable",
      "type": "function"
    },
    {
      "inputs": [
        {
          "internalType": "address",
          "name": "_addr",
          "type": "address"
        }
      ],
      "name": "setLevelingSystem",
      "outputs": [],
      "stateMutability": "nonpayable",
      "type": "function"
    },
    {
      "inputs": [
        {
          "internalType": "address",
          "name": "_addr",
          "type": "address"
        }
      ],
      "name": "setReferralSystem",
      "outputs": [],
      "stateMutability": "nonpayable",
      "type": "function"
    },
    {
      "inputs": [
        {
          "internalType": "address",
          "name": "_addr",
          "type": "address"
        }
      ],
      "name": "setSkillsContract",
      "outputs": [],
      "stateMutability": "nonpayable",
      "type": "function"
    },
    {
      "inputs": [],
      "name": "skillsContractAddress",
      "outputs": [
        {
          "internalType": "address",
          "name": "",
          "type": "address"
        }
      ],
      "stateMutability": "view",
      "type": "function"
    },
    {
      "inputs": [
        {
          "internalType": "bytes4",
          "name": "interfaceId",
          "type": "bytes4"
        }
      ],
      "name": "supportsInterface",
      "outputs": [
        {
          "internalType": "bool",
          "name": "",
          "type": "bool"
        }
      ],
      "stateMutability": "view",
      "type": "function"
    },
    {
      "inputs": [],
      "name": "symbol",
      "outputs": [
        {
          "internalType": "string",
          "name": "",
          "type": "string"
        }
      ],
      "stateMutability": "view",
      "type": "function"
    },
    {
      "inputs": [
        {
          "internalType": "uint256",
          "name": "_tokenId",
          "type": "uint256"
        }
      ],
      "name": "toggleLike",
      "outputs": [],
      "stateMutability": "nonpayable",
      "type": "function"
    },
    {
      "inputs": [
        {
          "internalType": "uint256",
          "name": "tokenId",
          "type": "uint256"
        }
      ],
      "name": "tokenURI",
      "outputs": [
        {
          "internalType": "string",
          "name": "",
          "type": "string"
        }
      ],
      "stateMutability": "view",
      "type": "function"
    },
    {
      "inputs": [
        {
          "internalType": "address",
          "name": "",
          "type": "address"
        }
      ],
      "name": "totalCreators",
      "outputs": [
        {
          "internalType": "uint256",
          "name": "",
          "type": "uint256"
        }
      ],
      "stateMutability": "view",
      "type": "function"
    },
    {
      "inputs": [],
      "name": "totalNFTsSold",
      "outputs": [
        {
          "internalType": "uint256",
          "name": "",
          "type": "uint256"
        }
      ],
      "stateMutability": "view",
      "type": "function"
    },
    {
      "inputs": [],
      "name": "totalRoyaltiesPaid",
      "outputs": [
        {
          "internalType": "uint256",
          "name": "",
          "type": "uint256"
        }
      ],
      "stateMutability": "view",
      "type": "function"
    },
    {
      "inputs": [],
      "name": "totalTradingVolume",
      "outputs": [
        {
          "internalType": "uint256",
          "name": "",
          "type": "uint256"
        }
      ],
      "stateMutability": "view",
      "type": "function"
    },
    {
      "inputs": [
        {
          "internalType": "address",
          "name": "from",
          "type": "address"
        },
        {
          "internalType": "address",
          "name": "to",
          "type": "address"
        },
        {
          "internalType": "uint256",
          "name": "tokenId",
          "type": "uint256"
        }
      ],
      "name": "transferFrom",
      "outputs": [],
      "stateMutability": "nonpayable",
      "type": "function"
    },
    {
      "inputs": [
        {
          "internalType": "uint256",
          "name": "_tokenId",
          "type": "uint256"
        }
      ],
      "name": "unlistToken",
      "outputs": [],
      "stateMutability": "nonpayable",
      "type": "function"
    },
    {
      "inputs": [],
      "name": "unpause",
      "outputs": [],
      "stateMutability": "nonpayable",
      "type": "function"
    },
    {
      "inputs": [
        {
          "internalType": "uint256",
          "name": "_tokenId",
          "type": "uint256"
        },
        {
          "internalType": "uint256",
          "name": "_newPrice",
          "type": "uint256"
        }
      ],
      "name": "updatePrice",
      "outputs": [],
      "stateMutability": "nonpayable",
      "type": "function"
    },
    {
      "inputs": [
        {
          "internalType": "address",
          "name": "newImplementation",
          "type": "address"
        }
      ],
      "name": "upgradeTo",
      "outputs": [],
      "stateMutability": "nonpayable",
      "type": "function"
    },
    {
      "inputs": [
        {
          "internalType": "address",
          "name": "newImplementation",
          "type": "address"
        },
        {
          "internalType": "bytes",
          "name": "data",
          "type": "bytes"
        }
      ],
      "name": "upgradeToAndCall",
      "outputs": [],
      "stateMutability": "payable",
      "type": "function"
    },
    {
      "inputs": [
        {
          "internalType": "address",
          "name": "",
          "type": "address"
        }
      ],
      "name": "userNFTsBought",
      "outputs": [
        {
          "internalType": "uint256",
          "name": "",
          "type": "uint256"
        }
      ],
      "stateMutability": "view",
      "type": "function"
    },
    {
      "inputs": [
        {
          "internalType": "address",
          "name": "",
          "type": "address"
        }
      ],
      "name": "userNFTsSold",
      "outputs": [
        {
          "internalType": "uint256",
          "name": "",
          "type": "uint256"
        }
      ],
      "stateMutability": "view",
      "type": "function"
    },
    {
      "inputs": [
        {
          "internalType": "address",
          "name": "",
          "type": "address"
        }
      ],
      "name": "userPurchaseVolume",
      "outputs": [
        {
          "internalType": "uint256",
          "name": "",
          "type": "uint256"
        }
      ],
      "stateMutability": "view",
      "type": "function"
    },
    {
      "inputs": [
        {
          "internalType": "address",
          "name": "",
          "type": "address"
        }
      ],
      "name": "userRoyaltiesEarned",
      "outputs": [
        {
          "internalType": "uint256",
          "name": "",
          "type": "uint256"
        }
      ],
      "stateMutability": "view",
      "type": "function"
    },
    {
      "inputs": [
        {
          "internalType": "address",
          "name": "",
          "type": "address"
        }
      ],
      "name": "userSalesVolume",
      "outputs": [
        {
          "internalType": "uint256",
          "name": "",
          "type": "uint256"
        }
      ],
      "stateMutability": "view",
      "type": "function"
    }
  ],
  "bytecode": "0x60a080604052346100da57306080525f549060ff8260081c16610088575060ff8082160361004e575b604051615b5290816100df823960805181818161295f01528181612a430152612dfb0152f35b60ff90811916175f557f7f26b83ff96e1f2b6a682f133852f6798a09c465da95921460cefb3847402498602060405160ff8152a15f610028565b62461bcd60e51b815260206004820152602760248201527f496e697469616c697a61626c653a20636f6e747261637420697320696e697469604482015266616c697a696e6760c81b6064820152608490fd5b5f80fdfe60806040526004361015610011575f80fd5b5f5f3560e01c8063012386f014613e4c578063016fc10e14613dca57806301ffc9a714613d0e57806306fdde0314613c57578063081812fc14613c39578063095ea7b314613ab3578063141ed34314613a955780631554823214613a7a57806323b872dd14613a545780632406e677146139c85780632483320d1461398f578063248a9ca3146139695780632a55205a146139425780632d296bf11461318f5780632f2ff15d146130ed57806335df17b4146130b357806336568abe146130205780633659cfe614612ddc5780633c03903914612db25780633f4ba83a14612d1b57806342842e0e14612ce65780634954101514612c515780634f1ef28614612a0a57806352d1902d1461294c57806352de4ee5146128c757806354398d181461271c57806356129b0a146126ce5780635c975abb146126aa578063602dcf291461251e5780636352211e146124ed578063638ac8d3146124a25780636be9a6f11461238f57806370a08231146122f957806375b238fc146122d157806377ea168e146122675780637af338a51461223d5780637de7ff0814611e3457806381257bd514611c375780638210254814611bfd57806382367b2d14611b785780638456cb5914611b1b5780638cf5310214611acd57806391d1485414611a825780639333806514611a6357806395d89b41146119a75780639a01126c14611959578063a217fddf1461193d578063a22cb46514611871578063aa7e5683146115d5578063ad3a358c1461152d578063b0362b8814611065578063b7f3a58914610f84578063b88d4fde14610f0b578063bd45b7fc14610ed1578063c4d66de81461091b578063c87b56dd146108fb578063cb8c8a15146108d0578063d45557cc146106bf578063d489be261461064d578063d547741f14610613578063d7e2997b146105e9578063d9edf576146105b2578063df6a532714610578578063dfb0886b14610559578063e138818c1461052f578063e5a818f814610504578063e985e9c5146104ac578063ec17f30414610472578063f291f5dd14610381578063f72c0d8b146103595763fcce488314610327575f80fd5b346103565760203660031901126103565760ff6040602092600435815261022984522054166040519015158152f35b80fd5b503461035657806003193601126103565760206040515f5160206159bd5f395f51905f528152f35b5034610356576020366003190112610356576004356103a76103a282614dab565b6147bb565b815261022e6020526040812080546103be81614236565b906103cc6040519283614093565b80825260208201809385526020852085915b83831061045457868587604051928392602084019060208552518091526040840192915b818110610410575050500390f35b919350916020608060019260608751858060a01b038151168352848101518584015260ff604082015116604084015201516060820152019401910191849392610402565b60046020600192610464856148c2565b8152019201920191906103de565b5034610356576020366003190112610356576020906040906001600160a01b0361049a613f19565b16815261024083522054604051908152f35b50346103565760403660031901126103565760406104c8613f19565b916104d1613f2f565b9260018060a01b03168152609c602052209060018060a01b03165f52602052602060ff60405f2054166040519015158152f35b5034610356576020366003190112610356576040602091600435815261022a83522054604051908152f35b5034610356578060031936011261035657610233546040516001600160a01b039091168152602090f35b5034610356578060031936011261035657602061023854604051908152f35b5034610356576020366003190112610356576020906040906001600160a01b036105a0613f19565b16815261023b83522054604051908152f35b50346103565760203660031901126103565760406020916004356105d86103a282614dab565b815261022c83522054604051908152f35b5034610356578060031936011261035657610236546040516001600160a01b039091168152602090f35b50346103565760403660031901126103565761064a600435610633613f2f565b9061064561064082614394565b614ce8565b614d28565b80f35b50346103565761065c36613fc5565b90825261022d602052604082209081548110156106bb5761067c91614221565b9190916106a7576106a361068f836140b6565b604051918291602083526020830190613f66565b0390f35b634e487b7160e01b81526004819052602490fd5b8280fd5b5034610356576106ce36613fc5565b906106d7614b32565b80835261022e6020526106ef60408420548310614716565b80835261022e60205261070e61070883604086206141c5565b506148c2565b80516001600160a01b0316330361089d57602001519181845261022e6020526040842082855261022e6020526040852054905f1982019182116108895761076c91610758916141c5565b509183865261022e602052604086206141c5565b91909161080f57808203610837575b5050825261022e6020526040822080548015610823575f19019061079f82826141c5565b61080f578493849384938460038582809755826001820155826002820155015555335af16107cb614548565b50156107da57600161015f5580f35b60405162461bcd60e51b815260206004820152600d60248201526c1499599d5b990819985a5b1959609a1b6044820152606490fd5b634e487b7160e01b85526004859052602485fd5b634e487b7160e01b84526031600452602484fd5b805482546001600160a01b0319166001600160a01b039190911617825560018082015490830155600280820154908301805460ff191660ff929092169190911790556003908101549101555f8061077b565b634e487b7160e01b86526011600452602486fd5b60405162461bcd60e51b815260206004820152600b60248201526a2737ba1037b33332b937b960a91b6044820152606490fd5b5034610356576020366003190112610356576040602091600435815261022c83522054604051908152f35b5034610356576020366003190112610356576106a361068f6004356151f7565b503461035657602036600319011261035657610935613f19565b815460ff8160081c161590818092610ec4575b8015610ead575b15610e515760ff198116600117845581610e40575b5060409182516109748482614093565b600c81526b11d85b595a599a595913919560a21b602082015283519061099a8583614093565b600482526311d3919560e21b60208301526109c460ff875460081c166109bf81615197565b615197565b8051906001600160401b038211610e2c576109e0609754613ff6565b601f8111610ddc575b50602090601f8311600114610d7857610a0c9291889183610ca5575b5050614889565b6097555b8051906001600160401b038211610d6457610a2c609854613ff6565b601f8111610d14575b50602090601f8311600114610cb057610a579291879183610ca5575050614889565b6098555b610abc60ff855460081c16610a6f81615197565b610a7881615197565b610a8181615197565b610a8a81615197565b610a9381615197565b600161015f55610aa281615197565b610aab81615197565b60ff19610191541661019155615197565b6001600160a01b03811615610c9e575b61023380546001600160a01b0319166001600160a01b039290921691909117905582805261012d6020908152828420335f90815291528290205460ff1615610c61575b5f516020615a5d5f395f51905f52835261012d6020908152828420335f90815291528290205460ff1615610c06575b5f5160206159bd5f395f51905f52835261012d6020908152828420335f90815291528290205460ff1615610bab575b610b75575080f35b60207f7f26b83ff96e1f2b6a682f133852f6798a09c465da95921460cefb38474024989161ff001984541684555160018152a180f35b5f5160206159bd5f395f51905f52835261012d60205281832060018060a01b0333165f52602052815f20600160ff1982541617905533335f5160206159bd5f395f51905f525f51602061591d5f395f51905f528680a4610b6d565b5f516020615a5d5f395f51905f52835261012d60205281832060018060a01b0333165f52602052815f20600160ff1982541617905533335f516020615a5d5f395f51905f525f51602061591d5f395f51905f528680a4610b3e565b82805261012d6020908152828420335f81815291909252839020805460ff1916600117905580845f51602061591d5f395f51905f528180a4610b0f565b5033610acc565b015190505f80610a05565b609887528187209190601f198416885b818110610cfc5750908460019594939210610ce4575b505050811b01609855610a5b565b01515f1960f88460031b161c191690555f8080610cd6565b92936020600181928786015181550195019301610cc0565b609887525f516020615afd5f395f51905f52601f840160051c81019160208510610d5a575b601f0160051c01905b818110610d4f5750610a35565b878155600101610d42565b9091508190610d39565b634e487b7160e01b86526041600452602486fd5b609788528188209190601f198416895b818110610dc45750908460019594939210610dac575b505050811b01609755610a10565b01515f1960f88460031b161c191690555f8080610d9e565b92936020600181928786015181550195019301610d88565b609788525f51602061597d5f395f51905f52601f840160051c81019160208510610e22575b601f0160051c01905b818110610e1757506109e9565b888155600101610e0a565b9091508190610e01565b634e487b7160e01b87526041600452602487fd5b61ffff19166101011783555f610964565b60405162461bcd60e51b815260206004820152602e60248201527f496e697469616c697a61626c653a20636f6e747261637420697320616c72656160448201526d191e481a5b9a5d1a585b1a5e995960921b6064820152608490fd5b50303b15801561094f5750600160ff82161461094f565b50600160ff821610610948565b5034610356576020366003190112610356576020906040906001600160a01b03610ef9613f19565b16815261023e83522054604051908152f35b503461035657608036600319011261035657610f25613f19565b610f2d613f2f565b90606435906044356001600160401b038311610f805761064a93610f58610f7b9436906004016141a7565b92610f6b610f668433614900565b6142be565b610f76838383614975565b615647565b615177565b8480fd5b503461035657602036600319011261035657600435610fa56103a282614dab565b815261022d602052604081208054610fbc81614236565b90610fca6040519283614093565b80825260208201809385526020852085915b83831061104857868587604051928392602084019060208552518091526040840160408260051b8601019392905b82821061101957505050500390f35b919360019193955060206110388192603f198a82030186528851613f66565b960192019201859493919261100a565b600160208192611057856140b6565b815201920192019190610fdc565b5034610356576080366003190112610356576004356001600160401b0381116111ba576110969036906004016141de565b6024356001600160401b038111611529576110b59036906004016141de565b926110be61420b565b926110c7614aed565b60643515158061151b575b156114e6576110ee6127106001600160601b03861611156147fc565b6110f960643561424d565b94865b60643581106111d35787873382526102306020526064356040832054146111be575b610235546001600160a01b0316611140575b6106a39060405191829182613ee0565b815b60643581106111515750611130565b6102355483906001600160a01b0316803b156111ba5781809160246040518094819363199df06360e31b83523360048401525af180156111af5761119a575b5050600101611142565b816111a491614093565b6106bb578284611190565b6040513d84823e3d90fd5b5080fd5b3382526102406020526001604083205561111e565b6102275460018101610227556111e98133614dc7565b6111fd6111f7368688614171565b82614ecd565b6040516112098161405d565b338152611217368688614171565b6020820190815261122936868a614171565b60408381019182524260608501526001600160601b038b166080850152848d526102286020528c20835181546001600160a01b0319166001600160a01b039190911617815591518051906001600160401b0382116114d25761129b826112926001870154613ff6565b6001870161483a565b602090601f8311600114611452576112bc92918f9183610ca5575050614889565b60018301555b518051906001600160401b03821161143e576112ee826112e56002860154613ff6565b6002860161483a565b6020908d601f84116001146113cc579280600198979695936113199360049692610ca5575050614889565b60028201555b6060830151600382015501906080858060601b0391015116848060601b0319825416179055828060601b0388166113bc575b338a526102306020526113678160408c206152f4565b5061138781604051868a823760208188810161023f8152030190206152f4565b5080611393838b61427f565b526040515f51602061595d5f395f51905f523391806113b3898b8361489b565b0390a3016110fc565b6113c7883383615020565b611351565b9190600285018352818320925b601f198516811061142657509260019796959492889260049583601f1981161061140e575b505050811b01600282015561131f565b01515f1960f88460031b161c191690555f80806113fe565b828201518455600190930192602092830192016113d9565b634e487b7160e01b8d52604160045260248dfd5b600185018f52818f20949e9d9c9b9a9998979695949190601f1984168f5b8181106114ba5750909e9f95969798999a9b9c9d9e84600195949392106114a2575b505050811b0160018301556112c2565b01515f1960f88460031b161c191690555f8080611492565b82840151855560019094019360209384019301611470565b634e487b7160e01b8e52604160045260248efd5b60405162461bcd60e51b815260206004820152600d60248201526c125b9d985b1a590818dbdd5b9d609a1b6044820152606490fd5b506101f460643511156110d2565b8380fd5b50346103565760203660031901126103565760043561154a614aed565b61156661155682614799565b6001600160a01b03163314614320565b80825261022960205261157f60ff604084205416614441565b8082526102296020526040822060ff19815416905580825261022a6020528160408120556115ac81615348565b50337f24287c09523dfd960e13a9774c247fb28a2ccb301eb4208b0d4072bcd0f1826e8380a380f35b5034610356576040366003190112610356576004356024356001600160401b0381116106bb576116099036906004016141de565b611611614aed565b61162261161d84614dab565b61469f565b80151580611865575b1561182f5782845261022d6020526103e8604085205410156117f65782845261022d60205260408420805490600160401b821015610d64579061167391600182018155614221565b61080f576001600160401b0382116117e257611699826116938354613ff6565b8361483a565b8482601f811160011461178057806116b8928891611775575b50614889565b90555b6102355484906001600160a01b03168061170b575b50506117057f6ef560d19dd02f57976e8453b811685a89edf49009d64ab71b19489923ef5f099160405191829133958361489b565b0390a380f35b803b156111ba5781809160a46040518094819363d0654f3560e01b83523360048401526002602484015260606044840152600760648401526610d3d35351539560ca1b60848401525af180156111af57156116d0578161176a91614093565b61152957835f6116d0565b90508501355f6116b2565b50818652602086209083601f198116885b8181106117c75750106117ae575b5050600182811b0190556116bb565b8401355f19600385901b60f8161c191690555f8061179f565b87840135855560019094019360209384019387935001611791565b634e487b7160e01b85526041600452602485fd5b60405162461bcd60e51b8152602060048201526011602482015270546f6f206d616e7920636f6d6d656e747360781b6044820152606490fd5b60405162461bcd60e51b815260206004820152600e60248201526d092dcecc2d8d2c840d8cadccee8d60931b6044820152606490fd5b5061011881111561162b565b50346103565760403660031901126103565761188b613f19565b602435908115158092036106bb576001600160a01b0316903382146118fc57338352609c60205260408320825f5260205260405f2060ff1981541660ff83161790556040519081527f17307eab39ab6107e8899845ad3d59bd9653f200f220920489ca2b5937696c3160203392a380f35b60405162461bcd60e51b815260206004820152601960248201527822a9219b99189d1030b8383937bb32903a379031b0b63632b960391b6044820152606490fd5b5034610356578060031936011261035657602090604051908152f35b503461035657602036600319011261035657611973613f19565b61197b614c89565b6001600160a01b031661198f8115156146d8565b61023680546001600160a01b03191691909117905580f35b50346103565780600319360112610356576040519080609854906119ca82613ff6565b8085529160018116908115611a3c57506001146119f2575b6106a38461068f81860382614093565b609881525f516020615afd5f395f51905f52939250905b808210611a225750909150810160200161068f826119e2565b919260018160209254838588010152019101909291611a09565b60ff191660208087019190915292151560051b8501909201925061068f91508390506119e2565b5034610356578060031936011261035657602061023954604051908152f35b5034610356576040366003190112610356576040611a9e613f2f565b91600435815261012d602052209060018060a01b03165f52602052602060ff60405f2054166040519015158152f35b503461035657602036600319011261035657611ae7613f19565b611aef614c89565b6001600160a01b0316611b038115156146d8565b61023480546001600160a01b03191691909117905580f35b5034610356578060031936011261035657611b34614c89565b611b3c614aed565b600160ff19610191541617610191557f62e78cea01bee320cd4e420270b5ea74000d11b0c9f74754ebdbfc544b05a2586020604051338152a180f35b503461035657611b8736613fc5565b611b8f614aed565b611b9b61155683614799565b818352610229602052611bb460ff604085205416614441565b611bbf811515614358565b81835261022a6020528060408420556040519081527fb556fac599c3c70efb9ab1fa725ecace6c81cc48d1455f886607def065f3e0c060203392a380f35b5034610356576020366003190112610356576020906040906001600160a01b03611c25613f19565b16815261023d83522054604051908152f35b503461035657610708611c8d611c4c36613fc5565b611c57939193614b32565b611c6361155685614799565b83855261022e602052611c7b60408620548210614716565b83855261022e602052604085206141c5565b60608101516201518060ff604084015116029062ffffff8216918203611deb5790611cb791614495565b4211611dff57602060018060a01b03825116910151611cd7838333614975565b6005810281810460051482151715611deb5760649004611d6c85808080611cfe868861447a565b8982526102296020526040822060ff19815416905589825261022a60205281604081205589825261022e602052611d37604083206144f2565b611d5b828080808b60018060a01b0361023354165af1611d55614548565b50614577565b335af1611d66614548565b506145be565b825f5160206159fd5f395f51905f52608060018060a01b0361023354169360405190815260406020820152600e60408201526d13d191915497d050d0d15415115160921b6060820152a36040519081527fa6da490df6e8f0e592e795b4d96c5810d8ddfda51c21577adbdd8e1a0fa47a6760203392a4600161015f5580f35b634e487b7160e01b85526011600452602485fd5b60405162461bcd60e51b815260206004820152600d60248201526c13d999995c88195e1c1a5c9959609a1b6044820152606490fd5b5034610356576060366003190112610356576004356001600160401b0381116111ba57611e659036906004016141de565b9091906024356001600160401b0381116106bb57611e879036906004016141de565b611e9293919361420b565b93611e9b614aed565b611eb26127106001600160601b03871611156147fc565b61022754946001860161022755611ec98633614dc7565b611edd611ed736878a614171565b87614ecd565b604051611ee98161405d565b338152611ef736878a614171565b60208201908152611f09368686614171565b604083810191825242606085019081526001600160601b03861660808601528a8952610228602052908820845181546001600160a01b0319166001600160a01b03919091161781559251805191929160018501916001600160401b03821161222957611f7f82611f798554613ff6565b8561483a565b602090601f83116001146121c757611fa092918c9183610ca5575050614889565b90555b518051906001600160401b0382116121b35790839291611fd782611fce60028f9b9a99980154613ff6565b6002870161483a565b6020908a601f84116001146121315783600494602099979461206c9d9b9997946120079492610ca5575050614889565b60028301555b516003820155608090920151910180546001600160601b0319166001600160601b039283161790558116612120575b50338652610230825261205284604088206152f4565b50826040519384928337810161023f8152030190206152f4565b50338152610230602052600160408220541461210b575b610235546001600160a01b0316806120c6575b60208480875f51602061595d5f395f51905f526120bb8860405191829133958361489b565b0390a3604051908152f35b803b156111ba5781809160246040518094819363199df06360e31b83523360048401525af180156111af571561209657612101828092614093565b6103565780612096565b33815261024060205260016040822055612083565b61212b903386615020565b5f61203c565b506002859493929a98979695018b52898b20908b5b601f19841681106121985750826004949261206c9c60019360209b9a999896601f19811610612180575b505050811b01600283015561200d565b01515f1960f88460031b161c191690555f8080612170565b818c0151835560209b8c019b8f9b5060019093019201612146565b634e487b7160e01b89526041600452602489fd5b838c52818c209190601f1984168d5b81811061221157509084600195949392106121f9575b505050811b019055611fa3565b01515f1960f88460031b161c191690555f80806121ec565b929360206001819287860151815501950193016121d6565b634e487b7160e01b8b52604160045260248bfd5b5034610356578060031936011261035657610235546040516001600160a01b039091168152602090f35b50346103565761227636613fc5565b9190815261022e6020526040812090815483101561035657608061229a84846141c5565b5060018060a01b0381541690600181015490600360ff60028301541691015491604051938452602084015260408301526060820152f35b503461035657806003193601126103565760206040515f516020615a5d5f395f51905f528152f35b5034610356576020366003190112610356576001600160a01b0361231b613f19565b168015612338578160409160209352609a83522054604051908152f35b60405162461bcd60e51b815260206004820152602960248201527f4552433732313a2061646472657373207a65726f206973206e6f7420612076616044820152683634b21037bbb732b960b91b6064820152608490fd5b50346103565760203660031901126103565760409060043581608084516123b58161405d565b8281526060602082015260608682015282606082015201526123d96103a282614dab565b8152610228602052206040516123ee8161405d565b81546001600160a01b03168152612407600183016140b6565b916020820192835261241b600282016140b6565b6040830190815261248860038301549260608501938452600460018060601b039101541691608085019283526124756040519687966020885260018060a01b0390511660208801525160a0604088015260c0870190613f66565b9051858203601f19016060870152613f66565b91516080840152516001600160601b031660a08301520390f35b50346103565760403660031901126103565760406124be613f2f565b91600435815261022b602052209060018060a01b03165f52602052602060ff60405f2054166040519015158152f35b503461035657602036600319011261035657602061250c600435614799565b6040516001600160a01b039091168152f35b5060403660031901126103565760043560243560ff81168091036106bb57612544614aed565b81835261022960205261255d60ff604085205416614441565b612568341515614716565b8015158061269f575b156126695781835261022e60205260408320604051916125908361402e565b33835260208301348152604084019182526060840192428452805490600160401b82101561265557906125c8916001820181556141c5565b949094612641575184546001600160a01b0319166001600160a01b03919091161784555160018401555160028301805460ff191660ff92909216919091179055516003919091015560405134815233907f7beddbbf70d8b2a25af77e15d4a173af5f34673a1e7302c7af208aac599dc6db90602090a380f35b634e487b7160e01b87526004879052602487fd5b634e487b7160e01b88526041600452602488fd5b60405162461bcd60e51b815260206004820152600e60248201526d496e76616c69642065787069727960901b6044820152606490fd5b50601e811115612571565b5034610356578060031936011261035657602060ff61019154166040519015158152f35b5034610356576020366003190112610356576126e8613f19565b6126f0614c89565b6001600160a01b03166127048115156146d8565b61023580546001600160a01b03191691909117905580f35b503461035657602036600319011261035657600435612739614aed565b61274561161d82614dab565b80825261022b60209081526040808420335f908152925290205460ff16156128085780825261022b60209081526040808420335f908152908352819020805460ff1916905582845261022c9091528220546127ef575b80825261022b6020526040822060018060a01b0333165f5260205260ff60405f20541660405190151581527f4d5c3df35a8d7d04f2e10db1454548af37ee7449c97a4b4c243681f29c2ea40760203392a380f35b80825261022c6020526040822080545f1901905561279b565b80825261022b6020526040822060018060a01b0333165f5260205260405f20600160ff1982541617905580825261022c60205260408220600181540190558160018060a01b03610235541680612860575b505061279b565b803b156111ba5781809160a46040518094819363d0654f3560e01b8352336004840152600160248401526060604484015260046064840152634c494b4560e01b60848401525af180156111af571561285957816128bc91614093565b6111ba57815f612859565b5034610356576020366003190112610356576001600160a01b036128e9613f19565b169081815261022f6020526040812054906129038261424d565b92815b83811061291b57604051806106a38782613ee0565b60019082845261022f6020526129348160408620614221565b90549060031b1c612945828861427f565b5201612906565b50346103565780600319360112610356577f00000000000000000000000000000000000000000000000000000000000000006001600160a01b031630036129a45760206040515f5160206159dd5f395f51905f528152f35b60405162461bcd60e51b815260206004820152603860248201527f555550535570677261646561626c653a206d757374206e6f742062652063616c6044820152771b1959081d1a1c9bdd59da0819195b1959d85d1958d85b1b60421b6064820152608490fd5b50604036600319011261035657612a1f613f19565b6024356001600160401b0381116106bb57612a3e9036906004016141a7565b612a957f00000000000000000000000000000000000000000000000000000000000000006001600160a01b0316612a7730821415614603565b5f5160206159dd5f395f51905f52546001600160a01b031614614651565b612a9d614b8a565b5f51602061593d5f395f51905f525460ff1615612abe575061064a906154c7565b6040516352d1902d60e01b81526001600160a01b03831690602081600481855afa859181612c19575b50612b355760405162461bcd60e51b815260206004820152602e60248201525f516020615add5f395f51905f5260448201526d6f6e206973206e6f74205555505360901b6064820152608490fd5b5f5160206159dd5f395f51905f5203612bd557612b51836154c7565b5f516020615a1d5f395f51905f528480a2805115801590612bcd575b612b7657505080f35b612bc991838060405193612b8b606086614093565b602785525f516020615a9d5f395f51905f526020860152660819985a5b195960ca1b6040860152602081519101845af4612bc3614548565b91615883565b5080f35b506001612b6d565b60405162461bcd60e51b815260206004820152602960248201525f516020615a7d5f395f51905f526044820152681a58589b195555525160ba1b6064820152608490fd5b9091506020813d602011612c49575b81612c3560209383614093565b81010312612c455751905f612ae7565b8580fd5b3d9150612c28565b50346103565760203660031901126103565760043581526102286020526040902080546001600160a01b0316612c89600183016140b6565b91612c96600282016140b6565b612cd7600383015492600460018060601b039101541691612cc9604051968796875260a0602088015260a0870190613f66565b908582036040870152613f66565b91606084015260808301520390f35b50346103565761064a610f7b612cfb36613f8b565b9060405192612d0b602085614093565b868452610f6b610f668433614900565b5034610356578060031936011261035657612d34614c89565b6101915460ff811615612d765760ff1916610191557f5db9ee0a495bf2e6ff9c91a7834c1ba4fdd244a5e8aa4e537bd38aeae4b073aa6020604051338152a180f35b60405162461bcd60e51b815260206004820152601460248201527314185d5cd8589b194e881b9bdd081c185d5cd95960621b6044820152606490fd5b5034610356578060031936011261035657610234546040516001600160a01b039091168152602090f35b503461035657602036600319011261035657612df6613f19565b612e2f7f00000000000000000000000000000000000000000000000000000000000000006001600160a01b0316612a7730821415614603565b612e37614b8a565b602090604051612e478382614093565b83815282810190601f1984013683375f51602061593d5f395f51905f525460ff1615612e7957505061064a91506154c7565b6040516352d1902d60e01b81529192916001600160a01b038316908581600481855afa879181612fed575b50612ef25760405162461bcd60e51b815260048101879052602e60248201525f516020615add5f395f51905f5260448201526d6f6e206973206e6f74205555505360901b6064820152608490fd5b9394937fc9f76b5ec45e5cdef99837d7b6d2467235c1df8933c8ca56df5c35afa2c7d44401612fa957908591612f27846154c7565b5f516020615a1d5f395f51905f528380a2805115801590612fa2575b612f50575b505050505080f35b612f979482915f516020615a9d5f395f51905f5260405196612f73606089614093565b60278852870152660819985a5b195960ca1b60408701525190845af4612bc3614548565b505f80808381612f48565b5081612f43565b60405162461bcd60e51b815260048101859052602960248201525f516020615a7d5f395f51905f526044820152681a58589b195555525160ba1b6064820152608490fd5b9091508681813d8311613019575b6130058183614093565b810103126130155751905f612ea4565b8780fd5b503d612ffb565b50346103565760403660031901126103565761303a613f2f565b336001600160a01b038216036130565761064a90600435614d28565b60405162461bcd60e51b815260206004820152602f60248201527f416363657373436f6e74726f6c3a2063616e206f6e6c792072656e6f756e636560448201526e103937b632b9903337b91039b2b63360891b6064820152608490fd5b5034610356576020366003190112610356576020906040906001600160a01b036130db613f19565b16815261023a83522054604051908152f35b50346103565760403660031901126103565760043561310a613f2f565b9061311761064082614394565b80835261012d6020526040832060018060a01b0383165f5260205260ff60405f20541615613143578280f35b80835261012d602090815260408085206001600160a01b03949094165f81815294909252909220805460ff191660011790553391905f51602061591d5f395f51905f528480a45f808280f35b5060203660031901126138a3576004356131a7614aed565b6131af614b32565b805f526102296020526131c860ff60405f205416614441565b805f5261022a60205260405f20543410613906576131e581614799565b815f5261022a60205260405f2054906131ff833383614975565b60058202828104600514831517156138f2576064900461321f818461447a565b9161322c61023754614487565b6102375561323d8461023854614495565b6102385560018060a01b031691825f5261023a60205260405f20613262858254614495565b9055335f5261023b60205260405f2061327c858254614495565b9055825f5261023d60205260405f206132958154614487565b9055335f5261023e60205260405f206132ae8154614487565b90556132ba84866143a7565b90811515806138e0575b6138a7575b5050610235546001600160a01b0316806137f8575b506102365486906001600160a01b03168015158061378d575b6133ec575b50808080613370948982526102296020526040822060ff19815416905589825261022a6020528160408120556133318a615348565b5089825261022e602052613347604083206144f2565b613365828080808b60018060a01b0361023354165af1611d55614548565b875af1611d66614548565b60018060a01b0361023354169060405190815260406020820152600a604082015269544f4b454e5f53414c4560b01b60608201525f5160206159fd5f395f51905f5260803392a36040519182527fa8a7473f10e62cf9687e243de1c3ac8b3cbc3dd04b96826beb3a65b59538581460203393a4600161015f5580f35b604051631b0a264d60e11b8152336004820152909150602081602481855afa908115613782578891613740575b50610234546001600160a01b03166127108982613634575b5061ffff91501690816005026005810483036136205761271090049180600a0290600a82040361362057906127108a9493920492803b15610f80578460405180926316bc091360e21b825281838161348d8989600484016144af565b03925af190811561360057859161360b575b5050610236546001600160a01b0316803b15610f8057846040518092636084503f60e11b82528183816134d68a3360048401613fdb565b03925af19081156136005785916135eb575b5050610235546001600160a01b03169182613506575b5050506132fc565b823b15610f80576135309285928360405180968195829463d0654f3560e01b8452600484016144af565b03925af19081156135e05783916135cb575b5050610235546001600160a01b031690813b156106bb57829160a48392604051948593849263d0654f3560e01b8452336004850152602484015260606044840152600e60648401526d524546455252414c5f424f4e555360901b60848401525af180156111af576135b6575b8080806134fe565b6135c1828092614093565b610356575f6135ae565b816135d591614093565b6111ba57815f613542565b6040513d85823e3d90fd5b816135f591614093565b61152957835f6134e8565b6040513d87823e3d90fd5b8161361591614093565b61152957835f61349f565b634e487b7160e01b8a52601160045260248afd5b604051634d73ca5f60e11b81526001600160a01b038516600482015292839060249082905afa8a818c92613699575b61ffff9450613675575b505089613431565b8061368e575b613686575b8061366d565b90505f613680565b50828116151561367b565b9150503d808c853e6136ab8185614093565b83019260608185031261373c576136c1816144a2565b60208201519161ffff83168303613738576040810151906001600160401b03821161373457019480601f870112156137385785516136fe81614156565b9161370c6040519384614093565b818352602082890101116137345761ffff9660208061372d94019101613f45565b9091613663565b8e80fd5b8d80fd5b8b80fd5b90506020813d60201161377a575b8161375b60209383614093565b8101031261301557516001600160a01b0381168103613015575f613419565b3d915061374e565b6040513d8a823e3d90fd5b50604051631be0d12160e01b8152336004820152602081602481855afa9081156135e05783916137be575b506132f7565b90506020813d6020116137f0575b816137d960209383614093565b810103126106bb576137ea906144a2565b5f6137b8565b3d91506137cc565b803b156138a3575f8091602460405180948193638efa571f60e01b83528960048401525af1801561389857613883575b506102355486906001600160a01b0316803b156111ba57818091602460405180948193634fbf879360e01b83523360048401525af180156111af5761386e575b506132de565b8161387891614093565b612c4557855f613868565b6138909196505f90614093565b5f945f613828565b6040513d5f823e3d90fd5b5f80fd5b6138b48261023954614495565b6102395560018060a01b03165f5261023c6020526138d760405f20918254614495565b90555f806132c9565b506001600160a01b03811615156132c4565b634e487b7160e01b5f52601160045260245ffd5b60405162461bcd60e51b8152602060048201526014602482015273125b9cdd59999a58da595b9d081c185e5b595b9d60621b6044820152606490fd5b346138a35761395961395336613fc5565b906143a7565b906106a360405192839283613fdb565b346138a35760203660031901126138a3576020613987600435614394565b604051908152f35b346138a35760203660031901126138a3576001600160a01b036139b0613f19565b165f5261023c602052602060405f2054604051908152f35b346138a3576139d636613fc5565b6139de614aed565b6139ea61155683614799565b6139f5811515614358565b815f5261022960205260405f20600160ff19825416179055815f5261022a6020528060405f2055613a2582615283565b506040519081527f5dc96537cbae524775a674b6a810d9a1ba04a9e279f172d156b352151394677a60203392a3005b346138a357613a78613a6536613f8b565b91613a73610f668433614900565b614975565b005b346138a3575f3660031901126138a357602060405160058152f35b346138a3575f3660031901126138a357602061023754604051908152f35b346138a35760403660031901126138a357613acc613f19565b602435906001600160a01b03613ae183614799565b6001600160a01b039092169116818114613bea57803314908115613bc6575b5015613b5b575f828152609b6020526040902080546001600160a01b031916821790556001600160a01b03613b3483614799565b167f8c5be1e5ebec7d5bd14f71427d1e84f3dd0314c0f7b2291e5b200ac8c7c3b9255f80a4005b60405162461bcd60e51b815260206004820152603d60248201527f4552433732313a20617070726f76652063616c6c6572206973206e6f7420746f60448201527f6b656e206f776e6572206f7220617070726f76656420666f7220616c6c0000006064820152608490fd5b5f908152609c6020908152604080832033845290915290205460ff16905083613b00565b60405162461bcd60e51b815260206004820152602160248201527f4552433732313a20617070726f76616c20746f2063757272656e74206f776e656044820152603960f91b6064820152608490fd5b346138a35760203660031901126138a357602061250c600435614293565b346138a3575f3660031901126138a3576040515f609754613c7781613ff6565b8084529060018116908115613cea5750600114613c9f575b6106a38361068f81850382614093565b60975f9081525f51602061597d5f395f51905f52939250905b808210613cd05750909150810160200161068f613c8f565b919260018160209254838588010152019101909291613cb8565b60ff191660208086019190915291151560051b8401909101915061068f9050613c8f565b346138a35760203660031901126138a35760043563ffffffff60e01b81168091036138a357602090637965db0b60e01b8114908115613d53575b506040519015158152f35b632483248360e11b811491508115613d6d575b5082613d48565b6380ac58cd60e01b811491508115613db9575b8115613d8e575b5082613d66565b63152a902d60e11b811491508115613da8575b5082613d87565b6301ffc9a760e01b14905082613da1565b635b5e139f60e01b81149150613d80565b346138a35760203660031901126138a3576001600160a01b03613deb613f19565b16805f5261023060205260405f2054613e038161424d565b915f5b828110613e1b57604051806106a38682613ee0565b600190825f52610230602052613e348160405f20614221565b90549060031b1c613e45828761427f565b5201613e06565b346138a3575f3660031901126138a35761023154613e698161424d565b905f61023154905b828110613e8657604051806106a38682613ee0565b81811015613ecc576102315f527fae55bd7d7ac199ab94a59019d11e8ea53916adefebcd74fd08d32115dd445d1081015460019190613ec5828761427f565b5201613e71565b634e487b7160e01b5f52603260045260245ffd5b60206040818301928281528451809452019201905f5b818110613f035750505090565b8251845260209384019390920191600101613ef6565b600435906001600160a01b03821682036138a357565b602435906001600160a01b03821682036138a357565b5f5b838110613f565750505f910152565b8181015183820152602001613f47565b90602091613f7f81518092818552858086019101613f45565b601f01601f1916010190565b60609060031901126138a3576004356001600160a01b03811681036138a357906024356001600160a01b03811681036138a3579060443590565b60409060031901126138a3576004359060243590565b6001600160a01b039091168152602081019190915260400190565b90600182811c92168015614024575b602083101461401057565b634e487b7160e01b5f52602260045260245ffd5b91607f1691614005565b608081019081106001600160401b0382111761404957604052565b634e487b7160e01b5f52604160045260245ffd5b60a081019081106001600160401b0382111761404957604052565b604081019081106001600160401b0382111761404957604052565b601f909101601f19168101906001600160401b0382119082101761404957604052565b9060405191825f8254926140c984613ff6565b808452936001811690811561413457506001146140f0575b506140ee92500383614093565b565b90505f9291925260205f20905f915b8183106141185750509060206140ee928201015f6140e1565b60209193508060019154838589010152019101909184926140ff565b9050602092506140ee94915060ff191682840152151560051b8201015f6140e1565b6001600160401b03811161404957601f01601f191660200190565b92919261417d82614156565b9161418b6040519384614093565b8294818452818301116138a3578281602093845f960137010152565b9080601f830112156138a3578160206141c293359101614171565b90565b8054821015613ecc575f5260205f209060021b01905f90565b9181601f840112156138a3578235916001600160401b0383116138a357602083818601950101116138a357565b604435906001600160601b03821682036138a357565b8054821015613ecc575f5260205f2001905f90565b6001600160401b0381116140495760051b60200190565b9061425782614236565b6142646040519182614093565b8281528092614275601f1991614236565b0190602036910137565b8051821015613ecc5760209160051b010190565b6142a461429f82614dab565b614752565b5f908152609b60205260409020546001600160a01b031690565b156142c557565b60405162461bcd60e51b815260206004820152602d60248201527f4552433732313a2063616c6c6572206973206e6f7420746f6b656e206f776e6560448201526c1c881bdc88185c1c1c9bdd9959609a1b6064820152608490fd5b1561432757565b60405162461bcd60e51b81526020600482015260096024820152682737ba1037bbb732b960b91b6044820152606490fd5b1561435f57565b60405162461bcd60e51b815260206004820152600d60248201526c496e76616c696420707269636560981b6044820152606490fd5b5f5261012d602052600160405f20015490565b9190915f52606660205260405f2091604051926143c384614078565b546001600160a01b03811680855260a09190911c602085015215614416575b60208301516001600160601b031681810291801590830490911417156138f25791516001600160a01b031691612710900490565b915060405161442481614078565b6065546001600160a01b038116825260a01c6020820152916143e2565b1561444857565b60405162461bcd60e51b815260206004820152600a602482015269139bdd081b1a5cdd195960b21b6044820152606490fd5b919082039182116138f257565b5f1981146138f25760010190565b919082018092116138f257565b519081151582036138a357565b909160a092600180851b031682526020820152606060408201526015606082015274524546455252414c5f4e46545f505552434841534560581b60808201520190565b8054905f815581614501575050565b6001600160fe1b03821682036138f2575f5260205f209060021b8101905b81811061452a575050565b6004905f81555f60018201555f60028201555f60038201550161451f565b3d15614572573d9061455982614156565b916145676040519384614093565b82523d5f602084013e565b606090565b1561457e57565b60405162461bcd60e51b8152602060048201526018602482015277151c99585cdd5c9e481d1c985b9cd9995c8819985a5b195960421b6044820152606490fd5b156145c557565b60405162461bcd60e51b815260206004820152601660248201527514d95b1b195c881d1c985b9cd9995c8819985a5b195960521b6044820152606490fd5b1561460a57565b60405162461bcd60e51b815260206004820152602c60248201525f51602061599d5f395f51905f5260448201526b19195b1959d85d1958d85b1b60a21b6064820152608490fd5b1561465857565b60405162461bcd60e51b815260206004820152602c60248201525f51602061599d5f395f51905f5260448201526b6163746976652070726f787960a01b6064820152608490fd5b156146a657565b60405162461bcd60e51b815260206004820152600a6024820152694e6f742065786973747360b01b6044820152606490fd5b156146df57565b60405162461bcd60e51b815260206004820152600f60248201526e496e76616c6964206164647265737360881b6044820152606490fd5b1561471d57565b60405162461bcd60e51b815260206004820152600d60248201526c24b73b30b634b21037b33332b960991b6044820152606490fd5b1561475957565b60405162461bcd60e51b8152602060048201526018602482015277115490cdcc8c4e881a5b9d985b1a59081d1bdad95b88125160421b6044820152606490fd5b5f908152609960205260409020546001600160a01b03166141c2811515614752565b156147c257565b60405162461bcd60e51b815260206004820152601260248201527113919508191bd95cc81b9bdd08195e1a5cdd60721b6044820152606490fd5b1561480357565b60405162461bcd60e51b815260206004820152600f60248201526e496e76616c696420726f79616c747960881b6044820152606490fd5b601f821161484757505050565b5f5260205f20906020601f840160051c8301931061487f575b601f0160051c01905b818110614874575050565b5f8155600101614869565b9091508190614860565b8160011b915f199060031b1c19161790565b90918060409360208452816020850152848401375f828201840152601f01601f1916010190565b906040516148cf8161402e565b82546001600160a01b0316815260018301546020820152600283015460ff1660408201526003909201546060830152565b906001600160a01b0361491282614799565b6001600160a01b0390931692168281149291908315614952575b50821561493857505090565b9091506001600160a01b039061494d90614293565b161490565b9092505f52609c60205260405f20815f5260205260ff60405f205416915f61492c565b6001600160a01b03909116908115614aa8576149a761499384614799565b6001600160a01b0392831692168214615229565b80614a6e575b81614a34575b6149cf816001600160a01b036149c886614799565b1614615229565b5f838152609b6020908152604080832080546001600160a01b0319908116909155848452609a835281842080545f1901905585845281842080546001019055868452609990925282208054909116841790555f516020615a3d5f395f51905f529080a4565b5f5b60018110614a4457506149b3565b600190835f5261022f602052614a6760405f20614a618388614495565b906152f4565b5001614a36565b5f5b60018110614a7e57506149ad565b600190825f5261022f602052614aa160405f20614a9b8388614495565b90615416565b5001614a70565b60405162461bcd60e51b815260206004820152601f60248201527f43616e6e6f74207472616e7366657220746f207a65726f2061646472657373006044820152606490fd5b60ff6101915416614afa57565b60405162461bcd60e51b815260206004820152601060248201526f14185d5cd8589b194e881c185d5cd95960821b6044820152606490fd5b600261015f5414614b4557600261015f55565b60405162461bcd60e51b815260206004820152601f60248201527f5265656e7472616e637947756172643a207265656e7472616e742063616c6c006044820152606490fd5b335f9081527fe8b47e42cab78272d650e16c902ae501350b5785a88ad6cc35425628c6398d9a602052604090205460ff1615614bc257565b614c85614bce336156b0565b614c656011614be95f5160206159bd5f395f51905f52615796565b92603760405194859276020b1b1b2b9b9a1b7b73a3937b61d1030b1b1b7bab73a1604d1b6020850152614c258151809260208688019101613f45565b83017001034b99036b4b9b9b4b733903937b6329607d1b83820152614c54825180936020604885019101613f45565b01010301601f198101835282614093565b60405162461bcd60e51b8152602060048201529182916024830190613f66565b0390fd5b335f9081527f7ed425ae1d300634375f848c08e126f7f779b9d472950d746ef0d3e26602551d602052604090205460ff1615614cc157565b614c85614ccd336156b0565b614c656011614be95f516020615a5d5f395f51905f52615796565b5f81815261012d6020908152604080832033845290915290205460ff1615614d0d5750565b614c8590614c656011614be9614d22336156b0565b93615796565b805f5261012d60205260405f2060018060a01b0383165f5260205260ff60405f205416614d53575050565b5f81815261012d602090815260408083206001600160a01b0395909516808452949091528120805460ff19169055339291907ff6391f5c32d9c69d2a47ea670b442974b53935d1edc7fd64eb21e047a839171b9080a4565b5f908152609960205260409020546001600160a01b0316151590565b60405191906020614dd88185614093565b5f84526001600160a01b038216908115614e8a57614dfe614df885614dab565b15615838565b5f5b60018110614e6757509183809260996140ee9795614e23614df8610f7b99614dab565b5f838152609a82526040808220805460010190558582529290915290812080546001600160a01b031916831790555f516020615a3d5f395f51905f528180a4615557565b600190835f5261022f8352614e8360405f20614a618389614495565b5001614e00565b6064906040519062461bcd60e51b825280600483015260248201527f4552433732313a206d696e7420746f20746865207a65726f20616464726573736044820152fd5b919091614ed981614dab565b15614fc4575f81815260c96020526040902083516001600160401b03811161404957614f0f81614f098454613ff6565b8461483a565b6020601f8211600114614f4f57816020949392614f43925f516020615abd5f395f51905f5297985f92610ca5575050614889565b90555b604051908152a1565b601f19821695835f52815f20965f5b818110614fac575096600192849260209796955f516020615abd5f395f51905f52999a10614f94575b505050811b019055614f46565b01515f1960f88460031b161c191690555f8080614f87565b83830151895560019098019760209384019301614f5e565b60405162461bcd60e51b815260206004820152602e60248201527f45524337323155524953746f726167653a2055524920736574206f66206e6f6e60448201526d32bc34b9ba32b73a103a37b5b2b760911b6064820152608490fd5b916001600160601b03169061271082116150cc576001600160a01b0316918215615089576040519261505184614078565b835260208084019283525f91825260669052604090209151905160a01b6001600160a01b0319166001600160a01b0391909116179055565b60405162461bcd60e51b815260206004820152601b60248201527a455243323938313a20496e76616c696420706172616d657465727360281b6044820152606490fd5b60405162461bcd60e51b815260206004820152602a60248201527f455243323938313a20726f79616c7479206665652077696c6c206578636565646044820152692073616c65507269636560b01b6064820152608490fd5b60809060208152603260208201527f4552433732313a207472616e7366657220746f206e6f6e20455243373231526560408201527131b2b4bb32b91034b6b83632b6b2b73a32b960711b60608201520190565b1561517e57565b60405162461bcd60e51b815280614c8560048201615124565b1561519e57565b60405162461bcd60e51b815260206004820152602b60248201527f496e697469616c697a61626c653a20636f6e7472616374206973206e6f74206960448201526a6e697469616c697a696e6760a81b6064820152608490fd5b61520361429f82614dab565b5f5260c960205261521660405f206140b6565b5f604051615225602082614093565b5290565b1561523057565b60405162461bcd60e51b815260206004820152602560248201527f4552433732313a207472616e736665722066726f6d20696e636f72726563742060448201526437bbb732b960d91b6064820152608490fd5b805f5261023260205260405f2054155f146152ef5761023154600160401b811015614049576152d66152c082600185940161023155610231614221565b819391549060031b91821b915f19901b19161790565b905561023154905f5261023260205260405f2055600190565b505f90565b6001810190825f528160205260405f2054155f14615341578054600160401b8110156140495761532e6152c0826001879401855584614221565b905554915f5260205260405f2055600190565b5050505f90565b5f81815261023260205260409020548015615410575f1981018181116138f257610231545f198101919082116138f2578082036153d5575b5050506102315480156153c1575f190161539c81610231614221565b8154905f199060031b1b19169055610231555f526102326020525f6040812055600190565b634e487b7160e01b5f52603160045260245ffd5b6153f96153e76152c093610231614221565b90549060031b1c928392610231614221565b90555f5261023260205260405f20555f8080615380565b50505f90565b906001820191815f528260205260405f20548015155f146154bf575f1981018181116138f25782545f198101919082116138f25780820361548a575b505050805480156153c1575f19019061546b8282614221565b8154905f199060031b1b19169055555f526020525f6040812055600190565b6154aa61549a6152c09386614221565b90549060031b1c92839286614221565b90555f528360205260405f20555f8080615452565b505050505f90565b803b156154fc575f5160206159dd5f395f51905f5280546001600160a01b0319166001600160a01b0392909216919091179055565b60405162461bcd60e51b815260206004820152602d60248201527f455243313936373a206e657720696d706c656d656e746174696f6e206973206e60448201526c1bdd08184818dbdb9d1c9858dd609a1b6064820152608490fd5b91823b1561563f5761559c926020925f604051809681958294630a85bd0160e11b84523360048501528460248501526044840152608060648401526084830190613f66565b03926001600160a01b03165af15f91816155fa575b506155e4576155be614548565b805190816155df5760405162461bcd60e51b815280614c8560048201615124565b602001fd5b6001600160e01b031916630a85bd0160e11b1490565b9091506020813d602011615637575b8161561660209383614093565b810103126138a357516001600160e01b0319811681036138a357905f6155b1565b3d9150615609565b505050600190565b919290803b156156965761559c935f60209460405196879586948593630a85bd0160e11b855233600486015260018060a01b031660248501526044840152608060648401526084830190613f66565b50505050600190565b908151811015613ecc570160200190565b6156ba602a614156565b906156c86040519283614093565b602a82526156d6602a614156565b6020830190601f1901368237825115613ecc5760309053815160011015613ecc576078602183015360295b6001811161575557506157115790565b606460405162461bcd60e51b815260206004820152602060248201527f537472696e67733a20686578206c656e67746820696e73756666696369656e746044820152fd5b90600f81166010811015613ecc576f181899199a1a9b1b9c1cb0b131b232b360811b901a615783838561569f565b5360041c9080156138f2575f1901615701565b6157a06042614156565b906157ae6040519283614093565b604282526157bc6042614156565b6020830190601f1901368237825115613ecc5760309053815160011015613ecc576078602183015360415b600181116157f757506157115790565b90600f81166010811015613ecc576f181899199a1a9b1b9c1cb0b131b232b360811b901a615825838561569f565b5360041c9080156138f2575f19016157e7565b1561583f57565b60405162461bcd60e51b815260206004820152601c60248201527b115490cdcc8c4e881d1bdad95b88185b1c9958591e481b5a5b9d195960221b6044820152606490fd5b919290156158e55750815115615897575090565b3b156158a05790565b60405162461bcd60e51b815260206004820152601d60248201527f416464726573733a2063616c6c20746f206e6f6e2d636f6e74726163740000006044820152606490fd5b8251909150156158f85750805190602001fd5b60405162461bcd60e51b815260206004820152908190614c85906024830190613f6656fe2f8788117e7eff1d82e926ec794901d17c78024a50270940304540a733656f0d4910fdfa16fed3260ed0e7147f7cc6da11a60208b5b9406d12a635614ffd91431e1b69b56bd875547ce642e5ca9d38001b825863ffbf9cf08c72e0ff64b00a8d354a83ed9988f79f6038d4c7a7dadbad8af32f4ad6df893e0e5807a1b1944ff946756e6374696f6e206d7573742062652063616c6c6564207468726f75676820189ab7a9244df0848122154315af71fe140f3db0fe014031783b0946b8c9d2e3360894a13ba1a3210667c828492db98dca3e2076cc3735a920a3ca505d382bbc21ef4c3fb7c1ca86841fe7b11bbb71ad12bd4b7bb3205924ec33c681c9d47c3fbc7cd75a20ee27fd9adebab32041f755214dbc6bffa90cc0225b39da2e5c2d3bddf252ad1be2c89b69c2b068fc378daa952ba7f163c4a11628f55a4df523b3efa49807205ce4d355092ef5a8a18f56e8913cf4a201fbe287825b095693c2177545524331393637557067726164653a20756e737570706f727465642070726f78416464726573733a206c6f772d6c6576656c2064656c65676174652063616c6cf8e1a15aba9398e019f0b49df1a4fde98ee17ae345cb5f6b5e2c27f5033e8ce745524331393637557067726164653a206e657720696d706c656d656e746174692237a976fa961f5921fd19f2b03c925c725d77b20ce8f790c19709c03de4d814a26469706673582212205cea154f985c6fbabf4909ba116b88bc5050882872e790b60db420d75eaf7dc564736f6c634300081c0033",
  "linkReferences": {},
  "deployedLinkReferences": {}
}