{
  "_format": "hh-sol-artifact-1",
  "contractName": "GameifiedMarketplaceCoreV1",
  "sourceName": "contracts/Marketplace/GameifiedMarketplaceCoreV1.sol",
  "abi": [
    {
      "inputs": [],
      "stateMutability": "nonpayable",
      "type": "constructor"
    },
    {
      "inputs": [],
      "name": "InsufficientPayment",
      "type": "error"
    },
    {
      "inputs": [],
      "name": "NoOffersAvailable",
      "type": "error"
    },
    {
      "inputs": [],
      "name": "NotTokenOwner",
      "type": "error"
    },
    {
      "inputs": [],
      "name": "TokenNotFound",
      "type": "error"
    },
    {
      "inputs": [],
      "name": "TokenNotListed",
      "type": "error"
    },
    {
      "anonymous": false,
      "inputs": [
        {
          "indexed": false,
          "internalType": "address",
          "name": "previousAdmin",
          "type": "address"
        },
        {
          "indexed": false,
          "internalType": "address",
          "name": "newAdmin",
          "type": "address"
        }
      ],
      "name": "AdminChanged",
      "type": "event"
    },
    {
      "anonymous": false,
      "inputs": [
        {
          "indexed": true,
          "internalType": "address",
          "name": "owner",
          "type": "address"
        },
        {
          "indexed": true,
          "internalType": "address",
          "name": "approved",
          "type": "address"
        },
        {
          "indexed": true,
          "internalType": "uint256",
          "name": "tokenId",
          "type": "uint256"
        }
      ],
      "name": "Approval",
      "type": "event"
    },
    {
      "anonymous": false,
      "inputs": [
        {
          "indexed": true,
          "internalType": "address",
          "name": "owner",
          "type": "address"
        },
        {
          "indexed": true,
          "internalType": "address",
          "name": "operator",
          "type": "address"
        },
        {
          "indexed": false,
          "internalType": "bool",
          "name": "approved",
          "type": "bool"
        }
      ],
      "name": "ApprovalForAll",
      "type": "event"
    },
    {
      "anonymous": false,
      "inputs": [
        {
          "indexed": false,
          "internalType": "uint256",
          "name": "_fromTokenId",
          "type": "uint256"
        },
        {
          "indexed": false,
          "internalType": "uint256",
          "name": "_toTokenId",
          "type": "uint256"
        }
      ],
      "name": "BatchMetadataUpdate",
      "type": "event"
    },
    {
      "anonymous": false,
      "inputs": [
        {
          "indexed": true,
          "internalType": "address",
          "name": "beacon",
          "type": "address"
        }
      ],
      "name": "BeaconUpgraded",
      "type": "event"
    },
    {
      "anonymous": false,
      "inputs": [
        {
          "indexed": true,
          "internalType": "address",
          "name": "user",
          "type": "address"
        },
        {
          "indexed": true,
          "internalType": "uint256",
          "name": "tokenId",
          "type": "uint256"
        },
        {
          "indexed": false,
          "internalType": "string",
          "name": "comment",
          "type": "string"
        }
      ],
      "name": "CommentAdded",
      "type": "event"
    },
    {
      "anonymous": false,
      "inputs": [
        {
          "indexed": false,
          "internalType": "uint8",
          "name": "version",
          "type": "uint8"
        }
      ],
      "name": "Initialized",
      "type": "event"
    },
    {
      "anonymous": false,
      "inputs": [
        {
          "indexed": true,
          "internalType": "address",
          "name": "user",
          "type": "address"
        },
        {
          "indexed": false,
          "internalType": "uint8",
          "name": "newLevel",
          "type": "uint8"
        }
      ],
      "name": "LevelUp",
      "type": "event"
    },
    {
      "anonymous": false,
      "inputs": [
        {
          "indexed": true,
          "internalType": "address",
          "name": "user",
          "type": "address"
        },
        {
          "indexed": true,
          "internalType": "uint256",
          "name": "tokenId",
          "type": "uint256"
        },
        {
          "indexed": false,
          "internalType": "bool",
          "name": "liked",
          "type": "bool"
        }
      ],
      "name": "LikeToggled",
      "type": "event"
    },
    {
      "anonymous": false,
      "inputs": [
        {
          "indexed": false,
          "internalType": "uint256",
          "name": "_tokenId",
          "type": "uint256"
        }
      ],
      "name": "MetadataUpdate",
      "type": "event"
    },
    {
      "anonymous": false,
      "inputs": [
        {
          "indexed": true,
          "internalType": "address",
          "name": "seller",
          "type": "address"
        },
        {
          "indexed": true,
          "internalType": "address",
          "name": "buyer",
          "type": "address"
        },
        {
          "indexed": true,
          "internalType": "uint256",
          "name": "tokenId",
          "type": "uint256"
        },
        {
          "indexed": false,
          "internalType": "uint256",
          "name": "amount",
          "type": "uint256"
        }
      ],
      "name": "OfferAccepted",
      "type": "event"
    },
    {
      "anonymous": false,
      "inputs": [
        {
          "indexed": true,
          "internalType": "address",
          "name": "offeror",
          "type": "address"
        },
        {
          "indexed": true,
          "internalType": "uint256",
          "name": "tokenId",
          "type": "uint256"
        },
        {
          "indexed": false,
          "internalType": "uint256",
          "name": "amount",
          "type": "uint256"
        }
      ],
      "name": "OfferMade",
      "type": "event"
    },
    {
      "anonymous": false,
      "inputs": [
        {
          "indexed": false,
          "internalType": "address",
          "name": "account",
          "type": "address"
        }
      ],
      "name": "Paused",
      "type": "event"
    },
    {
      "anonymous": false,
      "inputs": [
        {
          "indexed": true,
          "internalType": "address",
          "name": "from",
          "type": "address"
        },
        {
          "indexed": false,
          "internalType": "uint256",
          "name": "amount",
          "type": "uint256"
        },
        {
          "indexed": true,
          "internalType": "address",
          "name": "to",
          "type": "address"
        },
        {
          "indexed": false,
          "internalType": "string",
          "name": "operation",
          "type": "string"
        }
      ],
      "name": "PlatformFeeTransferred",
      "type": "event"
    },
    {
      "anonymous": false,
      "inputs": [
        {
          "indexed": true,
          "internalType": "address",
          "name": "seller",
          "type": "address"
        },
        {
          "indexed": true,
          "internalType": "uint256",
          "name": "tokenId",
          "type": "uint256"
        },
        {
          "indexed": false,
          "internalType": "uint256",
          "name": "newPrice",
          "type": "uint256"
        }
      ],
      "name": "PriceUpdated",
      "type": "event"
    },
    {
      "anonymous": false,
      "inputs": [
        {
          "indexed": true,
          "internalType": "address",
          "name": "oldAddress",
          "type": "address"
        },
        {
          "indexed": true,
          "internalType": "address",
          "name": "newAddress",
          "type": "address"
        }
      ],
      "name": "QuestsContractUpdated",
      "type": "event"
    },
    {
      "anonymous": false,
      "inputs": [
        {
          "indexed": true,
          "internalType": "bytes32",
          "name": "role",
          "type": "bytes32"
        },
        {
          "indexed": true,
          "internalType": "bytes32",
          "name": "previousAdminRole",
          "type": "bytes32"
        },
        {
          "indexed": true,
          "internalType": "bytes32",
          "name": "newAdminRole",
          "type": "bytes32"
        }
      ],
      "name": "RoleAdminChanged",
      "type": "event"
    },
    {
      "anonymous": false,
      "inputs": [
        {
          "indexed": true,
          "internalType": "bytes32",
          "name": "role",
          "type": "bytes32"
        },
        {
          "indexed": true,
          "internalType": "address",
          "name": "account",
          "type": "address"
        },
        {
          "indexed": true,
          "internalType": "address",
          "name": "sender",
          "type": "address"
        }
      ],
      "name": "RoleGranted",
      "type": "event"
    },
    {
      "anonymous": false,
      "inputs": [
        {
          "indexed": true,
          "internalType": "bytes32",
          "name": "role",
          "type": "bytes32"
        },
        {
          "indexed": true,
          "internalType": "address",
          "name": "account",
          "type": "address"
        },
        {
          "indexed": true,
          "internalType": "address",
          "name": "sender",
          "type": "address"
        }
      ],
      "name": "RoleRevoked",
      "type": "event"
    },
    {
      "anonymous": false,
      "inputs": [
        {
          "indexed": true,
          "internalType": "address",
          "name": "oldAddress",
          "type": "address"
        },
        {
          "indexed": true,
          "internalType": "address",
          "name": "newAddress",
          "type": "address"
        }
      ],
      "name": "SkillsContractUpdated",
      "type": "event"
    },
    {
      "anonymous": false,
      "inputs": [
        {
          "indexed": true,
          "internalType": "address",
          "name": "oldAddress",
          "type": "address"
        },
        {
          "indexed": true,
          "internalType": "address",
          "name": "newAddress",
          "type": "address"
        }
      ],
      "name": "StakingContractUpdated",
      "type": "event"
    },
    {
      "anonymous": false,
      "inputs": [
        {
          "indexed": true,
          "internalType": "address",
          "name": "creator",
          "type": "address"
        },
        {
          "indexed": true,
          "internalType": "uint256",
          "name": "tokenId",
          "type": "uint256"
        },
        {
          "indexed": false,
          "internalType": "string",
          "name": "uri",
          "type": "string"
        }
      ],
      "name": "TokenCreated",
      "type": "event"
    },
    {
      "anonymous": false,
      "inputs": [
        {
          "indexed": true,
          "internalType": "address",
          "name": "seller",
          "type": "address"
        },
        {
          "indexed": true,
          "internalType": "uint256",
          "name": "tokenId",
          "type": "uint256"
        },
        {
          "indexed": false,
          "internalType": "uint256",
          "name": "price",
          "type": "uint256"
        }
      ],
      "name": "TokenListed",
      "type": "event"
    },
    {
      "anonymous": false,
      "inputs": [
        {
          "indexed": true,
          "internalType": "address",
          "name": "seller",
          "type": "address"
        },
        {
          "indexed": true,
          "internalType": "address",
          "name": "buyer",
          "type": "address"
        },
        {
          "indexed": true,
          "internalType": "uint256",
          "name": "tokenId",
          "type": "uint256"
        },
        {
          "indexed": false,
          "internalType": "uint256",
          "name": "price",
          "type": "uint256"
        }
      ],
      "name": "TokenSold",
      "type": "event"
    },
    {
      "anonymous": false,
      "inputs": [
        {
          "indexed": true,
          "internalType": "address",
          "name": "seller",
          "type": "address"
        },
        {
          "indexed": true,
          "internalType": "uint256",
          "name": "tokenId",
          "type": "uint256"
        }
      ],
      "name": "TokenUnlisted",
      "type": "event"
    },
    {
      "anonymous": false,
      "inputs": [
        {
          "indexed": true,
          "internalType": "address",
          "name": "from",
          "type": "address"
        },
        {
          "indexed": true,
          "internalType": "address",
          "name": "to",
          "type": "address"
        },
        {
          "indexed": true,
          "internalType": "uint256",
          "name": "tokenId",
          "type": "uint256"
        }
      ],
      "name": "Transfer",
      "type": "event"
    },
    {
      "anonymous": false,
      "inputs": [
        {
          "indexed": false,
          "internalType": "address",
          "name": "account",
          "type": "address"
        }
      ],
      "name": "Unpaused",
      "type": "event"
    },
    {
      "anonymous": false,
      "inputs": [
        {
          "indexed": true,
          "internalType": "address",
          "name": "implementation",
          "type": "address"
        }
      ],
      "name": "Upgraded",
      "type": "event"
    },
    {
      "anonymous": false,
      "inputs": [
        {
          "indexed": true,
          "internalType": "address",
          "name": "user",
          "type": "address"
        },
        {
          "indexed": false,
          "internalType": "uint256",
          "name": "amount",
          "type": "uint256"
        },
        {
          "indexed": false,
          "internalType": "string",
          "name": "reason",
          "type": "string"
        }
      ],
      "name": "XPGained",
      "type": "event"
    },
    {
      "inputs": [],
      "name": "ADMIN_ROLE",
      "outputs": [
        {
          "internalType": "bytes32",
          "name": "",
          "type": "bytes32"
        }
      ],
      "stateMutability": "view",
      "type": "function"
    },
    {
      "inputs": [],
      "name": "DEFAULT_ADMIN_ROLE",
      "outputs": [
        {
          "internalType": "bytes32",
          "name": "",
          "type": "bytes32"
        }
      ],
      "stateMutability": "view",
      "type": "function"
    },
    {
      "inputs": [],
      "name": "PLATFORM_FEE_PERCENTAGE",
      "outputs": [
        {
          "internalType": "uint256",
          "name": "",
          "type": "uint256"
        }
      ],
      "stateMutability": "view",
      "type": "function"
    },
    {
      "inputs": [],
      "name": "UPGRADER_ROLE",
      "outputs": [
        {
          "internalType": "bytes32",
          "name": "",
          "type": "bytes32"
        }
      ],
      "stateMutability": "view",
      "type": "function"
    },
    {
      "inputs": [
        {
          "internalType": "uint256",
          "name": "_tokenId",
          "type": "uint256"
        },
        {
          "internalType": "uint256",
          "name": "_offerIndex",
          "type": "uint256"
        }
      ],
      "name": "acceptOffer",
      "outputs": [],
      "stateMutability": "nonpayable",
      "type": "function"
    },
    {
      "inputs": [
        {
          "internalType": "uint256",
          "name": "_tokenId",
          "type": "uint256"
        },
        {
          "internalType": "string",
          "name": "_text",
          "type": "string"
        }
      ],
      "name": "addComment",
      "outputs": [],
      "stateMutability": "nonpayable",
      "type": "function"
    },
    {
      "inputs": [
        {
          "internalType": "address",
          "name": "to",
          "type": "address"
        },
        {
          "internalType": "uint256",
          "name": "tokenId",
          "type": "uint256"
        }
      ],
      "name": "approve",
      "outputs": [],
      "stateMutability": "nonpayable",
      "type": "function"
    },
    {
      "inputs": [
        {
          "internalType": "address",
          "name": "owner",
          "type": "address"
        }
      ],
      "name": "balanceOf",
      "outputs": [
        {
          "internalType": "uint256",
          "name": "",
          "type": "uint256"
        }
      ],
      "stateMutability": "view",
      "type": "function"
    },
    {
      "inputs": [
        {
          "internalType": "uint256",
          "name": "_tokenId",
          "type": "uint256"
        }
      ],
      "name": "buyToken",
      "outputs": [],
      "stateMutability": "payable",
      "type": "function"
    },
    {
      "inputs": [
        {
          "internalType": "uint256",
          "name": "_tokenId",
          "type": "uint256"
        },
        {
          "internalType": "uint256",
          "name": "_offerIndex",
          "type": "uint256"
        }
      ],
      "name": "cancelOffer",
      "outputs": [],
      "stateMutability": "nonpayable",
      "type": "function"
    },
    {
      "inputs": [
        {
          "internalType": "string",
          "name": "_tokenURI",
          "type": "string"
        },
        {
          "internalType": "string",
          "name": "_category",
          "type": "string"
        },
        {
          "internalType": "uint96",
          "name": "_royaltyPercentage",
          "type": "uint96"
        }
      ],
      "name": "createStandardNFT",
      "outputs": [
        {
          "internalType": "uint256",
          "name": "",
          "type": "uint256"
        }
      ],
      "stateMutability": "nonpayable",
      "type": "function"
    },
    {
      "inputs": [
        {
          "internalType": "uint256",
          "name": "tokenId",
          "type": "uint256"
        }
      ],
      "name": "getApproved",
      "outputs": [
        {
          "internalType": "address",
          "name": "",
          "type": "address"
        }
      ],
      "stateMutability": "view",
      "type": "function"
    },
    {
      "inputs": [],
      "name": "getListedNFTs",
      "outputs": [
        {
          "internalType": "uint256[]",
          "name": "",
          "type": "uint256[]"
        }
      ],
      "stateMutability": "view",
      "type": "function"
    },
    {
      "inputs": [
        {
          "internalType": "uint256",
          "name": "cursor",
          "type": "uint256"
        },
        {
          "internalType": "uint256",
          "name": "size",
          "type": "uint256"
        }
      ],
      "name": "getListedNFTsPage",
      "outputs": [
        {
          "internalType": "uint256[]",
          "name": "tokens",
          "type": "uint256[]"
        },
        {
          "internalType": "uint256",
          "name": "nextCursor",
          "type": "uint256"
        }
      ],
      "stateMutability": "view",
      "type": "function"
    },
    {
      "inputs": [
        {
          "internalType": "uint256",
          "name": "_tokenId",
          "type": "uint256"
        }
      ],
      "name": "getNFTComments",
      "outputs": [
        {
          "internalType": "string[]",
          "name": "",
          "type": "string[]"
        }
      ],
      "stateMutability": "view",
      "type": "function"
    },
    {
      "inputs": [
        {
          "internalType": "uint256",
          "name": "_tokenId",
          "type": "uint256"
        }
      ],
      "name": "getNFTLikeCount",
      "outputs": [
        {
          "internalType": "uint256",
          "name": "",
          "type": "uint256"
        }
      ],
      "stateMutability": "view",
      "type": "function"
    },
    {
      "inputs": [
        {
          "internalType": "uint256",
          "name": "_tokenId",
          "type": "uint256"
        }
      ],
      "name": "getNFTMarketInfo",
      "outputs": [
        {
          "internalType": "address",
          "name": "owner",
          "type": "address"
        },
        {
          "internalType": "bool",
          "name": "isListedStatus",
          "type": "bool"
        },
        {
          "internalType": "uint256",
          "name": "price",
          "type": "uint256"
        }
      ],
      "stateMutability": "view",
      "type": "function"
    },
    {
      "inputs": [
        {
          "internalType": "uint256",
          "name": "_tokenId",
          "type": "uint256"
        }
      ],
      "name": "getNFTMetadata",
      "outputs": [
        {
          "components": [
            {
              "internalType": "address",
              "name": "creator",
              "type": "address"
            },
            {
              "internalType": "string",
              "name": "uri",
              "type": "string"
            },
            {
              "internalType": "string",
              "name": "category",
              "type": "string"
            },
            {
              "internalType": "uint256",
              "name": "createdAt",
              "type": "uint256"
            },
            {
              "internalType": "uint96",
              "name": "royaltyPercentage",
              "type": "uint96"
            }
          ],
          "internalType": "struct GameifiedMarketplaceCoreV1.NFTMetadata",
          "name": "",
          "type": "tuple"
        }
      ],
      "stateMutability": "view",
      "type": "function"
    },
    {
      "inputs": [
        {
          "internalType": "uint256",
          "name": "_tokenId",
          "type": "uint256"
        }
      ],
      "name": "getNFTOffers",
      "outputs": [
        {
          "components": [
            {
              "internalType": "address",
              "name": "offeror",
              "type": "address"
            },
            {
              "internalType": "uint256",
              "name": "amount",
              "type": "uint256"
            },
            {
              "internalType": "uint8",
              "name": "expiresInDays",
              "type": "uint8"
            },
            {
              "internalType": "uint256",
              "name": "timestamp",
              "type": "uint256"
            }
          ],
          "internalType": "struct GameifiedMarketplaceCoreV1.Offer[]",
          "name": "",
          "type": "tuple[]"
        }
      ],
      "stateMutability": "view",
      "type": "function"
    },
    {
      "inputs": [
        {
          "internalType": "bytes32",
          "name": "role",
          "type": "bytes32"
        }
      ],
      "name": "getRoleAdmin",
      "outputs": [
        {
          "internalType": "bytes32",
          "name": "",
          "type": "bytes32"
        }
      ],
      "stateMutability": "view",
      "type": "function"
    },
    {
      "inputs": [
        {
          "internalType": "address",
          "name": "_user",
          "type": "address"
        }
      ],
      "name": "getUserCreatedNFTs",
      "outputs": [
        {
          "internalType": "uint256[]",
          "name": "",
          "type": "uint256[]"
        }
      ],
      "stateMutability": "view",
      "type": "function"
    },
    {
      "inputs": [
        {
          "internalType": "address",
          "name": "_user",
          "type": "address"
        },
        {
          "internalType": "uint256",
          "name": "cursor",
          "type": "uint256"
        },
        {
          "internalType": "uint256",
          "name": "size",
          "type": "uint256"
        }
      ],
      "name": "getUserCreatedNFTsPage",
      "outputs": [
        {
          "internalType": "uint256[]",
          "name": "tokens",
          "type": "uint256[]"
        },
        {
          "internalType": "uint256",
          "name": "nextCursor",
          "type": "uint256"
        }
      ],
      "stateMutability": "view",
      "type": "function"
    },
    {
      "inputs": [
        {
          "internalType": "uint256",
          "name": "_tokenId",
          "type": "uint256"
        },
        {
          "internalType": "address",
          "name": "_user",
          "type": "address"
        }
      ],
      "name": "getUserNFTLike",
      "outputs": [
        {
          "internalType": "bool",
          "name": "",
          "type": "bool"
        }
      ],
      "stateMutability": "view",
      "type": "function"
    },
    {
      "inputs": [
        {
          "internalType": "address",
          "name": "_user",
          "type": "address"
        }
      ],
      "name": "getUserNFTs",
      "outputs": [
        {
          "internalType": "uint256[]",
          "name": "",
          "type": "uint256[]"
        }
      ],
      "stateMutability": "view",
      "type": "function"
    },
    {
      "inputs": [
        {
          "internalType": "address",
          "name": "_user",
          "type": "address"
        }
      ],
      "name": "getUserNFTsDetailed",
      "outputs": [
        {
          "components": [
            {
              "internalType": "address",
              "name": "creator",
              "type": "address"
            },
            {
              "internalType": "string",
              "name": "uri",
              "type": "string"
            },
            {
              "internalType": "string",
              "name": "category",
              "type": "string"
            },
            {
              "internalType": "uint256",
              "name": "createdAt",
              "type": "uint256"
            },
            {
              "internalType": "uint96",
              "name": "royaltyPercentage",
              "type": "uint96"
            }
          ],
          "internalType": "struct GameifiedMarketplaceCoreV1.NFTMetadata[]",
          "name": "",
          "type": "tuple[]"
        }
      ],
      "stateMutability": "view",
      "type": "function"
    },
    {
      "inputs": [
        {
          "internalType": "address",
          "name": "_user",
          "type": "address"
        },
        {
          "internalType": "uint256",
          "name": "cursor",
          "type": "uint256"
        },
        {
          "internalType": "uint256",
          "name": "size",
          "type": "uint256"
        }
      ],
      "name": "getUserNFTsPage",
      "outputs": [
        {
          "internalType": "uint256[]",
          "name": "tokens",
          "type": "uint256[]"
        },
        {
          "internalType": "uint256",
          "name": "nextCursor",
          "type": "uint256"
        }
      ],
      "stateMutability": "view",
      "type": "function"
    },
    {
      "inputs": [
        {
          "internalType": "address",
          "name": "_user",
          "type": "address"
        }
      ],
      "name": "getUserProfile",
      "outputs": [
        {
          "components": [
            {
              "internalType": "uint256",
              "name": "totalXP",
              "type": "uint256"
            },
            {
              "internalType": "uint8",
              "name": "level",
              "type": "uint8"
            },
            {
              "internalType": "uint256",
              "name": "nftsCreated",
              "type": "uint256"
            },
            {
              "internalType": "uint256",
              "name": "nftsOwned",
              "type": "uint256"
            },
            {
              "internalType": "uint32",
              "name": "nftsSold",
              "type": "uint32"
            },
            {
              "internalType": "uint32",
              "name": "nftsBought",
              "type": "uint32"
            }
          ],
          "internalType": "struct GameifiedMarketplaceCoreV1.UserProfile",
          "name": "",
          "type": "tuple"
        }
      ],
      "stateMutability": "view",
      "type": "function"
    },
    {
      "inputs": [
        {
          "internalType": "bytes32",
          "name": "role",
          "type": "bytes32"
        },
        {
          "internalType": "address",
          "name": "account",
          "type": "address"
        }
      ],
      "name": "grantRole",
      "outputs": [],
      "stateMutability": "nonpayable",
      "type": "function"
    },
    {
      "inputs": [
        {
          "internalType": "bytes32",
          "name": "role",
          "type": "bytes32"
        },
        {
          "internalType": "address",
          "name": "account",
          "type": "address"
        }
      ],
      "name": "hasRole",
      "outputs": [
        {
          "internalType": "bool",
          "name": "",
          "type": "bool"
        }
      ],
      "stateMutability": "view",
      "type": "function"
    },
    {
      "inputs": [
        {
          "internalType": "address",
          "name": "_platformTreasury",
          "type": "address"
        }
      ],
      "name": "initialize",
      "outputs": [],
      "stateMutability": "nonpayable",
      "type": "function"
    },
    {
      "inputs": [
        {
          "internalType": "address",
          "name": "owner",
          "type": "address"
        },
        {
          "internalType": "address",
          "name": "operator",
          "type": "address"
        }
      ],
      "name": "isApprovedForAll",
      "outputs": [
        {
          "internalType": "bool",
          "name": "",
          "type": "bool"
        }
      ],
      "stateMutability": "view",
      "type": "function"
    },
    {
      "inputs": [
        {
          "internalType": "uint256",
          "name": "",
          "type": "uint256"
        }
      ],
      "name": "isListed",
      "outputs": [
        {
          "internalType": "bool",
          "name": "",
          "type": "bool"
        }
      ],
      "stateMutability": "view",
      "type": "function"
    },
    {
      "inputs": [
        {
          "internalType": "uint256",
          "name": "_tokenId",
          "type": "uint256"
        },
        {
          "internalType": "uint256",
          "name": "_price",
          "type": "uint256"
        }
      ],
      "name": "listTokenForSale",
      "outputs": [],
      "stateMutability": "nonpayable",
      "type": "function"
    },
    {
      "inputs": [
        {
          "internalType": "uint256",
          "name": "",
          "type": "uint256"
        }
      ],
      "name": "listedPrice",
      "outputs": [
        {
          "internalType": "uint256",
          "name": "",
          "type": "uint256"
        }
      ],
      "stateMutability": "view",
      "type": "function"
    },
    {
      "inputs": [
        {
          "internalType": "uint256",
          "name": "_tokenId",
          "type": "uint256"
        },
        {
          "internalType": "uint8",
          "name": "_expiresInDays",
          "type": "uint8"
        }
      ],
      "name": "makeOffer",
      "outputs": [],
      "stateMutability": "payable",
      "type": "function"
    },
    {
      "inputs": [],
      "name": "name",
      "outputs": [
        {
          "internalType": "string",
          "name": "",
          "type": "string"
        }
      ],
      "stateMutability": "view",
      "type": "function"
    },
    {
      "inputs": [
        {
          "internalType": "uint256",
          "name": "",
          "type": "uint256"
        },
        {
          "internalType": "uint256",
          "name": "",
          "type": "uint256"
        }
      ],
      "name": "nftComments",
      "outputs": [
        {
          "internalType": "string",
          "name": "",
          "type": "string"
        }
      ],
      "stateMutability": "view",
      "type": "function"
    },
    {
      "inputs": [
        {
          "internalType": "uint256",
          "name": "",
          "type": "uint256"
        }
      ],
      "name": "nftLikeCount",
      "outputs": [
        {
          "internalType": "uint256",
          "name": "",
          "type": "uint256"
        }
      ],
      "stateMutability": "view",
      "type": "function"
    },
    {
      "inputs": [
        {
          "internalType": "uint256",
          "name": "",
          "type": "uint256"
        },
        {
          "internalType": "address",
          "name": "",
          "type": "address"
        }
      ],
      "name": "nftLikes",
      "outputs": [
        {
          "internalType": "bool",
          "name": "",
          "type": "bool"
        }
      ],
      "stateMutability": "view",
      "type": "function"
    },
    {
      "inputs": [
        {
          "internalType": "uint256",
          "name": "",
          "type": "uint256"
        }
      ],
      "name": "nftMetadata",
      "outputs": [
        {
          "internalType": "address",
          "name": "creator",
          "type": "address"
        },
        {
          "internalType": "string",
          "name": "uri",
          "type": "string"
        },
        {
          "internalType": "string",
          "name": "category",
          "type": "string"
        },
        {
          "internalType": "uint256",
          "name": "createdAt",
          "type": "uint256"
        },
        {
          "internalType": "uint96",
          "name": "royaltyPercentage",
          "type": "uint96"
        }
      ],
      "stateMutability": "view",
      "type": "function"
    },
    {
      "inputs": [
        {
          "internalType": "uint256",
          "name": "",
          "type": "uint256"
        },
        {
          "internalType": "uint256",
          "name": "",
          "type": "uint256"
        }
      ],
      "name": "nftOffers",
      "outputs": [
        {
          "internalType": "address",
          "name": "offeror",
          "type": "address"
        },
        {
          "internalType": "uint256",
          "name": "amount",
          "type": "uint256"
        },
        {
          "internalType": "uint8",
          "name": "expiresInDays",
          "type": "uint8"
        },
        {
          "internalType": "uint256",
          "name": "timestamp",
          "type": "uint256"
        }
      ],
      "stateMutability": "view",
      "type": "function"
    },
    {
      "inputs": [
        {
          "internalType": "uint256",
          "name": "tokenId",
          "type": "uint256"
        }
      ],
      "name": "ownerOf",
      "outputs": [
        {
          "internalType": "address",
          "name": "",
          "type": "address"
        }
      ],
      "stateMutability": "view",
      "type": "function"
    },
    {
      "inputs": [],
      "name": "pause",
      "outputs": [],
      "stateMutability": "nonpayable",
      "type": "function"
    },
    {
      "inputs": [],
      "name": "paused",
      "outputs": [
        {
          "internalType": "bool",
          "name": "",
          "type": "bool"
        }
      ],
      "stateMutability": "view",
      "type": "function"
    },
    {
      "inputs": [],
      "name": "platformTreasury",
      "outputs": [
        {
          "internalType": "address",
          "name": "",
          "type": "address"
        }
      ],
      "stateMutability": "view",
      "type": "function"
    },
    {
      "inputs": [],
      "name": "proxiableUUID",
      "outputs": [
        {
          "internalType": "bytes32",
          "name": "",
          "type": "bytes32"
        }
      ],
      "stateMutability": "view",
      "type": "function"
    },
    {
      "inputs": [],
      "name": "questsContractAddress",
      "outputs": [
        {
          "internalType": "address",
          "name": "",
          "type": "address"
        }
      ],
      "stateMutability": "view",
      "type": "function"
    },
    {
      "inputs": [
        {
          "internalType": "bytes32",
          "name": "role",
          "type": "bytes32"
        },
        {
          "internalType": "address",
          "name": "account",
          "type": "address"
        }
      ],
      "name": "renounceRole",
      "outputs": [],
      "stateMutability": "nonpayable",
      "type": "function"
    },
    {
      "inputs": [
        {
          "internalType": "bytes32",
          "name": "role",
          "type": "bytes32"
        },
        {
          "internalType": "address",
          "name": "account",
          "type": "address"
        }
      ],
      "name": "revokeRole",
      "outputs": [],
      "stateMutability": "nonpayable",
      "type": "function"
    },
    {
      "inputs": [
        {
          "internalType": "uint256",
          "name": "tokenId",
          "type": "uint256"
        },
        {
          "internalType": "uint256",
          "name": "salePrice",
          "type": "uint256"
        }
      ],
      "name": "royaltyInfo",
      "outputs": [
        {
          "internalType": "address",
          "name": "",
          "type": "address"
        },
        {
          "internalType": "uint256",
          "name": "",
          "type": "uint256"
        }
      ],
      "stateMutability": "view",
      "type": "function"
    },
    {
      "inputs": [
        {
          "internalType": "address",
          "name": "from",
          "type": "address"
        },
        {
          "internalType": "address",
          "name": "to",
          "type": "address"
        },
        {
          "internalType": "uint256",
          "name": "tokenId",
          "type": "uint256"
        }
      ],
      "name": "safeTransferFrom",
      "outputs": [],
      "stateMutability": "nonpayable",
      "type": "function"
    },
    {
      "inputs": [
        {
          "internalType": "address",
          "name": "from",
          "type": "address"
        },
        {
          "internalType": "address",
          "name": "to",
          "type": "address"
        },
        {
          "internalType": "uint256",
          "name": "tokenId",
          "type": "uint256"
        },
        {
          "internalType": "bytes",
          "name": "data",
          "type": "bytes"
        }
      ],
      "name": "safeTransferFrom",
      "outputs": [],
      "stateMutability": "nonpayable",
      "type": "function"
    },
    {
      "inputs": [
        {
          "internalType": "address",
          "name": "operator",
          "type": "address"
        },
        {
          "internalType": "bool",
          "name": "approved",
          "type": "bool"
        }
      ],
      "name": "setApprovalForAll",
      "outputs": [],
      "stateMutability": "nonpayable",
      "type": "function"
    },
    {
      "inputs": [
        {
          "internalType": "address",
          "name": "_questsAddress",
          "type": "address"
        }
      ],
      "name": "setQuestsContract",
      "outputs": [],
      "stateMutability": "nonpayable",
      "type": "function"
    },
    {
      "inputs": [
        {
          "internalType": "address",
          "name": "_skillsAddress",
          "type": "address"
        }
      ],
      "name": "setSkillsContract",
      "outputs": [],
      "stateMutability": "nonpayable",
      "type": "function"
    },
    {
      "inputs": [
        {
          "internalType": "address",
          "name": "_stakingAddress",
          "type": "address"
        }
      ],
      "name": "setStakingContract",
      "outputs": [],
      "stateMutability": "nonpayable",
      "type": "function"
    },
    {
      "inputs": [],
      "name": "skillsContractAddress",
      "outputs": [
        {
          "internalType": "address",
          "name": "",
          "type": "address"
        }
      ],
      "stateMutability": "view",
      "type": "function"
    },
    {
      "inputs": [],
      "name": "stakingContractAddress",
      "outputs": [
        {
          "internalType": "address",
          "name": "",
          "type": "address"
        }
      ],
      "stateMutability": "view",
      "type": "function"
    },
    {
      "inputs": [
        {
          "internalType": "bytes4",
          "name": "interfaceId",
          "type": "bytes4"
        }
      ],
      "name": "supportsInterface",
      "outputs": [
        {
          "internalType": "bool",
          "name": "",
          "type": "bool"
        }
      ],
      "stateMutability": "view",
      "type": "function"
    },
    {
      "inputs": [],
      "name": "symbol",
      "outputs": [
        {
          "internalType": "string",
          "name": "",
          "type": "string"
        }
      ],
      "stateMutability": "view",
      "type": "function"
    },
    {
      "inputs": [
        {
          "internalType": "uint256",
          "name": "_tokenId",
          "type": "uint256"
        }
      ],
      "name": "toggleLike",
      "outputs": [],
      "stateMutability": "nonpayable",
      "type": "function"
    },
    {
      "inputs": [
        {
          "internalType": "uint256",
          "name": "tokenId",
          "type": "uint256"
        }
      ],
      "name": "tokenURI",
      "outputs": [
        {
          "internalType": "string",
          "name": "",
          "type": "string"
        }
      ],
      "stateMutability": "view",
      "type": "function"
    },
    {
      "inputs": [
        {
          "internalType": "address",
          "name": "from",
          "type": "address"
        },
        {
          "internalType": "address",
          "name": "to",
          "type": "address"
        },
        {
          "internalType": "uint256",
          "name": "tokenId",
          "type": "uint256"
        }
      ],
      "name": "transferFrom",
      "outputs": [],
      "stateMutability": "nonpayable",
      "type": "function"
    },
    {
      "inputs": [
        {
          "internalType": "uint256",
          "name": "_tokenId",
          "type": "uint256"
        }
      ],
      "name": "unlistToken",
      "outputs": [],
      "stateMutability": "nonpayable",
      "type": "function"
    },
    {
      "inputs": [],
      "name": "unpause",
      "outputs": [],
      "stateMutability": "nonpayable",
      "type": "function"
    },
    {
      "inputs": [
        {
          "internalType": "uint256",
          "name": "_tokenId",
          "type": "uint256"
        },
        {
          "internalType": "uint256",
          "name": "_newPrice",
          "type": "uint256"
        }
      ],
      "name": "updatePrice",
      "outputs": [],
      "stateMutability": "nonpayable",
      "type": "function"
    },
    {
      "inputs": [
        {
          "internalType": "address",
          "name": "_user",
          "type": "address"
        },
        {
          "internalType": "uint256",
          "name": "_amount",
          "type": "uint256"
        }
      ],
      "name": "updateUserXP",
      "outputs": [],
      "stateMutability": "nonpayable",
      "type": "function"
    },
    {
      "inputs": [
        {
          "internalType": "address",
          "name": "newImplementation",
          "type": "address"
        }
      ],
      "name": "upgradeTo",
      "outputs": [],
      "stateMutability": "nonpayable",
      "type": "function"
    },
    {
      "inputs": [
        {
          "internalType": "address",
          "name": "newImplementation",
          "type": "address"
        },
        {
          "internalType": "bytes",
          "name": "data",
          "type": "bytes"
        }
      ],
      "name": "upgradeToAndCall",
      "outputs": [],
      "stateMutability": "payable",
      "type": "function"
    },
    {
      "inputs": [
        {
          "internalType": "address",
          "name": "",
          "type": "address"
        }
      ],
      "name": "userProfiles",
      "outputs": [
        {
          "internalType": "uint256",
          "name": "totalXP",
          "type": "uint256"
        },
        {
          "internalType": "uint8",
          "name": "level",
          "type": "uint8"
        },
        {
          "internalType": "uint256",
          "name": "nftsCreated",
          "type": "uint256"
        },
        {
          "internalType": "uint256",
          "name": "nftsOwned",
          "type": "uint256"
        },
        {
          "internalType": "uint32",
          "name": "nftsSold",
          "type": "uint32"
        },
        {
          "internalType": "uint32",
          "name": "nftsBought",
          "type": "uint32"
        }
      ],
      "stateMutability": "view",
      "type": "function"
    }
  ],
  "bytecode": "0x60a0604052346103ed57604080519081016001600160401b03811182821017610300576040908152600c82526b11d85b595a599a595913919560a21b602083015280519081016001600160401b0381118282101761030057604052600481526311d3919560e21b602082015281516001600160401b03811161030057600254600181811c911680156103e3575b60208210146102e257601f8111610380575b50602092601f821160011461031f57928192935f92610314575b50508160011b915f199060031b1c1916176002555b80516001600160401b03811161030057600354600181811c911680156102f6575b60208210146102e257601f811161027f575b50602091601f821160011461021f579181925f92610214575b50508160011b915f199060031b1c1916176003555b6001600a55600b5460ff198116600b553060805260ff8160101c166101bf5760ff808260081c1603610181575b60405161517d90816103f282396080518181816127970152818161287a0152612c950152f35b61ff009061ffff191617600b557f7f26b83ff96e1f2b6a682f133852f6798a09c465da95921460cefb3847402498602060405160ff8152a15f61015b565b60405162461bcd60e51b815260206004820152602760248201527f496e697469616c697a61626c653a20636f6e747261637420697320696e697469604482015266616c697a696e6760c81b6064820152608490fd5b015190505f80610119565b601f1982169260035f52805f20915f5b8581106102675750836001951061024f575b505050811b0160035561012e565b01515f1960f88460031b161c191690555f8080610241565b9192602060018192868501518155019401920161022f565b60035f527fc2575a0e9e593c00f959f8c92f12db2869c3395a3b0502d05e2516446f71f85b601f830160051c810191602084106102d8575b601f0160051c01905b8181106102cd5750610100565b5f81556001016102c0565b90915081906102b7565b634e487b7160e01b5f52602260045260245ffd5b90607f16906100ee565b634e487b7160e01b5f52604160045260245ffd5b015190505f806100b8565b601f1982169360025f52805f20915f5b8681106103685750836001959610610350575b505050811b016002556100cd565b01515f1960f88460031b161c191690555f8080610342565b9192602060018192868501518155019401920161032f565b60025f527f405787fa12a823e0f2b7631cc41b3ba8828b3321ca811111fa75cd3aa3bb5ace601f830160051c810191602084106103d9575b601f0160051c01905b8181106103ce575061009e565b5f81556001016103c1565b90915081906103b8565b90607f169061008c565b5f80fdfe60806040526004361015610011575f80fd5b5f3560e01c8062f7bac71461395d578063012386f0146138c4578063016fc10e1461383c57806301ffc9a71461378057806306fdde03146136db578063081812fc146136bd578063095ea7b314613537578063155482321461351c57806323b872dd146134f85780632406e6771461346e578063248a9ca31461343b5780632a55205a1461338e5780632d296bf1146130c25780632f2ff15d1461301c578063332d56d714612fa45780633535f48b14612f7c57806336568abe14612eea5780633659cfe614612c775780633854f21b14612c605780633c03903914612c385780633f4ba83a14612ba557806342842e0e14612b715780634954101514612adc5780634f1ef2861461284257806352d1902d1461278557806352de4ee5146126fd57806354398d18146125815780635c975abb1461255f5780635d7dfa99146124e45780635efc27d614612372578063602dcf29146122105780636352211e146121e0578063638ac8d3146121975780636be9a6f1146120f457806370a082311461205f57806375b238fc1461203857806377ea168e14611fd25780637de7ff081461196157806381257bd5146116c657806382367b2d146116455780638456cb59146115ec5780638cf531021461157457806391d148541461152b57806395d89b4114611461578063987ee15614611380578063999fdecf146111fe5780639dd373b914611186578063a217fddf1461116c578063a22cb465146110a2578063aa7e568314610e17578063ad3a358c14610d76578063b7f3a58914610c95578063b88d4fde14610c21578063bd4ad42f14610bf9578063c4d66de814610934578063c87b56dd14610915578063cb8c8a15146108eb578063d45557cc146106fc578063d489be2614610698578063d547741f14610653578063d9edf5761461061d578063e138818c146105f5578063e5a818f8146105cb578063e985e9c514610574578063ea6e7eb514610532578063ed611100146104dc578063f291f5dd146103ec578063f72c0d8b146103c5578063f748efb81461034d5763fcce48831461031a575f80fd5b34610349576020366003190112610349576004355f52600e602052602060ff60405f2054166040519015158152f35b5f80fd5b346103495760203660031901126103495761036661398b565b61036e6147c9565b6001600160a01b03166103828115156142e9565b601b80546001600160a01b0319811683179091556001600160a01b03167fb7b5cab3bc5ae437bba269a16d0a369211a068ae683607ff2ca96f34449295395f80a3005b34610349575f3660031901126103495760206040515f5160206150885f395f51905f528152f35b346103495760203660031901126103495760043561041161040c826148d5565b614123565b5f52601360205260405f2080549061042882613d4f565b916104366040519384613b6a565b8083526020830180925f5260205f205f915b8383106104be578486604051918291602083019060208452518091526040830191905f5b81811061047a575050500390f35b919350916020608060019260608751858060a01b038151168352848101518584015260ff60408201511660408401520151606082015201940191019184939261046c565b600460206001926104ce856142ab565b815201920192019190610448565b34610349576040366003190112610349576004356104f86139a1565b9061050561040c826148d5565b5f52601060205260405f209060018060a01b03165f52602052602060ff60405f2054166040519015158152f35b3461034957610560610543366139b7565b6001600160a01b039092165f9081526015602052604090206143be565b9061057060405192839283613a14565b0390f35b346103495760403660031901126103495761058d61398b565b6105956139a1565b9060018060a01b03165f52600760205260405f209060018060a01b03165f52602052602060ff60405f2054166040519015158152f35b34610349576020366003190112610349576004355f52600f602052602060405f2054604051908152f35b34610349575f366003190112610349576019546040516001600160a01b039091168152602090f35b346103495760203660031901126103495760043561063d61040c826148d5565b5f526011602052602060405f2054604051908152f35b34610349576040366003190112610349576106966004356106726139a1565b9061069161068c825f526009602052600160405f20015490565b614815565b614854565b005b34610349576106a636613ab0565b905f52601260205260405f20908154811015610349576106c591613d3a565b6106e9576106d561057091613b8b565b604051918291602083526020830190613a51565b634e487b7160e01b5f525f60045260245ffd5b346103495761070a36613ab0565b90610713614687565b805f52601360205261072a60405f20548310614164565b805f5260136020526107486107428360405f20613cf4565b506142ab565b80516001600160a01b031633036108b8576020908101515f8381526013909252604090912080549193915f198101919082116108a45761079e9161078b91613cf4565b5091835f52601360205260405f20613cf4565b9190916106e957808203610852575b50505f52601360205260405f208054801561083e575f1901906107d08282613cf4565b6106e9575f93849384938460038582809755826001820155826002820155015555335af16107fc613f6d565b5015610809576001600a55005b60405162461bcd60e51b815260206004820152600d60248201526c1499599d5b990819985a5b1959609a1b6044820152606490fd5b634e487b7160e01b5f52603160045260245ffd5b805482546001600160a01b0319166001600160a01b039190911617825560018082015490830155600280820154908301805460ff191660ff9290921691909117905560039081015491015582806107ad565b634e487b7160e01b5f52601160045260245ffd5b60405162461bcd60e51b815260206004820152600b60248201526a2737ba1037b33332b937b960a91b6044820152606490fd5b34610349576020366003190112610349576004355f526011602052602060405f2054604051908152f35b34610349576020366003190112610349576105706106d5600435614964565b346103495760203660031901126103495761094d61398b565b600b549060ff8260101c161591828093610be9575b8015610bcf575b15610b735761ff0019811661010017600b5582610b5f575b50335f9081527fec8156718a8372b1db44bb411437d0870f3e3790d4a08526d024ce1b0b668f6b602052604090205460ff1615610b0f575b335f9081525f5160206151085f395f51905f52602052604090205460ff1615610ac3575b335f9081525f5160206150c85f395f51905f52602052604090205460ff1615610a77575b6001600160a01b03811615610a70575b601980546001600160a01b0319166001600160a01b0392909216919091179055610a3757005b62ff000019600b5416600b557f7f26b83ff96e1f2b6a682f133852f6798a09c465da95921460cefb3847402498602060405160018152a1005b5033610a11565b335f8181525f5160206150c85f395f51905f5260205260408120805460ff1916600117905581905f5160206150885f395f51905f52905f5160206150685f395f51905f529080a4610a01565b335f8181525f5160206151085f395f51905f5260205260408120805460ff1916600117905581905f5160206150e85f395f51905f52905f5160206150685f395f51905f529080a46109dd565b335f8181527fec8156718a8372b1db44bb411437d0870f3e3790d4a08526d024ce1b0b668f6b60205260408120805460ff1916600117905581905f5160206150685f395f51905f528180a46109b9565b62ffff0019166201010017600b5582610981565b60405162461bcd60e51b815260206004820152602e60248201527f496e697469616c697a61626c653a20636f6e747261637420697320616c72656160448201526d191e481a5b9a5d1a585b1a5e995960921b6064820152608490fd5b50303b1580156109695750600160ff8260081c1614610969565b50600160ff8260081c1610610962565b34610349575f36600319011261034957601b546040516001600160a01b039091168152602090f35b3461034957608036600319011261034957610c3a61398b565b610c426139a1565b90606435906044356001600160401b0383116103495761069693610c6d610c90943690600401613c7c565b92610c80610c7b843361444b565b613dd7565b610c8b8383836144c0565b614d91565b614944565b3461034957602036600319011261034957600435610cb561040c826148d5565b5f52601260205260405f20805490610ccc82613d4f565b91610cda6040519384613b6a565b8083526020830180925f5260205f205f915b838310610d5957848660405191829160208301906020845251809152604083019060408160051b85010192915f905b828210610d2a57505050500390f35b91936001919395506020610d498192603f198a82030186528851613a51565b9601920192018594939192610d1b565b600160208192610d6885613b8b565b815201920192019190610cec565b3461034957602036600319011261034957600435610d92614643565b610dae610d9e826141e7565b6001600160a01b03163314613e39565b805f52600e602052610dc660ff60405f205416613ead565b5f818152600e60209081526040808320805460ff19169055600f909152812055610def81614aaf565b50337f24287c09523dfd960e13a9774c247fb28a2ccb301eb4208b0d4072bcd0f1826e5f80a3005b34610349576040366003190112610349576004356024356001600160401b03811161034957610e4a903690600401613d0d565b610e52614643565b610e6e6001600160a01b03610e66856141e7565b1615156140ea565b80151580611096575b1561105857825f5260126020526103e860405f2054101561101f575f8381526012602052604090208054600160401b81101561100b57610ebc91600182018155613d3a565b6106e9576001600160401b03821161100b57610ee282610edc8354613ac6565b83614235565b5f82601f8111600114610fa85780610f0e925f91610f9d575b508160011b915f199060031b1c19161790565b90555b335f52601460205260405f20805491600283018093116108a4577f6ef560d19dd02f57976e8453b811685a89edf49009d64ab71b19489923ef5f0992610f609255604051918291339583614284565b0390a36040516002815260406020820152600760408201526610d3d35351539560ca1b60608201525f5160206151285f395f51905f5260803392a2005b905085013587610efb565b50601f19831690825f528360205f20925f5b818110610ff0575010610fd7575b5050600182811b019055610f11565b8401355f19600385901b60f8161c191690558480610fc8565b87840135855560019094019360209384019387935001610fba565b634e487b7160e01b5f52604160045260245ffd5b60405162461bcd60e51b8152602060048201526011602482015270546f6f206d616e7920636f6d6d656e747360781b6044820152606490fd5b60405162461bcd60e51b8152602060048201526016602482015275092dcecc2d8d2c840c6dedadacadce840d8cadccee8d60531b6044820152606490fd5b50610118811115610e77565b34610349576040366003190112610349576110bb61398b565b60243590811515809203610349576001600160a01b03169033821461112b57335f52600760205260405f20825f5260205260405f2060ff1981541660ff83161790556040519081527f17307eab39ab6107e8899845ad3d59bd9653f200f220920489ca2b5937696c3160203392a3005b60405162461bcd60e51b815260206004820152601960248201527822a9219b99189d1030b8383937bb32903a379031b0b63632b960391b6044820152606490fd5b34610349575f3660031901126103495760206040515f8152f35b346103495760203660031901126103495761119f61398b565b6111a76147c9565b6001600160a01b03166111bb8115156142e9565b601c80546001600160a01b0319811683179091556001600160a01b03167f7042586b23181180eb30b4798702d7a0233b7fc2551e89806770e8e5d9392e6a5f80a3005b34610349576020366003190112610349576001600160a01b0361121f61398b565b16805f52601560205260405f205461123681613d4f565b916112446040519384613b6a565b818352601f1961125383613d4f565b015f5b8181106113695750505f5b8281106112cf57836040518091602082016020835281518091526040830190602060408260051b8601019301915f905b8282106112a057505050500390f35b919360019193955060206112bf8192603f198a82030186528851613c9a565b9601920192018594939192611291565b600190825f5260156020526112e78160405f20613d3a565b90549060031b1c5f52600d60205260405f206040519061130682613b19565b838060a01b03815416825261131c848201613b8b565b602083015261132d60028201613b8b565b6040830152600381015460608301526004848060601b039101541660808201526113578287613d98565b526113628186613d98565b5001611261565b602090611374614209565b82828801015201611256565b346103495760203660031901126103495761139961398b565b5f60a06040516113a881613b4f565b828152826020820152826040820152826060820152826080820152015260018060a01b03165f52601460205260c060405f2063ffffffff604051916113ec83613b4f565b8181549384815260ff600184015416926020820193845260028101546040830190815260ff6004600384015493606086019485520154958560a06080870196828a168852019760201c1687526040519889525116602088015251604087015251606086015251166080840152511660a0820152f35b34610349575f366003190112610349576040515f60035461148181613ac6565b808452906001811690811561150757506001146114a9575b610570836106d581850382613b6a565b60035f9081527fc2575a0e9e593c00f959f8c92f12db2869c3395a3b0502d05e2516446f71f85b939250905b8082106114ed575090915081016020016106d5611499565b9192600181602092548385880101520191019092916114d5565b60ff191660208086019190915291151560051b840190910191506106d59050611499565b34610349576040366003190112610349576115446139a1565b6004355f52600960205260405f209060018060a01b03165f52602052602060ff60405f2054166040519015158152f35b346103495760203660031901126103495761158d61398b565b6115956147c9565b6001600160a01b03166115a98115156142e9565b601a80546001600160a01b0319811683179091556001600160a01b03167f86184096e44f529467a03d9c408bb371b99687d885947800e80e6d5b08108f635f80a3005b34610349575f366003190112610349576116046147c9565b61160c614643565b600160ff19600b541617600b557f62e78cea01bee320cd4e420270b5ea74000d11b0c9f74754ebdbfc544b05a2586020604051338152a1005b346103495761165336613ab0565b61165b614643565b611667610d9e836141e7565b815f52600e60205261167f60ff60405f205416613ead565b61168a811515613e71565b815f52600f6020528060405f20556040519081527fb556fac599c3c70efb9ab1fa725ecace6c81cc48d1455f886607def065f3e0c060203392a3005b34610349576107426117196116da36613ab0565b6116e5939193614687565b6116f1610d9e856141e7565b835f52601360205261170860405f20548210614164565b835f52601360205260405f20613cf4565b60608101516201518060ff6040840151160262ffffff81169081036108a45761174191613f0a565b421161192c57602060018060a01b038251169101516117618383336144c0565b60058102818104600514821517156108a457606490046117818183613ee6565b335f526014602052600460405f200163ffffffff6117a181835416613ef3565b1663ffffffff19825416179055835f5260146020526117f2600460405f20016117d363ffffffff825460201c16613ef3565b63ffffffff60201b82549160201b169063ffffffff60201b1916179055565b335f52601460205260405f20805490601482018092116108a45755835f52601460205260405f20805491600f83018093116108a4575f8080939261189d95829455898252600e6020526040822060ff198154169055898252600f602052816040812055898252601360205261186960408320613f17565b61188c828080808b60018060a01b03601954165af1611886613f6d565b50613f9c565b335af1611897613f6d565b50613fe3565b827f21ef4c3fb7c1ca86841fe7b11bbb71ad12bd4b7bb3205924ec33c681c9d47c3f608060018060a01b03601954169360405190815260406020820152600e60408201526d13d191915497d050d0d15415115160921b6060820152a36040519081527fa6da490df6e8f0e592e795b4d96c5810d8ddfda51c21577adbdd8e1a0fa47a6760203392a46001600a55005b60405162461bcd60e51b815260206004820152600d60248201526c13d999995c88195e1c1a5c9959609a1b6044820152606490fd5b34610349576060366003190112610349576004356001600160401b03811161034957611991903690600401613d0d565b6024356001600160401b038111610349576119b0903690600401613d0d565b91909260443560018060601b038116809103610349576119ce614643565b6127108111611f9b57600c549360018501600c556020956040516119f28882613b6a565b5f81523315611f5857611a0d611a07886148d5565b15614f82565b5f5b60018110611f305750610c90611a8791611a2b611a078a6148d5565b335f81815260058c526040808220805460010190558b825260048d52812080546001600160a01b031916831790558a91907fddf252ad1be2c89b69c2b068fc378daa952ba7f163c4a11628f55a4df523b3ef8180a48833614ca1565b611a92368686613c46565b611a9b876148d5565b15611ed457865f526008885260405f20908051906001600160401b03821161100b57611ad182611acb8554613ac6565b85614235565b8990601f8311600114611e7157611aff92915f9183611e66575b50508160011b915f199060031b1c19161790565b90555b7ff8e1a15aba9398e019f0b49df1a4fde98ee17ae345cb5f6b5e2c27f5033e8ce787604051888152a1611b5760405191611b3b83613b19565b338352611b49368888613c46565b938984019485523691613c46565b60408281019182524260608401908152608084018681525f8a8152600d8c5292909220935184546001600160a01b0319166001600160a01b039190911617845593518051919492916001850191906001600160401b03811161100b57611bc181611acb8554613ac6565b8b8c601f8311600114611e0157508190611bef935f92611d8b5750508160011b915f199060031b1c19161790565b90555b51805160028401916001600160401b03821161100b57611c1682611acb8554613ac6565b8a90601f8311600114611d96579180611c49926004979695945f92611d8b5750508160011b915f199060031b1c19161790565b90555b5160038201559151910180546001600160601b0319166001600160601b039290921691909117905580611d43575b50335f5260148452600260405f200180545f1981146108a4576001019055335f526014845260405f20805490600a82018092116108a45784937f1e1b69b56bd875547ce642e5ca9d38001b825863ffbf9cf08c72e0ff64b00a8d92611cfd9255335f5260168752611cee8560405f20614a5b565b50604051918291339583614284565b0390a3604051600a8152604083820152600b60408201526a13919517d0d4915055115160aa1b60608201525f5160206151285f395f51905f5260803392a2604051908152f35b60405190611d5082613b34565b3382528582019081525f85815260018752604090209151905160a01b6001600160a01b0319166001600160a01b039190911617905584611c7a565b015190508d80611aeb565b5f8481528c8120929190601f198516908e5b828210611de95750509160019391856004999897969410611dd1575b505050811b019055611c4c565b01515f1960f88460031b161c191690558c8080611dc4565b80600186978294978701518155019601940190611da8565b9192601f198416855f52835f20935f905b828210611e4e575050908460019594939210611e36575b505050811b019055611bf2565b01515f1960f88460031b161c191690558c8080611e29565b80600186978294978701518155019601940190611e12565b015190508b80611aeb565b90601f19831691845f528b5f20925f5b8d828210611ebe575050908460019594939210611ea6575b505050811b019055611b02565b01515f1960f88460031b161c191690558a8080611e99565b6001859682939686015181550195019301611e81565b60405162461bcd60e51b815260048101899052602e60248201527f45524337323155524953746f726167653a2055524920736574206f66206e6f6e60448201526d32bc34b9ba32b73a103a37b5b2b760911b6064820152608490fd5b600190335f5260158a52611f5160405f20611f4b838c613f0a565b90614a5b565b5001611a0f565b6064886040519062461bcd60e51b825280600483015260248201527f4552433732313a206d696e7420746f20746865207a65726f20616464726573736044820152fd5b60405162461bcd60e51b815260206004820152600f60248201526e496e76616c696420726f79616c747960881b6044820152606490fd5b3461034957611fe036613ab0565b905f52601360205260405f2080548210156103495760809161200191613cf4565b5060018060a01b0381541690600181015490600360ff60028301541691015491604051938452602084015260408301526060820152f35b34610349575f3660031901126103495760206040515f5160206150e85f395f51905f528152f35b34610349576020366003190112610349576001600160a01b0361208061398b565b16801561209d575f526005602052602060405f2054604051908152f35b60405162461bcd60e51b815260206004820152602960248201527f4552433732313a2061646472657373207a65726f206973206e6f7420612076616044820152683634b21037bbb732b960b91b6064820152608490fd5b3461034957602036600319011261034957600435612110614209565b5061211d61040c826148d5565b5f52600d60205261057060405f206040519061213882613b19565b80546001600160a01b0316825261215160018201613b8b565b602083015261216260028201613b8b565b604083015260038101546060830152600460018060601b03910154166080820152604051918291602083526020830190613c9a565b34610349576040366003190112610349576121b06139a1565b6004355f52601060205260405f209060018060a01b03165f52602052602060ff60405f2054166040519015158152f35b346103495760203660031901126103495760206121fe6004356141e7565b6040516001600160a01b039091168152f35b60403660031901126103495760043560243560ff811680910361034957612235614643565b815f52600e60205261224d60ff60405f205416613ead565b612258341515614164565b80151580612367575b1561233157815f52601360205260405f206040519061227f82613afe565b33825260208201913483526040810193845260608101914283528054600160401b81101561100b576122b691600182018155613cf4565b9490946106e957905184546001600160a01b0319166001600160a01b039190911617845591516001840155905160028301805460ff191660ff92909216919091179055516003919091015560405134815233907f7beddbbf70d8b2a25af77e15d4a173af5f34673a1e7302c7af208aac599dc6db90602090a3005b60405162461bcd60e51b815260206004820152600e60248201526d496e76616c69642065787069727960901b6044820152606490fd5b50601e811115612261565b346103495760403660031901126103495761238b61398b565b602435906123976147c9565b60018060a01b031690815f5260146020526113886123b98260405f2054613f0a565b116124a65760805f5160206151285f395f51905f5291835f52601460205260405f206123e6828254613f0a565b9055835f5260146020528360ff606460405f205404166032811161249e575b815f52601460205260ff80600160405f200154169116908111612454575b505060405190815260406020820152600f60408201526e45585445524e414c5f534f5552434560881b6060820152a2005b60207fa49b8576e012f713baa7dceadb7d709aaec8773b498ecfe582d8b9c0c8fd074f91835f5260148252600160405f20018160ff19825416179055604051908152a28385612423565b506032612405565b60405162461bcd60e51b81526020600482015260166024820152752c281037bb32b9333637bb90383937ba32b1ba34b7b760511b6044820152606490fd5b3461034957602036600319011261034957606060043561250661040c826148d5565b61250f816141e7565b5f828152600e6020526040902054909160ff909116908115612557575f52600f60205260405f2054905b604080516001600160a01b0390941684529015156020840152820152f35b505f90612539565b34610349575f36600319011261034957602060ff600b54166040519015158152f35b346103495760203660031901126103495760043561259d614643565b6125b16001600160a01b03610e66836141e7565b5f81815260106020908152604080832033845290915290205460ff161561266c575f8181526010602090815260408083203384528252808320805460ff191690558383526011909152902054612654575b805f52601060205260405f2060018060a01b0333165f5260205260ff60405f20541660405190151581527f4d5c3df35a8d7d04f2e10db1454548af37ee7449c97a4b4c243681f29c2ea40760203392a3005b805f52601160205260405f205f198154019055612602565b805f52601060205260405f2060018060a01b0333165f5260205260405f20600160ff19825416179055805f52601160205260405f2060018154019055335f52601460205260405f20805490600182018092116108a45755604051600181526040602082015260046040820152634c494b4560e01b60608201525f5160206151285f395f51905f5260803392a2612602565b34610349576020366003190112610349576001600160a01b0361271e61398b565b16805f52601560205260405f205461273581613d66565b915f5b8281106127555760405160208082528190610570908201876139e1565b600190825f52601560205261276d8160405f20613d3a565b90549060031b1c61277e8287613d98565b5201612738565b34610349575f366003190112610349577f00000000000000000000000000000000000000000000000000000000000000006001600160a01b031630036127dc5760206040515f5160206150a85f395f51905f528152f35b60405162461bcd60e51b815260206004820152603860248201527f555550535570677261646561626c653a206d757374206e6f742062652063616c6044820152771b1959081d1a1c9bdd59da0819195b1959d85d1958d85b1b60421b6064820152608490fd5b60403660031901126103495761285661398b565b6024356001600160401b03811161034957612875903690600401613c7c565b6128cc7f00000000000000000000000000000000000000000000000000000000000000006001600160a01b03166128ae30821415614028565b5f5160206150a85f395f51905f52546001600160a01b031614614089565b6128d46146dd565b7f4910fdfa16fed3260ed0e7147f7cc6da11a60208b5b9406d12a635614ffd91435460ff1615612908575061069690614c11565b6040516352d1902d60e01b81526001600160a01b03831690602081600481855afa5f9181612aa8575b506129925760405162461bcd60e51b815260206004820152602e60248201527f45524331393637557067726164653a206e657720696d706c656d656e7461746960448201526d6f6e206973206e6f74205555505360901b6064820152608490fd5b5f5160206150a85f395f51905f5203612a51576129ae83614c11565b7fbc7cd75a20ee27fd9adebab32041f755214dbc6bffa90cc0225b39da2e5c2d3b5f80a2805115801590612a49575b6129e357005b610696915f80604051936129f8606086613b6a565b602785527f416464726573733a206c6f772d6c6576656c2064656c65676174652063616c6c6020860152660819985a5b195960ca1b6040860152602081519101845af4612a43613f6d565b91614fce565b5060016129dd565b60405162461bcd60e51b815260206004820152602960248201527f45524331393637557067726164653a20756e737570706f727465642070726f786044820152681a58589b195555525160ba1b6064820152608490fd5b9091506020813d602011612ad4575b81612ac460209383613b6a565b8101031261034957519085612931565b3d9150612ab7565b34610349576020366003190112610349576004355f908152600d6020526040902080546001600160a01b0316612b1460018301613b8b565b91612b2160028201613b8b565b612b62600383015492600460018060601b039101541691612b54604051968796875260a0602088015260a0870190613a51565b908582036040870152613a51565b91606084015260808301520390f35b3461034957610696610c90612b8536613a76565b9060405192612b95602085613b6a565b5f8452610c80610c7b843361444b565b34610349575f36600319011261034957612bbd6147c9565b600b5460ff811615612bfc5760ff1916600b557f5db9ee0a495bf2e6ff9c91a7834c1ba4fdd244a5e8aa4e537bd38aeae4b073aa6020604051338152a1005b60405162461bcd60e51b815260206004820152601460248201527314185d5cd8589b194e881b9bdd081c185d5cd95960621b6044820152606490fd5b34610349575f36600319011261034957601a546040516001600160a01b039091168152602090f35b3461034957610560612c7136613ab0565b90614327565b3461034957602036600319011261034957612c9061398b565b612cc97f00000000000000000000000000000000000000000000000000000000000000006001600160a01b03166128ae30821415614028565b612cd16146dd565b604051906020612ce18184613b6a565b5f8352808301601f1982013682377f4910fdfa16fed3260ed0e7147f7cc6da11a60208b5b9406d12a635614ffd91435460ff1615612d255750506106969150614c11565b6040516352d1902d60e01b81529192916001600160a01b038316908481600481855afa5f9181612ebb575b50612db15760405162461bcd60e51b815260048101869052602e60248201527f45524331393637557067726164653a206e657720696d706c656d656e7461746960448201526d6f6e206973206e6f74205555505360901b6064820152608490fd5b5f5160206150a85f395f51905f5203612e6457612dcd83614c11565b7fbc7cd75a20ee27fd9adebab32041f755214dbc6bffa90cc0225b39da2e5c2d3b5f80a2835115801590612e5d575b612e0257005b5f8091610696957f416464726573733a206c6f772d6c6576656c2064656c65676174652063616c6c60405196612e39606089613b6a565b60278852870152660819985a5b195960ca1b60408701525190845af4612a43613f6d565b505f612dfc565b60405162461bcd60e51b815260048101859052602960248201527f45524331393637557067726164653a20756e737570706f727465642070726f786044820152681a58589b195555525160ba1b6064820152608490fd5b9091508581813d8311612ee3575b612ed38183613b6a565b8101031261034957519087612d50565b503d612ec9565b3461034957604036600319011261034957612f036139a1565b336001600160a01b03821603612f1f5761069690600435614854565b60405162461bcd60e51b815260206004820152602f60248201527f416363657373436f6e74726f6c3a2063616e206f6e6c792072656e6f756e636560448201526e103937b632b9903337b91039b2b63360891b6064820152608490fd5b34610349575f36600319011261034957601c546040516001600160a01b039091168152602090f35b34610349576020366003190112610349576001600160a01b03612fc561398b565b165f52601460205260c060405f2063ffffffff81549160ff6001820154169060028101546004600383015492015492604051958652602086015260408501526060840152818116608084015260201c1660a0820152f35b34610349576040366003190112610349576004356130386139a1565b9061305261068c825f526009602052600160405f20015490565b805f52600960205260405f2060018060a01b0383165f5260205260ff60405f2054161561307b57005b5f8181526009602090815260408083206001600160a01b0395909516808452949091528120805460ff19166001179055339291905f5160206150685f395f51905f529080a4005b6020366003190112610349576004356130d9614643565b6130e1614687565b805f52600e6020526130f960ff60405f205416613ead565b805f52600f60205260405f2054341061335257613115816141e7565b90805f52600f60205260405f205461312e8233856144c0565b60058102818104600514821517156108a4576064900461314e8183613ee6565b9360018060a01b031693845f526014602052600460405f200163ffffffff61317881835416613ef3565b1663ffffffff19825416179055335f5260146020526131aa600460405f20016117d363ffffffff825460201c16613ef3565b845f52601460205260405f20805490601482018092116108a45755335f52601460205260405f20805491600f83018093116108a4575f8080939261325395829455888252600e6020526040822060ff198154169055888252600f60205281604081205561321689614aaf565b50888252601360205261322b60408320613f17565b613248828080808b60018060a01b03601954165af1611886613f6d565b895af1611897613f6d565b60018060a01b03601954169060405190815260406020820152600a604082015269544f4b454e5f53414c4560b01b60608201527f21ef4c3fb7c1ca86841fe7b11bbb71ad12bd4b7bb3205924ec33c681c9d47c3f60803392a3604051908152827fa8a7473f10e62cf9687e243de1c3ac8b3cbc3dd04b96826beb3a65b59538581460203393a45f5160206151285f395f51905f5260806040516014815260406020820152600860408201526713919517d4d3d31160c21b6060820152a2604051600f815260406020820152600a60408201526913919517d093d551d21560b21b60608201525f5160206151285f395f51905f5260803392a26001600a55005b60405162461bcd60e51b8152602060048201526014602482015273125b9cdd59999a58da595b9d081c185e5b595b9d60621b6044820152606490fd5b346103495761339c36613ab0565b905f52600160205260405f20604051906133b582613b34565b546001600160a01b03811680835260a09190911c602083015215613413575b60208101516001600160601b031682810292801590840490911417156108a45751604080516001600160a01b0390921682526127109092046020820152f35b5060405161342081613b34565b5f546001600160a01b038116825260a01c60208201526133d4565b346103495760203660031901126103495760206134666004355f526009602052600160405f20015490565b604051908152f35b346103495761347c36613ab0565b613484614643565b613490610d9e836141e7565b61349b811515613e71565b815f52600e60205260405f20600160ff19825416179055815f52600f6020528060405f20556134c9826149f0565b506040519081527f5dc96537cbae524775a674b6a810d9a1ba04a9e279f172d156b352151394677a60203392a3005b346103495761069661350936613a76565b91613517610c7b843361444b565b6144c0565b34610349575f36600319011261034957602060405160058152f35b346103495760403660031901126103495761355061398b565b602435906001600160a01b03613565836141e7565b6001600160a01b03909216911681811461366e5780331490811561364a575b50156135df575f82815260066020526040902080546001600160a01b031916821790556001600160a01b036135b8836141e7565b167f8c5be1e5ebec7d5bd14f71427d1e84f3dd0314c0f7b2291e5b200ac8c7c3b9255f80a4005b60405162461bcd60e51b815260206004820152603d60248201527f4552433732313a20617070726f76652063616c6c6572206973206e6f7420746f60448201527f6b656e206f776e6572206f7220617070726f76656420666f7220616c6c0000006064820152608490fd5b5f90815260076020908152604080832033845290915290205460ff16905083613584565b60405162461bcd60e51b815260206004820152602160248201527f4552433732313a20617070726f76616c20746f2063757272656e74206f776e656044820152603960f91b6064820152608490fd5b346103495760203660031901126103495760206121fe600435613dac565b34610349575f366003190112610349576040515f6002546136fb81613ac6565b8084529060018116908115611507575060011461372257610570836106d581850382613b6a565b60025f9081527f405787fa12a823e0f2b7631cc41b3ba8828b3321ca811111fa75cd3aa3bb5ace939250905b808210613766575090915081016020016106d5611499565b91926001816020925483858801015201910190929161374e565b346103495760203660031901126103495760043563ffffffff60e01b811680910361034957602090637965db0b60e01b81149081156137c5575b506040519015158152f35b632483248360e11b8114915081156137df575b50826137ba565b6380ac58cd60e01b81149150811561382b575b8115613800575b50826137d8565b63152a902d60e11b81149150811561381a575b50826137f9565b6301ffc9a760e01b14905082613813565b635b5e139f60e01b811491506137f2565b34610349576020366003190112610349576001600160a01b0361385d61398b565b16805f52601660205260405f205461387481613d66565b915f5b8281106138945760405160208082528190610570908201876139e1565b600190825f5260166020526138ac8160405f20613d3a565b90549060031b1c6138bd8287613d98565b5201613877565b34610349575f366003190112610349576017546138e081613d66565b905f601754905b8281106139045760405160208082528190610570908201876139e1565b818110156139495760175f527fc624b66cc0138b8fabc209247f72d758e1cf3343756d543badbf24212bed8c15810154600191906139428287613d98565b52016138e7565b634e487b7160e01b5f52603260045260245ffd5b346103495761056061396e366139b7565b6001600160a01b039092165f9081526016602052604090206143be565b600435906001600160a01b038216820361034957565b602435906001600160a01b038216820361034957565b6060906003190112610349576004356001600160a01b038116810361034957906024359060443590565b90602080835192838152019201905f5b8181106139fe5750505090565b82518452602093840193909201916001016139f1565b929190613a2b6020916040865260408601906139e1565b930152565b5f5b838110613a415750505f910152565b8181015183820152602001613a32565b90602091613a6a81518092818552858086019101613a30565b601f01601f1916010190565b6060906003190112610349576004356001600160a01b038116810361034957906024356001600160a01b0381168103610349579060443590565b6040906003190112610349576004359060243590565b90600182811c92168015613af4575b6020831014613ae057565b634e487b7160e01b5f52602260045260245ffd5b91607f1691613ad5565b608081019081106001600160401b0382111761100b57604052565b60a081019081106001600160401b0382111761100b57604052565b604081019081106001600160401b0382111761100b57604052565b60c081019081106001600160401b0382111761100b57604052565b90601f801991011681019081106001600160401b0382111761100b57604052565b9060405191825f825492613b9e84613ac6565b8084529360018116908115613c095750600114613bc5575b50613bc392500383613b6a565b565b90505f9291925260205f20905f915b818310613bed575050906020613bc3928201015f613bb6565b6020919350806001915483858901015201910190918492613bd4565b905060209250613bc394915060ff191682840152151560051b8201015f613bb6565b6001600160401b03811161100b57601f01601f191660200190565b929192613c5282613c2b565b91613c606040519384613b6a565b829481845281830111610349578281602093845f960137010152565b9080601f8301121561034957816020613c9793359101613c46565b90565b9060018060a01b0382511681526080613cd7613cc5602085015160a0602086015260a0850190613a51565b60408501518482036040860152613a51565b60608085015190840152928101516001600160601b031691015290565b8054821015613949575f5260205f209060021b01905f90565b9181601f84011215610349578235916001600160401b038311610349576020838186019501011161034957565b8054821015613949575f5260205f2001905f90565b6001600160401b03811161100b5760051b60200190565b90613d7082613d4f565b613d7d6040519182613b6a565b8281528092613d8e601f1991613d4f565b0190602036910137565b80518210156139495760209160051b010190565b613dbd613db8826148d5565b6141a0565b5f908152600660205260409020546001600160a01b031690565b15613dde57565b60405162461bcd60e51b815260206004820152602d60248201527f4552433732313a2063616c6c6572206973206e6f7420746f6b656e206f776e6560448201526c1c881bdc88185c1c1c9bdd9959609a1b6064820152608490fd5b15613e4057565b60405162461bcd60e51b81526020600482015260096024820152682737ba1037bbb732b960b91b6044820152606490fd5b15613e7857565b60405162461bcd60e51b815260206004820152600d60248201526c496e76616c696420707269636560981b6044820152606490fd5b15613eb457565b60405162461bcd60e51b815260206004820152600a602482015269139bdd081b1a5cdd195960b21b6044820152606490fd5b919082039182116108a457565b63ffffffff1663ffffffff81146108a45760010190565b919082018092116108a457565b8054905f815581613f26575050565b6001600160fe1b03821682036108a4575f5260205f209060021b8101905b818110613f4f575050565b6004905f81555f60018201555f60028201555f600382015501613f44565b3d15613f97573d90613f7e82613c2b565b91613f8c6040519384613b6a565b82523d5f602084013e565b606090565b15613fa357565b60405162461bcd60e51b8152602060048201526018602482015277151c99585cdd5c9e481d1c985b9cd9995c8819985a5b195960421b6044820152606490fd5b15613fea57565b60405162461bcd60e51b815260206004820152601660248201527514d95b1b195c881d1c985b9cd9995c8819985a5b195960521b6044820152606490fd5b1561402f57565b60405162461bcd60e51b815260206004820152602c60248201527f46756e6374696f6e206d7573742062652063616c6c6564207468726f7567682060448201526b19195b1959d85d1958d85b1b60a21b6064820152608490fd5b1561409057565b60405162461bcd60e51b815260206004820152602c60248201527f46756e6374696f6e206d7573742062652063616c6c6564207468726f7567682060448201526b6163746976652070726f787960a01b6064820152608490fd5b156140f157565b60405162461bcd60e51b815260206004820152600a6024820152694e6f742065786973747360b01b6044820152606490fd5b1561412a57565b60405162461bcd60e51b815260206004820152601260248201527113919508191bd95cc81b9bdd08195e1a5cdd60721b6044820152606490fd5b1561416b57565b60405162461bcd60e51b815260206004820152600d60248201526c24b73b30b634b21037b33332b960991b6044820152606490fd5b156141a757565b60405162461bcd60e51b8152602060048201526018602482015277115490cdcc8c4e881a5b9d985b1a59081d1bdad95b88125160421b6044820152606490fd5b5f908152600460205260409020546001600160a01b0316613c978115156141a0565b6040519061421682613b19565b5f60808382815260606020820152606060408201528260608201520152565b601f821161424257505050565b5f5260205f20906020601f840160051c8301931061427a575b601f0160051c01905b81811061426f575050565b5f8155600101614264565b909150819061425b565b90918060409360208452816020850152848401375f828201840152601f01601f1916010190565b906040516142b881613afe565b82546001600160a01b0316815260018301546020820152600283015460ff1660408201526003909201546060830152565b156142f057565b60405162461bcd60e51b815260206004820152600f60248201526e496e76616c6964206164647265737360881b6044820152606490fd5b6017549291838210156143a35761433e9082613f0a565b9280841161439b575b506143528184613ee6565b61435b81613d66565b915f5b82811061436c575050509190565b8061438361437c60019385613f0a565b6017613d3a565b90549060031b1c6143948287613d98565b520161435e565b92505f614347565b50506040516143b3602082613b6a565b5f81525f3681379190565b805493928483101561443a576143d49083613f0a565b93808511614432575b506143e88285613ee6565b906143f282613d66565b925f5b83811061440457505050509190565b8061441a61441460019385613f0a565b85613d3a565b90549060031b1c61442b8288613d98565b52016143f5565b93505f6143dd565b5050506040516143b3602082613b6a565b906001600160a01b0361445d826141e7565b6001600160a01b039093169216828114929190831561449d575b50821561448357505090565b9091506001600160a01b039061449890613dac565b161490565b9092505f52600760205260405f20815f5260205260ff60405f205416915f614477565b6001600160a01b039091169081156145fe576144f26144de846141e7565b6001600160a01b0392831692168214614996565b806145c5575b81614592575b61451a816001600160a01b03614513866141e7565b1614614996565b5f83815260066020908152604080832080546001600160a01b03199081169091558484526005835281842080545f1901905585845281842080546001019055868452600490925282208054909116841790557fddf252ad1be2c89b69c2b068fc378daa952ba7f163c4a11628f55a4df523b3ef9080a4565b5f5b600181106145a257506144fe565b600190835f5260156020526145be60405f20611f4b8388613f0a565b5001614594565b5f5b600181106145d557506144f8565b600190825f5260156020526145f760405f206145f18388613f0a565b90614b60565b50016145c7565b60405162461bcd60e51b815260206004820152601f60248201527f43616e6e6f74207472616e7366657220746f207a65726f2061646472657373006044820152606490fd5b60ff600b541661464f57565b60405162461bcd60e51b815260206004820152601060248201526f14185d5cd8589b194e881c185d5cd95960821b6044820152606490fd5b6002600a5414614698576002600a55565b60405162461bcd60e51b815260206004820152601f60248201527f5265656e7472616e637947756172643a207265656e7472616e742063616c6c006044820152606490fd5b335f9081525f5160206150c85f395f51905f52602052604090205460ff161561470257565b6147c561470e33614dfa565b6147a560116147295f5160206150885f395f51905f52614ee0565b92603760405194859276020b1b1b2b9b9a1b7b73a3937b61d1030b1b1b7bab73a1604d1b60208501526147658151809260208688019101613a30565b83017001034b99036b4b9b9b4b733903937b6329607d1b83820152614794825180936020604885019101613a30565b01010301601f198101835282613b6a565b60405162461bcd60e51b8152602060048201529182916024830190613a51565b0390fd5b335f9081525f5160206151085f395f51905f52602052604090205460ff16156147ee57565b6147c56147fa33614dfa565b6147a560116147295f5160206150e85f395f51905f52614ee0565b5f81815260096020908152604080832033845290915290205460ff16156148395750565b6147c5906147a5601161472961484e33614dfa565b93614ee0565b805f52600960205260405f2060018060a01b0383165f5260205260ff60405f20541661487e575050565b5f8181526009602090815260408083206001600160a01b0395909516808452949091528120805460ff19169055339291907ff6391f5c32d9c69d2a47ea670b442974b53935d1edc7fd64eb21e047a839171b9080a4565b5f908152600460205260409020546001600160a01b0316151590565b60809060208152603260208201527f4552433732313a207472616e7366657220746f206e6f6e20455243373231526560408201527131b2b4bb32b91034b6b83632b6b2b73a32b960711b60608201520190565b1561494b57565b60405162461bcd60e51b8152806147c5600482016148f1565b614970613db8826148d5565b5f52600860205261498360405f20613b8b565b5f604051614992602082613b6a565b5290565b1561499d57565b60405162461bcd60e51b815260206004820152602560248201527f4552433732313a207472616e736665722066726f6d20696e636f72726563742060448201526437bbb732b960d91b6064820152608490fd5b805f52601860205260405f2054155f14614a5657601754600160401b81101561100b57614a3f614a298260018594016017556017613d3a565b819391549060031b91821b915f19901b19161790565b9055601754905f52601860205260405f2055600190565b505f90565b6001810190825f528160205260405f2054155f14614aa8578054600160401b81101561100b57614a95614a29826001879401855584613d3a565b905554915f5260205260405f2055600190565b5050505f90565b5f818152601860205260409020548015614b5a575f1981018181116108a4576017545f198101919082116108a457808203614b22575b505050601754801561083e575f1901614aff816017613d3a565b8154905f199060031b1b191690556017555f5260186020525f6040812055600190565b614b44614b33614a29936017613d3a565b90549060031b1c9283926017613d3a565b90555f52601860205260405f20555f8080614ae5565b50505f90565b906001820191815f528260205260405f20548015155f14614c09575f1981018181116108a45782545f198101919082116108a457808203614bd4575b5050508054801561083e575f190190614bb58282613d3a565b8154905f199060031b1b19169055555f526020525f6040812055600190565b614bf4614be4614a299386613d3a565b90549060031b1c92839286613d3a565b90555f528360205260405f20555f8080614b9c565b505050505f90565b803b15614c46575f5160206150a85f395f51905f5280546001600160a01b0319166001600160a01b0392909216919091179055565b60405162461bcd60e51b815260206004820152602d60248201527f455243313936373a206e657720696d706c656d656e746174696f6e206973206e60448201526c1bdd08184818dbdb9d1c9858dd609a1b6064820152608490fd5b91823b15614d8957614ce6926020925f604051809681958294630a85bd0160e11b84523360048501528460248501526044840152608060648401526084830190613a51565b03926001600160a01b03165af15f9181614d44575b50614d2e57614d08613f6d565b80519081614d295760405162461bcd60e51b8152806147c5600482016148f1565b602001fd5b6001600160e01b031916630a85bd0160e11b1490565b9091506020813d602011614d81575b81614d6060209383613b6a565b8101031261034957516001600160e01b03198116810361034957905f614cfb565b3d9150614d53565b505050600190565b919290803b15614de057614ce6935f60209460405196879586948593630a85bd0160e11b855233600486015260018060a01b031660248501526044840152608060648401526084830190613a51565b50505050600190565b908151811015613949570160200190565b614e04602a613c2b565b90614e126040519283613b6a565b602a8252614e20602a613c2b565b6020830190601f19013682378251156139495760309053815160011015613949576078602183015360295b60018111614e9f5750614e5b5790565b606460405162461bcd60e51b815260206004820152602060248201527f537472696e67733a20686578206c656e67746820696e73756666696369656e746044820152fd5b90600f81166010811015613949576f181899199a1a9b1b9c1cb0b131b232b360811b901a614ecd8385614de9565b5360041c9080156108a4575f1901614e4b565b614eea6042613c2b565b90614ef86040519283613b6a565b60428252614f066042613c2b565b6020830190601f19013682378251156139495760309053815160011015613949576078602183015360415b60018111614f415750614e5b5790565b90600f81166010811015613949576f181899199a1a9b1b9c1cb0b131b232b360811b901a614f6f8385614de9565b5360041c9080156108a4575f1901614f31565b15614f8957565b60405162461bcd60e51b815260206004820152601c60248201527f4552433732313a20746f6b656e20616c7265616479206d696e746564000000006044820152606490fd5b919290156150305750815115614fe2575090565b3b15614feb5790565b60405162461bcd60e51b815260206004820152601d60248201527f416464726573733a2063616c6c20746f206e6f6e2d636f6e74726163740000006044820152606490fd5b8251909150156150435750805190602001fd5b60405162461bcd60e51b8152602060048201529081906147c5906024830190613a5156fe2f8788117e7eff1d82e926ec794901d17c78024a50270940304540a733656f0d189ab7a9244df0848122154315af71fe140f3db0fe014031783b0946b8c9d2e3360894a13ba1a3210667c828492db98dca3e2076cc3735a920a3ca505d382bbc6171a8d76a90923fae69daeaf894dbb98cc39db4d7e0f5a0b8b6672e832e0160a49807205ce4d355092ef5a8a18f56e8913cf4a201fbe287825b095693c217755e421a728e346ccaf4d82870ec53d59217a30d3483c6688054a2a67760f2138cbc485bf8e37db28d327f937baa2ba28235470b977aa1200fd7eedfd31f24ac45a26469706673582212209b1003c8b7513bca6e77b17468a518acb904bf01b8864074fb901018f089d41464736f6c634300081c0033",
  "linkReferences": {},
  "deployedLinkReferences": {}
}