{
  "_format": "hh-sol-artifact-1",
  "contractName": "GameifiedMarketplaceCoreV1",
  "sourceName": "contracts/Marketplace/GameifiedMarketplaceCoreV1.sol",
  "abi": [
    {
      "inputs": [],
      "stateMutability": "nonpayable",
      "type": "constructor"
    },
    {
      "anonymous": false,
      "inputs": [
        {
          "indexed": false,
          "internalType": "address",
          "name": "previousAdmin",
          "type": "address"
        },
        {
          "indexed": false,
          "internalType": "address",
          "name": "newAdmin",
          "type": "address"
        }
      ],
      "name": "AdminChanged",
      "type": "event"
    },
    {
      "anonymous": false,
      "inputs": [
        {
          "indexed": true,
          "internalType": "address",
          "name": "owner",
          "type": "address"
        },
        {
          "indexed": true,
          "internalType": "address",
          "name": "approved",
          "type": "address"
        },
        {
          "indexed": true,
          "internalType": "uint256",
          "name": "tokenId",
          "type": "uint256"
        }
      ],
      "name": "Approval",
      "type": "event"
    },
    {
      "anonymous": false,
      "inputs": [
        {
          "indexed": true,
          "internalType": "address",
          "name": "owner",
          "type": "address"
        },
        {
          "indexed": true,
          "internalType": "address",
          "name": "operator",
          "type": "address"
        },
        {
          "indexed": false,
          "internalType": "bool",
          "name": "approved",
          "type": "bool"
        }
      ],
      "name": "ApprovalForAll",
      "type": "event"
    },
    {
      "anonymous": false,
      "inputs": [
        {
          "indexed": false,
          "internalType": "uint256",
          "name": "_fromTokenId",
          "type": "uint256"
        },
        {
          "indexed": false,
          "internalType": "uint256",
          "name": "_toTokenId",
          "type": "uint256"
        }
      ],
      "name": "BatchMetadataUpdate",
      "type": "event"
    },
    {
      "anonymous": false,
      "inputs": [
        {
          "indexed": true,
          "internalType": "address",
          "name": "beacon",
          "type": "address"
        }
      ],
      "name": "BeaconUpgraded",
      "type": "event"
    },
    {
      "anonymous": false,
      "inputs": [
        {
          "indexed": true,
          "internalType": "address",
          "name": "user",
          "type": "address"
        },
        {
          "indexed": true,
          "internalType": "uint256",
          "name": "tokenId",
          "type": "uint256"
        },
        {
          "indexed": false,
          "internalType": "string",
          "name": "comment",
          "type": "string"
        }
      ],
      "name": "CommentAdded",
      "type": "event"
    },
    {
      "anonymous": false,
      "inputs": [
        {
          "indexed": false,
          "internalType": "uint8",
          "name": "version",
          "type": "uint8"
        }
      ],
      "name": "Initialized",
      "type": "event"
    },
    {
      "anonymous": false,
      "inputs": [
        {
          "indexed": true,
          "internalType": "address",
          "name": "user",
          "type": "address"
        },
        {
          "indexed": true,
          "internalType": "uint256",
          "name": "tokenId",
          "type": "uint256"
        },
        {
          "indexed": false,
          "internalType": "bool",
          "name": "liked",
          "type": "bool"
        }
      ],
      "name": "LikeToggled",
      "type": "event"
    },
    {
      "anonymous": false,
      "inputs": [
        {
          "indexed": false,
          "internalType": "uint256",
          "name": "_tokenId",
          "type": "uint256"
        }
      ],
      "name": "MetadataUpdate",
      "type": "event"
    },
    {
      "anonymous": false,
      "inputs": [
        {
          "indexed": true,
          "internalType": "address",
          "name": "seller",
          "type": "address"
        },
        {
          "indexed": true,
          "internalType": "address",
          "name": "buyer",
          "type": "address"
        },
        {
          "indexed": true,
          "internalType": "uint256",
          "name": "tokenId",
          "type": "uint256"
        },
        {
          "indexed": false,
          "internalType": "uint256",
          "name": "amount",
          "type": "uint256"
        }
      ],
      "name": "OfferAccepted",
      "type": "event"
    },
    {
      "anonymous": false,
      "inputs": [
        {
          "indexed": true,
          "internalType": "address",
          "name": "offeror",
          "type": "address"
        },
        {
          "indexed": true,
          "internalType": "uint256",
          "name": "tokenId",
          "type": "uint256"
        },
        {
          "indexed": false,
          "internalType": "uint256",
          "name": "amount",
          "type": "uint256"
        }
      ],
      "name": "OfferMade",
      "type": "event"
    },
    {
      "anonymous": false,
      "inputs": [
        {
          "indexed": false,
          "internalType": "address",
          "name": "account",
          "type": "address"
        }
      ],
      "name": "Paused",
      "type": "event"
    },
    {
      "anonymous": false,
      "inputs": [
        {
          "indexed": true,
          "internalType": "address",
          "name": "from",
          "type": "address"
        },
        {
          "indexed": false,
          "internalType": "uint256",
          "name": "amount",
          "type": "uint256"
        },
        {
          "indexed": true,
          "internalType": "address",
          "name": "to",
          "type": "address"
        },
        {
          "indexed": false,
          "internalType": "string",
          "name": "operation",
          "type": "string"
        }
      ],
      "name": "PlatformFeeTransferred",
      "type": "event"
    },
    {
      "anonymous": false,
      "inputs": [
        {
          "indexed": true,
          "internalType": "address",
          "name": "seller",
          "type": "address"
        },
        {
          "indexed": true,
          "internalType": "uint256",
          "name": "tokenId",
          "type": "uint256"
        },
        {
          "indexed": false,
          "internalType": "uint256",
          "name": "newPrice",
          "type": "uint256"
        }
      ],
      "name": "PriceUpdated",
      "type": "event"
    },
    {
      "anonymous": false,
      "inputs": [
        {
          "indexed": true,
          "internalType": "bytes32",
          "name": "role",
          "type": "bytes32"
        },
        {
          "indexed": true,
          "internalType": "bytes32",
          "name": "previousAdminRole",
          "type": "bytes32"
        },
        {
          "indexed": true,
          "internalType": "bytes32",
          "name": "newAdminRole",
          "type": "bytes32"
        }
      ],
      "name": "RoleAdminChanged",
      "type": "event"
    },
    {
      "anonymous": false,
      "inputs": [
        {
          "indexed": true,
          "internalType": "bytes32",
          "name": "role",
          "type": "bytes32"
        },
        {
          "indexed": true,
          "internalType": "address",
          "name": "account",
          "type": "address"
        },
        {
          "indexed": true,
          "internalType": "address",
          "name": "sender",
          "type": "address"
        }
      ],
      "name": "RoleGranted",
      "type": "event"
    },
    {
      "anonymous": false,
      "inputs": [
        {
          "indexed": true,
          "internalType": "bytes32",
          "name": "role",
          "type": "bytes32"
        },
        {
          "indexed": true,
          "internalType": "address",
          "name": "account",
          "type": "address"
        },
        {
          "indexed": true,
          "internalType": "address",
          "name": "sender",
          "type": "address"
        }
      ],
      "name": "RoleRevoked",
      "type": "event"
    },
    {
      "anonymous": false,
      "inputs": [
        {
          "indexed": true,
          "internalType": "address",
          "name": "creator",
          "type": "address"
        },
        {
          "indexed": true,
          "internalType": "uint256",
          "name": "tokenId",
          "type": "uint256"
        },
        {
          "indexed": false,
          "internalType": "string",
          "name": "uri",
          "type": "string"
        }
      ],
      "name": "TokenCreated",
      "type": "event"
    },
    {
      "anonymous": false,
      "inputs": [
        {
          "indexed": true,
          "internalType": "address",
          "name": "seller",
          "type": "address"
        },
        {
          "indexed": true,
          "internalType": "uint256",
          "name": "tokenId",
          "type": "uint256"
        },
        {
          "indexed": false,
          "internalType": "uint256",
          "name": "price",
          "type": "uint256"
        }
      ],
      "name": "TokenListed",
      "type": "event"
    },
    {
      "anonymous": false,
      "inputs": [
        {
          "indexed": true,
          "internalType": "address",
          "name": "seller",
          "type": "address"
        },
        {
          "indexed": true,
          "internalType": "address",
          "name": "buyer",
          "type": "address"
        },
        {
          "indexed": true,
          "internalType": "uint256",
          "name": "tokenId",
          "type": "uint256"
        },
        {
          "indexed": false,
          "internalType": "uint256",
          "name": "price",
          "type": "uint256"
        }
      ],
      "name": "TokenSold",
      "type": "event"
    },
    {
      "anonymous": false,
      "inputs": [
        {
          "indexed": true,
          "internalType": "address",
          "name": "seller",
          "type": "address"
        },
        {
          "indexed": true,
          "internalType": "uint256",
          "name": "tokenId",
          "type": "uint256"
        }
      ],
      "name": "TokenUnlisted",
      "type": "event"
    },
    {
      "anonymous": false,
      "inputs": [
        {
          "indexed": true,
          "internalType": "address",
          "name": "from",
          "type": "address"
        },
        {
          "indexed": true,
          "internalType": "address",
          "name": "to",
          "type": "address"
        },
        {
          "indexed": true,
          "internalType": "uint256",
          "name": "tokenId",
          "type": "uint256"
        }
      ],
      "name": "Transfer",
      "type": "event"
    },
    {
      "anonymous": false,
      "inputs": [
        {
          "indexed": false,
          "internalType": "address",
          "name": "account",
          "type": "address"
        }
      ],
      "name": "Unpaused",
      "type": "event"
    },
    {
      "anonymous": false,
      "inputs": [
        {
          "indexed": true,
          "internalType": "address",
          "name": "implementation",
          "type": "address"
        }
      ],
      "name": "Upgraded",
      "type": "event"
    },
    {
      "inputs": [],
      "name": "ADMIN_ROLE",
      "outputs": [
        {
          "internalType": "bytes32",
          "name": "",
          "type": "bytes32"
        }
      ],
      "stateMutability": "view",
      "type": "function"
    },
    {
      "inputs": [],
      "name": "DEFAULT_ADMIN_ROLE",
      "outputs": [
        {
          "internalType": "bytes32",
          "name": "",
          "type": "bytes32"
        }
      ],
      "stateMutability": "view",
      "type": "function"
    },
    {
      "inputs": [],
      "name": "PLATFORM_FEE_PERCENTAGE",
      "outputs": [
        {
          "internalType": "uint256",
          "name": "",
          "type": "uint256"
        }
      ],
      "stateMutability": "view",
      "type": "function"
    },
    {
      "inputs": [],
      "name": "UPGRADER_ROLE",
      "outputs": [
        {
          "internalType": "bytes32",
          "name": "",
          "type": "bytes32"
        }
      ],
      "stateMutability": "view",
      "type": "function"
    },
    {
      "inputs": [
        {
          "internalType": "uint256",
          "name": "_tokenId",
          "type": "uint256"
        },
        {
          "internalType": "uint256",
          "name": "_offerIndex",
          "type": "uint256"
        }
      ],
      "name": "acceptOffer",
      "outputs": [],
      "stateMutability": "nonpayable",
      "type": "function"
    },
    {
      "inputs": [
        {
          "internalType": "uint256",
          "name": "_tokenId",
          "type": "uint256"
        },
        {
          "internalType": "string",
          "name": "_text",
          "type": "string"
        }
      ],
      "name": "addComment",
      "outputs": [],
      "stateMutability": "nonpayable",
      "type": "function"
    },
    {
      "inputs": [
        {
          "internalType": "address",
          "name": "to",
          "type": "address"
        },
        {
          "internalType": "uint256",
          "name": "tokenId",
          "type": "uint256"
        }
      ],
      "name": "approve",
      "outputs": [],
      "stateMutability": "nonpayable",
      "type": "function"
    },
    {
      "inputs": [
        {
          "internalType": "address",
          "name": "owner",
          "type": "address"
        }
      ],
      "name": "balanceOf",
      "outputs": [
        {
          "internalType": "uint256",
          "name": "",
          "type": "uint256"
        }
      ],
      "stateMutability": "view",
      "type": "function"
    },
    {
      "inputs": [
        {
          "internalType": "uint256",
          "name": "_tokenId",
          "type": "uint256"
        }
      ],
      "name": "buyToken",
      "outputs": [],
      "stateMutability": "payable",
      "type": "function"
    },
    {
      "inputs": [
        {
          "internalType": "uint256",
          "name": "_tokenId",
          "type": "uint256"
        },
        {
          "internalType": "uint256",
          "name": "_offerIndex",
          "type": "uint256"
        }
      ],
      "name": "cancelOffer",
      "outputs": [],
      "stateMutability": "nonpayable",
      "type": "function"
    },
    {
      "inputs": [
        {
          "internalType": "string",
          "name": "_tokenURI",
          "type": "string"
        },
        {
          "internalType": "string",
          "name": "_category",
          "type": "string"
        },
        {
          "internalType": "uint96",
          "name": "_royaltyPercentage",
          "type": "uint96"
        }
      ],
      "name": "createStandardNFT",
      "outputs": [
        {
          "internalType": "uint256",
          "name": "",
          "type": "uint256"
        }
      ],
      "stateMutability": "nonpayable",
      "type": "function"
    },
    {
      "inputs": [
        {
          "internalType": "uint256",
          "name": "tokenId",
          "type": "uint256"
        }
      ],
      "name": "getApproved",
      "outputs": [
        {
          "internalType": "address",
          "name": "",
          "type": "address"
        }
      ],
      "stateMutability": "view",
      "type": "function"
    },
    {
      "inputs": [],
      "name": "getListedNFTs",
      "outputs": [
        {
          "internalType": "uint256[]",
          "name": "",
          "type": "uint256[]"
        }
      ],
      "stateMutability": "view",
      "type": "function"
    },
    {
      "inputs": [
        {
          "internalType": "uint256",
          "name": "_tokenId",
          "type": "uint256"
        }
      ],
      "name": "getNFTComments",
      "outputs": [
        {
          "internalType": "string[]",
          "name": "",
          "type": "string[]"
        }
      ],
      "stateMutability": "view",
      "type": "function"
    },
    {
      "inputs": [
        {
          "internalType": "uint256",
          "name": "_tokenId",
          "type": "uint256"
        }
      ],
      "name": "getNFTLikeCount",
      "outputs": [
        {
          "internalType": "uint256",
          "name": "",
          "type": "uint256"
        }
      ],
      "stateMutability": "view",
      "type": "function"
    },
    {
      "inputs": [
        {
          "internalType": "uint256",
          "name": "_tokenId",
          "type": "uint256"
        }
      ],
      "name": "getNFTMetadata",
      "outputs": [
        {
          "components": [
            {
              "internalType": "address",
              "name": "creator",
              "type": "address"
            },
            {
              "internalType": "string",
              "name": "uri",
              "type": "string"
            },
            {
              "internalType": "string",
              "name": "category",
              "type": "string"
            },
            {
              "internalType": "uint256",
              "name": "createdAt",
              "type": "uint256"
            },
            {
              "internalType": "uint96",
              "name": "royaltyPercentage",
              "type": "uint96"
            }
          ],
          "internalType": "struct GameifiedMarketplaceCoreV1.NFTMetadata",
          "name": "",
          "type": "tuple"
        }
      ],
      "stateMutability": "view",
      "type": "function"
    },
    {
      "inputs": [
        {
          "internalType": "uint256",
          "name": "_tokenId",
          "type": "uint256"
        }
      ],
      "name": "getNFTOffers",
      "outputs": [
        {
          "components": [
            {
              "internalType": "address",
              "name": "offeror",
              "type": "address"
            },
            {
              "internalType": "uint256",
              "name": "amount",
              "type": "uint256"
            },
            {
              "internalType": "uint8",
              "name": "expiresInDays",
              "type": "uint8"
            },
            {
              "internalType": "uint256",
              "name": "timestamp",
              "type": "uint256"
            }
          ],
          "internalType": "struct GameifiedMarketplaceCoreV1.Offer[]",
          "name": "",
          "type": "tuple[]"
        }
      ],
      "stateMutability": "view",
      "type": "function"
    },
    {
      "inputs": [
        {
          "internalType": "bytes32",
          "name": "role",
          "type": "bytes32"
        }
      ],
      "name": "getRoleAdmin",
      "outputs": [
        {
          "internalType": "bytes32",
          "name": "",
          "type": "bytes32"
        }
      ],
      "stateMutability": "view",
      "type": "function"
    },
    {
      "inputs": [
        {
          "internalType": "address",
          "name": "_user",
          "type": "address"
        }
      ],
      "name": "getUserCreatedNFTs",
      "outputs": [
        {
          "internalType": "uint256[]",
          "name": "",
          "type": "uint256[]"
        }
      ],
      "stateMutability": "view",
      "type": "function"
    },
    {
      "inputs": [
        {
          "internalType": "address",
          "name": "_user",
          "type": "address"
        }
      ],
      "name": "getUserNFTs",
      "outputs": [
        {
          "internalType": "uint256[]",
          "name": "",
          "type": "uint256[]"
        }
      ],
      "stateMutability": "view",
      "type": "function"
    },
    {
      "inputs": [
        {
          "internalType": "bytes32",
          "name": "role",
          "type": "bytes32"
        },
        {
          "internalType": "address",
          "name": "account",
          "type": "address"
        }
      ],
      "name": "grantRole",
      "outputs": [],
      "stateMutability": "nonpayable",
      "type": "function"
    },
    {
      "inputs": [
        {
          "internalType": "bytes32",
          "name": "role",
          "type": "bytes32"
        },
        {
          "internalType": "address",
          "name": "account",
          "type": "address"
        }
      ],
      "name": "hasRole",
      "outputs": [
        {
          "internalType": "bool",
          "name": "",
          "type": "bool"
        }
      ],
      "stateMutability": "view",
      "type": "function"
    },
    {
      "inputs": [
        {
          "internalType": "address",
          "name": "_platformTreasury",
          "type": "address"
        }
      ],
      "name": "initialize",
      "outputs": [],
      "stateMutability": "nonpayable",
      "type": "function"
    },
    {
      "inputs": [
        {
          "internalType": "address",
          "name": "owner",
          "type": "address"
        },
        {
          "internalType": "address",
          "name": "operator",
          "type": "address"
        }
      ],
      "name": "isApprovedForAll",
      "outputs": [
        {
          "internalType": "bool",
          "name": "",
          "type": "bool"
        }
      ],
      "stateMutability": "view",
      "type": "function"
    },
    {
      "inputs": [
        {
          "internalType": "uint256",
          "name": "",
          "type": "uint256"
        }
      ],
      "name": "isListed",
      "outputs": [
        {
          "internalType": "bool",
          "name": "",
          "type": "bool"
        }
      ],
      "stateMutability": "view",
      "type": "function"
    },
    {
      "inputs": [],
      "name": "levelingSystemAddress",
      "outputs": [
        {
          "internalType": "address",
          "name": "",
          "type": "address"
        }
      ],
      "stateMutability": "view",
      "type": "function"
    },
    {
      "inputs": [
        {
          "internalType": "uint256",
          "name": "_tokenId",
          "type": "uint256"
        },
        {
          "internalType": "uint256",
          "name": "_price",
          "type": "uint256"
        }
      ],
      "name": "listTokenForSale",
      "outputs": [],
      "stateMutability": "nonpayable",
      "type": "function"
    },
    {
      "inputs": [
        {
          "internalType": "uint256",
          "name": "",
          "type": "uint256"
        }
      ],
      "name": "listedPrice",
      "outputs": [
        {
          "internalType": "uint256",
          "name": "",
          "type": "uint256"
        }
      ],
      "stateMutability": "view",
      "type": "function"
    },
    {
      "inputs": [
        {
          "internalType": "uint256",
          "name": "_tokenId",
          "type": "uint256"
        },
        {
          "internalType": "uint8",
          "name": "_expiresInDays",
          "type": "uint8"
        }
      ],
      "name": "makeOffer",
      "outputs": [],
      "stateMutability": "payable",
      "type": "function"
    },
    {
      "inputs": [],
      "name": "name",
      "outputs": [
        {
          "internalType": "string",
          "name": "",
          "type": "string"
        }
      ],
      "stateMutability": "view",
      "type": "function"
    },
    {
      "inputs": [
        {
          "internalType": "uint256",
          "name": "",
          "type": "uint256"
        },
        {
          "internalType": "uint256",
          "name": "",
          "type": "uint256"
        }
      ],
      "name": "nftComments",
      "outputs": [
        {
          "internalType": "string",
          "name": "",
          "type": "string"
        }
      ],
      "stateMutability": "view",
      "type": "function"
    },
    {
      "inputs": [
        {
          "internalType": "uint256",
          "name": "",
          "type": "uint256"
        }
      ],
      "name": "nftLikeCount",
      "outputs": [
        {
          "internalType": "uint256",
          "name": "",
          "type": "uint256"
        }
      ],
      "stateMutability": "view",
      "type": "function"
    },
    {
      "inputs": [
        {
          "internalType": "uint256",
          "name": "",
          "type": "uint256"
        },
        {
          "internalType": "address",
          "name": "",
          "type": "address"
        }
      ],
      "name": "nftLikes",
      "outputs": [
        {
          "internalType": "bool",
          "name": "",
          "type": "bool"
        }
      ],
      "stateMutability": "view",
      "type": "function"
    },
    {
      "inputs": [
        {
          "internalType": "uint256",
          "name": "",
          "type": "uint256"
        }
      ],
      "name": "nftMetadata",
      "outputs": [
        {
          "internalType": "address",
          "name": "creator",
          "type": "address"
        },
        {
          "internalType": "string",
          "name": "uri",
          "type": "string"
        },
        {
          "internalType": "string",
          "name": "category",
          "type": "string"
        },
        {
          "internalType": "uint256",
          "name": "createdAt",
          "type": "uint256"
        },
        {
          "internalType": "uint96",
          "name": "royaltyPercentage",
          "type": "uint96"
        }
      ],
      "stateMutability": "view",
      "type": "function"
    },
    {
      "inputs": [
        {
          "internalType": "uint256",
          "name": "",
          "type": "uint256"
        },
        {
          "internalType": "uint256",
          "name": "",
          "type": "uint256"
        }
      ],
      "name": "nftOffers",
      "outputs": [
        {
          "internalType": "address",
          "name": "offeror",
          "type": "address"
        },
        {
          "internalType": "uint256",
          "name": "amount",
          "type": "uint256"
        },
        {
          "internalType": "uint8",
          "name": "expiresInDays",
          "type": "uint8"
        },
        {
          "internalType": "uint256",
          "name": "timestamp",
          "type": "uint256"
        }
      ],
      "stateMutability": "view",
      "type": "function"
    },
    {
      "inputs": [
        {
          "internalType": "uint256",
          "name": "tokenId",
          "type": "uint256"
        }
      ],
      "name": "ownerOf",
      "outputs": [
        {
          "internalType": "address",
          "name": "",
          "type": "address"
        }
      ],
      "stateMutability": "view",
      "type": "function"
    },
    {
      "inputs": [],
      "name": "pause",
      "outputs": [],
      "stateMutability": "nonpayable",
      "type": "function"
    },
    {
      "inputs": [],
      "name": "paused",
      "outputs": [
        {
          "internalType": "bool",
          "name": "",
          "type": "bool"
        }
      ],
      "stateMutability": "view",
      "type": "function"
    },
    {
      "inputs": [],
      "name": "platformTreasury",
      "outputs": [
        {
          "internalType": "address",
          "name": "",
          "type": "address"
        }
      ],
      "stateMutability": "view",
      "type": "function"
    },
    {
      "inputs": [],
      "name": "proxiableUUID",
      "outputs": [
        {
          "internalType": "bytes32",
          "name": "",
          "type": "bytes32"
        }
      ],
      "stateMutability": "view",
      "type": "function"
    },
    {
      "inputs": [],
      "name": "referralSystemAddress",
      "outputs": [
        {
          "internalType": "address",
          "name": "",
          "type": "address"
        }
      ],
      "stateMutability": "view",
      "type": "function"
    },
    {
      "inputs": [
        {
          "internalType": "bytes32",
          "name": "role",
          "type": "bytes32"
        },
        {
          "internalType": "address",
          "name": "account",
          "type": "address"
        }
      ],
      "name": "renounceRole",
      "outputs": [],
      "stateMutability": "nonpayable",
      "type": "function"
    },
    {
      "inputs": [
        {
          "internalType": "bytes32",
          "name": "role",
          "type": "bytes32"
        },
        {
          "internalType": "address",
          "name": "account",
          "type": "address"
        }
      ],
      "name": "revokeRole",
      "outputs": [],
      "stateMutability": "nonpayable",
      "type": "function"
    },
    {
      "inputs": [
        {
          "internalType": "uint256",
          "name": "tokenId",
          "type": "uint256"
        },
        {
          "internalType": "uint256",
          "name": "salePrice",
          "type": "uint256"
        }
      ],
      "name": "royaltyInfo",
      "outputs": [
        {
          "internalType": "address",
          "name": "",
          "type": "address"
        },
        {
          "internalType": "uint256",
          "name": "",
          "type": "uint256"
        }
      ],
      "stateMutability": "view",
      "type": "function"
    },
    {
      "inputs": [
        {
          "internalType": "address",
          "name": "from",
          "type": "address"
        },
        {
          "internalType": "address",
          "name": "to",
          "type": "address"
        },
        {
          "internalType": "uint256",
          "name": "tokenId",
          "type": "uint256"
        }
      ],
      "name": "safeTransferFrom",
      "outputs": [],
      "stateMutability": "nonpayable",
      "type": "function"
    },
    {
      "inputs": [
        {
          "internalType": "address",
          "name": "from",
          "type": "address"
        },
        {
          "internalType": "address",
          "name": "to",
          "type": "address"
        },
        {
          "internalType": "uint256",
          "name": "tokenId",
          "type": "uint256"
        },
        {
          "internalType": "bytes",
          "name": "data",
          "type": "bytes"
        }
      ],
      "name": "safeTransferFrom",
      "outputs": [],
      "stateMutability": "nonpayable",
      "type": "function"
    },
    {
      "inputs": [
        {
          "internalType": "address",
          "name": "operator",
          "type": "address"
        },
        {
          "internalType": "bool",
          "name": "approved",
          "type": "bool"
        }
      ],
      "name": "setApprovalForAll",
      "outputs": [],
      "stateMutability": "nonpayable",
      "type": "function"
    },
    {
      "inputs": [
        {
          "internalType": "address",
          "name": "_addr",
          "type": "address"
        }
      ],
      "name": "setLevelingSystem",
      "outputs": [],
      "stateMutability": "nonpayable",
      "type": "function"
    },
    {
      "inputs": [
        {
          "internalType": "address",
          "name": "_addr",
          "type": "address"
        }
      ],
      "name": "setReferralSystem",
      "outputs": [],
      "stateMutability": "nonpayable",
      "type": "function"
    },
    {
      "inputs": [
        {
          "internalType": "address",
          "name": "_addr",
          "type": "address"
        }
      ],
      "name": "setSkillsContract",
      "outputs": [],
      "stateMutability": "nonpayable",
      "type": "function"
    },
    {
      "inputs": [],
      "name": "skillsContractAddress",
      "outputs": [
        {
          "internalType": "address",
          "name": "",
          "type": "address"
        }
      ],
      "stateMutability": "view",
      "type": "function"
    },
    {
      "inputs": [
        {
          "internalType": "bytes4",
          "name": "interfaceId",
          "type": "bytes4"
        }
      ],
      "name": "supportsInterface",
      "outputs": [
        {
          "internalType": "bool",
          "name": "",
          "type": "bool"
        }
      ],
      "stateMutability": "view",
      "type": "function"
    },
    {
      "inputs": [],
      "name": "symbol",
      "outputs": [
        {
          "internalType": "string",
          "name": "",
          "type": "string"
        }
      ],
      "stateMutability": "view",
      "type": "function"
    },
    {
      "inputs": [
        {
          "internalType": "uint256",
          "name": "_tokenId",
          "type": "uint256"
        }
      ],
      "name": "toggleLike",
      "outputs": [],
      "stateMutability": "nonpayable",
      "type": "function"
    },
    {
      "inputs": [
        {
          "internalType": "uint256",
          "name": "tokenId",
          "type": "uint256"
        }
      ],
      "name": "tokenURI",
      "outputs": [
        {
          "internalType": "string",
          "name": "",
          "type": "string"
        }
      ],
      "stateMutability": "view",
      "type": "function"
    },
    {
      "inputs": [
        {
          "internalType": "address",
          "name": "from",
          "type": "address"
        },
        {
          "internalType": "address",
          "name": "to",
          "type": "address"
        },
        {
          "internalType": "uint256",
          "name": "tokenId",
          "type": "uint256"
        }
      ],
      "name": "transferFrom",
      "outputs": [],
      "stateMutability": "nonpayable",
      "type": "function"
    },
    {
      "inputs": [
        {
          "internalType": "uint256",
          "name": "_tokenId",
          "type": "uint256"
        }
      ],
      "name": "unlistToken",
      "outputs": [],
      "stateMutability": "nonpayable",
      "type": "function"
    },
    {
      "inputs": [],
      "name": "unpause",
      "outputs": [],
      "stateMutability": "nonpayable",
      "type": "function"
    },
    {
      "inputs": [
        {
          "internalType": "uint256",
          "name": "_tokenId",
          "type": "uint256"
        },
        {
          "internalType": "uint256",
          "name": "_newPrice",
          "type": "uint256"
        }
      ],
      "name": "updatePrice",
      "outputs": [],
      "stateMutability": "nonpayable",
      "type": "function"
    },
    {
      "inputs": [
        {
          "internalType": "address",
          "name": "newImplementation",
          "type": "address"
        }
      ],
      "name": "upgradeTo",
      "outputs": [],
      "stateMutability": "nonpayable",
      "type": "function"
    },
    {
      "inputs": [
        {
          "internalType": "address",
          "name": "newImplementation",
          "type": "address"
        },
        {
          "internalType": "bytes",
          "name": "data",
          "type": "bytes"
        }
      ],
      "name": "upgradeToAndCall",
      "outputs": [],
      "stateMutability": "payable",
      "type": "function"
    }
  ],
  "bytecode": "0x60a080604052346100da57306080525f549060ff8260081c16610088575060ff8082160361004e575b6040516151df90816100df8239608051818181612572015281816126560152612a0a0152f35b60ff90811916175f557f7f26b83ff96e1f2b6a682f133852f6798a09c465da95921460cefb3847402498602060405160ff8152a15f610028565b62461bcd60e51b815260206004820152602760248201527f496e697469616c697a61626c653a20636f6e747261637420697320696e697469604482015266616c697a696e6760c81b6064820152608490fd5b5f80fdfe60806040526004361015610011575f80fd5b5f5f3560e01c8063012386f014613978578063016fc10e146138f657806301ffc9a71461383a57806306fdde0314613783578063081812fc14613765578063095ea7b3146135df57806315548232146135c457806323b872dd1461359e5780632406e67714613512578063248a9ca3146134ec5780632a55205a146134395780632d296bf114612d645780632f2ff15d14612cc257806336568abe14612c2f5780633659cfe6146129eb5780633c039039146129c15780633f4ba83a1461292a57806342842e0e146128f557806349541015146128605780634f1ef2861461261d57806352d1902d1461255f57806352de4ee5146124da57806354398d181461232f57806356129b0a146122e15780635c975abb146122bd578063602dcf29146121315780636352211e14612100578063638ac8d3146120b55780636be9a6f114611fa257806370a0823114611f0c57806375b238fc14611ee457806377ea168e14611e7a5780637af338a514611e505780637de7ff08146117eb57806381257bd5146115ee57806382367b2d146115695780638456cb591461150c5780638cf53102146114be57806391d148541461147357806395d89b41146113b75780639a01126c14611369578063a217fddf1461134d578063a22cb46514611281578063aa7e568314610fd2578063ad3a358c14610f2a578063b7f3a58914610e49578063b88d4fde14610dd0578063c4d66de81461081a578063c87b56dd146107fa578063cb8c8a15146107cf578063d45557cc146105be578063d489be261461054c578063d547741f14610512578063d7e2997b146104e8578063d9edf576146104b1578063e138818c14610487578063e5a818f81461045c578063e985e9c514610404578063f291f5dd14610313578063f72c0d8b146102eb5763fcce4883146102b9575f80fd5b346102e85760203660031901126102e85760ff6040602092600435815261022984522054166040519015158152f35b80fd5b50346102e857806003193601126102e85760206040515f51602061506a5f395f51905f528152f35b50346102e85760203660031901126102e857600435610339610334826147d5565b61421c565b815261022e60205260408120805461035081613d4c565b9061035e6040519283613bbf565b80825260208201809385526020852085915b8383106103e657868587604051928392602084019060208552518091526040840192915b8181106103a2575050500390f35b919350916020608060019260608751858060a01b038151168352848101518584015260ff604082015116604084015201516060820152019401910191849392610394565b600460206001926103f6856142e5565b815201920192019190610370565b50346102e85760403660031901126102e8576040610420613a45565b91610429613a5b565b9260018060a01b03168152609c602052209060018060a01b03165f52602052602060ff60405f2054166040519015158152f35b50346102e85760203660031901126102e8576040602091600435815261022a83522054604051908152f35b50346102e857806003193601126102e857610233546040516001600160a01b039091168152602090f35b50346102e85760203660031901126102e85760406020916004356104d7610334826147d5565b815261022c83522054604051908152f35b50346102e857806003193601126102e857610236546040516001600160a01b039091168152602090f35b50346102e85760403660031901126102e857610549600435610532613a5b565b9061054461053f82613eaa565b614712565b614752565b80f35b50346102e85761055b36613af1565b90825261022d602052604082209081548110156105ba5761057b91613d37565b9190916105a6576105a261058e83613be2565b604051918291602083526020830190613a92565b0390f35b634e487b7160e01b81526004819052602490fd5b8280fd5b50346102e8576105cd36613af1565b906105d661455c565b80835261022e6020526105ee60408420548310614177565b80835261022e60205261060d6106078360408620613cf1565b506142e5565b80516001600160a01b0316330361079c57602001519181845261022e6020526040842082855261022e6020526040852054905f1982019182116107885761066b9161065791613cf1565b509183865261022e60205260408620613cf1565b91909161070e57808203610736575b5050825261022e6020526040822080548015610722575f19019061069e8282613cf1565b61070e578493849384938460038582809755826001820155826002820155015555335af16106ca613fa9565b50156106d957600161015f5580f35b60405162461bcd60e51b815260206004820152600d60248201526c1499599d5b990819985a5b1959609a1b6044820152606490fd5b634e487b7160e01b85526004859052602485fd5b634e487b7160e01b84526031600452602484fd5b805482546001600160a01b0319166001600160a01b039190911617825560018082015490830155600280820154908301805460ff191660ff929092169190911790556003908101549101555f8061067a565b634e487b7160e01b86526011600452602486fd5b60405162461bcd60e51b815260206004820152600b60248201526a2737ba1037b33332b937b960a91b6044820152606490fd5b50346102e85760203660031901126102e8576040602091600435815261022c83522054604051908152f35b50346102e85760203660031901126102e8576105a261058e6004356148c4565b50346102e85760203660031901126102e857610834613a45565b815460ff8160081c161590818092610dc3575b8015610dac575b15610d505760ff198116600117845581610d3f575b5060409182516108738482613bbf565b600c81526b11d85b595a599a595913919560a21b60208201528351906108998583613bbf565b600482526311d3919560e21b60208301526108c360ff875460081c166108be81614864565b614864565b8051906001600160401b038211610d2b576108df609754613b22565b601f8111610cdb575b50602090601f8311600114610c775761090b9291889183610ba4575b50506142ac565b6097555b8051906001600160401b038211610c635761092b609854613b22565b601f8111610c13575b50602090601f8311600114610baf576109569291879183610ba45750506142ac565b6098555b6109bb60ff855460081c1661096e81614864565b61097781614864565b61098081614864565b61098981614864565b61099281614864565b600161015f556109a181614864565b6109aa81614864565b60ff19610191541661019155614864565b6001600160a01b03811615610b9d575b61023380546001600160a01b0319166001600160a01b039290921691909117905582805261012d6020908152828420335f90815291528290205460ff1615610b60575b5f51602061510a5f395f51905f52835261012d6020908152828420335f90815291528290205460ff1615610b05575b5f51602061506a5f395f51905f52835261012d6020908152828420335f90815291528290205460ff1615610aaa575b610a74575080f35b60207f7f26b83ff96e1f2b6a682f133852f6798a09c465da95921460cefb38474024989161ff001984541684555160018152a180f35b5f51602061506a5f395f51905f52835261012d60205281832060018060a01b0333165f52602052815f20600160ff1982541617905533335f51602061506a5f395f51905f525f516020614fea5f395f51905f528680a4610a6c565b5f51602061510a5f395f51905f52835261012d60205281832060018060a01b0333165f52602052815f20600160ff1982541617905533335f51602061510a5f395f51905f525f516020614fea5f395f51905f528680a4610a3d565b82805261012d6020908152828420335f81815291909252839020805460ff1916600117905580845f516020614fea5f395f51905f528180a4610a0e565b50336109cb565b015190505f80610904565b609887528187209190601f198416885b818110610bfb5750908460019594939210610be3575b505050811b0160985561095a565b01515f1960f88460031b161c191690555f8080610bd5565b92936020600181928786015181550195019301610bbf565b609887525f51602061518a5f395f51905f52601f840160051c81019160208510610c59575b601f0160051c01905b818110610c4e5750610934565b878155600101610c41565b9091508190610c38565b634e487b7160e01b86526041600452602486fd5b609788528188209190601f198416895b818110610cc35750908460019594939210610cab575b505050811b0160975561090f565b01515f1960f88460031b161c191690555f8080610c9d565b92936020600181928786015181550195019301610c87565b609788525f51602061502a5f395f51905f52601f840160051c81019160208510610d21575b601f0160051c01905b818110610d1657506108e8565b888155600101610d09565b9091508190610d00565b634e487b7160e01b87526041600452602487fd5b61ffff19166101011783555f610863565b60405162461bcd60e51b815260206004820152602e60248201527f496e697469616c697a61626c653a20636f6e747261637420697320616c72656160448201526d191e481a5b9a5d1a585b1a5e995960921b6064820152608490fd5b50303b15801561084e5750600160ff82161461084e565b50600160ff821610610847565b50346102e85760803660031901126102e857610dea613a45565b610df2613a5b565b90606435906044356001600160401b038311610e455761054993610e1d610e40943690600401613cd3565b92610e30610e2b8433614330565b613dd4565b610e3b8383836143a5565b614d14565b614844565b8480fd5b50346102e85760203660031901126102e857600435610e6a610334826147d5565b815261022d602052604081208054610e8181613d4c565b90610e8f6040519283613bbf565b80825260208201809385526020852085915b838310610f0d57868587604051928392602084019060208552518091526040840160408260051b8601019392905b828210610ede57505050500390f35b91936001919395506020610efd8192603f198a82030186528851613a92565b9601920192018594939192610ecf565b600160208192610f1c85613be2565b815201920192019190610ea1565b50346102e85760203660031901126102e857600435610f47614517565b610f63610f53826141fa565b6001600160a01b03163314613e36565b808252610229602052610f7c60ff604084205416613ebd565b8082526102296020526040822060ff19815416905580825261022a602052816040812055610fa981614a15565b50337f24287c09523dfd960e13a9774c247fb28a2ccb301eb4208b0d4072bcd0f1826e8380a380f35b50346102e85760403660031901126102e8576004356024356001600160401b0381116105ba57611006903690600401613d0a565b61100e614517565b61101f61101a846147d5565b614100565b80151580611275575b1561123f5782845261022d6020526103e8604085205410156112065782845261022d60205260408420805490600160401b821015610c63579061107091600182018155613d37565b61070e576001600160401b0382116111f257611096826110908354613b22565b8361425d565b8482601f811160011461119057806110b5928891611185575b506142ac565b90555b6102355484906001600160a01b031680611108575b50506111027f6ef560d19dd02f57976e8453b811685a89edf49009d64ab71b19489923ef5f09916040519182913395836142be565b0390a380f35b803b156111815781809160a46040518094819363d0654f3560e01b83523360048401526002602484015260606044840152600760648401526610d3d35351539560ca1b60848401525af1801561117657156110cd578161116791613bbf565b61117257835f6110cd565b8380fd5b6040513d84823e3d90fd5b5080fd5b90508501355f6110af565b50818652602086209083601f198116885b8181106111d75750106111be575b5050600182811b0190556110b8565b8401355f19600385901b60f8161c191690555f806111af565b878401358555600190940193602093840193879350016111a1565b634e487b7160e01b85526041600452602485fd5b60405162461bcd60e51b8152602060048201526011602482015270546f6f206d616e7920636f6d6d656e747360781b6044820152606490fd5b60405162461bcd60e51b815260206004820152600e60248201526d092dcecc2d8d2c840d8cadccee8d60931b6044820152606490fd5b50610118811115611028565b50346102e85760403660031901126102e85761129b613a45565b602435908115158092036105ba576001600160a01b03169033821461130c57338352609c60205260408320825f5260205260405f2060ff1981541660ff83161790556040519081527f17307eab39ab6107e8899845ad3d59bd9653f200f220920489ca2b5937696c3160203392a380f35b60405162461bcd60e51b815260206004820152601960248201527822a9219b99189d1030b8383937bb32903a379031b0b63632b960391b6044820152606490fd5b50346102e857806003193601126102e857602090604051908152f35b50346102e85760203660031901126102e857611383613a45565b61138b6146b3565b6001600160a01b031661139f811515614139565b61023680546001600160a01b03191691909117905580f35b50346102e857806003193601126102e8576040519080609854906113da82613b22565b808552916001811690811561144c5750600114611402575b6105a28461058e81860382613bbf565b609881525f51602061518a5f395f51905f52939250905b8082106114325750909150810160200161058e826113f2565b919260018160209254838588010152019101909291611419565b60ff191660208087019190915292151560051b8501909201925061058e91508390506113f2565b50346102e85760403660031901126102e857604061148f613a5b565b91600435815261012d602052209060018060a01b03165f52602052602060ff60405f2054166040519015158152f35b50346102e85760203660031901126102e8576114d8613a45565b6114e06146b3565b6001600160a01b03166114f4811515614139565b61023480546001600160a01b03191691909117905580f35b50346102e857806003193601126102e8576115256146b3565b61152d614517565b600160ff19610191541617610191557f62e78cea01bee320cd4e420270b5ea74000d11b0c9f74754ebdbfc544b05a2586020604051338152a180f35b50346102e85761157836613af1565b611580614517565b61158c610f53836141fa565b8183526102296020526115a560ff604085205416613ebd565b6115b0811515613e6e565b81835261022a6020528060408420556040519081527fb556fac599c3c70efb9ab1fa725ecace6c81cc48d1455f886607def065f3e0c060203392a380f35b50346102e85761060761164461160336613af1565b61160e93919361455c565b61161a610f53856141fa565b83855261022e60205261163260408620548210614177565b83855261022e60205260408520613cf1565b60608101516201518060ff604084015116029062ffffff82169182036117a2579061166e91614323565b42116117b657602060018060a01b0382511691015161168e8383336143a5565b60058102818104600514821517156117a25760649004611723858080806116b58688613ef6565b8982526102296020526040822060ff19815416905589825261022a60205281604081205589825261022e6020526116ee60408320613f53565b611712828080808b60018060a01b0361023354165af161170c613fa9565b50613fd8565b335af161171d613fa9565b5061401f565b825f5160206150aa5f395f51905f52608060018060a01b0361023354169360405190815260406020820152600e60408201526d13d191915497d050d0d15415115160921b6060820152a36040519081527fa6da490df6e8f0e592e795b4d96c5810d8ddfda51c21577adbdd8e1a0fa47a6760203392a4600161015f5580f35b634e487b7160e01b85526011600452602485fd5b60405162461bcd60e51b815260206004820152600d60248201526c13d999995c88195e1c1a5c9959609a1b6044820152606490fd5b50346102e85760603660031901126102e8576004356001600160401b0381116111815761181c903690600401613d0a565b906024356001600160401b0381116111725761183c903690600401613d0a565b91909260443560018060601b038116809103611e4c5761185a614517565b6127108111611e1557610227549360018501610227556020956040516118808882613bbf565b8881523315611dd25761189b611895886147d5565b15614f05565b885b60018110611da95750610e40611901916118b96118958a6147d5565b33808c52609a8b526040808d20805460010190558a8d5260998c528c2080546001600160a01b0319168217905589908c5f5160206150ea5f395f51905f528180a48833614c24565b61190c368587613c9d565b611915876147d5565b15611d4d5786895260c9885260408920815190916001600160401b038211611d395761194b826119458554613b22565b8561425d565b8990601f8311600114611cd75761196b92918c9183610ba45750506142ac565b90555b7ff8e1a15aba9398e019f0b49df1a4fde98ee17ae345cb5f6b5e2c27f5033e8ce787604051888152a16119c3604051916119a783613b89565b3383526119b5368789613c9d565b938984019485523691613c9d565b6040828101918252426060840190815260808401868152898c526102288b52918b20935184546001600160a01b0319166001600160a01b039190911617845593518051919492916001850191906001600160401b038111611cc357611a2c816119458554613b22565b8b8d601f8311600114611c5f5790611a4a9383610ba45750506142ac565b90555b51805160028401916001600160401b038211611c4b57611a71826119458554613b22565b8a908c601f8411600114611be257600496959493611a9793909283610ba45750506142ac565b90555b5160038201559151910180546001600160601b0319166001600160601b039290921691909117905580611b9b575b503385526102308452611ade83604087206149c1565b50610235546001600160a01b031680611b33575b50907f1e1b69b56bd875547ce642e5ca9d38001b825863ffbf9cf08c72e0ff64b00a8d611b2884936040519182913395836142be565b0390a3604051908152f35b8086913b1561118157819060246040518099819363199df06360e31b83523360048401525af1958615611b8e57849596611b71575b50859450611af2565b818093949550611b8091613bbf565b6102e8579081849392611b68565b50604051903d90823e3d90fd5b60405190611ba882613ba4565b33825285820190815284875260668652604087209151905160a01b6001600160a01b0319166001600160a01b03919091161790555f611ac8565b8481528c8120929190601f198516908e5b828210611c345750509160019391856004999897969410611c1c575b505050811b019055611a9a565b01515f1960f88460031b161c191690555f8080611c0f565b60018596829396860151815501950193018e611bf3565b634e487b7160e01b8c52604160045260248cfd5b8481528d8120929390601f198516908f5b828210611cac575050908460019594939210611c94575b505050811b019055611a4d565b01515f1960f88460031b161c191690555f8080611c87565b60018596829396860151815501950193018f611c70565b634e487b7160e01b8d52604160045260248dfd5b838c528a8c209190601f1984168d5b8d828210611d23575050908460019594939210611d0b575b505050811b01905561196e565b01515f1960f88460031b161c191690555f8080611cfe565b6001859682939686015181550195019301611ce6565b634e487b7160e01b8b52604160045260248bfd5b60405162461bcd60e51b815260048101899052602e60248201527f45524337323155524953746f726167653a2055524920736574206f66206e6f6e60448201526d32bc34b9ba32b73a103a37b5b2b760911b6064820152608490fd5b600190338b5261022f8a52611dcb60408c20611dc5838c614323565b906149c1565b500161189d565b6064886040519062461bcd60e51b825280600483015260248201527f4552433732313a206d696e7420746f20746865207a65726f20616464726573736044820152fd5b60405162461bcd60e51b815260206004820152600f60248201526e496e76616c696420726f79616c747960881b6044820152606490fd5b8580fd5b50346102e857806003193601126102e857610235546040516001600160a01b039091168152602090f35b50346102e857611e8936613af1565b9190815261022e602052604081209081548310156102e8576080611ead8484613cf1565b5060018060a01b0381541690600181015490600360ff60028301541691015491604051938452602084015260408301526060820152f35b50346102e857806003193601126102e85760206040515f51602061510a5f395f51905f528152f35b50346102e85760203660031901126102e8576001600160a01b03611f2e613a45565b168015611f4b578160409160209352609a83522054604051908152f35b60405162461bcd60e51b815260206004820152602960248201527f4552433732313a2061646472657373207a65726f206973206e6f7420612076616044820152683634b21037bbb732b960b91b6064820152608490fd5b50346102e85760203660031901126102e8576040906004358160808451611fc881613b89565b828152606060208201526060868201528260608201520152611fec610334826147d5565b81526102286020522060405161200181613b89565b81546001600160a01b0316815261201a60018301613be2565b916020820192835261202e60028201613be2565b6040830190815261209b60038301549260608501938452600460018060601b039101541691608085019283526120886040519687966020885260018060a01b0390511660208801525160a0604088015260c0870190613a92565b9051858203601f19016060870152613a92565b91516080840152516001600160601b031660a08301520390f35b50346102e85760403660031901126102e85760406120d1613a5b565b91600435815261022b602052209060018060a01b03165f52602052602060ff60405f2054166040519015158152f35b50346102e85760203660031901126102e857602061211f6004356141fa565b6040516001600160a01b039091168152f35b5060403660031901126102e85760043560243560ff81168091036105ba57612157614517565b81835261022960205261217060ff604085205416613ebd565b61217b341515614177565b801515806122b2575b1561227c5781835261022e60205260408320604051916121a383613b5a565b33835260208301348152604084019182526060840192428452805490600160401b82101561226857906121db91600182018155613cf1565b949094612254575184546001600160a01b0319166001600160a01b03919091161784555160018401555160028301805460ff191660ff92909216919091179055516003919091015560405134815233907f7beddbbf70d8b2a25af77e15d4a173af5f34673a1e7302c7af208aac599dc6db90602090a380f35b634e487b7160e01b87526004879052602487fd5b634e487b7160e01b88526041600452602488fd5b60405162461bcd60e51b815260206004820152600e60248201526d496e76616c69642065787069727960901b6044820152606490fd5b50601e811115612184565b50346102e857806003193601126102e857602060ff61019154166040519015158152f35b50346102e85760203660031901126102e8576122fb613a45565b6123036146b3565b6001600160a01b0316612317811515614139565b61023580546001600160a01b03191691909117905580f35b50346102e85760203660031901126102e85760043561234c614517565b61235861101a826147d5565b80825261022b60209081526040808420335f908152925290205460ff161561241b5780825261022b60209081526040808420335f908152908352819020805460ff1916905582845261022c909152822054612402575b80825261022b6020526040822060018060a01b0333165f5260205260ff60405f20541660405190151581527f4d5c3df35a8d7d04f2e10db1454548af37ee7449c97a4b4c243681f29c2ea40760203392a380f35b80825261022c6020526040822080545f190190556123ae565b80825261022b6020526040822060018060a01b0333165f5260205260405f20600160ff1982541617905580825261022c60205260408220600181540190558160018060a01b03610235541680612473575b50506123ae565b803b156111815781809160a46040518094819363d0654f3560e01b8352336004840152600160248401526060604484015260046064840152634c494b4560e01b60848401525af18015611176571561246c57816124cf91613bbf565b61118157815f61246c565b50346102e85760203660031901126102e8576001600160a01b036124fc613a45565b169081815261022f60205260408120549061251682613d63565b92815b83811061252e57604051806105a28782613a0c565b60019082845261022f6020526125478160408620613d37565b90549060031b1c6125588288613d95565b5201612519565b50346102e857806003193601126102e8577f00000000000000000000000000000000000000000000000000000000000000006001600160a01b031630036125b75760206040515f51602061508a5f395f51905f528152f35b60405162461bcd60e51b815260206004820152603860248201527f555550535570677261646561626c653a206d757374206e6f742062652063616c6044820152771b1959081d1a1c9bdd59da0819195b1959d85d1958d85b1b60421b6064820152608490fd5b5060403660031901126102e857612632613a45565b6024356001600160401b0381116105ba57612651903690600401613cd3565b6126a87f00000000000000000000000000000000000000000000000000000000000000006001600160a01b031661268a30821415614064565b5f51602061508a5f395f51905f52546001600160a01b0316146140b2565b6126b06145b4565b5f51602061500a5f395f51905f525460ff16156126d1575061054990614b94565b6040516352d1902d60e01b81526001600160a01b03831690602081600481855afa85918161282c575b506127485760405162461bcd60e51b815260206004820152602e60248201525f51602061516a5f395f51905f5260448201526d6f6e206973206e6f74205555505360901b6064820152608490fd5b5f51602061508a5f395f51905f52036127e85761276483614b94565b5f5160206150ca5f395f51905f528480a28051158015906127e0575b61278957505080f35b6127dc9183806040519361279e606086613bbf565b602785525f51602061514a5f395f51905f526020860152660819985a5b195960ca1b6040860152602081519101845af46127d6613fa9565b91614f50565b5080f35b506001612780565b60405162461bcd60e51b815260206004820152602960248201525f51602061512a5f395f51905f526044820152681a58589b195555525160ba1b6064820152608490fd5b9091506020813d602011612858575b8161284860209383613bbf565b81010312611e4c5751905f6126fa565b3d915061283b565b50346102e85760203660031901126102e85760043581526102286020526040902080546001600160a01b031661289860018301613be2565b916128a560028201613be2565b6128e6600383015492600460018060601b0391015416916128d8604051968796875260a0602088015260a0870190613a92565b908582036040870152613a92565b91606084015260808301520390f35b50346102e857610549610e4061290a36613ab7565b906040519261291a602085613bbf565b868452610e30610e2b8433614330565b50346102e857806003193601126102e8576129436146b3565b6101915460ff8116156129855760ff1916610191557f5db9ee0a495bf2e6ff9c91a7834c1ba4fdd244a5e8aa4e537bd38aeae4b073aa6020604051338152a180f35b60405162461bcd60e51b815260206004820152601460248201527314185d5cd8589b194e881b9bdd081c185d5cd95960621b6044820152606490fd5b50346102e857806003193601126102e857610234546040516001600160a01b039091168152602090f35b50346102e85760203660031901126102e857612a05613a45565b612a3e7f00000000000000000000000000000000000000000000000000000000000000006001600160a01b031661268a30821415614064565b612a466145b4565b602090604051612a568382613bbf565b83815282810190601f1984013683375f51602061500a5f395f51905f525460ff1615612a885750506105499150614b94565b6040516352d1902d60e01b81529192916001600160a01b038316908581600481855afa879181612bfc575b50612b015760405162461bcd60e51b815260048101879052602e60248201525f51602061516a5f395f51905f5260448201526d6f6e206973206e6f74205555505360901b6064820152608490fd5b9394937fc9f76b5ec45e5cdef99837d7b6d2467235c1df8933c8ca56df5c35afa2c7d44401612bb857908591612b3684614b94565b5f5160206150ca5f395f51905f528380a2805115801590612bb1575b612b5f575b505050505080f35b612ba69482915f51602061514a5f395f51905f5260405196612b82606089613bbf565b60278852870152660819985a5b195960ca1b60408701525190845af46127d6613fa9565b505f80808381612b57565b5081612b52565b60405162461bcd60e51b815260048101859052602960248201525f51602061512a5f395f51905f526044820152681a58589b195555525160ba1b6064820152608490fd5b9091508681813d8311612c28575b612c148183613bbf565b81010312612c245751905f612ab3565b8780fd5b503d612c0a565b50346102e85760403660031901126102e857612c49613a5b565b336001600160a01b03821603612c655761054990600435614752565b60405162461bcd60e51b815260206004820152602f60248201527f416363657373436f6e74726f6c3a2063616e206f6e6c792072656e6f756e636560448201526e103937b632b9903337b91039b2b63360891b6064820152608490fd5b50346102e85760403660031901126102e857600435612cdf613a5b565b90612cec61053f82613eaa565b80835261012d6020526040832060018060a01b0383165f5260205260ff60405f20541615612d18578280f35b80835261012d602090815260408085206001600160a01b03949094165f81815294909252909220805460ff191660011790553391905f516020614fea5f395f51905f528480a45f808280f35b5060203660031901126133e557600435612d7c614517565b612d8461455c565b805f52610229602052612d9d60ff60405f205416613ebd565b805f5261022a60205260405f205434106133fd57612dba816141fa565b815f5261022a60205260405f205490612dd48333836143a5565b60058202828104600514831517156133e95760649004612df48184613ef6565b610235549092906001600160a01b03168061332e575b506102365486906001600160a01b0316801515806132c3575b612f22575b50808080612ea6948982526102296020526040822060ff19815416905589825261022a602052816040812055612e5d8a614a15565b5089825261022e602052612e7360408320613f53565b612e91828080808b60018060a01b0361023354165af161170c613fa9565b6001600160a01b031696875af161171d613fa9565b60018060a01b0361023354169060405190815260406020820152600a604082015269544f4b454e5f53414c4560b01b60608201525f5160206150aa5f395f51905f5260803392a36040519182527fa8a7473f10e62cf9687e243de1c3ac8b3cbc3dd04b96826beb3a65b59538581460203393a4600161015f5580f35b604051631b0a264d60e11b8152336004820152909150602081602481855afa9081156132b8578891613276575b50610234546001600160a01b0316612710898261316a575b5061ffff91501690816005026005810483036131565761271090049180600a0290600a82040361315657906127108a9493920492803b15610e45578460405180926316bc091360e21b8252818381612fc3898960048401613f10565b03925af1908115613136578591613141575b5050610236546001600160a01b0316803b15610e4557846040518092636084503f60e11b825281838161300c8a3360048401613b07565b03925af1908115613136578591613121575b5050610235546001600160a01b0316918261303c575b505050612e28565b823b15610e45576130669285928360405180968195829463d0654f3560e01b845260048401613f10565b03925af1908115613116578391613101575b5050610235546001600160a01b031690813b156105ba57829160a48392604051948593849263d0654f3560e01b8452336004850152602484015260606044840152600e60648401526d524546455252414c5f424f4e555360901b60848401525af18015611176576130ec575b808080613034565b6130f7828092613bbf565b6102e8575f6130e4565b8161310b91613bbf565b61118157815f613078565b6040513d85823e3d90fd5b8161312b91613bbf565b61117257835f61301e565b6040513d87823e3d90fd5b8161314b91613bbf565b61117257835f612fd5565b634e487b7160e01b8a52601160045260248afd5b604051634d73ca5f60e11b81526001600160a01b038516600482015292839060249082905afa8a818c926131cf575b61ffff94506131ab575b505089612f67565b806131c4575b6131bc575b806131a3565b90505f6131b6565b5082811615156131b1565b9150503d808c853e6131e18185613bbf565b830192606081850312613272576131f781613f03565b60208201519161ffff8316830361326e576040810151906001600160401b03821161326a57019480601f8701121561326e57855161323481613c82565b916132426040519384613bbf565b8183526020828901011161326a5761ffff9660208061326394019101613a71565b9091613199565b8e80fd5b8d80fd5b8b80fd5b90506020813d6020116132b0575b8161329160209383613bbf565b81010312612c2457516001600160a01b0381168103612c24575f612f4f565b3d9150613284565b6040513d8a823e3d90fd5b50604051631be0d12160e01b8152336004820152602081602481855afa9081156131165783916132f4575b50612e23565b90506020813d602011613326575b8161330f60209383613bbf565b810103126105ba5761332090613f03565b5f6132ee565b3d9150613302565b803b156133e557604051638efa571f60e01b81526001600160a01b0383166004820152905f908290602490829084905af180156133da576133c5575b506102355486906001600160a01b0316803b1561118157818091602460405180948193634fbf879360e01b83523360048401525af18015611176576133b0575b50612e0a565b816133ba91613bbf565b611e4c57855f6133aa565b6133d29196505f90613bbf565b5f945f61336a565b6040513d5f823e3d90fd5b5f80fd5b634e487b7160e01b5f52601160045260245ffd5b60405162461bcd60e51b8152602060048201526014602482015273125b9cdd59999a58da595b9d081c185e5b595b9d60621b6044820152606490fd5b346133e55761344736613af1565b905f52606660205260405f20906040519161346183613ba4565b546001600160a01b03811680845260a09190911c6020840152156134c1575b60208201516001600160601b031681810291801590830490911417156133e95790516040519182916105a2916127109004906001600160a01b031683613b07565b90506040516134cf81613ba4565b6065546001600160a01b038116825260a01c602082015290613480565b346133e55760203660031901126133e557602061350a600435613eaa565b604051908152f35b346133e55761352036613af1565b613528614517565b613534610f53836141fa565b61353f811515613e6e565b815f5261022960205260405f20600160ff19825416179055815f5261022a6020528060405f205561356f82614950565b506040519081527f5dc96537cbae524775a674b6a810d9a1ba04a9e279f172d156b352151394677a60203392a3005b346133e5576135c26135af36613ab7565b916135bd610e2b8433614330565b6143a5565b005b346133e5575f3660031901126133e557602060405160058152f35b346133e55760403660031901126133e5576135f8613a45565b602435906001600160a01b0361360d836141fa565b6001600160a01b039092169116818114613716578033149081156136f2575b5015613687575f828152609b6020526040902080546001600160a01b031916821790556001600160a01b03613660836141fa565b167f8c5be1e5ebec7d5bd14f71427d1e84f3dd0314c0f7b2291e5b200ac8c7c3b9255f80a4005b60405162461bcd60e51b815260206004820152603d60248201527f4552433732313a20617070726f76652063616c6c6572206973206e6f7420746f60448201527f6b656e206f776e6572206f7220617070726f76656420666f7220616c6c0000006064820152608490fd5b5f908152609c6020908152604080832033845290915290205460ff1690508361362c565b60405162461bcd60e51b815260206004820152602160248201527f4552433732313a20617070726f76616c20746f2063757272656e74206f776e656044820152603960f91b6064820152608490fd5b346133e55760203660031901126133e557602061211f600435613da9565b346133e5575f3660031901126133e5576040515f6097546137a381613b22565b808452906001811690811561381657506001146137cb575b6105a28361058e81850382613bbf565b60975f9081525f51602061502a5f395f51905f52939250905b8082106137fc5750909150810160200161058e6137bb565b9192600181602092548385880101520191019092916137e4565b60ff191660208086019190915291151560051b8401909101915061058e90506137bb565b346133e55760203660031901126133e55760043563ffffffff60e01b81168091036133e557602090637965db0b60e01b811490811561387f575b506040519015158152f35b632483248360e11b811491508115613899575b5082613874565b6380ac58cd60e01b8114915081156138e5575b81156138ba575b5082613892565b63152a902d60e11b8114915081156138d4575b50826138b3565b6301ffc9a760e01b149050826138cd565b635b5e139f60e01b811491506138ac565b346133e55760203660031901126133e5576001600160a01b03613917613a45565b16805f5261023060205260405f205461392f81613d63565b915f5b82811061394757604051806105a28682613a0c565b600190825f526102306020526139608160405f20613d37565b90549060031b1c6139718287613d95565b5201613932565b346133e5575f3660031901126133e5576102315461399581613d63565b905f61023154905b8281106139b257604051806105a28682613a0c565b818110156139f8576102315f527fae55bd7d7ac199ab94a59019d11e8ea53916adefebcd74fd08d32115dd445d10810154600191906139f18287613d95565b520161399d565b634e487b7160e01b5f52603260045260245ffd5b60206040818301928281528451809452019201905f5b818110613a2f5750505090565b8251845260209384019390920191600101613a22565b600435906001600160a01b03821682036133e557565b602435906001600160a01b03821682036133e557565b5f5b838110613a825750505f910152565b8181015183820152602001613a73565b90602091613aab81518092818552858086019101613a71565b601f01601f1916010190565b60609060031901126133e5576004356001600160a01b03811681036133e557906024356001600160a01b03811681036133e5579060443590565b60409060031901126133e5576004359060243590565b6001600160a01b039091168152602081019190915260400190565b90600182811c92168015613b50575b6020831014613b3c57565b634e487b7160e01b5f52602260045260245ffd5b91607f1691613b31565b608081019081106001600160401b03821117613b7557604052565b634e487b7160e01b5f52604160045260245ffd5b60a081019081106001600160401b03821117613b7557604052565b604081019081106001600160401b03821117613b7557604052565b601f909101601f19168101906001600160401b03821190821017613b7557604052565b9060405191825f825492613bf584613b22565b8084529360018116908115613c605750600114613c1c575b50613c1a92500383613bbf565b565b90505f9291925260205f20905f915b818310613c44575050906020613c1a928201015f613c0d565b6020919350806001915483858901015201910190918492613c2b565b905060209250613c1a94915060ff191682840152151560051b8201015f613c0d565b6001600160401b038111613b7557601f01601f191660200190565b929192613ca982613c82565b91613cb76040519384613bbf565b8294818452818301116133e5578281602093845f960137010152565b9080601f830112156133e557816020613cee93359101613c9d565b90565b80548210156139f8575f5260205f209060021b01905f90565b9181601f840112156133e5578235916001600160401b0383116133e557602083818601950101116133e557565b80548210156139f8575f5260205f2001905f90565b6001600160401b038111613b755760051b60200190565b90613d6d82613d4c565b613d7a6040519182613bbf565b8281528092613d8b601f1991613d4c565b0190602036910137565b80518210156139f85760209160051b010190565b613dba613db5826147d5565b6141b3565b5f908152609b60205260409020546001600160a01b031690565b15613ddb57565b60405162461bcd60e51b815260206004820152602d60248201527f4552433732313a2063616c6c6572206973206e6f7420746f6b656e206f776e6560448201526c1c881bdc88185c1c1c9bdd9959609a1b6064820152608490fd5b15613e3d57565b60405162461bcd60e51b81526020600482015260096024820152682737ba1037bbb732b960b91b6044820152606490fd5b15613e7557565b60405162461bcd60e51b815260206004820152600d60248201526c496e76616c696420707269636560981b6044820152606490fd5b5f5261012d602052600160405f20015490565b15613ec457565b60405162461bcd60e51b815260206004820152600a602482015269139bdd081b1a5cdd195960b21b6044820152606490fd5b919082039182116133e957565b519081151582036133e557565b909160a092600180851b031682526020820152606060408201526015606082015274524546455252414c5f4e46545f505552434841534560581b60808201520190565b8054905f815581613f62575050565b6001600160fe1b03821682036133e9575f5260205f209060021b8101905b818110613f8b575050565b6004905f81555f60018201555f60028201555f600382015501613f80565b3d15613fd3573d90613fba82613c82565b91613fc86040519384613bbf565b82523d5f602084013e565b606090565b15613fdf57565b60405162461bcd60e51b8152602060048201526018602482015277151c99585cdd5c9e481d1c985b9cd9995c8819985a5b195960421b6044820152606490fd5b1561402657565b60405162461bcd60e51b815260206004820152601660248201527514d95b1b195c881d1c985b9cd9995c8819985a5b195960521b6044820152606490fd5b1561406b57565b60405162461bcd60e51b815260206004820152602c60248201525f51602061504a5f395f51905f5260448201526b19195b1959d85d1958d85b1b60a21b6064820152608490fd5b156140b957565b60405162461bcd60e51b815260206004820152602c60248201525f51602061504a5f395f51905f5260448201526b6163746976652070726f787960a01b6064820152608490fd5b1561410757565b60405162461bcd60e51b815260206004820152600a6024820152694e6f742065786973747360b01b6044820152606490fd5b1561414057565b60405162461bcd60e51b815260206004820152600f60248201526e496e76616c6964206164647265737360881b6044820152606490fd5b1561417e57565b60405162461bcd60e51b815260206004820152600d60248201526c24b73b30b634b21037b33332b960991b6044820152606490fd5b156141ba57565b60405162461bcd60e51b8152602060048201526018602482015277115490cdcc8c4e881a5b9d985b1a59081d1bdad95b88125160421b6044820152606490fd5b5f908152609960205260409020546001600160a01b0316613cee8115156141b3565b1561422357565b60405162461bcd60e51b815260206004820152601260248201527113919508191bd95cc81b9bdd08195e1a5cdd60721b6044820152606490fd5b601f821161426a57505050565b5f5260205f20906020601f840160051c830193106142a2575b601f0160051c01905b818110614297575050565b5f815560010161428c565b9091508190614283565b8160011b915f199060031b1c19161790565b90918060409360208452816020850152848401375f828201840152601f01601f1916010190565b906040516142f281613b5a565b82546001600160a01b0316815260018301546020820152600283015460ff1660408201526003909201546060830152565b919082018092116133e957565b906001600160a01b03614342826141fa565b6001600160a01b0390931692168281149291908315614382575b50821561436857505090565b9091506001600160a01b039061437d90613da9565b161490565b9092505f52609c60205260405f20815f5260205260ff60405f205416915f61435c565b6001600160a01b039091169081156144d2576143d76143c3846141fa565b6001600160a01b03928316921682146148f6565b80614498575b81614464575b6143ff816001600160a01b036143f8866141fa565b16146148f6565b5f838152609b6020908152604080832080546001600160a01b0319908116909155848452609a835281842080545f1901905585845281842080546001019055868452609990925282208054909116841790555f5160206150ea5f395f51905f529080a4565b5f5b6001811061447457506143e3565b600190835f5261022f60205261449160405f20611dc58388614323565b5001614466565b5f5b600181106144a857506143dd565b600190825f5261022f6020526144cb60405f206144c58388614323565b90614ae3565b500161449a565b60405162461bcd60e51b815260206004820152601f60248201527f43616e6e6f74207472616e7366657220746f207a65726f2061646472657373006044820152606490fd5b60ff610191541661452457565b60405162461bcd60e51b815260206004820152601060248201526f14185d5cd8589b194e881c185d5cd95960821b6044820152606490fd5b600261015f541461456f57600261015f55565b60405162461bcd60e51b815260206004820152601f60248201527f5265656e7472616e637947756172643a207265656e7472616e742063616c6c006044820152606490fd5b335f9081527fe8b47e42cab78272d650e16c902ae501350b5785a88ad6cc35425628c6398d9a602052604090205460ff16156145ec57565b6146af6145f833614d7d565b61468f60116146135f51602061506a5f395f51905f52614e63565b92603760405194859276020b1b1b2b9b9a1b7b73a3937b61d1030b1b1b7bab73a1604d1b602085015261464f8151809260208688019101613a71565b83017001034b99036b4b9b9b4b733903937b6329607d1b8382015261467e825180936020604885019101613a71565b01010301601f198101835282613bbf565b60405162461bcd60e51b8152602060048201529182916024830190613a92565b0390fd5b335f9081527f7ed425ae1d300634375f848c08e126f7f779b9d472950d746ef0d3e26602551d602052604090205460ff16156146eb57565b6146af6146f733614d7d565b61468f60116146135f51602061510a5f395f51905f52614e63565b5f81815261012d6020908152604080832033845290915290205460ff16156147375750565b6146af9061468f601161461361474c33614d7d565b93614e63565b805f5261012d60205260405f2060018060a01b0383165f5260205260ff60405f20541661477d575050565b5f81815261012d602090815260408083206001600160a01b0395909516808452949091528120805460ff19169055339291907ff6391f5c32d9c69d2a47ea670b442974b53935d1edc7fd64eb21e047a839171b9080a4565b5f908152609960205260409020546001600160a01b0316151590565b60809060208152603260208201527f4552433732313a207472616e7366657220746f206e6f6e20455243373231526560408201527131b2b4bb32b91034b6b83632b6b2b73a32b960711b60608201520190565b1561484b57565b60405162461bcd60e51b8152806146af600482016147f1565b1561486b57565b60405162461bcd60e51b815260206004820152602b60248201527f496e697469616c697a61626c653a20636f6e7472616374206973206e6f74206960448201526a6e697469616c697a696e6760a81b6064820152608490fd5b6148d0613db5826147d5565b5f5260c96020526148e360405f20613be2565b5f6040516148f2602082613bbf565b5290565b156148fd57565b60405162461bcd60e51b815260206004820152602560248201527f4552433732313a207472616e736665722066726f6d20696e636f72726563742060448201526437bbb732b960d91b6064820152608490fd5b805f5261023260205260405f2054155f146149bc5761023154600160401b811015613b75576149a361498d82600185940161023155610231613d37565b819391549060031b91821b915f19901b19161790565b905561023154905f5261023260205260405f2055600190565b505f90565b6001810190825f528160205260405f2054155f14614a0e578054600160401b811015613b75576149fb61498d826001879401855584613d37565b905554915f5260205260405f2055600190565b5050505f90565b5f81815261023260205260409020548015614add575f1981018181116133e957610231545f198101919082116133e957808203614aa2575b505050610231548015614a8e575f1901614a6981610231613d37565b8154905f199060031b1b19169055610231555f526102326020525f6040812055600190565b634e487b7160e01b5f52603160045260245ffd5b614ac6614ab461498d93610231613d37565b90549060031b1c928392610231613d37565b90555f5261023260205260405f20555f8080614a4d565b50505f90565b906001820191815f528260205260405f20548015155f14614b8c575f1981018181116133e95782545f198101919082116133e957808203614b57575b50505080548015614a8e575f190190614b388282613d37565b8154905f199060031b1b19169055555f526020525f6040812055600190565b614b77614b6761498d9386613d37565b90549060031b1c92839286613d37565b90555f528360205260405f20555f8080614b1f565b505050505f90565b803b15614bc9575f51602061508a5f395f51905f5280546001600160a01b0319166001600160a01b0392909216919091179055565b60405162461bcd60e51b815260206004820152602d60248201527f455243313936373a206e657720696d706c656d656e746174696f6e206973206e60448201526c1bdd08184818dbdb9d1c9858dd609a1b6064820152608490fd5b91823b15614d0c57614c69926020925f604051809681958294630a85bd0160e11b84523360048501528460248501526044840152608060648401526084830190613a92565b03926001600160a01b03165af15f9181614cc7575b50614cb157614c8b613fa9565b80519081614cac5760405162461bcd60e51b8152806146af600482016147f1565b602001fd5b6001600160e01b031916630a85bd0160e11b1490565b9091506020813d602011614d04575b81614ce360209383613bbf565b810103126133e557516001600160e01b0319811681036133e557905f614c7e565b3d9150614cd6565b505050600190565b919290803b15614d6357614c69935f60209460405196879586948593630a85bd0160e11b855233600486015260018060a01b031660248501526044840152608060648401526084830190613a92565b50505050600190565b9081518110156139f8570160200190565b614d87602a613c82565b90614d956040519283613bbf565b602a8252614da3602a613c82565b6020830190601f19013682378251156139f857603090538151600110156139f8576078602183015360295b60018111614e225750614dde5790565b606460405162461bcd60e51b815260206004820152602060248201527f537472696e67733a20686578206c656e67746820696e73756666696369656e746044820152fd5b90600f811660108110156139f8576f181899199a1a9b1b9c1cb0b131b232b360811b901a614e508385614d6c565b5360041c9080156133e9575f1901614dce565b614e6d6042613c82565b90614e7b6040519283613bbf565b60428252614e896042613c82565b6020830190601f19013682378251156139f857603090538151600110156139f8576078602183015360415b60018111614ec45750614dde5790565b90600f811660108110156139f8576f181899199a1a9b1b9c1cb0b131b232b360811b901a614ef28385614d6c565b5360041c9080156133e9575f1901614eb4565b15614f0c57565b60405162461bcd60e51b815260206004820152601c60248201527b115490cdcc8c4e881d1bdad95b88185b1c9958591e481b5a5b9d195960221b6044820152606490fd5b91929015614fb25750815115614f64575090565b3b15614f6d5790565b60405162461bcd60e51b815260206004820152601d60248201527f416464726573733a2063616c6c20746f206e6f6e2d636f6e74726163740000006044820152606490fd5b825190915015614fc55750805190602001fd5b60405162461bcd60e51b8152602060048201529081906146af906024830190613a9256fe2f8788117e7eff1d82e926ec794901d17c78024a50270940304540a733656f0d4910fdfa16fed3260ed0e7147f7cc6da11a60208b5b9406d12a635614ffd9143354a83ed9988f79f6038d4c7a7dadbad8af32f4ad6df893e0e5807a1b1944ff946756e6374696f6e206d7573742062652063616c6c6564207468726f75676820189ab7a9244df0848122154315af71fe140f3db0fe014031783b0946b8c9d2e3360894a13ba1a3210667c828492db98dca3e2076cc3735a920a3ca505d382bbc21ef4c3fb7c1ca86841fe7b11bbb71ad12bd4b7bb3205924ec33c681c9d47c3fbc7cd75a20ee27fd9adebab32041f755214dbc6bffa90cc0225b39da2e5c2d3bddf252ad1be2c89b69c2b068fc378daa952ba7f163c4a11628f55a4df523b3efa49807205ce4d355092ef5a8a18f56e8913cf4a201fbe287825b095693c2177545524331393637557067726164653a20756e737570706f727465642070726f78416464726573733a206c6f772d6c6576656c2064656c65676174652063616c6c45524331393637557067726164653a206e657720696d706c656d656e746174692237a976fa961f5921fd19f2b03c925c725d77b20ce8f790c19709c03de4d814a264697066735822122000f75b7733e0b958292e6a78e2b982b4bad2ab53f890348f34892bdb3fa325a564736f6c634300081c0033",
  "linkReferences": {},
  "deployedLinkReferences": {}
}