{
  "_format": "hh-sol-artifact-1",
  "contractName": "GameifiedMarketplaceCoreV1",
  "sourceName": "contracts/Marketplace/GameifiedMarketplaceCoreV1.sol",
  "abi": [
    {
      "inputs": [],
      "stateMutability": "nonpayable",
      "type": "constructor"
    },
    {
      "inputs": [],
      "name": "AlreadyHasBadge",
      "type": "error"
    },
    {
      "inputs": [],
      "name": "BadgeSoulbound",
      "type": "error"
    },
    {
      "inputs": [],
      "name": "CollaboratorFailed",
      "type": "error"
    },
    {
      "inputs": [],
      "name": "FallbackFailed",
      "type": "error"
    },
    {
      "inputs": [],
      "name": "InsufficientPayment",
      "type": "error"
    },
    {
      "inputs": [],
      "name": "InvalidAddress",
      "type": "error"
    },
    {
      "inputs": [],
      "name": "InvalidCommentLength",
      "type": "error"
    },
    {
      "inputs": [],
      "name": "InvalidCount",
      "type": "error"
    },
    {
      "inputs": [],
      "name": "InvalidOffer",
      "type": "error"
    },
    {
      "inputs": [],
      "name": "InvalidOfferExpiry",
      "type": "error"
    },
    {
      "inputs": [],
      "name": "InvalidOfferId",
      "type": "error"
    },
    {
      "inputs": [],
      "name": "InvalidPrice",
      "type": "error"
    },
    {
      "inputs": [],
      "name": "InvalidRoyalty",
      "type": "error"
    },
    {
      "inputs": [],
      "name": "NoOffersAvailable",
      "type": "error"
    },
    {
      "inputs": [],
      "name": "NotBadge",
      "type": "error"
    },
    {
      "inputs": [],
      "name": "NotExists",
      "type": "error"
    },
    {
      "inputs": [],
      "name": "NotOfferor",
      "type": "error"
    },
    {
      "inputs": [],
      "name": "NotTokenOwner",
      "type": "error"
    },
    {
      "inputs": [],
      "name": "OfferExpired",
      "type": "error"
    },
    {
      "inputs": [],
      "name": "RefundFailed",
      "type": "error"
    },
    {
      "inputs": [],
      "name": "SellerFailed",
      "type": "error"
    },
    {
      "inputs": [],
      "name": "TokenNotFound",
      "type": "error"
    },
    {
      "inputs": [],
      "name": "TokenNotListed",
      "type": "error"
    },
    {
      "inputs": [],
      "name": "TooManyComments",
      "type": "error"
    },
    {
      "inputs": [],
      "name": "TreasuryFailed",
      "type": "error"
    },
    {
      "inputs": [],
      "name": "XPOverflow",
      "type": "error"
    },
    {
      "anonymous": false,
      "inputs": [
        {
          "indexed": false,
          "internalType": "address",
          "name": "previousAdmin",
          "type": "address"
        },
        {
          "indexed": false,
          "internalType": "address",
          "name": "newAdmin",
          "type": "address"
        }
      ],
      "name": "AdminChanged",
      "type": "event"
    },
    {
      "anonymous": false,
      "inputs": [
        {
          "indexed": true,
          "internalType": "address",
          "name": "owner",
          "type": "address"
        },
        {
          "indexed": true,
          "internalType": "address",
          "name": "approved",
          "type": "address"
        },
        {
          "indexed": true,
          "internalType": "uint256",
          "name": "tokenId",
          "type": "uint256"
        }
      ],
      "name": "Approval",
      "type": "event"
    },
    {
      "anonymous": false,
      "inputs": [
        {
          "indexed": true,
          "internalType": "address",
          "name": "owner",
          "type": "address"
        },
        {
          "indexed": true,
          "internalType": "address",
          "name": "operator",
          "type": "address"
        },
        {
          "indexed": false,
          "internalType": "bool",
          "name": "approved",
          "type": "bool"
        }
      ],
      "name": "ApprovalForAll",
      "type": "event"
    },
    {
      "anonymous": false,
      "inputs": [
        {
          "indexed": false,
          "internalType": "uint256",
          "name": "_fromTokenId",
          "type": "uint256"
        },
        {
          "indexed": false,
          "internalType": "uint256",
          "name": "_toTokenId",
          "type": "uint256"
        }
      ],
      "name": "BatchMetadataUpdate",
      "type": "event"
    },
    {
      "anonymous": false,
      "inputs": [
        {
          "indexed": true,
          "internalType": "address",
          "name": "beacon",
          "type": "address"
        }
      ],
      "name": "BeaconUpgraded",
      "type": "event"
    },
    {
      "anonymous": false,
      "inputs": [
        {
          "indexed": true,
          "internalType": "address",
          "name": "user",
          "type": "address"
        },
        {
          "indexed": true,
          "internalType": "uint256",
          "name": "tokenId",
          "type": "uint256"
        },
        {
          "indexed": false,
          "internalType": "string",
          "name": "comment",
          "type": "string"
        }
      ],
      "name": "CommentAdded",
      "type": "event"
    },
    {
      "anonymous": false,
      "inputs": [
        {
          "indexed": false,
          "internalType": "uint8",
          "name": "version",
          "type": "uint8"
        }
      ],
      "name": "Initialized",
      "type": "event"
    },
    {
      "anonymous": false,
      "inputs": [
        {
          "indexed": true,
          "internalType": "address",
          "name": "user",
          "type": "address"
        },
        {
          "indexed": false,
          "internalType": "uint8",
          "name": "newLevel",
          "type": "uint8"
        }
      ],
      "name": "LevelUp",
      "type": "event"
    },
    {
      "anonymous": false,
      "inputs": [
        {
          "indexed": true,
          "internalType": "address",
          "name": "user",
          "type": "address"
        },
        {
          "indexed": true,
          "internalType": "uint256",
          "name": "tokenId",
          "type": "uint256"
        },
        {
          "indexed": false,
          "internalType": "bool",
          "name": "liked",
          "type": "bool"
        }
      ],
      "name": "LikeToggled",
      "type": "event"
    },
    {
      "anonymous": false,
      "inputs": [
        {
          "indexed": false,
          "internalType": "uint256",
          "name": "_tokenId",
          "type": "uint256"
        }
      ],
      "name": "MetadataUpdate",
      "type": "event"
    },
    {
      "anonymous": false,
      "inputs": [
        {
          "indexed": true,
          "internalType": "address",
          "name": "seller",
          "type": "address"
        },
        {
          "indexed": true,
          "internalType": "address",
          "name": "buyer",
          "type": "address"
        },
        {
          "indexed": true,
          "internalType": "uint256",
          "name": "tokenId",
          "type": "uint256"
        },
        {
          "indexed": false,
          "internalType": "uint256",
          "name": "amount",
          "type": "uint256"
        }
      ],
      "name": "OfferAccepted",
      "type": "event"
    },
    {
      "anonymous": false,
      "inputs": [
        {
          "indexed": true,
          "internalType": "address",
          "name": "offeror",
          "type": "address"
        },
        {
          "indexed": true,
          "internalType": "uint256",
          "name": "tokenId",
          "type": "uint256"
        },
        {
          "indexed": false,
          "internalType": "uint256",
          "name": "amount",
          "type": "uint256"
        }
      ],
      "name": "OfferMade",
      "type": "event"
    },
    {
      "anonymous": false,
      "inputs": [
        {
          "indexed": false,
          "internalType": "address",
          "name": "account",
          "type": "address"
        }
      ],
      "name": "Paused",
      "type": "event"
    },
    {
      "anonymous": false,
      "inputs": [
        {
          "indexed": true,
          "internalType": "address",
          "name": "from",
          "type": "address"
        },
        {
          "indexed": false,
          "internalType": "uint256",
          "name": "amount",
          "type": "uint256"
        },
        {
          "indexed": true,
          "internalType": "address",
          "name": "to",
          "type": "address"
        },
        {
          "indexed": false,
          "internalType": "string",
          "name": "operation",
          "type": "string"
        }
      ],
      "name": "PlatformFeeTransferred",
      "type": "event"
    },
    {
      "anonymous": false,
      "inputs": [
        {
          "indexed": true,
          "internalType": "address",
          "name": "seller",
          "type": "address"
        },
        {
          "indexed": true,
          "internalType": "uint256",
          "name": "tokenId",
          "type": "uint256"
        },
        {
          "indexed": false,
          "internalType": "uint256",
          "name": "newPrice",
          "type": "uint256"
        }
      ],
      "name": "PriceUpdated",
      "type": "event"
    },
    {
      "anonymous": false,
      "inputs": [
        {
          "indexed": true,
          "internalType": "address",
          "name": "oldAddress",
          "type": "address"
        },
        {
          "indexed": true,
          "internalType": "address",
          "name": "newAddress",
          "type": "address"
        }
      ],
      "name": "QuestsContractUpdated",
      "type": "event"
    },
    {
      "anonymous": false,
      "inputs": [
        {
          "indexed": true,
          "internalType": "bytes32",
          "name": "role",
          "type": "bytes32"
        },
        {
          "indexed": true,
          "internalType": "bytes32",
          "name": "previousAdminRole",
          "type": "bytes32"
        },
        {
          "indexed": true,
          "internalType": "bytes32",
          "name": "newAdminRole",
          "type": "bytes32"
        }
      ],
      "name": "RoleAdminChanged",
      "type": "event"
    },
    {
      "anonymous": false,
      "inputs": [
        {
          "indexed": true,
          "internalType": "bytes32",
          "name": "role",
          "type": "bytes32"
        },
        {
          "indexed": true,
          "internalType": "address",
          "name": "account",
          "type": "address"
        },
        {
          "indexed": true,
          "internalType": "address",
          "name": "sender",
          "type": "address"
        }
      ],
      "name": "RoleGranted",
      "type": "event"
    },
    {
      "anonymous": false,
      "inputs": [
        {
          "indexed": true,
          "internalType": "bytes32",
          "name": "role",
          "type": "bytes32"
        },
        {
          "indexed": true,
          "internalType": "address",
          "name": "account",
          "type": "address"
        },
        {
          "indexed": true,
          "internalType": "address",
          "name": "sender",
          "type": "address"
        }
      ],
      "name": "RoleRevoked",
      "type": "event"
    },
    {
      "anonymous": false,
      "inputs": [
        {
          "indexed": true,
          "internalType": "address",
          "name": "oldAddress",
          "type": "address"
        },
        {
          "indexed": true,
          "internalType": "address",
          "name": "newAddress",
          "type": "address"
        }
      ],
      "name": "SkillsContractUpdated",
      "type": "event"
    },
    {
      "anonymous": false,
      "inputs": [
        {
          "indexed": true,
          "internalType": "address",
          "name": "oldAddress",
          "type": "address"
        },
        {
          "indexed": true,
          "internalType": "address",
          "name": "newAddress",
          "type": "address"
        }
      ],
      "name": "StakingContractUpdated",
      "type": "event"
    },
    {
      "anonymous": false,
      "inputs": [
        {
          "indexed": true,
          "internalType": "address",
          "name": "creator",
          "type": "address"
        },
        {
          "indexed": true,
          "internalType": "uint256",
          "name": "tokenId",
          "type": "uint256"
        },
        {
          "indexed": false,
          "internalType": "string",
          "name": "uri",
          "type": "string"
        }
      ],
      "name": "TokenCreated",
      "type": "event"
    },
    {
      "anonymous": false,
      "inputs": [
        {
          "indexed": true,
          "internalType": "address",
          "name": "seller",
          "type": "address"
        },
        {
          "indexed": true,
          "internalType": "uint256",
          "name": "tokenId",
          "type": "uint256"
        },
        {
          "indexed": false,
          "internalType": "uint256",
          "name": "price",
          "type": "uint256"
        }
      ],
      "name": "TokenListed",
      "type": "event"
    },
    {
      "anonymous": false,
      "inputs": [
        {
          "indexed": true,
          "internalType": "address",
          "name": "seller",
          "type": "address"
        },
        {
          "indexed": true,
          "internalType": "address",
          "name": "buyer",
          "type": "address"
        },
        {
          "indexed": true,
          "internalType": "uint256",
          "name": "tokenId",
          "type": "uint256"
        },
        {
          "indexed": false,
          "internalType": "uint256",
          "name": "price",
          "type": "uint256"
        }
      ],
      "name": "TokenSold",
      "type": "event"
    },
    {
      "anonymous": false,
      "inputs": [
        {
          "indexed": true,
          "internalType": "address",
          "name": "seller",
          "type": "address"
        },
        {
          "indexed": true,
          "internalType": "uint256",
          "name": "tokenId",
          "type": "uint256"
        }
      ],
      "name": "TokenUnlisted",
      "type": "event"
    },
    {
      "anonymous": false,
      "inputs": [
        {
          "indexed": true,
          "internalType": "address",
          "name": "from",
          "type": "address"
        },
        {
          "indexed": true,
          "internalType": "address",
          "name": "to",
          "type": "address"
        },
        {
          "indexed": true,
          "internalType": "uint256",
          "name": "tokenId",
          "type": "uint256"
        }
      ],
      "name": "Transfer",
      "type": "event"
    },
    {
      "anonymous": false,
      "inputs": [
        {
          "indexed": true,
          "internalType": "address",
          "name": "newManager",
          "type": "address"
        }
      ],
      "name": "TreasuryManagerUpdated",
      "type": "event"
    },
    {
      "anonymous": false,
      "inputs": [
        {
          "indexed": false,
          "internalType": "address",
          "name": "account",
          "type": "address"
        }
      ],
      "name": "Unpaused",
      "type": "event"
    },
    {
      "anonymous": false,
      "inputs": [
        {
          "indexed": true,
          "internalType": "address",
          "name": "implementation",
          "type": "address"
        }
      ],
      "name": "Upgraded",
      "type": "event"
    },
    {
      "anonymous": false,
      "inputs": [
        {
          "indexed": true,
          "internalType": "address",
          "name": "user",
          "type": "address"
        },
        {
          "indexed": false,
          "internalType": "uint256",
          "name": "amount",
          "type": "uint256"
        },
        {
          "indexed": false,
          "internalType": "string",
          "name": "reason",
          "type": "string"
        }
      ],
      "name": "XPGained",
      "type": "event"
    },
    {
      "inputs": [],
      "name": "ADMIN_ROLE",
      "outputs": [
        {
          "internalType": "bytes32",
          "name": "",
          "type": "bytes32"
        }
      ],
      "stateMutability": "view",
      "type": "function"
    },
    {
      "inputs": [],
      "name": "DEFAULT_ADMIN_ROLE",
      "outputs": [
        {
          "internalType": "bytes32",
          "name": "",
          "type": "bytes32"
        }
      ],
      "stateMutability": "view",
      "type": "function"
    },
    {
      "inputs": [],
      "name": "PLATFORM_FEE_PERCENTAGE",
      "outputs": [
        {
          "internalType": "uint256",
          "name": "",
          "type": "uint256"
        }
      ],
      "stateMutability": "view",
      "type": "function"
    },
    {
      "inputs": [],
      "name": "UPGRADER_ROLE",
      "outputs": [
        {
          "internalType": "bytes32",
          "name": "",
          "type": "bytes32"
        }
      ],
      "stateMutability": "view",
      "type": "function"
    },
    {
      "inputs": [
        {
          "internalType": "uint256",
          "name": "_tokenId",
          "type": "uint256"
        },
        {
          "internalType": "uint256",
          "name": "_offerIndex",
          "type": "uint256"
        }
      ],
      "name": "acceptOffer",
      "outputs": [],
      "stateMutability": "nonpayable",
      "type": "function"
    },
    {
      "inputs": [
        {
          "internalType": "uint256",
          "name": "_tokenId",
          "type": "uint256"
        },
        {
          "internalType": "string",
          "name": "_text",
          "type": "string"
        }
      ],
      "name": "addComment",
      "outputs": [],
      "stateMutability": "nonpayable",
      "type": "function"
    },
    {
      "inputs": [
        {
          "internalType": "address",
          "name": "to",
          "type": "address"
        },
        {
          "internalType": "uint256",
          "name": "tokenId",
          "type": "uint256"
        }
      ],
      "name": "approve",
      "outputs": [],
      "stateMutability": "nonpayable",
      "type": "function"
    },
    {
      "inputs": [
        {
          "internalType": "address",
          "name": "owner",
          "type": "address"
        }
      ],
      "name": "balanceOf",
      "outputs": [
        {
          "internalType": "uint256",
          "name": "",
          "type": "uint256"
        }
      ],
      "stateMutability": "view",
      "type": "function"
    },
    {
      "inputs": [
        {
          "internalType": "uint256",
          "name": "_tokenId",
          "type": "uint256"
        }
      ],
      "name": "burnBadge",
      "outputs": [],
      "stateMutability": "nonpayable",
      "type": "function"
    },
    {
      "inputs": [
        {
          "internalType": "uint256",
          "name": "_tokenId",
          "type": "uint256"
        }
      ],
      "name": "buyToken",
      "outputs": [],
      "stateMutability": "payable",
      "type": "function"
    },
    {
      "inputs": [
        {
          "internalType": "uint256",
          "name": "_tokenId",
          "type": "uint256"
        },
        {
          "internalType": "uint256",
          "name": "_offerIndex",
          "type": "uint256"
        }
      ],
      "name": "cancelOffer",
      "outputs": [],
      "stateMutability": "nonpayable",
      "type": "function"
    },
    {
      "inputs": [],
      "name": "collaboratorRewardsContract",
      "outputs": [
        {
          "internalType": "address",
          "name": "",
          "type": "address"
        }
      ],
      "stateMutability": "view",
      "type": "function"
    },
    {
      "inputs": [
        {
          "internalType": "string",
          "name": "_tokenURI",
          "type": "string"
        },
        {
          "internalType": "string",
          "name": "_category",
          "type": "string"
        },
        {
          "internalType": "uint96",
          "name": "_royaltyPercentage",
          "type": "uint96"
        }
      ],
      "name": "createStandardNFT",
      "outputs": [
        {
          "internalType": "uint256",
          "name": "",
          "type": "uint256"
        }
      ],
      "stateMutability": "nonpayable",
      "type": "function"
    },
    {
      "inputs": [
        {
          "internalType": "string",
          "name": "_tokenURI",
          "type": "string"
        },
        {
          "internalType": "string",
          "name": "_category",
          "type": "string"
        },
        {
          "internalType": "uint96",
          "name": "_royaltyPercentage",
          "type": "uint96"
        },
        {
          "internalType": "uint256",
          "name": "_count",
          "type": "uint256"
        }
      ],
      "name": "createStandardNFTBatch",
      "outputs": [
        {
          "internalType": "uint256[]",
          "name": "",
          "type": "uint256[]"
        }
      ],
      "stateMutability": "nonpayable",
      "type": "function"
    },
    {
      "inputs": [
        {
          "internalType": "uint256",
          "name": "tokenId",
          "type": "uint256"
        }
      ],
      "name": "getApproved",
      "outputs": [
        {
          "internalType": "address",
          "name": "",
          "type": "address"
        }
      ],
      "stateMutability": "view",
      "type": "function"
    },
    {
      "inputs": [],
      "name": "getListedNFTs",
      "outputs": [
        {
          "internalType": "uint256[]",
          "name": "",
          "type": "uint256[]"
        }
      ],
      "stateMutability": "view",
      "type": "function"
    },
    {
      "inputs": [
        {
          "internalType": "uint256",
          "name": "cursor",
          "type": "uint256"
        },
        {
          "internalType": "uint256",
          "name": "size",
          "type": "uint256"
        }
      ],
      "name": "getListedNFTsPage",
      "outputs": [
        {
          "internalType": "uint256[]",
          "name": "tokens",
          "type": "uint256[]"
        },
        {
          "internalType": "uint256",
          "name": "nextCursor",
          "type": "uint256"
        }
      ],
      "stateMutability": "view",
      "type": "function"
    },
    {
      "inputs": [
        {
          "internalType": "uint256",
          "name": "_tokenId",
          "type": "uint256"
        }
      ],
      "name": "getNFTComments",
      "outputs": [
        {
          "internalType": "string[]",
          "name": "",
          "type": "string[]"
        }
      ],
      "stateMutability": "view",
      "type": "function"
    },
    {
      "inputs": [
        {
          "internalType": "uint256",
          "name": "_tokenId",
          "type": "uint256"
        }
      ],
      "name": "getNFTLikeCount",
      "outputs": [
        {
          "internalType": "uint256",
          "name": "",
          "type": "uint256"
        }
      ],
      "stateMutability": "view",
      "type": "function"
    },
    {
      "inputs": [
        {
          "internalType": "uint256",
          "name": "_tokenId",
          "type": "uint256"
        }
      ],
      "name": "getNFTMarketInfo",
      "outputs": [
        {
          "internalType": "address",
          "name": "owner",
          "type": "address"
        },
        {
          "internalType": "bool",
          "name": "isListedStatus",
          "type": "bool"
        },
        {
          "internalType": "uint256",
          "name": "price",
          "type": "uint256"
        }
      ],
      "stateMutability": "view",
      "type": "function"
    },
    {
      "inputs": [
        {
          "internalType": "uint256",
          "name": "_tokenId",
          "type": "uint256"
        }
      ],
      "name": "getNFTMetadata",
      "outputs": [
        {
          "components": [
            {
              "internalType": "address",
              "name": "creator",
              "type": "address"
            },
            {
              "internalType": "string",
              "name": "uri",
              "type": "string"
            },
            {
              "internalType": "string",
              "name": "category",
              "type": "string"
            },
            {
              "internalType": "uint256",
              "name": "createdAt",
              "type": "uint256"
            },
            {
              "internalType": "uint96",
              "name": "royaltyPercentage",
              "type": "uint96"
            }
          ],
          "internalType": "struct GameifiedMarketplaceCoreV1.NFTMetadata",
          "name": "",
          "type": "tuple"
        }
      ],
      "stateMutability": "view",
      "type": "function"
    },
    {
      "inputs": [
        {
          "internalType": "uint256",
          "name": "_tokenId",
          "type": "uint256"
        }
      ],
      "name": "getNFTOffers",
      "outputs": [
        {
          "components": [
            {
              "internalType": "address",
              "name": "offeror",
              "type": "address"
            },
            {
              "internalType": "uint256",
              "name": "amount",
              "type": "uint256"
            },
            {
              "internalType": "uint8",
              "name": "expiresInDays",
              "type": "uint8"
            },
            {
              "internalType": "uint256",
              "name": "timestamp",
              "type": "uint256"
            }
          ],
          "internalType": "struct GameifiedMarketplaceCoreV1.Offer[]",
          "name": "",
          "type": "tuple[]"
        }
      ],
      "stateMutability": "view",
      "type": "function"
    },
    {
      "inputs": [
        {
          "internalType": "bytes32",
          "name": "role",
          "type": "bytes32"
        }
      ],
      "name": "getRoleAdmin",
      "outputs": [
        {
          "internalType": "bytes32",
          "name": "",
          "type": "bytes32"
        }
      ],
      "stateMutability": "view",
      "type": "function"
    },
    {
      "inputs": [
        {
          "internalType": "address",
          "name": "_user",
          "type": "address"
        }
      ],
      "name": "getUserCreatedNFTs",
      "outputs": [
        {
          "internalType": "uint256[]",
          "name": "",
          "type": "uint256[]"
        }
      ],
      "stateMutability": "view",
      "type": "function"
    },
    {
      "inputs": [
        {
          "internalType": "address",
          "name": "_user",
          "type": "address"
        },
        {
          "internalType": "uint256",
          "name": "cursor",
          "type": "uint256"
        },
        {
          "internalType": "uint256",
          "name": "size",
          "type": "uint256"
        }
      ],
      "name": "getUserCreatedNFTsPage",
      "outputs": [
        {
          "internalType": "uint256[]",
          "name": "tokens",
          "type": "uint256[]"
        },
        {
          "internalType": "uint256",
          "name": "nextCursor",
          "type": "uint256"
        }
      ],
      "stateMutability": "view",
      "type": "function"
    },
    {
      "inputs": [
        {
          "internalType": "uint256",
          "name": "_tokenId",
          "type": "uint256"
        },
        {
          "internalType": "address",
          "name": "_user",
          "type": "address"
        }
      ],
      "name": "getUserNFTLike",
      "outputs": [
        {
          "internalType": "bool",
          "name": "",
          "type": "bool"
        }
      ],
      "stateMutability": "view",
      "type": "function"
    },
    {
      "inputs": [
        {
          "internalType": "address",
          "name": "_user",
          "type": "address"
        }
      ],
      "name": "getUserNFTs",
      "outputs": [
        {
          "internalType": "uint256[]",
          "name": "",
          "type": "uint256[]"
        }
      ],
      "stateMutability": "view",
      "type": "function"
    },
    {
      "inputs": [
        {
          "internalType": "address",
          "name": "_user",
          "type": "address"
        }
      ],
      "name": "getUserNFTsDetailed",
      "outputs": [
        {
          "components": [
            {
              "internalType": "address",
              "name": "creator",
              "type": "address"
            },
            {
              "internalType": "string",
              "name": "uri",
              "type": "string"
            },
            {
              "internalType": "string",
              "name": "category",
              "type": "string"
            },
            {
              "internalType": "uint256",
              "name": "createdAt",
              "type": "uint256"
            },
            {
              "internalType": "uint96",
              "name": "royaltyPercentage",
              "type": "uint96"
            }
          ],
          "internalType": "struct GameifiedMarketplaceCoreV1.NFTMetadata[]",
          "name": "",
          "type": "tuple[]"
        }
      ],
      "stateMutability": "view",
      "type": "function"
    },
    {
      "inputs": [
        {
          "internalType": "address",
          "name": "_user",
          "type": "address"
        },
        {
          "internalType": "uint256",
          "name": "cursor",
          "type": "uint256"
        },
        {
          "internalType": "uint256",
          "name": "size",
          "type": "uint256"
        }
      ],
      "name": "getUserNFTsPage",
      "outputs": [
        {
          "internalType": "uint256[]",
          "name": "tokens",
          "type": "uint256[]"
        },
        {
          "internalType": "uint256",
          "name": "nextCursor",
          "type": "uint256"
        }
      ],
      "stateMutability": "view",
      "type": "function"
    },
    {
      "inputs": [
        {
          "internalType": "address",
          "name": "_user",
          "type": "address"
        }
      ],
      "name": "getUserProfile",
      "outputs": [
        {
          "components": [
            {
              "internalType": "uint256",
              "name": "totalXP",
              "type": "uint256"
            },
            {
              "internalType": "uint8",
              "name": "level",
              "type": "uint8"
            },
            {
              "internalType": "uint256",
              "name": "nftsCreated",
              "type": "uint256"
            },
            {
              "internalType": "uint256",
              "name": "nftsOwned",
              "type": "uint256"
            },
            {
              "internalType": "uint32",
              "name": "nftsSold",
              "type": "uint32"
            },
            {
              "internalType": "uint32",
              "name": "nftsBought",
              "type": "uint32"
            }
          ],
          "internalType": "struct GameifiedMarketplaceCoreV1.UserProfile",
          "name": "",
          "type": "tuple"
        }
      ],
      "stateMutability": "view",
      "type": "function"
    },
    {
      "inputs": [
        {
          "internalType": "bytes32",
          "name": "role",
          "type": "bytes32"
        },
        {
          "internalType": "address",
          "name": "account",
          "type": "address"
        }
      ],
      "name": "grantRole",
      "outputs": [],
      "stateMutability": "nonpayable",
      "type": "function"
    },
    {
      "inputs": [
        {
          "internalType": "address",
          "name": "",
          "type": "address"
        }
      ],
      "name": "hasBadge",
      "outputs": [
        {
          "internalType": "bool",
          "name": "",
          "type": "bool"
        }
      ],
      "stateMutability": "view",
      "type": "function"
    },
    {
      "inputs": [
        {
          "internalType": "bytes32",
          "name": "role",
          "type": "bytes32"
        },
        {
          "internalType": "address",
          "name": "account",
          "type": "address"
        }
      ],
      "name": "hasRole",
      "outputs": [
        {
          "internalType": "bool",
          "name": "",
          "type": "bool"
        }
      ],
      "stateMutability": "view",
      "type": "function"
    },
    {
      "inputs": [
        {
          "internalType": "address",
          "name": "_platformTreasury",
          "type": "address"
        }
      ],
      "name": "initialize",
      "outputs": [],
      "stateMutability": "nonpayable",
      "type": "function"
    },
    {
      "inputs": [
        {
          "internalType": "address",
          "name": "owner",
          "type": "address"
        },
        {
          "internalType": "address",
          "name": "operator",
          "type": "address"
        }
      ],
      "name": "isApprovedForAll",
      "outputs": [
        {
          "internalType": "bool",
          "name": "",
          "type": "bool"
        }
      ],
      "stateMutability": "view",
      "type": "function"
    },
    {
      "inputs": [
        {
          "internalType": "uint256",
          "name": "",
          "type": "uint256"
        }
      ],
      "name": "isBadge",
      "outputs": [
        {
          "internalType": "bool",
          "name": "",
          "type": "bool"
        }
      ],
      "stateMutability": "view",
      "type": "function"
    },
    {
      "inputs": [
        {
          "internalType": "uint256",
          "name": "",
          "type": "uint256"
        }
      ],
      "name": "isListed",
      "outputs": [
        {
          "internalType": "bool",
          "name": "",
          "type": "bool"
        }
      ],
      "stateMutability": "view",
      "type": "function"
    },
    {
      "inputs": [],
      "name": "levelingSystemAddress",
      "outputs": [
        {
          "internalType": "address",
          "name": "",
          "type": "address"
        }
      ],
      "stateMutability": "view",
      "type": "function"
    },
    {
      "inputs": [
        {
          "internalType": "uint256",
          "name": "_tokenId",
          "type": "uint256"
        },
        {
          "internalType": "uint256",
          "name": "_price",
          "type": "uint256"
        }
      ],
      "name": "listTokenForSale",
      "outputs": [],
      "stateMutability": "nonpayable",
      "type": "function"
    },
    {
      "inputs": [
        {
          "internalType": "uint256",
          "name": "",
          "type": "uint256"
        }
      ],
      "name": "listedPrice",
      "outputs": [
        {
          "internalType": "uint256",
          "name": "",
          "type": "uint256"
        }
      ],
      "stateMutability": "view",
      "type": "function"
    },
    {
      "inputs": [
        {
          "internalType": "uint256",
          "name": "_tokenId",
          "type": "uint256"
        },
        {
          "internalType": "uint8",
          "name": "_expiresInDays",
          "type": "uint8"
        }
      ],
      "name": "makeOffer",
      "outputs": [],
      "stateMutability": "payable",
      "type": "function"
    },
    {
      "inputs": [],
      "name": "name",
      "outputs": [
        {
          "internalType": "string",
          "name": "",
          "type": "string"
        }
      ],
      "stateMutability": "view",
      "type": "function"
    },
    {
      "inputs": [
        {
          "internalType": "uint256",
          "name": "",
          "type": "uint256"
        },
        {
          "internalType": "uint256",
          "name": "",
          "type": "uint256"
        }
      ],
      "name": "nftComments",
      "outputs": [
        {
          "internalType": "string",
          "name": "",
          "type": "string"
        }
      ],
      "stateMutability": "view",
      "type": "function"
    },
    {
      "inputs": [
        {
          "internalType": "uint256",
          "name": "",
          "type": "uint256"
        }
      ],
      "name": "nftLikeCount",
      "outputs": [
        {
          "internalType": "uint256",
          "name": "",
          "type": "uint256"
        }
      ],
      "stateMutability": "view",
      "type": "function"
    },
    {
      "inputs": [
        {
          "internalType": "uint256",
          "name": "",
          "type": "uint256"
        },
        {
          "internalType": "address",
          "name": "",
          "type": "address"
        }
      ],
      "name": "nftLikes",
      "outputs": [
        {
          "internalType": "bool",
          "name": "",
          "type": "bool"
        }
      ],
      "stateMutability": "view",
      "type": "function"
    },
    {
      "inputs": [
        {
          "internalType": "uint256",
          "name": "",
          "type": "uint256"
        }
      ],
      "name": "nftMetadata",
      "outputs": [
        {
          "internalType": "address",
          "name": "creator",
          "type": "address"
        },
        {
          "internalType": "string",
          "name": "uri",
          "type": "string"
        },
        {
          "internalType": "string",
          "name": "category",
          "type": "string"
        },
        {
          "internalType": "uint256",
          "name": "createdAt",
          "type": "uint256"
        },
        {
          "internalType": "uint96",
          "name": "royaltyPercentage",
          "type": "uint96"
        }
      ],
      "stateMutability": "view",
      "type": "function"
    },
    {
      "inputs": [
        {
          "internalType": "uint256",
          "name": "",
          "type": "uint256"
        },
        {
          "internalType": "uint256",
          "name": "",
          "type": "uint256"
        }
      ],
      "name": "nftOffers",
      "outputs": [
        {
          "internalType": "address",
          "name": "offeror",
          "type": "address"
        },
        {
          "internalType": "uint256",
          "name": "amount",
          "type": "uint256"
        },
        {
          "internalType": "uint8",
          "name": "expiresInDays",
          "type": "uint8"
        },
        {
          "internalType": "uint256",
          "name": "timestamp",
          "type": "uint256"
        }
      ],
      "stateMutability": "view",
      "type": "function"
    },
    {
      "inputs": [
        {
          "internalType": "uint256",
          "name": "tokenId",
          "type": "uint256"
        }
      ],
      "name": "ownerOf",
      "outputs": [
        {
          "internalType": "address",
          "name": "",
          "type": "address"
        }
      ],
      "stateMutability": "view",
      "type": "function"
    },
    {
      "inputs": [],
      "name": "pause",
      "outputs": [],
      "stateMutability": "nonpayable",
      "type": "function"
    },
    {
      "inputs": [],
      "name": "paused",
      "outputs": [
        {
          "internalType": "bool",
          "name": "",
          "type": "bool"
        }
      ],
      "stateMutability": "view",
      "type": "function"
    },
    {
      "inputs": [],
      "name": "platformTreasury",
      "outputs": [
        {
          "internalType": "address",
          "name": "",
          "type": "address"
        }
      ],
      "stateMutability": "view",
      "type": "function"
    },
    {
      "inputs": [],
      "name": "proxiableUUID",
      "outputs": [
        {
          "internalType": "bytes32",
          "name": "",
          "type": "bytes32"
        }
      ],
      "stateMutability": "view",
      "type": "function"
    },
    {
      "inputs": [],
      "name": "questsContractAddress",
      "outputs": [
        {
          "internalType": "address",
          "name": "",
          "type": "address"
        }
      ],
      "stateMutability": "view",
      "type": "function"
    },
    {
      "inputs": [],
      "name": "referralSystemAddress",
      "outputs": [
        {
          "internalType": "address",
          "name": "",
          "type": "address"
        }
      ],
      "stateMutability": "view",
      "type": "function"
    },
    {
      "inputs": [
        {
          "internalType": "bytes32",
          "name": "role",
          "type": "bytes32"
        },
        {
          "internalType": "address",
          "name": "account",
          "type": "address"
        }
      ],
      "name": "renounceRole",
      "outputs": [],
      "stateMutability": "nonpayable",
      "type": "function"
    },
    {
      "inputs": [
        {
          "internalType": "bytes32",
          "name": "role",
          "type": "bytes32"
        },
        {
          "internalType": "address",
          "name": "account",
          "type": "address"
        }
      ],
      "name": "revokeRole",
      "outputs": [],
      "stateMutability": "nonpayable",
      "type": "function"
    },
    {
      "inputs": [
        {
          "internalType": "uint256",
          "name": "tokenId",
          "type": "uint256"
        },
        {
          "internalType": "uint256",
          "name": "salePrice",
          "type": "uint256"
        }
      ],
      "name": "royaltyInfo",
      "outputs": [
        {
          "internalType": "address",
          "name": "",
          "type": "address"
        },
        {
          "internalType": "uint256",
          "name": "",
          "type": "uint256"
        }
      ],
      "stateMutability": "view",
      "type": "function"
    },
    {
      "inputs": [
        {
          "internalType": "address",
          "name": "from",
          "type": "address"
        },
        {
          "internalType": "address",
          "name": "to",
          "type": "address"
        },
        {
          "internalType": "uint256",
          "name": "tokenId",
          "type": "uint256"
        }
      ],
      "name": "safeTransferFrom",
      "outputs": [],
      "stateMutability": "nonpayable",
      "type": "function"
    },
    {
      "inputs": [
        {
          "internalType": "address",
          "name": "from",
          "type": "address"
        },
        {
          "internalType": "address",
          "name": "to",
          "type": "address"
        },
        {
          "internalType": "uint256",
          "name": "tokenId",
          "type": "uint256"
        },
        {
          "internalType": "bytes",
          "name": "data",
          "type": "bytes"
        }
      ],
      "name": "safeTransferFrom",
      "outputs": [],
      "stateMutability": "nonpayable",
      "type": "function"
    },
    {
      "inputs": [
        {
          "internalType": "address",
          "name": "operator",
          "type": "address"
        },
        {
          "internalType": "bool",
          "name": "approved",
          "type": "bool"
        }
      ],
      "name": "setApprovalForAll",
      "outputs": [],
      "stateMutability": "nonpayable",
      "type": "function"
    },
    {
      "inputs": [
        {
          "internalType": "address",
          "name": "_collaboratorRewards",
          "type": "address"
        }
      ],
      "name": "setCollaboratorRewardsContract",
      "outputs": [],
      "stateMutability": "nonpayable",
      "type": "function"
    },
    {
      "inputs": [
        {
          "internalType": "address",
          "name": "_questsAddress",
          "type": "address"
        }
      ],
      "name": "setQuestsContract",
      "outputs": [],
      "stateMutability": "nonpayable",
      "type": "function"
    },
    {
      "inputs": [
        {
          "internalType": "address",
          "name": "_skillsAddress",
          "type": "address"
        }
      ],
      "name": "setSkillsContract",
      "outputs": [],
      "stateMutability": "nonpayable",
      "type": "function"
    },
    {
      "inputs": [
        {
          "internalType": "address",
          "name": "_stakingAddress",
          "type": "address"
        }
      ],
      "name": "setStakingContract",
      "outputs": [],
      "stateMutability": "nonpayable",
      "type": "function"
    },
    {
      "inputs": [
        {
          "internalType": "address",
          "name": "_treasuryManager",
          "type": "address"
        }
      ],
      "name": "setTreasuryManager",
      "outputs": [],
      "stateMutability": "nonpayable",
      "type": "function"
    },
    {
      "inputs": [],
      "name": "skillsContractAddress",
      "outputs": [
        {
          "internalType": "address",
          "name": "",
          "type": "address"
        }
      ],
      "stateMutability": "view",
      "type": "function"
    },
    {
      "inputs": [],
      "name": "stakingContractAddress",
      "outputs": [
        {
          "internalType": "address",
          "name": "",
          "type": "address"
        }
      ],
      "stateMutability": "view",
      "type": "function"
    },
    {
      "inputs": [
        {
          "internalType": "bytes4",
          "name": "interfaceId",
          "type": "bytes4"
        }
      ],
      "name": "supportsInterface",
      "outputs": [
        {
          "internalType": "bool",
          "name": "",
          "type": "bool"
        }
      ],
      "stateMutability": "view",
      "type": "function"
    },
    {
      "inputs": [],
      "name": "symbol",
      "outputs": [
        {
          "internalType": "string",
          "name": "",
          "type": "string"
        }
      ],
      "stateMutability": "view",
      "type": "function"
    },
    {
      "inputs": [
        {
          "internalType": "uint256",
          "name": "_tokenId",
          "type": "uint256"
        }
      ],
      "name": "toggleLike",
      "outputs": [],
      "stateMutability": "nonpayable",
      "type": "function"
    },
    {
      "inputs": [
        {
          "internalType": "uint256",
          "name": "tokenId",
          "type": "uint256"
        }
      ],
      "name": "tokenURI",
      "outputs": [
        {
          "internalType": "string",
          "name": "",
          "type": "string"
        }
      ],
      "stateMutability": "view",
      "type": "function"
    },
    {
      "inputs": [
        {
          "internalType": "address",
          "name": "",
          "type": "address"
        }
      ],
      "name": "totalCreators",
      "outputs": [
        {
          "internalType": "uint256",
          "name": "",
          "type": "uint256"
        }
      ],
      "stateMutability": "view",
      "type": "function"
    },
    {
      "inputs": [],
      "name": "totalNFTsSold",
      "outputs": [
        {
          "internalType": "uint256",
          "name": "",
          "type": "uint256"
        }
      ],
      "stateMutability": "view",
      "type": "function"
    },
    {
      "inputs": [],
      "name": "totalRoyaltiesPaid",
      "outputs": [
        {
          "internalType": "uint256",
          "name": "",
          "type": "uint256"
        }
      ],
      "stateMutability": "view",
      "type": "function"
    },
    {
      "inputs": [],
      "name": "totalTradingVolume",
      "outputs": [
        {
          "internalType": "uint256",
          "name": "",
          "type": "uint256"
        }
      ],
      "stateMutability": "view",
      "type": "function"
    },
    {
      "inputs": [
        {
          "internalType": "address",
          "name": "from",
          "type": "address"
        },
        {
          "internalType": "address",
          "name": "to",
          "type": "address"
        },
        {
          "internalType": "uint256",
          "name": "tokenId",
          "type": "uint256"
        }
      ],
      "name": "transferFrom",
      "outputs": [],
      "stateMutability": "nonpayable",
      "type": "function"
    },
    {
      "inputs": [],
      "name": "treasuryManager",
      "outputs": [
        {
          "internalType": "contract ITreasuryManager",
          "name": "",
          "type": "address"
        }
      ],
      "stateMutability": "view",
      "type": "function"
    },
    {
      "inputs": [
        {
          "internalType": "uint256",
          "name": "_tokenId",
          "type": "uint256"
        }
      ],
      "name": "unlistToken",
      "outputs": [],
      "stateMutability": "nonpayable",
      "type": "function"
    },
    {
      "inputs": [],
      "name": "unpause",
      "outputs": [],
      "stateMutability": "nonpayable",
      "type": "function"
    },
    {
      "inputs": [
        {
          "internalType": "uint256",
          "name": "_tokenId",
          "type": "uint256"
        },
        {
          "internalType": "uint256",
          "name": "_newPrice",
          "type": "uint256"
        }
      ],
      "name": "updatePrice",
      "outputs": [],
      "stateMutability": "nonpayable",
      "type": "function"
    },
    {
      "inputs": [
        {
          "internalType": "address",
          "name": "_user",
          "type": "address"
        },
        {
          "internalType": "uint256",
          "name": "_amount",
          "type": "uint256"
        }
      ],
      "name": "updateUserXP",
      "outputs": [],
      "stateMutability": "nonpayable",
      "type": "function"
    },
    {
      "inputs": [
        {
          "internalType": "address",
          "name": "newImplementation",
          "type": "address"
        }
      ],
      "name": "upgradeTo",
      "outputs": [],
      "stateMutability": "nonpayable",
      "type": "function"
    },
    {
      "inputs": [
        {
          "internalType": "address",
          "name": "newImplementation",
          "type": "address"
        },
        {
          "internalType": "bytes",
          "name": "data",
          "type": "bytes"
        }
      ],
      "name": "upgradeToAndCall",
      "outputs": [],
      "stateMutability": "payable",
      "type": "function"
    },
    {
      "inputs": [
        {
          "internalType": "address",
          "name": "",
          "type": "address"
        }
      ],
      "name": "userNFTsBought",
      "outputs": [
        {
          "internalType": "uint256",
          "name": "",
          "type": "uint256"
        }
      ],
      "stateMutability": "view",
      "type": "function"
    },
    {
      "inputs": [
        {
          "internalType": "address",
          "name": "",
          "type": "address"
        }
      ],
      "name": "userNFTsSold",
      "outputs": [
        {
          "internalType": "uint256",
          "name": "",
          "type": "uint256"
        }
      ],
      "stateMutability": "view",
      "type": "function"
    },
    {
      "inputs": [
        {
          "internalType": "address",
          "name": "",
          "type": "address"
        }
      ],
      "name": "userProfiles",
      "outputs": [
        {
          "internalType": "uint256",
          "name": "totalXP",
          "type": "uint256"
        },
        {
          "internalType": "uint8",
          "name": "level",
          "type": "uint8"
        },
        {
          "internalType": "uint256",
          "name": "nftsCreated",
          "type": "uint256"
        },
        {
          "internalType": "uint256",
          "name": "nftsOwned",
          "type": "uint256"
        },
        {
          "internalType": "uint32",
          "name": "nftsSold",
          "type": "uint32"
        },
        {
          "internalType": "uint32",
          "name": "nftsBought",
          "type": "uint32"
        }
      ],
      "stateMutability": "view",
      "type": "function"
    },
    {
      "inputs": [
        {
          "internalType": "address",
          "name": "",
          "type": "address"
        }
      ],
      "name": "userPurchaseVolume",
      "outputs": [
        {
          "internalType": "uint256",
          "name": "",
          "type": "uint256"
        }
      ],
      "stateMutability": "view",
      "type": "function"
    },
    {
      "inputs": [
        {
          "internalType": "address",
          "name": "",
          "type": "address"
        }
      ],
      "name": "userRoyaltiesEarned",
      "outputs": [
        {
          "internalType": "uint256",
          "name": "",
          "type": "uint256"
        }
      ],
      "stateMutability": "view",
      "type": "function"
    },
    {
      "inputs": [
        {
          "internalType": "address",
          "name": "",
          "type": "address"
        }
      ],
      "name": "userSalesVolume",
      "outputs": [
        {
          "internalType": "uint256",
          "name": "",
          "type": "uint256"
        }
      ],
      "stateMutability": "view",
      "type": "function"
    }
  ],
  "bytecode": "0x60a080604052346100da57306080525f549060ff8260081c16610088575060ff8082160361004e575b604051615ff290816100df823960805181818161311b015281816131fe01526135e70152f35b60ff90811916175f557f7f26b83ff96e1f2b6a682f133852f6798a09c465da95921460cefb3847402498602060405160ff8152a15f610028565b62461bcd60e51b815260206004820152602760248201527f496e697469616c697a61626c653a20636f6e747261637420697320696e697469604482015266616c697a696e6760c81b6064820152608490fd5b5f80fdfe60806040526004361015610011575f80fd5b5f3560e01c8062f7bac714614281578063012386f0146141e5578063016fc10e1461415b57806301ffc9a71461409f57806306fdde031461400d578063081812fc14613fef578063095ea7b314613e69578063141ed34314613e4b5780631554823214613e3057806323b872dd14613e0c5780632406e67714613d775780632483320d14613d3e578063248a9ca314613d185780632a55205a14613c6a5780632d296bf1146139e55780632f2ff15d1461394a578063332d56d7146138d15780633535f48b146138a857806335df17b41461386f57806336568abe146137dd5780633659cfe6146135c95780633854f21b146135b25780633c039039146135895780633cea70d9146135605780633f4ba83a146134cb57806342842e0e1461349757806349541015146134015780634f1ef286146131c657806352d1902d1461310957806352de4ee51461307f57806354398d1814612ef857806355de28ae14612ce85780635c975abb14612cc55780635d7dfa9914612c455780635e50864f14612c075780635efc27d614612abf578063602dcf291461297d5780636352211e1461294d578063638ac8d3146129035780636be9a6f11461285d57806370a08231146127c857806375b238fc146127a157806377ea168e1461273a5780637af338a5146127115780637de7ff081461233057806381257bd5146120c2578063821025481461208957806382367b2d14611ff25780638456cb5914611f975780638cf5310214611f2357806391d1485414611ed95780639333806514611ebb57806395d89b4114611e0457806397df9b4e14611ddb578063987ee15614611cf9578063999fdecf14611b745780639dd373b914611b00578063a217fddf14611ae6578063a22cb46514611a1c578063aa7e56831461180f578063ad3a358c14611752578063b0362b881461129f578063b7f3a589146111bb578063b88d4fde14611147578063bd45b7fc1461110e578063bd4ad42f146110e5578063c473a27a146110b5578063c4d66de814610b4c578063c87b56dd14610b2d578063cb8c8a1514610b02578063d45557cc1461094c578063d489be26146108e7578063d547741f146108af578063d7e2997b14610886578063d9b1edb41461083f578063d9edf57614610806578063df6a5327146107cd578063dfb0886b146107af578063e138818c14610786578063e5a818f81461075b578063e985e9c514610704578063ea6e7eb5146106c1578063ec17f30414610688578063ed6111001461062f578063f291f5dd14610532578063f72c0d8b1461050b578063f748efb814610497578063fcce4883146104675763fe47a9f2146103eb575f80fd5b34610463576020366003190112610463576104046142b0565b61040c614fe0565b6001600160a01b031680156104545761023480546001600160a01b031916821790557fd16d2cf254200e4dc6dc82512e9d11673e06a798c40b90cef7583729b4f7a8d45f80a2005b63e6c4247b60e01b5f5260045ffd5b5f80fd5b34610463576020366003190112610463576004355f52610229602052602060ff60405f2054166040519015158152f35b34610463576020366003190112610463576104b06142b0565b6104b8614fe0565b6001600160a01b031680156104545761024280546001600160a01b0319811683179091556001600160a01b03167fb7b5cab3bc5ae437bba269a16d0a369211a068ae683607ff2ca96f34449295395f80a3005b34610463575f3660031901126104635760206040515f516020615e3d5f395f51905f528152f35b346104635760203660031901126104635760043561054f81615102565b15610620575f5261022e60205260405f2080549061056c8261468c565b9161057a604051938461448f565b8083526020830180925f5260205f205f915b838310610602578486604051918291602083019060208452518091526040830191905f5b8181106105be575050500390f35b919350916020608060019260608751858060a01b038151168352848101518584015260ff6040820151166040840152015160608201520194019101918493926105b0565b60046020600192610612856149f7565b81520192019201919061058c565b635861b41d60e01b5f5260045ffd5b346104635760403660031901126104635760043561064b6142c6565b9061065581615102565b15610620575f5261022b60205260405f209060018060a01b03165f52602052602060ff60405f2054166040519015158152f35b34610463576020366003190112610463576001600160a01b036106a96142b0565b165f52610241602052602060405f2054604051908152f35b34610463576106f06106d2366142dc565b6001600160a01b039092165f90815261022f60205260409020614ace565b9061070060405192839283614339565b0390f35b346104635760403660031901126104635761071d6142b0565b6107256142c6565b9060018060a01b03165f52609c60205260405f209060018060a01b03165f52602052602060ff60405f2054166040519015158152f35b34610463576020366003190112610463576004355f5261022a602052602060405f2054604051908152f35b34610463575f36600319011261046357610233546040516001600160a01b039091168152602090f35b34610463575f36600319011261046357602061023954604051908152f35b34610463576020366003190112610463576001600160a01b036107ee6142b0565b165f5261023c602052602060405f2054604051908152f35b346104635760203660031901126104635760043561082381615102565b15610620575f5261022c602052602060405f2054604051908152f35b34610463576020366003190112610463576108586142b0565b610860614fe0565b6001600160a01b031680156104545761024780546001600160a01b031916919091179055005b34610463575f36600319011261046357610237546040516001600160a01b039091168152602090f35b34610463576040366003190112610463576108e56004356108ce6142c6565b906108e06108db82614776565b61503f565b61507f565b005b34610463576108f5366143d5565b905f5261022d60205260405f209081548110156104635761091591614677565b61093957610925610700916144b2565b604051918291602083526020830190614376565b634e487b7160e01b5f525f60045260245ffd5b346104635761095a366143d5565b90610963614d8e565b805f5261022e60205260405f2054821015610af357805f5261022e6020526109976109918360405f2061461b565b506149f7565b80516001600160a01b03163303610ae5576020908101515f83815261022e909252604090912080549193915f19810191908211610ad1576109ef916109db9161461b565b5091835f5261022e60205260405f2061461b565b91909161093957808203610a7f575b50505f5261022e60205260405f2080548015610a6b575f190190610a22828261461b565b610939575f93849384938460038582809755826001820155826002820155015555335af1610a4e614810565b5015610a5c57600161015f55005b633c31275160e21b5f5260045ffd5b634e487b7160e01b5f52603160045260245ffd5b805482546001600160a01b0319166001600160a01b039190911617825560018082015490830155600280820154908301805460ff191660ff9290921691909117905560039081015491015582806109fe565b634e487b7160e01b5f52601160045260245ffd5b6207134d60e81b5f5260045ffd5b635129cab160e11b5f5260045ffd5b34610463576020366003190112610463576004355f5261022c602052602060405f2054604051908152f35b346104635760203660031901126104635761070061092560043561568b565b3461046357602036600319011261046357610b656142b0565b5f5460ff8160081c1615908180926110a8575b8015611091575b156110355760ff1981166001175f5581611024575b50604090815192610ba5838561448f565b600c84526b11d85b595a599a595913919560a21b6020850152825193610bcb848661448f565b600485526311d3919560e21b6020860152610bf560ff5f5460081c16610bf08161562b565b61562b565b8051906001600160401b038211610f6557610c116097546143eb565b601f8111610fe9575b50602090601f8311600114610f8457610c3d92915f9183610f79575b50506149be565b6097555b83516001600160401b038111610f6557610c5c6098546143eb565b601f8111610f1f575b50602094601f8211600114610ebc57610c8a9293949582915f92610eb15750506149be565b6098555b610cef60ff5f5460081c16610ca28161562b565b610cab8161562b565b610cb48161562b565b610cbd8161562b565b610cc68161562b565b600161015f55610cd58161562b565b610cde8161562b565b60ff1961019154166101915561562b565b5f80805261012d602090815284822033835290528390205460ff1615610e75575b5f516020615edd5f395f51905f525f90815261012d602090815284822033835290528390205460ff1615610e2b575b5f516020615e3d5f395f51905f525f90815261012d602090815284822033835290528390205460ff1615610de1575b6001600160a01b03811615610dda575b61023380546001600160a01b0319166001600160a01b0392909216919091179055610da557005b60207f7f26b83ff96e1f2b6a682f133852f6798a09c465da95921460cefb38474024989161ff00195f54165f555160018152a1005b5033610d7e565b5f516020615e3d5f395f51905f525f81815261012d6020908152858220338084529152858220805460ff191660011790559182915f516020615d9d5f395f51905f529080a4610d6e565b5f516020615edd5f395f51905f525f81815261012d6020908152858220338084529152858220805460ff191660011790559182915f516020615d9d5f395f51905f529080a4610d3f565b5f80805261012d6020908152848220338084529152848220805460ff191660011790559081905f516020615d9d5f395f51905f528180a4610d10565b015190508680610c36565b601f1982169560985f52805f20915f5b888110610f0757508360019596979810610eef575b505050811b01609855610c8e565b01515f1960f88460031b161c19169055858080610ee1565b91926020600181928685015181550194019201610ecc565b60985f52610f55905f516020615f7d5f395f51905f52601f840160051c81019160208510610f5b575b601f0160051c0190614970565b85610c65565b9091508190610f48565b634e487b7160e01b5f52604160045260245ffd5b015190508780610c36565b90601f1983169160975f52815f20925f5b818110610fd15750908460019594939210610fb9575b505050811b01609755610c41565b01515f1960f88460031b161c19169055868080610fab565b92936020600181928786015181550195019301610f95565b60975f5261101e905f516020615dfd5f395f51905f52601f850160051c81019160208610610f5b57601f0160051c0190614970565b86610c1a565b61ffff1916610101175f5582610b94565b60405162461bcd60e51b815260206004820152602e60248201527f496e697469616c697a61626c653a20636f6e747261637420697320616c72656160448201526d191e481a5b9a5d1a585b1a5e995960921b6064820152608490fd5b50303b158015610b7f5750600160ff821614610b7f565b50600160ff821610610b78565b34610463576020366003190112610463576004355f52610245602052602060ff60405f2054166040519015158152f35b34610463575f36600319011261046357610242546040516001600160a01b039091168152602090f35b34610463576020366003190112610463576001600160a01b0361112f6142b0565b165f5261023f602052602060405f2054604051908152f35b34610463576080366003190112610463576111606142b0565b6111686142c6565b90606435906044356001600160401b038311610463576108e5936111936111b69436906004016145a3565b926111a66111a18433614b5b565b614714565b6111b1838383614bd0565b615ac7565b61560b565b34610463576020366003190112610463576004356111d881615102565b15610620575f5261022d60205260405f208054906111f58261468c565b91611203604051938461448f565b8083526020830180925f5260205f205f915b83831061128257848660405191829160208301906020845251809152604083019060408160051b85010192915f905b82821061125357505050500390f35b919360019193955060206112728192603f198a82030186528851614376565b9601920192018594939192611244565b600160208192611291856144b2565b815201920192019190611215565b34610463576080366003190112610463576004356001600160401b038111610463576112cf903690600401614634565b6024356001600160401b038111610463576112ee903690600401614634565b6112f9929192614661565b9360643593611306614d49565b6001600160601b0386169261271084116117435785158015611738575b61172957611330866146a3565b968415155f5b88811061140a578989335f52610244602052600260405f200161135a8282546147ad565b90556001811115611403575f198101908111610ad157600581029080820460051490151715610ad1575b600a019081600a11610ad15761070091335f5261024460205260405f206113ac8282546147ad565b905560405190815260406020820152601160408201527013919517d0905510d217d0d49150551151607a1b60608201525f516020615f9d5f395f51905f5260803392a2604051918291602083526020830190614306565b505f611384565b61022754908161141a828d6146d5565b52600182016102275561142d823361511e565b61144161143b368b8a61456d565b83615224565b60405161144d8161443e565b33815261145b368b8a61456d565b6020820190815261146d36888a61456d565b60408381019182524260608501908152608085018d81525f88815261022860205292909220945185546001600160a01b0319166001600160a01b0391909116178555925180519394929391929160018301916001600160401b038211610f65576114e1826114db85546143eb565b85614986565b602090601f83116001146116c65761150292915f91836116525750506149be565b90555b915180519093909290600282016001600160401b038511610f6557846115368a9661153084546143eb565b84614986565b602096601f821160011461165d579080600496979861155c935f926116525750506149be565b90555b5160038201559151910180546001600160601b0319166001600160601b0392909216919091179055611642575b335f526102306020526115a28260405f20615788565b506115b66115b136878961456d565b615475565b6115e6575b600191895f516020615ddd5f395f51905f52604051806115dd33948d836149d0565b0390a301611336565b335f5261024660205260ff60405f20541661163357816001925f5261024560205260405f208360ff19825416179055335f5261024660205260405f208360ff1982541617905591506115bb565b63730106f160e01b5f5260045ffd5b61164d843384615371565b61158c565b015190505f80610c36565b601f19821690835f52885f20915f5b8181106116ab5750988392916001946004999a9b10611693575b505050811b01905561155f565b01515f1960f88460031b161c191690555f8080611686565b828b0151845560209a8b019a8e9a506001909401930161166c565b90601f19831691845f52815f20925f5b81811061171157509084600195949392106116f9575b505050811b019055611505565b01515f1960f88460031b161c191690555f80806116ec565b929360206001819287860151815501950193016116d6565b631a49577b60e11b5f5260045ffd5b506101f48611611323565b63e0e54ced60e01b5f5260045ffd5b346104635760203660031901126104635760043561176e614d49565b61177781614922565b336001600160a01b039091160361180057805f5261022960205260ff60405f205416156117f1575f81815261022960209081526040808320805460ff1916905561022a9091528120556117c9816157dc565b50337f24287c09523dfd960e13a9774c247fb28a2ccb301eb4208b0d4072bcd0f1826e5f80a3005b6362f850f760e11b5f5260045ffd5b6359dc379f60e01b5f5260045ffd5b34610463576040366003190112610463576004356024356001600160401b03811161046357611842903690600401614634565b61184a614d49565b6001600160a01b0361185b84614922565b16156106205780158015611a11575b611a0257825f5261022d6020526103e860405f205410156119f3575f83815261022d602052604090208054600160401b811015610f65576118b091600182018155614677565b610939576001600160401b038211610f65576118d6826118d083546143eb565b83614986565b5f82601f811160011461199057806118f5925f91611985575b506149be565b90555b335f5261024460205260405f2080549160028301809311610ad1577f6ef560d19dd02f57976e8453b811685a89edf49009d64ab71b19489923ef5f099261194892556040519182913395836149d0565b0390a36040516002815260406020820152600760408201526610d3d35351539560ca1b60608201525f516020615f9d5f395f51905f5260803392a2005b9050850135876118ef565b50601f19831690825f528360205f20925f5b8181106119d85750106119bf575b5050600182811b0190556118f8565b8401355f19600385901b60f8161c1916905584806119b0565b878401358555600190940193602093840193879350016119a2565b63698274d360e11b5f5260045ffd5b63734c001760e11b5f5260045ffd5b50610118811161186a565b3461046357604036600319011261046357611a356142b0565b60243590811515809203610463576001600160a01b031690338214611aa557335f52609c60205260405f20825f5260205260405f2060ff1981541660ff83161790556040519081527f17307eab39ab6107e8899845ad3d59bd9653f200f220920489ca2b5937696c3160203392a3005b60405162461bcd60e51b815260206004820152601960248201527822a9219b99189d1030b8383937bb32903a379031b0b63632b960391b6044820152606490fd5b34610463575f3660031901126104635760206040515f8152f35b3461046357602036600319011261046357611b196142b0565b611b21614fe0565b6001600160a01b031680156104545761024380546001600160a01b0319811683179091556001600160a01b03167f7042586b23181180eb30b4798702d7a0233b7fc2551e89806770e8e5d9392e6a5f80a3005b34610463576020366003190112610463576001600160a01b03611b956142b0565b16805f5261022f60205260405f2054611bad8161468c565b91611bbb604051938461448f565b818352601f19611bca8361468c565b015f5b818110611ce25750505f5b828110611c4657836040518091602082016020835281518091526040830190602060408260051b8601019301915f905b828210611c1757505050500390f35b91936001919395506020611c368192603f198a820301865288516145c1565b9601920192018594939192611c08565b600190825f5261022f602052611c5f8160405f20614677565b90549060031b1c5f5261022860205260405f2060405190611c7f8261443e565b838060a01b038154168252611c958482016144b2565b6020830152611ca6600282016144b2565b6040830152600381015460608301526004848060601b03910154166080820152611cd082876146d5565b52611cdb81866146d5565b5001611bd8565b602090611ced614944565b82828801015201611bcd565b3461046357602036600319011261046357611d126142b0565b5f60a0604051611d2181614459565b828152826020820152826040820152826060820152826080820152015260018060a01b03165f5261024460205260c060405f2063ffffffff60405191611d6683614459565b8181549384815260ff600184015416926020820193845260028101546040830190815260ff6004600384015493606086019485520154958560a06080870196828a168852019760201c1687526040519889525116602088015251604087015251606086015251166080840152511660a0820152f35b34610463575f36600319011261046357610247546040516001600160a01b039091168152602090f35b34610463575f366003190112610463576040515f609854611e24816143eb565b8084529060018116908115611e975750600114611e4c575b610700836109258185038261448f565b60985f9081525f516020615f7d5f395f51905f52939250905b808210611e7d57509091508101602001610925611e3c565b919260018160209254838588010152019101909291611e65565b60ff191660208086019190915291151560051b840190910191506109259050611e3c565b34610463575f36600319011261046357602061023a54604051908152f35b3461046357604036600319011261046357611ef26142c6565b6004355f5261012d60205260405f209060018060a01b03165f52602052602060ff60405f2054166040519015158152f35b3461046357602036600319011261046357611f3c6142b0565b611f44614fe0565b6001600160a01b031680156104545761023580546001600160a01b0319811683179091556001600160a01b03167f86184096e44f529467a03d9c408bb371b99687d885947800e80e6d5b08108f635f80a3005b34610463575f36600319011261046357611faf614fe0565b611fb7614d49565b600160ff19610191541617610191557f62e78cea01bee320cd4e420270b5ea74000d11b0c9f74754ebdbfc544b05a2586020604051338152a1005b3461046357612000366143d5565b612008614d49565b61201182614922565b336001600160a01b039091160361180057815f5261022960205260ff60405f205416156117f157801561207b57815f5261022a6020528060405f20556040519081527fb556fac599c3c70efb9ab1fa725ecace6c81cc48d1455f886607def065f3e0c060203392a3005b62bfc92160e01b5f5260045ffd5b34610463576020366003190112610463576001600160a01b036120aa6142b0565b165f5261023e602052602060405f2054604051908152f35b34610463576120d0366143d5565b6120d8614d8e565b6120e182614922565b336001600160a01b039091160361180057815f5261022e60205260405f2054811015610af35761099161212091835f5261022e60205260405f2061461b565b60608101516201518060ff6040840151160262ffffff8116908103610ad157612148916147ad565b421161232157602060018060a01b03825116910151612168838333614bd0565b6006810281810460061482151715610ad157606490046121888183614789565b335f52610244602052600460405f200163ffffffff6121a981835416614796565b1663ffffffff19825416179055835f52610244602052612200600460405f20016121dc63ffffffff825460201c16614796565b90805463ffffffff60201b191660209290921b63ffffffff60201b16919091179055565b335f5261024460205260405f2080549060148201809211610ad15755835f5261024460205260405f20908154600f8101809111610ad1575f8093928193928293558882526102296020526040822060ff19815416905588825261022a60205281604081205588825261022e60205261227a604083206147ba565b61228386614de6565b335af161228e614810565b501561231257825f516020615e7d5f395f51905f52608060018060a01b0361023354169360405190815260406020820152600e60408201526d13d191915497d050d0d15415115160921b6060820152a36040519081527fa6da490df6e8f0e592e795b4d96c5810d8ddfda51c21577adbdd8e1a0fa47a6760203392a4600161015f55005b632d0a6c2960e21b5f5260045ffd5b639cb1308760e01b5f5260045ffd5b34610463576060366003190112610463576004356001600160401b03811161046357612360903690600401614634565b6024356001600160401b0381116104635761237f903690600401614634565b61238a929192614661565b92612393614d49565b6001600160601b03841693612710851161174357610227549460018601610227556123be863361511e565b6123d26123cc36878a61456d565b87615224565b6040516123de8161443e565b3381526123ec36878a61456d565b90602081019182526123ff36878761456d565b60408281019182524260608401908152608084018681525f8c815261022860205292909220935184546001600160a01b0319166001600160a01b0391909116178455935180519194929160018501916001600160401b038211610f655761246a826114db85546143eb565b602090601f83116001146126ae5761248b92915f918361263b5750506149be565b90555b51805160028401916001600160401b038211610f65576124b2826114db85546143eb565b602090601f83116001146126465791806124d9926004979695945f9261263b5750506149be565b90555b5160038201559151910180546001600160601b0319166001600160601b039290921691909117905561262a575b50335f52610244602052600260405f200180545f198114610ad1576001019055335f5261024460205260405f2090815492600a8401809411610ad15761256c936115b19355335f526102306020526125648660405f20615788565b50369161456d565b6125db575b6020925f516020615ddd5f395f51905f5261259584936040519182913395836149d0565b0390a3604051600a8152604083820152600b60408201526a13919517d0d4915055115160aa1b60608201525f516020615f9d5f395f51905f5260803392a2604051908152f35b335f5261024660205260ff60405f205416611633575f828152610245602090815260408083208054600160ff199182168117909255338552610246909352922080549091169091179055612571565b612635903386615371565b85612509565b015190508f80610c36565b90601f19831691845f52815f20925f5b8181106126965750916001939185600499989796941061267e575b505050811b0190556124dc565b01515f1960f88460031b161c191690558e8080612671565b92936020600181928786015181550195019301612656565b90601f19831691845f52815f20925f5b8181106126f957509084600195949392106126e1575b505050811b01905561248e565b01515f1960f88460031b161c191690558e80806126d4565b929360206001819287860151815501950193016126be565b34610463575f36600319011261046357610236546040516001600160a01b039091168152602090f35b3461046357612748366143d5565b905f5261022e60205260405f2080548210156104635760809161276a9161461b565b5060018060a01b0381541690600181015490600360ff60028301541691015491604051938452602084015260408301526060820152f35b34610463575f3660031901126104635760206040515f516020615edd5f395f51905f528152f35b34610463576020366003190112610463576001600160a01b036127e96142b0565b168015612806575f52609a602052602060405f2054604051908152f35b60405162461bcd60e51b815260206004820152602960248201527f4552433732313a2061646472657373207a65726f206973206e6f7420612076616044820152683634b21037bbb732b960b91b6064820152608490fd5b3461046357602036600319011261046357600435612879614944565b5061288381615102565b15610620575f5261022860205261070060405f20604051906128a48261443e565b80546001600160a01b031682526128bd600182016144b2565b60208301526128ce600282016144b2565b604083015260038101546060830152600460018060601b039101541660808201526040519182916020835260208301906145c1565b346104635760403660031901126104635761291c6142c6565b6004355f5261022b60205260405f209060018060a01b03165f52602052602060ff60405f2054166040519015158152f35b3461046357602036600319011261046357602061296b600435614922565b6040516001600160a01b039091168152f35b60403660031901126104635760043560243560ff8116809103610463576129a2614d49565b815f5261022960205260ff60405f205416156117f1573415612ab05780158015612aa6575b612a9757815f5261022e60205260405f20604051906129e582614423565b33825260208201913483526040810193845260608101914283528054600160401b811015610f6557612a1c9160018201815561461b565b94909461093957905184546001600160a01b0319166001600160a01b039190911617845591516001840155905160028301805460ff191660ff92909216919091179055516003919091015560405134815233907f7beddbbf70d8b2a25af77e15d4a173af5f34673a1e7302c7af208aac599dc6db90602090a3005b63be3165f560e01b5f5260045ffd5b50601e81116129c7565b631771cc0160e11b5f5260045ffd5b3461046357604036600319011261046357612ad86142b0565b60243590612ae4614fe0565b60018060a01b031690815f52610244602052611388612b078260405f20546147ad565b11612bf85760805f516020615f9d5f395f51905f5291835f5261024460205260405f20612b358282546147ad565b9055835f526102446020528360ff606460405f2054041660328111612bf0575b815f5261024460205260ff80600160405f200154169116908111612ba5575b505060405190815260406020820152600f60408201526e45585445524e414c5f534f5552434560881b6060820152a2005b60207fa49b8576e012f713baa7dceadb7d709aaec8773b498ecfe582d8b9c0c8fd074f91835f526102448252600160405f20018160ff19825416179055604051908152a28385612b74565b506032612b55565b630fda656b60e21b5f5260045ffd5b34610463576020366003190112610463576001600160a01b03612c286142b0565b165f52610246602052602060ff60405f2054166040519015158152f35b3461046357602036600319011261046357600435612c6281615102565b156106205780612c73606092614922565b5f8281526102296020526040902054909160ff909116908115612cbd575f5261022a60205260405f2054905b604080516001600160a01b0390941684529015156020840152820152f35b505f90612c9f565b34610463575f36600319011261046357602060ff61019154166040519015158152f35b3461046357602036600319011261046357600435612d0581614922565b336001600160a01b039091160361180057805f5261024560205260ff60405f20541615612ee9576001600160a01b03612d3d82614922565b1680612e41575b50805f612d5082614922565b828252609b6020908152604080842080546001600160a01b03199081169091556001600160a01b0393909316808552609a8352818520805486190190558585526099909252832080549092169091555f516020615ebd5f395f51905f528280a4805f5260c9602052612dc560405f20546143eb565b612dda575b5f90815260666020526040812055005b805f5260c960205260405f20612df081546143eb565b9081612dfe575b5050612dca565b81601f5f9311600114612e155750555b8180612df7565b81835260208320612e3191601f0160051c810190600101614970565b8082528160208120915555612e0e565b5f5b60018110612e515750612d44565b612e5b81846147ad565b90815f5261024560205260ff60405f20541680612ee2575b612ed357612eab826001935f5261024560205260ff60405f20541680612ecc575b612eb2575b845f5261022f60205260405f20615896565b5001612e43565b845f5261024660205260405f2060ff198154169055612e99565b5083612e94565b632bc966dd60e21b5f5260045ffd5b505f612e73565b6355127ffb60e01b5f5260045ffd5b3461046357602036600319011261046357600435612f14614d49565b6001600160a01b03612f2582614922565b1615610620575f81815261022b6020908152604080832033845290915290205460ff1615612feb575f81815261022b602090815260408083203384528252808320805460ff1916905583835261022c909152902054612fd2575b805f5261022b60205260405f2060018060a01b0333165f5260205260ff60405f20541660405190151581527f4d5c3df35a8d7d04f2e10db1454548af37ee7449c97a4b4c243681f29c2ea40760203392a3005b805f5261022c60205260405f205f198154019055612f7f565b805f5261022b60205260405f2060018060a01b0333165f5260205260405f20600160ff19825416179055805f5261022c60205260405f2060018154019055335f5261024460205260405f2080549060018201809211610ad15755604051600181526040602082015260046040820152634c494b4560e01b60608201525f516020615f9d5f395f51905f5260803392a2612f7f565b34610463576020366003190112610463576001600160a01b036130a06142b0565b16805f5261022f60205260405f20546130b8816146a3565b915f5b8281106130d8576040516020808252819061070090820187614306565b600190825f5261022f6020526130f18160405f20614677565b90549060031b1c61310282876146d5565b52016130bb565b34610463575f366003190112610463577f00000000000000000000000000000000000000000000000000000000000000006001600160a01b031630036131605760206040515f516020615e5d5f395f51905f528152f35b60405162461bcd60e51b815260206004820152603860248201527f555550535570677261646561626c653a206d757374206e6f742062652063616c6044820152771b1959081d1a1c9bdd59da0819195b1959d85d1958d85b1b60421b6064820152608490fd5b6040366003190112610463576131da6142b0565b6024356001600160401b038111610463576131f99036906004016145a3565b6132507f00000000000000000000000000000000000000000000000000000000000000006001600160a01b03166132323082141561483f565b5f516020615e5d5f395f51905f52546001600160a01b03161461488d565b613258614ee1565b5f516020615dbd5f395f51905f525460ff161561327957506108e590615947565b6040516352d1902d60e01b81526001600160a01b03831690602081600481855afa5f91816133cd575b506132f05760405162461bcd60e51b815260206004820152602e60248201525f516020615f5d5f395f51905f5260448201526d6f6e206973206e6f74205555505360901b6064820152608490fd5b5f516020615e5d5f395f51905f52036133895761330c83615947565b5f516020615e9d5f395f51905f525f80a2805115801590613381575b61332e57005b6108e5915f806040519361334360608661448f565b602785525f516020615f1d5f395f51905f526020860152660819985a5b195960ca1b6040860152602081519101845af461337b614810565b91615d03565b506001613328565b60405162461bcd60e51b815260206004820152602960248201525f516020615efd5f395f51905f526044820152681a58589b195555525160ba1b6064820152608490fd5b9091506020813d6020116133f9575b816133e96020938361448f565b81010312610463575190856132a2565b3d91506133dc565b34610463576020366003190112610463576004355f9081526102286020526040902080546001600160a01b031661343a600183016144b2565b91613447600282016144b2565b613488600383015492600460018060601b03910154169161347a604051968796875260a0602088015260a0870190614376565b908582036040870152614376565b91606084015260808301520390f35b34610463576108e56111b66134ab3661439b565b90604051926134bb60208561448f565b5f84526111a66111a18433614b5b565b34610463575f366003190112610463576134e3614fe0565b6101915460ff8116156135245760ff1916610191557f5db9ee0a495bf2e6ff9c91a7834c1ba4fdd244a5e8aa4e537bd38aeae4b073aa6020604051338152a1005b60405162461bcd60e51b815260206004820152601460248201527314185d5cd8589b194e881b9bdd081c185d5cd95960621b6044820152606490fd5b34610463575f36600319011261046357610234546040516001600160a01b039091168152602090f35b34610463575f36600319011261046357610235546040516001600160a01b039091168152602090f35b34610463576106f06135c3366143d5565b90614a35565b34610463576020366003190112610463576135e26142b0565b61361b7f00000000000000000000000000000000000000000000000000000000000000006001600160a01b03166132323082141561483f565b613623614ee1565b604051906020613633818461448f565b5f8352808301601f1982013682375f516020615dbd5f395f51905f525460ff16156136645750506108e59150615947565b6040516352d1902d60e01b81529192916001600160a01b038316908481600481855afa5f91816137ae575b506136dd5760405162461bcd60e51b815260048101869052602e60248201525f516020615f5d5f395f51905f5260448201526d6f6e206973206e6f74205555505360901b6064820152608490fd5b5f516020615e5d5f395f51905f520361376a576136f983615947565b5f516020615e9d5f395f51905f525f80a2835115801590613763575b61371b57005b5f80916108e5955f516020615f1d5f395f51905f526040519661373f60608961448f565b60278852870152660819985a5b195960ca1b60408701525190845af461337b614810565b505f613715565b60405162461bcd60e51b815260048101859052602960248201525f516020615efd5f395f51905f526044820152681a58589b195555525160ba1b6064820152608490fd5b9091508581813d83116137d6575b6137c6818361448f565b810103126104635751908761368f565b503d6137bc565b34610463576040366003190112610463576137f66142c6565b336001600160a01b03821603613812576108e59060043561507f565b60405162461bcd60e51b815260206004820152602f60248201527f416363657373436f6e74726f6c3a2063616e206f6e6c792072656e6f756e636560448201526e103937b632b9903337b91039b2b63360891b6064820152608490fd5b34610463576020366003190112610463576001600160a01b036138906142b0565b165f5261023b602052602060405f2054604051908152f35b34610463575f36600319011261046357610243546040516001600160a01b039091168152602090f35b34610463576020366003190112610463576001600160a01b036138f26142b0565b165f5261024460205260c060405f2063ffffffff81549160ff6001820154169060028101546004600383015492015492604051958652602086015260408501526060840152818116608084015260201c1660a0820152f35b34610463576040366003190112610463576004356139666142c6565b906139736108db82614776565b805f5261012d60205260405f2060018060a01b0383165f5260205260ff60405f2054161561399d57005b5f81815261012d602090815260408083206001600160a01b0395909516808452949091528120805460ff19166001179055339291905f516020615d9d5f395f51905f529080a4005b6020366003190112610463576004356139fc614d49565b613a04614d8e565b805f5261022960205260ff60405f205416156117f157805f5261022a60205260405f20543410613c5b57613a3781614922565b90805f5261022a60205260405f2054613a51823385614bd0565b6006810281810460061482151715610ad15760649004613a718183614789565b9360018060a01b031693845f52610244602052600460405f200163ffffffff613a9c81835416614796565b1663ffffffff19825416179055335f52610244602052613acf600460405f20016121dc63ffffffff825460201c16614796565b845f5261024460205260405f2080549060148201809211610ad15755335f5261024460205260405f20908154600f8101809111610ad1575f8093928193928293558782526102296020526040822060ff19815416905587825261022a602052816040812055613b3d886157dc565b5087825261022e602052613b53604083206147ba565b613b5c86614de6565b885af1613b67614810565b50156123125760018060a01b0361023354169060405190815260406020820152600a604082015269544f4b454e5f53414c4560b01b60608201525f516020615e7d5f395f51905f5260803392a3604051908152827fa8a7473f10e62cf9687e243de1c3ac8b3cbc3dd04b96826beb3a65b59538581460203393a45f516020615f9d5f395f51905f5260806040516014815260406020820152600860408201526713919517d4d3d31160c21b6060820152a2604051600f815260406020820152600a60408201526913919517d093d551d21560b21b60608201525f516020615f9d5f395f51905f5260803392a2600161015f55005b63cd1c886760e01b5f5260045ffd5b3461046357613c78366143d5565b905f52606660205260405f2060405190613c9182614474565b546001600160a01b03811680835260a09190911c602083015215613cef575b60208101516001600160601b03168281029280159084049091141715610ad15751604080516001600160a01b0390921682526127109092046020820152f35b50604051613cfc81614474565b6065546001600160a01b038116825260a01c6020820152613cb0565b34610463576020366003190112610463576020613d36600435614776565b604051908152f35b34610463576020366003190112610463576001600160a01b03613d5f6142b0565b165f5261023d602052602060405f2054604051908152f35b3461046357613d85366143d5565b613d8d614d49565b613d9682614922565b336001600160a01b039091160361180057801561207b57815f5261022960205260405f20600160ff19825416179055815f5261022a6020528060405f2055613ddd82615717565b506040519081527f5dc96537cbae524775a674b6a810d9a1ba04a9e279f172d156b352151394677a60203392a3005b34610463576108e5613e1d3661439b565b91613e2b6111a18433614b5b565b614bd0565b34610463575f36600319011261046357602060405160068152f35b34610463575f36600319011261046357602061023854604051908152f35b3461046357604036600319011261046357613e826142b0565b602435906001600160a01b03613e9783614922565b6001600160a01b039092169116818114613fa057803314908115613f7c575b5015613f11575f828152609b6020526040902080546001600160a01b031916821790556001600160a01b03613eea83614922565b167f8c5be1e5ebec7d5bd14f71427d1e84f3dd0314c0f7b2291e5b200ac8c7c3b9255f80a4005b60405162461bcd60e51b815260206004820152603d60248201527f4552433732313a20617070726f76652063616c6c6572206973206e6f7420746f60448201527f6b656e206f776e6572206f7220617070726f76656420666f7220616c6c0000006064820152608490fd5b5f908152609c6020908152604080832033845290915290205460ff16905083613eb6565b60405162461bcd60e51b815260206004820152602160248201527f4552433732313a20617070726f76616c20746f2063757272656e74206f776e656044820152603960f91b6064820152608490fd5b3461046357602036600319011261046357602061296b6004356146e9565b34610463575f366003190112610463576040515f60975461402d816143eb565b8084529060018116908115611e97575060011461405457610700836109258185038261448f565b60975f9081525f516020615dfd5f395f51905f52939250905b80821061408557509091508101602001610925611e3c565b91926001816020925483858801015201910190929161406d565b346104635760203660031901126104635760043563ffffffff60e01b811680910361046357602090637965db0b60e01b81149081156140e4575b506040519015158152f35b632483248360e11b8114915081156140fe575b50826140d9565b6380ac58cd60e01b81149150811561414a575b811561411f575b50826140f7565b63152a902d60e11b811491508115614139575b5082614118565b6301ffc9a760e01b14905082614132565b635b5e139f60e01b81149150614111565b34610463576020366003190112610463576001600160a01b0361417c6142b0565b16805f5261023060205260405f2054614194816146a3565b915f5b8281106141b4576040516020808252819061070090820187614306565b600190825f526102306020526141cd8160405f20614677565b90549060031b1c6141de82876146d5565b5201614197565b34610463575f3660031901126104635761023154614202816146a3565b905f61023154905b828110614227576040516020808252819061070090820187614306565b8181101561426d576102315f527fae55bd7d7ac199ab94a59019d11e8ea53916adefebcd74fd08d32115dd445d108101546001919061426682876146d5565b520161420a565b634e487b7160e01b5f52603260045260245ffd5b34610463576106f0614292366142dc565b6001600160a01b039092165f90815261023060205260409020614ace565b600435906001600160a01b038216820361046357565b602435906001600160a01b038216820361046357565b6060906003190112610463576004356001600160a01b038116810361046357906024359060443590565b90602080835192838152019201905f5b8181106143235750505090565b8251845260209384019390920191600101614316565b929190614350602091604086526040860190614306565b930152565b5f5b8381106143665750505f910152565b8181015183820152602001614357565b9060209161438f81518092818552858086019101614355565b601f01601f1916010190565b6060906003190112610463576004356001600160a01b038116810361046357906024356001600160a01b0381168103610463579060443590565b6040906003190112610463576004359060243590565b90600182811c92168015614419575b602083101461440557565b634e487b7160e01b5f52602260045260245ffd5b91607f16916143fa565b608081019081106001600160401b03821117610f6557604052565b60a081019081106001600160401b03821117610f6557604052565b60c081019081106001600160401b03821117610f6557604052565b604081019081106001600160401b03821117610f6557604052565b601f909101601f19168101906001600160401b03821190821017610f6557604052565b9060405191825f8254926144c5846143eb565b808452936001811690811561453057506001146144ec575b506144ea9250038361448f565b565b90505f9291925260205f20905f915b8183106145145750509060206144ea928201015f6144dd565b60209193508060019154838589010152019101909184926144fb565b9050602092506144ea94915060ff191682840152151560051b8201015f6144dd565b6001600160401b038111610f6557601f01601f191660200190565b92919261457982614552565b91614587604051938461448f565b829481845281830111610463578281602093845f960137010152565b9080601f83011215610463578160206145be9335910161456d565b90565b9060018060a01b03825116815260806145fe6145ec602085015160a0602086015260a0850190614376565b60408501518482036040860152614376565b60608085015190840152928101516001600160601b031691015290565b805482101561426d575f5260205f209060021b01905f90565b9181601f84011215610463578235916001600160401b038311610463576020838186019501011161046357565b604435906001600160601b038216820361046357565b805482101561426d575f5260205f2001905f90565b6001600160401b038111610f655760051b60200190565b906146ad8261468c565b6146ba604051918261448f565b82815280926146cb601f199161468c565b0190602036910137565b805182101561426d5760209160051b010190565b6146fa6146f582615102565b6148db565b5f908152609b60205260409020546001600160a01b031690565b1561471b57565b60405162461bcd60e51b815260206004820152602d60248201527f4552433732313a2063616c6c6572206973206e6f7420746f6b656e206f776e6560448201526c1c881bdc88185c1c1c9bdd9959609a1b6064820152608490fd5b5f5261012d602052600160405f20015490565b91908203918211610ad157565b63ffffffff1663ffffffff8114610ad15760010190565b91908201809211610ad157565b8054905f8155816147c9575050565b6001600160fe1b0382168203610ad1575f5260205f209060021b8101905b8181106147f2575050565b6004905f81555f60018201555f60028201555f6003820155016147e7565b3d1561483a573d9061482182614552565b9161482f604051938461448f565b82523d5f602084013e565b606090565b1561484657565b60405162461bcd60e51b815260206004820152602c60248201525f516020615e1d5f395f51905f5260448201526b19195b1959d85d1958d85b1b60a21b6064820152608490fd5b1561489457565b60405162461bcd60e51b815260206004820152602c60248201525f516020615e1d5f395f51905f5260448201526b6163746976652070726f787960a01b6064820152608490fd5b156148e257565b60405162461bcd60e51b8152602060048201526018602482015277115490cdcc8c4e881a5b9d985b1a59081d1bdad95b88125160421b6044820152606490fd5b5f908152609960205260409020546001600160a01b03166145be8115156148db565b604051906149518261443e565b5f60808382815260606020820152606060408201528260608201520152565b81811061497b575050565b5f8155600101614970565b9190601f811161499557505050565b6144ea925f5260205f20906020601f840160051c83019310610f5b57601f0160051c0190614970565b8160011b915f199060031b1c19161790565b90918060409360208452816020850152848401375f828201840152601f01601f1916010190565b90604051614a0481614423565b82546001600160a01b0316815260018301546020820152600283015460ff1660408201526003909201546060830152565b61023154929183821015614ab357614a4d90826147ad565b92808411614aab575b50614a618184614789565b614a6a816146a3565b915f5b828110614a7b575050509190565b80614a93614a8b600193856147ad565b610231614677565b90549060031b1c614aa482876146d5565b5201614a6d565b92505f614a56565b5050604051614ac360208261448f565b5f81525f3681379190565b8054939284831015614b4a57614ae490836147ad565b93808511614b42575b50614af88285614789565b90614b02826146a3565b925f5b838110614b1457505050509190565b80614b2a614b24600193856147ad565b85614677565b90549060031b1c614b3b82886146d5565b5201614b05565b93505f614aed565b505050604051614ac360208261448f565b906001600160a01b03614b6d82614922565b6001600160a01b0390931692168281149291908315614bad575b508215614b9357505090565b9091506001600160a01b0390614ba8906146e9565b161490565b9092505f52609c60205260405f20815f5260205260ff60405f205416915f614b87565b6001600160a01b0390911690811561045457614c02614bee84614922565b6001600160a01b03928316921682146156bd565b80614cc9575b81614c8f575b614c2a816001600160a01b03614c2386614922565b16146156bd565b5f838152609b6020908152604080832080546001600160a01b0319908116909155848452609a835281842080545f1901905585845281842080546001019055868452609990925282208054909116841790555f516020615ebd5f395f51905f529080a4565b5f5b60018110614c9f5750614c0e565b600190835f5261022f602052614cc260405f20614cbc83886147ad565b90615788565b5001614c91565b5f5b60018110614cd95750614c08565b614ce381856147ad565b90815f5261024560205260ff60405f20541680614d40575b612ed357614d31826001935f5261024560205260ff60405f20541680614d3857612eb257845f5261022f60205260405f20615896565b5001614ccb565b508515612e94565b50831515614cfb565b60ff6101915416614d5657565b60405162461bcd60e51b815260206004820152601060248201526f14185d5cd8589b194e881c185d5cd95960821b6044820152606490fd5b600261015f5414614da157600261015f55565b60405162461bcd60e51b815260206004820152601f60248201527f5265656e7472616e637947756172643a207265656e7472616e742063616c6c006044820152606490fd5b610234545f91906001600160a01b031615614ea957610234546001600160a01b0316803b15610463575f8291606460405180948193631dce019960e31b835260206004840152600f60248401526e6d61726b6574706c6163655f66656560881b60448401525af19081614e94575b50614e90576102335482918291829182916001600160a01b03165af1614e78614810565b5015614e815750565b63b939033560e01b8152600490fd5b5050565b614ea19193505f9061448f565b5f915f614e54565b610233545f9250829182918291906001600160a01b03165af1614eca614810565b5015614ed257565b63b939033560e01b5f5260045ffd5b335f9081527fe8b47e42cab78272d650e16c902ae501350b5785a88ad6cc35425628c6398d9a602052604090205460ff1615614f1957565b614fdc614f2533615b30565b614fbc6011614f405f516020615e3d5f395f51905f52615c16565b92603760405194859276020b1b1b2b9b9a1b7b73a3937b61d1030b1b1b7bab73a1604d1b6020850152614f7c8151809260208688019101614355565b83017001034b99036b4b9b9b4b733903937b6329607d1b83820152614fab825180936020604885019101614355565b01010301601f19810183528261448f565b60405162461bcd60e51b8152602060048201529182916024830190614376565b0390fd5b335f9081527f7ed425ae1d300634375f848c08e126f7f779b9d472950d746ef0d3e26602551d602052604090205460ff161561501857565b614fdc61502433615b30565b614fbc6011614f405f516020615edd5f395f51905f52615c16565b5f81815261012d6020908152604080832033845290915290205460ff16156150645750565b614fdc90614fbc6011614f4061507933615b30565b93615c16565b805f5261012d60205260405f2060018060a01b0383165f5260205260ff60405f2054166150aa575050565b5f81815261012d602090815260408083206001600160a01b0395909516808452949091528120805460ff19169055339291907ff6391f5c32d9c69d2a47ea670b442974b53935d1edc7fd64eb21e047a839171b9080a4565b5f908152609960205260409020546001600160a01b0316151590565b6040519190602061512f818561448f565b5f84526001600160a01b0382169081156151e15761515561514f85615102565b15615cb8565b5f5b600181106151be57509183809260996144ea979561517a61514f6111b699615102565b5f838152609a82526040808220805460010190558582529290915290812080546001600160a01b031916831790555f516020615ebd5f395f51905f528180a46159d7565b600190835f5261022f83526151da60405f20614cbc83896147ad565b5001615157565b6064906040519062461bcd60e51b825280600483015260248201527f4552433732313a206d696e7420746f20746865207a65726f20616464726573736044820152fd5b91909161523081615102565b15615315575f81815260c96020526040902083516001600160401b038111610f65576152608161153084546143eb565b6020601f82116001146152a057816020949392615294925f516020615f3d5f395f51905f5297985f926116525750506149be565b90555b604051908152a1565b601f19821695835f52815f20965f5b8181106152fd575096600192849260209796955f516020615f3d5f395f51905f52999a106152e5575b505050811b019055615297565b01515f1960f88460031b161c191690555f80806152d8565b838301518955600190980197602093840193016152af565b60405162461bcd60e51b815260206004820152602e60248201527f45524337323155524953746f726167653a2055524920736574206f66206e6f6e60448201526d32bc34b9ba32b73a103a37b5b2b760911b6064820152608490fd5b916001600160601b031690612710821161541d576001600160a01b03169182156153da57604051926153a284614474565b835260208084019283525f91825260669052604090209151905160a01b6001600160a01b0319166001600160a01b0391909116179055565b60405162461bcd60e51b815260206004820152601b60248201527a455243323938313a20496e76616c696420706172616d657465727360281b6044820152606490fd5b60405162461bcd60e51b815260206004820152602a60248201527f455243323938313a20726f79616c7479206665652077696c6c206578636565646044820152692073616c65507269636560b01b6064820152608490fd5b6040516154a3602082816154928183019687815193849201614355565b81010301601f19810183528261448f565b5190206040516020810190634d6f647360e01b8252600481526154c760248261448f565b5190208114908115615584575b8115615550575b811561551c575b81156154ec575090565b90506040516020810190692b24a82830b93a3732b960b11b8252600a8152615515602a8261448f565b5190201490565b90506040516020810190692132ba30aa32b9ba32b960b11b8252600a8152615545602a8261448f565b5190208114906154e2565b905060405160208101906920b6b130b9b9b0b237b960b11b8252600a8152615579602a8261448f565b5190208114906154db565b905060405160208101906924b733363ab2b731b2b960b11b8252600a81526155ad602a8261448f565b5190208114906154d4565b60809060208152603260208201527f4552433732313a207472616e7366657220746f206e6f6e20455243373231526560408201527131b2b4bb32b91034b6b83632b6b2b73a32b960711b60608201520190565b1561561257565b60405162461bcd60e51b815280614fdc600482016155b8565b1561563257565b60405162461bcd60e51b815260206004820152602b60248201527f496e697469616c697a61626c653a20636f6e7472616374206973206e6f74206960448201526a6e697469616c697a696e6760a81b6064820152608490fd5b6156976146f582615102565b5f5260c96020526156aa60405f206144b2565b5f6040516156b960208261448f565b5290565b156156c457565b60405162461bcd60e51b815260206004820152602560248201527f4552433732313a207472616e736665722066726f6d20696e636f72726563742060448201526437bbb732b960d91b6064820152608490fd5b805f5261023260205260405f2054155f146157835761023154600160401b811015610f655761576a61575482600185940161023155610231614677565b819391549060031b91821b915f19901b19161790565b905561023154905f5261023260205260405f2055600190565b505f90565b6001810190825f528160205260405f2054155f146157d5578054600160401b811015610f65576157c2615754826001879401855584614677565b905554915f5260205260405f2055600190565b5050505f90565b5f81815261023260205260409020548015615890575f198101818111610ad157610231545f19810191908211610ad157808203615855575b505050610231548015610a6b575f190161583081610231614677565b8154905f199060031b1b19169055610231555f526102326020525f6040812055600190565b61587961586761575493610231614677565b90549060031b1c928392610231614677565b90555f5261023260205260405f20555f8080615814565b50505f90565b906001820191815f528260205260405f20548015155f1461593f575f198101818111610ad15782545f19810191908211610ad15780820361590a575b50505080548015610a6b575f1901906158eb8282614677565b8154905f199060031b1b19169055555f526020525f6040812055600190565b61592a61591a6157549386614677565b90549060031b1c92839286614677565b90555f528360205260405f20555f80806158d2565b505050505f90565b803b1561597c575f516020615e5d5f395f51905f5280546001600160a01b0319166001600160a01b0392909216919091179055565b60405162461bcd60e51b815260206004820152602d60248201527f455243313936373a206e657720696d706c656d656e746174696f6e206973206e60448201526c1bdd08184818dbdb9d1c9858dd609a1b6064820152608490fd5b91823b15615abf57615a1c926020925f604051809681958294630a85bd0160e11b84523360048501528460248501526044840152608060648401526084830190614376565b03926001600160a01b03165af15f9181615a7a575b50615a6457615a3e614810565b80519081615a5f5760405162461bcd60e51b815280614fdc600482016155b8565b602001fd5b6001600160e01b031916630a85bd0160e11b1490565b9091506020813d602011615ab7575b81615a966020938361448f565b8101031261046357516001600160e01b03198116810361046357905f615a31565b3d9150615a89565b505050600190565b919290803b15615b1657615a1c935f60209460405196879586948593630a85bd0160e11b855233600486015260018060a01b031660248501526044840152608060648401526084830190614376565b50505050600190565b90815181101561426d570160200190565b615b3a602a614552565b90615b48604051928361448f565b602a8252615b56602a614552565b6020830190601f190136823782511561426d576030905381516001101561426d576078602183015360295b60018111615bd55750615b915790565b606460405162461bcd60e51b815260206004820152602060248201527f537472696e67733a20686578206c656e67746820696e73756666696369656e746044820152fd5b90600f8116601081101561426d576f181899199a1a9b1b9c1cb0b131b232b360811b901a615c038385615b1f565b5360041c908015610ad1575f1901615b81565b615c206042614552565b90615c2e604051928361448f565b60428252615c3c6042614552565b6020830190601f190136823782511561426d576030905381516001101561426d576078602183015360415b60018111615c775750615b915790565b90600f8116601081101561426d576f181899199a1a9b1b9c1cb0b131b232b360811b901a615ca58385615b1f565b5360041c908015610ad1575f1901615c67565b15615cbf57565b60405162461bcd60e51b815260206004820152601c60248201527b115490cdcc8c4e881d1bdad95b88185b1c9958591e481b5a5b9d195960221b6044820152606490fd5b91929015615d655750815115615d17575090565b3b15615d205790565b60405162461bcd60e51b815260206004820152601d60248201527f416464726573733a2063616c6c20746f206e6f6e2d636f6e74726163740000006044820152606490fd5b825190915015615d785750805190602001fd5b60405162461bcd60e51b815260206004820152908190614fdc90602483019061437656fe2f8788117e7eff1d82e926ec794901d17c78024a50270940304540a733656f0d4910fdfa16fed3260ed0e7147f7cc6da11a60208b5b9406d12a635614ffd91431e1b69b56bd875547ce642e5ca9d38001b825863ffbf9cf08c72e0ff64b00a8d354a83ed9988f79f6038d4c7a7dadbad8af32f4ad6df893e0e5807a1b1944ff946756e6374696f6e206d7573742062652063616c6c6564207468726f75676820189ab7a9244df0848122154315af71fe140f3db0fe014031783b0946b8c9d2e3360894a13ba1a3210667c828492db98dca3e2076cc3735a920a3ca505d382bbc21ef4c3fb7c1ca86841fe7b11bbb71ad12bd4b7bb3205924ec33c681c9d47c3fbc7cd75a20ee27fd9adebab32041f755214dbc6bffa90cc0225b39da2e5c2d3bddf252ad1be2c89b69c2b068fc378daa952ba7f163c4a11628f55a4df523b3efa49807205ce4d355092ef5a8a18f56e8913cf4a201fbe287825b095693c2177545524331393637557067726164653a20756e737570706f727465642070726f78416464726573733a206c6f772d6c6576656c2064656c65676174652063616c6cf8e1a15aba9398e019f0b49df1a4fde98ee17ae345cb5f6b5e2c27f5033e8ce745524331393637557067726164653a206e657720696d706c656d656e746174692237a976fa961f5921fd19f2b03c925c725d77b20ce8f790c19709c03de4d814bc485bf8e37db28d327f937baa2ba28235470b977aa1200fd7eedfd31f24ac45a2646970667358221220389f03a45749df72e4e862d324c62ed2025244eee7d50cbde9a1ba3add332cee64736f6c634300081c0033",
  "linkReferences": {},
  "deployedLinkReferences": {}
}