{
  "_format": "hh-sol-artifact-1",
  "contractName": "GameifiedMarketplaceCoreV1",
  "sourceName": "contracts/Marketplace/GameifiedMarketplaceCoreV1.sol",
  "abi": [
    {
      "inputs": [],
      "stateMutability": "nonpayable",
      "type": "constructor"
    },
    {
      "anonymous": false,
      "inputs": [
        {
          "indexed": false,
          "internalType": "address",
          "name": "previousAdmin",
          "type": "address"
        },
        {
          "indexed": false,
          "internalType": "address",
          "name": "newAdmin",
          "type": "address"
        }
      ],
      "name": "AdminChanged",
      "type": "event"
    },
    {
      "anonymous": false,
      "inputs": [
        {
          "indexed": true,
          "internalType": "address",
          "name": "owner",
          "type": "address"
        },
        {
          "indexed": true,
          "internalType": "address",
          "name": "approved",
          "type": "address"
        },
        {
          "indexed": true,
          "internalType": "uint256",
          "name": "tokenId",
          "type": "uint256"
        }
      ],
      "name": "Approval",
      "type": "event"
    },
    {
      "anonymous": false,
      "inputs": [
        {
          "indexed": true,
          "internalType": "address",
          "name": "owner",
          "type": "address"
        },
        {
          "indexed": true,
          "internalType": "address",
          "name": "operator",
          "type": "address"
        },
        {
          "indexed": false,
          "internalType": "bool",
          "name": "approved",
          "type": "bool"
        }
      ],
      "name": "ApprovalForAll",
      "type": "event"
    },
    {
      "anonymous": false,
      "inputs": [
        {
          "indexed": false,
          "internalType": "uint256",
          "name": "_fromTokenId",
          "type": "uint256"
        },
        {
          "indexed": false,
          "internalType": "uint256",
          "name": "_toTokenId",
          "type": "uint256"
        }
      ],
      "name": "BatchMetadataUpdate",
      "type": "event"
    },
    {
      "anonymous": false,
      "inputs": [
        {
          "indexed": true,
          "internalType": "address",
          "name": "beacon",
          "type": "address"
        }
      ],
      "name": "BeaconUpgraded",
      "type": "event"
    },
    {
      "anonymous": false,
      "inputs": [
        {
          "indexed": true,
          "internalType": "address",
          "name": "user",
          "type": "address"
        },
        {
          "indexed": true,
          "internalType": "uint256",
          "name": "tokenId",
          "type": "uint256"
        },
        {
          "indexed": false,
          "internalType": "string",
          "name": "comment",
          "type": "string"
        }
      ],
      "name": "CommentAdded",
      "type": "event"
    },
    {
      "anonymous": false,
      "inputs": [
        {
          "indexed": false,
          "internalType": "uint8",
          "name": "version",
          "type": "uint8"
        }
      ],
      "name": "Initialized",
      "type": "event"
    },
    {
      "anonymous": false,
      "inputs": [
        {
          "indexed": true,
          "internalType": "address",
          "name": "user",
          "type": "address"
        },
        {
          "indexed": true,
          "internalType": "uint256",
          "name": "tokenId",
          "type": "uint256"
        },
        {
          "indexed": false,
          "internalType": "bool",
          "name": "liked",
          "type": "bool"
        }
      ],
      "name": "LikeToggled",
      "type": "event"
    },
    {
      "anonymous": false,
      "inputs": [
        {
          "indexed": false,
          "internalType": "uint256",
          "name": "_tokenId",
          "type": "uint256"
        }
      ],
      "name": "MetadataUpdate",
      "type": "event"
    },
    {
      "anonymous": false,
      "inputs": [
        {
          "indexed": true,
          "internalType": "address",
          "name": "seller",
          "type": "address"
        },
        {
          "indexed": true,
          "internalType": "address",
          "name": "buyer",
          "type": "address"
        },
        {
          "indexed": true,
          "internalType": "uint256",
          "name": "tokenId",
          "type": "uint256"
        },
        {
          "indexed": false,
          "internalType": "uint256",
          "name": "amount",
          "type": "uint256"
        }
      ],
      "name": "OfferAccepted",
      "type": "event"
    },
    {
      "anonymous": false,
      "inputs": [
        {
          "indexed": true,
          "internalType": "address",
          "name": "offeror",
          "type": "address"
        },
        {
          "indexed": true,
          "internalType": "uint256",
          "name": "tokenId",
          "type": "uint256"
        },
        {
          "indexed": false,
          "internalType": "uint256",
          "name": "amount",
          "type": "uint256"
        }
      ],
      "name": "OfferMade",
      "type": "event"
    },
    {
      "anonymous": false,
      "inputs": [
        {
          "indexed": false,
          "internalType": "address",
          "name": "account",
          "type": "address"
        }
      ],
      "name": "Paused",
      "type": "event"
    },
    {
      "anonymous": false,
      "inputs": [
        {
          "indexed": true,
          "internalType": "address",
          "name": "from",
          "type": "address"
        },
        {
          "indexed": false,
          "internalType": "uint256",
          "name": "amount",
          "type": "uint256"
        },
        {
          "indexed": true,
          "internalType": "address",
          "name": "to",
          "type": "address"
        },
        {
          "indexed": false,
          "internalType": "string",
          "name": "operation",
          "type": "string"
        }
      ],
      "name": "PlatformFeeTransferred",
      "type": "event"
    },
    {
      "anonymous": false,
      "inputs": [
        {
          "indexed": true,
          "internalType": "address",
          "name": "seller",
          "type": "address"
        },
        {
          "indexed": true,
          "internalType": "uint256",
          "name": "tokenId",
          "type": "uint256"
        },
        {
          "indexed": false,
          "internalType": "uint256",
          "name": "newPrice",
          "type": "uint256"
        }
      ],
      "name": "PriceUpdated",
      "type": "event"
    },
    {
      "anonymous": false,
      "inputs": [
        {
          "indexed": true,
          "internalType": "bytes32",
          "name": "role",
          "type": "bytes32"
        },
        {
          "indexed": true,
          "internalType": "bytes32",
          "name": "previousAdminRole",
          "type": "bytes32"
        },
        {
          "indexed": true,
          "internalType": "bytes32",
          "name": "newAdminRole",
          "type": "bytes32"
        }
      ],
      "name": "RoleAdminChanged",
      "type": "event"
    },
    {
      "anonymous": false,
      "inputs": [
        {
          "indexed": true,
          "internalType": "bytes32",
          "name": "role",
          "type": "bytes32"
        },
        {
          "indexed": true,
          "internalType": "address",
          "name": "account",
          "type": "address"
        },
        {
          "indexed": true,
          "internalType": "address",
          "name": "sender",
          "type": "address"
        }
      ],
      "name": "RoleGranted",
      "type": "event"
    },
    {
      "anonymous": false,
      "inputs": [
        {
          "indexed": true,
          "internalType": "bytes32",
          "name": "role",
          "type": "bytes32"
        },
        {
          "indexed": true,
          "internalType": "address",
          "name": "account",
          "type": "address"
        },
        {
          "indexed": true,
          "internalType": "address",
          "name": "sender",
          "type": "address"
        }
      ],
      "name": "RoleRevoked",
      "type": "event"
    },
    {
      "anonymous": false,
      "inputs": [
        {
          "indexed": true,
          "internalType": "address",
          "name": "creator",
          "type": "address"
        },
        {
          "indexed": true,
          "internalType": "uint256",
          "name": "tokenId",
          "type": "uint256"
        },
        {
          "indexed": false,
          "internalType": "string",
          "name": "uri",
          "type": "string"
        }
      ],
      "name": "TokenCreated",
      "type": "event"
    },
    {
      "anonymous": false,
      "inputs": [
        {
          "indexed": true,
          "internalType": "address",
          "name": "seller",
          "type": "address"
        },
        {
          "indexed": true,
          "internalType": "uint256",
          "name": "tokenId",
          "type": "uint256"
        },
        {
          "indexed": false,
          "internalType": "uint256",
          "name": "price",
          "type": "uint256"
        }
      ],
      "name": "TokenListed",
      "type": "event"
    },
    {
      "anonymous": false,
      "inputs": [
        {
          "indexed": true,
          "internalType": "address",
          "name": "seller",
          "type": "address"
        },
        {
          "indexed": true,
          "internalType": "address",
          "name": "buyer",
          "type": "address"
        },
        {
          "indexed": true,
          "internalType": "uint256",
          "name": "tokenId",
          "type": "uint256"
        },
        {
          "indexed": false,
          "internalType": "uint256",
          "name": "price",
          "type": "uint256"
        }
      ],
      "name": "TokenSold",
      "type": "event"
    },
    {
      "anonymous": false,
      "inputs": [
        {
          "indexed": true,
          "internalType": "address",
          "name": "seller",
          "type": "address"
        },
        {
          "indexed": true,
          "internalType": "uint256",
          "name": "tokenId",
          "type": "uint256"
        }
      ],
      "name": "TokenUnlisted",
      "type": "event"
    },
    {
      "anonymous": false,
      "inputs": [
        {
          "indexed": true,
          "internalType": "address",
          "name": "from",
          "type": "address"
        },
        {
          "indexed": true,
          "internalType": "address",
          "name": "to",
          "type": "address"
        },
        {
          "indexed": true,
          "internalType": "uint256",
          "name": "tokenId",
          "type": "uint256"
        }
      ],
      "name": "Transfer",
      "type": "event"
    },
    {
      "anonymous": false,
      "inputs": [
        {
          "indexed": false,
          "internalType": "address",
          "name": "account",
          "type": "address"
        }
      ],
      "name": "Unpaused",
      "type": "event"
    },
    {
      "anonymous": false,
      "inputs": [
        {
          "indexed": true,
          "internalType": "address",
          "name": "implementation",
          "type": "address"
        }
      ],
      "name": "Upgraded",
      "type": "event"
    },
    {
      "inputs": [],
      "name": "ADMIN_ROLE",
      "outputs": [
        {
          "internalType": "bytes32",
          "name": "",
          "type": "bytes32"
        }
      ],
      "stateMutability": "view",
      "type": "function"
    },
    {
      "inputs": [],
      "name": "DEFAULT_ADMIN_ROLE",
      "outputs": [
        {
          "internalType": "bytes32",
          "name": "",
          "type": "bytes32"
        }
      ],
      "stateMutability": "view",
      "type": "function"
    },
    {
      "inputs": [],
      "name": "FEE_TO_LEVELING_SYSTEM_BP",
      "outputs": [
        {
          "internalType": "uint256",
          "name": "",
          "type": "uint256"
        }
      ],
      "stateMutability": "view",
      "type": "function"
    },
    {
      "inputs": [],
      "name": "FEE_TO_TREASURY_BP",
      "outputs": [
        {
          "internalType": "uint256",
          "name": "",
          "type": "uint256"
        }
      ],
      "stateMutability": "view",
      "type": "function"
    },
    {
      "inputs": [],
      "name": "PLATFORM_FEE_PERCENTAGE",
      "outputs": [
        {
          "internalType": "uint256",
          "name": "",
          "type": "uint256"
        }
      ],
      "stateMutability": "view",
      "type": "function"
    },
    {
      "inputs": [],
      "name": "UPGRADER_ROLE",
      "outputs": [
        {
          "internalType": "bytes32",
          "name": "",
          "type": "bytes32"
        }
      ],
      "stateMutability": "view",
      "type": "function"
    },
    {
      "inputs": [
        {
          "internalType": "uint256",
          "name": "_tokenId",
          "type": "uint256"
        },
        {
          "internalType": "uint256",
          "name": "_offerIndex",
          "type": "uint256"
        }
      ],
      "name": "acceptOffer",
      "outputs": [],
      "stateMutability": "nonpayable",
      "type": "function"
    },
    {
      "inputs": [
        {
          "internalType": "uint256",
          "name": "_tokenId",
          "type": "uint256"
        },
        {
          "internalType": "string",
          "name": "_text",
          "type": "string"
        }
      ],
      "name": "addComment",
      "outputs": [],
      "stateMutability": "nonpayable",
      "type": "function"
    },
    {
      "inputs": [
        {
          "internalType": "address",
          "name": "to",
          "type": "address"
        },
        {
          "internalType": "uint256",
          "name": "tokenId",
          "type": "uint256"
        }
      ],
      "name": "approve",
      "outputs": [],
      "stateMutability": "nonpayable",
      "type": "function"
    },
    {
      "inputs": [
        {
          "internalType": "address",
          "name": "owner",
          "type": "address"
        }
      ],
      "name": "balanceOf",
      "outputs": [
        {
          "internalType": "uint256",
          "name": "",
          "type": "uint256"
        }
      ],
      "stateMutability": "view",
      "type": "function"
    },
    {
      "inputs": [
        {
          "internalType": "uint256",
          "name": "_tokenId",
          "type": "uint256"
        }
      ],
      "name": "buyToken",
      "outputs": [],
      "stateMutability": "payable",
      "type": "function"
    },
    {
      "inputs": [
        {
          "internalType": "uint256",
          "name": "_tokenId",
          "type": "uint256"
        },
        {
          "internalType": "uint256",
          "name": "_offerIndex",
          "type": "uint256"
        }
      ],
      "name": "cancelOffer",
      "outputs": [],
      "stateMutability": "nonpayable",
      "type": "function"
    },
    {
      "inputs": [
        {
          "internalType": "string",
          "name": "_tokenURI",
          "type": "string"
        },
        {
          "internalType": "string",
          "name": "_category",
          "type": "string"
        },
        {
          "internalType": "uint96",
          "name": "_royaltyPercentage",
          "type": "uint96"
        }
      ],
      "name": "createStandardNFT",
      "outputs": [
        {
          "internalType": "uint256",
          "name": "",
          "type": "uint256"
        }
      ],
      "stateMutability": "nonpayable",
      "type": "function"
    },
    {
      "inputs": [
        {
          "internalType": "string",
          "name": "_tokenURI",
          "type": "string"
        },
        {
          "internalType": "string",
          "name": "_category",
          "type": "string"
        },
        {
          "internalType": "uint96",
          "name": "_royaltyPercentage",
          "type": "uint96"
        },
        {
          "internalType": "uint256",
          "name": "_count",
          "type": "uint256"
        }
      ],
      "name": "createStandardNFTBatch",
      "outputs": [
        {
          "internalType": "uint256[]",
          "name": "",
          "type": "uint256[]"
        }
      ],
      "stateMutability": "nonpayable",
      "type": "function"
    },
    {
      "inputs": [
        {
          "internalType": "uint256",
          "name": "tokenId",
          "type": "uint256"
        }
      ],
      "name": "getApproved",
      "outputs": [
        {
          "internalType": "address",
          "name": "",
          "type": "address"
        }
      ],
      "stateMutability": "view",
      "type": "function"
    },
    {
      "inputs": [],
      "name": "getListedNFTs",
      "outputs": [
        {
          "internalType": "uint256[]",
          "name": "",
          "type": "uint256[]"
        }
      ],
      "stateMutability": "view",
      "type": "function"
    },
    {
      "inputs": [
        {
          "internalType": "uint256",
          "name": "_tokenId",
          "type": "uint256"
        }
      ],
      "name": "getNFTComments",
      "outputs": [
        {
          "internalType": "string[]",
          "name": "",
          "type": "string[]"
        }
      ],
      "stateMutability": "view",
      "type": "function"
    },
    {
      "inputs": [
        {
          "internalType": "uint256",
          "name": "_tokenId",
          "type": "uint256"
        }
      ],
      "name": "getNFTLikeCount",
      "outputs": [
        {
          "internalType": "uint256",
          "name": "",
          "type": "uint256"
        }
      ],
      "stateMutability": "view",
      "type": "function"
    },
    {
      "inputs": [
        {
          "internalType": "uint256",
          "name": "_tokenId",
          "type": "uint256"
        }
      ],
      "name": "getNFTMetadata",
      "outputs": [
        {
          "components": [
            {
              "internalType": "address",
              "name": "creator",
              "type": "address"
            },
            {
              "internalType": "string",
              "name": "uri",
              "type": "string"
            },
            {
              "internalType": "string",
              "name": "category",
              "type": "string"
            },
            {
              "internalType": "uint256",
              "name": "createdAt",
              "type": "uint256"
            },
            {
              "internalType": "uint96",
              "name": "royaltyPercentage",
              "type": "uint96"
            }
          ],
          "internalType": "struct GameifiedMarketplaceCoreV1.NFTMetadata",
          "name": "",
          "type": "tuple"
        }
      ],
      "stateMutability": "view",
      "type": "function"
    },
    {
      "inputs": [
        {
          "internalType": "uint256",
          "name": "_tokenId",
          "type": "uint256"
        }
      ],
      "name": "getNFTOffers",
      "outputs": [
        {
          "components": [
            {
              "internalType": "address",
              "name": "offeror",
              "type": "address"
            },
            {
              "internalType": "uint256",
              "name": "amount",
              "type": "uint256"
            },
            {
              "internalType": "uint8",
              "name": "expiresInDays",
              "type": "uint8"
            },
            {
              "internalType": "uint256",
              "name": "timestamp",
              "type": "uint256"
            }
          ],
          "internalType": "struct GameifiedMarketplaceCoreV1.Offer[]",
          "name": "",
          "type": "tuple[]"
        }
      ],
      "stateMutability": "view",
      "type": "function"
    },
    {
      "inputs": [
        {
          "internalType": "bytes32",
          "name": "role",
          "type": "bytes32"
        }
      ],
      "name": "getRoleAdmin",
      "outputs": [
        {
          "internalType": "bytes32",
          "name": "",
          "type": "bytes32"
        }
      ],
      "stateMutability": "view",
      "type": "function"
    },
    {
      "inputs": [
        {
          "internalType": "address",
          "name": "_user",
          "type": "address"
        }
      ],
      "name": "getUserCreatedNFTs",
      "outputs": [
        {
          "internalType": "uint256[]",
          "name": "",
          "type": "uint256[]"
        }
      ],
      "stateMutability": "view",
      "type": "function"
    },
    {
      "inputs": [
        {
          "internalType": "address",
          "name": "_user",
          "type": "address"
        }
      ],
      "name": "getUserNFTs",
      "outputs": [
        {
          "internalType": "uint256[]",
          "name": "",
          "type": "uint256[]"
        }
      ],
      "stateMutability": "view",
      "type": "function"
    },
    {
      "inputs": [
        {
          "internalType": "bytes32",
          "name": "role",
          "type": "bytes32"
        },
        {
          "internalType": "address",
          "name": "account",
          "type": "address"
        }
      ],
      "name": "grantRole",
      "outputs": [],
      "stateMutability": "nonpayable",
      "type": "function"
    },
    {
      "inputs": [
        {
          "internalType": "bytes32",
          "name": "role",
          "type": "bytes32"
        },
        {
          "internalType": "address",
          "name": "account",
          "type": "address"
        }
      ],
      "name": "hasRole",
      "outputs": [
        {
          "internalType": "bool",
          "name": "",
          "type": "bool"
        }
      ],
      "stateMutability": "view",
      "type": "function"
    },
    {
      "inputs": [
        {
          "internalType": "address",
          "name": "_platformTreasury",
          "type": "address"
        }
      ],
      "name": "initialize",
      "outputs": [],
      "stateMutability": "nonpayable",
      "type": "function"
    },
    {
      "inputs": [
        {
          "internalType": "address",
          "name": "owner",
          "type": "address"
        },
        {
          "internalType": "address",
          "name": "operator",
          "type": "address"
        }
      ],
      "name": "isApprovedForAll",
      "outputs": [
        {
          "internalType": "bool",
          "name": "",
          "type": "bool"
        }
      ],
      "stateMutability": "view",
      "type": "function"
    },
    {
      "inputs": [
        {
          "internalType": "uint256",
          "name": "",
          "type": "uint256"
        }
      ],
      "name": "isListed",
      "outputs": [
        {
          "internalType": "bool",
          "name": "",
          "type": "bool"
        }
      ],
      "stateMutability": "view",
      "type": "function"
    },
    {
      "inputs": [],
      "name": "levelingSystemAddress",
      "outputs": [
        {
          "internalType": "address",
          "name": "",
          "type": "address"
        }
      ],
      "stateMutability": "view",
      "type": "function"
    },
    {
      "inputs": [
        {
          "internalType": "uint256",
          "name": "_tokenId",
          "type": "uint256"
        },
        {
          "internalType": "uint256",
          "name": "_price",
          "type": "uint256"
        }
      ],
      "name": "listTokenForSale",
      "outputs": [],
      "stateMutability": "nonpayable",
      "type": "function"
    },
    {
      "inputs": [
        {
          "internalType": "uint256",
          "name": "",
          "type": "uint256"
        }
      ],
      "name": "listedPrice",
      "outputs": [
        {
          "internalType": "uint256",
          "name": "",
          "type": "uint256"
        }
      ],
      "stateMutability": "view",
      "type": "function"
    },
    {
      "inputs": [
        {
          "internalType": "uint256",
          "name": "_tokenId",
          "type": "uint256"
        },
        {
          "internalType": "uint8",
          "name": "_expiresInDays",
          "type": "uint8"
        }
      ],
      "name": "makeOffer",
      "outputs": [],
      "stateMutability": "payable",
      "type": "function"
    },
    {
      "inputs": [],
      "name": "name",
      "outputs": [
        {
          "internalType": "string",
          "name": "",
          "type": "string"
        }
      ],
      "stateMutability": "view",
      "type": "function"
    },
    {
      "inputs": [
        {
          "internalType": "uint256",
          "name": "",
          "type": "uint256"
        },
        {
          "internalType": "uint256",
          "name": "",
          "type": "uint256"
        }
      ],
      "name": "nftComments",
      "outputs": [
        {
          "internalType": "string",
          "name": "",
          "type": "string"
        }
      ],
      "stateMutability": "view",
      "type": "function"
    },
    {
      "inputs": [
        {
          "internalType": "uint256",
          "name": "",
          "type": "uint256"
        }
      ],
      "name": "nftLikeCount",
      "outputs": [
        {
          "internalType": "uint256",
          "name": "",
          "type": "uint256"
        }
      ],
      "stateMutability": "view",
      "type": "function"
    },
    {
      "inputs": [
        {
          "internalType": "uint256",
          "name": "",
          "type": "uint256"
        },
        {
          "internalType": "address",
          "name": "",
          "type": "address"
        }
      ],
      "name": "nftLikes",
      "outputs": [
        {
          "internalType": "bool",
          "name": "",
          "type": "bool"
        }
      ],
      "stateMutability": "view",
      "type": "function"
    },
    {
      "inputs": [
        {
          "internalType": "uint256",
          "name": "",
          "type": "uint256"
        }
      ],
      "name": "nftMetadata",
      "outputs": [
        {
          "internalType": "address",
          "name": "creator",
          "type": "address"
        },
        {
          "internalType": "string",
          "name": "uri",
          "type": "string"
        },
        {
          "internalType": "string",
          "name": "category",
          "type": "string"
        },
        {
          "internalType": "uint256",
          "name": "createdAt",
          "type": "uint256"
        },
        {
          "internalType": "uint96",
          "name": "royaltyPercentage",
          "type": "uint96"
        }
      ],
      "stateMutability": "view",
      "type": "function"
    },
    {
      "inputs": [
        {
          "internalType": "uint256",
          "name": "",
          "type": "uint256"
        },
        {
          "internalType": "uint256",
          "name": "",
          "type": "uint256"
        }
      ],
      "name": "nftOffers",
      "outputs": [
        {
          "internalType": "address",
          "name": "offeror",
          "type": "address"
        },
        {
          "internalType": "uint256",
          "name": "amount",
          "type": "uint256"
        },
        {
          "internalType": "uint8",
          "name": "expiresInDays",
          "type": "uint8"
        },
        {
          "internalType": "uint256",
          "name": "timestamp",
          "type": "uint256"
        }
      ],
      "stateMutability": "view",
      "type": "function"
    },
    {
      "inputs": [
        {
          "internalType": "uint256",
          "name": "tokenId",
          "type": "uint256"
        }
      ],
      "name": "ownerOf",
      "outputs": [
        {
          "internalType": "address",
          "name": "",
          "type": "address"
        }
      ],
      "stateMutability": "view",
      "type": "function"
    },
    {
      "inputs": [],
      "name": "pause",
      "outputs": [],
      "stateMutability": "nonpayable",
      "type": "function"
    },
    {
      "inputs": [],
      "name": "paused",
      "outputs": [
        {
          "internalType": "bool",
          "name": "",
          "type": "bool"
        }
      ],
      "stateMutability": "view",
      "type": "function"
    },
    {
      "inputs": [],
      "name": "platformTreasury",
      "outputs": [
        {
          "internalType": "address",
          "name": "",
          "type": "address"
        }
      ],
      "stateMutability": "view",
      "type": "function"
    },
    {
      "inputs": [],
      "name": "proxiableUUID",
      "outputs": [
        {
          "internalType": "bytes32",
          "name": "",
          "type": "bytes32"
        }
      ],
      "stateMutability": "view",
      "type": "function"
    },
    {
      "inputs": [],
      "name": "referralSystemAddress",
      "outputs": [
        {
          "internalType": "address",
          "name": "",
          "type": "address"
        }
      ],
      "stateMutability": "view",
      "type": "function"
    },
    {
      "inputs": [
        {
          "internalType": "bytes32",
          "name": "role",
          "type": "bytes32"
        },
        {
          "internalType": "address",
          "name": "account",
          "type": "address"
        }
      ],
      "name": "renounceRole",
      "outputs": [],
      "stateMutability": "nonpayable",
      "type": "function"
    },
    {
      "inputs": [
        {
          "internalType": "bytes32",
          "name": "role",
          "type": "bytes32"
        },
        {
          "internalType": "address",
          "name": "account",
          "type": "address"
        }
      ],
      "name": "revokeRole",
      "outputs": [],
      "stateMutability": "nonpayable",
      "type": "function"
    },
    {
      "inputs": [
        {
          "internalType": "uint256",
          "name": "tokenId",
          "type": "uint256"
        },
        {
          "internalType": "uint256",
          "name": "salePrice",
          "type": "uint256"
        }
      ],
      "name": "royaltyInfo",
      "outputs": [
        {
          "internalType": "address",
          "name": "",
          "type": "address"
        },
        {
          "internalType": "uint256",
          "name": "",
          "type": "uint256"
        }
      ],
      "stateMutability": "view",
      "type": "function"
    },
    {
      "inputs": [
        {
          "internalType": "address",
          "name": "from",
          "type": "address"
        },
        {
          "internalType": "address",
          "name": "to",
          "type": "address"
        },
        {
          "internalType": "uint256",
          "name": "tokenId",
          "type": "uint256"
        }
      ],
      "name": "safeTransferFrom",
      "outputs": [],
      "stateMutability": "nonpayable",
      "type": "function"
    },
    {
      "inputs": [
        {
          "internalType": "address",
          "name": "from",
          "type": "address"
        },
        {
          "internalType": "address",
          "name": "to",
          "type": "address"
        },
        {
          "internalType": "uint256",
          "name": "tokenId",
          "type": "uint256"
        },
        {
          "internalType": "bytes",
          "name": "data",
          "type": "bytes"
        }
      ],
      "name": "safeTransferFrom",
      "outputs": [],
      "stateMutability": "nonpayable",
      "type": "function"
    },
    {
      "inputs": [
        {
          "internalType": "address",
          "name": "operator",
          "type": "address"
        },
        {
          "internalType": "bool",
          "name": "approved",
          "type": "bool"
        }
      ],
      "name": "setApprovalForAll",
      "outputs": [],
      "stateMutability": "nonpayable",
      "type": "function"
    },
    {
      "inputs": [
        {
          "internalType": "address",
          "name": "_addr",
          "type": "address"
        }
      ],
      "name": "setLevelingSystem",
      "outputs": [],
      "stateMutability": "nonpayable",
      "type": "function"
    },
    {
      "inputs": [
        {
          "internalType": "address",
          "name": "_addr",
          "type": "address"
        }
      ],
      "name": "setReferralSystem",
      "outputs": [],
      "stateMutability": "nonpayable",
      "type": "function"
    },
    {
      "inputs": [
        {
          "internalType": "address",
          "name": "_addr",
          "type": "address"
        }
      ],
      "name": "setSkillsContract",
      "outputs": [],
      "stateMutability": "nonpayable",
      "type": "function"
    },
    {
      "inputs": [],
      "name": "skillsContractAddress",
      "outputs": [
        {
          "internalType": "address",
          "name": "",
          "type": "address"
        }
      ],
      "stateMutability": "view",
      "type": "function"
    },
    {
      "inputs": [
        {
          "internalType": "bytes4",
          "name": "interfaceId",
          "type": "bytes4"
        }
      ],
      "name": "supportsInterface",
      "outputs": [
        {
          "internalType": "bool",
          "name": "",
          "type": "bool"
        }
      ],
      "stateMutability": "view",
      "type": "function"
    },
    {
      "inputs": [],
      "name": "symbol",
      "outputs": [
        {
          "internalType": "string",
          "name": "",
          "type": "string"
        }
      ],
      "stateMutability": "view",
      "type": "function"
    },
    {
      "inputs": [
        {
          "internalType": "uint256",
          "name": "_tokenId",
          "type": "uint256"
        }
      ],
      "name": "toggleLike",
      "outputs": [],
      "stateMutability": "nonpayable",
      "type": "function"
    },
    {
      "inputs": [
        {
          "internalType": "uint256",
          "name": "tokenId",
          "type": "uint256"
        }
      ],
      "name": "tokenURI",
      "outputs": [
        {
          "internalType": "string",
          "name": "",
          "type": "string"
        }
      ],
      "stateMutability": "view",
      "type": "function"
    },
    {
      "inputs": [
        {
          "internalType": "address",
          "name": "",
          "type": "address"
        }
      ],
      "name": "totalCreators",
      "outputs": [
        {
          "internalType": "uint256",
          "name": "",
          "type": "uint256"
        }
      ],
      "stateMutability": "view",
      "type": "function"
    },
    {
      "inputs": [],
      "name": "totalNFTsSold",
      "outputs": [
        {
          "internalType": "uint256",
          "name": "",
          "type": "uint256"
        }
      ],
      "stateMutability": "view",
      "type": "function"
    },
    {
      "inputs": [],
      "name": "totalRoyaltiesPaid",
      "outputs": [
        {
          "internalType": "uint256",
          "name": "",
          "type": "uint256"
        }
      ],
      "stateMutability": "view",
      "type": "function"
    },
    {
      "inputs": [],
      "name": "totalTradingVolume",
      "outputs": [
        {
          "internalType": "uint256",
          "name": "",
          "type": "uint256"
        }
      ],
      "stateMutability": "view",
      "type": "function"
    },
    {
      "inputs": [
        {
          "internalType": "address",
          "name": "from",
          "type": "address"
        },
        {
          "internalType": "address",
          "name": "to",
          "type": "address"
        },
        {
          "internalType": "uint256",
          "name": "tokenId",
          "type": "uint256"
        }
      ],
      "name": "transferFrom",
      "outputs": [],
      "stateMutability": "nonpayable",
      "type": "function"
    },
    {
      "inputs": [
        {
          "internalType": "uint256",
          "name": "_tokenId",
          "type": "uint256"
        }
      ],
      "name": "unlistToken",
      "outputs": [],
      "stateMutability": "nonpayable",
      "type": "function"
    },
    {
      "inputs": [],
      "name": "unpause",
      "outputs": [],
      "stateMutability": "nonpayable",
      "type": "function"
    },
    {
      "inputs": [
        {
          "internalType": "uint256",
          "name": "_tokenId",
          "type": "uint256"
        },
        {
          "internalType": "uint256",
          "name": "_newPrice",
          "type": "uint256"
        }
      ],
      "name": "updatePrice",
      "outputs": [],
      "stateMutability": "nonpayable",
      "type": "function"
    },
    {
      "inputs": [
        {
          "internalType": "address",
          "name": "newImplementation",
          "type": "address"
        }
      ],
      "name": "upgradeTo",
      "outputs": [],
      "stateMutability": "nonpayable",
      "type": "function"
    },
    {
      "inputs": [
        {
          "internalType": "address",
          "name": "newImplementation",
          "type": "address"
        },
        {
          "internalType": "bytes",
          "name": "data",
          "type": "bytes"
        }
      ],
      "name": "upgradeToAndCall",
      "outputs": [],
      "stateMutability": "payable",
      "type": "function"
    },
    {
      "inputs": [
        {
          "internalType": "address",
          "name": "",
          "type": "address"
        }
      ],
      "name": "userNFTsBought",
      "outputs": [
        {
          "internalType": "uint256",
          "name": "",
          "type": "uint256"
        }
      ],
      "stateMutability": "view",
      "type": "function"
    },
    {
      "inputs": [
        {
          "internalType": "address",
          "name": "",
          "type": "address"
        }
      ],
      "name": "userNFTsSold",
      "outputs": [
        {
          "internalType": "uint256",
          "name": "",
          "type": "uint256"
        }
      ],
      "stateMutability": "view",
      "type": "function"
    },
    {
      "inputs": [
        {
          "internalType": "address",
          "name": "",
          "type": "address"
        }
      ],
      "name": "userPurchaseVolume",
      "outputs": [
        {
          "internalType": "uint256",
          "name": "",
          "type": "uint256"
        }
      ],
      "stateMutability": "view",
      "type": "function"
    },
    {
      "inputs": [
        {
          "internalType": "address",
          "name": "",
          "type": "address"
        }
      ],
      "name": "userRoyaltiesEarned",
      "outputs": [
        {
          "internalType": "uint256",
          "name": "",
          "type": "uint256"
        }
      ],
      "stateMutability": "view",
      "type": "function"
    },
    {
      "inputs": [
        {
          "internalType": "address",
          "name": "",
          "type": "address"
        }
      ],
      "name": "userSalesVolume",
      "outputs": [
        {
          "internalType": "uint256",
          "name": "",
          "type": "uint256"
        }
      ],
      "stateMutability": "view",
      "type": "function"
    }
  ],
  "bytecode": "0x60a080604052346100da57306080525f549060ff8260081c16610088575060ff8082160361004e575b604051615dd990816100df8239608051818181612b5301528181612c3601526130060152f35b60ff90811916175f557f7f26b83ff96e1f2b6a682f133852f6798a09c465da95921460cefb3847402498602060405160ff8152a15f610028565b62461bcd60e51b815260206004820152602760248201527f496e697469616c697a61626c653a20636f6e747261637420697320696e697469604482015266616c697a696e6760c81b6064820152608490fd5b5f80fdfe60c06040526004361015610011575f80fd5b5f6080525f3560e01c8063012386f0146140cc578063016fc10e1461404a57806301ffc9a714613f8e57806306fdde0314613ee957806307e051c714613ecd578063081812fc14613eaf578063095ea7b314613d29578063141ed34314613d0b5780631554823214613cf057806323b872dd14613cca5780632406e67714613c3e5780632483320d14613c05578063248a9ca314613bdf5780632a55205a14613bb85780632d296bf11461339c5780632f2ff15d146132ec57806335df17b4146132af57806336568abe1461321d5780633659cfe614612fe85780633c03903914612fbd5780633f4ba83a14612f2257806342842e0e14612eec5780634954101514612e535780634f1ef28614612bfe57806352d1902d14612b3f57806352de4ee514612ab357806354398d18146128d757806356129b0a146128875780635c975abb14612862578063602dcf29146126f25780636352211e146126c2578063638ac8d3146126745780636be9a6f11461255657806370a08231146124bd57806375b238fc1461249457806377ea168e146124295780637af338a5146123fe5780637de7ff0814611ff257806381257bd514611d465780638210254814611d0957806382367b2d14611c7a5780638456cb5914611c195780638cf5310214611bc957806391d1485414611b7b5780639333806514611b5b57806395d89b4114611aa35780639a01126c14611a53578063a217fddf14611a35578063a22cb46514611963578063aa7e5683146116c5578063ad3a358c14611609578063b0362b8814611135578063b7f3a58914611047578063b88d4fde14610fd3578063bd45b7fc14610f96578063c4d66de814610998578063c87b56dd14610979578063cb8c8a151461094a578063ce9e60801461092c578063d45557cc14610704578063d489be2614610691578063d547741f14610655578063d7e2997b1461062a578063d9edf576146105ef578063df6a5327146105b2578063dfb0886b14610592578063e138818c14610567578063e5a818f814610538578063e985e9c5146104dd578063ec17f304146104a0578063f291f5dd146103a3578063f72c0d8b1461037a5763fcce488314610340575f80fd5b346103745760203660031901126103745760043560805152610229602052602060ff60406080512054166040519015158152f35b60805180fd5b34610374576080513660031901126103745760206040515f516020615c645f395f51905f528152f35b34610374576020366003190112610374576004356103c86103c382615072565b614a82565b6080515261022e6020526040608051208054906103e4826144b6565b916103f26040519384614313565b80835260208301809260805152602060805120608051915b838310610482578486604051918291602083019060208452518091526040830191906080515b81811061043e575050500390f35b919350916020608060019260608751858060a01b038151168352848101518584015260ff604082015116604084015201516060820152019401910191849392610430565b6004602060019261049285614b89565b81520192019201919061040a565b34610374576020366003190112610374576001600160a01b036104c1614199565b1660805152610240602052602060406080512054604051908152f35b34610374576040366003190112610374576104f6614199565b6104fe6141af565b9060018060a01b031660805152609c6020526040608051209060018060a01b03165f52602052602060ff60405f2054166040519015158152f35b34610374576020366003190112610374576004356080515261022a602052602060406080512054604051908152f35b346103745760805136600319011261037457610233546040516001600160a01b039091168152602090f35b346103745760805136600319011261037457602061023854604051908152f35b34610374576020366003190112610374576001600160a01b036105d3614199565b166080515261023b602052602060406080512054604051908152f35b346103745760203660031901126103745760043561060f6103c382615072565b6080515261022c602052602060406080512054604051908152f35b346103745760805136600319011261037457610236546040516001600160a01b039091168152602090f35b346103745760403660031901126103745761068b6004356106746141af565b9061068661068182614614565b614faf565b614fef565b60805180f35b346103745761069f36614245565b906080515261022d602052604060805120908154811015610374576106c3916144a1565b6106eb576106d36106e791614336565b6040519182916020835260208301906141e6565b0390f35b634e487b7160e01b608051526080516004526024608051fd5b346103745761071236614245565b9061071b614df9565b806080515261022e6020526107376040608051205483106149dd565b806080515261022e60205261075a61075483604060805120614445565b50614b89565b80516001600160a01b031633036108f9576020015191816080515261022e602052604060805120826080515261022e60205260406080512054905f1982019182116108e1576107c4916107ac91614445565b5091836080515261022e602052604060805120614445565b9190916106eb5780820361088f575b50506080515261022e60205260406080512080548015610877575f1901906107fb8282614445565b6106eb576080518082556001820181905560028201819055600390910181905591905590819081908190335af16108306147c8565b501561084257600161015f5560805180f35b60405162461bcd60e51b815260206004820152600d60248201526c1499599d5b990819985a5b1959609a1b6044820152606490fd5b634e487b7160e01b6080515260316004526024608051fd5b805482546001600160a01b0319166001600160a01b039190911617825560018082015490830155600280820154908301805460ff191660ff9290921691909117905560039081015491015582806107d3565b634e487b7160e01b6080515260116004526024608051fd5b60405162461bcd60e51b815260206004820152600b60248201526a2737ba1037b33332b937b960a91b6044820152606490fd5b3461037457608051366003190112610374576020604051610fa08152f35b34610374576020366003190112610374576004356080515261022c602052602060406080512054604051908152f35b34610374576020366003190112610374576106e76106d36004356154be565b34610374576020366003190112610374576109b1614199565b6080515460ff8160081c161590818092610f89575b8015610f72575b15610f165781600160ff1983161760805155610f02575b5060408051929091906109f78385614313565b600c84526b11d85b595a599a595913919560a21b6020850152825193610a1d8486614313565b600485526311d3919560e21b6020860152610a4960ff6080515460081c16610a448161545e565b61545e565b8051906001600160401b038211610e2857610a65609754614276565b601f8111610eb6575b506020906001601f841114610e4b57918091610a949360805192610e40575b5050614b50565b6097555b83516001600160401b038111610e2857610ab3609854614276565b601f8111610ddc575b506020946001601f831114610d7357610ae392939495829160805192610d68575050614b50565b6098555b610b4a60ff6080515460081c16610afd8161545e565b610b068161545e565b610b0f8161545e565b610b188161545e565b610b218161545e565b600161015f55610b308161545e565b610b398161545e565b60ff1961019154166101915561545e565b6001600160a01b03811615610d61575b61023380546001600160a01b0319166001600160a01b039290921691909117905560808051805261012d60209081529051839020335f90815291528290205460ff1615610d1f575b5f516020615d045f395f51905f526080515261012d602052816080512060018060a01b0333165f5260205260ff825f20541615610cbc575b5f516020615c645f395f51905f526080515261012d602052816080512060018060a01b0333165f5260205260ff825f20541615610c59575b610c1c5760805180f35b60207f7f26b83ff96e1f2b6a682f133852f6798a09c465da95921460cefb38474024989161ff00196080515416608051555160018152a18061068b565b5f516020615c645f395f51905f526080515261012d602052816080512060018060a01b0333165f52602052815f20600160ff1982541617905533335f516020615c645f395f51905f525f516020615be45f395f51905f52608051608051a4610c12565b5f516020615d045f395f51905f526080515261012d602052816080512060018060a01b0333165f52602052815f20600160ff1982541617905533335f516020615d045f395f51905f525f516020615be45f395f51905f52608051608051a4610bda565b60808051805261012d60209081529051838120335f81815291909352849020805460ff1916600117905581905f516020615be45f395f51905f528180a4610ba2565b5033610b5a565b015190508680610a8d565b601f198216956098608051528060805120916080515b888110610dc457508360019596979810610dac575b505050811b01609855610ae7565b01515f1960f88460031b161c19169055858080610d9e565b91926020600181928685015181550194019201610d89565b609860805152602060805120601f830160051c81019160208410610e1e575b601f0160051c01905b818110610e115750610abc565b6080518155600101610e04565b9091508190610dfb565b634e487b7160e01b6080515260416004526024608051fd5b015190508780610a8d565b90601f198316916097608051528160805120926080515b818110610e9e5750908460019594939210610e86575b505050811b01609755610a98565b01515f1960f88460031b161c19169055868080610e78565b92936020600181928786015181550195019301610e62565b609760805152602060805120601f840160051c81019160208510610ef8575b601f0160051c01905b818110610eeb5750610a6e565b6080518155600101610ede565b9091508190610ed5565b6101019061ffff19161760805155826109e4565b60405162461bcd60e51b815260206004820152602e60248201527f496e697469616c697a61626c653a20636f6e747261637420697320616c72656160448201526d191e481a5b9a5d1a585b1a5e995960921b6064820152608490fd5b50303b1580156109cd5750600160ff8216146109cd565b50600160ff8216106109c6565b34610374576020366003190112610374576001600160a01b03610fb7614199565b166080515261023e602052602060406080512054604051908152f35b3461037457608036600319011261037457610fec614199565b610ff46141af565b90606435906044356001600160401b0383116103745761068b9361101f611042943690600401614427565b9261103261102d8433614bc7565b61453e565b61103d838383614c3c565b61590e565b61543e565b34610374576020366003190112610374576004356110676103c382615072565b6080515261022d602052604060805120805490611083826144b6565b916110916040519384614313565b80835260208301809260805152602060805120608051915b83831061111857848660405191829160208301906020845251809152604083019060408160051b8501019291608051905b8282106110e957505050500390f35b919360019193955060206111088192603f198a820301865288516141e6565b96019201920185949391926110da565b60016020819261112785614336565b8152019201920191906110a9565b34610374576080366003190112610374576004356001600160401b0381116103745761116590369060040161445e565b906024356001600160401b0381116103745761118590369060040161445e565b909161118f61448b565b611197614db4565b6064351515806115fb575b156115bf576111be6127106001600160601b0383161115614ac3565b61022754916111ce6064356144cd565b9533608051526102306020526040608051205415956080515b60643581106112bf5788886080515b60643581106112ac5750611293575b610235546001600160a01b031680611226575b604051806106e78482614160565b60206040518092629573e560e01b82528180611248606435336004840161425b565b0391608051905af18015611286571561121857602090813d831161127f575b6112718183614313565b810103126103745781611218565b503d611267565b6040513d608051823e3d90fd5b3360805152610240602052600160406080512055611205565b60019081610227540161022755016111f6565b6112c98187614715565b6112d3813361508e565b6112e76112e13686886143f1565b82615194565b6040516112f3816142dd565b3381526113013686886143f1565b60208201908152611313368b876143f1565b6040838101919091524260608401526001600160601b03891660808085019190915280518590526102286020525120825181546001600160a01b0319166001600160a01b03919091161781559051805160018301916001600160401b038211610e285761138a826113848554614276565b85614b01565b6020906001601f841114611556579180916113ae936080519261154b575050614b50565b90555b604082015160a0819052516001600160401b038111610e28576113e4816113db6002850154614276565b60028501614b01565b60206001601f8311146114d2579161140e82600493600198979695608051916114c5575b50614b50565b60028201555b6060830151600382015501906080858060601b0391015116848060601b0319825416179055828060601b0387166114b5575b3360805152610230602052611460816040608051206155bb565b50611480816040518b8782376020818d810161023f8152030190206155bb565b508061148c838d6144ff565b526040515f516020615c245f395f51905f523391806114ac898b83614b62565b0390a3016111e7565b6114c08733836152e7565b611446565b905060a05101515f611408565b60028301608051528060805120906080515b601f1984168110611531575082600197969594928892600495601f19811610611517575b5050811b016002820155611414565b60a05101515f1960f88460031b161c191690555f80611508565b90916020600181928560a0510151815501930191016114e4565b015190505f80610a8d565b90601f1983169184608051528160805120926080515b8181106115a7575090846001959493921061158f575b505050811b0190556113b1565b01515f1960f88460031b161c191690558f8080611582565b9293602060018192878601518155019501930161156c565b60405162461bcd60e51b81526020600482015260146024820152730496e76616c696420636f756e743a20312d3530360641b6044820152606490fd5b506101f460643511156111a2565b3461037457602036600319011261037457600435611625614db4565b61164161163182614a60565b6001600160a01b031633146145a0565b806080515261022960205261165e60ff60406080512054166146c1565b806080515261022960205260406080512060ff198154169055806080515261022a602052608051604060805120556116958161560f565b50337f24287c09523dfd960e13a9774c247fb28a2ccb301eb4208b0d4072bcd0f1826e608051608051a360805180f35b34610374576040366003190112610374576004356024356001600160401b038111610374576116f890369060040161445e565b611700614db4565b61171161170c84615072565b614966565b80151580611957575b1561192157826080515261022d6020526103e86040608051205410156118e857826080515261022d6020526040608051208054600160401b811015610e2857611768916001820181556144a1565b6106eb576001600160401b038211610e285761178e826117888354614276565b83614b01565b60805182601f811160011461187f576080516117af92826118745750614b50565b90555b610235546001600160a01b031680611802575b506117f97f6ef560d19dd02f57976e8453b811685a89edf49009d64ab71b19489923ef5f0991604051918291339583614b62565b0390a360805180f35b803b15610374576040519063d0654f3560e01b82523360048301526002602483015260606044830152600760648301526610d3d35351539560ca1b60848301528160a48160805193608051905af1801561128657156117c55760805161186791614313565b60805161037457836117c5565b905085013587611408565b50601f19831690826080515283602060805120926080515b8181106118cd5750106118b4575b5050600182811b0190556117b2565b8401355f19600385901b60f8161c1916905584806118a5565b87840135855560019094019360209384019387935001611897565b60405162461bcd60e51b8152602060048201526011602482015270546f6f206d616e7920636f6d6d656e747360781b6044820152606490fd5b60405162461bcd60e51b815260206004820152600e60248201526d092dcecc2d8d2c840d8cadccee8d60931b6044820152606490fd5b5061011881111561171a565b346103745760403660031901126103745761197c614199565b60243590811515809203610374576001600160a01b0316903382146119f4573360805152609c602052604060805120825f5260205260405f2060ff1981541660ff83161790556040519081527f17307eab39ab6107e8899845ad3d59bd9653f200f220920489ca2b5937696c3160203392a360805180f35b60405162461bcd60e51b815260206004820152601960248201527822a9219b99189d1030b8383937bb32903a379031b0b63632b960391b6044820152606490fd5b34610374576080513660031901126103745760206040516080518152f35b3461037457602036600319011261037457611a6c614199565b611a74614f50565b6001600160a01b0316611a8881151561499f565b61023680546001600160a01b03191691909117905560805180f35b34610374576080513660031901126103745760805150604051608051609854611acb81614276565b8084529060018116908115611b375750600114611af3575b6106e7836106d381850382614313565b60808051609890525160208120939250905b808210611b1d575090915081016020016106d3611ae3565b919260018160209254838588010152019101909291611b05565b60ff191660208086019190915291151560051b840190910191506106d39050611ae3565b346103745760805136600319011261037457602061023954604051908152f35b3461037457604036600319011261037457611b946141af565b6004356080515261012d6020526040608051209060018060a01b03165f52602052602060ff60405f2054166040519015158152f35b3461037457602036600319011261037457611be2614199565b611bea614f50565b6001600160a01b0316611bfe81151561499f565b61023480546001600160a01b03191691909117905560805180f35b346103745760805136600319011261037457611c33614f50565b611c3b614db4565b600160ff19610191541617610191557f62e78cea01bee320cd4e420270b5ea74000d11b0c9f74754ebdbfc544b05a2586020604051338152a160805180f35b3461037457611c8836614245565b611c90614db4565b611c9c61163183614a60565b8160805152610229602052611cb960ff60406080512054166146c1565b611cc48115156145d8565b816080515261022a60205280604060805120556040519081527fb556fac599c3c70efb9ab1fa725ecace6c81cc48d1455f886607def065f3e0c060203392a360805180f35b34610374576020366003190112610374576001600160a01b03611d2a614199565b166080515261023d602052602060406080512054604051908152f35b3461037457610754611da3611d5a36614245565b611d65939193614df9565b611d7161163185614a60565b836080515261022e602052611d8d6040608051205482106149dd565b836080515261022e602052604060805120614445565b60608101516201518060ff6040840151160262ffffff81169081036108e157611dcb91614715565b4211611fbd57602060018060a01b03825116910151611deb838333614c3c565b60058102818104600514821517156108e15760649004611e0b81836146fa565b846080515261022960205260406080512060ff198154169055846080515261022a60205260805160406080512055846080515261022e602052611e52604060805120614772565b61177082029082820461177014831517156108e157612710611edf9204611ea7611e7c82866146fa565b6080516102335491939091829182918291906001600160a01b03165af1611ea16147c8565b506147f7565b610235546001600160a01b031680151580611fb4575b611f61575b505060805190819081908190335af1611ed96147c8565b50614885565b825f516020615ca45f395f51905f52608060018060a01b0361023354169360405190815260406020820152600e60408201526d13d191915497d050d0d15415115160921b6060820152a36040519081527fa6da490df6e8f0e592e795b4d96c5810d8ddfda51c21577adbdd8e1a0fa47a6760203392a4600161015f5560805180f35b6080519081908190819085905af1611f776147c8565b5015611f84575b80611ec2565b60805161023354611fae928291829182916001600160a01b03165af1611fa86147c8565b5061483e565b86611f7e565b50811515611ebd565b60405162461bcd60e51b815260206004820152600d60248201526c13d999995c88195e1c1a5c9959609a1b6044820152606490fd5b34610374576060366003190112610374576004356001600160401b0381116103745761202290369060040161445e565b6024356001600160401b0381116103745761204190369060040161445e565b61204c92919261448b565b612054614db4565b61206b6127106001600160601b0383161115614ac3565b61022754936001850161022755612082853361508e565b6120966120903686896143f1565b86615194565b604051916120a3836142dd565b3383526120b13686896143f1565b92602081019384526120c43686856143f1565b604082810191825242606084019081526001600160601b03851660808086019190915280518b90526102286020525191909120835181546001600160a01b0319166001600160a01b0391909116178155955180519196929160018401916001600160401b038211610e285761213d826113848554614276565b6020906001601f84111461239557918091612161936080519261238a575050614b50565b90555b5180519095906001600160401b038111610e285789966121948261218b6002870154614276565b60028701614b01565b6020906001601f84111461230357926121c583600494602099979461222e9d9b99976080519261154b575050614b50565b60028301555b516003820155608090920151910180546001600160601b0319166001600160601b0392831617905581166122f2575b5033608051526102308252612214846040608051206155bb565b50826040519384928337810161023f8152030190206155bb565b503360805152610230602052600160406080512054146122d9575b610235546001600160a01b03168061228c575b506020925f516020615c245f395f51905f526122818493604051918291339583614b62565b0390a3604051908152f35b803b15610374576040519063199df06360e31b82523360048301528160248160805193608051905af18015611286571561225c576080516122cc91614313565b608051610374578361225c565b3360805152610240602052600160406080512055612249565b6122fd9033866152e7565b886121fa565b6002859493929a9897969501608051528960805120906080515b601f198416811061236f5750826004949261222e9c60019360209b9a999896601f19811610612357575b505050811b0160028301556121cb565b01515f1960f88460031b161c191690558f8080612347565b818c0151835560209b8c019b8e9b506001909301920161231d565b015190508e80610a8d565b90601f1983169184608051528160805120926080515b8181106123e657509084600195949392106123ce575b505050811b019055612164565b01515f1960f88460031b161c191690558d80806123c1565b929360206001819287860151815501950193016123ab565b346103745760805136600319011261037457610235546040516001600160a01b039091168152602090f35b346103745761243736614245565b906080515261022e60205260406080512080548210156103745760809161245d91614445565b5060018060a01b0381541690600181015490600360ff60028301541691015491604051938452602084015260408301526060820152f35b34610374576080513660031901126103745760206040515f516020615d045f395f51905f528152f35b34610374576020366003190112610374576001600160a01b036124de614199565b1680156124ff5760805152609a602052602060406080512054604051908152f35b60405162461bcd60e51b815260206004820152602960248201527f4552433732313a2061646472657373207a65726f206973206e6f7420612076616044820152683634b21037bbb732b960b91b6064820152608490fd5b3461037457602036600319011261037457600435604051612576816142dd565b608051815260606020820152606060408201526080516060820152608080519101526125a46103c382615072565b608051526102286020526040608051206040516125c0816142dd565b81546001600160a01b031681526125d960018301614336565b91602082019283526125ed60028201614336565b6040830190815261265a60038301549260608501938452600460018060601b039101541691608085019283526126476040519687966020885260018060a01b0390511660208801525160a0604088015260c08701906141e6565b9051858203601f190160608701526141e6565b91516080840152516001600160601b031660a08301520390f35b346103745760403660031901126103745761268d6141af565b6004356080515261022b6020526040608051209060018060a01b03165f52602052602060ff60405f2054166040519015158152f35b346103745760203660031901126103745760206126e0600435614a60565b6040516001600160a01b039091168152f35b60403660031901126103745760043560243560ff811680910361037457612717614db4565b816080515261022960205261273460ff60406080512054166146c1565b61273f3415156149dd565b80151580612857575b1561282157816080515261022e6020526040608051206040519061276b826142ae565b33825260208201913483526040810193845260608101914283528054600160401b811015610e28576127a291600182018155614445565b9490946106eb57905184546001600160a01b0319166001600160a01b039190911617845591516001840155905160028301805460ff191660ff92909216919091179055516003919091015560405134815233907f7beddbbf70d8b2a25af77e15d4a173af5f34673a1e7302c7af208aac599dc6db90602090a360805180f35b60405162461bcd60e51b815260206004820152600e60248201526d496e76616c69642065787069727960901b6044820152606490fd5b50601e811115612748565b346103745760805136600319011261037457602060ff61019154166040519015158152f35b34610374576020366003190112610374576128a0614199565b6128a8614f50565b6001600160a01b03166128bc81151561499f565b61023580546001600160a01b03191691909117905560805180f35b34610374576020366003190112610374576004356128f3614db4565b6128ff61170c82615072565b806080515261022b60205260406080512060018060a01b0333165f5260205260ff60405f2054165f146129e657806080515261022b60205260406080512060018060a01b0333165f5260205260405f2060ff198154169055806080515261022c602052604060805120546129c9575b806080515261022b60205260406080512060018060a01b0333165f5260205260ff60405f20541660405190151581527f4d5c3df35a8d7d04f2e10db1454548af37ee7449c97a4b4c243681f29c2ea40760203392a360805180f35b806080515261022c6020526040608051205f19815401905561296e565b806080515261022b60205260406080512060018060a01b0333165f5260205260405f20600160ff19825416179055806080515261022c6020526040608051206001815401905560018060a01b03610235541680612a44575b5061296e565b803b15610374576040519063d0654f3560e01b8252336004830152600160248301526060604483015260046064830152634c494b4560e01b60848301528160a48160805193608051905af180156112865715612a3e57608051612aa691614313565b6080516103745781612a3e565b34610374576020366003190112610374576001600160a01b03612ad4614199565b16806080515261022f60205260406080512054612af0816144cd565b916080515b828110612b0a57604051806106e78682614160565b600190826080515261022f602052612b27816040608051206144a1565b90549060031b1c612b3882876144ff565b5201612af5565b3461037457608051366003190112610374577f00000000000000000000000000000000000000000000000000000000000000006001600160a01b03163003612b985760206040515f516020615c845f395f51905f528152f35b60405162461bcd60e51b815260206004820152603860248201527f555550535570677261646561626c653a206d757374206e6f742062652063616c6044820152771b1959081d1a1c9bdd59da0819195b1959d85d1958d85b1b60421b6064820152608490fd5b604036600319011261037457612c12614199565b6024356001600160401b03811161037457612c31903690600401614427565b612c887f00000000000000000000000000000000000000000000000000000000000000006001600160a01b0316612c6a308214156148ca565b5f516020615c845f395f51905f52546001600160a01b031614614918565b612c90614e51565b5f516020615c045f395f51905f525460ff1615612cb1575061068b9061578e565b6040516352d1902d60e01b81526001600160a01b03831690602081600481855afa6080519181612e1f575b50612d2a5760405162461bcd60e51b815260206004820152602e60248201525f516020615d845f395f51905f5260448201526d6f6e206973206e6f74205555505360901b6064820152608490fd5b5f516020615c845f395f51905f5203612ddb57612d468361578e565b5f516020615cc45f395f51905f52608051608051a2805115801590612dd3575b612d72575b505061068b565b612dcb9160405191612d85606084614313565b602783525f516020615d445f395f51905f526020840152660819985a5b195960ca1b60408401526080519060805190602081519101845af4612dc56147c8565b91615b4a565b508080612d6b565b506001612d66565b60405162461bcd60e51b815260206004820152602960248201525f516020615d245f395f51905f526044820152681a58589b195555525160ba1b6064820152608490fd5b9091506020813d602011612e4b575b81612e3b60209383614313565b8101031261037457519085612cdc565b3d9150612e2e565b3461037457602036600319011261037457608080516004359052610228602052516040902080546001600160a01b0316612e8f60018301614336565b91612e9c60028201614336565b612edd600383015492600460018060601b039101541691612ecf604051968796875260a0602088015260a08701906141e6565b9085820360408701526141e6565b91606084015260808301520390f35b346103745761068b611042612f003661420b565b9060405192612f10602085614313565b608051845261103261102d8433614bc7565b346103745760805136600319011261037457612f3c614f50565b6101915460ff811615612f815760ff1916610191557f5db9ee0a495bf2e6ff9c91a7834c1ba4fdd244a5e8aa4e537bd38aeae4b073aa6020604051338152a160805180f35b60405162461bcd60e51b815260206004820152601460248201527314185d5cd8589b194e881b9bdd081c185d5cd95960621b6044820152606490fd5b346103745760805136600319011261037457610234546040516001600160a01b039091168152602090f35b3461037457602036600319011261037457613001614199565b61303a7f00000000000000000000000000000000000000000000000000000000000000006001600160a01b0316612c6a308214156148ca565b613042614e51565b6040519060206130528184614313565b6080518352808301601f1982013682375f516020615c045f395f51905f525460ff161561308557505061068b915061578e565b6040516352d1902d60e01b81529192916001600160a01b038316908481600481855afa60805191816131ee575b506131005760405162461bcd60e51b815260048101869052602e60248201525f516020615d845f395f51905f5260448201526d6f6e206973206e6f74205555505360901b6064820152608490fd5b5f516020615c845f395f51905f52036131aa5761311c8361578e565b5f516020615cc45f395f51905f52608051608051a28351158015906131a1575b61314a575b5050505061068b565b613197935f516020615d445f395f51905f526040519461316b606087614313565b60278652850152660819985a5b195960ca1b604085015260805191608051915190845af4612dc56147c8565b5080808080613141565b5060805161313c565b60405162461bcd60e51b815260048101859052602960248201525f516020615d245f395f51905f526044820152681a58589b195555525160ba1b6064820152608490fd5b9091508581813d8311613216575b6132068183614313565b81010312610374575190876130b2565b503d6131fc565b34610374576040366003190112610374576132366141af565b336001600160a01b038216036132525761068b90600435614fef565b60405162461bcd60e51b815260206004820152602f60248201527f416363657373436f6e74726f6c3a2063616e206f6e6c792072656e6f756e636560448201526e103937b632b9903337b91039b2b63360891b6064820152608490fd5b34610374576020366003190112610374576001600160a01b036132d0614199565b166080515261023a602052602060406080512054604051908152f35b34610374576040366003190112610374576004356133086141af565b9061331561068182614614565b806080515261012d60205260406080512060018060a01b0383165f5260205260ff60405f205416156133475760805180f35b806080515261012d60205260406080512060018060a01b0383165f5260205260405f20600160ff19825416179055339160018060a01b0316905f516020615be45f395f51905f52608051608051a4808061068b565b6020366003190112613b19576004356133b3614db4565b6133bb614df9565b805f526102296020526133d460ff60405f2054166146c1565b805f5261022a60205260405f20543410613b7c576133f181614a60565b815f5261022a60205260405f20549061340b833383614c3c565b6005820282810460051483151715613b68576064900461342b81846146fa565b9161343861023754614707565b610237556134498461023854614715565b6102385560018060a01b031691825f5261023a60205260405f2061346e858254614715565b9055335f5261023b60205260405f20613488858254614715565b9055825f5261023d60205260405f206134a18154614707565b9055335f5261023e60205260405f206134ba8154614707565b90556134c68486614627565b9081151580613b56575b613b1d575b5050610235546001600160a01b031680613a6f575b50610236546001600160a01b031680151580613a02575b613689575b50846080515261022960205260406080512060ff198154169055846080515261022a6020526080516040608051205561353e8561560f565b50846080515261022e602052613558604060805120614772565b61177082029082820461177014831517156108e1576127106135b49204613582611e7c82866146fa565b610235546001600160a01b031680151580613680575b613633575b505060805190819081908190875af1611ed96147c8565b60018060a01b0361023354169060405190815260406020820152600a604082015269544f4b454e5f53414c4560b01b60608201525f516020615ca45f395f51905f5260803392a36040519182527fa8a7473f10e62cf9687e243de1c3ac8b3cbc3dd04b96826beb3a65b59538581460203393a4600161015f5560805180f35b6080519081908190819085905af16136496147c8565b5015613656575b8061359d565b6080516102335461367a928291829182916001600160a01b03165af1611fa86147c8565b86613650565b50811515613598565b604051631b0a264d60e11b8152336004820152602081602481855afa90811561128657608051916139c0575b50610234546001600160a01b0316612710816138b7575b61ffff91501690816005026005810483036108e15761271090049180600a0290600a8204036108e157612710900492803b15610374576040516316bc091360e21b815260805190918290818061372688886004840161472f565b0391608051905af180156112865761389e575b50610236546001600160a01b0316803b1561037457604051636084503f60e11b815260805190918290818061377289336004840161425b565b0391608051905af1801561128657613885575b50610235546001600160a01b031691826137a2575b505050613506565b823b15610374576137cc92604051808095819463d0654f3560e01b8352608051966004840161472f565b0391608051905af180156112865761386c575b50610235546001600160a01b0316803b15610374576040519163d0654f3560e01b8352336004840152602483015260606044830152600e60648301526d524546455252414c5f424f4e555360901b60848301528160a48160805193608051905af1801561128657613853575b80808061379a565b60805161385f91614313565b608051610374578561384b565b60805161387891614313565b60805161037457866137df565b60805161389191614313565b6080516103745788613785565b6080516138aa91614313565b6080516103745788613739565b604051634d73ca5f60e11b81526001600160a01b03841660048201526080519092839060249082905afa6080518160805192613923575b61ffff94506138ff575b50506136cc565b80613918575b613910575b806138f8565b90508961390a565b508281161515613905565b9150503d80608051853e6139378185614313565b8301926060818503126103745761394d81614722565b60208201519161ffff83168303610374576040810151906001600160401b03821161037457019480601f8701121561037457855161398a816143d6565b916139986040519384614313565b818352602082890101116103745761ffff966020806139b9940191016141c5565b90916138ee565b90506020813d6020116139fa575b816139db60209383614313565b8101031261037457516001600160a01b038116810361037457876136b5565b3d91506139ce565b50604051631be0d12160e01b8152336004820152602081602481855afa9081156112865760805191613a35575b50613501565b90506020813d602011613a67575b81613a5060209383614313565b8101031261037457613a6190614722565b87613a2f565b3d9150613a43565b803b15613b19575f8091602460405180948193638efa571f60e01b83528960048401525af18015613b0e57613afa575b50610235546001600160a01b0316803b156103745760405190634fbf879360e01b82523360048301528160248160805193608051905af1801561128657156134ea57608051613aed91614313565b60805161037457856134ea565b5f613b0491614313565b5f60805285613a9f565b6040513d5f823e3d90fd5b5f80fd5b613b2a8261023954614715565b6102395560018060a01b03165f5261023c602052613b4d60405f20918254614715565b905585806134d5565b506001600160a01b03811615156134d0565b634e487b7160e01b5f52601160045260245ffd5b60405162461bcd60e51b8152602060048201526014602482015273125b9cdd59999a58da595b9d081c185e5b595b9d60621b6044820152606490fd5b34613b1957613bcf613bc936614245565b90614627565b906106e76040519283928361425b565b34613b19576020366003190112613b19576020613bfd600435614614565b604051908152f35b34613b19576020366003190112613b19576001600160a01b03613c26614199565b165f5261023c602052602060405f2054604051908152f35b34613b1957613c4c36614245565b613c54614db4565b613c6061163183614a60565b613c6b8115156145d8565b815f5261022960205260405f20600160ff19825416179055815f5261022a6020528060405f2055613c9b8261554a565b506040519081527f5dc96537cbae524775a674b6a810d9a1ba04a9e279f172d156b352151394677a60203392a3005b34613b1957613cee613cdb3661420b565b91613ce961102d8433614bc7565b614c3c565b005b34613b19575f366003190112613b1957602060405160058152f35b34613b19575f366003190112613b1957602061023754604051908152f35b34613b19576040366003190112613b1957613d42614199565b602435906001600160a01b03613d5783614a60565b6001600160a01b039092169116818114613e6057803314908115613e3c575b5015613dd1575f828152609b6020526040902080546001600160a01b031916821790556001600160a01b03613daa83614a60565b167f8c5be1e5ebec7d5bd14f71427d1e84f3dd0314c0f7b2291e5b200ac8c7c3b9255f80a4005b60405162461bcd60e51b815260206004820152603d60248201527f4552433732313a20617070726f76652063616c6c6572206973206e6f7420746f60448201527f6b656e206f776e6572206f7220617070726f76656420666f7220616c6c0000006064820152608490fd5b5f908152609c6020908152604080832033845290915290205460ff16905083613d76565b60405162461bcd60e51b815260206004820152602160248201527f4552433732313a20617070726f76616c20746f2063757272656e74206f776e656044820152603960f91b6064820152608490fd5b34613b19576020366003190112613b195760206126e0600435614513565b34613b19575f366003190112613b195760206040516117708152f35b34613b19575f366003190112613b19576040515f609754613f0981614276565b8084529060018116908115611b375750600114613f30576106e7836106d381850382614313565b60975f9081527f354a83ed9988f79f6038d4c7a7dadbad8af32f4ad6df893e0e5807a1b1944ff9939250905b808210613f74575090915081016020016106d3611ae3565b919260018160209254838588010152019101909291613f5c565b34613b19576020366003190112613b195760043563ffffffff60e01b8116809103613b1957602090637965db0b60e01b8114908115613fd3575b506040519015158152f35b632483248360e11b811491508115613fed575b5082613fc8565b6380ac58cd60e01b811491508115614039575b811561400e575b5082613fe6565b63152a902d60e11b811491508115614028575b5082614007565b6301ffc9a760e01b14905082614021565b635b5e139f60e01b81149150614000565b34613b19576020366003190112613b19576001600160a01b0361406b614199565b16805f5261023060205260405f2054614083816144cd565b915f5b82811061409b57604051806106e78682614160565b600190825f526102306020526140b48160405f206144a1565b90549060031b1c6140c582876144ff565b5201614086565b34613b19575f366003190112613b1957610231546140e9816144cd565b905f61023154905b82811061410657604051806106e78682614160565b8181101561414c576102315f527fae55bd7d7ac199ab94a59019d11e8ea53916adefebcd74fd08d32115dd445d108101546001919061414582876144ff565b52016140f1565b634e487b7160e01b5f52603260045260245ffd5b60206040818301928281528451809452019201905f5b8181106141835750505090565b8251845260209384019390920191600101614176565b600435906001600160a01b0382168203613b1957565b602435906001600160a01b0382168203613b1957565b5f5b8381106141d65750505f910152565b81810151838201526020016141c7565b906020916141ff815180928185528580860191016141c5565b601f01601f1916010190565b6060906003190112613b19576004356001600160a01b0381168103613b1957906024356001600160a01b0381168103613b19579060443590565b6040906003190112613b19576004359060243590565b6001600160a01b039091168152602081019190915260400190565b90600182811c921680156142a4575b602083101461429057565b634e487b7160e01b5f52602260045260245ffd5b91607f1691614285565b608081019081106001600160401b038211176142c957604052565b634e487b7160e01b5f52604160045260245ffd5b60a081019081106001600160401b038211176142c957604052565b604081019081106001600160401b038211176142c957604052565b601f909101601f19168101906001600160401b038211908210176142c957604052565b9060405191825f82549261434984614276565b80845293600181169081156143b45750600114614370575b5061436e92500383614313565b565b90505f9291925260205f20905f915b81831061439857505090602061436e928201015f614361565b602091935080600191548385890101520191019091849261437f565b90506020925061436e94915060ff191682840152151560051b8201015f614361565b6001600160401b0381116142c957601f01601f191660200190565b9291926143fd826143d6565b9161440b6040519384614313565b829481845281830111613b19578281602093845f960137010152565b9080601f83011215613b1957816020614442933591016143f1565b90565b805482101561414c575f5260205f209060021b01905f90565b9181601f84011215613b19578235916001600160401b038311613b195760208381860195010111613b1957565b604435906001600160601b0382168203613b1957565b805482101561414c575f5260205f2001905f90565b6001600160401b0381116142c95760051b60200190565b906144d7826144b6565b6144e46040519182614313565b82815280926144f5601f19916144b6565b0190602036910137565b805182101561414c5760209160051b010190565b61452461451f82615072565b614a19565b5f908152609b60205260409020546001600160a01b031690565b1561454557565b60405162461bcd60e51b815260206004820152602d60248201527f4552433732313a2063616c6c6572206973206e6f7420746f6b656e206f776e6560448201526c1c881bdc88185c1c1c9bdd9959609a1b6064820152608490fd5b156145a757565b60405162461bcd60e51b81526020600482015260096024820152682737ba1037bbb732b960b91b6044820152606490fd5b156145df57565b60405162461bcd60e51b815260206004820152600d60248201526c496e76616c696420707269636560981b6044820152606490fd5b5f5261012d602052600160405f20015490565b9190915f52606660205260405f209160405192614643846142f8565b546001600160a01b03811680855260a09190911c602085015215614696575b60208301516001600160601b03168181029180159083049091141715613b685791516001600160a01b031691612710900490565b91506040516146a4816142f8565b6065546001600160a01b038116825260a01c602082015291614662565b156146c857565b60405162461bcd60e51b815260206004820152600a602482015269139bdd081b1a5cdd195960b21b6044820152606490fd5b91908203918211613b6857565b5f198114613b685760010190565b91908201809211613b6857565b51908115158203613b1957565b909160a092600180851b031682526020820152606060408201526015606082015274524546455252414c5f4e46545f505552434841534560581b60808201520190565b8054905f815581614781575050565b6001600160fe1b0382168203613b68575f5260205f209060021b8101905b8181106147aa575050565b6004905f81555f60018201555f60028201555f60038201550161479f565b3d156147f2573d906147d9826143d6565b916147e76040519384614313565b82523d5f602084013e565b606090565b156147fe57565b60405162461bcd60e51b8152602060048201526018602482015277151c99585cdd5c9e481d1c985b9cd9995c8819985a5b195960421b6044820152606490fd5b1561484557565b60405162461bcd60e51b815260206004820152601860248201527711985b1b189858dac81d1c985b9cd9995c8819985a5b195960421b6044820152606490fd5b1561488c57565b60405162461bcd60e51b815260206004820152601660248201527514d95b1b195c881d1c985b9cd9995c8819985a5b195960521b6044820152606490fd5b156148d157565b60405162461bcd60e51b815260206004820152602c60248201525f516020615c445f395f51905f5260448201526b19195b1959d85d1958d85b1b60a21b6064820152608490fd5b1561491f57565b60405162461bcd60e51b815260206004820152602c60248201525f516020615c445f395f51905f5260448201526b6163746976652070726f787960a01b6064820152608490fd5b1561496d57565b60405162461bcd60e51b815260206004820152600a6024820152694e6f742065786973747360b01b6044820152606490fd5b156149a657565b60405162461bcd60e51b815260206004820152600f60248201526e496e76616c6964206164647265737360881b6044820152606490fd5b156149e457565b60405162461bcd60e51b815260206004820152600d60248201526c24b73b30b634b21037b33332b960991b6044820152606490fd5b15614a2057565b60405162461bcd60e51b8152602060048201526018602482015277115490cdcc8c4e881a5b9d985b1a59081d1bdad95b88125160421b6044820152606490fd5b5f908152609960205260409020546001600160a01b0316614442811515614a19565b15614a8957565b60405162461bcd60e51b815260206004820152601260248201527113919508191bd95cc81b9bdd08195e1a5cdd60721b6044820152606490fd5b15614aca57565b60405162461bcd60e51b815260206004820152600f60248201526e496e76616c696420726f79616c747960881b6044820152606490fd5b601f8211614b0e57505050565b5f5260205f20906020601f840160051c83019310614b46575b601f0160051c01905b818110614b3b575050565b5f8155600101614b30565b9091508190614b27565b8160011b915f199060031b1c19161790565b90918060409360208452816020850152848401375f828201840152601f01601f1916010190565b90604051614b96816142ae565b82546001600160a01b0316815260018301546020820152600283015460ff1660408201526003909201546060830152565b906001600160a01b03614bd982614a60565b6001600160a01b0390931692168281149291908315614c19575b508215614bff57505090565b9091506001600160a01b0390614c1490614513565b161490565b9092505f52609c60205260405f20815f5260205260ff60405f205416915f614bf3565b6001600160a01b03909116908115614d6f57614c6e614c5a84614a60565b6001600160a01b03928316921682146154f0565b80614d35575b81614cfb575b614c96816001600160a01b03614c8f86614a60565b16146154f0565b5f838152609b6020908152604080832080546001600160a01b0319908116909155848452609a835281842080545f1901905585845281842080546001019055868452609990925282208054909116841790555f516020615ce45f395f51905f529080a4565b5f5b60018110614d0b5750614c7a565b600190835f5261022f602052614d2e60405f20614d288388614715565b906155bb565b5001614cfd565b5f5b60018110614d455750614c74565b600190825f5261022f602052614d6860405f20614d628388614715565b906156dd565b5001614d37565b60405162461bcd60e51b815260206004820152601f60248201527f43616e6e6f74207472616e7366657220746f207a65726f2061646472657373006044820152606490fd5b60ff6101915416614dc157565b60405162461bcd60e51b815260206004820152601060248201526f14185d5cd8589b194e881c185d5cd95960821b6044820152606490fd5b600261015f5414614e0c57600261015f55565b60405162461bcd60e51b815260206004820152601f60248201527f5265656e7472616e637947756172643a207265656e7472616e742063616c6c006044820152606490fd5b335f9081527fe8b47e42cab78272d650e16c902ae501350b5785a88ad6cc35425628c6398d9a602052604090205460ff1615614e8957565b614f4c614e9533615977565b614f2c6011614eb05f516020615c645f395f51905f52615a5d565b92603760405194859276020b1b1b2b9b9a1b7b73a3937b61d1030b1b1b7bab73a1604d1b6020850152614eec81518092602086880191016141c5565b83017001034b99036b4b9b9b4b733903937b6329607d1b83820152614f1b8251809360206048850191016141c5565b01010301601f198101835282614313565b60405162461bcd60e51b81526020600482015291829160248301906141e6565b0390fd5b335f9081527f7ed425ae1d300634375f848c08e126f7f779b9d472950d746ef0d3e26602551d602052604090205460ff1615614f8857565b614f4c614f9433615977565b614f2c6011614eb05f516020615d045f395f51905f52615a5d565b5f81815261012d6020908152604080832033845290915290205460ff1615614fd45750565b614f4c90614f2c6011614eb0614fe933615977565b93615a5d565b805f5261012d60205260405f2060018060a01b0383165f5260205260ff60405f20541661501a575050565b5f81815261012d602090815260408083206001600160a01b0395909516808452949091528120805460ff19169055339291907ff6391f5c32d9c69d2a47ea670b442974b53935d1edc7fd64eb21e047a839171b9080a4565b5f908152609960205260409020546001600160a01b0316151590565b6040519190602061509f8185614313565b5f84526001600160a01b038216908115615151576150c56150bf85615072565b15615aff565b5f5b6001811061512e575091838092609961436e97956150ea6150bf61104299615072565b5f838152609a82526040808220805460010190558582529290915290812080546001600160a01b031916831790555f516020615ce45f395f51905f528180a461581e565b600190835f5261022f835261514a60405f20614d288389614715565b50016150c7565b6064906040519062461bcd60e51b825280600483015260248201527f4552433732313a206d696e7420746f20746865207a65726f20616464726573736044820152fd5b9190916151a081615072565b1561528b575f81815260c96020526040902083516001600160401b0381116142c9576151d6816151d08454614276565b84614b01565b6020601f82116001146152165781602094939261520a925f516020615d645f395f51905f5297985f9261154b575050614b50565b90555b604051908152a1565b601f19821695835f52815f20965f5b818110615273575096600192849260209796955f516020615d645f395f51905f52999a1061525b575b505050811b01905561520d565b01515f1960f88460031b161c191690555f808061524e565b83830151895560019098019760209384019301615225565b60405162461bcd60e51b815260206004820152602e60248201527f45524337323155524953746f726167653a2055524920736574206f66206e6f6e60448201526d32bc34b9ba32b73a103a37b5b2b760911b6064820152608490fd5b916001600160601b0316906127108211615393576001600160a01b03169182156153505760405192615318846142f8565b835260208084019283525f91825260669052604090209151905160a01b6001600160a01b0319166001600160a01b0391909116179055565b60405162461bcd60e51b815260206004820152601b60248201527a455243323938313a20496e76616c696420706172616d657465727360281b6044820152606490fd5b60405162461bcd60e51b815260206004820152602a60248201527f455243323938313a20726f79616c7479206665652077696c6c206578636565646044820152692073616c65507269636560b01b6064820152608490fd5b60809060208152603260208201527f4552433732313a207472616e7366657220746f206e6f6e20455243373231526560408201527131b2b4bb32b91034b6b83632b6b2b73a32b960711b60608201520190565b1561544557565b60405162461bcd60e51b815280614f4c600482016153eb565b1561546557565b60405162461bcd60e51b815260206004820152602b60248201527f496e697469616c697a61626c653a20636f6e7472616374206973206e6f74206960448201526a6e697469616c697a696e6760a81b6064820152608490fd5b6154ca61451f82615072565b5f5260c96020526154dd60405f20614336565b5f6040516154ec602082614313565b5290565b156154f757565b60405162461bcd60e51b815260206004820152602560248201527f4552433732313a207472616e736665722066726f6d20696e636f72726563742060448201526437bbb732b960d91b6064820152608490fd5b805f5261023260205260405f2054155f146155b65761023154600160401b8110156142c95761559d615587826001859401610231556102316144a1565b819391549060031b91821b915f19901b19161790565b905561023154905f5261023260205260405f2055600190565b505f90565b6001810190825f528160205260405f2054155f14615608578054600160401b8110156142c9576155f56155878260018794018555846144a1565b905554915f5260205260405f2055600190565b5050505f90565b5f818152610232602052604090205480156156d7575f198101818111613b6857610231545f19810191908211613b685780820361569c575b505050610231548015615688575f1901615663816102316144a1565b8154905f199060031b1b19169055610231555f526102326020525f6040812055600190565b634e487b7160e01b5f52603160045260245ffd5b6156c06156ae615587936102316144a1565b90549060031b1c9283926102316144a1565b90555f5261023260205260405f20555f8080615647565b50505f90565b906001820191815f528260205260405f20548015155f14615786575f198101818111613b685782545f19810191908211613b6857808203615751575b50505080548015615688575f19019061573282826144a1565b8154905f199060031b1b19169055555f526020525f6040812055600190565b61577161576161558793866144a1565b90549060031b1c928392866144a1565b90555f528360205260405f20555f8080615719565b505050505f90565b803b156157c3575f516020615c845f395f51905f5280546001600160a01b0319166001600160a01b0392909216919091179055565b60405162461bcd60e51b815260206004820152602d60248201527f455243313936373a206e657720696d706c656d656e746174696f6e206973206e60448201526c1bdd08184818dbdb9d1c9858dd609a1b6064820152608490fd5b91823b1561590657615863926020925f604051809681958294630a85bd0160e11b845233600485015284602485015260448401526080606484015260848301906141e6565b03926001600160a01b03165af15f91816158c1575b506158ab576158856147c8565b805190816158a65760405162461bcd60e51b815280614f4c600482016153eb565b602001fd5b6001600160e01b031916630a85bd0160e11b1490565b9091506020813d6020116158fe575b816158dd60209383614313565b81010312613b1957516001600160e01b031981168103613b1957905f615878565b3d91506158d0565b505050600190565b919290803b1561595d57615863935f60209460405196879586948593630a85bd0160e11b855233600486015260018060a01b0316602485015260448401526080606484015260848301906141e6565b50505050600190565b90815181101561414c570160200190565b615981602a6143d6565b9061598f6040519283614313565b602a825261599d602a6143d6565b6020830190601f190136823782511561414c576030905381516001101561414c576078602183015360295b60018111615a1c57506159d85790565b606460405162461bcd60e51b815260206004820152602060248201527f537472696e67733a20686578206c656e67746820696e73756666696369656e746044820152fd5b90600f8116601081101561414c576f181899199a1a9b1b9c1cb0b131b232b360811b901a615a4a8385615966565b5360041c908015613b68575f19016159c8565b615a6760426143d6565b90615a756040519283614313565b60428252615a8360426143d6565b6020830190601f190136823782511561414c576030905381516001101561414c576078602183015360415b60018111615abe57506159d85790565b90600f8116601081101561414c576f181899199a1a9b1b9c1cb0b131b232b360811b901a615aec8385615966565b5360041c908015613b68575f1901615aae565b15615b0657565b60405162461bcd60e51b815260206004820152601c60248201527b115490cdcc8c4e881d1bdad95b88185b1c9958591e481b5a5b9d195960221b6044820152606490fd5b91929015615bac5750815115615b5e575090565b3b15615b675790565b60405162461bcd60e51b815260206004820152601d60248201527f416464726573733a2063616c6c20746f206e6f6e2d636f6e74726163740000006044820152606490fd5b825190915015615bbf5750805190602001fd5b60405162461bcd60e51b815260206004820152908190614f4c9060248301906141e656fe2f8788117e7eff1d82e926ec794901d17c78024a50270940304540a733656f0d4910fdfa16fed3260ed0e7147f7cc6da11a60208b5b9406d12a635614ffd91431e1b69b56bd875547ce642e5ca9d38001b825863ffbf9cf08c72e0ff64b00a8d46756e6374696f6e206d7573742062652063616c6c6564207468726f75676820189ab7a9244df0848122154315af71fe140f3db0fe014031783b0946b8c9d2e3360894a13ba1a3210667c828492db98dca3e2076cc3735a920a3ca505d382bbc21ef4c3fb7c1ca86841fe7b11bbb71ad12bd4b7bb3205924ec33c681c9d47c3fbc7cd75a20ee27fd9adebab32041f755214dbc6bffa90cc0225b39da2e5c2d3bddf252ad1be2c89b69c2b068fc378daa952ba7f163c4a11628f55a4df523b3efa49807205ce4d355092ef5a8a18f56e8913cf4a201fbe287825b095693c2177545524331393637557067726164653a20756e737570706f727465642070726f78416464726573733a206c6f772d6c6576656c2064656c65676174652063616c6cf8e1a15aba9398e019f0b49df1a4fde98ee17ae345cb5f6b5e2c27f5033e8ce745524331393637557067726164653a206e657720696d706c656d656e74617469a2646970667358221220caf204f15f17ec36462c457fa37b868df2cc2498d2c0ad299e85d9fad90c993c64736f6c634300081c0033",
  "linkReferences": {},
  "deployedLinkReferences": {}
}