{
  "_format": "hh-sol-artifact-1",
  "contractName": "GameifiedMarketplaceCoreV1",
  "sourceName": "contracts/Marketplace/GameifiedMarketplaceCoreV1.sol",
  "abi": [
    {
      "inputs": [],
      "stateMutability": "nonpayable",
      "type": "constructor"
    },
    {
      "inputs": [],
      "name": "InsufficientPayment",
      "type": "error"
    },
    {
      "inputs": [],
      "name": "NoOffersAvailable",
      "type": "error"
    },
    {
      "inputs": [],
      "name": "NotTokenOwner",
      "type": "error"
    },
    {
      "inputs": [],
      "name": "TokenNotFound",
      "type": "error"
    },
    {
      "inputs": [],
      "name": "TokenNotListed",
      "type": "error"
    },
    {
      "anonymous": false,
      "inputs": [
        {
          "indexed": false,
          "internalType": "address",
          "name": "previousAdmin",
          "type": "address"
        },
        {
          "indexed": false,
          "internalType": "address",
          "name": "newAdmin",
          "type": "address"
        }
      ],
      "name": "AdminChanged",
      "type": "event"
    },
    {
      "anonymous": false,
      "inputs": [
        {
          "indexed": true,
          "internalType": "address",
          "name": "owner",
          "type": "address"
        },
        {
          "indexed": true,
          "internalType": "address",
          "name": "approved",
          "type": "address"
        },
        {
          "indexed": true,
          "internalType": "uint256",
          "name": "tokenId",
          "type": "uint256"
        }
      ],
      "name": "Approval",
      "type": "event"
    },
    {
      "anonymous": false,
      "inputs": [
        {
          "indexed": true,
          "internalType": "address",
          "name": "owner",
          "type": "address"
        },
        {
          "indexed": true,
          "internalType": "address",
          "name": "operator",
          "type": "address"
        },
        {
          "indexed": false,
          "internalType": "bool",
          "name": "approved",
          "type": "bool"
        }
      ],
      "name": "ApprovalForAll",
      "type": "event"
    },
    {
      "anonymous": false,
      "inputs": [
        {
          "indexed": false,
          "internalType": "uint256",
          "name": "_fromTokenId",
          "type": "uint256"
        },
        {
          "indexed": false,
          "internalType": "uint256",
          "name": "_toTokenId",
          "type": "uint256"
        }
      ],
      "name": "BatchMetadataUpdate",
      "type": "event"
    },
    {
      "anonymous": false,
      "inputs": [
        {
          "indexed": true,
          "internalType": "address",
          "name": "beacon",
          "type": "address"
        }
      ],
      "name": "BeaconUpgraded",
      "type": "event"
    },
    {
      "anonymous": false,
      "inputs": [
        {
          "indexed": true,
          "internalType": "address",
          "name": "user",
          "type": "address"
        },
        {
          "indexed": true,
          "internalType": "uint256",
          "name": "tokenId",
          "type": "uint256"
        },
        {
          "indexed": false,
          "internalType": "string",
          "name": "comment",
          "type": "string"
        }
      ],
      "name": "CommentAdded",
      "type": "event"
    },
    {
      "anonymous": false,
      "inputs": [
        {
          "indexed": false,
          "internalType": "uint8",
          "name": "version",
          "type": "uint8"
        }
      ],
      "name": "Initialized",
      "type": "event"
    },
    {
      "anonymous": false,
      "inputs": [
        {
          "indexed": true,
          "internalType": "address",
          "name": "user",
          "type": "address"
        },
        {
          "indexed": false,
          "internalType": "uint8",
          "name": "newLevel",
          "type": "uint8"
        }
      ],
      "name": "LevelUp",
      "type": "event"
    },
    {
      "anonymous": false,
      "inputs": [
        {
          "indexed": true,
          "internalType": "address",
          "name": "user",
          "type": "address"
        },
        {
          "indexed": true,
          "internalType": "uint256",
          "name": "tokenId",
          "type": "uint256"
        },
        {
          "indexed": false,
          "internalType": "bool",
          "name": "liked",
          "type": "bool"
        }
      ],
      "name": "LikeToggled",
      "type": "event"
    },
    {
      "anonymous": false,
      "inputs": [
        {
          "indexed": false,
          "internalType": "uint256",
          "name": "_tokenId",
          "type": "uint256"
        }
      ],
      "name": "MetadataUpdate",
      "type": "event"
    },
    {
      "anonymous": false,
      "inputs": [
        {
          "indexed": true,
          "internalType": "address",
          "name": "seller",
          "type": "address"
        },
        {
          "indexed": true,
          "internalType": "address",
          "name": "buyer",
          "type": "address"
        },
        {
          "indexed": true,
          "internalType": "uint256",
          "name": "tokenId",
          "type": "uint256"
        },
        {
          "indexed": false,
          "internalType": "uint256",
          "name": "amount",
          "type": "uint256"
        }
      ],
      "name": "OfferAccepted",
      "type": "event"
    },
    {
      "anonymous": false,
      "inputs": [
        {
          "indexed": true,
          "internalType": "address",
          "name": "offeror",
          "type": "address"
        },
        {
          "indexed": true,
          "internalType": "uint256",
          "name": "tokenId",
          "type": "uint256"
        },
        {
          "indexed": false,
          "internalType": "uint256",
          "name": "amount",
          "type": "uint256"
        }
      ],
      "name": "OfferMade",
      "type": "event"
    },
    {
      "anonymous": false,
      "inputs": [
        {
          "indexed": false,
          "internalType": "address",
          "name": "account",
          "type": "address"
        }
      ],
      "name": "Paused",
      "type": "event"
    },
    {
      "anonymous": false,
      "inputs": [
        {
          "indexed": true,
          "internalType": "address",
          "name": "from",
          "type": "address"
        },
        {
          "indexed": false,
          "internalType": "uint256",
          "name": "amount",
          "type": "uint256"
        },
        {
          "indexed": true,
          "internalType": "address",
          "name": "to",
          "type": "address"
        },
        {
          "indexed": false,
          "internalType": "string",
          "name": "operation",
          "type": "string"
        }
      ],
      "name": "PlatformFeeTransferred",
      "type": "event"
    },
    {
      "anonymous": false,
      "inputs": [
        {
          "indexed": true,
          "internalType": "address",
          "name": "seller",
          "type": "address"
        },
        {
          "indexed": true,
          "internalType": "uint256",
          "name": "tokenId",
          "type": "uint256"
        },
        {
          "indexed": false,
          "internalType": "uint256",
          "name": "newPrice",
          "type": "uint256"
        }
      ],
      "name": "PriceUpdated",
      "type": "event"
    },
    {
      "anonymous": false,
      "inputs": [
        {
          "indexed": true,
          "internalType": "address",
          "name": "oldAddress",
          "type": "address"
        },
        {
          "indexed": true,
          "internalType": "address",
          "name": "newAddress",
          "type": "address"
        }
      ],
      "name": "QuestsContractUpdated",
      "type": "event"
    },
    {
      "anonymous": false,
      "inputs": [
        {
          "indexed": true,
          "internalType": "bytes32",
          "name": "role",
          "type": "bytes32"
        },
        {
          "indexed": true,
          "internalType": "bytes32",
          "name": "previousAdminRole",
          "type": "bytes32"
        },
        {
          "indexed": true,
          "internalType": "bytes32",
          "name": "newAdminRole",
          "type": "bytes32"
        }
      ],
      "name": "RoleAdminChanged",
      "type": "event"
    },
    {
      "anonymous": false,
      "inputs": [
        {
          "indexed": true,
          "internalType": "bytes32",
          "name": "role",
          "type": "bytes32"
        },
        {
          "indexed": true,
          "internalType": "address",
          "name": "account",
          "type": "address"
        },
        {
          "indexed": true,
          "internalType": "address",
          "name": "sender",
          "type": "address"
        }
      ],
      "name": "RoleGranted",
      "type": "event"
    },
    {
      "anonymous": false,
      "inputs": [
        {
          "indexed": true,
          "internalType": "bytes32",
          "name": "role",
          "type": "bytes32"
        },
        {
          "indexed": true,
          "internalType": "address",
          "name": "account",
          "type": "address"
        },
        {
          "indexed": true,
          "internalType": "address",
          "name": "sender",
          "type": "address"
        }
      ],
      "name": "RoleRevoked",
      "type": "event"
    },
    {
      "anonymous": false,
      "inputs": [
        {
          "indexed": true,
          "internalType": "address",
          "name": "oldAddress",
          "type": "address"
        },
        {
          "indexed": true,
          "internalType": "address",
          "name": "newAddress",
          "type": "address"
        }
      ],
      "name": "SkillsContractUpdated",
      "type": "event"
    },
    {
      "anonymous": false,
      "inputs": [
        {
          "indexed": true,
          "internalType": "address",
          "name": "oldAddress",
          "type": "address"
        },
        {
          "indexed": true,
          "internalType": "address",
          "name": "newAddress",
          "type": "address"
        }
      ],
      "name": "StakingContractUpdated",
      "type": "event"
    },
    {
      "anonymous": false,
      "inputs": [
        {
          "indexed": true,
          "internalType": "address",
          "name": "creator",
          "type": "address"
        },
        {
          "indexed": true,
          "internalType": "uint256",
          "name": "tokenId",
          "type": "uint256"
        },
        {
          "indexed": false,
          "internalType": "string",
          "name": "uri",
          "type": "string"
        }
      ],
      "name": "TokenCreated",
      "type": "event"
    },
    {
      "anonymous": false,
      "inputs": [
        {
          "indexed": true,
          "internalType": "address",
          "name": "seller",
          "type": "address"
        },
        {
          "indexed": true,
          "internalType": "uint256",
          "name": "tokenId",
          "type": "uint256"
        },
        {
          "indexed": false,
          "internalType": "uint256",
          "name": "price",
          "type": "uint256"
        }
      ],
      "name": "TokenListed",
      "type": "event"
    },
    {
      "anonymous": false,
      "inputs": [
        {
          "indexed": true,
          "internalType": "address",
          "name": "seller",
          "type": "address"
        },
        {
          "indexed": true,
          "internalType": "address",
          "name": "buyer",
          "type": "address"
        },
        {
          "indexed": true,
          "internalType": "uint256",
          "name": "tokenId",
          "type": "uint256"
        },
        {
          "indexed": false,
          "internalType": "uint256",
          "name": "price",
          "type": "uint256"
        }
      ],
      "name": "TokenSold",
      "type": "event"
    },
    {
      "anonymous": false,
      "inputs": [
        {
          "indexed": true,
          "internalType": "address",
          "name": "seller",
          "type": "address"
        },
        {
          "indexed": true,
          "internalType": "uint256",
          "name": "tokenId",
          "type": "uint256"
        }
      ],
      "name": "TokenUnlisted",
      "type": "event"
    },
    {
      "anonymous": false,
      "inputs": [
        {
          "indexed": true,
          "internalType": "address",
          "name": "from",
          "type": "address"
        },
        {
          "indexed": true,
          "internalType": "address",
          "name": "to",
          "type": "address"
        },
        {
          "indexed": true,
          "internalType": "uint256",
          "name": "tokenId",
          "type": "uint256"
        }
      ],
      "name": "Transfer",
      "type": "event"
    },
    {
      "anonymous": false,
      "inputs": [
        {
          "indexed": false,
          "internalType": "address",
          "name": "account",
          "type": "address"
        }
      ],
      "name": "Unpaused",
      "type": "event"
    },
    {
      "anonymous": false,
      "inputs": [
        {
          "indexed": true,
          "internalType": "address",
          "name": "implementation",
          "type": "address"
        }
      ],
      "name": "Upgraded",
      "type": "event"
    },
    {
      "anonymous": false,
      "inputs": [
        {
          "indexed": true,
          "internalType": "address",
          "name": "user",
          "type": "address"
        },
        {
          "indexed": false,
          "internalType": "uint256",
          "name": "amount",
          "type": "uint256"
        },
        {
          "indexed": false,
          "internalType": "string",
          "name": "reason",
          "type": "string"
        }
      ],
      "name": "XPGained",
      "type": "event"
    },
    {
      "inputs": [],
      "name": "ADMIN_ROLE",
      "outputs": [
        {
          "internalType": "bytes32",
          "name": "",
          "type": "bytes32"
        }
      ],
      "stateMutability": "view",
      "type": "function"
    },
    {
      "inputs": [],
      "name": "DEFAULT_ADMIN_ROLE",
      "outputs": [
        {
          "internalType": "bytes32",
          "name": "",
          "type": "bytes32"
        }
      ],
      "stateMutability": "view",
      "type": "function"
    },
    {
      "inputs": [],
      "name": "PLATFORM_FEE_PERCENTAGE",
      "outputs": [
        {
          "internalType": "uint256",
          "name": "",
          "type": "uint256"
        }
      ],
      "stateMutability": "view",
      "type": "function"
    },
    {
      "inputs": [],
      "name": "UPGRADER_ROLE",
      "outputs": [
        {
          "internalType": "bytes32",
          "name": "",
          "type": "bytes32"
        }
      ],
      "stateMutability": "view",
      "type": "function"
    },
    {
      "inputs": [
        {
          "internalType": "uint256",
          "name": "_tokenId",
          "type": "uint256"
        },
        {
          "internalType": "uint256",
          "name": "_offerIndex",
          "type": "uint256"
        }
      ],
      "name": "acceptOffer",
      "outputs": [],
      "stateMutability": "nonpayable",
      "type": "function"
    },
    {
      "inputs": [
        {
          "internalType": "uint256",
          "name": "_tokenId",
          "type": "uint256"
        },
        {
          "internalType": "string",
          "name": "_text",
          "type": "string"
        }
      ],
      "name": "addComment",
      "outputs": [],
      "stateMutability": "nonpayable",
      "type": "function"
    },
    {
      "inputs": [
        {
          "internalType": "address",
          "name": "to",
          "type": "address"
        },
        {
          "internalType": "uint256",
          "name": "tokenId",
          "type": "uint256"
        }
      ],
      "name": "approve",
      "outputs": [],
      "stateMutability": "nonpayable",
      "type": "function"
    },
    {
      "inputs": [
        {
          "internalType": "address",
          "name": "owner",
          "type": "address"
        }
      ],
      "name": "balanceOf",
      "outputs": [
        {
          "internalType": "uint256",
          "name": "",
          "type": "uint256"
        }
      ],
      "stateMutability": "view",
      "type": "function"
    },
    {
      "inputs": [
        {
          "internalType": "uint256",
          "name": "_tokenId",
          "type": "uint256"
        }
      ],
      "name": "buyToken",
      "outputs": [],
      "stateMutability": "payable",
      "type": "function"
    },
    {
      "inputs": [
        {
          "internalType": "uint256",
          "name": "_tokenId",
          "type": "uint256"
        },
        {
          "internalType": "uint256",
          "name": "_offerIndex",
          "type": "uint256"
        }
      ],
      "name": "cancelOffer",
      "outputs": [],
      "stateMutability": "nonpayable",
      "type": "function"
    },
    {
      "inputs": [
        {
          "internalType": "string",
          "name": "_tokenURI",
          "type": "string"
        },
        {
          "internalType": "string",
          "name": "_category",
          "type": "string"
        },
        {
          "internalType": "uint96",
          "name": "_royaltyPercentage",
          "type": "uint96"
        }
      ],
      "name": "createStandardNFT",
      "outputs": [
        {
          "internalType": "uint256",
          "name": "",
          "type": "uint256"
        }
      ],
      "stateMutability": "nonpayable",
      "type": "function"
    },
    {
      "inputs": [
        {
          "internalType": "string",
          "name": "_tokenURI",
          "type": "string"
        },
        {
          "internalType": "string",
          "name": "_category",
          "type": "string"
        },
        {
          "internalType": "uint96",
          "name": "_royaltyPercentage",
          "type": "uint96"
        },
        {
          "internalType": "uint256",
          "name": "_count",
          "type": "uint256"
        }
      ],
      "name": "createStandardNFTBatch",
      "outputs": [
        {
          "internalType": "uint256[]",
          "name": "",
          "type": "uint256[]"
        }
      ],
      "stateMutability": "nonpayable",
      "type": "function"
    },
    {
      "inputs": [
        {
          "internalType": "uint256",
          "name": "tokenId",
          "type": "uint256"
        }
      ],
      "name": "getApproved",
      "outputs": [
        {
          "internalType": "address",
          "name": "",
          "type": "address"
        }
      ],
      "stateMutability": "view",
      "type": "function"
    },
    {
      "inputs": [],
      "name": "getListedNFTs",
      "outputs": [
        {
          "internalType": "uint256[]",
          "name": "",
          "type": "uint256[]"
        }
      ],
      "stateMutability": "view",
      "type": "function"
    },
    {
      "inputs": [
        {
          "internalType": "uint256",
          "name": "cursor",
          "type": "uint256"
        },
        {
          "internalType": "uint256",
          "name": "size",
          "type": "uint256"
        }
      ],
      "name": "getListedNFTsPage",
      "outputs": [
        {
          "internalType": "uint256[]",
          "name": "tokens",
          "type": "uint256[]"
        },
        {
          "internalType": "uint256",
          "name": "nextCursor",
          "type": "uint256"
        }
      ],
      "stateMutability": "view",
      "type": "function"
    },
    {
      "inputs": [
        {
          "internalType": "uint256",
          "name": "_tokenId",
          "type": "uint256"
        }
      ],
      "name": "getNFTComments",
      "outputs": [
        {
          "internalType": "string[]",
          "name": "",
          "type": "string[]"
        }
      ],
      "stateMutability": "view",
      "type": "function"
    },
    {
      "inputs": [
        {
          "internalType": "uint256",
          "name": "_tokenId",
          "type": "uint256"
        }
      ],
      "name": "getNFTLikeCount",
      "outputs": [
        {
          "internalType": "uint256",
          "name": "",
          "type": "uint256"
        }
      ],
      "stateMutability": "view",
      "type": "function"
    },
    {
      "inputs": [
        {
          "internalType": "uint256",
          "name": "_tokenId",
          "type": "uint256"
        }
      ],
      "name": "getNFTMarketInfo",
      "outputs": [
        {
          "internalType": "address",
          "name": "owner",
          "type": "address"
        },
        {
          "internalType": "bool",
          "name": "isListedStatus",
          "type": "bool"
        },
        {
          "internalType": "uint256",
          "name": "price",
          "type": "uint256"
        }
      ],
      "stateMutability": "view",
      "type": "function"
    },
    {
      "inputs": [
        {
          "internalType": "uint256",
          "name": "_tokenId",
          "type": "uint256"
        }
      ],
      "name": "getNFTMetadata",
      "outputs": [
        {
          "components": [
            {
              "internalType": "address",
              "name": "creator",
              "type": "address"
            },
            {
              "internalType": "string",
              "name": "uri",
              "type": "string"
            },
            {
              "internalType": "string",
              "name": "category",
              "type": "string"
            },
            {
              "internalType": "uint256",
              "name": "createdAt",
              "type": "uint256"
            },
            {
              "internalType": "uint96",
              "name": "royaltyPercentage",
              "type": "uint96"
            }
          ],
          "internalType": "struct GameifiedMarketplaceCoreV1.NFTMetadata",
          "name": "",
          "type": "tuple"
        }
      ],
      "stateMutability": "view",
      "type": "function"
    },
    {
      "inputs": [
        {
          "internalType": "uint256",
          "name": "_tokenId",
          "type": "uint256"
        }
      ],
      "name": "getNFTOffers",
      "outputs": [
        {
          "components": [
            {
              "internalType": "address",
              "name": "offeror",
              "type": "address"
            },
            {
              "internalType": "uint256",
              "name": "amount",
              "type": "uint256"
            },
            {
              "internalType": "uint8",
              "name": "expiresInDays",
              "type": "uint8"
            },
            {
              "internalType": "uint256",
              "name": "timestamp",
              "type": "uint256"
            }
          ],
          "internalType": "struct GameifiedMarketplaceCoreV1.Offer[]",
          "name": "",
          "type": "tuple[]"
        }
      ],
      "stateMutability": "view",
      "type": "function"
    },
    {
      "inputs": [
        {
          "internalType": "bytes32",
          "name": "role",
          "type": "bytes32"
        }
      ],
      "name": "getRoleAdmin",
      "outputs": [
        {
          "internalType": "bytes32",
          "name": "",
          "type": "bytes32"
        }
      ],
      "stateMutability": "view",
      "type": "function"
    },
    {
      "inputs": [
        {
          "internalType": "address",
          "name": "_user",
          "type": "address"
        }
      ],
      "name": "getUserCreatedNFTs",
      "outputs": [
        {
          "internalType": "uint256[]",
          "name": "",
          "type": "uint256[]"
        }
      ],
      "stateMutability": "view",
      "type": "function"
    },
    {
      "inputs": [
        {
          "internalType": "address",
          "name": "_user",
          "type": "address"
        },
        {
          "internalType": "uint256",
          "name": "cursor",
          "type": "uint256"
        },
        {
          "internalType": "uint256",
          "name": "size",
          "type": "uint256"
        }
      ],
      "name": "getUserCreatedNFTsPage",
      "outputs": [
        {
          "internalType": "uint256[]",
          "name": "tokens",
          "type": "uint256[]"
        },
        {
          "internalType": "uint256",
          "name": "nextCursor",
          "type": "uint256"
        }
      ],
      "stateMutability": "view",
      "type": "function"
    },
    {
      "inputs": [
        {
          "internalType": "uint256",
          "name": "_tokenId",
          "type": "uint256"
        },
        {
          "internalType": "address",
          "name": "_user",
          "type": "address"
        }
      ],
      "name": "getUserNFTLike",
      "outputs": [
        {
          "internalType": "bool",
          "name": "",
          "type": "bool"
        }
      ],
      "stateMutability": "view",
      "type": "function"
    },
    {
      "inputs": [
        {
          "internalType": "address",
          "name": "_user",
          "type": "address"
        }
      ],
      "name": "getUserNFTs",
      "outputs": [
        {
          "internalType": "uint256[]",
          "name": "",
          "type": "uint256[]"
        }
      ],
      "stateMutability": "view",
      "type": "function"
    },
    {
      "inputs": [
        {
          "internalType": "address",
          "name": "_user",
          "type": "address"
        }
      ],
      "name": "getUserNFTsDetailed",
      "outputs": [
        {
          "components": [
            {
              "internalType": "address",
              "name": "creator",
              "type": "address"
            },
            {
              "internalType": "string",
              "name": "uri",
              "type": "string"
            },
            {
              "internalType": "string",
              "name": "category",
              "type": "string"
            },
            {
              "internalType": "uint256",
              "name": "createdAt",
              "type": "uint256"
            },
            {
              "internalType": "uint96",
              "name": "royaltyPercentage",
              "type": "uint96"
            }
          ],
          "internalType": "struct GameifiedMarketplaceCoreV1.NFTMetadata[]",
          "name": "",
          "type": "tuple[]"
        }
      ],
      "stateMutability": "view",
      "type": "function"
    },
    {
      "inputs": [
        {
          "internalType": "address",
          "name": "_user",
          "type": "address"
        },
        {
          "internalType": "uint256",
          "name": "cursor",
          "type": "uint256"
        },
        {
          "internalType": "uint256",
          "name": "size",
          "type": "uint256"
        }
      ],
      "name": "getUserNFTsPage",
      "outputs": [
        {
          "internalType": "uint256[]",
          "name": "tokens",
          "type": "uint256[]"
        },
        {
          "internalType": "uint256",
          "name": "nextCursor",
          "type": "uint256"
        }
      ],
      "stateMutability": "view",
      "type": "function"
    },
    {
      "inputs": [
        {
          "internalType": "address",
          "name": "_user",
          "type": "address"
        }
      ],
      "name": "getUserProfile",
      "outputs": [
        {
          "components": [
            {
              "internalType": "uint256",
              "name": "totalXP",
              "type": "uint256"
            },
            {
              "internalType": "uint8",
              "name": "level",
              "type": "uint8"
            },
            {
              "internalType": "uint256",
              "name": "nftsCreated",
              "type": "uint256"
            },
            {
              "internalType": "uint256",
              "name": "nftsOwned",
              "type": "uint256"
            },
            {
              "internalType": "uint32",
              "name": "nftsSold",
              "type": "uint32"
            },
            {
              "internalType": "uint32",
              "name": "nftsBought",
              "type": "uint32"
            }
          ],
          "internalType": "struct GameifiedMarketplaceCoreV1.UserProfile",
          "name": "",
          "type": "tuple"
        }
      ],
      "stateMutability": "view",
      "type": "function"
    },
    {
      "inputs": [
        {
          "internalType": "bytes32",
          "name": "role",
          "type": "bytes32"
        },
        {
          "internalType": "address",
          "name": "account",
          "type": "address"
        }
      ],
      "name": "grantRole",
      "outputs": [],
      "stateMutability": "nonpayable",
      "type": "function"
    },
    {
      "inputs": [
        {
          "internalType": "bytes32",
          "name": "role",
          "type": "bytes32"
        },
        {
          "internalType": "address",
          "name": "account",
          "type": "address"
        }
      ],
      "name": "hasRole",
      "outputs": [
        {
          "internalType": "bool",
          "name": "",
          "type": "bool"
        }
      ],
      "stateMutability": "view",
      "type": "function"
    },
    {
      "inputs": [
        {
          "internalType": "address",
          "name": "_platformTreasury",
          "type": "address"
        }
      ],
      "name": "initialize",
      "outputs": [],
      "stateMutability": "nonpayable",
      "type": "function"
    },
    {
      "inputs": [
        {
          "internalType": "address",
          "name": "owner",
          "type": "address"
        },
        {
          "internalType": "address",
          "name": "operator",
          "type": "address"
        }
      ],
      "name": "isApprovedForAll",
      "outputs": [
        {
          "internalType": "bool",
          "name": "",
          "type": "bool"
        }
      ],
      "stateMutability": "view",
      "type": "function"
    },
    {
      "inputs": [
        {
          "internalType": "uint256",
          "name": "",
          "type": "uint256"
        }
      ],
      "name": "isListed",
      "outputs": [
        {
          "internalType": "bool",
          "name": "",
          "type": "bool"
        }
      ],
      "stateMutability": "view",
      "type": "function"
    },
    {
      "inputs": [
        {
          "internalType": "uint256",
          "name": "_tokenId",
          "type": "uint256"
        },
        {
          "internalType": "uint256",
          "name": "_price",
          "type": "uint256"
        }
      ],
      "name": "listTokenForSale",
      "outputs": [],
      "stateMutability": "nonpayable",
      "type": "function"
    },
    {
      "inputs": [
        {
          "internalType": "uint256",
          "name": "",
          "type": "uint256"
        }
      ],
      "name": "listedPrice",
      "outputs": [
        {
          "internalType": "uint256",
          "name": "",
          "type": "uint256"
        }
      ],
      "stateMutability": "view",
      "type": "function"
    },
    {
      "inputs": [
        {
          "internalType": "uint256",
          "name": "_tokenId",
          "type": "uint256"
        },
        {
          "internalType": "uint8",
          "name": "_expiresInDays",
          "type": "uint8"
        }
      ],
      "name": "makeOffer",
      "outputs": [],
      "stateMutability": "payable",
      "type": "function"
    },
    {
      "inputs": [],
      "name": "name",
      "outputs": [
        {
          "internalType": "string",
          "name": "",
          "type": "string"
        }
      ],
      "stateMutability": "view",
      "type": "function"
    },
    {
      "inputs": [
        {
          "internalType": "uint256",
          "name": "",
          "type": "uint256"
        },
        {
          "internalType": "uint256",
          "name": "",
          "type": "uint256"
        }
      ],
      "name": "nftComments",
      "outputs": [
        {
          "internalType": "string",
          "name": "",
          "type": "string"
        }
      ],
      "stateMutability": "view",
      "type": "function"
    },
    {
      "inputs": [
        {
          "internalType": "uint256",
          "name": "",
          "type": "uint256"
        }
      ],
      "name": "nftLikeCount",
      "outputs": [
        {
          "internalType": "uint256",
          "name": "",
          "type": "uint256"
        }
      ],
      "stateMutability": "view",
      "type": "function"
    },
    {
      "inputs": [
        {
          "internalType": "uint256",
          "name": "",
          "type": "uint256"
        },
        {
          "internalType": "address",
          "name": "",
          "type": "address"
        }
      ],
      "name": "nftLikes",
      "outputs": [
        {
          "internalType": "bool",
          "name": "",
          "type": "bool"
        }
      ],
      "stateMutability": "view",
      "type": "function"
    },
    {
      "inputs": [
        {
          "internalType": "uint256",
          "name": "",
          "type": "uint256"
        }
      ],
      "name": "nftMetadata",
      "outputs": [
        {
          "internalType": "address",
          "name": "creator",
          "type": "address"
        },
        {
          "internalType": "string",
          "name": "uri",
          "type": "string"
        },
        {
          "internalType": "string",
          "name": "category",
          "type": "string"
        },
        {
          "internalType": "uint256",
          "name": "createdAt",
          "type": "uint256"
        },
        {
          "internalType": "uint96",
          "name": "royaltyPercentage",
          "type": "uint96"
        }
      ],
      "stateMutability": "view",
      "type": "function"
    },
    {
      "inputs": [
        {
          "internalType": "uint256",
          "name": "",
          "type": "uint256"
        },
        {
          "internalType": "uint256",
          "name": "",
          "type": "uint256"
        }
      ],
      "name": "nftOffers",
      "outputs": [
        {
          "internalType": "address",
          "name": "offeror",
          "type": "address"
        },
        {
          "internalType": "uint256",
          "name": "amount",
          "type": "uint256"
        },
        {
          "internalType": "uint8",
          "name": "expiresInDays",
          "type": "uint8"
        },
        {
          "internalType": "uint256",
          "name": "timestamp",
          "type": "uint256"
        }
      ],
      "stateMutability": "view",
      "type": "function"
    },
    {
      "inputs": [
        {
          "internalType": "uint256",
          "name": "tokenId",
          "type": "uint256"
        }
      ],
      "name": "ownerOf",
      "outputs": [
        {
          "internalType": "address",
          "name": "",
          "type": "address"
        }
      ],
      "stateMutability": "view",
      "type": "function"
    },
    {
      "inputs": [],
      "name": "pause",
      "outputs": [],
      "stateMutability": "nonpayable",
      "type": "function"
    },
    {
      "inputs": [],
      "name": "paused",
      "outputs": [
        {
          "internalType": "bool",
          "name": "",
          "type": "bool"
        }
      ],
      "stateMutability": "view",
      "type": "function"
    },
    {
      "inputs": [],
      "name": "platformTreasury",
      "outputs": [
        {
          "internalType": "address",
          "name": "",
          "type": "address"
        }
      ],
      "stateMutability": "view",
      "type": "function"
    },
    {
      "inputs": [],
      "name": "proxiableUUID",
      "outputs": [
        {
          "internalType": "bytes32",
          "name": "",
          "type": "bytes32"
        }
      ],
      "stateMutability": "view",
      "type": "function"
    },
    {
      "inputs": [],
      "name": "questsContractAddress",
      "outputs": [
        {
          "internalType": "address",
          "name": "",
          "type": "address"
        }
      ],
      "stateMutability": "view",
      "type": "function"
    },
    {
      "inputs": [
        {
          "internalType": "bytes32",
          "name": "role",
          "type": "bytes32"
        },
        {
          "internalType": "address",
          "name": "account",
          "type": "address"
        }
      ],
      "name": "renounceRole",
      "outputs": [],
      "stateMutability": "nonpayable",
      "type": "function"
    },
    {
      "inputs": [
        {
          "internalType": "bytes32",
          "name": "role",
          "type": "bytes32"
        },
        {
          "internalType": "address",
          "name": "account",
          "type": "address"
        }
      ],
      "name": "revokeRole",
      "outputs": [],
      "stateMutability": "nonpayable",
      "type": "function"
    },
    {
      "inputs": [
        {
          "internalType": "uint256",
          "name": "tokenId",
          "type": "uint256"
        },
        {
          "internalType": "uint256",
          "name": "salePrice",
          "type": "uint256"
        }
      ],
      "name": "royaltyInfo",
      "outputs": [
        {
          "internalType": "address",
          "name": "",
          "type": "address"
        },
        {
          "internalType": "uint256",
          "name": "",
          "type": "uint256"
        }
      ],
      "stateMutability": "view",
      "type": "function"
    },
    {
      "inputs": [
        {
          "internalType": "address",
          "name": "from",
          "type": "address"
        },
        {
          "internalType": "address",
          "name": "to",
          "type": "address"
        },
        {
          "internalType": "uint256",
          "name": "tokenId",
          "type": "uint256"
        }
      ],
      "name": "safeTransferFrom",
      "outputs": [],
      "stateMutability": "nonpayable",
      "type": "function"
    },
    {
      "inputs": [
        {
          "internalType": "address",
          "name": "from",
          "type": "address"
        },
        {
          "internalType": "address",
          "name": "to",
          "type": "address"
        },
        {
          "internalType": "uint256",
          "name": "tokenId",
          "type": "uint256"
        },
        {
          "internalType": "bytes",
          "name": "data",
          "type": "bytes"
        }
      ],
      "name": "safeTransferFrom",
      "outputs": [],
      "stateMutability": "nonpayable",
      "type": "function"
    },
    {
      "inputs": [
        {
          "internalType": "address",
          "name": "operator",
          "type": "address"
        },
        {
          "internalType": "bool",
          "name": "approved",
          "type": "bool"
        }
      ],
      "name": "setApprovalForAll",
      "outputs": [],
      "stateMutability": "nonpayable",
      "type": "function"
    },
    {
      "inputs": [
        {
          "internalType": "address",
          "name": "_questsAddress",
          "type": "address"
        }
      ],
      "name": "setQuestsContract",
      "outputs": [],
      "stateMutability": "nonpayable",
      "type": "function"
    },
    {
      "inputs": [
        {
          "internalType": "address",
          "name": "_skillsAddress",
          "type": "address"
        }
      ],
      "name": "setSkillsContract",
      "outputs": [],
      "stateMutability": "nonpayable",
      "type": "function"
    },
    {
      "inputs": [
        {
          "internalType": "address",
          "name": "_stakingAddress",
          "type": "address"
        }
      ],
      "name": "setStakingContract",
      "outputs": [],
      "stateMutability": "nonpayable",
      "type": "function"
    },
    {
      "inputs": [],
      "name": "skillsContractAddress",
      "outputs": [
        {
          "internalType": "address",
          "name": "",
          "type": "address"
        }
      ],
      "stateMutability": "view",
      "type": "function"
    },
    {
      "inputs": [],
      "name": "stakingContractAddress",
      "outputs": [
        {
          "internalType": "address",
          "name": "",
          "type": "address"
        }
      ],
      "stateMutability": "view",
      "type": "function"
    },
    {
      "inputs": [
        {
          "internalType": "bytes4",
          "name": "interfaceId",
          "type": "bytes4"
        }
      ],
      "name": "supportsInterface",
      "outputs": [
        {
          "internalType": "bool",
          "name": "",
          "type": "bool"
        }
      ],
      "stateMutability": "view",
      "type": "function"
    },
    {
      "inputs": [],
      "name": "symbol",
      "outputs": [
        {
          "internalType": "string",
          "name": "",
          "type": "string"
        }
      ],
      "stateMutability": "view",
      "type": "function"
    },
    {
      "inputs": [
        {
          "internalType": "uint256",
          "name": "_tokenId",
          "type": "uint256"
        }
      ],
      "name": "toggleLike",
      "outputs": [],
      "stateMutability": "nonpayable",
      "type": "function"
    },
    {
      "inputs": [
        {
          "internalType": "uint256",
          "name": "tokenId",
          "type": "uint256"
        }
      ],
      "name": "tokenURI",
      "outputs": [
        {
          "internalType": "string",
          "name": "",
          "type": "string"
        }
      ],
      "stateMutability": "view",
      "type": "function"
    },
    {
      "inputs": [
        {
          "internalType": "address",
          "name": "from",
          "type": "address"
        },
        {
          "internalType": "address",
          "name": "to",
          "type": "address"
        },
        {
          "internalType": "uint256",
          "name": "tokenId",
          "type": "uint256"
        }
      ],
      "name": "transferFrom",
      "outputs": [],
      "stateMutability": "nonpayable",
      "type": "function"
    },
    {
      "inputs": [
        {
          "internalType": "uint256",
          "name": "_tokenId",
          "type": "uint256"
        }
      ],
      "name": "unlistToken",
      "outputs": [],
      "stateMutability": "nonpayable",
      "type": "function"
    },
    {
      "inputs": [],
      "name": "unpause",
      "outputs": [],
      "stateMutability": "nonpayable",
      "type": "function"
    },
    {
      "inputs": [
        {
          "internalType": "uint256",
          "name": "_tokenId",
          "type": "uint256"
        },
        {
          "internalType": "uint256",
          "name": "_newPrice",
          "type": "uint256"
        }
      ],
      "name": "updatePrice",
      "outputs": [],
      "stateMutability": "nonpayable",
      "type": "function"
    },
    {
      "inputs": [
        {
          "internalType": "address",
          "name": "_user",
          "type": "address"
        },
        {
          "internalType": "uint256",
          "name": "_amount",
          "type": "uint256"
        }
      ],
      "name": "updateUserXP",
      "outputs": [],
      "stateMutability": "nonpayable",
      "type": "function"
    },
    {
      "inputs": [
        {
          "internalType": "address",
          "name": "newImplementation",
          "type": "address"
        }
      ],
      "name": "upgradeTo",
      "outputs": [],
      "stateMutability": "nonpayable",
      "type": "function"
    },
    {
      "inputs": [
        {
          "internalType": "address",
          "name": "newImplementation",
          "type": "address"
        },
        {
          "internalType": "bytes",
          "name": "data",
          "type": "bytes"
        }
      ],
      "name": "upgradeToAndCall",
      "outputs": [],
      "stateMutability": "payable",
      "type": "function"
    },
    {
      "inputs": [
        {
          "internalType": "address",
          "name": "",
          "type": "address"
        }
      ],
      "name": "userProfiles",
      "outputs": [
        {
          "internalType": "uint256",
          "name": "totalXP",
          "type": "uint256"
        },
        {
          "internalType": "uint8",
          "name": "level",
          "type": "uint8"
        },
        {
          "internalType": "uint256",
          "name": "nftsCreated",
          "type": "uint256"
        },
        {
          "internalType": "uint256",
          "name": "nftsOwned",
          "type": "uint256"
        },
        {
          "internalType": "uint32",
          "name": "nftsSold",
          "type": "uint32"
        },
        {
          "internalType": "uint32",
          "name": "nftsBought",
          "type": "uint32"
        }
      ],
      "stateMutability": "view",
      "type": "function"
    }
  ],
  "bytecode": "0x60a0604052346103ed57604080519081016001600160401b03811182821017610300576040908152600c82526b11d85b595a599a595913919560a21b602083015280519081016001600160401b0381118282101761030057604052600481526311d3919560e21b602082015281516001600160401b03811161030057600254600181811c911680156103e3575b60208210146102e257601f8111610380575b50602092601f821160011461031f57928192935f92610314575b50508160011b915f199060031b1c1916176002555b80516001600160401b03811161030057600354600181811c911680156102f6575b60208210146102e257601f811161027f575b50602091601f821160011461021f579181925f92610214575b50508160011b915f199060031b1c1916176003555b6001600a55600b5460ff198116600b553060805260ff8160101c166101bf5760ff808260081c1603610181575b6040516156c590816103f282396080518181816128c8015281816129ab0152612d670152f35b61ff009061ffff191617600b557f7f26b83ff96e1f2b6a682f133852f6798a09c465da95921460cefb3847402498602060405160ff8152a15f61015b565b60405162461bcd60e51b815260206004820152602760248201527f496e697469616c697a61626c653a20636f6e747261637420697320696e697469604482015266616c697a696e6760c81b6064820152608490fd5b015190505f80610119565b601f1982169260035f52805f20915f5b8581106102675750836001951061024f575b505050811b0160035561012e565b01515f1960f88460031b161c191690555f8080610241565b9192602060018192868501518155019401920161022f565b60035f527fc2575a0e9e593c00f959f8c92f12db2869c3395a3b0502d05e2516446f71f85b601f830160051c810191602084106102d8575b601f0160051c01905b8181106102cd5750610100565b5f81556001016102c0565b90915081906102b7565b634e487b7160e01b5f52602260045260245ffd5b90607f16906100ee565b634e487b7160e01b5f52604160045260245ffd5b015190505f806100b8565b601f1982169360025f52805f20915f5b8681106103685750836001959610610350575b505050811b016002556100cd565b01515f1960f88460031b161c191690555f8080610342565b9192602060018192868501518155019401920161032f565b60025f527f405787fa12a823e0f2b7631cc41b3ba8828b3321ca811111fa75cd3aa3bb5ace601f830160051c810191602084106103d9575b601f0160051c01905b8181106103ce575061009e565b5f81556001016103c1565b90915081906103b8565b90607f169061008c565b5f80fdfe60806040526004361015610011575f80fd5b5f3560e01c8062f7bac7146139a3578063012386f01461390a578063016fc10e1461388257806301ffc9a7146137c657806306fdde0314613721578063081812fc14613703578063095ea7b31461357d578063155482321461356257806323b872dd1461353e5780632406e677146134b4578063248a9ca31461348e5780632a55205a146133e15780632d296bf1146131285780632f2ff15d1461308f578063332d56d7146130175780633535f48b14612fef57806336568abe14612f5d5780633659cfe614612d495780633854f21b14612d325780633c03903914612d0a5780633f4ba83a14612c7757806342842e0e14612c435780634954101514612bae5780634f1ef2861461297357806352d1902d146128b657806352de4ee51461282e57806354398d18146126b25780635c975abb146126905780635d7dfa99146126155780635efc27d6146124a3578063602dcf29146123415780636352211e14612311578063638ac8d3146122c85780636be9a6f11461222557806370a082311461219057806375b238fc1461216957806377ea168e146121035780637de7ff0814611d8757806381257bd514611afa57806382367b2d14611a795780638456cb5914611a205780638cf53102146119a857806391d148541461195f57806395d89b4114611895578063987ee156146117b4578063999fdecf146116325780639dd373b9146115ba578063a217fddf146115a0578063a22cb465146114d6578063aa7e56831461126c578063ad3a358c146111cb578063b0362b8814610d4e578063b7f3a58914610c6d578063b88d4fde14610bf9578063bd4ad42f14610bd1578063c4d66de814610932578063c87b56dd14610913578063cb8c8a15146108e9578063d45557cc146106fa578063d489be2614610696578063d547741f1461065e578063d9edf57614610628578063e138818c14610600578063e5a818f8146105d6578063e985e9c51461057f578063ea6e7eb51461053d578063ed611100146104e7578063f291f5dd146103f7578063f72c0d8b146103d0578063f748efb8146103585763fcce488314610325575f80fd5b34610354576020366003190112610354576004355f52600e602052602060ff60405f2054166040519015158152f35b5f80fd5b34610354576020366003190112610354576103716139d1565b610379614856565b6001600160a01b031661038d811515614383565b601b80546001600160a01b0319811683179091556001600160a01b03167fb7b5cab3bc5ae437bba269a16d0a369211a068ae683607ff2ca96f34449295395f80a3005b34610354575f3660031901126103545760206040515f5160206154f05f395f51905f528152f35b346103545760203660031901126103545760043561041c61041782614962565b61416d565b5f52601360205260405f2080549061043382613dad565b916104416040519384613bb0565b8083526020830180925f5260205f205f915b8383106104c9578486604051918291602083019060208452518091526040830191905f5b818110610485575050500390f35b919350916020608060019260608751858060a01b038151168352848101518584015260ff604082015116604084015201516060820152019401910191849392610477565b600460206001926104d985614345565b815201920192019190610453565b34610354576040366003190112610354576004356105036139e7565b9061051061041782614962565b5f52601060205260405f209060018060a01b03165f52602052602060ff60405f2054166040519015158152f35b346103545761056b61054e366139fd565b6001600160a01b039092165f908152601560205260409020614458565b9061057b60405192839283613a5a565b0390f35b34610354576040366003190112610354576105986139d1565b6105a06139e7565b9060018060a01b03165f52600760205260405f209060018060a01b03165f52602052602060ff60405f2054166040519015158152f35b34610354576020366003190112610354576004355f52600f602052602060405f2054604051908152f35b34610354575f366003190112610354576019546040516001600160a01b039091168152602090f35b346103545760203660031901126103545760043561064861041782614962565b5f526011602052602060405f2054604051908152f35b346103545760403660031901126103545761069460043561067d6139e7565b9061068f61068a82613f0b565b6148a2565b6148e1565b005b34610354576106a436613af6565b905f52601260205260405f20908154811015610354576106c391613d98565b6106e7576106d361057b91613bd3565b604051918291602083526020830190613a97565b634e487b7160e01b5f525f60045260245ffd5b346103545761070836613af6565b90610711614714565b805f52601360205261072860405f205483106141ae565b805f5260136020526107466107408360405f20613d3c565b50614345565b80516001600160a01b031633036108b6576020908101515f8381526013909252604090912080549193915f198101919082116108a25761079c9161078991613d3c565b5091835f52601360205260405f20613d3c565b9190916106e757808203610850575b50505f52601360205260405f208054801561083c575f1901906107ce8282613d3c565b6106e7575f93849384938460038582809755826001820155826002820155015555335af16107fa613fdd565b5015610807576001600a55005b60405162461bcd60e51b815260206004820152600d60248201526c1499599d5b990819985a5b1959609a1b6044820152606490fd5b634e487b7160e01b5f52603160045260245ffd5b805482546001600160a01b0319166001600160a01b039190911617825560018082015490830155600280820154908301805460ff191660ff9290921691909117905560039081015491015582806107ab565b634e487b7160e01b5f52601160045260245ffd5b60405162461bcd60e51b815260206004820152600b60248201526a2737ba1037b33332b937b960a91b6044820152606490fd5b34610354576020366003190112610354576004355f526011602052602060405f2054604051908152f35b346103545760203660031901126103545761057b6106d3600435614d4d565b346103545760203660031901126103545761094b6139d1565b600b549060ff8260101c161591828093610bc1575b8015610ba7575b15610b4b5761ff0019811661010017600b5582610b37575b50335f9081525f5160206154705f395f51905f52602052604090205460ff1615610afa575b335f9081525f5160206155f05f395f51905f52602052604090205460ff1615610aae575b335f9081525f5160206155905f395f51905f52602052604090205460ff1615610a62575b6001600160a01b03811615610a5b575b601980546001600160a01b0319166001600160a01b0392909216919091179055610a2257005b62ff000019600b5416600b557f7f26b83ff96e1f2b6a682f133852f6798a09c465da95921460cefb3847402498602060405160018152a1005b50336109fc565b335f8181525f5160206155905f395f51905f5260205260408120805460ff1916600117905581905f5160206154f05f395f51905f52905f5160206154505f395f51905f529080a46109ec565b335f8181525f5160206155f05f395f51905f5260205260408120805460ff1916600117905581905f5160206155b05f395f51905f52905f5160206154505f395f51905f529080a46109c8565b335f8181525f5160206154705f395f51905f5260205260408120805460ff1916600117905581905f5160206154505f395f51905f528180a46109a4565b62ffff0019166201010017600b558261097f565b60405162461bcd60e51b815260206004820152602e60248201527f496e697469616c697a61626c653a20636f6e747261637420697320616c72656160448201526d191e481a5b9a5d1a585b1a5e995960921b6064820152608490fd5b50303b1580156109675750600160ff8260081c1614610967565b50600160ff8260081c1610610960565b34610354575f36600319011261035457601b546040516001600160a01b039091168152602090f35b3461035457608036600319011261035457610c126139d1565b610c1a6139e7565b90606435906044356001600160401b0383116103545761069493610c45610c68943690600401613cc4565b92610c58610c5384336144e5565b613e35565b610c6383838361455a565b61517a565b614d2d565b3461035457602036600319011261035457600435610c8d61041782614962565b5f52601260205260405f20805490610ca482613dad565b91610cb26040519384613bb0565b8083526020830180925f5260205f205f915b838310610d3157848660405191829160208301906020845251809152604083019060408160051b85010192915f905b828210610d0257505050500390f35b91936001919395506020610d218192603f198a82030186528851613a97565b9601920192018594939192610cf3565b600160208192610d4085613bd3565b815201920192019190610cc4565b34610354576080366003190112610354576004356001600160401b03811161035457610d7e903690600401613d55565b6024356001600160401b03811161035457610d9d903690600401613d55565b9290610da7613d82565b9160643593610db46146d0565b6001600160601b03841695610dcd61271088111561427f565b851515806111bf575b156111845792610de586613dc4565b96801515915f5b888110610ebe578989335f526014602052600260405f2001610e0f828254613f7a565b90556001811115610eb7575f1981019081116108a2576005810290808204600514901517156108a2575b600a019081600a116108a25761057b91335f52601460205260405f20610e60828254613f7a565b905560405190815260406020820152601160408201527013919517d0905510d217d0d49150551151607a1b60608201525f5160206156705f395f51905f5260803392a2604051918291602083526020830190613a27565b505f610e39565b600c549081610ecd828d613df6565b5260018201600c55610edf823361497e565b610ef3610eed36888a613c8e565b83614a83565b60405191610f0083613b5f565b338352610f0e36888a613c8e565b60208401908152610f20368b87613c8e565b60408581019182524260608701908152608087018981525f868152600d60205292909220965187546001600160a01b0319166001600160a01b0391909116178755925180519293919260018801916001600160401b03821161110d57610f9082610f8a8554613b0c565b856142bd565b602090601f831160011461112157610fb292915f918361107c575b505061430c565b90555b9151805190929060028701906001600160401b03811161110d578a94610fdf82610f8a8554613b0c565b602090601f831160011461108757826004959360019b9593611008935f9261107c57505061430c565b90555b5160038201550190858060601b03905116858060601b031982541617905561106c575b335f5260166020526110438160405f20614e44565b506040515f5160206154b05f395f51905f523391806110638b8d8361431e565b0390a301610dec565b6110778a3383614bd6565b61102e565b015190505f80610fab565b601f99949392919919821690835f528a5f20915f5b8181106110dd57509160019b84926004989796958e95106110c5575b505050811b01905561100b565b01515f1960f88460031b161c191690555f80806110b8565b939597999a9b9496985090916020600181928786015181550195019301908e98969492919b9a999795939b61109c565b634e487b7160e01b5f52604160045260245ffd5b90601f19831691845f52815f20925f5b81811061116c5750908460019594939210611154575b505050811b019055610fb5565b01515f1960f88460031b161c191690555f8080611147565b92936020600181928786015181550195019301611131565b60405162461bcd60e51b81526020600482015260136024820152720436f756e74206d75737420626520312d35303606c1b6044820152606490fd5b506101f4861115610dd6565b34610354576020366003190112610354576004356111e76146d0565b6112036111f382614231565b6001600160a01b03163314613e97565b805f52600e60205261121b60ff60405f205416613f1d565b5f818152600e60209081526040808320805460ff19169055600f90915281205561124481614e98565b50337f24287c09523dfd960e13a9774c247fb28a2ccb301eb4208b0d4072bcd0f1826e5f80a3005b34610354576040366003190112610354576004356024356001600160401b0381116103545761129f903690600401613d55565b6112a76146d0565b6112c36001600160a01b036112bb85614231565b161515614134565b801515806114ca575b1561148c57825f5260126020526103e860405f20541015611453575f8381526012602052604090208054600160401b81101561110d5761131191600182018155613d98565b6106e7576001600160401b03821161110d57611337826113318354613b0c565b836142bd565b5f82601f81116001146113f05780611356925f916113e5575b5061430c565b90555b335f52601460205260405f20805491600283018093116108a2577f6ef560d19dd02f57976e8453b811685a89edf49009d64ab71b19489923ef5f09926113a8925560405191829133958361431e565b0390a36040516002815260406020820152600760408201526610d3d35351539560ca1b60608201525f5160206156705f395f51905f5260803392a2005b905085013587611350565b50601f19831690825f528360205f20925f5b81811061143857501061141f575b5050600182811b019055611359565b8401355f19600385901b60f8161c191690558480611410565b87840135855560019094019360209384019387935001611402565b60405162461bcd60e51b8152602060048201526011602482015270546f6f206d616e7920636f6d6d656e747360781b6044820152606490fd5b60405162461bcd60e51b8152602060048201526016602482015275092dcecc2d8d2c840c6dedadacadce840d8cadccee8d60531b6044820152606490fd5b506101188111156112cc565b34610354576040366003190112610354576114ef6139d1565b60243590811515809203610354576001600160a01b03169033821461155f57335f52600760205260405f20825f5260205260405f2060ff1981541660ff83161790556040519081527f17307eab39ab6107e8899845ad3d59bd9653f200f220920489ca2b5937696c3160203392a3005b60405162461bcd60e51b815260206004820152601960248201527822a9219b99189d1030b8383937bb32903a379031b0b63632b960391b6044820152606490fd5b34610354575f3660031901126103545760206040515f8152f35b34610354576020366003190112610354576115d36139d1565b6115db614856565b6001600160a01b03166115ef811515614383565b601c80546001600160a01b0319811683179091556001600160a01b03167f7042586b23181180eb30b4798702d7a0233b7fc2551e89806770e8e5d9392e6a5f80a3005b34610354576020366003190112610354576001600160a01b036116536139d1565b16805f52601560205260405f205461166a81613dad565b916116786040519384613bb0565b818352601f1961168783613dad565b015f5b81811061179d5750505f5b82811061170357836040518091602082016020835281518091526040830190602060408260051b8601019301915f905b8282106116d457505050500390f35b919360019193955060206116f38192603f198a82030186528851613ce2565b96019201920185949391926116c5565b600190825f52601560205261171b8160405f20613d98565b90549060031b1c5f52600d60205260405f206040519061173a82613b5f565b838060a01b038154168252611750848201613bd3565b602083015261176160028201613bd3565b6040830152600381015460608301526004848060601b0391015416608082015261178b8287613df6565b526117968186613df6565b5001611695565b6020906117a8614253565b8282880101520161168a565b34610354576020366003190112610354576117cd6139d1565b5f60a06040516117dc81613b7a565b828152826020820152826040820152826060820152826080820152015260018060a01b03165f52601460205260c060405f2063ffffffff6040519161182083613b7a565b8181549384815260ff600184015416926020820193845260028101546040830190815260ff6004600384015493606086019485520154958560a06080870196828a168852019760201c1687526040519889525116602088015251604087015251606086015251166080840152511660a0820152f35b34610354575f366003190112610354576040515f6003546118b581613b0c565b808452906001811690811561193b57506001146118dd575b61057b836106d381850382613bb0565b60035f9081527fc2575a0e9e593c00f959f8c92f12db2869c3395a3b0502d05e2516446f71f85b939250905b808210611921575090915081016020016106d36118cd565b919260018160209254838588010152019101909291611909565b60ff191660208086019190915291151560051b840190910191506106d390506118cd565b34610354576040366003190112610354576119786139e7565b6004355f52600960205260405f209060018060a01b03165f52602052602060ff60405f2054166040519015158152f35b34610354576020366003190112610354576119c16139d1565b6119c9614856565b6001600160a01b03166119dd811515614383565b601a80546001600160a01b0319811683179091556001600160a01b03167f86184096e44f529467a03d9c408bb371b99687d885947800e80e6d5b08108f635f80a3005b34610354575f36600319011261035457611a38614856565b611a406146d0565b600160ff19600b541617600b557f62e78cea01bee320cd4e420270b5ea74000d11b0c9f74754ebdbfc544b05a2586020604051338152a1005b3461035457611a8736613af6565b611a8f6146d0565b611a9b6111f383614231565b815f52600e602052611ab360ff60405f205416613f1d565b611abe811515613ecf565b815f52600f6020528060405f20556040519081527fb556fac599c3c70efb9ab1fa725ecace6c81cc48d1455f886607def065f3e0c060203392a3005b3461035457610740611b4d611b0e36613af6565b611b19939193614714565b611b256111f385614231565b835f526013602052611b3c60405f205482106141ae565b835f52601360205260405f20613d3c565b60608101516201518060ff6040840151160262ffffff81169081036108a257611b7591613f7a565b4211611d5257602060018060a01b03825116910151611b9583833361455a565b60058102818104600514821517156108a25760649004611bb58183613f56565b335f526014602052600460405f200163ffffffff611bd581835416613f63565b1663ffffffff19825416179055835f526014602052611c2b600460405f2001611c0763ffffffff825460201c16613f63565b90805463ffffffff60201b191660209290921b63ffffffff60201b16919091179055565b335f52601460205260405f20805490601482018092116108a25755835f52601460205260405f20805491600f83018093116108a2575f80809392611cd695829455898252600e6020526040822060ff198154169055898252600f6020528160408120558982526013602052611ca260408320613f87565b611cc5828080808b60018060a01b03601954165af1611cbf613fdd565b5061400c565b335af1611cd0613fdd565b50614053565b825f5160206155305f395f51905f52608060018060a01b03601954169360405190815260406020820152600e60408201526d13d191915497d050d0d15415115160921b6060820152a36040519081527fa6da490df6e8f0e592e795b4d96c5810d8ddfda51c21577adbdd8e1a0fa47a6760203392a46001600a55005b60405162461bcd60e51b815260206004820152600d60248201526c13d999995c88195e1c1a5c9959609a1b6044820152606490fd5b34610354576060366003190112610354576004356001600160401b03811161035457611db7903690600401613d55565b6024356001600160401b03811161035457611dd6903690600401613d55565b611de1929192613d82565b90611dea6146d0565b6001600160601b03821690611e0361271083111561427f565b600c549460018601600c55611e18863361497e565b611e2c611e2636878a613c8e565b87614a83565b611e5960405191611e3c83613b5f565b338352611e4a36888b613c8e565b93602084019485523691613c8e565b60408281019182524260608401908152608084018681525f8a8152600d60205292909220935184546001600160a01b0319166001600160a01b0391909116178455935180519194929160018501916001600160401b03821161110d57611ec382610f8a8554613b0c565b602090601f83116001146120a057611ee492915f918361202d57505061430c565b90555b51805160028401916001600160401b03821161110d57611f0b82610f8a8554613b0c565b602090601f8311600114612038579180611f32926004979695945f9261202d57505061430c565b90555b5160038201559151910180546001600160601b0319166001600160601b039290921691909117905561201c575b50335f526014602052600260405f200180545f1981146108a2576001019055335f52601460205260405f20928354600a81018091116108a257611fd684935f5160206154b05f395f51905f529260209755335f5260168752611fc78560405f20614e44565b5060405191829133958361431e565b0390a3604051600a8152604083820152600b60408201526a13919517d0d4915055115160aa1b60608201525f5160206156705f395f51905f5260803392a2604051908152f35b612027903384614bd6565b83611f62565b015190508d80610fab565b90601f19831691845f52815f20925f5b81811061208857509160019391856004999897969410612070575b505050811b019055611f35565b01515f1960f88460031b161c191690558c8080612063565b92936020600181928786015181550195019301612048565b90601f19831691845f52815f20925f5b8181106120eb57509084600195949392106120d3575b505050811b019055611ee7565b01515f1960f88460031b161c191690558c80806120c6565b929360206001819287860151815501950193016120b0565b346103545761211136613af6565b905f52601360205260405f2080548210156103545760809161213291613d3c565b5060018060a01b0381541690600181015490600360ff60028301541691015491604051938452602084015260408301526060820152f35b34610354575f3660031901126103545760206040515f5160206155b05f395f51905f528152f35b34610354576020366003190112610354576001600160a01b036121b16139d1565b1680156121ce575f526005602052602060405f2054604051908152f35b60405162461bcd60e51b815260206004820152602960248201527f4552433732313a2061646472657373207a65726f206973206e6f7420612076616044820152683634b21037bbb732b960b91b6064820152608490fd5b3461035457602036600319011261035457600435612241614253565b5061224e61041782614962565b5f52600d60205261057b60405f206040519061226982613b5f565b80546001600160a01b0316825261228260018201613bd3565b602083015261229360028201613bd3565b604083015260038101546060830152600460018060601b03910154166080820152604051918291602083526020830190613ce2565b34610354576040366003190112610354576122e16139e7565b6004355f52601060205260405f209060018060a01b03165f52602052602060ff60405f2054166040519015158152f35b3461035457602036600319011261035457602061232f600435614231565b6040516001600160a01b039091168152f35b60403660031901126103545760043560243560ff8116809103610354576123666146d0565b815f52600e60205261237e60ff60405f205416613f1d565b6123893415156141ae565b80151580612498575b1561246257815f52601360205260405f20604051906123b082613b44565b33825260208201913483526040810193845260608101914283528054600160401b81101561110d576123e791600182018155613d3c565b9490946106e757905184546001600160a01b0319166001600160a01b039190911617845591516001840155905160028301805460ff191660ff92909216919091179055516003919091015560405134815233907f7beddbbf70d8b2a25af77e15d4a173af5f34673a1e7302c7af208aac599dc6db90602090a3005b60405162461bcd60e51b815260206004820152600e60248201526d496e76616c69642065787069727960901b6044820152606490fd5b50601e811115612392565b34610354576040366003190112610354576124bc6139d1565b602435906124c8614856565b60018060a01b031690815f5260146020526113886124ea8260405f2054613f7a565b116125d75760805f5160206156705f395f51905f5291835f52601460205260405f20612517828254613f7a565b9055835f5260146020528360ff606460405f20540416603281116125cf575b815f52601460205260ff80600160405f200154169116908111612585575b505060405190815260406020820152600f60408201526e45585445524e414c5f534f5552434560881b6060820152a2005b60207fa49b8576e012f713baa7dceadb7d709aaec8773b498ecfe582d8b9c0c8fd074f91835f5260148252600160405f20018160ff19825416179055604051908152a28385612554565b506032612536565b60405162461bcd60e51b81526020600482015260166024820152752c281037bb32b9333637bb90383937ba32b1ba34b7b760511b6044820152606490fd5b3461035457602036600319011261035457606060043561263761041782614962565b61264081614231565b5f828152600e6020526040902054909160ff909116908115612688575f52600f60205260405f2054905b604080516001600160a01b0390941684529015156020840152820152f35b505f9061266a565b34610354575f36600319011261035457602060ff600b54166040519015158152f35b34610354576020366003190112610354576004356126ce6146d0565b6126e26001600160a01b036112bb83614231565b5f81815260106020908152604080832033845290915290205460ff161561279d575f8181526010602090815260408083203384528252808320805460ff191690558383526011909152902054612785575b805f52601060205260405f2060018060a01b0333165f5260205260ff60405f20541660405190151581527f4d5c3df35a8d7d04f2e10db1454548af37ee7449c97a4b4c243681f29c2ea40760203392a3005b805f52601160205260405f205f198154019055612733565b805f52601060205260405f2060018060a01b0333165f5260205260405f20600160ff19825416179055805f52601160205260405f2060018154019055335f52601460205260405f20805490600182018092116108a25755604051600181526040602082015260046040820152634c494b4560e01b60608201525f5160206156705f395f51905f5260803392a2612733565b34610354576020366003190112610354576001600160a01b0361284f6139d1565b16805f52601560205260405f205461286681613dc4565b915f5b828110612886576040516020808252819061057b90820187613a27565b600190825f52601560205261289e8160405f20613d98565b90549060031b1c6128af8287613df6565b5201612869565b34610354575f366003190112610354577f00000000000000000000000000000000000000000000000000000000000000006001600160a01b0316300361290d5760206040515f5160206155105f395f51905f528152f35b60405162461bcd60e51b815260206004820152603860248201527f555550535570677261646561626c653a206d757374206e6f742062652063616c6044820152771b1959081d1a1c9bdd59da0819195b1959d85d1958d85b1b60421b6064820152608490fd5b6040366003190112610354576129876139d1565b6024356001600160401b038111610354576129a6903690600401613cc4565b6129fd7f00000000000000000000000000000000000000000000000000000000000000006001600160a01b03166129df30821415614098565b5f5160206155105f395f51905f52546001600160a01b0316146140e6565b612a0561476a565b5f5160206154905f395f51905f525460ff1615612a26575061069490614ffa565b6040516352d1902d60e01b81526001600160a01b03831690602081600481855afa5f9181612b7a575b50612a9d5760405162461bcd60e51b815260206004820152602e60248201525f5160206156505f395f51905f5260448201526d6f6e206973206e6f74205555505360901b6064820152608490fd5b5f5160206155105f395f51905f5203612b3657612ab983614ffa565b5f5160206155505f395f51905f525f80a2805115801590612b2e575b612adb57005b610694915f8060405193612af0606086613bb0565b602785525f5160206156105f395f51905f526020860152660819985a5b195960ca1b6040860152602081519101845af4612b28613fdd565b916153b6565b506001612ad5565b60405162461bcd60e51b815260206004820152602960248201525f5160206155d05f395f51905f526044820152681a58589b195555525160ba1b6064820152608490fd5b9091506020813d602011612ba6575b81612b9660209383613bb0565b8101031261035457519085612a4f565b3d9150612b89565b34610354576020366003190112610354576004355f908152600d6020526040902080546001600160a01b0316612be660018301613bd3565b91612bf360028201613bd3565b612c34600383015492600460018060601b039101541691612c26604051968796875260a0602088015260a0870190613a97565b908582036040870152613a97565b91606084015260808301520390f35b3461035457610694610c68612c5736613abc565b9060405192612c67602085613bb0565b5f8452610c58610c5384336144e5565b34610354575f36600319011261035457612c8f614856565b600b5460ff811615612cce5760ff1916600b557f5db9ee0a495bf2e6ff9c91a7834c1ba4fdd244a5e8aa4e537bd38aeae4b073aa6020604051338152a1005b60405162461bcd60e51b815260206004820152601460248201527314185d5cd8589b194e881b9bdd081c185d5cd95960621b6044820152606490fd5b34610354575f36600319011261035457601a546040516001600160a01b039091168152602090f35b346103545761056b612d4336613af6565b906143c1565b3461035457602036600319011261035457612d626139d1565b612d9b7f00000000000000000000000000000000000000000000000000000000000000006001600160a01b03166129df30821415614098565b612da361476a565b604051906020612db38184613bb0565b5f8352808301601f1982013682375f5160206154905f395f51905f525460ff1615612de45750506106949150614ffa565b6040516352d1902d60e01b81529192916001600160a01b038316908481600481855afa5f9181612f2e575b50612e5d5760405162461bcd60e51b815260048101869052602e60248201525f5160206156505f395f51905f5260448201526d6f6e206973206e6f74205555505360901b6064820152608490fd5b5f5160206155105f395f51905f5203612eea57612e7983614ffa565b5f5160206155505f395f51905f525f80a2835115801590612ee3575b612e9b57005b5f8091610694955f5160206156105f395f51905f5260405196612ebf606089613bb0565b60278852870152660819985a5b195960ca1b60408701525190845af4612b28613fdd565b505f612e95565b60405162461bcd60e51b815260048101859052602960248201525f5160206155d05f395f51905f526044820152681a58589b195555525160ba1b6064820152608490fd5b9091508581813d8311612f56575b612f468183613bb0565b8101031261035457519087612e0f565b503d612f3c565b3461035457604036600319011261035457612f766139e7565b336001600160a01b03821603612f9257610694906004356148e1565b60405162461bcd60e51b815260206004820152602f60248201527f416363657373436f6e74726f6c3a2063616e206f6e6c792072656e6f756e636560448201526e103937b632b9903337b91039b2b63360891b6064820152608490fd5b34610354575f36600319011261035457601c546040516001600160a01b039091168152602090f35b34610354576020366003190112610354576001600160a01b036130386139d1565b165f52601460205260c060405f2063ffffffff81549160ff6001820154169060028101546004600383015492015492604051958652602086015260408501526060840152818116608084015260201c1660a0820152f35b34610354576040366003190112610354576004356130ab6139e7565b906130b861068a82613f0b565b805f52600960205260405f2060018060a01b0383165f5260205260ff60405f205416156130e157005b5f8181526009602090815260408083206001600160a01b0395909516808452949091528120805460ff19166001179055339291905f5160206154505f395f51905f529080a4005b60203660031901126103545760043561313f6146d0565b613147614714565b805f52600e60205261315f60ff60405f205416613f1d565b805f52600f60205260405f205434106133a55761317b81614231565b90805f52600f60205260405f205461319482338561455a565b60058102818104600514821517156108a257606490046131b48183613f56565b9360018060a01b031693845f526014602052600460405f200163ffffffff6131de81835416613f63565b1663ffffffff19825416179055335f526014602052613210600460405f2001611c0763ffffffff825460201c16613f63565b845f52601460205260405f20805490601482018092116108a25755335f52601460205260405f20805491600f83018093116108a2575f808093926132b995829455888252600e6020526040822060ff198154169055888252600f60205281604081205561327c89614e98565b50888252601360205261329160408320613f87565b6132ae828080808b60018060a01b03601954165af1611cbf613fdd565b895af1611cd0613fdd565b60018060a01b03601954169060405190815260406020820152600a604082015269544f4b454e5f53414c4560b01b60608201525f5160206155305f395f51905f5260803392a3604051908152827fa8a7473f10e62cf9687e243de1c3ac8b3cbc3dd04b96826beb3a65b59538581460203393a45f5160206156705f395f51905f5260806040516014815260406020820152600860408201526713919517d4d3d31160c21b6060820152a2604051600f815260406020820152600a60408201526913919517d093d551d21560b21b60608201525f5160206156705f395f51905f5260803392a26001600a55005b60405162461bcd60e51b8152602060048201526014602482015273125b9cdd59999a58da595b9d081c185e5b595b9d60621b6044820152606490fd5b34610354576133ef36613af6565b905f52600160205260405f206040519061340882613b95565b546001600160a01b03811680835260a09190911c602083015215613466575b60208101516001600160601b031682810292801590840490911417156108a25751604080516001600160a01b0390921682526127109092046020820152f35b5060405161347381613b95565b5f546001600160a01b038116825260a01c6020820152613427565b346103545760203660031901126103545760206134ac600435613f0b565b604051908152f35b34610354576134c236613af6565b6134ca6146d0565b6134d66111f383614231565b6134e1811515613ecf565b815f52600e60205260405f20600160ff19825416179055815f52600f6020528060405f205561350f82614dd9565b506040519081527f5dc96537cbae524775a674b6a810d9a1ba04a9e279f172d156b352151394677a60203392a3005b346103545761069461354f36613abc565b9161355d610c5384336144e5565b61455a565b34610354575f36600319011261035457602060405160058152f35b34610354576040366003190112610354576135966139d1565b602435906001600160a01b036135ab83614231565b6001600160a01b0390921691168181146136b457803314908115613690575b5015613625575f82815260066020526040902080546001600160a01b031916821790556001600160a01b036135fe83614231565b167f8c5be1e5ebec7d5bd14f71427d1e84f3dd0314c0f7b2291e5b200ac8c7c3b9255f80a4005b60405162461bcd60e51b815260206004820152603d60248201527f4552433732313a20617070726f76652063616c6c6572206973206e6f7420746f60448201527f6b656e206f776e6572206f7220617070726f76656420666f7220616c6c0000006064820152608490fd5b5f90815260076020908152604080832033845290915290205460ff169050836135ca565b60405162461bcd60e51b815260206004820152602160248201527f4552433732313a20617070726f76616c20746f2063757272656e74206f776e656044820152603960f91b6064820152608490fd5b3461035457602036600319011261035457602061232f600435613e0a565b34610354575f366003190112610354576040515f60025461374181613b0c565b808452906001811690811561193b57506001146137685761057b836106d381850382613bb0565b60025f9081527f405787fa12a823e0f2b7631cc41b3ba8828b3321ca811111fa75cd3aa3bb5ace939250905b8082106137ac575090915081016020016106d36118cd565b919260018160209254838588010152019101909291613794565b346103545760203660031901126103545760043563ffffffff60e01b811680910361035457602090637965db0b60e01b811490811561380b575b506040519015158152f35b632483248360e11b811491508115613825575b5082613800565b6380ac58cd60e01b811491508115613871575b8115613846575b508261381e565b63152a902d60e11b811491508115613860575b508261383f565b6301ffc9a760e01b14905082613859565b635b5e139f60e01b81149150613838565b34610354576020366003190112610354576001600160a01b036138a36139d1565b16805f52601660205260405f20546138ba81613dc4565b915f5b8281106138da576040516020808252819061057b90820187613a27565b600190825f5260166020526138f28160405f20613d98565b90549060031b1c6139038287613df6565b52016138bd565b34610354575f3660031901126103545760175461392681613dc4565b905f601754905b82811061394a576040516020808252819061057b90820187613a27565b8181101561398f5760175f527fc624b66cc0138b8fabc209247f72d758e1cf3343756d543badbf24212bed8c15810154600191906139888287613df6565b520161392d565b634e487b7160e01b5f52603260045260245ffd5b346103545761056b6139b4366139fd565b6001600160a01b039092165f908152601660205260409020614458565b600435906001600160a01b038216820361035457565b602435906001600160a01b038216820361035457565b6060906003190112610354576004356001600160a01b038116810361035457906024359060443590565b90602080835192838152019201905f5b818110613a445750505090565b8251845260209384019390920191600101613a37565b929190613a71602091604086526040860190613a27565b930152565b5f5b838110613a875750505f910152565b8181015183820152602001613a78565b90602091613ab081518092818552858086019101613a76565b601f01601f1916010190565b6060906003190112610354576004356001600160a01b038116810361035457906024356001600160a01b0381168103610354579060443590565b6040906003190112610354576004359060243590565b90600182811c92168015613b3a575b6020831014613b2657565b634e487b7160e01b5f52602260045260245ffd5b91607f1691613b1b565b608081019081106001600160401b0382111761110d57604052565b60a081019081106001600160401b0382111761110d57604052565b60c081019081106001600160401b0382111761110d57604052565b604081019081106001600160401b0382111761110d57604052565b601f909101601f19168101906001600160401b0382119082101761110d57604052565b9060405191825f825492613be684613b0c565b8084529360018116908115613c515750600114613c0d575b50613c0b92500383613bb0565b565b90505f9291925260205f20905f915b818310613c35575050906020613c0b928201015f613bfe565b6020919350806001915483858901015201910190918492613c1c565b905060209250613c0b94915060ff191682840152151560051b8201015f613bfe565b6001600160401b03811161110d57601f01601f191660200190565b929192613c9a82613c73565b91613ca86040519384613bb0565b829481845281830111610354578281602093845f960137010152565b9080601f8301121561035457816020613cdf93359101613c8e565b90565b9060018060a01b0382511681526080613d1f613d0d602085015160a0602086015260a0850190613a97565b60408501518482036040860152613a97565b60608085015190840152928101516001600160601b031691015290565b805482101561398f575f5260205f209060021b01905f90565b9181601f84011215610354578235916001600160401b038311610354576020838186019501011161035457565b604435906001600160601b038216820361035457565b805482101561398f575f5260205f2001905f90565b6001600160401b03811161110d5760051b60200190565b90613dce82613dad565b613ddb6040519182613bb0565b8281528092613dec601f1991613dad565b0190602036910137565b805182101561398f5760209160051b010190565b613e1b613e1682614962565b6141ea565b5f908152600660205260409020546001600160a01b031690565b15613e3c57565b60405162461bcd60e51b815260206004820152602d60248201527f4552433732313a2063616c6c6572206973206e6f7420746f6b656e206f776e6560448201526c1c881bdc88185c1c1c9bdd9959609a1b6064820152608490fd5b15613e9e57565b60405162461bcd60e51b81526020600482015260096024820152682737ba1037bbb732b960b91b6044820152606490fd5b15613ed657565b60405162461bcd60e51b815260206004820152600d60248201526c496e76616c696420707269636560981b6044820152606490fd5b5f526009602052600160405f20015490565b15613f2457565b60405162461bcd60e51b815260206004820152600a602482015269139bdd081b1a5cdd195960b21b6044820152606490fd5b919082039182116108a257565b63ffffffff1663ffffffff81146108a25760010190565b919082018092116108a257565b8054905f815581613f96575050565b6001600160fe1b03821682036108a2575f5260205f209060021b8101905b818110613fbf575050565b6004905f81555f60018201555f60028201555f600382015501613fb4565b3d15614007573d90613fee82613c73565b91613ffc6040519384613bb0565b82523d5f602084013e565b606090565b1561401357565b60405162461bcd60e51b8152602060048201526018602482015277151c99585cdd5c9e481d1c985b9cd9995c8819985a5b195960421b6044820152606490fd5b1561405a57565b60405162461bcd60e51b815260206004820152601660248201527514d95b1b195c881d1c985b9cd9995c8819985a5b195960521b6044820152606490fd5b1561409f57565b60405162461bcd60e51b815260206004820152602c60248201525f5160206154d05f395f51905f5260448201526b19195b1959d85d1958d85b1b60a21b6064820152608490fd5b156140ed57565b60405162461bcd60e51b815260206004820152602c60248201525f5160206154d05f395f51905f5260448201526b6163746976652070726f787960a01b6064820152608490fd5b1561413b57565b60405162461bcd60e51b815260206004820152600a6024820152694e6f742065786973747360b01b6044820152606490fd5b1561417457565b60405162461bcd60e51b815260206004820152601260248201527113919508191bd95cc81b9bdd08195e1a5cdd60721b6044820152606490fd5b156141b557565b60405162461bcd60e51b815260206004820152600d60248201526c24b73b30b634b21037b33332b960991b6044820152606490fd5b156141f157565b60405162461bcd60e51b8152602060048201526018602482015277115490cdcc8c4e881a5b9d985b1a59081d1bdad95b88125160421b6044820152606490fd5b5f908152600460205260409020546001600160a01b0316613cdf8115156141ea565b6040519061426082613b5f565b5f60808382815260606020820152606060408201528260608201520152565b1561428657565b60405162461bcd60e51b815260206004820152600f60248201526e496e76616c696420726f79616c747960881b6044820152606490fd5b601f82116142ca57505050565b5f5260205f20906020601f840160051c83019310614302575b601f0160051c01905b8181106142f7575050565b5f81556001016142ec565b90915081906142e3565b8160011b915f199060031b1c19161790565b90918060409360208452816020850152848401375f828201840152601f01601f1916010190565b9060405161435281613b44565b82546001600160a01b0316815260018301546020820152600283015460ff1660408201526003909201546060830152565b1561438a57565b60405162461bcd60e51b815260206004820152600f60248201526e496e76616c6964206164647265737360881b6044820152606490fd5b60175492918382101561443d576143d89082613f7a565b92808411614435575b506143ec8184613f56565b6143f581613dc4565b915f5b828110614406575050509190565b8061441d61441660019385613f7a565b6017613d98565b90549060031b1c61442e8287613df6565b52016143f8565b92505f6143e1565b505060405161444d602082613bb0565b5f81525f3681379190565b80549392848310156144d45761446e9083613f7a565b938085116144cc575b506144828285613f56565b9061448c82613dc4565b925f5b83811061449e57505050509190565b806144b46144ae60019385613f7a565b85613d98565b90549060031b1c6144c58288613df6565b520161448f565b93505f614477565b50505060405161444d602082613bb0565b906001600160a01b036144f782614231565b6001600160a01b0390931692168281149291908315614537575b50821561451d57505090565b9091506001600160a01b039061453290613e0a565b161490565b9092505f52600760205260405f20815f5260205260ff60405f205416915f614511565b6001600160a01b0390911690811561468b5761458c61457884614231565b6001600160a01b0392831692168214614d7f565b80614652575b81614619575b6145b4816001600160a01b036145ad86614231565b1614614d7f565b5f83815260066020908152604080832080546001600160a01b03199081169091558484526005835281842080545f1901905585845281842080546001019055868452600490925282208054909116841790555f5160206155705f395f51905f529080a4565b5f5b600181106146295750614598565b600190835f52601560205261464b60405f206146458388613f7a565b90614e44565b500161461b565b5f5b600181106146625750614592565b600190825f52601560205261468460405f2061467e8388613f7a565b90614f49565b5001614654565b60405162461bcd60e51b815260206004820152601f60248201527f43616e6e6f74207472616e7366657220746f207a65726f2061646472657373006044820152606490fd5b60ff600b54166146dc57565b60405162461bcd60e51b815260206004820152601060248201526f14185d5cd8589b194e881c185d5cd95960821b6044820152606490fd5b6002600a5414614725576002600a55565b60405162461bcd60e51b815260206004820152601f60248201527f5265656e7472616e637947756172643a207265656e7472616e742063616c6c006044820152606490fd5b335f9081525f5160206155905f395f51905f52602052604090205460ff161561478f57565b61485261479b336151e3565b61483260116147b65f5160206154f05f395f51905f526152c9565b92603760405194859276020b1b1b2b9b9a1b7b73a3937b61d1030b1b1b7bab73a1604d1b60208501526147f28151809260208688019101613a76565b83017001034b99036b4b9b9b4b733903937b6329607d1b83820152614821825180936020604885019101613a76565b01010301601f198101835282613bb0565b60405162461bcd60e51b8152602060048201529182916024830190613a97565b0390fd5b335f9081525f5160206155f05f395f51905f52602052604090205460ff161561487b57565b614852614887336151e3565b61483260116147b65f5160206155b05f395f51905f526152c9565b5f81815260096020908152604080832033845290915290205460ff16156148c65750565b6148529061483260116147b66148db336151e3565b936152c9565b805f52600960205260405f2060018060a01b0383165f5260205260ff60405f20541661490b575050565b5f8181526009602090815260408083206001600160a01b0395909516808452949091528120805460ff19169055339291907ff6391f5c32d9c69d2a47ea670b442974b53935d1edc7fd64eb21e047a839171b9080a4565b5f908152600460205260409020546001600160a01b0316151590565b6040519190602061498f8185613bb0565b5f84526001600160a01b038216908115614a40576149b56149af85614962565b1561536b565b5f5b60018110614a1e5750918380926004613c0b97956149da6149af610c6899614962565b5f838152600582526040808220805460010190558582529290915290812080546001600160a01b031916831790555f5160206155705f395f51905f528180a461508a565b600190835f5260158352614a3960405f206146458389613f7a565b50016149b7565b6064906040519062461bcd60e51b825280600483015260248201527f4552433732313a206d696e7420746f20746865207a65726f20616464726573736044820152fd5b919091614a8f81614962565b15614b7a575f81815260086020526040902083516001600160401b03811161110d57614ac581614abf8454613b0c565b846142bd565b6020601f8211600114614b0557816020949392614af9925f5160206156305f395f51905f5297985f9261107c57505061430c565b90555b604051908152a1565b601f19821695835f52815f20965f5b818110614b62575096600192849260209796955f5160206156305f395f51905f52999a10614b4a575b505050811b019055614afc565b01515f1960f88460031b161c191690555f8080614b3d565b83830151895560019098019760209384019301614b14565b60405162461bcd60e51b815260206004820152602e60248201527f45524337323155524953746f726167653a2055524920736574206f66206e6f6e60448201526d32bc34b9ba32b73a103a37b5b2b760911b6064820152608490fd5b916001600160601b0316906127108211614c82576001600160a01b0316918215614c3f5760405192614c0784613b95565b835260208084019283525f91825260019052604090209151905160a01b6001600160a01b0319166001600160a01b0391909116179055565b60405162461bcd60e51b815260206004820152601b60248201527a455243323938313a20496e76616c696420706172616d657465727360281b6044820152606490fd5b60405162461bcd60e51b815260206004820152602a60248201527f455243323938313a20726f79616c7479206665652077696c6c206578636565646044820152692073616c65507269636560b01b6064820152608490fd5b60809060208152603260208201527f4552433732313a207472616e7366657220746f206e6f6e20455243373231526560408201527131b2b4bb32b91034b6b83632b6b2b73a32b960711b60608201520190565b15614d3457565b60405162461bcd60e51b81528061485260048201614cda565b614d59613e1682614962565b5f526008602052614d6c60405f20613bd3565b5f604051614d7b602082613bb0565b5290565b15614d8657565b60405162461bcd60e51b815260206004820152602560248201527f4552433732313a207472616e736665722066726f6d20696e636f72726563742060448201526437bbb732b960d91b6064820152608490fd5b805f52601860205260405f2054155f14614e3f57601754600160401b81101561110d57614e28614e128260018594016017556017613d98565b819391549060031b91821b915f19901b19161790565b9055601754905f52601860205260405f2055600190565b505f90565b6001810190825f528160205260405f2054155f14614e91578054600160401b81101561110d57614e7e614e12826001879401855584613d98565b905554915f5260205260405f2055600190565b5050505f90565b5f818152601860205260409020548015614f43575f1981018181116108a2576017545f198101919082116108a257808203614f0b575b505050601754801561083c575f1901614ee8816017613d98565b8154905f199060031b1b191690556017555f5260186020525f6040812055600190565b614f2d614f1c614e12936017613d98565b90549060031b1c9283926017613d98565b90555f52601860205260405f20555f8080614ece565b50505f90565b906001820191815f528260205260405f20548015155f14614ff2575f1981018181116108a25782545f198101919082116108a257808203614fbd575b5050508054801561083c575f190190614f9e8282613d98565b8154905f199060031b1b19169055555f526020525f6040812055600190565b614fdd614fcd614e129386613d98565b90549060031b1c92839286613d98565b90555f528360205260405f20555f8080614f85565b505050505f90565b803b1561502f575f5160206155105f395f51905f5280546001600160a01b0319166001600160a01b0392909216919091179055565b60405162461bcd60e51b815260206004820152602d60248201527f455243313936373a206e657720696d706c656d656e746174696f6e206973206e60448201526c1bdd08184818dbdb9d1c9858dd609a1b6064820152608490fd5b91823b15615172576150cf926020925f604051809681958294630a85bd0160e11b84523360048501528460248501526044840152608060648401526084830190613a97565b03926001600160a01b03165af15f918161512d575b50615117576150f1613fdd565b805190816151125760405162461bcd60e51b81528061485260048201614cda565b602001fd5b6001600160e01b031916630a85bd0160e11b1490565b9091506020813d60201161516a575b8161514960209383613bb0565b8101031261035457516001600160e01b03198116810361035457905f6150e4565b3d915061513c565b505050600190565b919290803b156151c9576150cf935f60209460405196879586948593630a85bd0160e11b855233600486015260018060a01b031660248501526044840152608060648401526084830190613a97565b50505050600190565b90815181101561398f570160200190565b6151ed602a613c73565b906151fb6040519283613bb0565b602a8252615209602a613c73565b6020830190601f190136823782511561398f576030905381516001101561398f576078602183015360295b6001811161528857506152445790565b606460405162461bcd60e51b815260206004820152602060248201527f537472696e67733a20686578206c656e67746820696e73756666696369656e746044820152fd5b90600f8116601081101561398f576f181899199a1a9b1b9c1cb0b131b232b360811b901a6152b683856151d2565b5360041c9080156108a2575f1901615234565b6152d36042613c73565b906152e16040519283613bb0565b604282526152ef6042613c73565b6020830190601f190136823782511561398f576030905381516001101561398f576078602183015360415b6001811161532a57506152445790565b90600f8116601081101561398f576f181899199a1a9b1b9c1cb0b131b232b360811b901a61535883856151d2565b5360041c9080156108a2575f190161531a565b1561537257565b60405162461bcd60e51b815260206004820152601c60248201527b115490cdcc8c4e881d1bdad95b88185b1c9958591e481b5a5b9d195960221b6044820152606490fd5b9192901561541857508151156153ca575090565b3b156153d35790565b60405162461bcd60e51b815260206004820152601d60248201527f416464726573733a2063616c6c20746f206e6f6e2d636f6e74726163740000006044820152606490fd5b82519091501561542b5750805190602001fd5b60405162461bcd60e51b815260206004820152908190614852906024830190613a9756fe2f8788117e7eff1d82e926ec794901d17c78024a50270940304540a733656f0dec8156718a8372b1db44bb411437d0870f3e3790d4a08526d024ce1b0b668f6b4910fdfa16fed3260ed0e7147f7cc6da11a60208b5b9406d12a635614ffd91431e1b69b56bd875547ce642e5ca9d38001b825863ffbf9cf08c72e0ff64b00a8d46756e6374696f6e206d7573742062652063616c6c6564207468726f75676820189ab7a9244df0848122154315af71fe140f3db0fe014031783b0946b8c9d2e3360894a13ba1a3210667c828492db98dca3e2076cc3735a920a3ca505d382bbc21ef4c3fb7c1ca86841fe7b11bbb71ad12bd4b7bb3205924ec33c681c9d47c3fbc7cd75a20ee27fd9adebab32041f755214dbc6bffa90cc0225b39da2e5c2d3bddf252ad1be2c89b69c2b068fc378daa952ba7f163c4a11628f55a4df523b3ef6171a8d76a90923fae69daeaf894dbb98cc39db4d7e0f5a0b8b6672e832e0160a49807205ce4d355092ef5a8a18f56e8913cf4a201fbe287825b095693c2177545524331393637557067726164653a20756e737570706f727465642070726f785e421a728e346ccaf4d82870ec53d59217a30d3483c6688054a2a67760f2138c416464726573733a206c6f772d6c6576656c2064656c65676174652063616c6cf8e1a15aba9398e019f0b49df1a4fde98ee17ae345cb5f6b5e2c27f5033e8ce745524331393637557067726164653a206e657720696d706c656d656e74617469bc485bf8e37db28d327f937baa2ba28235470b977aa1200fd7eedfd31f24ac45a2646970667358221220555778332f7db2c806f5a3da7082b076ece15ddbbc8003200062d74159bea93964736f6c634300081c0033",
  "linkReferences": {},
  "deployedLinkReferences": {}
}