{
  "_format": "hh-sol-artifact-1",
  "contractName": "DynamicAPYCalculator",
  "sourceName": "contracts/SmartStaking/DynamicAPYCalculator.sol",
  "abi": [
    {
      "inputs": [],
      "stateMutability": "nonpayable",
      "type": "constructor"
    },
    {
      "anonymous": false,
      "inputs": [
        {
          "indexed": false,
          "internalType": "uint256",
          "name": "currentTVL",
          "type": "uint256"
        },
        {
          "indexed": false,
          "internalType": "uint256",
          "name": "baseAPY",
          "type": "uint256"
        },
        {
          "indexed": false,
          "internalType": "uint256",
          "name": "dynamicAPY",
          "type": "uint256"
        },
        {
          "indexed": false,
          "internalType": "uint256",
          "name": "multiplier",
          "type": "uint256"
        }
      ],
      "name": "APYCalculated",
      "type": "event"
    },
    {
      "anonymous": false,
      "inputs": [
        {
          "indexed": false,
          "internalType": "uint256",
          "name": "newMin",
          "type": "uint256"
        },
        {
          "indexed": false,
          "internalType": "uint256",
          "name": "newMax",
          "type": "uint256"
        }
      ],
      "name": "APYMultiplierBoundsUpdated",
      "type": "event"
    },
    {
      "anonymous": false,
      "inputs": [
        {
          "indexed": false,
          "internalType": "bool",
          "name": "enabled",
          "type": "bool"
        }
      ],
      "name": "DynamicAPYToggled",
      "type": "event"
    },
    {
      "anonymous": false,
      "inputs": [
        {
          "indexed": true,
          "internalType": "address",
          "name": "previousOwner",
          "type": "address"
        },
        {
          "indexed": true,
          "internalType": "address",
          "name": "newOwner",
          "type": "address"
        }
      ],
      "name": "OwnershipTransferred",
      "type": "event"
    },
    {
      "anonymous": false,
      "inputs": [
        {
          "indexed": false,
          "internalType": "uint256",
          "name": "oldTarget",
          "type": "uint256"
        },
        {
          "indexed": false,
          "internalType": "uint256",
          "name": "newTarget",
          "type": "uint256"
        }
      ],
      "name": "TargetTVLUpdated",
      "type": "event"
    },
    {
      "inputs": [
        {
          "internalType": "uint256",
          "name": "baseAPY",
          "type": "uint256"
        },
        {
          "internalType": "uint256",
          "name": "currentTVL",
          "type": "uint256"
        }
      ],
      "name": "calculateDynamicAPY",
      "outputs": [
        {
          "internalType": "uint256",
          "name": "dynamicAPY",
          "type": "uint256"
        }
      ],
      "stateMutability": "view",
      "type": "function"
    },
    {
      "inputs": [
        {
          "internalType": "uint256[]",
          "name": "baseAPYs",
          "type": "uint256[]"
        },
        {
          "internalType": "uint256",
          "name": "currentTVL",
          "type": "uint256"
        }
      ],
      "name": "calculateDynamicAPYBatch",
      "outputs": [
        {
          "internalType": "uint256[]",
          "name": "dynamicAPYs",
          "type": "uint256[]"
        }
      ],
      "stateMutability": "view",
      "type": "function"
    },
    {
      "inputs": [],
      "name": "dynamicAPYEnabled",
      "outputs": [
        {
          "internalType": "bool",
          "name": "",
          "type": "bool"
        }
      ],
      "stateMutability": "view",
      "type": "function"
    },
    {
      "inputs": [
        {
          "internalType": "uint256",
          "name": "currentTVL",
          "type": "uint256"
        }
      ],
      "name": "getCurrentMultiplier",
      "outputs": [
        {
          "internalType": "uint256",
          "name": "multiplier",
          "type": "uint256"
        }
      ],
      "stateMutability": "view",
      "type": "function"
    },
    {
      "inputs": [],
      "name": "maxAPYMultiplier",
      "outputs": [
        {
          "internalType": "uint256",
          "name": "",
          "type": "uint256"
        }
      ],
      "stateMutability": "view",
      "type": "function"
    },
    {
      "inputs": [],
      "name": "minAPYMultiplier",
      "outputs": [
        {
          "internalType": "uint256",
          "name": "",
          "type": "uint256"
        }
      ],
      "stateMutability": "view",
      "type": "function"
    },
    {
      "inputs": [],
      "name": "owner",
      "outputs": [
        {
          "internalType": "address",
          "name": "",
          "type": "address"
        }
      ],
      "stateMutability": "view",
      "type": "function"
    },
    {
      "inputs": [
        {
          "internalType": "uint256",
          "name": "baseAPY",
          "type": "uint256"
        },
        {
          "internalType": "uint256[]",
          "name": "tvlLevels",
          "type": "uint256[]"
        }
      ],
      "name": "previewAPYAtTVLs",
      "outputs": [
        {
          "internalType": "uint256[]",
          "name": "apyResults",
          "type": "uint256[]"
        }
      ],
      "stateMutability": "view",
      "type": "function"
    },
    {
      "inputs": [],
      "name": "renounceOwnership",
      "outputs": [],
      "stateMutability": "nonpayable",
      "type": "function"
    },
    {
      "inputs": [
        {
          "internalType": "uint256",
          "name": "_minMultiplier",
          "type": "uint256"
        },
        {
          "internalType": "uint256",
          "name": "_maxMultiplier",
          "type": "uint256"
        }
      ],
      "name": "setAPYMultiplierBounds",
      "outputs": [],
      "stateMutability": "nonpayable",
      "type": "function"
    },
    {
      "inputs": [
        {
          "internalType": "bool",
          "name": "_enabled",
          "type": "bool"
        }
      ],
      "name": "setDynamicAPYEnabled",
      "outputs": [],
      "stateMutability": "nonpayable",
      "type": "function"
    },
    {
      "inputs": [
        {
          "internalType": "uint256",
          "name": "_targetTVL",
          "type": "uint256"
        }
      ],
      "name": "setTargetTVL",
      "outputs": [],
      "stateMutability": "nonpayable",
      "type": "function"
    },
    {
      "inputs": [],
      "name": "targetTVL",
      "outputs": [
        {
          "internalType": "uint256",
          "name": "",
          "type": "uint256"
        }
      ],
      "stateMutability": "view",
      "type": "function"
    },
    {
      "inputs": [
        {
          "internalType": "address",
          "name": "newOwner",
          "type": "address"
        }
      ],
      "name": "transferOwnership",
      "outputs": [],
      "stateMutability": "nonpayable",
      "type": "function"
    }
  ],
  "bytecode": "0x60806040523461002257610011610085565b604051610ebc6101a78239610ebc90f35b5f80fd5b6100336100336100339290565b90565b905f19905b9181191691161790565b9061005561003361005c92610026565b8254610036565b9055565b9060ff9061003b565b151590565b9061007e61003361005c92610069565b8254610060565b61008d6100e2565b6100aa6100a369d3c21bcecceda1000000610026565b6001610045565b6100bf6100b8610bb8610026565b6002610045565b6100d46100cd612710610026565b6003610045565b6100e06001600461006e565b565b6100e033610152565b610033905b6001600160a01b031690565b61003390546100eb565b906001600160a01b039061003b565b610033906100f0906001600160a01b031682565b61003390610115565b61003390610129565b9061014b61003361005c92610132565b8254610106565b6101766101706101615f6100fc565b61016b845f61013b565b610132565b91610132565b907f8be0079c531659141344cd1fd0a4f28419497f9722a3daafe3b4186f6b6457e06101a160405190565b5f90a356fe60806040526004361015610011575f80fd5b5f3560e01c80630d084820146100f05780633be622a0146100eb578063715018a6146100e65780638b25e8c1146100e15780638da5cb5b146100dc57806398cc7dd9146100d75780639cc2be75146100d2578063a2f00828146100cd578063b92258fa146100c8578063c0c1c88f146100c3578063d6e00dbc146100be578063e3b0b80a146100b9578063eef3c7a6146100b45763f2fde38b036100f55761055d565b610500565b6104c2565b6104aa565b610492565b61044e565b610427565b6103d5565b61039e565b61035e565b610337565b610306565b6102db565b610284565b5f80fd5b634e487b7160e01b5f52604160045260245ffd5b90601f01601f1916810190811067ffffffffffffffff82111761012f57604052565b6100f9565b9061014861014160405190565b928361010d565b565b67ffffffffffffffff811161012f5760208091020190565b805b036100f557565b9050359061014882610162565b9092919261018d6101888261014a565b610134565b93818552602080860192028301928184116100f557915b8383106101b15750505050565b602080916101bf848661016b565b8152019201916101a4565b9080601f830112156100f5578160206101e593359101610178565b90565b91906040838203126100f55782359067ffffffffffffffff82116100f5576020610217826101e59487016101ca565b940161016b565b9061023e61023761022d845190565b8084529260200190565b9260200190565b905f5b81811061024e5750505090565b90919261026b6102646001928651815260200190565b9460200190565b929101610241565b60208082526101e59291019061021e565b346100f5576102ac6102a061029a3660046101e8565b906105ef565b60405191829182610273565b0390f35b5f9103126100f557565b6101e5916008021c81565b906101e591546102ba565b6101e55f60036102c5565b346100f5576102eb3660046102b0565b6102ac6102f66102d0565b6040519182918290815260200190565b346100f5576103163660046102b0565b61031e610692565b604051005b906020828203126100f5576101e59161016b565b346100f5576102ac6102f661034d366004610323565b610734565b6001600160a01b031690565b346100f55761036e3660046102b0565b6102ac610379610823565b604051918291826001600160a01b03909116815260200190565b6101e55f60016102c5565b346100f5576103ae3660046102b0565b6102ac6102f6610393565b91906040838203126100f5576101e5906020610217828661016b565b346100f5576102ac6102f66103eb3660046103b9565b9061082c565b9190916040818403126100f557610408838261016b565b92602082013567ffffffffffffffff81116100f5576101e592016101ca565b346100f5576102ac6102a061043d3660046103f1565b90610910565b6101e55f60026102c5565b346100f55761045e3660046102b0565b6102ac6102f6610443565b801515610164565b9050359061014882610469565b906020828203126100f5576101e591610471565b346100f55761031e6104a536600461047e565b6109c9565b346100f55761031e6104bd366004610323565b610ac6565b346100f55761031e6104d53660046103b9565b90610c28565b6101e5916008021c5b60ff1690565b906101e591546104db565b6101e55f60046104ea565b346100f5576105103660046102b0565b6102ac61051b6104f5565b60405191829182901515815260200190565b6001600160a01b038116610164565b905035906101488261052d565b906020828203126100f5576101e59161053c565b346100f55761031e610570366004610549565b610cc2565b906105826101888361014a565b918252565b369037565b906101486105a261059c84610575565b9361014a565b601f190160208401610587565b6101e56101e56101e59290565b634e487b7160e01b5f52603260045260245ffd5b906105d9825190565b8110156105ea576020809102010190565b6105bc565b906106006105fb835190565b61058c565b9161060a5f6105af565b6106156101e5835190565b811015610655578061064a61063d8561063861063461065096886105d0565b5190565b61082c565b61064783886105d0565b52565b60010190565b61060a565b50505090565b610663610d1b565b610148610681565b6103526101e56101e59290565b6101e59061066b565b61014861068d5f610678565b610d93565b61014861065b565b6101e5906104e4565b6101e5905461069a565b6101e59081565b6101e590546106ad565b6101e56127106105af565b6101e5670de0b6b3a76400006105af565b634e487b7160e01b5f52601160045260245ffd5b8181029291811591840414171561070157565b6106da565b634e487b7160e01b5f52601260045260245ffd5b90610724565b9190565b90811561072f570490565b610706565b61074561074160046106a3565b1590565b80156107fa575b6107f157610761670de0b6b3a76400006105af565b81106107d6576107a99061079161079b61079661077e60016106b4565b9361079161078a6106c9565b80966106ee565b61071a565b610df4565b6107a36106be565b906106ee565b806107ba6107206101e560026106b4565b106107e1575b6107cd6101e560036106b4565b81116107d65790565b506101e560036106b4565b506107ec60026106b4565b6107c0565b506101e56106be565b506108086101e560016106b4565b81111561074c565b6101e590610352565b6101e59054610810565b6101e55f610819565b9061083a61074160046106a3565b6108ec5761084f670de0b6b3a76400006105af565b81106108f0576108626101e560016106b4565b8111156108ec576107916101e5926108a261089661079661088360016106b4565b9561079161088f6106c9565b80986106ee565b9361079161078a6106be565b90816108b46107206101e560026106b4565b106108da575b6108c76101e560036106b4565b8211156106ee5790506107a360036106b4565b90506108e660026106b4565b906108ba565b5090565b506109026101e5916107a360036106b4565b61090a6106be565b9061071a565b61091b6105fb835190565b916109255f6105af565b6109306101e5835190565b811015610655578061064a61063d61094e61063461095495876105d0565b8661082c565b610925565b61014890610965610d1b565b610994565b9060ff905b9181191691161790565b906109896101e561099092151590565b825461096a565b9055565b6109c47f3888c37764113b74f54e07c4585ee8966608477b0f3d614d1f9d40a03cd600619161051b816004610979565b0390a1565b61014890610959565b610148906109de610d1b565b610a67565b156109ea57565b60405162461bcd60e51b815260206004820152601b60248201527f5461726765742054564c206d75737420626520706f7369746976650000000000604482015280606481015b0390fd5b905f199061096f565b90610a4d6101e5610990926105af565b8254610a34565b9081526040810192916101489160200152565b7f5f43865d0250723b2e27191cc75efe0ecce7ec982c777ffa5c1430866254ce2a90610a9c610a955f6105af565b82116109e3565b610aa660016106b4565b610ab1826001610a3d565b6109c4610abd60405190565b92839283610a54565b610148906109d2565b9061014891610adc610d1b565b610bba565b15610ae857565b60405162461bcd60e51b815260206004820152601f60248201527f4d696e206d756c7469706c696572206d75737420626520706f736974697665006044820152606490fd5b15610b3457565b60405162461bcd60e51b815260206004820152601260248201527126b0bc1036bab9ba103132901f1e9036b4b760711b6044820152606490fd5b15610b7557565b60405162461bcd60e51b815260206004820152601660248201527f4d61782063616e6e6f74206578636565642031303025000000000000000000006044820152606490fd5b907fc1cfd12b329e1c876cfb1018d49aa5ebee207b437864b59057b9d0b5949315c291610bf0610be95f6105af565b8211610ae1565b610bfc81831015610b2d565b610c12610c0a6101e56106be565b831115610b6e565b610c1d816002610a3d565b610ab1826003610a3d565b9061014891610acf565b61014890610c3e610d1b565b610c9e565b15610c4a57565b60405162461bcd60e51b815260206004820152602660248201527f4f776e61626c653a206e6577206f776e657220697320746865207a65726f206160448201526564647265737360d01b6064820152608490fd5b6101489061068d610cb16103525f610678565b6001600160a01b0383161415610c43565b61014890610c32565b15610cd257565b60405162461bcd60e51b815280610a30600482016020808252818101527f4f776e61626c653a2063616c6c6572206973206e6f7420746865206f776e6572604082015260600190565b610148610d26610823565b610d3f610d3233610352565b916001600160a01b031690565b14610ccb565b906001600160a01b039061096f565b6103526101e56101e5926001600160a01b031690565b6101e590610d54565b6101e590610d6a565b90610d8c6101e561099092610d73565b8254610d45565b610db7610db1610da25f610819565b610dac845f610d7c565b610d73565b91610d73565b907f8be0079c531659141344cd1fd0a4f28419497f9722a3daafe3b4186f6b6457e0610de260405190565b5f90a3565b9190820180921161070157565b90610dfe5f6105af565b8214610e7b5760019182610e1b610e1560016105af565b83610de7565b610e2b60029161090a60026105af565b9280955b610e3a575b50505050565b90919294610e458190565b861015610e755750610e6c610e6386610e5e818561071a565b610de7565b61090a846105af565b92919082610e2f565b94610e34565b90506101e55f6105af56fea264697066735822122012ae5ddb25cc9d3cea4875c25e6e276a04d5cee963c6e39258e8dfe3a71d2fd464736f6c634300081c0033",
  "linkReferences": {},
  "deployedLinkReferences": {}
}