{
  "_format": "hh-sol-artifact-1",
  "contractName": "IndividualSkillsMarketplace",
  "sourceName": "contracts/Marketplace/IndividualSkillsMarketplace.sol",
  "abi": [
    {
      "inputs": [
        {
          "internalType": "address",
          "name": "_treasuryAddress",
          "type": "address"
        }
      ],
      "stateMutability": "nonpayable",
      "type": "constructor"
    },
    {
      "inputs": [],
      "name": "CannotTransferActiveSkill",
      "type": "error"
    },
    {
      "inputs": [
        {
          "internalType": "uint256",
          "name": "required",
          "type": "uint256"
        },
        {
          "internalType": "uint256",
          "name": "current",
          "type": "uint256"
        }
      ],
      "name": "InsufficientStakingBalance",
      "type": "error"
    },
    {
      "inputs": [],
      "name": "InvalidAddress",
      "type": "error"
    },
    {
      "inputs": [
        {
          "internalType": "uint256",
          "name": "level",
          "type": "uint256"
        }
      ],
      "name": "InvalidLevel",
      "type": "error"
    },
    {
      "inputs": [],
      "name": "InvalidMetadata",
      "type": "error"
    },
    {
      "inputs": [
        {
          "internalType": "uint256",
          "name": "expected",
          "type": "uint256"
        },
        {
          "internalType": "uint256",
          "name": "provided",
          "type": "uint256"
        }
      ],
      "name": "InvalidPrice",
      "type": "error"
    },
    {
      "inputs": [
        {
          "internalType": "uint8",
          "name": "rarity",
          "type": "uint8"
        }
      ],
      "name": "InvalidRarity",
      "type": "error"
    },
    {
      "inputs": [
        {
          "internalType": "uint8",
          "name": "skillType",
          "type": "uint8"
        }
      ],
      "name": "InvalidSkillType",
      "type": "error"
    },
    {
      "inputs": [
        {
          "internalType": "uint8",
          "name": "max",
          "type": "uint8"
        }
      ],
      "name": "MaxActiveSkillsReached",
      "type": "error"
    },
    {
      "inputs": [],
      "name": "NotSkillOwner",
      "type": "error"
    },
    {
      "inputs": [
        {
          "internalType": "uint256",
          "name": "expiresAt",
          "type": "uint256"
        }
      ],
      "name": "SkillAlreadyExpired",
      "type": "error"
    },
    {
      "inputs": [],
      "name": "SkillIsActive",
      "type": "error"
    },
    {
      "inputs": [],
      "name": "SkillNotActive",
      "type": "error"
    },
    {
      "inputs": [
        {
          "internalType": "uint256",
          "name": "expiresAt",
          "type": "uint256"
        }
      ],
      "name": "SkillNotExpired",
      "type": "error"
    },
    {
      "inputs": [
        {
          "internalType": "uint256",
          "name": "skillId",
          "type": "uint256"
        }
      ],
      "name": "SkillNotFound",
      "type": "error"
    },
    {
      "inputs": [
        {
          "internalType": "uint256",
          "name": "skillId",
          "type": "uint256"
        }
      ],
      "name": "SkillNotInList",
      "type": "error"
    },
    {
      "inputs": [
        {
          "internalType": "address",
          "name": "user",
          "type": "address"
        },
        {
          "internalType": "uint256",
          "name": "skillId",
          "type": "uint256"
        }
      ],
      "name": "StakingNotificationFailed",
      "type": "error"
    },
    {
      "anonymous": false,
      "inputs": [
        {
          "indexed": true,
          "internalType": "enum IStakingIntegration.Rarity",
          "name": "rarity",
          "type": "uint8"
        },
        {
          "indexed": false,
          "internalType": "uint256",
          "name": "newPrice",
          "type": "uint256"
        }
      ],
      "name": "BasePriceUpdated",
      "type": "event"
    },
    {
      "anonymous": false,
      "inputs": [
        {
          "indexed": true,
          "internalType": "address",
          "name": "admin",
          "type": "address"
        },
        {
          "indexed": false,
          "internalType": "uint256",
          "name": "amount",
          "type": "uint256"
        },
        {
          "indexed": true,
          "internalType": "address",
          "name": "to",
          "type": "address"
        }
      ],
      "name": "EmergencyWithdrawal",
      "type": "event"
    },
    {
      "anonymous": false,
      "inputs": [
        {
          "indexed": true,
          "internalType": "address",
          "name": "user",
          "type": "address"
        },
        {
          "indexed": true,
          "internalType": "uint256",
          "name": "skillId",
          "type": "uint256"
        },
        {
          "indexed": false,
          "internalType": "enum IStakingIntegration.SkillType",
          "name": "skillType",
          "type": "uint8"
        }
      ],
      "name": "IndividualSkillActivated",
      "type": "event"
    },
    {
      "anonymous": false,
      "inputs": [
        {
          "indexed": true,
          "internalType": "address",
          "name": "user",
          "type": "address"
        },
        {
          "indexed": true,
          "internalType": "uint256",
          "name": "skillId",
          "type": "uint256"
        },
        {
          "indexed": false,
          "internalType": "enum IStakingIntegration.SkillType",
          "name": "skillType",
          "type": "uint8"
        }
      ],
      "name": "IndividualSkillDeactivated",
      "type": "event"
    },
    {
      "anonymous": false,
      "inputs": [
        {
          "indexed": true,
          "internalType": "address",
          "name": "user",
          "type": "address"
        },
        {
          "indexed": true,
          "internalType": "uint256",
          "name": "skillId",
          "type": "uint256"
        },
        {
          "indexed": false,
          "internalType": "enum IStakingIntegration.SkillType",
          "name": "skillType",
          "type": "uint8"
        }
      ],
      "name": "IndividualSkillExpired",
      "type": "event"
    },
    {
      "anonymous": false,
      "inputs": [
        {
          "indexed": true,
          "internalType": "address",
          "name": "user",
          "type": "address"
        },
        {
          "indexed": true,
          "internalType": "uint256",
          "name": "skillId",
          "type": "uint256"
        },
        {
          "indexed": false,
          "internalType": "enum IStakingIntegration.SkillType",
          "name": "skillType",
          "type": "uint8"
        },
        {
          "indexed": false,
          "internalType": "enum IStakingIntegration.Rarity",
          "name": "rarity",
          "type": "uint8"
        },
        {
          "indexed": false,
          "internalType": "uint256",
          "name": "price",
          "type": "uint256"
        }
      ],
      "name": "IndividualSkillPurchased",
      "type": "event"
    },
    {
      "anonymous": false,
      "inputs": [
        {
          "indexed": true,
          "internalType": "address",
          "name": "user",
          "type": "address"
        },
        {
          "indexed": true,
          "internalType": "uint256",
          "name": "skillId",
          "type": "uint256"
        },
        {
          "indexed": false,
          "internalType": "uint256",
          "name": "newExpiryTime",
          "type": "uint256"
        }
      ],
      "name": "IndividualSkillRenewed",
      "type": "event"
    },
    {
      "anonymous": false,
      "inputs": [
        {
          "indexed": true,
          "internalType": "address",
          "name": "from",
          "type": "address"
        },
        {
          "indexed": true,
          "internalType": "address",
          "name": "to",
          "type": "address"
        },
        {
          "indexed": true,
          "internalType": "uint256",
          "name": "skillId",
          "type": "uint256"
        },
        {
          "indexed": false,
          "internalType": "enum IStakingIntegration.SkillType",
          "name": "skillType",
          "type": "uint8"
        }
      ],
      "name": "IndividualSkillTransferred",
      "type": "event"
    },
    {
      "anonymous": false,
      "inputs": [
        {
          "indexed": false,
          "internalType": "address",
          "name": "account",
          "type": "address"
        }
      ],
      "name": "Paused",
      "type": "event"
    },
    {
      "anonymous": false,
      "inputs": [
        {
          "indexed": true,
          "internalType": "enum IStakingIntegration.Rarity",
          "name": "rarity",
          "type": "uint8"
        },
        {
          "indexed": false,
          "internalType": "uint16",
          "name": "newMultiplier",
          "type": "uint16"
        }
      ],
      "name": "RarityEffectMultiplierUpdated",
      "type": "event"
    },
    {
      "anonymous": false,
      "inputs": [
        {
          "indexed": true,
          "internalType": "bytes32",
          "name": "role",
          "type": "bytes32"
        },
        {
          "indexed": true,
          "internalType": "bytes32",
          "name": "previousAdminRole",
          "type": "bytes32"
        },
        {
          "indexed": true,
          "internalType": "bytes32",
          "name": "newAdminRole",
          "type": "bytes32"
        }
      ],
      "name": "RoleAdminChanged",
      "type": "event"
    },
    {
      "anonymous": false,
      "inputs": [
        {
          "indexed": true,
          "internalType": "bytes32",
          "name": "role",
          "type": "bytes32"
        },
        {
          "indexed": true,
          "internalType": "address",
          "name": "account",
          "type": "address"
        },
        {
          "indexed": true,
          "internalType": "address",
          "name": "sender",
          "type": "address"
        }
      ],
      "name": "RoleGranted",
      "type": "event"
    },
    {
      "anonymous": false,
      "inputs": [
        {
          "indexed": true,
          "internalType": "bytes32",
          "name": "role",
          "type": "bytes32"
        },
        {
          "indexed": true,
          "internalType": "address",
          "name": "account",
          "type": "address"
        },
        {
          "indexed": true,
          "internalType": "address",
          "name": "sender",
          "type": "address"
        }
      ],
      "name": "RoleRevoked",
      "type": "event"
    },
    {
      "anonymous": false,
      "inputs": [
        {
          "indexed": true,
          "internalType": "address",
          "name": "user",
          "type": "address"
        },
        {
          "indexed": true,
          "internalType": "uint256",
          "name": "skillId",
          "type": "uint256"
        }
      ],
      "name": "SkillCleanedUp",
      "type": "event"
    },
    {
      "anonymous": false,
      "inputs": [
        {
          "indexed": true,
          "internalType": "enum IStakingIntegration.SkillType",
          "name": "skillType",
          "type": "uint8"
        },
        {
          "indexed": true,
          "internalType": "enum IStakingIntegration.Rarity",
          "name": "rarity",
          "type": "uint8"
        },
        {
          "indexed": false,
          "internalType": "uint16",
          "name": "newEffectValue",
          "type": "uint16"
        }
      ],
      "name": "SkillEffectValueUpdated",
      "type": "event"
    },
    {
      "anonymous": false,
      "inputs": [
        {
          "indexed": true,
          "internalType": "uint8",
          "name": "level",
          "type": "uint8"
        },
        {
          "indexed": false,
          "internalType": "uint16",
          "name": "newMultiplier",
          "type": "uint16"
        }
      ],
      "name": "SkillLevelMultiplierUpdated",
      "type": "event"
    },
    {
      "anonymous": false,
      "inputs": [
        {
          "indexed": true,
          "internalType": "enum IStakingIntegration.SkillType",
          "name": "skillType",
          "type": "uint8"
        },
        {
          "indexed": false,
          "internalType": "uint256",
          "name": "basePrice",
          "type": "uint256"
        },
        {
          "indexed": false,
          "internalType": "uint256",
          "name": "rarityMultiplier",
          "type": "uint256"
        }
      ],
      "name": "SkillPricingUpdated",
      "type": "event"
    },
    {
      "anonymous": false,
      "inputs": [
        {
          "indexed": true,
          "internalType": "address",
          "name": "user",
          "type": "address"
        },
        {
          "indexed": true,
          "internalType": "uint256",
          "name": "skillId",
          "type": "uint256"
        },
        {
          "indexed": false,
          "internalType": "enum IStakingIntegration.SkillType",
          "name": "skillType",
          "type": "uint8"
        },
        {
          "indexed": false,
          "internalType": "uint256",
          "name": "amount",
          "type": "uint256"
        },
        {
          "indexed": false,
          "internalType": "string",
          "name": "operation",
          "type": "string"
        }
      ],
      "name": "SkillPurchaseProcessed",
      "type": "event"
    },
    {
      "anonymous": false,
      "inputs": [
        {
          "indexed": true,
          "internalType": "address",
          "name": "oldStaking",
          "type": "address"
        },
        {
          "indexed": true,
          "internalType": "address",
          "name": "newStaking",
          "type": "address"
        }
      ],
      "name": "StakingContractUpdated",
      "type": "event"
    },
    {
      "anonymous": false,
      "inputs": [
        {
          "indexed": true,
          "internalType": "address",
          "name": "oldTreasury",
          "type": "address"
        },
        {
          "indexed": true,
          "internalType": "address",
          "name": "newTreasury",
          "type": "address"
        }
      ],
      "name": "TreasuryAddressUpdated",
      "type": "event"
    },
    {
      "anonymous": false,
      "inputs": [
        {
          "indexed": false,
          "internalType": "address",
          "name": "account",
          "type": "address"
        }
      ],
      "name": "Unpaused",
      "type": "event"
    },
    {
      "inputs": [],
      "name": "ADMIN_ROLE",
      "outputs": [
        {
          "internalType": "bytes32",
          "name": "",
          "type": "bytes32"
        }
      ],
      "stateMutability": "view",
      "type": "function"
    },
    {
      "inputs": [],
      "name": "DEFAULT_ADMIN_ROLE",
      "outputs": [
        {
          "internalType": "bytes32",
          "name": "",
          "type": "bytes32"
        }
      ],
      "stateMutability": "view",
      "type": "function"
    },
    {
      "inputs": [
        {
          "internalType": "uint256",
          "name": "_skillId",
          "type": "uint256"
        }
      ],
      "name": "activateIndividualSkill",
      "outputs": [],
      "stateMutability": "nonpayable",
      "type": "function"
    },
    {
      "inputs": [
        {
          "internalType": "uint8",
          "name": "",
          "type": "uint8"
        }
      ],
      "name": "basePricePerRarity",
      "outputs": [
        {
          "internalType": "uint256",
          "name": "",
          "type": "uint256"
        }
      ],
      "stateMutability": "view",
      "type": "function"
    },
    {
      "inputs": [
        {
          "internalType": "uint256",
          "name": "_skillId",
          "type": "uint256"
        }
      ],
      "name": "claimExpiredIndividualSkill",
      "outputs": [],
      "stateMutability": "nonpayable",
      "type": "function"
    },
    {
      "inputs": [
        {
          "internalType": "uint256",
          "name": "_skillId",
          "type": "uint256"
        }
      ],
      "name": "deactivateIndividualSkill",
      "outputs": [],
      "stateMutability": "nonpayable",
      "type": "function"
    },
    {
      "inputs": [
        {
          "internalType": "uint256",
          "name": "_amount",
          "type": "uint256"
        }
      ],
      "name": "emergencyWithdraw",
      "outputs": [],
      "stateMutability": "nonpayable",
      "type": "function"
    },
    {
      "inputs": [],
      "name": "emergencyWithdrawAll",
      "outputs": [],
      "stateMutability": "nonpayable",
      "type": "function"
    },
    {
      "inputs": [
        {
          "internalType": "address",
          "name": "_user",
          "type": "address"
        }
      ],
      "name": "getActiveIndividualSkills",
      "outputs": [
        {
          "internalType": "uint256[]",
          "name": "activeSkillIds",
          "type": "uint256[]"
        }
      ],
      "stateMutability": "view",
      "type": "function"
    },
    {
      "inputs": [],
      "name": "getAllSkillsPricing",
      "outputs": [
        {
          "internalType": "enum IStakingIntegration.SkillType[]",
          "name": "skillTypes",
          "type": "uint8[]"
        },
        {
          "internalType": "uint8[]",
          "name": "categories",
          "type": "uint8[]"
        },
        {
          "internalType": "uint256[][]",
          "name": "prices",
          "type": "uint256[][]"
        }
      ],
      "stateMutability": "view",
      "type": "function"
    },
    {
      "inputs": [],
      "name": "getCurrentBasePrices",
      "outputs": [
        {
          "internalType": "uint256[5]",
          "name": "prices",
          "type": "uint256[5]"
        }
      ],
      "stateMutability": "view",
      "type": "function"
    },
    {
      "inputs": [
        {
          "internalType": "uint256",
          "name": "_skillId",
          "type": "uint256"
        }
      ],
      "name": "getIndividualSkill",
      "outputs": [
        {
          "components": [
            {
              "internalType": "enum IStakingIntegration.SkillType",
              "name": "skillType",
              "type": "uint8"
            },
            {
              "internalType": "enum IStakingIntegration.Rarity",
              "name": "rarity",
              "type": "uint8"
            },
            {
              "internalType": "uint256",
              "name": "level",
              "type": "uint256"
            },
            {
              "internalType": "address",
              "name": "owner",
              "type": "address"
            },
            {
              "internalType": "uint256",
              "name": "purchasedAt",
              "type": "uint256"
            },
            {
              "internalType": "uint256",
              "name": "expiresAt",
              "type": "uint256"
            },
            {
              "internalType": "bool",
              "name": "isActive",
              "type": "bool"
            },
            {
              "internalType": "string",
              "name": "metadata",
              "type": "string"
            },
            {
              "internalType": "uint256",
              "name": "createdAt",
              "type": "uint256"
            }
          ],
          "internalType": "struct IIndividualSkills.IndividualSkill",
          "name": "",
          "type": "tuple"
        }
      ],
      "stateMutability": "view",
      "type": "function"
    },
    {
      "inputs": [
        {
          "internalType": "enum IStakingIntegration.Rarity",
          "name": "_rarity",
          "type": "uint8"
        }
      ],
      "name": "getIndividualSkillPrice",
      "outputs": [
        {
          "internalType": "uint256",
          "name": "",
          "type": "uint256"
        }
      ],
      "stateMutability": "view",
      "type": "function"
    },
    {
      "inputs": [],
      "name": "getLevelMultipliers",
      "outputs": [
        {
          "internalType": "uint16[3]",
          "name": "multipliers",
          "type": "uint16[3]"
        }
      ],
      "stateMutability": "view",
      "type": "function"
    },
    {
      "inputs": [],
      "name": "getRarityEffectMultipliers",
      "outputs": [
        {
          "internalType": "uint16[5]",
          "name": "multipliers",
          "type": "uint16[5]"
        }
      ],
      "stateMutability": "view",
      "type": "function"
    },
    {
      "inputs": [
        {
          "internalType": "bytes32",
          "name": "role",
          "type": "bytes32"
        }
      ],
      "name": "getRoleAdmin",
      "outputs": [
        {
          "internalType": "bytes32",
          "name": "",
          "type": "bytes32"
        }
      ],
      "stateMutability": "view",
      "type": "function"
    },
    {
      "inputs": [
        {
          "internalType": "enum IStakingIntegration.SkillType",
          "name": "_skillType",
          "type": "uint8"
        }
      ],
      "name": "getSkillEffectValuesAllRarities",
      "outputs": [
        {
          "internalType": "uint16[5]",
          "name": "effectValues",
          "type": "uint16[5]"
        }
      ],
      "stateMutability": "view",
      "type": "function"
    },
    {
      "inputs": [
        {
          "internalType": "enum IStakingIntegration.SkillType",
          "name": "_skillType",
          "type": "uint8"
        },
        {
          "internalType": "enum IStakingIntegration.Rarity",
          "name": "_rarity",
          "type": "uint8"
        }
      ],
      "name": "getSkillPrice",
      "outputs": [
        {
          "internalType": "uint256",
          "name": "",
          "type": "uint256"
        }
      ],
      "stateMutability": "view",
      "type": "function"
    },
    {
      "inputs": [
        {
          "internalType": "enum IStakingIntegration.SkillType",
          "name": "_skillType",
          "type": "uint8"
        }
      ],
      "name": "getSkillPricesAllRarities",
      "outputs": [
        {
          "internalType": "uint256[5]",
          "name": "prices",
          "type": "uint256[5]"
        }
      ],
      "stateMutability": "view",
      "type": "function"
    },
    {
      "inputs": [
        {
          "internalType": "address",
          "name": "_user",
          "type": "address"
        },
        {
          "internalType": "enum IStakingIntegration.SkillType",
          "name": "_skillType",
          "type": "uint8"
        }
      ],
      "name": "getUserActiveIndividualSkills",
      "outputs": [
        {
          "internalType": "uint256[]",
          "name": "",
          "type": "uint256[]"
        }
      ],
      "stateMutability": "view",
      "type": "function"
    },
    {
      "inputs": [
        {
          "internalType": "address",
          "name": "_user",
          "type": "address"
        },
        {
          "internalType": "enum IStakingIntegration.SkillType",
          "name": "_skillType",
          "type": "uint8"
        }
      ],
      "name": "getUserActiveSkillCountByType",
      "outputs": [
        {
          "internalType": "uint8",
          "name": "count",
          "type": "uint8"
        }
      ],
      "stateMutability": "view",
      "type": "function"
    },
    {
      "inputs": [
        {
          "internalType": "address",
          "name": "_user",
          "type": "address"
        }
      ],
      "name": "getUserIndividualSkills",
      "outputs": [
        {
          "internalType": "uint256[]",
          "name": "",
          "type": "uint256[]"
        }
      ],
      "stateMutability": "view",
      "type": "function"
    },
    {
      "inputs": [
        {
          "internalType": "address",
          "name": "_user",
          "type": "address"
        }
      ],
      "name": "getUserIndividualSkillsDetailed",
      "outputs": [
        {
          "components": [
            {
              "internalType": "enum IStakingIntegration.SkillType",
              "name": "skillType",
              "type": "uint8"
            },
            {
              "internalType": "enum IStakingIntegration.Rarity",
              "name": "rarity",
              "type": "uint8"
            },
            {
              "internalType": "uint256",
              "name": "level",
              "type": "uint256"
            },
            {
              "internalType": "address",
              "name": "owner",
              "type": "address"
            },
            {
              "internalType": "uint256",
              "name": "purchasedAt",
              "type": "uint256"
            },
            {
              "internalType": "uint256",
              "name": "expiresAt",
              "type": "uint256"
            },
            {
              "internalType": "bool",
              "name": "isActive",
              "type": "bool"
            },
            {
              "internalType": "string",
              "name": "metadata",
              "type": "string"
            },
            {
              "internalType": "uint256",
              "name": "createdAt",
              "type": "uint256"
            }
          ],
          "internalType": "struct IIndividualSkills.IndividualSkill[]",
          "name": "skills",
          "type": "tuple[]"
        },
        {
          "internalType": "bool[]",
          "name": "isActive",
          "type": "bool[]"
        }
      ],
      "stateMutability": "view",
      "type": "function"
    },
    {
      "inputs": [
        {
          "internalType": "address",
          "name": "_user",
          "type": "address"
        }
      ],
      "name": "getUserPlatformSkills",
      "outputs": [
        {
          "components": [
            {
              "internalType": "enum IStakingIntegration.SkillType",
              "name": "skillType",
              "type": "uint8"
            },
            {
              "internalType": "enum IStakingIntegration.Rarity",
              "name": "rarity",
              "type": "uint8"
            },
            {
              "internalType": "uint256",
              "name": "level",
              "type": "uint256"
            },
            {
              "internalType": "address",
              "name": "owner",
              "type": "address"
            },
            {
              "internalType": "uint256",
              "name": "purchasedAt",
              "type": "uint256"
            },
            {
              "internalType": "uint256",
              "name": "expiresAt",
              "type": "uint256"
            },
            {
              "internalType": "bool",
              "name": "isActive",
              "type": "bool"
            },
            {
              "internalType": "string",
              "name": "metadata",
              "type": "string"
            },
            {
              "internalType": "uint256",
              "name": "createdAt",
              "type": "uint256"
            }
          ],
          "internalType": "struct IIndividualSkills.IndividualSkill[]",
          "name": "skills",
          "type": "tuple[]"
        },
        {
          "internalType": "bool[]",
          "name": "isActive",
          "type": "bool[]"
        },
        {
          "internalType": "bool[]",
          "name": "isExpired",
          "type": "bool[]"
        }
      ],
      "stateMutability": "view",
      "type": "function"
    },
    {
      "inputs": [
        {
          "internalType": "address",
          "name": "_user",
          "type": "address"
        }
      ],
      "name": "getUserSkillStats",
      "outputs": [
        {
          "internalType": "uint256",
          "name": "totalSkills",
          "type": "uint256"
        },
        {
          "internalType": "uint256",
          "name": "totalStakingSkills",
          "type": "uint256"
        },
        {
          "internalType": "uint256",
          "name": "totalPlatformSkills",
          "type": "uint256"
        },
        {
          "internalType": "uint256",
          "name": "activeCount",
          "type": "uint256"
        },
        {
          "internalType": "uint256",
          "name": "expiredCount",
          "type": "uint256"
        }
      ],
      "stateMutability": "view",
      "type": "function"
    },
    {
      "inputs": [
        {
          "internalType": "address",
          "name": "_user",
          "type": "address"
        }
      ],
      "name": "getUserSkillsByCategory",
      "outputs": [
        {
          "components": [
            {
              "internalType": "enum IStakingIntegration.SkillType",
              "name": "skillType",
              "type": "uint8"
            },
            {
              "internalType": "enum IStakingIntegration.Rarity",
              "name": "rarity",
              "type": "uint8"
            },
            {
              "internalType": "uint256",
              "name": "level",
              "type": "uint256"
            },
            {
              "internalType": "address",
              "name": "owner",
              "type": "address"
            },
            {
              "internalType": "uint256",
              "name": "purchasedAt",
              "type": "uint256"
            },
            {
              "internalType": "uint256",
              "name": "expiresAt",
              "type": "uint256"
            },
            {
              "internalType": "bool",
              "name": "isActive",
              "type": "bool"
            },
            {
              "internalType": "string",
              "name": "metadata",
              "type": "string"
            },
            {
              "internalType": "uint256",
              "name": "createdAt",
              "type": "uint256"
            }
          ],
          "internalType": "struct IIndividualSkills.IndividualSkill[]",
          "name": "stakingSkills",
          "type": "tuple[]"
        },
        {
          "components": [
            {
              "internalType": "enum IStakingIntegration.SkillType",
              "name": "skillType",
              "type": "uint8"
            },
            {
              "internalType": "enum IStakingIntegration.Rarity",
              "name": "rarity",
              "type": "uint8"
            },
            {
              "internalType": "uint256",
              "name": "level",
              "type": "uint256"
            },
            {
              "internalType": "address",
              "name": "owner",
              "type": "address"
            },
            {
              "internalType": "uint256",
              "name": "purchasedAt",
              "type": "uint256"
            },
            {
              "internalType": "uint256",
              "name": "expiresAt",
              "type": "uint256"
            },
            {
              "internalType": "bool",
              "name": "isActive",
              "type": "bool"
            },
            {
              "internalType": "string",
              "name": "metadata",
              "type": "string"
            },
            {
              "internalType": "uint256",
              "name": "createdAt",
              "type": "uint256"
            }
          ],
          "internalType": "struct IIndividualSkills.IndividualSkill[]",
          "name": "activeSkills",
          "type": "tuple[]"
        }
      ],
      "stateMutability": "view",
      "type": "function"
    },
    {
      "inputs": [
        {
          "internalType": "address",
          "name": "_user",
          "type": "address"
        }
      ],
      "name": "getUserSkillsComprehensive",
      "outputs": [
        {
          "components": [
            {
              "internalType": "enum IStakingIntegration.SkillType",
              "name": "skillType",
              "type": "uint8"
            },
            {
              "internalType": "enum IStakingIntegration.Rarity",
              "name": "rarity",
              "type": "uint8"
            },
            {
              "internalType": "uint256",
              "name": "level",
              "type": "uint256"
            },
            {
              "internalType": "address",
              "name": "owner",
              "type": "address"
            },
            {
              "internalType": "uint256",
              "name": "purchasedAt",
              "type": "uint256"
            },
            {
              "internalType": "uint256",
              "name": "expiresAt",
              "type": "uint256"
            },
            {
              "internalType": "bool",
              "name": "isActive",
              "type": "bool"
            },
            {
              "internalType": "string",
              "name": "metadata",
              "type": "string"
            },
            {
              "internalType": "uint256",
              "name": "createdAt",
              "type": "uint256"
            }
          ],
          "internalType": "struct IIndividualSkills.IndividualSkill[]",
          "name": "allSkills",
          "type": "tuple[]"
        },
        {
          "internalType": "bool[]",
          "name": "isActive",
          "type": "bool[]"
        },
        {
          "internalType": "bool[]",
          "name": "isExpired",
          "type": "bool[]"
        },
        {
          "internalType": "uint256[]",
          "name": "expiresIn",
          "type": "uint256[]"
        },
        {
          "internalType": "string[]",
          "name": "categoryNames",
          "type": "string[]"
        }
      ],
      "stateMutability": "view",
      "type": "function"
    },
    {
      "inputs": [
        {
          "internalType": "address",
          "name": "_user",
          "type": "address"
        }
      ],
      "name": "getUserStakingSkills",
      "outputs": [
        {
          "components": [
            {
              "internalType": "enum IStakingIntegration.SkillType",
              "name": "skillType",
              "type": "uint8"
            },
            {
              "internalType": "enum IStakingIntegration.Rarity",
              "name": "rarity",
              "type": "uint8"
            },
            {
              "internalType": "uint256",
              "name": "level",
              "type": "uint256"
            },
            {
              "internalType": "address",
              "name": "owner",
              "type": "address"
            },
            {
              "internalType": "uint256",
              "name": "purchasedAt",
              "type": "uint256"
            },
            {
              "internalType": "uint256",
              "name": "expiresAt",
              "type": "uint256"
            },
            {
              "internalType": "bool",
              "name": "isActive",
              "type": "bool"
            },
            {
              "internalType": "string",
              "name": "metadata",
              "type": "string"
            },
            {
              "internalType": "uint256",
              "name": "createdAt",
              "type": "uint256"
            }
          ],
          "internalType": "struct IIndividualSkills.IndividualSkill[]",
          "name": "skills",
          "type": "tuple[]"
        },
        {
          "internalType": "bool[]",
          "name": "isActive",
          "type": "bool[]"
        },
        {
          "internalType": "bool[]",
          "name": "isExpired",
          "type": "bool[]"
        }
      ],
      "stateMutability": "view",
      "type": "function"
    },
    {
      "inputs": [
        {
          "internalType": "bytes32",
          "name": "role",
          "type": "bytes32"
        },
        {
          "internalType": "address",
          "name": "account",
          "type": "address"
        }
      ],
      "name": "grantRole",
      "outputs": [],
      "stateMutability": "nonpayable",
      "type": "function"
    },
    {
      "inputs": [
        {
          "internalType": "bytes32",
          "name": "role",
          "type": "bytes32"
        },
        {
          "internalType": "address",
          "name": "account",
          "type": "address"
        }
      ],
      "name": "hasRole",
      "outputs": [
        {
          "internalType": "bool",
          "name": "",
          "type": "bool"
        }
      ],
      "stateMutability": "view",
      "type": "function"
    },
    {
      "inputs": [
        {
          "internalType": "uint256",
          "name": "",
          "type": "uint256"
        }
      ],
      "name": "individualSkills",
      "outputs": [
        {
          "internalType": "enum IStakingIntegration.SkillType",
          "name": "skillType",
          "type": "uint8"
        },
        {
          "internalType": "enum IStakingIntegration.Rarity",
          "name": "rarity",
          "type": "uint8"
        },
        {
          "internalType": "uint256",
          "name": "level",
          "type": "uint256"
        },
        {
          "internalType": "address",
          "name": "owner",
          "type": "address"
        },
        {
          "internalType": "uint256",
          "name": "purchasedAt",
          "type": "uint256"
        },
        {
          "internalType": "uint256",
          "name": "expiresAt",
          "type": "uint256"
        },
        {
          "internalType": "bool",
          "name": "isActive",
          "type": "bool"
        },
        {
          "internalType": "string",
          "name": "metadata",
          "type": "string"
        },
        {
          "internalType": "uint256",
          "name": "createdAt",
          "type": "uint256"
        }
      ],
      "stateMutability": "view",
      "type": "function"
    },
    {
      "inputs": [
        {
          "internalType": "uint8",
          "name": "",
          "type": "uint8"
        }
      ],
      "name": "levelMultiplier",
      "outputs": [
        {
          "internalType": "uint16",
          "name": "",
          "type": "uint16"
        }
      ],
      "stateMutability": "view",
      "type": "function"
    },
    {
      "inputs": [],
      "name": "pause",
      "outputs": [],
      "stateMutability": "nonpayable",
      "type": "function"
    },
    {
      "inputs": [],
      "name": "paused",
      "outputs": [
        {
          "internalType": "bool",
          "name": "",
          "type": "bool"
        }
      ],
      "stateMutability": "view",
      "type": "function"
    },
    {
      "inputs": [
        {
          "internalType": "enum IStakingIntegration.SkillType",
          "name": "_skillType",
          "type": "uint8"
        },
        {
          "internalType": "enum IStakingIntegration.Rarity",
          "name": "_rarity",
          "type": "uint8"
        },
        {
          "internalType": "uint256",
          "name": "_level",
          "type": "uint256"
        },
        {
          "internalType": "string",
          "name": "_metadata",
          "type": "string"
        }
      ],
      "name": "purchaseIndividualSkill",
      "outputs": [
        {
          "internalType": "uint256",
          "name": "skillId",
          "type": "uint256"
        }
      ],
      "stateMutability": "payable",
      "type": "function"
    },
    {
      "inputs": [
        {
          "internalType": "uint8",
          "name": "",
          "type": "uint8"
        }
      ],
      "name": "rarityEffectMultiplier",
      "outputs": [
        {
          "internalType": "uint16",
          "name": "",
          "type": "uint16"
        }
      ],
      "stateMutability": "view",
      "type": "function"
    },
    {
      "inputs": [
        {
          "internalType": "uint256",
          "name": "_skillId",
          "type": "uint256"
        }
      ],
      "name": "renewIndividualSkill",
      "outputs": [],
      "stateMutability": "payable",
      "type": "function"
    },
    {
      "inputs": [
        {
          "internalType": "bytes32",
          "name": "role",
          "type": "bytes32"
        },
        {
          "internalType": "address",
          "name": "account",
          "type": "address"
        }
      ],
      "name": "renounceRole",
      "outputs": [],
      "stateMutability": "nonpayable",
      "type": "function"
    },
    {
      "inputs": [],
      "name": "resetSkillPricingToDefaults",
      "outputs": [],
      "stateMutability": "nonpayable",
      "type": "function"
    },
    {
      "inputs": [
        {
          "internalType": "bytes32",
          "name": "role",
          "type": "bytes32"
        },
        {
          "internalType": "address",
          "name": "account",
          "type": "address"
        }
      ],
      "name": "revokeRole",
      "outputs": [],
      "stateMutability": "nonpayable",
      "type": "function"
    },
    {
      "inputs": [
        {
          "internalType": "uint8",
          "name": "_rarityIndex",
          "type": "uint8"
        },
        {
          "internalType": "uint256",
          "name": "_newPrice",
          "type": "uint256"
        }
      ],
      "name": "setBasePricePerRarity",
      "outputs": [],
      "stateMutability": "nonpayable",
      "type": "function"
    },
    {
      "inputs": [
        {
          "internalType": "uint8",
          "name": "_levelIndex",
          "type": "uint8"
        },
        {
          "internalType": "uint16",
          "name": "_newMultiplier",
          "type": "uint16"
        }
      ],
      "name": "setLevelMultiplier",
      "outputs": [],
      "stateMutability": "nonpayable",
      "type": "function"
    },
    {
      "inputs": [
        {
          "internalType": "uint8",
          "name": "_rarityIndex",
          "type": "uint8"
        },
        {
          "internalType": "uint16",
          "name": "_newMultiplier",
          "type": "uint16"
        }
      ],
      "name": "setRarityEffectMultiplier",
      "outputs": [],
      "stateMutability": "nonpayable",
      "type": "function"
    },
    {
      "inputs": [
        {
          "internalType": "enum IStakingIntegration.SkillType",
          "name": "_skillType",
          "type": "uint8"
        },
        {
          "internalType": "enum IStakingIntegration.Rarity",
          "name": "_rarity",
          "type": "uint8"
        },
        {
          "internalType": "uint16",
          "name": "_effectValue",
          "type": "uint16"
        }
      ],
      "name": "setSkillEffectValue",
      "outputs": [],
      "stateMutability": "nonpayable",
      "type": "function"
    },
    {
      "inputs": [
        {
          "internalType": "enum IStakingIntegration.SkillType",
          "name": "_skillType",
          "type": "uint8"
        },
        {
          "internalType": "uint16",
          "name": "_commonEffect",
          "type": "uint16"
        },
        {
          "internalType": "uint16",
          "name": "_uncommonEffect",
          "type": "uint16"
        },
        {
          "internalType": "uint16",
          "name": "_rareEffect",
          "type": "uint16"
        },
        {
          "internalType": "uint16",
          "name": "_epicEffect",
          "type": "uint16"
        },
        {
          "internalType": "uint16",
          "name": "_legendaryEffect",
          "type": "uint16"
        }
      ],
      "name": "setSkillEffectValuesAllRarities",
      "outputs": [],
      "stateMutability": "nonpayable",
      "type": "function"
    },
    {
      "inputs": [
        {
          "internalType": "address",
          "name": "_stakingAddress",
          "type": "address"
        }
      ],
      "name": "setStakingContract",
      "outputs": [],
      "stateMutability": "nonpayable",
      "type": "function"
    },
    {
      "inputs": [
        {
          "internalType": "address",
          "name": "_treasuryAddress",
          "type": "address"
        }
      ],
      "name": "setTreasuryAddress",
      "outputs": [],
      "stateMutability": "nonpayable",
      "type": "function"
    },
    {
      "inputs": [
        {
          "internalType": "enum IStakingIntegration.SkillType",
          "name": "",
          "type": "uint8"
        },
        {
          "internalType": "enum IStakingIntegration.Rarity",
          "name": "",
          "type": "uint8"
        }
      ],
      "name": "skillEffectValues",
      "outputs": [
        {
          "internalType": "uint16",
          "name": "",
          "type": "uint16"
        }
      ],
      "stateMutability": "view",
      "type": "function"
    },
    {
      "inputs": [
        {
          "internalType": "enum IStakingIntegration.SkillType",
          "name": "",
          "type": "uint8"
        }
      ],
      "name": "skillLevelCount",
      "outputs": [
        {
          "internalType": "uint8",
          "name": "",
          "type": "uint8"
        }
      ],
      "stateMutability": "view",
      "type": "function"
    },
    {
      "inputs": [
        {
          "internalType": "enum IStakingIntegration.SkillType",
          "name": "",
          "type": "uint8"
        },
        {
          "internalType": "enum IStakingIntegration.Rarity",
          "name": "",
          "type": "uint8"
        }
      ],
      "name": "skillPrices",
      "outputs": [
        {
          "internalType": "uint256",
          "name": "",
          "type": "uint256"
        }
      ],
      "stateMutability": "view",
      "type": "function"
    },
    {
      "inputs": [],
      "name": "stakingContractAddress",
      "outputs": [
        {
          "internalType": "address",
          "name": "",
          "type": "address"
        }
      ],
      "stateMutability": "view",
      "type": "function"
    },
    {
      "inputs": [
        {
          "internalType": "bytes4",
          "name": "interfaceId",
          "type": "bytes4"
        }
      ],
      "name": "supportsInterface",
      "outputs": [
        {
          "internalType": "bool",
          "name": "",
          "type": "bool"
        }
      ],
      "stateMutability": "view",
      "type": "function"
    },
    {
      "inputs": [
        {
          "internalType": "uint256",
          "name": "_skillId",
          "type": "uint256"
        },
        {
          "internalType": "address",
          "name": "_recipient",
          "type": "address"
        }
      ],
      "name": "transferIndividualSkill",
      "outputs": [],
      "stateMutability": "nonpayable",
      "type": "function"
    },
    {
      "inputs": [],
      "name": "treasuryAddress",
      "outputs": [
        {
          "internalType": "address",
          "name": "",
          "type": "address"
        }
      ],
      "stateMutability": "view",
      "type": "function"
    },
    {
      "inputs": [],
      "name": "unpause",
      "outputs": [],
      "stateMutability": "nonpayable",
      "type": "function"
    },
    {
      "inputs": [
        {
          "internalType": "uint256",
          "name": "_commonPrice",
          "type": "uint256"
        },
        {
          "internalType": "uint256",
          "name": "_uncommonPrice",
          "type": "uint256"
        },
        {
          "internalType": "uint256",
          "name": "_rarePrice",
          "type": "uint256"
        },
        {
          "internalType": "uint256",
          "name": "_epicPrice",
          "type": "uint256"
        },
        {
          "internalType": "uint256",
          "name": "_legendaryPrice",
          "type": "uint256"
        }
      ],
      "name": "updateActiveSkillsPricing",
      "outputs": [],
      "stateMutability": "nonpayable",
      "type": "function"
    },
    {
      "inputs": [
        {
          "internalType": "enum IStakingIntegration.SkillType",
          "name": "_skillType",
          "type": "uint8"
        },
        {
          "internalType": "enum IStakingIntegration.Rarity",
          "name": "_rarity",
          "type": "uint8"
        },
        {
          "internalType": "uint256",
          "name": "_price",
          "type": "uint256"
        }
      ],
      "name": "updateSkillPrice",
      "outputs": [],
      "stateMutability": "nonpayable",
      "type": "function"
    },
    {
      "inputs": [
        {
          "internalType": "uint256",
          "name": "_commonPrice",
          "type": "uint256"
        },
        {
          "internalType": "uint256",
          "name": "_uncommonPrice",
          "type": "uint256"
        },
        {
          "internalType": "uint256",
          "name": "_rarePrice",
          "type": "uint256"
        },
        {
          "internalType": "uint256",
          "name": "_epicPrice",
          "type": "uint256"
        },
        {
          "internalType": "uint256",
          "name": "_legendaryPrice",
          "type": "uint256"
        }
      ],
      "name": "updateStakingSkillsPricing",
      "outputs": [],
      "stateMutability": "nonpayable",
      "type": "function"
    },
    {
      "inputs": [
        {
          "internalType": "address",
          "name": "",
          "type": "address"
        },
        {
          "internalType": "enum IStakingIntegration.SkillType",
          "name": "",
          "type": "uint8"
        }
      ],
      "name": "userActiveSkillCount",
      "outputs": [
        {
          "internalType": "uint8",
          "name": "",
          "type": "uint8"
        }
      ],
      "stateMutability": "view",
      "type": "function"
    },
    {
      "inputs": [
        {
          "internalType": "address",
          "name": "",
          "type": "address"
        },
        {
          "internalType": "enum IStakingIntegration.SkillType",
          "name": "",
          "type": "uint8"
        },
        {
          "internalType": "uint256",
          "name": "",
          "type": "uint256"
        }
      ],
      "name": "userActiveSkills",
      "outputs": [
        {
          "internalType": "uint256",
          "name": "",
          "type": "uint256"
        }
      ],
      "stateMutability": "view",
      "type": "function"
    },
    {
      "inputs": [
        {
          "internalType": "address",
          "name": "",
          "type": "address"
        },
        {
          "internalType": "uint256",
          "name": "",
          "type": "uint256"
        }
      ],
      "name": "userIndividualSkills",
      "outputs": [
        {
          "internalType": "uint256",
          "name": "",
          "type": "uint256"
        }
      ],
      "stateMutability": "view",
      "type": "function"
    },
    {
      "stateMutability": "payable",
      "type": "receive"
    }
  ],
  "bytecode": "0x60806040523461002a576100196100146100bf565b61015f565b604051615747611189823961574790f35b5f80fd5b634e487b7160e01b5f52604160045260245ffd5b90601f01601f191681019081106001600160401b0382111761006357604052565b61002e565b9061007c61007560405190565b9283610042565b565b6001600160a01b031690565b90565b6001600160a01b0381160361002a57565b9050519061007c8261008d565b9060208282031261002a5761008a9161009e565b61008a6168d0803803806100d281610068565b9283398101906100ab565b61007e61008a61008a9290565b61008a906100dd565b61008a61008a61008a9290565b61008a5f6100f3565b906001600160a01b03905b9181191691161790565b61008a9061007e906001600160a01b031682565b61008a9061011e565b61008a90610132565b9061015461008a61015b9261013b565b8254610109565b9055565b6101676101e9565b61017361007e5f6100ea565b6001600160a01b038216146101d8576101c890610198610191610100565b3390610260565b6101c17fa49807205ce4d355092ef5a8a18f56e8913cf4a201fbe287825b095693c21775610191565b6008610144565b6101d0610375565b61007c6104e6565b63e6c4247b60e01b5f908152600490fd5b61007c61021b565b61008a60016100f3565b905f1990610114565b9061021461008a61015b926100f3565b82546101fb565b610223610255565b61007c61022e6101f1565b6002610204565b9060ff90610114565b9061024e61008a61015b92151590565b8254610235565b61007c5f600161023e565b9061007c916110d4565b61008a6802b5e3af16b18800006100f3565b61028961008a61008a9290565b60ff1690565b906102999061027c565b5f5260205260405f2090565b61008a6804563918244f4000006100f3565b61008a68056bc75e2d631000006100f3565b61008a680821ab0d44149800006100f3565b61008a680bed1d0263d9f000006100f3565b6102fa61008a61008a9290565b61ffff1690565b61008a6127106102ed565b9061ffff90610114565b6102fa61008a61008a9261ffff1690565b9061033761008a61015b92610316565b825461030c565b61008a613a986102ed565b61008a614e206102ed565b61008a6175306102ed565b61008a61c3506102ed565b61008a6161a86102ed565b6103ea61038061026a565b610395600a916103905f8461028f565b610204565b6103ab6103a06102a5565b61039060018461028f565b6103c16103b66102b7565b61039060028461028f565b6103d76103cc6102c9565b61039060038461028f565b61039060046103e46102db565b9261028f565b61007c6103f5610301565b610472600b61040d836104085f8461028f565b610327565b61046161041861033e565b916104288361040860018461028f565b61043e610433610349565b61040860028461028f565b610454610449610354565b61040860038461028f565b61040860046103e461035f565b610433600c9361040860018661028f565b61040860036103e461036a565b634e487b7160e01b5f52602160045260245ffd5b6011111561049d57565b61047f565b9061007c82610493565b61008a906104a2565b90610299906104ac565b6005111561049d57565b9061007c826104bf565b61008a906104c9565b90610299906104d3565b6104f16101f46102ed565b6104fd6001600d6104b5565b5f610507916104dc565b9061051191610327565b61051c6102bc6102ed565b6105286001600d6104b5565b6001610533916104dc565b9061053d91610327565b6105486103846102ed565b6105546001600d6104b5565b600261055f916104dc565b9061056991610327565b6105746104b06102ed565b806105816001600d6104b5565b600361058c916104dc565b9061059691610327565b6105a16106406102ed565b806105ae6001600d6104b5565b60046105b9916104dc565b906105c391610327565b6105ce6103e86102ed565b90816105dc6002600d6104b5565b5f6105e6916104dc565b906105f091610327565b6105fb6105146102ed565b806106086002600d6104b5565b6001610613916104dc565b9061061d91610327565b8161062a6002600d6104b5565b6002610635916104dc565b9061063f91610327565b61064a6108346102ed565b91826106586002600d6104b5565b6003610663916104dc565b9061066d91610327565b610678610af06102ed565b94856106866002600d6104b5565b6004610691916104dc565b9061069b91610327565b6106a66105dc6102ed565b91826106b46003600d6104b5565b5f6106be916104dc565b906106c891610327565b6106d361076c6102ed565b6106df6003600d6104b5565b60016106ea916104dc565b906106f491610327565b6106ff6108fc6102ed565b8061070c6003600d6104b5565b6002610717916104dc565b9061072191610327565b61072c610bb86102ed565b958661073a6003600d6104b5565b6003610745916104dc565b9061074f91610327565b61075a610ed86102ed565b6107666003600d6104b5565b6004610771916104dc565b9061077b91610327565b876107886004600d6104b5565b5f610792916104dc565b9061079c91610327565b856107a96004600d6104b5565b60016107b4916104dc565b906107be91610327565b826107cb6004600d6104b5565b60026107d6916104dc565b906107e091610327565b6107ec6004600d6104b5565b60036107f7916104dc565b9061080191610327565b61080c610a286102ed565b6108186004600d6104b5565b6004610823916104dc565b9061082d91610327565b8361083a6005600d6104b5565b5f610844916104dc565b9061084e91610327565b8761085a6107d06102ed565b95866108686005600d6104b5565b6001610873916104dc565b9061087d91610327565b6108886109c46102ed565b6108946005600d6104b5565b600261089f916104dc565b906108a991610327565b6108b4610dac6102ed565b6108c06005600d6104b5565b60036108cb916104dc565b906108d591610327565b6108e06111946102ed565b93846108ee6005600d6104b5565b60046108f9916104dc565b9061090391610327565b6006918a61091284600d6104b5565b5f61091c916104dc565b9061092691610327565b61093183600d6104b5565b600161093c916104dc565b9061094691610327565b61095182600d6104b5565b600261095c916104dc565b9061096691610327565b6109716108986102ed565b61097c82600d6104b5565b6003610987916104dc565b9061099191610327565b61099c90600d6104b5565b60046109a7916104dc565b906109b191610327565b6109bc6107086102ed565b97600791896109cc84600d6104b5565b5f6109d6916104dc565b906109e091610327565b6109eb83600d6104b5565b60016109f6916104dc565b90610a0091610327565b610a0b82600d6104b5565b6002610a16916104dc565b90610a2091610327565b610a2b610e746102ed565b610a3682600d6104b5565b6003610a41916104dc565b90610a4b91610327565b610a5690600d6104b5565b6004610a61916104dc565b90610a6b91610327565b84610a786008600d6104b5565b5f610a82916104dc565b90610a8c91610327565b81610a996008600d6104b5565b6001610aa4916104dc565b90610aae91610327565b82610abb6008600d6104b5565b6002610ac6916104dc565b90610ad091610327565b83610add6008600d6104b5565b6003610ae8916104dc565b90610af291610327565b610afd6113886102ed565b9586610b0b6008600d6104b5565b6004610b16916104dc565b90610b2091610327565b86600987610b2f82600d6104b5565b5f610b39916104dc565b90610b4391610327565b84610b4f82600d6104b5565b6001610b5a916104dc565b90610b6491610327565b85610b7082600d6104b5565b6002610b7b916104dc565b90610b8591610327565b86610b9182600d6104b5565b6003610b9c916104dc565b90610ba691610327565b610bb190600d6104b5565b6004610bbc916104dc565b90610bc691610327565b86600a87610bd582600d6104b5565b5f610bdf916104dc565b90610be991610327565b84610bf582600d6104b5565b6001610c00916104dc565b90610c0a91610327565b85610c1682600d6104b5565b6002610c21916104dc565b90610c2b91610327565b86610c3782600d6104b5565b6003610c42916104dc565b90610c4c91610327565b610c5790600d6104b5565b6004610c62916104dc565b90610c6c91610327565b610c776127106102ed565b600b90610c8582600d6104b5565b5f610c8f916104dc565b90610c9991610327565b610ca4612ee06102ed565b610caf82600d6104b5565b6001610cba916104dc565b90610cc491610327565b610ccf6136b06102ed565b610cda82600d6104b5565b6002610ce5916104dc565b90610cef91610327565b610cfa6146506102ed565b610d0582600d6104b5565b6003610d10916104dc565b90610d1a91610327565b610d25615dc06102ed565b90610d3190600d6104b5565b6004610d3c916104dc565b90610d4691610327565b600c9186610d5584600d6104b5565b5f610d5f916104dc565b90610d6991610327565b610d7483600d6104b5565b6001610d7f916104dc565b90610d8991610327565b610d946105786102ed565b610d9f83600d6104b5565b6002610daa916104dc565b90610db491610327565b610dbf82600d6104b5565b6003610dca916104dc565b90610dd491610327565b610ddf6109606102ed565b90610deb90600d6104b5565b6004610df6916104dc565b90610e0091610327565b610e0b613a986102ed565b610e16600d806104b5565b5f610e20916104dc565b90610e2a91610327565b610e35614e206102ed565b610e40600d806104b5565b6001610e4b916104dc565b90610e5591610327565b610e606165906102ed565b610e6b600d806104b5565b6002610e76916104dc565b90610e8091610327565b610e8b6175306102ed565b610e96600d806104b5565b6003610ea1916104dc565b90610eab91610327565b610eb66188b86102ed565b610ec1600d806104b5565b6004610ecc916104dc565b90610ed691610327565b84600e85610ee582600d6104b5565b5f610eef916104dc565b90610ef991610327565b82610f0582600d6104b5565b6001610f10916104dc565b90610f1a91610327565b83610f2682600d6104b5565b6002610f31916104dc565b90610f3b91610327565b84610f4782600d6104b5565b6003610f52916104dc565b90610f5c91610327565b610f6790600d6104b5565b6004610f72916104dc565b90610f7c91610327565b84600f85610f8b82600d6104b5565b5f610f95916104dc565b90610f9f91610327565b82610fab82600d6104b5565b6001610fb6916104dc565b90610fc091610327565b83610fcc82600d6104b5565b6002610fd7916104dc565b90610fe191610327565b84610fed82600d6104b5565b6003610ff8916104dc565b9061100291610327565b61100d90600d6104b5565b6004611018916104dc565b9061102291610327565b60109361103085600d6104b5565b5f61103a916104dc565b9061104491610327565b61104f84600d6104b5565b600161105a916104dc565b9061106491610327565b61106f83600d6104b5565b600261107a916104dc565b9061108491610327565b61108f82600d6104b5565b600361109a916104dc565b906110a491610327565b6110af90600d6104b5565b60046110ba916104dc565b9061007c91610327565b90610299565b906102999061013b565b6110e56110e18383611169565b1590565b6110ed575050565b61110c6001611107845f61110186826110c4565b016110ca565b61023e565b61112661112061111a339390565b9361013b565b9161013b565b917f2f8788117e7eff1d82e926ec794901d17c78024a50270940304540a733656f0d61115160405190565b5f90a4565b61008a90610289565b61008a9054611156565b61008a915f6111016111839361117c5f90565b50826110c4565b61115f56fe6080604052600436101561001a575b3615610018575f80fd5b005b5f3560e01c806301ffc9a7146103e9578063030f5782146103e45780630538809a146103df57806311f5483a146103da57806318f069b9146103d557806319be57ee146103d05780631bb445c2146103cb5780631d9ff7d0146103c65780631e1561b8146103c1578063234d41db146103bc578063248a9ca3146103b75780632eb849eb146103b25780632f2ff15d146103ad5780633535f48b146103a857806336568abe146103a35780633ede838c1461039e5780633f4ba83a1461039957806347474470146103945780634da15f5c1461038f5780635312ea8e1461038a578063554ba2201461038557806357762f6a146103805780635c975abb1461037b578063655277021461037657806365cd7949146103715780636605bfda1461036c578063676a5068146103675780636e4d63001461036257806372df82111461035d5780637354e29c1461035857806375b238fc146103535780638087dc461461034e5780638456cb5914610349578063850c1f1f146103445780638abad5f81461033f578063908960e01461033a57806391d1485414610335578063926207de14610330578063980c6d6d1461032b5780639dd373b914610326578063a217fddf14610321578063a42b6a8e1461031c578063a5d34cb114610317578063ab3acc2414610312578063b5619d261461030d578063bd6d022414610308578063c0e383d014610303578063c5f956af146102fe578063cc8854cc146102f9578063d2547664146102f4578063d283cb2f146102ef578063d547741f146102ea578063d7432c62146102e5578063dd191719146102e0578063de6bbf1d146102db578063e6b82d96146102d6578063ec2f5951146102d1578063f0ec2ce1146102cc578063f96ecb4b146102c7578063fd1828a9146102c25763fde4b2260361000e5761199a565b61195d565b611941565b611902565b6118e6565b6118ca565b6118af565b611888565b61186d565b611854565b611839565b61180f565b6117de565b611787565b611769565b61174d565b6116ed565b6116c3565b611693565b61164a565b61162f565b611606565b6115eb565b6115d2565b6115b6565b61159d565b611565565b611488565b611447565b611416565b61132e565b611315565b6112da565b6112bf565b6112a4565b611239565b611202565b610f7e565b610f4f565b610f30565b610eb6565b610e42565b610e1b565b610da5565b610d14565b610cea565b610b6f565b610b3a565b610af7565b610aa6565b6109dd565b6109c1565b6109a8565b61092f565b6108e0565b610842565b61077d565b6105e6565b610564565b610525565b61042f565b6001600160e01b031981165b0361040157565b5f80fd5b90503590610412826103ee565b565b906020828203126104015761042891610405565b90565b9052565b346104015761045c61044a610445366004610414565b6119c8565b60405191829182901515815260200190565b0390f35b6011111561040157565b9050359061041282610460565b6005111561040157565b9050359061041282610477565b806103fa565b905035906104128261048e565b909182601f830112156104015781359167ffffffffffffffff831161040157602001926001830284011161040157565b90608082820312610401576104e6818361046a565b926104f48260208501610481565b926105028360408301610494565b92606082013567ffffffffffffffff81116104015761052192016104a1565b9091565b61045c61053f6105363660046104d1565b939290926120c1565b6040515b9182918290815260200190565b906020828203126104015761042891610494565b346104015761057c610577366004610550565b61233e565b604051005b5f91031261040157565b0190565b61059f61059b60039390565b9190565b5f915b8383106105af5750505050565b6105cd6105c6600192845161ffff16815260200190565b9260200190565b920191906105a2565b606081019291610412919061058f565b34610401576105f6366004610581565b61045c6106016123c2565b604051918291826105d6565b634e487b7160e01b5f52602160045260245ffd5b6011111561062b57565b61060d565b9061041282610621565b61042890610630565b61042b9061063a565b6005111561062b57565b906104128261064c565b61042890610656565b61042b90610660565b6001600160a01b031690565b5f5b83811061068f5750505f910152565b8181015183820152602001610680565b6106c06106c960209361058b936106b4815190565b80835293849260200190565b9586910161067e565b601f01601f191690565b90610428906101008061076461012084016106f45f8801515f870190610643565b61070660208801516020870190610669565b61071560408801516040870152565b6060878101516001600160a01b03169086015261073760808801516080870152565b61074660a088015160a0870152565b60c08781015115159086015260e087015185820360e087015261069f565b940151910152565b6020808252610428929101906106d3565b346104015761045c610798610793366004610550565b61257f565b6040519182918261076c565b6001600160a01b0381166103fa565b90503590610412826107a4565b9190604083820312610401576104289060206107dc82866107b3565b940161046a565b906107fc6105c66107f2845190565b8084529260200190565b905f5b81811061080c5750505090565b9091926108296108226001928651815260200190565b9460200190565b9291016107ff565b6020808252610428929101906107e3565b346104015761045c61085e6108583660046107c0565b9061261d565b60405191829182610831565b919060408382031261040157610428906020610886828661046a565b9401610481565b906108979061063a565b5f5260205260405f2090565b9061089790610660565b610428916008021c81565b9061042891546108ad565b6108db610428926108d65f93600f61088d565b6108a3565b6108b8565b346104015761045c61053f6108f636600461086a565b906108c3565b610428916008021c5b61ffff1690565b9061042891546108fc565b61092a610428926108d65f93600d61088d565b61090c565b346104015761045c61094b61094536600461086a565b90610917565b6040515b9182918261ffff909116815260200190565b61ffff81166103fa565b9050359061041282610961565b909160608284031261040157610428610991848461046a565b9360406109a18260208701610481565b940161096b565b346104015761057c6109bb366004610978565b91612764565b346104015761045c61053f6109d736600461086a565b9061276f565b346104015761045c61053f6109f3366004610550565b61277f565b9060208282031261040157610428916107b3565b90610428916106d3565b90610a2c610a22835190565b8083529160200190565b9081610a3e6020830284019460200190565b925f915b838310610a5157505050505090565b90919293946020610a74610a6d83856001950387528951610a0c565b9760200190565b9301930191939290610a42565b6040808252610428939192610a9891840190610a16565b916020818403910152610a16565b3461040157610abe610ab93660046109f8565b612833565b9061045c610acb60405190565b92839283610a81565b919060408382031261040157610428906020610af08286610494565b94016107b3565b346104015761057c610b0a366004610ad4565b90612a71565b610428916008021c6001600160a01b031690565b906104289154610b10565b6104285f6009610b24565b3461040157610b4a366004610581565b61045c610b55610b2f565b604051918291826001600160a01b03909116815260200190565b346104015761057c610b82366004610ad4565b90612ae4565b9061058b81602093610643565b90610ba46105c66107f2845190565b905f5b818110610bb45750505090565b909192610bc76108226001928651610b88565b929101610ba7565b90610bde6105c66107f2845190565b905f5b818110610bee5750505090565b909192610c07610822600192865160ff16815260200190565b929101610be1565b90610c1e6105c66107f2845190565b905f5b818110610c2e5750505090565b909192610c446108226001928651815260200190565b929101610c21565b9061042891610c0f565b90610c62610a22835190565b9081610c746020830284019460200190565b925f915b838310610c8757505050505090565b90919293946020610ca3610a6d83856001950387528951610c4c565b9301930191939290610c78565b91610cdc90610cce610428959360608601908682035f880152610b95565b908482036020860152610bcf565b916040818403910152610c56565b3461040157610cfa366004610581565b61045c610d05612bb4565b60405191939193849384610cb0565b3461040157610d24366004610581565b61057c612da4565b90610d3b6105c66107f2845190565b905f5b818110610d4b5750505090565b909192610d6361082260019286511515815260200190565b929101610d3e565b91610d9790610d89610428959360608601908682035f880152610a16565b908482036020860152610d2c565b916040818403910152610d2c565b346104015761045c610dc0610dbb3660046109f8565b612dac565b60405191939193849384610d6b565b610ddb61059b60059390565b5f915b838310610deb5750505050565b610e026105c6600192845161ffff16815260200190565b92019190610dde565b60a0810192916104129190610dcf565b3461040157610e2b366004610581565b61045c610e36612fa1565b60405191829182610e0b565b346104015761057c610e55366004610550565b61311d565b90602082820312610401576104289161046a565b610e7a61059b60059390565b5f915b838310610e8a5750505050565b610e9d6105c66001928451815260200190565b92019190610e7d565b60a0810192916104129190610e6e565b346104015761045c610ed1610ecc366004610e5a565b613126565b60405191829182610ea6565b909160c08284031261040157610ef3838361046a565b92610f01816020850161096b565b92610f0f826040830161096b565b92610428610f20846060850161096b565b9360a06109a1826080870161096b565b346104015761057c610f43366004610edd565b949390939291926132ef565b3461040157610f5f366004610581565b61045c61044a6132fd565b906020828203126104015761042891610481565b346104015761045c61053f610f94366004610f6a565b613314565b6104286104286104289290565b9061089790610f99565b610428905b60ff1690565b6104289054610fb0565b6104289060081c610fb5565b6104289054610fc5565b6104289081565b6104289054610fdb565b61042890610672565b6104289054610fec565b634e487b7160e01b5f52602260045260245ffd5b9060016002830492168015611033575b602083101461102e57565b610fff565b91607f1691611023565b80545f93929161105961104f83611013565b8085529360200190565b91600181169081156110a8575060011461107257505050565b61108391929394505f5260205f2090565b915f925b8184106110945750500190565b805484840152602090930192600101611087565b92949550505060ff1916825215156020020190565b906104289161103d565b634e487b7160e01b5f52604160045260245ffd5b90601f01601f1916810190811067ffffffffffffffff8211176110fd57604052565b6110c7565b9061041261111c9261111360405190565b938480926110bd565b03836110db565b61112e906004610fa6565b61113781610fbb565b9161114182610fd1565b9161114e60018201610fe2565b9161115b60028301610ff5565b9161116860038201610fe2565b9161117560048301610fe2565b9161118260058201610fbb565b91610428600761119460068501611102565b9301610fe2565b999897969492909593916101208b01965f8c016111b791610643565b60208b016111c491610669565b60408a01526001600160a01b03166060890152608088015260a0870152151560c086015284810360e08601526111f99161069f565b61010090930152565b346104015761045c61121d611218366004610550565b611123565b9561123099979995919594929460405190565b998a998a61119b565b346104015761057c61124c3660046109f8565b6133bf565b60ff81166103fa565b9050359061041282611251565b90602082820312610401576104289161125a565b610fb56104286104289260ff1690565b906108979061127b565b5f61092a61042892600c61128b565b346104015761045c61094b6112ba366004611267565b611295565b34610401576112cf366004610581565b61045c610ed16133c8565b346104015761057c6112ed366004610550565b61356a565b91906040838203126104015761042890602061130e828661125a565b9401610494565b346104015761057c6113283660046112f2565b9061363b565b346104015761133e366004610581565b61045c5f5160206156f25f395f51905f5261053f565b906104289161069f565b9061136a610a22835190565b908161137c6020830284019460200190565b925f915b83831061138f57505050505090565b909192939460206113ab610a6d83856001950387528951611354565b9301930191939290611380565b939061042895936113ec611408946113de6113fa9460a08a01908a82035f8c0152610a16565b9088820360208a0152610d2c565b908682036040880152610d2c565b9084820360608601526107e3565b91608081840391015261135e565b346104015761045c61143161142c3660046109f8565b6136e3565b9161143e95939560405190565b958695866113b8565b3461040157611457366004610581565b61057c613902565b909160608284031261040157610428611478848461046a565b93604061130e8260208701610481565b346104015761057c61149b36600461145f565b91613a04565b9091606082840312610401576104286114ba84846107b3565b93604061130e826020870161046a565b610672610428610428926001600160a01b031690565b610428906114ca565b610428906114e0565b90610897906114e9565b634e487b7160e01b5f52603260045260245ffd5b8054821015611530576115286001915f5260205f2090565b910201905f90565b6114fc565b906115446115499260066114f2565b61088d565b8054821015610401576104289161155f91611510565b906108b8565b346104015761045c61053f61157b3660046114a1565b91611535565b9190604083820312610401576104289060206109a1828661125a565b346104015761057c6115b0366004611581565b90613af3565b346104015761045c61044a6115cc366004610ad4565b90613afd565b346104015761057c6115e5366004610ad4565b90613c95565b346104015761045c610dc06116013660046109f8565b613c9f565b346104015761057c6116193660046109f8565b613e72565b6104285f610f99565b61042861161e565b346104015761163f366004610581565b61045c61053f611627565b346104015761057c61165d366004611581565b90613f41565b610428916008021c610fb5565b906104289154611663565b61168e610428926115445f9360076114f2565b611670565b346104015761045c6116af6116a93660046107c0565b9061167b565b6040519182918260ff909116815260200190565b346104015761045c61085e6116d93660046109f8565b613f4b565b5f61092a61042892600b61128b565b346104015761045c61094b611703366004611267565b6116de565b919060a0838203126104015761171e8184610494565b9261172c8260208301610494565b9261042861173d8460408501610494565b93608061130e8260608701610494565b346104015761057c611760366004611708565b93929092614015565b61057c611777366004610550565b614248565b6104285f6008610b24565b3461040157611797366004610581565b61045c610b5561177c565b90959492610412946117d36117da926117cc6080966117c560a088019c5f890152565b6020870152565b6040850152565b6060830152565b0152565b346104015761045c6117f96117f43660046109f8565b614251565b9161180695939560405190565b958695866117a2565b346104015761045c61085e6118253660046109f8565b61437d565b5f61168e61042892600e61088d565b346104015761045c6116af61184f366004610e5a565b61182a565b346104015761057c611867366004610ad4565b90614491565b346104015761045c610e36611883366004610e5a565b61449b565b3461040157611898366004610581565b61057c6145d1565b5f6108db61042892600a61128b565b346104015761045c61053f6118c5366004611267565b6118a0565b346104015761045c6116af6118e03660046107c0565b906145d9565b346104015761057c6118f9366004611708565b939290926146b7565b3461040157611912366004610581565b61057c6146e5565b91906040838203126104015761042890602061130e82866107b3565b6115499060056114f2565b346104015761045c61053f61195736600461191a565b90611936565b346104015761057c611970366004610550565b6146ed565b604080825261042893919261198c91840190610a16565b916020818403910152610d2c565b34610401576119b26119ad3660046109f8565b61489a565b9061045c6119bf60405190565b92839283611975565b637965db0b60e01b6001600160e01b03198216149081156119e7575090565b61042891506001600160e01b0319166301ffc9a760e01b1490565b906104289594939291611a136149aa565b90611a299594939291611a24614a13565b611de4565b90610412614a45565b610fb56104286104289290565b6104286001611a32565b6104286010611a32565b6104286004611a32565b6104286104286104289260ff1690565b6104286032611a32565b9081526040810192916104129160200152565b61042862278d00610f99565b634e487b7160e01b5f52601160045260245ffd5b91908201809211611ab757565b611a96565b9060ff905b9181191691161790565b90611adb610428611ae29261063a565b8254611abc565b9055565b9061ff009060081b611ac1565b90611b03610428611ae292610660565b8254611ae6565b905f1990611ac1565b90611b23610428611ae292610f99565b8254611b0a565b906001600160a01b0390611ac1565b90611b49610428611ae2926114e9565b8254611b2a565b90611adb610428611ae292151590565b915f1960089290920291821b911b611ac1565b9190611b84610428611ae293610f99565b908354611b60565b610412915f91611b73565b818110611ba2575050565b80611baf5f600193611b8c565b01611b97565b9190601f8111611bc457505050565b611bd4610412935f5260205f2090565b906020601f840181900483019310611bf6575b6020601f909101040190611b97565b9091508190611be7565b919067ffffffffffffffff82116110fd57611c2582611c1f8554611013565b85611bb5565b5f90601f8311600114611c5d57611ae292915f9183611c52575b50505f19600883021c1916906002021790565b013590505f80611c3f565b90601f19831691611c71855f5260205f2090565b925f5b818110611cad57509160029391856001969410611c95575b50505002019055565b01355f19601f84166008021c191690555f8080611c8c565b92936020600181928786013581550195019301611c74565b906104129291611c00565b90815491680100000000000000008310156110fd5782611cf891600161041295018155611510565b90611b73565b6040906117da6104129496959396611d1d60608401985f850190610643565b6020830190610669565b611d4661042893611d3f60608401945f850190610643565b6020830152565b6040818303910152601981527f50555243484153455f494e444956494455414c5f534b494c4c00000000000000602082015260400190565b90610412611d8b60405190565b92836110db565b67ffffffffffffffff81116110fd57602090601f01601f19160190565b90611dc1611dbc83611d92565b611d7e565b918252565b3d15611ddf57611dd53d611daf565b903d5f602084013e565b606090565b509293929091611df38261063a565b611dfb611a3f565b90611e0b60ff83165b9160ff1690565b1080156120a3575b61207d57611e2084610660565b611e2e611e04610fb5611a53565b1161205757611e3c90611a5d565b8110801561203f575b6120285783611e5661059b5f610f99565b1461201757611e658383614a6e565b93843410611fff5791611f3c611fb292611f327ff38edfb531b7e5ecb36f5810588b0158177a68cbfc19fdf5e73bcc37b095bb8395611ea2600390565b99611eb5611eaf8c614b71565b9b614b84565b611f1c8b611ef9611edb610428611ed3611ecd611a8a565b42611aaa565b936004610fa6565b96611ef08d89611eeb8d82611acb565b611af3565b60018801611b13565b611f063360028801611b39565b611f134260038801611b13565b60048601611b13565b611f295f60058601611b50565b60068401611cc5565b6007429101611b13565b611f5386611f4e6104283360056114f2565b611cd0565b611f5c336114e9565b93847fa24add44f839e4a174295a620f3ddbb4677703fc07bf693e61c6e52e920359c7611f8889610f99565b978893611fa1611f9760405190565b9283928884611cfe565b0390a3604051918291349083611d27565b0390a3611fe55f80611fcf611fca611fca6008610ff5565b6114e9565b6040515f9134905af1611fe0611dc6565b501590565b611fec5790565b63e6c4247b60e01b5f90815260045b035ffd5b63af608abb60e01b5f908152611ffb34876004611a77565b635e765b2560e11b5f908152600490fd5b639cb3af6760e01b5f908152600491909152602490fd5b5061205061204b611a6d565b611a5d565b8111611e45565b5f611ffb61206486610660565b63ad2489af60e01b835260ff1660048301526024820190565b5f611ffb61208a8561063a565b6327987c8f60e01b835260ff1660048301526024820190565b506120ad8361063a565b6120bb611e04610fb5611a49565b11611e13565b61042894939291905f611a02565b610412906120db6149aa565b61212d565b6106726104286104289290565b610428906120e0565b6104286003610f99565b6001610428910160ff1690565b90611adb610428611ae29261127b565b6020810192916104129190610643565b600461213c6104288383610fa6565b906002820161214a81610ff5565b61215c335b916001600160a01b031690565b0361232e5761216a90610ff5565b61217961214f6106725f6120ed565b1461231757600582019061218c82610fbb565b6123095780830161219f61042882610fe2565b4210156122e557506121b033614bdb565b6121d96121d45f6121c23360076114f2565b9501946121ce86610fbb565b9061088d565b610fbb565b6121e16120f6565b906121ec8291611a5d565b10156122be57505090612203600161226f93611b50565b61222183611f4e6104286122183360066114f2565b6121ce86610fbb565b61225261223b6122323360076114f2565b6121ce84610fbb565b61224c61224782610fbb565b612100565b9061210d565b6121d461225e82610fbb565b61226783610fd1565b908533614d0d565b907f3c1e2947eccfc26b7af1957d6b147f0437d82aa658e1d63fa59cca763922430f6122b96122a66122a0336114e9565b93610f99565b936122b060405190565b9182918261211d565b0390a3565b5f916122cc611ffb92611a32565b63567af16960e01b845260ff1690830190815260200190565b5f916122f3611ffb92610fe2565b6364c0907560e11b845290830190815260200190565b6393f3800760e01b5f908152fd5b639eeb380960e01b5f90815283825290602001035ffd5b632500456d60e01b5f9081528290fd5b610412906120cf565b67ffffffffffffffff81116110fd5760200290565b611dbc61042891612347565b369037565b9061041261238361237d8461235c565b93612347565b83612368565b610428600361236d565b9061089790611a32565b61042890610905565b610428905461239d565b9060035b811015611530576020020190565b6123ca612389565b61042861242b6123e86003600c6124086123ed6123e8600184612393565b6123a6565b6123ff6123f95f610f99565b896123b0565b9061ffff169052565b6124266124196123e8600284612393565b6123ff6123f96001610f99565b612393565b6123ff6124386002610f99565b846123b0565b610428610120611d7e565b61245161243e565b905f8252602080808080808080808a015f8152015f8152015f8152015f8152015f8152015f81520160608152015f905250565b610428612449565b9061042b90610630565b9061042b90610656565b9061041261256e60076124b161243e565b946124c46124be82610fbb565b8761248c565b6124d96124d082610fd1565b60208801612496565b6124ef6124e860018301610fe2565b6040880152565b61250e6124fe60028301610ff5565b6001600160a01b03166060880152565b61252461251d60038301610fe2565b6080880152565b61253a61253360048301610fe2565b60a0880152565b61255261254960058301610fbb565b151560c0880152565b61256861256160068301611102565b60e0880152565b01610fe2565b610100840152565b610428906124a0565b6125966104289161258e612484565b506004610fa6565b612576565b906125b46125aa6107f2845490565b925f5260205f2090565b905f5b8181106125c45750505090565b9091926125e86125e16001926125d987610fe2565b815260200190565b9460010190565b9291016125b7565b906104289161259b565b9061041261111c9261260b60405190565b938480926125f0565b610428906125fa565b6104289161154461263892612630606090565b5060066114f2565b612614565b61041292919061265e5f5160206156f25f395f51905f52614da8565b614da8565b612695565b9061ffff90611ac1565b6109056104286104289261ffff1690565b9061268e610428611ae29261266d565b8254612663565b61269e8161063a565b6126ac611e04610fb5611a3f565b108015612746575b612739576126c182610660565b6126cf611e04610fb5611a53565b1161272c576122b961272261271c8361271787612712886108d67f4fec850a3969cc2947a35d356d1d1423b857a49ca7ee4ad738e382cfbd6abfa699600d61088d565b61267e565b61063a565b93610660565b9361094f60405190565b5f611ffb61206484610660565b611ffb61208a5f9261063a565b506127508161063a565b61275e611e04610fb5611a49565b116126b4565b90610412929161263d565b6104289190614a6e565b90610897565b60016125686104289261278f5f90565b505f612779565b9061279f825190565b811015611530576020809102010190565b6104289051610630565b5f198114611ab75760010190565b67ffffffffffffffff81116110fd5760208091020190565b90611dc1611dbc836127c8565b5f5b8281106127fb57505050565b602090612806612484565b81840152016127ef565b90610412612826612820846127e0565b936127c8565b601f1901602084016127ed565b61263861284a91612842606090565b5060056114f2565b906128545f610f99565b80805b612862610428865190565b811015612931576128956127175f61288f6125966004612889612885888d612796565b5190565b90610fa6565b016127b0565b61289f6001611a32565b60ff821610158061291b575b156128ca5750906128be6128c5916127ba565b9160010190565b612857565b6128d46008611a32565b60ff821610159081612904575b506128ef575b600101612857565b916128fc6128c5916127ba565b9290506128e7565b9050612913611e046010611a32565b11155f6128e1565b506129266007611a32565b60ff821611156128ab565b5061293e61294491612810565b91612810565b9061294e5f610f99565b9081825b61295d610428885190565b841015612a4c576129796125966004612889612885888c612796565b612985612717826127b0565b61298f6001611a32565b60ff8216101580612a36575b156129d15750816129c4916129b36129cb9487612796565b526129be8186612796565b506127ba565b9360010190565b92612952565b6129de6008969396611a32565b60ff821610159081612a1f575b506129fa575b506001016129cb565b82612a1891612a0d6129cb949589612796565b526129be8188612796565b91906129f1565b9050612a2e611e046010611a32565b11155f6129eb565b50612a416007611a32565b60ff8216111561299b565b5050919350509190565b9061041291612a676126598261277f565b9061041291614db3565b9061041291612a56565b15612a8257565b60405162461bcd60e51b815260206004820152602f60248201527f416363657373436f6e74726f6c3a2063616e206f6e6c792072656e6f756e636560448201526e103937b632b9903337b91039b2b63360891b606482015280608481015b0390fd5b6104129190612b05612af533610672565b6001600160a01b03841614612a7b565b614e21565b90610412612b1a612820846127e0565b601f190160208401612368565b5f5b828110612b3557505050565b606082820152602001612b29565b90610412612b53612820846127e0565b601f190160208401612b27565b60ff1660ff8114611ab75760010190565b612b816104286104289260ff1690565b610630565b612b929060ff16611e04565b90039060ff8211611ab757565b612baf6104286104289260ff1690565b610656565b6010612bc06010610f99565b91612bca83612b0a565b612bdc612bd685612b0a565b94612b43565b9260019081612bea81611a32565b905b612bf9575b505050929190565b612c0282611a32565b60ff821611612d7e5782612c1582612b71565b612c3c81612c37612c3161204b612c2b87611a32565b88612b86565b89612796565b61248c565b612c466007611a32565b60ff841611612d6957612c86612c5b5f611a32565b949392945b612c7e612c7861204b612c7289611a32565b87612b86565b8c612796565b9060ff169052565b6005612ccb612cc5612c9f612c9a84610f99565b612b0a565b612cab612c7289611a32565b90612cbf8d612cb984611a5d565b90612796565b52611a5d565b8a612796565b5084612cd65f611a32565b905b612cf0575b505050612ce990612b60565b9091612bec565b612cfd8296949596611a32565b60ff82161015612d6057806122478b612d54612d4a612d34612d2f612d24612d5798612b9f565b6108d68b600f61088d565b610fe2565b92612cb961204b612d448c611a32565b8d612b86565b51612cb985611a5d565b52565b83959493612cd8565b94939294612cdd565b612c86612d7583611a32565b94939294612c60565b612bf1565b612d995f5160206156f25f395f51905f52614da8565b610412610412614ec4565b610412612d83565b612638612dbb91612842606090565b90612dc55f610f99565b805b612dd2610428855190565b811015612e4e57612df86127175f612df26004612889612885878b612796565b01610fbb565b612e026001611a32565b60ff821610159081612e37575b50612e22575b600101612dc7565b612dc7565b90612e2f612e1d916127ba565b919050612e15565b9050612e46611e046007611a32565b11155f612e0f565b50612e5881612810565b612e6a612e6483612b0a565b92612b0a565b90612e745f610f99565b91825b612e82610428885190565b811015612f8557612ea3612596612e9c612885848b612796565b6004610fa6565b612eaf612717826127b0565b612eb96001611a32565b60ff821610159081612f6e575b50612eda575b50600101612e77565b612e77565b84612f40612f3361042860a085612f4596612ef9612ed5999c8c612796565b52612f04868b612796565b5085612f1360c0830151151590565b8d81612f4c575b612f2e92612f2791612796565b9015159052565b015190565b421015612f278387612796565b6127ba565b9390612ecc565b9050612f27612f2e92612f626104288787015190565b42109291509250612f1a565b9050612f7d611e046007611a32565b11155f612ec6565b5090945091929050565b610428600561236d565b9060056123b4565b612fa9612f8f565b612fb25f611a32565b612fbc6005611a32565b60ff82161015612ff25780612247612fdb6123e8612fed94600b61128b565b6123ff612fe784611a5d565b86612f99565b612fb2565b5090565b610412906130105f5160206156f25f395f51905f52614da8565b613036565b61042b90610f99565b908152604081019291610412916020905b0190613015565b61303f5f610f99565b81146131035761304e306114e9565b803182116130e957506130616008610ff5565b61307061214f6106725f6120ed565b14611fec5761309b5f8061308a611fca611fca6008610ff5565b6040515f9186905af1611fe0611dc6565b611fec576130a96008610ff5565b7f3ab9db27a4cdd8c603a752b62d5fbd93b4b3509fe2596708e9688e42bbac35766122b96130df6130d9336114e9565b936114e9565b9361054360405190565b63af608abb60e01b5f90815291611ffb9131906004611a77565b63af608abb60e01b5f90815290611ffb908290600461301e565b61041290612ff6565b61312e612f8f565b906131385f611a32565b6131426005611a32565b60ff8216101561317c578061224761316561315f61317794612b9f565b85614a6e565b612d5461317184611a5d565b87612f99565b613138565b505090565b6104129594939291906131a05f5160206156f25f395f51905f52614da8565b929093916131ad8461063a565b6131bb611e04610fb5611a3f565b1080156132d1575b6132c457908392916132288761271260046108d66132b699600d6131ef8d6127125f6108d6868661088d565b6132028861271260016108d6868661088d565b6132158961271260026108d6868661088d565b6115448a61271260036108d6868661088d565b7f4fec850a3969cc2947a35d356d1d1423b857a49ca7ee4ad738e382cfbd6abfa6956132538561063a565b876132606127225f610660565b0390a361326c8461063a565b8661327a6127226001610660565b0390a36132868361063a565b856132946127226002610660565b0390a36132a08261063a565b846132ae6127226003610660565b0390a361063a565b906122b96127226004610660565b5f611ffb61208a8661063a565b506132db8461063a565b6132e9611e04610fb5611a49565b116131c3565b906104129594939291613181565b6104286001610fbb565b612b816104286104289290565b612d2f610428916133225f90565b506108d66133306008613307565b600f61088d565b610412906133515f5160206156f25f395f51905f52614da8565b61335d6106725f6120ed565b6001600160a01b03821614611fec5761338d61338761337c6008610ff5565b611fca846008611b39565b916114e9565b907f430359a6d97ced2b6f93c77a91e7ce9dfd43252eb91e916adba170485cd8a6a46133b860405190565b80806122b9565b61041290613337565b6133d0612f8f565b6133d95f611a32565b6133e36005611a32565b60ff82161015612ff25780612247613402612d2f61340e94600a61128b565b612d54612fe784611a5d565b6133d9565b6104129061341f6149aa565b613431565b6001610428910360ff1690565b61343f610428826004610fa6565b61344b60028201610ff5565b6134543361214f565b03613559576005810161346d61346982610fbb565b1590565b613548575f61347b91611b50565b6134a5613469836134a06104285f6134943360066114f2565b9601956121ce87610fbb565b614f07565b613532576134da906134be6121d46122323360076114f2565b6134ca611e045f611a32565b1161350b575b6121d48333614fa3565b907f83c082921b7caf1a96d9ce647becd54e4ff5e95f02eb8b2b3d23fb2daecfa4686122b96122a66122a0336114e9565b61352d61351c6122323360076114f2565b61224c61352882610fbb565b613424565b6134d0565b6372e2506b60e11b5f9081526004839052602490fd5b636379c45760e11b5f908152600490fd5b632500456d60e01b5f908152600490fd5b61041290613413565b610412919061358e5f5160206156f25f395f51905f52614da8565b613599610fb5611a53565b60ff821611613621576135ab5f610f99565b8214613609576136046135fa6135f5836135f0866135eb7fb72dc354a47d0e65eede275ad8905a7d03efc42c5699b7ce2cfd946f0902f76d97600a61128b565b611b13565b612b9f565b610660565b9261054360405190565b0390a2565b63af608abb60e01b5f908152611ffb8184600461301e565b63ad2489af60e01b5f90815260ff9091166004526024035ffd5b9061041291613573565b5f5b82811061365357505050565b606082820152602001613647565b90610412613671612820846127e0565b601f190160208401613645565b91908203918211611ab757565b6136956007611daf565b662aa725a727aba760c91b602082015290565b6136b26008611daf565b67504c4154464f524d60c01b602082015290565b6136d06007611daf565b665354414b494e4760c81b602082015290565b6126386136f291612842606090565b906136fb825190565b9061370582612810565b61370e83612b0a565b61371784612b0a565b9061372185612b0a565b9561372b86613661565b946137355f610f99565b875b8110156138d2576138338187818c60a061375d612596612e9c6128856137379a8d612796565b61377f8461376d612717846127b0565b96836137798383612796565b52612796565b508361378e60c0830151151590565b8c816138b0575b6137a292612f2791612796565b016137bf8b612f27856137b6610428865190565b42101592612796565b6137ca610428825190565b42101561389a576137f0926137ea6137e3612d54935190565b429061367e565b92612796565b6137fa6001611a32565b60ff8216101580613884575b1561383a57506138216138176136c6565b612d54838c612796565b61382b818a612796565b505b60010190565b9050613735565b6138446008611a32565b60ff82161015908161386d575b5015613862576138216138176136a8565b61382161381761368b565b905061387c611e046010611a32565b11155f613851565b5061388f6007611a32565b60ff82161115613806565b50612d546138ab926137ea5f610f99565b6137f0565b9050612f276137a2926138c66104288787015190565b42109291509250613795565b50929550509492919493929190565b6138f75f5160206156f25f395f51905f52614da8565b610412610412615040565b6104126138e1565b6104129291906139265f5160206156f25f395f51905f52614da8565b61394a565b61042b90611a5d565b908152604081019291610412916020019061392b565b929190926139578161063a565b613965611e04610fb5611a3f565b1080156139e6575b6127395761397a84610660565b613988611e04610fb5611a53565b11612057576139d06139ca856135f5856135eb7fe39dd15db0b108e8191c7305d60bd9fc58ebf4a2a296a1d49252bababa47eed19798996108d688600f61088d565b9161063a565b926136046139dd60405190565b92839283613934565b506139f08161063a565b6139fe611e04610fb5611a49565b1161396d565b90610412929161390a565b6104129190613a2a5f5160206156f25f395f51905f52614da8565b613a70565b6109056104286104289290565b6104286104286104289261ffff1690565b61042b90613a3c565b91602061041292949361302f60408201965f830190613a4d565b613a7b610fb5611a53565b60ff82161161362157613a8d5f613a2f565b61ffff831614613adb57613604613ad16135f5836135f0866127127f3e299cb159d184adb21adbcd6d53a9058d9a4cc7380dd2ddfafdfe7e0591209197600b61128b565b9261094f60405190565b63af608abb60e01b5f908152611ffb81846004613a56565b9061041291613a0f565b610428915f613b176121d493613b105f90565b5082612779565b016114f2565b9061041291613b2a6149aa565b613b335f6120ed565b6001600160a01b0381166001600160a01b03841614611fec57600490613b5c6104288484610fa6565b916002830191613b7e61214f613b7185610ff5565b926001600160a01b031690565b14613c7e57613b8c82610ff5565b613b953361214f565b03613c7057613ba660058401610fbb565b613c6257808301613bb961042882610fe2565b4210156122e55750613bd6613469856134a06104283360056114f2565b613c4b5750613bfc91613bea855f93611b39565b612df284611f4e6104288860056114f2565b917f94855b6276c7880af847d362eadca337daa949f718fbfaa881bcea598fb2281a613c46613c3c613c36613c30336114e9565b946114e9565b94610f99565b946122b060405190565b0390a4565b6372e2506b60e11b5f90815284825290602001035ffd5b63ee0c112d60e01b5f908152fd5b632500456d60e01b5f908152fd5b639eeb380960e01b5f90815284825290602001035ffd5b9061041291613b1d565b612638613cae91612842606090565b90613cb85f610f99565b805b613cc5610428855190565b811015613d3b57613ce56127175f612df26004612889612885878b612796565b613cef6008611a32565b60ff821610159081613d24575b50613d0f575b600101613cba565b613cba565b90613d1c613d0a916127ba565b919050613d02565b9050613d33611e046010611a32565b11155f613cfc565b50613d4581612810565b613d51612e6483612b0a565b90613d5b5f610f99565b91825b613d69610428885190565b811015612f8557613d83612596612e9c612885848b612796565b613d8f612717826127b0565b613d996008611a32565b60ff821610159081613de0575b50613dba575b50600101613d5e565b613d5e565b84612f40612f3361042860a085613dd996612ef9613db5999c8c612796565b9390613dac565b9050613def611e046010611a32565b11155f613da6565b61041290613e115f5160206156f25f395f51905f52614da8565b613e1d6106725f6120ed565b6001600160a01b03821614611fec57613e47613387613e3c6009610ff5565b611fca846009611b39565b907f7042586b23181180eb30b4798702d7a0233b7fc2551e89806770e8e5d9392e6a6133b860405190565b61041290613df7565b6104129190613e965f5160206156f25f395f51905f52614da8565b613eab565b602081019291610412919061392b565b613eb56001611a32565b60ff8216108015613f2c575b613f1457613ece5f613a2f565b61ffff831614613adb57613604613ad182613f0f856127127fe87979c49b87f32e5440592a4640d358a5ba1c9a89581c040e549ae9ab43035096600c61128b565b61127b565b639cb3af6760e01b5f90815290611ffb906004613e9b565b50613f376003611a32565b60ff821611613ec1565b9061041291613e7b565b61263861042891612842606090565b6104129493929190613f785f5160206156f25f395f51905f52614da8565b91949394929092613f896008611a32565b613f936010611a32565b60ff82161161400c5780614002886135eb60046108d6613fb561400797612b71565b600f613fc98c6135eb5f6108d6868661088d565b613fdc8d6135eb60016108d6868661088d565b613fef8a6135eb60026108d6868661088d565b6115448b6135eb60036108d6868661088d565b612b60565b613f89565b50505050509050565b9061041294939291613f5a565b6104129061402e6149aa565b61403f9061403a614a13565b6140ba565b610412614a45565b634e487b7160e01b5f52601260045260245ffd5b8115614065570490565b614047565b61408261042893611d3f60608401945f850190610643565b6040818303910152601681527f52454e45575f494e444956494455414c5f534b494c4c00000000000000000000602082015260400190565b6004906140ca6104288284610fa6565b906140d760028301610ff5565b6140e03361214f565b0361423857828201916140f561042884610fe2565b4210614214579161412a61411a61410b85610fbb565b61411486610fd1565b90614a6e565b6141246002610f99565b9061405b565b8034106141fb57506141ce6141c06141b8946141ac946141797ff38edfb531b7e5ecb36f5810588b0158177a68cbfc19fdf5e73bcc37b095bb8395612d2f614173611ecd611a8a565b82611b13565b907f4f265249e3faa5652094d4e493ca94e1c30eb9febc9372aeeb501a52c4ab00136141a4336114e9565b978892610f99565b98899361054360405190565b0390a3610fbb565b60405191829134908361406a565b0390a36141e65f80611fcf611fca611fca6008610ff5565b6141ed5750565b63e6c4247b60e01b5f908152fd5b63af608abb60e01b5f90815290611ffb90349087611a77565b5f611ffb8561422286610fe2565b635935648960e01b845290830190815260200190565b632500456d60e01b5f9081528390fd5b61041290614022565b905f809281614265612638849360056114f2565b8051946142715f610f99565b945b868610156143705761429061259660046128896128858a88612796565b9761429d6127178a6127b0565b6142a76001611a32565b60ff821610158061435a575b156142fe575061042860a06142ca6142d0936127ba565b9a015190565b4210156142f0576142e36142ea916127ba565b9560010190565b94614273565b94936125e16142ea916127ba565b61430b60089a929a611a32565b60ff821610159081614343575b50614327575b60a001516142d0565b9361042860a06143396142d0936127ba565b969250505061431e565b9050614352611e046010611a32565b11155f614318565b506143656007611a32565b60ff821611156142b3565b9450919490509493929190565b61263861438c91612842606090565b906143965f610f99565b805b6143a3610428855190565b8110156143f1576143c861042860046125686143c2612885868a612796565b82610fa6565b42106143dc575b600101614398565b614398565b906143e96143d7916127ba565b9190506143cf565b506143fb90612b0a565b916144055f610f99565b92835b614413610428845190565b8110156144705761443261042860046125686143c26128858689612796565b4210614446575b600101614408565b614408565b9361446861444191612f4061445e6128858988612796565b612d548387612796565b949050614439565b50925050565b90610412916144876126598261277f565b9061041291614e21565b9061041291614476565b6144a3612f8f565b906144ad8161063a565b6144bb611e04610fb5611a3f565b108015614577575b612739576145646123e860046108d661042894600d6144fe6144ec6123e85f6108d6868661088d565b6123ff6144f85f610f99565b8b612f99565b6145206145136123e860016108d6868661088d565b6123ff6144f86001610f99565b6145426145356123e860026108d6868661088d565b6123ff6144f86002610f99565b6115446145576123e860036108d6868661088d565b6123ff6144f86003610f99565b6123ff6145716004610f99565b84612f99565b506145818161063a565b61458f611e04610fb5611a49565b116144c3565b6145ab5f5160206156f25f395f51905f52614da8565b6104126145b7306114e9565b316145c15f610f99565b8114613103576130616008610ff5565b610412614595565b610428916115446121d4926145eb5f90565b5060076114f2565b61041294939291906146115f5160206156f25f395f51905f52614da8565b91929092600193846146236001611a32565b905b614633575b50505050505050565b61463d6007611a32565b60ff8216116146b2576146ac81614002896135eb60046108d66146608d98612b71565b600f6146748e6135eb5f6108d6868661088d565b6146868b6135eb8c6108d6868661088d565b6146998c6135eb60026108d6868661088d565b6115448d6135eb60036108d6868661088d565b90614625565b61462a565b90610412949392916145f3565b6146da5f5160206156f25f395f51905f52614da8565b6104126104126150e4565b6104126146c4565b60046146fc6104288383610fa6565b9061470960028301610ff5565b6147123361214f565b03613c705780820161472661042882610fe2565b421061488c57506005820161473a81610fbb565b6147ee575b50614755613469846134a06104283360056114f2565b6147d757506147aa9161479e9161476b90610fbb565b907f11ff84a00d533cdc33fdd8daf084ef19d5c0586defb48904fe2e0662dfc6de14614796336114e9565b938492610f99565b9485936122b060405190565b0390a37f50a744fa6f7ccdc3205bb1024e3d645d99213fc48d0315cd42a1710ddd1666e46133b860405190565b6372e2506b60e11b5f90815283825290602001035ffd5b5f6147f891611b50565b6148033360066114f2565b61481d613469856134a06104285f8801956121ce87610fbb565b614876576148326121d46122323360076114f2565b61483e611e045f611a32565b11614855575b5061484f8333614fa3565b5f61473f565b61351c614870916121ce61486a3360076114f2565b91610fbb565b5f614844565b6372e2506b60e11b5f9081528483526020830190fd5b5f91614222611ffb92610fe2565b6126386148a991612842606090565b906148ba6148b5835190565b612810565b6148c5612c9a845190565b926148cf5f610f99565b6148da610428835190565b8110156149655761493e906148fa61259660046128896128858588612796565b6149048286612796565b5261490f8185612796565b5061492861042860a06149228488612796565b51015190565b421080614943575b61382d90612f278389612796565b6148cf565b5061382d61495e60c06149568488612796565b510151151590565b9050614930565b50509190565b1561497257565b60405162461bcd60e51b815260206004820152601060248201526f14185d5cd8589b194e881c185d5cd95960821b6044820152606490fd5b6104126149b86134696132fd565b61496b565b6104286002610f99565b156149ce57565b60405162461bcd60e51b815260206004820152601f60248201527f5265656e7472616e637947756172643a207265656e7472616e742063616c6c006044820152606490fd5b610412614a206002610fe2565b614a34614a2b6149bd565b918214156149c7565b6002611b13565b6104286001610f99565b610412614a34614a3b565b81810292918115918404141715611ab757565b610428612710610f99565b614b6c614b50614a8861042894614a825f90565b50610660565b92614b4a614b45614b3d614aa0612d2f88600a61128b565b93614b37614b31614ab1600561235c565b92614ac8614ac0612710613a2f565b61ffff168552565b614ae1614ad6613a98613a2f565b61ffff166020860152565b614afa614aef614e20613a2f565b61ffff166040860152565b614b13614b08616d60613a2f565b61ffff166060860152565b614b2c614b216188b8613a2f565b61ffff166080860152565b6151e4565b98611a5d565b90612f99565b5161ffff1690565b613a3c565b90614a50565b91614b4a614b66614b5f614a63565b809561405b565b91613a3c565b61405b565b5f61042891614b7d5f90565b5001610fe2565b61041290614ba25f614b966001610f99565b92019161058b83610fe2565b90611b13565b905051906104128261048e565b906020828203126104015761042891614ba8565b610428680d8d726b7177a80000610f99565b614be56009610ff5565b614bf461214f6106725f6120ed565b14614cc6575f614c3d8192614c4c614c0c6009610ff5565b91614c1660405190565b63857184d160e01b6020820152938491602483016001600160a01b03909116815260200190565b602082018103825203836110db565b602082519201905afa614c5d611dc6565b9080614caf575b614c6b5750565b806020614c79614c84935190565b818301019101614bb5565b614c8c614bc9565b808210614c97575050565b63109ddee960e21b5f90815291611ffb916004611a77565b508051614cbf61059b6020610f99565b1015614c64565b50565b614d0361041294614cf9606094989795614cf2608086019a5f8701906001600160a01b03169052565b6020850152565b60ff166040830152565b019061ffff169052565b909192614d1a6009610ff5565b614d2961214f6106725f6120ed565b14614da257614d389084615339565b91614d425f613a2f565b61ffff841614614da257614d9c93614d8a5f9493614c3d8695614d6e614d686009610ff5565b9561063a565b604051630c4e865560e21b602082015296879460248601614cc9565b82602083519301915af1611fe0611dc6565b61041257565b50505050565b610412903390615409565b614dc06134698383613afd565b614dc8575050565b614de16001614ddc845f613b178682612779565b611b50565b614def6133876130d9339390565b917f2f8788117e7eff1d82e926ec794901d17c78024a50270940304540a733656f0d614e1a60405190565b8080613c46565b614e2b8282613afd565b614e33575050565b614e465f614ddc8482613b178682612779565b614e546133876130d9339390565b917ff6391f5c32d9c69d2a47ea670b442974b53935d1edc7fd64eb21e047a839171b614e1a60405190565b614e876154d9565b610412614e955f6001611b50565b7f5db9ee0a495bf2e6ff9c91a7834c1ba4fdd244a5e8aa4e537bd38aeae4b073aa614ebf33610b55565b0390a1565b610412614e7f565b634e487b7160e01b5f52603160045260245ffd5b80548015614f02575f190190614eff614ef98383611510565b90611b8c565b55565b614ecc565b614f105f610f99565b614f1b610428835490565b811015614f7f57614f2f61155f8284611510565b8314614f3d57600101614f10565b915080614f7a614f4e610428935490565b93611cf8614f7361155f614f6d600198614f678a610f99565b9061367e565b86611510565b9184611510565b614ee0565b5050505f90565b6001600160a01b0390911681526040810192916104129160200152565b90614fae6009610ff5565b614fbd61214f6106725f6120ed565b14614ffc575f8091614d9c93614d8a614fd66009610ff5565b91614c3d614fe360405190565b638925781760e01b602082015294859260248401614f86565b5050565b6150086149aa565b610412615016600180611b50565b7f62e78cea01bee320cd4e420270b5ea74000d11b0c9f74754ebdbfc544b05a258614ebf33610b55565b610412615000565b6104286802b5e3af16b1880000610f99565b6104286804563918244f400000610f99565b61042868056bc75e2d63100000610f99565b610428680821ab0d4414980000610f99565b610428680bed1d0263d9f00000610f99565b610428612710613a2f565b610428613a98613a2f565b610428614e20613a2f565b610428617530613a2f565b61042861c350613a2f565b6104286161a8613a2f565b6151546150ef615048565b6150ff600a916135eb5f84612393565b61511561510a61505a565b6135eb600184612393565b61512b61512061506c565b6135eb600284612393565b61514161513661507e565b6135eb600384612393565b6135eb600461514e615090565b92612393565b61041261515f6150a2565b6151d7600b615172836127125f84612393565b6151c661517d6150ad565b9161518d83612712600184612393565b6151a36151986150b8565b612712600284612393565b6151b96151ae6150c3565b612712600384612393565b612712600461514e6150ce565b615198600c93612712600186612393565b612712600361514e6150d9565b6151ee6001610630565b6151f782610630565b036152085750610428612710613a2f565b6152126002610630565b61521b82610630565b0361522c5750610428613a98613a2f565b6152366003610630565b61523f82610630565b0361525057506104286155f0613a2f565b61525a6004610630565b61526382610630565b036152745750610428614650613a2f565b61527e6005610630565b61528782610630565b036152985750610428613e80613a2f565b6152a26006610630565b6152ab82610630565b036152bc57506104286136b0613a2f565b6152c66007610630565b6152cf82610630565b036152e05750610428614e20613a2f565b6152e98161063a565b6152f6611e046008611a32565b1015908161531a575b5061530f57610428612710613a2f565b610428612ee0613a2f565b615324915061063a565b615331611e046010611a32565b11155f6152ff565b615353916108d66123e89261534b5f90565b50600d61088d565b61535c5f613a2f565b61ffff8216146153695790565b506104285f613a2f565b61042890610f99565b61058b6153949260209261538e815190565b94859290565b9384910161067e565b6153db61042893926153d56153d5937f416363657373436f6e74726f6c3a206163636f756e7420000000000000000000815260170190565b9061537c565b7001034b99036b4b9b9b4b733903937b6329607d1b815260110190565b60208082526104289291019061069f565b906154176134698284613afd565b61541f575050565b615469610428612ae09361545161544161543b61547596615509565b92615373565b61544b6020610f99565b906155d3565b9061545b60405190565b93849260208401928361539d565b908103825203826110db565b60405162461bcd60e51b8152918291600483016153f8565b1561549457565b60405162461bcd60e51b815260206004820152601460248201527f5061757361626c653a206e6f74207061757365640000000000000000000000006044820152606490fd5b6104126154e46132fd565b61548d565b610428610428610428926001600160a01b031690565b6104286014611a32565b6155266155216104289261551b606090565b506114e0565b6154e9565b61544b61204b6154ff565b90610412612b1a61554184611daf565b93611d92565b90615550825190565b811015611530570160200190565b8015611ab7575f190190565b6104289061557e61059b6104289460ff1690565b901c90565b1561558a57565b60405162461bcd60e51b815280612ae0600482016020808252818101527f537472696e67733a20686578206c656e67746820696e73756666696369656e74604082015260600190565b6156016155fc6155ec846155e76002610f99565b614a50565b6155f66002610f99565b90611aaa565b615531565b9160306156166156105f610f99565b85615547565b53600f60fb1b61564f61564660019384935f1a61563b61563586610f99565b89615547565b536155e76002610f99565b6155f683610f99565b915b615672575b5050906104286104289261566c61059b5f610f99565b14615583565b909161567d82610f99565b8311156156eb576f181899199a1a9b1b9c1cb0b131b232b360811b6156a2600f610f99565b82169060108210156115305783926156c26156df926156e5941a60f81b90565b5f1a6156ce8789615547565b536156d96004611a32565b9061556a565b9361555e565b91615651565b9161565656fea49807205ce4d355092ef5a8a18f56e8913cf4a201fbe287825b095693c21775a2646970667358221220056c13febbb33c15626485150b206ff3566f579ba75681f9bf55ef6233ab7e3564736f6c634300081c0033",
  "linkReferences": {},
  "deployedLinkReferences": {}
}