{
  "_format": "hh-sol-artifact-1",
  "contractName": "IndividualSkillsMarketplace",
  "sourceName": "contracts/Marketplace/IndividualSkillsMarketplace.sol",
  "abi": [
    {
      "inputs": [
        {
          "internalType": "address",
          "name": "_treasuryManager",
          "type": "address"
        }
      ],
      "stateMutability": "nonpayable",
      "type": "constructor"
    },
    {
      "inputs": [],
      "name": "CannotTransferActiveSkill",
      "type": "error"
    },
    {
      "inputs": [
        {
          "internalType": "uint256",
          "name": "required",
          "type": "uint256"
        },
        {
          "internalType": "uint256",
          "name": "current",
          "type": "uint256"
        }
      ],
      "name": "InsufficientStakingBalance",
      "type": "error"
    },
    {
      "inputs": [],
      "name": "InvalidAddress",
      "type": "error"
    },
    {
      "inputs": [
        {
          "internalType": "uint256",
          "name": "level",
          "type": "uint256"
        }
      ],
      "name": "InvalidLevel",
      "type": "error"
    },
    {
      "inputs": [],
      "name": "InvalidMetadata",
      "type": "error"
    },
    {
      "inputs": [
        {
          "internalType": "uint256",
          "name": "expected",
          "type": "uint256"
        },
        {
          "internalType": "uint256",
          "name": "provided",
          "type": "uint256"
        }
      ],
      "name": "InvalidPrice",
      "type": "error"
    },
    {
      "inputs": [
        {
          "internalType": "uint8",
          "name": "rarity",
          "type": "uint8"
        }
      ],
      "name": "InvalidRarity",
      "type": "error"
    },
    {
      "inputs": [
        {
          "internalType": "uint8",
          "name": "skillType",
          "type": "uint8"
        }
      ],
      "name": "InvalidSkillType",
      "type": "error"
    },
    {
      "inputs": [
        {
          "internalType": "uint8",
          "name": "max",
          "type": "uint8"
        }
      ],
      "name": "MaxActiveSkillsReached",
      "type": "error"
    },
    {
      "inputs": [],
      "name": "NotSkillOwner",
      "type": "error"
    },
    {
      "inputs": [
        {
          "internalType": "uint256",
          "name": "expiresAt",
          "type": "uint256"
        }
      ],
      "name": "SkillAlreadyExpired",
      "type": "error"
    },
    {
      "inputs": [],
      "name": "SkillIsActive",
      "type": "error"
    },
    {
      "inputs": [],
      "name": "SkillNotActive",
      "type": "error"
    },
    {
      "inputs": [
        {
          "internalType": "uint256",
          "name": "expiresAt",
          "type": "uint256"
        }
      ],
      "name": "SkillNotExpired",
      "type": "error"
    },
    {
      "inputs": [
        {
          "internalType": "uint256",
          "name": "skillId",
          "type": "uint256"
        }
      ],
      "name": "SkillNotFound",
      "type": "error"
    },
    {
      "inputs": [
        {
          "internalType": "uint256",
          "name": "skillId",
          "type": "uint256"
        }
      ],
      "name": "SkillNotInList",
      "type": "error"
    },
    {
      "inputs": [
        {
          "internalType": "address",
          "name": "user",
          "type": "address"
        },
        {
          "internalType": "uint256",
          "name": "skillId",
          "type": "uint256"
        }
      ],
      "name": "StakingNotificationFailed",
      "type": "error"
    },
    {
      "anonymous": false,
      "inputs": [
        {
          "indexed": true,
          "internalType": "enum IStakingIntegration.Rarity",
          "name": "rarity",
          "type": "uint8"
        },
        {
          "indexed": false,
          "internalType": "uint256",
          "name": "newPrice",
          "type": "uint256"
        }
      ],
      "name": "BasePriceUpdated",
      "type": "event"
    },
    {
      "anonymous": false,
      "inputs": [
        {
          "indexed": true,
          "internalType": "address",
          "name": "admin",
          "type": "address"
        },
        {
          "indexed": false,
          "internalType": "uint256",
          "name": "amount",
          "type": "uint256"
        },
        {
          "indexed": true,
          "internalType": "address",
          "name": "to",
          "type": "address"
        }
      ],
      "name": "EmergencyWithdrawal",
      "type": "event"
    },
    {
      "anonymous": false,
      "inputs": [
        {
          "indexed": true,
          "internalType": "address",
          "name": "user",
          "type": "address"
        },
        {
          "indexed": true,
          "internalType": "uint256",
          "name": "skillId",
          "type": "uint256"
        },
        {
          "indexed": false,
          "internalType": "enum IStakingIntegration.SkillType",
          "name": "skillType",
          "type": "uint8"
        }
      ],
      "name": "IndividualSkillActivated",
      "type": "event"
    },
    {
      "anonymous": false,
      "inputs": [
        {
          "indexed": true,
          "internalType": "address",
          "name": "user",
          "type": "address"
        },
        {
          "indexed": true,
          "internalType": "uint256",
          "name": "skillId",
          "type": "uint256"
        },
        {
          "indexed": false,
          "internalType": "enum IStakingIntegration.SkillType",
          "name": "skillType",
          "type": "uint8"
        }
      ],
      "name": "IndividualSkillDeactivated",
      "type": "event"
    },
    {
      "anonymous": false,
      "inputs": [
        {
          "indexed": true,
          "internalType": "address",
          "name": "user",
          "type": "address"
        },
        {
          "indexed": true,
          "internalType": "uint256",
          "name": "skillId",
          "type": "uint256"
        },
        {
          "indexed": false,
          "internalType": "enum IStakingIntegration.SkillType",
          "name": "skillType",
          "type": "uint8"
        }
      ],
      "name": "IndividualSkillExpired",
      "type": "event"
    },
    {
      "anonymous": false,
      "inputs": [
        {
          "indexed": true,
          "internalType": "address",
          "name": "user",
          "type": "address"
        },
        {
          "indexed": true,
          "internalType": "uint256",
          "name": "skillId",
          "type": "uint256"
        },
        {
          "indexed": false,
          "internalType": "enum IStakingIntegration.SkillType",
          "name": "skillType",
          "type": "uint8"
        },
        {
          "indexed": false,
          "internalType": "enum IStakingIntegration.Rarity",
          "name": "rarity",
          "type": "uint8"
        },
        {
          "indexed": false,
          "internalType": "uint256",
          "name": "price",
          "type": "uint256"
        }
      ],
      "name": "IndividualSkillPurchased",
      "type": "event"
    },
    {
      "anonymous": false,
      "inputs": [
        {
          "indexed": true,
          "internalType": "address",
          "name": "user",
          "type": "address"
        },
        {
          "indexed": true,
          "internalType": "uint256",
          "name": "skillId",
          "type": "uint256"
        },
        {
          "indexed": false,
          "internalType": "uint256",
          "name": "newExpiryTime",
          "type": "uint256"
        }
      ],
      "name": "IndividualSkillRenewed",
      "type": "event"
    },
    {
      "anonymous": false,
      "inputs": [
        {
          "indexed": true,
          "internalType": "address",
          "name": "from",
          "type": "address"
        },
        {
          "indexed": true,
          "internalType": "address",
          "name": "to",
          "type": "address"
        },
        {
          "indexed": true,
          "internalType": "uint256",
          "name": "skillId",
          "type": "uint256"
        },
        {
          "indexed": false,
          "internalType": "enum IStakingIntegration.SkillType",
          "name": "skillType",
          "type": "uint8"
        }
      ],
      "name": "IndividualSkillTransferred",
      "type": "event"
    },
    {
      "anonymous": false,
      "inputs": [
        {
          "indexed": false,
          "internalType": "address",
          "name": "account",
          "type": "address"
        }
      ],
      "name": "Paused",
      "type": "event"
    },
    {
      "anonymous": false,
      "inputs": [
        {
          "indexed": true,
          "internalType": "enum IStakingIntegration.Rarity",
          "name": "rarity",
          "type": "uint8"
        },
        {
          "indexed": false,
          "internalType": "uint16",
          "name": "newMultiplier",
          "type": "uint16"
        }
      ],
      "name": "RarityEffectMultiplierUpdated",
      "type": "event"
    },
    {
      "anonymous": false,
      "inputs": [
        {
          "indexed": true,
          "internalType": "bytes32",
          "name": "role",
          "type": "bytes32"
        },
        {
          "indexed": true,
          "internalType": "bytes32",
          "name": "previousAdminRole",
          "type": "bytes32"
        },
        {
          "indexed": true,
          "internalType": "bytes32",
          "name": "newAdminRole",
          "type": "bytes32"
        }
      ],
      "name": "RoleAdminChanged",
      "type": "event"
    },
    {
      "anonymous": false,
      "inputs": [
        {
          "indexed": true,
          "internalType": "bytes32",
          "name": "role",
          "type": "bytes32"
        },
        {
          "indexed": true,
          "internalType": "address",
          "name": "account",
          "type": "address"
        },
        {
          "indexed": true,
          "internalType": "address",
          "name": "sender",
          "type": "address"
        }
      ],
      "name": "RoleGranted",
      "type": "event"
    },
    {
      "anonymous": false,
      "inputs": [
        {
          "indexed": true,
          "internalType": "bytes32",
          "name": "role",
          "type": "bytes32"
        },
        {
          "indexed": true,
          "internalType": "address",
          "name": "account",
          "type": "address"
        },
        {
          "indexed": true,
          "internalType": "address",
          "name": "sender",
          "type": "address"
        }
      ],
      "name": "RoleRevoked",
      "type": "event"
    },
    {
      "anonymous": false,
      "inputs": [
        {
          "indexed": true,
          "internalType": "address",
          "name": "user",
          "type": "address"
        },
        {
          "indexed": true,
          "internalType": "uint256",
          "name": "skillId",
          "type": "uint256"
        }
      ],
      "name": "SkillCleanedUp",
      "type": "event"
    },
    {
      "anonymous": false,
      "inputs": [
        {
          "indexed": true,
          "internalType": "enum IStakingIntegration.SkillType",
          "name": "skillType",
          "type": "uint8"
        },
        {
          "indexed": true,
          "internalType": "enum IStakingIntegration.Rarity",
          "name": "rarity",
          "type": "uint8"
        },
        {
          "indexed": false,
          "internalType": "uint16",
          "name": "newEffectValue",
          "type": "uint16"
        }
      ],
      "name": "SkillEffectValueUpdated",
      "type": "event"
    },
    {
      "anonymous": false,
      "inputs": [
        {
          "indexed": true,
          "internalType": "uint8",
          "name": "level",
          "type": "uint8"
        },
        {
          "indexed": false,
          "internalType": "uint16",
          "name": "newMultiplier",
          "type": "uint16"
        }
      ],
      "name": "SkillLevelMultiplierUpdated",
      "type": "event"
    },
    {
      "anonymous": false,
      "inputs": [
        {
          "indexed": true,
          "internalType": "enum IStakingIntegration.SkillType",
          "name": "skillType",
          "type": "uint8"
        },
        {
          "indexed": false,
          "internalType": "uint256",
          "name": "basePrice",
          "type": "uint256"
        },
        {
          "indexed": false,
          "internalType": "uint256",
          "name": "rarityMultiplier",
          "type": "uint256"
        }
      ],
      "name": "SkillPricingUpdated",
      "type": "event"
    },
    {
      "anonymous": false,
      "inputs": [
        {
          "indexed": true,
          "internalType": "address",
          "name": "user",
          "type": "address"
        },
        {
          "indexed": true,
          "internalType": "uint256",
          "name": "skillId",
          "type": "uint256"
        },
        {
          "indexed": false,
          "internalType": "enum IStakingIntegration.SkillType",
          "name": "skillType",
          "type": "uint8"
        },
        {
          "indexed": false,
          "internalType": "uint256",
          "name": "amount",
          "type": "uint256"
        },
        {
          "indexed": false,
          "internalType": "string",
          "name": "operation",
          "type": "string"
        }
      ],
      "name": "SkillPurchaseProcessed",
      "type": "event"
    },
    {
      "anonymous": false,
      "inputs": [
        {
          "indexed": true,
          "internalType": "address",
          "name": "oldStaking",
          "type": "address"
        },
        {
          "indexed": true,
          "internalType": "address",
          "name": "newStaking",
          "type": "address"
        }
      ],
      "name": "StakingContractUpdated",
      "type": "event"
    },
    {
      "anonymous": false,
      "inputs": [
        {
          "indexed": true,
          "internalType": "address",
          "name": "oldManager",
          "type": "address"
        },
        {
          "indexed": true,
          "internalType": "address",
          "name": "newManager",
          "type": "address"
        }
      ],
      "name": "TreasuryManagerUpdated",
      "type": "event"
    },
    {
      "anonymous": false,
      "inputs": [
        {
          "indexed": false,
          "internalType": "address",
          "name": "account",
          "type": "address"
        }
      ],
      "name": "Unpaused",
      "type": "event"
    },
    {
      "inputs": [],
      "name": "ADMIN_ROLE",
      "outputs": [
        {
          "internalType": "bytes32",
          "name": "",
          "type": "bytes32"
        }
      ],
      "stateMutability": "view",
      "type": "function"
    },
    {
      "inputs": [],
      "name": "DEFAULT_ADMIN_ROLE",
      "outputs": [
        {
          "internalType": "bytes32",
          "name": "",
          "type": "bytes32"
        }
      ],
      "stateMutability": "view",
      "type": "function"
    },
    {
      "inputs": [
        {
          "internalType": "uint256",
          "name": "_skillId",
          "type": "uint256"
        }
      ],
      "name": "activateIndividualSkill",
      "outputs": [],
      "stateMutability": "nonpayable",
      "type": "function"
    },
    {
      "inputs": [
        {
          "internalType": "uint8",
          "name": "",
          "type": "uint8"
        }
      ],
      "name": "basePricePerRarity",
      "outputs": [
        {
          "internalType": "uint256",
          "name": "",
          "type": "uint256"
        }
      ],
      "stateMutability": "view",
      "type": "function"
    },
    {
      "inputs": [
        {
          "internalType": "uint256",
          "name": "_skillId",
          "type": "uint256"
        }
      ],
      "name": "claimExpiredIndividualSkill",
      "outputs": [],
      "stateMutability": "nonpayable",
      "type": "function"
    },
    {
      "inputs": [
        {
          "internalType": "uint256",
          "name": "_skillId",
          "type": "uint256"
        }
      ],
      "name": "deactivateIndividualSkill",
      "outputs": [],
      "stateMutability": "nonpayable",
      "type": "function"
    },
    {
      "inputs": [
        {
          "internalType": "uint256",
          "name": "_amount",
          "type": "uint256"
        }
      ],
      "name": "emergencyWithdraw",
      "outputs": [],
      "stateMutability": "nonpayable",
      "type": "function"
    },
    {
      "inputs": [],
      "name": "emergencyWithdrawAll",
      "outputs": [],
      "stateMutability": "nonpayable",
      "type": "function"
    },
    {
      "inputs": [
        {
          "internalType": "address",
          "name": "_user",
          "type": "address"
        }
      ],
      "name": "getActiveIndividualSkills",
      "outputs": [
        {
          "internalType": "uint256[]",
          "name": "activeSkillIds",
          "type": "uint256[]"
        }
      ],
      "stateMutability": "view",
      "type": "function"
    },
    {
      "inputs": [],
      "name": "getAllSkillsPricing",
      "outputs": [
        {
          "internalType": "enum IStakingIntegration.SkillType[]",
          "name": "skillTypes",
          "type": "uint8[]"
        },
        {
          "internalType": "uint8[]",
          "name": "categories",
          "type": "uint8[]"
        },
        {
          "internalType": "uint256[][]",
          "name": "prices",
          "type": "uint256[][]"
        }
      ],
      "stateMutability": "view",
      "type": "function"
    },
    {
      "inputs": [],
      "name": "getCurrentBasePrices",
      "outputs": [
        {
          "internalType": "uint256[5]",
          "name": "prices",
          "type": "uint256[5]"
        }
      ],
      "stateMutability": "view",
      "type": "function"
    },
    {
      "inputs": [
        {
          "internalType": "uint256",
          "name": "_skillId",
          "type": "uint256"
        }
      ],
      "name": "getIndividualSkill",
      "outputs": [
        {
          "components": [
            {
              "internalType": "enum IStakingIntegration.SkillType",
              "name": "skillType",
              "type": "uint8"
            },
            {
              "internalType": "enum IStakingIntegration.Rarity",
              "name": "rarity",
              "type": "uint8"
            },
            {
              "internalType": "uint256",
              "name": "level",
              "type": "uint256"
            },
            {
              "internalType": "address",
              "name": "owner",
              "type": "address"
            },
            {
              "internalType": "uint256",
              "name": "purchasedAt",
              "type": "uint256"
            },
            {
              "internalType": "uint256",
              "name": "expiresAt",
              "type": "uint256"
            },
            {
              "internalType": "bool",
              "name": "isActive",
              "type": "bool"
            },
            {
              "internalType": "string",
              "name": "metadata",
              "type": "string"
            },
            {
              "internalType": "uint256",
              "name": "createdAt",
              "type": "uint256"
            }
          ],
          "internalType": "struct IIndividualSkills.IndividualSkill",
          "name": "",
          "type": "tuple"
        }
      ],
      "stateMutability": "view",
      "type": "function"
    },
    {
      "inputs": [
        {
          "internalType": "enum IStakingIntegration.Rarity",
          "name": "_rarity",
          "type": "uint8"
        }
      ],
      "name": "getIndividualSkillPrice",
      "outputs": [
        {
          "internalType": "uint256",
          "name": "",
          "type": "uint256"
        }
      ],
      "stateMutability": "view",
      "type": "function"
    },
    {
      "inputs": [],
      "name": "getIndividualSkillsMarketStats",
      "outputs": [
        {
          "internalType": "uint256",
          "name": "skillsSold",
          "type": "uint256"
        },
        {
          "internalType": "uint256",
          "name": "activeSkills",
          "type": "uint256"
        },
        {
          "internalType": "uint256",
          "name": "revenue",
          "type": "uint256"
        },
        {
          "internalType": "uint256",
          "name": "averagePricePerSkill",
          "type": "uint256"
        },
        {
          "internalType": "uint256",
          "name": "uniqueBuyers",
          "type": "uint256"
        }
      ],
      "stateMutability": "view",
      "type": "function"
    },
    {
      "inputs": [],
      "name": "getLevelMultipliers",
      "outputs": [
        {
          "internalType": "uint16[3]",
          "name": "multipliers",
          "type": "uint16[3]"
        }
      ],
      "stateMutability": "view",
      "type": "function"
    },
    {
      "inputs": [],
      "name": "getRarityEffectMultipliers",
      "outputs": [
        {
          "internalType": "uint16[5]",
          "name": "multipliers",
          "type": "uint16[5]"
        }
      ],
      "stateMutability": "view",
      "type": "function"
    },
    {
      "inputs": [
        {
          "internalType": "bytes32",
          "name": "role",
          "type": "bytes32"
        }
      ],
      "name": "getRoleAdmin",
      "outputs": [
        {
          "internalType": "bytes32",
          "name": "",
          "type": "bytes32"
        }
      ],
      "stateMutability": "view",
      "type": "function"
    },
    {
      "inputs": [],
      "name": "getSkillAdoptionRates",
      "outputs": [
        {
          "internalType": "enum IStakingIntegration.SkillType[]",
          "name": "skillTypes",
          "type": "uint8[]"
        },
        {
          "internalType": "uint256[]",
          "name": "userCounts",
          "type": "uint256[]"
        },
        {
          "internalType": "uint256[]",
          "name": "percentages",
          "type": "uint256[]"
        }
      ],
      "stateMutability": "view",
      "type": "function"
    },
    {
      "inputs": [
        {
          "internalType": "enum IStakingIntegration.SkillType",
          "name": "_skillType",
          "type": "uint8"
        }
      ],
      "name": "getSkillEffectValuesAllRarities",
      "outputs": [
        {
          "internalType": "uint16[5]",
          "name": "effectValues",
          "type": "uint16[5]"
        }
      ],
      "stateMutability": "view",
      "type": "function"
    },
    {
      "inputs": [
        {
          "internalType": "enum IStakingIntegration.SkillType",
          "name": "_skillType",
          "type": "uint8"
        },
        {
          "internalType": "enum IStakingIntegration.Rarity",
          "name": "_rarity",
          "type": "uint8"
        }
      ],
      "name": "getSkillPrice",
      "outputs": [
        {
          "internalType": "uint256",
          "name": "",
          "type": "uint256"
        }
      ],
      "stateMutability": "view",
      "type": "function"
    },
    {
      "inputs": [
        {
          "internalType": "enum IStakingIntegration.SkillType",
          "name": "_skillType",
          "type": "uint8"
        }
      ],
      "name": "getSkillPricesAllRarities",
      "outputs": [
        {
          "internalType": "uint256[5]",
          "name": "prices",
          "type": "uint256[5]"
        }
      ],
      "stateMutability": "view",
      "type": "function"
    },
    {
      "inputs": [],
      "name": "getSkillRevenueByRarity",
      "outputs": [
        {
          "internalType": "enum IStakingIntegration.Rarity[]",
          "name": "rarities",
          "type": "uint8[]"
        },
        {
          "internalType": "uint256[]",
          "name": "revenue",
          "type": "uint256[]"
        },
        {
          "internalType": "uint256[]",
          "name": "salesCount",
          "type": "uint256[]"
        }
      ],
      "stateMutability": "view",
      "type": "function"
    },
    {
      "inputs": [],
      "name": "getSkillRevenueByType",
      "outputs": [
        {
          "internalType": "enum IStakingIntegration.SkillType[]",
          "name": "skillTypes",
          "type": "uint8[]"
        },
        {
          "internalType": "uint256[]",
          "name": "revenue",
          "type": "uint256[]"
        },
        {
          "internalType": "uint256[]",
          "name": "salesCount",
          "type": "uint256[]"
        }
      ],
      "stateMutability": "view",
      "type": "function"
    },
    {
      "inputs": [
        {
          "internalType": "address",
          "name": "_user",
          "type": "address"
        },
        {
          "internalType": "enum IStakingIntegration.SkillType",
          "name": "",
          "type": "uint8"
        }
      ],
      "name": "getUserActiveIndividualSkills",
      "outputs": [
        {
          "internalType": "uint256[]",
          "name": "",
          "type": "uint256[]"
        }
      ],
      "stateMutability": "view",
      "type": "function"
    },
    {
      "inputs": [
        {
          "internalType": "address",
          "name": "_user",
          "type": "address"
        }
      ],
      "name": "getUserActiveSkillCount",
      "outputs": [
        {
          "internalType": "uint8",
          "name": "count",
          "type": "uint8"
        }
      ],
      "stateMutability": "view",
      "type": "function"
    },
    {
      "inputs": [
        {
          "internalType": "address",
          "name": "_user",
          "type": "address"
        }
      ],
      "name": "getUserIndividualSkills",
      "outputs": [
        {
          "internalType": "uint256[]",
          "name": "",
          "type": "uint256[]"
        }
      ],
      "stateMutability": "view",
      "type": "function"
    },
    {
      "inputs": [
        {
          "internalType": "address",
          "name": "_user",
          "type": "address"
        }
      ],
      "name": "getUserIndividualSkillsDetailed",
      "outputs": [
        {
          "components": [
            {
              "internalType": "enum IStakingIntegration.SkillType",
              "name": "skillType",
              "type": "uint8"
            },
            {
              "internalType": "enum IStakingIntegration.Rarity",
              "name": "rarity",
              "type": "uint8"
            },
            {
              "internalType": "uint256",
              "name": "level",
              "type": "uint256"
            },
            {
              "internalType": "address",
              "name": "owner",
              "type": "address"
            },
            {
              "internalType": "uint256",
              "name": "purchasedAt",
              "type": "uint256"
            },
            {
              "internalType": "uint256",
              "name": "expiresAt",
              "type": "uint256"
            },
            {
              "internalType": "bool",
              "name": "isActive",
              "type": "bool"
            },
            {
              "internalType": "string",
              "name": "metadata",
              "type": "string"
            },
            {
              "internalType": "uint256",
              "name": "createdAt",
              "type": "uint256"
            }
          ],
          "internalType": "struct IIndividualSkills.IndividualSkill[]",
          "name": "skills",
          "type": "tuple[]"
        },
        {
          "internalType": "bool[]",
          "name": "isActive",
          "type": "bool[]"
        }
      ],
      "stateMutability": "view",
      "type": "function"
    },
    {
      "inputs": [
        {
          "internalType": "address",
          "name": "_user",
          "type": "address"
        }
      ],
      "name": "getUserPlatformSkills",
      "outputs": [
        {
          "components": [
            {
              "internalType": "enum IStakingIntegration.SkillType",
              "name": "skillType",
              "type": "uint8"
            },
            {
              "internalType": "enum IStakingIntegration.Rarity",
              "name": "rarity",
              "type": "uint8"
            },
            {
              "internalType": "uint256",
              "name": "level",
              "type": "uint256"
            },
            {
              "internalType": "address",
              "name": "owner",
              "type": "address"
            },
            {
              "internalType": "uint256",
              "name": "purchasedAt",
              "type": "uint256"
            },
            {
              "internalType": "uint256",
              "name": "expiresAt",
              "type": "uint256"
            },
            {
              "internalType": "bool",
              "name": "isActive",
              "type": "bool"
            },
            {
              "internalType": "string",
              "name": "metadata",
              "type": "string"
            },
            {
              "internalType": "uint256",
              "name": "createdAt",
              "type": "uint256"
            }
          ],
          "internalType": "struct IIndividualSkills.IndividualSkill[]",
          "name": "skills",
          "type": "tuple[]"
        },
        {
          "internalType": "bool[]",
          "name": "isActive",
          "type": "bool[]"
        },
        {
          "internalType": "bool[]",
          "name": "isExpired",
          "type": "bool[]"
        }
      ],
      "stateMutability": "view",
      "type": "function"
    },
    {
      "inputs": [
        {
          "internalType": "address",
          "name": "_user",
          "type": "address"
        }
      ],
      "name": "getUserSkillSpending",
      "outputs": [
        {
          "internalType": "uint256",
          "name": "totalSpent",
          "type": "uint256"
        },
        {
          "internalType": "uint256",
          "name": "skillsPurchased",
          "type": "uint256"
        },
        {
          "internalType": "uint256",
          "name": "averageSpentPerSkill",
          "type": "uint256"
        },
        {
          "internalType": "enum IStakingIntegration.SkillType",
          "name": "mostPurchasedType",
          "type": "uint8"
        }
      ],
      "stateMutability": "view",
      "type": "function"
    },
    {
      "inputs": [
        {
          "internalType": "address",
          "name": "_user",
          "type": "address"
        }
      ],
      "name": "getUserSkillStats",
      "outputs": [
        {
          "internalType": "uint256",
          "name": "totalSkills",
          "type": "uint256"
        },
        {
          "internalType": "uint256",
          "name": "totalStakingSkills",
          "type": "uint256"
        },
        {
          "internalType": "uint256",
          "name": "totalPlatformSkills",
          "type": "uint256"
        },
        {
          "internalType": "uint256",
          "name": "activeCount",
          "type": "uint256"
        },
        {
          "internalType": "uint256",
          "name": "expiredCount",
          "type": "uint256"
        }
      ],
      "stateMutability": "view",
      "type": "function"
    },
    {
      "inputs": [
        {
          "internalType": "address",
          "name": "_user",
          "type": "address"
        }
      ],
      "name": "getUserSkillsByCategory",
      "outputs": [
        {
          "components": [
            {
              "internalType": "enum IStakingIntegration.SkillType",
              "name": "skillType",
              "type": "uint8"
            },
            {
              "internalType": "enum IStakingIntegration.Rarity",
              "name": "rarity",
              "type": "uint8"
            },
            {
              "internalType": "uint256",
              "name": "level",
              "type": "uint256"
            },
            {
              "internalType": "address",
              "name": "owner",
              "type": "address"
            },
            {
              "internalType": "uint256",
              "name": "purchasedAt",
              "type": "uint256"
            },
            {
              "internalType": "uint256",
              "name": "expiresAt",
              "type": "uint256"
            },
            {
              "internalType": "bool",
              "name": "isActive",
              "type": "bool"
            },
            {
              "internalType": "string",
              "name": "metadata",
              "type": "string"
            },
            {
              "internalType": "uint256",
              "name": "createdAt",
              "type": "uint256"
            }
          ],
          "internalType": "struct IIndividualSkills.IndividualSkill[]",
          "name": "stakingSkills",
          "type": "tuple[]"
        },
        {
          "components": [
            {
              "internalType": "enum IStakingIntegration.SkillType",
              "name": "skillType",
              "type": "uint8"
            },
            {
              "internalType": "enum IStakingIntegration.Rarity",
              "name": "rarity",
              "type": "uint8"
            },
            {
              "internalType": "uint256",
              "name": "level",
              "type": "uint256"
            },
            {
              "internalType": "address",
              "name": "owner",
              "type": "address"
            },
            {
              "internalType": "uint256",
              "name": "purchasedAt",
              "type": "uint256"
            },
            {
              "internalType": "uint256",
              "name": "expiresAt",
              "type": "uint256"
            },
            {
              "internalType": "bool",
              "name": "isActive",
              "type": "bool"
            },
            {
              "internalType": "string",
              "name": "metadata",
              "type": "string"
            },
            {
              "internalType": "uint256",
              "name": "createdAt",
              "type": "uint256"
            }
          ],
          "internalType": "struct IIndividualSkills.IndividualSkill[]",
          "name": "activeSkills",
          "type": "tuple[]"
        }
      ],
      "stateMutability": "view",
      "type": "function"
    },
    {
      "inputs": [
        {
          "internalType": "address",
          "name": "_user",
          "type": "address"
        }
      ],
      "name": "getUserSkillsComprehensive",
      "outputs": [
        {
          "components": [
            {
              "internalType": "enum IStakingIntegration.SkillType",
              "name": "skillType",
              "type": "uint8"
            },
            {
              "internalType": "enum IStakingIntegration.Rarity",
              "name": "rarity",
              "type": "uint8"
            },
            {
              "internalType": "uint256",
              "name": "level",
              "type": "uint256"
            },
            {
              "internalType": "address",
              "name": "owner",
              "type": "address"
            },
            {
              "internalType": "uint256",
              "name": "purchasedAt",
              "type": "uint256"
            },
            {
              "internalType": "uint256",
              "name": "expiresAt",
              "type": "uint256"
            },
            {
              "internalType": "bool",
              "name": "isActive",
              "type": "bool"
            },
            {
              "internalType": "string",
              "name": "metadata",
              "type": "string"
            },
            {
              "internalType": "uint256",
              "name": "createdAt",
              "type": "uint256"
            }
          ],
          "internalType": "struct IIndividualSkills.IndividualSkill[]",
          "name": "allSkills",
          "type": "tuple[]"
        },
        {
          "internalType": "bool[]",
          "name": "isActive",
          "type": "bool[]"
        },
        {
          "internalType": "bool[]",
          "name": "isExpired",
          "type": "bool[]"
        },
        {
          "internalType": "uint256[]",
          "name": "expiresIn",
          "type": "uint256[]"
        },
        {
          "internalType": "string[]",
          "name": "categoryNames",
          "type": "string[]"
        }
      ],
      "stateMutability": "view",
      "type": "function"
    },
    {
      "inputs": [
        {
          "internalType": "address",
          "name": "_user",
          "type": "address"
        }
      ],
      "name": "getUserStakingSkills",
      "outputs": [
        {
          "components": [
            {
              "internalType": "enum IStakingIntegration.SkillType",
              "name": "skillType",
              "type": "uint8"
            },
            {
              "internalType": "enum IStakingIntegration.Rarity",
              "name": "rarity",
              "type": "uint8"
            },
            {
              "internalType": "uint256",
              "name": "level",
              "type": "uint256"
            },
            {
              "internalType": "address",
              "name": "owner",
              "type": "address"
            },
            {
              "internalType": "uint256",
              "name": "purchasedAt",
              "type": "uint256"
            },
            {
              "internalType": "uint256",
              "name": "expiresAt",
              "type": "uint256"
            },
            {
              "internalType": "bool",
              "name": "isActive",
              "type": "bool"
            },
            {
              "internalType": "string",
              "name": "metadata",
              "type": "string"
            },
            {
              "internalType": "uint256",
              "name": "createdAt",
              "type": "uint256"
            }
          ],
          "internalType": "struct IIndividualSkills.IndividualSkill[]",
          "name": "skills",
          "type": "tuple[]"
        },
        {
          "internalType": "bool[]",
          "name": "isActive",
          "type": "bool[]"
        },
        {
          "internalType": "bool[]",
          "name": "isExpired",
          "type": "bool[]"
        }
      ],
      "stateMutability": "view",
      "type": "function"
    },
    {
      "inputs": [
        {
          "internalType": "bytes32",
          "name": "role",
          "type": "bytes32"
        },
        {
          "internalType": "address",
          "name": "account",
          "type": "address"
        }
      ],
      "name": "grantRole",
      "outputs": [],
      "stateMutability": "nonpayable",
      "type": "function"
    },
    {
      "inputs": [
        {
          "internalType": "bytes32",
          "name": "role",
          "type": "bytes32"
        },
        {
          "internalType": "address",
          "name": "account",
          "type": "address"
        }
      ],
      "name": "hasRole",
      "outputs": [
        {
          "internalType": "bool",
          "name": "",
          "type": "bool"
        }
      ],
      "stateMutability": "view",
      "type": "function"
    },
    {
      "inputs": [
        {
          "internalType": "uint256",
          "name": "",
          "type": "uint256"
        }
      ],
      "name": "individualSkills",
      "outputs": [
        {
          "internalType": "enum IStakingIntegration.SkillType",
          "name": "skillType",
          "type": "uint8"
        },
        {
          "internalType": "enum IStakingIntegration.Rarity",
          "name": "rarity",
          "type": "uint8"
        },
        {
          "internalType": "uint256",
          "name": "level",
          "type": "uint256"
        },
        {
          "internalType": "address",
          "name": "owner",
          "type": "address"
        },
        {
          "internalType": "uint256",
          "name": "purchasedAt",
          "type": "uint256"
        },
        {
          "internalType": "uint256",
          "name": "expiresAt",
          "type": "uint256"
        },
        {
          "internalType": "bool",
          "name": "isActive",
          "type": "bool"
        },
        {
          "internalType": "string",
          "name": "metadata",
          "type": "string"
        },
        {
          "internalType": "uint256",
          "name": "createdAt",
          "type": "uint256"
        }
      ],
      "stateMutability": "view",
      "type": "function"
    },
    {
      "inputs": [
        {
          "internalType": "uint8",
          "name": "",
          "type": "uint8"
        }
      ],
      "name": "levelMultiplier",
      "outputs": [
        {
          "internalType": "uint16",
          "name": "",
          "type": "uint16"
        }
      ],
      "stateMutability": "view",
      "type": "function"
    },
    {
      "inputs": [],
      "name": "pause",
      "outputs": [],
      "stateMutability": "nonpayable",
      "type": "function"
    },
    {
      "inputs": [],
      "name": "paused",
      "outputs": [
        {
          "internalType": "bool",
          "name": "",
          "type": "bool"
        }
      ],
      "stateMutability": "view",
      "type": "function"
    },
    {
      "inputs": [
        {
          "internalType": "enum IStakingIntegration.SkillType",
          "name": "_skillType",
          "type": "uint8"
        },
        {
          "internalType": "enum IStakingIntegration.Rarity",
          "name": "_rarity",
          "type": "uint8"
        },
        {
          "internalType": "uint256",
          "name": "_level",
          "type": "uint256"
        },
        {
          "internalType": "string",
          "name": "_metadata",
          "type": "string"
        }
      ],
      "name": "purchaseIndividualSkill",
      "outputs": [
        {
          "internalType": "uint256",
          "name": "skillId",
          "type": "uint256"
        }
      ],
      "stateMutability": "payable",
      "type": "function"
    },
    {
      "inputs": [
        {
          "internalType": "uint8",
          "name": "",
          "type": "uint8"
        }
      ],
      "name": "rarityEffectMultiplier",
      "outputs": [
        {
          "internalType": "uint16",
          "name": "",
          "type": "uint16"
        }
      ],
      "stateMutability": "view",
      "type": "function"
    },
    {
      "inputs": [
        {
          "internalType": "uint256",
          "name": "_skillId",
          "type": "uint256"
        }
      ],
      "name": "renewIndividualSkill",
      "outputs": [],
      "stateMutability": "payable",
      "type": "function"
    },
    {
      "inputs": [
        {
          "internalType": "bytes32",
          "name": "role",
          "type": "bytes32"
        },
        {
          "internalType": "address",
          "name": "account",
          "type": "address"
        }
      ],
      "name": "renounceRole",
      "outputs": [],
      "stateMutability": "nonpayable",
      "type": "function"
    },
    {
      "inputs": [],
      "name": "resetSkillPricingToDefaults",
      "outputs": [],
      "stateMutability": "nonpayable",
      "type": "function"
    },
    {
      "inputs": [
        {
          "internalType": "enum IStakingIntegration.Rarity",
          "name": "",
          "type": "uint8"
        }
      ],
      "name": "revenueByRarity",
      "outputs": [
        {
          "internalType": "uint256",
          "name": "",
          "type": "uint256"
        }
      ],
      "stateMutability": "view",
      "type": "function"
    },
    {
      "inputs": [
        {
          "internalType": "enum IStakingIntegration.SkillType",
          "name": "",
          "type": "uint8"
        }
      ],
      "name": "revenueBySkillType",
      "outputs": [
        {
          "internalType": "uint256",
          "name": "",
          "type": "uint256"
        }
      ],
      "stateMutability": "view",
      "type": "function"
    },
    {
      "inputs": [
        {
          "internalType": "bytes32",
          "name": "role",
          "type": "bytes32"
        },
        {
          "internalType": "address",
          "name": "account",
          "type": "address"
        }
      ],
      "name": "revokeRole",
      "outputs": [],
      "stateMutability": "nonpayable",
      "type": "function"
    },
    {
      "inputs": [
        {
          "internalType": "uint8",
          "name": "_rarityIndex",
          "type": "uint8"
        },
        {
          "internalType": "uint256",
          "name": "_newPrice",
          "type": "uint256"
        }
      ],
      "name": "setBasePricePerRarity",
      "outputs": [],
      "stateMutability": "nonpayable",
      "type": "function"
    },
    {
      "inputs": [
        {
          "internalType": "uint8",
          "name": "_levelIndex",
          "type": "uint8"
        },
        {
          "internalType": "uint16",
          "name": "_newMultiplier",
          "type": "uint16"
        }
      ],
      "name": "setLevelMultiplier",
      "outputs": [],
      "stateMutability": "nonpayable",
      "type": "function"
    },
    {
      "inputs": [
        {
          "internalType": "uint8",
          "name": "_rarityIndex",
          "type": "uint8"
        },
        {
          "internalType": "uint16",
          "name": "_newMultiplier",
          "type": "uint16"
        }
      ],
      "name": "setRarityEffectMultiplier",
      "outputs": [],
      "stateMutability": "nonpayable",
      "type": "function"
    },
    {
      "inputs": [
        {
          "internalType": "enum IStakingIntegration.SkillType",
          "name": "_skillType",
          "type": "uint8"
        },
        {
          "internalType": "enum IStakingIntegration.Rarity",
          "name": "_rarity",
          "type": "uint8"
        },
        {
          "internalType": "uint16",
          "name": "_effectValue",
          "type": "uint16"
        }
      ],
      "name": "setSkillEffectValue",
      "outputs": [],
      "stateMutability": "nonpayable",
      "type": "function"
    },
    {
      "inputs": [
        {
          "internalType": "enum IStakingIntegration.SkillType",
          "name": "_skillType",
          "type": "uint8"
        },
        {
          "internalType": "uint16",
          "name": "_commonEffect",
          "type": "uint16"
        },
        {
          "internalType": "uint16",
          "name": "_uncommonEffect",
          "type": "uint16"
        },
        {
          "internalType": "uint16",
          "name": "_rareEffect",
          "type": "uint16"
        },
        {
          "internalType": "uint16",
          "name": "_epicEffect",
          "type": "uint16"
        },
        {
          "internalType": "uint16",
          "name": "_legendaryEffect",
          "type": "uint16"
        }
      ],
      "name": "setSkillEffectValuesAllRarities",
      "outputs": [],
      "stateMutability": "nonpayable",
      "type": "function"
    },
    {
      "inputs": [
        {
          "internalType": "address",
          "name": "_stakingAddress",
          "type": "address"
        }
      ],
      "name": "setStakingContract",
      "outputs": [],
      "stateMutability": "nonpayable",
      "type": "function"
    },
    {
      "inputs": [
        {
          "internalType": "address",
          "name": "_treasuryManager",
          "type": "address"
        }
      ],
      "name": "setTreasuryManager",
      "outputs": [],
      "stateMutability": "nonpayable",
      "type": "function"
    },
    {
      "inputs": [
        {
          "internalType": "enum IStakingIntegration.SkillType",
          "name": "",
          "type": "uint8"
        },
        {
          "internalType": "enum IStakingIntegration.Rarity",
          "name": "",
          "type": "uint8"
        }
      ],
      "name": "skillEffectValues",
      "outputs": [
        {
          "internalType": "uint16",
          "name": "",
          "type": "uint16"
        }
      ],
      "stateMutability": "view",
      "type": "function"
    },
    {
      "inputs": [
        {
          "internalType": "enum IStakingIntegration.SkillType",
          "name": "",
          "type": "uint8"
        }
      ],
      "name": "skillLevelCount",
      "outputs": [
        {
          "internalType": "uint8",
          "name": "",
          "type": "uint8"
        }
      ],
      "stateMutability": "view",
      "type": "function"
    },
    {
      "inputs": [
        {
          "internalType": "enum IStakingIntegration.SkillType",
          "name": "",
          "type": "uint8"
        },
        {
          "internalType": "enum IStakingIntegration.Rarity",
          "name": "",
          "type": "uint8"
        }
      ],
      "name": "skillPrices",
      "outputs": [
        {
          "internalType": "uint256",
          "name": "",
          "type": "uint256"
        }
      ],
      "stateMutability": "view",
      "type": "function"
    },
    {
      "inputs": [
        {
          "internalType": "enum IStakingIntegration.Rarity",
          "name": "",
          "type": "uint8"
        }
      ],
      "name": "skillsSoldByRarity",
      "outputs": [
        {
          "internalType": "uint256",
          "name": "",
          "type": "uint256"
        }
      ],
      "stateMutability": "view",
      "type": "function"
    },
    {
      "inputs": [
        {
          "internalType": "enum IStakingIntegration.SkillType",
          "name": "",
          "type": "uint8"
        }
      ],
      "name": "skillsSoldByType",
      "outputs": [
        {
          "internalType": "uint256",
          "name": "",
          "type": "uint256"
        }
      ],
      "stateMutability": "view",
      "type": "function"
    },
    {
      "inputs": [],
      "name": "stakingContractAddress",
      "outputs": [
        {
          "internalType": "address",
          "name": "",
          "type": "address"
        }
      ],
      "stateMutability": "view",
      "type": "function"
    },
    {
      "inputs": [
        {
          "internalType": "bytes4",
          "name": "interfaceId",
          "type": "bytes4"
        }
      ],
      "name": "supportsInterface",
      "outputs": [
        {
          "internalType": "bool",
          "name": "",
          "type": "bool"
        }
      ],
      "stateMutability": "view",
      "type": "function"
    },
    {
      "inputs": [],
      "name": "totalRevenue",
      "outputs": [
        {
          "internalType": "uint256",
          "name": "",
          "type": "uint256"
        }
      ],
      "stateMutability": "view",
      "type": "function"
    },
    {
      "inputs": [],
      "name": "totalSkillsSold",
      "outputs": [
        {
          "internalType": "uint256",
          "name": "",
          "type": "uint256"
        }
      ],
      "stateMutability": "view",
      "type": "function"
    },
    {
      "inputs": [
        {
          "internalType": "uint256",
          "name": "_skillId",
          "type": "uint256"
        },
        {
          "internalType": "address",
          "name": "_recipient",
          "type": "address"
        }
      ],
      "name": "transferIndividualSkill",
      "outputs": [],
      "stateMutability": "nonpayable",
      "type": "function"
    },
    {
      "inputs": [],
      "name": "treasuryManager",
      "outputs": [
        {
          "internalType": "address",
          "name": "",
          "type": "address"
        }
      ],
      "stateMutability": "view",
      "type": "function"
    },
    {
      "inputs": [],
      "name": "unpause",
      "outputs": [],
      "stateMutability": "nonpayable",
      "type": "function"
    },
    {
      "inputs": [
        {
          "internalType": "uint256",
          "name": "_commonPrice",
          "type": "uint256"
        },
        {
          "internalType": "uint256",
          "name": "_uncommonPrice",
          "type": "uint256"
        },
        {
          "internalType": "uint256",
          "name": "_rarePrice",
          "type": "uint256"
        },
        {
          "internalType": "uint256",
          "name": "_epicPrice",
          "type": "uint256"
        },
        {
          "internalType": "uint256",
          "name": "_legendaryPrice",
          "type": "uint256"
        }
      ],
      "name": "updateActiveSkillsPricing",
      "outputs": [],
      "stateMutability": "nonpayable",
      "type": "function"
    },
    {
      "inputs": [
        {
          "internalType": "enum IStakingIntegration.SkillType",
          "name": "_skillType",
          "type": "uint8"
        },
        {
          "internalType": "enum IStakingIntegration.Rarity",
          "name": "_rarity",
          "type": "uint8"
        },
        {
          "internalType": "uint256",
          "name": "_price",
          "type": "uint256"
        }
      ],
      "name": "updateSkillPrice",
      "outputs": [],
      "stateMutability": "nonpayable",
      "type": "function"
    },
    {
      "inputs": [
        {
          "internalType": "uint256",
          "name": "_commonPrice",
          "type": "uint256"
        },
        {
          "internalType": "uint256",
          "name": "_uncommonPrice",
          "type": "uint256"
        },
        {
          "internalType": "uint256",
          "name": "_rarePrice",
          "type": "uint256"
        },
        {
          "internalType": "uint256",
          "name": "_epicPrice",
          "type": "uint256"
        },
        {
          "internalType": "uint256",
          "name": "_legendaryPrice",
          "type": "uint256"
        }
      ],
      "name": "updateStakingSkillsPricing",
      "outputs": [],
      "stateMutability": "nonpayable",
      "type": "function"
    },
    {
      "inputs": [
        {
          "internalType": "address",
          "name": "",
          "type": "address"
        }
      ],
      "name": "userActiveSkillCount",
      "outputs": [
        {
          "internalType": "uint8",
          "name": "",
          "type": "uint8"
        }
      ],
      "stateMutability": "view",
      "type": "function"
    },
    {
      "inputs": [
        {
          "internalType": "address",
          "name": "",
          "type": "address"
        },
        {
          "internalType": "uint256",
          "name": "",
          "type": "uint256"
        }
      ],
      "name": "userActiveSkills",
      "outputs": [
        {
          "internalType": "uint256",
          "name": "",
          "type": "uint256"
        }
      ],
      "stateMutability": "view",
      "type": "function"
    },
    {
      "inputs": [
        {
          "internalType": "address",
          "name": "",
          "type": "address"
        },
        {
          "internalType": "uint256",
          "name": "",
          "type": "uint256"
        }
      ],
      "name": "userIndividualSkills",
      "outputs": [
        {
          "internalType": "uint256",
          "name": "",
          "type": "uint256"
        }
      ],
      "stateMutability": "view",
      "type": "function"
    },
    {
      "inputs": [
        {
          "internalType": "address",
          "name": "",
          "type": "address"
        }
      ],
      "name": "userTotalSpent",
      "outputs": [
        {
          "internalType": "uint256",
          "name": "",
          "type": "uint256"
        }
      ],
      "stateMutability": "view",
      "type": "function"
    },
    {
      "stateMutability": "payable",
      "type": "receive"
    }
  ],
  "bytecode": "0x60806040523461002a576100196100146100bf565b61015f565b60405161601d611189823961601d90f35b5f80fd5b634e487b7160e01b5f52604160045260245ffd5b90601f01601f191681019081106001600160401b0382111761006357604052565b61002e565b9061007c61007560405190565b9283610042565b565b6001600160a01b031690565b90565b6001600160a01b0381160361002a57565b9050519061007c8261008d565b9060208282031261002a5761008a9161009e565b61008a6171a6803803806100d281610068565b9283398101906100ab565b61007e61008a61008a9290565b61008a906100dd565b61008a61008a61008a9290565b61008a5f6100f3565b906001600160a01b03905b9181191691161790565b61008a9061007e906001600160a01b031682565b61008a9061011e565b61008a90610132565b9061015461008a61015b9261013b565b8254610109565b9055565b6101676101e9565b61017361007e5f6100ea565b6001600160a01b038216146101d8576101c890610198610191610100565b3390610260565b6101c17fa49807205ce4d355092ef5a8a18f56e8913cf4a201fbe287825b095693c21775610191565b6008610144565b6101d0610375565b61007c6104e6565b63e6c4247b60e01b5f908152600490fd5b61007c61021b565b61008a60016100f3565b905f1990610114565b9061021461008a61015b926100f3565b82546101fb565b610223610255565b61007c61022e6101f1565b6002610204565b9060ff90610114565b9061024e61008a61015b92151590565b8254610235565b61007c5f600161023e565b9061007c916110d4565b61008a6802b5e3af16b18800006100f3565b61028961008a61008a9290565b60ff1690565b906102999061027c565b5f5260205260405f2090565b61008a6804563918244f4000006100f3565b61008a68056bc75e2d631000006100f3565b61008a680821ab0d44149800006100f3565b61008a680bed1d0263d9f000006100f3565b6102fa61008a61008a9290565b61ffff1690565b61008a6127106102ed565b9061ffff90610114565b6102fa61008a61008a9261ffff1690565b9061033761008a61015b92610316565b825461030c565b61008a613a986102ed565b61008a614e206102ed565b61008a6175306102ed565b61008a61c3506102ed565b61008a6161a86102ed565b6103ea61038061026a565b610395600a916103905f8461028f565b610204565b6103ab6103a06102a5565b61039060018461028f565b6103c16103b66102b7565b61039060028461028f565b6103d76103cc6102c9565b61039060038461028f565b61039060046103e46102db565b9261028f565b61007c6103f5610301565b610472600b61040d836104085f8461028f565b610327565b61046161041861033e565b916104288361040860018461028f565b61043e610433610349565b61040860028461028f565b610454610449610354565b61040860038461028f565b61040860046103e461035f565b610433600c9361040860018661028f565b61040860036103e461036a565b634e487b7160e01b5f52602160045260245ffd5b6014111561049d57565b61047f565b9061007c82610493565b61008a906104a2565b90610299906104ac565b6005111561049d57565b9061007c826104bf565b61008a906104c9565b90610299906104d3565b6104f16101f46102ed565b6104fd6001600d6104b5565b5f610507916104dc565b9061051191610327565b61051c6102bc6102ed565b6105286001600d6104b5565b6001610533916104dc565b9061053d91610327565b6105486103846102ed565b6105546001600d6104b5565b600261055f916104dc565b9061056991610327565b6105746104b06102ed565b806105816001600d6104b5565b600361058c916104dc565b9061059691610327565b6105a16106406102ed565b806105ae6001600d6104b5565b60046105b9916104dc565b906105c391610327565b6105ce6103e86102ed565b90816105dc6002600d6104b5565b5f6105e6916104dc565b906105f091610327565b6105fb6105146102ed565b806106086002600d6104b5565b6001610613916104dc565b9061061d91610327565b8161062a6002600d6104b5565b6002610635916104dc565b9061063f91610327565b61064a6108346102ed565b91826106586002600d6104b5565b6003610663916104dc565b9061066d91610327565b610678610af06102ed565b94856106866002600d6104b5565b6004610691916104dc565b9061069b91610327565b6106a66105dc6102ed565b91826106b46003600d6104b5565b5f6106be916104dc565b906106c891610327565b6106d361076c6102ed565b6106df6003600d6104b5565b60016106ea916104dc565b906106f491610327565b6106ff6108fc6102ed565b8061070c6003600d6104b5565b6002610717916104dc565b9061072191610327565b61072c610bb86102ed565b958661073a6003600d6104b5565b6003610745916104dc565b9061074f91610327565b61075a610ed86102ed565b6107666003600d6104b5565b6004610771916104dc565b9061077b91610327565b876107886004600d6104b5565b5f610792916104dc565b9061079c91610327565b856107a96004600d6104b5565b60016107b4916104dc565b906107be91610327565b826107cb6004600d6104b5565b60026107d6916104dc565b906107e091610327565b6107ec6004600d6104b5565b60036107f7916104dc565b9061080191610327565b61080c610a286102ed565b6108186004600d6104b5565b6004610823916104dc565b9061082d91610327565b8361083a6005600d6104b5565b5f610844916104dc565b9061084e91610327565b8761085a6107d06102ed565b95866108686005600d6104b5565b6001610873916104dc565b9061087d91610327565b6108886109c46102ed565b6108946005600d6104b5565b600261089f916104dc565b906108a991610327565b6108b4610dac6102ed565b6108c06005600d6104b5565b60036108cb916104dc565b906108d591610327565b6108e06111946102ed565b93846108ee6005600d6104b5565b60046108f9916104dc565b9061090391610327565b6006918a61091284600d6104b5565b5f61091c916104dc565b9061092691610327565b61093183600d6104b5565b600161093c916104dc565b9061094691610327565b61095182600d6104b5565b600261095c916104dc565b9061096691610327565b6109716108986102ed565b61097c82600d6104b5565b6003610987916104dc565b9061099191610327565b61099c90600d6104b5565b60046109a7916104dc565b906109b191610327565b6109bc6107086102ed565b97600791896109cc84600d6104b5565b5f6109d6916104dc565b906109e091610327565b6109eb83600d6104b5565b60016109f6916104dc565b90610a0091610327565b610a0b82600d6104b5565b6002610a16916104dc565b90610a2091610327565b610a2b610e746102ed565b610a3682600d6104b5565b6003610a41916104dc565b90610a4b91610327565b610a5690600d6104b5565b6004610a61916104dc565b90610a6b91610327565b84610a786008600d6104b5565b5f610a82916104dc565b90610a8c91610327565b81610a996008600d6104b5565b6001610aa4916104dc565b90610aae91610327565b82610abb6008600d6104b5565b6002610ac6916104dc565b90610ad091610327565b83610add6008600d6104b5565b6003610ae8916104dc565b90610af291610327565b610afd6113886102ed565b9586610b0b6008600d6104b5565b6004610b16916104dc565b90610b2091610327565b86600987610b2f82600d6104b5565b5f610b39916104dc565b90610b4391610327565b84610b4f82600d6104b5565b6001610b5a916104dc565b90610b6491610327565b85610b7082600d6104b5565b6002610b7b916104dc565b90610b8591610327565b86610b9182600d6104b5565b6003610b9c916104dc565b90610ba691610327565b610bb190600d6104b5565b6004610bbc916104dc565b90610bc691610327565b86600a87610bd582600d6104b5565b5f610bdf916104dc565b90610be991610327565b84610bf582600d6104b5565b6001610c00916104dc565b90610c0a91610327565b85610c1682600d6104b5565b6002610c21916104dc565b90610c2b91610327565b86610c3782600d6104b5565b6003610c42916104dc565b90610c4c91610327565b610c5790600d6104b5565b6004610c62916104dc565b90610c6c91610327565b610c776127106102ed565b600b90610c8582600d6104b5565b5f610c8f916104dc565b90610c9991610327565b610ca4612ee06102ed565b610caf82600d6104b5565b6001610cba916104dc565b90610cc491610327565b610ccf6136b06102ed565b610cda82600d6104b5565b6002610ce5916104dc565b90610cef91610327565b610cfa6146506102ed565b610d0582600d6104b5565b6003610d10916104dc565b90610d1a91610327565b610d25615dc06102ed565b90610d3190600d6104b5565b6004610d3c916104dc565b90610d4691610327565b600c9186610d5584600d6104b5565b5f610d5f916104dc565b90610d6991610327565b610d7483600d6104b5565b6001610d7f916104dc565b90610d8991610327565b610d946105786102ed565b610d9f83600d6104b5565b6002610daa916104dc565b90610db491610327565b610dbf82600d6104b5565b6003610dca916104dc565b90610dd491610327565b610ddf6109606102ed565b90610deb90600d6104b5565b6004610df6916104dc565b90610e0091610327565b610e0b613a986102ed565b610e16600d806104b5565b5f610e20916104dc565b90610e2a91610327565b610e35614e206102ed565b610e40600d806104b5565b6001610e4b916104dc565b90610e5591610327565b610e606165906102ed565b610e6b600d806104b5565b6002610e76916104dc565b90610e8091610327565b610e8b6175306102ed565b610e96600d806104b5565b6003610ea1916104dc565b90610eab91610327565b610eb66188b86102ed565b610ec1600d806104b5565b6004610ecc916104dc565b90610ed691610327565b84600e85610ee582600d6104b5565b5f610eef916104dc565b90610ef991610327565b82610f0582600d6104b5565b6001610f10916104dc565b90610f1a91610327565b83610f2682600d6104b5565b6002610f31916104dc565b90610f3b91610327565b84610f4782600d6104b5565b6003610f52916104dc565b90610f5c91610327565b610f6790600d6104b5565b6004610f72916104dc565b90610f7c91610327565b84600f85610f8b82600d6104b5565b5f610f95916104dc565b90610f9f91610327565b82610fab82600d6104b5565b6001610fb6916104dc565b90610fc091610327565b83610fcc82600d6104b5565b6002610fd7916104dc565b90610fe191610327565b84610fed82600d6104b5565b6003610ff8916104dc565b9061100291610327565b61100d90600d6104b5565b6004611018916104dc565b9061102291610327565b60109361103085600d6104b5565b5f61103a916104dc565b9061104491610327565b61104f84600d6104b5565b600161105a916104dc565b9061106491610327565b61106f83600d6104b5565b600261107a916104dc565b9061108491610327565b61108f82600d6104b5565b600361109a916104dc565b906110a491610327565b6110af90600d6104b5565b60046110ba916104dc565b9061007c91610327565b90610299565b906102999061013b565b6110e56110e18383611169565b1590565b6110ed575050565b61110c6001611107845f61110186826110c4565b016110ca565b61023e565b61112661112061111a339390565b9361013b565b9161013b565b917f2f8788117e7eff1d82e926ec794901d17c78024a50270940304540a733656f0d61115160405190565b5f90a4565b61008a90610289565b61008a9054611156565b61008a915f6111016111839361117c5f90565b50826110c4565b61115f56fe6080604052600436101561001a575b3615610018575f80fd5b005b5f3560e01c806301ffc9a7146104a9578063030f5782146104a45780630538809a1461049f57806311f5483a1461049a57806318f069b91461049557806319be57ee146104905780631bb445c21461048b5780631d9ff7d0146104865780631e1561b814610481578063234d41db1461047c578063248a9ca3146104775780632eb849eb146104725780632f2ff15d1461046d5780633535f48b1461046857806336568abe146104635780633cea70d91461045e5780633ede838c146104595780633f4ba83a14610454578063474744701461044f5780634da15f5c1461044a5780635312ea8e14610445578063554ba2201461044057806357762f6a1461043b5780635c975abb14610436578063655277021461043157806365cd79491461042c578063663b9a6314610427578063676a5068146104225780636e4d63001461041d57806372df82111461041857806372f3e635146104135780637354e29c1461040e5780637575fc7c1461040957806375b238fc14610404578063762b3c31146103ff5780637c93ff44146103fa5780638087dc46146103f55780638456cb59146103f0578063850c1f1f146103eb5780638e916a13146103e6578063908960e0146103e157806391d14854146103dc578063926207de146103d7578063980c6d6d146103d257806398e1ec8b146103cd5780639dd373b9146103c8578063a217fddf146103c3578063a42b6a8e146103be578063ab3acc24146103b9578063ae9a5fcd146103b4578063b5619d26146103af578063bd6d0224146103aa578063bf2d9e0b146103a5578063c0e383d0146103a0578063cc8854cc1461039b578063d1f038d114610396578063d254766414610391578063d283cb2f1461038c578063d547741f14610387578063d7432c6214610382578063d79630461461037d578063dadef3f914610378578063dd19171914610373578063de6bbf1d1461036e578063eb82083014610369578063ec2f595114610364578063f0ec2ce11461035f578063f8289b851461035a578063f96ecb4b14610355578063fc76470814610350578063fd1828a91461034b578063fde4b226146103465763fe47a9f20361000e57611ce3565b611cb5565b611c78565b611c47565b611bf8565b611bd2565b611bab565b611b8f565b611b65565b611ae5565b611abe565b611aa3565b611a79565b611a24565b611a0b565b6119f0565b6119c6565b6119aa565b611913565b611900565b6118e5565b6118be565b61185e565b611834565b61180e565b6117f5565b6117da565b6117b1565b611796565b61176c565b611753565b611737565b61171e565b6116e7565b611670565b61162f565b6115fe565b61150b565b6114b4565b61147f565b611464565b61143c565b6113fe565b6113d7565b6113bc565b6113a1565b61131f565b6112e8565b611064565b611035565b611016565b610f9c565b610f28565b610f01565b610e8b565b610dfa565b610dd0565b610c53565b610c2f565b610bfa565b610bb7565b610b66565b610a9d565b610a81565b610a68565b6109ef565b6109a0565b610902565b61083d565b6106a6565b610624565b6105e5565b6104ef565b6001600160e01b031981165b036104c157565b5f80fd5b905035906104d2826104ae565b565b906020828203126104c1576104e8916104c5565b90565b9052565b346104c15761051c61050a6105053660046104d4565b611cfb565b60405191829182901515815260200190565b0390f35b601411156104c157565b905035906104d282610520565b600511156104c157565b905035906104d282610537565b806104ba565b905035906104d28261054e565b909182601f830112156104c15781359167ffffffffffffffff83116104c15760200192600183028401116104c157565b906080828203126104c1576105a6818361052a565b926105b48260208501610541565b926105c28360408301610554565b92606082013567ffffffffffffffff81116104c1576105e19201610561565b9091565b61051c6105ff6105f6366004610591565b939290926124a2565b6040515b9182918290815260200190565b906020828203126104c1576104e891610554565b346104c15761063c610637366004610610565b6126f3565b604051005b5f9103126104c157565b0190565b61065f61065b60039390565b9190565b5f915b83831061066f5750505050565b61068d610686600192845161ffff16815260200190565b9260200190565b92019190610662565b6060810192916104d2919061064f565b346104c1576106b6366004610641565b61051c6106c1612790565b60405191829182610696565b634e487b7160e01b5f52602160045260245ffd5b601411156106eb57565b6106cd565b906104d2826106e1565b6104e8906106f0565b6104eb906106fa565b600511156106eb57565b906104d28261070c565b6104e890610716565b6104eb90610720565b6001600160a01b031690565b5f5b83811061074f5750505f910152565b8181015183820152602001610740565b61078061078960209361064b93610774815190565b80835293849260200190565b9586910161073e565b601f01601f191690565b906104e8906101008061082461012084016107b45f8801515f870190610703565b6107c660208801516020870190610729565b6107d560408801516040870152565b6060878101516001600160a01b0316908601526107f760808801516080870152565b61080660a088015160a0870152565b60c08781015115159086015260e087015185820360e087015261075f565b940151910152565b60208082526104e892910190610793565b346104c15761051c610858610853366004610610565b61294d565b6040519182918261082c565b6001600160a01b0381166104ba565b905035906104d282610864565b91906040838203126104c1576104e890602061089c8286610873565b940161052a565b906108bc6106866108b2845190565b8084529260200190565b905f5b8181106108cc5750505090565b9091926108e96108e26001928651815260200190565b9460200190565b9291016108bf565b60208082526104e8929101906108a3565b346104c15761051c61091e610918366004610880565b906129eb565b604051918291826108f1565b91906040838203126104c1576104e8906020610946828661052a565b9401610541565b90610957906106fa565b5f5260205260405f2090565b9061095790610720565b6104e8916008021c81565b906104e8915461096d565b61099b6104e8926109965f93600f61094d565b610963565b610978565b346104c15761051c6105ff6109b636600461092a565b90610983565b6104e8916008021c5b61ffff1690565b906104e891546109bc565b6109ea6104e8926109965f93600d61094d565b6109cc565b346104c15761051c610a0b610a0536600461092a565b906109d7565b6040515b9182918261ffff909116815260200190565b61ffff81166104ba565b905035906104d282610a21565b90916060828403126104c1576104e8610a51848461052a565b936040610a618260208701610541565b9401610a2b565b346104c15761063c610a7b366004610a38565b91612b27565b346104c15761051c6105ff610a9736600461092a565b90612b32565b346104c15761051c6105ff610ab3366004610610565b612b42565b906020828203126104c1576104e891610873565b906104e891610793565b90610aec610ae2835190565b8083529160200190565b9081610afe6020830284019460200190565b925f915b838310610b1157505050505090565b90919293946020610b34610b2d83856001950387528951610acc565b9760200190565b9301930191939290610b02565b60408082526104e8939192610b5891840190610ad6565b916020818403910152610ad6565b346104c157610b7e610b79366004610ab8565b612bed565b9061051c610b8b60405190565b92839283610b41565b91906040838203126104c1576104e8906020610bb08286610554565b9401610873565b346104c15761063c610bca366004610b94565b90612e2b565b6104e8916008021c6001600160a01b031690565b906104e89154610bd0565b6104e85f6009610be4565b346104c157610c0a366004610641565b61051c610c15610bef565b604051918291826001600160a01b03909116815260200190565b346104c15761063c610c42366004610b94565b90612e9e565b6104e85f6008610be4565b346104c157610c63366004610641565b61051c610c15610c48565b9061064b81602093610703565b90610c8a6106866108b2845190565b905f5b818110610c9a5750505090565b909192610cad6108e26001928651610c6e565b929101610c8d565b90610cc46106866108b2845190565b905f5b818110610cd45750505090565b909192610ced6108e2600192865160ff16815260200190565b929101610cc7565b90610d046106866108b2845190565b905f5b818110610d145750505090565b909192610d2a6108e26001928651815260200190565b929101610d07565b906104e891610cf5565b90610d48610ae2835190565b9081610d5a6020830284019460200190565b925f915b838310610d6d57505050505090565b90919293946020610d89610b2d83856001950387528951610d32565b9301930191939290610d5e565b91610dc290610db46104e8959360608601908682035f880152610c7b565b908482036020860152610cb5565b916040818403910152610d3c565b346104c157610de0366004610641565b61051c610deb612f6e565b60405191939193849384610d96565b346104c157610e0a366004610641565b61063c61315e565b90610e216106866108b2845190565b905f5b818110610e315750505090565b909192610e496108e260019286511515815260200190565b929101610e24565b91610e7d90610e6f6104e8959360608601908682035f880152610ad6565b908482036020860152610e12565b916040818403910152610e12565b346104c15761051c610ea6610ea1366004610ab8565b613166565b60405191939193849384610e51565b610ec161065b60059390565b5f915b838310610ed15750505050565b610ee8610686600192845161ffff16815260200190565b92019190610ec4565b60a0810192916104d29190610eb5565b346104c157610f11366004610641565b61051c610f1c613356565b60405191829182610ef1565b346104c15761063c610f3b366004610610565b613530565b906020828203126104c1576104e89161052a565b610f6061065b60059390565b5f915b838310610f705750505050565b610f836106866001928451815260200190565b92019190610f63565b60a0810192916104d29190610f54565b346104c15761051c610fb7610fb2366004610f40565b613539565b60405191829182610f8c565b909160c0828403126104c157610fd9838361052a565b92610fe78160208501610a2b565b92610ff58260408301610a2b565b926104e86110068460608501610a2b565b9360a0610a618260808701610a2b565b346104c15761063c611029366004610fc3565b94939093929192613707565b346104c157611045366004610641565b61051c61050a613715565b906020828203126104c1576104e891610541565b346104c15761051c6105ff61107a366004611050565b61372c565b6104e86104e86104e89290565b906109579061107f565b6104e8905b60ff1690565b6104e89054611096565b6104e89060081c61109b565b6104e890546110ab565b6104e89081565b6104e890546110c1565b6104e890610732565b6104e890546110d2565b634e487b7160e01b5f52602260045260245ffd5b9060016002830492168015611119575b602083101461111457565b6110e5565b91607f1691611109565b80545f93929161113f611135836110f9565b8085529360200190565b916001811690811561118e575060011461115857505050565b61116991929394505f5260205f2090565b915f925b81841061117a5750500190565b80548484015260209093019260010161116d565b92949550505060ff1916825215156020020190565b906104e891611123565b634e487b7160e01b5f52604160045260245ffd5b90601f01601f1916810190811067ffffffffffffffff8211176111e357604052565b6111ad565b906104d2611202926111f960405190565b938480926111a3565b03836111c1565b61121490600461108c565b61121d816110a1565b91611227826110b7565b91611234600182016110c8565b91611241600283016110db565b9161124e600382016110c8565b9161125b600483016110c8565b91611268600582016110a1565b916104e8600761127a600685016111e8565b93016110c8565b999897969492909593916101208b01965f8c0161129d91610703565b60208b016112aa91610729565b60408a01526001600160a01b03166060890152608088015260a0870152151560c086015284810360e08601526112df9161075f565b61010090930152565b346104c15761051c6113036112fe366004610610565b611209565b9561131699979995919594929460405190565b998a998a611281565b346104c15761051c61133a611335366004610ab8565b61374f565b6040519182918260ff909116815260200190565b60ff81166104ba565b905035906104d28261134e565b906020828203126104c1576104e891611357565b61109b6104e86104e89260ff1690565b9061095790611378565b5f6109ea6104e892600c611388565b346104c15761051c610a0b6113b7366004611364565b611392565b346104c1576113cc366004610641565b61051c610fb7613765565b346104c15761063c6113ea366004610610565b6138f2565b5f61099b6104e892601261094d565b346104c15761051c6105ff611414366004610f40565b6113ef565b91906040838203126104c1576104e89060206114358286611357565b9401610554565b346104c15761063c61144f366004611419565b906139c3565b5f61099b6104e892601461094d565b346104c15761051c6105ff61147a366004610f40565b611455565b346104c15761148f366004610641565b61051c5f516020615fc85f395f51905f526105ff565b5f61099b6104e8926015610963565b346104c15761051c6105ff6114ca366004611050565b6114a5565b909594926104d294611500611507926114f96080966114f260a088019c5f890152565b6020870152565b6040850152565b6060830152565b0152565b346104c15761151b366004610641565b61051c6115266139f0565b9161153395939560405190565b958695866114cf565b906104e89161075f565b90611552610ae2835190565b90816115646020830284019460200190565b925f915b83831061157757505050505090565b90919293946020611593610b2d8385600195038752895161153c565b9301930191939290611568565b93906104e895936115d46115f0946115c66115e29460a08a01908a82035f8c0152610ad6565b9088820360208a0152610e12565b908682036040880152610e12565b9084820360608601526108a3565b916080818403910152611546565b346104c15761051c611619611614366004610ab8565b613bf3565b9161162695939560405190565b958695866115a0565b346104c15761163f366004610641565b61063c613e12565b90916060828403126104c1576104e8611660848461052a565b9360406114358260208701610541565b346104c15761063c611683366004611647565b91613f14565b6107326104e86104e8926001600160a01b031690565b6104e890611689565b6104e89061169f565b90610957906116a8565b6104e8916008021c61109b565b906104e891546116bb565b5f6116e26104e89260076116b1565b6116c8565b346104c15761051c61133a6116fd366004610ab8565b6116d3565b91906040838203126104c1576104e8906020610a618286611357565b346104c15761063c611731366004611702565b90614003565b346104c15761051c61050a61174d366004610b94565b9061400d565b346104c15761063c611766366004610b94565b906141a5565b346104c15761051c610ea6611782366004610ab8565b6141af565b5f61099b6104e8926013610963565b346104c15761051c6105ff6117ac366004611050565b611787565b346104c15761063c6117c4366004610ab8565b61438f565b6104e85f61107f565b6104e86117c9565b346104c1576117ea366004610641565b61051c6105ff6117d2565b346104c15761063c611808366004611702565b9061445e565b346104c15761051c61091e611824366004610ab8565b614468565b6104e85f6010610978565b346104c157611844366004610641565b61051c6105ff611829565b5f6109ea6104e892600b611388565b346104c15761051c610a0b611874366004611364565b61184f565b919060a0838203126104c15761188f8184610554565b9261189d8260208301610554565b926104e86118ae8460408501610554565b9360806114358260608701610554565b346104c15761063c6118d1366004611879565b93929092614532565b6104e85f6011610978565b346104c1576118f5366004610641565b61051c6105ff6118da565b61063c61190e366004610610565b6147b2565b346104c15761051c611526611929366004610ab8565b6147bb565b91906040838203126104c1576104e89060206114358286610873565b634e487b7160e01b5f52603260045260245ffd5b805482101561197e576119766001915f5260205f2090565b910201905f90565b61194a565b61198e9060066116b1565b80548210156104c1576104e8916119a49161195e565b90610978565b346104c15761051c6105ff6119c036600461192e565b90611983565b346104c15761051c61091e6119dc366004610ab8565b6148e7565b5f6116e26104e892600e61094d565b346104c15761051c61133a611a06366004610f40565b6119e1565b346104c15761063c611a1e366004610b94565b906149fb565b346104c15761051c610f1c611a3a366004610f40565b614a05565b91611a6b90611a5d6104e8959360608601908682035f880152610c7b565b9084820360208601526108a3565b9160408184039101526108a3565b346104c157611a89366004610641565b61051c611a94614aff565b60405191939193849384611a3f565b346104c157611ab3366004610641565b61051c611a94614bf4565b346104c157611ace366004610641565b61063c614d5a565b5f61099b6104e892600a611388565b346104c15761051c6105ff611afb366004611364565b611ad6565b9061064b81602093610729565b90611b1c6106866108b2845190565b905f5b818110611b2c5750505090565b909192611b3f6108e26001928651611b00565b929101611b1f565b91611a6b90611a5d6104e8959360608601908682035f880152611b0d565b346104c157611b75366004610641565b61051c611b80614d62565b60405191939193849384611b47565b346104c15761063c611ba2366004611879565b93929092614ed8565b346104c157611bbb366004610641565b61063c614f06565b5f61099b6104e89260166116b1565b346104c15761051c6105ff611be8366004610ab8565b611bc3565b61198e9060056116b1565b346104c15761051c6105ff611c0e36600461192e565b90611bed565b611c406104d294611c39606094989795611c32608086019a5f870152565b6020850152565b6040830152565b0190610703565b346104c15761051c611c62611c5d366004610ab8565b614f0e565b90611c6f94929460405190565b94859485611c14565b346104c15761063c611c8b366004610610565b614f9d565b60408082526104e8939192611ca791840190610ad6565b916020818403910152610e12565b346104c157611ccd611cc8366004610ab8565b615112565b9061051c611cda60405190565b92839283611c90565b346104c15761063c611cf6366004610ab8565b61525e565b637965db0b60e01b6001600160e01b0319821614908115611d1a575090565b6104e891506001600160e01b0319166301ffc9a760e01b1490565b906104e89594939291611d466152a6565b90611d5c9594939291611d5761530f565b6120ca565b906104d2615341565b61109b6104e86104e89290565b6104e86001611d65565b6104e86010611d65565b6104e86004611d65565b6104e86104e86104e89260ff1690565b6104e86032611d65565b9081526040810192916104d29160200152565b6104e862278d0061107f565b634e487b7160e01b5f52601160045260245ffd5b91908201809211611dea57565b611dc9565b9060ff905b9181191691161790565b90611e0e6104e8611e15926106fa565b8254611def565b9055565b9061ff009060081b611df4565b90611e366104e8611e1592610720565b8254611e19565b905f1990611df4565b90611e566104e8611e159261107f565b8254611e3d565b906001600160a01b0390611df4565b90611e7c6104e8611e15926116a8565b8254611e5d565b90611e0e6104e8611e1592151590565b915f1960089290920291821b911b611df4565b9190611eb76104e8611e159361107f565b908354611e93565b6104d2915f91611ea6565b818110611ed5575050565b80611ee25f600193611ebf565b01611eca565b9190601f8111611ef757505050565b611f076104d2935f5260205f2090565b906020601f840181900483019310611f29575b6020601f909101040190611eca565b9091508190611f1a565b919067ffffffffffffffff82116111e357611f5882611f5285546110f9565b85611ee8565b5f90601f8311600114611f9057611e1592915f9183611f85575b50505f19600883021c1916906002021790565b013590505f80611f72565b90601f19831691611fa4855f5260205f2090565b925f5b818110611fe057509160029391856001969410611fc8575b50505002019055565b01355f19601f84166008021c191690555f8080611fbf565b92936020600181928786013581550195019301611fa7565b906104d29291611f33565b90815491680100000000000000008310156111e3578261202b9160016104d29501815561195e565b90611ea6565b5f198114611dea5760010190565b6040906115076104d2949695939661205e60608401985f850190610703565b6020830190610729565b6120876104e89361208060608401945f850190610703565b6020830152565b6040818303910152601981527f50555243484153455f494e444956494455414c5f534b494c4c00000000000000602082015260400190565b6040513d5f823e3d90fd5b5092939290916120d9826106fa565b6120e1611d72565b906120f160ff83165b9160ff1690565b108015612484575b61245e5761210684610720565b6121146120ea61109b611d86565b116124385761212290611d90565b81108015612420575b612409578361213c61065b5f61107f565b146123f85761214b8383615357565b938434106123dc5791612222612336926122187ff38edfb531b7e5ecb36f5810588b0158177a68cbfc19fdf5e73bcc37b095bb8395612188600390565b9961219b6121958c615454565b9b615467565b6122028b6121df6121c16104e86121b96121b3611dbd565b42611ddd565b93600461108c565b966121d68d896121d18d82611dfe565b611e26565b60018801611e46565b6121ec3360028801611e6c565b6121f94260038801611e46565b60048601611e46565b61220f5f60058601611e83565b60068401611ff8565b6007429101611e46565b612239866122346104e83360056116b1565b612003565b61225561224e61224960106110c8565b612031565b6010611e46565b61227261226b8661226660116110c8565b611ddd565b6011611e46565b61229261228082601261094d565b61228c612249826110c8565b90611e46565b6122a0612280856013610963565b6122bb6122ae82601461094d565b61228c87612266836110c8565b6122c96122ae856015610963565b6122d76122ae3360166116b1565b6122e0336116a8565b93847fa24add44f839e4a174295a620f3ddbb4677703fc07bf693e61c6e52e920359c761230c8961107f565b97889361232561231b60405190565b928392888461203f565b0390a3604051918291349083612068565b0390a361234e61234961234960086110db565b6116a8565b63ee700cc890803b156104c157612373915f9161236a60405190565b93849260e01b90565b825260206004830152601960248301527f696e646976696475616c5f736b696c6c5f7075726368617365000000000000006044830152606490829034905af180156123d7576123c0575090565b6104e8905f6123cf81836111c1565b810190610641565b6120bf565b63af608abb60e01b5f9081526123f434876004611daa565b035ffd5b635e765b2560e11b5f908152600490fd5b639cb3af6760e01b5f908152600491909152602490fd5b5061243161242c611da0565b611d90565b811161212b565b5f6123f461244586610720565b63ad2489af60e01b835260ff1660048301526024820190565b5f6123f461246b856106fa565b6327987c8f60e01b835260ff1660048301526024820190565b5061248e836106fa565b61249c6120ea61109b611d7c565b116120f9565b6104e894939291905f611d35565b6104d2906124bc6152a6565b61250e565b6107326104e86104e89290565b6104e8906124c1565b6104e8600561107f565b60016104e8910160ff1690565b90611e0e6104e8611e1592611378565b6020810192916104d29190610703565b600461251d6104e8838361108c565b906002820161252b816110db565b61253d335b916001600160a01b031690565b036126e35761254b906110db565b61255a6125306107325f6124ce565b146126cc57600582019061256d826110a1565b6126be578083016125806104e8826110c8565b42101561269a5750612591336154b8565b6125a461259f3360076116b1565b6110a1565b6125ac6124d7565b906125b78291611d90565b1015612673575050612624916125cf60015f93611e83565b6125e1846122346104e83360066116b1565b6126066125ef3360076116b1565b6126006125fb826110a1565b6124e1565b906124ee565b0161259f612613826110a1565b61261c836110b7565b9085336155e3565b907f3c1e2947eccfc26b7af1957d6b147f0437d82aa658e1d63fa59cca763922430f61266e61265b612655336116a8565b9361107f565b9361266560405190565b918291826124fe565b0390a3565b5f916126816123f492611d65565b63567af16960e01b845260ff1690830190815260200190565b5f916126a86123f4926110c8565b6364c0907560e11b845290830190815260200190565b6393f3800760e01b5f908152fd5b639eeb380960e01b5f90815283825290602001035ffd5b632500456d60e01b5f9081528290fd5b6104d2906124b0565b906104d261270960405190565b92836111c1565b67ffffffffffffffff81116111e35760200290565b6127316104e891612710565b6126fc565b369037565b906104d261275161274b84612725565b93612710565b83612736565b6104e8600361273b565b9061095790611d65565b6104e8906109c5565b6104e8905461276b565b9060035b81101561197e576020020190565b612798612757565b6104e86127f96127b66003600c6127d66127bb6127b6600184612761565b612774565b6127cd6127c75f61107f565b8961277e565b9061ffff169052565b6127f46127e76127b6600284612761565b6127cd6127c7600161107f565b612761565b6127cd612806600261107f565b8461277e565b6104e86101206126fc565b61281f61280c565b905f8252602080808080808080808a015f8152015f8152015f8152015f8152015f8152015f81520160608152015f905250565b6104e8612817565b906104eb906106f0565b906104eb90610716565b906104d261293c600761287f61280c565b9461289261288c826110a1565b8761285a565b6128a761289e826110b7565b60208801612864565b6128bd6128b6600183016110c8565b6040880152565b6128dc6128cc600283016110db565b6001600160a01b03166060880152565b6128f26128eb600383016110c8565b6080880152565b612908612901600483016110c8565b60a0880152565b612920612917600583016110a1565b151560c0880152565b61293661292f600683016111e8565b60e0880152565b016110c8565b610100840152565b6104e89061286e565b6129646104e89161295c612852565b50600461108c565b612944565b906129826129786108b2845490565b925f5260205f2090565b905f5b8181106129925750505090565b9091926129b66129af6001926129a7876110c8565b815260200190565b9460010190565b929101612985565b906104e891612969565b906104d2611202926129d960405190565b938480926129be565b6104e8906129c8565b6104e891506129fb9060066116b1565b6129e2565b6104d2929190612a215f516020615fc85f395f51905f5261567e565b61567e565b612a58565b9061ffff90611df4565b6109c56104e86104e89261ffff1690565b90612a516104e8611e1592612a30565b8254612a26565b612a61816106fa565b612a6f6120ea61109b611d72565b108015612b09575b612afc57612a8482610720565b612a926120ea61109b611d86565b11612aef5761266e612ae5612adf83612ada87612ad5886109967f4fec850a3969cc2947a35d356d1d1423b857a49ca7ee4ad738e382cfbd6abfa699600d61094d565b612a41565b6106fa565b93610720565b93610a0f60405190565b5f6123f461244584610720565b6123f461246b5f926106fa565b50612b13816106fa565b612b216120ea61109b611d7c565b11612a77565b906104d29291612a00565b6104e89190615357565b90610957565b60016129366104e892612b525f90565b505f612b3c565b90612b62825190565b81101561197e576020809102010190565b6104e890516106f0565b67ffffffffffffffff81116111e35760208091020190565b90612ba261273183612b7d565b918252565b5f5b828110612bb557505050565b602090612bc0612852565b8184015201612ba9565b906104d2612be0612bda84612b95565b93612b7d565b601f190160208401612ba7565b6129fb612c0491612bfc606090565b5060056116b1565b90612c0e5f61107f565b80805b612c1c6104e8865190565b811015612ceb57612c4f612ada5f612c496129646004612c43612c3f888d612b59565b5190565b9061108c565b01612b73565b612c596001611d65565b60ff8216101580612cd5575b15612c84575090612c78612c7f91612031565b9160010190565b612c11565b612c8e6008611d65565b60ff821610159081612cbe575b50612ca9575b600101612c11565b91612cb6612c7f91612031565b929050612ca1565b9050612ccd6120ea6010611d65565b11155f612c9b565b50612ce06007611d65565b60ff82161115612c65565b50612cf8612cfe91612bca565b91612bca565b90612d085f61107f565b9081825b612d176104e8885190565b841015612e0657612d336129646004612c43612c3f888c612b59565b612d3f612ada82612b73565b612d496001611d65565b60ff8216101580612df0575b15612d8b575081612d7e91612d6d612d859487612b59565b52612d788186612b59565b50612031565b9360010190565b92612d0c565b612d986008969396611d65565b60ff821610159081612dd9575b50612db4575b50600101612d85565b82612dd291612dc7612d85949589612b59565b52612d788188612b59565b9190612dab565b9050612de86120ea6010611d65565b11155f612da5565b50612dfb6007611d65565b60ff82161115612d55565b5050919350509190565b906104d291612e21612a1c82612b42565b906104d291615689565b906104d291612e10565b15612e3c57565b60405162461bcd60e51b815260206004820152602f60248201527f416363657373436f6e74726f6c3a2063616e206f6e6c792072656e6f756e636560448201526e103937b632b9903337b91039b2b63360891b606482015280608481015b0390fd5b6104d29190612ebf612eaf33610732565b6001600160a01b03841614612e35565b6156f7565b906104d2612ed4612bda84612b95565b601f190160208401612736565b5f5b828110612eef57505050565b606082820152602001612ee3565b906104d2612f0d612bda84612b95565b601f190160208401612ee1565b60ff1660ff8114611dea5760010190565b612f3b6104e86104e89260ff1690565b6106f0565b612f4c9060ff166120ea565b90039060ff8211611dea57565b612f696104e86104e89260ff1690565b610716565b6010612f7a601061107f565b91612f8483612ec4565b612f96612f9085612ec4565b94612efd565b9260019081612fa481611d65565b905b612fb3575b505050929190565b612fbc82611d65565b60ff8216116131385782612fcf82612f2b565b612ff681612ff1612feb61242c612fe587611d65565b88612f40565b89612b59565b61285a565b6130006007611d65565b60ff841611613123576130406130155f611d65565b949392945b61303861303261242c61302c89611d65565b87612f40565b8c612b59565b9060ff169052565b600561308561307f6130596130548461107f565b612ec4565b61306561302c89611d65565b906130798d61307384611d90565b90612b59565b52611d90565b8a612b59565b50846130905f611d65565b905b6130aa575b5050506130a390612f1a565b9091612fa6565b6130b78296949596611d65565b60ff8216101561311a57806125fb8b61310e6131046130ee6130e96130de61311198612f59565b6109968b600f61094d565b6110c8565b9261307361242c6130fe8c611d65565b8d612f40565b5161307385611d90565b52565b83959493613092565b94939294613097565b61304061312f83611d65565b9493929461301a565b612fab565b6131535f516020615fc85f395f51905f5261567e565b6104d26104d261579a565b6104d261313d565b6129fb61317591612bfc606090565b9061317f5f61107f565b805b61318c6104e8855190565b811015613208576131b2612ada5f6131ac6004612c43612c3f878b612b59565b016110a1565b6131bc6001611d65565b60ff8216101590816131f1575b506131dc575b600101613181565b613181565b906131e96131d791612031565b9190506131cf565b90506132006120ea6007611d65565b11155f6131c9565b5061321281612bca565b61322461321e83612ec4565b92612ec4565b9061322e5f61107f565b91825b61323c6104e8885190565b81101561333a5761325d612964613256612c3f848b612b59565b600461108c565b613269612ada82612b73565b6132736001611d65565b60ff821610159081613323575b50613294575b50600101613231565b613231565b846122496132ed6104e860a0856132fa966132b361328f999c8c612b59565b526132be868b612b59565b50856132cd60c0830151151590565b8d81613301575b6132e8926132e191612b59565b9015159052565b015190565b4210156132e18387612b59565b9390613286565b90506132e16132e8926133176104e88787015190565b421092915092506132d4565b90506133326120ea6007611d65565b11155f613280565b5090945091929050565b6104e8600561273b565b906005612782565b61335e613344565b6133675f611d65565b6133716005611d65565b60ff821610156133a757806125fb6133906127b66133a294600b611388565b6127cd61339c84611d90565b8661334e565b613367565b5090565b6104d2906133c55f516020615fc85f395f51905f5261567e565b613433565b6104eb9061107f565b9081526040810192916104d2916020905b01906133ca565b67ffffffffffffffff81116111e357602090601f01601f19160190565b90612ba2612731836133eb565b3d1561342e576134243d613408565b903d5f602084013e565b606090565b61343c5f61107f565b81146135165761344b306116a8565b803182116134fc575061345e60086110db565b61346d6125306107325f6124ce565b146134eb5761349d5f8061348761234961234960086110db565b6040515f9186905af1613498613415565b501590565b6134eb576134ab60086110db565b7f3ab9db27a4cdd8c603a752b62d5fbd93b4b3509fe2596708e9688e42bbac357661266e6134e16134db336116a8565b936116a8565b9361060360405190565b63e6c4247b60e01b5f908152600490fd5b63af608abb60e01b5f908152916123f49131906004611daa565b63af608abb60e01b5f908152906123f490829060046133d3565b6104d2906133ab565b613541613344565b9061354b5f611d65565b6135556005611d65565b60ff8216101561358f57806125fb61357861357261358a94612f59565b85615357565b61310e61358484611d90565b8761334e565b61354b565b505090565b6104d29594939291906135b35f516020615fc85f395f51905f5261567e565b929093916135c0846106fa565b6135ce6120ea61109b611d72565b1080156136e9575b6136dc579083929161364087612ad560046109966136ce99600d6136028d612ad55f610996868661094d565b61361588612ad56001610996868661094d565b61362889612ad56002610996868661094d565b61363b8a612ad56003610996868661094d565b61094d565b7f4fec850a3969cc2947a35d356d1d1423b857a49ca7ee4ad738e382cfbd6abfa69561366b856106fa565b87613678612ae55f610720565b0390a3613684846106fa565b86613692612ae56001610720565b0390a361369e836106fa565b856136ac612ae56002610720565b0390a36136b8826106fa565b846136c6612ae56003610720565b0390a36106fa565b9061266e612ae56004610720565b5f6123f461246b866106fa565b506136f3846106fa565b6137016120ea61109b611d7c565b116135d6565b906104d29594939291613594565b6104e860016110a1565b612f3b6104e86104e89290565b6130e96104e89161373a5f90565b50610996613748600861371f565b600f61094d565b61259f6104e89161375d5f90565b5060076116b1565b61376d613344565b6137765f611d65565b6137806005611d65565b60ff821610156133a757806125fb61379f6130e96137ab94600a611388565b61310e61339c84611d90565b613776565b6104d2906137bc6152a6565b6137ce565b60016104e8910360ff1690565b6137dc6104e882600461108c565b6137e8600282016110db565b6137f133612530565b036138e1576005810161380a613806826110a1565b1590565b6138d0575f61381891611e83565b6138326138068361382d6104e83360066116b1565b6157dd565b6138ba575f6138659161384961259f3360076116b1565b6138556120ea84611d65565b11613896575b6131ac8433615879565b907f83c082921b7caf1a96d9ce647becd54e4ff5e95f02eb8b2b3d23fb2daecfa46861266e61265b612655336116a8565b6138b56138a43360076116b1565b6126006138b0826110a1565b6137c1565b61385b565b6372e2506b60e11b5f9081526004839052602490fd5b636379c45760e11b5f908152600490fd5b632500456d60e01b5f908152600490fd5b6104d2906137b0565b6104d291906139165f516020615fc85f395f51905f5261567e565b61392161109b611d86565b60ff8216116139a9576139335f61107f565b82146139915761398c61398261397d83613978866139737fb72dc354a47d0e65eede275ad8905a7d03efc42c5699b7ce2cfd946f0902f76d97600a611388565b611e46565b612f59565b610720565b9261060360405190565b0390a2565b63af608abb60e01b5f9081526123f4818460046133d3565b63ad2489af60e01b5f90815260ff9091166004526024035ffd5b906104d2916138fb565b634e487b7160e01b5f52601260045260245ffd5b81156139eb570490565b6139cd565b6139fa60106110c8565b9081613a0660116110c8565b8091613a115f61107f565b811115613b4557613a21916139e1565b91613a2c6003615454565b90613a365f61107f565b92835b83811015613ab257600481613a596002613a53838561108c565b016110db565b613a686125306107325f6124ce565b14159182613a9a575b5050613a85575b600101613a39565b613a39565b93613a92613a8091612031565b949050613a78565b613aab92506005916131ac9161108c565b815f613a71565b50919390613abf5f61107f565b805b86811015613b3b57613ad96002613a5383600461108c565b613ae56107325f6124ce565b6001600160a01b03821614159081613b14575b50613b0557600101613ac1565b506104e8919293949550612031565b613b289150613b249060056116b1565b5490565b613b3461065b5f61107f565b115f613af8565b5090919293945090565b5050613b505f61107f565b613a21565b5f5b828110613b6357505050565b606082820152602001613b57565b906104d2613b81612bda84612b95565b601f190160208401613b55565b91908203918211611dea57565b613ba56007613408565b662aa725a727aba760c91b602082015290565b613bc26008613408565b67504c4154464f524d60c01b602082015290565b613be06007613408565b665354414b494e4760c81b602082015290565b6129fb613c0291612bfc606090565b90613c0b825190565b90613c1582612bca565b613c1e83612ec4565b613c2784612ec4565b90613c3185612ec4565b95613c3b86613b71565b94613c455f61107f565b875b811015613de257613d438187818c60a0613c6d612964613256612c3f613c479a8d612b59565b613c8f84613c7d612ada84612b73565b9683613c898383612b59565b52612b59565b5083613c9e60c0830151151590565b8c81613dc0575b613cb2926132e191612b59565b01613ccf8b6132e185613cc66104e8865190565b42101592612b59565b613cda6104e8825190565b421015613daa57613d0092613cfa613cf361310e935190565b4290613b8e565b92612b59565b613d0a6001611d65565b60ff8216101580613d94575b15613d4a5750613d31613d27613bd6565b61310e838c612b59565b613d3b818a612b59565b505b60010190565b9050613c45565b613d546008611d65565b60ff821610159081613d7d575b5015613d7257613d31613d27613bb8565b613d31613d27613b9b565b9050613d8c6120ea6010611d65565b11155f613d61565b50613d9f6007611d65565b60ff82161115613d16565b5061310e613dbb92613cfa5f61107f565b613d00565b90506132e1613cb292613dd66104e88787015190565b42109291509250613ca5565b50929550509492919493929190565b613e075f516020615fc85f395f51905f5261567e565b6104d26104d2615916565b6104d2613df1565b6104d2929190613e365f516020615fc85f395f51905f5261567e565b613e5a565b6104eb90611d90565b9081526040810192916104d29160200190613e3b565b92919092613e67816106fa565b613e756120ea61109b611d72565b108015613ef6575b612afc57613e8a84610720565b613e986120ea61109b611d86565b1161243857613ee0613eda8561397d856139737fe39dd15db0b108e8191c7305d60bd9fc58ebf4a2a296a1d49252bababa47eed197989961099688600f61094d565b916106fa565b9261398c613eed60405190565b92839283613e44565b50613f00816106fa565b613f0e6120ea61109b611d7c565b11613e7d565b906104d29291613e1a565b6104d29190613f3a5f516020615fc85f395f51905f5261567e565b613f80565b6109c56104e86104e89290565b6104e86104e86104e89261ffff1690565b6104eb90613f4c565b9160206104d29294936133e460408201965f830190613f5d565b613f8b61109b611d86565b60ff8216116139a957613f9d5f613f3f565b61ffff831614613feb5761398c613fe161397d8361397886612ad57f3e299cb159d184adb21adbcd6d53a9058d9a4cc7380dd2ddfafdfe7e0591209197600b611388565b92610a0f60405190565b63af608abb60e01b5f9081526123f481846004613f66565b906104d291613f1f565b6104e8915f61402761259f936140205f90565b5082612b3c565b016116b1565b906104d29161403a6152a6565b6140435f6124ce565b6001600160a01b0381166001600160a01b038416146134eb5760049061406c6104e8848461108c565b91600283019161408e612530614081856110db565b926001600160a01b031690565b1461418e5761409c826110db565b6140a533612530565b03614180576140b6600584016110a1565b614172578083016140c96104e8826110c8565b42101561269a57506140e66138068561382d6104e83360056116b1565b61415b575061410c916140fa855f93611e6c565b6131ac846122346104e88860056116b1565b917f94855b6276c7880af847d362eadca337daa949f718fbfaa881bcea598fb2281a61415661414c614146614140336116a8565b946116a8565b9461107f565b9461266560405190565b0390a4565b6372e2506b60e11b5f90815284825290602001035ffd5b63ee0c112d60e01b5f908152fd5b632500456d60e01b5f908152fd5b639eeb380960e01b5f90815284825290602001035ffd5b906104d29161402d565b6129fb6141be91612bfc606090565b906141c85f61107f565b805b6141d56104e8855190565b81101561424b576141f5612ada5f6131ac6004612c43612c3f878b612b59565b6141ff6008611d65565b60ff821610159081614234575b5061421f575b6001016141ca565b6141ca565b9061422c61421a91612031565b919050614212565b90506142436120ea6010611d65565b11155f61420c565b5061425581612bca565b61426161321e83612ec4565b9061426b5f61107f565b91825b6142796104e8885190565b81101561333a57614293612964613256612c3f848b612b59565b61429f612ada82612b73565b6142a96008611d65565b60ff8216101590816142f0575b506142ca575b5060010161426e565b61426e565b846122496132ed6104e860a0856142e9966132b36142c5999c8c612b59565b93906142bc565b90506142ff6120ea6010611d65565b11155f6142b6565b6104d2906143215f516020615fc85f395f51905f5261567e565b61432d6107325f6124ce565b6001600160a01b038216146134eb5761435d61435761434c60096110db565b612349846009611e6c565b916116a8565b907f7042586b23181180eb30b4798702d7a0233b7fc2551e89806770e8e5d9392e6a61438860405190565b808061266e565b6104d290614307565b6104d291906143b35f516020615fc85f395f51905f5261567e565b6143c8565b6020810192916104d29190613e3b565b6143d26001611d65565b60ff8216108015614449575b614431576143eb5f613f3f565b61ffff831614613feb5761398c613fe18261442c85612ad57fe87979c49b87f32e5440592a4640d358a5ba1c9a89581c040e549ae9ab43035096600c611388565b611378565b639cb3af6760e01b5f908152906123f49060046143b8565b506144546003611d65565b60ff8216116143de565b906104d291614398565b6129fb6104e891612bfc606090565b6104d294939291906144955f516020615fc85f395f51905f5261567e565b919493949290926144a66008611d65565b6144b06010611d65565b60ff821611614529578061451f8861397360046109966144d261452497612f2b565b600f6144e68c6139735f610996868661094d565b6144f98d6139736001610996868661094d565b61450c8a6139736002610996868661094d565b61363b8b6139736003610996868661094d565b612f1a565b6144a6565b50505050509050565b906104d294939291614477565b6104d29061454b6152a6565b61455c9061455761530f565b6145b4565b6104d2615341565b61457c6104e89361208060608401945f850190610703565b6040818303910152601681527f52454e45575f494e444956494455414c5f534b494c4c00000000000000000000602082015260400190565b6004906145c46104e8828461108c565b906145d1600283016110db565b6145da33612530565b036147a257828201916145ef6104e8846110c8565b421061477e5791614624614614614605856110a1565b61460e866110b7565b90615357565b61461e600261107f565b906139e1565b80341061476557506146c86146ba6146b2946146a6946146737ff38edfb531b7e5ecb36f5810588b0158177a68cbfc19fdf5e73bcc37b095bb83956130e961466d6121b3611dbd565b82611e46565b907f4f265249e3faa5652094d4e493ca94e1c30eb9febc9372aeeb501a52c4ab001361469e336116a8565b97889261107f565b98899361060360405190565b0390a36110a1565b604051918291349083614564565b0390a36146db61234961234960086110db565b9063ee700cc890823b156104c157614743926147085f936146fb60405190565b9586948593849360e01b90565b8352820160208082526018908201527f696e646976696475616c5f736b696c6c5f72656e6577616c0000000000000000604082015260600190565b039134905af180156123d7576147565750565b6104d2905f6123cf81836111c1565b63af608abb60e01b5f908152906123f490349087611daa565b5f6123f48561478c866110c8565b635935648960e01b845290830190815260200190565b632500456d60e01b5f9081528390fd5b6104d29061453f565b905f8092816147cf6129fb849360056116b1565b8051946147db5f61107f565b945b868610156148da576147fa6129646004612c43612c3f8a88612b59565b97614807612ada8a612b73565b6148116001611d65565b60ff82161015806148c4575b1561486857506104e860a061483461483a93612031565b9a015190565b42101561485a5761484d61485491612031565b9560010190565b946147dd565b94936129af61485491612031565b61487560089a929a611d65565b60ff8216101590816148ad575b50614891575b60a0015161483a565b936104e860a06148a361483a93612031565b9692505050614888565b90506148bc6120ea6010611d65565b11155f614882565b506148cf6007611d65565b60ff8216111561481d565b9450919490509493929190565b6129fb6148f691612bfc606090565b906149005f61107f565b805b61490d6104e8855190565b81101561495b576149326104e8600461293661492c612c3f868a612b59565b8261108c565b4210614946575b600101614902565b614902565b9061495361494191612031565b919050614939565b5061496590612ec4565b9161496f5f61107f565b92835b61497d6104e8845190565b8110156149da5761499c6104e8600461293661492c612c3f8689612b59565b42106149b0575b600101614972565b614972565b936149d26149ab916122496149c8612c3f8988612b59565b61310e8387612b59565b9490506149a3565b50925050565b906104d2916149f1612a1c82612b42565b906104d2916156f7565b906104d2916149e0565b614a0d613344565b90614a17816106fa565b614a256120ea61109b611d72565b108015614ae1575b612afc57614ace6127b660046109966104e894600d614a68614a566127b65f610996868661094d565b6127cd614a625f61107f565b8b61334e565b614a8a614a7d6127b66001610996868661094d565b6127cd614a62600161107f565b614aac614a9f6127b66002610996868661094d565b6127cd614a62600261107f565b61363b614ac16127b66003610996868661094d565b6127cd614a62600361107f565b6127cd614adb600461107f565b8461334e565b50614aeb816106fa565b614af96120ea61109b611d7c565b11614a2d565b614b09601061107f565b614b1281612ec4565b8092614b1d83612ec4565b918293614b2981612ec4565b80946001938493614b3985611d65565b945b614b48575b505050505050565b80614b5286611d90565b11614bdc57614bd68561451f614bbe6130e9614b87614b938c612ff1614b8d61242c839f614b7f90612f2b565b958694611d65565b8a612f40565b8b612b59565b614bb78b61310e61303261242c614b87614bb16130e988601461094d565b94611d65565b601261094d565b61310e612feb61242c614bd08c611d65565b86612f40565b94614b3b565b614b40565b81810292918115918404141715611dea57565b6010614c00601061107f565b90614c0a82612ec4565b9283614c1584612ec4565b908194614c2181612ec4565b9081956001938492614c3284611d65565b935b614c42575b50505050505050565b80614c4c85611d90565b11614d1957614d0584614c5f8896612f2b565b614c7b81612ff1614c7561242c61302c8c611d65565b88612b59565b601290614ca88861310e8d61307361242c614ca2614c9c6130e9898b61094d565b95611d65565b89612f40565b614cb1876110c8565b614cbd61065b5f61107f565b1115614d0b57614cea614cd96130e9614cf39361451f9561094d565b614ce461271061107f565b90614be1565b61461e886110c8565b61310e61307f61242c614bd08b611d65565b93614c34565b505061451f614cf35f61107f565b614c39565b614d345f516020615fc85f395f51905f5261567e565b6104d2614d40306116a8565b31614d4a5f61107f565b81146135165761345e60086110db565b6104d2614d1e565b614d6c600561107f565b90614d7682612ec4565b80614d8084612ec4565b91614d8b8395612ec4565b9485614d965f611d65565b614da06004611d65565b60ff821611614e10578061451f614dff6130e9614dbf614e0b95612f59565b614dda81614dd5614dcf88611d90565b8d612b59565b612864565b614df8614deb6130e9836015610963565b61310e8d61307389611d90565b6013610963565b61310e61303284611d90565b614d96565b5093509391509350565b6104d29493929190614e385f516020615fc85f395f51905f5261567e565b9192909260019384614e4a6001611d65565b905b614e595750505050505050565b614e636007611d65565b60ff821611614d1957614ed28161451f896139736004610996614e868d98612f2b565b600f614e9a8e6139735f610996868661094d565b614eac8b6139738c610996868661094d565b614ebf8c6139736002610996868661094d565b61363b8d6139736003610996868661094d565b90614e4c565b906104d294939291614e1a565b614efb5f516020615fc85f395f51905f5261567e565b6104d26104d26159ba565b6104d2614ee5565b614f1c6130e98260166116b1565b908192614f2d613b248360056116b1565b9283614f385f61107f565b811115614f8757614f4f6129fb91614f57936139e1565b9360056116b1565b8051614f6561065b5f61107f565b1115614f82575f6131ac613256612c3f6104e8946130738561107f565b505f90565b5050614f576129fb614f985f61107f565b614f4f565b6004614fac6104e8838361108c565b90614fb9600283016110db565b614fc233612530565b0361418057808201614fd66104e8826110c8565b4210615104575060058201614fea816110a1565b61509e575b506150056138068461382d6104e83360056116b1565b615087575061505a9161504e9161501b906110a1565b907f11ff84a00d533cdc33fdd8daf084ef19d5c0586defb48904fe2e0662dfc6de14615046336116a8565b93849261107f565b94859361266560405190565b0390a37f50a744fa6f7ccdc3205bb1024e3d645d99213fc48d0315cd42a1710ddd1666e461438860405190565b6372e2506b60e11b5f90815283825290602001035ffd5b5f6150a891611e83565b6150bd6138068461382d6104e83360066116b1565b615087576150cf61259f3360076116b1565b6150db6120ea5f611d65565b116150f1575b6150eb8333615879565b5f614fef565b6150ff6138a43360076116b1565b6150e1565b5f9161478c6123f4926110c8565b6129fb61512191612bfc606090565b9061513261512d835190565b612bca565b61513d613054845190565b926151475f61107f565b6151526104e8835190565b8110156151dd576151b6906151726129646004612c43612c3f8588612b59565b61517c8286612b59565b526151878185612b59565b506151a06104e860a061519a8488612b59565b51015190565b4210806151bb575b613d3d906132e18389612b59565b615147565b50613d3d6151d660c06151ce8488612b59565b510151151590565b90506151a8565b50509190565b6104d2906151fd5f516020615fc85f395f51905f5261567e565b6152096107325f6124ce565b6001600160a01b038216146134eb5761523361435761522860086110db565b612349846008611e6c565b907f5337878f95f4c90f0bb0a7e96f68a1c6b757dbb7a17cd2fb1a8843658360536c61438860405190565b6104d2906151e3565b1561526e57565b60405162461bcd60e51b815260206004820152601060248201526f14185d5cd8589b194e881c185d5cd95960821b6044820152606490fd5b6104d26152b4613806613715565b615267565b6104e8600261107f565b156152ca57565b60405162461bcd60e51b815260206004820152601f60248201527f5265656e7472616e637947756172643a207265656e7472616e742063616c6c006044820152606490fd5b6104d261531c60026110c8565b6153306153276152b9565b918214156152c3565b6002611e46565b6104e8600161107f565b6104d2615330615337565b6104e861271061107f565b61544f6154336153716104e89461536b5f90565b50610720565b92614ce461542e6154266153896130e988600a611388565b9361542061541a61539a6005612725565b926153b16153a9612710613f3f565b61ffff168552565b6153ca6153bf613a98613f3f565b61ffff166020860152565b6153e36153d8614e20613f3f565b61ffff166040860152565b6153fc6153f1616d60613f3f565b61ffff166060860152565b61541561540a6188b8613f3f565b61ffff166080860152565b615aba565b98611d90565b9061334e565b5161ffff1690565b613f4c565b91614ce461544961544261534c565b80956139e1565b91613f4c565b6139e1565b5f6104e8916154605f90565b50016110c8565b6104d29061228c5f615479600161107f565b92019161064b836110c8565b905051906104d28261054e565b906020828203126104c1576104e891615485565b6104e8680d8d726b7177a8000061107f565b6154c260096110db565b6154d16125306107325f6124ce565b146155a3575f61551a81926155296154e960096110db565b916154f360405190565b63857184d160e01b6020820152938491602483016001600160a01b03909116815260200190565b602082018103825203836111c1565b602082519201905afa61553a613415565b908061558c575b6155485750565b806020615556615561935190565b818301019101615492565b6155696154a6565b808210615574575050565b63109ddee960e21b5f908152916123f4916004611daa565b50805161559c61065b602061107f565b1015615541565b50565b6155d96104d2946155cf606094989795611c32608086019a5f8701906001600160a01b03169052565b60ff166040830152565b019061ffff169052565b9091926155f060096110db565b6155ff6125306107325f6124ce565b146156785761560e9084615c0f565b916156185f613f3f565b61ffff84161461567857615672936156605f949361551a869561564461563e60096110db565b956106fa565b604051630c4e865560e21b6020820152968794602486016155a6565b82602083519301915af1613498613415565b6104d257565b50505050565b6104d2903390615cdf565b615696613806838361400d565b61569e575050565b6156b760016156b2845f6140278682612b3c565b611e83565b6156c56143576134db339390565b917f2f8788117e7eff1d82e926ec794901d17c78024a50270940304540a733656f0d6156f060405190565b8080614156565b615701828261400d565b615709575050565b61571c5f6156b284826140278682612b3c565b61572a6143576134db339390565b917ff6391f5c32d9c69d2a47ea670b442974b53935d1edc7fd64eb21e047a839171b6156f060405190565b61575d615daf565b6104d261576b5f6001611e83565b7f5db9ee0a495bf2e6ff9c91a7834c1ba4fdd244a5e8aa4e537bd38aeae4b073aa61579533610c15565b0390a1565b6104d2615755565b634e487b7160e01b5f52603160045260245ffd5b805480156157d8575f1901906157d56157cf838361195e565b90611ebf565b55565b6157a2565b6157e65f61107f565b6157f16104e8835490565b811015615855576158056119a4828461195e565b8314615813576001016157e6565b9150806158506158246104e8935490565b9361202b6158496119a461584360019861583d8a61107f565b90613b8e565b8661195e565b918461195e565b6157b6565b5050505f90565b6001600160a01b0390911681526040810192916104d29160200152565b9061588460096110db565b6158936125306107325f6124ce565b146158d2575f8091615672936156606158ac60096110db565b9161551a6158b960405190565b638925781760e01b60208201529485926024840161585c565b5050565b6158de6152a6565b6104d26158ec600180611e83565b7f62e78cea01bee320cd4e420270b5ea74000d11b0c9f74754ebdbfc544b05a25861579533610c15565b6104d26158d6565b6104e86802b5e3af16b188000061107f565b6104e86804563918244f40000061107f565b6104e868056bc75e2d6310000061107f565b6104e8680821ab0d441498000061107f565b6104e8680bed1d0263d9f0000061107f565b6104e8612710613f3f565b6104e8613a98613f3f565b6104e8614e20613f3f565b6104e8617530613f3f565b6104e861c350613f3f565b6104e86161a8613f3f565b615a2a6159c561591e565b6159d5600a916139735f84612761565b6159eb6159e0615930565b613973600184612761565b615a016159f6615942565b613973600284612761565b615a17615a0c615954565b613973600384612761565b6139736004615a24615966565b92612761565b6104d2615a35615978565b615aad600b615a4883612ad55f84612761565b615a9c615a53615983565b91615a6383612ad5600184612761565b615a79615a6e61598e565b612ad5600284612761565b615a8f615a84615999565b612ad5600384612761565b612ad56004615a246159a4565b615a6e600c93612ad5600186612761565b612ad56003615a246159af565b615ac460016106f0565b615acd826106f0565b03615ade57506104e8612710613f3f565b615ae860026106f0565b615af1826106f0565b03615b0257506104e8613a98613f3f565b615b0c60036106f0565b615b15826106f0565b03615b2657506104e86155f0613f3f565b615b3060046106f0565b615b39826106f0565b03615b4a57506104e8614650613f3f565b615b5460056106f0565b615b5d826106f0565b03615b6e57506104e8613e80613f3f565b615b7860066106f0565b615b81826106f0565b03615b9257506104e86136b0613f3f565b615b9c60076106f0565b615ba5826106f0565b03615bb657506104e8614e20613f3f565b615bbf816106fa565b615bcc6120ea6008611d65565b10159081615bf0575b50615be5576104e8612710613f3f565b6104e8612ee0613f3f565b615bfa91506106fa565b615c076120ea6010611d65565b11155f615bd5565b615c29916109966127b692615c215f90565b50600d61094d565b615c325f613f3f565b61ffff821614615c3f5790565b506104e85f613f3f565b6104e89061107f565b61064b615c6a92602092615c64815190565b94859290565b9384910161073e565b615cb16104e89392615cab615cab937f416363657373436f6e74726f6c3a206163636f756e7420000000000000000000815260170190565b90615c52565b7001034b99036b4b9b9b4b733903937b6329607d1b815260110190565b60208082526104e89291019061075f565b90615ced613806828461400d565b615cf5575050565b615d3f6104e8612e9a93615d27615d17615d11615d4b96615ddf565b92615c49565b615d21602061107f565b90615ea9565b90615d3160405190565b938492602084019283615c73565b908103825203826111c1565b60405162461bcd60e51b815291829160048301615cce565b15615d6a57565b60405162461bcd60e51b815260206004820152601460248201527f5061757361626c653a206e6f74207061757365640000000000000000000000006044820152606490fd5b6104d2615dba613715565b615d63565b6104e86104e86104e8926001600160a01b031690565b6104e86014611d65565b615dfc615df76104e892615df1606090565b5061169f565b615dbf565b615d2161242c615dd5565b906104d2612ed4615e1784613408565b936133eb565b90615e26825190565b81101561197e570160200190565b8015611dea575f190190565b6104e890615e5461065b6104e89460ff1690565b901c90565b15615e6057565b60405162461bcd60e51b815280612e9a600482016020808252818101527f537472696e67733a20686578206c656e67746820696e73756666696369656e74604082015260600190565b615ed7615ed2615ec284615ebd600261107f565b614be1565b615ecc600261107f565b90611ddd565b615e07565b916030615eec615ee65f61107f565b85615e1d565b53600f60fb1b615f25615f1c60019384935f1a615f11615f0b8661107f565b89615e1d565b53615ebd600261107f565b615ecc8361107f565b915b615f48575b5050906104e86104e892615f4261065b5f61107f565b14615e59565b9091615f538261107f565b831115615fc1576f181899199a1a9b1b9c1cb0b131b232b360811b615f78600f61107f565b821690601082101561197e578392615f98615fb592615fbb941a60f81b90565b5f1a615fa48789615e1d565b53615faf6004611d65565b90615e40565b93615e34565b91615f27565b91615f2c56fea49807205ce4d355092ef5a8a18f56e8913cf4a201fbe287825b095693c21775a264697066735822122002960d503b3378cdd9f1dcd2538fd95831c387bc5638e8664d39d7cf7c425b7764736f6c634300081c0033",
  "linkReferences": {},
  "deployedLinkReferences": {}
}