{
  "_format": "hh-sol-artifact-1",
  "contractName": "Airdrop",
  "sourceName": "contracts/Airdrop/Airdrops.sol",
  "abi": [
    {
      "inputs": [
        {
          "internalType": "address",
          "name": "_token",
          "type": "address"
        },
        {
          "internalType": "uint256",
          "name": "_registrationDuration",
          "type": "uint256"
        },
        {
          "internalType": "uint256",
          "name": "_claimDelay",
          "type": "uint256"
        },
        {
          "internalType": "uint256",
          "name": "_claimDuration",
          "type": "uint256"
        }
      ],
      "stateMutability": "nonpayable",
      "type": "constructor"
    },
    {
      "inputs": [],
      "name": "AlreadyClaimed",
      "type": "error"
    },
    {
      "inputs": [],
      "name": "AlreadyRegistered",
      "type": "error"
    },
    {
      "inputs": [],
      "name": "ClaimExpired",
      "type": "error"
    },
    {
      "inputs": [],
      "name": "ClaimNotStarted",
      "type": "error"
    },
    {
      "inputs": [],
      "name": "InsufficientContractBalance",
      "type": "error"
    },
    {
      "inputs": [],
      "name": "InvalidAmount",
      "type": "error"
    },
    {
      "inputs": [],
      "name": "InvalidTimeConfiguration",
      "type": "error"
    },
    {
      "inputs": [],
      "name": "InvalidToken",
      "type": "error"
    },
    {
      "inputs": [],
      "name": "NotRegistered",
      "type": "error"
    },
    {
      "inputs": [],
      "name": "RegistrationClosed",
      "type": "error"
    },
    {
      "inputs": [],
      "name": "TransferFailed",
      "type": "error"
    },
    {
      "inputs": [],
      "name": "UserIsBlacklisted",
      "type": "error"
    },
    {
      "anonymous": false,
      "inputs": [
        {
          "indexed": true,
          "internalType": "address",
          "name": "funder",
          "type": "address"
        },
        {
          "indexed": false,
          "internalType": "uint256",
          "name": "amount",
          "type": "uint256"
        }
      ],
      "name": "ContractFunded",
      "type": "event"
    },
    {
      "anonymous": false,
      "inputs": [
        {
          "indexed": true,
          "internalType": "address",
          "name": "to",
          "type": "address"
        },
        {
          "indexed": false,
          "internalType": "uint256",
          "name": "amount",
          "type": "uint256"
        }
      ],
      "name": "EmergencyWithdrawal",
      "type": "event"
    },
    {
      "anonymous": false,
      "inputs": [
        {
          "indexed": true,
          "internalType": "address",
          "name": "previousOwner",
          "type": "address"
        },
        {
          "indexed": true,
          "internalType": "address",
          "name": "newOwner",
          "type": "address"
        }
      ],
      "name": "OwnershipTransferred",
      "type": "event"
    },
    {
      "anonymous": false,
      "inputs": [
        {
          "indexed": false,
          "internalType": "address",
          "name": "account",
          "type": "address"
        }
      ],
      "name": "Paused",
      "type": "event"
    },
    {
      "anonymous": false,
      "inputs": [
        {
          "indexed": true,
          "internalType": "address",
          "name": "user",
          "type": "address"
        },
        {
          "indexed": false,
          "internalType": "uint256",
          "name": "amount",
          "type": "uint256"
        },
        {
          "indexed": false,
          "internalType": "uint256",
          "name": "timestamp",
          "type": "uint256"
        }
      ],
      "name": "TokensClaimed",
      "type": "event"
    },
    {
      "anonymous": false,
      "inputs": [
        {
          "indexed": true,
          "internalType": "address",
          "name": "contractOwner",
          "type": "address"
        },
        {
          "indexed": false,
          "internalType": "uint256",
          "name": "amount",
          "type": "uint256"
        }
      ],
      "name": "TokensWithdrawn",
      "type": "event"
    },
    {
      "anonymous": false,
      "inputs": [
        {
          "indexed": false,
          "internalType": "address",
          "name": "account",
          "type": "address"
        }
      ],
      "name": "Unpaused",
      "type": "event"
    },
    {
      "anonymous": false,
      "inputs": [
        {
          "indexed": true,
          "internalType": "address",
          "name": "user",
          "type": "address"
        }
      ],
      "name": "UserBlacklisted",
      "type": "event"
    },
    {
      "anonymous": false,
      "inputs": [
        {
          "indexed": true,
          "internalType": "address",
          "name": "user",
          "type": "address"
        },
        {
          "indexed": false,
          "internalType": "uint256",
          "name": "timestamp",
          "type": "uint256"
        }
      ],
      "name": "UserRegistered",
      "type": "event"
    },
    {
      "anonymous": false,
      "inputs": [
        {
          "indexed": true,
          "internalType": "address",
          "name": "user",
          "type": "address"
        }
      ],
      "name": "UserUnblacklisted",
      "type": "event"
    },
    {
      "inputs": [],
      "name": "airdropAmount",
      "outputs": [
        {
          "internalType": "uint256",
          "name": "",
          "type": "uint256"
        }
      ],
      "stateMutability": "view",
      "type": "function"
    },
    {
      "inputs": [
        {
          "internalType": "address[]",
          "name": "users",
          "type": "address[]"
        }
      ],
      "name": "batchBlacklistUsers",
      "outputs": [],
      "stateMutability": "nonpayable",
      "type": "function"
    },
    {
      "inputs": [
        {
          "internalType": "address",
          "name": "userAddress",
          "type": "address"
        }
      ],
      "name": "blacklistUser",
      "outputs": [],
      "stateMutability": "nonpayable",
      "type": "function"
    },
    {
      "inputs": [
        {
          "internalType": "uint256",
          "name": "",
          "type": "uint256"
        }
      ],
      "name": "blacklistedUsers",
      "outputs": [
        {
          "internalType": "address",
          "name": "",
          "type": "address"
        }
      ],
      "stateMutability": "view",
      "type": "function"
    },
    {
      "inputs": [],
      "name": "claim",
      "outputs": [],
      "stateMutability": "nonpayable",
      "type": "function"
    },
    {
      "inputs": [],
      "name": "claimEndTime",
      "outputs": [
        {
          "internalType": "uint256",
          "name": "",
          "type": "uint256"
        }
      ],
      "stateMutability": "view",
      "type": "function"
    },
    {
      "inputs": [],
      "name": "claimStartTime",
      "outputs": [
        {
          "internalType": "uint256",
          "name": "",
          "type": "uint256"
        }
      ],
      "stateMutability": "view",
      "type": "function"
    },
    {
      "inputs": [],
      "name": "claimedUserCount",
      "outputs": [
        {
          "internalType": "uint128",
          "name": "",
          "type": "uint128"
        }
      ],
      "stateMutability": "view",
      "type": "function"
    },
    {
      "inputs": [
        {
          "internalType": "uint256",
          "name": "",
          "type": "uint256"
        }
      ],
      "name": "claimedUsers",
      "outputs": [
        {
          "internalType": "address",
          "name": "",
          "type": "address"
        }
      ],
      "stateMutability": "view",
      "type": "function"
    },
    {
      "inputs": [
        {
          "internalType": "address",
          "name": "to",
          "type": "address"
        },
        {
          "internalType": "uint256",
          "name": "amount",
          "type": "uint256"
        }
      ],
      "name": "emergencyWithdraw",
      "outputs": [],
      "stateMutability": "nonpayable",
      "type": "function"
    },
    {
      "inputs": [
        {
          "internalType": "uint256",
          "name": "amount",
          "type": "uint256"
        }
      ],
      "name": "fundContract",
      "outputs": [],
      "stateMutability": "nonpayable",
      "type": "function"
    },
    {
      "inputs": [],
      "name": "getAirdropInfo",
      "outputs": [
        {
          "internalType": "uint256",
          "name": "_registrationEndTime",
          "type": "uint256"
        },
        {
          "internalType": "uint256",
          "name": "_claimStartTime",
          "type": "uint256"
        },
        {
          "internalType": "uint256",
          "name": "_claimEndTime",
          "type": "uint256"
        },
        {
          "internalType": "uint256",
          "name": "_airdropAmount",
          "type": "uint256"
        },
        {
          "internalType": "uint256",
          "name": "registeredUsersCount",
          "type": "uint256"
        },
        {
          "internalType": "uint256",
          "name": "claimedUsersCount",
          "type": "uint256"
        },
        {
          "internalType": "uint256",
          "name": "_totalClaimed",
          "type": "uint256"
        },
        {
          "internalType": "uint256",
          "name": "_contractBalance",
          "type": "uint256"
        },
        {
          "internalType": "bool",
          "name": "_isRegistrationOpen",
          "type": "bool"
        },
        {
          "internalType": "bool",
          "name": "_isClaimOpen",
          "type": "bool"
        }
      ],
      "stateMutability": "view",
      "type": "function"
    },
    {
      "inputs": [
        {
          "internalType": "address[]",
          "name": "users",
          "type": "address[]"
        }
      ],
      "name": "getBatchRegistrationStatus",
      "outputs": [
        {
          "internalType": "bool[]",
          "name": "registered",
          "type": "bool[]"
        }
      ],
      "stateMutability": "view",
      "type": "function"
    },
    {
      "inputs": [
        {
          "internalType": "address[]",
          "name": "users",
          "type": "address[]"
        }
      ],
      "name": "getBatchUserInfo",
      "outputs": [
        {
          "components": [
            {
              "internalType": "uint64",
              "name": "registrationTime",
              "type": "uint64"
            },
            {
              "internalType": "bool",
              "name": "isRegistered",
              "type": "bool"
            },
            {
              "internalType": "bool",
              "name": "hasClaimed",
              "type": "bool"
            },
            {
              "internalType": "bool",
              "name": "isBlacklisted",
              "type": "bool"
            }
          ],
          "internalType": "struct Airdrop.UserData[]",
          "name": "userInfos",
          "type": "tuple[]"
        }
      ],
      "stateMutability": "view",
      "type": "function"
    },
    {
      "inputs": [
        {
          "internalType": "uint256",
          "name": "start",
          "type": "uint256"
        },
        {
          "internalType": "uint256",
          "name": "count",
          "type": "uint256"
        }
      ],
      "name": "getClaimedUsers",
      "outputs": [
        {
          "internalType": "address[]",
          "name": "users",
          "type": "address[]"
        },
        {
          "internalType": "uint256",
          "name": "total",
          "type": "uint256"
        }
      ],
      "stateMutability": "view",
      "type": "function"
    },
    {
      "inputs": [],
      "name": "getEstimatedTokensNeeded",
      "outputs": [
        {
          "internalType": "uint256",
          "name": "",
          "type": "uint256"
        }
      ],
      "stateMutability": "view",
      "type": "function"
    },
    {
      "inputs": [
        {
          "internalType": "uint256",
          "name": "start",
          "type": "uint256"
        },
        {
          "internalType": "uint256",
          "name": "count",
          "type": "uint256"
        }
      ],
      "name": "getRegisteredUsers",
      "outputs": [
        {
          "internalType": "address[]",
          "name": "users",
          "type": "address[]"
        },
        {
          "internalType": "uint256",
          "name": "total",
          "type": "uint256"
        }
      ],
      "stateMutability": "view",
      "type": "function"
    },
    {
      "inputs": [],
      "name": "getTimeInfo",
      "outputs": [
        {
          "internalType": "uint256",
          "name": "timeUntilRegistrationEnd",
          "type": "uint256"
        },
        {
          "internalType": "uint256",
          "name": "timeUntilClaimStart",
          "type": "uint256"
        },
        {
          "internalType": "uint256",
          "name": "timeUntilClaimEnd",
          "type": "uint256"
        }
      ],
      "stateMutability": "view",
      "type": "function"
    },
    {
      "inputs": [],
      "name": "getUserCounts",
      "outputs": [
        {
          "internalType": "uint256",
          "name": "totalRegistered",
          "type": "uint256"
        },
        {
          "internalType": "uint256",
          "name": "totalClaimed",
          "type": "uint256"
        },
        {
          "internalType": "uint256",
          "name": "totalBlacklisted",
          "type": "uint256"
        },
        {
          "internalType": "uint256",
          "name": "pendingClaims",
          "type": "uint256"
        }
      ],
      "stateMutability": "view",
      "type": "function"
    },
    {
      "inputs": [
        {
          "internalType": "address",
          "name": "userAddress",
          "type": "address"
        }
      ],
      "name": "getUserInfo",
      "outputs": [
        {
          "internalType": "bool",
          "name": "_isRegistered",
          "type": "bool"
        },
        {
          "internalType": "bool",
          "name": "_hasClaimed",
          "type": "bool"
        },
        {
          "internalType": "uint256",
          "name": "_registrationTime",
          "type": "uint256"
        },
        {
          "internalType": "bool",
          "name": "_canClaim",
          "type": "bool"
        },
        {
          "internalType": "bool",
          "name": "_isBlacklisted",
          "type": "bool"
        }
      ],
      "stateMutability": "view",
      "type": "function"
    },
    {
      "inputs": [],
      "name": "owner",
      "outputs": [
        {
          "internalType": "address",
          "name": "",
          "type": "address"
        }
      ],
      "stateMutability": "view",
      "type": "function"
    },
    {
      "inputs": [],
      "name": "pause",
      "outputs": [],
      "stateMutability": "nonpayable",
      "type": "function"
    },
    {
      "inputs": [],
      "name": "paused",
      "outputs": [
        {
          "internalType": "bool",
          "name": "",
          "type": "bool"
        }
      ],
      "stateMutability": "view",
      "type": "function"
    },
    {
      "inputs": [],
      "name": "register",
      "outputs": [],
      "stateMutability": "nonpayable",
      "type": "function"
    },
    {
      "inputs": [],
      "name": "registeredUserCount",
      "outputs": [
        {
          "internalType": "uint128",
          "name": "",
          "type": "uint128"
        }
      ],
      "stateMutability": "view",
      "type": "function"
    },
    {
      "inputs": [
        {
          "internalType": "uint256",
          "name": "",
          "type": "uint256"
        }
      ],
      "name": "registeredUsers",
      "outputs": [
        {
          "internalType": "address",
          "name": "",
          "type": "address"
        }
      ],
      "stateMutability": "view",
      "type": "function"
    },
    {
      "inputs": [],
      "name": "registrationEndTime",
      "outputs": [
        {
          "internalType": "uint256",
          "name": "",
          "type": "uint256"
        }
      ],
      "stateMutability": "view",
      "type": "function"
    },
    {
      "inputs": [],
      "name": "token",
      "outputs": [
        {
          "internalType": "contract IERC20",
          "name": "",
          "type": "address"
        }
      ],
      "stateMutability": "view",
      "type": "function"
    },
    {
      "inputs": [],
      "name": "totalTokensClaimed",
      "outputs": [
        {
          "internalType": "uint256",
          "name": "",
          "type": "uint256"
        }
      ],
      "stateMutability": "view",
      "type": "function"
    },
    {
      "inputs": [
        {
          "internalType": "address",
          "name": "newOwner",
          "type": "address"
        }
      ],
      "name": "transferOwnership",
      "outputs": [],
      "stateMutability": "nonpayable",
      "type": "function"
    },
    {
      "inputs": [
        {
          "internalType": "address",
          "name": "userAddress",
          "type": "address"
        }
      ],
      "name": "unblacklistUser",
      "outputs": [],
      "stateMutability": "nonpayable",
      "type": "function"
    },
    {
      "inputs": [],
      "name": "unpause",
      "outputs": [],
      "stateMutability": "nonpayable",
      "type": "function"
    },
    {
      "inputs": [
        {
          "internalType": "address",
          "name": "",
          "type": "address"
        }
      ],
      "name": "userData",
      "outputs": [
        {
          "internalType": "uint64",
          "name": "registrationTime",
          "type": "uint64"
        },
        {
          "internalType": "bool",
          "name": "isRegistered",
          "type": "bool"
        },
        {
          "internalType": "bool",
          "name": "hasClaimed",
          "type": "bool"
        },
        {
          "internalType": "bool",
          "name": "isBlacklisted",
          "type": "bool"
        }
      ],
      "stateMutability": "view",
      "type": "function"
    },
    {
      "inputs": [],
      "name": "withdrawRemainingTokens",
      "outputs": [],
      "stateMutability": "nonpayable",
      "type": "function"
    }
  ],
  "bytecode": "0x6101203461026157601f61244e38819003918201601f19168301916001600160401b03831184841017610265578084926080946040528339810103126102615780516001600160a01b03811691908290036102615760208101519060606040820151910151925f543360018060a01b0382167f8be0079c531659141344cd1fd0a4f28419497f9722a3daafe3b4186f6b6457e05f80a36001600160a81b0319163360ff60a01b1916175f55600180558015610252578215610219576301e1338083116102195762278d008211610219576301e13380841161021957610100926100f791608052674563918244f4000060a05242610279565b8060c052610279565b60e0528015610247576101159060e051610279565b610100525b60e05160c051811115610219576101005181811515918261023c575b50506102195763020f58004201908142116102285711610219576040516121c79081610287823960805181818161033e01528181610a5601528181610ca7015281816113780152818161174401526119fc015260a0518181816102fc015281816109a8015281816113ba0152611a57015260c0518181816105350152818161105f015281816116f2015281816119d40152611b46015260e0518181816106bc0152818161108c01528181611234015281816112d701526119900152610100518181816110b7015281816111f8015281816112fe015281816115ea01526119b20152f35b631800812760e11b5f5260045ffd5b634e487b7160e01b5f52601160045260245ffd5b11159050815f610136565b505f6101005261011a565b63c1ab6dc160e01b5f5260045ffd5b5f80fd5b634e487b7160e01b5f52604160045260245ffd5b919082018092116102285756fe60806040526004361015610011575f80fd5b5f3560e01c80631aa3a00814611b1557806326399e0b14611afe57806332f08873146119645780633519a2f8146116b95780633f4ba83a1461160d57806340d1d255146115d35780634e71d92d146112a65780635912c046146112895780635c975abb146112655780636386c1c7146111345780636fe8022c1461104d5780637259e0f81461101c57806379a6b5e814610fdf5780638456cb5914610f655780638aa96fac14610dcb5780638afbf66914610c655780638da5cb5b14610c4057806395ccea67146109f757806397740ca41461098a5780639a6699501461085e5780639b72584a146106df578063a6a11bb1146106a5578063b478191214610674578063bde015c214610654578063c8910913146105ea578063cb3d0564146105c4578063d91f2fa514610599578063df300c8714610558578063dff7d2c71461051e578063e573f0031461043e578063f2fde38b14610362578063fc0c546a1461031f578063fc2ea8a5146102e55763fcbca4561461018f575f80fd5b346102e15760203660031901126102e1576101a8611d2f565b6101bd6001600160a01b035f54163314611fa3565b6001600160a01b03811690811561028d57815f52600460205260ff60405f205460501c166102485761022290825f52600460205260405f206a010000000000000000000060ff60501b19825416179055600754835f52600a60205260405f2055611e65565b7f7f8b7dc89dae85811a7a85800b892b5816ad5d381c856f1b56490f8fc470c9cb5f80a2005b60405162461bcd60e51b815260206004820152601860248201527f5573657220616c726561647920626c61636b6c697374656400000000000000006044820152606490fd5b60405162461bcd60e51b815260206004820152602660248201527f41697264726f703a2043616e6e6f7420626c61636b6c697374207a65726f206160448201526564647265737360d01b6064820152608490fd5b5f80fd5b346102e1575f3660031901126102e15760206040517f00000000000000000000000000000000000000000000000000000000000000008152f35b346102e1575f3660031901126102e15760206040516001600160a01b037f0000000000000000000000000000000000000000000000000000000000000000168152f35b346102e15760203660031901126102e15761037b611d2f565b5f54906001600160a01b0380831691610395338414611fa3565b169182156103ea577fffffffffffffffffffffffff0000000000000000000000000000000000000000839116175f557f8be0079c531659141344cd1fd0a4f28419497f9722a3daafe3b4186f6b6457e05f80a3005b60405162461bcd60e51b815260206004820152602660248201527f4f776e61626c653a206e6577206f776e657220697320746865207a65726f206160448201526564647265737360d01b6064820152608490fd5b346102e15761044c36611db6565b6104596064821115612006565b61046281611e91565b916104706040519384611e26565b81835261047c82611e91565b602084019290601f19013684375f5b8181106104d8578385604051918291602083019060208452518091526040830191905f5b8181106104bd575050500390f35b825115158452859450602093840193909201916001016104af565b806001600160a01b036104f66104f16001948688612052565b612062565b165f52600460205260ff60405f205460401c166105138288611ef5565b90151590520161048b565b346102e1575f3660031901126102e15760206040517f00000000000000000000000000000000000000000000000000000000000000008152f35b346102e15760203660031901126102e1576004356007548110156102e1576001600160a01b03610589602092611d71565b90549060031b1c16604051908152f35b346102e1576105b06105aa36611ccc565b90612076565b906105c060405192839283611ce2565b0390f35b346102e1575f3660031901126102e15760206001600160801b0360025416604051908152f35b346102e15760203660031901126102e1576001600160a01b0361060b611d2f565b165f526004602052608060405f205460ff6040519167ffffffffffffffff81168352818160401c1615156020840152818160481c161515604084015260501c1615156060820152f35b346102e1575f3660031901126102e157602060025460801c604051908152f35b346102e15760203660031901126102e1576004356006548110156102e1576001600160a01b03610589602092611d89565b346102e1575f3660031901126102e15760206040517f00000000000000000000000000000000000000000000000000000000000000008152f35b346102e1576106ed36611db6565b906106fb6064831115612006565b61070482611e91565b916107126040519384611e26565b808352601f1961072182611e91565b015f5b81811061082f5750505f5b8181106107ac57836040518091602082016020835281518091526020604084019201905f5b818110610762575050500390f35b91935091602060806001926060875167ffffffffffffffff815116835284810151151585840152604081015115156040840152015115156060820152019401910191849392610754565b806001600160a01b036107c56104f16001948688612052565b165f52600460205260405f2060ff604051916107e083611e0a565b5467ffffffffffffffff81168352818160401c1615156020840152818160481c161515604084015260501c161515606082015261081d8287611ef5565b526108288186611ef5565b500161072f565b60209060405161083e81611e0a565b5f81525f838201525f60408201525f606082015282828801015201610724565b346102e15761086c36611db6565b906108826001600160a01b035f54163314611fa3565b61088f6032831115612006565b5f5b82811061089a57005b6108a86104f1828585612052565b906001600160a01b038216801561094557600192815f52600460205260ff60405f205460501c16156108dd575b505001610891565b61091a90825f52600460205260405f206a010000000000000000000060ff60501b19825416179055600754835f52600a60205260405f2055611e65565b7f7f8b7dc89dae85811a7a85800b892b5816ad5d381c856f1b56490f8fc470c9cb5f80a284806108d5565b60405162461bcd60e51b815260206004820152601d60248201527f43616e6e6f7420626c61636b6c697374207a65726f20616464726573730000006044820152606490fd5b346102e1575f3660031901126102e1576001600160801b03600254167f0000000000000000000000000000000000000000000000000000000000000000908181029181830414901517156109e357602090604051908152f35b634e487b7160e01b5f52601160045260245ffd5b346102e15760403660031901126102e157610a10611d2f565b602435610a286001600160a01b035f54163314611fa3565b610a3061213b565b6001600160a01b038216918215610bd5576040516370a0823160e01b81523060048201527f00000000000000000000000000000000000000000000000000000000000000006001600160a01b031690602081602481855afa908115610b53575f91610ba3575b508311610b5e5760405163a9059cbb60e01b81526001600160a01b0392909216600483015260248201839052602090829060449082905f905af1908115610b53575f91610b24575b5015610b155760207f23d6711a1d031134a36921253c75aa59e967d38e369ac625992824315e204f2091604051908152a260018055005b6312171d8360e31b5f5260045ffd5b610b46915060203d602011610b4c575b610b3e8183611e26565b810190611fee565b83610ade565b503d610b34565b6040513d5f823e3d90fd5b60405162461bcd60e51b815260206004820152601d60248201527f41697264726f703a20496e73756666696369656e742062616c616e63650000006044820152606490fd5b90506020813d602011610bcd575b81610bbe60209383611e26565b810103126102e1575185610a96565b3d9150610bb1565b60405162461bcd60e51b815260206004820152602860248201527f41697264726f703a2043616e6e6f7420776974686472617720746f207a65726f60448201527f20616464726573730000000000000000000000000000000000000000000000006064820152608490fd5b346102e1575f3660031901126102e15760206001600160a01b035f5416604051908152f35b346102e1575f3660031901126102e157610c8a6001600160a01b035f54163314611fa3565b610c9261213b565b6040516370a0823160e01b81523060048201527f00000000000000000000000000000000000000000000000000000000000000006001600160a01b0316602082602481845afa918215610b53575f92610d97575b5081610cf3575b60018055005b5f805460405163a9059cbb60e01b81526001600160a01b0390911660048201526024810184905291602091839160449183915af1908115610b53575f91610d78575b5015610b15577f6352c5382c4a4578e712449ca65e83cdb392d045dfcf1cad9615189db2da244b60206001600160a01b035f541692604051908152a28080610ced565b610d91915060203d602011610b4c57610b3e8183611e26565b82610d35565b9091506020813d602011610dc3575b81610db360209383611e26565b810103126102e157519082610ce6565b3d9150610da6565b346102e15760203660031901126102e1576001600160a01b03610dec611d2f565b610dfa825f54163314611fa3565b16805f52600460205260ff60405f205460501c1615610f20575f81815260046020908152604080832080546aff0000000000000000000019169055600a9091529020546007545f1981019081116109e357808203610ec8575b50506007548015610eb4575f1901610e6a81611d71565b6001600160a01b0382549160031b1b19169055600755805f52600a6020525f60408120557f0e8627d8a3ba37f2a00b3ae4503c200e696f351225f168df1d3e84eed8009ff95f80a2005b634e487b7160e01b5f52603160045260245ffd5b610ed96001600160a01b0391611d71565b90549060031b1c16610f0d81610eee84611d71565b9091906001600160a01b038084549260031b9316831b921b1916179055565b5f52600a60205260405f20558180610e53565b60405162461bcd60e51b815260206004820152601760248201527f55736572206973206e6f7420626c61636b6c69737465640000000000000000006044820152606490fd5b346102e1575f3660031901126102e1577401000000000000000000000000000000000000000060ff60a01b195f54610fa7336001600160a01b03831614611fa3565b610faf6120e8565b16175f557f62e78cea01bee320cd4e420270b5ea74000d11b0c9f74754ebdbfc544b05a2586020604051338152a1005b346102e1575f3660031901126102e15760806005546006546007546110048284611ee8565b91604051938452602084015260408301526060820152f35b346102e15760203660031901126102e1576004356005548110156102e1576001600160a01b03610589602092611d45565b346102e1575f3660031901126102e1577f0000000000000000000000000000000000000000000000000000000000000000428111611122575060605f5b7f000000000000000000000000000000000000000000000000000000000000000042811161111257505f5b7f0000000000000000000000000000000000000000000000000000000000000000801561110a574281116110fa57505f5b905b60405192835260208301526040820152f35b611105904290611ee8565b6110e6565b505f906110e8565b61111d904290611ee8565b6110b5565b61112f6060914290611ee8565b61108a565b346102e15760203660031901126102e1576001600160a01b03611155611d2f565b165f52600460205260a060405f2060606040519161117283611e0a565b549167ffffffffffffffff831680825260ff8460401c16151593828560208195015260ff8260481c161560ff81159384604085015260501c161591821596879101528461125d575b5083611232575b836111f4575b836111ec575b5060405194855260208501526040840152151560608301526080820152f35b9250866111cd565b92507f00000000000000000000000000000000000000000000000000000000000000008015908115611228575b50926111c7565b9050421087611221565b7f000000000000000000000000000000000000000000000000000000000000000042101593506111c1565b9350876111ba565b346102e1575f3660031901126102e157602060ff5f5460a01c166040519015158152f35b346102e1575f3660031901126102e1576020600354604051908152f35b346102e1575f3660031901126102e1576112be6120e8565b335f52600460205260ff60405f205460501c166115c4577f000000000000000000000000000000000000000000000000000000000000000042106115b5577f000000000000000000000000000000000000000000000000000000000000000080151590816115aa575b5061159b57335f52600460205260ff60405f205460401c161561158c57335f52600460205260ff60405f205460481c1661157d5761136361213b565b6040516370a0823160e01b81523060048201527f00000000000000000000000000000000000000000000000000000000000000006001600160a01b0316602082602481845afa918215610b53575f92611549575b507f000000000000000000000000000000000000000000000000000000000000000080921061153a57335f52600460205260405f20690100000000000000000069ff000000000000000000198254161790556002546001600160801b0380196114228360801c611e48565b60801b1691161760025561143882600354611edb565b600355600654335f52600960205260405f2055600654680100000000000000008110156115265761147481600161149293016006556006611da1565b33906001600160a01b038084549260031b9316831b921b1916179055565b60405163a9059cbb60e01b81523360048201526024810183905290602090829060449082905f905af1908115610b53575f91611507575b5015610b15576040519081524260208201527f9923b4306c6c030f2bdfbf156517d5983b87e15b96176da122cd4f2effa4ba7b60403392a260018055005b611520915060203d602011610b4c57610b3e8183611e26565b826114c9565b634e487b7160e01b5f52604160045260245ffd5b63786e0a9960e01b5f5260045ffd5b9091506020813d602011611575575b8161156560209383611e26565b810103126102e1575190826113b7565b3d9150611558565b630c8d9eab60e31b5f5260045ffd5b63aba4733960e01b5f5260045ffd5b6341524ecf60e11b5f5260045ffd5b905042101581611327565b635874e70f60e11b5f5260045ffd5b63ebb6f34b60e01b5f5260045ffd5b346102e1575f3660031901126102e15760206040517f00000000000000000000000000000000000000000000000000000000000000008152f35b346102e1575f3660031901126102e1575f54611633336001600160a01b03831614611fa3565b60ff8160a01c16156116745760ff60a01b19165f557f5db9ee0a495bf2e6ff9c91a7834c1ba4fdd244a5e8aa4e537bd38aeae4b073aa6020604051338152a1005b60405162461bcd60e51b815260206004820152601460248201527f5061757361626c653a206e6f74207061757365640000000000000000000000006044820152606490fd5b346102e15760203660031901126102e1576004356116e26001600160a01b035f54163314611fa3565b6116ea61213b565b8015611946577f00000000000000000000000000000000000000000000000000000000000000004210156119555769d3c21bcecceda1000000811161194657604051636eb1769f60e11b81523360048201523060248201527f00000000000000000000000000000000000000000000000000000000000000006001600160a01b031690602081604481855afa8015610b535783915f91611911575b50106118cc576040516370a0823160e01b8152306004820152602081602481855afa908115610b53575f9161189a575b506117c08382611edb565b106118555760205f916064604051809481936323b872dd60e01b83523360048401523060248401528760448401525af1908115610b53575f91611836575b5015610b15576040519081527f0939f6f4877faf071412e527bc4c6d0bd65ad077e52b57334f7765265647a7f160203392a260018055005b61184f915060203d602011610b4c57610b3e8183611e26565b826117fe565b60405162461bcd60e51b815260206004820152601960248201527f41697264726f703a2042616c616e6365206f766572666c6f77000000000000006044820152606490fd5b90506020813d6020116118c4575b816118b560209383611e26565b810103126102e15751836117b5565b3d91506118a8565b60405162461bcd60e51b815260206004820152601f60248201527f41697264726f703a20496e73756666696369656e7420616c6c6f77616e6365006044820152606490fd5b9150506020813d60201161193e575b8161192d60209383611e26565b810103126102e15782905184611785565b3d9150611920565b63162908e360e11b5f5260045ffd5b632fc209f360e01b5f5260045ffd5b346102e1575f3660031901126102e1576002546003546040516370a0823160e01b8152306004820152917f0000000000000000000000000000000000000000000000000000000000000000917f0000000000000000000000000000000000000000000000000000000000000000917f0000000000000000000000000000000000000000000000000000000000000000916020866024817f00000000000000000000000000000000000000000000000000000000000000006001600160a01b03165afa918215610b53575f92611ac8575b6101409650854210159485611aae575b60405196858852602088015260408701527f000000000000000000000000000000000000000000000000000000000000000060608701526001600160801b038116608087015260801c60a086015260c085015260e084015242106101008301521515610120820152f35b809550158015611abf575b94611a44565b50844210611ab9565b91506020863d602011611af6575b81611ae360209383611e26565b810103126102e157610140955191611a34565b3d9150611ad6565b346102e1576105b0611b0f36611ccc565b90611f09565b346102e1575f3660031901126102e157611b2d6120e8565b335f52600460205260ff60405f205460501c166115c4577f000000000000000000000000000000000000000000000000000000000000000042101561195557335f52600460205260ff60405f205460401c16611cbd57604051611b8f81611e0a565b67ffffffffffffffff421681526020810160018152604082015f815260608301915f8352335f52600460205267ffffffffffffffff60405f2094511668ff000000000000000085549251151560401b169168ffffffffffffffffff19161717835551151569ff00000000000000000083549160481b169069ff000000000000000000191617825551151560ff60501b82549160501b169060ff60501b19161790556002546001600160801b03611c46818316611e48565b16906001600160801b03191617600255600554335f52600860205260405f20556005546801000000000000000081101561152657611474816001611c8f93016005556005611da1565b6040514281527fe29d35093005f4d575e1003753426b57a7f64378ba73332eef9c6ccc2b8decd660203392a2005b630ea075bf60e21b5f5260045ffd5b60409060031901126102e1576004359060243590565b92919060408401906040855280518092526020606086019101915f5b818110611d1057505060209150930152565b83516001600160a01b0316835260209384019390920191600101611cfe565b600435906001600160a01b03821682036102e157565b600554811015611d5d5760055f5260205f2001905f90565b634e487b7160e01b5f52603260045260245ffd5b600754811015611d5d5760075f5260205f2001905f90565b600654811015611d5d5760065f5260205f2001905f90565b8054821015611d5d575f5260205f2001905f90565b9060206003198301126102e15760043567ffffffffffffffff81116102e157826023820112156102e15780600401359267ffffffffffffffff84116102e15760248460051b830101116102e1576024019190565b6080810190811067ffffffffffffffff82111761152657604052565b90601f8019910116810190811067ffffffffffffffff82111761152657604052565b6001600160801b03166001600160801b0381146109e35760010190565b600754906801000000000000000082101561152657610eee826001611e8f94016007556007611da1565b565b67ffffffffffffffff81116115265760051b60200190565b90611eb382611e91565b611ec06040519182611e26565b8281528092611ed1601f1991611e91565b0190602036910137565b919082018092116109e357565b919082039182116109e357565b8051821015611d5d5760209160051b010190565b916006549182841015611f8657611f209084611edb565b828111611f7f575b611f3a611f358583611ee8565b611ea9565b93805b828110611f4957505050565b806001600160a01b03611f5d600193611d89565b90549060031b1c16611f78611f728584611ee8565b89611ef5565b5201611f3d565b5081611f28565b50909150604051611f98602082611e26565b5f81525f3681379190565b15611faa57565b606460405162461bcd60e51b815260206004820152602060248201527f4f776e61626c653a2063616c6c6572206973206e6f7420746865206f776e65726044820152fd5b908160209103126102e1575180151581036102e15790565b1561200d57565b60405162461bcd60e51b815260206004820152601460248201527f42617463682073697a6520746f6f206c617267650000000000000000000000006044820152606490fd5b9190811015611d5d5760051b0190565b356001600160a01b03811681036102e15790565b916005549182841015611f865761208d9084611edb565b8281116120e1575b6120a2611f358583611ee8565b93805b8281106120b157505050565b806001600160a01b036120c5600193611d45565b90549060031b1c166120da611f728584611ee8565b52016120a5565b5081612095565b60ff5f5460a01c166120f657565b60405162461bcd60e51b815260206004820152601060248201527f5061757361626c653a20706175736564000000000000000000000000000000006044820152606490fd5b60026001541461214c576002600155565b60405162461bcd60e51b815260206004820152601f60248201527f5265656e7472616e637947756172643a207265656e7472616e742063616c6c006044820152606490fdfea26469706673582212207e2a8f9d7788a1230b80111275e0dab5467f37d6347770c013143cf8d448fcb064736f6c634300081c0033",
  "linkReferences": {},
  "deployedLinkReferences": {}
}