{
  "_format": "hh-sol-artifact-1",
  "contractName": "EnhancedSmartStaking",
  "sourceName": "contracts/SmartStaking/EnhancedSmartStaking.sol",
  "abi": [
    {
      "inputs": [
        {
          "internalType": "address",
          "name": "_treasury",
          "type": "address"
        }
      ],
      "stateMutability": "nonpayable",
      "type": "constructor"
    },
    {
      "inputs": [],
      "name": "AlreadyMigrated",
      "type": "error"
    },
    {
      "inputs": [],
      "name": "AutoCompoundNotActive",
      "type": "error"
    },
    {
      "inputs": [
        {
          "internalType": "uint256",
          "name": "provided",
          "type": "uint256"
        },
        {
          "internalType": "uint256",
          "name": "maximum",
          "type": "uint256"
        }
      ],
      "name": "BatchSizeTooLarge",
      "type": "error"
    },
    {
      "inputs": [
        {
          "internalType": "address",
          "name": "treasury",
          "type": "address"
        },
        {
          "internalType": "uint256",
          "name": "amount",
          "type": "uint256"
        }
      ],
      "name": "CommissionTransferFailed",
      "type": "error"
    },
    {
      "inputs": [],
      "name": "ContractIsMigrated",
      "type": "error"
    },
    {
      "inputs": [
        {
          "internalType": "uint256",
          "name": "availableToWithdraw",
          "type": "uint256"
        }
      ],
      "name": "DailyWithdrawalLimitExceeded",
      "type": "error"
    },
    {
      "inputs": [
        {
          "internalType": "uint256",
          "name": "provided",
          "type": "uint256"
        },
        {
          "internalType": "uint256",
          "name": "maximum",
          "type": "uint256"
        }
      ],
      "name": "DepositTooHigh",
      "type": "error"
    },
    {
      "inputs": [
        {
          "internalType": "uint256",
          "name": "provided",
          "type": "uint256"
        },
        {
          "internalType": "uint256",
          "name": "minimum",
          "type": "uint256"
        }
      ],
      "name": "DepositTooLow",
      "type": "error"
    },
    {
      "inputs": [],
      "name": "FundsAreLocked",
      "type": "error"
    },
    {
      "inputs": [],
      "name": "InsufficientBalance",
      "type": "error"
    },
    {
      "inputs": [],
      "name": "InsufficientSkillNFTs",
      "type": "error"
    },
    {
      "inputs": [],
      "name": "InvalidAddress",
      "type": "error"
    },
    {
      "inputs": [],
      "name": "InvalidEffectValue",
      "type": "error"
    },
    {
      "inputs": [],
      "name": "InvalidLockupDuration",
      "type": "error"
    },
    {
      "inputs": [
        {
          "internalType": "uint256",
          "name": "expected",
          "type": "uint256"
        },
        {
          "internalType": "uint256",
          "name": "provided",
          "type": "uint256"
        }
      ],
      "name": "InvalidPrice",
      "type": "error"
    },
    {
      "inputs": [],
      "name": "LevelUpNotEligible",
      "type": "error"
    },
    {
      "inputs": [
        {
          "internalType": "address",
          "name": "user",
          "type": "address"
        },
        {
          "internalType": "uint8",
          "name": "maxSkills",
          "type": "uint8"
        }
      ],
      "name": "MaxActiveSkillsReached",
      "type": "error"
    },
    {
      "inputs": [
        {
          "internalType": "address",
          "name": "user",
          "type": "address"
        },
        {
          "internalType": "uint16",
          "name": "maxDeposits",
          "type": "uint16"
        }
      ],
      "name": "MaxDepositsReached",
      "type": "error"
    },
    {
      "inputs": [],
      "name": "NoDepositsFound",
      "type": "error"
    },
    {
      "inputs": [],
      "name": "NoPendingCommission",
      "type": "error"
    },
    {
      "inputs": [],
      "name": "NoRewardsAvailable",
      "type": "error"
    },
    {
      "inputs": [],
      "name": "OnlyMarketplace",
      "type": "error"
    },
    {
      "inputs": [],
      "name": "SkillAlreadyActive",
      "type": "error"
    },
    {
      "inputs": [],
      "name": "SkillNotActive",
      "type": "error"
    },
    {
      "inputs": [],
      "name": "SkillTypeDisabled",
      "type": "error"
    },
    {
      "inputs": [],
      "name": "UnauthorizedSender",
      "type": "error"
    },
    {
      "anonymous": false,
      "inputs": [
        {
          "indexed": true,
          "internalType": "address",
          "name": "user",
          "type": "address"
        },
        {
          "indexed": false,
          "internalType": "uint256",
          "name": "achievementId",
          "type": "uint256"
        },
        {
          "indexed": false,
          "internalType": "uint256",
          "name": "rewardAmount",
          "type": "uint256"
        },
        {
          "indexed": false,
          "internalType": "uint256",
          "name": "timestamp",
          "type": "uint256"
        }
      ],
      "name": "AchievementRewardObtained",
      "type": "event"
    },
    {
      "anonymous": false,
      "inputs": [
        {
          "indexed": true,
          "internalType": "address",
          "name": "user",
          "type": "address"
        },
        {
          "indexed": false,
          "internalType": "uint256",
          "name": "compoundedAmount",
          "type": "uint256"
        }
      ],
      "name": "AutoCompoundTriggered",
      "type": "event"
    },
    {
      "anonymous": false,
      "inputs": [
        {
          "indexed": true,
          "internalType": "address",
          "name": "user",
          "type": "address"
        },
        {
          "indexed": false,
          "internalType": "uint256",
          "name": "amount",
          "type": "uint256"
        }
      ],
      "name": "AutoCompounded",
      "type": "event"
    },
    {
      "anonymous": false,
      "inputs": [
        {
          "indexed": true,
          "internalType": "address",
          "name": "receiver",
          "type": "address"
        },
        {
          "indexed": false,
          "internalType": "uint256",
          "name": "amount",
          "type": "uint256"
        },
        {
          "indexed": false,
          "internalType": "uint256",
          "name": "timestamp",
          "type": "uint256"
        }
      ],
      "name": "CommissionPaid",
      "type": "event"
    },
    {
      "anonymous": false,
      "inputs": [
        {
          "indexed": true,
          "internalType": "address",
          "name": "user",
          "type": "address"
        },
        {
          "indexed": false,
          "internalType": "uint256",
          "name": "amount",
          "type": "uint256"
        }
      ],
      "name": "Compounded",
      "type": "event"
    },
    {
      "anonymous": false,
      "inputs": [
        {
          "indexed": true,
          "internalType": "address",
          "name": "user",
          "type": "address"
        },
        {
          "indexed": false,
          "internalType": "uint256",
          "name": "amount",
          "type": "uint256"
        },
        {
          "indexed": false,
          "internalType": "uint256",
          "name": "lockupDuration",
          "type": "uint256"
        }
      ],
      "name": "Deposited",
      "type": "event"
    },
    {
      "anonymous": false,
      "inputs": [
        {
          "indexed": true,
          "internalType": "address",
          "name": "user",
          "type": "address"
        },
        {
          "indexed": false,
          "internalType": "uint256",
          "name": "amount",
          "type": "uint256"
        }
      ],
      "name": "EmergencyRewardClaimed",
      "type": "event"
    },
    {
      "anonymous": false,
      "inputs": [
        {
          "indexed": true,
          "internalType": "address",
          "name": "user",
          "type": "address"
        },
        {
          "indexed": false,
          "internalType": "uint256",
          "name": "amount",
          "type": "uint256"
        }
      ],
      "name": "EmergencyWithdrawal",
      "type": "event"
    },
    {
      "anonymous": false,
      "inputs": [
        {
          "indexed": true,
          "internalType": "address",
          "name": "oldMarketplace",
          "type": "address"
        },
        {
          "indexed": true,
          "internalType": "address",
          "name": "newMarketplace",
          "type": "address"
        }
      ],
      "name": "MarketplaceUpdated",
      "type": "event"
    },
    {
      "anonymous": false,
      "inputs": [
        {
          "indexed": true,
          "internalType": "address",
          "name": "newContract",
          "type": "address"
        }
      ],
      "name": "MigrationInitiated",
      "type": "event"
    },
    {
      "anonymous": false,
      "inputs": [
        {
          "indexed": true,
          "internalType": "address",
          "name": "user",
          "type": "address"
        },
        {
          "indexed": true,
          "internalType": "uint256",
          "name": "tokenId",
          "type": "uint256"
        }
      ],
      "name": "NFTStaked",
      "type": "event"
    },
    {
      "anonymous": false,
      "inputs": [
        {
          "indexed": true,
          "internalType": "address",
          "name": "user",
          "type": "address"
        },
        {
          "indexed": true,
          "internalType": "uint256",
          "name": "tokenId",
          "type": "uint256"
        }
      ],
      "name": "NFTUnstaked",
      "type": "event"
    },
    {
      "anonymous": false,
      "inputs": [
        {
          "indexed": true,
          "internalType": "address",
          "name": "previousOwner",
          "type": "address"
        },
        {
          "indexed": true,
          "internalType": "address",
          "name": "newOwner",
          "type": "address"
        }
      ],
      "name": "OwnershipTransferred",
      "type": "event"
    },
    {
      "anonymous": false,
      "inputs": [
        {
          "indexed": false,
          "internalType": "address",
          "name": "account",
          "type": "address"
        }
      ],
      "name": "Paused",
      "type": "event"
    },
    {
      "anonymous": false,
      "inputs": [
        {
          "indexed": true,
          "internalType": "address",
          "name": "user",
          "type": "address"
        },
        {
          "indexed": false,
          "internalType": "uint256",
          "name": "questId",
          "type": "uint256"
        },
        {
          "indexed": false,
          "internalType": "uint256",
          "name": "rewardAmount",
          "type": "uint256"
        },
        {
          "indexed": false,
          "internalType": "uint256",
          "name": "timestamp",
          "type": "uint256"
        }
      ],
      "name": "QuestRewardObtained",
      "type": "event"
    },
    {
      "anonymous": false,
      "inputs": [
        {
          "indexed": true,
          "internalType": "address",
          "name": "user",
          "type": "address"
        },
        {
          "indexed": false,
          "internalType": "uint256",
          "name": "amount",
          "type": "uint256"
        }
      ],
      "name": "RewardsCompounded",
      "type": "event"
    },
    {
      "anonymous": false,
      "inputs": [
        {
          "indexed": true,
          "internalType": "address",
          "name": "user",
          "type": "address"
        },
        {
          "indexed": true,
          "internalType": "uint256",
          "name": "nftId",
          "type": "uint256"
        },
        {
          "indexed": false,
          "internalType": "enum IStakingIntegration.SkillType",
          "name": "skillType",
          "type": "uint8"
        },
        {
          "indexed": false,
          "internalType": "uint16",
          "name": "effectValue",
          "type": "uint16"
        }
      ],
      "name": "SkillActivated",
      "type": "event"
    },
    {
      "anonymous": false,
      "inputs": [
        {
          "indexed": true,
          "internalType": "address",
          "name": "user",
          "type": "address"
        },
        {
          "indexed": true,
          "internalType": "uint256",
          "name": "tokenId",
          "type": "uint256"
        },
        {
          "indexed": false,
          "internalType": "enum IStakingIntegration.SkillType",
          "name": "skillType",
          "type": "uint8"
        },
        {
          "indexed": false,
          "internalType": "uint8",
          "name": "skillLevel",
          "type": "uint8"
        }
      ],
      "name": "SkillApplied",
      "type": "event"
    },
    {
      "anonymous": false,
      "inputs": [
        {
          "indexed": true,
          "internalType": "address",
          "name": "user",
          "type": "address"
        },
        {
          "indexed": true,
          "internalType": "uint256",
          "name": "nftId",
          "type": "uint256"
        },
        {
          "indexed": false,
          "internalType": "enum IStakingIntegration.SkillType",
          "name": "skillType",
          "type": "uint8"
        }
      ],
      "name": "SkillDeactivated",
      "type": "event"
    },
    {
      "anonymous": false,
      "inputs": [
        {
          "indexed": true,
          "internalType": "address",
          "name": "user",
          "type": "address"
        },
        {
          "indexed": false,
          "internalType": "uint8",
          "name": "level",
          "type": "uint8"
        },
        {
          "indexed": false,
          "internalType": "uint8",
          "name": "maxActiveSkills",
          "type": "uint8"
        },
        {
          "indexed": false,
          "internalType": "uint16",
          "name": "stakingBoostTotal",
          "type": "uint16"
        }
      ],
      "name": "SkillProfileUpdated",
      "type": "event"
    },
    {
      "anonymous": false,
      "inputs": [
        {
          "indexed": true,
          "internalType": "address",
          "name": "user",
          "type": "address"
        },
        {
          "indexed": true,
          "internalType": "uint256",
          "name": "tokenId",
          "type": "uint256"
        },
        {
          "indexed": false,
          "internalType": "enum IStakingIntegration.SkillType",
          "name": "skillType",
          "type": "uint8"
        }
      ],
      "name": "SkillRemoved",
      "type": "event"
    },
    {
      "anonymous": false,
      "inputs": [
        {
          "indexed": true,
          "internalType": "address",
          "name": "user",
          "type": "address"
        },
        {
          "indexed": true,
          "internalType": "uint256",
          "name": "tokenId",
          "type": "uint256"
        },
        {
          "indexed": false,
          "internalType": "enum IStakingIntegration.Rarity",
          "name": "newRarity",
          "type": "uint8"
        },
        {
          "indexed": false,
          "internalType": "uint256",
          "name": "upgradeReward",
          "type": "uint256"
        }
      ],
      "name": "SkillUpgraded",
      "type": "event"
    },
    {
      "anonymous": false,
      "inputs": [
        {
          "indexed": true,
          "internalType": "address",
          "name": "oldTreasury",
          "type": "address"
        },
        {
          "indexed": true,
          "internalType": "address",
          "name": "newTreasury",
          "type": "address"
        }
      ],
      "name": "TreasuryUpdated",
      "type": "event"
    },
    {
      "anonymous": false,
      "inputs": [
        {
          "indexed": false,
          "internalType": "address",
          "name": "account",
          "type": "address"
        }
      ],
      "name": "Unpaused",
      "type": "event"
    },
    {
      "anonymous": false,
      "inputs": [
        {
          "indexed": true,
          "internalType": "address",
          "name": "user",
          "type": "address"
        },
        {
          "indexed": false,
          "internalType": "uint256",
          "name": "totalAmount",
          "type": "uint256"
        }
      ],
      "name": "WithdrawAll",
      "type": "event"
    },
    {
      "anonymous": false,
      "inputs": [
        {
          "indexed": true,
          "internalType": "address",
          "name": "user",
          "type": "address"
        },
        {
          "indexed": false,
          "internalType": "uint256",
          "name": "amount",
          "type": "uint256"
        },
        {
          "indexed": false,
          "internalType": "uint256",
          "name": "commission",
          "type": "uint256"
        },
        {
          "indexed": false,
          "internalType": "uint256",
          "name": "timestamp",
          "type": "uint256"
        },
        {
          "indexed": false,
          "internalType": "uint256",
          "name": "depositId",
          "type": "uint256"
        }
      ],
      "name": "WithdrawalMade",
      "type": "event"
    },
    {
      "anonymous": false,
      "inputs": [
        {
          "indexed": true,
          "internalType": "address",
          "name": "user",
          "type": "address"
        },
        {
          "indexed": false,
          "internalType": "uint256",
          "name": "amount",
          "type": "uint256"
        }
      ],
      "name": "Withdrawn",
      "type": "event"
    },
    {
      "inputs": [],
      "name": "AUTO_COMPOUND_INTERVAL",
      "outputs": [
        {
          "internalType": "uint64",
          "name": "",
          "type": "uint64"
        }
      ],
      "stateMutability": "view",
      "type": "function"
    },
    {
      "inputs": [],
      "name": "achievementRewardExpirationTime",
      "outputs": [
        {
          "internalType": "uint256",
          "name": "",
          "type": "uint256"
        }
      ],
      "stateMutability": "view",
      "type": "function"
    },
    {
      "inputs": [
        {
          "internalType": "address[]",
          "name": "userAddresses",
          "type": "address[]"
        }
      ],
      "name": "batchAutoCompound",
      "outputs": [],
      "stateMutability": "nonpayable",
      "type": "function"
    },
    {
      "inputs": [
        {
          "internalType": "address",
          "name": "user",
          "type": "address"
        },
        {
          "internalType": "uint256",
          "name": "baseAPY",
          "type": "uint256"
        }
      ],
      "name": "calculateBoostedAPY",
      "outputs": [
        {
          "internalType": "uint256",
          "name": "",
          "type": "uint256"
        }
      ],
      "stateMutability": "view",
      "type": "function"
    },
    {
      "inputs": [
        {
          "internalType": "address",
          "name": "userAddress",
          "type": "address"
        }
      ],
      "name": "calculateBoostedRewards",
      "outputs": [
        {
          "internalType": "uint256",
          "name": "totalRewards",
          "type": "uint256"
        }
      ],
      "stateMutability": "view",
      "type": "function"
    },
    {
      "inputs": [
        {
          "internalType": "address",
          "name": "user",
          "type": "address"
        }
      ],
      "name": "calculateBoostedRewardsWithRarityMultiplier",
      "outputs": [
        {
          "internalType": "uint256",
          "name": "totalBoosted",
          "type": "uint256"
        }
      ],
      "stateMutability": "view",
      "type": "function"
    },
    {
      "inputs": [
        {
          "internalType": "address",
          "name": "user",
          "type": "address"
        },
        {
          "internalType": "uint256",
          "name": "baseFee",
          "type": "uint256"
        }
      ],
      "name": "calculateFeeDiscount",
      "outputs": [
        {
          "internalType": "uint256",
          "name": "",
          "type": "uint256"
        }
      ],
      "stateMutability": "view",
      "type": "function"
    },
    {
      "inputs": [
        {
          "internalType": "address",
          "name": "user",
          "type": "address"
        },
        {
          "internalType": "uint256",
          "name": "baseLockTime",
          "type": "uint256"
        }
      ],
      "name": "calculateReducedLockTime",
      "outputs": [
        {
          "internalType": "uint256",
          "name": "",
          "type": "uint256"
        }
      ],
      "stateMutability": "view",
      "type": "function"
    },
    {
      "inputs": [
        {
          "internalType": "address",
          "name": "userAddress",
          "type": "address"
        }
      ],
      "name": "calculateRewards",
      "outputs": [
        {
          "internalType": "uint256",
          "name": "totalRewards",
          "type": "uint256"
        }
      ],
      "stateMutability": "view",
      "type": "function"
    },
    {
      "inputs": [
        {
          "internalType": "address",
          "name": "_newTreasury",
          "type": "address"
        }
      ],
      "name": "changeTreasuryAddress",
      "outputs": [],
      "stateMutability": "nonpayable",
      "type": "function"
    },
    {
      "inputs": [
        {
          "internalType": "address",
          "name": "user",
          "type": "address"
        }
      ],
      "name": "checkAutoCompound",
      "outputs": [
        {
          "internalType": "bool",
          "name": "upkeepNeeded",
          "type": "bool"
        },
        {
          "internalType": "bytes",
          "name": "performData",
          "type": "bytes"
        }
      ],
      "stateMutability": "view",
      "type": "function"
    },
    {
      "inputs": [],
      "name": "compound",
      "outputs": [],
      "stateMutability": "nonpayable",
      "type": "function"
    },
    {
      "inputs": [
        {
          "internalType": "uint64",
          "name": "_lockupDuration",
          "type": "uint64"
        }
      ],
      "name": "deposit",
      "outputs": [],
      "stateMutability": "payable",
      "type": "function"
    },
    {
      "inputs": [
        {
          "internalType": "uint64",
          "name": "_lockupDuration",
          "type": "uint64"
        }
      ],
      "name": "depositWithBoosts",
      "outputs": [],
      "stateMutability": "payable",
      "type": "function"
    },
    {
      "inputs": [
        {
          "internalType": "uint256",
          "name": "_amount",
          "type": "uint256"
        }
      ],
      "name": "emergencyWithdraw",
      "outputs": [],
      "stateMutability": "nonpayable",
      "type": "function"
    },
    {
      "inputs": [],
      "name": "emergencyWithdrawAll",
      "outputs": [],
      "stateMutability": "nonpayable",
      "type": "function"
    },
    {
      "inputs": [
        {
          "internalType": "address",
          "name": "user",
          "type": "address"
        }
      ],
      "name": "getActiveSkills",
      "outputs": [
        {
          "components": [
            {
              "internalType": "enum IStakingIntegration.SkillType",
              "name": "skillType",
              "type": "uint8"
            },
            {
              "internalType": "uint16",
              "name": "effectValue",
              "type": "uint16"
            },
            {
              "internalType": "enum IStakingIntegration.Rarity",
              "name": "rarity",
              "type": "uint8"
            },
            {
              "internalType": "uint64",
              "name": "activatedAt",
              "type": "uint64"
            },
            {
              "internalType": "uint64",
              "name": "cooldownEnds",
              "type": "uint64"
            },
            {
              "internalType": "bool",
              "name": "isActive",
              "type": "bool"
            }
          ],
          "internalType": "struct IStakingIntegration.NFTSkill[]",
          "name": "",
          "type": "tuple[]"
        }
      ],
      "stateMutability": "view",
      "type": "function"
    },
    {
      "inputs": [
        {
          "internalType": "address",
          "name": "user",
          "type": "address"
        }
      ],
      "name": "getActiveSkillsWithDetails",
      "outputs": [
        {
          "internalType": "uint256[]",
          "name": "nftIds",
          "type": "uint256[]"
        },
        {
          "internalType": "enum IStakingIntegration.SkillType[]",
          "name": "skillTypes",
          "type": "uint8[]"
        },
        {
          "internalType": "enum IStakingIntegration.Rarity[]",
          "name": "rarities",
          "type": "uint8[]"
        },
        {
          "internalType": "uint16[]",
          "name": "effectValues",
          "type": "uint16[]"
        },
        {
          "internalType": "uint8[]",
          "name": "rarityStars",
          "type": "uint8[]"
        }
      ],
      "stateMutability": "view",
      "type": "function"
    },
    {
      "inputs": [],
      "name": "getAutoCompoundUsers",
      "outputs": [
        {
          "internalType": "address[]",
          "name": "",
          "type": "address[]"
        }
      ],
      "stateMutability": "view",
      "type": "function"
    },
    {
      "inputs": [
        {
          "internalType": "uint256",
          "name": "cursor",
          "type": "uint256"
        },
        {
          "internalType": "uint256",
          "name": "size",
          "type": "uint256"
        }
      ],
      "name": "getAutoCompoundUsersPage",
      "outputs": [
        {
          "internalType": "address[]",
          "name": "pagedUsers",
          "type": "address[]"
        },
        {
          "internalType": "uint256",
          "name": "nextCursor",
          "type": "uint256"
        }
      ],
      "stateMutability": "view",
      "type": "function"
    },
    {
      "inputs": [],
      "name": "getAvailableSkillsConfiguration",
      "outputs": [
        {
          "internalType": "enum IStakingIntegration.SkillType[]",
          "name": "skillTypes",
          "type": "uint8[]"
        },
        {
          "internalType": "uint16[]",
          "name": "defaultEffects",
          "type": "uint16[]"
        },
        {
          "internalType": "bool[]",
          "name": "enabled",
          "type": "bool[]"
        }
      ],
      "stateMutability": "view",
      "type": "function"
    },
    {
      "inputs": [],
      "name": "getContractBalance",
      "outputs": [
        {
          "internalType": "uint256",
          "name": "",
          "type": "uint256"
        }
      ],
      "stateMutability": "view",
      "type": "function"
    },
    {
      "inputs": [
        {
          "internalType": "uint256",
          "name": "nftId",
          "type": "uint256"
        }
      ],
      "name": "getSkillRarity",
      "outputs": [
        {
          "internalType": "enum IStakingIntegration.Rarity",
          "name": "",
          "type": "uint8"
        }
      ],
      "stateMutability": "view",
      "type": "function"
    },
    {
      "inputs": [
        {
          "internalType": "address",
          "name": "userAddress",
          "type": "address"
        }
      ],
      "name": "getTotalDeposit",
      "outputs": [
        {
          "internalType": "uint256",
          "name": "",
          "type": "uint256"
        }
      ],
      "stateMutability": "view",
      "type": "function"
    },
    {
      "inputs": [
        {
          "internalType": "address",
          "name": "userAddress",
          "type": "address"
        }
      ],
      "name": "getUserDeposits",
      "outputs": [
        {
          "components": [
            {
              "internalType": "uint128",
              "name": "amount",
              "type": "uint128"
            },
            {
              "internalType": "uint64",
              "name": "timestamp",
              "type": "uint64"
            },
            {
              "internalType": "uint64",
              "name": "lastClaimTime",
              "type": "uint64"
            },
            {
              "internalType": "uint64",
              "name": "lockupDuration",
              "type": "uint64"
            }
          ],
          "internalType": "struct EnhancedSmartStaking.Deposit[]",
          "name": "",
          "type": "tuple[]"
        }
      ],
      "stateMutability": "view",
      "type": "function"
    },
    {
      "inputs": [
        {
          "internalType": "address",
          "name": "user",
          "type": "address"
        }
      ],
      "name": "getUserDetailedStats",
      "outputs": [
        {
          "internalType": "uint256",
          "name": "totalStaked",
          "type": "uint256"
        },
        {
          "internalType": "uint256",
          "name": "baseRewards",
          "type": "uint256"
        },
        {
          "internalType": "uint256",
          "name": "boostedRewards",
          "type": "uint256"
        },
        {
          "internalType": "uint256",
          "name": "questRewards",
          "type": "uint256"
        },
        {
          "internalType": "uint256",
          "name": "achievementRewards",
          "type": "uint256"
        },
        {
          "internalType": "uint8",
          "name": "skillLevel",
          "type": "uint8"
        },
        {
          "internalType": "uint8",
          "name": "activeSkillsCount",
          "type": "uint8"
        },
        {
          "internalType": "bool",
          "name": "hasAutoCompoundSkill",
          "type": "bool"
        }
      ],
      "stateMutability": "view",
      "type": "function"
    },
    {
      "inputs": [
        {
          "internalType": "address",
          "name": "userAddress",
          "type": "address"
        }
      ],
      "name": "getUserInfo",
      "outputs": [
        {
          "internalType": "uint256",
          "name": "totalDeposited",
          "type": "uint256"
        },
        {
          "internalType": "uint256",
          "name": "totalRewards",
          "type": "uint256"
        },
        {
          "internalType": "uint256",
          "name": "depositCount",
          "type": "uint256"
        },
        {
          "internalType": "uint256",
          "name": "lastWithdrawTime",
          "type": "uint256"
        }
      ],
      "stateMutability": "view",
      "type": "function"
    },
    {
      "inputs": [
        {
          "internalType": "address",
          "name": "userAddress",
          "type": "address"
        }
      ],
      "name": "getUserInfoWithSkills",
      "outputs": [
        {
          "internalType": "uint256",
          "name": "totalDeposited",
          "type": "uint256"
        },
        {
          "internalType": "uint256",
          "name": "baseRewards",
          "type": "uint256"
        },
        {
          "internalType": "uint256",
          "name": "boostedRewards",
          "type": "uint256"
        },
        {
          "internalType": "uint256",
          "name": "lastWithdraw",
          "type": "uint256"
        },
        {
          "internalType": "uint16",
          "name": "stakingBoost",
          "type": "uint16"
        },
        {
          "internalType": "bool",
          "name": "hasAutoCompound_",
          "type": "bool"
        },
        {
          "internalType": "uint8",
          "name": "level",
          "type": "uint8"
        },
        {
          "internalType": "uint8",
          "name": "activeSkillCount",
          "type": "uint8"
        }
      ],
      "stateMutability": "view",
      "type": "function"
    },
    {
      "inputs": [
        {
          "internalType": "address",
          "name": "user",
          "type": "address"
        }
      ],
      "name": "getUserSkillProfile",
      "outputs": [
        {
          "components": [
            {
              "internalType": "uint256[]",
              "name": "activeNFTIds",
              "type": "uint256[]"
            },
            {
              "internalType": "uint256",
              "name": "totalXP",
              "type": "uint256"
            },
            {
              "internalType": "uint8",
              "name": "level",
              "type": "uint8"
            },
            {
              "internalType": "uint8",
              "name": "maxActiveSkills",
              "type": "uint8"
            },
            {
              "internalType": "uint16",
              "name": "stakingBoostTotal",
              "type": "uint16"
            },
            {
              "internalType": "uint16",
              "name": "feeDiscountTotal",
              "type": "uint16"
            },
            {
              "internalType": "bool",
              "name": "hasAutoCompound",
              "type": "bool"
            }
          ],
          "internalType": "struct IStakingIntegration.UserSkillProfile",
          "name": "",
          "type": "tuple"
        }
      ],
      "stateMutability": "view",
      "type": "function"
    },
    {
      "inputs": [
        {
          "internalType": "address",
          "name": "user",
          "type": "address"
        }
      ],
      "name": "hasAutoCompound",
      "outputs": [
        {
          "internalType": "bool",
          "name": "",
          "type": "bool"
        }
      ],
      "stateMutability": "view",
      "type": "function"
    },
    {
      "inputs": [
        {
          "internalType": "address",
          "name": "",
          "type": "address"
        }
      ],
      "name": "lastAchievementUnlockTime",
      "outputs": [
        {
          "internalType": "uint256",
          "name": "",
          "type": "uint256"
        }
      ],
      "stateMutability": "view",
      "type": "function"
    },
    {
      "inputs": [],
      "name": "lastAutoCompoundExecution",
      "outputs": [
        {
          "internalType": "uint64",
          "name": "",
          "type": "uint64"
        }
      ],
      "stateMutability": "view",
      "type": "function"
    },
    {
      "inputs": [
        {
          "internalType": "address",
          "name": "",
          "type": "address"
        }
      ],
      "name": "lastQuestCompletionTime",
      "outputs": [
        {
          "internalType": "uint256",
          "name": "",
          "type": "uint256"
        }
      ],
      "stateMutability": "view",
      "type": "function"
    },
    {
      "inputs": [],
      "name": "marketplaceContract",
      "outputs": [
        {
          "internalType": "address",
          "name": "",
          "type": "address"
        }
      ],
      "stateMutability": "view",
      "type": "function"
    },
    {
      "inputs": [],
      "name": "migrated",
      "outputs": [
        {
          "internalType": "bool",
          "name": "",
          "type": "bool"
        }
      ],
      "stateMutability": "view",
      "type": "function"
    },
    {
      "inputs": [],
      "name": "newContractAddress",
      "outputs": [
        {
          "internalType": "address",
          "name": "",
          "type": "address"
        }
      ],
      "stateMutability": "view",
      "type": "function"
    },
    {
      "inputs": [
        {
          "internalType": "uint256",
          "name": "",
          "type": "uint256"
        }
      ],
      "name": "nftRarity",
      "outputs": [
        {
          "internalType": "enum IStakingIntegration.Rarity",
          "name": "",
          "type": "uint8"
        }
      ],
      "stateMutability": "view",
      "type": "function"
    },
    {
      "inputs": [
        {
          "internalType": "uint256",
          "name": "",
          "type": "uint256"
        }
      ],
      "name": "nftSkills",
      "outputs": [
        {
          "internalType": "enum IStakingIntegration.SkillType",
          "name": "skillType",
          "type": "uint8"
        },
        {
          "internalType": "uint16",
          "name": "effectValue",
          "type": "uint16"
        },
        {
          "internalType": "enum IStakingIntegration.Rarity",
          "name": "rarity",
          "type": "uint8"
        },
        {
          "internalType": "uint64",
          "name": "activatedAt",
          "type": "uint64"
        },
        {
          "internalType": "uint64",
          "name": "cooldownEnds",
          "type": "uint64"
        },
        {
          "internalType": "bool",
          "name": "isActive",
          "type": "bool"
        }
      ],
      "stateMutability": "view",
      "type": "function"
    },
    {
      "inputs": [
        {
          "internalType": "address",
          "name": "user",
          "type": "address"
        },
        {
          "internalType": "uint256",
          "name": "achievementId",
          "type": "uint256"
        },
        {
          "internalType": "uint256",
          "name": "rewardAmount",
          "type": "uint256"
        }
      ],
      "name": "notifyAchievementUnlocked",
      "outputs": [],
      "stateMutability": "nonpayable",
      "type": "function"
    },
    {
      "inputs": [
        {
          "internalType": "address",
          "name": "user",
          "type": "address"
        },
        {
          "internalType": "uint256",
          "name": "questId",
          "type": "uint256"
        },
        {
          "internalType": "uint256",
          "name": "rewardAmount",
          "type": "uint256"
        }
      ],
      "name": "notifyQuestCompletion",
      "outputs": [],
      "stateMutability": "nonpayable",
      "type": "function"
    },
    {
      "inputs": [
        {
          "internalType": "address",
          "name": "user",
          "type": "address"
        },
        {
          "internalType": "uint256",
          "name": "nftId",
          "type": "uint256"
        },
        {
          "internalType": "enum IStakingIntegration.SkillType",
          "name": "skillType",
          "type": "uint8"
        },
        {
          "internalType": "uint16",
          "name": "effectValue",
          "type": "uint16"
        }
      ],
      "name": "notifySkillActivation",
      "outputs": [],
      "stateMutability": "nonpayable",
      "type": "function"
    },
    {
      "inputs": [
        {
          "internalType": "address",
          "name": "user",
          "type": "address"
        },
        {
          "internalType": "uint256",
          "name": "nftId",
          "type": "uint256"
        }
      ],
      "name": "notifySkillDeactivation",
      "outputs": [],
      "stateMutability": "nonpayable",
      "type": "function"
    },
    {
      "inputs": [
        {
          "internalType": "address",
          "name": "user",
          "type": "address"
        },
        {
          "internalType": "uint256",
          "name": "oldSkillId1",
          "type": "uint256"
        },
        {
          "internalType": "uint256",
          "name": "oldSkillId2",
          "type": "uint256"
        },
        {
          "internalType": "uint256",
          "name": "newSkillId",
          "type": "uint256"
        },
        {
          "internalType": "enum IStakingIntegration.Rarity",
          "name": "newRarity",
          "type": "uint8"
        }
      ],
      "name": "notifySkillUpgrade",
      "outputs": [],
      "stateMutability": "nonpayable",
      "type": "function"
    },
    {
      "inputs": [],
      "name": "owner",
      "outputs": [
        {
          "internalType": "address",
          "name": "",
          "type": "address"
        }
      ],
      "stateMutability": "view",
      "type": "function"
    },
    {
      "inputs": [],
      "name": "pause",
      "outputs": [],
      "stateMutability": "nonpayable",
      "type": "function"
    },
    {
      "inputs": [],
      "name": "paused",
      "outputs": [
        {
          "internalType": "bool",
          "name": "",
          "type": "bool"
        }
      ],
      "stateMutability": "view",
      "type": "function"
    },
    {
      "inputs": [
        {
          "internalType": "bytes",
          "name": "performData",
          "type": "bytes"
        }
      ],
      "name": "performAutoCompound",
      "outputs": [],
      "stateMutability": "nonpayable",
      "type": "function"
    },
    {
      "inputs": [],
      "name": "questRewardExpirationTime",
      "outputs": [
        {
          "internalType": "uint256",
          "name": "",
          "type": "uint256"
        }
      ],
      "stateMutability": "view",
      "type": "function"
    },
    {
      "inputs": [],
      "name": "renounceOwnership",
      "outputs": [],
      "stateMutability": "nonpayable",
      "type": "function"
    },
    {
      "inputs": [
        {
          "internalType": "address",
          "name": "_marketplace",
          "type": "address"
        }
      ],
      "name": "setMarketplaceAddress",
      "outputs": [],
      "stateMutability": "nonpayable",
      "type": "function"
    },
    {
      "inputs": [
        {
          "internalType": "enum IStakingIntegration.SkillType",
          "name": "skillType",
          "type": "uint8"
        },
        {
          "internalType": "bool",
          "name": "enabled",
          "type": "bool"
        }
      ],
      "name": "setSkillEnabled",
      "outputs": [],
      "stateMutability": "nonpayable",
      "type": "function"
    },
    {
      "inputs": [
        {
          "internalType": "uint256",
          "name": "nftId",
          "type": "uint256"
        },
        {
          "internalType": "enum IStakingIntegration.Rarity",
          "name": "rarity",
          "type": "uint8"
        }
      ],
      "name": "setSkillRarity",
      "outputs": [],
      "stateMutability": "nonpayable",
      "type": "function"
    },
    {
      "inputs": [
        {
          "internalType": "address",
          "name": "",
          "type": "address"
        }
      ],
      "name": "setStakingAddress",
      "outputs": [],
      "stateMutability": "view",
      "type": "function"
    },
    {
      "inputs": [
        {
          "internalType": "enum IStakingIntegration.SkillType",
          "name": "",
          "type": "uint8"
        }
      ],
      "name": "skillDefaultEffects",
      "outputs": [
        {
          "internalType": "uint16",
          "name": "",
          "type": "uint16"
        }
      ],
      "stateMutability": "view",
      "type": "function"
    },
    {
      "inputs": [
        {
          "internalType": "enum IStakingIntegration.SkillType",
          "name": "",
          "type": "uint8"
        }
      ],
      "name": "skillEnabled",
      "outputs": [
        {
          "internalType": "bool",
          "name": "",
          "type": "bool"
        }
      ],
      "stateMutability": "view",
      "type": "function"
    },
    {
      "inputs": [
        {
          "internalType": "address",
          "name": "",
          "type": "address"
        }
      ],
      "name": "totalAchievementRewards",
      "outputs": [
        {
          "internalType": "uint256",
          "name": "",
          "type": "uint256"
        }
      ],
      "stateMutability": "view",
      "type": "function"
    },
    {
      "inputs": [],
      "name": "totalPoolBalance",
      "outputs": [
        {
          "internalType": "uint256",
          "name": "",
          "type": "uint256"
        }
      ],
      "stateMutability": "view",
      "type": "function"
    },
    {
      "inputs": [
        {
          "internalType": "address",
          "name": "",
          "type": "address"
        }
      ],
      "name": "totalQuestRewards",
      "outputs": [
        {
          "internalType": "uint256",
          "name": "",
          "type": "uint256"
        }
      ],
      "stateMutability": "view",
      "type": "function"
    },
    {
      "inputs": [
        {
          "internalType": "address",
          "name": "newOwner",
          "type": "address"
        }
      ],
      "name": "transferOwnership",
      "outputs": [],
      "stateMutability": "nonpayable",
      "type": "function"
    },
    {
      "inputs": [],
      "name": "treasury",
      "outputs": [
        {
          "internalType": "address",
          "name": "",
          "type": "address"
        }
      ],
      "stateMutability": "view",
      "type": "function"
    },
    {
      "inputs": [],
      "name": "uniqueUsersCount",
      "outputs": [
        {
          "internalType": "uint256",
          "name": "",
          "type": "uint256"
        }
      ],
      "stateMutability": "view",
      "type": "function"
    },
    {
      "inputs": [],
      "name": "unpause",
      "outputs": [],
      "stateMutability": "nonpayable",
      "type": "function"
    },
    {
      "inputs": [
        {
          "internalType": "enum IStakingIntegration.SkillType",
          "name": "skillType",
          "type": "uint8"
        },
        {
          "internalType": "uint16",
          "name": "newEffectValue",
          "type": "uint16"
        }
      ],
      "name": "updateSkillEffect",
      "outputs": [],
      "stateMutability": "nonpayable",
      "type": "function"
    },
    {
      "inputs": [
        {
          "internalType": "address",
          "name": "user",
          "type": "address"
        },
        {
          "internalType": "uint256",
          "name": "xpGained",
          "type": "uint256"
        }
      ],
      "name": "updateUserXP",
      "outputs": [],
      "stateMutability": "nonpayable",
      "type": "function"
    },
    {
      "inputs": [
        {
          "internalType": "address",
          "name": "",
          "type": "address"
        },
        {
          "internalType": "uint256",
          "name": "",
          "type": "uint256"
        }
      ],
      "name": "userAchievementRewards",
      "outputs": [
        {
          "internalType": "uint256",
          "name": "",
          "type": "uint256"
        }
      ],
      "stateMutability": "view",
      "type": "function"
    },
    {
      "inputs": [
        {
          "internalType": "address",
          "name": "",
          "type": "address"
        },
        {
          "internalType": "uint256",
          "name": "",
          "type": "uint256"
        }
      ],
      "name": "userQuestRewards",
      "outputs": [
        {
          "internalType": "uint256",
          "name": "",
          "type": "uint256"
        }
      ],
      "stateMutability": "view",
      "type": "function"
    },
    {
      "inputs": [
        {
          "internalType": "address",
          "name": "",
          "type": "address"
        }
      ],
      "name": "userSkillProfiles",
      "outputs": [
        {
          "internalType": "uint256",
          "name": "totalXP",
          "type": "uint256"
        },
        {
          "internalType": "uint8",
          "name": "level",
          "type": "uint8"
        },
        {
          "internalType": "uint8",
          "name": "maxActiveSkills",
          "type": "uint8"
        },
        {
          "internalType": "uint16",
          "name": "stakingBoostTotal",
          "type": "uint16"
        },
        {
          "internalType": "uint16",
          "name": "feeDiscountTotal",
          "type": "uint16"
        },
        {
          "internalType": "bool",
          "name": "hasAutoCompound",
          "type": "bool"
        }
      ],
      "stateMutability": "view",
      "type": "function"
    },
    {
      "inputs": [],
      "name": "withdraw",
      "outputs": [],
      "stateMutability": "nonpayable",
      "type": "function"
    },
    {
      "inputs": [],
      "name": "withdrawAll",
      "outputs": [],
      "stateMutability": "nonpayable",
      "type": "function"
    },
    {
      "inputs": [],
      "name": "withdrawBoosted",
      "outputs": [],
      "stateMutability": "nonpayable",
      "type": "function"
    },
    {
      "stateMutability": "payable",
      "type": "receive"
    }
  ],
  "bytecode": "0x60806040523461002a576100196100146100bf565b6101c9565b604051615c0c6104b68239615c0c90f35b5f80fd5b634e487b7160e01b5f52604160045260245ffd5b90601f01601f191681019081106001600160401b0382111761006357604052565b61002e565b9061007c61007560405190565b9283610042565b565b6001600160a01b031690565b90565b6001600160a01b0381160361002a57565b9050519061007c8261008d565b9060208282031261002a5761008a9161009e565b61008a6160c2803803806100d281610068565b9283398101906100ab565b905f19905b9181191691161790565b61008a61008a61008a9290565b9061010961008a610110926100ec565b82546100dd565b9055565b61007e61008a61008a9290565b61008a90610114565b906001600160a01b03906100e2565b61008a9061007e906001600160a01b031682565b61008a90610139565b61008a9061014d565b9061016f61008a61011092610156565b825461012a565b61018361008a61008a9290565b6001600160401b031690565b906001600160401b03906100e2565b61008a90610183906001600160401b031682565b906101c261008a6101109261019e565b825461018f565b6101d161023c565b6101ea62278d006101e38160186100f9565b60196100f9565b6101f661007e5f610121565b6001600160a01b0382161461022b5761021090600261015f565b61021861035b565b61007c61022442610176565b60126101b2565b63e6c4247b60e01b5f908152600490fd5b61007c61024e565b61008a60016100ec565b61025661028e565b61007c610261610244565b60016100f9565b9060ff60a01b9060a01b6100e2565b9061028761008a61011092151590565b8254610268565b6102966102a0565b61007c5f80610277565b61007c33610461565b634e487b7160e01b5f52602160045260245ffd5b601111156102c757565b6102a9565b9061007c826102bd565b61008a906102cc565b906102e9906102d6565b5f5260205260405f2090565b9060ff906100e2565b9061030e61008a61011092151590565b82546102f5565b61032261008a61008a9290565b61ffff1690565b9061ffff906100e2565b61032261008a61008a9261ffff1690565b9061035461008a61011092610333565b8254610329565b61007c60016103ce816103796007600d61037e8461037981846102df565b6102fe565b61038d846103796002846102df565b61039c846103796003846102df565b6103ab846103796004846102df565b6103ba846103796005846102df565b6103c9846103796006846102df565b6102df565b6103ed6103dc6101f4610315565b6103e8600e93846102df565b610344565b61042e6103fb6103e8610315565b61040a816103e86002866102df565b6104236104186107d0610315565b6103e86003866102df565b6103e86006846102df565b6103e8600561043e6109c4610315565b926103c9846103e86007846102df565b61008a9061007e565b61008a905461044e565b61048561047f6104705f610457565b61047a845f61015f565b610156565b91610156565b907f8be0079c531659141344cd1fd0a4f28419497f9722a3daafe3b4186f6b6457e06104b060405190565b5f90a356fe60806040526004361015610022575b3615610018575f80fd5b610020614f1a565b005b5f3560e01c806301d9b8421461047c578063116e1e3e1461047757806311bd459f14610472578063137658381461046d578063161ba7811461046857806316e1a0fe1461046357806318f2f4021461045e5780631e26d589146104595780631fc8ee5e146104545780632a5bf6d21461044f5780632c678c641461044a5780632f1df47614610445578063313a1954146104405780633b457e4b1461043b5780633bab7a89146104365780633ccfd60b146104315780633f4ba83a146103d75780633fd51fbf1461042c5780634301d9aa1461042757806349be75bb146104225780634b1d06d71461041d5780635026d63e146104185780635312ea8e1461041357806354fd14611461040e5780635b0df80a146104095780635c975abb146104045780635efc27d6146103ff57806361d027b3146103fa578063635e0c4d146103f55780636386c1c7146103f057806364ab8675146103eb5780636af04a57146103e65780636f9fb98a146103e1578063715018a6146103dc5780638456cb59146103d7578063853828b6146103d2578063857184d1146103cd57806387a7b7f6146103c857806389257817146103c35780638d79bb50146103be5780638da5cb5b146103b9578063910418be146103b4578063992976aa146103af5780639f99dc41146103aa578063a13c196d146103a5578063a646c1ce146103a0578063a6f353f01461039b578063ae03126a14610396578063b2e89a9614610391578063b415ff7a1461038c578063b47cc55614610387578063b6e18cfe14610382578063b907deee1461037d578063bece23ba14610378578063bf37bb6a14610373578063c3f78e3a1461036e578063c9f8234f14610369578063cb836fb114610364578063ce4098be1461035f578063d1bb5cf11461035a578063d1cc7bb214610355578063dd19171914610350578063e7e754001461034b578063e8ac834514610346578063eb97e4eb14610341578063f154a5491461033c578063f2fde38b14610337578063f4e0d9ac14610332578063f69e20461461032d5763fef802e70361000e57611aa4565b61197b565b611966565b61194e565b611933565b6118f3565b6117b5565b61178e565b611766565b61174e565b611733565b61170d565b6116e7565b6116c1565b611686565b611633565b61155f565b611544565b611528565b6114cb565b6114b0565b611495565b61146a565b61143f565b611424565b6113e8565b6113be565b611394565b611349565b6112da565b6112c1565b6112a8565b611271565b611210565b6111f8565b610e8b565b6111e0565b6111c5565b6111aa565b611183565b611152565b6110ed565b611095565b611059565b61103e565b611025565b610fb2565b610f8b565b610f70565b610f3e565b610f14565b610ee5565b610ecc565b610e73565b610e58565b610e3c565b610dbb565b610d4f565b610cd3565b610c89565b610bb5565b610b19565b610ab2565b610a58565b6109e7565b61090f565b6108b1565b6107d2565b6105f4565b5f91031261048b57565b5f80fd5b634e487b7160e01b5f52602160045260245ffd5b601111156104ad57565b61048f565b906104bc826104a3565b565b6104c7906104b2565b90565b6104d3906104be565b9052565b906104e4816020936104ca565b0190565b906105086105016104f7845190565b8084529260200190565b9260200190565b905f5b8181106105185750505090565b90919261053261052b60019286516104d7565b9460200190565b92910161050b565b906105496105016104f7845190565b905f5b8181106105595750505090565b90919261057361052b600192865161ffff16815260200190565b92910161054c565b9061058a6105016104f7845190565b905f5b81811061059a5750505090565b9091926105b261052b60019286511515815260200190565b92910161058d565b916105e6906105d86104c7959360608601908682035f8801526104e8565b90848203602086015261053a565b91604081840391015261057b565b3461048b57610604366004610481565b61061e61060f611bd6565b604051919391938493846105ba565b0390f35b805b0361048b57565b905035906104bc82610622565b9060208282031261048b576104c79161062b565b6104c76104c76104c79290565b906106639061064c565b5f5260205260405f2090565b6104c7905b60ff1690565b6104c7905461066f565b6104c79060081c5b61ffff1690565b6104c79054610684565b6104c79060181c610674565b6104c7905461069d565b6104c79060201c5b6001600160401b031690565b6104c790546106b3565b6104c79060601c6106bb565b6104c790546106d1565b6104c79060a01c610674565b6104c790546106e7565b61070890600c610659565b906107128261067a565b9161071c81610693565b91610726826106a9565b91610730816106c7565b916104c75f61073e846106dd565b93016106f3565b600511156104ad57565b906104bc82610745565b6104c79061074f565b6104d390610759565b91946107ba6107ca929897956107aa60a0966107a06104bc9a61079560c08a019e5f8b01906104ca565b61ffff166020890152565b6040870190610762565b6001600160401b03166060850152565b6001600160401b03166080830152565b019015159052565b3461048b5761061e6107ed6107e8366004610638565b6106fd565b926107fd96949692919260405190565b9687968761076b565b6001600160a01b031690565b6001600160a01b038116610624565b905035906104bc82610812565b9060208282031261048b576104c791610821565b5f5b8381106108535750505f910152565b8181015183820152602001610844565b61088461088d6020936104e493610878815190565b80835293849260200190565b95869101610842565b601f01601f191690565b90151581526040602082018190526104c792910190610863565b3461048b576108c96108c436600461082e565b611dd7565b9061061e6108d660405190565b92839283610897565b6001600160401b038116610624565b905035906104bc826108df565b9060208282031261048b576104c7916108ee565b61092261091d3660046108fb565b61253f565b604051005b9060a0806104bc9361093f5f8201515f8601906104ca565b60208181015161ffff169085015261095f60408201516040860190610762565b6060818101516001600160401b0316908501526080818101516001600160401b0316908501525b01511515910152565b906104e48160c093610927565b906109ab6105016104f7845190565b905f5b8181106109bb5750505090565b9091926109ce61052b600192865161098f565b9291016109ae565b60208082526104c79291019061099c565b3461048b5761061e610a026109fd36600461082e565b61267b565b604051918291826109d6565b90815261010081019897969095909490939092909160208701526040860152606085015261ffff166080840152151560a083015260ff1660c082015260e0016104bc9160ff169052565b3461048b5761061e610a73610a6e36600461082e565b61274d565b94610a8698969894919493929360405190565b98899889610a0e565b919060408382031261048b576104c7906020610aab8286610821565b940161062b565b3461048b5761061e610ace610ac8366004610a8f565b906127de565b6040515b9182918290815260200190565b6005111561048b57565b905035906104bc82610adf565b919060408382031261048b576104c7906020610b12828661062b565b9401610ae9565b3461048b57610922610b2c366004610af6565b90612939565b919060408382031261048b576104c7906020610aab828661062b565b90610b5d6105016104f7845190565b905f5b818110610b6d5750505090565b909192610b8c61052b60019286516001600160a01b0316815260200190565b929101610b60565b92916020610bb06104bc9360408701908782035f890152610b4e565b940152565b3461048b57610bce610bc8366004610b32565b9061295b565b9061061e610bdb60405190565b92839283610b94565b80516001600160801b031682526104bc919060609081906020818101516001600160401b0316908501526040818101516001600160401b03169085015201516001600160401b0316910152565b906104e481608093610be4565b90610c4d6105016104f7845190565b905f5b818110610c5d5750505090565b909192610c7061052b6001928651610c31565b929101610c50565b60208082526104c792910190610c3e565b3461048b5761061e610ca4610c9f36600461082e565b612af8565b60405191829182610c78565b6104c7916008021c610674565b906104c79154610cb0565b6104c75f6005610cbd565b3461048b57610ce3366004610481565b61061e610cee610cc8565b60405191829182901515815260200190565b6011111561048b57565b905035906104bc82610d00565b801515610624565b905035906104bc82610d17565b919060408382031261048b576104c7906020610d488286610d0a565b9401610d1f565b3461048b57610922610d62366004610d2c565b90612b4c565b61ffff8116610624565b905035906104bc82610d68565b60808183031261048b57610d938282610821565b926104c7610da4846020850161062b565b936060610db48260408701610d0a565b9401610d72565b3461048b57610922610dce366004610d7f565b92919091612ee8565b6108066104c76104c7926001600160a01b031690565b6104c790610dd7565b6104c790610ded565b9061066390610df6565b6104c7916008021c81565b906104c79154610e09565b610e376104c792610e325f936014610dff565b610659565b610e14565b3461048b5761061e610ace610e52366004610a8f565b90610e1f565b3461048b5761061e610ace610e6e36600461082e565b612ef4565b3461048b57610e83366004610481565b610922613257565b3461048b57610e9b366004610481565b610922613272565b909160608284031261048b576104c7610ebc8484610821565b936040610aab826020870161062b565b3461048b57610922610edf366004610ea3565b91613336565b610922610ef33660046108fb565b6133d8565b919060408382031261048b576104c7906020610db48286610d0a565b3461048b57610922610f27366004610ef8565b9061344e565b60208082526104c792910190610b4e565b3461048b57610f4e366004610481565b61061e610f596134ea565b60405191829182610f2d565b6104c75f6003610e14565b3461048b57610f80366004610481565b61061e610ace610f65565b3461048b57610922610f9e366004610638565b613686565b5f610e376104c792601b610dff565b3461048b5761061e610ace610fc836600461082e565b610fa3565b909182601f8301121561048b578135916001600160401b03831161048b57602001926001830284011161048b57565b9060208282031261048b5781356001600160401b03811161048b576110219201610fcd565b9091565b3461048b57610922611038366004610ffc565b9061368f565b3461048b5761104e366004610481565b61061e610cee613800565b3461048b5761092261106c366004610a8f565b90613998565b6104c7916008021c610806565b906104c79154611072565b6104c75f600261107f565b3461048b576110a5366004610481565b61061e6110b061108a565b604051918291826001600160a01b03909116815260200190565b6104c7916008021c6106bb565b906104c791546110ca565b6104c75f60126110d7565b3461048b576110fd366004610481565b61061e6111086110e2565b604051918291826001600160401b03909116815260200190565b61114e6104bc94611147606094989795611140608086019a5f870152565b6020850152565b6040830152565b0152565b3461048b5761061e61116d61116836600461082e565b6139a2565b9061117a94929460405190565b94859485611122565b3461048b5761061e610ace61119936600461082e565b613a58565b6104c76001600561107f565b3461048b576111ba366004610481565b61061e6110b061119e565b3461048b576111d5366004610481565b61061e610ace613ca9565b3461048b576111f0366004610481565b610922613cd2565b3461048b57611208366004610481565b610922613f76565b3461048b5761061e610ace61122636600461082e565b613f7e565b908152610100810198979690959094909390929091602087015260408601526060850152608084015260ff1660a083015260ff1660c082015260e0016104bc9115159052565b3461048b5761061e61128c61128736600461082e565b613f97565b9461129f98969894919493929360405190565b9889988961122b565b3461048b576109226112bb366004610a8f565b90614127565b3461048b576109226112d4366004610ea3565b9161419f565b3461048b576112ea366004610481565b61061e6110b06141aa565b909182601f8301121561048b578135916001600160401b03831161048b57602001926020830284011161048b57565b9060208282031261048b5781356001600160401b03811161048b5761102192016112f5565b3461048b5761092261135c366004611324565b90614381565b9060208282031261048b576104c791610d0a565b90610663906104be565b5f61138f6104c792600d611376565b610cbd565b3461048b5761061e610cee6113aa366004611362565b611380565b5f610e376104c7926016610dff565b3461048b5761061e610ace6113d436600461082e565b6113af565b5f610e376104c792601a610dff565b3461048b5761061e610ace6113fe36600461082e565b6113d9565b6106bb6104c76104c79290565b6104c762015180611403565b6104c7611410565b3461048b57611434366004610481565b61061e61110861141c565b3461048b5761092261145236600461082e565b614434565b610e376104c792610e325f936015610dff565b3461048b5761061e610ace611480366004610a8f565b90611457565b5f610e376104c7926017610dff565b3461048b5761061e610ace6114ab36600461082e565b611486565b3461048b5761061e610cee6114c636600461082e565b61443d565b3461048b576109226114de36600461082e565b614487565b919060a08382031261048b576114f98184610821565b92611507826020830161062b565b926104c7611518846040850161062b565b936080610b12826060870161062b565b3461048b5761092261153b3660046114e3565b939290926145e6565b3461048b5761061e610ace61155a36600461082e565b6145f3565b3461048b5761061e610ace611575366004610a8f565b90614796565b9061158a6105016104f7845190565b905f5b81811061159a5750505090565b9091926115b061052b6001928651815260200190565b92910161158d565b906104c79060c0806115d760e084015f8701518582035f87015261157b565b946115e760208201516020860152565b60408181015160ff169085015260608181015160ff169085015260808181015161ffff169085015260a08181015161ffff1690850152610986565b60208082526104c7929101906115b8565b3461048b5761061e61164e61164936600461082e565b61491e565b60405191829182611622565b6104c7916008021c61068c565b906104c7915461165a565b5f6116816104c792600e611376565b611667565b3461048b5761061e6116a161169c366004611362565b611672565b6040519182918261ffff909116815260200190565b6104c75f6004610e14565b3461048b576116d1366004610481565b61061e610ace6116b6565b6104c75f6018610e14565b3461048b576116f7366004610481565b61061e610ace6116dc565b6104c75f6019610e14565b3461048b5761171d366004610481565b61061e610ace611702565b6104c75f600961107f565b3461048b57611743366004610481565b61061e6110b0611728565b3461048b5761175e366004610481565b610922614b77565b3461048b57611776366004610481565b610922614bad565b6020810192916104bc9190610762565b3461048b5761061e6117a96117a4366004610638565b614bb5565b6040519182918261177e565b3461048b5761061e610ace6117cb366004610a8f565b90614bcb565b906117e06105016104f7845190565b905f5b8181106117f05750505090565b90919261180661052b6001928651815260200190565b9291016117e3565b906104e481602093610762565b9061182a6105016104f7845190565b905f5b81811061183a5750505090565b90919261184d61052b600192865161180e565b92910161182d565b906118646105016104f7845190565b905f5b8181106118745750505090565b90919261188d61052b600192865160ff16815260200190565b929101611867565b93906104c795936118c96118e5946118bb6118d79460a08a01908a82035f8c01526117d1565b9088820360208a01526104e8565b90868203604088015261181b565b90848203606086015261053a565b916080818403910152611855565b3461048b5761061e61190e61190936600461082e565b614c19565b9161191b95939560405190565b95869586611895565b5f61138f6104c7926013610659565b3461048b5761061e6117a9611949366004610638565b611924565b3461048b5761092261196136600461082e565b614dbe565b3461048b5761197636600461082e565b614e05565b3461048b5761198b366004610481565b610922614f12565b6104c79081565b6104c79054611993565b6104c79060081c610674565b6104c790546119a4565b6104c79060101c61068c565b6104c790546119ba565b6104c79060201c61068c565b6104c790546119d0565b6104c79060301c610674565b6104c790546119e6565b611a0790600b610dff565b90611a146001830161199a565b91611a216002820161067a565b91611a2e600283016119b0565b91611a3b600282016119c6565b916104c76002611a4c8185016119dc565b93016119f2565b9194611a996107ca92989795611a8e60a096611a846104bc9a611a7a60c08a019e5f8b0152565b60ff166020890152565b60ff166040870152565b61ffff166060850152565b61ffff166080830152565b3461048b5761061e611abf611aba36600461082e565b6119fc565b92611acf96949692919260405190565b96879687611a53565b634e487b7160e01b5f52604160045260245ffd5b90601f01601f191681019081106001600160401b03821117611b0d57604052565b611ad8565b906104bc611b1f60405190565b9283611aec565b6001600160401b038111611b0d5760208091020190565b90611b4f611b4a83611b26565b611b12565b918252565b369037565b906104bc611b6f611b6984611b3d565b93611b26565b601f190160208401611b54565b634e487b7160e01b5f52603260045260245ffd5b90611b99825190565b811015611baa576020809102010190565b611b7c565b906104d3906104b2565b6104c790516104b2565b6104c79061068c565b6104c79054611bc3565b600790611be28261064c565b90611bec82611b59565b611bf583611b59565b93611bff84611b59565b93611c8f600192611c226001611c1d611c175f61064c565b88611b90565b611baf565b611c346002611c1d611c17600161064c565b611c466003611c1d611c17600261064c565b611c586004611c1d611c17600361064c565b611c6a6005611c1d611c17600461064c565b611c7c6006611c1d611c17600561064c565b611c1d611c89600661064c565b86611b90565b81611c995f61064c565b905b611ca8575b505050929190565b81811015611d2957611d2390611cef611cdc611cd7600e611cd1611ccc868b611b90565b611bb9565b90611376565b611bcc565b611ce6838b611b90565b9061ffff169052565b611d1d611d0c611d07600d611cd1611ccc868b611b90565b61067a565b611d16838a611b90565b9015159052565b60010190565b82611c9b565b611ca0565b6001600160401b038111611b0d57602090601f01601f19160190565b90611b4f611b4a83611d2e565b6104c75f611d4a565b6104c7611d57565b6104c7906106bb565b6104c79054611d68565b634e487b7160e01b5f52601160045260245ffd5b611daa906001600160401b03165b916001600160401b031690565b01906001600160401b038211611dbc57565b611d7b565b6104c76104c76104c7926001600160401b031690565b5f91606091611df9611df56002611def84600b610dff565b016119f2565b1590565b611e8a57611e0681612ef4565b611e1d611e19662386f26fc1000061064c565b9190565b101580611e5e575b611e2c5750565b925090506001916104c7611e3f60405190565b6001600160a01b03929092166020808401919091528252604082611aec565b50611e82611e7d611e6f6012611d71565b611e77611410565b90611d8f565b611dc1565b421015611e25565b509150505f906104c7611d60565b611ea990611ea4614faf565b611eb1565b6104bc614fe1565b6104bc90611ebd61502b565b611ec7600561067a565b611ed4576104bc90611f1e565b63f2bcabb960e01b5f90815260045b035ffd5b6104c7678ac7230489e8000061064c565b9081526040810192916104bc9160200152565b6104c769021e19e0c9bab240000061064c565b611f26611ee7565b803410611f605750611f36611f0b565b803411611f4757506104bc906122d0565b6330250a5b60e11b5f90815290611ee390346004611ef8565b63ea691a4b60e01b5f90815290611ee390346004611ef8565b61068c6104c76104c79290565b6104c761012c611f79565b6104c76104c76104c79261ffff1690565b6001600160a01b0390911681526040810192916104bc916020905b019061ffff169052565b6104c7610258611f79565b9190611fdd565b9290565b91808302928184041490151715611dbc57565b6104c761271061064c565b634e487b7160e01b5f52601260045260245ffd5b905b90811561201c570490565b611ffb565b91908203918211611dbc57565b905f19905b9181191691161790565b9061204d6104c76120549261064c565b825461202e565b9055565b91908201809211611dbc57565b6120726104c76104c79290565b6001600160801b031690565b6104c790612072565b6104c7905461207e565b6120ac906001600160801b03165b916001600160801b031690565b01906001600160801b038211611dbc57565b906001600160801b0390612033565b6120726104c76104c7926001600160801b031690565b906120f36104c7612054926120cd565b82546120be565b61210c906001600160401b0316611d9d565b02906001600160401b038216918203611dbc57565b6104c76080611b12565b8054821015611baa576121436002915f5260205f2090565b910201905f90565b634e487b7160e01b5f525f60045260245ffd5b9067ffffffffffffffff60801b9060801b612033565b6106bb6104c76104c7926001600160401b031690565b9061219a6104c761205492612174565b825461215e565b9077ffffffffffffffffffffffffffffffffffffffffffffffff199060c01b612033565b906121d56104c761205492612174565b82546121a1565b906001600160401b0390612033565b906121fb6104c761205492612174565b82546121dc565b6104bc9160019061226d9060609061225f8561222e61222884516001600160801b031690565b826120e3565b61224b61224560208501516001600160401b031690565b8261218a565b60408301516001600160401b0316906121c5565b01516001600160401b031690565b91016121eb565b9190612283576104bc91612202565b61214b565b90815491600160401b831015611b0d57826122ab9160016104bc9501815561212b565b90612274565b6104d390611dc1565b9081526040810192916104bc91602001906122b1565b6122d95f611403565b6001600160401b038216141580612523575b80612507575b806124eb575b806124ce575b6124bd5761230f6104c7336006610dff565b8054909190829061231e611f86565b9061232b611e1983611f91565b10156124a45750906124647f73a19dd210f1a7f902193214c0ee91dd35ee5b4d920cba8d519eca65a7b488ca9261245f61238561237761237161236c611fc7565b611f91565b34611fd2565b61237f611ff0565b9061200f565b916123908334612021565b96612399815490565b6123a5611e195f61064c565b14612488575b6123c86123c1896123bc600361199a565b612058565b600361203d565b6123f060016123d68a612065565b93016123ea846123e583612087565b612091565b906120e3565b61245a6123fc42611403565b9161244a612418611fd961241262015180611403565b8b6120fa565b93612433612424612121565b6001600160801b039097168752565b6001600160401b0316602086018190526040860152565b6001600160401b03166060840152565b612288565b61503e565b61246d33610df6565b9261248361247a60405190565b928392836122ba565b0390a2565b61249f612498611d1d600461199a565b600461203d565b6123ab565b63756a320d60e11b5f90815290611ee390336004611fa2565b631ab8aa1760e21b5f908152600490fd5b506124da61016d611403565b6001600160401b03821614156122fd565b506124f660b4611403565b6001600160401b03821614156122f7565b50612512605a611403565b6001600160401b03821614156122f1565b5061252e601e611403565b6001600160401b03821614156122eb565b6104bc90611e98565b6104c760c0611b12565b61255a612548565b905f82526020808080808087015f5b8152015f8152015f8152015f8152015f905250565b6104c7612552565b5f5b82811061259457505050565b60209061259f61257e565b8184015201612588565b906104bc6125b9611b6984611b3d565b601f190160208401612586565b906104d39061074f565b906104bc6126695f6125e0612548565b946125f76125ef83830161067a565b838801611baf565b612610612605838301610693565b61ffff166020880152565b61262761261e8383016106a9565b604088016125c6565b6126456126358383016106c7565b6001600160401b03166060880152565b6126636126538383016106dd565b6001600160401b03166080880152565b016106f3565b151560a0840152565b6104c7906125d0565b6126956104c761269a9261268d606090565b50600a610dff565b6150bb565b6126aa6126a5825190565b6125a9565b906126b45f61064c565b6126bf6104c7835190565b81101561270f5761270a906126ee6126e9600c6126e36126df8588611b90565b5190565b90610659565b612672565b6126f88286611b90565b526127038185611b90565b5060010190565b6126b4565b505090565b6104c76104c76104c7926001600160801b031690565b6104c79060801c6106bb565b6104c7905461272a565b6106746104c76104c79290565b61275b6104c7826006610dff565b600161276b6104c784600b610dff565b91019061277f61277a83612087565b612714565b9361278984613a58565b9360026127a1611e7d61279b84612ef4565b96612736565b9301906127ad826119c6565b926104c76127d96127d46104c76127cc6127c6886119f2565b9761067a565b95600a610dff565b6150cc565b612740565b6126956104c76127ef9261268d5f90565b906127f95f61064c565b6128046104c7845190565b81101561286b576128275f612821600c6126e36126df8689611b90565b0161067a565b61283a61283460056104b2565b916104b2565b14612847576001016127f9565b506104c791506128619061285b604b61064c565b90611fd2565b61237f606461064c565b50905090565b6104c790610806565b6104c79054612871565b90612892610806600961287a565b33036128a1576104bc916128f8565b632b35006d60e21b5f908152600490fd5b9060ff90612033565b906128cb6104c761205492610759565b82546128b2565b9063ff0000009060181b612033565b906128f16104c761205492610759565b82546128d2565b9061290d81612908846013610659565b6128bb565b61291c5f61266384600c610659565b612924575050565b5f6129336104bc93600c610659565b016128e1565b906104bc91612884565b8054821015611baa576121436001915f5260205f2090565b91600f805492838510158015612a04575b6129f45761297a9085612058565b928084116129ec575b506129966129918585612021565b611b59565b918290855b858110156129e35780611d1d6129bd6129b76129de9488612943565b9061107f565b6129d06129ca8b85612021565b89611b90565b906001600160a01b03169052565b61299b565b50909450915050565b92505f612983565b50509050611e196129915f61064c565b50612a0e5f61064c565b811461296c565b6104c79060c01c6106bb565b6104c79054612a15565b906104bc61244a6001612a3c612121565b94612a56612a4982612087565b6001600160801b03168752565b612a72612a6282612736565b6001600160401b03166020880152565b612a8e612a7e82612a21565b6001600160401b03166040880152565b01611d71565b6104c790612a2b565b90612aa6825490565b612aaf81611b3d565b92612ac160208501915f5260205f2090565b5f915b838310612ad15750505050565b60026020600192612ae185612a94565b815201920192019190612ac4565b6104c790612a9d565b5f612b106104c792612b08606090565b506006610dff565b01612aef565b906104bc91612b23615135565b612b38565b906128cb6104c761205492151590565b90612b476104bc92600d611376565b612b28565b906104bc91612b16565b929190612b66610806600961287a565b33036128a1576104bc93612d24565b6104c76104c76104c79260ff1690565b906128cb6104c7612054926104be565b9062ffff009060081b612033565b61068c6104c76104c79261ffff1690565b90612bc46104c761205492612ba3565b8254612b95565b6104c7905161074f565b906bffffffffffffffff000000009060201b612033565b90612bfc6104c761205492612174565b8254612bd5565b9073ffffffffffffffff0000000000000000000000009060601b612033565b90612c326104c761205492612174565b8254612c03565b9060ff60a01b9060a01b612033565b90612c586104c761205492151590565b8254612c39565b6104bc91612cea9060a090612c7c612c7682611bb9565b85612b85565b612c94612c8e602083015161ffff1690565b85612bb4565b612ca9612ca360408301612bcb565b856128e1565b612cc6612cc060608301516001600160401b031690565b85612bec565b612ce3612cdd60808301516001600160401b031690565b85612c22565b0151151590565b90612c48565b906104bc91612c5f565b6104d390612740565b9160206104bc929493612d1d60408201965f8301906104ca565b0190612cfa565b909192612d38611df5611d0786600d611376565b612ed757612d5383612d4e6104c785600a610dff565b615152565b612ec657612d656104c783600b610dff565b8054600290910190612d81611e19612d7c846119b0565b612b75565b1015612e8f5750612e66612e607f9bff5e2430318e7e3bdbef4e9e3208dcd561912d43b73a29dd7634b06da71f8393612e4360018095612e248a612e00612dc742611403565b612dd9612dd2612548565b9384611baf565b61ffff85166020840152612df05f604085016125c6565b6001600160401b03166060830152565b612e0c6107ba5f611403565b83151560a0820152612e1f8b600c610659565b612cf0565b612e3b89612e366104c787600a610dff565b615172565b508984615290565b612e4d60046104b2565b612e56886104b2565b14612e8157610df6565b9361064c565b93612e7c612e7360405190565b92839283612d03565b0390a3565b612e8a8161553e565b610df6565b611ee383612e9d5f936119b0565b6341684d0160e01b84526001600160a01b03909116600484015260ff1660248301526044820190565b6317fc7f7160e31b5f908152600490fd5b63372d865360e21b5f908152600490fd5b906104bc939291612b56565b612efd81613a58565b90612f075f61064c565b8214612f7257612f1d6104c7600292600b610dff565b01612f27816119c6565b612f3b612f335f611f79565b9161ffff1690565b1115612f6e5790612f68612f5d612f5761236c6104c7956119c6565b83611fd2565b61237f61271061064c565b90612058565b5090565b50506104c75f61064c565b612f85614faf565b611ea9612f9061502b565b6104bc612f9d600561067a565b611ed4576104bc612fc7565b6104c76201518061064c565b6104c7683635c9adc5dea0000061064c565b612fd56104c7336006610dff565b612fdd612fa9565b612fe7814261200f565b613000611e196104c7612ffb336008610dff565b61199a565b11613212575b5061301033613a58565b9061301a5f61064c565b8214613201576007613033836123bc612ffb3385610dff565b61303b612fb5565b9081106131cf5750613051613064913390610dff565b61305e846123bc8361199a565b9061203d565b5f92835b825483908210156130e657612f6e826130809261212b565b6001810161308d81611d71565b613099611d9d5f611403565b1191826130c0575b50506130af57600101613068565b633b20f1c360e21b5f908152600490fd5b6130dd925090611e776130d75f611e7d9401612736565b91611d71565b42105f806130a1565b50509192909261310d61310661237761310061236c611fc7565b84611fd2565b8092612021565b9261311730610df6565b31613128611e196104c78588612058565b106131be5761313642611403565b925b855486908210156131625790611d1d855f6131568461315d9661212b565b50016121c5565b613138565b50509361317592600161245f920161218a565b6131878161318233610df6565b615646565b7f7084f5476618d8e60b11ef0d7d3f06914655adb8793e28ff7f018d4c76d505d56124836131b433610df6565b92610ad260405190565b631e9acf1760e31b5f908152600490fd5b6131eb611ee3916131e5612ffb5f953390610dff565b90612021565b631aefe80360e21b835260048301526024820190565b63afb0be3360e01b5f908152600490fd5b613246611e7d6132416132519361323b61322b5f61064c565b613236336007610dff565b61203d565b4261200f565b611403565b613236336008610dff565b5f613006565b6104bc612f7d565b613267615135565b6104bc6104bc6156ca565b6104bc61325f565b9190613289610806600961287a565b33036128a1576104bc926132b5565b9081526060810193926104bc92909160409161114e906020830152565b9061331e7f342455cf9ed6bd3095ba56ce918ab26b698fccdb2374c90901c953ce1cc1c0a2926132ee8561323685610e32856014610dff565b6133096132fc826016610dff565b61305e876123bc8361199a565b612e8a61331782601a610dff565b429061203d565b9261248361332b60405190565b928392429184613298565b906104bc929161327a565b611ea99061334d614faf565b6104bc9061335961502b565b613363600561067a565b611ed4576104bc90613373611ee7565b803410611f605750613383611f0b565b803411611f4757506104bc9061091d61339c91336156e4565b6133ac6002611def33600b610dff565b806133c1575b6133b857565b6104bc3361553e565b506133d3611df5611d07336010610dff565b6133b2565b6104bc90613341565b906104bc916133ee615135565b613414565b9061ffff90612033565b9061340d6104c761205492612ba3565b82546133f3565b90613420612710611f79565b61ffff82161161343d576134386104bc92600e611376565b6133fd565b63af35630960e01b5f908152600490fd5b906104bc916133e1565b906134716134676104f7845490565b925f5260205f2090565b905f5b8181106134815750505090565b9091926134ae6134a76001926134968761287a565b6001600160a01b0316815260200190565b9460010190565b929101613474565b906104c791613458565b906104bc6134da926134d160405190565b938480926134b6565b0383611aec565b6104c7906134c0565b6104c7600f6134e1565b6104bc90613500615135565b613577565b6104d39061064c565b9081526040810192916104bc916020905b0190613505565b6108066104c76104c79290565b6104c790613526565b3d156135555761354b3d611d4a565b903d5f602084013e565b606090565b6001600160a01b0390911681526040810192916104bc9160200152565b6135805f61064c565b811461366c5761358f30610df6565b8031821161365257506135a2600261287a565b6135be6135b16108065f613533565b916001600160a01b031690565b14613641576135ee5f806135d8612e8a612e8a600261287a565b6040515f9186905af16135e961353c565b501590565b61361f577f23d6711a1d031134a36921253c75aa59e967d38e369ac625992824315e204f206124836131b433610df6565b611ee35f9161362e600261287a565b63d3cc1fd760e01b84526004840161355a565b63e6c4247b60e01b5f908152600490fd5b63af608abb60e01b5f90815291611ee39131906004611ef8565b63af608abb60e01b5f90815290611ee3908290600461350e565b6104bc906134f4565b612e8a9061369f9281019061082e565b6136b2611df56002611def84600b610dff565b6137ef576136bf81612ef4565b6136c85f61064c565b8114613201576136dc6104c7836006610dff565b926136e682612065565b916136fb600186016123ea856123e583612087565b6137495f61370842611403565b96019384613726613717612121565b6001600160801b039093168352565b6001600160401b0388166020830181905260408301525b61245a61244a5f611403565b6137525f61064c565b61375d6104c7855490565b81101561377c5780611d1d875f613156613777958961212b565b613752565b50927f8ce0a2fad3764c1fd039c26f784a2d7490f96db7928a834db2330abc1efd294492506137b490612e8a612483939660126121eb565b92837f6b10037a13671faab8b41aef8f8189149de5e1b5b514a49814e4938dfbc04cbc6137e060405190565b838152602090a2604051610ad2565b63595b4b9760e11b5f908152600490fd5b6104c75f6106f3565b90613817610806600961287a565b33036128a1576104bc916138b1565b6106746104c76104c79260ff1690565b906128cb6104c761205492613826565b6120119060ff165b9160ff1690565b6138619060ff1661384e565b019060ff8211611dbc57565b9061ff009060081b612033565b9061388a6104c761205492613826565b825461386d565b60ff9182168152911660208201526060810192916104bc91604090611fbd565b9060026138f16127d96138e66138cb6104c787600b610dff565b94612ffb6138e060018801926123bc8461199a565b8261203d565b61237f6103e861064c565b91016138ff6106748261067a565b60ff83161161390d57505050565b816139397fbeef0cffca661d6b267dd54e822a7589d098d873a6aa1aec940369103d62e7159383613836565b61396761396161395261394c600a612740565b84613846565b61395c6003612740565b613855565b8361387a565b61248361398561397f613979856119b0565b946119c6565b95610df6565b9461398f60405190565b93849384613891565b906104bc91613809565b906139b16104c7836006610dff565b9160018301916104c76139e86139e26139dc5f6139d66139d089612087565b97613a58565b98015490565b95612736565b93612714565b949392611dc1565b6139fd6104c76104c79290565b6001600160e01b031690565b6104c7603261064c565b6104c760d261064c565b6104c760aa61064c565b6104c7608c61064c565b6104c7606461064c565b6104c79081906001600160e01b031681565b6104c76130d4611f79565b905f90613a6a6104c783946006610dff565b805490919092613a795f61064c565b8414613c9b575b835b811015613c9557613a96612f6e828561212b565b80613ac2613abd613ab2613aac611e7d85612a21565b42612021565b61237f610e1061064c565b6139f0565b90613acc5f6139f0565b6001600160e01b03831611613af3575b505050613aec613a829160010190565b9050613a80565b91613a829397613b69613b5d613bcf94613aec96613b1b6001613b14613a09565b9201611d71565b613b2762278d00611403565b6001600160401b03821603613c0157505061285b613b57613b46613a31565b613b5261277a89612087565b611fd2565b91613a3b565b61237f620f424061064c565b8092613b85613b7a61277a83612087565b61285b61236c613a4d565b91613b98613b91611ff0565b809461200f565b908110613bf7575b50613bb3613aac611e7d613bb893612736565b61576b565b613bc15f61064c565b8111613bd7575b5050612058565b95915f613adc565b8391613bea612f6892613bef9596611fd2565b61200f565b905f80613bc8565b9350613bb3613ba0565b613c0d6276a700611403565b6001600160401b03821603613c3157505061285b613b57613c2c613a27565b613b46565b613c3d62ed4e00611403565b6001600160401b03821603613c5c57505061285b613b57613c2c613a1d565b613c6c611d9d6301e13380611403565b14613c7e575b613b5761285b91613b46565b5061285b613b57613c8d613a13565b915050613c72565b50915050565b50925050506104c75f61064c565b613cb230610df6565b3190565b613cbe615135565b6104bc6104bc613ccd5f613533565b6157e6565b6104bc613cb6565b613ce2614faf565b611ea9613ced61502b565b6104bc613cfa600561067a565b611ed4576104bc613db8565b6104c7906002611fd2565b905f03612283575f808255600190910155565b818110613d2f575050565b80613d3c5f600293613d11565b01613d24565b919091828210613d5157505050565b613d73613d69613d636104bc95613d06565b93613d06565b915f5260205f2090565b9182019101613d24565b90600160401b8111611b0d5781613d956104bc935490565b90828155613d42565b5f6104bc91613d7d565b905f03612283576104bc90613d9e565b613dc66104c7336006610dff565b906001820190613dd582612087565b613de161209f5f612065565b14613f6557613def5f61064c565b83548490821015613e5657612f6e82613e079261212b565b60018101613e1481611d71565b613e20611d9d5f611403565b119182613e36575b50506130af57600101613def565b613e4d925090611e776130d75f611e7d9401612736565b42105f80613e28565b50509190613e6333613a58565b90613e86612377613e7a846123bc61277a86612087565b9361285b61236c611fc7565b90613e918284612021565b93613e9b30610df6565b31613eac611e196104c78689612058565b106131be57613f1593613ee65f806123c194613ee0613ef597613ed161222885612065565b613eda42611403565b9061218a565b01613da8565b613ef0600361199a565b612021565b613eff600461199a565b613f0b611e195f61064c565b11613f4f5761503e565b613f228161318233610df6565b7fd7a4aa9f3dca5f6606ac15d7e1850920201bbb02c38cd986793779f58ae0dfd36124836131b433610df6565b61245f612498613f5f600461199a565b5f190190565b636f16c5e960e11b5f908152600490fd5b6104bc613cda565b61277a6001613f916104c793612b085f90565b01612087565b613fa56104c7826006610dff565b90613fc361277a6001613fbc6104c785600b610dff565b9401612087565b92613fcd82613a58565b92613fd783612ef4565b92613fe6612ffb826016610dff565b926002613ff7612ffb846017610dff565b9301906104c761401a6127d96127d46104c76140128761067a565b97600a610dff565b926119f2565b9061402e610806600961287a565b33036128a1576104bc9161404d565b6020810192916104bc91906104ca565b90614063611df582612d4e6104c786600a610dff565b614116577f29f88aa955b5ab5e495c04e7c61c10449ebf20048ae55d19f096a197bc29501b612e7c6140fa612e606140b9956140dd5f6140a76104c789600c610659565b6140c682806140bf8185019d8e61067a565b9d610693565b9301612c48565b612e3b896140d86104c787600a610dff565b61582a565b6140e760046104b2565b6140f0886104b2565b1461410d57610df6565b9361410460405190565b9182918261403d565b612e8a81615893565b636379c45760e11b5f908152600490fd5b906104bc91614020565b9190614140610806600961287a565b33036128a1576104bc929061331e7f87a3f62af380980eb2ea2eb2e3677feb226ae9683c4169370f32aef4f46ff9e0926141838561323685610e32856015610dff565b6141916132fc826017610dff565b612e8a61331782601b610dff565b906104bc9291614131565b6104c75f61287a565b906104bc916141c0615135565b614224565b6104c76064611f79565b6104d390611f91565b9081526040810192916104bc91602001906141cf565b9190811015611baa576020020190565b356104c781610812565b60208082526104c792910190610863565b6040513d5f823e3d90fd5b819261422e6141c5565b61423781611f91565b851161436957505f5b845b8110156143625761426c6002611def600b614266614261868a8a6141ee565b6141fe565b90610dff565b614280575b614242906001015b9050614240565b614291610e6e6142618387876141ee565b6142a4611e19662386f26fc1000061064c565b10614271576142b76142618286866141ee565b906142e36142c460405190565b6001600160a01b03939093166020808501919091528352604083611aec565b6142ec30610df6565b803b1561048b5761431f5f9391849261430460405190565b9586938492839190632d86fc0560e11b835260048301614208565b03925af190811561435d576142429261427992614340575b50915050614271565b614357905f61434f8183611aec565b810190610481565b5f614337565b614219565b5092505050565b62ef8cfb60e11b5f90815290611ee3908660046141d8565b906104bc916141b3565b6104bc90614397615135565b6143a36108065f613533565b6001600160a01b03821614613641576104bc906143e1565b906001600160a01b0390612033565b906143da6104c761205492610df6565b82546143bb565b6144026143fc6143f1600261287a565b612e8a8460026143ca565b91610df6565b907f4ab5be82436d353e61ca18726e984e561f5c1cc7c6d38b29d2553c790434705a61442d60405190565b8080612e7c565b6104bc9061438b565b6002611def6104c79261444d5f90565b50600b610dff565b6104bc90614461615135565b61446d6108065f613533565b6001600160a01b03821614613641576104bc9060096143ca565b6104bc90614455565b939291906144a1610806600961287a565b33036128a1576104bc946144ca565b9160206104bc92949361114e60408201965f830190610762565b907f43bb53177d20242bc821fcb16632e2daaff51a1d3a8a6c6d398aba90247d82c892600c916144fe5f6126638386610659565b806145ce575b6145a6575b506145185f6126638385610659565b8061458e575b614560575b505061453484612908856013610659565b61454a612e60614544606461064c565b92610df6565b93612e7c61455760405190565b928392836144b0565b6145785f806145728461458696610659565b01612c48565b6140d86104c784600a610dff565b505f80614523565b506145a181612d4e6104c786600a610dff565b61451e565b806145b95f806145726145c79588610659565b6140d86104c786600a610dff565b505f614509565b506145e181612d4e6104c787600a610dff565b614504565b906104bc94939291614490565b6145fc81613a58565b6146055f61064c565b8114612f725761462a6126956104c76146226104c786600b610dff565b94600a610dff565b6146335f61064c565b91825b6146416104c7845190565b84101561472a5761465d611d0760136126e36126df8888611b90565b614667600161074f565b6146708261074f565b03614695575061468861468f91612f686103e861064c565b9360010190565b92614636565b61469f600261074f565b6146a88261074f565b036146c0575061468861468f91612f686107d061064c565b6146ca600361074f565b6146d38261074f565b036146eb575061468861468f91612f68610fa061064c565b6147016146fb600496939661074f565b9161074f565b1461470f575b60010161468f565b9261472261468f91612f68611f4061064c565b939050614707565b61476a93506147649061474360026123bc9497016119c6565b9361474c815190565b614758611e195f61064c565b111561478b575161237f565b91611f91565b6147735f61064c565b811115612f6e5790612f68612f5d6104c79383611fd2565b5061237f600161064c565b6147a66104c760029261444d5f90565b016147b0816119c6565b6147bc612f335f611f79565b14612f6e5790612f68612f5d612f5761236c6104c7956119c6565b6104c760e0611b12565b6147e96147d7565b9060608252602080808080808088015f8152015f612569565b6104c76147e1565b906148196134676104f7845490565b905f5b8181106148295750505090565b9091926148466134a760019261483e8761199a565b815260200190565b92910161481c565b906104c79161480a565b906104bc6134da9261486960405190565b9384809261484e565b906104bc61490c60026148836147d7565b9461489461489082614858565b8752565b6148aa6148a36001830161199a565b6020880152565b6148c26148b883830161067a565b60ff166040880152565b6148da6148d08383016119b0565b60ff166060880152565b6148f36148e88383016119c6565b61ffff166080880152565b611def6149018383016119dc565b61ffff1660a0880152565b151560c0840152565b6104c790614872565b61492d6104c79161444d614802565b614915565b61493a614faf565b611ea961494561502b565b6104bc614952600561067a565b611ed4576104bc61497c565b61351f6104bc94611147606094989795611140608086019a5f870152565b61498a6104c7336006610dff565b90614993612fa9565b61499d814261200f565b6149b1611e196104c7612ffb336008610dff565b11614b58575b506149c133612ef4565b916149cb5f61064c565b83146132015760076149e4846123bc612ffb3385610dff565b6149ec612fb5565b9081106131cf5750614a02614a0f913390610dff565b61305e856123bc8361199a565b5f92835b82548390821015614a7a57612f6e82614a2b9261212b565b60018101614a3881611d71565b614a44611d9d5f611403565b119182614a5a575b50506130af57600101614a13565b614a71925090611e776130d75f611e7d9401612736565b42105f80614a4c565b505091929092614aa1614a9a612377614a9461236c611fc7565b86611fd2565b8094612021565b90614aab30610df6565b31614abc611e196104c78786612058565b106131be57614aca42611403565b925b85548690821015614aef5790611d1d855f61315684614aea9661212b565b614acc565b5050937f92f2787b755dae547f1701582fe74c7abf277ec14db316dd01abc69cacf7a259926001614b20920161218a565b614b298361503e565b614b368161318233610df6565b614b3f33610df6565b926124835f614b4d60405190565b93849342918561495e565b613246611e7d613241614b719361323b61322b5f61064c565b5f6149b7565b6104bc614932565b614b87615135565b6104bc614b9330610df6565b31614b9d5f61064c565b811461366c576135a2600261287a565b6104bc614b7f565b611d076104c791614bc35f90565b506013610659565b614bdb6104c760029261444d5f90565b01614be5816119dc565b614bf1612f335f611f79565b14612f6e57612f5d612f5761236c614c08936119dc565b80821115612f72576104c791612021565b6126956104c7614c2b9261268d606090565b90614c34825190565b90614c3e82611b59565b614c4783611b59565b614c5084611b59565b614c5985611b59565b95614c6386611b59565b94614c6d5f61064c565b87811015614d1b57614c7f8184611b90565b51614c8b81600c610659565b614c96826013610659565b614c9f9061067a565b91614caa848a611b90565b52614cb48161067a565b614cbe8489611b90565b90614cc891611baf565b81614cd38488611b90565b90614cdd916125c6565b614ce690610693565b614cf0838c611b90565b61ffff9091169052614d019061592f565b614d0b8289611b90565b60ff919091169052600101614c6d565b509396929550909391929050565b6104bc90614d35615135565b614d9a565b15614d4157565b60405162461bcd60e51b815260206004820152602660248201527f4f776e61626c653a206e6577206f776e657220697320746865207a65726f206160448201526564647265737360d01b606482015280608481015b0390fd5b6104bc90613ccd614dad6108065f613533565b6001600160a01b0383161415614d3a565b6104bc90614d29565b614dcf615135565b60405162461bcd60e51b815260206004820152600e60248201526d4e6f74206170706c696361626c6560901b6044820152606490fd5b614dc7565b614e12614faf565b611ea9614e1d61502b565b6104bc614e2a600561067a565b611ed4576104bc614e3f6104c7336006610dff565b90614e4933613a58565b90614e535f61064c565b821461320157614e6282612065565b90614e77600185016123ea846123e583612087565b614eae5f614e8442611403565b95019283614e93613717612121565b6001600160401b03871660208301819052604083015261373d565b614eb75f61064c565b614ec26104c7845490565b811015614ee15780611d1d865f613156614edc958861212b565b614eb7565b509250507fc16de066392da7e40ceccb739c331fc48a2e76bf147449613c48023d960eec326124836131b433610df6565b6104bc614e0a565b614f2333610df6565b7fe37b2ae9cc03ec700b9146c4df2fc797e7a1119c08fc25513755ab5315faa6d2614f4d60405190565b80612483423483611ef8565b6104c7600261064c565b15614f6a57565b60405162461bcd60e51b815260206004820152601f60248201527f5265656e7472616e637947756172643a207265656e7472616e742063616c6c006044820152606490fd5b6104bc614fbc600161199a565b614fd0614fc7614f59565b91821415614f63565b600161203d565b6104c7600161064c565b6104bc614fd0614fd7565b15614ff357565b60405162461bcd60e51b815260206004820152601060248201526f14185d5cd8589b194e881c185d5cd95960821b6044820152606490fd5b6104bc615039611df5613800565b614fec565b615048600261287a565b6150576135b16108065f613533565b14613641576150715f806135d8612e8a612e8a600261287a565b61361f577fe37b2ae9cc03ec700b9146c4df2fc797e7a1119c08fc25513755ab5315faa6d26124836150a6612e8a600261287a565b926150b060405190565b918291429083611ef8565b6060906150c790615a27565b905090565b6150e05f6104c7926150db5f90565b500190565b615a3b565b156150ec57565b60405162461bcd60e51b815280614d96600482016020808252818101527f4f776e61626c653a2063616c6c6572206973206e6f7420746865206f776e6572604082015260600190565b6104bc6151406141aa565b61514c6135b133610806565b146150e5565b9061516d611e195f6104c7946151655f90565b50019261064c565b615a53565b90615185611e195f6104c7946151655f90565b615ab4565b9066ff0000000000009060301b612033565b906151ac6104c761205492151590565b825461518a565b6151c09061ffff16612f33565b90039061ffff8211611dbc57565b9065ffff000000009060201b612033565b906151ef6104c761205492612ba3565b82546151ce565b9063ffff00009060101b612033565b906152156104c761205492612ba3565b82546151f6565b915f1960089290920291821b911b612033565b921b90565b91906152456104c76120549361064c565b90835461521c565b90815491600160401b831015611b0d57826152709160016104bc95018155612943565b90615234565b6152839061ffff16612f33565b019061ffff8211611dbc57565b6104c761529e91600b610dff565b92156153ac576152b7836152b15f61064c565b9061524d565b6152c160016104b2565b6152ca826104b2565b148015615392575b8015615378575b156152fe57506152f860026104bc9301916152f3836119c6565b615276565b90615205565b61530860066104b2565b615311826104b2565b14801561535e575b15615339575061533360026104bc9301916152f3836119dc565b906151df565b905061534861283460046104b2565b146153505750565b600160026104bc920161519c565b5061536960076104b2565b615372826104b2565b14615319565b5061538360036104b2565b61538c826104b2565b146152d9565b5061539d60026104b2565b6153a6826104b2565b146152d2565b6153b660016104b2565b6153bf826104b2565b1480156154c8575b80156154ae575b15615414575060026104bc9201906153e5826119c6565b6153f261ffff8316612f33565b111561540a576152f890615405836119c6565b6151b3565b506152f85f611f79565b61541e60066104b2565b615427826104b2565b148015615494575b15615470575060026104bc920190615446826119dc565b61545361ffff8316612f33565b11156154665761533390615405836119dc565b506153335f611f79565b905061547f61283460046104b2565b146154875750565b5f60026104bc920161519c565b5061549f60076104b2565b6154a8826104b2565b1461542f565b506154b960036104b2565b6154c2826104b2565b146153ce565b506154d360026104b2565b6154dc826104b2565b146153c7565b9190600861203391029161522f6001600160a01b03841b90565b919061550d6104c761205493610df6565b9083546154e2565b90815491600160401b831015611b0d57826155389160016104bc95018155612943565b906154fc565b61554f611df5611d07836010610dff565b6155565750565b6001612b476104bc9261557661556b600f5490565b613236836011610dff565b61558181600f615515565b6010610dff565b1561558f57565b60405162461bcd60e51b815260206004820152601d60248201527f416464726573733a20696e73756666696369656e742062616c616e63650000006044820152606490fd5b156155db57565b60405162461bcd60e51b815260206004820152603a60248201527f416464726573733a20756e61626c6520746f2073656e642076616c75652c207260448201527f6563697069656e74206d617920686176652072657665727465640000000000006064820152608490fd5b5f6104bc926156668293612e8a61565c30610df6565b8490311015615588565b9061567060405190565b90818003925af161567f61353c565b506155d4565b61568d61502b565b6104bc61569b60015f612c48565b7f62e78cea01bee320cd4e420270b5ea74000d11b0c9f74754ebdbfc544b05a2586156c5336110b0565b0390a1565b6104bc615685565b612011906001600160401b0316611d9d565b6126956104c76156f59261268d5f90565b906156ff5f61064c565b61570a6104c7845190565b81101561286b576157275f612821600c6126e36126df8689611b90565b61573461283460056104b2565b14615741576001016156ff565b506104c7915061575b90615755604b611403565b906120fa565b6157656064611403565b906156d2565b6157786301e1338061064c565b8110156157da5761578b62ed4e0061064c565b8110156157ce5761579e6276a70061064c565b8110156157c3576157b4611e1962278d0061064c565b1015613a09576104c75f61064c565b506104c7606461064c565b506104c761012c61064c565b506104c76101f461064c565b6157ff6143fc6157f55f61287a565b612e8a845f6143ca565b907f8be0079c531659141344cd1fd0a4f28419497f9722a3daafe3b4186f6b6457e061442d60405190565b9061583d611e195f6104c7946151655f90565b615b1e565b634e487b7160e01b5f52603160045260245ffd5b6104bc915f916154fc565b80548015615883575f19019061588061587a8383612943565b90615856565b55565b615842565b6104bc915f91615234565b6158a1611d07826010610dff565b6158a85750565b5f6159036104bc9260116158ef6158ea6158c5612ffb8585610dff565b600f906158dd6158d3835490565b6131e5600161064c565b9081810361590857505090565b615861565b6158fe84612b47846010610dff565b610dff565b615888565b61323661591b6129b76104c79486612943565b615929816155388588612943565b87610dff565b615939600461074f565b6159428261074f565b146159b357615951600361074f565b61595a8261074f565b146159a857615969600261074f565b6159728261074f565b1461599d576159846146fb600161074f565b14615993576104c76001612740565b6104c76002612740565b506104c76003612740565b506104c76004612740565b506104c76005612740565b906159cd6134676104f7845490565b905f5b8181106159dd5750505090565b9091926159f26134a760019261483e8761199a565b9291016159d0565b906104c7916159be565b906104bc6134da92615a1560405190565b938480926159fa565b6104c790615a04565b5f6104c791615a34606090565b5001615a1e565b5f6104c791615a475f90565b50015490565b90610663565b615a6b916001612ffb92615a645f90565b5001615a4d565b615a77611e195f61064c565b141590565b91906152456104c76120549390565b90815491600160401b831015611b0d5782615aae9160016104bc95018155612943565b90615a7c565b615ac1611df58383615a53565b15615aee57615ae991613236906001615ae284615ade8482615a8b565b5490565b9301615a4d565b600190565b50505f90565b6104bc915f91615a7c565b80548015615883575f190190615880615b188383612943565b90615af4565b90615b2f612ffb8260018501615a4d565b615b385f61064c565b8114615bcf576159036104c7925f92615b8b95615b906001978893615b65615b5f8661064c565b82612021565b88850191615b7d615b74845490565b6131e58961064c565b828103615b96575b50505090565b615aff565b01615a4d565b615aae615bbf615bc794615bb6615bb06132369589612943565b90610e14565b92839188612943565b888801615a4d565b5f8080615b85565b5050505f9056fea2646970667358221220799069efaf163a16efa056fc8efdf106243ef0cf61f6e7c9ce99d607da73aa9d64736f6c634300081c0033",
  "linkReferences": {},
  "deployedLinkReferences": {}
}