{
  "_format": "hh-sol-artifact-1",
  "contractName": "EnhancedSmartStaking",
  "sourceName": "contracts/SmartStaking/EnhancedSmartStaking.sol",
  "abi": [
    {
      "inputs": [
        {
          "internalType": "address",
          "name": "_treasury",
          "type": "address"
        }
      ],
      "stateMutability": "nonpayable",
      "type": "constructor"
    },
    {
      "inputs": [],
      "name": "AlreadyMigrated",
      "type": "error"
    },
    {
      "inputs": [],
      "name": "AutoCompoundNotActive",
      "type": "error"
    },
    {
      "inputs": [
        {
          "internalType": "uint256",
          "name": "provided",
          "type": "uint256"
        },
        {
          "internalType": "uint256",
          "name": "maximum",
          "type": "uint256"
        }
      ],
      "name": "BatchSizeTooLarge",
      "type": "error"
    },
    {
      "inputs": [
        {
          "internalType": "address",
          "name": "treasury",
          "type": "address"
        },
        {
          "internalType": "uint256",
          "name": "amount",
          "type": "uint256"
        }
      ],
      "name": "CommissionTransferFailed",
      "type": "error"
    },
    {
      "inputs": [],
      "name": "ContractIsMigrated",
      "type": "error"
    },
    {
      "inputs": [
        {
          "internalType": "uint256",
          "name": "availableToWithdraw",
          "type": "uint256"
        }
      ],
      "name": "DailyWithdrawalLimitExceeded",
      "type": "error"
    },
    {
      "inputs": [
        {
          "internalType": "uint256",
          "name": "provided",
          "type": "uint256"
        },
        {
          "internalType": "uint256",
          "name": "maximum",
          "type": "uint256"
        }
      ],
      "name": "DepositTooHigh",
      "type": "error"
    },
    {
      "inputs": [
        {
          "internalType": "uint256",
          "name": "provided",
          "type": "uint256"
        },
        {
          "internalType": "uint256",
          "name": "minimum",
          "type": "uint256"
        }
      ],
      "name": "DepositTooLow",
      "type": "error"
    },
    {
      "inputs": [],
      "name": "FundsAreLocked",
      "type": "error"
    },
    {
      "inputs": [],
      "name": "InsufficientBalance",
      "type": "error"
    },
    {
      "inputs": [],
      "name": "InsufficientSkillNFTs",
      "type": "error"
    },
    {
      "inputs": [],
      "name": "InvalidAddress",
      "type": "error"
    },
    {
      "inputs": [],
      "name": "InvalidEffectValue",
      "type": "error"
    },
    {
      "inputs": [],
      "name": "InvalidLockupDuration",
      "type": "error"
    },
    {
      "inputs": [],
      "name": "LevelUpNotEligible",
      "type": "error"
    },
    {
      "inputs": [
        {
          "internalType": "address",
          "name": "user",
          "type": "address"
        },
        {
          "internalType": "uint8",
          "name": "maxSkills",
          "type": "uint8"
        }
      ],
      "name": "MaxActiveSkillsReached",
      "type": "error"
    },
    {
      "inputs": [
        {
          "internalType": "address",
          "name": "user",
          "type": "address"
        },
        {
          "internalType": "uint16",
          "name": "maxDeposits",
          "type": "uint16"
        }
      ],
      "name": "MaxDepositsReached",
      "type": "error"
    },
    {
      "inputs": [],
      "name": "NoDepositsFound",
      "type": "error"
    },
    {
      "inputs": [],
      "name": "NoPendingCommission",
      "type": "error"
    },
    {
      "inputs": [],
      "name": "NoRewardsAvailable",
      "type": "error"
    },
    {
      "inputs": [],
      "name": "OnlyMarketplace",
      "type": "error"
    },
    {
      "inputs": [],
      "name": "SkillAlreadyActive",
      "type": "error"
    },
    {
      "inputs": [],
      "name": "SkillNotActive",
      "type": "error"
    },
    {
      "inputs": [],
      "name": "SkillTypeDisabled",
      "type": "error"
    },
    {
      "inputs": [],
      "name": "UnauthorizedSender",
      "type": "error"
    },
    {
      "anonymous": false,
      "inputs": [
        {
          "indexed": true,
          "internalType": "address",
          "name": "user",
          "type": "address"
        },
        {
          "indexed": false,
          "internalType": "uint256",
          "name": "achievementId",
          "type": "uint256"
        },
        {
          "indexed": false,
          "internalType": "uint256",
          "name": "rewardAmount",
          "type": "uint256"
        },
        {
          "indexed": false,
          "internalType": "uint256",
          "name": "timestamp",
          "type": "uint256"
        }
      ],
      "name": "AchievementRewardObtained",
      "type": "event"
    },
    {
      "anonymous": false,
      "inputs": [
        {
          "indexed": true,
          "internalType": "address",
          "name": "user",
          "type": "address"
        },
        {
          "indexed": false,
          "internalType": "uint256",
          "name": "compoundedAmount",
          "type": "uint256"
        }
      ],
      "name": "AutoCompoundTriggered",
      "type": "event"
    },
    {
      "anonymous": false,
      "inputs": [
        {
          "indexed": true,
          "internalType": "address",
          "name": "user",
          "type": "address"
        },
        {
          "indexed": false,
          "internalType": "uint256",
          "name": "amount",
          "type": "uint256"
        }
      ],
      "name": "AutoCompounded",
      "type": "event"
    },
    {
      "anonymous": false,
      "inputs": [
        {
          "indexed": true,
          "internalType": "address",
          "name": "receiver",
          "type": "address"
        },
        {
          "indexed": false,
          "internalType": "uint256",
          "name": "amount",
          "type": "uint256"
        },
        {
          "indexed": false,
          "internalType": "uint256",
          "name": "timestamp",
          "type": "uint256"
        }
      ],
      "name": "CommissionPaid",
      "type": "event"
    },
    {
      "anonymous": false,
      "inputs": [
        {
          "indexed": true,
          "internalType": "address",
          "name": "user",
          "type": "address"
        },
        {
          "indexed": false,
          "internalType": "uint256",
          "name": "amount",
          "type": "uint256"
        }
      ],
      "name": "Compounded",
      "type": "event"
    },
    {
      "anonymous": false,
      "inputs": [
        {
          "indexed": true,
          "internalType": "address",
          "name": "user",
          "type": "address"
        },
        {
          "indexed": false,
          "internalType": "uint256",
          "name": "amount",
          "type": "uint256"
        },
        {
          "indexed": false,
          "internalType": "uint256",
          "name": "lockupDuration",
          "type": "uint256"
        }
      ],
      "name": "Deposited",
      "type": "event"
    },
    {
      "anonymous": false,
      "inputs": [
        {
          "indexed": true,
          "internalType": "address",
          "name": "user",
          "type": "address"
        },
        {
          "indexed": false,
          "internalType": "uint256",
          "name": "amount",
          "type": "uint256"
        }
      ],
      "name": "EmergencyRewardClaimed",
      "type": "event"
    },
    {
      "anonymous": false,
      "inputs": [
        {
          "indexed": true,
          "internalType": "address",
          "name": "user",
          "type": "address"
        },
        {
          "indexed": false,
          "internalType": "uint256",
          "name": "amount",
          "type": "uint256"
        }
      ],
      "name": "EmergencyWithdrawal",
      "type": "event"
    },
    {
      "anonymous": false,
      "inputs": [
        {
          "indexed": true,
          "internalType": "address",
          "name": "oldMarketplace",
          "type": "address"
        },
        {
          "indexed": true,
          "internalType": "address",
          "name": "newMarketplace",
          "type": "address"
        }
      ],
      "name": "MarketplaceUpdated",
      "type": "event"
    },
    {
      "anonymous": false,
      "inputs": [
        {
          "indexed": true,
          "internalType": "address",
          "name": "newContract",
          "type": "address"
        }
      ],
      "name": "MigrationInitiated",
      "type": "event"
    },
    {
      "anonymous": false,
      "inputs": [
        {
          "indexed": true,
          "internalType": "address",
          "name": "user",
          "type": "address"
        },
        {
          "indexed": true,
          "internalType": "uint256",
          "name": "tokenId",
          "type": "uint256"
        }
      ],
      "name": "NFTStaked",
      "type": "event"
    },
    {
      "anonymous": false,
      "inputs": [
        {
          "indexed": true,
          "internalType": "address",
          "name": "user",
          "type": "address"
        },
        {
          "indexed": true,
          "internalType": "uint256",
          "name": "tokenId",
          "type": "uint256"
        }
      ],
      "name": "NFTUnstaked",
      "type": "event"
    },
    {
      "anonymous": false,
      "inputs": [
        {
          "indexed": true,
          "internalType": "address",
          "name": "previousOwner",
          "type": "address"
        },
        {
          "indexed": true,
          "internalType": "address",
          "name": "newOwner",
          "type": "address"
        }
      ],
      "name": "OwnershipTransferred",
      "type": "event"
    },
    {
      "anonymous": false,
      "inputs": [
        {
          "indexed": false,
          "internalType": "address",
          "name": "account",
          "type": "address"
        }
      ],
      "name": "Paused",
      "type": "event"
    },
    {
      "anonymous": false,
      "inputs": [
        {
          "indexed": true,
          "internalType": "address",
          "name": "user",
          "type": "address"
        },
        {
          "indexed": false,
          "internalType": "uint256",
          "name": "questId",
          "type": "uint256"
        },
        {
          "indexed": false,
          "internalType": "uint256",
          "name": "rewardAmount",
          "type": "uint256"
        },
        {
          "indexed": false,
          "internalType": "uint256",
          "name": "timestamp",
          "type": "uint256"
        }
      ],
      "name": "QuestRewardObtained",
      "type": "event"
    },
    {
      "anonymous": false,
      "inputs": [
        {
          "indexed": true,
          "internalType": "address",
          "name": "user",
          "type": "address"
        },
        {
          "indexed": false,
          "internalType": "uint256",
          "name": "amount",
          "type": "uint256"
        }
      ],
      "name": "RewardsCompounded",
      "type": "event"
    },
    {
      "anonymous": false,
      "inputs": [
        {
          "indexed": true,
          "internalType": "address",
          "name": "user",
          "type": "address"
        },
        {
          "indexed": true,
          "internalType": "uint256",
          "name": "nftId",
          "type": "uint256"
        },
        {
          "indexed": false,
          "internalType": "enum IStakingIntegration.SkillType",
          "name": "skillType",
          "type": "uint8"
        },
        {
          "indexed": false,
          "internalType": "uint16",
          "name": "effectValue",
          "type": "uint16"
        }
      ],
      "name": "SkillActivated",
      "type": "event"
    },
    {
      "anonymous": false,
      "inputs": [
        {
          "indexed": true,
          "internalType": "address",
          "name": "user",
          "type": "address"
        },
        {
          "indexed": true,
          "internalType": "uint256",
          "name": "tokenId",
          "type": "uint256"
        },
        {
          "indexed": false,
          "internalType": "enum IStakingIntegration.SkillType",
          "name": "skillType",
          "type": "uint8"
        },
        {
          "indexed": false,
          "internalType": "uint8",
          "name": "skillLevel",
          "type": "uint8"
        }
      ],
      "name": "SkillApplied",
      "type": "event"
    },
    {
      "anonymous": false,
      "inputs": [
        {
          "indexed": true,
          "internalType": "address",
          "name": "user",
          "type": "address"
        },
        {
          "indexed": true,
          "internalType": "uint256",
          "name": "nftId",
          "type": "uint256"
        },
        {
          "indexed": false,
          "internalType": "enum IStakingIntegration.SkillType",
          "name": "skillType",
          "type": "uint8"
        }
      ],
      "name": "SkillDeactivated",
      "type": "event"
    },
    {
      "anonymous": false,
      "inputs": [
        {
          "indexed": true,
          "internalType": "address",
          "name": "user",
          "type": "address"
        },
        {
          "indexed": false,
          "internalType": "uint8",
          "name": "level",
          "type": "uint8"
        },
        {
          "indexed": false,
          "internalType": "uint8",
          "name": "maxActiveSkills",
          "type": "uint8"
        },
        {
          "indexed": false,
          "internalType": "uint16",
          "name": "stakingBoostTotal",
          "type": "uint16"
        }
      ],
      "name": "SkillProfileUpdated",
      "type": "event"
    },
    {
      "anonymous": false,
      "inputs": [
        {
          "indexed": true,
          "internalType": "address",
          "name": "user",
          "type": "address"
        },
        {
          "indexed": true,
          "internalType": "uint256",
          "name": "tokenId",
          "type": "uint256"
        },
        {
          "indexed": false,
          "internalType": "enum IStakingIntegration.SkillType",
          "name": "skillType",
          "type": "uint8"
        }
      ],
      "name": "SkillRemoved",
      "type": "event"
    },
    {
      "anonymous": false,
      "inputs": [
        {
          "indexed": true,
          "internalType": "address",
          "name": "user",
          "type": "address"
        },
        {
          "indexed": true,
          "internalType": "uint256",
          "name": "tokenId",
          "type": "uint256"
        },
        {
          "indexed": false,
          "internalType": "enum IStakingIntegration.Rarity",
          "name": "newRarity",
          "type": "uint8"
        },
        {
          "indexed": false,
          "internalType": "uint256",
          "name": "upgradeReward",
          "type": "uint256"
        }
      ],
      "name": "SkillUpgraded",
      "type": "event"
    },
    {
      "anonymous": false,
      "inputs": [
        {
          "indexed": true,
          "internalType": "address",
          "name": "oldTreasury",
          "type": "address"
        },
        {
          "indexed": true,
          "internalType": "address",
          "name": "newTreasury",
          "type": "address"
        }
      ],
      "name": "TreasuryUpdated",
      "type": "event"
    },
    {
      "anonymous": false,
      "inputs": [
        {
          "indexed": false,
          "internalType": "address",
          "name": "account",
          "type": "address"
        }
      ],
      "name": "Unpaused",
      "type": "event"
    },
    {
      "anonymous": false,
      "inputs": [
        {
          "indexed": true,
          "internalType": "address",
          "name": "user",
          "type": "address"
        },
        {
          "indexed": false,
          "internalType": "uint256",
          "name": "totalAmount",
          "type": "uint256"
        }
      ],
      "name": "WithdrawAll",
      "type": "event"
    },
    {
      "anonymous": false,
      "inputs": [
        {
          "indexed": true,
          "internalType": "address",
          "name": "user",
          "type": "address"
        },
        {
          "indexed": false,
          "internalType": "uint256",
          "name": "amount",
          "type": "uint256"
        },
        {
          "indexed": false,
          "internalType": "uint256",
          "name": "commission",
          "type": "uint256"
        },
        {
          "indexed": false,
          "internalType": "uint256",
          "name": "timestamp",
          "type": "uint256"
        },
        {
          "indexed": false,
          "internalType": "uint256",
          "name": "depositId",
          "type": "uint256"
        }
      ],
      "name": "WithdrawalMade",
      "type": "event"
    },
    {
      "anonymous": false,
      "inputs": [
        {
          "indexed": true,
          "internalType": "address",
          "name": "user",
          "type": "address"
        },
        {
          "indexed": false,
          "internalType": "uint256",
          "name": "amount",
          "type": "uint256"
        }
      ],
      "name": "Withdrawn",
      "type": "event"
    },
    {
      "inputs": [],
      "name": "AUTO_COMPOUND_INTERVAL",
      "outputs": [
        {
          "internalType": "uint64",
          "name": "",
          "type": "uint64"
        }
      ],
      "stateMutability": "view",
      "type": "function"
    },
    {
      "inputs": [],
      "name": "achievementRewardExpirationTime",
      "outputs": [
        {
          "internalType": "uint256",
          "name": "",
          "type": "uint256"
        }
      ],
      "stateMutability": "view",
      "type": "function"
    },
    {
      "inputs": [
        {
          "internalType": "address[]",
          "name": "userAddresses",
          "type": "address[]"
        }
      ],
      "name": "batchAutoCompound",
      "outputs": [],
      "stateMutability": "nonpayable",
      "type": "function"
    },
    {
      "inputs": [
        {
          "internalType": "address",
          "name": "user",
          "type": "address"
        },
        {
          "internalType": "uint256",
          "name": "baseAPY",
          "type": "uint256"
        }
      ],
      "name": "calculateBoostedAPY",
      "outputs": [
        {
          "internalType": "uint256",
          "name": "",
          "type": "uint256"
        }
      ],
      "stateMutability": "view",
      "type": "function"
    },
    {
      "inputs": [
        {
          "internalType": "address",
          "name": "userAddress",
          "type": "address"
        }
      ],
      "name": "calculateBoostedRewards",
      "outputs": [
        {
          "internalType": "uint256",
          "name": "totalRewards",
          "type": "uint256"
        }
      ],
      "stateMutability": "view",
      "type": "function"
    },
    {
      "inputs": [
        {
          "internalType": "address",
          "name": "user",
          "type": "address"
        }
      ],
      "name": "calculateBoostedRewardsWithRarityMultiplier",
      "outputs": [
        {
          "internalType": "uint256",
          "name": "totalBoosted",
          "type": "uint256"
        }
      ],
      "stateMutability": "view",
      "type": "function"
    },
    {
      "inputs": [
        {
          "internalType": "address",
          "name": "user",
          "type": "address"
        },
        {
          "internalType": "uint256",
          "name": "baseFee",
          "type": "uint256"
        }
      ],
      "name": "calculateFeeDiscount",
      "outputs": [
        {
          "internalType": "uint256",
          "name": "",
          "type": "uint256"
        }
      ],
      "stateMutability": "view",
      "type": "function"
    },
    {
      "inputs": [
        {
          "internalType": "address",
          "name": "user",
          "type": "address"
        },
        {
          "internalType": "uint256",
          "name": "baseLockTime",
          "type": "uint256"
        }
      ],
      "name": "calculateReducedLockTime",
      "outputs": [
        {
          "internalType": "uint256",
          "name": "",
          "type": "uint256"
        }
      ],
      "stateMutability": "view",
      "type": "function"
    },
    {
      "inputs": [
        {
          "internalType": "address",
          "name": "userAddress",
          "type": "address"
        }
      ],
      "name": "calculateRewards",
      "outputs": [
        {
          "internalType": "uint256",
          "name": "totalRewards",
          "type": "uint256"
        }
      ],
      "stateMutability": "view",
      "type": "function"
    },
    {
      "inputs": [
        {
          "internalType": "address",
          "name": "_newTreasury",
          "type": "address"
        }
      ],
      "name": "changeTreasuryAddress",
      "outputs": [],
      "stateMutability": "nonpayable",
      "type": "function"
    },
    {
      "inputs": [
        {
          "internalType": "address",
          "name": "user",
          "type": "address"
        }
      ],
      "name": "checkAutoCompound",
      "outputs": [
        {
          "internalType": "bool",
          "name": "upkeepNeeded",
          "type": "bool"
        },
        {
          "internalType": "bytes",
          "name": "performData",
          "type": "bytes"
        }
      ],
      "stateMutability": "view",
      "type": "function"
    },
    {
      "inputs": [],
      "name": "compound",
      "outputs": [],
      "stateMutability": "nonpayable",
      "type": "function"
    },
    {
      "inputs": [
        {
          "internalType": "uint64",
          "name": "_lockupDuration",
          "type": "uint64"
        }
      ],
      "name": "deposit",
      "outputs": [],
      "stateMutability": "payable",
      "type": "function"
    },
    {
      "inputs": [
        {
          "internalType": "uint64",
          "name": "_lockupDuration",
          "type": "uint64"
        }
      ],
      "name": "depositWithBoosts",
      "outputs": [],
      "stateMutability": "payable",
      "type": "function"
    },
    {
      "inputs": [
        {
          "internalType": "address",
          "name": "user",
          "type": "address"
        }
      ],
      "name": "getActiveSkills",
      "outputs": [
        {
          "components": [
            {
              "internalType": "enum IStakingIntegration.SkillType",
              "name": "skillType",
              "type": "uint8"
            },
            {
              "internalType": "uint16",
              "name": "effectValue",
              "type": "uint16"
            },
            {
              "internalType": "enum IStakingIntegration.Rarity",
              "name": "rarity",
              "type": "uint8"
            },
            {
              "internalType": "uint64",
              "name": "activatedAt",
              "type": "uint64"
            },
            {
              "internalType": "uint64",
              "name": "cooldownEnds",
              "type": "uint64"
            },
            {
              "internalType": "bool",
              "name": "isActive",
              "type": "bool"
            }
          ],
          "internalType": "struct IStakingIntegration.NFTSkill[]",
          "name": "",
          "type": "tuple[]"
        }
      ],
      "stateMutability": "view",
      "type": "function"
    },
    {
      "inputs": [
        {
          "internalType": "address",
          "name": "user",
          "type": "address"
        }
      ],
      "name": "getActiveSkillsWithDetails",
      "outputs": [
        {
          "internalType": "uint256[]",
          "name": "nftIds",
          "type": "uint256[]"
        },
        {
          "internalType": "enum IStakingIntegration.SkillType[]",
          "name": "skillTypes",
          "type": "uint8[]"
        },
        {
          "internalType": "enum IStakingIntegration.Rarity[]",
          "name": "rarities",
          "type": "uint8[]"
        },
        {
          "internalType": "uint16[]",
          "name": "effectValues",
          "type": "uint16[]"
        },
        {
          "internalType": "uint8[]",
          "name": "rarityStars",
          "type": "uint8[]"
        }
      ],
      "stateMutability": "view",
      "type": "function"
    },
    {
      "inputs": [],
      "name": "getAutoCompoundUsers",
      "outputs": [
        {
          "internalType": "address[]",
          "name": "",
          "type": "address[]"
        }
      ],
      "stateMutability": "view",
      "type": "function"
    },
    {
      "inputs": [],
      "name": "getAvailableSkillsConfiguration",
      "outputs": [
        {
          "internalType": "enum IStakingIntegration.SkillType[]",
          "name": "skillTypes",
          "type": "uint8[]"
        },
        {
          "internalType": "uint16[]",
          "name": "defaultEffects",
          "type": "uint16[]"
        },
        {
          "internalType": "bool[]",
          "name": "enabled",
          "type": "bool[]"
        }
      ],
      "stateMutability": "view",
      "type": "function"
    },
    {
      "inputs": [],
      "name": "getContractBalance",
      "outputs": [
        {
          "internalType": "uint256",
          "name": "",
          "type": "uint256"
        }
      ],
      "stateMutability": "view",
      "type": "function"
    },
    {
      "inputs": [
        {
          "internalType": "uint256",
          "name": "nftId",
          "type": "uint256"
        }
      ],
      "name": "getSkillRarity",
      "outputs": [
        {
          "internalType": "enum IStakingIntegration.Rarity",
          "name": "",
          "type": "uint8"
        }
      ],
      "stateMutability": "view",
      "type": "function"
    },
    {
      "inputs": [
        {
          "internalType": "address",
          "name": "userAddress",
          "type": "address"
        }
      ],
      "name": "getTotalDeposit",
      "outputs": [
        {
          "internalType": "uint256",
          "name": "",
          "type": "uint256"
        }
      ],
      "stateMutability": "view",
      "type": "function"
    },
    {
      "inputs": [
        {
          "internalType": "address",
          "name": "userAddress",
          "type": "address"
        }
      ],
      "name": "getUserDeposits",
      "outputs": [
        {
          "components": [
            {
              "internalType": "uint128",
              "name": "amount",
              "type": "uint128"
            },
            {
              "internalType": "uint64",
              "name": "timestamp",
              "type": "uint64"
            },
            {
              "internalType": "uint64",
              "name": "lastClaimTime",
              "type": "uint64"
            },
            {
              "internalType": "uint64",
              "name": "lockupDuration",
              "type": "uint64"
            }
          ],
          "internalType": "struct EnhancedSmartStaking.Deposit[]",
          "name": "",
          "type": "tuple[]"
        }
      ],
      "stateMutability": "view",
      "type": "function"
    },
    {
      "inputs": [
        {
          "internalType": "address",
          "name": "user",
          "type": "address"
        }
      ],
      "name": "getUserDetailedStats",
      "outputs": [
        {
          "internalType": "uint256",
          "name": "totalStaked",
          "type": "uint256"
        },
        {
          "internalType": "uint256",
          "name": "baseRewards",
          "type": "uint256"
        },
        {
          "internalType": "uint256",
          "name": "boostedRewards",
          "type": "uint256"
        },
        {
          "internalType": "uint256",
          "name": "questRewards",
          "type": "uint256"
        },
        {
          "internalType": "uint256",
          "name": "achievementRewards",
          "type": "uint256"
        },
        {
          "internalType": "uint8",
          "name": "skillLevel",
          "type": "uint8"
        },
        {
          "internalType": "uint8",
          "name": "activeSkillsCount",
          "type": "uint8"
        },
        {
          "internalType": "bool",
          "name": "hasAutoCompoundSkill",
          "type": "bool"
        }
      ],
      "stateMutability": "view",
      "type": "function"
    },
    {
      "inputs": [
        {
          "internalType": "address",
          "name": "userAddress",
          "type": "address"
        }
      ],
      "name": "getUserInfo",
      "outputs": [
        {
          "internalType": "uint256",
          "name": "totalDeposited",
          "type": "uint256"
        },
        {
          "internalType": "uint256",
          "name": "totalRewards",
          "type": "uint256"
        },
        {
          "internalType": "uint256",
          "name": "depositCount",
          "type": "uint256"
        },
        {
          "internalType": "uint256",
          "name": "lastWithdrawTime",
          "type": "uint256"
        }
      ],
      "stateMutability": "view",
      "type": "function"
    },
    {
      "inputs": [
        {
          "internalType": "address",
          "name": "userAddress",
          "type": "address"
        }
      ],
      "name": "getUserInfoWithSkills",
      "outputs": [
        {
          "internalType": "uint256",
          "name": "totalDeposited",
          "type": "uint256"
        },
        {
          "internalType": "uint256",
          "name": "baseRewards",
          "type": "uint256"
        },
        {
          "internalType": "uint256",
          "name": "boostedRewards",
          "type": "uint256"
        },
        {
          "internalType": "uint256",
          "name": "lastWithdraw",
          "type": "uint256"
        },
        {
          "internalType": "uint16",
          "name": "stakingBoost",
          "type": "uint16"
        },
        {
          "internalType": "bool",
          "name": "hasAutoCompound_",
          "type": "bool"
        },
        {
          "internalType": "uint8",
          "name": "level",
          "type": "uint8"
        },
        {
          "internalType": "uint8",
          "name": "activeSkillCount",
          "type": "uint8"
        }
      ],
      "stateMutability": "view",
      "type": "function"
    },
    {
      "inputs": [
        {
          "internalType": "address",
          "name": "user",
          "type": "address"
        }
      ],
      "name": "getUserSkillProfile",
      "outputs": [
        {
          "components": [
            {
              "internalType": "uint256[]",
              "name": "activeNFTIds",
              "type": "uint256[]"
            },
            {
              "internalType": "uint256",
              "name": "totalXP",
              "type": "uint256"
            },
            {
              "internalType": "uint8",
              "name": "level",
              "type": "uint8"
            },
            {
              "internalType": "uint8",
              "name": "maxActiveSkills",
              "type": "uint8"
            },
            {
              "internalType": "uint16",
              "name": "stakingBoostTotal",
              "type": "uint16"
            },
            {
              "internalType": "uint16",
              "name": "feeDiscountTotal",
              "type": "uint16"
            },
            {
              "internalType": "bool",
              "name": "hasAutoCompound",
              "type": "bool"
            }
          ],
          "internalType": "struct IStakingIntegration.UserSkillProfile",
          "name": "",
          "type": "tuple"
        }
      ],
      "stateMutability": "view",
      "type": "function"
    },
    {
      "inputs": [
        {
          "internalType": "address",
          "name": "user",
          "type": "address"
        }
      ],
      "name": "hasAutoCompound",
      "outputs": [
        {
          "internalType": "bool",
          "name": "",
          "type": "bool"
        }
      ],
      "stateMutability": "view",
      "type": "function"
    },
    {
      "inputs": [
        {
          "internalType": "address",
          "name": "",
          "type": "address"
        }
      ],
      "name": "lastAchievementUnlockTime",
      "outputs": [
        {
          "internalType": "uint256",
          "name": "",
          "type": "uint256"
        }
      ],
      "stateMutability": "view",
      "type": "function"
    },
    {
      "inputs": [],
      "name": "lastAutoCompoundExecution",
      "outputs": [
        {
          "internalType": "uint64",
          "name": "",
          "type": "uint64"
        }
      ],
      "stateMutability": "view",
      "type": "function"
    },
    {
      "inputs": [
        {
          "internalType": "address",
          "name": "",
          "type": "address"
        }
      ],
      "name": "lastQuestCompletionTime",
      "outputs": [
        {
          "internalType": "uint256",
          "name": "",
          "type": "uint256"
        }
      ],
      "stateMutability": "view",
      "type": "function"
    },
    {
      "inputs": [],
      "name": "marketplaceContract",
      "outputs": [
        {
          "internalType": "address",
          "name": "",
          "type": "address"
        }
      ],
      "stateMutability": "view",
      "type": "function"
    },
    {
      "inputs": [],
      "name": "migrated",
      "outputs": [
        {
          "internalType": "bool",
          "name": "",
          "type": "bool"
        }
      ],
      "stateMutability": "view",
      "type": "function"
    },
    {
      "inputs": [],
      "name": "newContractAddress",
      "outputs": [
        {
          "internalType": "address",
          "name": "",
          "type": "address"
        }
      ],
      "stateMutability": "view",
      "type": "function"
    },
    {
      "inputs": [
        {
          "internalType": "uint256",
          "name": "",
          "type": "uint256"
        }
      ],
      "name": "nftRarity",
      "outputs": [
        {
          "internalType": "enum IStakingIntegration.Rarity",
          "name": "",
          "type": "uint8"
        }
      ],
      "stateMutability": "view",
      "type": "function"
    },
    {
      "inputs": [
        {
          "internalType": "uint256",
          "name": "",
          "type": "uint256"
        }
      ],
      "name": "nftSkills",
      "outputs": [
        {
          "internalType": "enum IStakingIntegration.SkillType",
          "name": "skillType",
          "type": "uint8"
        },
        {
          "internalType": "uint16",
          "name": "effectValue",
          "type": "uint16"
        },
        {
          "internalType": "enum IStakingIntegration.Rarity",
          "name": "rarity",
          "type": "uint8"
        },
        {
          "internalType": "uint64",
          "name": "activatedAt",
          "type": "uint64"
        },
        {
          "internalType": "uint64",
          "name": "cooldownEnds",
          "type": "uint64"
        },
        {
          "internalType": "bool",
          "name": "isActive",
          "type": "bool"
        }
      ],
      "stateMutability": "view",
      "type": "function"
    },
    {
      "inputs": [
        {
          "internalType": "address",
          "name": "user",
          "type": "address"
        },
        {
          "internalType": "uint256",
          "name": "achievementId",
          "type": "uint256"
        },
        {
          "internalType": "uint256",
          "name": "rewardAmount",
          "type": "uint256"
        }
      ],
      "name": "notifyAchievementUnlocked",
      "outputs": [],
      "stateMutability": "nonpayable",
      "type": "function"
    },
    {
      "inputs": [
        {
          "internalType": "address",
          "name": "user",
          "type": "address"
        },
        {
          "internalType": "uint256",
          "name": "questId",
          "type": "uint256"
        },
        {
          "internalType": "uint256",
          "name": "rewardAmount",
          "type": "uint256"
        }
      ],
      "name": "notifyQuestCompletion",
      "outputs": [],
      "stateMutability": "nonpayable",
      "type": "function"
    },
    {
      "inputs": [
        {
          "internalType": "address",
          "name": "user",
          "type": "address"
        },
        {
          "internalType": "uint256",
          "name": "nftId",
          "type": "uint256"
        },
        {
          "internalType": "enum IStakingIntegration.SkillType",
          "name": "skillType",
          "type": "uint8"
        },
        {
          "internalType": "uint16",
          "name": "effectValue",
          "type": "uint16"
        }
      ],
      "name": "notifySkillActivation",
      "outputs": [],
      "stateMutability": "nonpayable",
      "type": "function"
    },
    {
      "inputs": [
        {
          "internalType": "address",
          "name": "user",
          "type": "address"
        },
        {
          "internalType": "uint256",
          "name": "nftId",
          "type": "uint256"
        }
      ],
      "name": "notifySkillDeactivation",
      "outputs": [],
      "stateMutability": "nonpayable",
      "type": "function"
    },
    {
      "inputs": [
        {
          "internalType": "address",
          "name": "user",
          "type": "address"
        },
        {
          "internalType": "uint256",
          "name": "oldSkillId1",
          "type": "uint256"
        },
        {
          "internalType": "uint256",
          "name": "oldSkillId2",
          "type": "uint256"
        },
        {
          "internalType": "uint256",
          "name": "newSkillId",
          "type": "uint256"
        },
        {
          "internalType": "enum IStakingIntegration.Rarity",
          "name": "newRarity",
          "type": "uint8"
        }
      ],
      "name": "notifySkillUpgrade",
      "outputs": [],
      "stateMutability": "nonpayable",
      "type": "function"
    },
    {
      "inputs": [],
      "name": "owner",
      "outputs": [
        {
          "internalType": "address",
          "name": "",
          "type": "address"
        }
      ],
      "stateMutability": "view",
      "type": "function"
    },
    {
      "inputs": [],
      "name": "pause",
      "outputs": [],
      "stateMutability": "nonpayable",
      "type": "function"
    },
    {
      "inputs": [],
      "name": "paused",
      "outputs": [
        {
          "internalType": "bool",
          "name": "",
          "type": "bool"
        }
      ],
      "stateMutability": "view",
      "type": "function"
    },
    {
      "inputs": [
        {
          "internalType": "bytes",
          "name": "performData",
          "type": "bytes"
        }
      ],
      "name": "performAutoCompound",
      "outputs": [],
      "stateMutability": "nonpayable",
      "type": "function"
    },
    {
      "inputs": [],
      "name": "questRewardExpirationTime",
      "outputs": [
        {
          "internalType": "uint256",
          "name": "",
          "type": "uint256"
        }
      ],
      "stateMutability": "view",
      "type": "function"
    },
    {
      "inputs": [],
      "name": "renounceOwnership",
      "outputs": [],
      "stateMutability": "nonpayable",
      "type": "function"
    },
    {
      "inputs": [
        {
          "internalType": "address",
          "name": "_marketplace",
          "type": "address"
        }
      ],
      "name": "setMarketplaceAddress",
      "outputs": [],
      "stateMutability": "nonpayable",
      "type": "function"
    },
    {
      "inputs": [
        {
          "internalType": "enum IStakingIntegration.SkillType",
          "name": "skillType",
          "type": "uint8"
        },
        {
          "internalType": "bool",
          "name": "enabled",
          "type": "bool"
        }
      ],
      "name": "setSkillEnabled",
      "outputs": [],
      "stateMutability": "nonpayable",
      "type": "function"
    },
    {
      "inputs": [
        {
          "internalType": "uint256",
          "name": "nftId",
          "type": "uint256"
        },
        {
          "internalType": "enum IStakingIntegration.Rarity",
          "name": "rarity",
          "type": "uint8"
        }
      ],
      "name": "setSkillRarity",
      "outputs": [],
      "stateMutability": "nonpayable",
      "type": "function"
    },
    {
      "inputs": [
        {
          "internalType": "address",
          "name": "",
          "type": "address"
        }
      ],
      "name": "setStakingAddress",
      "outputs": [],
      "stateMutability": "view",
      "type": "function"
    },
    {
      "inputs": [
        {
          "internalType": "enum IStakingIntegration.SkillType",
          "name": "",
          "type": "uint8"
        }
      ],
      "name": "skillDefaultEffects",
      "outputs": [
        {
          "internalType": "uint16",
          "name": "",
          "type": "uint16"
        }
      ],
      "stateMutability": "view",
      "type": "function"
    },
    {
      "inputs": [
        {
          "internalType": "enum IStakingIntegration.SkillType",
          "name": "",
          "type": "uint8"
        }
      ],
      "name": "skillEnabled",
      "outputs": [
        {
          "internalType": "bool",
          "name": "",
          "type": "bool"
        }
      ],
      "stateMutability": "view",
      "type": "function"
    },
    {
      "inputs": [
        {
          "internalType": "address",
          "name": "",
          "type": "address"
        }
      ],
      "name": "totalAchievementRewards",
      "outputs": [
        {
          "internalType": "uint256",
          "name": "",
          "type": "uint256"
        }
      ],
      "stateMutability": "view",
      "type": "function"
    },
    {
      "inputs": [],
      "name": "totalPoolBalance",
      "outputs": [
        {
          "internalType": "uint256",
          "name": "",
          "type": "uint256"
        }
      ],
      "stateMutability": "view",
      "type": "function"
    },
    {
      "inputs": [
        {
          "internalType": "address",
          "name": "",
          "type": "address"
        }
      ],
      "name": "totalQuestRewards",
      "outputs": [
        {
          "internalType": "uint256",
          "name": "",
          "type": "uint256"
        }
      ],
      "stateMutability": "view",
      "type": "function"
    },
    {
      "inputs": [
        {
          "internalType": "address",
          "name": "newOwner",
          "type": "address"
        }
      ],
      "name": "transferOwnership",
      "outputs": [],
      "stateMutability": "nonpayable",
      "type": "function"
    },
    {
      "inputs": [],
      "name": "treasury",
      "outputs": [
        {
          "internalType": "address",
          "name": "",
          "type": "address"
        }
      ],
      "stateMutability": "view",
      "type": "function"
    },
    {
      "inputs": [],
      "name": "uniqueUsersCount",
      "outputs": [
        {
          "internalType": "uint256",
          "name": "",
          "type": "uint256"
        }
      ],
      "stateMutability": "view",
      "type": "function"
    },
    {
      "inputs": [],
      "name": "unpause",
      "outputs": [],
      "stateMutability": "nonpayable",
      "type": "function"
    },
    {
      "inputs": [
        {
          "internalType": "enum IStakingIntegration.SkillType",
          "name": "skillType",
          "type": "uint8"
        },
        {
          "internalType": "uint16",
          "name": "newEffectValue",
          "type": "uint16"
        }
      ],
      "name": "updateSkillEffect",
      "outputs": [],
      "stateMutability": "nonpayable",
      "type": "function"
    },
    {
      "inputs": [
        {
          "internalType": "address",
          "name": "user",
          "type": "address"
        },
        {
          "internalType": "uint256",
          "name": "xpGained",
          "type": "uint256"
        }
      ],
      "name": "updateUserXP",
      "outputs": [],
      "stateMutability": "nonpayable",
      "type": "function"
    },
    {
      "inputs": [
        {
          "internalType": "address",
          "name": "",
          "type": "address"
        },
        {
          "internalType": "uint256",
          "name": "",
          "type": "uint256"
        }
      ],
      "name": "userAchievementRewards",
      "outputs": [
        {
          "internalType": "uint256",
          "name": "",
          "type": "uint256"
        }
      ],
      "stateMutability": "view",
      "type": "function"
    },
    {
      "inputs": [
        {
          "internalType": "address",
          "name": "",
          "type": "address"
        },
        {
          "internalType": "uint256",
          "name": "",
          "type": "uint256"
        }
      ],
      "name": "userQuestRewards",
      "outputs": [
        {
          "internalType": "uint256",
          "name": "",
          "type": "uint256"
        }
      ],
      "stateMutability": "view",
      "type": "function"
    },
    {
      "inputs": [
        {
          "internalType": "address",
          "name": "",
          "type": "address"
        }
      ],
      "name": "userSkillProfiles",
      "outputs": [
        {
          "internalType": "uint256",
          "name": "totalXP",
          "type": "uint256"
        },
        {
          "internalType": "uint8",
          "name": "level",
          "type": "uint8"
        },
        {
          "internalType": "uint8",
          "name": "maxActiveSkills",
          "type": "uint8"
        },
        {
          "internalType": "uint16",
          "name": "stakingBoostTotal",
          "type": "uint16"
        },
        {
          "internalType": "uint16",
          "name": "feeDiscountTotal",
          "type": "uint16"
        },
        {
          "internalType": "bool",
          "name": "hasAutoCompound",
          "type": "bool"
        }
      ],
      "stateMutability": "view",
      "type": "function"
    },
    {
      "inputs": [],
      "name": "withdraw",
      "outputs": [],
      "stateMutability": "nonpayable",
      "type": "function"
    },
    {
      "inputs": [],
      "name": "withdrawAll",
      "outputs": [],
      "stateMutability": "nonpayable",
      "type": "function"
    },
    {
      "inputs": [],
      "name": "withdrawBoosted",
      "outputs": [],
      "stateMutability": "nonpayable",
      "type": "function"
    },
    {
      "stateMutability": "payable",
      "type": "receive"
    }
  ],
  "bytecode": "0x60806040523461002a576100196100146100bf565b6101c9565b604051615a526104b68239615a5290f35b5f80fd5b634e487b7160e01b5f52604160045260245ffd5b90601f01601f191681019081106001600160401b0382111761006357604052565b61002e565b9061007c61007560405190565b9283610042565b565b6001600160a01b031690565b90565b6001600160a01b0381160361002a57565b9050519061007c8261008d565b9060208282031261002a5761008a9161009e565b61008a615f08803803806100d281610068565b9283398101906100ab565b905f19905b9181191691161790565b61008a61008a61008a9290565b9061010961008a610110926100ec565b82546100dd565b9055565b61007e61008a61008a9290565b61008a90610114565b906001600160a01b03906100e2565b61008a9061007e906001600160a01b031682565b61008a90610139565b61008a9061014d565b9061016f61008a61011092610156565b825461012a565b61018361008a61008a9290565b6001600160401b031690565b906001600160401b03906100e2565b61008a90610183906001600160401b031682565b906101c261008a6101109261019e565b825461018f565b6101d161023c565b6101ea62278d006101e38160186100f9565b60196100f9565b6101f661007e5f610121565b6001600160a01b0382161461022b5761021090600261015f565b61021861035b565b61007c61022442610176565b60126101b2565b63e6c4247b60e01b5f908152600490fd5b61007c61024e565b61008a60016100ec565b61025661028e565b61007c610261610244565b60016100f9565b9060ff60a01b9060a01b6100e2565b9061028761008a61011092151590565b8254610268565b6102966102a0565b61007c5f80610277565b61007c33610461565b634e487b7160e01b5f52602160045260245ffd5b601111156102c757565b6102a9565b9061007c826102bd565b61008a906102cc565b906102e9906102d6565b5f5260205260405f2090565b9060ff906100e2565b9061030e61008a61011092151590565b82546102f5565b61032261008a61008a9290565b61ffff1690565b9061ffff906100e2565b61032261008a61008a9261ffff1690565b9061035461008a61011092610333565b8254610329565b61007c60016103ce816103796007600d61037e8461037981846102df565b6102fe565b61038d846103796002846102df565b61039c846103796003846102df565b6103ab846103796004846102df565b6103ba846103796005846102df565b6103c9846103796006846102df565b6102df565b6103ed6103dc6101f4610315565b6103e8600e93846102df565b610344565b61042e6103fb6103e8610315565b61040a816103e86002866102df565b6104236104186107d0610315565b6103e86003866102df565b6103e86006846102df565b6103e8600561043e6109c4610315565b926103c9846103e86007846102df565b61008a9061007e565b61008a905461044e565b61048561047f6104705f610457565b61047a845f61015f565b610156565b91610156565b907f8be0079c531659141344cd1fd0a4f28419497f9722a3daafe3b4186f6b6457e06104b060405190565b5f90a356fe60806040526004361015610022575b3615610018575f80fd5b610020614c1f565b005b5f3560e01c806301d9b84214610451578063116e1e3e1461044c57806311bd459f146104475780631376583814610442578063161ba7811461043d57806316e1a0fe1461043857806318f2f402146104335780631e26d5891461042e5780632a5bf6d2146104295780632c678c64146104245780632f1df4761461041f578063313a19541461041a5780633b457e4b146104155780633bab7a89146104105780633ccfd60b1461040b5780633f4ba83a146104065780633fd51fbf146104015780634301d9aa146103fc57806349be75bb146103f75780634b1d06d7146103f25780635026d63e146103ed57806354fd1461146103e85780635b0df80a146103e35780635c975abb146103de5780635efc27d6146103d957806361d027b3146103d4578063635e0c4d146103cf5780636386c1c7146103ca57806364ab8675146103c55780636af04a57146103c05780636f9fb98a146103bb578063715018a6146103b65780638456cb59146103b1578063853828b6146103ac578063857184d1146103a757806387a7b7f6146103a2578063892578171461039d5780638d79bb50146103985780638da5cb5b14610393578063910418be1461038e578063992976aa146103895780639f99dc4114610384578063a13c196d1461037f578063a646c1ce1461037a578063a6f353f014610375578063ae03126a14610370578063b2e89a961461036b578063b415ff7a14610366578063b47cc55614610361578063b6e18cfe1461035c578063b907deee14610357578063bece23ba14610352578063bf37bb6a1461034d578063c3f78e3a14610348578063c9f8234f14610343578063cb836fb11461033e578063ce4098be14610339578063d1bb5cf114610334578063d1cc7bb21461032f578063e7e754001461032a578063e8ac834514610325578063eb97e4eb14610320578063f154a5491461031b578063f2fde38b14610316578063f4e0d9ac14610311578063f69e20461461030c5763fef802e70361000e576119f5565b6118cc565b6118b7565b61189f565b611884565b611844565b611706565b6116df565b6116b7565b61169c565b611676565b611650565b61162a565b6115ef565b61159c565b6114c8565b6114ad565b611491565b611434565b611419565b6113fe565b6113d3565b6113a8565b61138d565b611351565b611327565b6112fd565b6112b2565b611243565b61122a565b611211565b6111da565b611179565b611161565b611149565b611131565b611116565b6110fb565b6110d4565b6110a3565b61103e565b610fe6565b610faa565b610f8f565b610f76565b610f03565b610ed9565b610ea7565b610e37565b610e08565b610def565b610dae565b610d96565b610d7b565b610d5f565b610cde565b610c72565b610bf6565b610bac565b610aee565b610a87565b610a2d565b6109bc565b6108e4565b610886565b6107a7565b6105c9565b5f91031261046057565b5f80fd5b634e487b7160e01b5f52602160045260245ffd5b6011111561048257565b610464565b9061049182610478565b565b61049c90610487565b90565b6104a890610493565b9052565b906104b98160209361049f565b0190565b906104dd6104d66104cc845190565b8084529260200190565b9260200190565b905f5b8181106104ed5750505090565b90919261050761050060019286516104ac565b9460200190565b9291016104e0565b9061051e6104d66104cc845190565b905f5b81811061052e5750505090565b909192610548610500600192865161ffff16815260200190565b929101610521565b9061055f6104d66104cc845190565b905f5b81811061056f5750505090565b90919261058761050060019286511515815260200190565b929101610562565b916105bb906105ad61049c959360608601908682035f8801526104bd565b90848203602086015261050f565b916040818403910152610550565b34610460576105d9366004610456565b6105f36105e4611b27565b6040519193919384938461058f565b0390f35b805b0361046057565b90503590610491826105f7565b906020828203126104605761049c91610600565b61049c61049c61049c9290565b9061063890610621565b5f5260205260405f2090565b61049c905b60ff1690565b61049c9054610644565b61049c9060081c5b61ffff1690565b61049c9054610659565b61049c9060181c610649565b61049c9054610672565b61049c9060201c5b6001600160401b031690565b61049c9054610688565b61049c9060601c610690565b61049c90546106a6565b61049c9060a01c610649565b61049c90546106bc565b6106dd90600c61062e565b906106e78261064f565b916106f181610668565b916106fb8261067e565b916107058161069c565b9161049c5f610713846106b2565b93016106c8565b6005111561048257565b906104918261071a565b61049c90610724565b6104a89061072e565b919461078f61079f9298979561077f60a0966107756104919a61076a60c08a019e5f8b019061049f565b61ffff166020890152565b6040870190610737565b6001600160401b03166060850152565b6001600160401b03166080830152565b019015159052565b34610460576105f36107c26107bd36600461060d565b6106d2565b926107d296949692919260405190565b96879687610740565b6001600160a01b031690565b6001600160a01b0381166105f9565b90503590610491826107e7565b906020828203126104605761049c916107f6565b5f5b8381106108285750505f910152565b8181015183820152602001610819565b6108596108626020936104b99361084d815190565b80835293849260200190565b95869101610817565b601f01601f191690565b901515815260406020820181905261049c92910190610838565b346104605761089e610899366004610803565b611d28565b906105f36108ab60405190565b9283928361086c565b6001600160401b0381166105f9565b90503590610491826108b4565b906020828203126104605761049c916108c3565b6108f76108f23660046108d0565b612490565b604051005b9060a080610491936109145f8201515f86019061049f565b60208181015161ffff169085015261093460408201516040860190610737565b6060818101516001600160401b0316908501526080818101516001600160401b0316908501525b01511515910152565b906104b98160c0936108fc565b906109806104d66104cc845190565b905f5b8181106109905750505090565b9091926109a36105006001928651610964565b929101610983565b602080825261049c92910190610971565b34610460576105f36109d76109d2366004610803565b6125cc565b604051918291826109ab565b90815261010081019897969095909490939092909160208701526040860152606085015261ffff166080840152151560a083015260ff1660c082015260e0016104919160ff169052565b34610460576105f3610a48610a43366004610803565b61269e565b94610a5b98969894919493929360405190565b988998896109e3565b91906040838203126104605761049c906020610a8082866107f6565b9401610600565b34610460576105f3610aa3610a9d366004610a64565b9061272f565b6040515b9182918290815260200190565b6005111561046057565b9050359061049182610ab4565b91906040838203126104605761049c906020610ae78286610600565b9401610abe565b34610460576108f7610b01366004610acb565b9061288a565b80516001600160801b03168252610491919060609081906020818101516001600160401b0316908501526040818101516001600160401b03169085015201516001600160401b0316910152565b906104b981608093610b07565b90610b706104d66104cc845190565b905f5b818110610b805750505090565b909192610b936105006001928651610b54565b929101610b73565b602080825261049c92910190610b61565b34610460576105f3610bc7610bc2366004610803565b612977565b60405191829182610b9b565b61049c916008021c610649565b9061049c9154610bd3565b61049c5f6005610be0565b3461046057610c06366004610456565b6105f3610c11610beb565b60405191829182901515815260200190565b6011111561046057565b9050359061049182610c23565b8015156105f9565b9050359061049182610c3a565b91906040838203126104605761049c906020610c6b8286610c2d565b9401610c42565b34610460576108f7610c85366004610c4f565b906129cb565b61ffff81166105f9565b9050359061049182610c8b565b60808183031261046057610cb682826107f6565b9261049c610cc78460208501610600565b936060610cd78260408701610c2d565b9401610c95565b34610460576108f7610cf1366004610ca2565b92919091612d67565b6107db61049c61049c926001600160a01b031690565b61049c90610cfa565b61049c90610d10565b9061063890610d19565b61049c916008021c81565b9061049c9154610d2c565b610d5a61049c92610d555f936014610d22565b61062e565b610d37565b34610460576105f3610aa3610d75366004610a64565b90610d42565b34610460576105f3610aa3610d91366004610803565b612d73565b3461046057610da6366004610456565b6108f76130d6565b3461046057610dbe366004610456565b6108f76130f1565b90916060828403126104605761049c610ddf84846107f6565b936040610a808260208701610600565b34610460576108f7610e02366004610dc6565b916131b5565b6108f7610e163660046108d0565b613257565b91906040838203126104605761049c906020610cd78286610c2d565b34610460576108f7610e4a366004610e1b565b906132cd565b90610e5f6104d66104cc845190565b905f5b818110610e6f5750505090565b909192610e8e61050060019286516001600160a01b0316815260200190565b929101610e62565b602080825261049c92910190610e50565b3461046057610eb7366004610456565b6105f3610ec2613369565b60405191829182610e96565b61049c5f6003610d37565b3461046057610ee9366004610456565b6105f3610aa3610ece565b5f610d5a61049c92601b610d22565b34610460576105f3610aa3610f19366004610803565b610ef4565b909182601f83011215610460578135916001600160401b03831161046057602001926001830284011161046057565b906020828203126104605781356001600160401b03811161046057610f729201610f1e565b9091565b34610460576108f7610f89366004610f4d565b90613373565b3461046057610f9f366004610456565b6105f3610c116134e4565b34610460576108f7610fbd366004610a64565b9061367c565b61049c916008021c6107db565b9061049c9154610fc3565b61049c5f6002610fd0565b3461046057610ff6366004610456565b6105f3611001610fdb565b604051918291826001600160a01b03909116815260200190565b61049c916008021c610690565b9061049c915461101b565b61049c5f6012611028565b346104605761104e366004610456565b6105f3611059611033565b604051918291826001600160401b03909116815260200190565b61109f61049194611098606094989795611091608086019a5f870152565b6020850152565b6040830152565b0152565b34610460576105f36110be6110b9366004610803565b613686565b906110cb94929460405190565b94859485611073565b34610460576105f3610aa36110ea366004610803565b61373c565b61049c60016005610fd0565b346104605761110b366004610456565b6105f36110016110ef565b3461046057611126366004610456565b6105f3610aa361398d565b3461046057611141366004610456565b6108f76139d1565b3461046057611159366004610456565b6108f76139ec565b3461046057611171366004610456565b6108f7613c90565b34610460576105f3610aa361118f366004610803565b613c98565b908152610100810198979690959094909390929091602087015260408601526060850152608084015260ff1660a083015260ff1660c082015260e0016104919115159052565b34610460576105f36111f56111f0366004610803565b613cb1565b9461120898969894919493929360405190565b98899889611194565b34610460576108f7611224366004610a64565b90613e41565b34610460576108f761123d366004610dc6565b91613eb9565b3461046057611253366004610456565b6105f3611001613ec4565b909182601f83011215610460578135916001600160401b03831161046057602001926020830284011161046057565b906020828203126104605781356001600160401b03811161046057610f72920161125e565b34610460576108f76112c536600461128d565b9061409b565b906020828203126104605761049c91610c2d565b9061063890610493565b5f6112f861049c92600d6112df565b610be0565b34610460576105f3610c116113133660046112cb565b6112e9565b5f610d5a61049c926016610d22565b34610460576105f3610aa361133d366004610803565b611318565b5f610d5a61049c92601a610d22565b34610460576105f3610aa3611367366004610803565b611342565b61069061049c61049c9290565b61049c6201518061136c565b61049c611379565b346104605761139d366004610456565b6105f3611059611385565b34610460576108f76113bb366004610803565b61415f565b610d5a61049c92610d555f936015610d22565b34610460576105f3610aa36113e9366004610a64565b906113c0565b5f610d5a61049c926017610d22565b34610460576105f3610aa3611414366004610803565b6113ef565b34610460576105f3610c1161142f366004610803565b614168565b34610460576108f7611447366004610803565b6141b2565b919060a0838203126104605761146281846107f6565b926114708260208301610600565b9261049c6114818460408501610600565b936080610ae78260608701610600565b34610460576108f76114a436600461144c565b93929092614311565b34610460576105f3610aa36114c3366004610803565b61431e565b34610460576105f3610aa36114de366004610a64565b906144c1565b906114f36104d66104cc845190565b905f5b8181106115035750505090565b9091926115196105006001928651815260200190565b9291016114f6565b9061049c9060c08061154060e084015f8701518582035f8701526114e4565b9461155060208201516020860152565b60408181015160ff169085015260608181015160ff169085015260808181015161ffff169085015260a08181015161ffff169085015261095b565b602080825261049c92910190611521565b34610460576105f36115b76115b2366004610803565b614649565b6040519182918261158b565b61049c916008021c610661565b9061049c91546115c3565b5f6115ea61049c92600e6112df565b6115d0565b34610460576105f361160a6116053660046112cb565b6115db565b6040519182918261ffff909116815260200190565b61049c5f6004610d37565b346104605761163a366004610456565b6105f3610aa361161f565b61049c5f6018610d37565b3461046057611660366004610456565b6105f3610aa3611645565b61049c5f6019610d37565b3461046057611686366004610456565b6105f3610aa361166b565b61049c5f6009610fd0565b34610460576116ac366004610456565b6105f3611001611691565b34610460576116c7366004610456565b6108f76148b2565b6020810192916104919190610737565b34610460576105f36116fa6116f536600461060d565b6148ba565b604051918291826116cf565b34610460576105f3610aa361171c366004610a64565b906148d0565b906117316104d66104cc845190565b905f5b8181106117415750505090565b9091926117576105006001928651815260200190565b929101611734565b906104b981602093610737565b9061177b6104d66104cc845190565b905f5b81811061178b5750505090565b90919261179e610500600192865161175f565b92910161177e565b906117b56104d66104cc845190565b905f5b8181106117c55750505090565b9091926117de610500600192865160ff16815260200190565b9291016117b8565b939061049c959361181a6118369461180c6118289460a08a01908a82035f8c0152611722565b9088820360208a01526104bd565b90868203604088015261176c565b90848203606086015261050f565b9160808184039101526117a6565b34610460576105f361185f61185a366004610803565b61491e565b9161186c95939560405190565b958695866117e6565b5f6112f861049c92601361062e565b34610460576105f36116fa61189a36600461060d565b611875565b34610460576108f76118b2366004610803565b614ac3565b34610460576118c7366004610803565b614b0a565b34610460576118dc366004610456565b6108f7614c17565b61049c9081565b61049c90546118e4565b61049c9060081c610649565b61049c90546118f5565b61049c9060101c610661565b61049c905461190b565b61049c9060201c610661565b61049c9054611921565b61049c9060301c610649565b61049c9054611937565b61195890600b610d22565b90611965600183016118eb565b916119726002820161064f565b9161197f60028301611901565b9161198c60028201611917565b9161049c600261199d81850161192d565b9301611943565b91946119ea61079f929897956119df60a0966119d56104919a6119cb60c08a019e5f8b0152565b60ff166020890152565b60ff166040870152565b61ffff166060850152565b61ffff166080830152565b34610460576105f3611a10611a0b366004610803565b61194d565b92611a2096949692919260405190565b968796876119a4565b634e487b7160e01b5f52604160045260245ffd5b90601f01601f191681019081106001600160401b03821117611a5e57604052565b611a29565b90610491611a7060405190565b9283611a3d565b6001600160401b038111611a5e5760208091020190565b90611aa0611a9b83611a77565b611a63565b918252565b369037565b90610491611ac0611aba84611a8e565b93611a77565b601f190160208401611aa5565b634e487b7160e01b5f52603260045260245ffd5b90611aea825190565b811015611afb576020809102010190565b611acd565b906104a890610487565b61049c9051610487565b61049c90610661565b61049c9054611b14565b600790611b3382610621565b90611b3d82611aaa565b611b4683611aaa565b93611b5084611aaa565b93611be0600192611b736001611b6e611b685f610621565b88611ae1565b611b00565b611b856002611b6e611b686001610621565b611b976003611b6e611b686002610621565b611ba96004611b6e611b686003610621565b611bbb6005611b6e611b686004610621565b611bcd6006611b6e611b686005610621565b611b6e611bda6006610621565b86611ae1565b81611bea5f610621565b905b611bf9575b505050929190565b81811015611c7a57611c7490611c40611c2d611c28600e611c22611c1d868b611ae1565b611b0a565b906112df565b611b1d565b611c37838b611ae1565b9061ffff169052565b611c6e611c5d611c58600d611c22611c1d868b611ae1565b61064f565b611c67838a611ae1565b9015159052565b60010190565b82611bec565b611bf1565b6001600160401b038111611a5e57602090601f01601f19160190565b90611aa0611a9b83611c7f565b61049c5f611c9b565b61049c611ca8565b61049c90610690565b61049c9054611cb9565b634e487b7160e01b5f52601160045260245ffd5b611cfb906001600160401b03165b916001600160401b031690565b01906001600160401b038211611d0d57565b611ccc565b61049c61049c61049c926001600160401b031690565b5f91606091611d4a611d466002611d4084600b610d22565b01611943565b1590565b611ddb57611d5781612d73565b611d6e611d6a662386f26fc10000610621565b9190565b101580611daf575b611d7d5750565b9250905060019161049c611d9060405190565b6001600160a01b03929092166020808401919091528252604082611a3d565b50611dd3611dce611dc06012611cc2565b611dc8611379565b90611ce0565b611d12565b421015611d76565b509150505f9061049c611cb1565b611dfa90611df5614cb4565b611e02565b610491614ce6565b61049190611e0e614d30565b611e18600561064f565b611e255761049190611e6f565b63f2bcabb960e01b5f90815260045b035ffd5b61049c678ac7230489e80000610621565b9081526040810192916104919160200152565b61049c69021e19e0c9bab2400000610621565b611e77611e38565b803410611eb15750611e87611e5c565b803411611e98575061049190612221565b6330250a5b60e11b5f90815290611e3490346004611e49565b63ea691a4b60e01b5f90815290611e3490346004611e49565b61066161049c61049c9290565b61049c61012c611eca565b61049c61049c61049c9261ffff1690565b6001600160a01b039091168152604081019291610491916020905b019061ffff169052565b61049c610258611eca565b9190611f2e565b9290565b91808302928184041490151715611d0d57565b61049c612710610621565b634e487b7160e01b5f52601260045260245ffd5b905b908115611f6d570490565b611f4c565b91908203918211611d0d57565b905f19905b9181191691161790565b90611f9e61049c611fa592610621565b8254611f7f565b9055565b91908201809211611d0d57565b611fc361049c61049c9290565b6001600160801b031690565b61049c90611fc3565b61049c9054611fcf565b611ffd906001600160801b03165b916001600160801b031690565b01906001600160801b038211611d0d57565b906001600160801b0390611f84565b611fc361049c61049c926001600160801b031690565b9061204461049c611fa59261201e565b825461200f565b61205d906001600160401b0316611cee565b02906001600160401b038216918203611d0d57565b61049c6080611a63565b8054821015611afb576120946002915f5260205f2090565b910201905f90565b634e487b7160e01b5f525f60045260245ffd5b9067ffffffffffffffff60801b9060801b611f84565b61069061049c61049c926001600160401b031690565b906120eb61049c611fa5926120c5565b82546120af565b9077ffffffffffffffffffffffffffffffffffffffffffffffff199060c01b611f84565b9061212661049c611fa5926120c5565b82546120f2565b906001600160401b0390611f84565b9061214c61049c611fa5926120c5565b825461212d565b610491916001906121be906060906121b08561217f61217984516001600160801b031690565b82612034565b61219c61219660208501516001600160401b031690565b826120db565b60408301516001600160401b031690612116565b01516001600160401b031690565b910161213c565b91906121d45761049191612153565b61209c565b90815491600160401b831015611a5e57826121fc9160016104919501815561207c565b906121c5565b6104a890611d12565b9081526040810192916104919160200190612202565b61222a5f61136c565b6001600160401b038216141580612474575b80612458575b8061243c575b8061241f575b61240e5761226061049c336006610d22565b8054909190829061226f611ed7565b9061227c611d6a83611ee2565b10156123f55750906123b57f73a19dd210f1a7f902193214c0ee91dd35ee5b4d920cba8d519eca65a7b488ca926123b06122d66122c86122c26122bd611f18565b611ee2565b34611f23565b6122d0611f41565b90611f60565b916122e18334611f72565b966122ea815490565b6122f6611d6a5f610621565b146123d9575b6123196123128961230d60036118eb565b611fa9565b6003611f8e565b61234160016123278a611fb6565b930161233b8461233683611fd8565b611fe2565b90612034565b6123ab61234d4261136c565b9161239b612369611f2a6123636201518061136c565b8b61204b565b93612384612375612072565b6001600160801b039097168752565b6001600160401b0316602086018190526040860152565b6001600160401b03166060840152565b6121d9565b614d7e565b6123be33610d19565b926123d46123cb60405190565b9283928361220b565b0390a2565b6123f06123e9611c6e60046118eb565b6004611f8e565b6122fc565b63756a320d60e11b5f90815290611e3490336004611ef3565b631ab8aa1760e21b5f908152600490fd5b5061242b61016d61136c565b6001600160401b038216141561224e565b5061244760b461136c565b6001600160401b0382161415612248565b50612463605a61136c565b6001600160401b0382161415612242565b5061247f601e61136c565b6001600160401b038216141561223c565b61049190611de9565b61049c60c0611a63565b6124ab612499565b905f82526020808080808087015f5b8152015f8152015f8152015f8152015f905250565b61049c6124a3565b5f5b8281106124e557505050565b6020906124f06124cf565b81840152016124d9565b9061049161250a611aba84611a8e565b601f1901602084016124d7565b906104a890610724565b906104916125ba5f612531612499565b9461254861254083830161064f565b838801611b00565b612561612556838301610668565b61ffff166020880152565b61257861256f83830161067e565b60408801612517565b61259661258683830161069c565b6001600160401b03166060880152565b6125b46125a48383016106b2565b6001600160401b03166080880152565b016106c8565b151560a0840152565b61049c90612521565b6125e661049c6125eb926125de606090565b50600a610d22565b614e40565b6125fb6125f6825190565b6124fa565b906126055f610621565b61261061049c835190565b8110156126605761265b9061263f61263a600c6126346126308588611ae1565b5190565b9061062e565b6125c3565b6126498286611ae1565b526126548185611ae1565b5060010190565b612605565b505090565b61049c61049c61049c926001600160801b031690565b61049c9060801c610690565b61049c905461267b565b61064961049c61049c9290565b6126ac61049c826006610d22565b60016126bc61049c84600b610d22565b9101906126d06126cb83611fd8565b612665565b936126da8461373c565b9360026126f2611dce6126ec84612d73565b96612687565b9301906126fe82611917565b9261049c61272a61272561049c61271d61271788611943565b9761064f565b95600a610d22565b614e51565b612691565b6125e661049c612740926125de5f90565b9061274a5f610621565b61275561049c845190565b8110156127bc576127785f612772600c6126346126308689611ae1565b0161064f565b61278b6127856005610487565b91610487565b146127985760010161274a565b5061049c91506127b2906127ac604b610621565b90611f23565b6122d06064610621565b50905090565b61049c906107db565b61049c90546127c2565b906127e36107db60096127cb565b33036127f25761049191612849565b632b35006d60e21b5f908152600490fd5b9060ff90611f84565b9061281c61049c611fa59261072e565b8254612803565b9063ff0000009060181b611f84565b9061284261049c611fa59261072e565b8254612823565b9061285e8161285984601361062e565b61280c565b61286d5f6125b484600c61062e565b612875575050565b5f61288461049193600c61062e565b01612832565b90610491916127d5565b61049c9060c01c610690565b61049c9054612894565b9061049161239b60016128bb612072565b946128d56128c882611fd8565b6001600160801b03168752565b6128f16128e182612687565b6001600160401b03166020880152565b61290d6128fd826128a0565b6001600160401b03166040880152565b01611cc2565b61049c906128aa565b90612925825490565b61292e81611a8e565b9261294060208501915f5260205f2090565b5f915b8383106129505750505050565b6002602060019261296085612913565b815201920192019190612943565b61049c9061291c565b5f61298f61049c92612987606090565b506006610d22565b0161296e565b90610491916129a2614eba565b6129b7565b9061281c61049c611fa592151590565b906129c661049192600d6112df565b6129a7565b9061049191612995565b9291906129e56107db60096127cb565b33036127f25761049193612ba3565b61049c61049c61049c9260ff1690565b9061281c61049c611fa592610493565b9062ffff009060081b611f84565b61066161049c61049c9261ffff1690565b90612a4361049c611fa592612a22565b8254612a14565b61049c9051610724565b906bffffffffffffffff000000009060201b611f84565b90612a7b61049c611fa5926120c5565b8254612a54565b9073ffffffffffffffff0000000000000000000000009060601b611f84565b90612ab161049c611fa5926120c5565b8254612a82565b9060ff60a01b9060a01b611f84565b90612ad761049c611fa592151590565b8254612ab8565b61049191612b699060a090612afb612af582611b0a565b85612a04565b612b13612b0d602083015161ffff1690565b85612a33565b612b28612b2260408301612a4a565b85612832565b612b45612b3f60608301516001600160401b031690565b85612a6b565b612b62612b5c60808301516001600160401b031690565b85612aa1565b0151151590565b90612ac7565b9061049191612ade565b6104a890612691565b916020610491929493612b9c60408201965f83019061049f565b0190612b79565b909192612bb7611d46611c5886600d6112df565b612d5657612bd283612bcd61049c85600a610d22565b614ed7565b612d4557612be461049c83600b610d22565b8054600290910190612c00611d6a612bfb84611901565b6129f4565b1015612d0e5750612ce5612cdf7f9bff5e2430318e7e3bdbef4e9e3208dcd561912d43b73a29dd7634b06da71f8393612cc260018095612ca38a612c7f612c464261136c565b612c58612c51612499565b9384611b00565b61ffff85166020840152612c6f5f60408501612517565b6001600160401b03166060830152565b612c8b61078f5f61136c565b83151560a0820152612c9e8b600c61062e565b612b6f565b612cba89612cb561049c87600a610d22565b614ef7565b50898461502d565b612ccc6004610487565b612cd588610487565b14612d0057610d19565b93610621565b93612cfb612cf260405190565b92839283612b82565b0390a3565b612d09816152db565b610d19565b611e3483612d1c5f93611901565b6341684d0160e01b84526001600160a01b03909116600484015260ff1660248301526044820190565b6317fc7f7160e31b5f908152600490fd5b63372d865360e21b5f908152600490fd5b906104919392916129d5565b612d7c8161373c565b90612d865f610621565b8214612df157612d9c61049c600292600b610d22565b01612da681611917565b612dba612db25f611eca565b9161ffff1690565b1115612ded5790612de7612ddc612dd66122bd61049c95611917565b83611f23565b6122d0612710610621565b90611fa9565b5090565b505061049c5f610621565b612e04614cb4565b611dfa612e0f614d30565b610491612e1c600561064f565b611e2557610491612e46565b61049c62015180610621565b61049c683635c9adc5dea00000610621565b612e5461049c336006610d22565b612e5c612e28565b612e668142611f60565b612e7f611d6a61049c612e7a336008610d22565b6118eb565b11613091575b50612e8f3361373c565b90612e995f610621565b8214613080576007612eb28361230d612e7a3385610d22565b612eba612e34565b90811061304e5750612ed0612ee3913390610d22565b612edd8461230d836118eb565b90611f8e565b5f92835b82548390821015612f6557612ded82612eff9261207c565b60018101612f0c81611cc2565b612f18611cee5f61136c565b119182612f3f575b5050612f2e57600101612ee7565b633b20f1c360e21b5f908152600490fd5b612f5c925090611dc8612f565f611dce9401612687565b91611cc2565b42105f80612f20565b505091929092612f8c612f856122c8612f7f6122bd611f18565b84611f23565b8092611f72565b92612f9630610d19565b31612fa7611d6a61049c8588611fa9565b1061303d57612fb54261136c565b925b85548690821015612fe15790611c6e855f612fd584612fdc9661207c565b5001612116565b612fb7565b505093612ff49260016123b092016120db565b6130068161300133610d19565b6153e3565b7f7084f5476618d8e60b11ef0d7d3f06914655adb8793e28ff7f018d4c76d505d56123d461303333610d19565b92610aa760405190565b631e9acf1760e31b5f908152600490fd5b61306a611e3491613064612e7a5f953390610d22565b90611f72565b631aefe80360e21b835260048301526024820190565b63afb0be3360e01b5f908152600490fd5b6130c5611dce6130c06130d0936130ba6130aa5f610621565b6130b5336007610d22565b611f8e565b42611f60565b61136c565b6130b5336008610d22565b5f612e85565b610491612dfc565b6130e6614eba565b610491610491615466565b6104916130de565b91906131086107db60096127cb565b33036127f25761049192613134565b90815260608101939261049192909160409161109f906020830152565b9061319d7f342455cf9ed6bd3095ba56ce918ab26b698fccdb2374c90901c953ce1cc1c0a29261316d856130b585610d55856014610d22565b61318861317b826016610d22565b612edd8761230d836118eb565b612d0961319682601a610d22565b4290611f8e565b926123d46131aa60405190565b928392429184613117565b9061049192916130f9565b611dfa906131cc614cb4565b610491906131d8614d30565b6131e2600561064f565b611e2557610491906131f2611e38565b803410611eb15750613202611e5c565b803411611e985750610491906108f261321b9133615480565b61322b6002611d4033600b610d22565b80613240575b61323757565b610491336152db565b50613252611d46611c58336010610d22565b613231565b610491906131c0565b906104919161326d614eba565b613293565b9061ffff90611f84565b9061328c61049c611fa592612a22565b8254613272565b9061329f612710611eca565b61ffff8216116132bc576132b761049192600e6112df565b61327c565b63af35630960e01b5f908152600490fd5b9061049191613260565b906132f06132e66104cc845490565b925f5260205f2090565b905f5b8181106133005750505090565b90919261332d613326600192613315876127cb565b6001600160a01b0316815260200190565b9460010190565b9291016132f3565b9061049c916132d7565b906104916133599261335060405190565b93848092613335565b0383611a3d565b61049c9061333f565b61049c600f613360565b612d099061338392810190610803565b613396611d466002611d4084600b610d22565b6134d3576133a381612d73565b6133ac5f610621565b8114613080576133c061049c836006610d22565b926133ca82611fb6565b916133df6001860161233b8561233683611fd8565b61342d5f6133ec4261136c565b9601938461340a6133fb612072565b6001600160801b039093168352565b6001600160401b0388166020830181905260408301525b6123ab61239b5f61136c565b6134365f610621565b61344161049c855490565b8110156134605780611c6e875f612fd561345b958961207c565b613436565b50927f8ce0a2fad3764c1fd039c26f784a2d7490f96db7928a834db2330abc1efd2944925061349890612d096123d49396601261213c565b92837f6b10037a13671faab8b41aef8f8189149de5e1b5b514a49814e4938dfbc04cbc6134c460405190565b838152602090a2604051610aa7565b63595b4b9760e11b5f908152600490fd5b61049c5f6106c8565b906134fb6107db60096127cb565b33036127f25761049191613595565b61064961049c61049c9260ff1690565b9061281c61049c611fa59261350a565b611f629060ff165b9160ff1690565b6135459060ff16613532565b019060ff8211611d0d57565b9061ff009060081b611f84565b9061356e61049c611fa59261350a565b8254613551565b60ff91821681529116602082015260608101929161049191604090611f0e565b9060026135d561272a6135ca6135af61049c87600b610d22565b94612e7a6135c4600188019261230d846118eb565b82611f8e565b6122d06103e8610621565b91016135e36106498261064f565b60ff8316116135f157505050565b8161361d7fbeef0cffca661d6b267dd54e822a7589d098d873a6aa1aec940369103d62e715938361351a565b61364b613645613636613630600a612691565b8461352a565b6136406003612691565b613539565b8361355e565b6123d461366961366361365d85611901565b94611917565b95610d19565b9461367360405190565b93849384613575565b90610491916134ed565b9061369561049c836006610d22565b91600183019161049c6136cc6136c66136c05f6136ba6136b489611fd8565b9761373c565b98015490565b95612687565b93612665565b949392611d12565b6136e161049c61049c9290565b6001600160e01b031690565b61049c6032610621565b61049c60d2610621565b61049c60aa610621565b61049c608c610621565b61049c6064610621565b61049c9081906001600160e01b031681565b61049c6130d4611eca565b905f9061374e61049c83946006610d22565b80549091909261375d5f610621565b841461397f575b835b8110156139795761377a612ded828561207c565b806137a66137a1613796613790611dce856128a0565b42611f72565b6122d0610e10610621565b6136d4565b906137b05f6136d4565b6001600160e01b038316116137d7575b5050506137d06137669160010190565b9050613764565b91613766939761384d6138416138b3946137d0966137ff60016137f86136ed565b9201611cc2565b61380b62278d0061136c565b6001600160401b038216036138e55750506127ac61383b61382a613715565b6138366126cb89611fd8565b611f23565b9161371f565b6122d0620f4240610621565b809261386961385e6126cb83611fd8565b6127ac6122bd613731565b9161387c613875611f41565b8094611f60565b9081106138db575b50613897613790611dce61389c93612687565b615507565b6138a55f610621565b81116138bb575b5050611fa9565b95915f6137c0565b83916138ce612de7926138d39596611f23565b611f60565b905f806138ac565b9350613897613884565b6138f16276a70061136c565b6001600160401b038216036139155750506127ac61383b61391061370b565b61382a565b61392162ed4e0061136c565b6001600160401b038216036139405750506127ac61383b613910613701565b613950611cee6301e1338061136c565b14613962575b61383b6127ac9161382a565b506127ac61383b6139716136f7565b915050613956565b50915050565b509250505061049c5f610621565b61399630610d19565b3190565b6139a2614eba565b6104916139c0565b6107db61049c61049c9290565b61049c906139aa565b6104916139cc5f6139b7565b615582565b61049161399a565b6139e1614eba565b610491610491615606565b6104916139d9565b6139fc614cb4565b611dfa613a07614d30565b610491613a14600561064f565b611e2557610491613ad2565b61049c906002611f23565b905f036121d4575f808255600190910155565b818110613a49575050565b80613a565f600293613a2b565b01613a3e565b919091828210613a6b57505050565b613a8d613a83613a7d61049195613a20565b93613a20565b915f5260205f2090565b9182019101613a3e565b90600160401b8111611a5e5781613aaf610491935490565b90828155613a5c565b5f61049191613a97565b905f036121d45761049190613ab8565b613ae061049c336006610d22565b906001820190613aef82611fd8565b613afb611ff05f611fb6565b14613c7f57613b095f610621565b83548490821015613b7057612ded82613b219261207c565b60018101613b2e81611cc2565b613b3a611cee5f61136c565b119182613b50575b5050612f2e57600101613b09565b613b67925090611dc8612f565f611dce9401612687565b42105f80613b42565b50509190613b7d3361373c565b90613ba06122c8613b948461230d6126cb86611fd8565b936127ac6122bd611f18565b90613bab8284611f72565b93613bb530610d19565b31613bc6611d6a61049c8689611fa9565b1061303d57613c2f93613c005f8061231294613bfa613c0f97613beb61217985611fb6565b613bf44261136c565b906120db565b01613ac2565b613c0a60036118eb565b611f72565b613c1960046118eb565b613c25611d6a5f610621565b11613c6957614d7e565b613c3c8161300133610d19565b7fd7a4aa9f3dca5f6606ac15d7e1850920201bbb02c38cd986793779f58ae0dfd36123d461303333610d19565b6123b06123e9613c7960046118eb565b5f190190565b636f16c5e960e11b5f908152600490fd5b6104916139f4565b6126cb6001613cab61049c936129875f90565b01611fd8565b613cbf61049c826006610d22565b90613cdd6126cb6001613cd661049c85600b610d22565b9401611fd8565b92613ce78261373c565b92613cf183612d73565b92613d00612e7a826016610d22565b926002613d11612e7a846017610d22565b93019061049c613d3461272a61272561049c613d2c8761064f565b97600a610d22565b92611943565b90613d486107db60096127cb565b33036127f25761049191613d67565b602081019291610491919061049f565b90613d7d611d4682612bcd61049c86600a610d22565b613e30577f29f88aa955b5ab5e495c04e7c61c10449ebf20048ae55d19f096a197bc29501b612cfb613e14612cdf613dd395613df75f613dc161049c89600c61062e565b613de08280613dd98185019d8e61064f565b9d610668565b9301612ac7565b612cba89613df261049c87600a610d22565b61560e565b613e016004610487565b613e0a88610487565b14613e2757610d19565b93613e1e60405190565b91829182613d57565b612d0981615677565b636379c45760e11b5f908152600490fd5b9061049191613d3a565b9190613e5a6107db60096127cb565b33036127f257610491929061319d7f87a3f62af380980eb2ea2eb2e3677feb226ae9683c4169370f32aef4f46ff9e092613e9d856130b585610d55856015610d22565b613eab61317b826017610d22565b612d0961319682601b610d22565b906104919291613e4b565b61049c5f6127cb565b9061049191613eda614eba565b613f3e565b61049c6064611eca565b6104a890611ee2565b9081526040810192916104919160200190613ee9565b9190811015611afb576020020190565b3561049c816107e7565b602080825261049c92910190610838565b6040513d5f823e3d90fd5b8192613f48613edf565b613f5181611ee2565b851161408357505f5b845b81101561407c57613f866002611d40600b613f80613f7b868a8a613f08565b613f18565b90610d22565b613f9a575b613f5c906001015b9050613f5a565b613fab610d91613f7b838787613f08565b613fbe611d6a662386f26fc10000610621565b10613f8b57613fd1613f7b828686613f08565b90613ffd613fde60405190565b6001600160a01b03939093166020808501919091528352604083611a3d565b61400630610d19565b803b15610460576140395f9391849261401e60405190565b9586938492839190632d86fc0560e11b835260048301613f22565b03925af190811561407757613f5c92613f939261405a575b50915050613f8b565b614071905f6140698183611a3d565b810190610456565b5f614051565b613f33565b5092505050565b62ef8cfb60e11b5f90815290611e3490866004613ef2565b9061049191613ecd565b610491906140b1614eba565b6140bd6107db5f6139b7565b6001600160a01b038216146140d5576104919061410c565b63e6c4247b60e01b5f908152600490fd5b906001600160a01b0390611f84565b9061410561049c611fa592610d19565b82546140e6565b61412d61412761411c60026127cb565b612d098460026140f5565b91610d19565b907f4ab5be82436d353e61ca18726e984e561f5c1cc7c6d38b29d2553c790434705a61415860405190565b8080612cfb565b610491906140a5565b6002611d4061049c926141785f90565b50600b610d22565b6104919061418c614eba565b6141986107db5f6139b7565b6001600160a01b038216146140d5576104919060096140f5565b61049190614180565b939291906141cc6107db60096127cb565b33036127f257610491946141f5565b91602061049192949361109f60408201965f830190610737565b907f43bb53177d20242bc821fcb16632e2daaff51a1d3a8a6c6d398aba90247d82c892600c916142295f6125b4838661062e565b806142f9575b6142d1575b506142435f6125b4838561062e565b806142b9575b61428b575b505061425f8461285985601361062e565b614275612cdf61426f6064610621565b92610d19565b93612cfb61428260405190565b928392836141db565b6142a35f8061429d846142b19661062e565b01612ac7565b613df261049c84600a610d22565b505f8061424e565b506142cc81612bcd61049c86600a610d22565b614249565b806142e45f8061429d6142f2958861062e565b613df261049c86600a610d22565b505f614234565b5061430c81612bcd61049c87600a610d22565b61422f565b90610491949392916141bb565b6143278161373c565b6143305f610621565b8114612df1576143556125e661049c61434d61049c86600b610d22565b94600a610d22565b61435e5f610621565b91825b61436c61049c845190565b84101561445557614388611c5860136126346126308888611ae1565b6143926001610724565b61439b82610724565b036143c057506143b36143ba91612de76103e8610621565b9360010190565b92614361565b6143ca6002610724565b6143d382610724565b036143eb57506143b36143ba91612de76107d0610621565b6143f56003610724565b6143fe82610724565b0361441657506143b36143ba91612de7610fa0610621565b61442c6144266004969396610724565b91610724565b1461443a575b6001016143ba565b9261444d6143ba91612de7611f40610621565b939050614432565b614495935061448f9061446e600261230d949701611917565b93614477815190565b614483611d6a5f610621565b11156144b657516122d0565b91611ee2565b61449e5f610621565b811115612ded5790612de7612ddc61049c9383611f23565b506122d06001610621565b6144d161049c6002926141785f90565b016144db81611917565b6144e7612db25f611eca565b14612ded5790612de7612ddc612dd66122bd61049c95611917565b61049c60e0611a63565b614514614502565b9060608252602080808080808088015f8152015f6124ba565b61049c61450c565b906145446132e66104cc845490565b905f5b8181106145545750505090565b909192614571613326600192614569876118eb565b815260200190565b929101614547565b9061049c91614535565b906104916133599261459460405190565b93848092614579565b9061049161463760026145ae614502565b946145bf6145bb82614583565b8752565b6145d56145ce600183016118eb565b6020880152565b6145ed6145e383830161064f565b60ff166040880152565b6146056145fb838301611901565b60ff166060880152565b61461e614613838301611917565b61ffff166080880152565b611d4061462c83830161192d565b61ffff1660a0880152565b151560c0840152565b61049c9061459d565b61465861049c9161417861452d565b614640565b614665614cb4565b611dfa614670614d30565b61049161467d600561064f565b611e25576104916146b7565b6104a890610621565b6146b061049194611098606094989795611091608086019a5f870152565b0190614689565b6146c561049c336006610d22565b906146ce612e28565b6146d88142611f60565b6146ec611d6a61049c612e7a336008610d22565b11614893575b506146fc33612d73565b916147065f610621565b831461308057600761471f8461230d612e7a3385610d22565b614727612e34565b90811061304e575061473d61474a913390610d22565b612edd8561230d836118eb565b5f92835b825483908210156147b557612ded826147669261207c565b6001810161477381611cc2565b61477f611cee5f61136c565b119182614795575b5050612f2e5760010161474e565b6147ac925090611dc8612f565f611dce9401612687565b42105f80614787565b5050919290926147dc6147d56122c86147cf6122bd611f18565b86611f23565b8094611f72565b906147e630610d19565b316147f7611d6a61049c8786611fa9565b1061303d576148054261136c565b925b8554869082101561482a5790611c6e855f612fd5846148259661207c565b614807565b5050937f92f2787b755dae547f1701582fe74c7abf277ec14db316dd01abc69cacf7a25992600161485b92016120db565b61486483614d7e565b6148718161300133610d19565b61487a33610d19565b926123d45f61488860405190565b938493429185614692565b6130c5611dce6130c06148ac936130ba6130aa5f610621565b5f6146f2565b61049161465d565b611c5861049c916148c85f90565b50601361062e565b6148e061049c6002926141785f90565b016148ea8161192d565b6148f6612db25f611eca565b14612ded57612ddc612dd66122bd61490d9361192d565b80821115612df15761049c91611f72565b6125e661049c614930926125de606090565b90614939825190565b9061494382611aaa565b61494c83611aaa565b61495584611aaa565b61495e85611aaa565b9561496886611aaa565b946149725f610621565b87811015614a20576149848184611ae1565b5161499081600c61062e565b61499b82601361062e565b6149a49061064f565b916149af848a611ae1565b526149b98161064f565b6149c38489611ae1565b906149cd91611b00565b816149d88488611ae1565b906149e291612517565b6149eb90610668565b6149f5838c611ae1565b61ffff9091169052614a0690615719565b614a108289611ae1565b60ff919091169052600101614972565b509396929550909391929050565b61049190614a3a614eba565b614a9f565b15614a4657565b60405162461bcd60e51b815260206004820152602660248201527f4f776e61626c653a206e6577206f776e657220697320746865207a65726f206160448201526564647265737360d01b606482015280608481015b0390fd5b610491906139cc614ab26107db5f6139b7565b6001600160a01b0383161415614a3f565b61049190614a2e565b614ad4614eba565b60405162461bcd60e51b815260206004820152600e60248201526d4e6f74206170706c696361626c6560901b6044820152606490fd5b614acc565b614b17614cb4565b611dfa614b22614d30565b610491614b2f600561064f565b611e2557610491614b4461049c336006610d22565b90614b4e3361373c565b90614b585f610621565b821461308057614b6782611fb6565b90614b7c6001850161233b8461233683611fd8565b614bb35f614b894261136c565b95019283614b986133fb612072565b6001600160401b038716602083018190526040830152613421565b614bbc5f610621565b614bc761049c845490565b811015614be65780611c6e865f612fd5614be1958861207c565b614bbc565b509250507fc16de066392da7e40ceccb739c331fc48a2e76bf147449613c48023d960eec326123d461303333610d19565b610491614b0f565b614c2833610d19565b7fe37b2ae9cc03ec700b9146c4df2fc797e7a1119c08fc25513755ab5315faa6d2614c5260405190565b806123d4423483611e49565b61049c6002610621565b15614c6f57565b60405162461bcd60e51b815260206004820152601f60248201527f5265656e7472616e637947756172643a207265656e7472616e742063616c6c006044820152606490fd5b610491614cc160016118eb565b614cd5614ccc614c5e565b91821415614c68565b6001611f8e565b61049c6001610621565b610491614cd5614cdc565b15614cf857565b60405162461bcd60e51b815260206004820152601060248201526f14185d5cd8589b194e881c185d5cd95960821b6044820152606490fd5b610491614d3e611d466134e4565b614cf1565b3d15614d5c57614d523d611c9b565b903d5f602084013e565b606090565b6001600160a01b0390911681526040810192916104919160200152565b614d8860026127cb565b614da4614d976107db5f6139b7565b916001600160a01b031690565b146140d557614dd45f80614dbe612d09612d0960026127cb565b6040515f9186905af1614dcf614d43565b501590565b614e1e577fe37b2ae9cc03ec700b9146c4df2fc797e7a1119c08fc25513755ab5315faa6d26123d4614e09612d0960026127cb565b92614e1360405190565b918291429083611e49565b611e345f91614e2d60026127cb565b63d3cc1fd760e01b845260048401614d61565b606090614e4c90615811565b905090565b614e655f61049c92614e605f90565b500190565b615825565b15614e7157565b60405162461bcd60e51b815280614a9b600482016020808252818101527f4f776e61626c653a2063616c6c6572206973206e6f7420746865206f776e6572604082015260600190565b610491614ec5613ec4565b614ed1614d97336107db565b14614e6a565b90614ef2611d6a5f61049c94614eea5f90565b500192610621565b61583d565b90614f0a611d6a5f61049c94614eea5f90565b61589e565b9066ff0000000000009060301b611f84565b90614f3161049c611fa592151590565b8254614f0f565b614f459061ffff16612db2565b90039061ffff8211611d0d57565b9065ffff000000009060201b611f84565b90614f7461049c611fa592612a22565b8254614f53565b9063ffff00009060101b611f84565b90614f9a61049c611fa592612a22565b8254614f7b565b8054821015611afb576120946001915f5260205f2090565b915f1960089290920291821b911b611f84565b921b90565b9190614fe261049c611fa593610621565b908354614fb9565b90815491600160401b831015611a5e578261500d91600161049195018155614fa1565b90614fd1565b6150209061ffff16612db2565b019061ffff8211611d0d57565b61049c61503b91600b610d22565b9215615149576150548361504e5f610621565b90614fea565b61505e6001610487565b61506782610487565b14801561512f575b8015615115575b1561509b5750615095600261049193019161509083611917565b615013565b90614f8a565b6150a56006610487565b6150ae82610487565b1480156150fb575b156150d657506150d060026104919301916150908361192d565b90614f64565b90506150e56127856004610487565b146150ed5750565b600160026104919201614f21565b506151066007610487565b61510f82610487565b146150b6565b506151206003610487565b61512982610487565b14615076565b5061513a6002610487565b61514382610487565b1461506f565b6151536001610487565b61515c82610487565b148015615265575b801561524b575b156151b15750600261049192019061518282611917565b61518f61ffff8316612db2565b11156151a757615095906151a283611917565b614f38565b506150955f611eca565b6151bb6006610487565b6151c482610487565b148015615231575b1561520d575060026104919201906151e38261192d565b6151f061ffff8316612db2565b1115615203576150d0906151a28361192d565b506150d05f611eca565b905061521c6127856004610487565b146152245750565b5f60026104919201614f21565b5061523c6007610487565b61524582610487565b146151cc565b506152566003610487565b61525f82610487565b1461516b565b506152706002610487565b61527982610487565b14615164565b91906008611f84910291614fcc6001600160a01b03841b90565b91906152aa61049c611fa593610d19565b90835461527f565b90815491600160401b831015611a5e57826152d591600161049195018155614fa1565b90615299565b6152ec611d46611c58836010610d22565b6152f35750565b60016129c661049192615313615308600f5490565b6130b5836011610d22565b61531e81600f6152b2565b6010610d22565b1561532c57565b60405162461bcd60e51b815260206004820152601d60248201527f416464726573733a20696e73756666696369656e742062616c616e63650000006044820152606490fd5b1561537857565b60405162461bcd60e51b815260206004820152603a60248201527f416464726573733a20756e61626c6520746f2073656e642076616c75652c207260448201527f6563697069656e74206d617920686176652072657665727465640000000000006064820152608490fd5b5f610491926154038293612d096153f930610d19565b8490311015615325565b9061540d60405190565b90818003925af161541c614d43565b50615371565b61542a61592a565b6104916154375f80612ac7565b7f5db9ee0a495bf2e6ff9c91a7834c1ba4fdd244a5e8aa4e537bd38aeae4b073aa61546133611001565b0390a1565b610491615422565b611f62906001600160401b0316611cee565b6125e661049c615491926125de5f90565b9061549b5f610621565b6154a661049c845190565b8110156127bc576154c35f612772600c6126346126308689611ae1565b6154d06127856005610487565b146154dd5760010161549b565b5061049c91506154f7906154f1604b61136c565b9061204b565b615501606461136c565b9061546e565b6155146301e13380610621565b8110156155765761552762ed4e00610621565b81101561556a5761553a6276a700610621565b81101561555f57615550611d6a62278d00610621565b10156136ed5761049c5f610621565b5061049c6064610621565b5061049c61012c610621565b5061049c6101f4610621565b61559b6141276155915f6127cb565b612d09845f6140f5565b907f8be0079c531659141344cd1fd0a4f28419497f9722a3daafe3b4186f6b6457e061415860405190565b6155ce614d30565b6104916155dc60015f612ac7565b7f62e78cea01bee320cd4e420270b5ea74000d11b0c9f74754ebdbfc544b05a25861546133611001565b6104916155c6565b90615621611d6a5f61049c94614eea5f90565b615964565b634e487b7160e01b5f52603160045260245ffd5b610491915f91615299565b80548015615667575f19019061566461565e8383614fa1565b9061563a565b55565b615626565b610491915f91614fd1565b615685611c58826010610d22565b61568c5750565b5f6156e76104919260116156d36156ce6156a9612e7a8585610d22565b600f906156c16156b7835490565b6130646001610621565b908181036156ec57505090565b615645565b6156e2846129c6846010610d22565b610d22565b61566c565b6130b56157056156ff61049c9486614fa1565b90610fd0565b615713816152d58588614fa1565b87610d22565b6157236004610724565b61572c82610724565b1461579d5761573b6003610724565b61574482610724565b14615792576157536002610724565b61575c82610724565b146157875761576e6144266001610724565b1461577d5761049c6001612691565b61049c6002612691565b5061049c6003612691565b5061049c6004612691565b5061049c6005612691565b906157b76132e66104cc845490565b905f5b8181106157c75750505090565b9091926157dc613326600192614569876118eb565b9291016157ba565b9061049c916157a8565b90610491613359926157ff60405190565b938480926157e4565b61049c906157ee565b5f61049c9161581e606090565b5001615808565b5f61049c916158315f90565b50015490565b90610638565b615855916001612e7a9261584e5f90565b5001615837565b615861611d6a5f610621565b141590565b9190614fe261049c611fa59390565b90815491600160401b831015611a5e578261589891600161049195018155614fa1565b90615866565b6158ab611d46838361583d565b156158d8576158d3916130b59060016158cc846158c88482615875565b5490565b9301615837565b600190565b50505f90565b156158e557565b60405162461bcd60e51b815260206004820152601460248201527f5061757361626c653a206e6f74207061757365640000000000000000000000006044820152606490fd5b6104916159356134e4565b6158de565b610491915f91615866565b80548015615667575f19019061566461595e8383614fa1565b9061593a565b90615975612e7a8260018501615837565b61597e5f610621565b8114615a15576156e761049c925f926159d1956159d660019788936159ab6159a586610621565b82611f72565b888501916159c36159ba845490565b61306489610621565b8281036159dc575b50505090565b615945565b01615837565b615898615a05615a0d946159fc6159f66130b59589614fa1565b90610d37565b92839188614fa1565b888801615837565b5f80806159cb565b5050505f9056fea2646970667358221220a4e1b926207865dec5755b8e98fc1614f4970d678de8baba052dc8072249ca9364736f6c634300081c0033",
  "linkReferences": {},
  "deployedLinkReferences": {}
}