{
  "_format": "hh-sol-artifact-1",
  "contractName": "GameifiedMarketplaceQuests",
  "sourceName": "contracts/Marketplace/GameifiedMarketplaceQuests.sol",
  "abi": [
    {
      "inputs": [
        {
          "internalType": "address",
          "name": "_coreAddress",
          "type": "address"
        }
      ],
      "stateMutability": "nonpayable",
      "type": "constructor"
    },
    {
      "inputs": [],
      "name": "AlreadyCompleted",
      "type": "error"
    },
    {
      "inputs": [],
      "name": "InvalidAddress",
      "type": "error"
    },
    {
      "inputs": [],
      "name": "InvalidMetadata",
      "type": "error"
    },
    {
      "inputs": [],
      "name": "InvalidRequirement",
      "type": "error"
    },
    {
      "inputs": [],
      "name": "InvalidXPReward",
      "type": "error"
    },
    {
      "inputs": [],
      "name": "QuestNotActive",
      "type": "error"
    },
    {
      "inputs": [],
      "name": "QuestNotFound",
      "type": "error"
    },
    {
      "inputs": [],
      "name": "RequirementNotMet",
      "type": "error"
    },
    {
      "anonymous": false,
      "inputs": [
        {
          "indexed": true,
          "internalType": "address",
          "name": "oldCore",
          "type": "address"
        },
        {
          "indexed": true,
          "internalType": "address",
          "name": "newCore",
          "type": "address"
        }
      ],
      "name": "CoreContractUpdated",
      "type": "event"
    },
    {
      "anonymous": false,
      "inputs": [
        {
          "indexed": false,
          "internalType": "address",
          "name": "account",
          "type": "address"
        }
      ],
      "name": "Paused",
      "type": "event"
    },
    {
      "anonymous": false,
      "inputs": [
        {
          "indexed": true,
          "internalType": "address",
          "name": "user",
          "type": "address"
        },
        {
          "indexed": true,
          "internalType": "uint256",
          "name": "questId",
          "type": "uint256"
        },
        {
          "indexed": false,
          "internalType": "uint256",
          "name": "xpReward",
          "type": "uint256"
        }
      ],
      "name": "QuestCompleted",
      "type": "event"
    },
    {
      "anonymous": false,
      "inputs": [
        {
          "indexed": true,
          "internalType": "uint256",
          "name": "questId",
          "type": "uint256"
        },
        {
          "indexed": false,
          "internalType": "enum GameifiedMarketplaceQuests.QuestType",
          "name": "questType",
          "type": "uint8"
        },
        {
          "indexed": false,
          "internalType": "string",
          "name": "title",
          "type": "string"
        },
        {
          "indexed": false,
          "internalType": "uint256",
          "name": "requirement",
          "type": "uint256"
        },
        {
          "indexed": false,
          "internalType": "uint256",
          "name": "xpReward",
          "type": "uint256"
        }
      ],
      "name": "QuestCreated",
      "type": "event"
    },
    {
      "anonymous": false,
      "inputs": [
        {
          "indexed": true,
          "internalType": "uint256",
          "name": "questId",
          "type": "uint256"
        }
      ],
      "name": "QuestDeactivated",
      "type": "event"
    },
    {
      "anonymous": false,
      "inputs": [
        {
          "indexed": true,
          "internalType": "address",
          "name": "user",
          "type": "address"
        },
        {
          "indexed": true,
          "internalType": "uint256",
          "name": "questId",
          "type": "uint256"
        },
        {
          "indexed": false,
          "internalType": "uint256",
          "name": "progress",
          "type": "uint256"
        }
      ],
      "name": "QuestProgressUpdated",
      "type": "event"
    },
    {
      "anonymous": false,
      "inputs": [
        {
          "indexed": true,
          "internalType": "bytes32",
          "name": "role",
          "type": "bytes32"
        },
        {
          "indexed": true,
          "internalType": "bytes32",
          "name": "previousAdminRole",
          "type": "bytes32"
        },
        {
          "indexed": true,
          "internalType": "bytes32",
          "name": "newAdminRole",
          "type": "bytes32"
        }
      ],
      "name": "RoleAdminChanged",
      "type": "event"
    },
    {
      "anonymous": false,
      "inputs": [
        {
          "indexed": true,
          "internalType": "bytes32",
          "name": "role",
          "type": "bytes32"
        },
        {
          "indexed": true,
          "internalType": "address",
          "name": "account",
          "type": "address"
        },
        {
          "indexed": true,
          "internalType": "address",
          "name": "sender",
          "type": "address"
        }
      ],
      "name": "RoleGranted",
      "type": "event"
    },
    {
      "anonymous": false,
      "inputs": [
        {
          "indexed": true,
          "internalType": "bytes32",
          "name": "role",
          "type": "bytes32"
        },
        {
          "indexed": true,
          "internalType": "address",
          "name": "account",
          "type": "address"
        },
        {
          "indexed": true,
          "internalType": "address",
          "name": "sender",
          "type": "address"
        }
      ],
      "name": "RoleRevoked",
      "type": "event"
    },
    {
      "anonymous": false,
      "inputs": [
        {
          "indexed": true,
          "internalType": "address",
          "name": "user",
          "type": "address"
        },
        {
          "indexed": false,
          "internalType": "uint256",
          "name": "newTotal",
          "type": "uint256"
        }
      ],
      "name": "SocialActionRecorded",
      "type": "event"
    },
    {
      "anonymous": false,
      "inputs": [
        {
          "indexed": true,
          "internalType": "address",
          "name": "oldStaking",
          "type": "address"
        },
        {
          "indexed": true,
          "internalType": "address",
          "name": "newStaking",
          "type": "address"
        }
      ],
      "name": "StakingContractUpdated",
      "type": "event"
    },
    {
      "anonymous": false,
      "inputs": [
        {
          "indexed": false,
          "internalType": "address",
          "name": "account",
          "type": "address"
        }
      ],
      "name": "Unpaused",
      "type": "event"
    },
    {
      "inputs": [],
      "name": "ADMIN_ROLE",
      "outputs": [
        {
          "internalType": "bytes32",
          "name": "",
          "type": "bytes32"
        }
      ],
      "stateMutability": "view",
      "type": "function"
    },
    {
      "inputs": [],
      "name": "DEFAULT_ADMIN_ROLE",
      "outputs": [
        {
          "internalType": "bytes32",
          "name": "",
          "type": "bytes32"
        }
      ],
      "stateMutability": "view",
      "type": "function"
    },
    {
      "inputs": [
        {
          "internalType": "uint256",
          "name": "_questId",
          "type": "uint256"
        }
      ],
      "name": "completeQuest",
      "outputs": [],
      "stateMutability": "nonpayable",
      "type": "function"
    },
    {
      "inputs": [],
      "name": "coreContractAddress",
      "outputs": [
        {
          "internalType": "address",
          "name": "",
          "type": "address"
        }
      ],
      "stateMutability": "view",
      "type": "function"
    },
    {
      "inputs": [
        {
          "internalType": "enum GameifiedMarketplaceQuests.QuestType",
          "name": "_questType",
          "type": "uint8"
        },
        {
          "internalType": "string",
          "name": "_title",
          "type": "string"
        },
        {
          "internalType": "string",
          "name": "_description",
          "type": "string"
        },
        {
          "internalType": "uint256",
          "name": "_requirement",
          "type": "uint256"
        },
        {
          "internalType": "uint256",
          "name": "_xpReward",
          "type": "uint256"
        }
      ],
      "name": "createQuest",
      "outputs": [
        {
          "internalType": "uint256",
          "name": "",
          "type": "uint256"
        }
      ],
      "stateMutability": "nonpayable",
      "type": "function"
    },
    {
      "inputs": [
        {
          "internalType": "uint256",
          "name": "_questId",
          "type": "uint256"
        }
      ],
      "name": "deactivateQuest",
      "outputs": [],
      "stateMutability": "nonpayable",
      "type": "function"
    },
    {
      "inputs": [],
      "name": "getAllActiveQuests",
      "outputs": [
        {
          "components": [
            {
              "internalType": "uint256",
              "name": "questId",
              "type": "uint256"
            },
            {
              "internalType": "enum GameifiedMarketplaceQuests.QuestType",
              "name": "questType",
              "type": "uint8"
            },
            {
              "internalType": "string",
              "name": "title",
              "type": "string"
            },
            {
              "internalType": "string",
              "name": "description",
              "type": "string"
            },
            {
              "internalType": "uint256",
              "name": "requirement",
              "type": "uint256"
            },
            {
              "internalType": "uint256",
              "name": "xpReward",
              "type": "uint256"
            },
            {
              "internalType": "bool",
              "name": "active",
              "type": "bool"
            },
            {
              "internalType": "uint256",
              "name": "createdAt",
              "type": "uint256"
            }
          ],
          "internalType": "struct GameifiedMarketplaceQuests.Quest[]",
          "name": "",
          "type": "tuple[]"
        }
      ],
      "stateMutability": "view",
      "type": "function"
    },
    {
      "inputs": [
        {
          "internalType": "uint256",
          "name": "_questId",
          "type": "uint256"
        }
      ],
      "name": "getQuest",
      "outputs": [
        {
          "components": [
            {
              "internalType": "uint256",
              "name": "questId",
              "type": "uint256"
            },
            {
              "internalType": "enum GameifiedMarketplaceQuests.QuestType",
              "name": "questType",
              "type": "uint8"
            },
            {
              "internalType": "string",
              "name": "title",
              "type": "string"
            },
            {
              "internalType": "string",
              "name": "description",
              "type": "string"
            },
            {
              "internalType": "uint256",
              "name": "requirement",
              "type": "uint256"
            },
            {
              "internalType": "uint256",
              "name": "xpReward",
              "type": "uint256"
            },
            {
              "internalType": "bool",
              "name": "active",
              "type": "bool"
            },
            {
              "internalType": "uint256",
              "name": "createdAt",
              "type": "uint256"
            }
          ],
          "internalType": "struct GameifiedMarketplaceQuests.Quest",
          "name": "",
          "type": "tuple"
        }
      ],
      "stateMutability": "view",
      "type": "function"
    },
    {
      "inputs": [
        {
          "internalType": "enum GameifiedMarketplaceQuests.QuestType",
          "name": "_questType",
          "type": "uint8"
        }
      ],
      "name": "getQuestsByType",
      "outputs": [
        {
          "components": [
            {
              "internalType": "uint256",
              "name": "questId",
              "type": "uint256"
            },
            {
              "internalType": "enum GameifiedMarketplaceQuests.QuestType",
              "name": "questType",
              "type": "uint8"
            },
            {
              "internalType": "string",
              "name": "title",
              "type": "string"
            },
            {
              "internalType": "string",
              "name": "description",
              "type": "string"
            },
            {
              "internalType": "uint256",
              "name": "requirement",
              "type": "uint256"
            },
            {
              "internalType": "uint256",
              "name": "xpReward",
              "type": "uint256"
            },
            {
              "internalType": "bool",
              "name": "active",
              "type": "bool"
            },
            {
              "internalType": "uint256",
              "name": "createdAt",
              "type": "uint256"
            }
          ],
          "internalType": "struct GameifiedMarketplaceQuests.Quest[]",
          "name": "",
          "type": "tuple[]"
        }
      ],
      "stateMutability": "view",
      "type": "function"
    },
    {
      "inputs": [
        {
          "internalType": "bytes32",
          "name": "role",
          "type": "bytes32"
        }
      ],
      "name": "getRoleAdmin",
      "outputs": [
        {
          "internalType": "bytes32",
          "name": "",
          "type": "bytes32"
        }
      ],
      "stateMutability": "view",
      "type": "function"
    },
    {
      "inputs": [
        {
          "internalType": "address",
          "name": "_user",
          "type": "address"
        }
      ],
      "name": "getUserCompletedQuests",
      "outputs": [
        {
          "internalType": "uint256[]",
          "name": "",
          "type": "uint256[]"
        }
      ],
      "stateMutability": "view",
      "type": "function"
    },
    {
      "inputs": [
        {
          "internalType": "address",
          "name": "_user",
          "type": "address"
        },
        {
          "internalType": "uint256",
          "name": "_questId",
          "type": "uint256"
        }
      ],
      "name": "getUserQuestProgress",
      "outputs": [
        {
          "components": [
            {
              "internalType": "uint256",
              "name": "questId",
              "type": "uint256"
            },
            {
              "internalType": "uint256",
              "name": "currentProgress",
              "type": "uint256"
            },
            {
              "internalType": "bool",
              "name": "completed",
              "type": "bool"
            },
            {
              "internalType": "uint256",
              "name": "completedAt",
              "type": "uint256"
            }
          ],
          "internalType": "struct GameifiedMarketplaceQuests.UserQuestProgress",
          "name": "",
          "type": "tuple"
        }
      ],
      "stateMutability": "view",
      "type": "function"
    },
    {
      "inputs": [
        {
          "internalType": "address",
          "name": "_user",
          "type": "address"
        },
        {
          "internalType": "enum GameifiedMarketplaceQuests.QuestType",
          "name": "_questType",
          "type": "uint8"
        }
      ],
      "name": "getUserQuestProgressByType",
      "outputs": [
        {
          "internalType": "uint256[]",
          "name": "questIds",
          "type": "uint256[]"
        },
        {
          "components": [
            {
              "internalType": "uint256",
              "name": "questId",
              "type": "uint256"
            },
            {
              "internalType": "uint256",
              "name": "currentProgress",
              "type": "uint256"
            },
            {
              "internalType": "bool",
              "name": "completed",
              "type": "bool"
            },
            {
              "internalType": "uint256",
              "name": "completedAt",
              "type": "uint256"
            }
          ],
          "internalType": "struct GameifiedMarketplaceQuests.UserQuestProgress[]",
          "name": "progresses",
          "type": "tuple[]"
        }
      ],
      "stateMutability": "view",
      "type": "function"
    },
    {
      "inputs": [
        {
          "internalType": "address",
          "name": "_user",
          "type": "address"
        }
      ],
      "name": "getUserSocialActions",
      "outputs": [
        {
          "internalType": "uint256",
          "name": "",
          "type": "uint256"
        }
      ],
      "stateMutability": "view",
      "type": "function"
    },
    {
      "inputs": [
        {
          "internalType": "bytes32",
          "name": "role",
          "type": "bytes32"
        },
        {
          "internalType": "address",
          "name": "account",
          "type": "address"
        }
      ],
      "name": "grantRole",
      "outputs": [],
      "stateMutability": "nonpayable",
      "type": "function"
    },
    {
      "inputs": [
        {
          "internalType": "bytes32",
          "name": "role",
          "type": "bytes32"
        },
        {
          "internalType": "address",
          "name": "account",
          "type": "address"
        }
      ],
      "name": "hasRole",
      "outputs": [
        {
          "internalType": "bool",
          "name": "",
          "type": "bool"
        }
      ],
      "stateMutability": "view",
      "type": "function"
    },
    {
      "inputs": [],
      "name": "pause",
      "outputs": [],
      "stateMutability": "nonpayable",
      "type": "function"
    },
    {
      "inputs": [],
      "name": "paused",
      "outputs": [
        {
          "internalType": "bool",
          "name": "",
          "type": "bool"
        }
      ],
      "stateMutability": "view",
      "type": "function"
    },
    {
      "inputs": [
        {
          "internalType": "uint256",
          "name": "",
          "type": "uint256"
        }
      ],
      "name": "quests",
      "outputs": [
        {
          "internalType": "uint256",
          "name": "questId",
          "type": "uint256"
        },
        {
          "internalType": "enum GameifiedMarketplaceQuests.QuestType",
          "name": "questType",
          "type": "uint8"
        },
        {
          "internalType": "string",
          "name": "title",
          "type": "string"
        },
        {
          "internalType": "string",
          "name": "description",
          "type": "string"
        },
        {
          "internalType": "uint256",
          "name": "requirement",
          "type": "uint256"
        },
        {
          "internalType": "uint256",
          "name": "xpReward",
          "type": "uint256"
        },
        {
          "internalType": "bool",
          "name": "active",
          "type": "bool"
        },
        {
          "internalType": "uint256",
          "name": "createdAt",
          "type": "uint256"
        }
      ],
      "stateMutability": "view",
      "type": "function"
    },
    {
      "inputs": [
        {
          "internalType": "address",
          "name": "_user",
          "type": "address"
        }
      ],
      "name": "recordSocialAction",
      "outputs": [],
      "stateMutability": "nonpayable",
      "type": "function"
    },
    {
      "inputs": [
        {
          "internalType": "bytes32",
          "name": "role",
          "type": "bytes32"
        },
        {
          "internalType": "address",
          "name": "account",
          "type": "address"
        }
      ],
      "name": "renounceRole",
      "outputs": [],
      "stateMutability": "nonpayable",
      "type": "function"
    },
    {
      "inputs": [
        {
          "internalType": "bytes32",
          "name": "role",
          "type": "bytes32"
        },
        {
          "internalType": "address",
          "name": "account",
          "type": "address"
        }
      ],
      "name": "revokeRole",
      "outputs": [],
      "stateMutability": "nonpayable",
      "type": "function"
    },
    {
      "inputs": [
        {
          "internalType": "address",
          "name": "_coreAddress",
          "type": "address"
        }
      ],
      "name": "setCoreContract",
      "outputs": [],
      "stateMutability": "nonpayable",
      "type": "function"
    },
    {
      "inputs": [
        {
          "internalType": "address",
          "name": "_stakingAddress",
          "type": "address"
        }
      ],
      "name": "setStakingContract",
      "outputs": [],
      "stateMutability": "nonpayable",
      "type": "function"
    },
    {
      "inputs": [],
      "name": "stakingContractAddress",
      "outputs": [
        {
          "internalType": "address",
          "name": "",
          "type": "address"
        }
      ],
      "stateMutability": "view",
      "type": "function"
    },
    {
      "inputs": [
        {
          "internalType": "bytes4",
          "name": "interfaceId",
          "type": "bytes4"
        }
      ],
      "name": "supportsInterface",
      "outputs": [
        {
          "internalType": "bool",
          "name": "",
          "type": "bool"
        }
      ],
      "stateMutability": "view",
      "type": "function"
    },
    {
      "inputs": [],
      "name": "unpause",
      "outputs": [],
      "stateMutability": "nonpayable",
      "type": "function"
    },
    {
      "inputs": [
        {
          "internalType": "address",
          "name": "_user",
          "type": "address"
        },
        {
          "internalType": "uint256",
          "name": "_questId",
          "type": "uint256"
        }
      ],
      "name": "updateQuestProgress",
      "outputs": [],
      "stateMutability": "nonpayable",
      "type": "function"
    },
    {
      "inputs": [
        {
          "internalType": "address",
          "name": "",
          "type": "address"
        },
        {
          "internalType": "uint256",
          "name": "",
          "type": "uint256"
        }
      ],
      "name": "userCompletedQuests",
      "outputs": [
        {
          "internalType": "uint256",
          "name": "",
          "type": "uint256"
        }
      ],
      "stateMutability": "view",
      "type": "function"
    },
    {
      "inputs": [
        {
          "internalType": "address",
          "name": "",
          "type": "address"
        },
        {
          "internalType": "uint256",
          "name": "",
          "type": "uint256"
        }
      ],
      "name": "userQuestProgress",
      "outputs": [
        {
          "internalType": "uint256",
          "name": "questId",
          "type": "uint256"
        },
        {
          "internalType": "uint256",
          "name": "currentProgress",
          "type": "uint256"
        },
        {
          "internalType": "bool",
          "name": "completed",
          "type": "bool"
        },
        {
          "internalType": "uint256",
          "name": "completedAt",
          "type": "uint256"
        }
      ],
      "stateMutability": "view",
      "type": "function"
    },
    {
      "inputs": [
        {
          "internalType": "address",
          "name": "",
          "type": "address"
        }
      ],
      "name": "userSocialActions",
      "outputs": [
        {
          "internalType": "uint256",
          "name": "",
          "type": "uint256"
        }
      ],
      "stateMutability": "view",
      "type": "function"
    }
  ],
  "bytecode": "0x60806040523461002a576100196100146100bf565b61015f565b604051612c686103138239612c6890f35b5f80fd5b634e487b7160e01b5f52604160045260245ffd5b90601f01601f191681019081106001600160401b0382111761006357604052565b61002e565b9061007c61007560405190565b9283610042565b565b6001600160a01b031690565b90565b6001600160a01b0381160361002a57565b9050519061007c8261008d565b9060208282031261002a5761008a9161009e565b61008a612f7b803803806100d281610068565b9283398101906100ab565b61007e61008a61008a9290565b61008a906100dd565b61008a61008a61008a9290565b61008a5f6100f3565b906001600160a01b03905b9181191691161790565b61008a9061007e906001600160a01b031682565b61008a9061011e565b61008a90610132565b9061015461008a61015b9261013b565b8254610109565b9055565b610167610203565b61017361007e5f6100ea565b6001600160a01b038216146101c85761007c90610198610191610100565b3390610248565b6101c17fa49807205ce4d355092ef5a8a18f56e8913cf4a201fbe287825b095693c21775610191565b6008610144565b63e6c4247b60e01b5f908152600490fd5b61008a60016100f3565b905f1990610114565b906101fc61008a61015b926100f3565b82546101e3565b61020b61023d565b61007c6102166101d9565b60026101ec565b9060ff90610114565b9061023661008a61015b92151590565b825461021d565b61007c5f6001610226565b9061007c9161026a565b905b5f5260205260405f2090565b906102549061013b565b61027b61027783836102f3565b1590565b610283575050565b6102a2600161029d845f6102978682610252565b01610260565b610226565b6102bc6102b66102b0339390565b9361013b565b9161013b565b917f2f8788117e7eff1d82e926ec794901d17c78024a50270940304540a733656f0d6102e760405190565b5f90a4565b5460ff1690565b61008a915f61029761030d936103065f90565b5082610252565b6102ec56fe60806040526004361015610011575f80fd5b5f3560e01c806301ffc9a71461020057806309a077ff146101fb578063248a9ca3146101f65780632e324b99146101f15780632f2ff15d146101ec5780633535f48b146101e757806336568abe146101e257806338258252146101dd5780633f4ba83a146101d857806344dacb73146101d357806347f72605146101ce57806349f86f34146101c95780634a1a5989146101c4578063528be0a9146101bf5780635c975abb146101ba57806375b238fc146101b55780637f221734146101b05780638456cb59146101ab57806391d14854146101a65780639685391c146101a15780639dd373b91461019c578063a217fddf14610197578063af88745614610192578063b0602c911461018d578063bd07aabf14610188578063c110165614610183578063c62666931461017e578063d547741f14610179578063e085f98014610174578063e9d2821d1461016f5763f4f798490361020557610e33565b610e0a565b610dd3565b610bc1565b610ba9565b610b90565b610b75565b610b4f565b610b20565b610b05565b610adc565b610aba565b6109fe565b6109e6565b6109ca565b61092e565b610913565b6108fb565b6108e3565b6108bc565b610883565b610844565b61071a565b6106e8565b6105bb565b610586565b610534565b6104f6565b61048e565b610440565b610246565b5f80fd5b6001600160e01b031981165b0361020557565b9050359061022982610209565b565b906020828203126102055761023f9161021c565b90565b9052565b346102055761027361026161025c36600461022b565b610e5a565b60405191829182901515815260200190565b0390f35b6005111561020557565b9050359061022982610277565b906020828203126102055761023f91610281565b634e487b7160e01b5f52602160045260245ffd5b600511156102c057565b6102a2565b90610229826102b6565b61023f906102c5565b610242906102cf565b5f5b8381106102f25750505f910152565b81810151838201526020016102e3565b61032361032c60209361033693610317815190565b80835293849260200190565b958691016102e1565b601f01601f191690565b0190565b805182529061023f9060e0806103876103756101008501610363602089015160208801906102d8565b60408801518682036040880152610302565b60608701518582036060870152610302565b9461039760808201516080860152565b6103a660a082015160a0860152565b60c0818101511515908501525b0151910152565b9061023f9161033a565b906103da6103d0835190565b8083529160200190565b90816103ec6020830284019460200190565b925f915b8383106103ff57505050505090565b9091929394602061042261041b838560019503875289516103ba565b9760200190565b93019301919392906103f0565b602080825261023f929101906103c4565b346102055761027361045b61045636600461028e565b611073565b6040519182918261042f565b80610215565b9050359061022982610467565b906020828203126102055761023f9161046d565b34610205576102736104a96104a436600461047a565b6111c4565b6040515b9182918290815260200190565b6001600160a01b031690565b6001600160a01b038116610215565b90503590610229826104c6565b906020828203126102055761023f916104d5565b34610205576102736104a961050c3660046104e2565b6111db565b91906040838203126102055761023f90602061052d828661046d565b94016104d5565b346102055761054d610547366004610511565b90611216565b604051005b5f91031261020557565b61023f916008021c6001600160a01b031690565b9061023f915461055c565b61023f5f6009610570565b3461020557610596366004610552565b6102736105a161057b565b604051918291826001600160a01b03909116815260200190565b346102055761054d6105ce366004610511565b90611289565b91906040838203126102055761023f9060206105f082866104d5565b940161046d565b6104ba61023f61023f926001600160a01b031690565b61023f906105f7565b61023f9061060d565b9061062990610616565b5f5260205260405f2090565b61023f61023f61023f9290565b9061062990610635565b61023f9081565b61023f905461064c565b61023f905b60ff1690565b61023f905461065d565b9061068161068692600561061f565b610642565b9061069082610653565b9161069d60018201610653565b9161023f60036106af60028501610668565b9301610653565b6106e4610229946106db6060949897956106d4608086019a5f870152565b6020850152565b15156040830152565b0152565b34610205576102736107046106fe3660046105d4565b90610672565b9061071194929460405190565b948594856106b6565b346102055761072a366004610552565b61054d6112d0565b91906040838203126102055761023f90602061074e82866104d5565b9401610281565b9061077561076e610764845190565b8084529260200190565b9260200190565b905f5b8181106107855750505090565b9091926107a261079b6001928651815260200190565b9460200190565b929101610778565b80518252610229919060609081906107c760208201516020860152565b6040818101511515908501526103b3565b90610336816080936107aa565b906107f461076e610764845190565b905f5b8181106108045750505090565b90919261081761079b60019286516107d8565b9291016107f7565b604080825261023f93919261083691840190610755565b9160208184039101526107e5565b346102055761085d610857366004610732565b906113c1565b9061027361086a60405190565b9283928361081f565b60808101929161022991906107aa565b346102055761027361089f6108993660046105d4565b906114dc565b60405191829182610873565b602080825261023f9291019061033a565b34610205576102736108d76108d236600461047a565b6114f7565b604051918291826108ab565b346102055761054d6108f63660046104e2565b6115f7565b346102055761054d61090e36600461047a565b6119d6565b3461020557610923366004610552565b6102736102616119df565b346102055761093e366004610552565b6102735f516020612c135f395f51905f526104a9565b634e487b7160e01b5f52603260045260245ffd5b8054821015610988576109806001915f5260205f2090565b910201905f90565b610954565b61023f916008021c81565b9061023f915461098d565b6109ae90600661061f565b80548210156102055761023f916109c491610968565b90610998565b34610205576102736104a96109e03660046105d4565b906109a3565b34610205576109f6366004610552565b61054d611a0a565b3461020557610273610261610a14366004610511565b90611a12565b909182601f830112156102055781359167ffffffffffffffff831161020557602001926001830284011161020557565b909160a08284031261020557610a608383610281565b92602083013567ffffffffffffffff81116102055781610a81918501610a1a565b92909360408101359167ffffffffffffffff831161020557610aa88461023f948401610a1a565b93909460806105f0826060870161046d565b34610205576102736104a9610ad0366004610a4a565b95949094939193611ee1565b346102055761054d610aef3660046104e2565b611fb5565b61023f5f610635565b61023f610af4565b3461020557610b15366004610552565b6102736104a9610afd565b3461020557610b30366004610552565b61027361045b611fbe565b5f610b4a61023f92600761061f565b610998565b34610205576102736104a9610b653660046104e2565b610b3b565b61023f5f6008610570565b3461020557610b85366004610552565b6102736105a1610b6a565b346102055761054d610ba33660046105d4565b90612131565b346102055761054d610bbc3660046104e2565b6121b6565b346102055761054d610bd4366004610511565b906121da565b634e487b7160e01b5f52602260045260245ffd5b9060016002830492168015610c0e575b6020831014610c0957565b610bda565b91607f1691610bfe565b80545f939291610c34610c2a83610bee565b8085529360200190565b9160018116908115610c835750600114610c4d57505050565b610c5e91929394505f5260205f2090565b915f925b818410610c6f5750500190565b805484840152602090930192600101610c62565b92949550505060ff1916825215156020020190565b9061023f91610c18565b634e487b7160e01b5f52604160045260245ffd5b90601f01601f1916810190811067ffffffffffffffff821117610cd857604052565b610ca2565b90610229610cf792610cee60405190565b93848092610c98565b0383610cb6565b610d09906004610642565b90610d1382610653565b91610d2060018201610668565b91610d2d60028301610cdd565b91610d3a60038201610cdd565b91610d4760048301610653565b91610d5460058201610653565b9161023f60076106af60068501610668565b9395610dc3610dbb60e0979b9a98610dad886106e498610da06102299e99610d96610dca9a5f6101008701960152565b60208d01906102d8565b8a820360408c0152610302565b9088820360608a0152610302565b9a6080870152565b60a0850152565b151560c0830152565b3461020557610273610dee610de936600461047a565b610cfe565b94610e0198969894919493929360405190565b98899889610d66565b346102055761054d610e1d36600461047a565b612278565b602080825261023f92910190610755565b3461020557610273610e4e610e493660046104e2565b612303565b60405191829182610e22565b637965db0b60e01b6001600160e01b0319821614908115610e79575090565b61023f91506001600160e01b0319166301ffc9a760e01b1490565b634e487b7160e01b5f52601160045260245ffd5b5f198114610eb65760010190565b610e94565b90610229610ec860405190565b9283610cb6565b67ffffffffffffffff8111610cd85760208091020190565b90610ef9610ef483610ecf565b610ebb565b918252565b61023f610100610ebb565b610f11610efe565b905f825260208080808080808089015f815201606081520160608152015f8152015f5b8152015f8152015f905250565b61023f610f09565b5f5b828110610f5757505050565b602090610f62610f41565b8184015201610f4b565b90610229610f82610f7c84610ee7565b93610ecf565b601f190160208401610f49565b90610f98825190565b811015610988576020809102010190565b90610242906102c5565b906102296110636007610fc4610efe565b94610fd5610fd182610653565b8752565b610fed610fe460018301610668565b60208801610fa9565b611003610ffc60028301610cdd565b6040880152565b61101961101260038301610cdd565b6060880152565b61102f61102860048301610653565b6080880152565b61104561103e60058301610653565b60a0880152565b61105d61105460068301610668565b151560c0880152565b01610653565b60e0840152565b61023f90610fb3565b9061107e600361231f565b6110875f610635565b90815b81811015611105576004816110aa60066110a48385610642565b01610668565b91826110da575b50506110c5575b60010161108a565b61108a565b916110d26110c091610ea8565b9290506110b8565b6110eb92506001916110a491610642565b6110fd6110f7876102c5565b916102c5565b14815f6110b1565b50919061111190610f6c565b9061111b5f610635565b90815b845b8110156111b557600461113860066110a48484610642565b80611193575b611153575b50611120906001015b905061111e565b61118b829461117061116b6111209561114c95610642565b61106a565b61117a8289610f8f565b526111858188610f8f565b50610ea8565b939150611143565b506111a360016110a48484610642565b6111af6110f7896102c5565b1461113e565b50935050905090565b90610629565b600161105d61023f926111d45f90565b505f6111be565b6111f161023f916111e95f90565b50600761061f565b610653565b906102299161120c611207826111c4565b612332565b906102299161233d565b90610229916111f6565b1561122757565b60405162461bcd60e51b815260206004820152602f60248201527f416363657373436f6e74726f6c3a2063616e206f6e6c792072656e6f756e636560448201526e103937b632b9903337b91039b2b63360891b606482015280608481015b0390fd5b61022991906112aa61129a336104ba565b6001600160a01b03841614611220565b6123a9565b6112c55f516020612c135f395f51905f52612332565b61022961022961244c565b6102296112af565b369037565b906102296112ed610f7c84610ee7565b601f1901602084016112d8565b61023f6080610ebb565b61130c6112fa565b905f8252602080808085015f610f34565b61023f611304565b5f5b82811061133357505050565b60209061133e61131d565b8184015201611327565b90610229611358610f7c84610ee7565b601f190160208401611325565b906102296113b160036113766112fa565b94611383610fd182610653565b61139961139260018301610653565b6020880152565b61105d6113a860028301610668565b15156040880152565b6060840152565b61023f90611365565b90916113cd600361231f565b6113d65f610635565b91825b82811015611425576113f160016110a4836004610642565b6113fd6110f7886102c5565b14611410575b6001016113d9565b6113d9565b9261141d61140b91610ea8565b939050611403565b50909261143a611434846112dd565b93611348565b946114445f610635565b92835b865b8110156114d25761146060016110a4836004610642565b61146c6110f7856102c5565b14611481575b611449906001015b9050611447565b9361147a6114c98261149d8861149a611449968c610f8f565b52565b6114b46114af896106818a600561061f565b6113b8565b6114be828d610f8f565b52611185818c610f8f565b95915050611472565b5094505050509190565b61023f916106816114af926114ef61131d565b50600561061f565b6114ff610f41565b5061150e61116b826004610642565b9061152561152161151d845190565b9290565b9190565b0361152d5790565b63629744f760e01b5f908152600490fd5b610229906115585f516020612c135f395f51905f52612332565b611587565b905f19905b9181191691161790565b9061157c61023f61158392610635565b825461155d565b9055565b6115ad61159582600761061f565b6115a76115a182610653565b60010190565b9061156c565b7f851a0994d82c1644de2ea7d946c83c51713a8d8e537fe45ceb34215dabc9670d6115f26115e86115e26111f185600761061f565b93610616565b926104ad60405190565b0390a2565b6102299061153e565b6102299061160c612493565b61161d906116186124fc565b61177c565b61022961252e565b9060ff90611562565b9061163e61023f61158392151590565b8254611625565b600361169860606102299461166361165d5f83015190565b8661156c565b61167a611671602083015190565b6001870161156c565b61169361168a6040830151151590565b6002870161162e565b015190565b910161156c565b9061022991611645565b915f1960089290920291821b911b611562565b91906116cd61023f61158393610635565b9083546116a9565b9081549168010000000000000000831015610cd857826116fd91600161022995018155610968565b906116bc565b61023f906104ba565b61023f9054611703565b6001600160a01b0390911681526040810192916102299160200152565b6040513d5f823e3d90fd5b6104ba61023f61023f9290565b61023f9061173e565b6001600160a01b0390911681526060810193926102299290916040916106e4905b6020830152565b600461178b61116b8383610642565b61179f61179b60c0830151151590565b1590565b6119c6576117b760026110a48561068133600561061f565b6119b6576117c58133612641565b6117d361023f608084015190565b81106119a657611817906117f16117e86112fa565b91611775878452565b60016040820152611803426060830152565b6118128561068133600561061f565b61169f565b61182e8361182961023f33600661061f565b6116d5565b60a0611845611840611840600861170c565b610616565b910190611850825190565b90803b15610205576118845f9291839261186960405190565b9485938492839190632f7e13eb60e11b8352338b8401611716565b03925af1801561198c57611991575b5061189e600961170c565b6118ba6118ad6104ba5f61174b565b916001600160a01b031690565b0361190a575b5190505b907fe0b5124b12e878158288d1002ed1fb960faff0ec1c7b3168f86d9d1afd1b0d8b6119056118fb6118f533610616565b93610635565b936104ad60405190565b0390a3565b61191a611840611840600961170c565b91611923825190565b833b156102055761195593855f809461193b60405190565b97889586948593633fd51fbf60e01b855233908501611754565b03925af191821561198c576118c49261196f575b506118c0565b611986905f61197e8183610cb6565b810190610552565b5f611969565b611733565b6119a0905f61197e8183610cb6565b5f611893565b632417fae360e21b5f9081528390fd5b63195332a560e01b5f9081528290fd5b630bb6646b60e01b5f9081528290fd5b61022990611600565b61023f6001610668565b6119ff5f516020612c135f395f51905f52612332565b610229610229612841565b6102296119e9565b61023f915f611a2c611a3293611a255f90565b50826111be565b0161061f565b610668565b61023f9796959493929190611a585f516020612c135f395f51905f52612332565b611d3a565b61023f61c350610635565b61023f6103e8610635565b67ffffffffffffffff8111610cd857602090601f01601f19160190565b90825f939282370152565b90929192611aab610ef482611a73565b938185528183011161020557610229916020850190611a90565b61023f913691611a9b565b61023f90516102c5565b9061163e61023f611583926102cf565b610229915f916116bc565b818110611b00575050565b80611b0d5f600193611aea565b01611af5565b9190601f8111611b2257505050565b611b32610229935f5260205f2090565b906020601f840181900483019310611b54575b6020601f909101040190611af5565b9091508190611b45565b90611b67815190565b9067ffffffffffffffff8211610cd857611b8b82611b858554610bee565b85611b13565b602090601f8311600114611bc45761158392915f9183611bb9575b50505f19600883021c1916906002021790565b015190505f80611ba6565b601f19831691611bd7855f5260205f2090565b925f5b818110611c1357509160029391856001969410611bfb575b50505002019055565b01515f196008601f8516021c191690555f8080611bf2565b91936020600181928787015181550195019201611bda565b9061022991611b5e565b600761169860e061022994611c4d61165d5f83015190565b611c65611c5c60208301611ad0565b60018701611ada565b611c7c611c73604083015190565b60028701611c2b565b611c93611c8a606083015190565b60038701611c2b565b611caa611ca1608083015190565b6004870161156c565b611cc1611cb860a083015190565b6005870161156c565b611693611cd160c0830151151590565b6006870161162e565b9061022991611c35565b919061032c81611cfb816103369560209181520190565b8095611a90565b90611d326106e49161022996989795606095611d2560808701935f8801906102d8565b8583036020870152611ce4565b966040830152565b50929591939092919084611d506115215f610635565b148015611ecd575b611ebc57611d655f610635565b8614611e7457611d745f610635565b82148015611ea9575b611e9857611d8b60026102c5565b611d94846102c5565b1480611e85575b611e7457600396611dab8861231f565b97611db590612849565b611dbd610efe565b91611dc6898452565b611dd38560208501610fa9565b611ddd8787611ac5565b6040840152611deb91611ac5565b6060820152611dfb866080830152565b611e068260a0830152565b600160c0820152611e184260e0830152565b611e23876004610642565b90611e2d91611cda565b611e3686610635565b94611e4060405190565b948594611e4d9486611d02565b037fb8abc18ba7191953b6f26fb8d5eea6ea1275367682c9ec994c65c891c0a0fe7b91a290565b6327c97a1360e21b5f908152600490fd5b50611e9161023f611a68565b8611611d9b565b6308d663db60e31b5f908152600490fd5b50611eb561023f611a5d565b8211611d7d565b635e765b2560e11b5f908152600490fd5b5080611edb6115215f610635565b14611d58565b61023f969594939291905f611a37565b61022990611f0b5f516020612c135f395f51905f52612332565b611f36565b906001600160a01b0390611562565b90611f2f61023f61158392610616565b8254611f10565b611f426104ba5f61174b565b6001600160a01b03821614611fa457611f72611f6c611f61600961170c565b611840846009611f1f565b91610616565b907f7042586b23181180eb30b4798702d7a0233b7fc2551e89806770e8e5d9392e6a611f9d60405190565b8080611905565b63e6c4247b60e01b5f908152600490fd5b61022990611ef1565b611fc8600361231f565b611fd15f610635565b805b8281101561201257611feb60066110a4836004610642565b611ffd575b600101611fd3565b611fd3565b9061200a611ff891610ea8565b919050611ff0565b5061201c90610f6c565b6120255f610635565b805b835b81101561208b57600461204160066110a48484610642565b612056575b50612029906001015b9050612027565b612083829361206e61116b6120299561204f95610642565b6120788288610f8f565b526111858187610f8f565b929150612046565b5050905090565b61022991906120ad5f516020612c135f395f51905f52612332565b906120bc61116b826004610642565b6120cc61179b60c0830151151590565b612120576119056118fb6118f56121047f95b529ceb2b4c5026133eafcb0f6e7e63f17c39398d1b67e14569272cf3c956b9487612641565b9561184087600161211a8961068186600561061f565b0161156c565b630bb6646b60e01b5f908152600490fd5b9061022991612092565b610229906121555f516020612c135f395f51905f52612332565b6121616104ba5f61174b565b6001600160a01b03821614611fa45761218b611f6c612180600861170c565b611840846008611f1f565b907f3031b4b27765dea43fa73ae93b7d9fda4f5fa1019ac8d1f82c4f48b6189da2f2611f9d60405190565b6102299061213b565b90610229916121d0611207826111c4565b90610229916123a9565b90610229916121bf565b610229906121fe5f516020612c135f395f51905f52612332565b9060049161221461179b60066110a48487610642565b612268576122325f600661222c846122379697610642565b0161162e565b610635565b7ffe9e2f781236bffd062f9dfcd0b9b06f51589ac3187e0cb8532d990a0d3fe96461226160405190565b80806115f2565b630bb6646b60e01b5f9081528390fd5b610229906121e4565b9061229a612290610764845490565b925f5260205f2090565b905f5b8181106122aa5750505090565b9091926122ce6122c76001926122bf87610653565b815260200190565b9460010190565b92910161229d565b9061023f91612281565b90610229610cf7926122f160405190565b938480926122d6565b61023f906122e0565b61231a61023f91612312606090565b50600661061f565b6122fa565b5f61023f9161232b5f90565b5001610653565b6102299033906128fd565b61234a61179b8383611a12565b612352575050565b61236b6001612366845f611a2c86826111be565b61162e565b612379611f6c6115e2339390565b917f2f8788117e7eff1d82e926ec794901d17c78024a50270940304540a733656f0d6123a460405190565b5f90a4565b6123b38282611a12565b6123bb575050565b6123ce5f6123668482611a2c86826111be565b6123dc611f6c6115e2339390565b917ff6391f5c32d9c69d2a47ea670b442974b53935d1edc7fd64eb21e047a839171b6123a460405190565b61240f6129cd565b61022961241d5f600161162e565b7f5db9ee0a495bf2e6ff9c91a7834c1ba4fdd244a5e8aa4e537bd38aeae4b073aa612447336105a1565b0390a1565b610229612407565b1561245b57565b60405162461bcd60e51b815260206004820152601060248201526f14185d5cd8589b194e881c185d5cd95960821b6044820152606490fd5b6102296124a161179b6119df565b612454565b61023f6002610635565b156124b757565b60405162461bcd60e51b815260206004820152601f60248201527f5265656e7472616e637947756172643a207265656e7472616e742063616c6c006044820152606490fd5b6102296125096002610653565b61251d6125146124a6565b918214156124b0565b600261156c565b61023f6001610635565b61022961251d612524565b9050519061022982610467565b60ff8116610215565b9050519061022982612546565b63ffffffff8116610215565b905051906102298261255c565b919060c083820312610205576125ec9060a061259160c0610ebb565b9461259c8382612539565b86526125ab836020830161254f565b60208701526125bd8360408301612539565b60408701526125cf8360608301612539565b60608701526125e18360808301612568565b608087015201612568565b60a0830152565b9060c0828203126102055761023f91612575565b61066261023f61023f9290565b61023f6032612607565b61023f61023f61023f9260ff1690565b61023f61023f61023f9263ffffffff1690565b9060200161264e81611ad0565b61265b6110f760026102c5565b146127f25761266a600861170c565b6126796118ad6104ba5f61174b565b146127e75760c06126bf92612694611840611840600861170c565b6040519485928391829163332d56d760e01b8352600483016001600160a01b03909116815260200190565b03915afa91821561198c575f926127b6575b506126db81611ad0565b6126e76110f75f6102c5565b03612700575060a0015161023f9063ffffffff1661262e565b61270981611ad0565b6127166110f760016102c5565b0361272357506040015190565b61272c81611ad0565b6127396110f760046102c5565b0361275257506080015161023f9063ffffffff1661262e565b61275b90611ad0565b6127686110f760036102c5565b14612777575061023f5f610635565b602061023f9101612789815160ff1690565b90612792612614565b9160ff808416911611156127a6575061261e565b5160ff16905061261e565b61261e565b6127d991925060c03d60c0116127e0575b6127d18183610cb6565b8101906125f3565b905f6126d1565b503d6127c7565b505061023f5f610635565b506111f161023f91600761061f565b612809612493565b61022961281760018061162e565b7f62e78cea01bee320cd4e420270b5ea74000d11b0c9f74754ebdbfc544b05a258612447336105a1565b610229612801565b610229906115a75f61285b6001610635565b92019161033683610653565b61023f90610635565b61033661288892602092612882815190565b94859290565b938491016102e1565b6128cf61023f93926128c96128c9937f416363657373436f6e74726f6c3a206163636f756e7420000000000000000000815260170190565b90612870565b7001034b99036b4b9b9b4b733903937b6329607d1b815260110190565b602080825261023f92910190610302565b9061290b61179b8284611a12565b612913575050565b61295d61023f6112859361294561293561292f612969966129fd565b92612867565b61293f6020610635565b90612af4565b9061294f60405190565b938492602084019283612891565b90810382520382610cb6565b60405162461bcd60e51b8152918291600483016128ec565b1561298857565b60405162461bcd60e51b815260206004820152601460248201527f5061757361626c653a206e6f74207061757365640000000000000000000000006044820152606490fd5b6102296129d86119df565b612981565b61023f61023f61023f926001600160a01b031690565b61023f6014612607565b612a1a612a1561023f92612a0f606090565b5061060d565b6129dd565b61293f6127b16129f3565b81810292918115918404141715610eb657565b91908201809211610eb657565b90610ef9610ef483611a73565b906102296112ed612a6284612a45565b93611a73565b90612a71825190565b811015610988570160200190565b8015610eb6575f190190565b61023f90612a9f61152161023f9460ff1690565b901c90565b15612aab57565b60405162461bcd60e51b815280611285600482016020808252818101527f537472696e67733a20686578206c656e67746820696e73756666696369656e74604082015260600190565b612b22612b1d612b0d84612b086002610635565b612a25565b612b176002610635565b90612a38565b612a52565b916030612b37612b315f610635565b85612a68565b53600f60fb1b612b70612b6760019384935f1a612b5c612b5686610635565b89612a68565b53612b086002610635565b612b1783610635565b915b612b93575b50509061023f61023f92612b8d6115215f610635565b14612aa4565b9091612b9e82610635565b831115612c0c576f181899199a1a9b1b9c1cb0b131b232b360811b612bc3600f610635565b8216906010821015610988578392612be3612c0092612c06941a60f81b90565b5f1a612bef8789612a68565b53612bfa6004612607565b90612a8b565b93612a7f565b91612b72565b91612b7756fea49807205ce4d355092ef5a8a18f56e8913cf4a201fbe287825b095693c21775a2646970667358221220dbd83541349922afeca8dd1b28c6fa2d7825e31cdff11fb4d0cf9fc8c377bf9664736f6c634300081c0033",
  "linkReferences": {},
  "deployedLinkReferences": {}
}