{
  "_format": "hh-sol-artifact-1",
  "contractName": "GameifiedMarketplaceCoreV1",
  "sourceName": "contracts/Marketplace/GameifiedMarketplaceCoreV1.sol",
  "abi": [
    {
      "inputs": [],
      "stateMutability": "nonpayable",
      "type": "constructor"
    },
    {
      "inputs": [],
      "name": "InsufficientPayment",
      "type": "error"
    },
    {
      "inputs": [],
      "name": "NoOffersAvailable",
      "type": "error"
    },
    {
      "inputs": [],
      "name": "NotTokenOwner",
      "type": "error"
    },
    {
      "inputs": [],
      "name": "TokenNotFound",
      "type": "error"
    },
    {
      "inputs": [],
      "name": "TokenNotListed",
      "type": "error"
    },
    {
      "anonymous": false,
      "inputs": [
        {
          "indexed": false,
          "internalType": "address",
          "name": "previousAdmin",
          "type": "address"
        },
        {
          "indexed": false,
          "internalType": "address",
          "name": "newAdmin",
          "type": "address"
        }
      ],
      "name": "AdminChanged",
      "type": "event"
    },
    {
      "anonymous": false,
      "inputs": [
        {
          "indexed": true,
          "internalType": "address",
          "name": "owner",
          "type": "address"
        },
        {
          "indexed": true,
          "internalType": "address",
          "name": "approved",
          "type": "address"
        },
        {
          "indexed": true,
          "internalType": "uint256",
          "name": "tokenId",
          "type": "uint256"
        }
      ],
      "name": "Approval",
      "type": "event"
    },
    {
      "anonymous": false,
      "inputs": [
        {
          "indexed": true,
          "internalType": "address",
          "name": "owner",
          "type": "address"
        },
        {
          "indexed": true,
          "internalType": "address",
          "name": "operator",
          "type": "address"
        },
        {
          "indexed": false,
          "internalType": "bool",
          "name": "approved",
          "type": "bool"
        }
      ],
      "name": "ApprovalForAll",
      "type": "event"
    },
    {
      "anonymous": false,
      "inputs": [
        {
          "indexed": false,
          "internalType": "uint256",
          "name": "_fromTokenId",
          "type": "uint256"
        },
        {
          "indexed": false,
          "internalType": "uint256",
          "name": "_toTokenId",
          "type": "uint256"
        }
      ],
      "name": "BatchMetadataUpdate",
      "type": "event"
    },
    {
      "anonymous": false,
      "inputs": [
        {
          "indexed": true,
          "internalType": "address",
          "name": "beacon",
          "type": "address"
        }
      ],
      "name": "BeaconUpgraded",
      "type": "event"
    },
    {
      "anonymous": false,
      "inputs": [
        {
          "indexed": true,
          "internalType": "address",
          "name": "user",
          "type": "address"
        },
        {
          "indexed": true,
          "internalType": "uint256",
          "name": "tokenId",
          "type": "uint256"
        },
        {
          "indexed": false,
          "internalType": "string",
          "name": "comment",
          "type": "string"
        }
      ],
      "name": "CommentAdded",
      "type": "event"
    },
    {
      "anonymous": false,
      "inputs": [
        {
          "indexed": false,
          "internalType": "uint8",
          "name": "version",
          "type": "uint8"
        }
      ],
      "name": "Initialized",
      "type": "event"
    },
    {
      "anonymous": false,
      "inputs": [
        {
          "indexed": true,
          "internalType": "address",
          "name": "user",
          "type": "address"
        },
        {
          "indexed": false,
          "internalType": "uint8",
          "name": "newLevel",
          "type": "uint8"
        }
      ],
      "name": "LevelUp",
      "type": "event"
    },
    {
      "anonymous": false,
      "inputs": [
        {
          "indexed": true,
          "internalType": "address",
          "name": "user",
          "type": "address"
        },
        {
          "indexed": true,
          "internalType": "uint256",
          "name": "tokenId",
          "type": "uint256"
        },
        {
          "indexed": false,
          "internalType": "bool",
          "name": "liked",
          "type": "bool"
        }
      ],
      "name": "LikeToggled",
      "type": "event"
    },
    {
      "anonymous": false,
      "inputs": [
        {
          "indexed": false,
          "internalType": "uint256",
          "name": "_tokenId",
          "type": "uint256"
        }
      ],
      "name": "MetadataUpdate",
      "type": "event"
    },
    {
      "anonymous": false,
      "inputs": [
        {
          "indexed": true,
          "internalType": "address",
          "name": "seller",
          "type": "address"
        },
        {
          "indexed": true,
          "internalType": "address",
          "name": "buyer",
          "type": "address"
        },
        {
          "indexed": true,
          "internalType": "uint256",
          "name": "tokenId",
          "type": "uint256"
        },
        {
          "indexed": false,
          "internalType": "uint256",
          "name": "amount",
          "type": "uint256"
        }
      ],
      "name": "OfferAccepted",
      "type": "event"
    },
    {
      "anonymous": false,
      "inputs": [
        {
          "indexed": true,
          "internalType": "address",
          "name": "offeror",
          "type": "address"
        },
        {
          "indexed": true,
          "internalType": "uint256",
          "name": "tokenId",
          "type": "uint256"
        },
        {
          "indexed": false,
          "internalType": "uint256",
          "name": "amount",
          "type": "uint256"
        }
      ],
      "name": "OfferMade",
      "type": "event"
    },
    {
      "anonymous": false,
      "inputs": [
        {
          "indexed": false,
          "internalType": "address",
          "name": "account",
          "type": "address"
        }
      ],
      "name": "Paused",
      "type": "event"
    },
    {
      "anonymous": false,
      "inputs": [
        {
          "indexed": true,
          "internalType": "address",
          "name": "seller",
          "type": "address"
        },
        {
          "indexed": true,
          "internalType": "uint256",
          "name": "tokenId",
          "type": "uint256"
        },
        {
          "indexed": false,
          "internalType": "uint256",
          "name": "newPrice",
          "type": "uint256"
        }
      ],
      "name": "PriceUpdated",
      "type": "event"
    },
    {
      "anonymous": false,
      "inputs": [
        {
          "indexed": true,
          "internalType": "address",
          "name": "oldAddress",
          "type": "address"
        },
        {
          "indexed": true,
          "internalType": "address",
          "name": "newAddress",
          "type": "address"
        }
      ],
      "name": "QuestsContractUpdated",
      "type": "event"
    },
    {
      "anonymous": false,
      "inputs": [
        {
          "indexed": true,
          "internalType": "bytes32",
          "name": "role",
          "type": "bytes32"
        },
        {
          "indexed": true,
          "internalType": "bytes32",
          "name": "previousAdminRole",
          "type": "bytes32"
        },
        {
          "indexed": true,
          "internalType": "bytes32",
          "name": "newAdminRole",
          "type": "bytes32"
        }
      ],
      "name": "RoleAdminChanged",
      "type": "event"
    },
    {
      "anonymous": false,
      "inputs": [
        {
          "indexed": true,
          "internalType": "bytes32",
          "name": "role",
          "type": "bytes32"
        },
        {
          "indexed": true,
          "internalType": "address",
          "name": "account",
          "type": "address"
        },
        {
          "indexed": true,
          "internalType": "address",
          "name": "sender",
          "type": "address"
        }
      ],
      "name": "RoleGranted",
      "type": "event"
    },
    {
      "anonymous": false,
      "inputs": [
        {
          "indexed": true,
          "internalType": "bytes32",
          "name": "role",
          "type": "bytes32"
        },
        {
          "indexed": true,
          "internalType": "address",
          "name": "account",
          "type": "address"
        },
        {
          "indexed": true,
          "internalType": "address",
          "name": "sender",
          "type": "address"
        }
      ],
      "name": "RoleRevoked",
      "type": "event"
    },
    {
      "anonymous": false,
      "inputs": [
        {
          "indexed": true,
          "internalType": "address",
          "name": "oldAddress",
          "type": "address"
        },
        {
          "indexed": true,
          "internalType": "address",
          "name": "newAddress",
          "type": "address"
        }
      ],
      "name": "SkillsContractUpdated",
      "type": "event"
    },
    {
      "anonymous": false,
      "inputs": [
        {
          "indexed": true,
          "internalType": "address",
          "name": "oldAddress",
          "type": "address"
        },
        {
          "indexed": true,
          "internalType": "address",
          "name": "newAddress",
          "type": "address"
        }
      ],
      "name": "StakingContractUpdated",
      "type": "event"
    },
    {
      "anonymous": false,
      "inputs": [
        {
          "indexed": true,
          "internalType": "address",
          "name": "creator",
          "type": "address"
        },
        {
          "indexed": true,
          "internalType": "uint256",
          "name": "tokenId",
          "type": "uint256"
        },
        {
          "indexed": false,
          "internalType": "string",
          "name": "uri",
          "type": "string"
        }
      ],
      "name": "TokenCreated",
      "type": "event"
    },
    {
      "anonymous": false,
      "inputs": [
        {
          "indexed": true,
          "internalType": "address",
          "name": "seller",
          "type": "address"
        },
        {
          "indexed": true,
          "internalType": "uint256",
          "name": "tokenId",
          "type": "uint256"
        },
        {
          "indexed": false,
          "internalType": "uint256",
          "name": "price",
          "type": "uint256"
        }
      ],
      "name": "TokenListed",
      "type": "event"
    },
    {
      "anonymous": false,
      "inputs": [
        {
          "indexed": true,
          "internalType": "address",
          "name": "seller",
          "type": "address"
        },
        {
          "indexed": true,
          "internalType": "address",
          "name": "buyer",
          "type": "address"
        },
        {
          "indexed": true,
          "internalType": "uint256",
          "name": "tokenId",
          "type": "uint256"
        },
        {
          "indexed": false,
          "internalType": "uint256",
          "name": "price",
          "type": "uint256"
        }
      ],
      "name": "TokenSold",
      "type": "event"
    },
    {
      "anonymous": false,
      "inputs": [
        {
          "indexed": true,
          "internalType": "address",
          "name": "seller",
          "type": "address"
        },
        {
          "indexed": true,
          "internalType": "uint256",
          "name": "tokenId",
          "type": "uint256"
        }
      ],
      "name": "TokenUnlisted",
      "type": "event"
    },
    {
      "anonymous": false,
      "inputs": [
        {
          "indexed": true,
          "internalType": "address",
          "name": "from",
          "type": "address"
        },
        {
          "indexed": true,
          "internalType": "address",
          "name": "to",
          "type": "address"
        },
        {
          "indexed": true,
          "internalType": "uint256",
          "name": "tokenId",
          "type": "uint256"
        }
      ],
      "name": "Transfer",
      "type": "event"
    },
    {
      "anonymous": false,
      "inputs": [
        {
          "indexed": false,
          "internalType": "address",
          "name": "account",
          "type": "address"
        }
      ],
      "name": "Unpaused",
      "type": "event"
    },
    {
      "anonymous": false,
      "inputs": [
        {
          "indexed": true,
          "internalType": "address",
          "name": "implementation",
          "type": "address"
        }
      ],
      "name": "Upgraded",
      "type": "event"
    },
    {
      "anonymous": false,
      "inputs": [
        {
          "indexed": true,
          "internalType": "address",
          "name": "user",
          "type": "address"
        },
        {
          "indexed": false,
          "internalType": "uint256",
          "name": "amount",
          "type": "uint256"
        },
        {
          "indexed": false,
          "internalType": "string",
          "name": "reason",
          "type": "string"
        }
      ],
      "name": "XPGained",
      "type": "event"
    },
    {
      "inputs": [],
      "name": "ADMIN_ROLE",
      "outputs": [
        {
          "internalType": "bytes32",
          "name": "",
          "type": "bytes32"
        }
      ],
      "stateMutability": "view",
      "type": "function"
    },
    {
      "inputs": [],
      "name": "DEFAULT_ADMIN_ROLE",
      "outputs": [
        {
          "internalType": "bytes32",
          "name": "",
          "type": "bytes32"
        }
      ],
      "stateMutability": "view",
      "type": "function"
    },
    {
      "inputs": [],
      "name": "PLATFORM_FEE_PERCENTAGE",
      "outputs": [
        {
          "internalType": "uint256",
          "name": "",
          "type": "uint256"
        }
      ],
      "stateMutability": "view",
      "type": "function"
    },
    {
      "inputs": [],
      "name": "UPGRADER_ROLE",
      "outputs": [
        {
          "internalType": "bytes32",
          "name": "",
          "type": "bytes32"
        }
      ],
      "stateMutability": "view",
      "type": "function"
    },
    {
      "inputs": [
        {
          "internalType": "uint256",
          "name": "_tokenId",
          "type": "uint256"
        },
        {
          "internalType": "uint256",
          "name": "_offerIndex",
          "type": "uint256"
        }
      ],
      "name": "acceptOffer",
      "outputs": [],
      "stateMutability": "nonpayable",
      "type": "function"
    },
    {
      "inputs": [
        {
          "internalType": "uint256",
          "name": "_tokenId",
          "type": "uint256"
        },
        {
          "internalType": "string",
          "name": "_text",
          "type": "string"
        }
      ],
      "name": "addComment",
      "outputs": [],
      "stateMutability": "nonpayable",
      "type": "function"
    },
    {
      "inputs": [
        {
          "internalType": "address",
          "name": "to",
          "type": "address"
        },
        {
          "internalType": "uint256",
          "name": "tokenId",
          "type": "uint256"
        }
      ],
      "name": "approve",
      "outputs": [],
      "stateMutability": "nonpayable",
      "type": "function"
    },
    {
      "inputs": [
        {
          "internalType": "address",
          "name": "owner",
          "type": "address"
        }
      ],
      "name": "balanceOf",
      "outputs": [
        {
          "internalType": "uint256",
          "name": "",
          "type": "uint256"
        }
      ],
      "stateMutability": "view",
      "type": "function"
    },
    {
      "inputs": [
        {
          "internalType": "uint256",
          "name": "_tokenId",
          "type": "uint256"
        }
      ],
      "name": "buyToken",
      "outputs": [],
      "stateMutability": "payable",
      "type": "function"
    },
    {
      "inputs": [
        {
          "internalType": "uint256",
          "name": "_tokenId",
          "type": "uint256"
        },
        {
          "internalType": "uint256",
          "name": "_offerIndex",
          "type": "uint256"
        }
      ],
      "name": "cancelOffer",
      "outputs": [],
      "stateMutability": "nonpayable",
      "type": "function"
    },
    {
      "inputs": [
        {
          "internalType": "string",
          "name": "_tokenURI",
          "type": "string"
        },
        {
          "internalType": "string",
          "name": "_category",
          "type": "string"
        },
        {
          "internalType": "uint96",
          "name": "_royaltyPercentage",
          "type": "uint96"
        }
      ],
      "name": "createStandardNFT",
      "outputs": [
        {
          "internalType": "uint256",
          "name": "",
          "type": "uint256"
        }
      ],
      "stateMutability": "nonpayable",
      "type": "function"
    },
    {
      "inputs": [
        {
          "internalType": "uint256",
          "name": "tokenId",
          "type": "uint256"
        }
      ],
      "name": "getApproved",
      "outputs": [
        {
          "internalType": "address",
          "name": "",
          "type": "address"
        }
      ],
      "stateMutability": "view",
      "type": "function"
    },
    {
      "inputs": [
        {
          "internalType": "bytes32",
          "name": "role",
          "type": "bytes32"
        }
      ],
      "name": "getRoleAdmin",
      "outputs": [
        {
          "internalType": "bytes32",
          "name": "",
          "type": "bytes32"
        }
      ],
      "stateMutability": "view",
      "type": "function"
    },
    {
      "inputs": [
        {
          "internalType": "address",
          "name": "_user",
          "type": "address"
        }
      ],
      "name": "getUserProfile",
      "outputs": [
        {
          "components": [
            {
              "internalType": "uint256",
              "name": "totalXP",
              "type": "uint256"
            },
            {
              "internalType": "uint8",
              "name": "level",
              "type": "uint8"
            },
            {
              "internalType": "uint256",
              "name": "nftsCreated",
              "type": "uint256"
            },
            {
              "internalType": "uint256",
              "name": "nftsOwned",
              "type": "uint256"
            },
            {
              "internalType": "uint32",
              "name": "nftsSold",
              "type": "uint32"
            },
            {
              "internalType": "uint32",
              "name": "nftsBought",
              "type": "uint32"
            }
          ],
          "internalType": "struct GameifiedMarketplaceCoreV1.UserProfile",
          "name": "",
          "type": "tuple"
        }
      ],
      "stateMutability": "view",
      "type": "function"
    },
    {
      "inputs": [
        {
          "internalType": "bytes32",
          "name": "role",
          "type": "bytes32"
        },
        {
          "internalType": "address",
          "name": "account",
          "type": "address"
        }
      ],
      "name": "grantRole",
      "outputs": [],
      "stateMutability": "nonpayable",
      "type": "function"
    },
    {
      "inputs": [
        {
          "internalType": "bytes32",
          "name": "role",
          "type": "bytes32"
        },
        {
          "internalType": "address",
          "name": "account",
          "type": "address"
        }
      ],
      "name": "hasRole",
      "outputs": [
        {
          "internalType": "bool",
          "name": "",
          "type": "bool"
        }
      ],
      "stateMutability": "view",
      "type": "function"
    },
    {
      "inputs": [
        {
          "internalType": "address",
          "name": "_platformTreasury",
          "type": "address"
        }
      ],
      "name": "initialize",
      "outputs": [],
      "stateMutability": "nonpayable",
      "type": "function"
    },
    {
      "inputs": [
        {
          "internalType": "address",
          "name": "owner",
          "type": "address"
        },
        {
          "internalType": "address",
          "name": "operator",
          "type": "address"
        }
      ],
      "name": "isApprovedForAll",
      "outputs": [
        {
          "internalType": "bool",
          "name": "",
          "type": "bool"
        }
      ],
      "stateMutability": "view",
      "type": "function"
    },
    {
      "inputs": [
        {
          "internalType": "uint256",
          "name": "",
          "type": "uint256"
        }
      ],
      "name": "isListed",
      "outputs": [
        {
          "internalType": "bool",
          "name": "",
          "type": "bool"
        }
      ],
      "stateMutability": "view",
      "type": "function"
    },
    {
      "inputs": [
        {
          "internalType": "uint256",
          "name": "_tokenId",
          "type": "uint256"
        },
        {
          "internalType": "uint256",
          "name": "_price",
          "type": "uint256"
        }
      ],
      "name": "listTokenForSale",
      "outputs": [],
      "stateMutability": "nonpayable",
      "type": "function"
    },
    {
      "inputs": [
        {
          "internalType": "uint256",
          "name": "",
          "type": "uint256"
        }
      ],
      "name": "listedPrice",
      "outputs": [
        {
          "internalType": "uint256",
          "name": "",
          "type": "uint256"
        }
      ],
      "stateMutability": "view",
      "type": "function"
    },
    {
      "inputs": [
        {
          "internalType": "uint256",
          "name": "_tokenId",
          "type": "uint256"
        },
        {
          "internalType": "uint8",
          "name": "_expiresInDays",
          "type": "uint8"
        }
      ],
      "name": "makeOffer",
      "outputs": [],
      "stateMutability": "payable",
      "type": "function"
    },
    {
      "inputs": [],
      "name": "name",
      "outputs": [
        {
          "internalType": "string",
          "name": "",
          "type": "string"
        }
      ],
      "stateMutability": "view",
      "type": "function"
    },
    {
      "inputs": [
        {
          "internalType": "uint256",
          "name": "",
          "type": "uint256"
        },
        {
          "internalType": "uint256",
          "name": "",
          "type": "uint256"
        }
      ],
      "name": "nftComments",
      "outputs": [
        {
          "internalType": "string",
          "name": "",
          "type": "string"
        }
      ],
      "stateMutability": "view",
      "type": "function"
    },
    {
      "inputs": [
        {
          "internalType": "uint256",
          "name": "",
          "type": "uint256"
        }
      ],
      "name": "nftLikeCount",
      "outputs": [
        {
          "internalType": "uint256",
          "name": "",
          "type": "uint256"
        }
      ],
      "stateMutability": "view",
      "type": "function"
    },
    {
      "inputs": [
        {
          "internalType": "uint256",
          "name": "",
          "type": "uint256"
        },
        {
          "internalType": "address",
          "name": "",
          "type": "address"
        }
      ],
      "name": "nftLikes",
      "outputs": [
        {
          "internalType": "bool",
          "name": "",
          "type": "bool"
        }
      ],
      "stateMutability": "view",
      "type": "function"
    },
    {
      "inputs": [
        {
          "internalType": "uint256",
          "name": "",
          "type": "uint256"
        }
      ],
      "name": "nftMetadata",
      "outputs": [
        {
          "internalType": "address",
          "name": "creator",
          "type": "address"
        },
        {
          "internalType": "string",
          "name": "uri",
          "type": "string"
        },
        {
          "internalType": "string",
          "name": "category",
          "type": "string"
        },
        {
          "internalType": "uint256",
          "name": "createdAt",
          "type": "uint256"
        },
        {
          "internalType": "uint96",
          "name": "royaltyPercentage",
          "type": "uint96"
        }
      ],
      "stateMutability": "view",
      "type": "function"
    },
    {
      "inputs": [
        {
          "internalType": "uint256",
          "name": "",
          "type": "uint256"
        },
        {
          "internalType": "uint256",
          "name": "",
          "type": "uint256"
        }
      ],
      "name": "nftOffers",
      "outputs": [
        {
          "internalType": "address",
          "name": "offeror",
          "type": "address"
        },
        {
          "internalType": "uint256",
          "name": "amount",
          "type": "uint256"
        },
        {
          "internalType": "uint8",
          "name": "expiresInDays",
          "type": "uint8"
        },
        {
          "internalType": "uint256",
          "name": "timestamp",
          "type": "uint256"
        }
      ],
      "stateMutability": "view",
      "type": "function"
    },
    {
      "inputs": [
        {
          "internalType": "uint256",
          "name": "tokenId",
          "type": "uint256"
        }
      ],
      "name": "ownerOf",
      "outputs": [
        {
          "internalType": "address",
          "name": "",
          "type": "address"
        }
      ],
      "stateMutability": "view",
      "type": "function"
    },
    {
      "inputs": [],
      "name": "pause",
      "outputs": [],
      "stateMutability": "nonpayable",
      "type": "function"
    },
    {
      "inputs": [],
      "name": "paused",
      "outputs": [
        {
          "internalType": "bool",
          "name": "",
          "type": "bool"
        }
      ],
      "stateMutability": "view",
      "type": "function"
    },
    {
      "inputs": [],
      "name": "platformTreasury",
      "outputs": [
        {
          "internalType": "address",
          "name": "",
          "type": "address"
        }
      ],
      "stateMutability": "view",
      "type": "function"
    },
    {
      "inputs": [],
      "name": "proxiableUUID",
      "outputs": [
        {
          "internalType": "bytes32",
          "name": "",
          "type": "bytes32"
        }
      ],
      "stateMutability": "view",
      "type": "function"
    },
    {
      "inputs": [],
      "name": "questsContractAddress",
      "outputs": [
        {
          "internalType": "address",
          "name": "",
          "type": "address"
        }
      ],
      "stateMutability": "view",
      "type": "function"
    },
    {
      "inputs": [
        {
          "internalType": "bytes32",
          "name": "role",
          "type": "bytes32"
        },
        {
          "internalType": "address",
          "name": "account",
          "type": "address"
        }
      ],
      "name": "renounceRole",
      "outputs": [],
      "stateMutability": "nonpayable",
      "type": "function"
    },
    {
      "inputs": [
        {
          "internalType": "bytes32",
          "name": "role",
          "type": "bytes32"
        },
        {
          "internalType": "address",
          "name": "account",
          "type": "address"
        }
      ],
      "name": "revokeRole",
      "outputs": [],
      "stateMutability": "nonpayable",
      "type": "function"
    },
    {
      "inputs": [
        {
          "internalType": "uint256",
          "name": "tokenId",
          "type": "uint256"
        },
        {
          "internalType": "uint256",
          "name": "salePrice",
          "type": "uint256"
        }
      ],
      "name": "royaltyInfo",
      "outputs": [
        {
          "internalType": "address",
          "name": "",
          "type": "address"
        },
        {
          "internalType": "uint256",
          "name": "",
          "type": "uint256"
        }
      ],
      "stateMutability": "view",
      "type": "function"
    },
    {
      "inputs": [
        {
          "internalType": "address",
          "name": "from",
          "type": "address"
        },
        {
          "internalType": "address",
          "name": "to",
          "type": "address"
        },
        {
          "internalType": "uint256",
          "name": "tokenId",
          "type": "uint256"
        }
      ],
      "name": "safeTransferFrom",
      "outputs": [],
      "stateMutability": "nonpayable",
      "type": "function"
    },
    {
      "inputs": [
        {
          "internalType": "address",
          "name": "from",
          "type": "address"
        },
        {
          "internalType": "address",
          "name": "to",
          "type": "address"
        },
        {
          "internalType": "uint256",
          "name": "tokenId",
          "type": "uint256"
        },
        {
          "internalType": "bytes",
          "name": "data",
          "type": "bytes"
        }
      ],
      "name": "safeTransferFrom",
      "outputs": [],
      "stateMutability": "nonpayable",
      "type": "function"
    },
    {
      "inputs": [
        {
          "internalType": "address",
          "name": "operator",
          "type": "address"
        },
        {
          "internalType": "bool",
          "name": "approved",
          "type": "bool"
        }
      ],
      "name": "setApprovalForAll",
      "outputs": [],
      "stateMutability": "nonpayable",
      "type": "function"
    },
    {
      "inputs": [
        {
          "internalType": "address",
          "name": "_questsAddress",
          "type": "address"
        }
      ],
      "name": "setQuestsContract",
      "outputs": [],
      "stateMutability": "nonpayable",
      "type": "function"
    },
    {
      "inputs": [
        {
          "internalType": "address",
          "name": "_skillsAddress",
          "type": "address"
        }
      ],
      "name": "setSkillsContract",
      "outputs": [],
      "stateMutability": "nonpayable",
      "type": "function"
    },
    {
      "inputs": [
        {
          "internalType": "address",
          "name": "_stakingAddress",
          "type": "address"
        }
      ],
      "name": "setStakingContract",
      "outputs": [],
      "stateMutability": "nonpayable",
      "type": "function"
    },
    {
      "inputs": [],
      "name": "skillsContractAddress",
      "outputs": [
        {
          "internalType": "address",
          "name": "",
          "type": "address"
        }
      ],
      "stateMutability": "view",
      "type": "function"
    },
    {
      "inputs": [],
      "name": "stakingContractAddress",
      "outputs": [
        {
          "internalType": "address",
          "name": "",
          "type": "address"
        }
      ],
      "stateMutability": "view",
      "type": "function"
    },
    {
      "inputs": [
        {
          "internalType": "bytes4",
          "name": "interfaceId",
          "type": "bytes4"
        }
      ],
      "name": "supportsInterface",
      "outputs": [
        {
          "internalType": "bool",
          "name": "",
          "type": "bool"
        }
      ],
      "stateMutability": "view",
      "type": "function"
    },
    {
      "inputs": [],
      "name": "symbol",
      "outputs": [
        {
          "internalType": "string",
          "name": "",
          "type": "string"
        }
      ],
      "stateMutability": "view",
      "type": "function"
    },
    {
      "inputs": [
        {
          "internalType": "uint256",
          "name": "_tokenId",
          "type": "uint256"
        }
      ],
      "name": "toggleLike",
      "outputs": [],
      "stateMutability": "nonpayable",
      "type": "function"
    },
    {
      "inputs": [
        {
          "internalType": "uint256",
          "name": "tokenId",
          "type": "uint256"
        }
      ],
      "name": "tokenURI",
      "outputs": [
        {
          "internalType": "string",
          "name": "",
          "type": "string"
        }
      ],
      "stateMutability": "view",
      "type": "function"
    },
    {
      "inputs": [
        {
          "internalType": "address",
          "name": "from",
          "type": "address"
        },
        {
          "internalType": "address",
          "name": "to",
          "type": "address"
        },
        {
          "internalType": "uint256",
          "name": "tokenId",
          "type": "uint256"
        }
      ],
      "name": "transferFrom",
      "outputs": [],
      "stateMutability": "nonpayable",
      "type": "function"
    },
    {
      "inputs": [
        {
          "internalType": "uint256",
          "name": "_tokenId",
          "type": "uint256"
        }
      ],
      "name": "unlistToken",
      "outputs": [],
      "stateMutability": "nonpayable",
      "type": "function"
    },
    {
      "inputs": [],
      "name": "unpause",
      "outputs": [],
      "stateMutability": "nonpayable",
      "type": "function"
    },
    {
      "inputs": [
        {
          "internalType": "uint256",
          "name": "_tokenId",
          "type": "uint256"
        },
        {
          "internalType": "uint256",
          "name": "_newPrice",
          "type": "uint256"
        }
      ],
      "name": "updatePrice",
      "outputs": [],
      "stateMutability": "nonpayable",
      "type": "function"
    },
    {
      "inputs": [
        {
          "internalType": "address",
          "name": "_user",
          "type": "address"
        },
        {
          "internalType": "uint256",
          "name": "_amount",
          "type": "uint256"
        }
      ],
      "name": "updateUserXP",
      "outputs": [],
      "stateMutability": "nonpayable",
      "type": "function"
    },
    {
      "inputs": [
        {
          "internalType": "address",
          "name": "newImplementation",
          "type": "address"
        }
      ],
      "name": "upgradeTo",
      "outputs": [],
      "stateMutability": "nonpayable",
      "type": "function"
    },
    {
      "inputs": [
        {
          "internalType": "address",
          "name": "newImplementation",
          "type": "address"
        },
        {
          "internalType": "bytes",
          "name": "data",
          "type": "bytes"
        }
      ],
      "name": "upgradeToAndCall",
      "outputs": [],
      "stateMutability": "payable",
      "type": "function"
    },
    {
      "inputs": [
        {
          "internalType": "address",
          "name": "",
          "type": "address"
        }
      ],
      "name": "userProfiles",
      "outputs": [
        {
          "internalType": "uint256",
          "name": "totalXP",
          "type": "uint256"
        },
        {
          "internalType": "uint8",
          "name": "level",
          "type": "uint8"
        },
        {
          "internalType": "uint256",
          "name": "nftsCreated",
          "type": "uint256"
        },
        {
          "internalType": "uint256",
          "name": "nftsOwned",
          "type": "uint256"
        },
        {
          "internalType": "uint32",
          "name": "nftsSold",
          "type": "uint32"
        },
        {
          "internalType": "uint32",
          "name": "nftsBought",
          "type": "uint32"
        }
      ],
      "stateMutability": "view",
      "type": "function"
    }
  ],
  "bytecode": "0x60a06040523461003257610011610108565b60405161569d61051a823960805181818161212b01526122ee015261569d90f35b5f80fd5b634e487b7160e01b5f52604160045260245ffd5b90601f01601f191681019081106001600160401b0382111761006b57604052565b610036565b9061008461007d60405190565b928361004a565b565b6001600160401b03811161006b57602090601f01601f19160190565b906100b46100af83610086565b610070565b918252565b6100c3600c6100a2565b6b11d85b595a599a595913919560a21b602082015290565b6100e36100b9565b90565b6100f060046100a2565b6311d3919560e21b602082015290565b6100e36100e6565b6101216101136100db565b61011b610100565b9061015b565b6100846104aa565b6100e39061013d906001600160a01b031682565b6001600160a01b031690565b6100e390610129565b6100e390610149565b9061016591610173565b61016e30610152565b608052565b610084918291829182916101ac565b9060ff905b9181191691161790565b906101a16100e36101a892151590565b8254610182565b9055565b906101b6916101f8565b6100845f600b610191565b6100e36100e36100e39290565b6100e360016101c1565b905f1990610187565b906101f16100e36101a8926101c1565b82546101d8565b9061020291610214565b61008461020d6101ce565b600a6101e1565b6100849182918291906103d6565b634e487b7160e01b5f52602260045260245ffd5b9060016002830492168015610256575b602083101461025157565b610222565b91607f1691610246565b915f1960089290920291821b911b610187565b91906102846100e36101a8936101c1565b908354610260565b610084915f91610273565b8181106102a2575050565b806102af5f60019361028c565b01610297565b9190601f81116102c457505050565b6102d4610084935f5260205f2090565b906020601f8401819004830193106102f6575b6020601f909101040190610297565b90915081906102e7565b90610309815190565b906001600160401b03821161006b5761032c826103268554610236565b856102b5565b602090601f8311600114610365576101a892915f918361035a575b50505f19600883021c1916906002021790565b015190505f80610347565b601f19831691610378855f5260205f2090565b925f5b8181106103b45750916002939185600196941061039c575b50505002019055565b01515f196008601f8516021c191690555f8080610393565b9193602060018192878701518155019501920161037b565b9061008491610300565b906103e56100849260026103cc565b60036103cc565b6100e39060101c5b60ff1690565b6100e390546103ec565b1561040b57565b60405162461bcd60e51b815260206004820152602760248201527f496e697469616c697a61626c653a20636f6e747261637420697320696e697469604482015266616c697a696e6760c81b6064820152608490fd5b6100e39060081c6103f4565b6100e39054610460565b9061ff009060081b610187565b6103f46100e36100e39260ff1690565b906104a36100e36101a892610483565b8254610476565b6104c36104be6104ba600b6103fa565b1590565b610404565b6104cd600b61046c565b60ff908116036104d957565b6104e560ff600b610493565b7f7f26b83ff96e1f2b6a682f133852f6798a09c465da95921460cefb384740249861050f60405190565b60ff8152602090a156fe60806040526004361015610011575f80fd5b5f3560e01c806301ffc9a7146103a057806306fdde031461039b578063081812fc14610396578063095ea7b314610391578063155482321461038c57806323b872dd146103875780632406e67714610382578063248a9ca31461037d5780632a55205a146103785780632d296bf1146103735780632f2ff15d1461036e578063332d56d7146103695780633535f48b1461036457806336568abe1461035f5780633659cfe61461035a5780633c039039146103555780633f4ba83a1461035057806342842e0e1461034b57806349541015146103465780634f1ef2861461034157806352d1902d1461033c57806354398d18146103375780635c975abb146103325780635efc27d61461032d578063602dcf29146103285780636352211e14610323578063638ac8d31461031e57806370a082311461031957806375b238fc1461031457806377ea168e1461030f5780637de7ff081461030a57806381257bd51461030557806382367b2d146103005780638456cb59146102fb5780638cf53102146102f657806391d14854146102f157806395d89b41146102ec578063987ee156146102e75780639dd373b9146102e2578063a217fddf146102dd578063a22cb465146102d8578063aa7e5683146102d3578063ad3a358c146102ce578063b88d4fde146102c9578063bd4ad42f146102c4578063c4d66de8146102bf578063c87b56dd146102ba578063cb8c8a15146102b5578063d45557cc146102b0578063d489be26146102ab578063d547741f146102a6578063e138818c146102a1578063e5a818f81461029c578063e985e9c514610297578063f72c0d8b14610292578063f748efb81461028d5763fcce4883036103a557611430565b611409565b6113d0565b6113b4565b61137d565b611353565b61132f565b611313565b611293565b611278565b611233565b61121b565b611200565b6111d9565b611171565b611158565b611105565b6110b2565b611089565b611062565b610fe1565b610fc5565b610fad565b610f95565b610f7c565b610f63565b610f44565b610e6d565b610d7f565b610d64565b610d48565b610cf8565b610ce4565b610c92565b610c77565b610c5f565b610c44565b610c30565b610b43565b610927565b61090f565b6108f4565b6108d1565b6108b8565b61089d565b610846565b6106db565b6106a5565b610676565b61063a565b610621565b6105ec565b610597565b61055a565b6104e6565b61048c565b6103e6565b5f80fd5b6001600160e01b031981165b036103a557565b905035906103c9826103a9565b565b906020828203126103a5576103df916103bc565b90565b9052565b346103a5576104146104016103fc3660046103cb565b61144b565b6040515b91829182901515815260200190565b0390f35b5f9103126103a557565b5f5b8381106104335750505f910152565b8181015183820152602001610424565b61046461046d60209361047793610458815190565b80835293849260200190565b95869101610422565b601f01601f191690565b0190565b60208082526103df92910190610443565b346103a55761049c366004610418565b6104146104a761145d565b6040519182918261047b565b806103b5565b905035906103c9826104b3565b906020828203126103a5576103df916104b9565b6001600160a01b031690565b346103a5576104146105016104fc3660046104c6565b611467565b604051918291826001600160a01b03909116815260200190565b6001600160a01b0381166103b5565b905035906103c98261051b565b91906040838203126103a5576103df906020610553828661052a565b94016104b9565b346103a55761057361056d366004610537565b90611558565b604051005b6103df6103df6103df9290565b6103df6005610578565b6103df610585565b346103a5576105a7366004610418565b6104146105b261058f565b6040515b9182918290815260200190565b90916060828403126103a5576103df6105dc848461052a565b936040610553826020870161052a565b346103a5576105736105ff3660046105c3565b9161161b565b91906040838203126103a5576103df90602061055382866104b9565b346103a557610573610634366004610605565b906117ad565b346103a5576104146105b26106503660046104c6565b6117bd565b6001600160a01b0390911681526040810192916103c99160200152565b0152565b346103a55761068f610689366004610605565b906118ce565b9061041461069c60405190565b92839283610655565b6105736106b33660046104c6565b611f97565b91906040838203126103a5576103df9060206106d482866104b9565b940161052a565b346103a5576105736106ee3660046106b8565b90611fc0565b906020828203126103a5576103df9161052a565b6104da6103df6103df926001600160a01b031690565b6103df90610708565b6103df9061071e565b9061073a90610727565b5f5260205260405f2090565b6103df9081565b6103df9054610746565b6103df905b60ff1690565b6103df9054610757565b6103df905b63ffffffff1690565b6103df905461076c565b6103df9060201c610771565b6103df9054610784565b6107a5906014610730565b906107af8261074d565b916107bc60018201610762565b916107c96002830161074d565b916107d66003820161074d565b916103df60046107e781850161077a565b9301610790565b919461082d61083a9298979561082660a09661081f6103c99a61081560c08a019e5f8b0152565b60ff166020890152565b6040870152565b6060850152565b63ffffffff166080830152565b019063ffffffff169052565b346103a55761041461086161085c3660046106f4565b61079a565b9261087196949692919260405190565b968796876107ee565b6103df916008021c6104da565b906103df915461087a565b6103df5f6018610887565b346103a5576108ad366004610418565b610414610501610892565b346103a5576105736108cb3660046106b8565b9061202e565b346103a5576105736108e43660046106f4565b6121d8565b6103df5f6016610887565b346103a557610904366004610418565b6104146105016108e9565b346103a55761091f366004610418565b610573612202565b346103a55761057361093a3660046105c3565b9161221b565b9061073a90610578565b6103df906104da565b6103df905461094a565b634e487b7160e01b5f52602260045260245ffd5b9060016002830492168015610991575b602083101461098c57565b61095d565b91607f1691610981565b80545f9392916109b76109ad83610971565b8085529360200190565b9160018116908115610a0657506001146109d057505050565b6109e191929394505f5260205f2090565b915f925b8184106109f25750500190565b8054848401526020909301926001016109e5565b92949550505060ff1916825215156020020190565b906103df9161099b565b634e487b7160e01b5f52604160045260245ffd5b90601f01601f1916810190811067ffffffffffffffff821117610a5b57604052565b610a25565b906103c9610a7a92610a7160405190565b93848092610a1b565b0383610a39565b6103df905b6001600160601b031690565b6103df9054610a81565b610aa790600d610940565b610ab081610953565b91610abd60018301610a60565b91610aca60028201610a60565b916103df6004610adc6003850161074d565b9301610a92565b90610b2c6103c995979694610b1e610b3493608096610b1160a08801925f8901906001600160a01b03169052565b8682036020880152610443565b908482036040860152610443565b966060830152565b01906001600160601b03169052565b346103a557610414610b5e610b593660046104c6565b610a9c565b91610b6b95939560405190565b95869586610ae3565b906103c9610b8160405190565b9283610a39565b67ffffffffffffffff8111610a5b57602090601f01601f19160190565b90825f939282370152565b90929192610bc5610bc082610b88565b610b74565b93818552818301116103a5576103c9916020850190610ba5565b9080601f830112156103a5578160206103df93359101610bb0565b9190916040818403126103a557610c11838261052a565b92602082013567ffffffffffffffff81116103a5576103df9201610bdf565b610573610c3e366004610bfa565b90612255565b346103a557610c54366004610418565b6104146105b2612350565b346103a557610573610c723660046104c6565b612554565b346103a557610c87366004610418565b61041461040161255d565b346103a557610573610ca5366004610537565b90612790565b60ff81166103b5565b905035906103c982610cab565b91906040838203126103a5576103df906020610cdd82866104b9565b9401610cb4565b610573610cf2366004610cc1565b906129e3565b346103a557610414610501610d0e3660046104c6565b612a39565b6103df916008021c61075c565b906103df9154610d13565b610d436103df92610d3e5f936010610940565b610730565b610d20565b346103a557610414610401610d5e3660046106b8565b90610d2b565b346103a5576104146105b2610d7a3660046106f4565b612ac3565b346103a557610d8f366004610418565b6104145f5160206156285f395f51905f526105b2565b634e487b7160e01b5f52603260045260245ffd5b8054821015610dd957610dd16004915f5260205f2090565b910201905f90565b610da5565b610de9906013610940565b90610df2825490565b8110156103a557610e0291610db9565b5090610e0d82610953565b91610e1a6001820161074d565b916103df6003610e2c60028501610762565b930161074d565b6106726103c994610e63606094989795610e5c608086019a5f8701906001600160a01b03169052565b6020850152565b60ff166040830152565b346103a557610414610e89610e83366004610605565b90610dde565b90610e9694929460405190565b94859485610e33565b909182601f830112156103a55781359167ffffffffffffffff83116103a55760200192600183028401116103a557565b6001600160601b0381166103b5565b905035906103c982610ecf565b6060818303126103a557803567ffffffffffffffff81116103a55782610f12918301610e9f565b929093602083013567ffffffffffffffff81116103a55782610f3b6040946103df938701610e9f565b94909501610ede565b346103a5576104146105b2610f5a366004610eeb565b93929092612f71565b346103a557610573610f76366004610605565b906132df565b346103a557610573610f8f366004610605565b9061335e565b346103a557610fa5366004610418565b610573613389565b346103a557610573610fc03660046106f4565b613461565b346103a557610414610401610fdb3660046106b8565b9061346a565b346103a557610ff1366004610418565b6104146104a7613483565b805182526103c9919060a090819060208181015160ff169085015261102660408201516040860152565b61103560608201516060860152565b60808181015163ffffffff1690850152015163ffffffff16910152565b60c0810192916103c99190610ffc565b346103a55761041461107d6110783660046106f4565b613568565b60405191829182611052565b346103a55761057361109c3660046106f4565b6135f3565b6103df5f610578565b6103df6110a1565b346103a5576110c2366004610418565b6104146105b26110aa565b8015156103b5565b905035906103c9826110cd565b91906040838203126103a5576103df9060206110fe828661052a565b94016110d5565b346103a5576105736111183660046110e2565b906135fc565b9190916040818403126103a55761113583826104b9565b92602082013567ffffffffffffffff81116103a5576111549201610e9f565b9091565b346103a55761057361116b36600461111e565b916138d2565b346103a5576105736111843660046104c6565b613963565b906080828203126103a55761119e818361052a565b926111ac826020850161052a565b926111ba83604083016104b9565b92606082013567ffffffffffffffff81116103a5576103df9201610bdf565b346103a5576105736111ec366004611189565b9291909161396c565b6103df5f6017610887565b346103a557611210366004610418565b6104146105016111f5565b346103a55761057361122e3660046106f4565b613bfb565b346103a5576104146104a76112493660046104c6565b613c04565b6103df916008021c81565b906103df915461124e565b5f6112736103df926011610940565b611259565b346103a5576104146105b261128e3660046104c6565b611264565b346103a5576105736112a6366004610605565b90613e02565b8054821015610dd957610dd16001915f5260205f2090565b634e487b7160e01b5f525f60045260245ffd5b905f106112e7576103df90610a60565b6112c4565b6112f7906012610940565b80548210156103a5576103df9161130d916112ac565b906112d7565b346103a5576104146104a7611329366004610605565b906112ec565b346103a5576105736113423660046106b8565b90613e27565b6103df5f6015610887565b346103a557611363366004610418565b610414610501611348565b5f6112736103df92600f610940565b346103a5576104146105b26113933660046104c6565b61136e565b91906040838203126103a5576103df9060206106d4828661052a565b346103a5576104146104016113ca366004611398565b90613e31565b346103a5576113e0366004610418565b6104147f189ab7a9244df0848122154315af71fe140f3db0fe014031783b0946b8c9d2e36105b2565b346103a55761057361141c3660046106f4565b613eba565b5f610d436103df92600e610940565b346103a5576104146104016114463660046104c6565b611421565b6103df90613ec3565b6103df90610a60565b6103df6002611454565b6114866103df916114755f90565b5061147f81613eec565b6006610940565b610953565b1561149257565b60405162461bcd60e51b815260206004820152602160248201527f4552433732313a20617070726f76616c20746f2063757272656e74206f776e656044820152603960f91b606482015280608481015b0390fd5b156114ed57565b60405162461bcd60e51b815260206004820152603d60248201527f4552433732313a20617070726f76652063616c6c6572206973206e6f7420746f60448201527f6b656e206f776e6572206f7220617070726f76656420666f7220616c6c0000006064820152608490fd5b906103c9916115a361156983612a39565b6115876001600160a01b0382166001600160a01b038516141561148b565b336001600160a01b03821681149182156115a8575b50506114e6565b613efd565b6115b29250613e31565b5f8061159c565b156115c057565b60405162461bcd60e51b815260206004820152602d60248201527f4552433732313a2063616c6c6572206973206e6f7420746f6b656e206f776e6560448201526c1c881bdc88185c1c1c9bdd9959609a1b6064820152608490fd5b6103c992919061163361162e8433613f5c565b6115b9565b614005565b906103c99161164561406f565b611708565b1561165157565b60405162461bcd60e51b81526020600482015260096024820152682737ba1037bbb732b960b91b6044820152606490fd5b1561168957565b60405162461bcd60e51b815260206004820152600d60248201526c496e76616c696420707269636560981b6044820152606490fd5b9060ff905b9181191691161790565b906116dd6103df6116e492151590565b82546116be565b9055565b905f19906116c3565b906117016103df6116e492610578565b82546116e8565b61172c61171482612a39565b611726335b916001600160a01b031690565b1461164a565b61173f6117385f610578565b8311611682565b611754600161174f83600e610940565b6116cd565b6117688261176383600f610940565b6116f1565b7f5dc96537cbae524775a674b6a810d9a1ba04a9e279f172d156b352151394677a6117a861179e61179833610727565b93610578565b936105b660405190565b0390a3565b906103c991611638565b9061073a565b60016117d56103df926117cd5f90565b5060096117b7565b0161074d565b6103df9060a01c610a86565b6103df90546117db565b6103df6040610b74565b906103c961182f5f61180b6117f1565b9461182961181a838301610953565b6001600160a01b031687840152565b016117e7565b6001600160601b03166020840152565b6103df906117fb565b6104da6103df6103df9290565b6103df90611848565b6103df6103df6103df926001600160601b031690565b634e487b7160e01b5f52601160045260245ffd5b8181029291811591840414171561189b57565b611874565b634e487b7160e01b5f52601260045260245ffd5b906118be565b9190565b9081156118c9570490565b6118a0565b6118e76118ec919392936118df5f90565b506001610940565b61183f565b916118fe83516001600160a01b031690565b61190d6117196104da5f611855565b14611960575b5f6119516119406118ba9361193a61193560208901516001600160601b031690565b61185e565b90611888565b61194b611935614082565b906118b4565b9301516001600160a01b031690565b91506118ba5f6119516119406119758361183f565b959350505050611913565b6103c99061198c61406f565b61199d906119986140e3565b611d0d565b6103c9614115565b156119ac57565b60405162461bcd60e51b815260206004820152600a602482015269139bdd081b1a5cdd195960b21b6044820152606490fd5b156119e557565b60405162461bcd60e51b815260206004820152601460248201527f496e73756666696369656e74207061796d656e740000000000000000000000006044820152606490fd5b9190820391821161189b57565b63ffffffff1663ffffffff811461189b5760010190565b9063ffffffff906116c3565b6107716103df6103df9263ffffffff1690565b90611a7d6103df6116e492611a5a565b8254611a4e565b9067ffffffff000000009060201b6116c3565b90611aa76103df6116e492611a5a565b8254611a84565b9190820180921161189b57565b6103df906004611888565b915f1960089290920291821b911b6116c3565b921b90565b9190611aef6103df6116e493610578565b908354611ac6565b6103c9915f91611ade565b5f8082556103c991600390611b1a8360018301611af7565b82600282015501611af7565b905f036112e7576103c990611b02565b818110611b41575050565b80611b4e5f600493611b26565b01611b36565b919091828210611b6357505050565b611b85611b7b611b756103c995611abb565b93611abb565b915f5260205f2090565b9182019101611b36565b90600160401b8111610a5b5781611ba76103c9935490565b90828155611b54565b5f6103c991611b8f565b905f036112e7576103c990611bb0565b90611bd7610bc083610b88565b918252565b3d15611bf557611beb3d611bca565b903d5f602084013e565b606090565b15611c0157565b60405162461bcd60e51b815260206004820152601860248201527f5472656173757279207472616e73666572206661696c656400000000000000006044820152606490fd5b15611c4d57565b60405162461bcd60e51b815260206004820152601660248201527f53656c6c6572207472616e73666572206661696c6564000000000000000000006044820152606490fd5b6103e290610578565b6103df91604082019190611cb0908290611c92565b6020818303910152600881526713919517d4d3d31160c21b602082015260400190565b6103df91604082019190611ce8908290611c92565b6020818303910152600a81526913919517d093d551d21560b21b602082015260400190565b611d1881600e610940565b611d2190610762565b611d2a906119a5565b600f611d368282610940565b611d3f9061074d565b341015611d4b906119de565b611d5482612a39565b90611d5f8382610940565b611d689061074d565b92611d74813385614005565b611d7c610585565b611d869085611888565b611d906064610578565b611d99916118b4565b92611da48486611a2a565b601494611db18387610730565b600401611dbd8161077a565b611dc690611a37565b611dcf91611a6d565b611dd93387610730565b600401611de581610790565b611dee90611a37565b611df791611a97565b611e0086610578565b611e0a8488610730565b90611e148261074d565b90611e1e91611aae565b611e27916116f1565b611e3085610578565b611e3a3388610730565b90611e448261074d565b90611e4e91611aae565b611e57916116f1565b611e6284600e610940565b5f611e6c916116cd565b611e755f610578565b611e7f8587610940565b90611e89916116f1565b611e94846013610940565b5f611e9e91611bba565b611ea86015610953565b611eb190610727565b611eba90610727565b6040515f905a935f94938594f1611ecf611bdc565b50611ed990611bfa565b611ee282610727565b611eeb90610727565b6040515f905a935f94938594f1611f00611bdc565b50611f0a90611c46565b611f1390610727565b938491611f1f33610727565b95611f2a8792610578565b92611f3460405190565b9081527fa8a7473f10e62cf9687e243de1c3ac8b3cbc3dd04b96826beb3a65b59538581490602090a45f5160206156485f395f51905f528093611f7660405190565b611f81819282611c9b565b0390a2604051611f92819282611cd3565b0390a2565b6103c990611980565b906103c991611fb6611fb1826117bd565b614120565b906103c99161412b565b906103c991611fa0565b15611fd157565b60405162461bcd60e51b815260206004820152602f60248201527f416363657373436f6e74726f6c3a2063616e206f6e6c792072656e6f756e636560448201526e103937b632b9903337b91039b2b63360891b6064820152608490fd5b6103c9919061204f61203f336104da565b6001600160a01b03841614611fca565b61418e565b1561205b57565b60405162461bcd60e51b815260206004820152602c60248201527f46756e6374696f6e206d7573742062652063616c6c6564207468726f7567682060448201526b19195b1959d85d1958d85b1b60a21b6064820152608490fd5b156120bc57565b60405162461bcd60e51b815260206004820152602c60248201527f46756e6374696f6e206d7573742062652063616c6c6564207468726f7567682060448201526b6163746976652070726f787960a01b6064820152608490fd5b6103c99061218661212630610727565b6121657f00000000000000000000000000000000000000000000000000000000000000009161215e611719846001600160a01b031690565b1415612054565b6121806117196121736141ed565b926001600160a01b031690565b146120b5565b6121b3565b369037565b906103c96121a66121a084611bca565b93610b88565b601f19016020840161218b565b5f6103c9916121c18161422c565b6121d26121cd83610578565b612190565b906142dd565b6103c990612116565b6121f75f5160206156285f395f51905f52614120565b6103c96103c9614424565b6103c96121e1565b6103df5f611bca565b6103df61220a565b90916103c992612229612213565b9261396c565b906103c99161224061212630610727565b6103c9916001916122508161422c565b6142dd565b906103c99161222f565b1561226657565b60405162461bcd60e51b815260206004820152603860248201527f555550535570677261646561626c653a206d757374206e6f742062652063616c60448201527f6c6564207468726f7567682064656c656761746563616c6c00000000000000006064820152608490fd5b6103df906123196122e130610727565b6123136001600160a01b037f000000000000000000000000000000000000000000000000000000000000000016611719565b1461225f565b612347565b6103df7f360894a13ba1a3210667c828492db98dca3e2076cc3735a920a3ca505d382bbc610578565b506103df61231e565b6103df5f6122d1565b6103c99061236561406f565b6123d7565b1561237157565b60405162461bcd60e51b815260206004820152600a6024820152694e6f742065786973747360b01b6044820152606490fd5b6103df916040820191906123b8908290611c92565b602081830391015260048152634c494b4560e01b602082015260400190565b6123f96123e382612a39565b6123f26117196104da5f611855565b141561236a565b61246161241c61241583601061242161241c6124158484610940565b3390610730565b610762565b156124c2576124375f61174f6124158585610940565b61244a612445836011610940565b61074d565b6124566118ba5f610578565b1161249c575b610940565b907f4d5c3df35a8d7d04f2e10db1454548af37ee7449c97a4b4c243681f29c2ea4076117a861249261179833610727565b9361040560405190565b61245c6124aa836011610940565b6124bc6124b68261074d565b5f190190565b906116f1565b6124d4600161174f6124158585610940565b6124f46124e2836011610940565b6124bc6124ee8261074d565b60010190565b6125206125016001610578565b6124bc5f612510336014610730565b019161251b8361074d565b611aae565b61252933610727565b5f5160206156485f395f51905f5261254060405190565b8061254c6001826123a3565b0390a2610940565b6103c990612359565b6103df600b610762565b6103c991906125825f5160206156285f395f51905f52614120565b612615565b6103df611388610578565b1561259957565b60405162461bcd60e51b815260206004820152601660248201527f5850206f766572666c6f772070726f74656374696f6e000000000000000000006044820152606490fd5b61075c6103df6103df9290565b6103df60326125de565b61075c6103df6103df9260ff1690565b906116dd6103df6116e4926125f5565b611f926126e15f5160206156485f395f51905f529260146126566126418761251b5f6117d58787610730565b61264f6118ba6103df612587565b1115612592565b6126725f6126648484610730565b016124bc8861251b8361074d565b816126966126916126875f6117d58587610730565b61194b6064610578565b6125de565b91826126a06125eb565b906126b060ff83165b9160ff1690565b11612788575b506126cf61075c60016126c98585610730565b01610762565b60ff84161161271f575b505050610727565b926126eb60405190565b91829182908152604060208201819052600f908201526e45585445524e414c5f534f5552434560881b606082015260800190565b600161272f612735938593610730565b01612605565b7fa49b8576e012f713baa7dceadb7d709aaec8773b498ecfe582d8b9c0c8fd074f61277d61276284610727565b9261276c60405190565b9182918260ff909116815260200190565b0390a25f81816126d9565b92505f6126b6565b906103c991612567565b906103c9916127a761406f565b6128f1565b156127b357565b60405162461bcd60e51b815260206004820152600d60248201526c24b73b30b634b21037b33332b960991b6044820152606490fd5b156127ef57565b60405162461bcd60e51b815260206004820152600e60248201526d496e76616c69642065787069727960901b6044820152606490fd5b6103df6080610b74565b906001600160a01b03906116c3565b9061284e6103df6116e492610727565b825461282f565b60036128b260606103c99461287c6128765f8301516001600160a01b031690565b8661283e565b61289361288a602083015190565b600187016116f1565b6128ad6128a4604083015160ff1690565b60028701612605565b015190565b91016116f1565b91906112e7576103c991612855565b90815491600160401b831015610a5b57826128eb9160016103c995018155610db9565b906128b9565b9061297e9061290c61290761241c85600e610940565b6119a5565b61291f6129185f610578565b34116127ac565b6129285f6125de565b60ff821611806129c8575b61293c906127e8565b61294a6103df846013610940565b61296e612955612825565b33815292612964346020860152565b60ff166040840152565b612979426060840152565b6128c8565b61299061298a33610727565b91610578565b907f7beddbbf70d8b2a25af77e15d4a173af5f34673a1e7302c7af208aac599dc6db6129bb60405190565b34815280602081016117a8565b5061293c6129d6601e6125de565b60ff831611159050612933565b906103c99161279a565b156129f457565b60405162461bcd60e51b815260206004820152601860248201527f4552433732313a20696e76616c696420746f6b656e20494400000000000000006044820152606490fd5b612a45905f5b5061442c565b6103df612a546104da5f611855565b6001600160a01b03831614156129ed565b15612a6c57565b60405162461bcd60e51b815260206004820152602960248201527f4552433732313a2061646472657373207a65726f206973206e6f7420612076616044820152683634b21037bbb732b960b91b6064820152608490fd5b6124456103df91612ad15f90565b50612af2612ae16104da5f611855565b6001600160a01b0383161415612a65565b6005610730565b906103df9594939291612b0a61406f565b612de9565b610a866103df6103df9290565b15612b2357565b60405162461bcd60e51b815260206004820152600f60248201526e496e76616c696420726f79616c747960881b6044820152606490fd5b6103df913691610bb0565b6103df60a0610b74565b818110612b7a575050565b80612b875f600193611af7565b01612b6f565b9190601f8111612b9c57505050565b612bac6103c9935f5260205f2090565b906020601f840181900483019310612bce575b6020601f909101040190612b6f565b9091508190612bbf565b90612be1815190565b9067ffffffffffffffff8211610a5b57612c0582612bff8554610971565b85612b8d565b602090601f8311600114612c3e576116e492915f9183612c33575b50505f19600883021c1916906002021790565b015190505f80612c20565b601f19831691612c51855f5260205f2090565b925f5b818110612c8e57509160029391856001969410612c75575b50505002019055565b01515f196008601f8516021c19165b90555f8080612c6c565b91936020600181928787015181550195019201612c54565b906103c991612bd8565b906001600160601b03906116c3565b610a866103df6103df926001600160601b031690565b90612ce56103df6116e492612cbf565b8254612cb0565b6004612d6060806103c994612d0d6128765f8301516001600160a01b031690565b612d24612d1b602083015190565b60018701612ca6565b612d3b612d32604083015190565b60028701612ca6565b612d52612d49606083015190565b600387016116f1565b01516001600160601b031690565b9101612cd5565b906103c991612cec565b5f19811461189b5760010190565b919061046d81612d96816104779560209181520190565b8095610ba5565b60208082526103df93910191612d7f565b6103df91604082019190612dc3908290611c92565b6020818303910152600b81526a13919517d0d4915055115160aa1b602082015260400190565b7f1e1b69b56bd875547ce642e5ca9d38001b825863ffbf9cf08c72e0ff64b00a8d94959193612ec09150612e32612e21612710612b0f565b6001600160601b0385161115612b1c565b612e96612e8f600c98612e4d612e478b614442565b9a614455565b612e578a33614473565b612e6a612e64888a612b5a565b8b6144e8565b612e72612b65565b33815293612e8a612e83898b612b5a565b6020870152565b612b5a565b6040830152565b612ea1426060830152565b6001600160601b0383166080820152612ebb87600d610940565b612d67565b612ec95f612b0f565b6001600160601b03821611612f60575b50612efc6002612eea336014610730565b016124bc612ef78261074d565b612d71565b612f09612501600a610578565b612f1233610727565b928391612f1e86610578565b93612f34612f2b60405190565b92839283612d9d565b0390a35f5160206156485f395f51905f52612f4e60405190565b80612f5a600a82612dae565b0390a290565b612f6b903386614649565b5f612ed9565b6103df94939291905f612af9565b9061199d91612f8c6140e3565b613088565b906103c9612feb6003612fa2612825565b94612fbc612faf82610953565b6001600160a01b03168752565b612fd2612fcb6001830161074d565b6020880152565b6117d5612fe160028301610762565b60ff166040880152565b6060840152565b6103df90612f91565b61300b6103df6103df9260ff1690565b62ffffff1690565b61300b6103df6103df9290565b62ffffff9081169116029062ffffff821691820361189b57565b6103df6103df6103df9262ffffff1690565b1561305357565b60405162461bcd60e51b815260206004820152600d60248201526c13d999995c88195e1c1a5c9959609a1b6044820152606490fd5b60206132915f808461326682806130df6130d9859b6130a961171488612a39565b6130ca6130c26103df6130be60139a8b610940565b5490565b825b106127ac565b6130d48c88610940565b610db9565b50612ff2565b9361313561312d6103df6130f4606089015190565b61312761312261310860408c015160ff1690565b61311d61311762015180613013565b91612ffb565b613020565b61303a565b90611aae565b42111561304c565b6132328261322d61315a613152838a01516001600160a01b031690565b9c8d99015190565b9d8e94613168828b33614005565b61320761318961318261268761317c610585565b8a611888565b8098611a2a565b9a6124bc866125106014936131bb60046131a33388610730565b016131b56131b08261077a565b611a37565b90611a6d565b6131dd60046131ca8388610730565b016131d76131b082610790565b90611a97565b6131f76131e986610578565b6124bc85612510338a610730565b613201600f610578565b94610730565b6132168461174f84600e610940565b61245c61322285610578565b61176384600f610940565b611bba565b6132476132426132426015610953565b610727565b9061325160405190565b90818003925af1613260611bdc565b50611bfa565b61327261324233610727565b9061327c60405190565b90818003925af161328b611bdc565b50611c46565b7fa6da490df6e8f0e592e795b4d96c5810d8ddfda51c21577adbdd8e1a0fa47a676132da6132d06132ca6132c433610727565b94610727565b94610578565b946105b660405190565b0390a4565b906103c991612f7f565b906103c9916132f661406f565b61330261171482612a39565b61331361290761241c83600e610940565b61331f6117385f610578565b61332e8261176383600f610940565b7fb556fac599c3c70efb9ab1fa725ecace6c81cc48d1455f886607def065f3e0c06117a861179e61179833610727565b906103c9916132e9565b61337e5f5160206156285f395f51905f52614120565b6103c96103c961470a565b6103c9613368565b6103c9906133ab5f5160206156285f395f51905f52614120565b6133ee565b156133b757565b60405162461bcd60e51b815260206004820152600f60248201526e496e76616c6964206164647265737360881b6044820152606490fd5b61340e6133fd6104da5f611855565b6001600160a01b03831614156133b0565b61342f61342961341e6016610953565b61324284601661283e565b91610727565b907f86184096e44f529467a03d9c408bb371b99687d885947800e80e6d5b08108f6361345a60405190565b80806117a8565b6103c990613391565b6103df915f61347d61241c936117cd5f90565b01610730565b6103df6003611454565b6103df60c0610b74565b61349f61348d565b905f82526020808080808087015f8152015f8152015f8152015f8152015f905250565b6103df613497565b906103c961355260046134db61348d565b946134ec6134e88261074d565b8752565b6135056134fb60018301610762565b60ff166020880152565b61351b6135146002830161074d565b6040880152565b61353161352a6003830161074d565b6060880152565b61354c61353f83830161077a565b63ffffffff166080880152565b01610790565b63ffffffff1660a0840152565b6103df906134ca565b61357f6103df916135776134c2565b506014610730565b61355f565b6103c99061359e5f5160206156285f395f51905f52614120565b6135ad6133fd6104da5f611855565b6135c86134296135bd6018610953565b61324284601861283e565b907f7042586b23181180eb30b4798702d7a0233b7fc2551e89806770e8e5d9392e6a61345a60405190565b6103c990613584565b6103c991903361475e565b906103c9929161361561406f565b6137da565b1561362157565b60405162461bcd60e51b815260206004820152601660248201527f496e76616c696420636f6d6d656e74206c656e677468000000000000000000006044820152606490fd5b6103df6103e8610578565b1561367857565b60405162461bcd60e51b8152602060048201526011602482015270546f6f206d616e7920636f6d6d656e747360781b6044820152606490fd5b919067ffffffffffffffff8211610a5b576136d082612bff8554610971565b5f90601f8311600114613707576116e492915f91836136fc5750505f19600883021c1916906002021790565b013590505f80612c20565b90601f1983169161371b855f5260205f2090565b925f5b8181106137515750916002939185600196941061373e5750505002019055565b01355f19601f84166008021c1916612c84565b9293602060018192878601358155019501930161371e565b9291906112e7576103c9926136b1565b9190825492600160401b841015610a5b578361379d9160016103c9960181556112ac565b90613769565b6103df916040820191906137b8908290611c92565b6020818303910152600781526610d3d35351539560ca1b602082015260400190565b7f6ef560d19dd02f57976e8453b811685a89edf49009d64ab71b19489923ef5f096138839361380b6123e384612a39565b806138186118ba5f610578565b11806138b6575b6138289061361a565b61384d6138396130be856012610940565b6138476118ba6103df613666565b10613671565b61386581856138606103df876012610940565b613779565b6138726125016002610578565b61387b33610727565b948593610578565b93613890612f2b60405190565b0390a35f5160206156485f395f51905f526138aa60405190565b80611f926002826137a3565b50613828816138c96118ba610118610578565b1115905061381f565b906103c99291613607565b6103c9906138e961406f565b6138f561171482612a39565b61390661290761241c83600e610940565b6139155f61174f83600e610940565b61392c6139215f610578565b61176383600f610940565b61393861298a33610727565b907f24287c09523dfd960e13a9774c247fb28a2ccb301eb4208b0d4072bcd0f1826e61345a60405190565b6103c9906138dd565b6103c99392919061398061162e8433613f5c565b614828565b6103df9060101c61075c565b6103df9054613985565b6103df9060081c61075c565b6103df905461399b565b156139b857565b60405162461bcd60e51b815260206004820152602e60248201527f496e697469616c697a61626c653a20636f6e747261637420697320616c72656160448201526d191e481a5b9a5d1a585b1a5e995960921b6064820152608490fd5b9061ff009060081b6116c3565b90613a316103df6116e4926125f5565b8254613a14565b9062ff00009060101b6116c3565b90613a566103df6116e492151590565b8254613a38565b6103e2906125de565b6020810192916103c99190613a5d565b613ac0613a8a613a86600b613991565b1590565b918280613b5b575b8015613b1d575b613aa2906139b1565b82613ab7613ab060016125de565b600b613a21565b613b0c57613b79565b613ac657565b613ad15f600b613a46565b7f7f26b83ff96e1f2b6a682f133852f6798a09c465da95921460cefb3847402498613afb60405190565b80613b07600182613a66565b0390a1565b613b186001600b613a46565b613b79565b50613b32613a86613b2d30610727565b614847565b8015613a995750613aa2613b46600b6139a7565b613b536126a960016125de565b149050613a99565b50613b66600b6139a7565b613b736126a960016125de565b10613a92565b613b8b613b846110a1565b3390611fb6565b613ba15f5160206156285f395f51905f52613b84565b613bca7f189ab7a9244df0848122154315af71fe140f3db0fe014031783b0946b8c9d2e3613b84565b613bd66104da5f611855565b6001600160a01b03821614613bf1576103c9905b601561283e565b506103c933613bea565b6103c990613a76565b6103df9061488d565b9061199d91613c1a6140e3565b613d20565b15613c2657565b60405162461bcd60e51b815260206004820152600b60248201526a2737ba1037b33332b937b960a91b6044820152606490fd5b818103613c64575050565b60036128b28184613c7c6128765f6103c99801610953565b613c8b61288a6001830161074d565b6117d56128a460028301610762565b91906112e7576103c991613c59565b634e487b7160e01b5f52603160045260245ffd5b80548015613cdf575f190190613cdc613cd68383610db9565b90611b26565b55565b613ca9565b15613ceb57565b60405162461bcd60e51b815260206004820152600d60248201526c1499599d5b990819985a5b1959609a1b6044820152606490fd5b5f6103c992613dd7613dd26103df84956013613d4b613d456103df6130be8585610940565b876130c4565b61245c613d896020613d646130d98a6130d48888610940565b6128ad613d7a8c8301516001600160a01b031690565b613d8333611719565b14613c1f565b96613dcc613dc0613d9a8686610940565b613dba613daa6130be8989610940565b613db46001610578565b90611a2a565b90610db9565b50916130d48686610940565b90613c9a565b613cbd565b613de361324233610727565b90613ded60405190565b90818003925af1613dfc611bdc565b50613ce4565b906103c991613c0d565b906103c991613e1d611fb1826117bd565b906103c99161418e565b906103c991613e0c565b6103df91610d3e61241c92613e435f90565b506007610730565b6103c990613e655f5160206156285f395f51905f52614120565b613e746133fd6104da5f611855565b613e8f613429613e846017610953565b61324284601761283e565b907fb7b5cab3bc5ae437bba269a16d0a369211a068ae683607ff2ca96f344492953961345a60405190565b6103c990613e4b565b637965db0b60e01b6001600160e01b0319821614908115613ee2575090565b6103df9150614918565b613ef86103c991614921565b6129ed565b90613f1282613f0d836006610940565b61283e565b613f2a61298a613f2461324284612a39565b93610727565b917f8c5be1e5ebec7d5bd14f71427d1e84f3dd0314c0f7b2291e5b200ac8c7c3b925613f5560405190565b80806132da565b613f6582612a39565b916001600160a01b0383166001600160a01b03831614928315613fa5575b508215613f8f57505090565b613fa191925061217361171991611467565b1490565b613fb29193508290613e31565b915f613f83565b15613fc057565b60405162461bcd60e51b815260206004820152601f60248201527f43616e6e6f74207472616e7366657220746f207a65726f2061646472657373006044820152606490fd5b906103c9929161402b61401a6104da5f611855565b6001600160a01b0384161415613fb9565b614a2f565b1561403757565b60405162461bcd60e51b815260206004820152601060248201526f14185d5cd8589b194e881c185d5cd95960821b6044820152606490fd5b6103c961407d613a8661255d565b614030565b6103df612710612b0f565b6103df6002610578565b1561409e57565b60405162461bcd60e51b815260206004820152601f60248201527f5265656e7472616e637947756172643a207265656e7472616e742063616c6c006044820152606490fd5b6103c96140f0600a61074d565b6141046140fb61408d565b91821415614097565b600a6116f1565b6103df6001610578565b6103c961410461410b565b6103c9903390614b7c565b614138613a86838361346a565b614140575050565b614155600161174f845f61347d8660096117b7565b614163613429613f24339390565b917f2f8788117e7eff1d82e926ec794901d17c78024a50270940304540a733656f0d613f5560405190565b614198828261346a565b6141a0575050565b6141b45f61174f848261347d8660096117b7565b6141c2613429613f24339390565b917ff6391f5c32d9c69d2a47ea670b442974b53935d1edc7fd64eb21e047a839171b613f5560405190565b6103df5f6141fc6103df61231e565b01610953565b506103c97f189ab7a9244df0848122154315af71fe140f3db0fe014031783b0946b8c9d2e3614120565b6103c990614202565b6103df7f4910fdfa16fed3260ed0e7147f7cc6da11a60208b5b9406d12a635614ffd9143610578565b905051906103c9826104b3565b906020828203126103a5576103df9161425e565b1561428657565b60405162461bcd60e51b815260206004820152602960248201527f45524331393637557067726164653a20756e737570706f727465642070726f786044820152681a58589b195555525160ba1b6064820152608490fd5b91906142ee5f6126c96103df614235565b156142fe5750506103c990614c95565b61430a61324284610727565b92602061431660405190565b6352d1902d60e01b815294859060049082905afa5f94816143b3575b506143935760405162461bcd60e51b815260206004820152602e60248201527f45524331393637557067726164653a206e657720696d706c656d656e7461746960448201526d6f6e206973206e6f74205555505360901b6064820152608490fd5b6143ae6103c9946143a86118ba6103df61231e565b1461427f565b614bf5565b6143d691955060203d6020116143dd575b6143ce8183610a39565b81019061426b565b935f614332565b503d6143c4565b6143ec614d08565b6103c96143fa5f600b6116cd565b7f5db9ee0a495bf2e6ff9c91a7834c1ba4fdd244a5e8aa4e537bd38aeae4b073aa613b0733610501565b6103c96143e4565b6114866103df9161443a5f90565b506004610940565b5f6103df9161444e5f90565b500161074d565b6103c9906124bc5f6144676001610578565b9201916104778361074d565b6103c99161447f612213565b91614d18565b1561448c57565b60405162461bcd60e51b815260206004820152602e60248201527f45524337323155524953746f726167653a2055524920736574206f66206e6f6e60448201526d32bc34b9ba32b73a103a37b5b2b760911b6064820152608490fd5b613b07906105b27ff8e1a15aba9398e019f0b49df1a4fde98ee17ae345cb5f6b5e2c27f5033e8ce79361452261451d84614921565b614485565b61452d836008610940565b612ca6565b1561453957565b60405162461bcd60e51b815260206004820152602a60248201527f455243323938313a20726f79616c7479206665652077696c6c206578636565646044820152692073616c65507269636560b01b6064820152608490fd5b1561459857565b60405162461bcd60e51b815260206004820152601b60248201527f455243323938313a20496e76616c696420706172616d657465727300000000006044820152606490fd5b9073ffffffffffffffffffffffffffffffffffffffff199060a01b6116c3565b9061460d6103df6116e492612cbf565b82546145dd565b6103c99161463990602090612d5261463382516001600160a01b031690565b8561283e565b906145fd565b906103c991614614565b6146c4906146bd6103c994614673614662610a86614082565b6001600160601b0383161115614532565b6146936146826104da5f611855565b6001600160a01b0387161415614591565b6146ad61469e6117f1565b6001600160a01b039096168652565b6001600160601b03166020850152565b6001610940565b61463f565b6146d161406f565b6103c96146e06001600b6116cd565b7f62e78cea01bee320cd4e420270b5ea74000d11b0c9f74754ebdbfc544b05a258613b0733610501565b6103c96146c9565b1561471957565b60405162461bcd60e51b815260206004820152601960248201527f4552433732313a20617070726f766520746f2063616c6c6572000000000000006044820152606490fd5b6117a8612492613f247f17307eab39ab6107e8899845ad3d59bd9653f200f220920489ca2b5937696c31936147ad61479c876001600160a01b031690565b6001600160a01b0383161415614712565b6132428761174f88610d3e856007610730565b156147c757565b6040515b62461bcd60e51b815260206004820152603260248201527f4552433732313a207472616e7366657220746f206e6f6e20455243373231526560448201527131b2b4bb32b91034b6b83632b6b2b73a32b960711b6064820152608490fd5b916103c993916148429361483d838383614005565b614d8b565b6147c0565b3b6148546118ba5f610578565b1190565b6104776148709260209261486a815190565b94859290565b93849101610422565b614887906103df9392614858565b90614858565b61489681613eec565b6148a96148a4826008610940565b611454565b6148b1614e63565b80516148bf6118ba5f610578565b146149125781516148d26118ba5f610578565b116148e25750506103df90614e6b565b6103df9250614906916103df916148f860405190565b938492602084019283614879565b90810382520382610a39565b50905090565b6103df90614ed7565b61492b905f612a3f565b61493a6117196104da5f611855565b141590565b1561494657565b60405162461bcd60e51b815260206004820152602560248201527f4552433732313a207472616e736665722066726f6d20696e636f72726563742060448201526437bbb732b960d91b6064820152608490fd5b156149a057565b60405162461bcd60e51b8152602060048201526024808201527f4552433732313a207472616e7366657220746f20746865207a65726f206164646044820152637265737360e01b6064820152608490fd5b919060086116c3910291611ad96001600160a01b03841b90565b9190614a1c6103df6116e493610727565b9083546149f1565b6103c9915f91614a0b565b61298a613f24614af392949394614a60614a4886612a39565b614a5a6001600160a01b038416611719565b1461493f565b614a80614a6f6104da5f611855565b6001600160a01b0388161415614999565b614a8c614a4886612a39565b614aa05f614a9b876006610940565b614a24565b614ae4614aad6001610578565b614acc614abb846005610730565b6124bc83614ac88361074d565b0390565b6124bc614ada896005610730565b916104778361074d565b61324286613f0d876004610940565b917fddf252ad1be2c89b69c2b068fc378daa952ba7f163c4a11628f55a4df523b3ef613f5560405190565b6103df90610578565b614b5f6103df9392614887614887937f416363657373436f6e74726f6c3a206163636f756e7420000000000000000000815260170190565b7001034b99036b4b9b9b4b733903937b6329607d1b815260110190565b90614b8a613a86828461346a565b614b92575050565b6149066103df6114e293614bc4614bb4614bae614bdc96614f38565b92614b1e565b614bbe6020610578565b90614ff1565b90614bce60405190565b938492602084019283614b27565b6040515b62461bcd60e51b81529182916004830161047b565b91614bff83615104565b8151614c0d6118ba5f610578565b11908115614c2b575b50614c1f575050565b614c289161518d565b50565b90505f614c16565b15614c3a57565b60405162461bcd60e51b815260206004820152602d60248201527f455243313936373a206e657720696d706c656d656e746174696f6e206973206e60448201526c1bdd08184818dbdb9d1c9858dd609a1b6064820152608490fd5b6103c990614caa614ca582614847565b614c33565b5f614cb66103df61231e565b0161283e565b15614cc357565b60405162461bcd60e51b815260206004820152601460248201527f5061757361626c653a206e6f74207061757365640000000000000000000000006044820152606490fd5b6103c9614d1361255d565b614cbc565b91614842916103c993614d2b828261523b565b61483d5f611855565b905051906103c9826103a9565b906020828203126103a5576103df91614d34565b6001600160a01b039182168152911660208201526103df926080820192909190614d7e90612e8f565b6060818403910152610443565b909190614d9783614847565b15614e5a57614daa613242602094610727565b905f33614dd3614db960405190565b97889687958694630a85bd0160e11b865260048601614d55565b03925af15f9181614e29575b50614e0f57614dec611bdc565b8051614dfa6118ba5f610578565b03614e07576040516147cb565b805190602001fd5b613fa1630a85bd0160e11b5b916001600160e01b03191690565b614e4c91925060203d602011614e53575b614e448183610a39565b810190614d41565b905f614ddf565b503d614e3a565b50505050600190565b6103df612213565b614e7481613eec565b614e7c614e63565b8051614e8a6118ba5f610578565b1115614ead576103df61490691614ea36103df9461529c565b906148f860405190565b50506103df612213565b614eca614ec46103df9290565b60e01b90565b6001600160e01b03191690565b614ee7614eca6349064906614eb7565b6001600160e01b0319821614908115614efe575090565b6103df9150615327565b6103df6103df6103df926001600160a01b031690565b6103df60146125de565b6103df6103df6103df9260ff1690565b614f55614f506103df92614f4a606090565b5061071e565b614f08565b614bbe614f60614f1e565b614f28565b90614f6e825190565b811015610dd9570160200190565b801561189b575f190190565b6103df90614f9c6118ba6103df9460ff1690565b901c90565b15614fa857565b60405162461bcd60e51b8152806114e2600482016020808252818101527f537472696e67733a20686578206c656e67746820696e73756666696369656e74604082015260600190565b6150146121cd61500a846150056002610578565b611888565b6131276002610578565b9160306150296150235f610578565b85614f65565b53600f60fb1b61506261505960019384935f1a61504e61504886610578565b89614f65565b536150056002610578565b61312783610578565b915b615085575b5050906103df6103df9261507f6118ba5f610578565b14614fa1565b909161509082610578565b8311156150fe576f181899199a1a9b1b9c1cb0b131b232b360811b6150b5600f610578565b8216906010821015610dd95783926150d56150f2926150f8941a60f81b90565b5f1a6150e18789614f65565b536150ec60046125de565b90614f88565b93614f7c565b91615064565b91615069565b6151119061324281614c95565b7fbc7cd75a20ee27fd9adebab32041f755214dbc6bffa90cc0225b39da2e5c2d3b61513b60405190565b8080611f92565b61514c6027611bca565b7f416464726573733a206c6f772d6c6576656c2064656c65676174652063616c6c6020820152660819985a5b195960ca1b604082015290565b6103df615142565b6103df91615199615185565b91615372565b156151a657565b60405162461bcd60e51b8152806114e2600482016020808252818101527f4552433732313a206d696e7420746f20746865207a65726f2061646472657373604082015260600190565b156151f657565b60405162461bcd60e51b815260206004820152601c60248201527f4552433732313a20746f6b656e20616c7265616479206d696e746564000000006044820152606490fd5b90614af361298a613f2461524e5f611855565b61526c6001600160a01b0382166001600160a01b038816141561519f565b61528061527b613a8687614921565b6151ef565b61528f61527b613a8687614921565b614ae4614acc6001610578565b6152a581615399565b906152b66001926104776001610578565b91806152c184612190565b936020018401905b6152d4575b50505090565b811561532257615307905f1901926f181899199a1a9b1b9c1cb0b131b232b360811b600a82061a845361194b600a610578565b90816153156118ba5f610578565b14615322579091816152c9565b6152ce565b6380ac58cd60e01b6001600160e01b0319821614908115615357575b811561534d575090565b6103df915061553a565b6001600160e01b03198116635b5e139f60e01b149150615343565b5f806103df9493615381606090565b50602081519101845af4615393611bdc565b916155af565b6153a25f610578565b907a184f03e93ff9f4daa797ed6e38ed64bf6a1f0100000000000000006153c881610578565b821015615518575b506d04ee2d6d415b85acef81000000006153e981610578565b8210156154f6575b50662386f26fc1000061540381610578565b8210156154d4575b506305f5e10061541a81610578565b8210156154b2575b5061271061542f81610578565b821015615490575b506154426064610578565b81101561546e575b6154576118ba600a610578565b10156154605790565b6103df906104776001610578565b61547f61548a9161194b6064610578565b916104776002610578565b9061544a565b6154ab9161194b6154a092610578565b916104776004610578565b905f615437565b6154cd9161194b6154c292610578565b916104776008610578565b905f615422565b6154ef9161194b6154e492610578565b916104776010610578565b905f61540b565b6155119161194b61550692610578565b916104776020610578565b905f6153f1565b6155339161194b61552892610578565b916104776040610578565b905f6153d0565b63152a902d60e11b6001600160e01b0319821614908115615559575090565b6103df91506155e6565b1561556a57565b60405162461bcd60e51b815260206004820152601d60248201527f416464726573733a2063616c6c20746f206e6f6e2d636f6e74726163740000006044820152606490fd5b919290156155e0575081516155c66118ba5f610578565b146155cf575090565b6155db6103df91614847565b615563565b826155f6565b613fa16301ffc9a760e01b614e1b565b906155ff825190565b61560b6118ba5f610578565b111561561a5750805190602001fd5b6114e290614be06040519056fea49807205ce4d355092ef5a8a18f56e8913cf4a201fbe287825b095693c21775bc485bf8e37db28d327f937baa2ba28235470b977aa1200fd7eedfd31f24ac45a2646970667358221220d12fb27f3046894bebd5df73de3c83ced787f123d45d5dc0be4552ffcdc41c0464736f6c634300081c0033",
  "linkReferences": {},
  "deployedLinkReferences": {}
}