{
  "_format": "hh-sol-artifact-1",
  "contractName": "GameifiedMarketplaceQuests",
  "sourceName": "contracts/Marketplace/GameifiedMarketplaceQuests.sol",
  "abi": [
    {
      "inputs": [
        {
          "internalType": "address",
          "name": "_coreAddress",
          "type": "address"
        }
      ],
      "stateMutability": "nonpayable",
      "type": "constructor"
    },
    {
      "inputs": [],
      "name": "AlreadyCompleted",
      "type": "error"
    },
    {
      "inputs": [],
      "name": "QuestNotActive",
      "type": "error"
    },
    {
      "inputs": [],
      "name": "QuestNotFound",
      "type": "error"
    },
    {
      "inputs": [],
      "name": "RequirementNotMet",
      "type": "error"
    },
    {
      "anonymous": false,
      "inputs": [
        {
          "indexed": false,
          "internalType": "address",
          "name": "account",
          "type": "address"
        }
      ],
      "name": "Paused",
      "type": "event"
    },
    {
      "anonymous": false,
      "inputs": [
        {
          "indexed": true,
          "internalType": "address",
          "name": "user",
          "type": "address"
        },
        {
          "indexed": true,
          "internalType": "uint256",
          "name": "questId",
          "type": "uint256"
        },
        {
          "indexed": false,
          "internalType": "uint256",
          "name": "xpReward",
          "type": "uint256"
        }
      ],
      "name": "QuestCompleted",
      "type": "event"
    },
    {
      "anonymous": false,
      "inputs": [
        {
          "indexed": true,
          "internalType": "uint256",
          "name": "questId",
          "type": "uint256"
        },
        {
          "indexed": false,
          "internalType": "enum GameifiedMarketplaceQuests.QuestType",
          "name": "questType",
          "type": "uint8"
        },
        {
          "indexed": false,
          "internalType": "string",
          "name": "title",
          "type": "string"
        },
        {
          "indexed": false,
          "internalType": "uint256",
          "name": "requirement",
          "type": "uint256"
        },
        {
          "indexed": false,
          "internalType": "uint256",
          "name": "xpReward",
          "type": "uint256"
        }
      ],
      "name": "QuestCreated",
      "type": "event"
    },
    {
      "anonymous": false,
      "inputs": [
        {
          "indexed": true,
          "internalType": "uint256",
          "name": "questId",
          "type": "uint256"
        }
      ],
      "name": "QuestDeactivated",
      "type": "event"
    },
    {
      "anonymous": false,
      "inputs": [
        {
          "indexed": true,
          "internalType": "address",
          "name": "user",
          "type": "address"
        },
        {
          "indexed": true,
          "internalType": "uint256",
          "name": "questId",
          "type": "uint256"
        },
        {
          "indexed": false,
          "internalType": "uint256",
          "name": "progress",
          "type": "uint256"
        }
      ],
      "name": "QuestProgressUpdated",
      "type": "event"
    },
    {
      "anonymous": false,
      "inputs": [
        {
          "indexed": true,
          "internalType": "bytes32",
          "name": "role",
          "type": "bytes32"
        },
        {
          "indexed": true,
          "internalType": "bytes32",
          "name": "previousAdminRole",
          "type": "bytes32"
        },
        {
          "indexed": true,
          "internalType": "bytes32",
          "name": "newAdminRole",
          "type": "bytes32"
        }
      ],
      "name": "RoleAdminChanged",
      "type": "event"
    },
    {
      "anonymous": false,
      "inputs": [
        {
          "indexed": true,
          "internalType": "bytes32",
          "name": "role",
          "type": "bytes32"
        },
        {
          "indexed": true,
          "internalType": "address",
          "name": "account",
          "type": "address"
        },
        {
          "indexed": true,
          "internalType": "address",
          "name": "sender",
          "type": "address"
        }
      ],
      "name": "RoleGranted",
      "type": "event"
    },
    {
      "anonymous": false,
      "inputs": [
        {
          "indexed": true,
          "internalType": "bytes32",
          "name": "role",
          "type": "bytes32"
        },
        {
          "indexed": true,
          "internalType": "address",
          "name": "account",
          "type": "address"
        },
        {
          "indexed": true,
          "internalType": "address",
          "name": "sender",
          "type": "address"
        }
      ],
      "name": "RoleRevoked",
      "type": "event"
    },
    {
      "anonymous": false,
      "inputs": [
        {
          "indexed": false,
          "internalType": "address",
          "name": "account",
          "type": "address"
        }
      ],
      "name": "Unpaused",
      "type": "event"
    },
    {
      "inputs": [],
      "name": "ADMIN_ROLE",
      "outputs": [
        {
          "internalType": "bytes32",
          "name": "",
          "type": "bytes32"
        }
      ],
      "stateMutability": "view",
      "type": "function"
    },
    {
      "inputs": [],
      "name": "DEFAULT_ADMIN_ROLE",
      "outputs": [
        {
          "internalType": "bytes32",
          "name": "",
          "type": "bytes32"
        }
      ],
      "stateMutability": "view",
      "type": "function"
    },
    {
      "inputs": [
        {
          "internalType": "uint256",
          "name": "_questId",
          "type": "uint256"
        }
      ],
      "name": "completeQuest",
      "outputs": [],
      "stateMutability": "nonpayable",
      "type": "function"
    },
    {
      "inputs": [],
      "name": "coreContractAddress",
      "outputs": [
        {
          "internalType": "address",
          "name": "",
          "type": "address"
        }
      ],
      "stateMutability": "view",
      "type": "function"
    },
    {
      "inputs": [
        {
          "internalType": "enum GameifiedMarketplaceQuests.QuestType",
          "name": "_questType",
          "type": "uint8"
        },
        {
          "internalType": "string",
          "name": "_title",
          "type": "string"
        },
        {
          "internalType": "string",
          "name": "_description",
          "type": "string"
        },
        {
          "internalType": "uint256",
          "name": "_requirement",
          "type": "uint256"
        },
        {
          "internalType": "uint256",
          "name": "_xpReward",
          "type": "uint256"
        }
      ],
      "name": "createQuest",
      "outputs": [
        {
          "internalType": "uint256",
          "name": "",
          "type": "uint256"
        }
      ],
      "stateMutability": "nonpayable",
      "type": "function"
    },
    {
      "inputs": [
        {
          "internalType": "uint256",
          "name": "_questId",
          "type": "uint256"
        }
      ],
      "name": "deactivateQuest",
      "outputs": [],
      "stateMutability": "nonpayable",
      "type": "function"
    },
    {
      "inputs": [
        {
          "internalType": "uint256",
          "name": "_questId",
          "type": "uint256"
        }
      ],
      "name": "getQuest",
      "outputs": [
        {
          "components": [
            {
              "internalType": "uint256",
              "name": "questId",
              "type": "uint256"
            },
            {
              "internalType": "enum GameifiedMarketplaceQuests.QuestType",
              "name": "questType",
              "type": "uint8"
            },
            {
              "internalType": "string",
              "name": "title",
              "type": "string"
            },
            {
              "internalType": "string",
              "name": "description",
              "type": "string"
            },
            {
              "internalType": "uint256",
              "name": "requirement",
              "type": "uint256"
            },
            {
              "internalType": "uint256",
              "name": "xpReward",
              "type": "uint256"
            },
            {
              "internalType": "bool",
              "name": "active",
              "type": "bool"
            },
            {
              "internalType": "uint256",
              "name": "createdAt",
              "type": "uint256"
            }
          ],
          "internalType": "struct GameifiedMarketplaceQuests.Quest",
          "name": "",
          "type": "tuple"
        }
      ],
      "stateMutability": "view",
      "type": "function"
    },
    {
      "inputs": [
        {
          "internalType": "bytes32",
          "name": "role",
          "type": "bytes32"
        }
      ],
      "name": "getRoleAdmin",
      "outputs": [
        {
          "internalType": "bytes32",
          "name": "",
          "type": "bytes32"
        }
      ],
      "stateMutability": "view",
      "type": "function"
    },
    {
      "inputs": [
        {
          "internalType": "address",
          "name": "_user",
          "type": "address"
        }
      ],
      "name": "getUserCompletedQuests",
      "outputs": [
        {
          "internalType": "uint256[]",
          "name": "",
          "type": "uint256[]"
        }
      ],
      "stateMutability": "view",
      "type": "function"
    },
    {
      "inputs": [
        {
          "internalType": "address",
          "name": "_user",
          "type": "address"
        },
        {
          "internalType": "uint256",
          "name": "_questId",
          "type": "uint256"
        }
      ],
      "name": "getUserQuestProgress",
      "outputs": [
        {
          "components": [
            {
              "internalType": "uint256",
              "name": "questId",
              "type": "uint256"
            },
            {
              "internalType": "uint256",
              "name": "currentProgress",
              "type": "uint256"
            },
            {
              "internalType": "bool",
              "name": "completed",
              "type": "bool"
            },
            {
              "internalType": "uint256",
              "name": "completedAt",
              "type": "uint256"
            }
          ],
          "internalType": "struct GameifiedMarketplaceQuests.UserQuestProgress",
          "name": "",
          "type": "tuple"
        }
      ],
      "stateMutability": "view",
      "type": "function"
    },
    {
      "inputs": [
        {
          "internalType": "bytes32",
          "name": "role",
          "type": "bytes32"
        },
        {
          "internalType": "address",
          "name": "account",
          "type": "address"
        }
      ],
      "name": "grantRole",
      "outputs": [],
      "stateMutability": "nonpayable",
      "type": "function"
    },
    {
      "inputs": [
        {
          "internalType": "bytes32",
          "name": "role",
          "type": "bytes32"
        },
        {
          "internalType": "address",
          "name": "account",
          "type": "address"
        }
      ],
      "name": "hasRole",
      "outputs": [
        {
          "internalType": "bool",
          "name": "",
          "type": "bool"
        }
      ],
      "stateMutability": "view",
      "type": "function"
    },
    {
      "inputs": [],
      "name": "pause",
      "outputs": [],
      "stateMutability": "nonpayable",
      "type": "function"
    },
    {
      "inputs": [],
      "name": "paused",
      "outputs": [
        {
          "internalType": "bool",
          "name": "",
          "type": "bool"
        }
      ],
      "stateMutability": "view",
      "type": "function"
    },
    {
      "inputs": [
        {
          "internalType": "uint256",
          "name": "",
          "type": "uint256"
        }
      ],
      "name": "quests",
      "outputs": [
        {
          "internalType": "uint256",
          "name": "questId",
          "type": "uint256"
        },
        {
          "internalType": "enum GameifiedMarketplaceQuests.QuestType",
          "name": "questType",
          "type": "uint8"
        },
        {
          "internalType": "string",
          "name": "title",
          "type": "string"
        },
        {
          "internalType": "string",
          "name": "description",
          "type": "string"
        },
        {
          "internalType": "uint256",
          "name": "requirement",
          "type": "uint256"
        },
        {
          "internalType": "uint256",
          "name": "xpReward",
          "type": "uint256"
        },
        {
          "internalType": "bool",
          "name": "active",
          "type": "bool"
        },
        {
          "internalType": "uint256",
          "name": "createdAt",
          "type": "uint256"
        }
      ],
      "stateMutability": "view",
      "type": "function"
    },
    {
      "inputs": [
        {
          "internalType": "bytes32",
          "name": "role",
          "type": "bytes32"
        },
        {
          "internalType": "address",
          "name": "account",
          "type": "address"
        }
      ],
      "name": "renounceRole",
      "outputs": [],
      "stateMutability": "nonpayable",
      "type": "function"
    },
    {
      "inputs": [
        {
          "internalType": "bytes32",
          "name": "role",
          "type": "bytes32"
        },
        {
          "internalType": "address",
          "name": "account",
          "type": "address"
        }
      ],
      "name": "revokeRole",
      "outputs": [],
      "stateMutability": "nonpayable",
      "type": "function"
    },
    {
      "inputs": [
        {
          "internalType": "address",
          "name": "_stakingAddress",
          "type": "address"
        }
      ],
      "name": "setStakingContract",
      "outputs": [],
      "stateMutability": "nonpayable",
      "type": "function"
    },
    {
      "inputs": [],
      "name": "stakingContractAddress",
      "outputs": [
        {
          "internalType": "address",
          "name": "",
          "type": "address"
        }
      ],
      "stateMutability": "view",
      "type": "function"
    },
    {
      "inputs": [
        {
          "internalType": "bytes4",
          "name": "interfaceId",
          "type": "bytes4"
        }
      ],
      "name": "supportsInterface",
      "outputs": [
        {
          "internalType": "bool",
          "name": "",
          "type": "bool"
        }
      ],
      "stateMutability": "view",
      "type": "function"
    },
    {
      "inputs": [],
      "name": "unpause",
      "outputs": [],
      "stateMutability": "nonpayable",
      "type": "function"
    },
    {
      "inputs": [
        {
          "internalType": "address",
          "name": "_user",
          "type": "address"
        },
        {
          "internalType": "uint256",
          "name": "_questId",
          "type": "uint256"
        }
      ],
      "name": "updateQuestProgress",
      "outputs": [],
      "stateMutability": "nonpayable",
      "type": "function"
    },
    {
      "inputs": [
        {
          "internalType": "address",
          "name": "",
          "type": "address"
        },
        {
          "internalType": "uint256",
          "name": "",
          "type": "uint256"
        }
      ],
      "name": "userCompletedQuests",
      "outputs": [
        {
          "internalType": "uint256",
          "name": "",
          "type": "uint256"
        }
      ],
      "stateMutability": "view",
      "type": "function"
    },
    {
      "inputs": [
        {
          "internalType": "address",
          "name": "",
          "type": "address"
        },
        {
          "internalType": "uint256",
          "name": "",
          "type": "uint256"
        }
      ],
      "name": "userQuestProgress",
      "outputs": [
        {
          "internalType": "uint256",
          "name": "questId",
          "type": "uint256"
        },
        {
          "internalType": "uint256",
          "name": "currentProgress",
          "type": "uint256"
        },
        {
          "internalType": "bool",
          "name": "completed",
          "type": "bool"
        },
        {
          "internalType": "uint256",
          "name": "completedAt",
          "type": "uint256"
        }
      ],
      "stateMutability": "view",
      "type": "function"
    }
  ],
  "bytecode": "0x60806040523461002a576100196100146100bf565b610149565b60405161242961028d823961242990f35b5f80fd5b634e487b7160e01b5f52604160045260245ffd5b90601f01601f191681019081106001600160401b0382111761006357604052565b61002e565b9061007c61007560405190565b9283610042565b565b6001600160a01b031690565b90565b6001600160a01b0381160361002a57565b9050519061007c8261008d565b9060208282031261002a5761008a9161009e565b61008a6126b6803803806100d281610068565b9283398101906100ab565b61008a61008a61008a9290565b61008a5f6100dd565b906001600160a01b03905b9181191691161790565b61008a9061007e906001600160a01b031682565b61008a90610108565b61008a9061011c565b9061013e61008a61014592610125565b82546100f3565b9055565b61007c906101556101b7565b6101676101606100ea565b33906101c2565b6101907fa49807205ce4d355092ef5a8a18f56e8913cf4a201fbe287825b095693c21775610160565b600661012e565b9060ff906100fe565b906101b061008a61014592151590565b8254610197565b61007c5f60016101a0565b9061007c916101e4565b905b5f5260205260405f2090565b906101ce90610125565b6101f56101f1838361026d565b1590565b6101fd575050565b61021c6001610217845f61021186826101cc565b016101da565b6101a0565b61023661023061022a339390565b93610125565b91610125565b917f2f8788117e7eff1d82e926ec794901d17c78024a50270940304540a733656f0d61026160405190565b5f90a4565b5460ff1690565b61008a915f610211610287936102805f90565b50826101cc565b61026656fe60806040526004361015610011575f80fd5b5f3560e01c806301ffc9a714610190578063248a9ca31461018b5780632f2ff15d146101865780633535f48b1461018157806336568abe1461017c57806338258252146101775780633f4ba83a1461017257806347f726051461016d57806349f86f3414610168578063528be0a9146101635780635c975abb1461015e57806375b238fc146101595780637f221734146101545780638456cb591461014f57806391d148541461014a5780639685391c146101455780639dd373b914610140578063a217fddf1461013b578063bd07aabf14610136578063c110165614610131578063d547741f1461012c578063e085f98014610127578063e9d2821d146101225763f4f798490361019557610baf565b610b31565b610afa565b6108e8565b6108cf565b6108b4565b61088e565b610865565b61082f565b61075c565b610744565b610728565b61068c565b610671565b610659565b610632565b6104e4565b61048b565b610459565b61032c565b6102f7565b6102a5565b61022e565b6101d6565b5f80fd5b6001600160e01b031981165b0361019557565b905035906101b982610199565b565b90602082820312610195576101cf916101ac565b90565b9052565b34610195576102036101f16101ec3660046101bb565b610bd6565b60405191829182901515815260200190565b0390f35b806101a5565b905035906101b982610207565b90602082820312610195576101cf9161020d565b346101955761020361024961024436600461021a565b610c16565b6040515b9182918290815260200190565b6001600160a01b031690565b6001600160a01b0381166101a5565b905035906101b982610266565b9190604083820312610195576101cf90602061029e828661020d565b9401610275565b34610195576102be6102b8366004610282565b90610c53565b604051005b5f91031261019557565b6101cf916008021c6001600160a01b031690565b906101cf91546102cd565b6101cf5f60076102e1565b34610195576103073660046102c3565b6102036103126102ec565b604051918291826001600160a01b03909116815260200190565b34610195576102be61033f366004610282565b90610cc6565b9190604083820312610195576101cf9060206103618286610275565b940161020d565b61025a6101cf6101cf926001600160a01b031690565b6101cf90610368565b6101cf9061037e565b9061039a90610387565b5f5260205260405f2090565b6101cf6101cf6101cf9290565b9061039a906103a6565b6101cf9081565b6101cf90546103bd565b6101cf905b60ff1690565b6101cf90546103ce565b906103f26103f7926004610390565b6103b3565b90610401826103c4565b9161040e600182016103c4565b916101cf6003610420600285016103d9565b93016103c4565b6104556101b99461044c606094989795610445608086019a5f870152565b6020850152565b15156040830152565b0152565b346101955761020361047561046f366004610345565b906103e3565b9061048294929460405190565b94859485610427565b346101955761049b3660046102c3565b6102be610d0d565b805182526101b9919060609081906104c060208201516020860152565b6040818101511515908501525b0151910152565b6080810192916101b991906104a3565b34610195576102036105006104fa366004610345565b90610dbd565b604051918291826104d4565b634e487b7160e01b5f52602160045260245ffd5b6005111561052a57565b61050c565b906101b982610520565b6101cf9061052f565b6101d290610539565b5f5b83811061055c5750505f910152565b818101518382015260200161054d565b61058d6105966020936105a093610581815190565b80835293849260200190565b9586910161054b565b601f01601f191690565b0190565b80518252906101cf9060e0806105f16105df61010085016105cd60208901516020880190610542565b6040880151868203604088015261056c565b6060870151858203606087015261056c565b9461060160808201516080860152565b61061060a082015160a0860152565b60c0818101511515908501526104cd565b60208082526101cf929101906105a4565b346101955761020361064d61064836600461021a565b610f1d565b60405191829182610621565b34610195576102be61066c36600461021a565b6113e0565b34610195576106813660046102c3565b6102036101f16113e9565b346101955761069c3660046102c3565b6102035f5160206123d45f395f51905f52610249565b634e487b7160e01b5f52603260045260245ffd5b80548210156106e6576106de6001915f5260205f2090565b910201905f90565b6106b2565b6101cf916008021c81565b906101cf91546106eb565b61070c906005610390565b8054821015610195576101cf91610722916106c6565b906106f6565b346101955761020361024961073e366004610345565b90610701565b34610195576107543660046102c3565b6102be611414565b34610195576102036101f1610772366004610282565b9061141c565b6005111561019557565b905035906101b982610778565b909182601f830112156101955781359167ffffffffffffffff831161019557602001926001830284011161019557565b909160a082840312610195576107d58383610782565b92602083013567ffffffffffffffff811161019557816107f691850161078f565b92909360408101359167ffffffffffffffff83116101955761081d846101cf94840161078f565b9390946080610361826060870161020d565b34610195576102036102496108453660046107bf565b959490949391936118b8565b90602082820312610195576101cf91610275565b34610195576102be610878366004610851565b611976565b6101cf5f6103a6565b6101cf61087d565b346101955761089e3660046102c3565b610203610249610886565b6101cf5f60066102e1565b34610195576108c43660046102c3565b6102036103126108a9565b34610195576102be6108e2366004610345565b90611a08565b34610195576102be6108fb366004610282565b90611a2d565b634e487b7160e01b5f52602260045260245ffd5b9060016002830492168015610935575b602083101461093057565b610901565b91607f1691610925565b80545f93929161095b61095183610915565b8085529360200190565b91600181169081156109aa575060011461097457505050565b61098591929394505f5260205f2090565b915f925b8184106109965750500190565b805484840152602090930192600101610989565b92949550505060ff1916825215156020020190565b906101cf9161093f565b634e487b7160e01b5f52604160045260245ffd5b90601f01601f1916810190811067ffffffffffffffff8211176109ff57604052565b6109c9565b906101b9610a1e92610a1560405190565b938480926109bf565b03836109dd565b610a309060036103b3565b90610a3a826103c4565b91610a47600182016103d9565b91610a5460028301610a04565b91610a6160038201610a04565b91610a6e600483016103c4565b91610a7b600582016103c4565b916101cf6007610420600685016103d9565b9395610aea610ae260e0979b9a98610ad48861045598610ac76101b99e99610abd610af19a5f6101008701960152565b60208d0190610542565b8a820360408c015261056c565b9088820360608a015261056c565b9a6080870152565b60a0850152565b151560c0830152565b3461019557610203610b15610b1036600461021a565b610a25565b94610b2898969894919493929360405190565b98899889610a8d565b34610195576102be610b4436600461021a565b611afc565b90610b69610b62610b58845190565b8084529260200190565b9260200190565b905f5b818110610b795750505090565b909192610b96610b8f6001928651815260200190565b9460200190565b929101610b6c565b60208082526101cf92910190610b49565b3461019557610203610bca610bc5366004610851565b611b87565b60405191829182610b9e565b637965db0b60e01b6001600160e01b0319821614908115610bf5575090565b6101cf91506001600160e01b0319166301ffc9a760e01b1490565b9061039a565b6001610c2d6101cf92610c265f90565b505f610c10565b016103c4565b906101b991610c49610c4482610c16565b611ba3565b906101b991611bae565b906101b991610c33565b15610c6457565b60405162461bcd60e51b815260206004820152602f60248201527f416363657373436f6e74726f6c3a2063616e206f6e6c792072656e6f756e636560448201526e103937b632b9903337b91039b2b63360891b606482015280608481015b0390fd5b6101b99190610ce7610cd73361025a565b6001600160a01b03841614610c5d565b611c26565b610d025f5160206123d45f395f51905f52611ba3565b6101b96101b9611cc9565b6101b9610cec565b906101b9610d2260405190565b92836109dd565b6101cf6080610d15565b610d3b610d29565b905f8252602080808085015f5b8152015f8152015f905250565b6101cf610d33565b906101b9610dad6003610d6e610d29565b94610d7f610d7b826103c4565b8752565b610d95610d8e600183016103c4565b6020880152565b610c2d610da4600283016103d9565b15156040880152565b6060840152565b6101cf90610d5d565b6101cf916103f2610dd892610dd0610d55565b506004610390565b610db4565b6101cf610100610d15565b610df0610ddd565b905f825260208080808080808089015f815201606081520160608152015f8152015f610d48565b6101cf610de8565b15610e2657565b60405162461bcd60e51b815260206004820152600f60248201526e145d595cdd081b9bdd08199bdd5b99608a1b6044820152606490fd5b906101d29061052f565b906101b9610f0d6007610e78610ddd565b94610e85610d7b826103c4565b610e9d610e94600183016103d9565b60208801610e5d565b610eb3610eac60028301610a04565b6040880152565b610ec9610ec260038301610a04565b6060880152565b610edf610ed8600483016103c4565b6080880152565b610ef5610eee600583016103c4565b60a0880152565b610c2d610f04600683016103d9565b151560c0880152565b60e0840152565b6101cf90610e67565b610f526101cf91610f2c610e17565b50610f4b610f466006610f408460036103b3565b016103d9565b610e1f565b60036103b3565b610f14565b6101b990610f63611d10565b6111aa565b15610f6f57565b60405162461bcd60e51b815260206004820152601060248201526f5175657374206e6f742061637469766560801b6044820152606490fd5b15610fae57565b60405162461bcd60e51b8152602060048201526011602482015270105b1c9958591e4818dbdb5c1b195d1959607a1b6044820152606490fd5b15610fee57565b60405162461bcd60e51b815260206004820152601360248201527214995c5d5a5c995b595b9d081b9bdd081b595d606a1b6044820152606490fd5b905f19905b9181191691161790565b906110486101cf61104f926103a6565b8254611029565b9055565b9060ff9061102e565b9061106c6101cf61104f92151590565b8254611053565b60036110c660606101b99461109161108b5f83015190565b86611038565b6110a861109f602083015190565b60018701611038565b6110c16110b86040830151151590565b6002870161105c565b015190565b9101611038565b906101b991611073565b915f1960089290920291821b911b61102e565b91906110fb6101cf61104f936103a6565b9083546110d7565b90815491680100000000000000008310156109ff578261112b9160016101b9950181556106c6565b906110ea565b6101cf9061025a565b6101cf9054611131565b6001600160a01b0390911681526040810192916101b99160200152565b6040513d5f823e3d90fd5b61025a6101cf6101cf9290565b6101cf9061116c565b6001600160a01b0390911681526060810193926101b9929091604091610455905b6020830152565b6111b8610f528260036103b3565b6111cd6111c860c0830151151590565b610f68565b6004906111f26111ed6111e96002610f40876103f23389610390565b1590565b610fa7565b6112516111ff8233611e14565b6112186112106101cf608086015190565b821015610fe7565b61122c611223610d29565b916111a3878452565b6001604082015261123e426060830152565b61124c856103f23387610390565b6110cd565b611268836112636101cf336005610390565b611103565b60a061127f61127a61127a600661113a565b610387565b91019061128a825190565b90803b15610195576112be5f929183926112a360405190565b9485938492839190632f7e13eb60e11b8352338b8401611144565b03925af180156113c6576113cb575b506112d8600761113a565b6112f46112e761025a5f611179565b916001600160a01b031690565b03611344575b5190505b907fe0b5124b12e878158288d1002ed1fb960faff0ec1c7b3168f86d9d1afd1b0d8b61133f61133561132f33610387565b936103a6565b9361024d60405190565b0390a3565b61135461127a61127a600761113a565b9161135d825190565b833b156101955761138f93855f809461137560405190565b97889586948593633fd51fbf60e01b855233908501611182565b03925af19182156113c6576112fe926113a9575b506112fa565b6113c0905f6113b881836109dd565b8101906102c3565b5f6113a3565b611161565b6113da905f6113b881836109dd565b5f6112cd565b6101b990610f57565b6101cf60016103d9565b6114095f5160206123d45f395f51905f52611ba3565b6101b96101b9611fa8565b6101b96113f3565b6101cf915f61143661143c9361142f5f90565b5082610c10565b01610390565b6103d9565b6101cf97969594939291906114625f5160206123d45f395f51905f52611ba3565b6117b2565b1561146e57565b60405162461bcd60e51b8152602060048201526013602482015272125b9d985b1a59081c995c5d5a5c995b595b9d606a1b6044820152606490fd5b156114b057565b60405162461bcd60e51b815260206004820152600e60248201526d125b9d985b1a59081c995dd85c9960921b6044820152606490fd5b67ffffffffffffffff81116109ff57602090601f01601f19160190565b90825f939282370152565b9092919261152361151e826114e6565b610d15565b9381855281830111610195576101b9916020850190611503565b6101cf91369161150e565b6101cf905161052f565b9061106c6101cf61104f92610539565b6101b9915f916110ea565b818110611578575050565b806115855f600193611562565b0161156d565b9190601f811161159a57505050565b6115aa6101b9935f5260205f2090565b906020601f8401819004830193106115cc575b6020601f90910104019061156d565b90915081906115bd565b906115df815190565b9067ffffffffffffffff82116109ff57611603826115fd8554610915565b8561158b565b602090601f831160011461163c5761104f92915f9183611631575b50505f19600883021c1916906002021790565b015190505f8061161e565b601f1983169161164f855f5260205f2090565b925f5b81811061168b57509160029391856001969410611673575b50505002019055565b01515f196008601f8516021c191690555f808061166a565b91936020600181928787015181550195019201611652565b906101b9916115d6565b60076110c660e06101b9946116c561108b5f83015190565b6116dd6116d460208301611548565b60018701611552565b6116f46116eb604083015190565b600287016116a3565b61170b611702606083015190565b600387016116a3565b611722611719608083015190565b60048701611038565b61173961173060a083015190565b60058701611038565b6110c161174960c0830151151590565b6006870161105c565b906101b9916116ad565b919061059681611773816105a09560209181520190565b8095611503565b906117aa610455916101b99698979560609561179d60808701935f880190610542565b858303602087015261175c565b966040830152565b9691939694909294506117c45f6103a6565b86116117cf90611467565b6117d85f6103a6565b82116117e3906114a9565b6002966117ef88611fb0565b976117f990611fc3565b611801610ddd565b9161180a898452565b6118178560208501610e5d565b611821878761153d565b604084015261182f9161153d565b606082015261183f866080830152565b61184a8260a0830152565b600160c082015261185c4260e0830152565b6118678760036103b3565b9061187191611752565b61187a866103a6565b9461188460405190565b948594611891948661177a565b037fb8abc18ba7191953b6f26fb8d5eea6ea1275367682c9ec994c65c891c0a0fe7b91a290565b6101cf969594939291905f611441565b6101b9906118e25f5160206123d45f395f51905f52611ba3565b61194b565b156118ee57565b60405162461bcd60e51b815260206004820152600f60248201526e496e76616c6964206164647265737360881b6044820152606490fd5b906001600160a01b039061102e565b906119446101cf61104f92610387565b8254611925565b6101b99061196f61195e61025a5f611179565b6001600160a01b03831614156118e7565b6007611934565b6101b9906118c8565b6101b9919061199a5f5160206123d45f395f51905f52611ba3565b907f95b529ceb2b4c5026133eafcb0f6e7e63f17c39398d1b67e14569272cf3c956b61133f61133561132f6119ec6119d6610f528760036103b3565b6119e66111c860c0830151151590565b87611e14565b9561127a876001611a02896103f2866004610390565b01611038565b906101b99161197f565b906101b991611a23610c4482610c16565b906101b991611c26565b906101b991611a12565b6101b990611a515f5160206123d45f395f51905f52611ba3565b611a95565b15611a5d57565b60405162461bcd60e51b815260206004820152601060248201526f416c726561647920696e61637469766560801b6044820152606490fd5b611acd90611ab1611aac6006610f408460036103b3565b611a56565b611ac85f6006611ac28460036103b3565b0161105c565b6103a6565b7ffe9e2f781236bffd062f9dfcd0b9b06f51589ac3187e0cb8532d990a0d3fe964611af760405190565b5f90a2565b6101b990611a37565b90611b1e611b14610b58845490565b925f5260205f2090565b905f5b818110611b2e5750505090565b909192611b52611b4b600192611b43876103c4565b815260200190565b9460010190565b929101611b21565b906101cf91611b05565b906101b9610a1e92611b7560405190565b93848092611b5a565b6101cf90611b64565b611b9e6101cf91611b96606090565b506005610390565b611b7e565b6101b990339061207d565b611bbb6111e9838361141c565b611bc3575050565b611bdc6001611bd7845f6114368682610c10565b61105c565b611bf6611bf0611bea339390565b93610387565b91610387565b917f2f8788117e7eff1d82e926ec794901d17c78024a50270940304540a733656f0d611c2160405190565b5f90a4565b611c30828261141c565b611c38575050565b611c4b5f611bd784826114368682610c10565b611c59611bf0611bea339390565b917ff6391f5c32d9c69d2a47ea670b442974b53935d1edc7fd64eb21e047a839171b611c2160405190565b611c8c61214d565b6101b9611c9a5f600161105c565b7f5db9ee0a495bf2e6ff9c91a7834c1ba4fdd244a5e8aa4e537bd38aeae4b073aa611cc433610312565b0390a1565b6101b9611c84565b15611cd857565b60405162461bcd60e51b815260206004820152601060248201526f14185d5cd8589b194e881c185d5cd95960821b6044820152606490fd5b6101b9611d1e6111e96113e9565b611cd1565b905051906101b982610207565b60ff81166101a5565b905051906101b982611d30565b63ffffffff81166101a5565b905051906101b982611d46565b919060c08382031261019557611dd69060a0611d7b60c0610d15565b94611d868382611d23565b8652611d958360208301611d39565b6020870152611da78360408301611d23565b6040870152611db98360608301611d23565b6060870152611dcb8360808301611d52565b608087015201611d52565b60a0830152565b9060c082820312610195576101cf91611d5f565b6101cf6101cf6101cf9260ff1690565b6101cf6101cf6101cf9263ffffffff1690565b9060c0611e5e92611e225f90565b50611e3361127a61127a600661113a565b6040519485928391829163332d56d760e01b8352600483016001600160a01b03909116815260200190565b03915afa9182156113c6575f92611f34575b50602001611e7d81611548565b611e8f611e895f61052f565b9161052f565b03611ea8575060a001516101cf9063ffffffff16611e01565b611eb181611548565b611ebe611e89600161052f565b03611ecb57506040015190565b611ed481611548565b611ee1611e89600461052f565b03611efa5750608001516101cf9063ffffffff16611e01565b611f0390611548565b611f10611e89600361052f565b14611f1f57506101cf5f6103a6565b602001516101cf9060ff16611df1565b611df1565b6020919250611f5a9060c03d60c011611f61575b611f5281836109dd565b810190611ddd565b9190611e70565b503d611f48565b611f70611d10565b6101b9611f7e60018061105c565b7f62e78cea01bee320cd4e420270b5ea74000d11b0c9f74754ebdbfc544b05a258611cc433610312565b6101b9611f68565b5f6101cf91611fbc5f90565b50016103c4565b6101b990611fe15f611fd560016103a6565b9201916105a0836103c4565b90611038565b6101cf906103a6565b6105a061200892602092612002815190565b94859290565b9384910161054b565b61204f6101cf9392612049612049937f416363657373436f6e74726f6c3a206163636f756e7420000000000000000000815260170190565b90611ff0565b7001034b99036b4b9b9b4b733903937b6329607d1b815260110190565b60208082526101cf9291019061056c565b9061208b6111e9828461141c565b612093575050565b6120dd6101cf610cc2936120c56120b56120af6120e99661218a565b92611fe7565b6120bf60206103a6565b906122b5565b906120cf60405190565b938492602084019283612011565b908103825203826109dd565b60405162461bcd60e51b81529182916004830161206c565b1561210857565b60405162461bcd60e51b815260206004820152601460248201527f5061757361626c653a206e6f74207061757365640000000000000000000000006044820152606490fd5b6101b96121586113e9565b612101565b6101cf6101cf6101cf926001600160a01b031690565b6103d36101cf6101cf9290565b6101cf6014612173565b6121a76121a26101cf9261219c606090565b5061037e565b61215d565b6120bf611f2f612180565b634e487b7160e01b5f52601160045260245ffd5b818102929181159184041417156121d957565b6121b2565b919082018092116121d957565b906121f861151e836114e6565b918252565b369037565b906101b9612218612212846121eb565b936114e6565b601f1901602084016121fd565b9061222e825190565b8110156106e6570160200190565b80156121d9575f190190565b6101cf9061226061225c6101cf9460ff1690565b9190565b901c90565b1561226c57565b60405162461bcd60e51b815280610cc2600482016020808252818101527f537472696e67733a20686578206c656e67746820696e73756666696369656e74604082015260600190565b6122e36122de6122ce846122c960026103a6565b6121c6565b6122d860026103a6565b906121de565b612202565b9160306122f86122f25f6103a6565b85612225565b53600f60fb1b61233161232860019384935f1a61231d612317866103a6565b89612225565b536122c960026103a6565b6122d8836103a6565b915b612354575b5050906101cf6101cf9261234e61225c5f6103a6565b14612265565b909161235f826103a6565b8311156123cd576f181899199a1a9b1b9c1cb0b131b232b360811b612384600f6103a6565b82169060108210156106e65783926123a46123c1926123c7941a60f81b90565b5f1a6123b08789612225565b536123bb6004612173565b90612248565b9361223c565b91612333565b9161233856fea49807205ce4d355092ef5a8a18f56e8913cf4a201fbe287825b095693c21775a2646970667358221220a2223b408eab468ff949d644f882662872395e33bddd8a90d8ef83bd5d7ae56164736f6c634300081c0033",
  "linkReferences": {},
  "deployedLinkReferences": {}
}