{
  "_format": "hh-sol-artifact-1",
  "contractName": "GameifiedMarketplaceQuests",
  "sourceName": "contracts/Marketplace/GameifiedMarketplaceQuests.sol",
  "abi": [
    {
      "inputs": [
        {
          "internalType": "address",
          "name": "_coreAddress",
          "type": "address"
        }
      ],
      "stateMutability": "nonpayable",
      "type": "constructor"
    },
    {
      "inputs": [],
      "name": "AlreadyCompleted",
      "type": "error"
    },
    {
      "inputs": [],
      "name": "InvalidAddress",
      "type": "error"
    },
    {
      "inputs": [],
      "name": "InvalidMetadata",
      "type": "error"
    },
    {
      "inputs": [],
      "name": "InvalidRequirement",
      "type": "error"
    },
    {
      "inputs": [],
      "name": "InvalidXPReward",
      "type": "error"
    },
    {
      "inputs": [],
      "name": "QuestNotActive",
      "type": "error"
    },
    {
      "inputs": [],
      "name": "QuestNotFound",
      "type": "error"
    },
    {
      "inputs": [],
      "name": "RequirementNotMet",
      "type": "error"
    },
    {
      "anonymous": false,
      "inputs": [
        {
          "indexed": true,
          "internalType": "address",
          "name": "oldCore",
          "type": "address"
        },
        {
          "indexed": true,
          "internalType": "address",
          "name": "newCore",
          "type": "address"
        }
      ],
      "name": "CoreContractUpdated",
      "type": "event"
    },
    {
      "anonymous": false,
      "inputs": [
        {
          "indexed": false,
          "internalType": "address",
          "name": "account",
          "type": "address"
        }
      ],
      "name": "Paused",
      "type": "event"
    },
    {
      "anonymous": false,
      "inputs": [
        {
          "indexed": true,
          "internalType": "address",
          "name": "user",
          "type": "address"
        },
        {
          "indexed": true,
          "internalType": "uint256",
          "name": "questId",
          "type": "uint256"
        },
        {
          "indexed": false,
          "internalType": "uint256",
          "name": "xpReward",
          "type": "uint256"
        }
      ],
      "name": "QuestCompleted",
      "type": "event"
    },
    {
      "anonymous": false,
      "inputs": [
        {
          "indexed": true,
          "internalType": "uint256",
          "name": "questId",
          "type": "uint256"
        },
        {
          "indexed": false,
          "internalType": "enum GameifiedMarketplaceQuests.QuestType",
          "name": "questType",
          "type": "uint8"
        },
        {
          "indexed": false,
          "internalType": "string",
          "name": "title",
          "type": "string"
        },
        {
          "indexed": false,
          "internalType": "uint256",
          "name": "requirement",
          "type": "uint256"
        },
        {
          "indexed": false,
          "internalType": "uint256",
          "name": "xpReward",
          "type": "uint256"
        }
      ],
      "name": "QuestCreated",
      "type": "event"
    },
    {
      "anonymous": false,
      "inputs": [
        {
          "indexed": true,
          "internalType": "uint256",
          "name": "questId",
          "type": "uint256"
        }
      ],
      "name": "QuestDeactivated",
      "type": "event"
    },
    {
      "anonymous": false,
      "inputs": [
        {
          "indexed": true,
          "internalType": "address",
          "name": "user",
          "type": "address"
        },
        {
          "indexed": true,
          "internalType": "uint256",
          "name": "questId",
          "type": "uint256"
        },
        {
          "indexed": false,
          "internalType": "uint256",
          "name": "progress",
          "type": "uint256"
        }
      ],
      "name": "QuestProgressUpdated",
      "type": "event"
    },
    {
      "anonymous": false,
      "inputs": [
        {
          "indexed": true,
          "internalType": "bytes32",
          "name": "role",
          "type": "bytes32"
        },
        {
          "indexed": true,
          "internalType": "bytes32",
          "name": "previousAdminRole",
          "type": "bytes32"
        },
        {
          "indexed": true,
          "internalType": "bytes32",
          "name": "newAdminRole",
          "type": "bytes32"
        }
      ],
      "name": "RoleAdminChanged",
      "type": "event"
    },
    {
      "anonymous": false,
      "inputs": [
        {
          "indexed": true,
          "internalType": "bytes32",
          "name": "role",
          "type": "bytes32"
        },
        {
          "indexed": true,
          "internalType": "address",
          "name": "account",
          "type": "address"
        },
        {
          "indexed": true,
          "internalType": "address",
          "name": "sender",
          "type": "address"
        }
      ],
      "name": "RoleGranted",
      "type": "event"
    },
    {
      "anonymous": false,
      "inputs": [
        {
          "indexed": true,
          "internalType": "bytes32",
          "name": "role",
          "type": "bytes32"
        },
        {
          "indexed": true,
          "internalType": "address",
          "name": "account",
          "type": "address"
        },
        {
          "indexed": true,
          "internalType": "address",
          "name": "sender",
          "type": "address"
        }
      ],
      "name": "RoleRevoked",
      "type": "event"
    },
    {
      "anonymous": false,
      "inputs": [
        {
          "indexed": true,
          "internalType": "address",
          "name": "user",
          "type": "address"
        },
        {
          "indexed": false,
          "internalType": "uint256",
          "name": "newTotal",
          "type": "uint256"
        }
      ],
      "name": "SocialActionRecorded",
      "type": "event"
    },
    {
      "anonymous": false,
      "inputs": [
        {
          "indexed": true,
          "internalType": "address",
          "name": "oldStaking",
          "type": "address"
        },
        {
          "indexed": true,
          "internalType": "address",
          "name": "newStaking",
          "type": "address"
        }
      ],
      "name": "StakingContractUpdated",
      "type": "event"
    },
    {
      "anonymous": false,
      "inputs": [
        {
          "indexed": false,
          "internalType": "address",
          "name": "account",
          "type": "address"
        }
      ],
      "name": "Unpaused",
      "type": "event"
    },
    {
      "inputs": [],
      "name": "ADMIN_ROLE",
      "outputs": [
        {
          "internalType": "bytes32",
          "name": "",
          "type": "bytes32"
        }
      ],
      "stateMutability": "view",
      "type": "function"
    },
    {
      "inputs": [],
      "name": "DEFAULT_ADMIN_ROLE",
      "outputs": [
        {
          "internalType": "bytes32",
          "name": "",
          "type": "bytes32"
        }
      ],
      "stateMutability": "view",
      "type": "function"
    },
    {
      "inputs": [
        {
          "internalType": "uint256",
          "name": "_questId",
          "type": "uint256"
        }
      ],
      "name": "completeQuest",
      "outputs": [],
      "stateMutability": "nonpayable",
      "type": "function"
    },
    {
      "inputs": [],
      "name": "coreContractAddress",
      "outputs": [
        {
          "internalType": "address",
          "name": "",
          "type": "address"
        }
      ],
      "stateMutability": "view",
      "type": "function"
    },
    {
      "inputs": [
        {
          "internalType": "enum GameifiedMarketplaceQuests.QuestType",
          "name": "_questType",
          "type": "uint8"
        },
        {
          "internalType": "string",
          "name": "_title",
          "type": "string"
        },
        {
          "internalType": "string",
          "name": "_description",
          "type": "string"
        },
        {
          "internalType": "uint256",
          "name": "_requirement",
          "type": "uint256"
        },
        {
          "internalType": "uint256",
          "name": "_xpReward",
          "type": "uint256"
        }
      ],
      "name": "createQuest",
      "outputs": [
        {
          "internalType": "uint256",
          "name": "",
          "type": "uint256"
        }
      ],
      "stateMutability": "nonpayable",
      "type": "function"
    },
    {
      "inputs": [
        {
          "internalType": "uint256",
          "name": "_questId",
          "type": "uint256"
        }
      ],
      "name": "deactivateQuest",
      "outputs": [],
      "stateMutability": "nonpayable",
      "type": "function"
    },
    {
      "inputs": [
        {
          "internalType": "uint256",
          "name": "_questId",
          "type": "uint256"
        }
      ],
      "name": "getQuest",
      "outputs": [
        {
          "components": [
            {
              "internalType": "uint256",
              "name": "questId",
              "type": "uint256"
            },
            {
              "internalType": "enum GameifiedMarketplaceQuests.QuestType",
              "name": "questType",
              "type": "uint8"
            },
            {
              "internalType": "string",
              "name": "title",
              "type": "string"
            },
            {
              "internalType": "string",
              "name": "description",
              "type": "string"
            },
            {
              "internalType": "uint256",
              "name": "requirement",
              "type": "uint256"
            },
            {
              "internalType": "uint256",
              "name": "xpReward",
              "type": "uint256"
            },
            {
              "internalType": "bool",
              "name": "active",
              "type": "bool"
            },
            {
              "internalType": "uint256",
              "name": "createdAt",
              "type": "uint256"
            }
          ],
          "internalType": "struct GameifiedMarketplaceQuests.Quest",
          "name": "",
          "type": "tuple"
        }
      ],
      "stateMutability": "view",
      "type": "function"
    },
    {
      "inputs": [
        {
          "internalType": "bytes32",
          "name": "role",
          "type": "bytes32"
        }
      ],
      "name": "getRoleAdmin",
      "outputs": [
        {
          "internalType": "bytes32",
          "name": "",
          "type": "bytes32"
        }
      ],
      "stateMutability": "view",
      "type": "function"
    },
    {
      "inputs": [
        {
          "internalType": "address",
          "name": "_user",
          "type": "address"
        }
      ],
      "name": "getUserCompletedQuests",
      "outputs": [
        {
          "internalType": "uint256[]",
          "name": "",
          "type": "uint256[]"
        }
      ],
      "stateMutability": "view",
      "type": "function"
    },
    {
      "inputs": [
        {
          "internalType": "address",
          "name": "_user",
          "type": "address"
        },
        {
          "internalType": "uint256",
          "name": "_questId",
          "type": "uint256"
        }
      ],
      "name": "getUserQuestProgress",
      "outputs": [
        {
          "components": [
            {
              "internalType": "uint256",
              "name": "questId",
              "type": "uint256"
            },
            {
              "internalType": "uint256",
              "name": "currentProgress",
              "type": "uint256"
            },
            {
              "internalType": "bool",
              "name": "completed",
              "type": "bool"
            },
            {
              "internalType": "uint256",
              "name": "completedAt",
              "type": "uint256"
            }
          ],
          "internalType": "struct GameifiedMarketplaceQuests.UserQuestProgress",
          "name": "",
          "type": "tuple"
        }
      ],
      "stateMutability": "view",
      "type": "function"
    },
    {
      "inputs": [
        {
          "internalType": "address",
          "name": "_user",
          "type": "address"
        }
      ],
      "name": "getUserSocialActions",
      "outputs": [
        {
          "internalType": "uint256",
          "name": "",
          "type": "uint256"
        }
      ],
      "stateMutability": "view",
      "type": "function"
    },
    {
      "inputs": [
        {
          "internalType": "bytes32",
          "name": "role",
          "type": "bytes32"
        },
        {
          "internalType": "address",
          "name": "account",
          "type": "address"
        }
      ],
      "name": "grantRole",
      "outputs": [],
      "stateMutability": "nonpayable",
      "type": "function"
    },
    {
      "inputs": [
        {
          "internalType": "bytes32",
          "name": "role",
          "type": "bytes32"
        },
        {
          "internalType": "address",
          "name": "account",
          "type": "address"
        }
      ],
      "name": "hasRole",
      "outputs": [
        {
          "internalType": "bool",
          "name": "",
          "type": "bool"
        }
      ],
      "stateMutability": "view",
      "type": "function"
    },
    {
      "inputs": [],
      "name": "pause",
      "outputs": [],
      "stateMutability": "nonpayable",
      "type": "function"
    },
    {
      "inputs": [],
      "name": "paused",
      "outputs": [
        {
          "internalType": "bool",
          "name": "",
          "type": "bool"
        }
      ],
      "stateMutability": "view",
      "type": "function"
    },
    {
      "inputs": [
        {
          "internalType": "uint256",
          "name": "",
          "type": "uint256"
        }
      ],
      "name": "quests",
      "outputs": [
        {
          "internalType": "uint256",
          "name": "questId",
          "type": "uint256"
        },
        {
          "internalType": "enum GameifiedMarketplaceQuests.QuestType",
          "name": "questType",
          "type": "uint8"
        },
        {
          "internalType": "string",
          "name": "title",
          "type": "string"
        },
        {
          "internalType": "string",
          "name": "description",
          "type": "string"
        },
        {
          "internalType": "uint256",
          "name": "requirement",
          "type": "uint256"
        },
        {
          "internalType": "uint256",
          "name": "xpReward",
          "type": "uint256"
        },
        {
          "internalType": "bool",
          "name": "active",
          "type": "bool"
        },
        {
          "internalType": "uint256",
          "name": "createdAt",
          "type": "uint256"
        }
      ],
      "stateMutability": "view",
      "type": "function"
    },
    {
      "inputs": [
        {
          "internalType": "address",
          "name": "_user",
          "type": "address"
        }
      ],
      "name": "recordSocialAction",
      "outputs": [],
      "stateMutability": "nonpayable",
      "type": "function"
    },
    {
      "inputs": [
        {
          "internalType": "bytes32",
          "name": "role",
          "type": "bytes32"
        },
        {
          "internalType": "address",
          "name": "account",
          "type": "address"
        }
      ],
      "name": "renounceRole",
      "outputs": [],
      "stateMutability": "nonpayable",
      "type": "function"
    },
    {
      "inputs": [
        {
          "internalType": "bytes32",
          "name": "role",
          "type": "bytes32"
        },
        {
          "internalType": "address",
          "name": "account",
          "type": "address"
        }
      ],
      "name": "revokeRole",
      "outputs": [],
      "stateMutability": "nonpayable",
      "type": "function"
    },
    {
      "inputs": [
        {
          "internalType": "address",
          "name": "_coreAddress",
          "type": "address"
        }
      ],
      "name": "setCoreContract",
      "outputs": [],
      "stateMutability": "nonpayable",
      "type": "function"
    },
    {
      "inputs": [
        {
          "internalType": "address",
          "name": "_stakingAddress",
          "type": "address"
        }
      ],
      "name": "setStakingContract",
      "outputs": [],
      "stateMutability": "nonpayable",
      "type": "function"
    },
    {
      "inputs": [],
      "name": "stakingContractAddress",
      "outputs": [
        {
          "internalType": "address",
          "name": "",
          "type": "address"
        }
      ],
      "stateMutability": "view",
      "type": "function"
    },
    {
      "inputs": [
        {
          "internalType": "bytes4",
          "name": "interfaceId",
          "type": "bytes4"
        }
      ],
      "name": "supportsInterface",
      "outputs": [
        {
          "internalType": "bool",
          "name": "",
          "type": "bool"
        }
      ],
      "stateMutability": "view",
      "type": "function"
    },
    {
      "inputs": [],
      "name": "unpause",
      "outputs": [],
      "stateMutability": "nonpayable",
      "type": "function"
    },
    {
      "inputs": [
        {
          "internalType": "address",
          "name": "_user",
          "type": "address"
        },
        {
          "internalType": "uint256",
          "name": "_questId",
          "type": "uint256"
        }
      ],
      "name": "updateQuestProgress",
      "outputs": [],
      "stateMutability": "nonpayable",
      "type": "function"
    },
    {
      "inputs": [
        {
          "internalType": "address",
          "name": "",
          "type": "address"
        },
        {
          "internalType": "uint256",
          "name": "",
          "type": "uint256"
        }
      ],
      "name": "userCompletedQuests",
      "outputs": [
        {
          "internalType": "uint256",
          "name": "",
          "type": "uint256"
        }
      ],
      "stateMutability": "view",
      "type": "function"
    },
    {
      "inputs": [
        {
          "internalType": "address",
          "name": "",
          "type": "address"
        },
        {
          "internalType": "uint256",
          "name": "",
          "type": "uint256"
        }
      ],
      "name": "userQuestProgress",
      "outputs": [
        {
          "internalType": "uint256",
          "name": "questId",
          "type": "uint256"
        },
        {
          "internalType": "uint256",
          "name": "currentProgress",
          "type": "uint256"
        },
        {
          "internalType": "bool",
          "name": "completed",
          "type": "bool"
        },
        {
          "internalType": "uint256",
          "name": "completedAt",
          "type": "uint256"
        }
      ],
      "stateMutability": "view",
      "type": "function"
    },
    {
      "inputs": [
        {
          "internalType": "address",
          "name": "",
          "type": "address"
        }
      ],
      "name": "userSocialActions",
      "outputs": [
        {
          "internalType": "uint256",
          "name": "",
          "type": "uint256"
        }
      ],
      "stateMutability": "view",
      "type": "function"
    }
  ],
  "bytecode": "0x60806040523461002a576100196100146100bf565b61015f565b604051612690610313823961269090f35b5f80fd5b634e487b7160e01b5f52604160045260245ffd5b90601f01601f191681019081106001600160401b0382111761006357604052565b61002e565b9061007c61007560405190565b9283610042565b565b6001600160a01b031690565b90565b6001600160a01b0381160361002a57565b9050519061007c8261008d565b9060208282031261002a5761008a9161009e565b61008a6129a3803803806100d281610068565b9283398101906100ab565b61007e61008a61008a9290565b61008a906100dd565b61008a61008a61008a9290565b61008a5f6100f3565b906001600160a01b03905b9181191691161790565b61008a9061007e906001600160a01b031682565b61008a9061011e565b61008a90610132565b9061015461008a61015b9261013b565b8254610109565b9055565b610167610203565b61017361007e5f6100ea565b6001600160a01b038216146101c85761007c90610198610191610100565b3390610248565b6101c17fa49807205ce4d355092ef5a8a18f56e8913cf4a201fbe287825b095693c21775610191565b6008610144565b63e6c4247b60e01b5f908152600490fd5b61008a60016100f3565b905f1990610114565b906101fc61008a61015b926100f3565b82546101e3565b61020b61023d565b61007c6102166101d9565b60026101ec565b9060ff90610114565b9061023661008a61015b92151590565b825461021d565b61007c5f6001610226565b9061007c9161026a565b905b5f5260205260405f2090565b906102549061013b565b61027b61027783836102f3565b1590565b610283575050565b6102a2600161029d845f6102978682610252565b01610260565b610226565b6102bc6102b66102b0339390565b9361013b565b9161013b565b917f2f8788117e7eff1d82e926ec794901d17c78024a50270940304540a733656f0d6102e760405190565b5f90a4565b5460ff1690565b61008a915f61029761030d936103065f90565b5082610252565b6102ec56fe60806040526004361015610011575f80fd5b5f3560e01c806301ffc9a7146101d0578063248a9ca3146101cb5780632e324b99146101c65780632f2ff15d146101c15780633535f48b146101bc57806336568abe146101b757806338258252146101b25780633f4ba83a146101ad57806347f72605146101a857806349f86f34146101a35780634a1a59891461019e578063528be0a9146101995780635c975abb1461019457806375b238fc1461018f5780637f2217341461018a5780638456cb591461018557806391d14854146101805780639685391c1461017b5780639dd373b914610176578063a217fddf14610171578063b0602c911461016c578063bd07aabf14610167578063c110165614610162578063c62666931461015d578063d547741f14610158578063e085f98014610153578063e9d2821d1461014e5763f4f79849036101d557610c69565b610beb565b610bb4565b6109a2565b61098a565b610971565b610956565b610930565b610901565b6108d8565b6108b6565b6107e3565b6107cb565b6107af565b610713565b6106f8565b6106e0565b6106c8565b6106a1565b610553565b6104fa565b6104c8565b61039b565b610366565b610314565b6102d6565b61026e565b610216565b5f80fd5b6001600160e01b031981165b036101d557565b905035906101f9826101d9565b565b906020828203126101d55761020f916101ec565b90565b9052565b346101d55761024361023161022c3660046101fb565b610c90565b60405191829182901515815260200190565b0390f35b806101e5565b905035906101f982610247565b906020828203126101d55761020f9161024d565b346101d55761024361028961028436600461025a565b610cd0565b6040515b9182918290815260200190565b6001600160a01b031690565b6001600160a01b0381166101e5565b905035906101f9826102a6565b906020828203126101d55761020f916102b5565b346101d5576102436102896102ec3660046102c2565b610ced565b91906040838203126101d55761020f90602061030d828661024d565b94016102b5565b346101d55761032d6103273660046102f1565b90610d28565b604051005b5f9103126101d557565b61020f916008021c6001600160a01b031690565b9061020f915461033c565b61020f5f6009610350565b346101d557610376366004610332565b61024361038161035b565b604051918291826001600160a01b03909116815260200190565b346101d55761032d6103ae3660046102f1565b90610d9b565b91906040838203126101d55761020f9060206103d082866102b5565b940161024d565b61029a61020f61020f926001600160a01b031690565b61020f906103d7565b61020f906103ed565b90610409906103f6565b5f5260205260405f2090565b61020f61020f61020f9290565b9061040990610415565b61020f9081565b61020f905461042c565b61020f905b60ff1690565b61020f905461043d565b906104616104669260056103ff565b610422565b9061047082610433565b9161047d60018201610433565b9161020f600361048f60028501610448565b9301610433565b6104c46101f9946104bb6060949897956104b4608086019a5f870152565b6020850152565b15156040830152565b0152565b346101d5576102436104e46104de3660046103b4565b90610452565b906104f194929460405190565b94859485610496565b346101d55761050a366004610332565b61032d610de2565b805182526101f99190606090819061052f60208201516020860152565b6040818101511515908501525b0151910152565b6080810192916101f99190610512565b346101d55761024361056f6105693660046103b4565b90610e92565b60405191829182610543565b634e487b7160e01b5f52602160045260245ffd5b6005111561059957565b61057b565b906101f98261058f565b61020f9061059e565b610212906105a8565b5f5b8381106105cb5750505f910152565b81810151838201526020016105bc565b6105fc61060560209361060f936105f0815190565b80835293849260200190565b958691016105ba565b601f01601f191690565b0190565b805182529061020f9060e08061066061064e610100850161063c602089015160208801906105b1565b604088015186820360408801526105db565b606087015185820360608701526105db565b9461067060808201516080860152565b61067f60a082015160a0860152565b60c08181015115159085015261053c565b602080825261020f92910190610613565b346101d5576102436106bc6106b736600461025a565b610fb4565b60405191829182610690565b346101d55761032d6106db3660046102c2565b6110b8565b346101d55761032d6106f336600461025a565b611493565b346101d557610708366004610332565b61024361023161149c565b346101d557610723366004610332565b6102435f51602061263b5f395f51905f52610289565b634e487b7160e01b5f52603260045260245ffd5b805482101561076d576107656001915f5260205f2090565b910201905f90565b610739565b61020f916008021c81565b9061020f9154610772565b6107939060066103ff565b80548210156101d55761020f916107a99161074d565b9061077d565b346101d5576102436102896107c53660046103b4565b90610788565b346101d5576107db366004610332565b61032d6114c7565b346101d5576102436102316107f93660046102f1565b906114cf565b600511156101d557565b905035906101f9826107ff565b909182601f830112156101d55781359167ffffffffffffffff83116101d55760200192600183028401116101d557565b909160a0828403126101d55761085c8383610809565b92602083013567ffffffffffffffff81116101d5578161087d918501610816565b92909360408101359167ffffffffffffffff83116101d5576108a48461020f948401610816565b93909460806103d0826060870161024d565b346101d5576102436102896108cc366004610846565b959490949391936119a7565b346101d55761032d6108eb3660046102c2565b611a7b565b61020f5f610415565b61020f6108f0565b346101d557610911366004610332565b6102436102896108f9565b5f61092b61020f9260076103ff565b61077d565b346101d5576102436102896109463660046102c2565b61091c565b61020f5f6008610350565b346101d557610966366004610332565b61024361038161094b565b346101d55761032d6109843660046103b4565b90611b23565b346101d55761032d61099d3660046102c2565b611ba8565b346101d55761032d6109b53660046102f1565b90611bcc565b634e487b7160e01b5f52602260045260245ffd5b90600160028304921680156109ef575b60208310146109ea57565b6109bb565b91607f16916109df565b80545f939291610a15610a0b836109cf565b8085529360200190565b9160018116908115610a645750600114610a2e57505050565b610a3f91929394505f5260205f2090565b915f925b818410610a505750500190565b805484840152602090930192600101610a43565b92949550505060ff1916825215156020020190565b9061020f916109f9565b634e487b7160e01b5f52604160045260245ffd5b90601f01601f1916810190811067ffffffffffffffff821117610ab957604052565b610a83565b906101f9610ad892610acf60405190565b93848092610a79565b0383610a97565b610aea906004610422565b90610af482610433565b91610b0160018201610448565b91610b0e60028301610abe565b91610b1b60038201610abe565b91610b2860048301610433565b91610b3560058201610433565b9161020f600761048f60068501610448565b9395610ba4610b9c60e0979b9a98610b8e886104c498610b816101f99e99610b77610bab9a5f6101008701960152565b60208d01906105b1565b8a820360408c01526105db565b9088820360608a01526105db565b9a6080870152565b60a0850152565b151560c0830152565b346101d557610243610bcf610bca36600461025a565b610adf565b94610be298969894919493929360405190565b98899889610b47565b346101d55761032d610bfe36600461025a565b611c6a565b90610c23610c1c610c12845190565b8084529260200190565b9260200190565b905f5b818110610c335750505090565b909192610c50610c496001928651815260200190565b9460200190565b929101610c26565b602080825261020f92910190610c03565b346101d557610243610c84610c7f3660046102c2565b611cf5565b60405191829182610c58565b637965db0b60e01b6001600160e01b0319821614908115610caf575090565b61020f91506001600160e01b0319166301ffc9a760e01b1490565b90610409565b6001610ce761020f92610ce05f90565b505f610cca565b01610433565b610d0361020f91610cfb5f90565b5060076103ff565b610433565b906101f991610d1e610d1982610cd0565b611d11565b906101f991611d1c565b906101f991610d08565b15610d3957565b60405162461bcd60e51b815260206004820152602f60248201527f416363657373436f6e74726f6c3a2063616e206f6e6c792072656e6f756e636560448201526e103937b632b9903337b91039b2b63360891b606482015280608481015b0390fd5b6101f99190610dbc610dac3361029a565b6001600160a01b03841614610d32565b611d88565b610dd75f51602061263b5f395f51905f52611d11565b6101f96101f9611e2b565b6101f9610dc1565b906101f9610df760405190565b9283610a97565b61020f6080610dea565b610e10610dfe565b905f8252602080808085015f5b8152015f8152015f905250565b61020f610e08565b906101f9610e826003610e43610dfe565b94610e54610e5082610433565b8752565b610e6a610e6360018301610433565b6020880152565b610ce7610e7960028301610448565b15156040880152565b6060840152565b61020f90610e32565b61020f91610461610ead92610ea5610e2a565b5060056103ff565b610e89565b61020f610100610dea565b610ec5610eb2565b905f825260208080808080808089015f815201606081520160608152015f8152015f610e1d565b61020f610ebd565b906102129061059e565b906101f9610fa46007610f0f610eb2565b94610f1c610e5082610433565b610f34610f2b60018301610448565b60208801610ef4565b610f4a610f4360028301610abe565b6040880152565b610f60610f5960038301610abe565b6060880152565b610f76610f6f60048301610433565b6080880152565b610f8c610f8560058301610433565b60a0880152565b610ce7610f9b60068301610448565b151560c0880152565b60e0840152565b61020f90610efe565b610fbc610eec565b506004610fdb610fd76006610fd18585610422565b01610448565b1590565b610ff15761020f91610fec91610422565b610fab565b63629744f760e01b5f908152fd5b6101f9906110195f51602061263b5f395f51905f52611d11565b611048565b905f19905b9181191691161790565b9061103d61020f61104492610415565b825461101e565b9055565b61106e6110568260076103ff565b61106861106282610433565b60010190565b9061102d565b7f851a0994d82c1644de2ea7d946c83c51713a8d8e537fe45ceb34215dabc9670d6110b36110a96110a3610d038560076103ff565b936103f6565b9261028d60405190565b0390a2565b6101f990610fff565b6101f9906110cd611e72565b6110de906110d9611edb565b61123d565b6101f9611f0d565b9060ff90611023565b906110ff61020f61104492151590565b82546110e6565b600361115960606101f99461112461111e5f83015190565b8661102d565b61113b611132602083015190565b6001870161102d565b61115461114b6040830151151590565b600287016110ef565b015190565b910161102d565b906101f991611106565b915f1960089290920291821b911b611023565b919061118e61020f61104493610415565b90835461116a565b9081549168010000000000000000831015610ab957826111be9160016101f99501815561074d565b9061117d565b61020f9061029a565b61020f90546111c4565b6001600160a01b0390911681526040810192916101f99160200152565b6040513d5f823e3d90fd5b61029a61020f61020f9290565b61020f906111ff565b6001600160a01b0390911681526060810193926101f99290916040916104c4905b6020830152565b600461124c610fec8383610422565b61125c610fd760c0830151151590565b611483576112746002610fd1856104613360056103ff565b611473576112828133612020565b61129061020f608084015190565b8110611463576112d4906112ae6112a5610dfe565b91611236878452565b600160408201526112c0426060830152565b6112cf856104613360056103ff565b611160565b6112eb836112e661020f3360066103ff565b611196565b60a06113026112fd6112fd60086111cd565b6103f6565b91019061130d825190565b90803b156101d5576113415f9291839261132660405190565b9485938492839190632f7e13eb60e11b8352338b84016111d7565b03925af180156114495761144e575b5061135b60096111cd565b61137761136a61029a5f61120c565b916001600160a01b031690565b036113c7575b5190505b907fe0b5124b12e878158288d1002ed1fb960faff0ec1c7b3168f86d9d1afd1b0d8b6113c26113b86113b2336103f6565b93610415565b9361028d60405190565b0390a3565b6113d76112fd6112fd60096111cd565b916113e0825190565b833b156101d55761141293855f80946113f860405190565b97889586948593633fd51fbf60e01b855233908501611215565b03925af1918215611449576113819261142c575b5061137d565b611443905f61143b8183610a97565b810190610332565b5f611426565b6111f4565b61145d905f61143b8183610a97565b5f611350565b632417fae360e21b5f9081528390fd5b63195332a560e01b5f9081528290fd5b630bb6646b60e01b5f9081528290fd5b6101f9906110c1565b61020f6001610448565b6114bc5f51602061263b5f395f51905f52611d11565b6101f96101f9612226565b6101f96114a6565b61020f915f6114e96114ef936114e25f90565b5082610cca565b016103ff565b610448565b61020f97969594939291906115155f51602061263b5f395f51905f52611d11565b6117fc565b61020f61c350610415565b61020f6103e8610415565b67ffffffffffffffff8111610ab957602090601f01601f19160190565b90825f939282370152565b9092919261156d61156882611530565b610dea565b93818552818301116101d5576101f991602085019061154d565b61020f913691611558565b61020f905161059e565b906110ff61020f611044926105a8565b6101f9915f9161117d565b8181106115c2575050565b806115cf5f6001936115ac565b016115b7565b9190601f81116115e457505050565b6115f46101f9935f5260205f2090565b906020601f840181900483019310611616575b6020601f9091010401906115b7565b9091508190611607565b90611629815190565b9067ffffffffffffffff8211610ab95761164d8261164785546109cf565b856115d5565b602090601f83116001146116865761104492915f918361167b575b50505f19600883021c1916906002021790565b015190505f80611668565b601f19831691611699855f5260205f2090565b925f5b8181106116d5575091600293918560019694106116bd575b50505002019055565b01515f196008601f8516021c191690555f80806116b4565b9193602060018192878701518155019501920161169c565b906101f991611620565b600761115960e06101f99461170f61111e5f83015190565b61172761171e60208301611592565b6001870161159c565b61173e611735604083015190565b600287016116ed565b61175561174c606083015190565b600387016116ed565b61176c611763608083015190565b6004870161102d565b61178361177a60a083015190565b6005870161102d565b61115461179360c0830151151590565b600687016110ef565b906101f9916116f7565b9190610605816117bd8161060f9560209181520190565b809561154d565b906117f46104c4916101f9969897956060956117e760808701935f8801906105b1565b85830360208701526117a6565b966040830152565b509295919390929190846118166118125f610415565b9190565b148015611993575b6119825761182b5f610415565b861461193a5761183a5f610415565b8214801561196f575b61195e57611851600261059e565b61185a8461059e565b148061194b575b61193a576003966118718861222e565b9761187b90612241565b611883610eb2565b9161188c898452565b6118998560208501610ef4565b6118a38787611587565b60408401526118b191611587565b60608201526118c1866080830152565b6118cc8260a0830152565b600160c08201526118de4260e0830152565b6118e9876004610422565b906118f39161179c565b6118fc86610415565b9461190660405190565b94859461191394866117c4565b037fb8abc18ba7191953b6f26fb8d5eea6ea1275367682c9ec994c65c891c0a0fe7b91a290565b6327c97a1360e21b5f908152600490fd5b5061195761020f611525565b8611611861565b6308d663db60e31b5f908152600490fd5b5061197b61020f61151a565b8211611843565b635e765b2560e11b5f908152600490fd5b50806119a16118125f610415565b1461181e565b61020f969594939291905f6114f4565b6101f9906119d15f51602061263b5f395f51905f52611d11565b6119fc565b906001600160a01b0390611023565b906119f561020f611044926103f6565b82546119d6565b611a0861029a5f61120c565b6001600160a01b03821614611a6a57611a38611a32611a2760096111cd565b6112fd8460096119e5565b916103f6565b907f7042586b23181180eb30b4798702d7a0233b7fc2551e89806770e8e5d9392e6a611a6360405190565b80806113c2565b63e6c4247b60e01b5f908152600490fd5b6101f9906119b7565b6101f99190611a9f5f51602061263b5f395f51905f52611d11565b90611aae610fec826004610422565b611abe610fd760c0830151151590565b611b12576113c26113b86113b2611af67f95b529ceb2b4c5026133eafcb0f6e7e63f17c39398d1b67e14569272cf3c956b9487612020565b956112fd876001611b0c896104618660056103ff565b0161102d565b630bb6646b60e01b5f908152600490fd5b906101f991611a84565b6101f990611b475f51602061263b5f395f51905f52611d11565b611b5361029a5f61120c565b6001600160a01b03821614611a6a57611b7d611a32611b7260086111cd565b6112fd8460086119e5565b907f3031b4b27765dea43fa73ae93b7d9fda4f5fa1019ac8d1f82c4f48b6189da2f2611a6360405190565b6101f990611b2d565b906101f991611bc2610d1982610cd0565b906101f991611d88565b906101f991611bb1565b6101f990611bf05f51602061263b5f395f51905f52611d11565b90600491611c06610fd76006610fd18487610422565b611c5a57611c245f6006611c1e84611c299697610422565b016110ef565b610415565b7ffe9e2f781236bffd062f9dfcd0b9b06f51589ac3187e0cb8532d990a0d3fe964611c5360405190565b80806110b3565b630bb6646b60e01b5f9081528390fd5b6101f990611bd6565b90611c8c611c82610c12845490565b925f5260205f2090565b905f5b818110611c9c5750505090565b909192611cc0611cb9600192611cb187610433565b815260200190565b9460010190565b929101611c8f565b9061020f91611c73565b906101f9610ad892611ce360405190565b93848092611cc8565b61020f90611cd2565b611d0c61020f91611d04606090565b5060066103ff565b611cec565b6101f99033906122f5565b611d29610fd783836114cf565b611d31575050565b611d4a6001611d45845f6114e98682610cca565b6110ef565b611d58611a326110a3339390565b917f2f8788117e7eff1d82e926ec794901d17c78024a50270940304540a733656f0d611d8360405190565b5f90a4565b611d9282826114cf565b611d9a575050565b611dad5f611d4584826114e98682610cca565b611dbb611a326110a3339390565b917ff6391f5c32d9c69d2a47ea670b442974b53935d1edc7fd64eb21e047a839171b611d8360405190565b611dee6123c5565b6101f9611dfc5f60016110ef565b7f5db9ee0a495bf2e6ff9c91a7834c1ba4fdd244a5e8aa4e537bd38aeae4b073aa611e2633610381565b0390a1565b6101f9611de6565b15611e3a57565b60405162461bcd60e51b815260206004820152601060248201526f14185d5cd8589b194e881c185d5cd95960821b6044820152606490fd5b6101f9611e80610fd761149c565b611e33565b61020f6002610415565b15611e9657565b60405162461bcd60e51b815260206004820152601f60248201527f5265656e7472616e637947756172643a207265656e7472616e742063616c6c006044820152606490fd5b6101f9611ee86002610433565b611efc611ef3611e85565b91821415611e8f565b600261102d565b61020f6001610415565b6101f9611efc611f03565b905051906101f982610247565b60ff81166101e5565b905051906101f982611f25565b63ffffffff81166101e5565b905051906101f982611f3b565b919060c0838203126101d557611fcb9060a0611f7060c0610dea565b94611f7b8382611f18565b8652611f8a8360208301611f2e565b6020870152611f9c8360408301611f18565b6040870152611fae8360608301611f18565b6060870152611fc08360808301611f47565b608087015201611f47565b60a0830152565b9060c0828203126101d55761020f91611f54565b61044261020f61020f9290565b61020f6032611fe6565b61020f61020f61020f9260ff1690565b61020f61020f61020f9263ffffffff1690565b9060200161202d81611592565b61204061203a600261059e565b9161059e565b146121d75761204f60086111cd565b61205e61136a61029a5f61120c565b146121cc5760c06120a4926120796112fd6112fd60086111cd565b6040519485928391829163332d56d760e01b8352600483016001600160a01b03909116815260200190565b03915afa918215611449575f9261219b575b506120c081611592565b6120cc61203a5f61059e565b036120e5575060a0015161020f9063ffffffff1661200d565b6120ee81611592565b6120fb61203a600161059e565b0361210857506040015190565b61211181611592565b61211e61203a600461059e565b0361213757506080015161020f9063ffffffff1661200d565b61214090611592565b61214d61203a600361059e565b1461215c575061020f5f610415565b602061020f910161216e815160ff1690565b90612177611ff3565b9160ff8084169116111561218b5750611ffd565b5160ff169050611ffd565b611ffd565b6121be91925060c03d60c0116121c5575b6121b68183610a97565b810190611fd2565b905f6120b6565b503d6121ac565b505061020f5f610415565b50610d0361020f9160076103ff565b6121ee611e72565b6101f96121fc6001806110ef565b7f62e78cea01bee320cd4e420270b5ea74000d11b0c9f74754ebdbfc544b05a258611e2633610381565b6101f96121e6565b5f61020f9161223a5f90565b5001610433565b6101f9906110685f6122536001610415565b92019161060f83610433565b61020f90610415565b61060f6122809260209261227a815190565b94859290565b938491016105ba565b6122c761020f93926122c16122c1937f416363657373436f6e74726f6c3a206163636f756e7420000000000000000000815260170190565b90612268565b7001034b99036b4b9b9b4b733903937b6329607d1b815260110190565b602080825261020f929101906105db565b90612303610fd782846114cf565b61230b575050565b61235561020f610d979361233d61232d612327612361966123f5565b9261225f565b6123376020610415565b9061251c565b9061234760405190565b938492602084019283612289565b90810382520382610a97565b60405162461bcd60e51b8152918291600483016122e4565b1561238057565b60405162461bcd60e51b815260206004820152601460248201527f5061757361626c653a206e6f74207061757365640000000000000000000000006044820152606490fd5b6101f96123d061149c565b612379565b61020f61020f61020f926001600160a01b031690565b61020f6014611fe6565b61241261240d61020f92612407606090565b506103ed565b6123d5565b6123376121966123eb565b634e487b7160e01b5f52601160045260245ffd5b8181029291811591840414171561244457565b61241d565b9190820180921161244457565b9061246361156883611530565b918252565b369037565b906101f961248361247d84612456565b93611530565b601f190160208401612468565b90612499825190565b81101561076d570160200190565b8015612444575f190190565b61020f906124c761181261020f9460ff1690565b901c90565b156124d357565b60405162461bcd60e51b815280610d97600482016020808252818101527f537472696e67733a20686578206c656e67746820696e73756666696369656e74604082015260600190565b61254a612545612535846125306002610415565b612431565b61253f6002610415565b90612449565b61246d565b91603061255f6125595f610415565b85612490565b53600f60fb1b61259861258f60019384935f1a61258461257e86610415565b89612490565b536125306002610415565b61253f83610415565b915b6125bb575b50509061020f61020f926125b56118125f610415565b146124cc565b90916125c682610415565b831115612634576f181899199a1a9b1b9c1cb0b131b232b360811b6125eb600f610415565b821690601082101561076d57839261260b6126289261262e941a60f81b90565b5f1a6126178789612490565b536126226004611fe6565b906124b3565b936124a7565b9161259a565b9161259f56fea49807205ce4d355092ef5a8a18f56e8913cf4a201fbe287825b095693c21775a2646970667358221220b709086700143f84b0051416d0b8c0c93f033d8c103177ee92277353456522fb64736f6c634300081c0033",
  "linkReferences": {},
  "deployedLinkReferences": {}
}