{
  "_format": "hh-sol-artifact-1",
  "contractName": "GameifiedMarketplaceSkillsV2",
  "sourceName": "contracts/Marketplace/GameifiedMarketplaceSkillsV2.sol",
  "abi": [
    {
      "inputs": [
        {
          "internalType": "address",
          "name": "_coreAddress",
          "type": "address"
        }
      ],
      "stateMutability": "nonpayable",
      "type": "constructor"
    },
    {
      "inputs": [],
      "name": "CoreContractNotSet",
      "type": "error"
    },
    {
      "inputs": [],
      "name": "DuplicateSkillType",
      "type": "error"
    },
    {
      "inputs": [
        {
          "internalType": "uint256",
          "name": "required",
          "type": "uint256"
        },
        {
          "internalType": "uint256",
          "name": "current",
          "type": "uint256"
        }
      ],
      "name": "InsufficientStakingBalance",
      "type": "error"
    },
    {
      "inputs": [],
      "name": "InvalidAddress",
      "type": "error"
    },
    {
      "inputs": [],
      "name": "InvalidPrice",
      "type": "error"
    },
    {
      "inputs": [],
      "name": "InvalidSkillCount",
      "type": "error"
    },
    {
      "inputs": [],
      "name": "InvalidSkillType",
      "type": "error"
    },
    {
      "inputs": [],
      "name": "MaxActiveSkillsReached",
      "type": "error"
    },
    {
      "inputs": [],
      "name": "NotSkillOwner",
      "type": "error"
    },
    {
      "inputs": [],
      "name": "SkillNFTNotFound",
      "type": "error"
    },
    {
      "inputs": [
        {
          "internalType": "uint256",
          "name": "expiryTime",
          "type": "uint256"
        }
      ],
      "name": "SkillNotExpiredYet",
      "type": "error"
    },
    {
      "inputs": [
        {
          "internalType": "enum IStakingIntegration.SkillType",
          "name": "skillType",
          "type": "uint8"
        }
      ],
      "name": "SkillTypeAlreadyActiveDuplicate",
      "type": "error"
    },
    {
      "anonymous": false,
      "inputs": [
        {
          "indexed": false,
          "internalType": "address",
          "name": "account",
          "type": "address"
        }
      ],
      "name": "Paused",
      "type": "event"
    },
    {
      "anonymous": false,
      "inputs": [
        {
          "indexed": true,
          "internalType": "bytes32",
          "name": "role",
          "type": "bytes32"
        },
        {
          "indexed": true,
          "internalType": "bytes32",
          "name": "previousAdminRole",
          "type": "bytes32"
        },
        {
          "indexed": true,
          "internalType": "bytes32",
          "name": "newAdminRole",
          "type": "bytes32"
        }
      ],
      "name": "RoleAdminChanged",
      "type": "event"
    },
    {
      "anonymous": false,
      "inputs": [
        {
          "indexed": true,
          "internalType": "bytes32",
          "name": "role",
          "type": "bytes32"
        },
        {
          "indexed": true,
          "internalType": "address",
          "name": "account",
          "type": "address"
        },
        {
          "indexed": true,
          "internalType": "address",
          "name": "sender",
          "type": "address"
        }
      ],
      "name": "RoleGranted",
      "type": "event"
    },
    {
      "anonymous": false,
      "inputs": [
        {
          "indexed": true,
          "internalType": "bytes32",
          "name": "role",
          "type": "bytes32"
        },
        {
          "indexed": true,
          "internalType": "address",
          "name": "account",
          "type": "address"
        },
        {
          "indexed": true,
          "internalType": "address",
          "name": "sender",
          "type": "address"
        }
      ],
      "name": "RoleRevoked",
      "type": "event"
    },
    {
      "anonymous": false,
      "inputs": [
        {
          "indexed": true,
          "internalType": "uint256",
          "name": "tokenId",
          "type": "uint256"
        },
        {
          "indexed": false,
          "internalType": "enum IStakingIntegration.SkillType",
          "name": "skillType",
          "type": "uint8"
        },
        {
          "indexed": false,
          "internalType": "enum IStakingIntegration.Rarity",
          "name": "rarity",
          "type": "uint8"
        }
      ],
      "name": "SkillAdded",
      "type": "event"
    },
    {
      "anonymous": false,
      "inputs": [
        {
          "indexed": true,
          "internalType": "address",
          "name": "user",
          "type": "address"
        },
        {
          "indexed": true,
          "internalType": "uint256",
          "name": "tokenId",
          "type": "uint256"
        },
        {
          "indexed": false,
          "internalType": "enum IStakingIntegration.SkillType",
          "name": "skillType",
          "type": "uint8"
        }
      ],
      "name": "SkillDeactivatedManually",
      "type": "event"
    },
    {
      "anonymous": false,
      "inputs": [
        {
          "indexed": true,
          "internalType": "address",
          "name": "user",
          "type": "address"
        },
        {
          "indexed": true,
          "internalType": "uint256",
          "name": "tokenId",
          "type": "uint256"
        },
        {
          "indexed": false,
          "internalType": "enum IStakingIntegration.SkillType",
          "name": "skillType",
          "type": "uint8"
        }
      ],
      "name": "SkillExpired",
      "type": "event"
    },
    {
      "anonymous": false,
      "inputs": [
        {
          "indexed": true,
          "internalType": "address",
          "name": "creator",
          "type": "address"
        },
        {
          "indexed": true,
          "internalType": "uint256",
          "name": "tokenId",
          "type": "uint256"
        },
        {
          "indexed": false,
          "internalType": "uint256",
          "name": "skillCount",
          "type": "uint256"
        },
        {
          "indexed": false,
          "internalType": "uint256",
          "name": "totalXP",
          "type": "uint256"
        }
      ],
      "name": "SkillNFTCreated",
      "type": "event"
    },
    {
      "anonymous": false,
      "inputs": [
        {
          "indexed": true,
          "internalType": "address",
          "name": "user",
          "type": "address"
        },
        {
          "indexed": true,
          "internalType": "uint256",
          "name": "tokenId",
          "type": "uint256"
        },
        {
          "indexed": false,
          "internalType": "uint256",
          "name": "newExpiryTime",
          "type": "uint256"
        }
      ],
      "name": "SkillRenewed",
      "type": "event"
    },
    {
      "anonymous": false,
      "inputs": [
        {
          "indexed": true,
          "internalType": "address",
          "name": "user",
          "type": "address"
        },
        {
          "indexed": true,
          "internalType": "uint256",
          "name": "oldTokenId",
          "type": "uint256"
        },
        {
          "indexed": true,
          "internalType": "uint256",
          "name": "newTokenId",
          "type": "uint256"
        },
        {
          "indexed": false,
          "internalType": "enum IStakingIntegration.SkillType",
          "name": "skillType",
          "type": "uint8"
        },
        {
          "indexed": false,
          "internalType": "uint256",
          "name": "switchFee",
          "type": "uint256"
        }
      ],
      "name": "SkillSwitched",
      "type": "event"
    },
    {
      "anonymous": false,
      "inputs": [
        {
          "indexed": true,
          "internalType": "address",
          "name": "user",
          "type": "address"
        },
        {
          "indexed": false,
          "internalType": "enum IStakingIntegration.SkillType",
          "name": "skillType",
          "type": "uint8"
        }
      ],
      "name": "SkillTypeAlreadyActive",
      "type": "event"
    },
    {
      "anonymous": false,
      "inputs": [
        {
          "indexed": true,
          "internalType": "address",
          "name": "oldStaking",
          "type": "address"
        },
        {
          "indexed": true,
          "internalType": "address",
          "name": "newStaking",
          "type": "address"
        }
      ],
      "name": "StakingContractUpdated",
      "type": "event"
    },
    {
      "anonymous": false,
      "inputs": [
        {
          "indexed": false,
          "internalType": "address",
          "name": "account",
          "type": "address"
        }
      ],
      "name": "Unpaused",
      "type": "event"
    },
    {
      "inputs": [],
      "name": "ADMIN_ROLE",
      "outputs": [
        {
          "internalType": "bytes32",
          "name": "",
          "type": "bytes32"
        }
      ],
      "stateMutability": "view",
      "type": "function"
    },
    {
      "inputs": [],
      "name": "DEFAULT_ADMIN_ROLE",
      "outputs": [
        {
          "internalType": "bytes32",
          "name": "",
          "type": "bytes32"
        }
      ],
      "stateMutability": "view",
      "type": "function"
    },
    {
      "inputs": [],
      "name": "coreContractAddress",
      "outputs": [
        {
          "internalType": "address",
          "name": "",
          "type": "address"
        }
      ],
      "stateMutability": "view",
      "type": "function"
    },
    {
      "inputs": [
        {
          "internalType": "uint256",
          "name": "_tokenId",
          "type": "uint256"
        }
      ],
      "name": "deactivateExpiredSkill",
      "outputs": [],
      "stateMutability": "nonpayable",
      "type": "function"
    },
    {
      "inputs": [
        {
          "internalType": "uint256",
          "name": "_tokenId",
          "type": "uint256"
        },
        {
          "internalType": "enum IStakingIntegration.SkillType",
          "name": "_skillType",
          "type": "uint8"
        }
      ],
      "name": "deactivateSkillManually",
      "outputs": [],
      "stateMutability": "nonpayable",
      "type": "function"
    },
    {
      "inputs": [
        {
          "internalType": "address",
          "name": "_user",
          "type": "address"
        }
      ],
      "name": "getActiveSkillsForUser",
      "outputs": [
        {
          "internalType": "uint256[]",
          "name": "",
          "type": "uint256[]"
        }
      ],
      "stateMutability": "view",
      "type": "function"
    },
    {
      "inputs": [
        {
          "internalType": "bytes32",
          "name": "role",
          "type": "bytes32"
        }
      ],
      "name": "getRoleAdmin",
      "outputs": [
        {
          "internalType": "bytes32",
          "name": "",
          "type": "bytes32"
        }
      ],
      "stateMutability": "view",
      "type": "function"
    },
    {
      "inputs": [
        {
          "internalType": "uint256",
          "name": "_tokenId",
          "type": "uint256"
        }
      ],
      "name": "getSkillExpiryTime",
      "outputs": [
        {
          "internalType": "uint256",
          "name": "",
          "type": "uint256"
        }
      ],
      "stateMutability": "view",
      "type": "function"
    },
    {
      "inputs": [
        {
          "internalType": "uint256",
          "name": "_tokenId",
          "type": "uint256"
        }
      ],
      "name": "getSkillNFT",
      "outputs": [
        {
          "components": [
            {
              "internalType": "address",
              "name": "creator",
              "type": "address"
            },
            {
              "components": [
                {
                  "internalType": "enum IStakingIntegration.SkillType",
                  "name": "skillType",
                  "type": "uint8"
                },
                {
                  "internalType": "enum IStakingIntegration.Rarity",
                  "name": "rarity",
                  "type": "uint8"
                },
                {
                  "internalType": "uint256",
                  "name": "level",
                  "type": "uint256"
                },
                {
                  "internalType": "uint256",
                  "name": "createdAt",
                  "type": "uint256"
                },
                {
                  "internalType": "uint256",
                  "name": "expiresAt",
                  "type": "uint256"
                }
              ],
              "internalType": "struct GameifiedMarketplaceSkillsV2.Skill[]",
              "name": "skills",
              "type": "tuple[]"
            },
            {
              "internalType": "uint256",
              "name": "createdAt",
              "type": "uint256"
            },
            {
              "internalType": "uint256",
              "name": "basePrice",
              "type": "uint256"
            }
          ],
          "internalType": "struct GameifiedMarketplaceSkillsV2.SkillNFT",
          "name": "",
          "type": "tuple"
        }
      ],
      "stateMutability": "view",
      "type": "function"
    },
    {
      "inputs": [
        {
          "internalType": "uint256",
          "name": "_tokenId",
          "type": "uint256"
        }
      ],
      "name": "getSkillNFTSkills",
      "outputs": [
        {
          "components": [
            {
              "internalType": "enum IStakingIntegration.SkillType",
              "name": "skillType",
              "type": "uint8"
            },
            {
              "internalType": "enum IStakingIntegration.Rarity",
              "name": "rarity",
              "type": "uint8"
            },
            {
              "internalType": "uint256",
              "name": "level",
              "type": "uint256"
            },
            {
              "internalType": "uint256",
              "name": "createdAt",
              "type": "uint256"
            },
            {
              "internalType": "uint256",
              "name": "expiresAt",
              "type": "uint256"
            }
          ],
          "internalType": "struct GameifiedMarketplaceSkillsV2.Skill[]",
          "name": "",
          "type": "tuple[]"
        }
      ],
      "stateMutability": "view",
      "type": "function"
    },
    {
      "inputs": [
        {
          "internalType": "address",
          "name": "_user",
          "type": "address"
        },
        {
          "internalType": "enum IStakingIntegration.SkillType",
          "name": "_skillType",
          "type": "uint8"
        }
      ],
      "name": "getSkillSwitchInfo",
      "outputs": [
        {
          "internalType": "uint256",
          "name": "activeTokenId",
          "type": "uint256"
        },
        {
          "internalType": "uint256",
          "name": "expiresAt",
          "type": "uint256"
        },
        {
          "internalType": "bool",
          "name": "canSwitch",
          "type": "bool"
        }
      ],
      "stateMutability": "view",
      "type": "function"
    },
    {
      "inputs": [
        {
          "internalType": "enum IStakingIntegration.SkillType",
          "name": "_skillType",
          "type": "uint8"
        }
      ],
      "name": "getSkillTypeCount",
      "outputs": [
        {
          "internalType": "uint256",
          "name": "",
          "type": "uint256"
        }
      ],
      "stateMutability": "view",
      "type": "function"
    },
    {
      "inputs": [
        {
          "internalType": "address",
          "name": "_user",
          "type": "address"
        }
      ],
      "name": "getUserSkillNFTs",
      "outputs": [
        {
          "internalType": "uint256[]",
          "name": "",
          "type": "uint256[]"
        }
      ],
      "stateMutability": "view",
      "type": "function"
    },
    {
      "inputs": [
        {
          "internalType": "address",
          "name": "_user",
          "type": "address"
        },
        {
          "internalType": "enum IStakingIntegration.SkillType",
          "name": "_skillType",
          "type": "uint8"
        }
      ],
      "name": "getUserSkillsByType",
      "outputs": [
        {
          "internalType": "uint256[]",
          "name": "tokenIds",
          "type": "uint256[]"
        },
        {
          "internalType": "uint8[]",
          "name": "statuses",
          "type": "uint8[]"
        }
      ],
      "stateMutability": "view",
      "type": "function"
    },
    {
      "inputs": [
        {
          "internalType": "bytes32",
          "name": "role",
          "type": "bytes32"
        },
        {
          "internalType": "address",
          "name": "account",
          "type": "address"
        }
      ],
      "name": "grantRole",
      "outputs": [],
      "stateMutability": "nonpayable",
      "type": "function"
    },
    {
      "inputs": [
        {
          "internalType": "bytes32",
          "name": "role",
          "type": "bytes32"
        },
        {
          "internalType": "address",
          "name": "account",
          "type": "address"
        }
      ],
      "name": "hasRole",
      "outputs": [
        {
          "internalType": "bool",
          "name": "",
          "type": "bool"
        }
      ],
      "stateMutability": "view",
      "type": "function"
    },
    {
      "inputs": [
        {
          "internalType": "uint256",
          "name": "",
          "type": "uint256"
        }
      ],
      "name": "isFirstSkillFree",
      "outputs": [
        {
          "internalType": "bool",
          "name": "",
          "type": "bool"
        }
      ],
      "stateMutability": "view",
      "type": "function"
    },
    {
      "inputs": [
        {
          "internalType": "uint256",
          "name": "_tokenId",
          "type": "uint256"
        }
      ],
      "name": "isSkillExpired",
      "outputs": [
        {
          "internalType": "bool",
          "name": "",
          "type": "bool"
        }
      ],
      "stateMutability": "view",
      "type": "function"
    },
    {
      "inputs": [],
      "name": "pause",
      "outputs": [],
      "stateMutability": "nonpayable",
      "type": "function"
    },
    {
      "inputs": [],
      "name": "paused",
      "outputs": [
        {
          "internalType": "bool",
          "name": "",
          "type": "bool"
        }
      ],
      "stateMutability": "view",
      "type": "function"
    },
    {
      "inputs": [
        {
          "internalType": "uint256",
          "name": "_tokenId",
          "type": "uint256"
        },
        {
          "internalType": "enum IStakingIntegration.SkillType[]",
          "name": "_skillTypes",
          "type": "uint8[]"
        },
        {
          "internalType": "enum IStakingIntegration.Rarity[]",
          "name": "_rarities",
          "type": "uint8[]"
        },
        {
          "internalType": "uint256[]",
          "name": "_levels",
          "type": "uint256[]"
        },
        {
          "internalType": "uint256",
          "name": "_basePrice",
          "type": "uint256"
        }
      ],
      "name": "registerSkillsForNFT",
      "outputs": [
        {
          "internalType": "uint256",
          "name": "",
          "type": "uint256"
        }
      ],
      "stateMutability": "nonpayable",
      "type": "function"
    },
    {
      "inputs": [
        {
          "internalType": "uint256",
          "name": "_tokenId",
          "type": "uint256"
        }
      ],
      "name": "renewSkill",
      "outputs": [],
      "stateMutability": "payable",
      "type": "function"
    },
    {
      "inputs": [
        {
          "internalType": "bytes32",
          "name": "role",
          "type": "bytes32"
        },
        {
          "internalType": "address",
          "name": "account",
          "type": "address"
        }
      ],
      "name": "renounceRole",
      "outputs": [],
      "stateMutability": "nonpayable",
      "type": "function"
    },
    {
      "inputs": [
        {
          "internalType": "bytes32",
          "name": "role",
          "type": "bytes32"
        },
        {
          "internalType": "address",
          "name": "account",
          "type": "address"
        }
      ],
      "name": "revokeRole",
      "outputs": [],
      "stateMutability": "nonpayable",
      "type": "function"
    },
    {
      "inputs": [
        {
          "internalType": "address",
          "name": "_stakingAddress",
          "type": "address"
        }
      ],
      "name": "setStakingContract",
      "outputs": [],
      "stateMutability": "nonpayable",
      "type": "function"
    },
    {
      "inputs": [
        {
          "internalType": "uint256",
          "name": "",
          "type": "uint256"
        }
      ],
      "name": "skillNFTs",
      "outputs": [
        {
          "internalType": "address",
          "name": "creator",
          "type": "address"
        },
        {
          "internalType": "uint256",
          "name": "createdAt",
          "type": "uint256"
        },
        {
          "internalType": "uint256",
          "name": "basePrice",
          "type": "uint256"
        }
      ],
      "stateMutability": "view",
      "type": "function"
    },
    {
      "inputs": [
        {
          "internalType": "enum IStakingIntegration.SkillType",
          "name": "",
          "type": "uint8"
        }
      ],
      "name": "skillTypeCount",
      "outputs": [
        {
          "internalType": "uint256",
          "name": "",
          "type": "uint256"
        }
      ],
      "stateMutability": "view",
      "type": "function"
    },
    {
      "inputs": [],
      "name": "stakingContractAddress",
      "outputs": [
        {
          "internalType": "address",
          "name": "",
          "type": "address"
        }
      ],
      "stateMutability": "view",
      "type": "function"
    },
    {
      "inputs": [
        {
          "internalType": "bytes4",
          "name": "interfaceId",
          "type": "bytes4"
        }
      ],
      "name": "supportsInterface",
      "outputs": [
        {
          "internalType": "bool",
          "name": "",
          "type": "bool"
        }
      ],
      "stateMutability": "view",
      "type": "function"
    },
    {
      "inputs": [
        {
          "internalType": "uint256",
          "name": "_oldTokenId",
          "type": "uint256"
        },
        {
          "internalType": "uint256",
          "name": "_newTokenId",
          "type": "uint256"
        },
        {
          "internalType": "enum IStakingIntegration.SkillType",
          "name": "_skillType",
          "type": "uint8"
        }
      ],
      "name": "switchSkill",
      "outputs": [],
      "stateMutability": "payable",
      "type": "function"
    },
    {
      "inputs": [],
      "name": "unpause",
      "outputs": [],
      "stateMutability": "nonpayable",
      "type": "function"
    },
    {
      "inputs": [
        {
          "internalType": "address",
          "name": "",
          "type": "address"
        },
        {
          "internalType": "enum IStakingIntegration.SkillType",
          "name": "",
          "type": "uint8"
        }
      ],
      "name": "userActiveSkillsByType",
      "outputs": [
        {
          "internalType": "uint256",
          "name": "",
          "type": "uint256"
        }
      ],
      "stateMutability": "view",
      "type": "function"
    },
    {
      "inputs": [
        {
          "internalType": "address",
          "name": "",
          "type": "address"
        },
        {
          "internalType": "enum IStakingIntegration.SkillType",
          "name": "",
          "type": "uint8"
        }
      ],
      "name": "userSkillNFTId",
      "outputs": [
        {
          "internalType": "uint256",
          "name": "",
          "type": "uint256"
        }
      ],
      "stateMutability": "view",
      "type": "function"
    },
    {
      "inputs": [
        {
          "internalType": "address",
          "name": "",
          "type": "address"
        },
        {
          "internalType": "uint256",
          "name": "",
          "type": "uint256"
        }
      ],
      "name": "userSkillNFTs",
      "outputs": [
        {
          "internalType": "uint256",
          "name": "",
          "type": "uint256"
        }
      ],
      "stateMutability": "view",
      "type": "function"
    },
    {
      "stateMutability": "payable",
      "type": "receive"
    }
  ],
  "bytecode": "0x60806040523461002a576100196100146100bf565b61015f565b60405161343a610313823961343a90f35b5f80fd5b634e487b7160e01b5f52604160045260245ffd5b90601f01601f191681019081106001600160401b0382111761006357604052565b61002e565b9061007c61007560405190565b9283610042565b565b6001600160a01b031690565b90565b6001600160a01b0381160361002a57565b9050519061007c8261008d565b9060208282031261002a5761008a9161009e565b61008a61374d803803806100d281610068565b9283398101906100ab565b61007e61008a61008a9290565b61008a906100dd565b61008a61008a61008a9290565b61008a5f6100f3565b906001600160a01b03905b9181191691161790565b61008a9061007e906001600160a01b031682565b61008a9061011e565b61008a90610132565b9061015461008a61015b9261013b565b8254610109565b9055565b610167610203565b61017361007e5f6100ea565b6001600160a01b038216146101c85761007c90610198610191610100565b3390610248565b6101c17fa49807205ce4d355092ef5a8a18f56e8913cf4a201fbe287825b095693c21775610191565b600a610144565b63e6c4247b60e01b5f908152600490fd5b61008a60016100f3565b905f1990610114565b906101fc61008a61015b926100f3565b82546101e3565b61020b61023d565b61007c6102166101d9565b60026101ec565b9060ff90610114565b9061023661008a61015b92151590565b825461021d565b61007c5f6001610226565b9061007c9161026a565b905b5f5260205260405f2090565b906102549061013b565b61027b61027783836102f3565b1590565b610283575050565b6102a2600161029d845f6102978682610252565b01610260565b610226565b6102bc6102b66102b0339390565b9361013b565b9161013b565b917f2f8788117e7eff1d82e926ec794901d17c78024a50270940304540a733656f0d6102e760405190565b5f90a4565b5460ff1690565b61008a915f61029761030d936103065f90565b5082610252565b6102ec56fe6080604052600436101561001a575b3615610018575f80fd5b005b5f3560e01c806301ffc9a71461023957806313f487ec146102345780631d5295bd1461022f578063248a9ca31461022a5780632f2ff15d14610225578063310e1b1a146102205780633535f48b1461021b57806336568abe1461021657806336e517b7146102115780633f4ba83a1461020c5780634fa2d3d71461020757806354951e48146102025780635c975abb146101fd57806375b238fc146101f85780638456cb59146101f3578063845952d7146101ee5780638d09af25146101e95780638e3ac9c2146101e457806391413334146101df57806391d14854146101da57806393e1124e146101d5578063978196c9146101d05780639d2e99e7146101cb5780639dd373b9146101c6578063a217fddf146101c1578063a5313547146101bc578063a5cad937146101b7578063a7edd012146101b2578063bd07aabf146101ad578063cddc0f10146101a8578063d547741f146101a3578063ede8a1f61461019e578063f192efc0146101995763f75826b30361000e57610d1a565b610cfe565b610cd2565b610c9d565b610c73565b610bde565b610bac565b610b46565b610b1c565b610b01565b610ad8565b610ab1565b610981565b6108e3565b6108b3565b61089f565b61085b565b610843565b610828565b6107cb565b6107a5565b61078a565b61075f565b61071d565b610654565b610641565b610628565b6105f3565b61059a565b6104c1565b610472565b610424565b6103d0565b61027f565b6001600160e01b031981165b0361025157565b5f80fd5b905035906102628261023e565b565b906020828203126102515761027891610255565b90565b9052565b34610251576102ac61029a610295366004610264565b610d35565b60405191829182901515815260200190565b0390f35b6001600160a01b031690565b6001600160a01b03811661024a565b90503590610262826102bc565b6011111561025157565b90503590610262826102d8565b91906040838203126102515761027890602061030b82866102cb565b94016102e2565b0190565b9061033661032f610325845190565b8084529260200190565b9260200190565b905f5b8181106103465750505090565b90919261036361035c6001928651815260200190565b9460200190565b929101610339565b9061037a61032f610325845190565b905f5b81811061038a5750505090565b9091926103a361035c600192865160ff16815260200190565b92910161037d565b60408082526102789391926103c291840190610316565b91602081840391015261036b565b34610251576103e96103e33660046102ef565b90610f17565b906102ac6103f660405190565b928392836103ab565b9060208282031261025157610278916102cb565b602080825261027892910190610316565b34610251576102ac61043f61043a3660046103ff565b61117c565b60405191829182610413565b8061024a565b905035906102628261044b565b906020828203126102515761027891610451565b34610251576102ac61048d61048836600461045e565b611199565b6040515b9182918290815260200190565b9190604083820312610251576102789060206104ba8286610451565b94016102cb565b34610251576104da6104d436600461049e565b906111d6565b604051005b909182601f830112156102515781359167ffffffffffffffff831161025157602001926020830284011161025157565b9060a082820312610251576105248183610451565b92602083013567ffffffffffffffff811161025157826105459185016104df565b929093604081013567ffffffffffffffff811161025157826105689183016104df565b929093606083013567ffffffffffffffff811161025157826105916080946102789387016104df565b94909501610451565b34610251576102ac61048d6105b036600461050f565b96959095949194939293611e5f565b5f91031261025157565b610278916008021c6001600160a01b031690565b9061027891546105c9565b6102785f600b6105dd565b34610251576106033660046105bf565b6102ac61060e6105e8565b604051918291826001600160a01b03909116815260200190565b34610251576104da61063b36600461049e565b90611ed9565b6104da61064f36600461045e565b61218e565b34610251576106643660046105bf565b6104da6121b8565b6102b0610278610278926001600160a01b031690565b6102789061066c565b61027890610682565b9061069e9061068b565b5f5260205260405f2090565b634e487b7160e01b5f52602160045260245ffd5b601111156106c857565b6106aa565b90610262826106be565b610278906106cd565b9061069e906106d7565b610278916008021c81565b9061027891546106ea565b610718610278926107135f936008610694565b6106e0565b6106f5565b34610251576102ac61048d6107333660046102ef565b90610700565b908152606081019392610262929091604091610757905b6020830152565b019015159052565b34610251576102ac61077b6107753660046102ef565b906121c0565b60405191939193849384610739565b346102515761079a3660046105bf565b6102ac61029a6122e7565b34610251576107b53660046105bf565b6102ac5f5160206133e55f395f51905f5261048d565b34610251576107db3660046105bf565b6104da612312565b6102786102786102789290565b9061069e906107e3565b610278916008021c5b60ff1690565b9061027891546107fa565b5f6108236102789260076107f0565b610809565b34610251576102ac61029a61083e36600461045e565b610814565b34610251576104da61085636600461045e565b61231a565b34610251576102ac61029a61087136600461045e565b61246f565b90916060828403126102515761027861088f8484610451565b93604061030b8260208701610451565b6104da6108ad366004610876565b91612839565b34610251576102ac61029a6108c936600461049e565b90612844565b9060208282031261025157610278916102e2565b34610251576102ac61048d6108f93660046108cf565b612869565b91906040838203126102515761027890602061091a82866102cb565b9401610451565b634e487b7160e01b5f52603260045260245ffd5b80548210156109555761094d6001915f5260205f2090565b910201905f90565b610921565b610965906005610694565b8054821015610251576102789161097b91610935565b906106f5565b34610251576102ac61048d6109973660046108fe565b9061095a565b61027b906106d7565b600511156106c857565b90610262826109a6565b610278906109b0565b61027b906109ba565b90608080610262936109e45f8201515f86019061099d565b6109f6602082015160208601906109c3565b610a0560408201516040860152565b610a1460608201516060860152565b0151910152565b906103128160a0936109cc565b90610a3761032f610325845190565b905f5b818110610a475750505090565b909192610a5a61035c6001928651610a1b565b929101610a3a565b80516001600160a01b031682529061027890606080610a906080840160208701518582036020870152610a28565b94610a1460408201516040860152565b602080825261027892910190610a62565b34610251576102ac610acc610ac736600461045e565b6129da565b60405191829182610aa0565b34610251576104da610aeb3660046103ff565b612a8f565b6102785f6107e3565b610278610af0565b3461025157610b113660046105bf565b6102ac61048d610af9565b34610251576102ac61048d610b3236600461045e565b612a98565b5f6107186102789260066106e0565b34610251576102ac61048d610b5c3660046108cf565b610b37565b90610b7061032f610325845190565b905f5b818110610b805750505090565b909192610b9361035c6001928651610a1b565b929101610b73565b602080825261027892910190610b61565b34610251576102ac610bc7610bc236600461045e565b612aab565b60405191829182610b9b565b6102785f600a6105dd565b3461025157610bee3660046105bf565b6102ac61060e610bd3565b610278906102b0565b6102789054610bf9565b6102789081565b6102789054610c0c565b610c289060046107f0565b610c3181610c02565b916102786003610c4360028501610c13565b9301610c13565b6001600160a01b039091168152606081019392610262929091604091610c6f90610750565b0152565b34610251576102ac610c8e610c8936600461045e565b610c1d565b60405191939193849384610c4a565b34610251576104da610cb036600461049e565b90612add565b91906040838203126102515761027890602061030b8286610451565b34610251576104da610ce5366004610cb6565b90612c6e565b610718610278926107135f936009610694565b34610251576102ac61048d610d143660046102ef565b90610ceb565b34610251576102ac61043f610d303660046103ff565b612c78565b637965db0b60e01b6001600160e01b0319821614908115610d54575090565b61027891506001600160e01b0319166301ffc9a760e01b1490565b90610d88610d7e610325845490565b925f5260205f2090565b905f5b818110610d985750505090565b909192610dbc610db5600192610dad87610c13565b815260200190565b9460010190565b929101610d8b565b9061027891610d6f565b634e487b7160e01b5f52604160045260245ffd5b90601f01601f1916810190811067ffffffffffffffff821117610e0457604052565b610dce565b90610262610e2392610e1a60405190565b93848092610dc4565b0383610de2565b61027890610e09565b90610e3c825190565b811015610955576020809102010190565b80548210156109555761094d6004915f5260205f2090565b61027890610803565b6102789054610e65565b634e487b7160e01b5f52601160045260245ffd5b5f198114610e9a5760010190565b610e78565b90610262610eac60405190565b9283610de2565b67ffffffffffffffff8111610e045760208091020190565b90610edd610ed883610eb3565b610e9f565b918252565b369037565b90610262610efd610ef784610ecb565b93610eb3565b601f190160208401610ee2565b6108036102786102789290565b9091610f2c610f27836005610694565b610e2a565b92610f365f6107e3565b9182935b610f45610278875190565b851015610ff157610f6b6102786004610f65610f61898b610e33565b5190565b906107f0565b95610f755f6107e3565b60018801610f84610278825490565b821015610fe1575f610f9983610fa093610e4d565b5001610e6e565b610fb2610fac876106cd565b916106cd565b14610fbf57600101610f75565b509295509392610fd1610fd891610e8c565b9360010190565b93949194610f3a565b505092955093610fd89060010190565b9193509391610fff81610ee7565b9261100a8492610ee7565b91829561102d611028826107136110205f6107e3565b986008610694565b610c13565b9185975b61103c610278865190565b891015611170576110586102786004610f65610f618d8a610e33565b995f926110645f6107e3565b60018d01611073610278825490565b821015611163575f610f998361108893610e4d565b611094610fac886106cd565b146110a157600101611064565b50939a509890915060015b6110be575b6001015b97989190611031565b956111236110b5916110e36110d6610f618b8a610e33565b6110e0838d610e33565b52565b6110f0610f618a89610e33565b86906110fb565b9190565b0361112b5761111e61110c5f610f0a565b611116838b610e33565b9060ff169052565b610e8c565b9690506110b1565b61114361027861113e610f618c8b610e33565b612d61565b42106111565761111e61110c6002610f0a565b61111e61110c6001610f0a565b5050939a509890916110ac565b97509795505050505050565b610f276102789161118b606090565b506005610694565b9061069e565b60016111b0610278926111a95f90565b505f611193565b01610c13565b90610262916111cc6111c782611199565b612da5565b9061026291612db0565b90610262916111b6565b9061027898979695949392916111f4612e63565b9061120d9897969594939291611208612ecc565b6115ce565b90610262612efe565b6102b06102786102789290565b61027890611216565b905051906102628261044b565b90602082820312610251576102789161122c565b6040513d5f823e3d90fd5b610278680d8d726b7177a800006107e3565b9081526040810192916102629160200152565b61027860036107e3565b9190811015610955576020020190565b35610278816102d8565b91908201809211610e9a57565b602081019291610262919061099d565b906001600160a01b03905b9181191691161790565b906112e36102786112ea9261068b565b82546112be565b9055565b905f19906112c9565b906113076102786112ea926107e3565b82546112ee565b61027862278d006107e3565b6005111561025157565b356102788161131a565b356102788161044b565b61027860a0610e9f565b9061027b906106cd565b9061027b906109b0565b634e487b7160e01b5f525f60045260245ffd5b61027890516106cd565b9060ff906112c9565b9061138c6102786112ea926106d7565b8254611373565b61027890516109b0565b9061ff009060081b6112c9565b906113ba6102786112ea926109ba565b825461139d565b6102629160039061142a906080906113f7856113e56113df84611369565b8261137c565b6113f160208401611393565b906113aa565b61140e611405604083015190565b600187016112f7565b61142561141c606083015190565b600287016112f7565b015190565b91016112f7565b919061144057610262916113c1565b611356565b90815491600160401b831015610e04578261146891600161026295018155610e4d565b90611431565b81810292918115918404141715610e9a57565b61027860326107e3565b9061138c6102786112ea92151590565b9160206102629294936114b560408201965f83019061099d565b01906109c3565b915f1960089290920291821b911b6112c9565b91906114e06102786112ea936107e3565b9083546114bc565b90815491600160401b831015610e04578261150b91600161026295018155610935565b906114cf565b6001600160a01b0390911681526040810192916102629160200152565b61153b6102786102789290565b61ffff1690565b61157c6102629461157260609498979561156b608086019a5f8701906001600160a01b03169052565b6020850152565b60ff166040830152565b019061ffff169052565b67ffffffffffffffff8111610e0457602090601f01601f19160190565b90610edd610ed883611586565b3d156115c9576115bf3d6115a3565b903d5f602084013e565b606090565b97969794929493909193506115e3600a610c02565b916115ed5f611223565b926116096001600160a01b0385165b916001600160a01b031690565b14611e4e5785936116195f6107e3565b85148015611e3c575b611e2157808514158015611e32575b611e215761163f600b610c02565b6116516001600160a01b0386166115fc565b03611d7a575b6116605f6107e3565b98895b60056116796102786116753384610694565b5490565b8210156116c65761027861113e61097b8461169861169d953390610694565b610935565b42106116b1575b600101611663565b611663565b996116be6116ac91610e8c565b9a90506116a4565b50509295989a9194979a99909396996116e36110f761027861127d565b1015611d69576116f25f6107e3565b888110156118b35761171561171061170b838e8e611287565b611297565b6106d7565b60019061172b61172483610f0a565b9160ff1690565b10828d8d831561188a575b505050611879578a828d838d61175461174e836107e3565b856112a1565b915b611819575b5050611786935061170b61102893926117809261177a60083390610694565b94611287565b906106e0565b6117926110f75f6107e3565b0361179f576001016116f2565b61181561180261170b838e8e6117ba61170b5f988484611287565b7f8e81a6b62ca13c48a33846156d48db394e770a1f9553b166f964b3c0ac91457a6117fa6117e73361068b565b926117f160405190565b918291826112ae565b0390a2611287565b634a41725760e11b8352600483016112ae565b035ffd5b909392908410156118715761184661170b858461184061170b610fac9661184b988a611287565b96611287565b6106cd565b146118605781906001018d84918d8f94611756565b6330f1e06560e01b5f908152600490fd5b91928d61175b565b630e76c5d160e21b5f908152600490fd5b61189d93509161170b9161171093611287565b6118aa6117246011610f0a565b11828d8d611736565b50909192939496999795976004926118f36118d26102788960046107f0565b956118dd33886112d3565b6118ea42600289016112f7565b600387016112f7565b6118fc5f6107e3565b9b61190e61190861130e565b426112a1565b948d5b82811015611b6757808e9f9c809e9f8c8e9f819f9e928f918f948f8f948f8f928b978a9288958a8e81611945818b8b611287565b61194e90611297565b9761195892611287565b61196190611324565b9261196b92611287565b6119749061132e565b9061197d611338565b946119889086611342565b611995906020860161134c565b60408401526119a5426060850152565b6080830152600101906119b791611445565b60066119c4878484611287565b6119cd90611297565b6119d6916106e0565b6119df81610c13565b6119e890610e8c565b6119f1916112f7565b826119fd336008610694565b611a08888585611287565b611a1190611297565b611a1a916106e0565b90611a24916112f7565b85611a30336009610694565b92611a3a92611287565b611a4390611297565b611a4c916106e0565b90611a56916112f7565b611a5f5f6107e3565b8303611b0857611a708460076107f0565b6001611a7b9161148b565b611a85600f6107e3565b611a8e916112a1565b9f611afc977f9b3f65d29aeb401bfee016fe6ee834d6f484bc7eddf7c981ec065d0ba8289ad395611acc61170b611add96611ad796611ad296611287565b97611287565b611324565b916107e3565b92611af3611aea60405190565b9283928361149b565b0390a260010190565b9d9c9b9a99989d611911565b611a8e90611b47611b38611b28611b23611ad2888b8d611287565b6109ba565b611b3260056107e3565b9061146e565b611b42600a6107e3565b6112a1565b611b4f611481565b9081811115611b5f5750906112a1565b9050906112a1565b50979b9694509994509a97915050600592611b8f8a611b8a610278336005610694565b6114e8565b611ba4611b9f611b9f600a610c02565b61068b565b803b15610251575f611bd781928b611bbb60405190565b9485938492839190632f7e13eb60e11b83523360048401611511565b03925af18015611d6457611d47575b50611c046115fc611bf7600b610c02565b926001600160a01b031690565b03611c60575b5050505050507f19755b80f038339a1001e8fd8b922efd79bc678c2c12bfc7d50d14c8726f8679611c3a3361068b565b91611c44856107e3565b93611c5a611c5160405190565b9283928361126a565b0390a390565b9193959796611c735f9a9294969a6107e3565b81811015611d315780611d1c5f808c8f611d058e611cf68f8f8f8f8c611cc9611d269f611cda95611b42611ad7611cba611b23611ad2611cc4966117109b61170b9b611287565b611b3260026107e3565b61152e565b94611cd4600b610c02565b99611287565b60405196879460208601630c4e865560e21b8152013390611542565b60208201810382520383610de2565b82602083519301915af1611d176115b0565b501590565b611d2b5760010190565b611c73565b60010190565b50969795509750505050505f8080808080611c0a565b611d5e905f611d568183610de2565b8101906105bf565b5f611be6565b61124d565b63234acd7160e11b5f908152600490fd5b611d8a611b9f611b9f600b610c02565b6020611d9560405190565b63857184d160e01b815233600482015291829060249082905afa5f9181611df0575b50611dc25750611657565b611dca611258565b808210611dd8575050611657565b63109ddee960e21b5f9081529161181591600461126a565b611e1391925060203d602011611e1a575b611e0b8183610de2565b810190611239565b905f611db7565b503d611e01565b63ac9fbab160e01b5f908152600490fd5b5089851415611631565b50611e4760056107e3565b8511611622565b630991dc9d60e11b5f908152600490fd5b61027897969594939291905f6111e0565b15611e7757565b60405162461bcd60e51b815260206004820152602f60248201527f416363657373436f6e74726f6c3a2063616e206f6e6c792072656e6f756e636560448201526e103937b632b9903337b91039b2b63360891b606482015280608481015b0390fd5b6102629190611efa611eea336102b0565b6001600160a01b03841614611e70565b612f09565b61026290611f0b612e63565b611f1c90611f17612ecc565b611f5d565b610262612efe565b634e487b7160e01b5f52601260045260245ffd5b8115611f42570490565b611f24565b6102789060081c610803565b6102789054611f47565b600490611f6d61027882846107f0565b92611f7784610c02565b611f80336115fc565b0361217e57611f8e82612d61565b8042106121685750611fa260038501610c13565b91611fbc610278600294611fb660026107e3565b90611f38565b341061215957611fcd61190861130e565b93611fd75f6107e3565b60018701611fe6610278825490565b82101561200d5790611d2b8760036120018461200896610e4d565b50016112f7565b611fd7565b50509194909261201d600b610c02565b61202c6115fc6102b05f611223565b036120c3575b505061203d5f6107e3565b341161208a575b507f20caca271ed23e340f745b19f7a0a0b1fa92c5dfaab7694caeb4e7349e4671d461208561207b6120753361068b565b936107e3565b9361049160405190565b0390a3565b6120b05f8061209f611b9f611b9f600a610c02565b6040515f9134905af1611d176115b0565b156120445763e6c4247b60e01b5f908152fd5b9093946120cf5f6107e3565b600186016120de610278825490565b82101561214c5781611d1c5f808985611d058b611cf661212a611cc46121208f611b3260019f6121459f8c612119611ad793611b2393610e4d565b5001611f53565b611b4260056107e3565b611cda61171088610f998d61213f600b610c02565b99610e4d565b90506120cf565b5050949350505f80612032565b62bfc92160e01b5f9081528490fd5b63fc2df8a960e01b5f9081529084526020840190fd5b632500456d60e01b5f9081528390fd5b61026290611eff565b6121ad5f5160206133e55f395f51905f52612da5565b610262610262612fac565b610262612197565b5f906121d461102884610713846008610694565b93846121e26110f75f6107e3565b146122d1576121fe610f276121f687612d61565b936005610694565b6122075f6107e3565b612212610278835190565b8110156122be57612226610f618284610e33565b879003612236575b600101612207565b939461224d6102786004610f65610f618987610e33565b956122575f6107e3565b60018801612266610278825490565b8210156122c5575f610f998361227b93610e4d565b612287610fac856106cd565b14612295575b600101612257565b6122a861027861113e610f618a88610e33565b42101561228d5750509450600193845b1561222e575b5050909250565b505080959196506122b8565b93505050506122df5f6107e3565b908190600190565b6102786001610e6e565b6123075f5160206133e55f395f51905f52612da5565b610262610262612ff4565b6102626122f1565b6123286102788260046107f0565b61233181610c02565b6123406115fc6102b05f611223565b1461245e5761234e82612d61565b804210612447575061235f5f6107e3565b600182019061236f610278835490565b811015612441576123875f610f99836123f695610e4d565b6123b6611b9f8560086123a9611028866107136123a386610c02565b85610694565b89146123fb575b50610c02565b7fcd0a7e6e5bd57a0d6455d029e6c672cc55e5520e660f833fde5701702dd1e6de6123ed6123e3886107e3565b936117f160405190565b0390a360010190565b61235f565b61071361242961243b92612424886124125f6107e3565b94859361241e89610c02565b90610694565b6112f7565b61242486610713600961241e87610c02565b5f6123b0565b50505050565b63fc2df8a960e01b5f908152600491909152602490fd5b632b38bfed60e01b5f908152600490fd5b6102786124839161247d5f90565b50612d61565b42101590565b906102629291612497612e63565b90611f1c92916124a5612ecc565b6124c4565b916020610262929493610c6f60408201965f83019061099d565b90916004926124d661027884866107f0565b926124e461027883876107f0565b6124ed85610c02565b6124f6336115fc565b036128295761250481610c02565b61250d336115fc565b03612829575f95869561251f5f6107e3565b6001820161252e610278825490565b821015612818575f610f998361254393610e4d565b61254f610fac896106cd565b1461255c5760010161251f565b61257e919293949596979850611d175f612119600193848701610e4d565b1590565b6127f65761259461102887610713336008610694565b8490036127f6575f6125a55f6107e3565b600185016125b4610278825490565b821015612806575f610f99836125c993610e4d565b6125d5610fac8a6106cd565b146125e2576001016125a5565b612606929394959697985061260191506121195f916001809801610e4d565b931590565b6127f65761261661027886612d61565b4210156127d25761262c60036126359201610c13565b611fb6836107e3565b918234106127c357612647600b610c02565b6126566115fc6102b05f611223565b0361270e575b506126708461242487610713336008610694565b6126838461242487610713336009610694565b61268c5f6107e3565b34116126e6575b507fab73b2dcba8ed1b6096f7940dcb388d5406686d8115d4ee75d33309b73a82930906126cb6126c56126c53361068b565b946107e3565b946126e16126d860405190565b928392836124aa565b0390a4565b6126fb5f8061209f611b9f611b9f600a610c02565b156126935763e6c4247b60e01b5f908152fd5b5f61276c611cc4612120611cba849585808b61272a600b610c02565b6127538c611cf661273a60405190565b94859260208401638925781760e01b8152013390611511565b82602083519301915af1506127666115b0565b506109ba565b612776600b610c02565b6127a96127828a6106d7565b611cf661278e60405190565b9485928c8a60208601630c4e865560e21b8152013390611542565b82602083519301915af1506127bc6115b0565b505f61265c565b62bfc92160e01b5f9081528290fd5b5f611815836127e088612d61565b63fc2df8a960e01b845290830190815260200190565b630e76c5d160e21b5f9081528290fd5b50506126069192935096939495961590565b50509091929394959661257e901590565b632500456d60e01b5f9081528690fd5b906102629291612489565b610278915f61285e612864936128575f90565b5082611193565b01610694565b610e6e565b611028610278916128775f90565b5060066106e0565b6102786080610e9f565b61289161287f565b5f8082526060602083018190526040830182905282015290565b610278612889565b9061026261291860036128c4611338565b946128d76128d182610e6e565b87611342565b6128ec6128e382611f53565b6020880161134c565b6129026128fb60018301610c13565b6040880152565b6111b061291160028301610c13565b6060880152565b6080840152565b610278906128b3565b90612931825490565b61293a81610ecb565b9261294c60208501915f5260205f2090565b5f915b83831061295c5750505050565b6004602060019261296c8561291f565b81520192019201919061294f565b906102626129ca600361298b61287f565b946129a561299882610c02565b6001600160a01b03168752565b6129bb6129b460018301612928565b6020880152565b6111b06128fb60028301610c13565b6060840152565b6102789061297a565b6129f1610278916129e96128ab565b5060046107f0565b6129d1565b61026290612a105f5160206133e55f395f51905f52612da5565b612a1c6102b05f611223565b6001600160a01b03821614612a7e57612a4c612a46612a3b600b610c02565b611b9f84600b6112d3565b9161068b565b907f7042586b23181180eb30b4798702d7a0233b7fc2551e89806770e8e5d9392e6a612a7760405190565b8080612085565b63e6c4247b60e01b5f908152600490fd5b610262906129f6565b610278905f61247d565b61027890612928565b6001612abc610278926129e9606090565b01612aa2565b9061026291612ad36111c782611199565b9061026291612f09565b9061026291612ac2565b9061026291612af4612e63565b90600491612b0561027882856107f0565b92612b0f84610c02565b612b18336115fc565b03612c6057612b2f61102884610713336008610694565b829003612c44575f612b405f6107e3565b60018601612b4f610278825490565b821015612c52575f610f9983612b6493610e4d565b612b70610fac876106cd565b14612b7d57600101612b40565b509293509091505f5b612c44578190612b96600b610c02565b612ba56115fc6102b05f611223565b03612c0b575b5050612bdb612bb95f6107e3565b612bcc8161242486610713336008610694565b61242484610713336009610694565b7fcb584b9c19a4cd48046a2f7367004a44e11beb9fab06c203cc0eafd56e4d95906120856123e36120753361068b565b5f918291612c29612c1c600b610c02565b91611cf661273a60405190565b82602083519301915af150612c3c6115b0565b50805f612bab565b630e76c5d160e21b5f908152fd5b5050612b8691929394501590565b632500456d60e01b5f908152fd5b9061026291612ae7565b610f27612c879161118b606090565b90612c915f6107e3565b805b612c9e610278855190565b811015612ce157612cb861027861113e610f618488610e33565b4210612ccc575b600101612c93565b612c93565b90612cd9612cc791610e8c565b919050612cbf565b50612ceb90610ee7565b91612cf55f6107e3565b92835b612d03610278845190565b811015612d5b57612d1d61027861113e610f618487610e33565b4210612d31575b600101612cf8565b612cf8565b93612d53612d2c9161111e612d49610f618988610e33565b6110e08387610e33565b949050612d24565b50925050565b612d716102786001926129e95f90565b018054612d806110f75f6107e3565b14612d9b576003612d945f61027893610e4d565b5001610c13565b506102785f6107e3565b6102629033906130e7565b612dbd61257a8383612844565b612dc5575050565b612dde6001612dd9845f61285e8682611193565b61148b565b612df2612a46612dec339390565b9361068b565b917f2f8788117e7eff1d82e926ec794901d17c78024a50270940304540a733656f0d612e1d60405190565b80806126e1565b15612e2b57565b60405162461bcd60e51b815260206004820152601060248201526f14185d5cd8589b194e881c185d5cd95960821b6044820152606490fd5b610262612e7161257a6122e7565b612e24565b61027860026107e3565b15612e8757565b60405162461bcd60e51b815260206004820152601f60248201527f5265656e7472616e637947756172643a207265656e7472616e742063616c6c006044820152606490fd5b610262612ed96002610c13565b612eed612ee4612e76565b91821415612e80565b60026112f7565b61027860016107e3565b610262612eed612ef4565b612f138282612844565b612f1b575050565b612f2e5f612dd9848261285e8682611193565b612f3c612a46612dec339390565b917ff6391f5c32d9c69d2a47ea670b442974b53935d1edc7fd64eb21e047a839171b612e1d60405190565b612f6f6131b7565b610262612f7d5f600161148b565b7f5db9ee0a495bf2e6ff9c91a7834c1ba4fdd244a5e8aa4e537bd38aeae4b073aa612fa73361060e565b0390a1565b610262612f67565b612fbc612e63565b610262612fca60018061148b565b7f62e78cea01bee320cd4e420270b5ea74000d11b0c9f74754ebdbfc544b05a258612fa73361060e565b610262612fb4565b610278906107e3565b5f5b8381106130165750505f910152565b8181015183820152602001613007565b61031261303e92602092613038815190565b94859290565b93849101613005565b613085610278939261307f61307f937f416363657373436f6e74726f6c3a206163636f756e7420000000000000000000815260170190565b90613026565b7001034b99036b4b9b9b4b733903937b6329607d1b815260110190565b6130c36130cc602093610312936130b7815190565b80835293849260200190565b95869101613005565b601f01601f191690565b6020808252610278929101906130a2565b906130f561257a8284612844565b6130fd575050565b613147610278611ed59361312f61311f613119613153966131f7565b92612ffc565b61312960206107e3565b906132c6565b9061313960405190565b938492602084019283613047565b90810382520382610de2565b60405162461bcd60e51b8152918291600483016130d6565b1561317257565b60405162461bcd60e51b815260206004820152601460248201527f5061757361626c653a206e6f74207061757365640000000000000000000000006044820152606490fd5b6102626131c26122e7565b61316b565b610278610278610278926001600160a01b031690565b6102786014610f0a565b6102786102786102789260ff1690565b61321461320f61027892613209606090565b50610682565b6131c7565b61312961321f6131dd565b6131e7565b90610262610efd613234846115a3565b93611586565b90613243825190565b811015610955570160200190565b8015610e9a575f190190565b610278906132716110f76102789460ff1690565b901c90565b1561327d57565b60405162461bcd60e51b815280611ed5600482016020808252818101527f537472696e67733a20686578206c656e67746820696e73756666696369656e74604082015260600190565b6132f46132ef6132df846132da60026107e3565b61146e565b6132e960026107e3565b906112a1565b613224565b9160306133096133035f6107e3565b8561323a565b53600f60fb1b61334261333960019384935f1a61332e613328866107e3565b8961323a565b536132da60026107e3565b6132e9836107e3565b915b613365575b5050906102786102789261335f6110f75f6107e3565b14613276565b9091613370826107e3565b8311156133de576f181899199a1a9b1b9c1cb0b131b232b360811b613395600f6107e3565b82169060108210156109555783926133b56133d2926133d8941a60f81b90565b5f1a6133c1878961323a565b536133cc6004610f0a565b9061325d565b93613251565b91613344565b9161334956fea49807205ce4d355092ef5a8a18f56e8913cf4a201fbe287825b095693c21775a2646970667358221220c1a9f5f155538195ffaa97f6cba2450735cf8d41e5c5e6c2df17a08f0930d5d664736f6c634300081c0033",
  "linkReferences": {},
  "deployedLinkReferences": {}
}