{
  "_format": "hh-sol-artifact-1",
  "contractName": "GameifiedMarketplaceSkillsV2",
  "sourceName": "contracts/Marketplace/GameifiedMarketplaceSkillsV2.sol",
  "abi": [
    {
      "inputs": [
        {
          "internalType": "address",
          "name": "_coreAddress",
          "type": "address"
        }
      ],
      "stateMutability": "nonpayable",
      "type": "constructor"
    },
    {
      "inputs": [],
      "name": "CoreContractNotSet",
      "type": "error"
    },
    {
      "inputs": [],
      "name": "DuplicateSkillType",
      "type": "error"
    },
    {
      "inputs": [
        {
          "internalType": "uint256",
          "name": "required",
          "type": "uint256"
        },
        {
          "internalType": "uint256",
          "name": "current",
          "type": "uint256"
        }
      ],
      "name": "InsufficientStakingBalance",
      "type": "error"
    },
    {
      "inputs": [],
      "name": "InvalidAddress",
      "type": "error"
    },
    {
      "inputs": [
        {
          "internalType": "uint256",
          "name": "expected",
          "type": "uint256"
        },
        {
          "internalType": "uint256",
          "name": "provided",
          "type": "uint256"
        }
      ],
      "name": "InvalidPrice",
      "type": "error"
    },
    {
      "inputs": [
        {
          "internalType": "uint8",
          "name": "rarity",
          "type": "uint8"
        }
      ],
      "name": "InvalidRarity",
      "type": "error"
    },
    {
      "inputs": [],
      "name": "InvalidSkillCount",
      "type": "error"
    },
    {
      "inputs": [],
      "name": "InvalidSkillType",
      "type": "error"
    },
    {
      "inputs": [],
      "name": "MaxActiveSkillsReached",
      "type": "error"
    },
    {
      "inputs": [],
      "name": "NotSkillOwner",
      "type": "error"
    },
    {
      "inputs": [],
      "name": "SkillNFTNotFound",
      "type": "error"
    },
    {
      "inputs": [
        {
          "internalType": "uint256",
          "name": "expiryTime",
          "type": "uint256"
        }
      ],
      "name": "SkillNotExpiredYet",
      "type": "error"
    },
    {
      "inputs": [
        {
          "internalType": "enum IStakingIntegration.SkillType",
          "name": "skillType",
          "type": "uint8"
        }
      ],
      "name": "SkillTypeAlreadyActiveDuplicate",
      "type": "error"
    },
    {
      "anonymous": false,
      "inputs": [
        {
          "indexed": true,
          "internalType": "address",
          "name": "admin",
          "type": "address"
        },
        {
          "indexed": false,
          "internalType": "uint256",
          "name": "amount",
          "type": "uint256"
        },
        {
          "indexed": true,
          "internalType": "address",
          "name": "to",
          "type": "address"
        }
      ],
      "name": "EmergencyWithdrawal",
      "type": "event"
    },
    {
      "anonymous": false,
      "inputs": [
        {
          "indexed": true,
          "internalType": "address",
          "name": "user",
          "type": "address"
        },
        {
          "indexed": true,
          "internalType": "uint256",
          "name": "tokenId",
          "type": "uint256"
        },
        {
          "indexed": false,
          "internalType": "enum IStakingIntegration.SkillType",
          "name": "skillType",
          "type": "uint8"
        }
      ],
      "name": "FreeSkillClaimed",
      "type": "event"
    },
    {
      "anonymous": false,
      "inputs": [
        {
          "indexed": false,
          "internalType": "address",
          "name": "account",
          "type": "address"
        }
      ],
      "name": "Paused",
      "type": "event"
    },
    {
      "anonymous": false,
      "inputs": [
        {
          "indexed": true,
          "internalType": "bytes32",
          "name": "role",
          "type": "bytes32"
        },
        {
          "indexed": true,
          "internalType": "bytes32",
          "name": "previousAdminRole",
          "type": "bytes32"
        },
        {
          "indexed": true,
          "internalType": "bytes32",
          "name": "newAdminRole",
          "type": "bytes32"
        }
      ],
      "name": "RoleAdminChanged",
      "type": "event"
    },
    {
      "anonymous": false,
      "inputs": [
        {
          "indexed": true,
          "internalType": "bytes32",
          "name": "role",
          "type": "bytes32"
        },
        {
          "indexed": true,
          "internalType": "address",
          "name": "account",
          "type": "address"
        },
        {
          "indexed": true,
          "internalType": "address",
          "name": "sender",
          "type": "address"
        }
      ],
      "name": "RoleGranted",
      "type": "event"
    },
    {
      "anonymous": false,
      "inputs": [
        {
          "indexed": true,
          "internalType": "bytes32",
          "name": "role",
          "type": "bytes32"
        },
        {
          "indexed": true,
          "internalType": "address",
          "name": "account",
          "type": "address"
        },
        {
          "indexed": true,
          "internalType": "address",
          "name": "sender",
          "type": "address"
        }
      ],
      "name": "RoleRevoked",
      "type": "event"
    },
    {
      "anonymous": false,
      "inputs": [
        {
          "indexed": true,
          "internalType": "uint256",
          "name": "tokenId",
          "type": "uint256"
        },
        {
          "indexed": false,
          "internalType": "enum IStakingIntegration.SkillType",
          "name": "skillType",
          "type": "uint8"
        },
        {
          "indexed": false,
          "internalType": "enum IStakingIntegration.Rarity",
          "name": "rarity",
          "type": "uint8"
        }
      ],
      "name": "SkillAdded",
      "type": "event"
    },
    {
      "anonymous": false,
      "inputs": [
        {
          "indexed": true,
          "internalType": "address",
          "name": "user",
          "type": "address"
        },
        {
          "indexed": true,
          "internalType": "uint256",
          "name": "tokenId",
          "type": "uint256"
        },
        {
          "indexed": false,
          "internalType": "enum IStakingIntegration.SkillType",
          "name": "skillType",
          "type": "uint8"
        }
      ],
      "name": "SkillDeactivatedManually",
      "type": "event"
    },
    {
      "anonymous": false,
      "inputs": [
        {
          "indexed": true,
          "internalType": "address",
          "name": "user",
          "type": "address"
        },
        {
          "indexed": true,
          "internalType": "uint256",
          "name": "tokenId",
          "type": "uint256"
        },
        {
          "indexed": false,
          "internalType": "enum IStakingIntegration.SkillType",
          "name": "skillType",
          "type": "uint8"
        }
      ],
      "name": "SkillExpired",
      "type": "event"
    },
    {
      "anonymous": false,
      "inputs": [
        {
          "indexed": true,
          "internalType": "address",
          "name": "creator",
          "type": "address"
        },
        {
          "indexed": true,
          "internalType": "uint256",
          "name": "tokenId",
          "type": "uint256"
        },
        {
          "indexed": false,
          "internalType": "uint256",
          "name": "skillCount",
          "type": "uint256"
        },
        {
          "indexed": false,
          "internalType": "uint256",
          "name": "totalXP",
          "type": "uint256"
        }
      ],
      "name": "SkillNFTCreated",
      "type": "event"
    },
    {
      "anonymous": false,
      "inputs": [
        {
          "indexed": true,
          "internalType": "address",
          "name": "user",
          "type": "address"
        },
        {
          "indexed": true,
          "internalType": "uint256",
          "name": "tokenId",
          "type": "uint256"
        },
        {
          "indexed": false,
          "internalType": "uint256",
          "name": "amount",
          "type": "uint256"
        },
        {
          "indexed": false,
          "internalType": "string",
          "name": "operationType",
          "type": "string"
        }
      ],
      "name": "SkillPaymentProcessed",
      "type": "event"
    },
    {
      "anonymous": false,
      "inputs": [
        {
          "indexed": true,
          "internalType": "address",
          "name": "user",
          "type": "address"
        },
        {
          "indexed": true,
          "internalType": "uint256",
          "name": "tokenId",
          "type": "uint256"
        },
        {
          "indexed": false,
          "internalType": "uint256",
          "name": "newExpiryTime",
          "type": "uint256"
        }
      ],
      "name": "SkillRenewed",
      "type": "event"
    },
    {
      "anonymous": false,
      "inputs": [
        {
          "indexed": true,
          "internalType": "address",
          "name": "user",
          "type": "address"
        },
        {
          "indexed": true,
          "internalType": "uint256",
          "name": "oldTokenId",
          "type": "uint256"
        },
        {
          "indexed": true,
          "internalType": "uint256",
          "name": "newTokenId",
          "type": "uint256"
        },
        {
          "indexed": false,
          "internalType": "enum IStakingIntegration.SkillType",
          "name": "skillType",
          "type": "uint8"
        },
        {
          "indexed": false,
          "internalType": "uint256",
          "name": "switchFee",
          "type": "uint256"
        }
      ],
      "name": "SkillSwitched",
      "type": "event"
    },
    {
      "anonymous": false,
      "inputs": [
        {
          "indexed": true,
          "internalType": "address",
          "name": "user",
          "type": "address"
        },
        {
          "indexed": false,
          "internalType": "enum IStakingIntegration.SkillType",
          "name": "skillType",
          "type": "uint8"
        }
      ],
      "name": "SkillTypeAlreadyActive",
      "type": "event"
    },
    {
      "anonymous": false,
      "inputs": [
        {
          "indexed": true,
          "internalType": "address",
          "name": "oldStaking",
          "type": "address"
        },
        {
          "indexed": true,
          "internalType": "address",
          "name": "newStaking",
          "type": "address"
        }
      ],
      "name": "StakingContractUpdated",
      "type": "event"
    },
    {
      "anonymous": false,
      "inputs": [
        {
          "indexed": true,
          "internalType": "address",
          "name": "oldTreasury",
          "type": "address"
        },
        {
          "indexed": true,
          "internalType": "address",
          "name": "newTreasury",
          "type": "address"
        }
      ],
      "name": "TreasuryAddressUpdated",
      "type": "event"
    },
    {
      "anonymous": false,
      "inputs": [
        {
          "indexed": false,
          "internalType": "address",
          "name": "account",
          "type": "address"
        }
      ],
      "name": "Unpaused",
      "type": "event"
    },
    {
      "inputs": [],
      "name": "ADMIN_ROLE",
      "outputs": [
        {
          "internalType": "bytes32",
          "name": "",
          "type": "bytes32"
        }
      ],
      "stateMutability": "view",
      "type": "function"
    },
    {
      "inputs": [],
      "name": "DEFAULT_ADMIN_ROLE",
      "outputs": [
        {
          "internalType": "bytes32",
          "name": "",
          "type": "bytes32"
        }
      ],
      "stateMutability": "view",
      "type": "function"
    },
    {
      "inputs": [],
      "name": "coreContractAddress",
      "outputs": [
        {
          "internalType": "address",
          "name": "",
          "type": "address"
        }
      ],
      "stateMutability": "view",
      "type": "function"
    },
    {
      "inputs": [
        {
          "internalType": "uint256",
          "name": "_tokenId",
          "type": "uint256"
        }
      ],
      "name": "deactivateExpiredSkill",
      "outputs": [],
      "stateMutability": "nonpayable",
      "type": "function"
    },
    {
      "inputs": [
        {
          "internalType": "uint256",
          "name": "_tokenId",
          "type": "uint256"
        },
        {
          "internalType": "enum IStakingIntegration.SkillType",
          "name": "_skillType",
          "type": "uint8"
        }
      ],
      "name": "deactivateSkillManually",
      "outputs": [],
      "stateMutability": "nonpayable",
      "type": "function"
    },
    {
      "inputs": [
        {
          "internalType": "uint256",
          "name": "_amount",
          "type": "uint256"
        }
      ],
      "name": "emergencyWithdraw",
      "outputs": [],
      "stateMutability": "nonpayable",
      "type": "function"
    },
    {
      "inputs": [],
      "name": "emergencyWithdrawAll",
      "outputs": [],
      "stateMutability": "nonpayable",
      "type": "function"
    },
    {
      "inputs": [
        {
          "internalType": "address",
          "name": "_user",
          "type": "address"
        }
      ],
      "name": "getActiveSkillsForUser",
      "outputs": [
        {
          "internalType": "uint256[]",
          "name": "",
          "type": "uint256[]"
        }
      ],
      "stateMutability": "view",
      "type": "function"
    },
    {
      "inputs": [],
      "name": "getAllSkillNFTs",
      "outputs": [
        {
          "internalType": "uint256[]",
          "name": "",
          "type": "uint256[]"
        }
      ],
      "stateMutability": "view",
      "type": "function"
    },
    {
      "inputs": [
        {
          "internalType": "bytes32",
          "name": "role",
          "type": "bytes32"
        }
      ],
      "name": "getRoleAdmin",
      "outputs": [
        {
          "internalType": "bytes32",
          "name": "",
          "type": "bytes32"
        }
      ],
      "stateMutability": "view",
      "type": "function"
    },
    {
      "inputs": [
        {
          "internalType": "uint256",
          "name": "_tokenId",
          "type": "uint256"
        }
      ],
      "name": "getSkillExpiryTime",
      "outputs": [
        {
          "internalType": "uint256",
          "name": "",
          "type": "uint256"
        }
      ],
      "stateMutability": "view",
      "type": "function"
    },
    {
      "inputs": [
        {
          "internalType": "uint256",
          "name": "_tokenId",
          "type": "uint256"
        }
      ],
      "name": "getSkillNFT",
      "outputs": [
        {
          "components": [
            {
              "internalType": "address",
              "name": "creator",
              "type": "address"
            },
            {
              "components": [
                {
                  "internalType": "enum IStakingIntegration.SkillType",
                  "name": "skillType",
                  "type": "uint8"
                },
                {
                  "internalType": "enum IStakingIntegration.Rarity",
                  "name": "rarity",
                  "type": "uint8"
                },
                {
                  "internalType": "uint256",
                  "name": "level",
                  "type": "uint256"
                },
                {
                  "internalType": "uint256",
                  "name": "createdAt",
                  "type": "uint256"
                },
                {
                  "internalType": "uint256",
                  "name": "expiresAt",
                  "type": "uint256"
                }
              ],
              "internalType": "struct GameifiedMarketplaceSkillsV2.Skill[]",
              "name": "skills",
              "type": "tuple[]"
            },
            {
              "internalType": "uint256",
              "name": "createdAt",
              "type": "uint256"
            },
            {
              "internalType": "uint256",
              "name": "basePrice",
              "type": "uint256"
            }
          ],
          "internalType": "struct GameifiedMarketplaceSkillsV2.SkillNFT",
          "name": "",
          "type": "tuple"
        }
      ],
      "stateMutability": "view",
      "type": "function"
    },
    {
      "inputs": [
        {
          "internalType": "uint256",
          "name": "_tokenId",
          "type": "uint256"
        }
      ],
      "name": "getSkillNFTSkills",
      "outputs": [
        {
          "components": [
            {
              "internalType": "enum IStakingIntegration.SkillType",
              "name": "skillType",
              "type": "uint8"
            },
            {
              "internalType": "enum IStakingIntegration.Rarity",
              "name": "rarity",
              "type": "uint8"
            },
            {
              "internalType": "uint256",
              "name": "level",
              "type": "uint256"
            },
            {
              "internalType": "uint256",
              "name": "createdAt",
              "type": "uint256"
            },
            {
              "internalType": "uint256",
              "name": "expiresAt",
              "type": "uint256"
            }
          ],
          "internalType": "struct GameifiedMarketplaceSkillsV2.Skill[]",
          "name": "",
          "type": "tuple[]"
        }
      ],
      "stateMutability": "view",
      "type": "function"
    },
    {
      "inputs": [
        {
          "internalType": "enum IStakingIntegration.SkillType",
          "name": "_skillType",
          "type": "uint8"
        },
        {
          "internalType": "enum IStakingIntegration.Rarity",
          "name": "_rarity",
          "type": "uint8"
        }
      ],
      "name": "getSkillPrice",
      "outputs": [
        {
          "internalType": "uint256",
          "name": "",
          "type": "uint256"
        }
      ],
      "stateMutability": "view",
      "type": "function"
    },
    {
      "inputs": [
        {
          "internalType": "enum IStakingIntegration.SkillType",
          "name": "_skillType",
          "type": "uint8"
        }
      ],
      "name": "getSkillPricesAllRarities",
      "outputs": [
        {
          "internalType": "uint256[5]",
          "name": "",
          "type": "uint256[5]"
        }
      ],
      "stateMutability": "view",
      "type": "function"
    },
    {
      "inputs": [
        {
          "internalType": "address",
          "name": "_user",
          "type": "address"
        },
        {
          "internalType": "enum IStakingIntegration.SkillType",
          "name": "_skillType",
          "type": "uint8"
        }
      ],
      "name": "getSkillSwitchInfo",
      "outputs": [
        {
          "internalType": "uint256",
          "name": "activeTokenId",
          "type": "uint256"
        },
        {
          "internalType": "uint256",
          "name": "expiresAt",
          "type": "uint256"
        },
        {
          "internalType": "bool",
          "name": "canSwitch",
          "type": "bool"
        }
      ],
      "stateMutability": "view",
      "type": "function"
    },
    {
      "inputs": [
        {
          "internalType": "enum IStakingIntegration.SkillType",
          "name": "_skillType",
          "type": "uint8"
        }
      ],
      "name": "getSkillTypeCount",
      "outputs": [
        {
          "internalType": "uint256",
          "name": "",
          "type": "uint256"
        }
      ],
      "stateMutability": "view",
      "type": "function"
    },
    {
      "inputs": [
        {
          "internalType": "address",
          "name": "_user",
          "type": "address"
        }
      ],
      "name": "getUserSkillNFTs",
      "outputs": [
        {
          "internalType": "uint256[]",
          "name": "",
          "type": "uint256[]"
        }
      ],
      "stateMutability": "view",
      "type": "function"
    },
    {
      "inputs": [
        {
          "internalType": "address",
          "name": "_user",
          "type": "address"
        }
      ],
      "name": "getUserSkillNFTsWithDetails",
      "outputs": [
        {
          "internalType": "uint256[]",
          "name": "tokenIds",
          "type": "uint256[]"
        },
        {
          "components": [
            {
              "internalType": "address",
              "name": "creator",
              "type": "address"
            },
            {
              "components": [
                {
                  "internalType": "enum IStakingIntegration.SkillType",
                  "name": "skillType",
                  "type": "uint8"
                },
                {
                  "internalType": "enum IStakingIntegration.Rarity",
                  "name": "rarity",
                  "type": "uint8"
                },
                {
                  "internalType": "uint256",
                  "name": "level",
                  "type": "uint256"
                },
                {
                  "internalType": "uint256",
                  "name": "createdAt",
                  "type": "uint256"
                },
                {
                  "internalType": "uint256",
                  "name": "expiresAt",
                  "type": "uint256"
                }
              ],
              "internalType": "struct GameifiedMarketplaceSkillsV2.Skill[]",
              "name": "skills",
              "type": "tuple[]"
            },
            {
              "internalType": "uint256",
              "name": "createdAt",
              "type": "uint256"
            },
            {
              "internalType": "uint256",
              "name": "basePrice",
              "type": "uint256"
            }
          ],
          "internalType": "struct GameifiedMarketplaceSkillsV2.SkillNFT[]",
          "name": "skillNFTDetails",
          "type": "tuple[]"
        },
        {
          "internalType": "uint256[]",
          "name": "expiryTimes",
          "type": "uint256[]"
        },
        {
          "internalType": "bool[]",
          "name": "isExpired",
          "type": "bool[]"
        }
      ],
      "stateMutability": "view",
      "type": "function"
    },
    {
      "inputs": [
        {
          "internalType": "address",
          "name": "_user",
          "type": "address"
        },
        {
          "internalType": "enum IStakingIntegration.SkillType",
          "name": "_skillType",
          "type": "uint8"
        }
      ],
      "name": "getUserSkillsByType",
      "outputs": [
        {
          "internalType": "uint256[]",
          "name": "tokenIds",
          "type": "uint256[]"
        },
        {
          "internalType": "uint8[]",
          "name": "statuses",
          "type": "uint8[]"
        }
      ],
      "stateMutability": "view",
      "type": "function"
    },
    {
      "inputs": [
        {
          "internalType": "address",
          "name": "_user",
          "type": "address"
        }
      ],
      "name": "getUserTotalActiveSkills",
      "outputs": [
        {
          "internalType": "uint256",
          "name": "",
          "type": "uint256"
        }
      ],
      "stateMutability": "view",
      "type": "function"
    },
    {
      "inputs": [
        {
          "internalType": "bytes32",
          "name": "role",
          "type": "bytes32"
        },
        {
          "internalType": "address",
          "name": "account",
          "type": "address"
        }
      ],
      "name": "grantRole",
      "outputs": [],
      "stateMutability": "nonpayable",
      "type": "function"
    },
    {
      "inputs": [
        {
          "internalType": "address",
          "name": "",
          "type": "address"
        }
      ],
      "name": "hasClaimedFreeSkill",
      "outputs": [
        {
          "internalType": "bool",
          "name": "",
          "type": "bool"
        }
      ],
      "stateMutability": "view",
      "type": "function"
    },
    {
      "inputs": [
        {
          "internalType": "bytes32",
          "name": "role",
          "type": "bytes32"
        },
        {
          "internalType": "address",
          "name": "account",
          "type": "address"
        }
      ],
      "name": "hasRole",
      "outputs": [
        {
          "internalType": "bool",
          "name": "",
          "type": "bool"
        }
      ],
      "stateMutability": "view",
      "type": "function"
    },
    {
      "inputs": [
        {
          "internalType": "uint256",
          "name": "",
          "type": "uint256"
        }
      ],
      "name": "isFirstSkillFree",
      "outputs": [
        {
          "internalType": "bool",
          "name": "",
          "type": "bool"
        }
      ],
      "stateMutability": "view",
      "type": "function"
    },
    {
      "inputs": [
        {
          "internalType": "uint256",
          "name": "_tokenId",
          "type": "uint256"
        }
      ],
      "name": "isSkillExpired",
      "outputs": [
        {
          "internalType": "bool",
          "name": "",
          "type": "bool"
        }
      ],
      "stateMutability": "view",
      "type": "function"
    },
    {
      "inputs": [],
      "name": "pause",
      "outputs": [],
      "stateMutability": "nonpayable",
      "type": "function"
    },
    {
      "inputs": [],
      "name": "paused",
      "outputs": [
        {
          "internalType": "bool",
          "name": "",
          "type": "bool"
        }
      ],
      "stateMutability": "view",
      "type": "function"
    },
    {
      "inputs": [
        {
          "internalType": "uint256",
          "name": "_tokenId",
          "type": "uint256"
        },
        {
          "internalType": "enum IStakingIntegration.SkillType[]",
          "name": "_skillTypes",
          "type": "uint8[]"
        },
        {
          "internalType": "enum IStakingIntegration.Rarity[]",
          "name": "_rarities",
          "type": "uint8[]"
        },
        {
          "internalType": "uint256[]",
          "name": "_levels",
          "type": "uint256[]"
        }
      ],
      "name": "registerSkillsForNFT",
      "outputs": [
        {
          "internalType": "uint256",
          "name": "",
          "type": "uint256"
        }
      ],
      "stateMutability": "payable",
      "type": "function"
    },
    {
      "inputs": [
        {
          "internalType": "uint256",
          "name": "_tokenId",
          "type": "uint256"
        }
      ],
      "name": "renewSkill",
      "outputs": [],
      "stateMutability": "payable",
      "type": "function"
    },
    {
      "inputs": [
        {
          "internalType": "bytes32",
          "name": "role",
          "type": "bytes32"
        },
        {
          "internalType": "address",
          "name": "account",
          "type": "address"
        }
      ],
      "name": "renounceRole",
      "outputs": [],
      "stateMutability": "nonpayable",
      "type": "function"
    },
    {
      "inputs": [
        {
          "internalType": "bytes32",
          "name": "role",
          "type": "bytes32"
        },
        {
          "internalType": "address",
          "name": "account",
          "type": "address"
        }
      ],
      "name": "revokeRole",
      "outputs": [],
      "stateMutability": "nonpayable",
      "type": "function"
    },
    {
      "inputs": [
        {
          "internalType": "address",
          "name": "_stakingAddress",
          "type": "address"
        }
      ],
      "name": "setStakingContract",
      "outputs": [],
      "stateMutability": "nonpayable",
      "type": "function"
    },
    {
      "inputs": [
        {
          "internalType": "address",
          "name": "_treasuryAddress",
          "type": "address"
        }
      ],
      "name": "setTreasuryAddress",
      "outputs": [],
      "stateMutability": "nonpayable",
      "type": "function"
    },
    {
      "inputs": [
        {
          "internalType": "uint256",
          "name": "",
          "type": "uint256"
        }
      ],
      "name": "skillNFTs",
      "outputs": [
        {
          "internalType": "address",
          "name": "creator",
          "type": "address"
        },
        {
          "internalType": "uint256",
          "name": "createdAt",
          "type": "uint256"
        },
        {
          "internalType": "uint256",
          "name": "basePrice",
          "type": "uint256"
        }
      ],
      "stateMutability": "view",
      "type": "function"
    },
    {
      "inputs": [
        {
          "internalType": "enum IStakingIntegration.SkillType",
          "name": "",
          "type": "uint8"
        },
        {
          "internalType": "enum IStakingIntegration.Rarity",
          "name": "",
          "type": "uint8"
        }
      ],
      "name": "skillPrices",
      "outputs": [
        {
          "internalType": "uint256",
          "name": "",
          "type": "uint256"
        }
      ],
      "stateMutability": "view",
      "type": "function"
    },
    {
      "inputs": [
        {
          "internalType": "enum IStakingIntegration.SkillType",
          "name": "",
          "type": "uint8"
        }
      ],
      "name": "skillTypeCount",
      "outputs": [
        {
          "internalType": "uint256",
          "name": "",
          "type": "uint256"
        }
      ],
      "stateMutability": "view",
      "type": "function"
    },
    {
      "inputs": [],
      "name": "stakingContractAddress",
      "outputs": [
        {
          "internalType": "address",
          "name": "",
          "type": "address"
        }
      ],
      "stateMutability": "view",
      "type": "function"
    },
    {
      "inputs": [
        {
          "internalType": "bytes4",
          "name": "interfaceId",
          "type": "bytes4"
        }
      ],
      "name": "supportsInterface",
      "outputs": [
        {
          "internalType": "bool",
          "name": "",
          "type": "bool"
        }
      ],
      "stateMutability": "view",
      "type": "function"
    },
    {
      "inputs": [
        {
          "internalType": "uint256",
          "name": "_oldTokenId",
          "type": "uint256"
        },
        {
          "internalType": "uint256",
          "name": "_newTokenId",
          "type": "uint256"
        },
        {
          "internalType": "enum IStakingIntegration.SkillType",
          "name": "_skillType",
          "type": "uint8"
        }
      ],
      "name": "switchSkill",
      "outputs": [],
      "stateMutability": "payable",
      "type": "function"
    },
    {
      "inputs": [],
      "name": "treasuryAddress",
      "outputs": [
        {
          "internalType": "address",
          "name": "",
          "type": "address"
        }
      ],
      "stateMutability": "view",
      "type": "function"
    },
    {
      "inputs": [],
      "name": "unpause",
      "outputs": [],
      "stateMutability": "nonpayable",
      "type": "function"
    },
    {
      "inputs": [
        {
          "internalType": "uint256",
          "name": "_common",
          "type": "uint256"
        },
        {
          "internalType": "uint256",
          "name": "_uncommon",
          "type": "uint256"
        },
        {
          "internalType": "uint256",
          "name": "_rare",
          "type": "uint256"
        },
        {
          "internalType": "uint256",
          "name": "_epic",
          "type": "uint256"
        },
        {
          "internalType": "uint256",
          "name": "_legendary",
          "type": "uint256"
        }
      ],
      "name": "updateActiveSkillsPricing",
      "outputs": [],
      "stateMutability": "nonpayable",
      "type": "function"
    },
    {
      "inputs": [
        {
          "internalType": "enum IStakingIntegration.SkillType",
          "name": "_skillType",
          "type": "uint8"
        },
        {
          "internalType": "enum IStakingIntegration.Rarity",
          "name": "_rarity",
          "type": "uint8"
        },
        {
          "internalType": "uint256",
          "name": "_newPrice",
          "type": "uint256"
        }
      ],
      "name": "updateSkillPrice",
      "outputs": [],
      "stateMutability": "nonpayable",
      "type": "function"
    },
    {
      "inputs": [
        {
          "internalType": "uint256",
          "name": "_common",
          "type": "uint256"
        },
        {
          "internalType": "uint256",
          "name": "_uncommon",
          "type": "uint256"
        },
        {
          "internalType": "uint256",
          "name": "_rare",
          "type": "uint256"
        },
        {
          "internalType": "uint256",
          "name": "_epic",
          "type": "uint256"
        },
        {
          "internalType": "uint256",
          "name": "_legendary",
          "type": "uint256"
        }
      ],
      "name": "updateStakingSkillsPricing",
      "outputs": [],
      "stateMutability": "nonpayable",
      "type": "function"
    },
    {
      "inputs": [
        {
          "internalType": "address",
          "name": "",
          "type": "address"
        },
        {
          "internalType": "enum IStakingIntegration.SkillType",
          "name": "",
          "type": "uint8"
        }
      ],
      "name": "userActiveSkillsByType",
      "outputs": [
        {
          "internalType": "uint256",
          "name": "",
          "type": "uint256"
        }
      ],
      "stateMutability": "view",
      "type": "function"
    },
    {
      "inputs": [
        {
          "internalType": "address",
          "name": "",
          "type": "address"
        },
        {
          "internalType": "enum IStakingIntegration.SkillType",
          "name": "",
          "type": "uint8"
        }
      ],
      "name": "userSkillNFTId",
      "outputs": [
        {
          "internalType": "uint256",
          "name": "",
          "type": "uint256"
        }
      ],
      "stateMutability": "view",
      "type": "function"
    },
    {
      "inputs": [
        {
          "internalType": "address",
          "name": "",
          "type": "address"
        },
        {
          "internalType": "uint256",
          "name": "",
          "type": "uint256"
        }
      ],
      "name": "userSkillNFTs",
      "outputs": [
        {
          "internalType": "uint256",
          "name": "",
          "type": "uint256"
        }
      ],
      "stateMutability": "view",
      "type": "function"
    },
    {
      "inputs": [
        {
          "internalType": "address",
          "name": "",
          "type": "address"
        }
      ],
      "name": "userTotalActiveSkills",
      "outputs": [
        {
          "internalType": "uint256",
          "name": "",
          "type": "uint256"
        }
      ],
      "stateMutability": "view",
      "type": "function"
    },
    {
      "stateMutability": "payable",
      "type": "receive"
    }
  ],
  "bytecode": "0x60806040523461002a576100196100146100bf565b61015f565b60405161474a610605823961474a90f35b5f80fd5b634e487b7160e01b5f52604160045260245ffd5b90601f01601f191681019081106001600160401b0382111761006357604052565b61002e565b9061007c61007560405190565b9283610042565b565b6001600160a01b031690565b90565b6001600160a01b0381160361002a57565b9050519061007c8261008d565b9060208282031261002a5761008a9161009e565b61008a614d4f803803806100d281610068565b9283398101906100ab565b61007e61008a61008a9290565b61008a906100dd565b61008a61008a61008a9290565b61008a5f6100f3565b906001600160a01b03905b9181191691161790565b61008a9061007e906001600160a01b031682565b61008a9061011e565b61008a90610132565b9061015461008a61015b9261013b565b8254610109565b9055565b610167610216565b61017361007e5f6100ea565b6001600160a01b038216146101db576101c890610198610191610100565b339061025b565b6101c17fa49807205ce4d355092ef5a8a18f56e8913cf4a201fbe287825b095693c21775610191565b600d610144565b6101d333600f610144565b61007c6103de565b63e6c4247b60e01b5f908152600490fd5b61008a60016100f3565b905f1990610114565b9061020f61008a61015b926100f3565b82546101f6565b61021e610250565b61007c6102296101ec565b60026101ff565b9060ff90610114565b9061024961008a61015b92151590565b8254610230565b61007c5f6001610239565b9061007c91610550565b61027261008a61008a9290565b60ff1690565b634e487b7160e01b5f52601160045260245ffd5b60ff1660ff811461029d5760010190565b610278565b634e487b7160e01b5f52602160045260245ffd5b601111156102c057565b6102a2565b9061007c826102b6565b6102df61008a61008a9260ff1690565b6102c5565b61008a6802b5e3af16b18800006100f3565b61008a906102c5565b90610309906102f6565b5f5260205260405f2090565b600511156102c057565b9061007c82610315565b61008a9061031f565b9061030990610329565b61008a6804563918244f4000006100f3565b61008a68056bc75e2d631000006100f3565b61008a680821ab0d44149800006100f3565b61008a680bed1d0263d9f000006100f3565b61008a6803860e639d806400006100f3565b61008a6805a34a38fc00a000006100f3565b61008a68070c1cc73b00c800006100f3565b61008a680a922b2ad8812c00006100f3565b61008a680f810c1cb501b800006100f3565b600180806103eb81610265565b905b6104c4575b506103fd6008610265565b905b610407575050565b6104116010610265565b60ff8216116104c0576104ba816104b561042b85946102cf565b610455600461045061043b610384565b9361045a600c956104555f610450858a6102ff565b610332565b6101ff565b610473610465610396565b6104558b610450858a6102ff565b61048d61047e6103a8565b6104556002610450858a6102ff565b6104a76104986103ba565b6104556003610450858a6102ff565b6104af6103cc565b946102ff565b61028c565b906103ff565b5050565b6104ce6007610265565b60ff82161161053b57806104b56104e7610535936102cf565b61045560046104506104f76102e4565b9361050c600c956104555f610450858a6102ff565b61051761046561033c565b61052261047e61034e565b61052d610498610360565b6104af610372565b816103ed565b6103f2565b90610309565b906103099061013b565b61056161055d83836105e5565b1590565b610569575050565b6105886001610583845f61057d8682610540565b01610546565b610239565b6105a261059c610596339390565b9361013b565b9161013b565b917f2f8788117e7eff1d82e926ec794901d17c78024a50270940304540a733656f0d6105cd60405190565b5f90a4565b61008a90610272565b61008a90546105d2565b61008a915f61057d6105ff936105f85f90565b5082610540565b6105db56fe60c0604052600436101561001a575b3615610018575f80fd5b005b5f3560e01c806301ffc9a71461032957806313f487ec146103245780631bb445c21461031f5780631d5295bd1461031a578063234d41db14610315578063248a9ca3146103105780632e5cd5ab1461030b5780632f2ff15d146103065780633535f48b1461030157806336568abe146102fc57806336e517b7146102f75780633f4ba83a146102f2578063401cf38a146102ed5780634e847941146102e85780634fa2d3d7146102e35780635312ea8e146102de57806354951e48146102d9578063554ba220146102d45780635c975abb146102cf5780635d32adde146102ca5780636605bfda146102c557806375b238fc146102c05780638456cb59146102bb578063845952d7146102b6578063850c1f1f146102b15780638d09af25146102ac5780638e3ac9c2146102a757806391413334146102a257806391d148541461029d57806393e1124e14610298578063978196c9146102935780639d2e99e71461028e5780639dd373b914610289578063a217fddf14610284578063a53135471461027f578063a5cad9371461027a578063a7edd01214610275578063a838959614610270578063bd07aabf1461026b578063bd6d022414610266578063c5f956af14610261578063cddc0f101461025c578063cf1084ff14610257578063d547741f14610252578063dd1917191461024d578063ec2f595114610248578063ede8a1f614610243578063f192efc01461023e5763f75826b30361000e576111de565b6111c2565b611196565b61115e565b611146565b61112d565b611110565b611036565b610fa1565b610f7a565b610f1a565b610ede565b610db8565b610d52565b610d28565b610d0d565b610ce4565b610cbd565b610baa565b610b13565b610af7565b610ae3565b610a9f565b610a87565b610a6e565b610a23565b6109e5565b6109bf565b6109a7565b61098c565b610971565b61094a565b6108bf565b610881565b610865565b610832565b610817565b6107d1565b6107be565b6107a5565b610770565b610725565b6106e7565b61068b565b610648565b610621565b6105cf565b6104c0565b61036f565b6001600160e01b031981165b0361034157565b5f80fd5b905035906103528261032e565b565b906020828203126103415761036891610345565b90565b9052565b346103415761039c61038a610385366004610354565b6111f9565b60405191829182901515815260200190565b0390f35b6001600160a01b031690565b6001600160a01b03811661033a565b90503590610352826103ac565b6011111561034157565b90503590610352826103c8565b9190604083820312610341576103689060206103fb82866103bb565b94016103d2565b0190565b9061042661041f610415845190565b8084529260200190565b9260200190565b905f5b8181106104365750505090565b90919261045361044c6001928651815260200190565b9460200190565b929101610429565b9061046a61041f610415845190565b905f5b81811061047a5750505090565b90919261049361044c600192865160ff16815260200190565b92910161046d565b60408082526103689391926104b291840190610406565b91602081840391015261045b565b34610341576104d96104d33660046103df565b906113db565b9061039c6104e660405190565b9283928361049b565b6005111561034157565b90503590610352826104ef565b91906040838203126103415761036890602061052282866103d2565b94016104f9565b634e487b7160e01b5f52602160045260245ffd5b6011111561054757565b610529565b906103528261053d565b6103689061054c565b9061056990610556565b5f5260205260405f2090565b6005111561054757565b9061035282610575565b6103689061057f565b9061056990610589565b610368916008021c81565b90610368915461059c565b6105ca610368926105c55f93600c61055f565b610592565b6105a7565b346103415761039c6105eb6105e5366004610506565b906105b2565b6040515b9182918290815260200190565b9060208282031261034157610368916103bb565b602080825261036892910190610406565b346103415761039c61063c6106373660046105fc565b611637565b60405191829182610610565b346103415761039c6105eb61065e366004610506565b9061164e565b8061033a565b9050359061035282610664565b90602082820312610341576103689161066a565b346103415761039c6105eb6106a1366004610677565b61166e565b6103a0610368610368926001600160a01b031690565b610368906106a6565b610368906106bc565b90610569906106c5565b5f6105ca61036892600b6106ce565b346103415761039c6105eb6106fd3660046105fc565b6106d8565b91906040838203126103415761036890602061071e828661066a565b94016103bb565b346103415761073e610738366004610702565b906116ab565b604051005b5f91031261034157565b610368916008021c6103a0565b90610368915461074d565b6103685f600e61075a565b3461034157610780366004610743565b61039c61078b610765565b604051918291826001600160a01b03909116815260200190565b346103415761073e6107b8366004610702565b9061171e565b61073e6107cc366004610677565b611c46565b34610341576107e1366004610743565b61073e611c70565b610368916008021c5b60ff1690565b9061036891546107e9565b5f6108126103689260086106ce565b6107f8565b346103415761039c61038a61082d3660046105fc565b610803565b3461034157610842366004610743565b61039c61063c611c78565b6105ca610368926108605f9360096106ce565b61055f565b346103415761039c6105eb61087b3660046103df565b9061084d565b346103415761073e610894366004610677565b611e4d565b9081526060810193926103529290916040916108b7905b6020830152565b019015159052565b346103415761039c6108db6108d53660046103df565b90611e56565b60405191939193849384610899565b9060208282031261034157610368916103d2565b61090e61090a60059390565b9190565b5f915b83831061091e5750505050565b61093161041f6001928451815260200190565b92019190610911565b60a08101929161035291906108fe565b346103415761039c6109656109603660046108ea565b611fd5565b6040519182918261093a565b3461034157610981366004610743565b61039c61038a612096565b346103415761039c6105eb6109a23660046105fc565b6120a0565b346103415761073e6109ba3660046105fc565b612169565b34610341576109cf366004610743565b61039c5f5160206146f55f395f51905f526105eb565b34610341576109f5366004610743565b61073e612193565b6103686103686103689290565b90610569906109fd565b5f610812610368926007610a0a565b346103415761039c61038a610a39366004610677565b610a14565b909160608284031261034157610368610a5784846103d2565b936040610a6782602087016104f9565b940161066a565b346103415761073e610a81366004610a3e565b9161226b565b346103415761073e610a9a366004610677565b612292565b346103415761039c61038a610ab5366004610677565b61242e565b909160608284031261034157610368610ad3848461066a565b9360406103fb826020870161066a565b61073e610af1366004610aba565b916128da565b346103415761039c61038a610b0d366004610702565b906128e5565b346103415761039c6105eb610b293660046108ea565b61290a565b919060408382031261034157610368906020610a6782866103bb565b634e487b7160e01b5f52603260045260245ffd5b8054821015610b7e57610b766001915f5260205f2090565b910201905f90565b610b4a565b610b8e9060056106ce565b80548210156103415761036891610ba491610b5e565b906105a7565b346103415761039c6105eb610bc0366004610b2e565b90610b83565b61036b90610556565b61036b90610589565b9060808061035293610bf05f8201515f860190610bc6565b610c0260208201516020860190610bcf565b610c1160408201516040860152565b610c2060608201516060860152565b0151910152565b906104028160a093610bd8565b90610c4361041f610415845190565b905f5b818110610c535750505090565b909192610c6661044c6001928651610c27565b929101610c46565b80516001600160a01b031682529061036890606080610c9c6080840160208701518582036020870152610c34565b94610c2060408201516040860152565b602080825261036892910190610c6e565b346103415761039c610cd8610cd3366004610677565b612a99565b60405191829182610cac565b346103415761073e610cf73660046105fc565b612b30565b6103685f6109fd565b610368610cfc565b3461034157610d1d366004610743565b61039c6105eb610d05565b346103415761039c6105eb610d3e366004610677565b612b39565b5f6105ca61036892600661055f565b346103415761039c6105eb610d683660046108ea565b610d43565b90610d7c61041f610415845190565b905f5b818110610d8c5750505090565b909192610d9f61044c6001928651610c27565b929101610d7f565b602080825261036892910190610d6d565b346103415761039c610dd3610dce366004610677565b612b4c565b60405191829182610da7565b9061036891610c6e565b90610dff610df5835190565b8083529160200190565b9081610e116020830284019460200190565b925f915b838310610e2457505050505090565b90919293946020610e47610e4083856001950387528951610ddf565b9760200190565b9301930191939290610e15565b90610e6361041f610415845190565b905f5b818110610e735750505090565b909192610e8b61044c60019286511515815260200190565b929101610e66565b92610ec26103689593610eb4610ed09460808801908882035f8a0152610406565b908682036020880152610de9565b908482036040860152610406565b916060818403910152610e54565b346103415761039c610ef9610ef43660046105fc565b612ba3565b90610f0694929460405190565b94859485610e93565b6103685f600d61075a565b3461034157610f2a366004610743565b61039c61078b610f0f565b919060a08382031261034157610f4b818461066a565b92610f59826020830161066a565b92610368610f6a846040850161066a565b936080610a67826060870161066a565b346103415761073e610f8d366004610f35565b93929092612d63565b6103685f600f61075a565b3461034157610fb1366004610743565b61039c61078b610f96565b610368906103a0565b6103689054610fbc565b6103689081565b6103689054610fcf565b610feb906004610a0a565b610ff481610fc5565b91610368600361100660028501610fd6565b9301610fd6565b6001600160a01b039091168152606081019392610352929091604091611032906108b0565b0152565b346103415761039c61105161104c366004610677565b610fe0565b6040519193919384938461100d565b909182601f830112156103415781359167ffffffffffffffff831161034157602001926020830284011161034157565b919091608081840312610341576110a7838261066a565b92602082013567ffffffffffffffff811161034157816110c8918401611060565b929093604082013567ffffffffffffffff811161034157836110eb918401611060565b929093606082013567ffffffffffffffff81116103415761110c9201611060565b9091565b61039c6105eb611121366004611090565b95949094939193613c4a565b346103415761073e611140366004610702565b90613c75565b3461034157611156366004610743565b61073e613d1d565b346103415761073e611171366004610f35565b93929092613de9565b9190604083820312610341576103689060206103fb828661066a565b346103415761073e6111a936600461117a565b90613fa8565b6105ca610368926108605f93600a6106ce565b346103415761039c6105eb6111d83660046103df565b906111af565b346103415761039c61063c6111f43660046105fc565b613fb2565b637965db0b60e01b6001600160e01b0319821614908115611218575090565b61036891506001600160e01b0319166301ffc9a760e01b1490565b9061124c611242610415845490565b925f5260205f2090565b905f5b81811061125c5750505090565b90919261128061127960019261127187610fd6565b815260200190565b9460010190565b92910161124f565b9061036891611233565b634e487b7160e01b5f52604160045260245ffd5b90601f01601f1916810190811067ffffffffffffffff8211176112c857604052565b611292565b906103526112e7926112de60405190565b93848092611288565b03836112a6565b610368906112cd565b90611300825190565b811015610b7e576020809102010190565b8054821015610b7e57610b766004915f5260205f2090565b610368906107f2565b6103689054611329565b634e487b7160e01b5f52601160045260245ffd5b5f19811461135e5760010190565b61133c565b9061035261137060405190565b92836112a6565b67ffffffffffffffff81116112c85760208091020190565b906113a161139c83611377565b611363565b918252565b369037565b906103526113c16113bb8461138f565b93611377565b601f1901602084016113a6565b6107f26103686103689290565b90916113f06113eb8360056106ce565b6112ee565b926113fa5f6109fd565b9182935b611409610368875190565b8510156114b55761142f6103686004611429611425898b6112f7565b5190565b90610a0a565b956114395f6109fd565b60018801611448610368825490565b8210156114a5575f61145d8361146493611311565b5001611332565b6114766114708761054c565b9161054c565b1461148357600101611439565b50929550939261149561149c91611350565b9360010190565b939491946113fe565b50509295509361149c9060010190565b91935093916114c3816113ab565b926114ce84926113ab565b9182956114f16114ec826108606114e45f6109fd565b9860096106ce565b610fd6565b9185975b611500610368865190565b89101561162b5761151c61036860046114296114258d8a6112f7565b995f926115285f6109fd565b60018d01611537610368825490565b82101561161e575f61145d8361154c93611311565b6115586114708861054c565b1461156557600101611528565b50939a509890915060015b611582575b6001015b979891906114f5565b956115de611579916115a761159a6114258b8a6112f7565b6115a4838d6112f7565b52565b6115b46114258a896112f7565b8690036115e6576115d96115c75f6113ce565b6115d1838b6112f7565b9060ff169052565b611350565b969050611575565b6115fe6103686115f96114258c8b6112f7565b61409b565b4210611611576115d96115c760026113ce565b6115d96115c760016113ce565b5050939a50989091611570565b97509795505050505050565b6113eb61036891611646606090565b5060056106ce565b610368916105c56114ec926116605f90565b50600c61055f565b90610569565b60016116856103689261167e5f90565b505f611668565b01610fd6565b90610352916116a161169c8261166e565b6140df565b90610352916140ea565b906103529161168b565b156116bc57565b60405162461bcd60e51b815260206004820152602f60248201527f416363657373436f6e74726f6c3a2063616e206f6e6c792072656e6f756e636560448201526e103937b632b9903337b91039b2b63360891b606482015280608481015b0390fd5b610352919061173f61172f336103a0565b6001600160a01b038416146116b5565b614159565b610352906117506141f6565b6117619061175c61425f565b6118c1565b610352614287565b634e487b7160e01b5f52601260045260245ffd5b8115611787570490565b611769565b9081526040810192916103529160200152565b61036862278d006109fd565b9190820180921161135e57565b905f19905b9181191691161790565b906117d76103686117de926109fd565b82546117b8565b9055565b6103a06103686103689290565b610368906117e2565b6103689060081c6107f2565b61036890546117f8565b8181029291811591840414171561135e57565b61182e6103686103689290565b61ffff1690565b61186f6103529461186560609498979561185e608086019a5f8701906001600160a01b03169052565b6020850152565b60ff166040830152565b019061ffff169052565b67ffffffffffffffff81116112c857602090601f01601f19160190565b906113a161139c83611879565b3d156118bc576118b23d611896565b903d5f602084013e565b606090565b6004906118d16103688284610a0a565b926118db84610fc5565b6118ed335b916001600160a01b031690565b03611c36576118fb8261409b565b804210611c20575061190f60038501610fd6565b9161192660029361192060026109fd565b9061177d565b803410611c075761193e61193861179f565b426117ab565b946119485f6109fd565b60018801611957610368825490565b82101561198457906119798860036119728461197f96611311565b50016117c7565b60010190565b611948565b5050919395909295611996600e610fc5565b916119a05f6117ef565b926119b36001600160a01b0385166118e0565b03611b05575b50506119c45f6109fd565b83119081611ade575b50611a1a575b50507f20caca271ed23e340f745b19f7a0a0b1fa92c5dfaab7694caeb4e7349e4671d4611a15611a0b611a05336106c5565b936109fd565b936105ef60405190565b0390a3565b611a4c5f80611a34611a2f611a2f600f610fc5565b6106c5565b6040518681805b03925af1611a476118a3565b501590565b611acc5750611a5a336106c5565b7f4c369879192a61f41a90aef2b9388fd74227d8429a5f5fe1887a365da71d723c611ac2611a87856109fd565b93611a9160405190565b91829182908152604060208201819052600c908201526b52454e45575f534b494c4c5360a01b606082015260800190565b0390a35f806119d3565b63e6c4247b60e01b5f908152905b035ffd5b9050611afd6118e0611af0600f610fc5565b926001600160a01b031690565b14155f6119cd565b9590969193611b135f6109fd565b60018801611b22610368825490565b821015611bf85781611be75f808b858f8c611bc6611b8a611b85611b76611bd595611b7060019f611bf19f8c611b5e611b6a93611b6593611311565b5001611804565b610589565b916109fd565b9061180e565b611b8060056109fd565b6117ab565b611821565b611baa611ba58861145d8d611b9f600e610fc5565b99611311565b610556565b60405196879460208601630c4e865560e21b8152013390611835565b602082018103825203836112a6565b82602083519301915af1611a476118a3565b6119795760010190565b9050611b13565b50509391965094505f806119b9565b63af608abb60e01b5f90815290611ada9034908761178c565b63fc2df8a960e01b5f9081529084526020840190fd5b632500456d60e01b5f9081528390fd5b61035290611744565b611c655f5160206146f55f395f51905f526140df565b6103526103526142d7565b610352611c4f565b611c8260036142df565b611c8b5f6109fd565b805b82811015611ce157611caa5f611ca4836004610a0a565b01610fc5565b611cb96118e06103a05f6117ef565b03611ccc575b600101611c8d565b611c8d565b90611cd9611cc791611350565b919050611cbf565b50611ceb906113ab565b611cf45f6109fd565b92835b835b811015611d5557611d0f5f611ca4836004610a0a565b611d1e6118e06103a05f6117ef565b03611d33575b611cf9906001015b9050611cf7565b93611d2c611d4c826115d9886115a4611cf996896112f7565b95915050611d24565b509250905090565b61035290611d775f5160206146f55f395f51905f526140df565b611d9b565b61036b906109fd565b9081526040810192916103529160200190611d7c565b611da45f6109fd565b8114611e3357611db3306106c5565b80318211611e195750611dc6600f610fc5565b611dd56118e06103a05f6117ef565b14611e08575f80611e0292611df0611a2f611a2f600f610fc5565b90611dfa60405190565b908180611a3b565b611e0857565b63e6c4247b60e01b5f908152600490fd5b63af608abb60e01b5f90815291611ada913190600461178c565b63af608abb60e01b5f90815290611ada9082906004611d85565b61035290611d5d565b5f90611e6a6114ec846108608460096106ce565b9384611e7861090a5f6109fd565b14611f6757611e946113eb611e8c8761409b565b9360056106ce565b611e9d5f6109fd565b611ea8610368835190565b811015611f5457611ebc61142582846112f7565b879003611ecc575b600101611e9d565b9394611ee3610368600461142961142589876112f7565b95611eed5f6109fd565b60018801611efc610368825490565b821015611f5b575f61145d83611f1193611311565b611f1d6114708561054c565b14611f2b575b600101611eed565b611f3e6103686115f96114258a886112f7565b421015611f235750509450600193845b15611ec4575b5050909250565b50508095919650611f4e565b9350505050611f755f6109fd565b908190600190565b67ffffffffffffffff81116112c85760200290565b61139c61036891611f7d565b90610352611fb4611fae84611f92565b93611f7d565b836113a6565b6103686005611f9e565b906005811015610b7e576020020190565b611fdd611fba565b506103686120836114ec60046105c5611ff4611fba565b95600c61201d61200b6114ec5f6105c5868661055f565b6115a46120175f6109fd565b8b611fc4565b61203f6120326114ec60016105c5868661055f565b6115a461201760016109fd565b6120616120546114ec60026105c5868661055f565b6115a461201760026109fd565b6108606120766114ec60036105c5868661055f565b6115a461201760036109fd565b6115a461209060046109fd565b84611fc4565b6103686001611332565b6114ec610368916120ae5f90565b50600b6106ce565b610352906120d05f5160206146f55f395f51905f526140df565b6120fb565b906001600160a01b03906117bd565b906120f46103686117de926106c5565b82546120d5565b6121076103a05f6117ef565b6001600160a01b03821614611e0857612137612131612126600f610fc5565b611a2f84600f6120e4565b916106c5565b907f430359a6d97ced2b6f93c77a91e7ce9dfd43252eb91e916adba170485cd8a6a461216260405190565b8080611a15565b610352906120b6565b6121885f5160206146f55f395f51905f526140df565b61035261035261432b565b610352612172565b6103529291906121b75f5160206146f55f395f51905f526140df565b929190926121c481610556565b6121d86121d160016113ce565b9160ff1690565b10801561224e575b61223d576121ed84610589565b6121fa6121d160046113ce565b116122175761035292936105c561221292600c61055f565b6117c7565b5f611ada61222486610589565b63ad2489af60e01b835260ff1660048301526024820190565b630e76c5d160e21b5f908152600490fd5b5061225881610556565b6122656121d160106113ce565b116121e0565b90610352929161219b565b801561135e575f190190565b6020810192916103529190610bc6565b6122a0610368826004610a0a565b6122a981610fc5565b6122b86118e06103a05f6117ef565b1461241d576122c68261409b565b80421061240657506122d75f6109fd565b60018201906122e7610368835490565b811015612400576122ff5f61145d8361237795611311565b61232e611a2f8560096123216114ec8661086061231b86610fc5565b856106ce565b891461237c575b50610fc5565b7fcd0a7e6e5bd57a0d6455d029e6c672cc55e5520e660f833fde5701702dd1e6de61236e61235b886109fd565b9361236560405190565b91829182612282565b0390a360010190565b6122d7565b6123a261086091612212876123905f6109fd565b94859361239c88610fc5565b906106ce565b6123b88161221287610860600a61239c88610fc5565b600b906123cd6103686114ec61231b86610fc5565b1115612328576123e36123fa9161239c84610fc5565b6123f46123ef82610fd6565b612276565b906117c7565b5f612328565b50505050565b63fc2df8a960e01b5f908152600491909152602490fd5b632b38bfed60e01b5f908152600490fd5b6103686124429161243c5f90565b5061409b565b42101590565b9061035292916124566141f6565b90611761929161246461425f565b6124a0565b6001600160a01b0390911681526040810192916103529160200152565b91602061035292949361103260408201965f830190610bc6565b90916004926124b26103688486610a0a565b926124c06103688387610a0a565b6124c985610fc5565b6124d2336118e0565b036128ca576124e081610fc5565b6124e9336118e0565b036128ca575f9586956124fb5f6109fd565b6001820161250a610368825490565b8210156128b9575f61145d8361251f93611311565b61252b6114708961054c565b14612538576001016124fb565b61255a919293949596979850611a475f611b5e600193848701611311565b1590565b612897576125706114ec876108603360096106ce565b849003612897575f6125815f6109fd565b60018501612590610368825490565b8210156128a7575f61145d836125a593611311565b6125b16114708a61054c565b146125be57600101612581565b6125e292939495969798506125dd9150611b5e5f916001809801611311565b931590565b612897576125f26103688661409b565b4210156128735761260860036126119201610fd6565b611920836109fd565b9182341061285c57612623600e610fc5565b9061262d5f6117ef565b916126406001600160a01b0384166118e0565b0361279d575b5061265a85612212886108603360096106ce565b61266d856122128861086033600a6106ce565b6126765f6109fd565b83119081612783575b506126d8575b507fab73b2dcba8ed1b6096f7940dcb388d5406686d8115d4ee75d33309b73a82930906126bd6126b76126b7336106c5565b946109fd565b946126d36126ca60405190565b92839283612486565b0390a4565b6126ed5f80611a34611a2f611a2f600f610fc5565b611acc57507fab73b2dcba8ed1b6096f7940dcb388d5406686d8115d4ee75d33309b73a829309061271d336106c5565b612726856109fd565b907f4c369879192a61f41a90aef2b9388fd74227d8429a5f5fe1887a365da71d723c61275160405190565b848152604060208201819052600d908201526c5357495443485f534b494c4c5360981b6060820152608090a390612685565b90506127956118e0611af0600f610fc5565b14155f61267f565b5f612805611b85611b766127fb849585808c6127b9600e610fc5565b6127e28d611bc66127c960405190565b94859260208401638925781760e01b8152013390612469565b82602083519301915af1506127f56118a3565b50610589565b611b7060026109fd565b61280f600e610fc5565b61284261281b8b610556565b611bc661282760405190565b9485928d8b60208601630c4e865560e21b8152013390611835565b82602083519301915af1506128556118a3565b505f612646565b63af608abb60e01b5f908152611ada34858561178c565b5f611ada836128818861409b565b63fc2df8a960e01b845290830190815260200190565b630e76c5d160e21b5f9081528290fd5b50506125e29192935096939495961590565b50509091929394959661255a901590565b632500456d60e01b5f9081528690fd5b906103529291612448565b610368915f6128ff612905936128f85f90565b5082611668565b016106ce565b611332565b6114ec610368916129185f90565b50600661055f565b6103686080611363565b612932612920565b5f8082526060602083018190526040830182905282015290565b61036861292a565b9061036b9061054c565b9061036b9061057f565b61036860a0611363565b906103526129d76003612983612968565b9461299661299082611332565b87612954565b6129ab6129a282611804565b6020880161295e565b6129c16129ba60018301610fd6565b6040880152565b6116856129d060028301610fd6565b6060880152565b6080840152565b61036890612972565b906129f0825490565b6129f98161138f565b92612a0b60208501915f5260205f2090565b5f915b838310612a1b5750505050565b60046020600192612a2b856129de565b815201920192019190612a0e565b90610352612a896003612a4a612920565b94612a64612a5782610fc5565b6001600160a01b03168752565b612a7a612a73600183016129e7565b6020880152565b6116856129ba60028301610fd6565b6060840152565b61036890612a39565b612ab061036891612aa861294c565b506004610a0a565b612a90565b61035290612acf5f5160206146f55f395f51905f526140df565b612adb6103a05f6117ef565b6001600160a01b03821614611e0857612b05612131612afa600e610fc5565b611a2f84600e6120e4565b907f7042586b23181180eb30b4798702d7a0233b7fc2551e89806770e8e5d9392e6a61216260405190565b61035290612ab5565b610368905f61243c565b610368906129e7565b6001612b5d61036892612aa8606090565b01612b43565b5f5b828110612b7157505050565b602090612b7c61294c565b8184015201612b65565b90610352612b966113bb8461138f565b601f190160208401612b63565b6113eb612bb291611646606090565b90612bbb825190565b90612bc5826113ab565b92612bcf83612b86565b93612bd9846113ab565b91612be3856113ab565b93612bed5f6109fd565b87875b821015612c715781611979612c56612c488361243c81612c6a97612c2a8d6115a4612c228f612bf09e611425916112f7565b9687926112f7565b612c38612ab0856004610a0a565b612c4283836112f7565b526112f7565b610368816115a4868d6112f7565b421015612c63838b6112f7565b9015159052565b9050612bed565b50509294505093929190565b6103529493929190612c9b5f5160206146f55f395f51905f526140df565b612cc6565b60ff1660ff811461135e5760010190565b612cc16103686103689260ff1690565b61054c565b91949394929092612cd760086113ce565b612ce160106113ce565b60ff821611612d5a5780612d508861221260046105c5612d03612d5597612cb1565b600c612d178c6122125f6105c5868661055f565b612d2a8d61221260016105c5868661055f565b612d3d8a61221260026105c5868661055f565b6108608b61221260036105c5868661055f565b612ca0565b612cd7565b50505050509050565b9061035294939291612c7d565b9061036897969594939291612d836141f6565b90612d9b97969594939291612d9661425f565b613025565b90610352614287565b6103686103686103689260ff1690565b9050519061035282610664565b906020828203126103415761036891612db4565b6040513d5f823e3d90fd5b610368680d8d726b7177a800006109fd565b9190811015610b7e576020020190565b35610368816103c8565b61036860056109fd565b35610368816104ef565b9060ff906117bd565b90612e396103686117de92151590565b8254612e20565b9190820391821161135e57565b3561036881610664565b634e487b7160e01b5f525f60045260245ffd5b610368905161054c565b90612e396103686117de92610556565b610368905161057f565b9061ff009060081b6117bd565b90612eab6103686117de92610589565b8254612e8e565b61035291600390612f1b90608090612ee885612ed6612ed084612e6a565b82612e74565b612ee260208401612e84565b90612e9b565b612eff612ef6604083015190565b600187016117c7565b612f16612f0d606083015190565b600287016117c7565b015190565b91016117c7565b9190612f315761035291612eb2565b612e57565b90815491600160401b8310156112c85782612f5991600161035295018155611311565b90612f22565b61036860326109fd565b916020610352929493612f8360408201965f830190610bc6565b0190610bcf565b61036860016109fd565b915f1960089290920291821b911b6117bd565b9190612fb86103686117de936109fd565b908354612f94565b90815491600160401b8310156112c85782612fe391600161035295018155610b5e565b90612fa7565b15612ff057565b60405162461bcd60e51b815260206004820152600d60248201526c1499599d5b990819985a5b1959609a1b6044820152606490fd5b9197939492909796959660805260a05250613040600d610fc5565b9361304a5f6117ef565b9461305d6001600160a01b0387166118e0565b14613c39576130736125566129053360086106ce565b60a051909590918615613c2a5761309b61309561309060016113ce565b612da4565b846117ab565b986130a55f6109fd565b8a148015613c18575b613bfd57848414158015613c0e575b613bfd576130cb600e610fc5565b6130dd6001600160a01b0385166118e0565b03613b56575b6130ec5f6109fd565b98895b858110156131ed5789806131c7575b6131b6578a6131346103686114ec6131173360096106ce565b61312e6131298760a051608051612df2565b612e02565b9061055f565b03613141576001016130ef565b611ada6131a36131298361315e6131295f9660a051608051612df2565b7f8e81a6b62ca13c48a33846156d48db394e770a1f9553b166f964b3c0ac91457a61319561318b336106c5565b9261236560405190565b0390a260a051608051612df2565b634a41725760e11b835260048301612282565b6330f1e06560e01b5f908152600490fd5b506131da6131298260a051608051612df2565b6131e7611470600161054c565b146130fe565b509193969961320b9193969950979497611b806114ec33600b6106ce565b61321961090a610368612e0c565b11613b45576132275f6109fd565b8681101561336557613244611ba56131298360a051608051612df2565b6001906132536121d1836113ce565b10801561333c575b61223d57613275611b65613270848c8f612df2565b612e16565b906004916132856121d1846113ce565b1161330b578061329d613297826109fd565b856117ab565b905b6132b6575b5050506132b19060010190565b613227565b89811015613306576132d06131298560a051608051612df2565b6132e8611470612cc16131298560a051608051612df2565b146132f6576001018161329f565b6330f1e06560e01b5f9081528390fd5b6132a4565b505f9250613323611b65613270611ada948c8f612df2565b63ad2489af60e01b845260ff1690830190815260200190565b50613352611ba56131298460a051608051612df2565b61335f6121d160106113ce565b1161325b565b50909192939795949661337c610368846004610a0a565b9061338733836120e4565b61339442600284016117c7565b61339d5f6109fd565b946133a961193861179f565b91869a879b5b818d10156133f8576133eb6133f2916133e58f8f908f81613270916133df61312961065e9560a051608051612df2565b94612df2565b906117ab565b9c60010190565b9b6133af565b91939597999c90929496989b506134198c6134148b6007610a0a565b612e29565b813410613b2d5761342f829d9c9b9a9d34612e40565b9161343d8160038a016117c7565b8d5b848110156136c757808e9f9c809e9f8d9e8e8e8e8e8e60a051896080519161346692612df2565b61346f90612e02565b938961347c818a8c612df2565b61348590612e16565b9261348f92612df2565b61349890612e4d565b906134a1612968565b946134ac9086612954565b6134b9906020860161295e565b60408401526134c9426060850152565b6080830152600101906134db91612f36565b600660a05186608051916134ee92612df2565b6134f790612e02565b6135009161055f565b61350981610fd6565b61351290611350565b61351b916117c7565b806135273360096106ce565b60a051876080519161353892612df2565b61354190612e02565b61354a9161055f565b90613554916117c7565b600a9061356133836106ce565b60a051876080519161357292612df2565b61357b90612e02565b6135849161055f565b9061358e916117c7565b61359933600b6106ce565b6135a281610fd6565b6135ab90611350565b6135b4916117c7565b6135bd5f6109fd565b850361364957506135ce600f6109fd565b6135d7916117ab565b9e613620611b6a61327061363f977f9b3f65d29aeb401bfee016fe6ee834d6f484bc7eddf7c981ec065d0ba8289ad3955b61361a6131298360a051608051612df2565b97612df2565b9261363661362d60405190565b92839283612f69565b0390a260010190565b9d9c9b9a9d61343f565b9061367261368a92611b80611b6a613668611b656132708b8a8c612df2565b611b7060056109fd565b61367a612f5f565b90818111156136bf5750906117ab565b9e613620611b6a61327061363f977f9b3f65d29aeb401bfee016fe6ee834d6f484bc7eddf7c981ec065d0ba8289ad395613608565b9050906117ab565b50945094929b9895919990979a9650613996575b50506005946136f7896136f26103683360056106ce565b612fc0565b6137005f6109fd565b811161395f575b506137115f6109fd565b81118061393b575b61389a575b5061372f611a2f611a2f600d610fc5565b803b15610341575f61374060405190565b918290632f7e13eb60e11b825281838161375e8c3360048401612469565b03925af1801561389557613878575b5061377e6118e0611af0600e610fc5565b036137d7575b5050507f19755b80f038339a1001e8fd8b922efd79bc678c2c12bfc7d50d14c8726f86796137b1336106c5565b916137bb856109fd565b936137d16137c860405190565b9283928361178c565b0390a390565b91936137e65f979294976109fd565b818110156138695780611be75f8061381a611b856138116127fb611b656132706138649a8f8f612df2565b611b808d6109fd565b613824600e610fc5565b611bd58d611bc6613840611ba56131298b60a051608051612df2565b9461384a60405190565b630c4e865560e21b60208201529586933360248601611835565b6137e6565b509350949150505f8080613784565b61388f905f61388781836112a6565b810190610743565b5f61376d565b612dd5565b6138ba5f806138af611a2f611a2f600f610fc5565b604051858180611a3b565b611e08576138c7336106c5565b7f4c369879192a61f41a90aef2b9388fd74227d8429a5f5fe1887a365da71d723c6139326138f48b6109fd565b936138fe60405190565b91829182908152604060208201819052600f908201526e52454749535445525f534b494c4c5360881b606082015260800190565b0390a35f61371e565b50613946600f610fc5565b6139586001600160a01b0384166118e0565b1415613719565b5f8061399092613971611a2f336106c5565b9061397b60405190565b90818003925af161398a6118a3565b50612fe9565b5f613707565b90966001975f926139a5612f8a565b916139ae612968565b926139b98c85612954565b6139c6866020860161295e565b60408401526139d6426060850152565b6080830152600101906139e891612f36565b6139f388600661055f565b6139fc81610fd6565b613a0590611350565b613a0e916117c7565b8988613a1b3360096106ce565b90613a259161055f565b90613a2f916117c7565b8988613a3c33600a6106ce565b90613a469161055f565b90613a50916117c7565b613a5b33600b6106ce565b613a6481610fd6565b613a6d90611350565b613a76916117c7565b613a80600f6109fd565b613a89916117ab565b96613a953360086106ce565b6001613aa091612e29565b613aa98a6109fd565b8092613ab460405190565b613ac081928583612f69565b037f9b3f65d29aeb401bfee016fe6ee834d6f484bc7eddf7c981ec065d0ba8289ad391a2613aed336106c5565b90613af760405190565b613b02819282612282565b037fa533774fabd5497c00fa5520591482368009b97b38d28bb36bda9df7dc322e1391a35f806136db565b63af608abb60e01b5f908152611ada3484600461178c565b63234acd7160e11b5f908152600490fd5b613b66611a2f611a2f600e610fc5565b6020613b7160405190565b63857184d160e01b815233600482015291829060249082905afa5f9181613bcc575b50613b9e57506130e3565b613ba6612de0565b808210613bb45750506130e3565b63109ddee960e21b5f90815291611ada91600461178c565b613bef91925060203d602011613bf6575b613be781836112a6565b810190612dc1565b905f613b93565b503d613bdd565b63ac9fbab160e01b5f908152600490fd5b50818414156130bd565b50613c2360056109fd565b8a116130ae565b61309b6130956130905f6113ce565b630991dc9d60e11b5f908152600490fd5b610368969594939291905f612d70565b9061035291613c6b61169c8261166e565b9061035291614159565b9061035291613c5a565b613c955f5160206146f55f395f51905f526140df565b610352613cb7565b91602061035292949361103260408201965f830190611d7c565b613cc1600f610fc5565b613cd06118e06103a05f6117ef565b14611e0857613cde306106c5565b31613ce85f6109fd565b8114613d04575f80611e0292611df0611a2f611a2f600f610fc5565b63af608abb60e01b5f90815290611ada90826004613c9d565b610352613c7f565b6103529493929190613d435f5160206146f55f395f51905f526140df565b9192909260019384613d5560016113ce565b905b613d65575b50505050505050565b613d6f60076113ce565b60ff821611613de457613dde81612d508961221260046105c5613d928d98612cb1565b600c613da68e6122125f6105c5868661055f565b613db88b6122128c6105c5868661055f565b613dcb8c61221260026105c5868661055f565b6108608d61221260036105c5868661055f565b90613d57565b613d5c565b9061035294939291613d25565b9061035291613e036141f6565b90600491613e146103688285610a0a565b92613e1e84610fc5565b613e27336118e0565b03613f9a57613e3e6114ec846108603360096106ce565b829003613f7e575f613e4f5f6109fd565b60018601613e5e610368825490565b821015613f8c575f61145d83613e7393611311565b613e7f6114708761054c565b14613e8c57600101613e4f565b509293509091505f5b613f7e578190613ea5600e610fc5565b613eb46118e06103a05f6117ef565b03613f45575b5050613ec55f6109fd565b613ed881612212856108603360096106ce565b613eeb816122128561086033600a6106ce565b613efc6103686114ec33600b6106ce565b11613f32575b7fcb584b9c19a4cd48046a2f7367004a44e11beb9fab06c203cc0eafd56e4d9590611a1561235b611a05336106c5565b613f406123e333600b6106ce565b613f02565b5f918291613f63613f56600e610fc5565b91611bc66127c960405190565b82602083519301915af150613f766118a3565b50805f613eba565b630e76c5d160e21b5f908152fd5b5050613e9591929394501590565b632500456d60e01b5f908152fd5b9061035291613df6565b6113eb613fc191611646606090565b90613fcb5f6109fd565b805b613fd8610368855190565b81101561401b57613ff26103686115f961142584886112f7565b4210614006575b600101613fcd565b613fcd565b9061401361400191611350565b919050613ff9565b50614025906113ab565b9161402f5f6109fd565b92835b61403d610368845190565b811015614095576140576103686115f961142584876112f7565b421061406b575b600101614032565b614032565b9361408d614066916115d961408361142589886112f7565b6115a483876112f7565b94905061405e565b50925050565b6140ab610368600192612aa85f90565b0180546140ba61090a5f6109fd565b146140d55760036140ce5f61036893611311565b5001610fd6565b506103685f6109fd565b61035290339061441e565b6140f761255683836128e5565b6140ff575050565b6141136001613414845f6128ff8682611668565b614127612131614121339390565b936106c5565b917f2f8788117e7eff1d82e926ec794901d17c78024a50270940304540a733656f0d61415260405190565b80806126d3565b61416382826128e5565b61416b575050565b61417e5f61341484826128ff8682611668565b61418c612131614121339390565b917ff6391f5c32d9c69d2a47ea670b442974b53935d1edc7fd64eb21e047a839171b61415260405190565b156141be57565b60405162461bcd60e51b815260206004820152601060248201526f14185d5cd8589b194e881c185d5cd95960821b6044820152606490fd5b610352614204612556612096565b6141b7565b61036860026109fd565b1561421a57565b60405162461bcd60e51b815260206004820152601f60248201527f5265656e7472616e637947756172643a207265656e7472616e742063616c6c006044820152606490fd5b61035261426c6002610fd6565b614280614277614209565b91821415614213565b60026117c7565b610352614280612f8a565b61429a6144ee565b6103526142a85f6001612e29565b7f5db9ee0a495bf2e6ff9c91a7834c1ba4fdd244a5e8aa4e537bd38aeae4b073aa6142d23361078b565b0390a1565b610352614292565b5f610368916140ce5f90565b6142f36141f6565b610352614301600180612e29565b7f62e78cea01bee320cd4e420270b5ea74000d11b0c9f74754ebdbfc544b05a2586142d23361078b565b6103526142eb565b610368906109fd565b5f5b83811061434d5750505f910152565b818101518382015260200161433e565b6104026143759260209261436f815190565b94859290565b9384910161433c565b6143bc61036893926143b66143b6937f416363657373436f6e74726f6c3a206163636f756e7420000000000000000000815260170190565b9061435d565b7001034b99036b4b9b9b4b733903937b6329607d1b815260110190565b6143fa614403602093610402936143ee815190565b80835293849260200190565b9586910161433c565b601f01601f191690565b6020808252610368929101906143d9565b9061442c61255682846128e5565b614434575050565b61447e61036861171a9361446661445661445061448a9661451e565b92614333565b61446060206109fd565b906145dc565b9061447060405190565b93849260208401928361437e565b908103825203826112a6565b60405162461bcd60e51b81529182916004830161440d565b156144a957565b60405162461bcd60e51b815260206004820152601460248201527f5061757361626c653a206e6f74207061757365640000000000000000000000006044820152606490fd5b6103526144f9612096565b6144a2565b610368610368610368926001600160a01b031690565b61036860146113ce565b61453b61453661036892614530606090565b506106bc565b6144fe565b614460613090614514565b906103526113c161455684611896565b93611879565b90614565825190565b811015610b7e570160200190565b6103689061458761090a6103689460ff1690565b901c90565b1561459357565b60405162461bcd60e51b81528061171a600482016020808252818101527f537472696e67733a20686578206c656e67746820696e73756666696369656e74604082015260600190565b6146046145ff6145f5846145f060026109fd565b61180e565b6133e560026109fd565b614546565b9160306146196146135f6109fd565b8561455c565b53600f60fb1b61465261464960019384935f1a61463e614638866109fd565b8961455c565b536145f060026109fd565b6133e5836109fd565b915b614675575b5050906103686103689261466f61090a5f6109fd565b1461458c565b9091614680826109fd565b8311156146ee576f181899199a1a9b1b9c1cb0b131b232b360811b6146a5600f6109fd565b8216906010821015610b7e5783926146c56146e2926146e8941a60f81b90565b5f1a6146d1878961455c565b536146dc60046113ce565b90614573565b93612276565b91614654565b9161465956fea49807205ce4d355092ef5a8a18f56e8913cf4a201fbe287825b095693c21775a2646970667358221220a0246601a14afff61ac23ed497d02bd87ebf9776cdde29bf2f70d9a0f841f08464736f6c634300081c0033",
  "linkReferences": {},
  "deployedLinkReferences": {}
}