{
  "_format": "hh-sol-artifact-1",
  "contractName": "GameifiedMarketplace",
  "sourceName": "contracts/Marketplace/GameifiedMarketplace.sol",
  "abi": [
    {
      "inputs": [
        {
          "internalType": "address",
          "name": "_polTokenAddress",
          "type": "address"
        },
        {
          "internalType": "address",
          "name": "_stakingContractAddress",
          "type": "address"
        },
        {
          "internalType": "address",
          "name": "_stakingTreasuryAddress",
          "type": "address"
        }
      ],
      "stateMutability": "nonpayable",
      "type": "constructor"
    },
    {
      "inputs": [],
      "name": "InsufficientPOLForFee",
      "type": "error"
    },
    {
      "inputs": [],
      "name": "InsufficientPayment",
      "type": "error"
    },
    {
      "inputs": [],
      "name": "InsufficientStakingBalance",
      "type": "error"
    },
    {
      "inputs": [],
      "name": "InvalidSkillConfiguration",
      "type": "error"
    },
    {
      "inputs": [],
      "name": "InvalidSkillType",
      "type": "error"
    },
    {
      "inputs": [],
      "name": "MaxSkillsReached",
      "type": "error"
    },
    {
      "inputs": [],
      "name": "NoOffersAvailable",
      "type": "error"
    },
    {
      "inputs": [],
      "name": "NotTokenOwner",
      "type": "error"
    },
    {
      "inputs": [],
      "name": "SkillAlreadyActive",
      "type": "error"
    },
    {
      "inputs": [],
      "name": "SkillCooldownNotMet",
      "type": "error"
    },
    {
      "inputs": [],
      "name": "TokenNotFound",
      "type": "error"
    },
    {
      "inputs": [],
      "name": "TokenNotListed",
      "type": "error"
    },
    {
      "anonymous": false,
      "inputs": [
        {
          "indexed": true,
          "internalType": "address",
          "name": "user",
          "type": "address"
        },
        {
          "indexed": true,
          "internalType": "uint256",
          "name": "achievementId",
          "type": "uint256"
        }
      ],
      "name": "AchievementUnlocked",
      "type": "event"
    },
    {
      "anonymous": false,
      "inputs": [
        {
          "indexed": true,
          "internalType": "address",
          "name": "owner",
          "type": "address"
        },
        {
          "indexed": true,
          "internalType": "address",
          "name": "approved",
          "type": "address"
        },
        {
          "indexed": true,
          "internalType": "uint256",
          "name": "tokenId",
          "type": "uint256"
        }
      ],
      "name": "Approval",
      "type": "event"
    },
    {
      "anonymous": false,
      "inputs": [
        {
          "indexed": true,
          "internalType": "address",
          "name": "owner",
          "type": "address"
        },
        {
          "indexed": true,
          "internalType": "address",
          "name": "operator",
          "type": "address"
        },
        {
          "indexed": false,
          "internalType": "bool",
          "name": "approved",
          "type": "bool"
        }
      ],
      "name": "ApprovalForAll",
      "type": "event"
    },
    {
      "anonymous": false,
      "inputs": [
        {
          "indexed": false,
          "internalType": "uint256",
          "name": "_fromTokenId",
          "type": "uint256"
        },
        {
          "indexed": false,
          "internalType": "uint256",
          "name": "_toTokenId",
          "type": "uint256"
        }
      ],
      "name": "BatchMetadataUpdate",
      "type": "event"
    },
    {
      "anonymous": false,
      "inputs": [
        {
          "indexed": true,
          "internalType": "address",
          "name": "user",
          "type": "address"
        },
        {
          "indexed": true,
          "internalType": "uint256",
          "name": "tokenId",
          "type": "uint256"
        },
        {
          "indexed": false,
          "internalType": "string",
          "name": "comment",
          "type": "string"
        }
      ],
      "name": "CommentAdded",
      "type": "event"
    },
    {
      "anonymous": false,
      "inputs": [
        {
          "indexed": true,
          "internalType": "address",
          "name": "user",
          "type": "address"
        },
        {
          "indexed": false,
          "internalType": "uint8",
          "name": "newLevel",
          "type": "uint8"
        }
      ],
      "name": "LevelUp",
      "type": "event"
    },
    {
      "anonymous": false,
      "inputs": [
        {
          "indexed": true,
          "internalType": "address",
          "name": "user",
          "type": "address"
        },
        {
          "indexed": true,
          "internalType": "uint256",
          "name": "tokenId",
          "type": "uint256"
        },
        {
          "indexed": false,
          "internalType": "bool",
          "name": "liked",
          "type": "bool"
        }
      ],
      "name": "LikeToggled",
      "type": "event"
    },
    {
      "anonymous": false,
      "inputs": [
        {
          "indexed": false,
          "internalType": "uint256",
          "name": "_tokenId",
          "type": "uint256"
        }
      ],
      "name": "MetadataUpdate",
      "type": "event"
    },
    {
      "anonymous": false,
      "inputs": [
        {
          "indexed": true,
          "internalType": "address",
          "name": "user",
          "type": "address"
        },
        {
          "indexed": false,
          "internalType": "uint256",
          "name": "userBalance",
          "type": "uint256"
        },
        {
          "indexed": false,
          "internalType": "uint256",
          "name": "requiredBalance",
          "type": "uint256"
        }
      ],
      "name": "MinimumStakingRequirementNotMet",
      "type": "event"
    },
    {
      "anonymous": false,
      "inputs": [
        {
          "indexed": true,
          "internalType": "address",
          "name": "seller",
          "type": "address"
        },
        {
          "indexed": true,
          "internalType": "address",
          "name": "buyer",
          "type": "address"
        },
        {
          "indexed": true,
          "internalType": "uint256",
          "name": "tokenId",
          "type": "uint256"
        },
        {
          "indexed": false,
          "internalType": "uint256",
          "name": "amount",
          "type": "uint256"
        }
      ],
      "name": "OfferAccepted",
      "type": "event"
    },
    {
      "anonymous": false,
      "inputs": [
        {
          "indexed": true,
          "internalType": "address",
          "name": "offeror",
          "type": "address"
        },
        {
          "indexed": true,
          "internalType": "uint256",
          "name": "tokenId",
          "type": "uint256"
        },
        {
          "indexed": false,
          "internalType": "uint256",
          "name": "amount",
          "type": "uint256"
        }
      ],
      "name": "OfferMade",
      "type": "event"
    },
    {
      "anonymous": false,
      "inputs": [
        {
          "indexed": false,
          "internalType": "address",
          "name": "account",
          "type": "address"
        }
      ],
      "name": "Paused",
      "type": "event"
    },
    {
      "anonymous": false,
      "inputs": [
        {
          "indexed": true,
          "internalType": "address",
          "name": "seller",
          "type": "address"
        },
        {
          "indexed": true,
          "internalType": "uint256",
          "name": "tokenId",
          "type": "uint256"
        },
        {
          "indexed": false,
          "internalType": "uint256",
          "name": "newPrice",
          "type": "uint256"
        }
      ],
      "name": "PriceUpdated",
      "type": "event"
    },
    {
      "anonymous": false,
      "inputs": [
        {
          "indexed": true,
          "internalType": "address",
          "name": "user",
          "type": "address"
        },
        {
          "indexed": true,
          "internalType": "uint256",
          "name": "questId",
          "type": "uint256"
        }
      ],
      "name": "QuestCompleted",
      "type": "event"
    },
    {
      "anonymous": false,
      "inputs": [
        {
          "indexed": true,
          "internalType": "address",
          "name": "referrer",
          "type": "address"
        },
        {
          "indexed": true,
          "internalType": "address",
          "name": "referred",
          "type": "address"
        }
      ],
      "name": "ReferralRegistered",
      "type": "event"
    },
    {
      "anonymous": false,
      "inputs": [
        {
          "indexed": true,
          "internalType": "address",
          "name": "user",
          "type": "address"
        },
        {
          "indexed": false,
          "internalType": "uint256",
          "name": "rewardsAmount",
          "type": "uint256"
        },
        {
          "indexed": false,
          "internalType": "uint256",
          "name": "commissionAmount",
          "type": "uint256"
        }
      ],
      "name": "RewardsCommissionCharged",
      "type": "event"
    },
    {
      "anonymous": false,
      "inputs": [
        {
          "indexed": true,
          "internalType": "bytes32",
          "name": "role",
          "type": "bytes32"
        },
        {
          "indexed": true,
          "internalType": "bytes32",
          "name": "previousAdminRole",
          "type": "bytes32"
        },
        {
          "indexed": true,
          "internalType": "bytes32",
          "name": "newAdminRole",
          "type": "bytes32"
        }
      ],
      "name": "RoleAdminChanged",
      "type": "event"
    },
    {
      "anonymous": false,
      "inputs": [
        {
          "indexed": true,
          "internalType": "bytes32",
          "name": "role",
          "type": "bytes32"
        },
        {
          "indexed": true,
          "internalType": "address",
          "name": "account",
          "type": "address"
        },
        {
          "indexed": true,
          "internalType": "address",
          "name": "sender",
          "type": "address"
        }
      ],
      "name": "RoleGranted",
      "type": "event"
    },
    {
      "anonymous": false,
      "inputs": [
        {
          "indexed": true,
          "internalType": "bytes32",
          "name": "role",
          "type": "bytes32"
        },
        {
          "indexed": true,
          "internalType": "address",
          "name": "account",
          "type": "address"
        },
        {
          "indexed": true,
          "internalType": "address",
          "name": "sender",
          "type": "address"
        }
      ],
      "name": "RoleRevoked",
      "type": "event"
    },
    {
      "anonymous": false,
      "inputs": [
        {
          "indexed": true,
          "internalType": "address",
          "name": "user",
          "type": "address"
        },
        {
          "indexed": true,
          "internalType": "uint256",
          "name": "tokenId",
          "type": "uint256"
        }
      ],
      "name": "SkillActivated",
      "type": "event"
    },
    {
      "anonymous": false,
      "inputs": [
        {
          "indexed": true,
          "internalType": "address",
          "name": "user",
          "type": "address"
        },
        {
          "indexed": true,
          "internalType": "uint256",
          "name": "tokenId",
          "type": "uint256"
        },
        {
          "indexed": false,
          "internalType": "uint256",
          "name": "feeAmount",
          "type": "uint256"
        }
      ],
      "name": "SkillActivationCooldownFeeCharged",
      "type": "event"
    },
    {
      "anonymous": false,
      "inputs": [
        {
          "indexed": true,
          "internalType": "address",
          "name": "user",
          "type": "address"
        },
        {
          "indexed": true,
          "internalType": "uint256",
          "name": "tokenId",
          "type": "uint256"
        },
        {
          "indexed": false,
          "internalType": "enum IStakingIntegration.SkillType",
          "name": "skillType",
          "type": "uint8"
        },
        {
          "indexed": false,
          "internalType": "uint256",
          "name": "fee",
          "type": "uint256"
        }
      ],
      "name": "SkillAdded",
      "type": "event"
    },
    {
      "anonymous": false,
      "inputs": [
        {
          "indexed": true,
          "internalType": "address",
          "name": "user",
          "type": "address"
        },
        {
          "indexed": true,
          "internalType": "uint256",
          "name": "tokenId",
          "type": "uint256"
        }
      ],
      "name": "SkillDeactivated",
      "type": "event"
    },
    {
      "anonymous": false,
      "inputs": [
        {
          "indexed": true,
          "internalType": "address",
          "name": "user",
          "type": "address"
        },
        {
          "indexed": true,
          "internalType": "uint256",
          "name": "tokenId",
          "type": "uint256"
        },
        {
          "indexed": false,
          "internalType": "uint256",
          "name": "feeAmount",
          "type": "uint256"
        },
        {
          "indexed": false,
          "internalType": "string",
          "name": "reason",
          "type": "string"
        }
      ],
      "name": "SkillFeeCharged",
      "type": "event"
    },
    {
      "anonymous": false,
      "inputs": [
        {
          "indexed": true,
          "internalType": "uint256",
          "name": "tokenId",
          "type": "uint256"
        },
        {
          "indexed": true,
          "internalType": "address",
          "name": "creator",
          "type": "address"
        },
        {
          "indexed": false,
          "internalType": "enum IStakingIntegration.SkillType",
          "name": "skillType",
          "type": "uint8"
        }
      ],
      "name": "SkillNFTCreated",
      "type": "event"
    },
    {
      "anonymous": false,
      "inputs": [
        {
          "indexed": true,
          "internalType": "address",
          "name": "creator",
          "type": "address"
        },
        {
          "indexed": true,
          "internalType": "uint256",
          "name": "tokenId",
          "type": "uint256"
        },
        {
          "indexed": false,
          "internalType": "string",
          "name": "uri",
          "type": "string"
        }
      ],
      "name": "TokenCreated",
      "type": "event"
    },
    {
      "anonymous": false,
      "inputs": [
        {
          "indexed": true,
          "internalType": "address",
          "name": "seller",
          "type": "address"
        },
        {
          "indexed": true,
          "internalType": "uint256",
          "name": "tokenId",
          "type": "uint256"
        },
        {
          "indexed": false,
          "internalType": "uint256",
          "name": "price",
          "type": "uint256"
        }
      ],
      "name": "TokenListed",
      "type": "event"
    },
    {
      "anonymous": false,
      "inputs": [
        {
          "indexed": true,
          "internalType": "address",
          "name": "seller",
          "type": "address"
        },
        {
          "indexed": true,
          "internalType": "address",
          "name": "buyer",
          "type": "address"
        },
        {
          "indexed": true,
          "internalType": "uint256",
          "name": "tokenId",
          "type": "uint256"
        },
        {
          "indexed": false,
          "internalType": "uint256",
          "name": "price",
          "type": "uint256"
        }
      ],
      "name": "TokenSold",
      "type": "event"
    },
    {
      "anonymous": false,
      "inputs": [
        {
          "indexed": true,
          "internalType": "address",
          "name": "seller",
          "type": "address"
        },
        {
          "indexed": true,
          "internalType": "uint256",
          "name": "tokenId",
          "type": "uint256"
        }
      ],
      "name": "TokenUnlisted",
      "type": "event"
    },
    {
      "anonymous": false,
      "inputs": [
        {
          "indexed": true,
          "internalType": "address",
          "name": "from",
          "type": "address"
        },
        {
          "indexed": true,
          "internalType": "address",
          "name": "to",
          "type": "address"
        },
        {
          "indexed": true,
          "internalType": "uint256",
          "name": "tokenId",
          "type": "uint256"
        }
      ],
      "name": "Transfer",
      "type": "event"
    },
    {
      "anonymous": false,
      "inputs": [
        {
          "indexed": false,
          "internalType": "address",
          "name": "account",
          "type": "address"
        }
      ],
      "name": "Unpaused",
      "type": "event"
    },
    {
      "anonymous": false,
      "inputs": [
        {
          "indexed": true,
          "internalType": "address",
          "name": "user",
          "type": "address"
        },
        {
          "indexed": false,
          "internalType": "uint256",
          "name": "amount",
          "type": "uint256"
        },
        {
          "indexed": false,
          "internalType": "string",
          "name": "reason",
          "type": "string"
        }
      ],
      "name": "XPGained",
      "type": "event"
    },
    {
      "inputs": [],
      "name": "ADDITIONAL_SKILL_MAX_FEE",
      "outputs": [
        {
          "internalType": "uint256",
          "name": "",
          "type": "uint256"
        }
      ],
      "stateMutability": "view",
      "type": "function"
    },
    {
      "inputs": [],
      "name": "ADDITIONAL_SKILL_MIN_FEE",
      "outputs": [
        {
          "internalType": "uint256",
          "name": "",
          "type": "uint256"
        }
      ],
      "stateMutability": "view",
      "type": "function"
    },
    {
      "inputs": [],
      "name": "ADMIN_ROLE",
      "outputs": [
        {
          "internalType": "bytes32",
          "name": "",
          "type": "bytes32"
        }
      ],
      "stateMutability": "view",
      "type": "function"
    },
    {
      "inputs": [],
      "name": "DEFAULT_ADMIN_ROLE",
      "outputs": [
        {
          "internalType": "bytes32",
          "name": "",
          "type": "bytes32"
        }
      ],
      "stateMutability": "view",
      "type": "function"
    },
    {
      "inputs": [],
      "name": "FIRST_SKILL_FREE",
      "outputs": [
        {
          "internalType": "uint256",
          "name": "",
          "type": "uint256"
        }
      ],
      "stateMutability": "view",
      "type": "function"
    },
    {
      "inputs": [],
      "name": "MAX_SKILLS_LEVEL_1",
      "outputs": [
        {
          "internalType": "uint8",
          "name": "",
          "type": "uint8"
        }
      ],
      "stateMutability": "view",
      "type": "function"
    },
    {
      "inputs": [],
      "name": "MAX_SKILLS_LEVEL_2",
      "outputs": [
        {
          "internalType": "uint8",
          "name": "",
          "type": "uint8"
        }
      ],
      "stateMutability": "view",
      "type": "function"
    },
    {
      "inputs": [],
      "name": "MAX_SKILLS_LEVEL_3",
      "outputs": [
        {
          "internalType": "uint8",
          "name": "",
          "type": "uint8"
        }
      ],
      "stateMutability": "view",
      "type": "function"
    },
    {
      "inputs": [],
      "name": "MAX_SKILLS_LEVEL_4",
      "outputs": [
        {
          "internalType": "uint8",
          "name": "",
          "type": "uint8"
        }
      ],
      "stateMutability": "view",
      "type": "function"
    },
    {
      "inputs": [],
      "name": "MAX_SKILLS_LEVEL_5",
      "outputs": [
        {
          "internalType": "uint8",
          "name": "",
          "type": "uint8"
        }
      ],
      "stateMutability": "view",
      "type": "function"
    },
    {
      "inputs": [],
      "name": "MIN_POL_FOR_SKILL_NFT",
      "outputs": [
        {
          "internalType": "uint256",
          "name": "",
          "type": "uint256"
        }
      ],
      "stateMutability": "view",
      "type": "function"
    },
    {
      "inputs": [],
      "name": "MODERATOR_ROLE",
      "outputs": [
        {
          "internalType": "bytes32",
          "name": "",
          "type": "bytes32"
        }
      ],
      "stateMutability": "view",
      "type": "function"
    },
    {
      "inputs": [],
      "name": "PLATFORM_FEE_PERCENTAGE",
      "outputs": [
        {
          "internalType": "uint256",
          "name": "",
          "type": "uint256"
        }
      ],
      "stateMutability": "view",
      "type": "function"
    },
    {
      "inputs": [],
      "name": "SKILL_CHANGE_COOLDOWN",
      "outputs": [
        {
          "internalType": "uint256",
          "name": "",
          "type": "uint256"
        }
      ],
      "stateMutability": "view",
      "type": "function"
    },
    {
      "inputs": [],
      "name": "SKILL_CHANGE_FEE",
      "outputs": [
        {
          "internalType": "uint256",
          "name": "",
          "type": "uint256"
        }
      ],
      "stateMutability": "view",
      "type": "function"
    },
    {
      "inputs": [],
      "name": "STAKING_REWARD_COMMISSION_PERCENTAGE",
      "outputs": [
        {
          "internalType": "uint256",
          "name": "",
          "type": "uint256"
        }
      ],
      "stateMutability": "view",
      "type": "function"
    },
    {
      "inputs": [],
      "name": "XP_BUY_NFT",
      "outputs": [
        {
          "internalType": "uint256",
          "name": "",
          "type": "uint256"
        }
      ],
      "stateMutability": "view",
      "type": "function"
    },
    {
      "inputs": [],
      "name": "XP_COMMENT",
      "outputs": [
        {
          "internalType": "uint256",
          "name": "",
          "type": "uint256"
        }
      ],
      "stateMutability": "view",
      "type": "function"
    },
    {
      "inputs": [],
      "name": "XP_CREATE_NFT",
      "outputs": [
        {
          "internalType": "uint256",
          "name": "",
          "type": "uint256"
        }
      ],
      "stateMutability": "view",
      "type": "function"
    },
    {
      "inputs": [],
      "name": "XP_LIKE",
      "outputs": [
        {
          "internalType": "uint256",
          "name": "",
          "type": "uint256"
        }
      ],
      "stateMutability": "view",
      "type": "function"
    },
    {
      "inputs": [],
      "name": "XP_REFERRAL",
      "outputs": [
        {
          "internalType": "uint256",
          "name": "",
          "type": "uint256"
        }
      ],
      "stateMutability": "view",
      "type": "function"
    },
    {
      "inputs": [],
      "name": "XP_SELL_NFT",
      "outputs": [
        {
          "internalType": "uint256",
          "name": "",
          "type": "uint256"
        }
      ],
      "stateMutability": "view",
      "type": "function"
    },
    {
      "inputs": [
        {
          "internalType": "uint256",
          "name": "_tokenId",
          "type": "uint256"
        },
        {
          "internalType": "uint256",
          "name": "_offerIndex",
          "type": "uint256"
        }
      ],
      "name": "acceptOffer",
      "outputs": [],
      "stateMutability": "nonpayable",
      "type": "function"
    },
    {
      "inputs": [
        {
          "internalType": "uint256",
          "name": "",
          "type": "uint256"
        }
      ],
      "name": "achievements",
      "outputs": [
        {
          "internalType": "uint256",
          "name": "id",
          "type": "uint256"
        },
        {
          "internalType": "string",
          "name": "name",
          "type": "string"
        },
        {
          "internalType": "string",
          "name": "description",
          "type": "string"
        },
        {
          "internalType": "uint256",
          "name": "xpReward",
          "type": "uint256"
        },
        {
          "internalType": "bool",
          "name": "isActive",
          "type": "bool"
        }
      ],
      "stateMutability": "view",
      "type": "function"
    },
    {
      "inputs": [
        {
          "internalType": "uint256",
          "name": "_tokenId",
          "type": "uint256"
        }
      ],
      "name": "activateSkill",
      "outputs": [],
      "stateMutability": "nonpayable",
      "type": "function"
    },
    {
      "inputs": [
        {
          "internalType": "uint256",
          "name": "_tokenId",
          "type": "uint256"
        },
        {
          "internalType": "string",
          "name": "_text",
          "type": "string"
        }
      ],
      "name": "addComment",
      "outputs": [],
      "stateMutability": "nonpayable",
      "type": "function"
    },
    {
      "inputs": [
        {
          "internalType": "address",
          "name": "to",
          "type": "address"
        },
        {
          "internalType": "uint256",
          "name": "tokenId",
          "type": "uint256"
        }
      ],
      "name": "approve",
      "outputs": [],
      "stateMutability": "nonpayable",
      "type": "function"
    },
    {
      "inputs": [
        {
          "internalType": "address",
          "name": "owner",
          "type": "address"
        }
      ],
      "name": "balanceOf",
      "outputs": [
        {
          "internalType": "uint256",
          "name": "",
          "type": "uint256"
        }
      ],
      "stateMutability": "view",
      "type": "function"
    },
    {
      "inputs": [
        {
          "internalType": "uint256",
          "name": "_tokenId",
          "type": "uint256"
        }
      ],
      "name": "buyToken",
      "outputs": [],
      "stateMutability": "payable",
      "type": "function"
    },
    {
      "inputs": [
        {
          "internalType": "uint256",
          "name": "_tokenId",
          "type": "uint256"
        }
      ],
      "name": "buyTokenEnhanced",
      "outputs": [],
      "stateMutability": "payable",
      "type": "function"
    },
    {
      "inputs": [
        {
          "internalType": "address",
          "name": "_user",
          "type": "address"
        }
      ],
      "name": "canUserCreateSkillNFT",
      "outputs": [
        {
          "internalType": "bool",
          "name": "",
          "type": "bool"
        }
      ],
      "stateMutability": "view",
      "type": "function"
    },
    {
      "inputs": [
        {
          "internalType": "uint256",
          "name": "_tokenId",
          "type": "uint256"
        },
        {
          "internalType": "uint256",
          "name": "_offerIndex",
          "type": "uint256"
        }
      ],
      "name": "cancelOffer",
      "outputs": [],
      "stateMutability": "nonpayable",
      "type": "function"
    },
    {
      "inputs": [
        {
          "internalType": "uint256",
          "name": "_questId",
          "type": "uint256"
        }
      ],
      "name": "checkQuestCompletion",
      "outputs": [],
      "stateMutability": "nonpayable",
      "type": "function"
    },
    {
      "inputs": [
        {
          "internalType": "string",
          "name": "_tokenURI",
          "type": "string"
        },
        {
          "internalType": "string",
          "name": "category",
          "type": "string"
        },
        {
          "internalType": "uint96",
          "name": "royaltyPercentage",
          "type": "uint96"
        },
        {
          "internalType": "enum IStakingIntegration.SkillType[]",
          "name": "_skills",
          "type": "uint8[]"
        },
        {
          "internalType": "uint16[]",
          "name": "_effectValues",
          "type": "uint16[]"
        },
        {
          "internalType": "enum IStakingIntegration.Rarity[]",
          "name": "_rarities",
          "type": "uint8[]"
        }
      ],
      "name": "createSkillNFT",
      "outputs": [
        {
          "internalType": "uint256",
          "name": "",
          "type": "uint256"
        }
      ],
      "stateMutability": "nonpayable",
      "type": "function"
    },
    {
      "inputs": [
        {
          "internalType": "uint256",
          "name": "_tokenId",
          "type": "uint256"
        }
      ],
      "name": "deactivateSkill",
      "outputs": [],
      "stateMutability": "nonpayable",
      "type": "function"
    },
    {
      "inputs": [
        {
          "internalType": "uint256",
          "name": "tokenId",
          "type": "uint256"
        }
      ],
      "name": "getApproved",
      "outputs": [
        {
          "internalType": "address",
          "name": "",
          "type": "address"
        }
      ],
      "stateMutability": "view",
      "type": "function"
    },
    {
      "inputs": [
        {
          "internalType": "address",
          "name": "_user",
          "type": "address"
        }
      ],
      "name": "getMaxActiveSkillsForUser",
      "outputs": [
        {
          "internalType": "uint8",
          "name": "",
          "type": "uint8"
        }
      ],
      "stateMutability": "view",
      "type": "function"
    },
    {
      "inputs": [
        {
          "internalType": "uint256",
          "name": "_tokenId",
          "type": "uint256"
        }
      ],
      "name": "getNFTComments",
      "outputs": [
        {
          "internalType": "string[]",
          "name": "",
          "type": "string[]"
        }
      ],
      "stateMutability": "view",
      "type": "function"
    },
    {
      "inputs": [
        {
          "internalType": "uint256",
          "name": "_tokenId",
          "type": "uint256"
        }
      ],
      "name": "getNFTMetadata",
      "outputs": [
        {
          "components": [
            {
              "internalType": "string",
              "name": "category",
              "type": "string"
            },
            {
              "internalType": "uint256",
              "name": "creationTimestamp",
              "type": "uint256"
            },
            {
              "internalType": "address",
              "name": "creator",
              "type": "address"
            },
            {
              "internalType": "bool",
              "name": "isListed",
              "type": "bool"
            },
            {
              "internalType": "uint256",
              "name": "listedPrice",
              "type": "uint256"
            }
          ],
          "internalType": "struct GameifiedMarketplace.NFTMetadata",
          "name": "",
          "type": "tuple"
        }
      ],
      "stateMutability": "view",
      "type": "function"
    },
    {
      "inputs": [
        {
          "internalType": "uint256",
          "name": "_tokenId",
          "type": "uint256"
        }
      ],
      "name": "getNFTOffers",
      "outputs": [
        {
          "components": [
            {
              "internalType": "uint256",
              "name": "nftId",
              "type": "uint256"
            },
            {
              "internalType": "address",
              "name": "offeror",
              "type": "address"
            },
            {
              "internalType": "uint256",
              "name": "offerAmount",
              "type": "uint256"
            },
            {
              "internalType": "uint64",
              "name": "expiresAt",
              "type": "uint64"
            },
            {
              "internalType": "bool",
              "name": "isActive",
              "type": "bool"
            }
          ],
          "internalType": "struct GameifiedMarketplace.Offer[]",
          "name": "",
          "type": "tuple[]"
        }
      ],
      "stateMutability": "view",
      "type": "function"
    },
    {
      "inputs": [
        {
          "internalType": "bytes32",
          "name": "role",
          "type": "bytes32"
        }
      ],
      "name": "getRoleAdmin",
      "outputs": [
        {
          "internalType": "bytes32",
          "name": "",
          "type": "bytes32"
        }
      ],
      "stateMutability": "view",
      "type": "function"
    },
    {
      "inputs": [
        {
          "internalType": "uint256",
          "name": "_tokenId",
          "type": "uint256"
        }
      ],
      "name": "getSkillDetails",
      "outputs": [
        {
          "components": [
            {
              "internalType": "uint256",
              "name": "tokenId",
              "type": "uint256"
            },
            {
              "internalType": "enum IStakingIntegration.SkillType",
              "name": "skillType",
              "type": "uint8"
            },
            {
              "internalType": "uint16",
              "name": "effectValue",
              "type": "uint16"
            },
            {
              "internalType": "enum IStakingIntegration.Rarity",
              "name": "rarity",
              "type": "uint8"
            },
            {
              "internalType": "uint8",
              "name": "stars",
              "type": "uint8"
            },
            {
              "internalType": "uint64",
              "name": "mintedAt",
              "type": "uint64"
            },
            {
              "internalType": "uint64",
              "name": "lastActivationTime",
              "type": "uint64"
            },
            {
              "internalType": "bool",
              "name": "isSkillActive",
              "type": "bool"
            }
          ],
          "internalType": "struct GameifiedMarketplace.SkillNFT",
          "name": "",
          "type": "tuple"
        }
      ],
      "stateMutability": "view",
      "type": "function"
    },
    {
      "inputs": [
        {
          "internalType": "enum IStakingIntegration.Rarity",
          "name": "_rarity",
          "type": "uint8"
        }
      ],
      "name": "getSkillFeeForRarity",
      "outputs": [
        {
          "internalType": "uint256",
          "name": "",
          "type": "uint256"
        }
      ],
      "stateMutability": "pure",
      "type": "function"
    },
    {
      "inputs": [
        {
          "internalType": "address",
          "name": "_user",
          "type": "address"
        }
      ],
      "name": "getUserActiveSkills",
      "outputs": [
        {
          "components": [
            {
              "internalType": "uint256",
              "name": "tokenId",
              "type": "uint256"
            },
            {
              "internalType": "enum IStakingIntegration.SkillType",
              "name": "skillType",
              "type": "uint8"
            },
            {
              "internalType": "uint16",
              "name": "effectValue",
              "type": "uint16"
            },
            {
              "internalType": "enum IStakingIntegration.Rarity",
              "name": "rarity",
              "type": "uint8"
            },
            {
              "internalType": "uint8",
              "name": "stars",
              "type": "uint8"
            },
            {
              "internalType": "uint64",
              "name": "mintedAt",
              "type": "uint64"
            },
            {
              "internalType": "uint64",
              "name": "lastActivationTime",
              "type": "uint64"
            },
            {
              "internalType": "bool",
              "name": "isSkillActive",
              "type": "bool"
            }
          ],
          "internalType": "struct GameifiedMarketplace.SkillNFT[]",
          "name": "",
          "type": "tuple[]"
        }
      ],
      "stateMutability": "view",
      "type": "function"
    },
    {
      "inputs": [
        {
          "internalType": "address",
          "name": "_user",
          "type": "address"
        }
      ],
      "name": "getUserCompleteInfo",
      "outputs": [
        {
          "components": [
            {
              "internalType": "uint256",
              "name": "totalXP",
              "type": "uint256"
            },
            {
              "internalType": "uint8",
              "name": "level",
              "type": "uint8"
            },
            {
              "internalType": "uint8",
              "name": "maxActiveSkills",
              "type": "uint8"
            },
            {
              "internalType": "uint8",
              "name": "skillsLevel",
              "type": "uint8"
            },
            {
              "internalType": "uint32",
              "name": "nftsCreated",
              "type": "uint32"
            },
            {
              "internalType": "uint32",
              "name": "nftsSold",
              "type": "uint32"
            },
            {
              "internalType": "uint32",
              "name": "nftsBought",
              "type": "uint32"
            },
            {
              "internalType": "uint64",
              "name": "lastActivityTimestamp",
              "type": "uint64"
            }
          ],
          "internalType": "struct GameifiedMarketplace.UserProfile",
          "name": "profile",
          "type": "tuple"
        },
        {
          "internalType": "uint256",
          "name": "activeSkillsCount",
          "type": "uint256"
        },
        {
          "internalType": "uint8",
          "name": "skillsLevel",
          "type": "uint8"
        },
        {
          "internalType": "uint8",
          "name": "maxSkills",
          "type": "uint8"
        }
      ],
      "stateMutability": "view",
      "type": "function"
    },
    {
      "inputs": [
        {
          "internalType": "address",
          "name": "_user",
          "type": "address"
        }
      ],
      "name": "getUserProfile",
      "outputs": [
        {
          "components": [
            {
              "internalType": "uint256",
              "name": "totalXP",
              "type": "uint256"
            },
            {
              "internalType": "uint8",
              "name": "level",
              "type": "uint8"
            },
            {
              "internalType": "uint8",
              "name": "maxActiveSkills",
              "type": "uint8"
            },
            {
              "internalType": "uint8",
              "name": "skillsLevel",
              "type": "uint8"
            },
            {
              "internalType": "uint32",
              "name": "nftsCreated",
              "type": "uint32"
            },
            {
              "internalType": "uint32",
              "name": "nftsSold",
              "type": "uint32"
            },
            {
              "internalType": "uint32",
              "name": "nftsBought",
              "type": "uint32"
            },
            {
              "internalType": "uint64",
              "name": "lastActivityTimestamp",
              "type": "uint64"
            }
          ],
          "internalType": "struct GameifiedMarketplace.UserProfile",
          "name": "",
          "type": "tuple"
        }
      ],
      "stateMutability": "view",
      "type": "function"
    },
    {
      "inputs": [
        {
          "internalType": "address",
          "name": "_user",
          "type": "address"
        }
      ],
      "name": "getUserSkillsLevel",
      "outputs": [
        {
          "internalType": "uint8",
          "name": "",
          "type": "uint8"
        }
      ],
      "stateMutability": "view",
      "type": "function"
    },
    {
      "inputs": [
        {
          "internalType": "address",
          "name": "_user",
          "type": "address"
        }
      ],
      "name": "getUserStakingBalance",
      "outputs": [
        {
          "internalType": "uint256",
          "name": "",
          "type": "uint256"
        }
      ],
      "stateMutability": "view",
      "type": "function"
    },
    {
      "inputs": [
        {
          "internalType": "bytes32",
          "name": "role",
          "type": "bytes32"
        },
        {
          "internalType": "address",
          "name": "account",
          "type": "address"
        }
      ],
      "name": "grantRole",
      "outputs": [],
      "stateMutability": "nonpayable",
      "type": "function"
    },
    {
      "inputs": [
        {
          "internalType": "bytes32",
          "name": "role",
          "type": "bytes32"
        },
        {
          "internalType": "address",
          "name": "account",
          "type": "address"
        }
      ],
      "name": "hasRole",
      "outputs": [
        {
          "internalType": "bool",
          "name": "",
          "type": "bool"
        }
      ],
      "stateMutability": "view",
      "type": "function"
    },
    {
      "inputs": [
        {
          "internalType": "address",
          "name": "owner",
          "type": "address"
        },
        {
          "internalType": "address",
          "name": "operator",
          "type": "address"
        }
      ],
      "name": "isApprovedForAll",
      "outputs": [
        {
          "internalType": "bool",
          "name": "",
          "type": "bool"
        }
      ],
      "stateMutability": "view",
      "type": "function"
    },
    {
      "inputs": [
        {
          "internalType": "uint256",
          "name": "",
          "type": "uint256"
        }
      ],
      "name": "lastSkillActivationTime",
      "outputs": [
        {
          "internalType": "uint256",
          "name": "",
          "type": "uint256"
        }
      ],
      "stateMutability": "view",
      "type": "function"
    },
    {
      "inputs": [
        {
          "internalType": "uint256",
          "name": "_tokenId",
          "type": "uint256"
        },
        {
          "internalType": "uint256",
          "name": "_price",
          "type": "uint256"
        },
        {
          "internalType": "string",
          "name": "category",
          "type": "string"
        }
      ],
      "name": "listTokenForSale",
      "outputs": [],
      "stateMutability": "nonpayable",
      "type": "function"
    },
    {
      "inputs": [
        {
          "internalType": "uint256",
          "name": "_tokenId",
          "type": "uint256"
        },
        {
          "internalType": "uint8",
          "name": "_expiresInDays",
          "type": "uint8"
        }
      ],
      "name": "makeOffer",
      "outputs": [],
      "stateMutability": "payable",
      "type": "function"
    },
    {
      "inputs": [],
      "name": "name",
      "outputs": [
        {
          "internalType": "string",
          "name": "",
          "type": "string"
        }
      ],
      "stateMutability": "view",
      "type": "function"
    },
    {
      "inputs": [
        {
          "internalType": "uint256",
          "name": "",
          "type": "uint256"
        },
        {
          "internalType": "uint256",
          "name": "",
          "type": "uint256"
        }
      ],
      "name": "nftComments",
      "outputs": [
        {
          "internalType": "string",
          "name": "",
          "type": "string"
        }
      ],
      "stateMutability": "view",
      "type": "function"
    },
    {
      "inputs": [
        {
          "internalType": "uint256",
          "name": "",
          "type": "uint256"
        }
      ],
      "name": "nftLikeCount",
      "outputs": [
        {
          "internalType": "uint256",
          "name": "",
          "type": "uint256"
        }
      ],
      "stateMutability": "view",
      "type": "function"
    },
    {
      "inputs": [
        {
          "internalType": "uint256",
          "name": "",
          "type": "uint256"
        },
        {
          "internalType": "address",
          "name": "",
          "type": "address"
        }
      ],
      "name": "nftLikes",
      "outputs": [
        {
          "internalType": "bool",
          "name": "",
          "type": "bool"
        }
      ],
      "stateMutability": "view",
      "type": "function"
    },
    {
      "inputs": [
        {
          "internalType": "uint256",
          "name": "",
          "type": "uint256"
        }
      ],
      "name": "nftMetadata",
      "outputs": [
        {
          "internalType": "string",
          "name": "category",
          "type": "string"
        },
        {
          "internalType": "uint256",
          "name": "creationTimestamp",
          "type": "uint256"
        },
        {
          "internalType": "address",
          "name": "creator",
          "type": "address"
        },
        {
          "internalType": "bool",
          "name": "isListed",
          "type": "bool"
        },
        {
          "internalType": "uint256",
          "name": "listedPrice",
          "type": "uint256"
        }
      ],
      "stateMutability": "view",
      "type": "function"
    },
    {
      "inputs": [
        {
          "internalType": "uint256",
          "name": "",
          "type": "uint256"
        },
        {
          "internalType": "uint256",
          "name": "",
          "type": "uint256"
        }
      ],
      "name": "nftOffers",
      "outputs": [
        {
          "internalType": "uint256",
          "name": "nftId",
          "type": "uint256"
        },
        {
          "internalType": "address",
          "name": "offeror",
          "type": "address"
        },
        {
          "internalType": "uint256",
          "name": "offerAmount",
          "type": "uint256"
        },
        {
          "internalType": "uint64",
          "name": "expiresAt",
          "type": "uint64"
        },
        {
          "internalType": "bool",
          "name": "isActive",
          "type": "bool"
        }
      ],
      "stateMutability": "view",
      "type": "function"
    },
    {
      "inputs": [
        {
          "internalType": "address",
          "name": "_user",
          "type": "address"
        },
        {
          "internalType": "uint256",
          "name": "_rewardAmount",
          "type": "uint256"
        }
      ],
      "name": "notifyRewardsClaimed",
      "outputs": [
        {
          "internalType": "uint256",
          "name": "",
          "type": "uint256"
        }
      ],
      "stateMutability": "nonpayable",
      "type": "function"
    },
    {
      "inputs": [
        {
          "internalType": "uint256",
          "name": "tokenId",
          "type": "uint256"
        }
      ],
      "name": "ownerOf",
      "outputs": [
        {
          "internalType": "address",
          "name": "",
          "type": "address"
        }
      ],
      "stateMutability": "view",
      "type": "function"
    },
    {
      "inputs": [],
      "name": "pause",
      "outputs": [],
      "stateMutability": "nonpayable",
      "type": "function"
    },
    {
      "inputs": [],
      "name": "paused",
      "outputs": [
        {
          "internalType": "bool",
          "name": "",
          "type": "bool"
        }
      ],
      "stateMutability": "view",
      "type": "function"
    },
    {
      "inputs": [],
      "name": "platformTreasury",
      "outputs": [
        {
          "internalType": "address",
          "name": "",
          "type": "address"
        }
      ],
      "stateMutability": "view",
      "type": "function"
    },
    {
      "inputs": [],
      "name": "polTokenAddress",
      "outputs": [
        {
          "internalType": "address",
          "name": "",
          "type": "address"
        }
      ],
      "stateMutability": "view",
      "type": "function"
    },
    {
      "inputs": [
        {
          "internalType": "uint256",
          "name": "",
          "type": "uint256"
        }
      ],
      "name": "quests",
      "outputs": [
        {
          "internalType": "uint256",
          "name": "id",
          "type": "uint256"
        },
        {
          "internalType": "string",
          "name": "name",
          "type": "string"
        },
        {
          "internalType": "uint256",
          "name": "xpReward",
          "type": "uint256"
        },
        {
          "internalType": "uint64",
          "name": "startTime",
          "type": "uint64"
        },
        {
          "internalType": "uint64",
          "name": "endTime",
          "type": "uint64"
        },
        {
          "internalType": "bool",
          "name": "isActive",
          "type": "bool"
        }
      ],
      "stateMutability": "view",
      "type": "function"
    },
    {
      "inputs": [
        {
          "internalType": "address",
          "name": "",
          "type": "address"
        },
        {
          "internalType": "uint256",
          "name": "",
          "type": "uint256"
        }
      ],
      "name": "referrals",
      "outputs": [
        {
          "internalType": "address",
          "name": "",
          "type": "address"
        }
      ],
      "stateMutability": "view",
      "type": "function"
    },
    {
      "inputs": [
        {
          "internalType": "address",
          "name": "_referrer",
          "type": "address"
        }
      ],
      "name": "registerReferral",
      "outputs": [],
      "stateMutability": "nonpayable",
      "type": "function"
    },
    {
      "inputs": [
        {
          "internalType": "bytes32",
          "name": "role",
          "type": "bytes32"
        },
        {
          "internalType": "address",
          "name": "account",
          "type": "address"
        }
      ],
      "name": "renounceRole",
      "outputs": [],
      "stateMutability": "nonpayable",
      "type": "function"
    },
    {
      "inputs": [
        {
          "internalType": "bytes32",
          "name": "role",
          "type": "bytes32"
        },
        {
          "internalType": "address",
          "name": "account",
          "type": "address"
        }
      ],
      "name": "revokeRole",
      "outputs": [],
      "stateMutability": "nonpayable",
      "type": "function"
    },
    {
      "inputs": [
        {
          "internalType": "uint256",
          "name": "tokenId",
          "type": "uint256"
        },
        {
          "internalType": "uint256",
          "name": "salePrice",
          "type": "uint256"
        }
      ],
      "name": "royaltyInfo",
      "outputs": [
        {
          "internalType": "address",
          "name": "",
          "type": "address"
        },
        {
          "internalType": "uint256",
          "name": "",
          "type": "uint256"
        }
      ],
      "stateMutability": "view",
      "type": "function"
    },
    {
      "inputs": [
        {
          "internalType": "address",
          "name": "from",
          "type": "address"
        },
        {
          "internalType": "address",
          "name": "to",
          "type": "address"
        },
        {
          "internalType": "uint256",
          "name": "tokenId",
          "type": "uint256"
        }
      ],
      "name": "safeTransferFrom",
      "outputs": [],
      "stateMutability": "nonpayable",
      "type": "function"
    },
    {
      "inputs": [
        {
          "internalType": "address",
          "name": "from",
          "type": "address"
        },
        {
          "internalType": "address",
          "name": "to",
          "type": "address"
        },
        {
          "internalType": "uint256",
          "name": "tokenId",
          "type": "uint256"
        },
        {
          "internalType": "bytes",
          "name": "data",
          "type": "bytes"
        }
      ],
      "name": "safeTransferFrom",
      "outputs": [],
      "stateMutability": "nonpayable",
      "type": "function"
    },
    {
      "inputs": [
        {
          "internalType": "address",
          "name": "operator",
          "type": "address"
        },
        {
          "internalType": "bool",
          "name": "approved",
          "type": "bool"
        }
      ],
      "name": "setApprovalForAll",
      "outputs": [],
      "stateMutability": "nonpayable",
      "type": "function"
    },
    {
      "inputs": [
        {
          "internalType": "address",
          "name": "_treasury",
          "type": "address"
        }
      ],
      "name": "setPlatformTreasury",
      "outputs": [],
      "stateMutability": "nonpayable",
      "type": "function"
    },
    {
      "inputs": [
        {
          "internalType": "address",
          "name": "_polAddress",
          "type": "address"
        }
      ],
      "name": "setPolTokenAddress",
      "outputs": [],
      "stateMutability": "nonpayable",
      "type": "function"
    },
    {
      "inputs": [
        {
          "internalType": "address",
          "name": "_stakingAddress",
          "type": "address"
        }
      ],
      "name": "setStakingContractAddress",
      "outputs": [],
      "stateMutability": "nonpayable",
      "type": "function"
    },
    {
      "inputs": [
        {
          "internalType": "address",
          "name": "_stakingTreasuryAddress",
          "type": "address"
        }
      ],
      "name": "setStakingTreasuryAddress",
      "outputs": [],
      "stateMutability": "nonpayable",
      "type": "function"
    },
    {
      "inputs": [
        {
          "internalType": "address",
          "name": "",
          "type": "address"
        },
        {
          "internalType": "uint256",
          "name": "",
          "type": "uint256"
        }
      ],
      "name": "skillFeeConfigs",
      "outputs": [
        {
          "internalType": "enum IStakingIntegration.SkillType",
          "name": "skillType",
          "type": "uint8"
        },
        {
          "internalType": "uint256",
          "name": "minFee",
          "type": "uint256"
        },
        {
          "internalType": "uint256",
          "name": "maxFee",
          "type": "uint256"
        },
        {
          "internalType": "uint16",
          "name": "boostPercentage",
          "type": "uint16"
        }
      ],
      "stateMutability": "view",
      "type": "function"
    },
    {
      "inputs": [
        {
          "internalType": "uint256",
          "name": "",
          "type": "uint256"
        }
      ],
      "name": "skillNFTSkillCount",
      "outputs": [
        {
          "internalType": "uint256",
          "name": "",
          "type": "uint256"
        }
      ],
      "stateMutability": "view",
      "type": "function"
    },
    {
      "inputs": [],
      "name": "stakingContractAddress",
      "outputs": [
        {
          "internalType": "address",
          "name": "",
          "type": "address"
        }
      ],
      "stateMutability": "view",
      "type": "function"
    },
    {
      "inputs": [],
      "name": "stakingTreasuryAddress",
      "outputs": [
        {
          "internalType": "address",
          "name": "",
          "type": "address"
        }
      ],
      "stateMutability": "view",
      "type": "function"
    },
    {
      "inputs": [
        {
          "internalType": "bytes4",
          "name": "interfaceId",
          "type": "bytes4"
        }
      ],
      "name": "supportsInterface",
      "outputs": [
        {
          "internalType": "bool",
          "name": "",
          "type": "bool"
        }
      ],
      "stateMutability": "view",
      "type": "function"
    },
    {
      "inputs": [],
      "name": "symbol",
      "outputs": [
        {
          "internalType": "string",
          "name": "",
          "type": "string"
        }
      ],
      "stateMutability": "view",
      "type": "function"
    },
    {
      "inputs": [
        {
          "internalType": "uint256",
          "name": "_tokenId",
          "type": "uint256"
        }
      ],
      "name": "toggleLike",
      "outputs": [],
      "stateMutability": "nonpayable",
      "type": "function"
    },
    {
      "inputs": [
        {
          "internalType": "uint256",
          "name": "",
          "type": "uint256"
        }
      ],
      "name": "tokenSkills",
      "outputs": [
        {
          "internalType": "uint256",
          "name": "tokenId",
          "type": "uint256"
        },
        {
          "internalType": "enum IStakingIntegration.SkillType",
          "name": "skillType",
          "type": "uint8"
        },
        {
          "internalType": "uint16",
          "name": "effectValue",
          "type": "uint16"
        },
        {
          "internalType": "enum IStakingIntegration.Rarity",
          "name": "rarity",
          "type": "uint8"
        },
        {
          "internalType": "uint8",
          "name": "stars",
          "type": "uint8"
        },
        {
          "internalType": "uint64",
          "name": "mintedAt",
          "type": "uint64"
        },
        {
          "internalType": "uint64",
          "name": "lastActivationTime",
          "type": "uint64"
        },
        {
          "internalType": "bool",
          "name": "isSkillActive",
          "type": "bool"
        }
      ],
      "stateMutability": "view",
      "type": "function"
    },
    {
      "inputs": [
        {
          "internalType": "uint256",
          "name": "tokenId",
          "type": "uint256"
        }
      ],
      "name": "tokenURI",
      "outputs": [
        {
          "internalType": "string",
          "name": "",
          "type": "string"
        }
      ],
      "stateMutability": "view",
      "type": "function"
    },
    {
      "inputs": [
        {
          "internalType": "address",
          "name": "from",
          "type": "address"
        },
        {
          "internalType": "address",
          "name": "to",
          "type": "address"
        },
        {
          "internalType": "uint256",
          "name": "tokenId",
          "type": "uint256"
        }
      ],
      "name": "transferFrom",
      "outputs": [],
      "stateMutability": "nonpayable",
      "type": "function"
    },
    {
      "inputs": [
        {
          "internalType": "uint256",
          "name": "_tokenId",
          "type": "uint256"
        }
      ],
      "name": "unlistToken",
      "outputs": [],
      "stateMutability": "nonpayable",
      "type": "function"
    },
    {
      "inputs": [],
      "name": "unpause",
      "outputs": [],
      "stateMutability": "nonpayable",
      "type": "function"
    },
    {
      "inputs": [
        {
          "internalType": "uint256",
          "name": "_tokenId",
          "type": "uint256"
        },
        {
          "internalType": "uint256",
          "name": "_newPrice",
          "type": "uint256"
        }
      ],
      "name": "updatePrice",
      "outputs": [],
      "stateMutability": "nonpayable",
      "type": "function"
    },
    {
      "inputs": [
        {
          "internalType": "address",
          "name": "",
          "type": "address"
        },
        {
          "internalType": "uint256",
          "name": "",
          "type": "uint256"
        }
      ],
      "name": "userAchievements",
      "outputs": [
        {
          "internalType": "bool",
          "name": "",
          "type": "bool"
        }
      ],
      "stateMutability": "view",
      "type": "function"
    },
    {
      "inputs": [
        {
          "internalType": "address",
          "name": "",
          "type": "address"
        }
      ],
      "name": "userBalance",
      "outputs": [
        {
          "internalType": "uint256",
          "name": "",
          "type": "uint256"
        }
      ],
      "stateMutability": "view",
      "type": "function"
    },
    {
      "inputs": [
        {
          "internalType": "address",
          "name": "",
          "type": "address"
        }
      ],
      "name": "userProfiles",
      "outputs": [
        {
          "internalType": "uint256",
          "name": "totalXP",
          "type": "uint256"
        },
        {
          "internalType": "uint8",
          "name": "level",
          "type": "uint8"
        },
        {
          "internalType": "uint8",
          "name": "maxActiveSkills",
          "type": "uint8"
        },
        {
          "internalType": "uint8",
          "name": "skillsLevel",
          "type": "uint8"
        },
        {
          "internalType": "uint32",
          "name": "nftsCreated",
          "type": "uint32"
        },
        {
          "internalType": "uint32",
          "name": "nftsSold",
          "type": "uint32"
        },
        {
          "internalType": "uint32",
          "name": "nftsBought",
          "type": "uint32"
        },
        {
          "internalType": "uint64",
          "name": "lastActivityTimestamp",
          "type": "uint64"
        }
      ],
      "stateMutability": "view",
      "type": "function"
    },
    {
      "inputs": [
        {
          "internalType": "address",
          "name": "",
          "type": "address"
        },
        {
          "internalType": "uint256",
          "name": "",
          "type": "uint256"
        }
      ],
      "name": "userQuestCompleted",
      "outputs": [
        {
          "internalType": "bool",
          "name": "",
          "type": "bool"
        }
      ],
      "stateMutability": "view",
      "type": "function"
    },
    {
      "inputs": [
        {
          "internalType": "address",
          "name": "",
          "type": "address"
        }
      ],
      "name": "userSkillNFTCount",
      "outputs": [
        {
          "internalType": "uint256",
          "name": "",
          "type": "uint256"
        }
      ],
      "stateMutability": "view",
      "type": "function"
    },
    {
      "inputs": [
        {
          "internalType": "address",
          "name": "",
          "type": "address"
        }
      ],
      "name": "userSkillsActivatedCount",
      "outputs": [
        {
          "internalType": "uint256",
          "name": "",
          "type": "uint256"
        }
      ],
      "stateMutability": "view",
      "type": "function"
    }
  ],
  "bytecode": "0x60806040523461057a576166fd6060813803918261001c8161057e565b93849283398101031261057a57610032816105a3565b9061004b6040610044602084016105a3565b92016105a3565b610055604061057e565b92600c84526b11d85b595a599a595913919560a21b6020850152610079604061057e565b600481526311d3919560e21b6020820152845190946001600160401b03821161047d5760025490600182811c92168015610570575b602083101461045f5781601f849311610502575b50602090601f831160011461049c575f92610491575b50508160011b915f199060031b1c1916176002555b83516001600160401b03811161047d57600354600181811c91168015610473575b602082101461045f57601f81116103fc575b50602094601f8211600114610399579481929394955f9261038e575b50508160011b915f199060031b1c1916176003555b6001600a55600b805460ff191690556001600160a01b0316918215610349576001600160a01b0316908115610304576001600160a01b03169182156102bf57335f9081525f5160206166bd5f395f51905f52602052604090205460ff1615610282575b335f9081525f5160206166dd5f395f51905f52602052604090205460ff1615610223575b602480546001600160a01b03199081163317909155601d8054821692909217909155601e8054821692909217909155602580549091169190911790556040516160e590816105b88239f35b335f8181525f5160206166dd5f395f51905f5260205260408120805460ff1916600117905581907fa49807205ce4d355092ef5a8a18f56e8913cf4a201fbe287825b095693c21775905f51602061669d5f395f51905f529080a46101d8565b335f8181525f5160206166bd5f395f51905f5260205260408120805460ff1916600117905581905f51602061669d5f395f51905f528180a46101b4565b60405162461bcd60e51b815260206004820152601860248201527f496e76616c6964207374616b696e6720747265617375727900000000000000006044820152606490fd5b60405162461bcd60e51b815260206004820152601860248201527f496e76616c6964207374616b696e6720636f6e747261637400000000000000006044820152606490fd5b60405162461bcd60e51b815260206004820152601960248201527f496e76616c696420504f4c20746f6b656e2061646472657373000000000000006044820152606490fd5b015190505f8061013c565b601f1982169560035f52805f20915f5b8881106103e4575083600195969798106103cc575b505050811b01600355610151565b01515f1960f88460031b161c191690555f80806103be565b919260206001819286850151815501940192016103a9565b60035f527fc2575a0e9e593c00f959f8c92f12db2869c3395a3b0502d05e2516446f71f85b601f830160051c81019160208410610455575b601f0160051c01905b81811061044a5750610120565b5f815560010161043d565b9091508190610434565b634e487b7160e01b5f52602260045260245ffd5b90607f169061010e565b634e487b7160e01b5f52604160045260245ffd5b015190505f806100d8565b60025f9081528281209350601f198516905b8181106104ea57509084600195949392106104d2575b505050811b016002556100ed565b01515f1960f88460031b161c191690555f80806104c4565b929360206001819287860151815501950193016104ae565b60025f529091507f405787fa12a823e0f2b7631cc41b3ba8828b3321ca811111fa75cd3aa3bb5ace601f840160051c81019160208510610566575b90601f859493920160051c01905b81811061055857506100c2565b5f815584935060010161054b565b909150819061053d565b91607f16916100ae565b5f80fd5b6040519190601f01601f191682016001600160401b0381118382101761047d57604052565b51906001600160a01b038216820361057a5756fe610100806040526004361015610013575f80fd5b5f3560e01c9081630103c92b146146cd5750806301ffc9a7146146115780630397fe79146145e957806306fdde0314614544578063081812fc14614526578063095ea7b3146143a057806315548232146137bf5780631635bcf2146143685780631c1f8aa31461431d578063209ab711146140fc57806323b872dd146140d857806323fc91e4146140ba57806324548c6014614071578063248a9ca3146140465780632511346814613f8f57806327aed72e14613f095780632a55205a14613e5d5780632d296bf1146104535780632f2ff15d14613da4578063332d56d714613d065780633535f48b14613cde578063363cf11014613cb757806336568abe14613c255780633814e9e214613983578063383bb073146139685780633f4ba83a146138d55780634139aa461461388c57806342842e0e1461385857806343371db91461091757806349541015146137da5780634e018de8146137bf57806354398d181461359557806356ab5eeb14610a6e578063578eaf44146134e05780635c975abb146134be578063602dcf291461329d578063616d58c9146131e55780636352211e146131b5578063638ac8d31461316c57806367ef7025146130bf5780636be9a6f114612fdd57806370a0823114612f4857806375b238fc14612f0e57806377ea168e14612e955780637823d2ac14612e72578063797669c914612e385780637cd86d6014612ded57806381257bd514612c2357806382367b2d14612b995780638456cb5914612b40578063862fdb2d14612b1657806386eafc5a146127545780638aaab21f146127395780638ab62d61146127165780638c3a0340146126fb57806391d14854146126b257806392ae96301461267b578063935eed321461265957806394bfb9b41461263e57806395d89b4114612574578063973edd8114612559578063987ee1561461249e5780639ab7e1e114612403578063a217fddf146123e9578063a22cb4651461231f578063a459a272146114bc578063a7b695d1146114a1578063a8a4282314611484578063a942f2a214611398578063aa7e568314611185578063ad3a358c146110f5578063b661a18c146110c5578063b7f3a58914610ff0578063b88d4fde14610f6b578063bc76669714610f20578063c36d42b414610d8a578063c5f3347414610d6f578063c87b56dd14610d50578063c9a0066714610d05578063cb8c8a1514610cdb578063cce4f66a14610cb8578063d40d94e314610c90578063d45557cc14610bd4578063d489be2614610b6c578063d547741f14610b27578063e085f98014610a9b578063e138818c14610a73578063e293a3b614610a6e578063e697b5d814610a0c578063e97170f714610989578063e985e9c514610932578063ec00b0d014610917578063efc9adda146108e0578063f280b7ec146108b6578063f291f5dd14610785578063f2c3d9d91461076a578063f6e294e0146106a55763fc6d3fa114610453575f80fd5b60203660031901126106a15760043561046a6157b2565b6104726157f6565b805f52600f60205260405f206003600282019161049560ff845460a01c16614c1c565b01805491823410610665576104a984615098565b6001600160a01b0381169233841461062f5760058502928584046005148615171561061b57610511610517925f606461052d9704916104e8838b614c55565b946104f48c338a6155eb565b805460ff60a01b19169055556024546001600160a01b031661584c565b8461584c565b833411610603575b610527614c62565b9061533b565b61053e610538614c88565b3361542e565b335f526016602052610587600160405f200161056363ffffffff825460581c16614cb0565b90805463ffffffff60581b191660589290921b63ffffffff60581b16919091179055565b805f5260166020526105d0600160405f20016105ac63ffffffff825460381c16614cb0565b90805463ffffffff60381b191660389290921b63ffffffff60381b16919091179055565b6040519182527fa8a7473f10e62cf9687e243de1c3ac8b3cbc3dd04b96826beb3a65b59538581460203393a46001600a55005b6106166106108534614c55565b3361584c565b61051f565b634e487b7160e01b5f52601160045260245ffd5b60405162461bcd60e51b815260206004820152600e60248201526d21b0b73737ba10313abc9037bbb760911b6044820152606490fd5b60405162461bcd60e51b8152602060048201526014602482015273125b9cdd59999a58da595b9d081c185e5b595b9d60621b6044820152606490fd5b5f80fd5b346106a15760203660031901126106a1576004356106d56106c582615098565b6001600160a01b03163314614ebc565b805f526015602052600160405f2001805460ff8160a81c16156107385760ff60a81b19169055335f5260176020526107108160405f20615ded565b50337faafa075c0bad670a60c89fa6577a9ff5200e0d86e99b098a372d5806210cf8675f80a3005b60405162461bcd60e51b815260206004820152600a6024820152694e6f742061637469766560b01b6044820152606490fd5b346106a1575f3660031901126106a157602060405160148152f35b346106a15760203660031901126106a1576004355f52601360205260405f208054906107b0826151bf565b916107be60405193846148c7565b8083526020830180925f5260205f205f915b838310610857578486604051918291602083019060208452518091526040830191905f5b818110610802575050500390f35b91935091602060a060019260808751805183528580851b03858201511685840152604081015160408401526001600160401b0360608201511660608401520151151560808201520194019101918493926107f4565b6004602060019260405161086a81614891565b85548152848060a01b038587015416838201526002860154604082015260ff60038701546001600160401b038116606084015260401c16151560808201528152019201920191906107d0565b346106a15760203660031901126106a1576004355f526021602052602060405f2054604051908152f35b346106a15760203660031901126106a1576001600160a01b03610901614701565b165f5260208052602060405f2054604051908152f35b346106a1575f3660031901126106a157602060405160028152f35b346106a15760403660031901126106a15761094b614701565b610953614717565b9060018060a01b03165f52600760205260405f209060018060a01b03165f52602052602060ff60405f2054166040519015158152f35b346106a15760403660031901126106a1576109a2614701565b6001600160a01b03165f908152602360205260409020805460243591908210156106a1576080916109d2916149cb565b5060ff8154169060018101549061ffff6003600283015492015416916109fb60405180956147ad565b602084015260408301526060820152f35b346106a15760403660031901126106a157610a25614701565b6001600160a01b03165f908152601c60205260409020805460243591908210156106a157602091610a5591614ae8565b905460405160039290921b1c6001600160a01b03168152f35b6126fb565b346106a1575f3660031901126106a1576024546040516001600160a01b039091168152602090f35b346106a15760203660031901126106a1576004355f52601a60205260405f208054610ac8600183016148e8565b9160ff60036002830154920154610af1604051958695865260c0602087015260c086019061474e565b9260408501526001600160401b03811660608501526001600160401b038160401c16608085015260801c16151560a08301520390f35b346106a15760403660031901126106a157610b6a600435610b46614717565b90610b65610b60825f526009602052600160405f20015490565b6152fc565b615926565b005b346106a157610b7a36614988565b905f52601260205260405f209081548110156106a157610b9991614ae8565b610bc157610ba9610bbd916148e8565b60405191829160208352602083019061474e565b0390f35b634e487b7160e01b5f525f60045260245ffd5b346106a157610c15610be536614988565b90610bee6157f6565b805f526013602052610c0560405f205483106150bd565b5f52601360205260405f206149cb565b5060018101546001600160a01b03163303610c5d576002816003610c5693018054610c4560ff8260401c166150f9565b60ff60401b1916905501543361584c565b6001600a55005b60405162461bcd60e51b815260206004820152600b60248201526a2737ba1037b33332b937b960a91b6044820152606490fd5b346106a1575f3660031901126106a1576025546040516001600160a01b039091168152602090f35b346106a1575f3660031901126106a1576020604051680ad78ebc5ac62000008152f35b346106a15760203660031901126106a1576004355f526011602052602060405f2054604051908152f35b346106a15760203660031901126106a157610d1e614701565b610d266151ea565b6001600160a01b0316610d3a811515614b28565b601d80546001600160a01b031916919091179055005b346106a15760203660031901126106a157610bbd610ba9600435615b6d565b346106a1575f3660031901126106a1576020604051600f8152f35b346106a15760203660031901126106a1576001600160a01b03610dab614701565b16805f52601760205260405f2054610dc2816151bf565b91610dd060405193846148c7565b818352601f19610ddf836151bf565b015f5b818110610f095750505f5b828110610e4557836040518091602082016020835281518091526020604084019201905f5b818110610e20575050500390f35b91935091602061010082610e3760019488516147c7565b019401910191849392610e12565b600190825f526017602052610e5d8160405f20614ae8565b90549060031b1c5f52601560205260405f2060ff8360405192610e7f84614875565b805484520154610e9482821660208501614c04565b61ffff8160081c166040840152610eb3828260181c1660608501614c10565b818160201c1660808401526001600160401b038160281c1660a08401526001600160401b038160681c1660c084015260a81c16151560e0820152610ef782876151d6565b52610f0281866151d6565b5001610ded565b602090610f14614bc8565b82828801015201610de2565b346106a15760203660031901126106a157610f39614701565b610f416151ea565b6001600160a01b0316610f55811515614b28565b602580546001600160a01b031916919091179055005b346106a15760803660031901126106a157610f84614701565b610f8c614717565b90606435906044356001600160401b0383116106a157366023840112156106a157610b6a93610fc8610feb943690602481600401359101614ab2565b92610fdb610fd6843361551c565b614b66565b610fe68383836155eb565b615d95565b615b4d565b346106a15760203660031901126106a1576004355f52601260205260405f2080549061101b826151bf565b9161102960405193846148c7565b8083526020830180925f5260205f205f915b8383106110a857848660405191829160208301906020845251809152604083019060408160051b85010192915f905b82821061107957505050500390f35b919360019193955060206110988192603f198a8203018652885161474e565b960192019201859493919261106a565b6001602081926110b7856148e8565b81520192019201919061103b565b346106a15760203660031901126106a15760043560058110156106a1576110ed602091615a75565b604051908152f35b346106a15760203660031901126106a1576004356111116157b2565b61111d6106c582615098565b805f52600f60205261113b60ff600260405f20015460a01c16614c1c565b5f818152600f6020526040812060028101805460ff60a01b1916905560030181905533907f24287c09523dfd960e13a9774c247fb28a2ccb301eb4208b0d4072bcd0f1826e9080a3005b346106a15760403660031901126106a1576004356024356001600160401b0381116106a1576111b890369060040161499e565b6111c06157b2565b6111d16111cc84615b9f565b6159a7565b8015611363575f8381526012602052604090208054600160401b81101561134f5761120191600182018155614ae8565b610bc157818361121092614f83565b604080519161121f82846148c7565b600d83526c1391950810dbdb5b595b9d1959609a1b6020840152335f526016602052815f2091600183019360ff855460101c161580611346575b611332575b8354946002860180961161061b57938590558354600160781b600160b81b0319164260781b600160781b600160b81b0316178085557f6ef560d19dd02f57976e8453b811685a89edf49009d64ab71b19489923ef5f099561131095919060ff906112c790615a41565b9160101c1660ff821611611315575b50505f5160206160905f395f51905f528251600281528360208201528061130133948683019061474e565b0390a251918291339583615198565b0390a3005b815462ff0000191660109190911b62ff00001617905587806112d6565b845462ff000019166201000017855561125e565b50835415611259565b634e487b7160e01b5f52604160045260245ffd5b60405162461bcd60e51b815260206004820152600d60248201526c436f6d6d656e7420656d70747960981b6044820152606490fd5b346106a15760203660031901126106a1576101606113b4614701565b6113bc614bc8565b5060018060a01b0316805f52601660205260ff60405f20916001604051936113e385614875565b805485520154908282166020850152828260081c1660408501526001600160401b036060850192848160101c16845263ffffffff8160181c16608087015263ffffffff8160381c1660a087015263ffffffff8160581c1660c087015260781c1660e08501525f5260176020528160405f2054915116611461816159f1565b9161146f60405180966149f8565b61010085015261012084015216610140820152f35b346106a1575f3660031901126106a157602060405162093a808152f35b346106a1575f3660031901126106a157602060405160048152f35b346106a15760c03660031901126106a1576004356001600160401b0381116106a1576114ec90369060040161499e565b9060c0526024356001600160401b0381116106a15761150f90369060040161499e565b6044929192356001600160601b03811681036106a1576064356001600160401b0381116106a157611544903690600401614a67565b9060a052936084356001600160401b0381116106a157611568903690600401614a67565b92909360a4356001600160401b0381116106a15761158a903690600401614a67565b9390926115956157b2565b61159d6157f6565b88156122da576005891161229e5785890361224e578489036121fd576127106001600160601b038216116121c6576115d433615738565b680ad78ebc5ac6200000811061217c57505f60015b8a81106120de575080611f8e575b506001600c540160e05260e051600c555f608052602060805260405161161f608051826148c7565b5f81523315611f4857610feb6116c09161164361163d60e051615b9f565b15616043565b61164b6157b2565b61165961163d60e051615b9f565b335f818152608080516005905260408083208054600101905560e080518452915160049052822080546001600160a01b031916841790555191907fddf252ad1be2c89b69c2b068fc378daa952ba7f163c4a11628f55a4df523b3ef8180a460e05133615ca5565b6116cd368960c051614ab2565b6116d860e051615b9f565b15611eeb5760e0515f5260086080515260405f20908051906001600160401b03821161134f576117128261170c855461483d565b85614f34565b60805190601f8311600114611e7d5791806117499261179e979695945f92611e72575b50508160011b915f199060031b1c19161790565b90555b7ff8e1a15aba9398e019f0b49df1a4fde98ee17ae345cb5f6b5e2c27f5033e8ce760405160e051815260805190a16001600160601b038116611e15575b506040519261179784614891565b3691614ab2565b815260805181019042825260408101338152606082015f81525f608084015260e0515f52600f6080515260405f209383518051906001600160401b03821161134f576117f4826117ee895461483d565b89614f34565b60805190601f8311600114611da357826003979593608097959361182c935f92611d985750508160011b915f199060031b1c19161790565b875599989796995b5160018701559051600286018054925160ff60a01b90151560a01b166001600160a01b039092166001600160a81b03199093169290921717905501519101555f9384935b878510611a86578660ff8760e0515f526021608051521660405f2055335f52601f6080515260405f206118ab815461518a565b905560409081516118bc83826148c7565b601181527014dada5b1b081391950810dc99585d1959607a1b608051820152335f52601660805152825f20600181019060ff825460101c161580611a7d575b611a69575b805490600a820180921161061b578190558154600160781b600160b81b0319164260781b600160781b600160b81b0316178083559060ff9061194190615a41565b9160101c1660ff821611611a4c575b50505f5160206160905f395f51905f528351600a8152846080518201528061197c33948783019061474e565b0390a2335f526016608051526001825f2001805466ffffffff0000006119aa63ffffffff8360181c16614cb0565b60181b169066ffffffff00000019161790558151907f1e1b69b56bd875547ce642e5ca9d38001b825863ffbf9cf08c72e0ff64b00a8d60e05192806119f3339460c05183615198565b0390a360a0513560138110156106a157611a0f825180926147ad565b33907f561a4c5efa6b652dfa49172caf5cf722b80ca10b85a635494db8ae440717985160e0519160805190a36001600a555160e051815260805190f35b815462ff0000191660109190911b62ff0000161790558380611950565b815462ff0000191662010000178255611900565b508054156118fb565b9091929394611a98868960a05161517a565b3560138110156106a15715611d6257611ab4868960a05161517a565b359060138210156106a157611aca87878561517a565b359161ffff83168093036106a157611ae388878761517a565b3560058110156106a157611af889888861517a565b3560058110156106a157611b0b90615c73565b9360405191611b1983614875565b60e0518352611b2d60805184019485614c04565b60408301918252611b42606084019182614c10565b60ff608084019616865260a083016001600160401b034216815260c08401905f8252600160e08601955f875260e0515f5260156080515260405f2090518155019551906013821015611d4e5762ffff008754955160081b1693516005811015611d4e5763ff000000611c31966001600160401b039667ffffffffffffffff60281b64ff0000000060ff9e516080511b16955160281b169567ffffffffffffffff60281b19928e64ff000000001992169063ffffffff1916171617169160181b161717178555511683908154906001600160401b0360681b9060681b16906001600160401b0360681b1916179055565b51815460a885811b199091169115158516901b1790551660ff811461061b576001019480611cbd57611c66818960a05161517a565b359060138210156106a157600191611c8160405180926147ad565b5f60805182015260e051907f817e0ed29c8896252a6a75931a2a578d13e35f9734b5b3b136e814a08f951ac360403392a35b0193929190611878565b6013611ccc828a60a05161517a565b3510156106a157611cde81858561517a565b3560058110156106a157611cf190615a75565b90611cff818a60a05161517a565b3560138110156106a157600192611d1960405180936147ad565b60805182015260e051907f817e0ed29c8896252a6a75931a2a578d13e35f9734b5b3b136e814a08f951ac360403392a3611cb3565b634e487b7160e01b5f52602160045260245ffd5b60405162461bcd60e51b81526080516004820152600d60248201526c125b9d985b1a59081cdada5b1b609a1b6044820152606490fd5b015190505f80611735565b90601f19831691885f526080515f20925f5b818110611dfc575092600192859260039a989660809a989610611de5575b505050811b0187559998979699611834565b01515f19838b1b60f8161c191690558f8080611dd3565b8284015185556080516001909501949384019301611db5565b60405190611e22826148ac565b338252608080516001600160601b039290921691830191825260e0515f908152905160019052604090209151905160a01b6001600160a01b0319166001600160a01b039190911617905589611789565b015190508e80611735565b90835f526080515f20915f5b601f1985168110611ed2575091839160019361179e98979695601f19811610611eba575b505050811b01905561174c565b01515f1960f88460031b161c191690558d8080611ead565b8183015184556080516001909401939283019201611e89565b60405162461bcd60e51b81526080516004820152602e60248201527f45524337323155524953746f726167653a2055524920736574206f66206e6f6e60448201526d32bc34b9ba32b73a103a37b5b2b760911b6064820152608490fd5b60405162461bcd60e51b81526080805160048301525160248201527f4552433732313a206d696e7420746f20746865207a65726f20616464726573736044820152606490fd5b601d546040516370a0823160e01b81523360048201526001600160a01b0390911690602081602481855afa80156120595783915f916120a9575b501061206457602480546040516323b872dd60e01b81523360048201526001600160a01b03909116918101919091526044810192909252602090829060649082905f905af1801561205957612024915f9161202a575b50615138565b896115f7565b61204c915060203d602011612052575b61204481836148c7565b810190614cc8565b8b61201e565b503d61203a565b6040513d5f823e3d90fd5b60405162461bcd60e51b815260206004820152601f60248201527f496e73756666696369656e7420504f4c20666f7220736b696c6c7320666565006044820152606490fd5b9150506020813d6020116120d6575b816120c5602093836148c7565b810103126106a1578290518d611fc8565b3d91506120b8565b906120ec828c60a05161517a565b3560138110156106a1571561214257601361210a838d60a05161517a565b3510156106a15761211c82888861517a565b3560058110156106a15760019161213561213b92615a75565b90615044565b91016115e9565b60405162461bcd60e51b8152602060048201526012602482015271496e76616c696420736b696c6c207479706560701b6044820152606490fd5b604051908152680ad78ebc5ac620000060208201527f798e1833c7bcc4b543224cdee54de3faff56489078d32024cf0ce2a3f32a743560403392a2634984df4960e11b5f5260045ffd5b60405162461bcd60e51b815260206004820152600f60248201526e496e76616c696420726f79616c747960881b6044820152606490fd5b60405162461bcd60e51b815260206004820152602360248201527f536b696c6c7320616e64207261726974696573206c656e677468206d69736d616044820152620e8c6d60eb1b6064820152608490fd5b60405162461bcd60e51b815260206004820152602260248201527f536b696c6c7320616e642065666665637473206c656e677468206d69736d61746044820152610c6d60f31b6064820152608490fd5b60405162461bcd60e51b815260206004820152601460248201527313585e080d481cdada5b1b1cc81c195c8813919560621b6044820152606490fd5b60405162461bcd60e51b815260206004820152601a60248201527f4d7573742068617665206174206c65617374203120736b696c6c0000000000006044820152606490fd5b346106a15760403660031901126106a157612338614701565b602435908115158092036106a1576001600160a01b0316903382146123a857335f52600760205260405f20825f5260205260405f2060ff1981541660ff83161790556040519081527f17307eab39ab6107e8899845ad3d59bd9653f200f220920489ca2b5937696c3160203392a3005b60405162461bcd60e51b815260206004820152601960248201527822a9219b99189d1030b8383937bb32903a379031b0b63632b960391b6044820152606490fd5b346106a1575f3660031901126106a15760206040515f8152f35b346106a15760203660031901126106a1576004355f52601560205261010060405f2060ff60018254920154604051928352612443602084018383166147ad565b61ffff8160081c16604084015261246260608401838360181c166147ba565b818160201c1660808401526001600160401b038160281c1660a08401526001600160401b038160681c1660c084015260a81c16151560e0820152f35b346106a15760203660031901126106a1576124b7614701565b6124bf614bc8565b5060018060a01b03165f52601660205261010060405f206001600160401b036001604051926124ed84614875565b80548452015460ff8116602084015260ff8160081c16604084015260ff8160101c16606084015263ffffffff8160181c16608084015263ffffffff8160381c1660a084015263ffffffff8160581c1660c084015260781c1660e082015261255760405180926149f8565bf35b346106a1575f3660031901126106a157602060405160328152f35b346106a1575f3660031901126106a1576040515f6003546125948161483d565b808452906001811690811561261a57506001146125bc575b610bbd83610ba9818503826148c7565b60035f9081527fc2575a0e9e593c00f959f8c92f12db2869c3395a3b0502d05e2516446f71f85b939250905b80821061260057509091508101602001610ba96125ac565b9192600181602092548385880101520191019092916125e8565b60ff191660208086019190915291151560051b84019091019150610ba990506125ac565b346106a1575f3660031901126106a157602060405160c88152f35b346106a1575f3660031901126106a1576020604051678ac7230489e800008152f35b346106a15760203660031901126106a1576020680ad78ebc5ac62000006126a86126a3614701565b615738565b1015604051908152f35b346106a15760403660031901126106a1576126cb614717565b6004355f52600960205260405f209060018060a01b03165f52602052602060ff60405f2054166040519015158152f35b346106a1575f3660031901126106a157602060405160018152f35b346106a1575f3660031901126106a157602060405168056bc75e2d631000008152f35b346106a1575f3660031901126106a157602060405160038152f35b346106a15760203660031901126106a1576004356127706157b2565b6127786157f6565b6127846106c582615098565b805f526015602052600160405f2001805460ff81166013811015611d4e5715612adf5760a81c60ff16612aa957335f5260166020526127df60ff60405f20600181019082825460101c1615612a7e575b505460101c166159f1565b335f52601760205260ff60405f205491161115612a2f57815f52602260205260405f2054612884575b805468ffffffffffffffffff60681b19164260681b67ffffffffffffffff60681b1617600160a81b1790555b335f5260176020526128498160405f20615c09565b50805f5260226020524260405f2055337f76c9efae937c1ab82949d0e3ecb874f9a6b9305a8b1a7653362bbb9dcd309e1a5f80a36001600a55005b62093a8061289f6001600160401b03835460681c1642614c55565b101561280857601d546040516370a0823160e01b81523360048201526001600160a01b039091169190602081602481865afa8015612059575f906129f5575b678ac7230489e800009150106129a25760205f92606460018060a01b036024541660405195869384926323b872dd60e01b84523360048501526024840152678ac7230489e8000060448401525af19182156120595761283492612947915f916129835750615138565b82604051678ac7230489e8000081527f6ee278c76bc07e57c541bd95b1d14479b704c0aadd7d984a3e4f2d0c2580ffd960203392a39050612808565b61299c915060203d6020116120525761204481836148c7565b8561201e565b60405162461bcd60e51b815260206004820152602560248201527f496e73756666696369656e7420504f4c20666f7220736b696c6c206368616e67604482015264652066656560d81b6064820152608490fd5b506020813d602011612a27575b81612a0f602093836148c7565b810103126106a157678ac7230489e8000090516128de565b3d9150612a02565b60405162461bcd60e51b815260206004820152602160248201527f4d617820736b696c6c73207265616368656420666f7220796f7572206c6576656044820152601b60fa1b6064820152608490fd5b612a8b612aa39154615a41565b825462ff0000191660109190911b62ff000016178255565b856127d4565b60405162461bcd60e51b815260206004820152600e60248201526d416c72656164792061637469766560901b6044820152606490fd5b60405162461bcd60e51b815260206004820152600f60248201526e139bdd0818481cdada5b1b08139195608a1b6044820152606490fd5b346106a15760203660031901126106a1576004355f526022602052602060405f2054604051908152f35b346106a1575f3660031901126106a157612b586151ea565b612b606157b2565b600160ff19600b541617600b557f62e78cea01bee320cd4e420270b5ea74000d11b0c9f74754ebdbfc544b05a2586020604051338152a1005b346106a157612ba736614988565b612baf6157b2565b612bbb6106c583615098565b815f52600f602052612bd960ff600260405f20015460a01c16614c1c565b612be4811515614ef4565b815f52600f60205280600360405f2001556040519081527fb556fac599c3c70efb9ab1fa725ecace6c81cc48d1455f886607def065f3e0c060203392a3005b346106a157612c73612c3436614988565b612c3f9291926157f6565b612c4b6106c584615098565b825f526013602052612c6260405f205482106150bd565b825f52601360205260405f206149cb565b5060038101805490612c8a60ff8360401c166150f9565b6001600160401b0382164211612db857600260018060a01b036001850154169301549160ff60401b19169055600581028181046005148215171561061b576064612d199104610610612cdc8285614c55565b91612ce88787336155eb565b5f878152600f6020526040812060028101805460ff60a01b19169055600301556024546001600160a01b031661584c565b612d2a612d24614c62565b3361533b565b612d3b612d35614c88565b8361542e565b815f526016602052612d60600160405f200161056363ffffffff825460581c16614cb0565b335f526016602052612d85600160405f20016105ac63ffffffff825460381c16614cb0565b6040519081527fa6da490df6e8f0e592e795b4d96c5810d8ddfda51c21577adbdd8e1a0fa47a6760203392a46001600a55005b60405162461bcd60e51b815260206004820152600d60248201526c13d999995c88195e1c1a5c9959609a1b6044820152606490fd5b346106a15760203660031901126106a157612e06614701565b612e0e6151ea565b6001600160a01b0316612e22811515614b28565b602480546001600160a01b031916919091179055005b346106a1575f3660031901126106a15760206040517f71f3d55856e4058ed06ee057d79ada615f65cdf5f9ee88181b914225088f834f8152f35b346106a1575f3660031901126106a157602060405168015af1d78b58c400008152f35b346106a157612ea336614988565b905f52601360205260405f2080548210156106a15760a091612ec4916149cb565b5060ff815491600180851b03600182015416906003600282015491015491604051948552602085015260408401526001600160401b038116606084015260401c1615156080820152f35b346106a1575f3660031901126106a15760206040517fa49807205ce4d355092ef5a8a18f56e8913cf4a201fbe287825b095693c217758152f35b346106a15760203660031901126106a1576001600160a01b03612f69614701565b168015612f86575f526005602052602060405f2054604051908152f35b60405162461bcd60e51b815260206004820152602960248201527f4552433732313a2061646472657373207a65726f206973206e6f7420612076616044820152683634b21037bbb732b960b91b6064820152608490fd5b346106a15760203660031901126106a1575f6080604051612ffd81614891565b6060815282602082015282604082015282606082015201526004355f52600f60205261309760405f206040519061303382614891565b61303c816148e8565b82526001810154906020830191825260028101546003604085019260018060a01b038316845260ff606087019360a01c161515835201549160808501928352604051958695602087525160a0602088015260c087019061474e565b93516040860152516001600160a01b0316606085015251151560808401525160a08301520390f35b346106a15760203660031901126106a1576001600160a01b036130e0614701565b165f526016602052602060405f206001604051916130fd83614875565b8054835201549060ff82168382015260ff8260081c16604082015260e06001600160401b0360ff8460101c169384606085015263ffffffff8160181c16608085015263ffffffff8160381c1660a085015263ffffffff8160581c1660c085015260781c16910152604051908152f35b346106a15760403660031901126106a157613185614717565b6004355f52601060205260405f209060018060a01b03165f52602052602060ff60405f2054166040519015158152f35b346106a15760203660031901126106a15760206131d3600435615098565b6040516001600160a01b039091168152f35b346106a15760203660031901126106a1576001600160a01b03613206614701565b165f526016602052602061329260405f2060016040519161322683614875565b8054835201549060ff82168482015260ff8260081c16604082015260e06001600160401b0360ff8460101c169384606085015263ffffffff8160181c16608085015263ffffffff8160381c1660a085015263ffffffff8160581c1660c085015260781c169101526159f1565b60ff60405191168152f35b60403660031901126106a15760043560243560ff81168091036106a1576132c26157b2565b3415613485578015158061347a575b15613444576132df82615098565b6001600160a01b0316331461340c57620151800262ffffff811690810361061b576133126001600160401b039142615044565b16815f52601360205260405f2060405161332b81614891565b838152602081019033825260408101348152606082019485526080820193600185528054600160401b81101561134f5761336a916001820181556149cb565b919091610bc1579151815591516001830180546001600160a01b0319166001600160a01b039290921691909117905551600282015591516003929092018054915168ffffffffffffffffff199092166001600160401b039390931692909217901515604090811b60ff60401b16919091179091555134815233907f7beddbbf70d8b2a25af77e15d4a173af5f34673a1e7302c7af208aac599dc6db90602090a3005b60405162461bcd60e51b815260206004820152601060248201526f21b0b73737ba1037b33332b91037bbb760811b6044820152606490fd5b60405162461bcd60e51b815260206004820152600e60248201526d496e76616c69642065787069727960901b6044820152606490fd5b50601e8111156132d1565b60405162461bcd60e51b815260206004820152601160248201527004f66666572206d757374206265203e203607c1b6044820152606490fd5b346106a1575f3660031901126106a157602060ff600b54166040519015158152f35b346106a15760603660031901126106a1576004356024356044356001600160401b0381116106a15761351961356791369060040161499e565b906135226157b2565b61352e6106c586615098565b613539841515614ef4565b5f858152600f6020526040902060028101805460ff60a01b1916600160a01b17905560038101859055614f83565b6040519081527f5dc96537cbae524775a674b6a810d9a1ba04a9e279f172d156b352151394677a60203392a3005b346106a15760203660031901126106a1576004356135b16157b2565b6135bd6111cc82615b9f565b5f81815260106020908152604080832033845290915290205460ff16613744575f8181526010602090815260408083203384528252808320805460ff191660011790558383526011909152902080546136159061518a565b90556040805161362582826148c7565b600981526813919508131a5ad95960ba1b6020820152335f526016602052815f20600181019060ff825460101c16158061373b575b613727575b8054906001820180921161061b578190558154600160781b600160b81b0319164260781b600160781b600160b81b0316178083559060ff906136a090615a41565b9160101c1660ff82161161370a575b50505f5160206160905f395f51905f52825160018152836020820152806136da33948683019061474e565b0390a251600181527f4d5c3df35a8d7d04f2e10db1454548af37ee7449c97a4b4c243681f29c2ea40760203392a3005b815462ff0000191660109190911b62ff00001617905583806136af565b815462ff000019166201000017825561365f565b5080541561365a565b5f8181526010602090815260408083203384528252808320805460ff1916905583835260119091529020546137a2575b6040515f81527f4d5c3df35a8d7d04f2e10db1454548af37ee7449c97a4b4c243681f29c2ea40760203392a3005b805f52601160205260405f206137b881546159e5565b9055613774565b346106a1575f3660031901126106a157602060405160058152f35b346106a15760203660031901126106a1576004355f52600f60205261382d60405f20613805816148e8565b9060018101549060ff600360028301549201549160405195869560a0875260a087019061474e565b60208601949094526001600160a01b038116604086015260a01c161515606084015260808301520390f35b346106a157610b6a610feb61386c36614773565b906040519261387c6020856148c7565b5f8452610fdb610fd6843361551c565b346106a15760403660031901126106a1576001600160a01b036138ad614701565b165f52601b60205260405f206024355f52602052602060ff60405f2054166040519015158152f35b346106a1575f3660031901126106a1576138ed6151ea565b600b5460ff81161561392c5760ff1916600b557f5db9ee0a495bf2e6ff9c91a7834c1ba4fdd244a5e8aa4e537bd38aeae4b073aa6020604051338152a1005b60405162461bcd60e51b815260206004820152601460248201527314185d5cd8589b194e881b9bdd081c185d5cd95960621b6044820152606490fd5b346106a1575f3660031901126106a1576020604051600a8152f35b346106a15760203660031901126106a157600435805f52601a60205260405f20600381015460ff8160801c1615613bed57335f52601b60205260405f20835f5260205260ff60405f205416613bb4576001600160401b0381164210613b7b5760401c6001600160401b03164211613b4657600290335f52601b60205260405f20835f5260205260405f20600160ff1982541617905501545f5160206160905f395f51905f52604091825190613a3884836148c7565b600f82526e145d595cdd0810dbdb5c1b195d1959608a1b6020830152335f526016602052835f20600181019060ff825460101c161580613b3d575b613b29575b613a83838254615044565b908190558154600160781b600160b81b0319164260781b600160781b600160b81b0316178083559060ff90613ab790615a41565b9160101c1660ff821611613b0c575b5050613ae284519283928352856020840152339583019061474e565b0390a2337f6618f11353f68847dc28cc4b36a04270fab5e356fa35386e6315ba7ff205a6335f80a3005b815462ff0000191660109190911b62ff0000161790558580613ac6565b815462ff0000191662010000178255613a78565b50805415613a73565b60405162461bcd60e51b815260206004820152600d60248201526c145d595cdd08195e1c1a5c9959609a1b6044820152606490fd5b60405162461bcd60e51b8152602060048201526011602482015270145d595cdd081b9bdd081cdd185c9d1959607a1b6044820152606490fd5b60405162461bcd60e51b8152602060048201526011602482015270105b1c9958591e4818dbdb5c1b195d1959607a1b6044820152606490fd5b60405162461bcd60e51b815260206004820152601060248201526f5175657374206e6f742061637469766560801b6044820152606490fd5b346106a15760403660031901126106a157613c3e614717565b336001600160a01b03821603613c5a57610b6a90600435615926565b60405162461bcd60e51b815260206004820152602f60248201527f416363657373436f6e74726f6c3a2063616e206f6e6c792072656e6f756e636560448201526e103937b632b9903337b91039b2b63360891b6064820152608490fd5b346106a15760403660031901126106a15760206110ed613cd5614701565b60243590614ce0565b346106a1575f3660031901126106a157601e546040516001600160a01b039091168152602090f35b346106a15760203660031901126106a1576001600160a01b03613d27614701565b165f52601660205261010060405f206001600160401b036001825492015460405192835260ff8116602084015260ff8160081c16604084015260ff8160101c16606084015263ffffffff8160181c16608084015263ffffffff8160381c1660a084015263ffffffff8160581c1660c084015260781c1660e0820152f35b346106a15760403660031901126106a157600435613dc0614717565b90613dda610b60825f526009602052600160405f20015490565b805f52600960205260405f2060018060a01b0383165f5260205260ff60405f20541615613e0357005b5f8181526009602090815260408083206001600160a01b0395909516808452949091528120805460ff19166001179055339291907f2f8788117e7eff1d82e926ec794901d17c78024a50270940304540a733656f0d9080a4005b346106a157613e6b36614988565b905f52600160205260405f2060405190613e84826148ac565b546001600160a01b03811680835260a09190911c602083015215613ee1575b6001600160601b036020820151169182810292818404149015171561061b5751604080516001600160a01b0390921682526127109092046020820152f35b50604051613eee816148ac565b5f546001600160a01b038116825260a01c6020820152613ea3565b346106a15760203660031901126106a1576004355f52601860205260405f208054613f36600183016148e8565b91613f43600282016148e8565b613f7e60ff600460038501549401541691613f70604051968796875260a0602088015260a087019061474e565b90858203604087015261474e565b916060840152151560808301520390f35b346106a15760203660031901126106a157613fa8614bc8565b506004355f52601560205261010060405f2060ff600160405192613fcb84614875565b805484520154613fe082821660208501614c04565b61ffff8160081c166040840152613fff828260181c1660608501614c10565b818160201c1660808401526001600160401b038160281c1660a08401526001600160401b038160681c1660c084015260a81c16151560e082015261255760405180926147c7565b346106a15760203660031901126106a15760206110ed6004355f526009602052600160405f20015490565b346106a15760403660031901126106a1576001600160a01b03614092614701565b165f52601960205260405f206024355f52602052602060ff60405f2054166040519015158152f35b346106a15760203660031901126106a15760206110ed6126a3614701565b346106a157610b6a6140e936614773565b916140f7610fd6843361551c565b6155eb565b346106a15760203660031901126106a1576001600160a01b0361411d614701565b163381146142e05780156142a8575f818152601c602052604090208054600160401b81101561134f5761415591600182018155614ae8565b81546001600160a01b0360039290921b91821b19163390911b1790556040805161417f82826148c7565b6013815272149959995c9c985b08149959da5cdd195c9959606a1b6020820152825f526016602052815f2090600182019260ff845460101c16158061429f575b61428b575b8254936032850180951161061b57928490558254600160781b600160b81b0319164260781b600160781b600160b81b03161780845585945f5160206160905f395f51905f5294919060ff9061421890615a41565b9160101c1660ff82161161426e575b505061424381519283926032845280602085015283019061474e565b0390a233907f5f1ca2fcc108b751843a763e60d2201f593516109d7dbb1b700468f2d4190bb75f80a3005b815462ff0000191660109190911b62ff0000161790558580614227565b835462ff00001916620100001784556141c4565b508254156141bf565b60405162461bcd60e51b815260206004820152601060248201526f24b73b30b634b2103932b332b93932b960811b6044820152606490fd5b60405162461bcd60e51b815260206004820152601560248201527421b0b73737ba103932b332b9103cb7bab939b2b63360591b6044820152606490fd5b346106a15760203660031901126106a157614336614701565b61433e6151ea565b6001600160a01b0316614352811515614b28565b601e80546001600160a01b031916919091179055005b346106a15760203660031901126106a1576001600160a01b03614389614701565b165f52601f602052602060405f2054604051908152f35b346106a15760403660031901126106a1576143b9614701565b602435906001600160a01b036143ce83615098565b6001600160a01b0390921691168181146144d7578033149081156144b3575b5015614448575f82815260066020526040902080546001600160a01b031916821790556001600160a01b0361442183615098565b167f8c5be1e5ebec7d5bd14f71427d1e84f3dd0314c0f7b2291e5b200ac8c7c3b9255f80a4005b60405162461bcd60e51b815260206004820152603d60248201527f4552433732313a20617070726f76652063616c6c6572206973206e6f7420746f60448201527f6b656e206f776e6572206f7220617070726f76656420666f7220616c6c0000006064820152608490fd5b5f90815260076020908152604080832033845290915290205460ff169050836143ed565b60405162461bcd60e51b815260206004820152602160248201527f4552433732313a20617070726f76616c20746f2063757272656e74206f776e656044820152603960f91b6064820152608490fd5b346106a15760203660031901126106a15760206131d3600435614afd565b346106a1575f3660031901126106a1576040515f6002546145648161483d565b808452906001811690811561261a575060011461458b57610bbd83610ba9818503826148c7565b60025f9081527f405787fa12a823e0f2b7631cc41b3ba8828b3321ca811111fa75cd3aa3bb5ace939250905b8082106145cf57509091508101602001610ba96125ac565b9192600181602092548385880101520191019092916145b7565b346106a1575f3660031901126106a157601d546040516001600160a01b039091168152602090f35b346106a15760203660031901126106a15760043563ffffffff60e01b81168091036106a157602090637965db0b60e01b8114908115614656575b506040519015158152f35b632483248360e11b811491508115614670575b508261464b565b6380ac58cd60e01b8114915081156146bc575b8115614691575b5082614669565b63152a902d60e11b8114915081156146ab575b508261468a565b6301ffc9a760e01b149050826146a4565b635b5e139f60e01b81149150614683565b346106a15760203660031901126106a1576020906001600160a01b036146f1614701565b165f526014825260405f20548152f35b600435906001600160a01b03821682036106a157565b602435906001600160a01b03821682036106a157565b5f5b83811061473e5750505f910152565b818101518382015260200161472f565b906020916147678151809281855285808601910161472d565b601f01601f1916010190565b60609060031901126106a1576004356001600160a01b03811681036106a157906024356001600160a01b03811681036106a1579060443590565b906013821015611d4e5752565b906005821015611d4e5752565b60e08091805184526147e1602082015160208601906147ad565b61ffff6040820151166040850152614801606082015160608601906147ba565b60ff60808201511660808501526001600160401b0360a08201511660a08501526001600160401b0360c08201511660c085015201511515910152565b90600182811c9216801561486b575b602083101461485757565b634e487b7160e01b5f52602260045260245ffd5b91607f169161484c565b61010081019081106001600160401b0382111761134f57604052565b60a081019081106001600160401b0382111761134f57604052565b604081019081106001600160401b0382111761134f57604052565b90601f801991011681019081106001600160401b0382111761134f57604052565b9060405191825f8254926148fb8461483d565b80845293600181169081156149665750600114614922575b50614920925003836148c7565b565b90505f9291925260205f20905f915b81831061494a575050906020614920928201015f614913565b6020919350806001915483858901015201910190918492614931565b90506020925061492094915060ff191682840152151560051b8201015f614913565b60409060031901126106a1576004359060243590565b9181601f840112156106a1578235916001600160401b0383116106a157602083818601950101116106a157565b80548210156149e4575f5260205f209060021b01905f90565b634e487b7160e01b5f52603260045260245ffd5b6001600160401b0360e080928051855260ff602082015116602086015260ff604082015116604086015260ff606082015116606086015263ffffffff608082015116608086015263ffffffff60a08201511660a086015263ffffffff60c08201511660c0860152015116910152565b9181601f840112156106a1578235916001600160401b0383116106a1576020808501948460051b0101116106a157565b6001600160401b03811161134f57601f01601f191660200190565b929192614abe82614a97565b91614acc60405193846148c7565b8294818452818301116106a1578281602093845f960137010152565b80548210156149e4575f5260205f2001905f90565b614b0e614b0982615b9f565b615051565b5f908152600660205260409020546001600160a01b031690565b15614b2f57565b60405162461bcd60e51b815260206004820152600f60248201526e496e76616c6964206164647265737360881b6044820152606490fd5b15614b6d57565b60405162461bcd60e51b815260206004820152602d60248201527f4552433732313a2063616c6c6572206973206e6f7420746f6b656e206f776e6560448201526c1c881bdc88185c1c1c9bdd9959609a1b6064820152608490fd5b60405190614bd582614875565b5f60e0838281528260208201528260408201528260608201528260808201528260a08201528260c08201520152565b6013821015611d4e5752565b6005821015611d4e5752565b15614c2357565b60405162461bcd60e51b815260206004820152600a602482015269139bdd081b1a5cdd195960b21b6044820152606490fd5b9190820391821161061b57565b60405190614c716040836148c7565b60088252671391950814dbdb1960c21b6020830152565b60405190614c976040836148c7565b600a82526913919508109bdd59da1d60b21b6020830152565b63ffffffff60019116019063ffffffff821161061b57565b908160209103126106a1575180151581036106a15790565b601e549091906001600160a01b03163303614e7f576001600160a01b0382165f81815260176020526040902054909190614d1b575050505f90565b60c8810281810460c8148215171561061b57601d546040516370a0823160e01b815260048101859052612710909204946001600160a01b0390911690602083602481855afa80156120595786935f91614e49575b50831115614dae575b50505060407fe85dd36067ec2b664ae60a590f7e91189bdcc51a9b546b6088c344c98bf62b13918151908152846020820152a290565b6025546040516323b872dd60e01b81526001600160a01b039283166004820152911660248201526044810192909252909190602090839060649082905f905af1908115612059577fe85dd36067ec2b664ae60a590f7e91189bdcc51a9b546b6088c344c98bf62b1392604092614e2a575b819350859250614d78565b614e429060203d6020116120525761204481836148c7565b505f614e1f565b9350506020833d602011614e77575b81614e65602093836148c7565b810103126106a1578580935190614d6f565b3d9150614e58565b60405162461bcd60e51b815260206004820152601560248201527413db9b1e481cdd185ada5b99c818dbdb9d1c9858dd605a1b6044820152606490fd5b15614ec357565b60405162461bcd60e51b81526020600482015260096024820152682737ba1037bbb732b960b91b6044820152606490fd5b15614efb57565b60405162461bcd60e51b815260206004820152601160248201527005072696365206d757374206265203e203607c1b6044820152606490fd5b601f8211614f4157505050565b5f5260205f20906020601f840160051c83019310614f79575b601f0160051c01905b818110614f6e575050565b5f8155600101614f63565b9091508190614f5a565b9092916001600160401b03811161134f57614fa881614fa2845461483d565b84614f34565b5f601f8211600114614fe5578190614fd69394955f92614fda5750508160011b915f199060031b1c19161790565b9055565b013590505f80611735565b601f19821694835f5260205f20915f5b87811061502c575083600195969710615013575b505050811b019055565b01355f19600384901b60f8161c191690555f8080615009565b90926020600181928686013581550194019101614ff5565b9190820180921161061b57565b1561505857565b60405162461bcd60e51b8152602060048201526018602482015277115490cdcc8c4e881a5b9d985b1a59081d1bdad95b88125160421b6044820152606490fd5b5f908152600460205260409020546001600160a01b03166150ba811515615051565b90565b156150c457565b60405162461bcd60e51b815260206004820152600d60248201526c24b73b30b634b21037b33332b960991b6044820152606490fd5b1561510057565b60405162461bcd60e51b815260206004820152601060248201526f4f66666572206e6f742061637469766560801b6044820152606490fd5b1561513f57565b60405162461bcd60e51b81526020600482015260136024820152721413d3081d1c985b9cd9995c8819985a5b1959606a1b6044820152606490fd5b91908110156149e45760051b0190565b5f19811461061b5760010190565b90918060409360208452816020850152848401375f828201840152601f01601f1916010190565b6001600160401b03811161134f5760051b60200190565b80518210156149e45760209160051b010190565b335f9081527f5e421a728e346ccaf4d82870ec53d59217a30d3483c6688054a2a67760f2138c602052604090205460ff161561522257565b6152f861522e33615ec3565b6152d8601161525c7fa49807205ce4d355092ef5a8a18f56e8913cf4a201fbe287825b095693c21775615faa565b92603760405194859276020b1b1b2b9b9a1b7b73a3937b61d1030b1b1b7bab73a1604d1b6020850152615298815180926020868801910161472d565b83017001034b99036b4b9b9b4b733903937b6329607d1b838201526152c782518093602060488501910161472d565b01010301601f1981018352826148c7565b60405162461bcd60e51b815260206004820152918291602483019061474e565b0390fd5b5f81815260096020908152604080832033845290915290205460ff16156153205750565b6152f8906152d8601161525c61533533615ec3565b93615faa565b6001600160a01b03165f8181526016602052604090206001810180549293909260101c60ff161580615425575b615411575b8154926014840180941161061b57918390558154600160781b600160b81b0319164260781b600160781b600160b81b0316178083555f5160206160905f395f51905f52936153ef93919060ff906153c390615a41565b9160101c1660ff8216116153f4575b50506040519182916014835260406020840152604083019061474e565b0390a2565b815462ff0000191660109190911b62ff0000161790555f806153d2565b825462ff000019166201000017835561536d565b50815415615368565b6001600160a01b03165f8181526016602052604090206001810180549293909260101c60ff161580615513575b6154ff575b815492600f840180941161061b57918390558154600160781b600160b81b0319164260781b600160781b600160b81b0316178083555f5160206160905f395f51905f52936153ef93919060ff906154b690615a41565b9160101c1660ff8216116154e2575b5050604051918291600f835260406020840152604083019061474e565b815462ff0000191660109190911b62ff0000161790555f806154c5565b825462ff0000191662010000178355615460565b5081541561545b565b906001600160a01b0361552e82615098565b6001600160a01b039093169216828114929190831561556e575b50821561555457505090565b9091506001600160a01b039061556990614afd565b161490565b9092505f52600760205260405f20815f5260205260ff60405f205416915f615548565b1561559857565b60405162461bcd60e51b815260206004820152602560248201527f4552433732313a207472616e736665722066726f6d20696e636f72726563742060448201526437bbb732b960d91b6064820152608490fd5b9061560c6155f884615098565b6001600160a01b0393841693168314615591565b6001600160a01b03169081156156b8576156246157b2565b615640816001600160a01b0361563986615098565b1614615591565b5f83815260066020908152604080832080546001600160a01b03199081169091558484526005835281842080545f1901905585845281842080546001019055868452600490925282208054909116841790557fddf252ad1be2c89b69c2b068fc378daa952ba7f163c4a11628f55a4df523b3ef9080a4565b60405162461bcd60e51b8152602060048201526024808201527f4552433732313a207472616e7366657220746f20746865207a65726f206164646044820152637265737360e01b6064820152608490fd5b3d15615733573d9061571a82614a97565b9161572860405193846148c7565b82523d5f602084013e565b606090565b601e5460405163857184d160e01b602082019081526001600160a01b0393841660248084019190915282525f93849316916157746044826148c7565b51915afa615780615709565b90806157a8575b61579057505f90565b602081519181808201938492010103126106a1575190565b5080511515615787565b60ff600b54166157be57565b60405162461bcd60e51b815260206004820152601060248201526f14185d5cd8589b194e881c185d5cd95960821b6044820152606490fd5b6002600a5414615807576002600a55565b60405162461bcd60e51b815260206004820152601f60248201527f5265656e7472616e637947756172643a207265656e7472616e742063616c6c006044820152606490fd5b8147106158e1575f918291829182916001600160a01b03165af161586e615709565b501561587657565b60405162461bcd60e51b815260206004820152603a60248201527f416464726573733a20756e61626c6520746f2073656e642076616c75652c207260448201527f6563697069656e74206d617920686176652072657665727465640000000000006064820152608490fd5b60405162461bcd60e51b815260206004820152601d60248201527f416464726573733a20696e73756666696369656e742062616c616e63650000006044820152606490fd5b805f52600960205260405f2060018060a01b0383165f5260205260ff60405f205416615950575050565b5f8181526009602090815260408083206001600160a01b0395909516808452949091528120805460ff19169055339291907ff6391f5c32d9c69d2a47ea670b442974b53935d1edc7fd64eb21e047a839171b9080a4565b156159ae57565b60405162461bcd60e51b815260206004820152600f60248201526e151bdad95b881b9bdd08199bdd5b99608a1b6044820152606490fd5b801561061b575f190190565b60ff166005811015615a3b576004811015615a35576003811015615a2f576002811015615a295760011115615a24575f90565b600190565b50600290565b50600390565b50600490565b50600590565b610bb8811015615a3b576105dc811015615a35576102bc811015615a2f5761012c811015615a295760641115615a24575f90565b615a8060ff91615c73565b1660018114615aec5760028114615ade5760038114615ad05760048114615ac257600514615ab55768015af1d78b58c4000090565b68056bc75e2d6310000090565b506804563918244f40000090565b50680340aad21b3b70000090565b5068022b1c8c1227a0000090565b5068015af1d78b58c4000090565b60809060208152603260208201527f4552433732313a207472616e7366657220746f206e6f6e20455243373231526560408201527131b2b4bb32b91034b6b83632b6b2b73a32b960711b60608201520190565b15615b5457565b60405162461bcd60e51b8152806152f860048201615afa565b615b79614b0982615b9f565b5f526008602052615b8c60405f206148e8565b5f604051615b9b6020826148c7565b5290565b604051906331a9108f60e11b82526004820152602081602481305afa9081615bcb575b50615a24575f90565b6020813d602011615c01575b81615be4602093836148c7565b810103126106a157516001600160a01b0381168114615bc2575f80fd5b3d9150615bd7565b6001810190825f528160205260405f2054155f14615c6c578054600160401b81101561134f57615c59615c43826001879401855584614ae8565b819391549060031b91821b915f19901b19161790565b905554915f5260205260405f2055600190565b5050505f90565b6005811015611d4e5760048114615a3b5760038114615a355760028114615a2f57600114615ca057600190565b600290565b91823b15615d8d57615cea926020925f604051809681958294630a85bd0160e11b8452336004850152846024850152604484015260806064840152608483019061474e565b03926001600160a01b03165af15f9181615d48575b50615d3257615d0c615709565b80519081615d2d5760405162461bcd60e51b8152806152f860048201615afa565b602001fd5b6001600160e01b031916630a85bd0160e11b1490565b9091506020813d602011615d85575b81615d64602093836148c7565b810103126106a157516001600160e01b0319811681036106a157905f615cff565b3d9150615d57565b505050600190565b919290803b15615de457615cea935f60209460405196879586948593630a85bd0160e11b855233600486015260018060a01b03166024850152604484015260806064840152608483019061474e565b50505050600190565b906001820191815f528260205260405f20548015155f14615eaa575f19810181811161061b5782545f1981019190821161061b57808203615e75575b50505080548015615e61575f190190615e428282614ae8565b8154905f199060031b1b19169055555f526020525f6040812055600190565b634e487b7160e01b5f52603160045260245ffd5b615e95615e85615c439386614ae8565b90549060031b1c92839286614ae8565b90555f528360205260405f20555f8080615e29565b505050505f90565b9081518110156149e4570160200190565b615ecd602a614a97565b90615edb60405192836148c7565b602a8252615ee9602a614a97565b6020830190601f19013682378251156149e457603090538151600110156149e4576078602183015360295b60018111615f685750615f245790565b606460405162461bcd60e51b815260206004820152602060248201527f537472696e67733a20686578206c656e67746820696e73756666696369656e746044820152fd5b90600f81169060108210156149e457615fa5916f181899199a1a9b1b9c1cb0b131b232b360811b901a615f9b8486615eb2565b5360041c916159e5565b615f14565b615fb46042614a97565b90615fc260405192836148c7565b60428252615fd06042614a97565b6020830190601f19013682378251156149e457603090538151600110156149e4576078602183015360415b6001811161600b5750615f245790565b90600f81169060108210156149e45761603e916f181899199a1a9b1b9c1cb0b131b232b360811b901a615f9b8486615eb2565b615ffb565b1561604a57565b60405162461bcd60e51b815260206004820152601c60248201527f4552433732313a20746f6b656e20616c7265616479206d696e746564000000006044820152606490fdfebc485bf8e37db28d327f937baa2ba28235470b977aa1200fd7eedfd31f24ac45a2646970667358221220623aecc3940942275b72930c827383e6fe7fd2db952d4205e6207554d0745b6964736f6c634300081c00332f8788117e7eff1d82e926ec794901d17c78024a50270940304540a733656f0dec8156718a8372b1db44bb411437d0870f3e3790d4a08526d024ce1b0b668f6b5e421a728e346ccaf4d82870ec53d59217a30d3483c6688054a2a67760f2138c",
  "linkReferences": {},
  "deployedLinkReferences": {}
}