{
  "_format": "hh-sol-artifact-1",
  "contractName": "GameifiedMarketplaceSkills",
  "sourceName": "contracts/Marketplace/GameifiedMarketplaceSkills.sol",
  "abi": [
    {
      "inputs": [
        {
          "internalType": "address",
          "name": "_coreAddress",
          "type": "address"
        }
      ],
      "stateMutability": "nonpayable",
      "type": "constructor"
    },
    {
      "inputs": [],
      "name": "CoreContractNotSet",
      "type": "error"
    },
    {
      "inputs": [],
      "name": "InvalidSkillCount",
      "type": "error"
    },
    {
      "inputs": [],
      "name": "InvalidSkillType",
      "type": "error"
    },
    {
      "inputs": [],
      "name": "MaxActiveSkillsReached",
      "type": "error"
    },
    {
      "inputs": [],
      "name": "NotSkillOwner",
      "type": "error"
    },
    {
      "inputs": [
        {
          "internalType": "uint256",
          "name": "expiryTime",
          "type": "uint256"
        }
      ],
      "name": "SkillNotExpiredYet",
      "type": "error"
    },
    {
      "inputs": [
        {
          "internalType": "enum IStakingIntegration.SkillType",
          "name": "skillType",
          "type": "uint8"
        }
      ],
      "name": "SkillTypeAlreadyActiveDuplicate",
      "type": "error"
    },
    {
      "anonymous": false,
      "inputs": [
        {
          "indexed": false,
          "internalType": "address",
          "name": "account",
          "type": "address"
        }
      ],
      "name": "Paused",
      "type": "event"
    },
    {
      "anonymous": false,
      "inputs": [
        {
          "indexed": true,
          "internalType": "bytes32",
          "name": "role",
          "type": "bytes32"
        },
        {
          "indexed": true,
          "internalType": "bytes32",
          "name": "previousAdminRole",
          "type": "bytes32"
        },
        {
          "indexed": true,
          "internalType": "bytes32",
          "name": "newAdminRole",
          "type": "bytes32"
        }
      ],
      "name": "RoleAdminChanged",
      "type": "event"
    },
    {
      "anonymous": false,
      "inputs": [
        {
          "indexed": true,
          "internalType": "bytes32",
          "name": "role",
          "type": "bytes32"
        },
        {
          "indexed": true,
          "internalType": "address",
          "name": "account",
          "type": "address"
        },
        {
          "indexed": true,
          "internalType": "address",
          "name": "sender",
          "type": "address"
        }
      ],
      "name": "RoleGranted",
      "type": "event"
    },
    {
      "anonymous": false,
      "inputs": [
        {
          "indexed": true,
          "internalType": "bytes32",
          "name": "role",
          "type": "bytes32"
        },
        {
          "indexed": true,
          "internalType": "address",
          "name": "account",
          "type": "address"
        },
        {
          "indexed": true,
          "internalType": "address",
          "name": "sender",
          "type": "address"
        }
      ],
      "name": "RoleRevoked",
      "type": "event"
    },
    {
      "anonymous": false,
      "inputs": [
        {
          "indexed": true,
          "internalType": "uint256",
          "name": "tokenId",
          "type": "uint256"
        },
        {
          "indexed": false,
          "internalType": "enum IStakingIntegration.SkillType",
          "name": "skillType",
          "type": "uint8"
        },
        {
          "indexed": false,
          "internalType": "enum IStakingIntegration.Rarity",
          "name": "rarity",
          "type": "uint8"
        }
      ],
      "name": "SkillAdded",
      "type": "event"
    },
    {
      "anonymous": false,
      "inputs": [
        {
          "indexed": true,
          "internalType": "address",
          "name": "user",
          "type": "address"
        },
        {
          "indexed": true,
          "internalType": "uint256",
          "name": "tokenId",
          "type": "uint256"
        },
        {
          "indexed": false,
          "internalType": "enum IStakingIntegration.SkillType",
          "name": "skillType",
          "type": "uint8"
        }
      ],
      "name": "SkillDeactivatedManually",
      "type": "event"
    },
    {
      "anonymous": false,
      "inputs": [
        {
          "indexed": true,
          "internalType": "address",
          "name": "user",
          "type": "address"
        },
        {
          "indexed": true,
          "internalType": "uint256",
          "name": "tokenId",
          "type": "uint256"
        },
        {
          "indexed": false,
          "internalType": "enum IStakingIntegration.SkillType",
          "name": "skillType",
          "type": "uint8"
        }
      ],
      "name": "SkillExpired",
      "type": "event"
    },
    {
      "anonymous": false,
      "inputs": [
        {
          "indexed": true,
          "internalType": "address",
          "name": "creator",
          "type": "address"
        },
        {
          "indexed": true,
          "internalType": "uint256",
          "name": "tokenId",
          "type": "uint256"
        },
        {
          "indexed": false,
          "internalType": "uint256",
          "name": "skillCount",
          "type": "uint256"
        },
        {
          "indexed": false,
          "internalType": "uint256",
          "name": "totalXP",
          "type": "uint256"
        }
      ],
      "name": "SkillNFTCreated",
      "type": "event"
    },
    {
      "anonymous": false,
      "inputs": [
        {
          "indexed": true,
          "internalType": "address",
          "name": "user",
          "type": "address"
        },
        {
          "indexed": true,
          "internalType": "uint256",
          "name": "tokenId",
          "type": "uint256"
        },
        {
          "indexed": false,
          "internalType": "uint256",
          "name": "newExpiryTime",
          "type": "uint256"
        }
      ],
      "name": "SkillRenewed",
      "type": "event"
    },
    {
      "anonymous": false,
      "inputs": [
        {
          "indexed": true,
          "internalType": "address",
          "name": "user",
          "type": "address"
        },
        {
          "indexed": true,
          "internalType": "uint256",
          "name": "oldTokenId",
          "type": "uint256"
        },
        {
          "indexed": true,
          "internalType": "uint256",
          "name": "newTokenId",
          "type": "uint256"
        },
        {
          "indexed": false,
          "internalType": "enum IStakingIntegration.SkillType",
          "name": "skillType",
          "type": "uint8"
        },
        {
          "indexed": false,
          "internalType": "uint256",
          "name": "switchFee",
          "type": "uint256"
        }
      ],
      "name": "SkillSwitched",
      "type": "event"
    },
    {
      "anonymous": false,
      "inputs": [
        {
          "indexed": true,
          "internalType": "address",
          "name": "user",
          "type": "address"
        },
        {
          "indexed": false,
          "internalType": "enum IStakingIntegration.SkillType",
          "name": "skillType",
          "type": "uint8"
        }
      ],
      "name": "SkillTypeAlreadyActive",
      "type": "event"
    },
    {
      "anonymous": false,
      "inputs": [
        {
          "indexed": false,
          "internalType": "address",
          "name": "account",
          "type": "address"
        }
      ],
      "name": "Unpaused",
      "type": "event"
    },
    {
      "inputs": [],
      "name": "ADMIN_ROLE",
      "outputs": [
        {
          "internalType": "bytes32",
          "name": "",
          "type": "bytes32"
        }
      ],
      "stateMutability": "view",
      "type": "function"
    },
    {
      "inputs": [],
      "name": "DEFAULT_ADMIN_ROLE",
      "outputs": [
        {
          "internalType": "bytes32",
          "name": "",
          "type": "bytes32"
        }
      ],
      "stateMutability": "view",
      "type": "function"
    },
    {
      "inputs": [],
      "name": "coreContractAddress",
      "outputs": [
        {
          "internalType": "address",
          "name": "",
          "type": "address"
        }
      ],
      "stateMutability": "view",
      "type": "function"
    },
    {
      "inputs": [
        {
          "internalType": "uint256",
          "name": "_tokenId",
          "type": "uint256"
        }
      ],
      "name": "deactivateExpiredSkill",
      "outputs": [],
      "stateMutability": "nonpayable",
      "type": "function"
    },
    {
      "inputs": [
        {
          "internalType": "uint256",
          "name": "_tokenId",
          "type": "uint256"
        },
        {
          "internalType": "enum IStakingIntegration.SkillType",
          "name": "_skillType",
          "type": "uint8"
        }
      ],
      "name": "deactivateSkillManually",
      "outputs": [],
      "stateMutability": "nonpayable",
      "type": "function"
    },
    {
      "inputs": [
        {
          "internalType": "address",
          "name": "_user",
          "type": "address"
        }
      ],
      "name": "getActiveSkillsForUser",
      "outputs": [
        {
          "internalType": "uint256[]",
          "name": "",
          "type": "uint256[]"
        }
      ],
      "stateMutability": "view",
      "type": "function"
    },
    {
      "inputs": [
        {
          "internalType": "bytes32",
          "name": "role",
          "type": "bytes32"
        }
      ],
      "name": "getRoleAdmin",
      "outputs": [
        {
          "internalType": "bytes32",
          "name": "",
          "type": "bytes32"
        }
      ],
      "stateMutability": "view",
      "type": "function"
    },
    {
      "inputs": [
        {
          "internalType": "uint256",
          "name": "_tokenId",
          "type": "uint256"
        }
      ],
      "name": "getSkillExpiryTime",
      "outputs": [
        {
          "internalType": "uint256",
          "name": "",
          "type": "uint256"
        }
      ],
      "stateMutability": "view",
      "type": "function"
    },
    {
      "inputs": [
        {
          "internalType": "uint256",
          "name": "_tokenId",
          "type": "uint256"
        }
      ],
      "name": "getSkillNFT",
      "outputs": [
        {
          "components": [
            {
              "internalType": "address",
              "name": "creator",
              "type": "address"
            },
            {
              "components": [
                {
                  "internalType": "enum IStakingIntegration.SkillType",
                  "name": "skillType",
                  "type": "uint8"
                },
                {
                  "internalType": "enum IStakingIntegration.Rarity",
                  "name": "rarity",
                  "type": "uint8"
                },
                {
                  "internalType": "uint256",
                  "name": "level",
                  "type": "uint256"
                },
                {
                  "internalType": "uint256",
                  "name": "createdAt",
                  "type": "uint256"
                },
                {
                  "internalType": "uint256",
                  "name": "expiresAt",
                  "type": "uint256"
                }
              ],
              "internalType": "struct GameifiedMarketplaceSkills.Skill[]",
              "name": "skills",
              "type": "tuple[]"
            },
            {
              "internalType": "uint256",
              "name": "createdAt",
              "type": "uint256"
            },
            {
              "internalType": "uint256",
              "name": "basePrice",
              "type": "uint256"
            }
          ],
          "internalType": "struct GameifiedMarketplaceSkills.SkillNFT",
          "name": "",
          "type": "tuple"
        }
      ],
      "stateMutability": "view",
      "type": "function"
    },
    {
      "inputs": [
        {
          "internalType": "uint256",
          "name": "_tokenId",
          "type": "uint256"
        }
      ],
      "name": "getSkillNFTSkills",
      "outputs": [
        {
          "components": [
            {
              "internalType": "enum IStakingIntegration.SkillType",
              "name": "skillType",
              "type": "uint8"
            },
            {
              "internalType": "enum IStakingIntegration.Rarity",
              "name": "rarity",
              "type": "uint8"
            },
            {
              "internalType": "uint256",
              "name": "level",
              "type": "uint256"
            },
            {
              "internalType": "uint256",
              "name": "createdAt",
              "type": "uint256"
            },
            {
              "internalType": "uint256",
              "name": "expiresAt",
              "type": "uint256"
            }
          ],
          "internalType": "struct GameifiedMarketplaceSkills.Skill[]",
          "name": "",
          "type": "tuple[]"
        }
      ],
      "stateMutability": "view",
      "type": "function"
    },
    {
      "inputs": [
        {
          "internalType": "address",
          "name": "_user",
          "type": "address"
        },
        {
          "internalType": "enum IStakingIntegration.SkillType",
          "name": "_skillType",
          "type": "uint8"
        }
      ],
      "name": "getSkillSwitchInfo",
      "outputs": [
        {
          "internalType": "uint256",
          "name": "activeTokenId",
          "type": "uint256"
        },
        {
          "internalType": "uint256",
          "name": "expiresAt",
          "type": "uint256"
        },
        {
          "internalType": "bool",
          "name": "canSwitch",
          "type": "bool"
        }
      ],
      "stateMutability": "view",
      "type": "function"
    },
    {
      "inputs": [
        {
          "internalType": "enum IStakingIntegration.SkillType",
          "name": "_skillType",
          "type": "uint8"
        }
      ],
      "name": "getSkillTypeCount",
      "outputs": [
        {
          "internalType": "uint256",
          "name": "",
          "type": "uint256"
        }
      ],
      "stateMutability": "view",
      "type": "function"
    },
    {
      "inputs": [
        {
          "internalType": "address",
          "name": "_user",
          "type": "address"
        }
      ],
      "name": "getUserSkillNFTs",
      "outputs": [
        {
          "internalType": "uint256[]",
          "name": "",
          "type": "uint256[]"
        }
      ],
      "stateMutability": "view",
      "type": "function"
    },
    {
      "inputs": [
        {
          "internalType": "address",
          "name": "_user",
          "type": "address"
        },
        {
          "internalType": "enum IStakingIntegration.SkillType",
          "name": "_skillType",
          "type": "uint8"
        }
      ],
      "name": "getUserSkillsByType",
      "outputs": [
        {
          "internalType": "uint256[]",
          "name": "tokenIds",
          "type": "uint256[]"
        },
        {
          "internalType": "uint8[]",
          "name": "statuses",
          "type": "uint8[]"
        }
      ],
      "stateMutability": "view",
      "type": "function"
    },
    {
      "inputs": [
        {
          "internalType": "bytes32",
          "name": "role",
          "type": "bytes32"
        },
        {
          "internalType": "address",
          "name": "account",
          "type": "address"
        }
      ],
      "name": "grantRole",
      "outputs": [],
      "stateMutability": "nonpayable",
      "type": "function"
    },
    {
      "inputs": [
        {
          "internalType": "bytes32",
          "name": "role",
          "type": "bytes32"
        },
        {
          "internalType": "address",
          "name": "account",
          "type": "address"
        }
      ],
      "name": "hasRole",
      "outputs": [
        {
          "internalType": "bool",
          "name": "",
          "type": "bool"
        }
      ],
      "stateMutability": "view",
      "type": "function"
    },
    {
      "inputs": [
        {
          "internalType": "uint256",
          "name": "",
          "type": "uint256"
        }
      ],
      "name": "isFirstSkillFree",
      "outputs": [
        {
          "internalType": "bool",
          "name": "",
          "type": "bool"
        }
      ],
      "stateMutability": "view",
      "type": "function"
    },
    {
      "inputs": [
        {
          "internalType": "uint256",
          "name": "_tokenId",
          "type": "uint256"
        }
      ],
      "name": "isSkillExpired",
      "outputs": [
        {
          "internalType": "bool",
          "name": "",
          "type": "bool"
        }
      ],
      "stateMutability": "view",
      "type": "function"
    },
    {
      "inputs": [],
      "name": "pause",
      "outputs": [],
      "stateMutability": "nonpayable",
      "type": "function"
    },
    {
      "inputs": [],
      "name": "paused",
      "outputs": [
        {
          "internalType": "bool",
          "name": "",
          "type": "bool"
        }
      ],
      "stateMutability": "view",
      "type": "function"
    },
    {
      "inputs": [
        {
          "internalType": "uint256",
          "name": "_tokenId",
          "type": "uint256"
        },
        {
          "internalType": "enum IStakingIntegration.SkillType[]",
          "name": "_skillTypes",
          "type": "uint8[]"
        },
        {
          "internalType": "enum IStakingIntegration.Rarity[]",
          "name": "_rarities",
          "type": "uint8[]"
        },
        {
          "internalType": "uint256[]",
          "name": "_levels",
          "type": "uint256[]"
        },
        {
          "internalType": "uint256",
          "name": "_basePrice",
          "type": "uint256"
        }
      ],
      "name": "registerSkillsForNFT",
      "outputs": [
        {
          "internalType": "uint256",
          "name": "",
          "type": "uint256"
        }
      ],
      "stateMutability": "nonpayable",
      "type": "function"
    },
    {
      "inputs": [
        {
          "internalType": "uint256",
          "name": "_tokenId",
          "type": "uint256"
        }
      ],
      "name": "renewSkill",
      "outputs": [],
      "stateMutability": "payable",
      "type": "function"
    },
    {
      "inputs": [
        {
          "internalType": "bytes32",
          "name": "role",
          "type": "bytes32"
        },
        {
          "internalType": "address",
          "name": "account",
          "type": "address"
        }
      ],
      "name": "renounceRole",
      "outputs": [],
      "stateMutability": "nonpayable",
      "type": "function"
    },
    {
      "inputs": [
        {
          "internalType": "bytes32",
          "name": "role",
          "type": "bytes32"
        },
        {
          "internalType": "address",
          "name": "account",
          "type": "address"
        }
      ],
      "name": "revokeRole",
      "outputs": [],
      "stateMutability": "nonpayable",
      "type": "function"
    },
    {
      "inputs": [
        {
          "internalType": "address",
          "name": "_stakingAddress",
          "type": "address"
        }
      ],
      "name": "setStakingContract",
      "outputs": [],
      "stateMutability": "nonpayable",
      "type": "function"
    },
    {
      "inputs": [
        {
          "internalType": "uint256",
          "name": "",
          "type": "uint256"
        }
      ],
      "name": "skillNFTs",
      "outputs": [
        {
          "internalType": "address",
          "name": "creator",
          "type": "address"
        },
        {
          "internalType": "uint256",
          "name": "createdAt",
          "type": "uint256"
        },
        {
          "internalType": "uint256",
          "name": "basePrice",
          "type": "uint256"
        }
      ],
      "stateMutability": "view",
      "type": "function"
    },
    {
      "inputs": [
        {
          "internalType": "enum IStakingIntegration.SkillType",
          "name": "",
          "type": "uint8"
        }
      ],
      "name": "skillTypeCount",
      "outputs": [
        {
          "internalType": "uint256",
          "name": "",
          "type": "uint256"
        }
      ],
      "stateMutability": "view",
      "type": "function"
    },
    {
      "inputs": [],
      "name": "stakingContractAddress",
      "outputs": [
        {
          "internalType": "address",
          "name": "",
          "type": "address"
        }
      ],
      "stateMutability": "view",
      "type": "function"
    },
    {
      "inputs": [
        {
          "internalType": "bytes4",
          "name": "interfaceId",
          "type": "bytes4"
        }
      ],
      "name": "supportsInterface",
      "outputs": [
        {
          "internalType": "bool",
          "name": "",
          "type": "bool"
        }
      ],
      "stateMutability": "view",
      "type": "function"
    },
    {
      "inputs": [
        {
          "internalType": "uint256",
          "name": "_oldTokenId",
          "type": "uint256"
        },
        {
          "internalType": "uint256",
          "name": "_newTokenId",
          "type": "uint256"
        },
        {
          "internalType": "enum IStakingIntegration.SkillType",
          "name": "_skillType",
          "type": "uint8"
        }
      ],
      "name": "switchSkill",
      "outputs": [],
      "stateMutability": "payable",
      "type": "function"
    },
    {
      "inputs": [],
      "name": "unpause",
      "outputs": [],
      "stateMutability": "nonpayable",
      "type": "function"
    },
    {
      "inputs": [
        {
          "internalType": "address",
          "name": "",
          "type": "address"
        },
        {
          "internalType": "enum IStakingIntegration.SkillType",
          "name": "",
          "type": "uint8"
        }
      ],
      "name": "userActiveSkillsByType",
      "outputs": [
        {
          "internalType": "uint256",
          "name": "",
          "type": "uint256"
        }
      ],
      "stateMutability": "view",
      "type": "function"
    },
    {
      "inputs": [
        {
          "internalType": "address",
          "name": "",
          "type": "address"
        },
        {
          "internalType": "enum IStakingIntegration.SkillType",
          "name": "",
          "type": "uint8"
        }
      ],
      "name": "userSkillNFTId",
      "outputs": [
        {
          "internalType": "uint256",
          "name": "",
          "type": "uint256"
        }
      ],
      "stateMutability": "view",
      "type": "function"
    },
    {
      "inputs": [
        {
          "internalType": "address",
          "name": "",
          "type": "address"
        },
        {
          "internalType": "uint256",
          "name": "",
          "type": "uint256"
        }
      ],
      "name": "userSkillNFTs",
      "outputs": [
        {
          "internalType": "uint256",
          "name": "",
          "type": "uint256"
        }
      ],
      "stateMutability": "view",
      "type": "function"
    }
  ],
  "bytecode": "0x60806040523461002a576100196100146100bf565b610149565b60405161370061028d823961370090f35b5f80fd5b634e487b7160e01b5f52604160045260245ffd5b90601f01601f191681019081106001600160401b0382111761006357604052565b61002e565b9061007c61007560405190565b9283610042565b565b6001600160a01b031690565b90565b6001600160a01b0381160361002a57565b9050519061007c8261008d565b9060208282031261002a5761008a9161009e565b61008a61398d803803806100d281610068565b9283398101906100ab565b61008a61008a61008a9290565b61008a5f6100dd565b906001600160a01b03905b9181191691161790565b61008a9061007e906001600160a01b031682565b61008a90610108565b61008a9061011c565b9061013e61008a61014592610125565b82546100f3565b9055565b61007c906101556101b7565b6101676101606100ea565b33906101c2565b6101907fa49807205ce4d355092ef5a8a18f56e8913cf4a201fbe287825b095693c21775610160565b600961012e565b9060ff906100fe565b906101b061008a61014592151590565b8254610197565b61007c5f60016101a0565b9061007c916101e4565b905b5f5260205260405f2090565b906101ce90610125565b6101f56101f1838361026d565b1590565b6101fd575050565b61021c6001610217845f61021186826101cc565b016101da565b6101a0565b61023661023061022a339390565b93610125565b91610125565b917f2f8788117e7eff1d82e926ec794901d17c78024a50270940304540a733656f0d61026160405190565b5f90a4565b5460ff1690565b61008a915f610211610287936102805f90565b50826101cc565b61026656fe60806040526004361015610011575f80fd5b5f3560e01c806301ffc9a71461023057806313f487ec1461022b5780631d5295bd14610226578063248a9ca3146102215780632f2ff15d1461021c578063310e1b1a146102175780633535f48b1461021257806336568abe1461020d57806336e517b7146102085780633f4ba83a146102035780634fa2d3d7146101fe57806354951e48146101f95780635c975abb146101f457806375b238fc146101ef5780638456cb59146101ea578063845952d7146101e55780638d09af25146101e05780638e3ac9c2146101db57806391413334146101d657806391d14854146101d157806393e1124e146101cc578063978196c9146101c75780639d2e99e7146101c25780639dd373b9146101bd578063a217fddf146101b8578063a5313547146101b3578063a5cad937146101ae578063a7edd012146101a9578063bd07aabf146101a4578063cddc0f101461019f578063d547741f1461019a578063ede8a1f614610195578063f192efc0146101905763f75826b30361023557610d11565b610cf5565b610cc9565b610c94565b610c6a565b610bd5565b610ba3565b610b3d565b610b13565b610af8565b610acf565b610aa8565b610978565b6108da565b6108aa565b610896565b610852565b61083a565b61081f565b6107c2565b61079c565b610781565b610756565b610714565b61064b565b610638565b61061f565b6105ea565b610591565b6104b8565b610469565b61041b565b6103c7565b610276565b5f80fd5b6001600160e01b031981165b0361023557565b9050359061025982610239565b565b906020828203126102355761026f9161024c565b90565b9052565b34610235576102a361029161028c36600461025b565b610d2c565b60405191829182901515815260200190565b0390f35b6001600160a01b031690565b6001600160a01b038116610245565b90503590610259826102b3565b6013111561023557565b90503590610259826102cf565b91906040838203126102355761026f90602061030282866102c2565b94016102d9565b0190565b9061032d61032661031c845190565b8084529260200190565b9260200190565b905f5b81811061033d5750505090565b90919261035a6103536001928651815260200190565b9460200190565b929101610330565b9061037161032661031c845190565b905f5b8181106103815750505090565b90919261039a610353600192865160ff16815260200190565b929101610374565b604080825261026f9391926103b99184019061030d565b916020818403910152610362565b34610235576103e06103da3660046102e6565b90610f0e565b906102a36103ed60405190565b928392836103a2565b906020828203126102355761026f916102c2565b602080825261026f9291019061030d565b34610235576102a36104366104313660046103f6565b611173565b6040519182918261040a565b80610245565b9050359061025982610442565b906020828203126102355761026f91610448565b34610235576102a361048461047f366004610455565b611190565b6040515b9182918290815260200190565b91906040838203126102355761026f9060206104b18286610448565b94016102c2565b34610235576104d16104cb366004610495565b906111cd565b604051005b909182601f830112156102355781359167ffffffffffffffff831161023557602001926020830284011161023557565b9060a0828203126102355761051b8183610448565b92602083013567ffffffffffffffff8111610235578261053c9185016104d6565b929093604081013567ffffffffffffffff8111610235578261055f9183016104d6565b929093606083013567ffffffffffffffff8111610235578261058860809461026f9387016104d6565b94909501610448565b34610235576102a36104846105a7366004610506565b96959095949194939293611e13565b5f91031261023557565b61026f916008021c6001600160a01b031690565b9061026f91546105c0565b61026f5f600a6105d4565b34610235576105fa3660046105b6565b6102a36106056105df565b604051918291826001600160a01b03909116815260200190565b34610235576104d1610632366004610495565b90611e88565b6104d1610646366004610455565b6121b2565b346102355761065b3660046105b6565b6104d16121dc565b6102a761026f61026f926001600160a01b031690565b61026f90610663565b61026f90610679565b9061069590610682565b5f5260205260405f2090565b634e487b7160e01b5f52602160045260245ffd5b601311156106bf57565b6106a1565b90610259826106b5565b61026f906106c4565b90610695906106ce565b61026f916008021c81565b9061026f91546106e1565b61070f61026f9261070a5f93600361068b565b6106d7565b6106ec565b34610235576102a361048461072a3660046102e6565b906106f7565b90815260608101939261025992909160409161074e905b6020830152565b019015159052565b34610235576102a361077261076c3660046102e6565b906121e4565b60405191939193849384610730565b34610235576107913660046105b6565b6102a361029161230b565b34610235576107ac3660046105b6565b6102a35f5160206136ab5f395f51905f52610484565b34610235576107d23660046105b6565b6104d1612336565b61026f61026f61026f9290565b90610695906107da565b61026f916008021c5b60ff1690565b9061026f91546107f1565b5f61081a61026f9260086107e7565b610800565b34610235576102a3610291610835366004610455565b61080b565b34610235576104d161084d366004610455565b612380565b34610235576102a3610291610868366004610455565b6124b0565b90916060828403126102355761026f6108868484610448565b9360406103028260208701610448565b6104d16108a436600461086d565b91612ad7565b34610235576102a36102916108c0366004610495565b90612ae2565b906020828203126102355761026f916102d9565b34610235576102a36104846108f03660046108c6565b612b07565b91906040838203126102355761026f90602061091182866102c2565b9401610448565b634e487b7160e01b5f52603260045260245ffd5b805482101561094c576109446001915f5260205f2090565b910201905f90565b610918565b61095c90600661068b565b80548210156102355761026f916109729161092c565b906106ec565b34610235576102a361048461098e3660046108f5565b90610951565b610272906106ce565b600511156106bf57565b906102598261099d565b61026f906109a7565b610272906109b1565b90608080610259936109db5f8201515f860190610994565b6109ed602082015160208601906109ba565b6109fc60408201516040860152565b610a0b60608201516060860152565b0151910152565b906103098160a0936109c3565b90610a2e61032661031c845190565b905f5b818110610a3e5750505090565b909192610a516103536001928651610a12565b929101610a31565b80516001600160a01b031682529061026f90606080610a876080840160208701518582036020870152610a1f565b94610a0b60408201516040860152565b602080825261026f92910190610a59565b34610235576102a3610ac3610abe366004610455565b612c78565b60405191829182610a97565b34610235576104d1610ae23660046103f6565b612d1c565b61026f5f6107da565b61026f610ae7565b3461023557610b083660046105b6565b6102a3610484610af0565b34610235576102a3610484610b29366004610455565b612d25565b5f61070f61026f9260076106d7565b34610235576102a3610484610b533660046108c6565b610b2e565b90610b6761032661031c845190565b905f5b818110610b775750505090565b909192610b8a6103536001928651610a12565b929101610b6a565b602080825261026f92910190610b58565b34610235576102a3610bbe610bb9366004610455565b612d38565b60405191829182610b92565b61026f5f60096105d4565b3461023557610be53660046105b6565b6102a3610605610bca565b61026f906102a7565b61026f9054610bf0565b61026f9081565b61026f9054610c03565b610c1f9060056107e7565b610c2881610bf9565b9161026f6003610c3a60028501610c0a565b9301610c0a565b6001600160a01b039091168152606081019392610259929091604091610c6690610747565b0152565b34610235576102a3610c85610c80366004610455565b610c14565b60405191939193849384610c41565b34610235576104d1610ca7366004610495565b90612d6a565b91906040838203126102355761026f9060206103028286610448565b34610235576104d1610cdc366004610cad565b90612f93565b61070f61026f9261070a5f93600461068b565b34610235576102a3610484610d0b3660046102e6565b90610ce2565b34610235576102a3610436610d273660046103f6565b612f9d565b637965db0b60e01b6001600160e01b0319821614908115610d4b575090565b61026f91506001600160e01b0319166301ffc9a760e01b1490565b90610d7f610d7561031c845490565b925f5260205f2090565b905f5b818110610d8f5750505090565b909192610db3610dac600192610da487610c0a565b815260200190565b9460010190565b929101610d82565b9061026f91610d66565b634e487b7160e01b5f52604160045260245ffd5b90601f01601f1916810190811067ffffffffffffffff821117610dfb57604052565b610dc5565b90610259610e1a92610e1160405190565b93848092610dbb565b0383610dd9565b61026f90610e00565b90610e33825190565b81101561094c576020809102010190565b805482101561094c576109446004915f5260205f2090565b61026f906107fa565b61026f9054610e5c565b634e487b7160e01b5f52601160045260245ffd5b5f198114610e915760010190565b610e6f565b90610259610ea360405190565b9283610dd9565b67ffffffffffffffff8111610dfb5760208091020190565b90610ed4610ecf83610eaa565b610e96565b918252565b369037565b90610259610ef4610eee84610ec2565b93610eaa565b601f190160208401610ed9565b6107fa61026f61026f9290565b9091610f23610f1e83600661068b565b610e21565b92610f2d5f6107da565b9182935b610f3c61026f875190565b851015610fe857610f6261026f6005610f5c610f58898b610e2a565b5190565b906107e7565b95610f6c5f6107da565b60018801610f7b61026f825490565b821015610fd8575f610f9083610f9793610e44565b5001610e65565b610fa9610fa3876106c4565b916106c4565b14610fb657600101610f6c565b509295509392610fc8610fcf91610e83565b9360010190565b93949194610f31565b505092955093610fcf9060010190565b9193509391610ff681610ede565b926110018492610ede565b91829561102461101f8261070a6110175f6107da565b98600361068b565b610c0a565b9185975b61103361026f865190565b8910156111675761104f61026f6005610f5c610f588d8a610e2a565b995f9261105b5f6107da565b60018d0161106a61026f825490565b82101561115a575f610f908361107f93610e44565b61108b610fa3886106c4565b146110985760010161105b565b50939a509890915060015b6110b5575b6001015b97989190611028565b9561111a6110ac916110da6110cd610f588b8a610e2a565b6110d7838d610e2a565b52565b6110e7610f588a89610e2a565b86906110f2565b9190565b03611122576111156111035f610f01565b61110d838b610e2a565b9060ff169052565b610e83565b9690506110a8565b61113a61026f611135610f588c8b610e2a565b613086565b421061114d576111156111036002610f01565b6111156111036001610f01565b5050939a509890916110a3565b97509795505050505050565b610f1e61026f91611182606090565b50600661068b565b90610695565b60016111a761026f926111a05f90565b505f61118a565b01610c0a565b90610259916111c36111be82611190565b6130ca565b90610259916130d5565b90610259916111ad565b9061026f98979695949392916111eb613192565b6116ce565b6102a761026f61026f9290565b61026f906111f0565b1561120d57565b60405162461bcd60e51b815260206004820152600c60248201526b10dbdc99481b9bdd081cd95d60a21b604482015280606481015b0390fd5b1561124d57565b60405162461bcd60e51b8152602060048201526013602482015272125b9d985b1a59081cdada5b1b0818dbdd5b9d606a1b6044820152606490fd5b1561128f57565b60405162461bcd60e51b815260206004820152600f60248201526e098cadccee8d040dad2e6dac2e8c6d608b1b6044820152606490fd5b61026f60036107da565b156112d757565b60405162461bcd60e51b815260206004820152601960248201527f4d61782061637469766520736b696c6c732072656163686564000000000000006044820152606490fd5b91908201809211610e9157565b919081101561094c576020020190565b3561026f816102cf565b1561134a57565b60405162461bcd60e51b815260206004820152601460248201527f4475706c696361746520736b696c6c20747970650000000000000000000000006044820152606490fd5b1561139657565b60405162461bcd60e51b8152602060048201526012602482015271496e76616c696420736b696c6c207479706560701b6044820152606490fd5b6020810192916102599190610994565b906001600160a01b03905b9181191691161790565b9061140561026f61140c92610682565b82546113e0565b9055565b905f19906113eb565b9061142961026f61140c926107da565b8254611410565b61026f62278d006107da565b6005111561023557565b3561026f8161143c565b3561026f81610442565b61026f60a0610e96565b90610272906106c4565b90610272906109a7565b634e487b7160e01b5f525f60045260245ffd5b61026f90516106c4565b9060ff906113eb565b906114ae61026f61140c926106ce565b8254611495565b61026f90516109a7565b9061ff009060081b6113eb565b906114dc61026f61140c926109b1565b82546114bf565b6102599160039061154c90608090611519856115076115018461148b565b8261149e565b611513602084016114b5565b906114cc565b611530611527604083015190565b60018701611419565b61154761153e606083015190565b60028701611419565b015190565b9101611419565b919061156257610259916114e3565b611478565b90815491600160401b831015610dfb578261158a91600161025995018155610e44565b90611553565b81810292918115918404141715610e9157565b906114ae61026f61140c92151590565b9160206102599294936115cd60408201965f830190610994565b01906109ba565b915f1960089290920291821b911b6113eb565b91906115f861026f61140c936107da565b9083546115d4565b90815491600160401b831015610dfb57826116239160016102599501815561092c565b906115e7565b6001600160a01b0390911681526040810192916102599160200152565b6040513d5f823e3d90fd5b61165e61026f61026f9290565b61ffff1690565b61167261026f61026f9290565b6106c4565b6116b1610259946116a76060949897956116a0608086019a5f8701906001600160a01b03169052565b6020850152565b6040830190610994565b019061ffff169052565b9081526040810192916102599160200152565b98929496979893909193506116e36009610bf9565b916117136116f05f6111fd565b9361170c6001600160a01b0386165b916001600160a01b031690565b1415611206565b859361171e5f6107da565b851180611dfb575b61172f90611246565b61173b895b8614611288565b6117448a611734565b61174d5f6107da565b98895b600661176661026f611762338461068b565b5490565b8210156117b35761026f6111356109728461178561178a95339061068b565b61092c565b421061179e575b600101611750565b611750565b996117ab61179991610e83565b9a9050611791565b50509295986117da909b9295989b9a9194979a6117d46110ee61026f6112c6565b106112d0565b6117e35f6107da565b8881101561194f5760018a828d838d6118046117fe836107da565b8561131c565b915b6118f9575b50506118669350611832828261184f61183c61183761183289986118609861101f9b611329565b611339565b6106ce565b6118496110ee60156107da565b1061138f565b61185a33600361068b565b94611329565b906106d7565b6118726110ee5f6107da565b0361187f576001016117e3565b6118f56118e2611832838e8e61189a6118325f988484611329565b7f8e81a6b62ca13c48a33846156d48db394e770a1f9553b166f964b3c0ac91457a6118da6118c733610682565b926118d160405190565b918291826113d0565b0390a2611329565b634a41725760e11b8352600483016113d0565b035ffd5b90939290841015611947578261192f610fa36116726118328887611929611832611936998e9d9b61193c9d611329565b96611329565b1415611343565b60010190565b8d84918d8f94611806565b91928d61180b565b50919497969299909395989961198d61196c61026f8960056107e7565b9561197733886113f5565b6119844260028901611419565b60038701611419565b6119965f6107da565b936119a86119a2611430565b4261131c565b94805b82821015611be75790808c8f9a8c838f9d8a9998978f859f9e9d9c8f918f8f938991899588958a8e816119df818b8b611329565b6119e890611339565b976119f292611329565b6119fb90611446565b92611a0592611329565b611a0e90611450565b90611a1761145a565b94611a229086611464565b611a2f906020860161146e565b6040840152611a3f426060850152565b608083015260010190611a5191611567565b6007611a5e878484611329565b611a6790611339565b611a70916106d7565b611a7981610c0a565b611a8290610e83565b611a8b91611419565b82611a9733600361068b565b611aa2888585611329565b611aab90611339565b611ab4916106d7565b90611abe91611419565b85611aca33600461068b565b92611ad492611329565b611add90611339565b611ae6916106d7565b90611af091611419565b611af95f6107da565b8303611ba357611b0a8460086107e7565b6001611b15916115a3565b611b1f600f6107da565b611b289161131c565b9e611b96977f9b3f65d29aeb401bfee016fe6ee834d6f484bc7eddf7c981ec065d0ba8289ad395611b66611832611b7796611b7196611b6c96611329565b97611329565b611446565b916107da565b92611b8d611b8460405190565b928392836115b3565b0390a260010190565b90919293949596976119ab565b611bae838688611329565b611bb790611446565b611bc0906109b1565b611bca60056107da565b611bd391611590565b611bdd600a6107da565b90611b1f9161131c565b99989b9450509893509994935050611c0c88611c0761026f33600661068b565b611600565b611c21611c1c611c1c6009610bf9565b610682565b803b15610235575f611c3260405190565b918290632f7e13eb60e11b8252818381611c508d3360048401611629565b03925af18015611dcf57611de6575b50611c7d6116ff611c70600a610bf9565b926001600160a01b031690565b03611cd7575b505050507f19755b80f038339a1001e8fd8b922efd79bc678c2c12bfc7d50d14c8726f8679611cb133610682565b91611cbb856107da565b93611cd1611cc860405190565b928392836116bb565b0390a390565b91939594611ce85f989294986107da565b81811015611dd45780611d35611d30611d21611d11611d0c611b6c8f978c8c611329565b6109b1565b611d1b60026107da565b90611590565b611d2b60056107da565b61131c565b611651565b611d5e611d59611837611832858c611d53611c1c611c1c600a610bf9565b98611329565b611665565b90833b1561023557611d92935f92838c611d7760405190565b97889586948593630c4e865560e21b85523360048601611677565b03925af1918215611dcf57611dad92611db2575b5060010190565b611ce8565b611dc9905f611dc18183610dd9565b8101906105b6565b5f611da6565b611646565b5094959350955050505f808080611c83565b611df5905f611dc18183610dd9565b5f611c5f565b5061172f611e0960056107da565b8611159050611726565b61026f97969594939291905f6111d7565b15611e2b57565b60405162461bcd60e51b815260206004820152602f60248201527f416363657373436f6e74726f6c3a2063616e206f6e6c792072656e6f756e636560448201526e103937b632b9903337b91039b2b63360891b6064820152608490fd5b6102599190611ea9611e99336102a7565b6001600160a01b03841614611e24565b6131a5565b61025990611eba613192565b611fbd565b15611ec657565b60405162461bcd60e51b81526020600482015260096024820152682737ba1037bbb732b960b91b6044820152606490fd5b15611efe57565b60405162461bcd60e51b8152602060048201526012602482015271536b696c6c207374696c6c2061637469766560701b6044820152606490fd5b634e487b7160e01b5f52601260045260245ffd5b8115611f56570490565b611f38565b15611f6257565b60405162461bcd60e51b815260206004820152601460248201527f496e73756666696369656e74207061796d656e740000000000000000000000006044820152606490fd5b61026f9060081c6107fa565b61026f9054611fa7565b90600591611fcf61026f8260056107e7565b91611feb611fdc84610bf9565b611fe5336116ff565b14611ebf565b612002611ffa61026f84613086565b421015611ef7565b61200e60038401610c0a565b9161203361202b61026f60029561202560026107da565b90611f4c565b341015611f5b565b61203e6119a2611430565b936120485f6107da565b6001820161205761026f825490565b82101561207e57906119368760036120728461207996610e44565b5001611419565b612048565b50509194909261208e600a610bf9565b61209d6116ff6102a75f6111fd565b036120eb575b5050507f20caca271ed23e340f745b19f7a0a0b1fa92c5dfaab7694caeb4e7349e4671d46120e66120dc6120d633610682565b936107da565b9361048860405190565b0390a3565b909193946120f85f6107da565b600186019061210861026f835490565b8110156121a357612142611d30612139612130611d0c5f6121298789610e44565b5001611fb3565b611d1b886107da565b611d2b886107da565b612166611d596118375f610f9086612160611c1c611c1c600a610bf9565b98610e44565b90833b156102355761217f935f92838a611d7760405190565b03925af1908115611dcf5760019261219c92611db2575060010190565b90506120f8565b505094935050505f80806120a3565b61025990611eae565b6121d15f5160206136ab5f395f51905f526130ca565b610259610259613248565b6102596121bb565b5f906121f861101f8461070a84600361068b565b93846122066110ee5f6107da565b146122f557612222610f1e61221a87613086565b93600661068b565b61222b5f6107da565b61223661026f835190565b8110156122e25761224a610f588284610e2a565b87900361225a575b60010161222b565b939461227161026f6005610f5c610f588987610e2a565b9561227b5f6107da565b6001880161228a61026f825490565b8210156122e9575f610f908361229f93610e44565b6122ab610fa3856106c4565b146122b9575b60010161227b565b6122cc61026f611135610f588a88610e2a565b4210156122b15750509450600193845b15612252575b5050909250565b505080959196506122dc565b93505050506123035f6107da565b908190600190565b61026f6001610e65565b61232b5f5160206136ab5f395f51905f526130ca565b610259610259613290565b610259612315565b1561234557565b60405162461bcd60e51b815260206004820152601360248201527214dada5b1b08139195081b9bdd08199bdd5b99606a1b6044820152606490fd5b61238e61026f8260056107e7565b6123b061239a82610bf9565b6123a96116ff6102a75f6111fd565b141561233e565b6123bf611ffa61026f84613086565b6123c85f6107da565b60018201906123d861026f835490565b8110156124aa576123f05f610f908361245f95610e44565b61241f611c1c85600361241261101f8661070a61240c86610bf9565b8561068b565b8914612464575b50610bf9565b7fcd0a7e6e5bd57a0d6455d029e6c672cc55e5520e660f833fde5701702dd1e6de61245661244c886107da565b936118d160405190565b0390a360010190565b6123c8565b61070a6124926124a49261248d8861247b5f6107da565b94859361248789610bf9565b9061068b565b611419565b61248d8661070a600461248787610bf9565b5f612419565b50505050565b61026f6124c4916124be5f90565b50613086565b42101590565b9061025992916124d8613192565b61270b565b156124e457565b60405162461bcd60e51b815260206004820152601460248201527f4e6f74206f776e6572206f66206f6c64204e46540000000000000000000000006044820152606490fd5b1561253057565b60405162461bcd60e51b815260206004820152601460248201527f4e6f74206f776e6572206f66206e6577204e46540000000000000000000000006044820152606490fd5b1561257c57565b60405162461bcd60e51b815260206004820152601f60248201527f4f6c64204e465420646f65736e27742068617665207468697320736b696c6c006044820152606490fd5b156125c857565b60405162461bcd60e51b815260206004820152601f60248201527f4e6577204e465420646f65736e27742068617665207468697320736b696c6c006044820152606490fd5b1561261457565b60405162461bcd60e51b815260206004820152601b60248201527f536b696c6c206e6f742061637469766520696e206f6c64204e465400000000006044820152606490fd5b1561266057565b60405162461bcd60e51b815260206004820152601560248201527f4e657720736b696c6c20686173206578706972656400000000000000000000006044820152606490fd5b156126ac57565b60405162461bcd60e51b815260206004820152601f60248201527f496e73756666696369656e74207061796d656e7420666f7220737769746368006044820152606490fd5b916020610259929493610c6660408201965f830190610994565b909160059261271d61026f84866107e7565b9261272b61026f83876107e7565b9361274761273882610bf9565b612741336116ff565b146124dd565b61276261275386610bf9565b61275c336116ff565b14612529565b5f958695866127705f6107da565b6001850161277f61026f825490565b821015612aca575f610f908361279493610e44565b6127a0610fa38a6106c4565b146127ad57600101612770565b9495969798506127c55f612129600197888801610e44565b505b6127d05f6107da565b600183016127df61026f825490565b821015612ab1575f610f90836127f493610e44565b612800610fa38b6106c4565b1461280d576001016127d0565b88995061283e9150916128396128335f6121298b9c979660019c999a9b9c809601610e44565b97612575565b6125c1565b6128766003809561286061285961101f8761070a338761068b565b8a1461260d565b6111a761286f61026f88613086565b4210612659565b90612886600492612025846107da565b95612893873410156126a5565b61289d600a610bf9565b6128a65f6111fd565b906128b96001600160a01b0383166116ff565b03612a3b575b6128cf6116ff611c70600a610bf9565b03612991575b50509061070a61248d926128f58561248d8561070a6128fc9a339061068b565b339061068b565b6129055f6107da565b341161295e575b7fab73b2dcba8ed1b6096f7940dcb388d5406686d8115d4ee75d33309b73a829309061294361293d61293d33610682565b946107da565b9461295961295060405190565b928392836126f1565b0390a4565b5f808080612972611c1c611c1c6009610bf9565b81903415612987575b3491f161290c57611646565b6108fc915061297b565b611d309294506129ab9350611b71611d11611d2b926109b1565b6129bb611c1c611c1c600a610bf9565b803b15610235576129ee915f9189838a6129d460405190565b96879586948593630c4e865560e21b8552338c8601611677565b03925af18015611dcf5761070a87936128f58561248d8c61070a6128fc9a61248d998399612a26575b509a50505050505091926128d5565b612a35905f611dc18183610dd9565b5f612a17565b93509350612a4f611c1c611c1c600a610bf9565b93843b15610235575f612a8281968a612a6760405190565b9889938492839190638925781760e01b8352338b8401611629565b03925af1938415611dcf5789958b95612a9c575b506128bf565b612aab905f611dc18183610dd9565b5f612a96565b5050879895969792915061283e90612839899596612575565b50509793949596976127c7565b9061025992916124ca565b61026f915f612afc612b0293612af55f90565b508261118a565b0161068b565b610e65565b61101f61026f91612b155f90565b5060076106d7565b61026f6080610e96565b612b2f612b1d565b5f8082526060602083018190526040830182905282015290565b61026f612b27565b90610259612bb66003612b6261145a565b94612b75612b6f82610e65565b87611464565b612b8a612b8182611fb3565b6020880161146e565b612ba0612b9960018301610c0a565b6040880152565b6111a7612baf60028301610c0a565b6060880152565b6080840152565b61026f90612b51565b90612bcf825490565b612bd881610ec2565b92612bea60208501915f5260205f2090565b5f915b838310612bfa5750505050565b60046020600192612c0a85612bbd565b815201920192019190612bed565b90610259612c686003612c29612b1d565b94612c43612c3682610bf9565b6001600160a01b03168752565b612c59612c5260018301612bc6565b6020880152565b6111a7612b9960028301610c0a565b6060840152565b61026f90612c18565b612c8f61026f91612c87612b49565b5060056107e7565b612c6f565b61025990612cae5f5160206136ab5f395f51905f526130ca565b612cf1565b15612cba57565b60405162461bcd60e51b815260206004820152600f60248201526e496e76616c6964206164647265737360881b6044820152606490fd5b61025990612d15612d046102a75f6111fd565b6001600160a01b0383161415612cb3565b600a6113f5565b61025990612c94565b61026f905f6124be565b61026f90612bc6565b6001612d4961026f92612c87606090565b01612d2f565b9061025991612d606111be82611190565b90610259916131a5565b9061025991612d4f565b9061025991612d81613192565b612e11565b15612d8d57565b60405162461bcd60e51b815260206004820152601060248201526f536b696c6c206e6f742061637469766560801b6044820152606490fd5b15612dcc57565b60405162461bcd60e51b815260206004820152601660248201527f536b696c6c206e6f7420666f756e6420696e204e4654000000000000000000006044820152606490fd5b90612e2061026f8360056107e7565b91612e2d611fdc84610bf9565b612e49612e4261101f8461070a33600361068b565b8214612d86565b5f612e535f6107da565b60018501612e6261026f825490565b821015612f85575f610f9083612e7793610e44565b612e83610fa3866106c4565b14612e9057600101612e53565b5050909150612e9f6001612dc5565b612ea9600a610bf9565b612eb86116ff6102a75f6111fd565b03612f1c575b612eec612eca5f6107da565b612edd8161248d8661070a33600361068b565b61248d8461070a33600461068b565b7fcb584b9c19a4cd48046a2f7367004a44e11beb9fab06c203cc0eafd56e4d95906120e661244c6120d633610682565b612f2c611c1c611c1c600a610bf9565b803b15610235575f612f3d60405190565b918290638925781760e01b8252818381612f5b883360048401611629565b03925af18015611dcf57612f70575b50612ebe565b612f7f905f611dc18183610dd9565b5f612f6a565b5050612e9f91929350612dc5565b9061025991612d74565b610f1e612fac91611182606090565b90612fb65f6107da565b805b612fc361026f855190565b81101561300657612fdd61026f611135610f588488610e2a565b4210612ff1575b600101612fb8565b612fb8565b90612ffe612fec91610e83565b919050612fe4565b5061301090610ede565b9161301a5f6107da565b92835b61302861026f845190565b8110156130805761304261026f611135610f588487610e2a565b4210613056575b60010161301d565b61301d565b936130786130519161111561306e610f588988610e2a565b6110d78387610e2a565b949050613049565b50925050565b61309661026f600192612c875f90565b0180546130a56110ee5f6107da565b146130c05760036130b95f61026f93610e44565b5001610c0a565b5061026f5f6107da565b610259903390613383565b6130e66130e28383612ae2565b1590565b6130ee575050565b6131076001613102845f612afc868261118a565b6115a3565b61312161311b613115339390565b93610682565b91610682565b917f2f8788117e7eff1d82e926ec794901d17c78024a50270940304540a733656f0d61314c60405190565b8080612959565b1561315a57565b60405162461bcd60e51b815260206004820152601060248201526f14185d5cd8589b194e881c185d5cd95960821b6044820152606490fd5b6102596131a06130e261230b565b613153565b6131af8282612ae2565b6131b7575050565b6131ca5f6131028482612afc868261118a565b6131d861311b613115339390565b917ff6391f5c32d9c69d2a47ea670b442974b53935d1edc7fd64eb21e047a839171b61314c60405190565b61320b613453565b6102596132195f60016115a3565b7f5db9ee0a495bf2e6ff9c91a7834c1ba4fdd244a5e8aa4e537bd38aeae4b073aa61324333610605565b0390a1565b610259613203565b613258613192565b6102596132666001806115a3565b7f62e78cea01bee320cd4e420270b5ea74000d11b0c9f74754ebdbfc544b05a25861324333610605565b610259613250565b61026f906107da565b5f5b8381106132b25750505f910152565b81810151838201526020016132a3565b6103096132da926020926132d4815190565b94859290565b938491016132a1565b61332161026f939261331b61331b937f416363657373436f6e74726f6c3a206163636f756e7420000000000000000000815260170190565b906132c2565b7001034b99036b4b9b9b4b733903937b6329607d1b815260110190565b61335f61336860209361030993613353815190565b80835293849260200190565b958691016132a1565b601f01601f191690565b602080825261026f9291019061333e565b906133916130e28284612ae2565b613399575050565b6133e361026f611242936133cb6133bb6133b56133ef96613493565b92613298565b6133c560206107da565b9061358c565b906133d560405190565b9384926020840192836132e3565b90810382520382610dd9565b60405162461bcd60e51b815291829160048301613372565b1561340e57565b60405162461bcd60e51b815260206004820152601460248201527f5061757361626c653a206e6f74207061757365640000000000000000000000006044820152606490fd5b61025961345e61230b565b613407565b61026f61026f61026f926001600160a01b031690565b61026f6014610f01565b61026f61026f61026f9260ff1690565b6134b06134ab61026f926134a5606090565b50610679565b613463565b6133c56134bb613479565b613483565b67ffffffffffffffff8111610dfb57602090601f01601f19160190565b90610ed4610ecf836134c0565b90610259610ef46134fa846134dd565b936134c0565b90613509825190565b81101561094c570160200190565b8015610e91575f190190565b61026f906135376110ee61026f9460ff1690565b901c90565b1561354357565b60405162461bcd60e51b815280611242600482016020808252818101527f537472696e67733a20686578206c656e67746820696e73756666696369656e74604082015260600190565b6135ba6135b56135a5846135a060026107da565b611590565b6135af60026107da565b9061131c565b6134ea565b9160306135cf6135c95f6107da565b85613500565b53600f60fb1b6136086135ff60019384935f1a6135f46135ee866107da565b89613500565b536135a060026107da565b6135af836107da565b915b61362b575b50509061026f61026f926136256110ee5f6107da565b1461353c565b9091613636826107da565b8311156136a4576f181899199a1a9b1b9c1cb0b131b232b360811b61365b600f6107da565b821690601082101561094c57839261367b6136989261369e941a60f81b90565b5f1a6136878789613500565b536136926004610f01565b90613523565b93613517565b9161360a565b9161360f56fea49807205ce4d355092ef5a8a18f56e8913cf4a201fbe287825b095693c21775a26469706673582212205bb7d4cdf6f33672cec69312c62b0ead7b1dcc991c79c3165d2e549d4af6f9ac64736f6c634300081c0033",
  "linkReferences": {},
  "deployedLinkReferences": {}
}