{
  "_format": "hh-sol-artifact-1",
  "contractName": "GameifiedMarketplaceCoreV1",
  "sourceName": "contracts/Marketplace/GameifiedMarketplaceCoreV1.sol",
  "abi": [
    {
      "inputs": [],
      "stateMutability": "nonpayable",
      "type": "constructor"
    },
    {
      "inputs": [],
      "name": "InsufficientPayment",
      "type": "error"
    },
    {
      "inputs": [],
      "name": "NoOffersAvailable",
      "type": "error"
    },
    {
      "inputs": [],
      "name": "NotTokenOwner",
      "type": "error"
    },
    {
      "inputs": [],
      "name": "TokenNotFound",
      "type": "error"
    },
    {
      "inputs": [],
      "name": "TokenNotListed",
      "type": "error"
    },
    {
      "anonymous": false,
      "inputs": [
        {
          "indexed": false,
          "internalType": "address",
          "name": "previousAdmin",
          "type": "address"
        },
        {
          "indexed": false,
          "internalType": "address",
          "name": "newAdmin",
          "type": "address"
        }
      ],
      "name": "AdminChanged",
      "type": "event"
    },
    {
      "anonymous": false,
      "inputs": [
        {
          "indexed": true,
          "internalType": "address",
          "name": "owner",
          "type": "address"
        },
        {
          "indexed": true,
          "internalType": "address",
          "name": "approved",
          "type": "address"
        },
        {
          "indexed": true,
          "internalType": "uint256",
          "name": "tokenId",
          "type": "uint256"
        }
      ],
      "name": "Approval",
      "type": "event"
    },
    {
      "anonymous": false,
      "inputs": [
        {
          "indexed": true,
          "internalType": "address",
          "name": "owner",
          "type": "address"
        },
        {
          "indexed": true,
          "internalType": "address",
          "name": "operator",
          "type": "address"
        },
        {
          "indexed": false,
          "internalType": "bool",
          "name": "approved",
          "type": "bool"
        }
      ],
      "name": "ApprovalForAll",
      "type": "event"
    },
    {
      "anonymous": false,
      "inputs": [
        {
          "indexed": false,
          "internalType": "uint256",
          "name": "_fromTokenId",
          "type": "uint256"
        },
        {
          "indexed": false,
          "internalType": "uint256",
          "name": "_toTokenId",
          "type": "uint256"
        }
      ],
      "name": "BatchMetadataUpdate",
      "type": "event"
    },
    {
      "anonymous": false,
      "inputs": [
        {
          "indexed": true,
          "internalType": "address",
          "name": "beacon",
          "type": "address"
        }
      ],
      "name": "BeaconUpgraded",
      "type": "event"
    },
    {
      "anonymous": false,
      "inputs": [
        {
          "indexed": true,
          "internalType": "address",
          "name": "user",
          "type": "address"
        },
        {
          "indexed": true,
          "internalType": "uint256",
          "name": "tokenId",
          "type": "uint256"
        },
        {
          "indexed": false,
          "internalType": "string",
          "name": "comment",
          "type": "string"
        }
      ],
      "name": "CommentAdded",
      "type": "event"
    },
    {
      "anonymous": false,
      "inputs": [
        {
          "indexed": false,
          "internalType": "uint8",
          "name": "version",
          "type": "uint8"
        }
      ],
      "name": "Initialized",
      "type": "event"
    },
    {
      "anonymous": false,
      "inputs": [
        {
          "indexed": true,
          "internalType": "address",
          "name": "user",
          "type": "address"
        },
        {
          "indexed": false,
          "internalType": "uint8",
          "name": "newLevel",
          "type": "uint8"
        }
      ],
      "name": "LevelUp",
      "type": "event"
    },
    {
      "anonymous": false,
      "inputs": [
        {
          "indexed": true,
          "internalType": "address",
          "name": "user",
          "type": "address"
        },
        {
          "indexed": true,
          "internalType": "uint256",
          "name": "tokenId",
          "type": "uint256"
        },
        {
          "indexed": false,
          "internalType": "bool",
          "name": "liked",
          "type": "bool"
        }
      ],
      "name": "LikeToggled",
      "type": "event"
    },
    {
      "anonymous": false,
      "inputs": [
        {
          "indexed": false,
          "internalType": "uint256",
          "name": "_tokenId",
          "type": "uint256"
        }
      ],
      "name": "MetadataUpdate",
      "type": "event"
    },
    {
      "anonymous": false,
      "inputs": [
        {
          "indexed": true,
          "internalType": "address",
          "name": "seller",
          "type": "address"
        },
        {
          "indexed": true,
          "internalType": "address",
          "name": "buyer",
          "type": "address"
        },
        {
          "indexed": true,
          "internalType": "uint256",
          "name": "tokenId",
          "type": "uint256"
        },
        {
          "indexed": false,
          "internalType": "uint256",
          "name": "amount",
          "type": "uint256"
        }
      ],
      "name": "OfferAccepted",
      "type": "event"
    },
    {
      "anonymous": false,
      "inputs": [
        {
          "indexed": true,
          "internalType": "address",
          "name": "offeror",
          "type": "address"
        },
        {
          "indexed": true,
          "internalType": "uint256",
          "name": "tokenId",
          "type": "uint256"
        },
        {
          "indexed": false,
          "internalType": "uint256",
          "name": "amount",
          "type": "uint256"
        }
      ],
      "name": "OfferMade",
      "type": "event"
    },
    {
      "anonymous": false,
      "inputs": [
        {
          "indexed": false,
          "internalType": "address",
          "name": "account",
          "type": "address"
        }
      ],
      "name": "Paused",
      "type": "event"
    },
    {
      "anonymous": false,
      "inputs": [
        {
          "indexed": true,
          "internalType": "address",
          "name": "from",
          "type": "address"
        },
        {
          "indexed": false,
          "internalType": "uint256",
          "name": "amount",
          "type": "uint256"
        },
        {
          "indexed": true,
          "internalType": "address",
          "name": "to",
          "type": "address"
        },
        {
          "indexed": false,
          "internalType": "string",
          "name": "operation",
          "type": "string"
        }
      ],
      "name": "PlatformFeeTransferred",
      "type": "event"
    },
    {
      "anonymous": false,
      "inputs": [
        {
          "indexed": true,
          "internalType": "address",
          "name": "seller",
          "type": "address"
        },
        {
          "indexed": true,
          "internalType": "uint256",
          "name": "tokenId",
          "type": "uint256"
        },
        {
          "indexed": false,
          "internalType": "uint256",
          "name": "newPrice",
          "type": "uint256"
        }
      ],
      "name": "PriceUpdated",
      "type": "event"
    },
    {
      "anonymous": false,
      "inputs": [
        {
          "indexed": true,
          "internalType": "address",
          "name": "oldAddress",
          "type": "address"
        },
        {
          "indexed": true,
          "internalType": "address",
          "name": "newAddress",
          "type": "address"
        }
      ],
      "name": "QuestsContractUpdated",
      "type": "event"
    },
    {
      "anonymous": false,
      "inputs": [
        {
          "indexed": true,
          "internalType": "bytes32",
          "name": "role",
          "type": "bytes32"
        },
        {
          "indexed": true,
          "internalType": "bytes32",
          "name": "previousAdminRole",
          "type": "bytes32"
        },
        {
          "indexed": true,
          "internalType": "bytes32",
          "name": "newAdminRole",
          "type": "bytes32"
        }
      ],
      "name": "RoleAdminChanged",
      "type": "event"
    },
    {
      "anonymous": false,
      "inputs": [
        {
          "indexed": true,
          "internalType": "bytes32",
          "name": "role",
          "type": "bytes32"
        },
        {
          "indexed": true,
          "internalType": "address",
          "name": "account",
          "type": "address"
        },
        {
          "indexed": true,
          "internalType": "address",
          "name": "sender",
          "type": "address"
        }
      ],
      "name": "RoleGranted",
      "type": "event"
    },
    {
      "anonymous": false,
      "inputs": [
        {
          "indexed": true,
          "internalType": "bytes32",
          "name": "role",
          "type": "bytes32"
        },
        {
          "indexed": true,
          "internalType": "address",
          "name": "account",
          "type": "address"
        },
        {
          "indexed": true,
          "internalType": "address",
          "name": "sender",
          "type": "address"
        }
      ],
      "name": "RoleRevoked",
      "type": "event"
    },
    {
      "anonymous": false,
      "inputs": [
        {
          "indexed": true,
          "internalType": "address",
          "name": "oldAddress",
          "type": "address"
        },
        {
          "indexed": true,
          "internalType": "address",
          "name": "newAddress",
          "type": "address"
        }
      ],
      "name": "SkillsContractUpdated",
      "type": "event"
    },
    {
      "anonymous": false,
      "inputs": [
        {
          "indexed": true,
          "internalType": "address",
          "name": "oldAddress",
          "type": "address"
        },
        {
          "indexed": true,
          "internalType": "address",
          "name": "newAddress",
          "type": "address"
        }
      ],
      "name": "StakingContractUpdated",
      "type": "event"
    },
    {
      "anonymous": false,
      "inputs": [
        {
          "indexed": true,
          "internalType": "address",
          "name": "creator",
          "type": "address"
        },
        {
          "indexed": true,
          "internalType": "uint256",
          "name": "tokenId",
          "type": "uint256"
        },
        {
          "indexed": false,
          "internalType": "string",
          "name": "uri",
          "type": "string"
        }
      ],
      "name": "TokenCreated",
      "type": "event"
    },
    {
      "anonymous": false,
      "inputs": [
        {
          "indexed": true,
          "internalType": "address",
          "name": "seller",
          "type": "address"
        },
        {
          "indexed": true,
          "internalType": "uint256",
          "name": "tokenId",
          "type": "uint256"
        },
        {
          "indexed": false,
          "internalType": "uint256",
          "name": "price",
          "type": "uint256"
        }
      ],
      "name": "TokenListed",
      "type": "event"
    },
    {
      "anonymous": false,
      "inputs": [
        {
          "indexed": true,
          "internalType": "address",
          "name": "seller",
          "type": "address"
        },
        {
          "indexed": true,
          "internalType": "address",
          "name": "buyer",
          "type": "address"
        },
        {
          "indexed": true,
          "internalType": "uint256",
          "name": "tokenId",
          "type": "uint256"
        },
        {
          "indexed": false,
          "internalType": "uint256",
          "name": "price",
          "type": "uint256"
        }
      ],
      "name": "TokenSold",
      "type": "event"
    },
    {
      "anonymous": false,
      "inputs": [
        {
          "indexed": true,
          "internalType": "address",
          "name": "seller",
          "type": "address"
        },
        {
          "indexed": true,
          "internalType": "uint256",
          "name": "tokenId",
          "type": "uint256"
        }
      ],
      "name": "TokenUnlisted",
      "type": "event"
    },
    {
      "anonymous": false,
      "inputs": [
        {
          "indexed": true,
          "internalType": "address",
          "name": "from",
          "type": "address"
        },
        {
          "indexed": true,
          "internalType": "address",
          "name": "to",
          "type": "address"
        },
        {
          "indexed": true,
          "internalType": "uint256",
          "name": "tokenId",
          "type": "uint256"
        }
      ],
      "name": "Transfer",
      "type": "event"
    },
    {
      "anonymous": false,
      "inputs": [
        {
          "indexed": false,
          "internalType": "address",
          "name": "account",
          "type": "address"
        }
      ],
      "name": "Unpaused",
      "type": "event"
    },
    {
      "anonymous": false,
      "inputs": [
        {
          "indexed": true,
          "internalType": "address",
          "name": "implementation",
          "type": "address"
        }
      ],
      "name": "Upgraded",
      "type": "event"
    },
    {
      "anonymous": false,
      "inputs": [
        {
          "indexed": true,
          "internalType": "address",
          "name": "user",
          "type": "address"
        },
        {
          "indexed": false,
          "internalType": "uint256",
          "name": "amount",
          "type": "uint256"
        },
        {
          "indexed": false,
          "internalType": "string",
          "name": "reason",
          "type": "string"
        }
      ],
      "name": "XPGained",
      "type": "event"
    },
    {
      "inputs": [],
      "name": "ADMIN_ROLE",
      "outputs": [
        {
          "internalType": "bytes32",
          "name": "",
          "type": "bytes32"
        }
      ],
      "stateMutability": "view",
      "type": "function"
    },
    {
      "inputs": [],
      "name": "DEFAULT_ADMIN_ROLE",
      "outputs": [
        {
          "internalType": "bytes32",
          "name": "",
          "type": "bytes32"
        }
      ],
      "stateMutability": "view",
      "type": "function"
    },
    {
      "inputs": [],
      "name": "PLATFORM_FEE_PERCENTAGE",
      "outputs": [
        {
          "internalType": "uint256",
          "name": "",
          "type": "uint256"
        }
      ],
      "stateMutability": "view",
      "type": "function"
    },
    {
      "inputs": [],
      "name": "UPGRADER_ROLE",
      "outputs": [
        {
          "internalType": "bytes32",
          "name": "",
          "type": "bytes32"
        }
      ],
      "stateMutability": "view",
      "type": "function"
    },
    {
      "inputs": [
        {
          "internalType": "uint256",
          "name": "_tokenId",
          "type": "uint256"
        },
        {
          "internalType": "uint256",
          "name": "_offerIndex",
          "type": "uint256"
        }
      ],
      "name": "acceptOffer",
      "outputs": [],
      "stateMutability": "nonpayable",
      "type": "function"
    },
    {
      "inputs": [
        {
          "internalType": "uint256",
          "name": "_tokenId",
          "type": "uint256"
        },
        {
          "internalType": "string",
          "name": "_text",
          "type": "string"
        }
      ],
      "name": "addComment",
      "outputs": [],
      "stateMutability": "nonpayable",
      "type": "function"
    },
    {
      "inputs": [
        {
          "internalType": "address",
          "name": "to",
          "type": "address"
        },
        {
          "internalType": "uint256",
          "name": "tokenId",
          "type": "uint256"
        }
      ],
      "name": "approve",
      "outputs": [],
      "stateMutability": "nonpayable",
      "type": "function"
    },
    {
      "inputs": [
        {
          "internalType": "address",
          "name": "owner",
          "type": "address"
        }
      ],
      "name": "balanceOf",
      "outputs": [
        {
          "internalType": "uint256",
          "name": "",
          "type": "uint256"
        }
      ],
      "stateMutability": "view",
      "type": "function"
    },
    {
      "inputs": [
        {
          "internalType": "uint256",
          "name": "_tokenId",
          "type": "uint256"
        }
      ],
      "name": "buyToken",
      "outputs": [],
      "stateMutability": "payable",
      "type": "function"
    },
    {
      "inputs": [
        {
          "internalType": "uint256",
          "name": "_tokenId",
          "type": "uint256"
        },
        {
          "internalType": "uint256",
          "name": "_offerIndex",
          "type": "uint256"
        }
      ],
      "name": "cancelOffer",
      "outputs": [],
      "stateMutability": "nonpayable",
      "type": "function"
    },
    {
      "inputs": [
        {
          "internalType": "string",
          "name": "_tokenURI",
          "type": "string"
        },
        {
          "internalType": "string",
          "name": "_category",
          "type": "string"
        },
        {
          "internalType": "uint96",
          "name": "_royaltyPercentage",
          "type": "uint96"
        }
      ],
      "name": "createStandardNFT",
      "outputs": [
        {
          "internalType": "uint256",
          "name": "",
          "type": "uint256"
        }
      ],
      "stateMutability": "nonpayable",
      "type": "function"
    },
    {
      "inputs": [
        {
          "internalType": "uint256",
          "name": "tokenId",
          "type": "uint256"
        }
      ],
      "name": "getApproved",
      "outputs": [
        {
          "internalType": "address",
          "name": "",
          "type": "address"
        }
      ],
      "stateMutability": "view",
      "type": "function"
    },
    {
      "inputs": [],
      "name": "getListedNFTs",
      "outputs": [
        {
          "internalType": "uint256[]",
          "name": "",
          "type": "uint256[]"
        }
      ],
      "stateMutability": "view",
      "type": "function"
    },
    {
      "inputs": [
        {
          "internalType": "uint256",
          "name": "cursor",
          "type": "uint256"
        },
        {
          "internalType": "uint256",
          "name": "size",
          "type": "uint256"
        }
      ],
      "name": "getListedNFTsPage",
      "outputs": [
        {
          "internalType": "uint256[]",
          "name": "tokens",
          "type": "uint256[]"
        },
        {
          "internalType": "uint256",
          "name": "nextCursor",
          "type": "uint256"
        }
      ],
      "stateMutability": "view",
      "type": "function"
    },
    {
      "inputs": [
        {
          "internalType": "uint256",
          "name": "_tokenId",
          "type": "uint256"
        }
      ],
      "name": "getNFTComments",
      "outputs": [
        {
          "internalType": "string[]",
          "name": "",
          "type": "string[]"
        }
      ],
      "stateMutability": "view",
      "type": "function"
    },
    {
      "inputs": [
        {
          "internalType": "uint256",
          "name": "_tokenId",
          "type": "uint256"
        }
      ],
      "name": "getNFTLikeCount",
      "outputs": [
        {
          "internalType": "uint256",
          "name": "",
          "type": "uint256"
        }
      ],
      "stateMutability": "view",
      "type": "function"
    },
    {
      "inputs": [
        {
          "internalType": "uint256",
          "name": "_tokenId",
          "type": "uint256"
        }
      ],
      "name": "getNFTMarketInfo",
      "outputs": [
        {
          "internalType": "address",
          "name": "owner",
          "type": "address"
        },
        {
          "internalType": "bool",
          "name": "isListedStatus",
          "type": "bool"
        },
        {
          "internalType": "uint256",
          "name": "price",
          "type": "uint256"
        }
      ],
      "stateMutability": "view",
      "type": "function"
    },
    {
      "inputs": [
        {
          "internalType": "uint256",
          "name": "_tokenId",
          "type": "uint256"
        }
      ],
      "name": "getNFTMetadata",
      "outputs": [
        {
          "components": [
            {
              "internalType": "address",
              "name": "creator",
              "type": "address"
            },
            {
              "internalType": "string",
              "name": "uri",
              "type": "string"
            },
            {
              "internalType": "string",
              "name": "category",
              "type": "string"
            },
            {
              "internalType": "uint256",
              "name": "createdAt",
              "type": "uint256"
            },
            {
              "internalType": "uint96",
              "name": "royaltyPercentage",
              "type": "uint96"
            }
          ],
          "internalType": "struct GameifiedMarketplaceCoreV1.NFTMetadata",
          "name": "",
          "type": "tuple"
        }
      ],
      "stateMutability": "view",
      "type": "function"
    },
    {
      "inputs": [
        {
          "internalType": "uint256",
          "name": "_tokenId",
          "type": "uint256"
        }
      ],
      "name": "getNFTOffers",
      "outputs": [
        {
          "components": [
            {
              "internalType": "address",
              "name": "offeror",
              "type": "address"
            },
            {
              "internalType": "uint256",
              "name": "amount",
              "type": "uint256"
            },
            {
              "internalType": "uint8",
              "name": "expiresInDays",
              "type": "uint8"
            },
            {
              "internalType": "uint256",
              "name": "timestamp",
              "type": "uint256"
            }
          ],
          "internalType": "struct GameifiedMarketplaceCoreV1.Offer[]",
          "name": "",
          "type": "tuple[]"
        }
      ],
      "stateMutability": "view",
      "type": "function"
    },
    {
      "inputs": [
        {
          "internalType": "bytes32",
          "name": "role",
          "type": "bytes32"
        }
      ],
      "name": "getRoleAdmin",
      "outputs": [
        {
          "internalType": "bytes32",
          "name": "",
          "type": "bytes32"
        }
      ],
      "stateMutability": "view",
      "type": "function"
    },
    {
      "inputs": [
        {
          "internalType": "address",
          "name": "_user",
          "type": "address"
        }
      ],
      "name": "getUserCreatedNFTs",
      "outputs": [
        {
          "internalType": "uint256[]",
          "name": "",
          "type": "uint256[]"
        }
      ],
      "stateMutability": "view",
      "type": "function"
    },
    {
      "inputs": [
        {
          "internalType": "address",
          "name": "_user",
          "type": "address"
        },
        {
          "internalType": "uint256",
          "name": "cursor",
          "type": "uint256"
        },
        {
          "internalType": "uint256",
          "name": "size",
          "type": "uint256"
        }
      ],
      "name": "getUserCreatedNFTsPage",
      "outputs": [
        {
          "internalType": "uint256[]",
          "name": "tokens",
          "type": "uint256[]"
        },
        {
          "internalType": "uint256",
          "name": "nextCursor",
          "type": "uint256"
        }
      ],
      "stateMutability": "view",
      "type": "function"
    },
    {
      "inputs": [
        {
          "internalType": "uint256",
          "name": "_tokenId",
          "type": "uint256"
        },
        {
          "internalType": "address",
          "name": "_user",
          "type": "address"
        }
      ],
      "name": "getUserNFTLike",
      "outputs": [
        {
          "internalType": "bool",
          "name": "",
          "type": "bool"
        }
      ],
      "stateMutability": "view",
      "type": "function"
    },
    {
      "inputs": [
        {
          "internalType": "address",
          "name": "_user",
          "type": "address"
        }
      ],
      "name": "getUserNFTs",
      "outputs": [
        {
          "internalType": "uint256[]",
          "name": "",
          "type": "uint256[]"
        }
      ],
      "stateMutability": "view",
      "type": "function"
    },
    {
      "inputs": [
        {
          "internalType": "address",
          "name": "_user",
          "type": "address"
        }
      ],
      "name": "getUserNFTsDetailed",
      "outputs": [
        {
          "components": [
            {
              "internalType": "address",
              "name": "creator",
              "type": "address"
            },
            {
              "internalType": "string",
              "name": "uri",
              "type": "string"
            },
            {
              "internalType": "string",
              "name": "category",
              "type": "string"
            },
            {
              "internalType": "uint256",
              "name": "createdAt",
              "type": "uint256"
            },
            {
              "internalType": "uint96",
              "name": "royaltyPercentage",
              "type": "uint96"
            }
          ],
          "internalType": "struct GameifiedMarketplaceCoreV1.NFTMetadata[]",
          "name": "",
          "type": "tuple[]"
        }
      ],
      "stateMutability": "view",
      "type": "function"
    },
    {
      "inputs": [
        {
          "internalType": "address",
          "name": "_user",
          "type": "address"
        },
        {
          "internalType": "uint256",
          "name": "cursor",
          "type": "uint256"
        },
        {
          "internalType": "uint256",
          "name": "size",
          "type": "uint256"
        }
      ],
      "name": "getUserNFTsPage",
      "outputs": [
        {
          "internalType": "uint256[]",
          "name": "tokens",
          "type": "uint256[]"
        },
        {
          "internalType": "uint256",
          "name": "nextCursor",
          "type": "uint256"
        }
      ],
      "stateMutability": "view",
      "type": "function"
    },
    {
      "inputs": [
        {
          "internalType": "address",
          "name": "_user",
          "type": "address"
        }
      ],
      "name": "getUserProfile",
      "outputs": [
        {
          "components": [
            {
              "internalType": "uint256",
              "name": "totalXP",
              "type": "uint256"
            },
            {
              "internalType": "uint8",
              "name": "level",
              "type": "uint8"
            },
            {
              "internalType": "uint256",
              "name": "nftsCreated",
              "type": "uint256"
            },
            {
              "internalType": "uint256",
              "name": "nftsOwned",
              "type": "uint256"
            },
            {
              "internalType": "uint32",
              "name": "nftsSold",
              "type": "uint32"
            },
            {
              "internalType": "uint32",
              "name": "nftsBought",
              "type": "uint32"
            }
          ],
          "internalType": "struct GameifiedMarketplaceCoreV1.UserProfile",
          "name": "",
          "type": "tuple"
        }
      ],
      "stateMutability": "view",
      "type": "function"
    },
    {
      "inputs": [
        {
          "internalType": "bytes32",
          "name": "role",
          "type": "bytes32"
        },
        {
          "internalType": "address",
          "name": "account",
          "type": "address"
        }
      ],
      "name": "grantRole",
      "outputs": [],
      "stateMutability": "nonpayable",
      "type": "function"
    },
    {
      "inputs": [
        {
          "internalType": "bytes32",
          "name": "role",
          "type": "bytes32"
        },
        {
          "internalType": "address",
          "name": "account",
          "type": "address"
        }
      ],
      "name": "hasRole",
      "outputs": [
        {
          "internalType": "bool",
          "name": "",
          "type": "bool"
        }
      ],
      "stateMutability": "view",
      "type": "function"
    },
    {
      "inputs": [
        {
          "internalType": "address",
          "name": "_platformTreasury",
          "type": "address"
        }
      ],
      "name": "initialize",
      "outputs": [],
      "stateMutability": "nonpayable",
      "type": "function"
    },
    {
      "inputs": [
        {
          "internalType": "address",
          "name": "owner",
          "type": "address"
        },
        {
          "internalType": "address",
          "name": "operator",
          "type": "address"
        }
      ],
      "name": "isApprovedForAll",
      "outputs": [
        {
          "internalType": "bool",
          "name": "",
          "type": "bool"
        }
      ],
      "stateMutability": "view",
      "type": "function"
    },
    {
      "inputs": [
        {
          "internalType": "uint256",
          "name": "",
          "type": "uint256"
        }
      ],
      "name": "isListed",
      "outputs": [
        {
          "internalType": "bool",
          "name": "",
          "type": "bool"
        }
      ],
      "stateMutability": "view",
      "type": "function"
    },
    {
      "inputs": [
        {
          "internalType": "uint256",
          "name": "_tokenId",
          "type": "uint256"
        },
        {
          "internalType": "uint256",
          "name": "_price",
          "type": "uint256"
        }
      ],
      "name": "listTokenForSale",
      "outputs": [],
      "stateMutability": "nonpayable",
      "type": "function"
    },
    {
      "inputs": [
        {
          "internalType": "uint256",
          "name": "",
          "type": "uint256"
        }
      ],
      "name": "listedPrice",
      "outputs": [
        {
          "internalType": "uint256",
          "name": "",
          "type": "uint256"
        }
      ],
      "stateMutability": "view",
      "type": "function"
    },
    {
      "inputs": [
        {
          "internalType": "uint256",
          "name": "_tokenId",
          "type": "uint256"
        },
        {
          "internalType": "uint8",
          "name": "_expiresInDays",
          "type": "uint8"
        }
      ],
      "name": "makeOffer",
      "outputs": [],
      "stateMutability": "payable",
      "type": "function"
    },
    {
      "inputs": [],
      "name": "name",
      "outputs": [
        {
          "internalType": "string",
          "name": "",
          "type": "string"
        }
      ],
      "stateMutability": "view",
      "type": "function"
    },
    {
      "inputs": [
        {
          "internalType": "uint256",
          "name": "",
          "type": "uint256"
        },
        {
          "internalType": "uint256",
          "name": "",
          "type": "uint256"
        }
      ],
      "name": "nftComments",
      "outputs": [
        {
          "internalType": "string",
          "name": "",
          "type": "string"
        }
      ],
      "stateMutability": "view",
      "type": "function"
    },
    {
      "inputs": [
        {
          "internalType": "uint256",
          "name": "",
          "type": "uint256"
        }
      ],
      "name": "nftLikeCount",
      "outputs": [
        {
          "internalType": "uint256",
          "name": "",
          "type": "uint256"
        }
      ],
      "stateMutability": "view",
      "type": "function"
    },
    {
      "inputs": [
        {
          "internalType": "uint256",
          "name": "",
          "type": "uint256"
        },
        {
          "internalType": "address",
          "name": "",
          "type": "address"
        }
      ],
      "name": "nftLikes",
      "outputs": [
        {
          "internalType": "bool",
          "name": "",
          "type": "bool"
        }
      ],
      "stateMutability": "view",
      "type": "function"
    },
    {
      "inputs": [
        {
          "internalType": "uint256",
          "name": "",
          "type": "uint256"
        }
      ],
      "name": "nftMetadata",
      "outputs": [
        {
          "internalType": "address",
          "name": "creator",
          "type": "address"
        },
        {
          "internalType": "string",
          "name": "uri",
          "type": "string"
        },
        {
          "internalType": "string",
          "name": "category",
          "type": "string"
        },
        {
          "internalType": "uint256",
          "name": "createdAt",
          "type": "uint256"
        },
        {
          "internalType": "uint96",
          "name": "royaltyPercentage",
          "type": "uint96"
        }
      ],
      "stateMutability": "view",
      "type": "function"
    },
    {
      "inputs": [
        {
          "internalType": "uint256",
          "name": "",
          "type": "uint256"
        },
        {
          "internalType": "uint256",
          "name": "",
          "type": "uint256"
        }
      ],
      "name": "nftOffers",
      "outputs": [
        {
          "internalType": "address",
          "name": "offeror",
          "type": "address"
        },
        {
          "internalType": "uint256",
          "name": "amount",
          "type": "uint256"
        },
        {
          "internalType": "uint8",
          "name": "expiresInDays",
          "type": "uint8"
        },
        {
          "internalType": "uint256",
          "name": "timestamp",
          "type": "uint256"
        }
      ],
      "stateMutability": "view",
      "type": "function"
    },
    {
      "inputs": [
        {
          "internalType": "uint256",
          "name": "tokenId",
          "type": "uint256"
        }
      ],
      "name": "ownerOf",
      "outputs": [
        {
          "internalType": "address",
          "name": "",
          "type": "address"
        }
      ],
      "stateMutability": "view",
      "type": "function"
    },
    {
      "inputs": [],
      "name": "pause",
      "outputs": [],
      "stateMutability": "nonpayable",
      "type": "function"
    },
    {
      "inputs": [],
      "name": "paused",
      "outputs": [
        {
          "internalType": "bool",
          "name": "",
          "type": "bool"
        }
      ],
      "stateMutability": "view",
      "type": "function"
    },
    {
      "inputs": [],
      "name": "platformTreasury",
      "outputs": [
        {
          "internalType": "address",
          "name": "",
          "type": "address"
        }
      ],
      "stateMutability": "view",
      "type": "function"
    },
    {
      "inputs": [],
      "name": "proxiableUUID",
      "outputs": [
        {
          "internalType": "bytes32",
          "name": "",
          "type": "bytes32"
        }
      ],
      "stateMutability": "view",
      "type": "function"
    },
    {
      "inputs": [],
      "name": "questsContractAddress",
      "outputs": [
        {
          "internalType": "address",
          "name": "",
          "type": "address"
        }
      ],
      "stateMutability": "view",
      "type": "function"
    },
    {
      "inputs": [
        {
          "internalType": "bytes32",
          "name": "role",
          "type": "bytes32"
        },
        {
          "internalType": "address",
          "name": "account",
          "type": "address"
        }
      ],
      "name": "renounceRole",
      "outputs": [],
      "stateMutability": "nonpayable",
      "type": "function"
    },
    {
      "inputs": [
        {
          "internalType": "bytes32",
          "name": "role",
          "type": "bytes32"
        },
        {
          "internalType": "address",
          "name": "account",
          "type": "address"
        }
      ],
      "name": "revokeRole",
      "outputs": [],
      "stateMutability": "nonpayable",
      "type": "function"
    },
    {
      "inputs": [
        {
          "internalType": "uint256",
          "name": "tokenId",
          "type": "uint256"
        },
        {
          "internalType": "uint256",
          "name": "salePrice",
          "type": "uint256"
        }
      ],
      "name": "royaltyInfo",
      "outputs": [
        {
          "internalType": "address",
          "name": "",
          "type": "address"
        },
        {
          "internalType": "uint256",
          "name": "",
          "type": "uint256"
        }
      ],
      "stateMutability": "view",
      "type": "function"
    },
    {
      "inputs": [
        {
          "internalType": "address",
          "name": "from",
          "type": "address"
        },
        {
          "internalType": "address",
          "name": "to",
          "type": "address"
        },
        {
          "internalType": "uint256",
          "name": "tokenId",
          "type": "uint256"
        }
      ],
      "name": "safeTransferFrom",
      "outputs": [],
      "stateMutability": "nonpayable",
      "type": "function"
    },
    {
      "inputs": [
        {
          "internalType": "address",
          "name": "from",
          "type": "address"
        },
        {
          "internalType": "address",
          "name": "to",
          "type": "address"
        },
        {
          "internalType": "uint256",
          "name": "tokenId",
          "type": "uint256"
        },
        {
          "internalType": "bytes",
          "name": "data",
          "type": "bytes"
        }
      ],
      "name": "safeTransferFrom",
      "outputs": [],
      "stateMutability": "nonpayable",
      "type": "function"
    },
    {
      "inputs": [
        {
          "internalType": "address",
          "name": "operator",
          "type": "address"
        },
        {
          "internalType": "bool",
          "name": "approved",
          "type": "bool"
        }
      ],
      "name": "setApprovalForAll",
      "outputs": [],
      "stateMutability": "nonpayable",
      "type": "function"
    },
    {
      "inputs": [
        {
          "internalType": "address",
          "name": "_questsAddress",
          "type": "address"
        }
      ],
      "name": "setQuestsContract",
      "outputs": [],
      "stateMutability": "nonpayable",
      "type": "function"
    },
    {
      "inputs": [
        {
          "internalType": "address",
          "name": "_skillsAddress",
          "type": "address"
        }
      ],
      "name": "setSkillsContract",
      "outputs": [],
      "stateMutability": "nonpayable",
      "type": "function"
    },
    {
      "inputs": [
        {
          "internalType": "address",
          "name": "_stakingAddress",
          "type": "address"
        }
      ],
      "name": "setStakingContract",
      "outputs": [],
      "stateMutability": "nonpayable",
      "type": "function"
    },
    {
      "inputs": [],
      "name": "skillsContractAddress",
      "outputs": [
        {
          "internalType": "address",
          "name": "",
          "type": "address"
        }
      ],
      "stateMutability": "view",
      "type": "function"
    },
    {
      "inputs": [],
      "name": "stakingContractAddress",
      "outputs": [
        {
          "internalType": "address",
          "name": "",
          "type": "address"
        }
      ],
      "stateMutability": "view",
      "type": "function"
    },
    {
      "inputs": [
        {
          "internalType": "bytes4",
          "name": "interfaceId",
          "type": "bytes4"
        }
      ],
      "name": "supportsInterface",
      "outputs": [
        {
          "internalType": "bool",
          "name": "",
          "type": "bool"
        }
      ],
      "stateMutability": "view",
      "type": "function"
    },
    {
      "inputs": [],
      "name": "symbol",
      "outputs": [
        {
          "internalType": "string",
          "name": "",
          "type": "string"
        }
      ],
      "stateMutability": "view",
      "type": "function"
    },
    {
      "inputs": [
        {
          "internalType": "uint256",
          "name": "_tokenId",
          "type": "uint256"
        }
      ],
      "name": "toggleLike",
      "outputs": [],
      "stateMutability": "nonpayable",
      "type": "function"
    },
    {
      "inputs": [
        {
          "internalType": "uint256",
          "name": "tokenId",
          "type": "uint256"
        }
      ],
      "name": "tokenURI",
      "outputs": [
        {
          "internalType": "string",
          "name": "",
          "type": "string"
        }
      ],
      "stateMutability": "view",
      "type": "function"
    },
    {
      "inputs": [
        {
          "internalType": "address",
          "name": "from",
          "type": "address"
        },
        {
          "internalType": "address",
          "name": "to",
          "type": "address"
        },
        {
          "internalType": "uint256",
          "name": "tokenId",
          "type": "uint256"
        }
      ],
      "name": "transferFrom",
      "outputs": [],
      "stateMutability": "nonpayable",
      "type": "function"
    },
    {
      "inputs": [
        {
          "internalType": "uint256",
          "name": "_tokenId",
          "type": "uint256"
        }
      ],
      "name": "unlistToken",
      "outputs": [],
      "stateMutability": "nonpayable",
      "type": "function"
    },
    {
      "inputs": [],
      "name": "unpause",
      "outputs": [],
      "stateMutability": "nonpayable",
      "type": "function"
    },
    {
      "inputs": [
        {
          "internalType": "uint256",
          "name": "_tokenId",
          "type": "uint256"
        },
        {
          "internalType": "uint256",
          "name": "_newPrice",
          "type": "uint256"
        }
      ],
      "name": "updatePrice",
      "outputs": [],
      "stateMutability": "nonpayable",
      "type": "function"
    },
    {
      "inputs": [
        {
          "internalType": "address",
          "name": "_user",
          "type": "address"
        },
        {
          "internalType": "uint256",
          "name": "_amount",
          "type": "uint256"
        }
      ],
      "name": "updateUserXP",
      "outputs": [],
      "stateMutability": "nonpayable",
      "type": "function"
    },
    {
      "inputs": [
        {
          "internalType": "address",
          "name": "newImplementation",
          "type": "address"
        }
      ],
      "name": "upgradeTo",
      "outputs": [],
      "stateMutability": "nonpayable",
      "type": "function"
    },
    {
      "inputs": [
        {
          "internalType": "address",
          "name": "newImplementation",
          "type": "address"
        },
        {
          "internalType": "bytes",
          "name": "data",
          "type": "bytes"
        }
      ],
      "name": "upgradeToAndCall",
      "outputs": [],
      "stateMutability": "payable",
      "type": "function"
    },
    {
      "inputs": [
        {
          "internalType": "address",
          "name": "",
          "type": "address"
        }
      ],
      "name": "userProfiles",
      "outputs": [
        {
          "internalType": "uint256",
          "name": "totalXP",
          "type": "uint256"
        },
        {
          "internalType": "uint8",
          "name": "level",
          "type": "uint8"
        },
        {
          "internalType": "uint256",
          "name": "nftsCreated",
          "type": "uint256"
        },
        {
          "internalType": "uint256",
          "name": "nftsOwned",
          "type": "uint256"
        },
        {
          "internalType": "uint32",
          "name": "nftsSold",
          "type": "uint32"
        },
        {
          "internalType": "uint32",
          "name": "nftsBought",
          "type": "uint32"
        }
      ],
      "stateMutability": "view",
      "type": "function"
    }
  ],
  "bytecode": "0x60a06040523461003257610011610108565b6040516165c961051a82396080518181816128690152612a2601526165c990f35b5f80fd5b634e487b7160e01b5f52604160045260245ffd5b90601f01601f191681019081106001600160401b0382111761006b57604052565b610036565b9061008461007d60405190565b928361004a565b565b6001600160401b03811161006b57602090601f01601f19160190565b906100b46100af83610086565b610070565b918252565b6100c3600c6100a2565b6b11d85b595a599a595913919560a21b602082015290565b6100e36100b9565b90565b6100f060046100a2565b6311d3919560e21b602082015290565b6100e36100e6565b6101216101136100db565b61011b610100565b9061015b565b6100846104aa565b6100e39061013d906001600160a01b031682565b6001600160a01b031690565b6100e390610129565b6100e390610149565b9061016591610173565b61016e30610152565b608052565b610084918291829182916101ac565b9060ff905b9181191691161790565b906101a16100e36101a892151590565b8254610182565b9055565b906101b6916101f8565b6100845f600b610191565b6100e36100e36100e39290565b6100e360016101c1565b905f1990610187565b906101f16100e36101a8926101c1565b82546101d8565b9061020291610214565b61008461020d6101ce565b600a6101e1565b6100849182918291906103d6565b634e487b7160e01b5f52602260045260245ffd5b9060016002830492168015610256575b602083101461025157565b610222565b91607f1691610246565b915f1960089290920291821b911b610187565b91906102846100e36101a8936101c1565b908354610260565b610084915f91610273565b8181106102a2575050565b806102af5f60019361028c565b01610297565b9190601f81116102c457505050565b6102d4610084935f5260205f2090565b906020601f8401819004830193106102f6575b6020601f909101040190610297565b90915081906102e7565b90610309815190565b906001600160401b03821161006b5761032c826103268554610236565b856102b5565b602090601f8311600114610365576101a892915f918361035a575b50505f19600883021c1916906002021790565b015190505f80610347565b601f19831691610378855f5260205f2090565b925f5b8181106103b45750916002939185600196941061039c575b50505002019055565b01515f196008601f8516021c191690555f8080610393565b9193602060018192878701518155019501920161037b565b9061008491610300565b906103e56100849260026103cc565b60036103cc565b6100e39060101c5b60ff1690565b6100e390546103ec565b1561040b57565b60405162461bcd60e51b815260206004820152602760248201527f496e697469616c697a61626c653a20636f6e747261637420697320696e697469604482015266616c697a696e6760c81b6064820152608490fd5b6100e39060081c6103f4565b6100e39054610460565b9061ff009060081b610187565b6103f46100e36100e39260ff1690565b906104a36100e36101a892610483565b8254610476565b6104c36104be6104ba600b6103fa565b1590565b610404565b6104cd600b61046c565b60ff908116036104d957565b6104e560ff600b610493565b7f7f26b83ff96e1f2b6a682f133852f6798a09c465da95921460cefb384740249861050f60405190565b60ff8152602090a156fe60806040526004361015610011575f80fd5b5f3560e01c8062f7bac71461046f578063012386f01461046a578063016fc10e1461046557806301ffc9a71461046057806306fdde031461045b578063081812fc14610456578063095ea7b314610451578063155482321461044c57806323b872dd146104475780632406e67714610442578063248a9ca31461043d5780632a55205a146104385780632d296bf1146104335780632f2ff15d1461042e578063332d56d7146104295780633535f48b1461042457806336568abe1461041f5780633659cfe61461041a5780633854f21b146104155780633c039039146104105780633f4ba83a1461040b57806342842e0e1461040657806349541015146104015780634f1ef286146103fc57806352d1902d146103f757806352de4ee5146103f257806354398d18146103ed5780635c975abb146103e85780635d7dfa99146103e35780635efc27d6146103de578063602dcf29146103d95780636352211e146103d4578063638ac8d3146103cf5780636be9a6f1146103ca57806370a08231146103c557806375b238fc146103c057806377ea168e146103bb5780637de7ff08146103b657806381257bd5146103b157806382367b2d146103ac5780638456cb59146103a75780638cf53102146103a257806391d148541461039d57806395d89b4114610398578063987ee15614610393578063999fdecf1461038e5780639dd373b914610389578063a217fddf14610384578063a22cb4651461037f578063aa7e56831461037a578063ad3a358c14610375578063b7f3a58914610370578063b88d4fde1461036b578063bd4ad42f14610366578063c4d66de814610361578063c87b56dd1461035c578063cb8c8a1514610357578063d45557cc14610352578063d489be261461034d578063d547741f14610348578063d9edf57614610343578063e138818c1461033e578063e5a818f814610339578063e985e9c514610334578063ea6e7eb51461032f578063ed6111001461032a578063f291f5dd14610325578063f72c0d8b14610320578063f748efb81461031b5763fcce48830361047457611991565b61196a565b611931565b61190a565b61185c565b611843565b611827565b6117f0565b6117c6565b6117a0565b611787565b61176b565b6116eb565b6116d0565b61168b565b611673565b611658565b611631565b6115ba565b61152d565b611514565b6114c1565b61146e565b611445565b61141e565b611371565b6112f0565b6112d4565b6112bc565b6112a4565b61128b565b611272565b611253565b61117c565b61108e565b611073565b61104c565b610fbc565b610f6c565b610f58565b610f06565b610edc565b610e9b565b610e83565b610e68565b610e4d565b610e39565b610d4c565b610b30565b610b18565b610afd565b610ad9565b610ac1565b610aa8565b610a8d565b610a36565b6108df565b6108a9565b61087a565b61083e565b610825565b6107f0565b61079b565b61075e565b61070d565b6106d2565b61063e565b6105f2565b6105b7565b610569565b5f80fd5b6001600160a01b031690565b90565b6001600160a01b0381165b0361047457565b905035906104a682610487565b565b80610492565b905035906104a6826104a8565b9091606082840312610474576104846104d48484610499565b9360406104e482602087016104ae565b94016104ae565b9052565b0190565b9061051361050c610502845190565b8084529260200190565b9260200190565b905f5b8181106105235750505090565b9091926105406105396001928651815260200190565b9460200190565b929101610516565b929160206105646104a69360408701908782035f8901526104f3565b940152565b346104745761058261057c3660046104bb565b916119ac565b9061059861058f60405190565b92839283610548565b0390f35b5f91031261047457565b6020808252610484929101906104f3565b34610474576105c736600461059c565b6105986105d2611a39565b604051918291826105a6565b906020828203126104745761048491610499565b34610474576105986105d26106083660046105de565b611a97565b6001600160e01b03198116610492565b905035906104a68261060d565b90602082820312610474576104849161061d565b346104745761059861065961065436600461062a565b611b07565b6040515b91829182901515815260200190565b5f5b83811061067d5750505f910152565b818101518382015260200161066e565b6106ae6106b76020936104ef936106a2815190565b80835293849260200190565b9586910161066c565b601f01601f191690565b60208082526104849291019061068d565b34610474576106e236600461059c565b6105986106ed611b19565b604051918291826106c1565b9060208282031261047457610484916104ae565b34610474576105986107286107233660046106f9565b611b23565b604051918291826001600160a01b03909116815260200190565b9190604083820312610474576104849060206104e48286610499565b3461047457610777610771366004610742565b90611c14565b604051005b6104846104846104849290565b610484600561077c565b610484610789565b34610474576107ab36600461059c565b6105986107b6610793565b6040515b9182918290815260200190565b9091606082840312610474576104846107e08484610499565b9360406104e48260208701610499565b34610474576107776108033660046107c7565b91611cd7565b9190604083820312610474576104849060206104e482866104ae565b3461047457610777610838366004610809565b90611e7a565b34610474576105986107b66108543660046106f9565b611e8a565b6001600160a01b0390911681526040810192916104a69160200152565b0152565b346104745761089361088d366004610809565b90611f9b565b906105986108a060405190565b92839283610859565b6107776108b73660046106f9565b6126d5565b9190604083820312610474576104849060206108d882866104ae565b9401610499565b34610474576107776108f23660046108bc565b906126fe565b610478610484610484926001600160a01b031690565b610484906108f8565b6104849061090e565b9061092a90610917565b5f5260205260405f2090565b6104849081565b6104849054610936565b610484905b60ff1690565b6104849054610947565b610484905b63ffffffff1690565b610484905461095c565b6104849060201c610961565b6104849054610974565b610995906014610920565b9061099f8261093d565b916109ac60018201610952565b916109b96002830161093d565b916109c66003820161093d565b9161048460046109d781850161096a565b9301610980565b9194610a1d610a2a92989795610a1660a096610a0f6104a69a610a0560c08a019e5f8b0152565b60ff166020890152565b6040870152565b6060850152565b63ffffffff166080830152565b019063ffffffff169052565b3461047457610598610a51610a4c3660046105de565b61098a565b92610a6196949692919260405190565b968796876109de565b610484916008021c610478565b906104849154610a6a565b6104845f601c610a77565b3461047457610a9d36600461059c565b610598610728610a82565b3461047457610777610abb3660046108bc565b9061276c565b3461047457610777610ad43660046105de565b612904565b3461047457610582610aec366004610809565b9061290d565b6104845f601a610a77565b3461047457610b0d36600461059c565b610598610728610af2565b3461047457610b2836600461059c565b61077761293a565b3461047457610777610b433660046107c7565b91612953565b9061092a9061077c565b61048490610478565b6104849054610b53565b634e487b7160e01b5f52602260045260245ffd5b9060016002830492168015610b9a575b6020831014610b9557565b610b66565b91607f1691610b8a565b80545f939291610bc0610bb683610b7a565b8085529360200190565b9160018116908115610c0f5750600114610bd957505050565b610bea91929394505f5260205f2090565b915f925b818410610bfb5750500190565b805484840152602090930192600101610bee565b92949550505060ff1916825215156020020190565b9061048491610ba4565b634e487b7160e01b5f52604160045260245ffd5b90601f01601f1916810190811067ffffffffffffffff821117610c6457604052565b610c2e565b906104a6610c8392610c7a60405190565b93848092610c24565b0383610c42565b610484905b6001600160601b031690565b6104849054610c8a565b610cb090600d610b49565b610cb981610b5c565b91610cc660018301610c69565b91610cd360028201610c69565b916104846004610ce56003850161093d565b9301610c9b565b90610d356104a695979694610d27610d3d93608096610d1a60a08801925f8901906001600160a01b03169052565b868203602088015261068d565b90848203604086015261068d565b966060830152565b01906001600160601b03169052565b3461047457610598610d67610d623660046106f9565b610ca5565b91610d7495939560405190565b95869586610cec565b906104a6610d8a60405190565b9283610c42565b67ffffffffffffffff8111610c6457602090601f01601f19160190565b90825f939282370152565b90929192610dce610dc982610d91565b610d7d565b9381855281830111610474576104a6916020850190610dae565b9080601f830112156104745781602061048493359101610db9565b91909160408184031261047457610e1a8382610499565b92602082013567ffffffffffffffff8111610474576104849201610de8565b610777610e47366004610e03565b9061298d565b3461047457610e5d36600461059c565b6105986107b6612a88565b34610474576105986105d2610e7e3660046105de565b612a91565b3461047457610777610e963660046106f9565b612cda565b3461047457610eab36600461059c565b610598610659612ce3565b6001600160a01b0391909116815290151560208201526060810192916104a69160400152565b3461047457610598610ef7610ef23660046106f9565b612d2e565b60405191939193849384610eb6565b3461047457610777610f19366004610742565b90612fac565b60ff8116610492565b905035906104a682610f1f565b919060408382031261047457610484906020610f5182866104ae565b9401610f28565b610777610f66366004610f35565b906131ff565b3461047457610598610728610f823660046106f9565b613255565b610484916008021c61094c565b906104849154610f87565b610fb761048492610fb25f936010610b49565b610920565b610f94565b3461047457610598610659610fd23660046108bc565b90610f9f565b80516001600160a01b03168252906104849060808061101b61100960a085016020880151868203602088015261068d565b6040870151858203604087015261068d565b9461102b60608201516060860152565b01516001600160601b0316910152565b602080825261048492910190610fd8565b34610474576105986110676110623660046106f9565b613348565b6040519182918261103b565b34610474576105986107b66110893660046105de565b6133ce565b346104745761109e36600461059c565b6105985f5160206165545f395f51905f526107b6565b634e487b7160e01b5f52603260045260245ffd5b80548210156110e8576110e06004915f5260205f2090565b910201905f90565b6110b4565b6110f8906013610b49565b90611101825490565b81101561047457611111916110c8565b509061111c82610b5c565b916111296001820161093d565b91610484600361113b60028501610952565b930161093d565b6108766104a69461117260609498979561116b608086019a5f8701906001600160a01b03169052565b6020850152565b60ff166040830152565b3461047457610598611198611192366004610809565b906110ed565b906111a594929460405190565b94859485611142565b909182601f830112156104745781359167ffffffffffffffff831161047457602001926001830284011161047457565b6001600160601b038116610492565b905035906104a6826111de565b60608183031261047457803567ffffffffffffffff811161047457826112219183016111ae565b929093602083013567ffffffffffffffff8111610474578261124a6040946104849387016111ae565b949095016111ed565b34610474576105986107b66112693660046111fa565b93929092613885565b3461047457610777611285366004610809565b90613c48565b346104745761077761129e366004610809565b90613cc7565b34610474576112b436600461059c565b610777613cf2565b34610474576107776112cf3660046105de565b613dca565b34610474576105986106596112ea3660046108bc565b90613dd3565b346104745761130036600461059c565b6105986106ed613dec565b805182526104a6919060a090819060208181015160ff169085015261133560408201516040860152565b61134460608201516060860152565b60808181015163ffffffff1690850152015163ffffffff16910152565b60c0810192916104a6919061130b565b346104745761059861138c6113873660046105de565b613ebb565b60405191829182611361565b9061048491610fd8565b906113b86113ae835190565b8083529160200190565b90816113ca6020830284019460200190565b925f915b8383106113dd57505050505090565b909192939460206114006113f983856001950387528951611398565b9760200190565b93019301919392906113ce565b6020808252610484929101906113a2565b34610474576105986114396114343660046105de565b613f17565b6040519182918261140d565b34610474576107776114583660046105de565b613ff9565b6104845f61077c565b61048461145d565b346104745761147e36600461059c565b6105986107b6611466565b801515610492565b905035906104a682611489565b9190604083820312610474576104849060206114ba8286610499565b9401611491565b34610474576107776114d436600461149e565b90614002565b919091604081840312610474576114f183826104ae565b92602082013567ffffffffffffffff81116104745761151092016111ae565b9091565b34610474576107776115273660046114da565b916142d8565b34610474576107776115403660046106f9565b614375565b906104849161068d565b9061155b6113ae835190565b908161156d6020830284019460200190565b925f915b83831061158057505050505090565b9091929394602061159c6113f983856001950387528951611545565b9301930191939290611571565b60208082526104849291019061154f565b34610474576105986115d56115d03660046106f9565b6143d8565b604051918291826115a9565b90608082820312610474576115f68183610499565b926116048260208501610499565b9261161283604083016104ae565b92606082013567ffffffffffffffff8111610474576104849201610de8565b34610474576107776116443660046115e1565b92919091614400565b6104845f601b610a77565b346104745761166836600461059c565b61059861072861164d565b34610474576107776116863660046105de565b61468f565b34610474576105986106ed6116a13660046106f9565b614698565b610484916008021c81565b9061048491546116a6565b5f6116cb610484926011610b49565b6116b1565b34610474576105986107b66116e63660046106f9565b6116bc565b34610474576107776116fe366004610809565b90614896565b80548210156110e8576110e06001915f5260205f2090565b634e487b7160e01b5f525f60045260245ffd5b905f1061173f5761048490610c69565b61171c565b61174f906012610b49565b8054821015610474576104849161176591611704565b9061172f565b34610474576105986106ed611781366004610809565b90611744565b346104745761077761179a3660046108bc565b906148bb565b34610474576105986107b66117b63660046106f9565b6148c5565b6104845f6019610a77565b34610474576117d636600461059c565b6105986107286117bb565b5f6116cb61048492600f610b49565b34610474576105986107b66118063660046106f9565b6117e1565b9190604083820312610474576104849060206108d88286610499565b346104745761059861065961183d36600461180b565b906148e7565b34610474576105826118563660046104bb565b91614901565b34610474576105986106596118723660046108bc565b9061491d565b80516001600160a01b031682526104a69190606090819061189e60208201516020860152565b60408181015160ff16908501520151910152565b906104ef81608093611878565b906118ce61050c610502845190565b905f5b8181106118de5750505090565b9091926118f161053960019286516118b2565b9291016118d1565b6020808252610484929101906118bf565b34610474576105986119256119203660046106f9565b61499e565b604051918291826118f9565b346104745761194136600461059c565b6105987f189ab7a9244df0848122154315af71fe140f3db0fe014031783b0946b8c9d2e36107b6565b346104745761077761197d3660046105de565b614a35565b5f610fb761048492600e610b49565b34610474576105986106596119a73660046106f9565b611982565b906119c861048461151094936119c0606090565b506016610920565b614a3e565b67ffffffffffffffff8111610c645760208091020190565b906119f2610dc9836119cd565b918252565b369037565b906104a6611a12611a0c846119e5565b936119cd565b601f1901602084016119f7565b90611a28825190565b8110156110e8576020809102010190565b601790611a4582614ad8565b91611a4f836119fc565b91611a595f61077c565b845b811015611a9057611a8981611a83611a76611a5b9487614afa565b611a808389611a1f565b52565b60010190565b9050611a59565b5092505090565b90601691611ab1611aac610484836016610920565b614ad8565b92611abb846119fc565b92611ac55f61077c565b855b811015611aff57611af881611a83611aee611ac794611ae96104848a8a610920565b614afa565b611a80838a611a1f565b9050611ac5565b509350505090565b61048490614b17565b61048490610c69565b6104846002611b10565b611b4261048491611b315f90565b50611b3b81614b40565b6006610b49565b610b5c565b15611b4e57565b60405162461bcd60e51b815260206004820152602160248201527f4552433732313a20617070726f76616c20746f2063757272656e74206f776e656044820152603960f91b606482015280608481015b0390fd5b15611ba957565b60405162461bcd60e51b815260206004820152603d60248201527f4552433732313a20617070726f76652063616c6c6572206973206e6f7420746f60448201527f6b656e206f776e6572206f7220617070726f76656420666f7220616c6c0000006064820152608490fd5b906104a691611c5f611c2583613255565b611c436001600160a01b0382166001600160a01b0385161415611b47565b336001600160a01b0382168114918215611c64575b5050611ba2565b614b51565b611c6e92506148e7565b5f80611c58565b15611c7c57565b60405162461bcd60e51b815260206004820152602d60248201527f4552433732313a2063616c6c6572206973206e6f7420746f6b656e206f776e6560448201526c1c881bdc88185c1c1c9bdd9959609a1b6064820152608490fd5b6104a6929190611cef611cea8433614baa565b611c75565b614c53565b906104a691611d01614cbd565b611dc4565b15611d0d57565b60405162461bcd60e51b81526020600482015260096024820152682737ba1037bbb732b960b91b6044820152606490fd5b15611d4557565b60405162461bcd60e51b815260206004820152600d60248201526c496e76616c696420707269636560981b6044820152606490fd5b9060ff905b9181191691161790565b90611d99610484611da092151590565b8254611d7a565b9055565b905f1990611d7f565b90611dbd610484611da09261077c565b8254611da4565b611de8611dd082613255565b611de2335b916001600160a01b031690565b14611d06565b611dfb611df45f61077c565b8311611d3e565b611e106001611e0b83600e610b49565b611d89565b611e2482611e1f83600f610b49565b611dad565b611e34816017614cd0565b614cd0565b507f5dc96537cbae524775a674b6a810d9a1ba04a9e279f172d156b352151394677a611e75611e6b611e6533610917565b9361077c565b936107ba60405190565b0390a3565b906104a691611cf4565b9061092a565b6001611ea261048492611e9a5f90565b506009611e84565b0161093d565b6104849060a01c610c8f565b6104849054611ea8565b6104846040610d7d565b906104a6611efc5f611ed8611ebe565b94611ef6611ee7838301610b5c565b6001600160a01b031687840152565b01611eb4565b6001600160601b03166020840152565b61048490611ec8565b6104786104846104849290565b61048490611f15565b610484610484610484926001600160601b031690565b634e487b7160e01b5f52601160045260245ffd5b81810292918115918404141715611f6857565b611f41565b634e487b7160e01b5f52601260045260245ffd5b90611f8b565b9190565b908115611f96570490565b611f6d565b611fb4611fb991939293611fac5f90565b506001610b49565b611f0c565b91611fcb83516001600160a01b031690565b611fda611dd56104785f611f22565b1461202d575b5f61201e61200d611f879361200761200260208901516001600160601b031690565b611f2b565b90611f55565b612018612002614cf0565b90611f81565b9301516001600160a01b031690565b9150611f875f61201e61200d61204283611f0c565b959350505050611fe0565b6104a690612059614cbd565b61206a90612065614d51565b6123d5565b6104a6614d83565b1561207957565b60405162461bcd60e51b815260206004820152600a602482015269139bdd081b1a5cdd195960b21b6044820152606490fd5b156120b257565b60405162461bcd60e51b815260206004820152601460248201527f496e73756666696369656e74207061796d656e740000000000000000000000006044820152606490fd5b91908203918211611f6857565b63ffffffff1663ffffffff8114611f685760010190565b9063ffffffff90611d7f565b6109616104846104849263ffffffff1690565b9061214a610484611da092612127565b825461211b565b9067ffffffff000000009060201b611d7f565b90612174610484611da092612127565b8254612151565b91908201809211611f6857565b610484906004611f55565b915f1960089290920291821b911b611d7f565b921b90565b91906121bc610484611da09361077c565b908354612193565b6104a6915f916121ab565b5f8082556104a6916003906121e783600183016121c4565b826002820155016121c4565b905f0361173f576104a6906121cf565b81811061220e575050565b8061221b5f6004936121f3565b01612203565b91909182821061223057505050565b6122526122486122426104a695612188565b93612188565b915f5260205f2090565b9182019101612203565b90600160401b8111610c6457816122746104a6935490565b90828155612221565b5f6104a69161225c565b905f0361173f576104a69061227d565b906119f2610dc983610d91565b3d156122bd576122b33d612297565b903d5f602084013e565b606090565b156122c957565b60405162461bcd60e51b815260206004820152601860248201527f5472656173757279207472616e73666572206661696c656400000000000000006044820152606490fd5b1561231557565b60405162461bcd60e51b815260206004820152601660248201527f53656c6c6572207472616e73666572206661696c6564000000000000000000006044820152606490fd5b6104eb9061077c565b6104849160408201919061237890829061235a565b6020818303910152600881526713919517d4d3d31160c21b602082015260400190565b610484916040820191906123b090829061235a565b6020818303910152600a81526913919517d093d551d21560b21b602082015260400190565b6123e081600e610b49565b6123e990610952565b6123f290612072565b600f6123fe8282610b49565b6124079061093d565b341015612413906120ab565b61241c82613255565b906124278382610b49565b6124309061093d565b9261243c813385614c53565b612444610789565b61244e9085611f55565b612458606461077c565b61246191611f81565b9361246c85826120f7565b9360149461247a8287610920565b6004016124868161096a565b61248f90612104565b6124989161213a565b6124a23387610920565b6004016124ae81610980565b6124b790612104565b6124c091612164565b6124c98661077c565b6124d38388610920565b906124dd8261093d565b906124e79161217b565b6124f091611dad565b6124f98561077c565b6125033388610920565b9061250d8261093d565b906125179161217b565b61252091611dad565b61252b84600e610b49565b5f61253591611d89565b61253e5f61077c565b6125488587610b49565b9061255291611dad565b61255d846017614d8e565b50612569846013610b49565b5f61257391612287565b8661257e6019610b5c565b61258790610917565b61259090610917565b6040515f905a935f94938594f16125a56122a4565b506125af906122c2565b6125b882610917565b6125c190610917565b6040515f905a935f94938594f16125d66122a4565b506125e09061230e565b6125ea6019610b5c565b906125f433610917565b96876126008194610917565b9161260a60405190565b908152604060208201819052600a9082015269544f4b454e5f53414c4560b01b60608201527f21ef4c3fb7c1ca86841fe7b11bbb71ad12bd4b7bb3205924ec33c681c9d47c3f90608090a361265e90610917565b612668819461077c565b9261267260405190565b9081527fa8a7473f10e62cf9687e243de1c3ac8b3cbc3dd04b96826beb3a65b59538581490602090a45f5160206165745f395f51905f5280936126b460405190565b6126bf819282612363565b0390a26040516126d081928261239b565b0390a2565b6104a69061204d565b906104a6916126f46126ef82611e8a565b614da6565b906104a691614db1565b906104a6916126de565b1561270f57565b60405162461bcd60e51b815260206004820152602f60248201527f416363657373436f6e74726f6c3a2063616e206f6e6c792072656e6f756e636560448201526e103937b632b9903337b91039b2b63360891b6064820152608490fd5b6104a6919061278d61277d33610478565b6001600160a01b03841614612708565b614e14565b1561279957565b60405162461bcd60e51b815260206004820152602c60248201527f46756e6374696f6e206d7573742062652063616c6c6564207468726f7567682060448201526b19195b1959d85d1958d85b1b60a21b6064820152608490fd5b156127fa57565b60405162461bcd60e51b815260206004820152602c60248201527f46756e6374696f6e206d7573742062652063616c6c6564207468726f7567682060448201526b6163746976652070726f787960a01b6064820152608490fd5b6104a6906128c461286430610917565b6128a37f00000000000000000000000000000000000000000000000000000000000000009161289c611dd5846001600160a01b031690565b1415612792565b6128be611dd56128b1614e73565b926001600160a01b031690565b146127f3565b6128df565b906104a6611a126128d984612297565b93610d91565b5f6104a6916128ed81614eb2565b6128fe6128f98361077c565b6128c9565b90614f63565b6104a690612854565b61151091906017614a3e565b61292f5f5160206165545f395f51905f52614da6565b6104a66104a66150aa565b6104a6612919565b6104845f612297565b610484612942565b90916104a69261296161294b565b92614400565b906104a69161297861286430610917565b6104a69160019161298881614eb2565b614f63565b906104a691612967565b1561299e57565b60405162461bcd60e51b815260206004820152603860248201527f555550535570677261646561626c653a206d757374206e6f742062652063616c60448201527f6c6564207468726f7567682064656c656761746563616c6c00000000000000006064820152608490fd5b61048490612a51612a1930610917565b612a4b6001600160a01b037f000000000000000000000000000000000000000000000000000000000000000016611dd5565b14612997565b612a7f565b6104847f360894a13ba1a3210667c828492db98dca3e2076cc3735a920a3ca505d382bbc61077c565b50610484612a56565b6104845f612a09565b90601591612aa6611aac610484836015610920565b92612ab0846119fc565b92612aba5f61077c565b855b811015611aff57612ade81611a83611aee612abc94611ae96104848a8a610920565b9050612aba565b6104a690612af1614cbd565b612b63565b15612afd57565b60405162461bcd60e51b815260206004820152600a6024820152694e6f742065786973747360b01b6044820152606490fd5b61048491604082019190612b4490829061235a565b602081830391015260048152634c494b4560e01b602082015260400190565b612b85612b6f82613255565b612b7e611dd56104785f611f22565b1415612af6565b612bed612ba8612ba1836010612bad612ba8612ba18484610b49565b3390610920565b610952565b15612c4e57612bc35f611e0b612ba18585610b49565b612bd6612bd1836011610b49565b61093d565b612be2611f875f61077c565b11612c28575b610b49565b907f4d5c3df35a8d7d04f2e10db1454548af37ee7449c97a4b4c243681f29c2ea407611e75612c1e611e6533610917565b9361065d60405190565b612be8612c36836011610b49565b612c48612c428261093d565b5f190190565b90611dad565b612c606001611e0b612ba18585610b49565b612c7a612c6e836011610b49565b612c48611a838261093d565b612ca6612c87600161077c565b612c485f612c96336014610920565b0191612ca18361093d565b61217b565b612caf33610917565b5f5160206165745f395f51905f52612cc660405190565b80612cd2600182612b2f565b0390a2610b49565b6104a690612ae5565b610484600b610952565b15612cf457565b60405162461bcd60e51b815260206004820152601260248201527113919508191bd95cc81b9bdd08195e1a5cdd60721b6044820152606490fd5b612d3f612d3a826150b2565b612ced565b612d4881613255565b91612d57612ba883600e610b49565b91612d66612ba882600e610b49565b15612d7957612bd161048491600f610b49565b506104845f61077c565b6104a69190612d9e5f5160206165545f395f51905f52614da6565b612e31565b61048461138861077c565b15612db557565b60405162461bcd60e51b815260206004820152601660248201527f5850206f766572666c6f772070726f74656374696f6e000000000000000000006044820152606490fd5b61094c6104846104849290565b6104846032612dfa565b61094c6104846104849260ff1690565b90611d99610484611da092612e11565b6126d0612efd5f5160206165745f395f51905f52926014612e72612e5d87612ca15f611ea28787610920565b612e6b611f87610484612da3565b1115612dae565b612e8e5f612e808484610920565b01612c4888612ca18361093d565b81612eb2612ead612ea35f611ea28587610920565b612018606461077c565b612dfa565b9182612ebc612e07565b90612ecc60ff83165b9160ff1690565b11612fa4575b50612eeb61094c6001612ee58585610920565b01610952565b60ff841611612f3b575b505050610917565b92612f0760405190565b91829182908152604060208201819052600f908201526e45585445524e414c5f534f5552434560881b606082015260800190565b6001612f4b612f51938593610920565b01612e21565b7fa49b8576e012f713baa7dceadb7d709aaec8773b498ecfe582d8b9c0c8fd074f612f99612f7e84610917565b92612f8860405190565b9182918260ff909116815260200190565b0390a25f8181612ef5565b92505f612ed2565b906104a691612d83565b906104a691612fc3614cbd565b61310d565b15612fcf57565b60405162461bcd60e51b815260206004820152600d60248201526c24b73b30b634b21037b33332b960991b6044820152606490fd5b1561300b57565b60405162461bcd60e51b815260206004820152600e60248201526d496e76616c69642065787069727960901b6044820152606490fd5b6104846080610d7d565b906001600160a01b0390611d7f565b9061306a610484611da092610917565b825461304b565b60036130ce60606104a6946130986130925f8301516001600160a01b031690565b8661305a565b6130af6130a6602083015190565b60018701611dad565b6130c96130c0604083015160ff1690565b60028701612e21565b015190565b9101611dad565b919061173f576104a691613071565b90815491600160401b831015610c6457826131079160016104a6950181556110c8565b906130d5565b9061319a90613128613123612ba885600e610b49565b612072565b61313b6131345f61077c565b3411612fc8565b6131445f612dfa565b60ff821611806131e4575b61315890613004565b613166610484846013610b49565b61318a613171613041565b33815292613180346020860152565b60ff166040840152565b613195426060840152565b6130e4565b6131ac6131a633610917565b9161077c565b907f7beddbbf70d8b2a25af77e15d4a173af5f34673a1e7302c7af208aac599dc6db6131d760405190565b3481528060208101611e75565b506131586131f2601e612dfa565b60ff83161115905061314f565b906104a691612fb6565b1561321057565b60405162461bcd60e51b815260206004820152601860248201527f4552433732313a20696e76616c696420746f6b656e20494400000000000000006044820152606490fd5b613261905f5b506150d0565b6104846132706104785f611f22565b6001600160a01b0383161415613209565b61048460a0610d7d565b613293613281565b905f82526020808080808601606081520160605b8152015f8152015f905250565b61048461328b565b906104a661332f60046132cd613281565b946132e76132da82610b5c565b6001600160a01b03168752565b6132fd6132f660018301610c69565b6020880152565b61331361330c60028301610c69565b6040880152565b6133296133226003830161093d565b6060880152565b01610c9b565b6001600160601b03166080840152565b610484906132bc565b61336b610484916133576132b4565b50613364612d3a826150b2565b600d610b49565b61333f565b1561337757565b60405162461bcd60e51b815260206004820152602960248201527f4552433732313a2061646472657373207a65726f206973206e6f7420612076616044820152683634b21037bbb732b960b91b6064820152608490fd5b612bd1610484916133dc5f90565b506133fd6133ec6104785f611f22565b6001600160a01b0383161415613370565b6005610920565b906104849594939291613415614cbd565b6136ea565b610c8f6104846104849290565b1561342e57565b60405162461bcd60e51b815260206004820152600f60248201526e496e76616c696420726f79616c747960881b6044820152606490fd5b610484913691610db9565b81811061347b575050565b806134885f6001936121c4565b01613470565b9190601f811161349d57505050565b6134ad6104a6935f5260205f2090565b906020601f8401819004830193106134cf575b6020601f909101040190613470565b90915081906134c0565b906134e2815190565b9067ffffffffffffffff8211610c6457613506826135008554610b7a565b8561348e565b602090601f831160011461353f57611da092915f9183613534575b50505f19600883021c1916906002021790565b015190505f80613521565b601f19831691613552855f5260205f2090565b925f5b81811061358f57509160029391856001969410613576575b50505002019055565b01515f196008601f8516021c19165b90555f808061356d565b91936020600181928787015181550195019201613555565b906104a6916134d9565b906001600160601b0390611d7f565b610c8f610484610484926001600160601b031690565b906135e6610484611da0926135c0565b82546135b1565b600461366160806104a69461360e6130925f8301516001600160a01b031690565b61362561361c602083015190565b600187016135a7565b61363c613633604083015190565b600287016135a7565b61365361364a606083015190565b60038701611dad565b01516001600160601b031690565b91016135d6565b906104a6916135ed565b5f198114611f685760010190565b91906106b781613697816104ef9560209181520190565b8095610dae565b602080825261048493910191613680565b610484916040820191906136c490829061235a565b6020818303910152600b81526a13919517d0d4915055115160aa1b602082015260400190565b7f1e1b69b56bd875547ce642e5ca9d38001b825863ffbf9cf08c72e0ff64b00a8d949591936137c1915061373361372261271061341a565b6001600160601b0385161115613427565b613797613790600c9861374e6137488b6150e6565b9a6150f9565b6137588a33615117565b61376b613765888a613465565b8b61518c565b613773613281565b3381529361378b613784898b613465565b6020870152565b613465565b6040830152565b6137a2426060830152565b6001600160601b03831660808201526137bc87600d610b49565b613668565b6137ca5f61341a565b6001600160601b03821611613874575b506137fd60026137eb336014610920565b01612c486137f88261093d565b613672565b61380a612c87600a61077c565b61381c84611e2f610484336016610920565b5061382633610917565b9283916138328661077c565b9361384861383f60405190565b9283928361369e565b0390a35f5160206165745f395f51905f5261386260405190565b8061386e600a826136af565b0390a290565b61387f9033866152ed565b5f6137da565b61048494939291905f613404565b9061206a916138a0614d51565b613988565b906104a66138eb60036138b6613041565b946138c36132da82610b5c565b6138d26132f66001830161093d565b611ea26138e160028301610952565b60ff166040880152565b6060840152565b610484906138a5565b61390b6104846104849260ff1690565b62ffffff1690565b61390b6104846104849290565b62ffffff9081169116029062ffffff8216918203611f6857565b6104846104846104849262ffffff1690565b1561395357565b60405162461bcd60e51b815260206004820152600d60248201526c13d999995c88195e1c1a5c9959609a1b6044820152606490fd5b613bc9905f9261399a611dd083613255565b6139d76139d16013926139c26139ba6104846139b68888610b49565b5490565b825b10612fc8565b6139cc8585610b49565b6110c8565b506138f2565b613a2c613a246104846139eb606085015190565b613a1e613a196139ff604088015160ff1690565b613a14613a0e62015180613913565b916138fb565b613920565b61393a565b9061217b565b42111561394c565b613b8a85613a4e6020613a48838601516001600160a01b031690565b94015190565b968794613a5c878633614c53565b613b2e82613b2989613a82613a7b612ea3613a75610789565b8d611f55565b809b6120f7565b94613b036014612c4886612c968e613ab76004613a9f3388610920565b01613ab1613aac8261096a565b612104565b9061213a565b613ad96004613ac68388610920565b01613ad3613aac82610980565b90612164565b613af3613ae58661077c565b612c4885612c96338a610920565b613afd600f61077c565b94610920565b613b1284611e0b84600e610b49565b612be8613b1e8561077c565b611e1f84600f610b49565b612287565b613b5f8280613b48613b43613b436019610b5c565b610917565b6040515f918b905af1613b596122a4565b506122c2565b613b6b613b4333610917565b90613b7560405190565b90818003925af1613b846122a4565b5061230e565b7f21ef4c3fb7c1ca86841fe7b11bbb71ad12bd4b7bb3205924ec33c681c9d47c3f613c06613bc1613bbb6019610b5c565b93610917565b958693610917565b93613bd360405190565b91829182908152604060208201819052600e908201526d13d191915497d050d0d15415115160921b606082015260800190565b0390a37fa6da490df6e8f0e592e795b4d96c5810d8ddfda51c21577adbdd8e1a0fa47a67613c43613c39611e6533610917565b946107ba60405190565b0390a4565b906104a691613893565b906104a691613c5f614cbd565b613c6b611dd082613255565b613c7c613123612ba883600e610b49565b613c88611df45f61077c565b613c9782611e1f83600f610b49565b7fb556fac599c3c70efb9ab1fa725ecace6c81cc48d1455f886607def065f3e0c0611e75611e6b611e6533610917565b906104a691613c52565b613ce75f5160206165545f395f51905f52614da6565b6104a66104a66153ae565b6104a6613cd1565b6104a690613d145f5160206165545f395f51905f52614da6565b613d57565b15613d2057565b60405162461bcd60e51b815260206004820152600f60248201526e496e76616c6964206164647265737360881b6044820152606490fd5b613d77613d666104785f611f22565b6001600160a01b0383161415613d19565b613d98613d92613d87601a610b5c565b613b4384601a61305a565b91610917565b907f86184096e44f529467a03d9c408bb371b99687d885947800e80e6d5b08108f63613dc360405190565b8080611e75565b6104a690613cfa565b610484915f613de6612ba893611e9a5f90565b01610920565b6104846003611b10565b61048460c0610d7d565b613e08613df6565b905f82526020808080808087015f8152015f8152015f6132a7565b610484613e00565b906104a6613ea56004613e3c613df6565b94613e4d613e498261093d565b8752565b613e66613e5c60018301610952565b60ff166020880152565b613e7561330c6002830161093d565b613e846133226003830161093d565b613e9f613e9283830161096a565b63ffffffff166080880152565b01610980565b63ffffffff1660a0840152565b61048490613e2b565b613ed261048491613eca613e23565b506014610920565b613eb2565b5f5b828110613ee557505050565b602090613ef06132b4565b8184015201613ed9565b906104a6613f0a611a0c846119e5565b601f190160208401613ed7565b90601591613f2c611aac610484836015610920565b92613f3684613efa565b92613f405f61077c565b855b811015611aff57613f8381613f6761336b613364613f4295611ae96104848b8b610920565b613f718289611a1f565b52613f7c8188611a1f565b5060010190565b9050613f40565b6104a690613fa45f5160206165545f395f51905f52614da6565b613fb3613d666104785f611f22565b613fce613d92613fc3601c610b5c565b613b4384601c61305a565b907f7042586b23181180eb30b4798702d7a0233b7fc2551e89806770e8e5d9392e6a613dc360405190565b6104a690613f8a565b6104a6919033615402565b906104a6929161401b614cbd565b6141e0565b1561402757565b60405162461bcd60e51b815260206004820152601660248201527f496e76616c696420636f6d6d656e74206c656e677468000000000000000000006044820152606490fd5b6104846103e861077c565b1561407e57565b60405162461bcd60e51b8152602060048201526011602482015270546f6f206d616e7920636f6d6d656e747360781b6044820152606490fd5b919067ffffffffffffffff8211610c64576140d6826135008554610b7a565b5f90601f831160011461410d57611da092915f91836141025750505f19600883021c1916906002021790565b013590505f80613521565b90601f19831691614121855f5260205f2090565b925f5b818110614157575091600293918560019694106141445750505002019055565b01355f19601f84166008021c1916613585565b92936020600181928786013581550195019301614124565b92919061173f576104a6926140b7565b9190825492600160401b841015610c6457836141a39160016104a696018155611704565b9061416f565b610484916040820191906141be90829061235a565b6020818303910152600781526610d3d35351539560ca1b602082015260400190565b7f6ef560d19dd02f57976e8453b811685a89edf49009d64ab71b19489923ef5f0961428993614211612b6f84613255565b8061421e611f875f61077c565b11806142bc575b61422e90614020565b61425361423f6139b6856012610b49565b61424d611f8761048461406c565b10614077565b61426b8185614266610484876012610b49565b61417f565b614278612c87600261077c565b61428133610917565b94859361077c565b9361429661383f60405190565b0390a35f5160206165745f395f51905f526142b060405190565b806126d06002826141a9565b5061422e816142cf611f8761011861077c565b11159050614225565b906104a6929161400d565b6104a6906142ef614cbd565b6142fb611dd082613255565b61430c613123612ba883600e610b49565b61431b5f611e0b83600e610b49565b6143326143275f61077c565b611e1f83600f610b49565b61433d816017614d8e565b5061434a6131a633610917565b907f24287c09523dfd960e13a9774c247fb28a2ccb301eb4208b0d4072bcd0f1826e613dc360405190565b6104a6906142e3565b90614387825490565b614390816119e5565b926143a260208501915f5260205f2090565b5f915b8383106143b25750505050565b6001602081926143c185611b10565b8152019201920191906143a5565b6104849061437e565b6143fb610484916143e7606090565b506143f4612d3a826150b2565b6012610b49565b6143cf565b6104a693929190614414611cea8433614baa565b6154cc565b6104849060101c61094c565b6104849054614419565b6104849060081c61094c565b610484905461442f565b1561444c57565b60405162461bcd60e51b815260206004820152602e60248201527f496e697469616c697a61626c653a20636f6e747261637420697320616c72656160448201526d191e481a5b9a5d1a585b1a5e995960921b6064820152608490fd5b9061ff009060081b611d7f565b906144c5610484611da092612e11565b82546144a8565b9062ff00009060101b611d7f565b906144ea610484611da092151590565b82546144cc565b6104eb90612dfa565b6020810192916104a691906144f1565b61455461451e61451a600b614425565b1590565b9182806145ef575b80156145b1575b61453690614445565b8261454b6145446001612dfa565b600b6144b5565b6145a05761460d565b61455a57565b6145655f600b6144da565b7f7f26b83ff96e1f2b6a682f133852f6798a09c465da95921460cefb384740249861458f60405190565b8061459b6001826144fa565b0390a1565b6145ac6001600b6144da565b61460d565b506145c661451a6145c130610917565b6154eb565b801561452d57506145366145da600b61443b565b6145e7612ec56001612dfa565b14905061452d565b506145fa600b61443b565b614607612ec56001612dfa565b10614526565b61461f61461861145d565b33906126f4565b6146355f5160206165545f395f51905f52614618565b61465e7f189ab7a9244df0848122154315af71fe140f3db0fe014031783b0946b8c9d2e3614618565b61466a6104785f611f22565b6001600160a01b03821614614685576104a6905b601961305a565b506104a63361467e565b6104a69061450a565b61048490615531565b9061206a916146ae614d51565b6147b4565b156146ba57565b60405162461bcd60e51b815260206004820152600b60248201526a2737ba1037b33332b937b960a91b6044820152606490fd5b8181036146f8575050565b60036130ce81846147106130925f6104a69801610b5c565b61471f6130a66001830161093d565b611ea26130c060028301610952565b919061173f576104a6916146ed565b634e487b7160e01b5f52603160045260245ffd5b80548015614773575f19019061477061476a83836110c8565b906121f3565b55565b61473d565b1561477f57565b60405162461bcd60e51b815260206004820152600d60248201526c1499599d5b990819985a5b1959609a1b6044820152606490fd5b5f6104a69261486b614866610484849560136147df6147d96104846139b68585610b49565b876139bc565b612be861481d60206147f86139d18a6139cc8888610b49565b6130c961480e8c8301516001600160a01b031690565b61481733611dd5565b146146b3565b9661486061485461482e8686610b49565b61484e61483e6139b68989610b49565b614848600161077c565b906120f7565b906110c8565b50916139cc8686610b49565b9061472e565b614751565b614877613b4333610917565b9061488160405190565b90818003925af16148906122a4565b50614778565b906104a6916146a1565b906104a6916148b16126ef82611e8a565b906104a691614e14565b906104a6916148a0565b612bd1610484916148d35f90565b506148e0612d3a826150b2565b6011610b49565b61048491610fb2612ba8926148f95f90565b506007610920565b906119c86104846115109493614915606090565b506015610920565b61048491610fb2612ba89261492f5f90565b5061493c612d3a826150b2565b6010610b49565b9061494c825490565b614955816119e5565b9261496760208501915f5260205f2090565b5f915b8383106149775750505050565b60046020600192614987856138f2565b81520192019201919061496a565b61048490614943565b6149c1610484916149ad606090565b506149ba612d3a826150b2565b6013610b49565b614995565b6104a6906149e05f5160206165545f395f51905f52614da6565b6149ef613d666104785f611f22565b614a0a613d926149ff601b610b5c565b613b4384601b61305a565b907fb7b5cab3bc5ae437bba269a16d0a369211a068ae683607ff2ca96f3444929539613dc360405190565b6104a6906149c6565b9290614a4984614ad8565b9283821015614ac257614a5c908261217b565b92808411614aba575b50614a7081846120f7565b92614a7a846119fc565b92614a845f61077c565b855b811015614ab157614aaa81611a83611aee614aa4614a86958961217b565b8b614afa565b9050614a84565b50929450925050565b92505f614a65565b5050909150611f87614ad35f61077c565b6119fc565b614aec5f61048492614ae75f90565b500190565b6155bc565b6104849061077c565b61048491614b0d5f614b1293614ae75f90565b6155ce565b614af1565b637965db0b60e01b6001600160e01b0319821614908115614b36575090565b61048491506155eb565b614b4c6104a6916150b2565b613209565b90614b6682614b61836006610b49565b61305a565b614b786131a6613bbb613b4384613255565b917f8c5be1e5ebec7d5bd14f71427d1e84f3dd0314c0f7b2291e5b200ac8c7c3b925614ba360405190565b8080613c43565b614bb382613255565b916001600160a01b0383166001600160a01b03831614928315614bf3575b508215614bdd57505090565b614bef9192506128b1611dd591611b23565b1490565b614c0091935082906148e7565b915f614bd1565b15614c0e57565b60405162461bcd60e51b815260206004820152601f60248201527f43616e6e6f74207472616e7366657220746f207a65726f2061646472657373006044820152606490fd5b906104a69291614c79614c686104785f611f22565b6001600160a01b0384161415614c07565b6156e4565b15614c8557565b60405162461bcd60e51b815260206004820152601060248201526f14185d5cd8589b194e881c185d5cd95960821b6044820152606490fd5b6104a6614ccb61451a612ce3565b614c7e565b90614ceb611f875f61048494614ce35f90565b50019261077c565b615829565b61048461271061341a565b610484600261077c565b15614d0c57565b60405162461bcd60e51b815260206004820152601f60248201527f5265656e7472616e637947756172643a207265656e7472616e742063616c6c006044820152606490fd5b6104a6614d5e600a61093d565b614d72614d69614cfb565b91821415614d05565b600a611dad565b610484600161077c565b6104a6614d72614d79565b90614da1611f875f61048494614ce35f90565b61588f565b6104a690339061599b565b614dbe61451a8383613dd3565b614dc6575050565b614ddb6001611e0b845f613de6866009611e84565b614de9613d92613bbb339390565b917f2f8788117e7eff1d82e926ec794901d17c78024a50270940304540a733656f0d614ba360405190565b614e1e8282613dd3565b614e26575050565b614e3a5f611e0b8482613de6866009611e84565b614e48613d92613bbb339390565b917ff6391f5c32d9c69d2a47ea670b442974b53935d1edc7fd64eb21e047a839171b614ba360405190565b6104845f614e82610484612a56565b01610b5c565b506104a67f189ab7a9244df0848122154315af71fe140f3db0fe014031783b0946b8c9d2e3614da6565b6104a690614e88565b6104847f4910fdfa16fed3260ed0e7147f7cc6da11a60208b5b9406d12a635614ffd914361077c565b905051906104a6826104a8565b906020828203126104745761048491614ee4565b15614f0c57565b60405162461bcd60e51b815260206004820152602960248201527f45524331393637557067726164653a20756e737570706f727465642070726f786044820152681a58589b195555525160ba1b6064820152608490fd5b9190614f745f612ee5610484614ebb565b15614f845750506104a690615ab4565b614f90613b4384610917565b926020614f9c60405190565b6352d1902d60e01b815294859060049082905afa5f9481615039575b506150195760405162461bcd60e51b815260206004820152602e60248201527f45524331393637557067726164653a206e657720696d706c656d656e7461746960448201526d6f6e206973206e6f74205555505360901b6064820152608490fd5b6150346104a69461502e611f87610484612a56565b14614f05565b615a14565b61505c91955060203d602011615063575b6150548183610c42565b810190614ef1565b935f614fb8565b503d61504a565b615072615b27565b6104a66150805f600b611d89565b7f5db9ee0a495bf2e6ff9c91a7834c1ba4fdd244a5e8aa4e537bd38aeae4b073aa61459b33610728565b6104a661506a565b6150bc905f61325b565b6150cb611dd56104785f611f22565b141590565b611b42610484916150de5f90565b506004610b49565b5f610484916150f25f90565b500161093d565b6104a690612c485f61510b600161077c565b9201916104ef8361093d565b6104a69161512361294b565b91615b37565b1561513057565b60405162461bcd60e51b815260206004820152602e60248201527f45524337323155524953746f726167653a2055524920736574206f66206e6f6e60448201526d32bc34b9ba32b73a103a37b5b2b760911b6064820152608490fd5b61459b906107b67ff8e1a15aba9398e019f0b49df1a4fde98ee17ae345cb5f6b5e2c27f5033e8ce7936151c66151c1846150b2565b615129565b6151d1836008610b49565b6135a7565b156151dd57565b60405162461bcd60e51b815260206004820152602a60248201527f455243323938313a20726f79616c7479206665652077696c6c206578636565646044820152692073616c65507269636560b01b6064820152608490fd5b1561523c57565b60405162461bcd60e51b815260206004820152601b60248201527f455243323938313a20496e76616c696420706172616d657465727300000000006044820152606490fd5b9073ffffffffffffffffffffffffffffffffffffffff199060a01b611d7f565b906152b1610484611da0926135c0565b8254615281565b6104a6916152dd906020906136536152d782516001600160a01b031690565b8561305a565b906152a1565b906104a6916152b8565b615368906153616104a694615317615306610c8f614cf0565b6001600160601b03831611156151d6565b6153376153266104785f611f22565b6001600160a01b0387161415615235565b615351615342611ebe565b6001600160a01b039096168652565b6001600160601b03166020850152565b6001610b49565b6152e3565b615375614cbd565b6104a66153846001600b611d89565b7f62e78cea01bee320cd4e420270b5ea74000d11b0c9f74754ebdbfc544b05a25861459b33610728565b6104a661536d565b156153bd57565b60405162461bcd60e51b815260206004820152601960248201527f4552433732313a20617070726f766520746f2063616c6c6572000000000000006044820152606490fd5b611e75612c1e613bbb7f17307eab39ab6107e8899845ad3d59bd9653f200f220920489ca2b5937696c3193615451615440876001600160a01b031690565b6001600160a01b03831614156153b6565b613b4387611e0b88610fb2856007610920565b1561546b57565b6040515b62461bcd60e51b815260206004820152603260248201527f4552433732313a207472616e7366657220746f206e6f6e20455243373231526560448201527131b2b4bb32b91034b6b83632b6b2b73a32b960711b6064820152608490fd5b916104a693916154e6936154e1838383614c53565b615baa565b615464565b3b6154f8611f875f61077c565b1190565b6104ef6155149260209261550e815190565b94859290565b9384910161066c565b61552b9061048493926154fc565b906154fc565b61553a81614b40565b61554d615548826008610b49565b611b10565b615555615c82565b8051615563611f875f61077c565b146155b6578151615576611f875f61077c565b1161558657505061048490615c8a565b61048492506155aa916104849161559c60405190565b93849260208401928361551d565b90810382520382610c42565b50905090565b5f610484916155c85f90565b50015490565b610484915f6155e5926155de5f90565b5001611704565b906116b1565b61048490615cf6565b156155fb57565b60405162461bcd60e51b815260206004820152602560248201527f4552433732313a207472616e736665722066726f6d20696e636f72726563742060448201526437bbb732b960d91b6064820152608490fd5b1561565557565b60405162461bcd60e51b8152602060048201526024808201527f4552433732313a207472616e7366657220746f20746865207a65726f206164646044820152637265737360e01b6064820152608490fd5b91906008611d7f9102916121a66001600160a01b03841b90565b91906156d1610484611da093610917565b9083546156a6565b6104a6915f916156c0565b6131a6613bbb6157c6929493946157156156fd86613255565b61570f6001600160a01b038416611dd5565b146155f4565b6157356157246104785f611f22565b6001600160a01b038816141561564e565b6157b7615742600161077c565b61574e81888a86615d27565b61576c61575a88613255565b61570f6001600160a01b038616611dd5565b6157805f61577b896006610b49565b6156d9565b61579f61578e846005610920565b612c488361579b8361093d565b0390565b612c486157ad896005610920565b916104ef8361093d565b613b4386614b61876004610b49565b917fddf252ad1be2c89b69c2b068fc378daa952ba7f163c4a11628f55a4df523b3ef614ba360405190565b91906121bc610484611da09390565b90815491600160401b831015610c6457826158239160016104a695018155611704565b906157f1565b61583661451a8383615e05565b1561585f5761585a91611e1f906001615853846139b68482615800565b9301611e84565b600190565b50505f90565b6104a6915f916157f1565b80548015614773575f1901906147706158898383611704565b90615865565b906158a0612bd18260018501611e84565b6158a95f61077c565b811461593f57615907610484925f926158fc9561590160019788936158d66158d08661077c565b826120f7565b888501916158ee6158e5845490565b6148488961077c565b82810361590c575b50505090565b615870565b01611e84565b6121c4565b61582361592f615937946159266155e5611e1f9589611704565b92839188611704565b888801611e84565b5f80806158f6565b5050505f90565b61597e610484939261552b61552b937f416363657373436f6e74726f6c3a206163636f756e7420000000000000000000815260170190565b7001034b99036b4b9b9b4b733903937b6329607d1b815260110190565b906159a961451a8284613dd3565b6159b1575050565b6155aa610484611b9e936159e36159d36159cd6159fb96615e59565b92614af1565b6159dd602061077c565b90615f12565b906159ed60405190565b938492602084019283615946565b6040515b62461bcd60e51b8152918291600483016106c1565b91615a1e83616025565b8151615a2c611f875f61077c565b11908115615a4a575b50615a3e575050565b615a47916160ae565b50565b90505f615a35565b15615a5957565b60405162461bcd60e51b815260206004820152602d60248201527f455243313936373a206e657720696d706c656d656e746174696f6e206973206e60448201526c1bdd08184818dbdb9d1c9858dd609a1b6064820152608490fd5b6104a690615ac9615ac4826154eb565b615a52565b5f615ad5610484612a56565b0161305a565b15615ae257565b60405162461bcd60e51b815260206004820152601460248201527f5061757361626c653a206e6f74207061757365640000000000000000000000006044820152606490fd5b6104a6615b32612ce3565b615adb565b916154e6916104a693615b4a828261615c565b6154e15f611f22565b905051906104a68261060d565b906020828203126104745761048491615b53565b6001600160a01b03918216815291166020820152610484926080820192909190615b9d90613790565b606081840391015261068d565b909190615bb6836154eb565b15615c7957615bc9613b43602094610917565b905f33615bf2615bd860405190565b97889687958694630a85bd0160e11b865260048601615b74565b03925af15f9181615c48575b50615c2e57615c0b6122a4565b8051615c19611f875f61077c565b03615c265760405161546f565b805190602001fd5b614bef630a85bd0160e11b5b916001600160e01b03191690565b615c6b91925060203d602011615c72575b615c638183610c42565b810190615b60565b905f615bfe565b503d615c59565b50505050600190565b61048461294b565b615c9381614b40565b615c9b615c82565b8051615ca9611f875f61077c565b1115615ccc576104846155aa91615cc2610484946161c9565b9061559c60405190565b505061048461294b565b615ce9615ce36104849290565b60e01b90565b6001600160e01b03191690565b615d06615ce96349064906615cd6565b6001600160e01b0319821614908115615d1d575090565b6104849150616253565b929192615d335f611f22565b906001600160a01b0382166001600160a01b03821603615db8575b506001600160a01b03165b6001600160a01b03821603615d6d57505050565b909192615d795f61077c565b835b811015615db157615daa615d7b91613f7c615d9a610484876015610920565b615da4838a61217b565b90614cd0565b9050615d79565b5092505050565b92909491615dc55f61077c565b82811015615df757615df290613f7c615de2610484886015610920565b615dec838a61217b565b90614d8e565b615dc5565b509194909250615d59615d4e565b615e1d916001612bd192615e165f90565b5001611e84565b6150cb611f875f61077c565b610484610484610484926001600160a01b031690565b6104846014612dfa565b6104846104846104849260ff1690565b615e76615e7161048492615e6b606090565b5061090e565b615e29565b6159dd615e81615e3f565b615e49565b90615e8f825190565b8110156110e8570160200190565b8015611f68575f190190565b61048490615ebd611f876104849460ff1690565b901c90565b15615ec957565b60405162461bcd60e51b815280611b9e600482016020808252818101527f537472696e67733a20686578206c656e67746820696e73756666696369656e74604082015260600190565b615f356128f9615f2b84615f26600261077c565b611f55565b613a1e600261077c565b916030615f4a615f445f61077c565b85615e86565b53600f60fb1b615f83615f7a60019384935f1a615f6f615f698661077c565b89615e86565b53615f26600261077c565b613a1e8361077c565b915b615fa6575b50509061048461048492615fa0611f875f61077c565b14615ec2565b9091615fb18261077c565b83111561601f576f181899199a1a9b1b9c1cb0b131b232b360811b615fd6600f61077c565b82169060108210156110e8578392615ff661601392616019941a60f81b90565b5f1a6160028789615e86565b5361600d6004612dfa565b90615ea9565b93615e9d565b91615f85565b91615f8a565b61603290613b4381615ab4565b7fbc7cd75a20ee27fd9adebab32041f755214dbc6bffa90cc0225b39da2e5c2d3b61605c60405190565b80806126d0565b61606d6027612297565b7f416464726573733a206c6f772d6c6576656c2064656c65676174652063616c6c6020820152660819985a5b195960ca1b604082015290565b610484616063565b610484916160ba6160a6565b9161629e565b156160c757565b60405162461bcd60e51b815280611b9e600482016020808252818101527f4552433732313a206d696e7420746f20746865207a65726f2061646472657373604082015260600190565b1561611757565b60405162461bcd60e51b815260206004820152601c60248201527f4552433732313a20746f6b656e20616c7265616479206d696e746564000000006044820152606490fd5b906157c66131a6613bbb61616f5f611f22565b61618d6001600160a01b0382166001600160a01b03881614156160c0565b6161a161619c61451a876150b2565b616110565b6157b76161ae600161077c565b6161ba81888a86615d27565b61579f61619c61451a896150b2565b6161d2816162c5565b906161e36001926104ef600161077c565b91806161ee846128c9565b936020018401905b6162005750505090565b811561624e57616233905f1901926f181899199a1a9b1b9c1cb0b131b232b360811b600a82061a8453612018600a61077c565b9081616241611f875f61077c565b1461624e579091816161f6565b6158f6565b6380ac58cd60e01b6001600160e01b0319821614908115616283575b8115616279575090565b6104849150616466565b6001600160e01b03198116635b5e139f60e01b14915061626f565b5f8061048494936162ad606090565b50602081519101845af46162bf6122a4565b916164db565b6162ce5f61077c565b907a184f03e93ff9f4daa797ed6e38ed64bf6a1f0100000000000000006162f48161077c565b821015616444575b506d04ee2d6d415b85acef81000000006163158161077c565b821015616422575b50662386f26fc1000061632f8161077c565b821015616400575b506305f5e1006163468161077c565b8210156163de575b5061271061635b8161077c565b8210156163bc575b5061636e606461077c565b81101561639a575b616383611f87600a61077c565b101561638c5790565b610484906104ef600161077c565b6163ab6163b691612018606461077c565b916104ef600261077c565b90616376565b6163d7916120186163cc9261077c565b916104ef600461077c565b905f616363565b6163f9916120186163ee9261077c565b916104ef600861077c565b905f61634e565b61641b916120186164109261077c565b916104ef601061077c565b905f616337565b61643d916120186164329261077c565b916104ef602061077c565b905f61631d565b61645f916120186164549261077c565b916104ef604061077c565b905f6162fc565b63152a902d60e11b6001600160e01b0319821614908115616485575090565b6104849150616512565b1561649657565b60405162461bcd60e51b815260206004820152601d60248201527f416464726573733a2063616c6c20746f206e6f6e2d636f6e74726163740000006044820152606490fd5b9192901561650c575081516164f2611f875f61077c565b146164fb575090565b616507610484916154eb565b61648f565b82616522565b614bef6301ffc9a760e01b615c3a565b9061652b825190565b616537611f875f61077c565b11156165465750805190602001fd5b611b9e906159ff6040519056fea49807205ce4d355092ef5a8a18f56e8913cf4a201fbe287825b095693c21775bc485bf8e37db28d327f937baa2ba28235470b977aa1200fd7eedfd31f24ac45a26469706673582212206d8faafdb828be63f5a46c1d72b26249d4f246983fc3c0fbd8072f886446af4964736f6c634300081c0033",
  "linkReferences": {},
  "deployedLinkReferences": {}
}