{
  "_format": "hh-sol-artifact-1",
  "contractName": "IndividualSkillsMarketplace",
  "sourceName": "contracts/Marketplace/IndividualSkillsMarketplace.sol",
  "abi": [
    {
      "inputs": [
        {
          "internalType": "address",
          "name": "_treasuryAddress",
          "type": "address"
        }
      ],
      "stateMutability": "nonpayable",
      "type": "constructor"
    },
    {
      "inputs": [],
      "name": "CannotTransferActiveSkill",
      "type": "error"
    },
    {
      "inputs": [
        {
          "internalType": "uint256",
          "name": "required",
          "type": "uint256"
        },
        {
          "internalType": "uint256",
          "name": "current",
          "type": "uint256"
        }
      ],
      "name": "InsufficientStakingBalance",
      "type": "error"
    },
    {
      "inputs": [],
      "name": "InvalidAddress",
      "type": "error"
    },
    {
      "inputs": [
        {
          "internalType": "uint256",
          "name": "level",
          "type": "uint256"
        }
      ],
      "name": "InvalidLevel",
      "type": "error"
    },
    {
      "inputs": [],
      "name": "InvalidMetadata",
      "type": "error"
    },
    {
      "inputs": [
        {
          "internalType": "uint256",
          "name": "expected",
          "type": "uint256"
        },
        {
          "internalType": "uint256",
          "name": "provided",
          "type": "uint256"
        }
      ],
      "name": "InvalidPrice",
      "type": "error"
    },
    {
      "inputs": [
        {
          "internalType": "uint8",
          "name": "rarity",
          "type": "uint8"
        }
      ],
      "name": "InvalidRarity",
      "type": "error"
    },
    {
      "inputs": [
        {
          "internalType": "uint8",
          "name": "skillType",
          "type": "uint8"
        }
      ],
      "name": "InvalidSkillType",
      "type": "error"
    },
    {
      "inputs": [
        {
          "internalType": "uint8",
          "name": "max",
          "type": "uint8"
        }
      ],
      "name": "MaxActiveSkillsReached",
      "type": "error"
    },
    {
      "inputs": [],
      "name": "NotSkillOwner",
      "type": "error"
    },
    {
      "inputs": [
        {
          "internalType": "uint256",
          "name": "expiresAt",
          "type": "uint256"
        }
      ],
      "name": "SkillAlreadyExpired",
      "type": "error"
    },
    {
      "inputs": [],
      "name": "SkillIsActive",
      "type": "error"
    },
    {
      "inputs": [],
      "name": "SkillNotActive",
      "type": "error"
    },
    {
      "inputs": [
        {
          "internalType": "uint256",
          "name": "expiresAt",
          "type": "uint256"
        }
      ],
      "name": "SkillNotExpired",
      "type": "error"
    },
    {
      "inputs": [
        {
          "internalType": "uint256",
          "name": "skillId",
          "type": "uint256"
        }
      ],
      "name": "SkillNotFound",
      "type": "error"
    },
    {
      "inputs": [
        {
          "internalType": "uint256",
          "name": "skillId",
          "type": "uint256"
        }
      ],
      "name": "SkillNotInList",
      "type": "error"
    },
    {
      "inputs": [
        {
          "internalType": "address",
          "name": "user",
          "type": "address"
        },
        {
          "internalType": "uint256",
          "name": "skillId",
          "type": "uint256"
        }
      ],
      "name": "StakingNotificationFailed",
      "type": "error"
    },
    {
      "anonymous": false,
      "inputs": [
        {
          "indexed": true,
          "internalType": "address",
          "name": "admin",
          "type": "address"
        },
        {
          "indexed": false,
          "internalType": "uint256",
          "name": "amount",
          "type": "uint256"
        },
        {
          "indexed": true,
          "internalType": "address",
          "name": "to",
          "type": "address"
        }
      ],
      "name": "EmergencyWithdrawal",
      "type": "event"
    },
    {
      "anonymous": false,
      "inputs": [
        {
          "indexed": true,
          "internalType": "address",
          "name": "user",
          "type": "address"
        },
        {
          "indexed": true,
          "internalType": "uint256",
          "name": "skillId",
          "type": "uint256"
        },
        {
          "indexed": false,
          "internalType": "enum IStakingIntegration.SkillType",
          "name": "skillType",
          "type": "uint8"
        }
      ],
      "name": "IndividualSkillActivated",
      "type": "event"
    },
    {
      "anonymous": false,
      "inputs": [
        {
          "indexed": true,
          "internalType": "address",
          "name": "user",
          "type": "address"
        },
        {
          "indexed": true,
          "internalType": "uint256",
          "name": "skillId",
          "type": "uint256"
        },
        {
          "indexed": false,
          "internalType": "enum IStakingIntegration.SkillType",
          "name": "skillType",
          "type": "uint8"
        }
      ],
      "name": "IndividualSkillDeactivated",
      "type": "event"
    },
    {
      "anonymous": false,
      "inputs": [
        {
          "indexed": true,
          "internalType": "address",
          "name": "user",
          "type": "address"
        },
        {
          "indexed": true,
          "internalType": "uint256",
          "name": "skillId",
          "type": "uint256"
        },
        {
          "indexed": false,
          "internalType": "enum IStakingIntegration.SkillType",
          "name": "skillType",
          "type": "uint8"
        }
      ],
      "name": "IndividualSkillExpired",
      "type": "event"
    },
    {
      "anonymous": false,
      "inputs": [
        {
          "indexed": true,
          "internalType": "address",
          "name": "user",
          "type": "address"
        },
        {
          "indexed": true,
          "internalType": "uint256",
          "name": "skillId",
          "type": "uint256"
        },
        {
          "indexed": false,
          "internalType": "enum IStakingIntegration.SkillType",
          "name": "skillType",
          "type": "uint8"
        },
        {
          "indexed": false,
          "internalType": "enum IStakingIntegration.Rarity",
          "name": "rarity",
          "type": "uint8"
        },
        {
          "indexed": false,
          "internalType": "uint256",
          "name": "price",
          "type": "uint256"
        }
      ],
      "name": "IndividualSkillPurchased",
      "type": "event"
    },
    {
      "anonymous": false,
      "inputs": [
        {
          "indexed": true,
          "internalType": "address",
          "name": "user",
          "type": "address"
        },
        {
          "indexed": true,
          "internalType": "uint256",
          "name": "skillId",
          "type": "uint256"
        },
        {
          "indexed": false,
          "internalType": "uint256",
          "name": "newExpiryTime",
          "type": "uint256"
        }
      ],
      "name": "IndividualSkillRenewed",
      "type": "event"
    },
    {
      "anonymous": false,
      "inputs": [
        {
          "indexed": true,
          "internalType": "address",
          "name": "from",
          "type": "address"
        },
        {
          "indexed": true,
          "internalType": "address",
          "name": "to",
          "type": "address"
        },
        {
          "indexed": true,
          "internalType": "uint256",
          "name": "skillId",
          "type": "uint256"
        },
        {
          "indexed": false,
          "internalType": "enum IStakingIntegration.SkillType",
          "name": "skillType",
          "type": "uint8"
        }
      ],
      "name": "IndividualSkillTransferred",
      "type": "event"
    },
    {
      "anonymous": false,
      "inputs": [
        {
          "indexed": false,
          "internalType": "address",
          "name": "account",
          "type": "address"
        }
      ],
      "name": "Paused",
      "type": "event"
    },
    {
      "anonymous": false,
      "inputs": [
        {
          "indexed": true,
          "internalType": "bytes32",
          "name": "role",
          "type": "bytes32"
        },
        {
          "indexed": true,
          "internalType": "bytes32",
          "name": "previousAdminRole",
          "type": "bytes32"
        },
        {
          "indexed": true,
          "internalType": "bytes32",
          "name": "newAdminRole",
          "type": "bytes32"
        }
      ],
      "name": "RoleAdminChanged",
      "type": "event"
    },
    {
      "anonymous": false,
      "inputs": [
        {
          "indexed": true,
          "internalType": "bytes32",
          "name": "role",
          "type": "bytes32"
        },
        {
          "indexed": true,
          "internalType": "address",
          "name": "account",
          "type": "address"
        },
        {
          "indexed": true,
          "internalType": "address",
          "name": "sender",
          "type": "address"
        }
      ],
      "name": "RoleGranted",
      "type": "event"
    },
    {
      "anonymous": false,
      "inputs": [
        {
          "indexed": true,
          "internalType": "bytes32",
          "name": "role",
          "type": "bytes32"
        },
        {
          "indexed": true,
          "internalType": "address",
          "name": "account",
          "type": "address"
        },
        {
          "indexed": true,
          "internalType": "address",
          "name": "sender",
          "type": "address"
        }
      ],
      "name": "RoleRevoked",
      "type": "event"
    },
    {
      "anonymous": false,
      "inputs": [
        {
          "indexed": true,
          "internalType": "address",
          "name": "user",
          "type": "address"
        },
        {
          "indexed": true,
          "internalType": "uint256",
          "name": "skillId",
          "type": "uint256"
        }
      ],
      "name": "SkillCleanedUp",
      "type": "event"
    },
    {
      "anonymous": false,
      "inputs": [
        {
          "indexed": true,
          "internalType": "enum IStakingIntegration.SkillType",
          "name": "skillType",
          "type": "uint8"
        },
        {
          "indexed": false,
          "internalType": "uint256",
          "name": "basePrice",
          "type": "uint256"
        },
        {
          "indexed": false,
          "internalType": "uint256",
          "name": "rarityMultiplier",
          "type": "uint256"
        }
      ],
      "name": "SkillPricingUpdated",
      "type": "event"
    },
    {
      "anonymous": false,
      "inputs": [
        {
          "indexed": true,
          "internalType": "address",
          "name": "user",
          "type": "address"
        },
        {
          "indexed": true,
          "internalType": "uint256",
          "name": "skillId",
          "type": "uint256"
        },
        {
          "indexed": false,
          "internalType": "enum IStakingIntegration.SkillType",
          "name": "skillType",
          "type": "uint8"
        },
        {
          "indexed": false,
          "internalType": "uint256",
          "name": "amount",
          "type": "uint256"
        },
        {
          "indexed": false,
          "internalType": "string",
          "name": "operation",
          "type": "string"
        }
      ],
      "name": "SkillPurchaseProcessed",
      "type": "event"
    },
    {
      "anonymous": false,
      "inputs": [
        {
          "indexed": true,
          "internalType": "address",
          "name": "oldStaking",
          "type": "address"
        },
        {
          "indexed": true,
          "internalType": "address",
          "name": "newStaking",
          "type": "address"
        }
      ],
      "name": "StakingContractUpdated",
      "type": "event"
    },
    {
      "anonymous": false,
      "inputs": [
        {
          "indexed": true,
          "internalType": "address",
          "name": "oldTreasury",
          "type": "address"
        },
        {
          "indexed": true,
          "internalType": "address",
          "name": "newTreasury",
          "type": "address"
        }
      ],
      "name": "TreasuryAddressUpdated",
      "type": "event"
    },
    {
      "anonymous": false,
      "inputs": [
        {
          "indexed": false,
          "internalType": "address",
          "name": "account",
          "type": "address"
        }
      ],
      "name": "Unpaused",
      "type": "event"
    },
    {
      "inputs": [],
      "name": "ADMIN_ROLE",
      "outputs": [
        {
          "internalType": "bytes32",
          "name": "",
          "type": "bytes32"
        }
      ],
      "stateMutability": "view",
      "type": "function"
    },
    {
      "inputs": [],
      "name": "DEFAULT_ADMIN_ROLE",
      "outputs": [
        {
          "internalType": "bytes32",
          "name": "",
          "type": "bytes32"
        }
      ],
      "stateMutability": "view",
      "type": "function"
    },
    {
      "inputs": [
        {
          "internalType": "uint256",
          "name": "_skillId",
          "type": "uint256"
        }
      ],
      "name": "activateIndividualSkill",
      "outputs": [],
      "stateMutability": "nonpayable",
      "type": "function"
    },
    {
      "inputs": [
        {
          "internalType": "uint256",
          "name": "_skillId",
          "type": "uint256"
        }
      ],
      "name": "claimExpiredIndividualSkill",
      "outputs": [],
      "stateMutability": "nonpayable",
      "type": "function"
    },
    {
      "inputs": [
        {
          "internalType": "uint256",
          "name": "_skillId",
          "type": "uint256"
        }
      ],
      "name": "deactivateIndividualSkill",
      "outputs": [],
      "stateMutability": "nonpayable",
      "type": "function"
    },
    {
      "inputs": [
        {
          "internalType": "uint256",
          "name": "_amount",
          "type": "uint256"
        }
      ],
      "name": "emergencyWithdraw",
      "outputs": [],
      "stateMutability": "nonpayable",
      "type": "function"
    },
    {
      "inputs": [],
      "name": "emergencyWithdrawAll",
      "outputs": [],
      "stateMutability": "nonpayable",
      "type": "function"
    },
    {
      "inputs": [
        {
          "internalType": "address",
          "name": "_user",
          "type": "address"
        }
      ],
      "name": "getActiveIndividualSkills",
      "outputs": [
        {
          "internalType": "uint256[]",
          "name": "activeSkillIds",
          "type": "uint256[]"
        }
      ],
      "stateMutability": "view",
      "type": "function"
    },
    {
      "inputs": [],
      "name": "getAllSkillsPricing",
      "outputs": [
        {
          "internalType": "enum IStakingIntegration.SkillType[]",
          "name": "skillTypes",
          "type": "uint8[]"
        },
        {
          "internalType": "uint8[]",
          "name": "categories",
          "type": "uint8[]"
        },
        {
          "internalType": "uint256[][]",
          "name": "prices",
          "type": "uint256[][]"
        }
      ],
      "stateMutability": "view",
      "type": "function"
    },
    {
      "inputs": [
        {
          "internalType": "uint256",
          "name": "_skillId",
          "type": "uint256"
        }
      ],
      "name": "getIndividualSkill",
      "outputs": [
        {
          "components": [
            {
              "internalType": "enum IStakingIntegration.SkillType",
              "name": "skillType",
              "type": "uint8"
            },
            {
              "internalType": "enum IStakingIntegration.Rarity",
              "name": "rarity",
              "type": "uint8"
            },
            {
              "internalType": "uint256",
              "name": "level",
              "type": "uint256"
            },
            {
              "internalType": "address",
              "name": "owner",
              "type": "address"
            },
            {
              "internalType": "uint256",
              "name": "purchasedAt",
              "type": "uint256"
            },
            {
              "internalType": "uint256",
              "name": "expiresAt",
              "type": "uint256"
            },
            {
              "internalType": "bool",
              "name": "isActive",
              "type": "bool"
            },
            {
              "internalType": "string",
              "name": "metadata",
              "type": "string"
            },
            {
              "internalType": "uint256",
              "name": "createdAt",
              "type": "uint256"
            }
          ],
          "internalType": "struct IIndividualSkills.IndividualSkill",
          "name": "",
          "type": "tuple"
        }
      ],
      "stateMutability": "view",
      "type": "function"
    },
    {
      "inputs": [
        {
          "internalType": "enum IStakingIntegration.Rarity",
          "name": "_rarity",
          "type": "uint8"
        }
      ],
      "name": "getIndividualSkillPrice",
      "outputs": [
        {
          "internalType": "uint256",
          "name": "",
          "type": "uint256"
        }
      ],
      "stateMutability": "view",
      "type": "function"
    },
    {
      "inputs": [
        {
          "internalType": "bytes32",
          "name": "role",
          "type": "bytes32"
        }
      ],
      "name": "getRoleAdmin",
      "outputs": [
        {
          "internalType": "bytes32",
          "name": "",
          "type": "bytes32"
        }
      ],
      "stateMutability": "view",
      "type": "function"
    },
    {
      "inputs": [
        {
          "internalType": "enum IStakingIntegration.SkillType",
          "name": "_skillType",
          "type": "uint8"
        },
        {
          "internalType": "enum IStakingIntegration.Rarity",
          "name": "_rarity",
          "type": "uint8"
        }
      ],
      "name": "getSkillPrice",
      "outputs": [
        {
          "internalType": "uint256",
          "name": "",
          "type": "uint256"
        }
      ],
      "stateMutability": "view",
      "type": "function"
    },
    {
      "inputs": [
        {
          "internalType": "enum IStakingIntegration.SkillType",
          "name": "_skillType",
          "type": "uint8"
        }
      ],
      "name": "getSkillPricesAllRarities",
      "outputs": [
        {
          "internalType": "uint256[5]",
          "name": "prices",
          "type": "uint256[5]"
        }
      ],
      "stateMutability": "view",
      "type": "function"
    },
    {
      "inputs": [
        {
          "internalType": "address",
          "name": "_user",
          "type": "address"
        },
        {
          "internalType": "enum IStakingIntegration.SkillType",
          "name": "_skillType",
          "type": "uint8"
        }
      ],
      "name": "getUserActiveIndividualSkills",
      "outputs": [
        {
          "internalType": "uint256[]",
          "name": "",
          "type": "uint256[]"
        }
      ],
      "stateMutability": "view",
      "type": "function"
    },
    {
      "inputs": [
        {
          "internalType": "address",
          "name": "_user",
          "type": "address"
        },
        {
          "internalType": "enum IStakingIntegration.SkillType",
          "name": "_skillType",
          "type": "uint8"
        }
      ],
      "name": "getUserActiveSkillCountByType",
      "outputs": [
        {
          "internalType": "uint8",
          "name": "count",
          "type": "uint8"
        }
      ],
      "stateMutability": "view",
      "type": "function"
    },
    {
      "inputs": [
        {
          "internalType": "address",
          "name": "_user",
          "type": "address"
        }
      ],
      "name": "getUserIndividualSkills",
      "outputs": [
        {
          "internalType": "uint256[]",
          "name": "",
          "type": "uint256[]"
        }
      ],
      "stateMutability": "view",
      "type": "function"
    },
    {
      "inputs": [
        {
          "internalType": "address",
          "name": "_user",
          "type": "address"
        }
      ],
      "name": "getUserIndividualSkillsDetailed",
      "outputs": [
        {
          "components": [
            {
              "internalType": "enum IStakingIntegration.SkillType",
              "name": "skillType",
              "type": "uint8"
            },
            {
              "internalType": "enum IStakingIntegration.Rarity",
              "name": "rarity",
              "type": "uint8"
            },
            {
              "internalType": "uint256",
              "name": "level",
              "type": "uint256"
            },
            {
              "internalType": "address",
              "name": "owner",
              "type": "address"
            },
            {
              "internalType": "uint256",
              "name": "purchasedAt",
              "type": "uint256"
            },
            {
              "internalType": "uint256",
              "name": "expiresAt",
              "type": "uint256"
            },
            {
              "internalType": "bool",
              "name": "isActive",
              "type": "bool"
            },
            {
              "internalType": "string",
              "name": "metadata",
              "type": "string"
            },
            {
              "internalType": "uint256",
              "name": "createdAt",
              "type": "uint256"
            }
          ],
          "internalType": "struct IIndividualSkills.IndividualSkill[]",
          "name": "skills",
          "type": "tuple[]"
        },
        {
          "internalType": "bool[]",
          "name": "isActive",
          "type": "bool[]"
        }
      ],
      "stateMutability": "view",
      "type": "function"
    },
    {
      "inputs": [
        {
          "internalType": "address",
          "name": "_user",
          "type": "address"
        }
      ],
      "name": "getUserPlatformSkills",
      "outputs": [
        {
          "components": [
            {
              "internalType": "enum IStakingIntegration.SkillType",
              "name": "skillType",
              "type": "uint8"
            },
            {
              "internalType": "enum IStakingIntegration.Rarity",
              "name": "rarity",
              "type": "uint8"
            },
            {
              "internalType": "uint256",
              "name": "level",
              "type": "uint256"
            },
            {
              "internalType": "address",
              "name": "owner",
              "type": "address"
            },
            {
              "internalType": "uint256",
              "name": "purchasedAt",
              "type": "uint256"
            },
            {
              "internalType": "uint256",
              "name": "expiresAt",
              "type": "uint256"
            },
            {
              "internalType": "bool",
              "name": "isActive",
              "type": "bool"
            },
            {
              "internalType": "string",
              "name": "metadata",
              "type": "string"
            },
            {
              "internalType": "uint256",
              "name": "createdAt",
              "type": "uint256"
            }
          ],
          "internalType": "struct IIndividualSkills.IndividualSkill[]",
          "name": "skills",
          "type": "tuple[]"
        },
        {
          "internalType": "bool[]",
          "name": "isActive",
          "type": "bool[]"
        },
        {
          "internalType": "bool[]",
          "name": "isExpired",
          "type": "bool[]"
        }
      ],
      "stateMutability": "view",
      "type": "function"
    },
    {
      "inputs": [
        {
          "internalType": "address",
          "name": "_user",
          "type": "address"
        }
      ],
      "name": "getUserSkillStats",
      "outputs": [
        {
          "internalType": "uint256",
          "name": "totalSkills",
          "type": "uint256"
        },
        {
          "internalType": "uint256",
          "name": "totalStakingSkills",
          "type": "uint256"
        },
        {
          "internalType": "uint256",
          "name": "totalPlatformSkills",
          "type": "uint256"
        },
        {
          "internalType": "uint256",
          "name": "activeCount",
          "type": "uint256"
        },
        {
          "internalType": "uint256",
          "name": "expiredCount",
          "type": "uint256"
        }
      ],
      "stateMutability": "view",
      "type": "function"
    },
    {
      "inputs": [
        {
          "internalType": "address",
          "name": "_user",
          "type": "address"
        }
      ],
      "name": "getUserSkillsByCategory",
      "outputs": [
        {
          "components": [
            {
              "internalType": "enum IStakingIntegration.SkillType",
              "name": "skillType",
              "type": "uint8"
            },
            {
              "internalType": "enum IStakingIntegration.Rarity",
              "name": "rarity",
              "type": "uint8"
            },
            {
              "internalType": "uint256",
              "name": "level",
              "type": "uint256"
            },
            {
              "internalType": "address",
              "name": "owner",
              "type": "address"
            },
            {
              "internalType": "uint256",
              "name": "purchasedAt",
              "type": "uint256"
            },
            {
              "internalType": "uint256",
              "name": "expiresAt",
              "type": "uint256"
            },
            {
              "internalType": "bool",
              "name": "isActive",
              "type": "bool"
            },
            {
              "internalType": "string",
              "name": "metadata",
              "type": "string"
            },
            {
              "internalType": "uint256",
              "name": "createdAt",
              "type": "uint256"
            }
          ],
          "internalType": "struct IIndividualSkills.IndividualSkill[]",
          "name": "stakingSkills",
          "type": "tuple[]"
        },
        {
          "components": [
            {
              "internalType": "enum IStakingIntegration.SkillType",
              "name": "skillType",
              "type": "uint8"
            },
            {
              "internalType": "enum IStakingIntegration.Rarity",
              "name": "rarity",
              "type": "uint8"
            },
            {
              "internalType": "uint256",
              "name": "level",
              "type": "uint256"
            },
            {
              "internalType": "address",
              "name": "owner",
              "type": "address"
            },
            {
              "internalType": "uint256",
              "name": "purchasedAt",
              "type": "uint256"
            },
            {
              "internalType": "uint256",
              "name": "expiresAt",
              "type": "uint256"
            },
            {
              "internalType": "bool",
              "name": "isActive",
              "type": "bool"
            },
            {
              "internalType": "string",
              "name": "metadata",
              "type": "string"
            },
            {
              "internalType": "uint256",
              "name": "createdAt",
              "type": "uint256"
            }
          ],
          "internalType": "struct IIndividualSkills.IndividualSkill[]",
          "name": "activeSkills",
          "type": "tuple[]"
        }
      ],
      "stateMutability": "view",
      "type": "function"
    },
    {
      "inputs": [
        {
          "internalType": "address",
          "name": "_user",
          "type": "address"
        }
      ],
      "name": "getUserSkillsComprehensive",
      "outputs": [
        {
          "components": [
            {
              "internalType": "enum IStakingIntegration.SkillType",
              "name": "skillType",
              "type": "uint8"
            },
            {
              "internalType": "enum IStakingIntegration.Rarity",
              "name": "rarity",
              "type": "uint8"
            },
            {
              "internalType": "uint256",
              "name": "level",
              "type": "uint256"
            },
            {
              "internalType": "address",
              "name": "owner",
              "type": "address"
            },
            {
              "internalType": "uint256",
              "name": "purchasedAt",
              "type": "uint256"
            },
            {
              "internalType": "uint256",
              "name": "expiresAt",
              "type": "uint256"
            },
            {
              "internalType": "bool",
              "name": "isActive",
              "type": "bool"
            },
            {
              "internalType": "string",
              "name": "metadata",
              "type": "string"
            },
            {
              "internalType": "uint256",
              "name": "createdAt",
              "type": "uint256"
            }
          ],
          "internalType": "struct IIndividualSkills.IndividualSkill[]",
          "name": "allSkills",
          "type": "tuple[]"
        },
        {
          "internalType": "bool[]",
          "name": "isActive",
          "type": "bool[]"
        },
        {
          "internalType": "bool[]",
          "name": "isExpired",
          "type": "bool[]"
        },
        {
          "internalType": "uint256[]",
          "name": "expiresIn",
          "type": "uint256[]"
        },
        {
          "internalType": "string[]",
          "name": "categoryNames",
          "type": "string[]"
        }
      ],
      "stateMutability": "view",
      "type": "function"
    },
    {
      "inputs": [
        {
          "internalType": "address",
          "name": "_user",
          "type": "address"
        }
      ],
      "name": "getUserStakingSkills",
      "outputs": [
        {
          "components": [
            {
              "internalType": "enum IStakingIntegration.SkillType",
              "name": "skillType",
              "type": "uint8"
            },
            {
              "internalType": "enum IStakingIntegration.Rarity",
              "name": "rarity",
              "type": "uint8"
            },
            {
              "internalType": "uint256",
              "name": "level",
              "type": "uint256"
            },
            {
              "internalType": "address",
              "name": "owner",
              "type": "address"
            },
            {
              "internalType": "uint256",
              "name": "purchasedAt",
              "type": "uint256"
            },
            {
              "internalType": "uint256",
              "name": "expiresAt",
              "type": "uint256"
            },
            {
              "internalType": "bool",
              "name": "isActive",
              "type": "bool"
            },
            {
              "internalType": "string",
              "name": "metadata",
              "type": "string"
            },
            {
              "internalType": "uint256",
              "name": "createdAt",
              "type": "uint256"
            }
          ],
          "internalType": "struct IIndividualSkills.IndividualSkill[]",
          "name": "skills",
          "type": "tuple[]"
        },
        {
          "internalType": "bool[]",
          "name": "isActive",
          "type": "bool[]"
        },
        {
          "internalType": "bool[]",
          "name": "isExpired",
          "type": "bool[]"
        }
      ],
      "stateMutability": "view",
      "type": "function"
    },
    {
      "inputs": [
        {
          "internalType": "bytes32",
          "name": "role",
          "type": "bytes32"
        },
        {
          "internalType": "address",
          "name": "account",
          "type": "address"
        }
      ],
      "name": "grantRole",
      "outputs": [],
      "stateMutability": "nonpayable",
      "type": "function"
    },
    {
      "inputs": [
        {
          "internalType": "bytes32",
          "name": "role",
          "type": "bytes32"
        },
        {
          "internalType": "address",
          "name": "account",
          "type": "address"
        }
      ],
      "name": "hasRole",
      "outputs": [
        {
          "internalType": "bool",
          "name": "",
          "type": "bool"
        }
      ],
      "stateMutability": "view",
      "type": "function"
    },
    {
      "inputs": [
        {
          "internalType": "uint256",
          "name": "",
          "type": "uint256"
        }
      ],
      "name": "individualSkills",
      "outputs": [
        {
          "internalType": "enum IStakingIntegration.SkillType",
          "name": "skillType",
          "type": "uint8"
        },
        {
          "internalType": "enum IStakingIntegration.Rarity",
          "name": "rarity",
          "type": "uint8"
        },
        {
          "internalType": "uint256",
          "name": "level",
          "type": "uint256"
        },
        {
          "internalType": "address",
          "name": "owner",
          "type": "address"
        },
        {
          "internalType": "uint256",
          "name": "purchasedAt",
          "type": "uint256"
        },
        {
          "internalType": "uint256",
          "name": "expiresAt",
          "type": "uint256"
        },
        {
          "internalType": "bool",
          "name": "isActive",
          "type": "bool"
        },
        {
          "internalType": "string",
          "name": "metadata",
          "type": "string"
        },
        {
          "internalType": "uint256",
          "name": "createdAt",
          "type": "uint256"
        }
      ],
      "stateMutability": "view",
      "type": "function"
    },
    {
      "inputs": [],
      "name": "pause",
      "outputs": [],
      "stateMutability": "nonpayable",
      "type": "function"
    },
    {
      "inputs": [],
      "name": "paused",
      "outputs": [
        {
          "internalType": "bool",
          "name": "",
          "type": "bool"
        }
      ],
      "stateMutability": "view",
      "type": "function"
    },
    {
      "inputs": [
        {
          "internalType": "enum IStakingIntegration.SkillType",
          "name": "_skillType",
          "type": "uint8"
        },
        {
          "internalType": "enum IStakingIntegration.Rarity",
          "name": "_rarity",
          "type": "uint8"
        },
        {
          "internalType": "uint256",
          "name": "_level",
          "type": "uint256"
        },
        {
          "internalType": "string",
          "name": "_metadata",
          "type": "string"
        }
      ],
      "name": "purchaseIndividualSkill",
      "outputs": [
        {
          "internalType": "uint256",
          "name": "skillId",
          "type": "uint256"
        }
      ],
      "stateMutability": "payable",
      "type": "function"
    },
    {
      "inputs": [
        {
          "internalType": "uint256",
          "name": "_skillId",
          "type": "uint256"
        }
      ],
      "name": "renewIndividualSkill",
      "outputs": [],
      "stateMutability": "payable",
      "type": "function"
    },
    {
      "inputs": [
        {
          "internalType": "bytes32",
          "name": "role",
          "type": "bytes32"
        },
        {
          "internalType": "address",
          "name": "account",
          "type": "address"
        }
      ],
      "name": "renounceRole",
      "outputs": [],
      "stateMutability": "nonpayable",
      "type": "function"
    },
    {
      "inputs": [],
      "name": "resetSkillPricingToDefaults",
      "outputs": [],
      "stateMutability": "nonpayable",
      "type": "function"
    },
    {
      "inputs": [
        {
          "internalType": "bytes32",
          "name": "role",
          "type": "bytes32"
        },
        {
          "internalType": "address",
          "name": "account",
          "type": "address"
        }
      ],
      "name": "revokeRole",
      "outputs": [],
      "stateMutability": "nonpayable",
      "type": "function"
    },
    {
      "inputs": [
        {
          "internalType": "address",
          "name": "_stakingAddress",
          "type": "address"
        }
      ],
      "name": "setStakingContract",
      "outputs": [],
      "stateMutability": "nonpayable",
      "type": "function"
    },
    {
      "inputs": [
        {
          "internalType": "address",
          "name": "_treasuryAddress",
          "type": "address"
        }
      ],
      "name": "setTreasuryAddress",
      "outputs": [],
      "stateMutability": "nonpayable",
      "type": "function"
    },
    {
      "inputs": [
        {
          "internalType": "enum IStakingIntegration.SkillType",
          "name": "",
          "type": "uint8"
        },
        {
          "internalType": "enum IStakingIntegration.Rarity",
          "name": "",
          "type": "uint8"
        }
      ],
      "name": "skillPrices",
      "outputs": [
        {
          "internalType": "uint256",
          "name": "",
          "type": "uint256"
        }
      ],
      "stateMutability": "view",
      "type": "function"
    },
    {
      "inputs": [],
      "name": "stakingContractAddress",
      "outputs": [
        {
          "internalType": "address",
          "name": "",
          "type": "address"
        }
      ],
      "stateMutability": "view",
      "type": "function"
    },
    {
      "inputs": [
        {
          "internalType": "bytes4",
          "name": "interfaceId",
          "type": "bytes4"
        }
      ],
      "name": "supportsInterface",
      "outputs": [
        {
          "internalType": "bool",
          "name": "",
          "type": "bool"
        }
      ],
      "stateMutability": "view",
      "type": "function"
    },
    {
      "inputs": [
        {
          "internalType": "uint256",
          "name": "_skillId",
          "type": "uint256"
        },
        {
          "internalType": "address",
          "name": "_recipient",
          "type": "address"
        }
      ],
      "name": "transferIndividualSkill",
      "outputs": [],
      "stateMutability": "nonpayable",
      "type": "function"
    },
    {
      "inputs": [],
      "name": "treasuryAddress",
      "outputs": [
        {
          "internalType": "address",
          "name": "",
          "type": "address"
        }
      ],
      "stateMutability": "view",
      "type": "function"
    },
    {
      "inputs": [],
      "name": "unpause",
      "outputs": [],
      "stateMutability": "nonpayable",
      "type": "function"
    },
    {
      "inputs": [
        {
          "internalType": "uint256",
          "name": "_commonPrice",
          "type": "uint256"
        },
        {
          "internalType": "uint256",
          "name": "_uncommonPrice",
          "type": "uint256"
        },
        {
          "internalType": "uint256",
          "name": "_rarePrice",
          "type": "uint256"
        },
        {
          "internalType": "uint256",
          "name": "_epicPrice",
          "type": "uint256"
        },
        {
          "internalType": "uint256",
          "name": "_legendaryPrice",
          "type": "uint256"
        }
      ],
      "name": "updateActiveSkillsPricing",
      "outputs": [],
      "stateMutability": "nonpayable",
      "type": "function"
    },
    {
      "inputs": [
        {
          "internalType": "enum IStakingIntegration.SkillType",
          "name": "_skillType",
          "type": "uint8"
        },
        {
          "internalType": "enum IStakingIntegration.Rarity",
          "name": "_rarity",
          "type": "uint8"
        },
        {
          "internalType": "uint256",
          "name": "_price",
          "type": "uint256"
        }
      ],
      "name": "updateSkillPrice",
      "outputs": [],
      "stateMutability": "nonpayable",
      "type": "function"
    },
    {
      "inputs": [
        {
          "internalType": "uint256",
          "name": "_commonPrice",
          "type": "uint256"
        },
        {
          "internalType": "uint256",
          "name": "_uncommonPrice",
          "type": "uint256"
        },
        {
          "internalType": "uint256",
          "name": "_rarePrice",
          "type": "uint256"
        },
        {
          "internalType": "uint256",
          "name": "_epicPrice",
          "type": "uint256"
        },
        {
          "internalType": "uint256",
          "name": "_legendaryPrice",
          "type": "uint256"
        }
      ],
      "name": "updateStakingSkillsPricing",
      "outputs": [],
      "stateMutability": "nonpayable",
      "type": "function"
    },
    {
      "inputs": [
        {
          "internalType": "address",
          "name": "",
          "type": "address"
        },
        {
          "internalType": "enum IStakingIntegration.SkillType",
          "name": "",
          "type": "uint8"
        }
      ],
      "name": "userActiveSkillCount",
      "outputs": [
        {
          "internalType": "uint8",
          "name": "",
          "type": "uint8"
        }
      ],
      "stateMutability": "view",
      "type": "function"
    },
    {
      "inputs": [
        {
          "internalType": "address",
          "name": "",
          "type": "address"
        },
        {
          "internalType": "enum IStakingIntegration.SkillType",
          "name": "",
          "type": "uint8"
        },
        {
          "internalType": "uint256",
          "name": "",
          "type": "uint256"
        }
      ],
      "name": "userActiveSkills",
      "outputs": [
        {
          "internalType": "uint256",
          "name": "",
          "type": "uint256"
        }
      ],
      "stateMutability": "view",
      "type": "function"
    },
    {
      "inputs": [
        {
          "internalType": "address",
          "name": "",
          "type": "address"
        },
        {
          "internalType": "uint256",
          "name": "",
          "type": "uint256"
        }
      ],
      "name": "userIndividualSkills",
      "outputs": [
        {
          "internalType": "uint256",
          "name": "",
          "type": "uint256"
        }
      ],
      "stateMutability": "view",
      "type": "function"
    },
    {
      "stateMutability": "payable",
      "type": "receive"
    }
  ],
  "bytecode": "0x60806040523461002a576100196100146100bf565b61015f565b604051614965610602823961496590f35b5f80fd5b634e487b7160e01b5f52604160045260245ffd5b90601f01601f191681019081106001600160401b0382111761006357604052565b61002e565b9061007c61007560405190565b9283610042565b565b6001600160a01b031690565b90565b6001600160a01b0381160361002a57565b9050519061007c8261008d565b9060208282031261002a5761008a9161009e565b61008a614f67803803806100d281610068565b9283398101906100ab565b61007e61008a61008a9290565b61008a906100dd565b61008a61008a61008a9290565b61008a5f6100f3565b906001600160a01b03905b9181191691161790565b61008a9061007e906001600160a01b031682565b61008a9061011e565b61008a90610132565b9061015461008a61015b9261013b565b8254610109565b9055565b6101676101e1565b61017361007e5f6100ea565b6001600160a01b038216146101d0576101c890610198610191610100565b3390610258565b6101c17fa49807205ce4d355092ef5a8a18f56e8913cf4a201fbe287825b095693c21775610191565b6008610144565b61007c6103db565b63e6c4247b60e01b5f908152600490fd5b61007c610213565b61008a60016100f3565b905f1990610114565b9061020c61008a61015b926100f3565b82546101f3565b61021b61024d565b61007c6102266101e9565b60026101fc565b9060ff90610114565b9061024661008a61015b92151590565b825461022d565b61007c5f6001610236565b9061007c9161054d565b61026f61008a61008a9290565b60ff1690565b634e487b7160e01b5f52601160045260245ffd5b60ff1660ff811461029a5760010190565b610275565b634e487b7160e01b5f52602160045260245ffd5b601111156102bd57565b61029f565b9061007c826102b3565b6102dc61008a61008a9260ff1690565b6102c2565b61008a6802b5e3af16b18800006100f3565b61008a906102c2565b90610306906102f3565b5f5260205260405f2090565b600511156102bd57565b9061007c82610312565b61008a9061031c565b9061030690610326565b61008a6804563918244f4000006100f3565b61008a68056bc75e2d631000006100f3565b61008a680821ab0d44149800006100f3565b61008a680bed1d0263d9f000006100f3565b61008a6803860e639d806400006100f3565b61008a6805a34a38fc00a000006100f3565b61008a68070c1cc73b00c800006100f3565b61008a680a922b2ad8812c00006100f3565b61008a680f810c1cb501b800006100f3565b600180806103e881610262565b905b6104c1575b506103fa6008610262565b905b610404575050565b61040e6010610262565b60ff8216116104bd576104b7816104b261042885946102cc565b610452600461044d610438610381565b93610457600a956104525f61044d858a6102fc565b61032f565b6101fc565b610470610462610393565b6104528b61044d858a6102fc565b61048a61047b6103a5565b610452600261044d858a6102fc565b6104a46104956103b7565b610452600361044d858a6102fc565b6104ac6103c9565b946102fc565b610289565b906103fc565b5050565b6104cb6007610262565b60ff82161161053857806104b26104e4610532936102cc565b610452600461044d6104f46102e1565b93610509600a956104525f61044d858a6102fc565b610514610462610339565b61051f61047b61034b565b61052a61049561035d565b6104ac61036f565b816103ea565b6103ef565b90610306565b906103069061013b565b61055e61055a83836105e2565b1590565b610566575050565b6105856001610580845f61057a868261053d565b01610543565b610236565b61059f610599610593339390565b9361013b565b9161013b565b917f2f8788117e7eff1d82e926ec794901d17c78024a50270940304540a733656f0d6105ca60405190565b5f90a4565b61008a9061026f565b61008a90546105cf565b61008a915f61057a6105fc936105f55f90565b508261053d565b6105d856fe6080604052600436101561001a575b3615610018575f80fd5b005b5f3560e01c806301ffc9a714610309578063030f5782146103045780630538809a146102ff57806318f069b9146102fa57806319be57ee146102f55780631bb445c2146102f0578063234d41db146102eb578063248a9ca3146102e65780632eb849eb146102e15780632f2ff15d146102dc5780633535f48b146102d757806336568abe146102d25780633ede838c146102cd5780633f4ba83a146102c857806347474470146102c35780635312ea8e146102be578063554ba220146102b95780635c975abb146102b457806365527702146102af57806365cd7949146102aa5780636605bfda146102a557806372df8211146102a057806375b238fc1461029b5780638087dc46146102965780638456cb5914610291578063850c1f1f1461028c5780638abad5f81461028757806391d1485414610282578063926207de1461027d578063980c6d6d146102785780639dd373b914610273578063a217fddf1461026e578063a5d34cb114610269578063ab3acc2414610264578063bd6d02241461025f578063c0e383d01461025a578063c5f956af14610255578063cc8854cc14610250578063d25476641461024b578063d547741f14610246578063dd19171914610241578063e6b82d961461023c578063ec2f595114610237578063f0ec2ce114610232578063f96ecb4b1461022d578063fd1828a9146102285763fde4b2260361000e576114f8565b6114bb565b61149f565b611460565b611444565b611428565b611410565b6113f7565b6113dc565b6113ab565b611354565b611336565b61131a565b6112ba565b61128a565b61123f565b611216565b6111fb565b6111e2565b6111c6565b6111aa565b6110cd565b611085565b611054565b610f6c565b610f54565b610f3c565b610f05565b610c81565b610c52565b610c2b565b610bb3565b610b89565b610af8565b610ace565b610953565b61091e565b6108d1565b610880565b6107b7565b61079b565b61077f565b6106e1565b610615565b610484565b610445565b61034f565b6001600160e01b031981165b0361032157565b5f80fd5b905035906103328261030e565b565b906020828203126103215761034891610325565b90565b9052565b346103215761037c61036a610365366004610334565b611526565b60405191829182901515815260200190565b0390f35b6011111561032157565b9050359061033282610380565b6005111561032157565b9050359061033282610397565b8061031a565b90503590610332826103ae565b909182601f830112156103215781359167ffffffffffffffff831161032157602001926001830284011161032157565b9060808282031261032157610406818361038a565b9261041482602085016103a1565b9261042283604083016103b4565b92606082013567ffffffffffffffff81116103215761044192016103c1565b9091565b61037c61045f6104563660046103f1565b93929092611c1f565b6040515b9182918290815260200190565b9060208282031261032157610348916103b4565b346103215761049c610497366004610470565b611eac565b604051005b634e487b7160e01b5f52602160045260245ffd5b601111156104bf57565b6104a1565b90610332826104b5565b610348906104c4565b61034b906104ce565b600511156104bf57565b90610332826104e0565b610348906104ea565b61034b906104f4565b6001600160a01b031690565b5f5b8381106105235750505f910152565b8181015183820152602001610514565b61055461055d60209361056793610548815190565b80835293849260200190565b95869101610512565b601f01601f191690565b0190565b9061034890610100806105fc610120840161058c5f8801515f8701906104d7565b61059e602088015160208701906104fd565b6105ad60408801516040870152565b6060878101516001600160a01b0316908601526105cf60808801516080870152565b6105de60a088015160a0870152565b60c08781015115159086015260e087015185820360e0870152610533565b940151910152565b60208082526103489291019061056b565b346103215761037c61063061062b366004610470565b611ff6565b60405191829182610604565b6001600160a01b03811661031a565b905035906103328261063c565b919060408382031261032157610348906020610674828661064b565b940161038a565b9061069b61069461068a845190565b8084529260200190565b9260200190565b905f5b8181106106ab5750505090565b9091926106c86106c16001928651815260200190565b9460200190565b92910161069e565b60208082526103489291019061067b565b346103215761037c6106fd6106f7366004610658565b90612094565b604051918291826106d0565b919060408382031261032157610348906020610725828661038a565b94016103a1565b90610736906104ce565b5f5260205260405f2090565b90610736906104f4565b610348916008021c81565b90610348915461074c565b61077a610348926107755f93600a61072c565b610742565b610757565b346103215761037c61045f610795366004610709565b90610762565b346103215761037c61045f6107b1366004610709565b906120b4565b346103215761037c61045f6107cd366004610470565b6120c4565b90602082820312610321576103489161064b565b906103489161056b565b906108066107fc835190565b8083529160200190565b90816108186020830284019460200190565b925f915b83831061082b57505050505090565b9091929394602061084e610847838560019503875289516107e6565b9760200190565b930193019193929061081c565b6040808252610348939192610872918401906107f0565b9160208184039101526107f0565b34610321576108986108933660046107d2565b612178565b9061037c6108a560405190565b9283928361085b565b9190604083820312610321576103489060206108ca82866103b4565b940161064b565b346103215761049c6108e43660046108ae565b906123c0565b5f91031261032157565b610348916008021c6001600160a01b031690565b9061034891546108f4565b6103485f6009610908565b346103215761092e3660046108ea565b61037c610939610913565b604051918291826001600160a01b03909116815260200190565b346103215761049c6109663660046108ae565b90612433565b90610567816020936104d7565b9061098861069461068a845190565b905f5b8181106109985750505090565b9091926109ab6106c1600192865161096c565b92910161098b565b906109c261069461068a845190565b905f5b8181106109d25750505090565b9091926109eb6106c1600192865160ff16815260200190565b9291016109c5565b90610a0261069461068a845190565b905f5b818110610a125750505090565b909192610a286106c16001928651815260200190565b929101610a05565b90610348916109f3565b90610a466107fc835190565b9081610a586020830284019460200190565b925f915b838310610a6b57505050505090565b90919293946020610a8761084783856001950387528951610a30565b9301930191939290610a5c565b91610ac090610ab2610348959360608601908682035f880152610979565b9084820360208601526109b3565b916040818403910152610a3a565b3461032157610ade3660046108ea565b61037c610ae9612508565b60405191939193849384610a94565b3461032157610b083660046108ea565b61049c6126f8565b90610b1f61069461068a845190565b905f5b818110610b2f5750505090565b909192610b476106c160019286511515815260200190565b929101610b22565b91610b7b90610b6d610348959360608601908682035f8801526107f0565b908482036020860152610b10565b916040818403910152610b10565b346103215761037c610ba4610b9f3660046107d2565b612700565b60405191939193849384610b4f565b346103215761049c610bc6366004610470565b612a08565b90602082820312610321576103489161038a565b610bef610beb60059390565b9190565b5f915b838310610bff5750505050565b610c126106946001928451815260200190565b92019190610bf2565b60a0810192916103329190610bdf565b346103215761037c610c46610c41366004610bcb565b612a69565b60405191829182610c1b565b3461032157610c623660046108ea565b61037c61036a612ac4565b9060208282031261032157610348916103a1565b346103215761037c61045f610c97366004610c6d565b612adb565b6103486103486103489290565b9061073690610c9c565b610348905b60ff1690565b6103489054610cb3565b6103489060081c610cb8565b6103489054610cc8565b6103489081565b6103489054610cde565b61034890610506565b6103489054610cef565b634e487b7160e01b5f52602260045260245ffd5b9060016002830492168015610d36575b6020831014610d3157565b610d02565b91607f1691610d26565b80545f939291610d5c610d5283610d16565b8085529360200190565b9160018116908115610dab5750600114610d7557505050565b610d8691929394505f5260205f2090565b915f925b818410610d975750500190565b805484840152602090930192600101610d8a565b92949550505060ff1916825215156020020190565b9061034891610d40565b634e487b7160e01b5f52604160045260245ffd5b90601f01601f1916810190811067ffffffffffffffff821117610e0057604052565b610dca565b90610332610e1f92610e1660405190565b93848092610dc0565b0383610dde565b610e31906004610ca9565b610e3a81610cbe565b91610e4482610cd4565b91610e5160018201610ce5565b91610e5e60028301610cf8565b91610e6b60038201610ce5565b91610e7860048301610ce5565b91610e8560058201610cbe565b916103486007610e9760068501610e05565b9301610ce5565b999897969492909593916101208b01965f8c01610eba916104d7565b60208b01610ec7916104fd565b60408a01526001600160a01b03166060890152608088015260a0870152151560c086015284810360e0860152610efc91610533565b61010090930152565b346103215761037c610f20610f1b366004610470565b610e26565b95610f3399979995919594929460405190565b998a998a610e9e565b346103215761049c610f4f3660046107d2565b612b86565b346103215761049c610f67366004610470565b612ce6565b3461032157610f7c3660046108ea565b61037c5f5160206149105f395f51905f5261045f565b9061034891610533565b90610fa86107fc835190565b9081610fba6020830284019460200190565b925f915b838310610fcd57505050505090565b90919293946020610fe961084783856001950387528951610f92565b9301930191939290610fbe565b9390610348959361102a6110469461101c6110389460a08a01908a82035f8c01526107f0565b9088820360208a0152610b10565b908682036040880152610b10565b90848203606086015261067b565b916080818403910152610f9c565b346103215761037c61106f61106a3660046107d2565b612d8d565b9161107c95939560405190565b95869586610ff6565b34610321576110953660046108ea565b61049c612fac565b9091606082840312610321576103486110b6848461038a565b9360406110c682602087016103a1565b94016103b4565b346103215761049c6110e036600461109d565b916130ca565b9091606082840312610321576103486110ff848461064b565b9360406110c6826020870161038a565b610506610348610348926001600160a01b031690565b6103489061110f565b61034890611125565b906107369061112e565b634e487b7160e01b5f52603260045260245ffd5b80548210156111755761116d6001915f5260205f2090565b910201905f90565b611141565b9061118961118e926006611137565b61072c565b805482101561032157610348916111a491611155565b90610757565b346103215761037c61045f6111c03660046110e6565b9161117a565b346103215761037c61036a6111dc3660046108ae565b906130d5565b346103215761049c6111f53660046108ae565b9061326d565b346103215761037c610ba46112113660046107d2565b613277565b346103215761049c6112293660046107d2565b61344a565b6103485f610c9c565b61034861122e565b346103215761124f3660046108ea565b61037c61045f611237565b610348916008021c610cb8565b90610348915461125a565b611285610348926111895f936007611137565b611267565b346103215761037c6112a66112a0366004610658565b90611272565b6040519182918260ff909116815260200190565b346103215761037c6106fd6112d03660046107d2565b613453565b919060a083820312610321576112eb81846103b4565b926112f982602083016103b4565b9261034861130a84604085016103b4565b9360806110c682606087016103b4565b346103215761049c61132d3660046112d5565b9392909261351d565b61049c611344366004610470565b613750565b6103485f6008610908565b34610321576113643660046108ea565b61037c610939611349565b90959492610332946113a06113a79261139960809661139260a088019c5f890152565b6020870152565b6040850152565b6060830152565b0152565b346103215761037c6113c66113c13660046107d2565b613759565b916113d395939560405190565b9586958661136f565b346103215761037c6106fd6113f23660046107d2565b613885565b346103215761049c61140a3660046108ae565b90613999565b34610321576114203660046108ea565b61049c6139df565b346103215761037c6112a661143e366004610658565b906139e7565b346103215761049c6114573660046112d5565b93929092613ac5565b34610321576114703660046108ea565b61049c613af3565b9190604083820312610321576103489060206110c6828661064b565b61118e906005611137565b346103215761037c61045f6114b5366004611478565b90611494565b346103215761049c6114ce366004610470565b613afb565b60408082526103489391926114ea918401906107f0565b916020818403910152610b10565b346103215761151061150b3660046107d2565b613ca8565b9061037c61151d60405190565b928392836114d3565b637965db0b60e01b6001600160e01b0319821614908115611545575090565b61034891506001600160e01b0319166301ffc9a760e01b1490565b906103489594939291611571613db8565b906115879594939291611582613e21565b611942565b90610332613e53565b610cb86103486103489290565b6103486001611590565b6103486010611590565b6103486004611590565b6103486103486103489260ff1690565b6103486032611590565b9081526040810192916103329160200152565b61034862278d00610c9c565b634e487b7160e01b5f52601160045260245ffd5b9190820180921161161557565b6115f4565b9060ff905b9181191691161790565b90611639610348611640926104ce565b825461161a565b9055565b9061ff009060081b61161f565b90611661610348611640926104f4565b8254611644565b905f199061161f565b9061168161034861164092610c9c565b8254611668565b906001600160a01b039061161f565b906116a76103486116409261112e565b8254611688565b9061163961034861164092151590565b915f1960089290920291821b911b61161f565b91906116e261034861164093610c9c565b9083546116be565b610332915f916116d1565b818110611700575050565b8061170d5f6001936116ea565b016116f5565b9190601f811161172257505050565b611732610332935f5260205f2090565b906020601f840181900483019310611754575b6020601f9091010401906116f5565b9091508190611745565b919067ffffffffffffffff8211610e00576117838261177d8554610d16565b85611713565b5f90601f83116001146117bb5761164092915f91836117b0575b50505f19600883021c1916906002021790565b013590505f8061179d565b90601f198316916117cf855f5260205f2090565b925f5b81811061180b575091600293918560019694106117f3575b50505002019055565b01355f19601f84166008021c191690555f80806117ea565b929360206001819287860135815501950193016117d2565b90610332929161175e565b9081549168010000000000000000831015610e00578261185691600161033295018155611155565b906116d1565b6040906113a7610332949695939661187b60608401985f8501906104d7565b60208301906104fd565b6118a46103489361189d60608401945f8501906104d7565b6020830152565b6040818303910152601981527f50555243484153455f494e444956494455414c5f534b494c4c00000000000000602082015260400190565b906103326118e960405190565b9283610dde565b67ffffffffffffffff8111610e0057602090601f01601f19160190565b9061191f61191a836118f0565b6118dc565b918252565b3d1561193d576119333d61190d565b903d5f602084013e565b606090565b509293929091611951826104ce565b61195961159d565b9061196960ff83165b9160ff1690565b108015611c01575b611bdb5761197e846104f4565b61198c611962610cb86115b1565b11611bb55761199a906115bb565b81108015611b9d575b611b8657836119b4610beb5f610c9c565b14611b75576119c38383613e5e565b93843410611b5d5791611a9a611b1092611a907ff38edfb531b7e5ecb36f5810588b0158177a68cbfc19fdf5e73bcc37b095bb8395611a00600390565b99611a13611a0d8c613e78565b9b613e8b565b611a7a8b611a57611a39610348611a31611a2b6115e8565b42611608565b936004610ca9565b96611a4e8d89611a498d82611629565b611651565b60018801611671565b611a643360028801611697565b611a714260038801611671565b60048601611671565b611a875f600586016116ae565b60068401611823565b6007429101611671565b611ab186611aac610348336005611137565b61182e565b611aba3361112e565b93847fa24add44f839e4a174295a620f3ddbb4677703fc07bf693e61c6e52e920359c7611ae689610c9c565b978893611aff611af560405190565b928392888461185c565b0390a3604051918291349083611885565b0390a3611b435f80611b2d611b28611b286008610cf8565b61112e565b6040515f9134905af1611b3e611924565b501590565b611b4a5790565b63e6c4247b60e01b5f90815260045b035ffd5b63af608abb60e01b5f908152611b59348760046115d5565b635e765b2560e11b5f908152600490fd5b639cb3af6760e01b5f908152600491909152602490fd5b50611bae611ba96115cb565b6115bb565b81116119a3565b5f611b59611bc2866104f4565b63ad2489af60e01b835260ff1660048301526024820190565b5f611b59611be8856104ce565b6327987c8f60e01b835260ff1660048301526024820190565b50611c0b836104ce565b611c19611962610cb86115a7565b11611971565b61034894939291905f611560565b61033290611c39613db8565b611c9b565b6105066103486103489290565b61034890611c3e565b6103486003610c9c565b6001610348910160ff1690565b610cb86103486103489260ff1690565b9061163961034861164092611c6b565b60208101929161033291906104d7565b6004611caa6103488383610ca9565b9060028201611cb881610cf8565b611cca335b916001600160a01b031690565b03611e9c57611cd890610cf8565b611ce7611cbd6105065f611c4b565b14611e85576005820190611cfa82610cbe565b611e7757808301611d0d61034882610ce5565b421015611e535750611d1e33613ee2565b611d47611d425f611d30336007611137565b950194611d3c86610cbe565b9061072c565b610cbe565b611d4f611c54565b90611d5a82916115bb565b1015611e2c57505090611d716001611ddd936116ae565b611d8f83611aac610348611d86336006611137565b611d3c86610cbe565b611dc0611da9611da0336007611137565b611d3c84610cbe565b611dba611db582610cbe565b611c5e565b90611c7b565b611d42611dcc82610cbe565b611dd583610cd4565b90853361403b565b907f3c1e2947eccfc26b7af1957d6b147f0437d82aa658e1d63fa59cca763922430f611e27611e14611e0e3361112e565b93610c9c565b93611e1e60405190565b91829182611c8b565b0390a3565b5f91611e3a611b5992611590565b63567af16960e01b845260ff1690830190815260200190565b5f91611e61611b5992610ce5565b6364c0907560e11b845290830190815260200190565b6393f3800760e01b5f908152fd5b639eeb380960e01b5f90815283825290602001035ffd5b632500456d60e01b5f9081528290fd5b61033290611c2d565b6103486101206118dc565b611ec8611eb5565b905f8252602080808080808080808a015f8152015f8152015f8152015f8152015f8152015f81520160608152015f905250565b610348611ec0565b9061034b906104c4565b9061034b906104ea565b90610332611fe56007611f28611eb5565b94611f3b611f3582610cbe565b87611f03565b611f50611f4782610cd4565b60208801611f0d565b611f66611f5f60018301610ce5565b6040880152565b611f85611f7560028301610cf8565b6001600160a01b03166060880152565b611f9b611f9460038301610ce5565b6080880152565b611fb1611faa60048301610ce5565b60a0880152565b611fc9611fc060058301610cbe565b151560c0880152565b611fdf611fd860068301610e05565b60e0880152565b01610ce5565b610100840152565b61034890611f17565b61200d61034891612005611efb565b506004610ca9565b611fed565b9061202b61202161068a845490565b925f5260205f2090565b905f5b81811061203b5750505090565b90919261205f61205860019261205087610ce5565b815260200190565b9460010190565b92910161202e565b9061034891612012565b90610332610e1f9261208260405190565b93848092612067565b61034890612071565b610348916111896120af926120a7606090565b506006611137565b61208b565b6103489190613e5e565b90610736565b6001611fdf610348926120d45f90565b505f6120be565b906120e4825190565b811015611175576020809102010190565b61034890516104c4565b5f1981146116155760010190565b67ffffffffffffffff8111610e005760208091020190565b9061191f61191a8361210d565b5f5b82811061214057505050565b60209061214b611efb565b8184015201612134565b9061033261216b61216584612125565b9361210d565b601f190160208401612132565b6120af61218f91612187606090565b506005611137565b906121995f610c9c565b80805b6121a7610348865190565b81101561227b576121df6121da5f6121d461200d60046121ce6121ca888d6120db565b5190565b90610ca9565b016120f5565b6104ce565b6121e96001611590565b60ff8216101580612265575b1561221457509061220861220f916120ff565b9160010190565b61219c565b61221e6008611590565b60ff82161015908161224e575b50612239575b60010161219c565b9161224661220f916120ff565b929050612231565b905061225d6119626010611590565b11155f61222b565b506122706007611590565b60ff821611156121f5565b5061228861228e91612155565b91612155565b906122985f610c9c565b9081825b6122a7610348885190565b841015612396576122c361200d60046121ce6121ca888c6120db565b6122cf6121da826120f5565b6122d96001611590565b60ff8216101580612380575b1561231b57508161230e916122fd61231594876120db565b5261230881866120db565b506120ff565b9360010190565b9261229c565b6123286008969396611590565b60ff821610159081612369575b50612344575b50600101612315565b82612362916123576123159495896120db565b5261230881886120db565b919061233b565b90506123786119626010611590565b11155f612335565b5061238b6007611590565b60ff821611156122e5565b5050919350509190565b90610332916123b66123b1826120c4565b6140ee565b90610332916140f9565b90610332916123a0565b156123d157565b60405162461bcd60e51b815260206004820152602f60248201527f416363657373436f6e74726f6c3a2063616e206f6e6c792072656e6f756e636560448201526e103937b632b9903337b91039b2b63360891b606482015280608481015b0390fd5b610332919061245461244433610506565b6001600160a01b038416146123ca565b614167565b369037565b9061033261246e61216584612125565b601f190160208401612459565b5f5b82811061248957505050565b60608282015260200161247d565b906103326124a761216584612125565b601f19016020840161247b565b60ff1660ff81146116155760010190565b6124d56103486103489260ff1690565b6104c4565b6124e69060ff16611962565b90039060ff821161161557565b6125036103486103489260ff1690565b6104ea565b60106125146010610c9c565b9161251e8361245e565b61253061252a8561245e565b94612497565b926001908161253e81611590565b905b61254d575b505050929190565b61255682611590565b60ff8216116126d25782612569826124c5565b6125908161258b612585611ba961257f87611590565b886124da565b896120db565b611f03565b61259a6007611590565b60ff8416116126bd576125da6125af5f611590565b949392945b6125d26125cc611ba96125c689611590565b876124da565b8c6120db565b9060ff169052565b600561261f6126196125f36125ee84610c9c565b61245e565b6125ff6125c689611590565b906126138d61260d846115bb565b906120db565b526115bb565b8a6120db565b508461262a5f611590565b905b612644575b50505061263d906124b4565b9091612540565b6126518296949596611590565b60ff821610156126b45780611db58b6126a861269e6126886126836126786126ab986124f3565b6107758b600a61072c565b610ce5565b9261260d611ba96126988c611590565b8d6124da565b5161260d856115bb565b52565b8395949361262c565b94939294612631565b6125da6126c983611590565b949392946125b4565b612545565b6126ed5f5160206149105f395f51905f526140ee565b61033261033261420a565b6103326126d7565b6120af61270f91612187606090565b906127195f610c9c565b805b612726610348855190565b8110156127a25761274c6121da5f61274660046121ce6121ca878b6120db565b01610cbe565b6127566001611590565b60ff82161015908161278b575b50612776575b60010161271b565b61271b565b90612783612771916120ff565b919050612769565b905061279a6119626007611590565b11155f612763565b506127ac81612155565b6127be6127b88361245e565b9261245e565b906127c85f610c9c565b91825b6127d6610348885190565b8110156128d9576127f761200d6127f06121ca848b6120db565b6004610ca9565b6128036121da826120f5565b61280d6001611590565b60ff8216101590816128c2575b5061282e575b506001016127cb565b6127cb565b8461289461288761034860a0856128999661284d612829999c8c6120db565b52612858868b6120db565b508561286760c0830151151590565b8d816128a0575b6128829261287b916120db565b9015159052565b015190565b42101561287b83876120db565b6120ff565b9390612820565b905061287b612882926128b66103488787015190565b4210929150925061286e565b90506128d16119626007611590565b11155f61281a565b5090945091929050565b610332906128fd5f5160206149105f395f51905f526140ee565b612921565b61034b90610c9c565b9081526040810192916103329160200190612902565b61292a5f610c9c565b81146129ee576129393061112e565b803182116129d4575061294c6008610cf8565b61295b611cbd6105065f611c4b565b14611b4a576129865f80612975611b28611b286008610cf8565b6040515f9186905af1611b3e611924565b611b4a576129946008610cf8565b7f3ab9db27a4cdd8c603a752b62d5fbd93b4b3509fe2596708e9688e42bbac3576611e276129ca6129c43361112e565b9361112e565b9361046360405190565b63af608abb60e01b5f90815291611b5991319060046115d5565b63af608abb60e01b5f90815290611b59908290600461290b565b610332906128e3565b67ffffffffffffffff8111610e005760200290565b61191a61034891612a11565b90610332612a48612a4284612a26565b93612a11565b83612459565b6103486005612a32565b906005811015611175576020020190565b612a71612a4e565b90612a7b5f611590565b612a856005611590565b60ff82161015612abf5780611db5612aa8612aa2612aba946124f3565b85613e5e565b6126a8612ab4846115bb565b87612a58565b612a7b565b505090565b6103486001610cbe565b6124d56103486103489290565b61268361034891612ae95f90565b50610775612af76008612ace565b600a61072c565b61033290612b185f5160206149105f395f51905f526140ee565b612b246105065f611c4b565b6001600160a01b03821614611b4a57612b54612b4e612b436008610cf8565b611b28846008611697565b9161112e565b907f430359a6d97ced2b6f93c77a91e7ce9dfd43252eb91e916adba170485cd8a6a4612b7f60405190565b8080611e27565b61033290612afe565b61033290612b9b613db8565b612bad565b6001610348910360ff1690565b612bbb610348826004610ca9565b612bc760028201610cf8565b612bd033611cbd565b03612cd55760058101612be9612be582610cbe565b1590565b612cc4575f612bf7916116ae565b612c21612be583612c1c6103485f612c10336006611137565b960195611d3c87610cbe565b61424d565b612cae57612c5690612c3a611d42611da0336007611137565b612c466119625f611590565b11612c87575b611d4283336142e9565b907f83c082921b7caf1a96d9ce647becd54e4ff5e95f02eb8b2b3d23fb2daecfa468611e27611e14611e0e3361112e565b612ca9612c98611da0336007611137565b611dba612ca482610cbe565b612ba0565b612c4c565b6372e2506b60e11b5f9081526004839052602490fd5b636379c45760e11b5f908152600490fd5b632500456d60e01b5f908152600490fd5b61033290612b8f565b5f5b828110612cfd57505050565b606082820152602001612cf1565b90610332612d1b61216584612125565b601f190160208401612cef565b9190820391821161161557565b612d3f600761190d565b662aa725a727aba760c91b602082015290565b612d5c600861190d565b67504c4154464f524d60c01b602082015290565b612d7a600761190d565b665354414b494e4760c81b602082015290565b6120af612d9c91612187606090565b90612da5825190565b90612daf82612155565b612db88361245e565b612dc18461245e565b90612dcb8561245e565b95612dd586612d0b565b94612ddf5f610c9c565b875b811015612f7c57612edd8187818c60a0612e0761200d6127f06121ca612de19a8d6120db565b612e2984612e176121da846120f5565b9683612e2383836120db565b526120db565b5083612e3860c0830151151590565b8c81612f5a575b612e4c9261287b916120db565b01612e698b61287b85612e60610348865190565b421015926120db565b612e74610348825190565b421015612f4457612e9a92612e94612e8d6126a8935190565b4290612d28565b926120db565b612ea46001611590565b60ff8216101580612f2e575b15612ee45750612ecb612ec1612d70565b6126a8838c6120db565b612ed5818a6120db565b505b60010190565b9050612ddf565b612eee6008611590565b60ff821610159081612f17575b5015612f0c57612ecb612ec1612d52565b612ecb612ec1612d35565b9050612f266119626010611590565b11155f612efb565b50612f396007611590565b60ff82161115612eb0565b506126a8612f5592612e945f610c9c565b612e9a565b905061287b612e4c92612f706103488787015190565b42109291509250612e3f565b50929550509492919493929190565b612fa15f5160206149105f395f51905f526140ee565b610332610332614386565b610332612f8b565b610332929190612fd05f5160206149105f395f51905f526140ee565b612ff4565b61034b906115bb565b9081526040810192916103329160200190612fd5565b92919092613001816104ce565b61300f611962610cb861159d565b1080156130ac575b61309f57613024846104f4565b613032611962610cb86115b1565b11611bb55761308461307e85613079856130747fe39dd15db0b108e8191c7305d60bd9fc58ebf4a2a296a1d49252bababa47eed197989961077588600a61072c565b611671565b6104f4565b916104ce565b9261309a61309160405190565b92839283612fde565b0390a2565b611b59611be85f926104ce565b506130b6816104ce565b6130c4611962610cb86115a7565b11613017565b906103329291612fb4565b610348915f6130ef611d42936130e85f90565b50826120be565b01611137565b9061033291613102613db8565b61310b5f611c4b565b6001600160a01b0381166001600160a01b03841614611b4a576004906131346103488484610ca9565b916002830191613156611cbd61314985610cf8565b926001600160a01b031690565b146132565761316482610cf8565b61316d33611cbd565b036132485761317e60058401610cbe565b61323a5780830161319161034882610ce5565b421015611e5357506131ae612be585612c1c610348336005611137565b61322357506131d4916131c2855f93611697565b61274684611aac610348886005611137565b917f94855b6276c7880af847d362eadca337daa949f718fbfaa881bcea598fb2281a61321e61321461320e6132083361112e565b9461112e565b94610c9c565b94611e1e60405190565b0390a4565b6372e2506b60e11b5f90815284825290602001035ffd5b63ee0c112d60e01b5f908152fd5b632500456d60e01b5f908152fd5b639eeb380960e01b5f90815284825290602001035ffd5b90610332916130f5565b6120af61328691612187606090565b906132905f610c9c565b805b61329d610348855190565b811015613313576132bd6121da5f61274660046121ce6121ca878b6120db565b6132c76008611590565b60ff8216101590816132fc575b506132e7575b600101613292565b613292565b906132f46132e2916120ff565b9190506132da565b905061330b6119626010611590565b11155f6132d4565b5061331d81612155565b6133296127b88361245e565b906133335f610c9c565b91825b613341610348885190565b8110156128d95761335b61200d6127f06121ca848b6120db565b6133676121da826120f5565b6133716008611590565b60ff8216101590816133b8575b50613392575b50600101613336565b613336565b8461289461288761034860a0856133b19661284d61338d999c8c6120db565b9390613384565b90506133c76119626010611590565b11155f61337e565b610332906133e95f5160206149105f395f51905f526140ee565b6133f56105065f611c4b565b6001600160a01b03821614611b4a5761341f612b4e6134146009610cf8565b611b28846009611697565b907f7042586b23181180eb30b4798702d7a0233b7fc2551e89806770e8e5d9392e6a612b7f60405190565b610332906133cf565b6120af61034891612187606090565b61033294939291906134805f5160206149105f395f51905f526140ee565b919493949290926134916008611590565b61349b6010611590565b60ff821611613514578061350a8861307460046107756134bd61350f976124c5565b600a6134d18c6130745f610775868661072c565b6134e48d6130746001610775868661072c565b6134f78a6130746002610775868661072c565b6111898b6130746003610775868661072c565b6124b4565b613491565b50505050509050565b9061033294939291613462565b61033290613536613db8565b61354790613542613e21565b6135c2565b610332613e53565b634e487b7160e01b5f52601260045260245ffd5b811561356d570490565b61354f565b61358a6103489361189d60608401945f8501906104d7565b6040818303910152601681527f52454e45575f494e444956494455414c5f534b494c4c00000000000000000000602082015260400190565b6004906135d26103488284610ca9565b906135df60028301610cf8565b6135e833611cbd565b0361374057828201916135fd61034884610ce5565b421061371c579161363261362261361385610cbe565b61361c86610cd4565b90613e5e565b61362c6002610c9c565b90613563565b80341061370357506136d66136c86136c0946136b4946136817ff38edfb531b7e5ecb36f5810588b0158177a68cbfc19fdf5e73bcc37b095bb839561268361367b611a2b6115e8565b82611671565b907f4f265249e3faa5652094d4e493ca94e1c30eb9febc9372aeeb501a52c4ab00136136ac3361112e565b978892610c9c565b98899361046360405190565b0390a3610cbe565b604051918291349083613572565b0390a36136ee5f80611b2d611b28611b286008610cf8565b6136f55750565b63e6c4247b60e01b5f908152fd5b63af608abb60e01b5f90815290611b59903490876115d5565b5f611b598561372a86610ce5565b635935648960e01b845290830190815260200190565b632500456d60e01b5f9081528390fd5b6103329061352a565b905f80928161376d6120af84936005611137565b8051946137795f610c9c565b945b868610156138785761379861200d60046121ce6121ca8a886120db565b976137a56121da8a6120f5565b6137af6001611590565b60ff8216101580613862575b15613806575061034860a06137d26137d8936120ff565b9a015190565b4210156137f8576137eb6137f2916120ff565b9560010190565b9461377b565b94936120586137f2916120ff565b61381360089a929a611590565b60ff82161015908161384b575b5061382f575b60a001516137d8565b9361034860a06138416137d8936120ff565b9692505050613826565b905061385a6119626010611590565b11155f613820565b5061386d6007611590565b60ff821611156137bb565b9450919490509493929190565b6120af61389491612187606090565b9061389e5f610c9c565b805b6138ab610348855190565b8110156138f9576138d06103486004611fdf6138ca6121ca868a6120db565b82610ca9565b42106138e4575b6001016138a0565b6138a0565b906138f16138df916120ff565b9190506138d7565b506139039061245e565b9161390d5f610c9c565b92835b61391b610348845190565b8110156139785761393a6103486004611fdf6138ca6121ca86896120db565b421061394e575b600101613910565b613910565b93613970613949916128946139666121ca89886120db565b6126a883876120db565b949050613941565b50925050565b906103329161398f6123b1826120c4565b9061033291614167565b906103329161397e565b6139b95f5160206149105f395f51905f526140ee565b6103326139c53061112e565b316139cf5f610c9c565b81146129ee5761294c6008610cf8565b6103326139a3565b61034891611189611d42926139f95f90565b506007611137565b6103329493929190613a1f5f5160206149105f395f51905f526140ee565b9192909260019384613a316001611590565b905b613a41575b50505050505050565b613a4b6007611590565b60ff821611613ac057613aba8161350a896130746004610775613a6e8d986124c5565b600a613a828e6130745f610775868661072c565b613a948b6130748c610775868661072c565b613aa78c6130746002610775868661072c565b6111898d6130746003610775868661072c565b90613a33565b613a38565b9061033294939291613a01565b613ae85f5160206149105f395f51905f526140ee565b610332610332614442565b610332613ad2565b6004613b0a6103488383610ca9565b90613b1760028301610cf8565b613b2033611cbd565b0361324857808201613b3461034882610ce5565b4210613c9a575060058201613b4881610cbe565b613bfc575b50613b63612be584612c1c610348336005611137565b613be55750613bb891613bac91613b7990610cbe565b907f11ff84a00d533cdc33fdd8daf084ef19d5c0586defb48904fe2e0662dfc6de14613ba43361112e565b938492610c9c565b948593611e1e60405190565b0390a37f50a744fa6f7ccdc3205bb1024e3d645d99213fc48d0315cd42a1710ddd1666e4612b7f60405190565b6372e2506b60e11b5f90815283825290602001035ffd5b5f613c06916116ae565b613c11336006611137565b613c2b612be585612c1c6103485f880195611d3c87610cbe565b613c8457613c40611d42611da0336007611137565b613c4c6119625f611590565b11613c63575b50613c5d83336142e9565b5f613b4d565b612c98613c7e91611d3c613c78336007611137565b91610cbe565b5f613c52565b6372e2506b60e11b5f9081528483526020830190fd5b5f9161372a611b5992610ce5565b6120af613cb791612187606090565b90613cc8613cc3835190565b612155565b613cd36125ee845190565b92613cdd5f610c9c565b613ce8610348835190565b811015613d7357613d4c90613d0861200d60046121ce6121ca85886120db565b613d1282866120db565b52613d1d81856120db565b50613d3661034860a0613d3084886120db565b51015190565b421080613d51575b612ed79061287b83896120db565b613cdd565b50612ed7613d6c60c0613d6484886120db565b510151151590565b9050613d3e565b50509190565b15613d8057565b60405162461bcd60e51b815260206004820152601060248201526f14185d5cd8589b194e881c185d5cd95960821b6044820152606490fd5b610332613dc6612be5612ac4565b613d79565b6103486002610c9c565b15613ddc57565b60405162461bcd60e51b815260206004820152601f60248201527f5265656e7472616e637947756172643a207265656e7472616e742063616c6c006044820152606490fd5b610332613e2e6002610ce5565b613e42613e39613dcb565b91821415613dd5565b6002611671565b6103486001610c9c565b610332613e42613e49565b6103489161077561268392613e705f90565b50600a61072c565b5f61034891613e845f90565b5001610ce5565b61033290613ea95f613e9d6001610c9c565b92019161056783610ce5565b90611671565b90505190610332826103ae565b906020828203126103215761034891613eaf565b610348680d8d726b7177a80000610c9c565b613eec6009610cf8565b613efb611cbd6105065f611c4b565b14613fcd575f613f448192613f53613f136009610cf8565b91613f1d60405190565b63857184d160e01b6020820152938491602483016001600160a01b03909116815260200190565b60208201810382520383610dde565b602082519201905afa613f64611924565b9080613fb6575b613f725750565b806020613f80613f8b935190565b818301019101613ebc565b613f93613ed0565b808210613f9e575050565b63109ddee960e21b5f90815291611b599160046115d5565b508051613fc6610beb6020610c9c565b1015613f6b565b50565b8181029291811591840414171561161557565b613ff06103486103489290565b61ffff1690565b61403161033294614027606094989795614020608086019a5f8701906001600160a01b03169052565b6020850152565b60ff166040830152565b019061ffff169052565b909291926140496009610cf8565b614058611cbd6105065f611c4b565b146140e8576140e2936140d05f9493613f446140a161409c61408d61407d8a996104f4565b6140876002610c9c565b90613fd0565b6140976005610c9c565b611608565b613fe3565b6140b46140ae6009610cf8565b956104ce565b604051630c4e865560e21b602082015296879460248601613ff7565b82602083519301915af1611b3e611924565b61033257565b50505050565b610332903390614627565b614106612be583836130d5565b61410e575050565b6141276001614122845f6130ef86826120be565b6116ae565b614135612b4e6129c4339390565b917f2f8788117e7eff1d82e926ec794901d17c78024a50270940304540a733656f0d61416060405190565b808061321e565b61417182826130d5565b614179575050565b61418c5f61412284826130ef86826120be565b61419a612b4e6129c4339390565b917ff6391f5c32d9c69d2a47ea670b442974b53935d1edc7fd64eb21e047a839171b61416060405190565b6141cd6146f7565b6103326141db5f60016116ae565b7f5db9ee0a495bf2e6ff9c91a7834c1ba4fdd244a5e8aa4e537bd38aeae4b073aa61420533610939565b0390a1565b6103326141c5565b634e487b7160e01b5f52603160045260245ffd5b80548015614248575f19019061424561423f8383611155565b906116ea565b55565b614212565b6142565f610c9c565b614261610348835490565b8110156142c5576142756111a48284611155565b831461428357600101614256565b9150806142c0614294610348935490565b936118566142b96111a46142b36001986142ad8a610c9c565b90612d28565b86611155565b9184611155565b614226565b5050505f90565b6001600160a01b0390911681526040810192916103329160200152565b906142f46009610cf8565b614303611cbd6105065f611c4b565b14614342575f80916140e2936140d061431c6009610cf8565b91613f4461432960405190565b638925781760e01b6020820152948592602484016142cc565b5050565b61434e613db8565b61033261435c6001806116ae565b7f62e78cea01bee320cd4e420270b5ea74000d11b0c9f74754ebdbfc544b05a25861420533610939565b610332614346565b6103486802b5e3af16b1880000610c9c565b6103486804563918244f400000610c9c565b61034868056bc75e2d63100000610c9c565b610348680821ab0d4414980000610c9c565b610348680bed1d0263d9f00000610c9c565b6103486803860e639d80640000610c9c565b6103486805a34a38fc00a00000610c9c565b61034868070c1cc73b00c80000610c9c565b610348680a922b2ad8812c0000610c9c565b610348680f810c1cb501b80000610c9c565b6001808061444f81611590565b905b614515575b506144616008611590565b905b61446b575050565b6144756010611590565b60ff8216116143425761450f8161350a61448f85946124c5565b613074600461077561449f6143e8565b936144b4600a956130745f610775858a61072c565b6144cd6144bf6143fa565b6130748b610775858a61072c565b6144e76144d861440c565b6130746002610775858a61072c565b6145016144f261441e565b6130746003610775858a61072c565b614509614430565b9461072c565b90614463565b61451f6007611590565b60ff82161161458c578061350a614538614586936124c5565b613074600461077561454861438e565b9361455d600a956130745f610775858a61072c565b6145686144bf6143a0565b6145736144d86143b2565b61457e6144f26143c4565b6145096143d6565b81614451565b614456565b61034890610c9c565b6105676145b2926020926145ac815190565b94859290565b93849101610512565b6145f961034893926145f36145f3937f416363657373436f6e74726f6c3a206163636f756e7420000000000000000000815260170190565b9061459a565b7001034b99036b4b9b9b4b733903937b6329607d1b815260110190565b602080825261034892910190610533565b90614635612be582846130d5565b61463d575050565b61468761034861242f9361466f61465f61465961469396614727565b92614591565b6146696020610c9c565b906147f1565b9061467960405190565b9384926020840192836145bb565b90810382520382610dde565b60405162461bcd60e51b815291829160048301614616565b156146b257565b60405162461bcd60e51b815260206004820152601460248201527f5061757361626c653a206e6f74207061757365640000000000000000000000006044820152606490fd5b610332614702612ac4565b6146ab565b610348610348610348926001600160a01b031690565b6103486014611590565b61474461473f61034892614739606090565b50611125565b614707565b614669611ba961471d565b9061033261246e61475f8461190d565b936118f0565b9061476e825190565b811015611175570160200190565b8015611615575f190190565b6103489061479c610beb6103489460ff1690565b901c90565b156147a857565b60405162461bcd60e51b81528061242f600482016020808252818101527f537472696e67733a20686578206c656e67746820696e73756666696369656e74604082015260600190565b61481f61481a61480a846148056002610c9c565b613fd0565b6148146002610c9c565b90611608565b61474f565b91603061483461482e5f610c9c565b85614765565b53600f60fb1b61486d61486460019384935f1a61485961485386610c9c565b89614765565b536148056002610c9c565b61481483610c9c565b915b614890575b5050906103486103489261488a610beb5f610c9c565b146147a1565b909161489b82610c9c565b831115614909576f181899199a1a9b1b9c1cb0b131b232b360811b6148c0600f610c9c565b82169060108210156111755783926148e06148fd92614903941a60f81b90565b5f1a6148ec8789614765565b536148f76004611590565b90614788565b9361477c565b9161486f565b9161487456fea49807205ce4d355092ef5a8a18f56e8913cf4a201fbe287825b095693c21775a2646970667358221220dffeaf5abdca5982cf60a5db0be308b1fcf95ec808de9543f25ea339d1feafb164736f6c634300081c0033",
  "linkReferences": {},
  "deployedLinkReferences": {}
}