{
  "_format": "hh-sol-artifact-1",
  "contractName": "ReferralSystem",
  "sourceName": "contracts/Marketplace/ReferralSystem.sol",
  "abi": [
    {
      "inputs": [],
      "stateMutability": "nonpayable",
      "type": "constructor"
    },
    {
      "anonymous": false,
      "inputs": [
        {
          "indexed": false,
          "internalType": "address",
          "name": "previousAdmin",
          "type": "address"
        },
        {
          "indexed": false,
          "internalType": "address",
          "name": "newAdmin",
          "type": "address"
        }
      ],
      "name": "AdminChanged",
      "type": "event"
    },
    {
      "anonymous": false,
      "inputs": [
        {
          "indexed": true,
          "internalType": "address",
          "name": "beacon",
          "type": "address"
        }
      ],
      "name": "BeaconUpgraded",
      "type": "event"
    },
    {
      "anonymous": false,
      "inputs": [
        {
          "indexed": true,
          "internalType": "address",
          "name": "buyer",
          "type": "address"
        },
        {
          "indexed": true,
          "internalType": "address",
          "name": "referrer",
          "type": "address"
        },
        {
          "indexed": false,
          "internalType": "uint256",
          "name": "discount",
          "type": "uint256"
        },
        {
          "indexed": false,
          "internalType": "uint256",
          "name": "xpAwarded",
          "type": "uint256"
        }
      ],
      "name": "FirstPurchaseWithReferral",
      "type": "event"
    },
    {
      "anonymous": false,
      "inputs": [
        {
          "indexed": true,
          "internalType": "address",
          "name": "referrer",
          "type": "address"
        },
        {
          "indexed": true,
          "internalType": "address",
          "name": "referredSeller",
          "type": "address"
        },
        {
          "indexed": false,
          "internalType": "uint256",
          "name": "xpAwarded",
          "type": "uint256"
        }
      ],
      "name": "FirstSaleByReferral",
      "type": "event"
    },
    {
      "anonymous": false,
      "inputs": [
        {
          "indexed": false,
          "internalType": "uint8",
          "name": "version",
          "type": "uint8"
        }
      ],
      "name": "Initialized",
      "type": "event"
    },
    {
      "anonymous": false,
      "inputs": [
        {
          "indexed": true,
          "internalType": "address",
          "name": "wallet",
          "type": "address"
        },
        {
          "indexed": true,
          "internalType": "bytes32",
          "name": "code",
          "type": "bytes32"
        }
      ],
      "name": "ReferralCodeGenerated",
      "type": "event"
    },
    {
      "anonymous": false,
      "inputs": [
        {
          "indexed": true,
          "internalType": "address",
          "name": "buyer",
          "type": "address"
        },
        {
          "indexed": true,
          "internalType": "address",
          "name": "referrer",
          "type": "address"
        },
        {
          "indexed": true,
          "internalType": "bytes32",
          "name": "code",
          "type": "bytes32"
        }
      ],
      "name": "ReferralRegistered",
      "type": "event"
    },
    {
      "anonymous": false,
      "inputs": [
        {
          "indexed": true,
          "internalType": "address",
          "name": "referrer",
          "type": "address"
        },
        {
          "indexed": false,
          "internalType": "uint256",
          "name": "xpAmount",
          "type": "uint256"
        },
        {
          "indexed": false,
          "internalType": "string",
          "name": "reason",
          "type": "string"
        }
      ],
      "name": "ReferrerXPEarned",
      "type": "event"
    },
    {
      "anonymous": false,
      "inputs": [
        {
          "indexed": true,
          "internalType": "bytes32",
          "name": "role",
          "type": "bytes32"
        },
        {
          "indexed": true,
          "internalType": "bytes32",
          "name": "previousAdminRole",
          "type": "bytes32"
        },
        {
          "indexed": true,
          "internalType": "bytes32",
          "name": "newAdminRole",
          "type": "bytes32"
        }
      ],
      "name": "RoleAdminChanged",
      "type": "event"
    },
    {
      "anonymous": false,
      "inputs": [
        {
          "indexed": true,
          "internalType": "bytes32",
          "name": "role",
          "type": "bytes32"
        },
        {
          "indexed": true,
          "internalType": "address",
          "name": "account",
          "type": "address"
        },
        {
          "indexed": true,
          "internalType": "address",
          "name": "sender",
          "type": "address"
        }
      ],
      "name": "RoleGranted",
      "type": "event"
    },
    {
      "anonymous": false,
      "inputs": [
        {
          "indexed": true,
          "internalType": "bytes32",
          "name": "role",
          "type": "bytes32"
        },
        {
          "indexed": true,
          "internalType": "address",
          "name": "account",
          "type": "address"
        },
        {
          "indexed": true,
          "internalType": "address",
          "name": "sender",
          "type": "address"
        }
      ],
      "name": "RoleRevoked",
      "type": "event"
    },
    {
      "anonymous": false,
      "inputs": [
        {
          "indexed": true,
          "internalType": "address",
          "name": "implementation",
          "type": "address"
        }
      ],
      "name": "Upgraded",
      "type": "event"
    },
    {
      "inputs": [],
      "name": "ADMIN_ROLE",
      "outputs": [
        {
          "internalType": "bytes32",
          "name": "",
          "type": "bytes32"
        }
      ],
      "stateMutability": "view",
      "type": "function"
    },
    {
      "inputs": [],
      "name": "BUYER_FIRST_PURCHASE_XP",
      "outputs": [
        {
          "internalType": "uint256",
          "name": "",
          "type": "uint256"
        }
      ],
      "stateMutability": "view",
      "type": "function"
    },
    {
      "inputs": [],
      "name": "DEFAULT_ADMIN_ROLE",
      "outputs": [
        {
          "internalType": "bytes32",
          "name": "",
          "type": "bytes32"
        }
      ],
      "stateMutability": "view",
      "type": "function"
    },
    {
      "inputs": [],
      "name": "FIRST_PURCHASE_DISCOUNT_PERCENTAGE",
      "outputs": [
        {
          "internalType": "uint256",
          "name": "",
          "type": "uint256"
        }
      ],
      "stateMutability": "view",
      "type": "function"
    },
    {
      "inputs": [],
      "name": "MARKETPLACE_ROLE",
      "outputs": [
        {
          "internalType": "bytes32",
          "name": "",
          "type": "bytes32"
        }
      ],
      "stateMutability": "view",
      "type": "function"
    },
    {
      "inputs": [],
      "name": "REFERRER_FIRST_SALE_XP",
      "outputs": [
        {
          "internalType": "uint256",
          "name": "",
          "type": "uint256"
        }
      ],
      "stateMutability": "view",
      "type": "function"
    },
    {
      "inputs": [],
      "name": "UPGRADER_ROLE",
      "outputs": [
        {
          "internalType": "bytes32",
          "name": "",
          "type": "bytes32"
        }
      ],
      "stateMutability": "view",
      "type": "function"
    },
    {
      "inputs": [
        {
          "internalType": "address",
          "name": "wallet",
          "type": "address"
        }
      ],
      "name": "generateReferralCode",
      "outputs": [
        {
          "internalType": "bytes32",
          "name": "",
          "type": "bytes32"
        }
      ],
      "stateMutability": "nonpayable",
      "type": "function"
    },
    {
      "inputs": [],
      "name": "getReferralActivity",
      "outputs": [
        {
          "internalType": "uint256",
          "name": "last24hReferrals",
          "type": "uint256"
        },
        {
          "internalType": "uint256",
          "name": "last7dReferrals",
          "type": "uint256"
        },
        {
          "internalType": "uint256",
          "name": "last30dReferrals",
          "type": "uint256"
        },
        {
          "internalType": "uint256",
          "name": "trendPercentage",
          "type": "uint256"
        }
      ],
      "stateMutability": "pure",
      "type": "function"
    },
    {
      "inputs": [
        {
          "internalType": "address",
          "name": "wallet",
          "type": "address"
        }
      ],
      "name": "getReferralCode",
      "outputs": [
        {
          "internalType": "bytes32",
          "name": "",
          "type": "bytes32"
        }
      ],
      "stateMutability": "view",
      "type": "function"
    },
    {
      "inputs": [],
      "name": "getReferralConversionMetrics",
      "outputs": [
        {
          "internalType": "uint256",
          "name": "codesGenerated",
          "type": "uint256"
        },
        {
          "internalType": "uint256",
          "name": "codesUsed",
          "type": "uint256"
        },
        {
          "internalType": "uint256",
          "name": "conversionRate",
          "type": "uint256"
        },
        {
          "internalType": "uint256",
          "name": "averageTimeToConvert",
          "type": "uint256"
        }
      ],
      "stateMutability": "pure",
      "type": "function"
    },
    {
      "inputs": [],
      "name": "getReferralSystemStats",
      "outputs": [
        {
          "internalType": "uint256",
          "name": "totalReferrals",
          "type": "uint256"
        },
        {
          "internalType": "uint256",
          "name": "totalUsers",
          "type": "uint256"
        },
        {
          "internalType": "uint256",
          "name": "totalXPEarned",
          "type": "uint256"
        },
        {
          "internalType": "uint256",
          "name": "averageReferralsPerUser",
          "type": "uint256"
        },
        {
          "internalType": "uint256",
          "name": "conversionRate",
          "type": "uint256"
        }
      ],
      "stateMutability": "pure",
      "type": "function"
    },
    {
      "inputs": [
        {
          "internalType": "address",
          "name": "referrerAddr",
          "type": "address"
        }
      ],
      "name": "getReferralsList",
      "outputs": [
        {
          "internalType": "address[]",
          "name": "",
          "type": "address[]"
        }
      ],
      "stateMutability": "view",
      "type": "function"
    },
    {
      "inputs": [
        {
          "internalType": "address",
          "name": "buyer",
          "type": "address"
        }
      ],
      "name": "getReferrer",
      "outputs": [
        {
          "internalType": "address",
          "name": "",
          "type": "address"
        }
      ],
      "stateMutability": "view",
      "type": "function"
    },
    {
      "inputs": [
        {
          "internalType": "address",
          "name": "referrerAddr",
          "type": "address"
        }
      ],
      "name": "getReferrerStats",
      "outputs": [
        {
          "internalType": "uint256",
          "name": "totalReferrals",
          "type": "uint256"
        },
        {
          "internalType": "uint256",
          "name": "successfulReferrals_",
          "type": "uint256"
        },
        {
          "internalType": "uint256",
          "name": "totalXPEarned",
          "type": "uint256"
        }
      ],
      "stateMutability": "view",
      "type": "function"
    },
    {
      "inputs": [
        {
          "internalType": "bytes32",
          "name": "role",
          "type": "bytes32"
        }
      ],
      "name": "getRoleAdmin",
      "outputs": [
        {
          "internalType": "bytes32",
          "name": "",
          "type": "bytes32"
        }
      ],
      "stateMutability": "view",
      "type": "function"
    },
    {
      "inputs": [
        {
          "internalType": "uint256",
          "name": "_limit",
          "type": "uint256"
        }
      ],
      "name": "getTopReferrers",
      "outputs": [
        {
          "internalType": "address[]",
          "name": "referrers",
          "type": "address[]"
        },
        {
          "internalType": "uint256[]",
          "name": "referralCounts",
          "type": "uint256[]"
        },
        {
          "internalType": "uint256[]",
          "name": "xpEarned",
          "type": "uint256[]"
        }
      ],
      "stateMutability": "pure",
      "type": "function"
    },
    {
      "inputs": [
        {
          "internalType": "address",
          "name": "_user",
          "type": "address"
        }
      ],
      "name": "getUserReferralNetwork",
      "outputs": [
        {
          "internalType": "uint256",
          "name": "directReferrals",
          "type": "uint256"
        },
        {
          "internalType": "uint256",
          "name": "totalXPFromReferrals",
          "type": "uint256"
        },
        {
          "internalType": "address[]",
          "name": "referralAddresses",
          "type": "address[]"
        },
        {
          "internalType": "bool[]",
          "name": "activeStatus",
          "type": "bool[]"
        }
      ],
      "stateMutability": "view",
      "type": "function"
    },
    {
      "inputs": [
        {
          "internalType": "address",
          "name": "user",
          "type": "address"
        }
      ],
      "name": "getUserReferralStatus",
      "outputs": [
        {
          "internalType": "address",
          "name": "userReferrer",
          "type": "address"
        },
        {
          "internalType": "bool",
          "name": "hasPurchased",
          "type": "bool"
        },
        {
          "internalType": "bool",
          "name": "hasSold",
          "type": "bool"
        }
      ],
      "stateMutability": "view",
      "type": "function"
    },
    {
      "inputs": [
        {
          "internalType": "address",
          "name": "marketplace",
          "type": "address"
        }
      ],
      "name": "grantMarketplaceRole",
      "outputs": [],
      "stateMutability": "nonpayable",
      "type": "function"
    },
    {
      "inputs": [
        {
          "internalType": "bytes32",
          "name": "role",
          "type": "bytes32"
        },
        {
          "internalType": "address",
          "name": "account",
          "type": "address"
        }
      ],
      "name": "grantRole",
      "outputs": [],
      "stateMutability": "nonpayable",
      "type": "function"
    },
    {
      "inputs": [
        {
          "internalType": "address",
          "name": "",
          "type": "address"
        }
      ],
      "name": "hasMadeFirstPurchase",
      "outputs": [
        {
          "internalType": "bool",
          "name": "",
          "type": "bool"
        }
      ],
      "stateMutability": "view",
      "type": "function"
    },
    {
      "inputs": [
        {
          "internalType": "address",
          "name": "",
          "type": "address"
        }
      ],
      "name": "hasMadeFirstSale",
      "outputs": [
        {
          "internalType": "bool",
          "name": "",
          "type": "bool"
        }
      ],
      "stateMutability": "view",
      "type": "function"
    },
    {
      "inputs": [
        {
          "internalType": "address",
          "name": "",
          "type": "address"
        }
      ],
      "name": "hasReferrer",
      "outputs": [
        {
          "internalType": "bool",
          "name": "",
          "type": "bool"
        }
      ],
      "stateMutability": "view",
      "type": "function"
    },
    {
      "inputs": [
        {
          "internalType": "bytes32",
          "name": "role",
          "type": "bytes32"
        },
        {
          "internalType": "address",
          "name": "account",
          "type": "address"
        }
      ],
      "name": "hasRole",
      "outputs": [
        {
          "internalType": "bool",
          "name": "",
          "type": "bool"
        }
      ],
      "stateMutability": "view",
      "type": "function"
    },
    {
      "inputs": [
        {
          "internalType": "address",
          "name": "platformAdmin",
          "type": "address"
        }
      ],
      "name": "initialize",
      "outputs": [],
      "stateMutability": "nonpayable",
      "type": "function"
    },
    {
      "inputs": [
        {
          "internalType": "bytes32",
          "name": "code",
          "type": "bytes32"
        }
      ],
      "name": "isValidReferralCode",
      "outputs": [
        {
          "internalType": "bool",
          "name": "",
          "type": "bool"
        }
      ],
      "stateMutability": "view",
      "type": "function"
    },
    {
      "inputs": [],
      "name": "levelingSystemAddress",
      "outputs": [
        {
          "internalType": "address",
          "name": "",
          "type": "address"
        }
      ],
      "stateMutability": "view",
      "type": "function"
    },
    {
      "inputs": [
        {
          "internalType": "address",
          "name": "buyer",
          "type": "address"
        },
        {
          "internalType": "uint256",
          "name": "nftPrice",
          "type": "uint256"
        }
      ],
      "name": "processFirstPurchaseDiscount",
      "outputs": [
        {
          "internalType": "uint256",
          "name": "discountAmount",
          "type": "uint256"
        }
      ],
      "stateMutability": "nonpayable",
      "type": "function"
    },
    {
      "inputs": [
        {
          "internalType": "address",
          "name": "seller",
          "type": "address"
        }
      ],
      "name": "processFirstSaleByReferral",
      "outputs": [
        {
          "internalType": "bool",
          "name": "",
          "type": "bool"
        }
      ],
      "stateMutability": "nonpayable",
      "type": "function"
    },
    {
      "inputs": [],
      "name": "proxiableUUID",
      "outputs": [
        {
          "internalType": "bytes32",
          "name": "",
          "type": "bytes32"
        }
      ],
      "stateMutability": "view",
      "type": "function"
    },
    {
      "inputs": [
        {
          "internalType": "address",
          "name": "",
          "type": "address"
        }
      ],
      "name": "referralCode",
      "outputs": [
        {
          "internalType": "bytes32",
          "name": "",
          "type": "bytes32"
        }
      ],
      "stateMutability": "view",
      "type": "function"
    },
    {
      "inputs": [
        {
          "internalType": "bytes32",
          "name": "",
          "type": "bytes32"
        }
      ],
      "name": "referralCodeOwner",
      "outputs": [
        {
          "internalType": "address",
          "name": "",
          "type": "address"
        }
      ],
      "stateMutability": "view",
      "type": "function"
    },
    {
      "inputs": [
        {
          "internalType": "address",
          "name": "",
          "type": "address"
        }
      ],
      "name": "referralXPEarned",
      "outputs": [
        {
          "internalType": "uint256",
          "name": "",
          "type": "uint256"
        }
      ],
      "stateMutability": "view",
      "type": "function"
    },
    {
      "inputs": [
        {
          "internalType": "address",
          "name": "",
          "type": "address"
        },
        {
          "internalType": "uint256",
          "name": "",
          "type": "uint256"
        }
      ],
      "name": "referrals",
      "outputs": [
        {
          "internalType": "address",
          "name": "",
          "type": "address"
        }
      ],
      "stateMutability": "view",
      "type": "function"
    },
    {
      "inputs": [
        {
          "internalType": "address",
          "name": "",
          "type": "address"
        }
      ],
      "name": "referrer",
      "outputs": [
        {
          "internalType": "address",
          "name": "",
          "type": "address"
        }
      ],
      "stateMutability": "view",
      "type": "function"
    },
    {
      "inputs": [
        {
          "internalType": "address",
          "name": "buyer",
          "type": "address"
        },
        {
          "internalType": "bytes32",
          "name": "code",
          "type": "bytes32"
        }
      ],
      "name": "registerWithReferralCode",
      "outputs": [
        {
          "internalType": "bool",
          "name": "",
          "type": "bool"
        }
      ],
      "stateMutability": "nonpayable",
      "type": "function"
    },
    {
      "inputs": [
        {
          "internalType": "bytes32",
          "name": "role",
          "type": "bytes32"
        },
        {
          "internalType": "address",
          "name": "account",
          "type": "address"
        }
      ],
      "name": "renounceRole",
      "outputs": [],
      "stateMutability": "nonpayable",
      "type": "function"
    },
    {
      "inputs": [
        {
          "internalType": "bytes32",
          "name": "role",
          "type": "bytes32"
        },
        {
          "internalType": "address",
          "name": "account",
          "type": "address"
        }
      ],
      "name": "revokeRole",
      "outputs": [],
      "stateMutability": "nonpayable",
      "type": "function"
    },
    {
      "inputs": [
        {
          "internalType": "address",
          "name": "_levelingSystem",
          "type": "address"
        }
      ],
      "name": "setLevelingSystem",
      "outputs": [],
      "stateMutability": "nonpayable",
      "type": "function"
    },
    {
      "inputs": [
        {
          "internalType": "address",
          "name": "",
          "type": "address"
        }
      ],
      "name": "successfulReferrals",
      "outputs": [
        {
          "internalType": "uint256",
          "name": "",
          "type": "uint256"
        }
      ],
      "stateMutability": "view",
      "type": "function"
    },
    {
      "inputs": [
        {
          "internalType": "bytes4",
          "name": "interfaceId",
          "type": "bytes4"
        }
      ],
      "name": "supportsInterface",
      "outputs": [
        {
          "internalType": "bool",
          "name": "",
          "type": "bool"
        }
      ],
      "stateMutability": "view",
      "type": "function"
    },
    {
      "inputs": [
        {
          "internalType": "address",
          "name": "newImplementation",
          "type": "address"
        }
      ],
      "name": "upgradeTo",
      "outputs": [],
      "stateMutability": "nonpayable",
      "type": "function"
    },
    {
      "inputs": [
        {
          "internalType": "address",
          "name": "newImplementation",
          "type": "address"
        },
        {
          "internalType": "bytes",
          "name": "data",
          "type": "bytes"
        }
      ],
      "name": "upgradeToAndCall",
      "outputs": [],
      "stateMutability": "payable",
      "type": "function"
    }
  ],
  "bytecode": "0x60a06040523461003257610011610036565b604051612b876101c582396080518181816110b7015261160b0152612b8790f35b5f80fd5b61003e61007d565b610046610155565b565b61005c9061005f906001600160a01b031682565b90565b6001600160a01b031690565b61005c90610048565b61005c9061006b565b61008630610074565b608052565b61005c9060081c5b60ff1690565b61005c905461008b565b60208082526027908201527f496e697469616c697a61626c653a20636f6e747261637420697320696e697469604082015266616c697a696e6760c81b606082015260800190565b156100f157565b60405162461bcd60e51b81528061010a600482016100a3565b0390fd5b61005c90610093565b61005c905461010e565b61009361005c61005c9260ff1690565b9061014161005c61015192610121565b825460ff191660ff919091161790565b9055565b61016e6101696101656001610099565b1590565b6100ea565b6101786001610117565b60ff9081160361018457565b61019060ff6001610131565b7f7f26b83ff96e1f2b6a682f133852f6798a09c465da95921460cefb38474024986101ba60405190565b60ff8152602090a156fe60806040526004361015610011575f80fd5b5f3560e01c806301ffc9a7146102cb57806318452cd8146102c6578063248a9ca3146102c1578063249556fb146102bc5780632cf003c2146102b75780632f2ff15d146102b257806332c82397146102ad57806336568abe146102a85780633659cfe6146102a35780633fe93b0b1461022657806348768caa1461029e5780634a9fefc7146102995780634f1ef28614610294578063528034341461028f57806352d1902d1461028a57806353fc75d41461028557806356129b0a146102805780635f068e4e1461027b5780636a3449ec146102765780636c9c7b6314610271578063732f4aba1461026c57806375b238fc1461026757806377e460221461026257806378c775d91461025d5780637af338a5146102585780637e3961101461025357806387f75db51461024e57806391d148541461024957806392c403441461024457806393bc0a491461023f578063a217fddf1461023a578063aa0decff14610235578063acf881b414610230578063ba0725b81461022b578063bb79311514610226578063c3439f3f14610221578063c4d66de81461021c578063c4f343fd14610217578063d547741f14610212578063db02e94d1461020d578063e697b5d814610208578063ebf9afa214610203578063ec47ad7b146101fe5763f72c0d8b036102d057610dc5565b610daa565b610d7c565b610d60565b610ce4565b610ca8565b610c8d565b610c60565b610c3a565b610638565b610c1f565b610bf2565b610bc8565b610b9e565b610b72565b610b57565b610b3b565b610b11565b610ac3565b610a8b565b610a65565b610a3e565b610a18565b6109fd565b6109d3565b6109b8565b610964565b6108d5565b6108a4565b610858565b61083d565b610829565b610717565b6106e6565b6105f0565b6105d7565b6105bc565b610575565b61051d565b6104ca565b61042c565b6103ea565b610311565b5f80fd5b6001600160e01b031981165b036102d057565b905035906102f4826102d4565b565b906020828203126102d05761030a916102e7565b90565b9052565b346102d05761033e61032c6103273660046102f6565b610dfe565b60405191829182901515815260200190565b0390f35b6001600160a01b031690565b6001600160a01b0381166102e0565b905035906102f48261034e565b906020828203126102d05761030a9161035d565b61034261030a61030a926001600160a01b031690565b61030a9061037e565b61030a90610394565b906103b09061039d565b5f5260205260405f2090565b61030a916008021c5b60ff1690565b9061030a91546103bc565b5f6103e561030a9260066103a6565b6103cb565b346102d05761033e61032c61040036600461036a565b6103d6565b806102e0565b905035906102f482610405565b906020828203126102d05761030a9161040b565b346102d05761033e610447610442366004610418565b610e49565b6040519182918290815260200190565b0190565b9061047b61047461046a845190565b8084529260200190565b9260200190565b905f5b81811061048b5750505090565b9091926104b16104aa60019286516001600160a01b0316815260200190565b9460200190565b92910161047e565b602080825261030a9291019061045b565b346102d05761033e6104e56104e036600461036a565b610f0b565b604051918291826104b9565b61030a916008021c610342565b9061030a91546104f1565b5f61051861030a9260046103a6565b6104fe565b346102d05761033e61053861053336600461036a565b610509565b604051918291826001600160a01b03909116815260200190565b91906040838203126102d05761030a90602061056e828661040b565b940161035d565b346102d05761058e610588366004610552565b90610f47565b604051005b5f9103126102d057565b61030a61030a61030a9290565b61030a601961059d565b61030a6105aa565b346102d0576105cc366004610593565b61033e6104476105b4565b346102d05761058e6105ea366004610552565b90610fba565b346102d05761058e61060336600461036a565b611183565b6106346102f49461062d606094989795610626608086019a5f870152565b6020850152565b6040830152565b0152565b346102d057610648366004610593565b61033e61065361118c565b9061066094929460405190565b94859485610608565b9061067861047461046a845190565b905f5b8181106106885750505090565b9091926106a06104aa60019286511515815260200190565b92910161067b565b92906106d8916106cb61030a96946106c460808801945f890152565b6020870152565b848203604086015261045b565b916060818403910152610669565b346102d05761033e6107016106fc36600461036a565b611205565b9061070e94929460405190565b948594856106a8565b346102d05761033e61053861072d36600461036a565b6112c5565b634e487b7160e01b5f52604160045260245ffd5b90601f01601f1916810190811067ffffffffffffffff82111761076857604052565b610732565b906102f461077a60405190565b9283610746565b67ffffffffffffffff811161076857602090601f01601f19160190565b90825f939282370152565b909291926107be6107b982610781565b61076d565b93818552818301116102d0576102f491602085019061079e565b9080601f830112156102d05781602061030a933591016107a9565b9190916040818403126102d05761080a838261035d565b92602082013567ffffffffffffffff81116102d05761030a92016107d8565b61058e6108373660046107f3565b90611306565b346102d05761033e61032c61085336600461036a565b611572565b346102d057610868366004610593565b61033e61044761166d565b909594926102f49461089d610634926108966080966106c460a088019c5f890152565b6040850152565b6060830152565b346102d0576108b4366004610593565b61033e6108bf611676565b916108cc95939560405190565b95869586610873565b346102d05761058e6108e836600461036a565b611736565b906108fc61047461046a845190565b905f5b81811061090c5750505090565b9091926109226104aa6001928651815260200190565b9291016108ff565b916109569061094861030a959360608601908682035f88015261045b565b9084820360208601526108ed565b9160408184039101526108ed565b346102d05761033e61097f61097a366004610418565b61173f565b6040519193919384938461092a565b61030a916008021c81565b9061030a915461098e565b5f6109b361030a9260096103a6565b610999565b346102d05761033e6104476109ce36600461036a565b6109a4565b346102d05761033e6104476109e936600461036a565b61186d565b5f6103e561030a9260076103a6565b346102d05761033e61032c610a1336600461036a565b6109ee565b346102d057610a28366004610593565b61033e5f516020612b325f395f51905f52610447565b346102d05761058e610a5136600461036a565b6119d4565b5f6103e561030a9260086103a6565b346102d05761033e61032c610a7b36600461036a565b610a56565b61030a5f600b6104fe565b346102d057610a9b366004610593565b61033e610538610a80565b9081526060810193926102f4929091604091610634906020830152565b346102d05761033e610ade610ad936600461036a565b6119dd565b60405191939193849384610aa6565b6001600160a01b039190911681529015156020820152901515604082015260600190565b346102d05761033e610b2c610b2736600461036a565b611a0f565b60405191939193849384610aed565b346102d05761033e61032c610b51366004610552565b90611a3b565b346102d05761033e610447610b6d36600461036a565b611a5b565b346102d05761033e61032c610b88366004610418565b611a71565b61030a5f61059d565b61030a610b8d565b346102d057610bae366004610593565b61033e610447610b96565b5f6109b361030a92600a6103a6565b346102d05761033e610447610bde36600461036a565b610bb9565b5f6109b361030a9260036103a6565b346102d05761033e610447610c0836600461036a565b610be3565b61030a600a61059d565b61030a610c0d565b346102d057610c2f366004610593565b61033e610447610c17565b346102d057610c4a366004610593565b61033e5f516020612b125f395f51905f52610447565b346102d05761058e610c7336600461036a565b611d26565b906103b0565b5f61051861030a926002610c78565b346102d05761033e610538610ca3366004610418565b610c7e565b346102d05761058e610cbb366004610552565b90611d4a565b91906040838203126102d05761030a906020610cdd828661035d565b940161040b565b346102d05761033e61032c610cfa366004610cc1565b906120b9565b634e487b7160e01b5f52603260045260245ffd5b8054821015610d3457610d2c6001915f5260205f2090565b910201905f90565b610d00565b610d449060056103a6565b80548210156102d05761030a91610d5a91610d14565b906104fe565b346102d05761033e610538610d76366004610cc1565b90610d39565b346102d05761033e610447610d92366004610cc1565b90612268565b61030a601e61059d565b61030a610d98565b346102d057610dba366004610593565b61033e610447610da2565b346102d057610dd5366004610593565b61033e7f189ab7a9244df0848122154315af71fe140f3db0fe014031783b0946b8c9d2e3610447565b637965db0b60e01b6001600160e01b0319821614908115610e1d575090565b61030a91506001600160e01b0319166301ffc9a760e01b1490565b61030a9081565b61030a9054610e38565b6001610e6061030a92610e595f90565b505f610c78565b01610e3f565b61030a90610342565b61030a9054610e66565b90610e92610e8861046a845490565b925f5260205f2090565b905f5b818110610ea25750505090565b909192610ecf610ec8600192610eb787610e6f565b6001600160a01b0316815260200190565b9460010190565b929101610e95565b9061030a91610e79565b906102f4610efb92610ef260405190565b93848092610ed7565b0383610746565b61030a90610ee1565b610f2261030a91610f1a606090565b5060056103a6565b610f02565b906102f491610f3d610f3882610e49565b612273565b906102f49161227e565b906102f491610f27565b15610f5857565b60405162461bcd60e51b815260206004820152602f60248201527f416363657373436f6e74726f6c3a2063616e206f6e6c792072656e6f756e636560448201526e103937b632b9903337b91039b2b63360891b606482015280608481015b0390fd5b6102f49190610fdb610fcb33610342565b6001600160a01b03841614610f51565b6122eb565b15610fe757565b60405162461bcd60e51b815260206004820152602c60248201527f46756e6374696f6e206d7573742062652063616c6c6564207468726f7567682060448201526b19195b1959d85d1958d85b1b60a21b6064820152608490fd5b1561104857565b60405162461bcd60e51b815260206004820152602c60248201527f46756e6374696f6e206d7573742062652063616c6c6564207468726f7567682060448201526b6163746976652070726f787960a01b6064820152608490fd5b6102f49061111f6110b23061039d565b6110fe7f0000000000000000000000000000000000000000000000000000000000000000916110f76110ea846001600160a01b031690565b916001600160a01b031690565b1415610fe0565b6111196110ea61110c612349565b926001600160a01b031690565b14611041565b61115e565b906111316107b983610781565b918252565b369037565b906102f461115161114b84611124565b93610781565b601f190160208401611136565b5f6102f49161116c81612388565b61117d6111788361059d565b61113b565b90612439565b6102f4906110a2565b6111955f61059d565b908180918190565b67ffffffffffffffff81116107685760208091020190565b906111316107b98361119d565b906102f46111516111d2846111b5565b9361119d565b906111e1825190565b811015610d34576020809102010190565b61030a906103c5565b61030a90546111f2565b906112186112148360056103a6565b5490565b611239610f2261123161122c86600a6103a6565b610e3f565b9460056103a6565b9061124a611245835190565b6111c2565b93846112555f61059d565b61126061030a865190565b8110156112be576112b9906112b36112a261129e6112996007611293611286878d6111d8565b516001600160a01b031690565b906103a6565b6111fb565b1590565b6112ac838b6111d8565b9015159052565b60010190565b611255565b5091945092565b6112db61030a916112d35f90565b5060046103a6565b610e6f565b906102f4916112f16110b23061039d565b6102f49160019161130181612388565b612439565b906102f4916112e0565b61030a919061132b5f516020612b125f395f51905f52612273565b611401565b61034261030a61030a9290565b61030a90611330565b1561134d57565b60405162461bcd60e51b815260206004820152600e60248201526d24b73b30b634b21039b2b63632b960911b6044820152606490fd5b9060ff905b9181191691161790565b906113a261030a6113a992151590565b8254611383565b9055565b634e487b7160e01b5f52601160045260245ffd5b5f1981146113cf5760010190565b6113ad565b905f1990611388565b906113ed61030a6113a99261059d565b82546113d4565b919082018092116113cf57565b506114226114116103425f61133d565b6001600160a01b0383161415611346565b61143361129e6112998360066103a6565b801561155e575b611559577f237cb92b0201b1b4943001e3330d2e01ba804af4b709c95ef2c01d35605495006115516114706112db8460046103a6565b61148560016114808660086103a6565b611392565b6114aa6114938260096103a6565b6114a461149f82610e3f565b6113c1565b906113dd565b6114e46114de6114b8610d98565b926114d96114c782600a6103a6565b6114a4866114d483610e3f565b6113f4565b61039d565b9461039d565b847fe5fc6d9a6c28237cfaf38ecda2d73ea71e0552e0bc2de2b9184c096a83055ac461150f60405190565b848152602090a36040519182918290815260406020820181905260139082015272524546455252414c5f46495253545f53414c4560681b606082015260800190565b0390a2600190565b505f90565b5061156d6112998260086103a6565b61143a565b61030a905f611310565b1561158357565b60405162461bcd60e51b815260206004820152603860248201527f555550535570677261646561626c653a206d757374206e6f742062652063616c60448201527f6c6564207468726f7567682064656c656761746563616c6c00000000000000006064820152608490fd5b61030a906116366115fe3061039d565b6116306001600160a01b037f0000000000000000000000000000000000000000000000000000000000000000166110ea565b1461157c565b611664565b61030a7f360894a13ba1a3210667c828492db98dca3e2076cc3735a920a3ca505d382bbc61059d565b5061030a61163b565b61030a5f6115ee565b61167f5f61059d565b80918180918190565b6102f4906116a25f516020612b325f395f51905f52612273565b61170b565b156116ae57565b60405162461bcd60e51b815260206004820152600f60248201526e496e76616c6964206164647265737360881b6044820152606490fd5b906001600160a01b0390611388565b9061170461030a6113a99261039d565b82546116e5565b6102f49061172f61171e6103425f61133d565b6001600160a01b03831614156116a7565b600b6116f4565b6102f490611688565b611748816111c2565b9161030a611755836111c2565b926111c2565b1561176257565b60405162461bcd60e51b815260206004820152600e60248201526d125b9d985b1a59081dd85b1b195d60921b6044820152606490fd5b1561179f57565b60405162461bcd60e51b815260206004820152601760248201527f57616c6c657420616c72656164792068617320636f64650000000000000000006044820152606490fd5b919082039182116113cf57565b61030d906001600160a01b031660601b90565b6020939261181c60148361181c8895610457976117f1565b01918252565b1561182957565b60405162461bcd60e51b815260206004820152600e60248201526d21b7b2329031b7b63634b9b4b7b760911b6044820152606490fd5b906113ed61030a6113a99290565b61195a6118795f61133d565b916118986001600160a01b0384166001600160a01b038316141561175b565b6118c26118a961122c8360036103a6565b6118bc6118b861030a5f61059d565b9190565b14611798565b6119326118d86118d2600161059d565b436117e4565b6119046118e460405190565b80926118f860208301914290408884611804565b90810382520382610746565b61191661190f825190565b9160200190565b209361192c6110ea61110c6112db886002610c78565b14611822565b61194681611941856002610c78565b6116f4565b6114d9836119558360036103a6565b61185f565b81907f8920d361bf79cd161c43fb7a91fe9358e63f23539ac70cba2fb25dc89a1d4a3961198660405190565b80805b0390a390565b6102f4906119a95f516020612b325f395f51905f52612273565b6102f4906119bc61171e6103425f61133d565b5f516020612b125f395f51905f5261227e565b61227e565b6102f49061198f565b906119ec6112148360056103a6565b90611a0961122c611a0161122c8660096103a6565b94600a6103a6565b91929190565b90611a1e6112db8360046103a6565b90611a09611299611a336112998660076103a6565b9460086103a6565b61030a915f611a5561129993611a4e5f90565b5082610c78565b016103a6565b61122c61030a91611a695f90565b5060036103a6565b6112db611a8791611a7f5f90565b506002610c78565b611a966110ea6103425f61133d565b141590565b61030a9060081c6103c5565b61030a9054611a9b565b6103c561030a61030a9290565b15611ac557565b60405162461bcd60e51b815260206004820152602e60248201527f496e697469616c697a61626c653a20636f6e747261637420697320616c72656160448201526d191e481a5b9a5d1a585b1a5e995960921b6064820152608490fd5b6103c561030a61030a9260ff1690565b906113a261030a6113a992611b21565b9061ff009060081b611388565b90611b5e61030a6113a992151590565b8254611b41565b61030d90611ab1565b6020810192916102f49190611b65565b611b8b61129e6001611aa7565b8080611c5f575b8015611c1a575b611ba290611abe565b611bc460019282611bbb611bb586611ab1565b86611b31565b611c0b57611cb9565b611bcb5750565b611c0681611bfa5f7f7f26b83ff96e1f2b6a682f133852f6798a09c465da95921460cefb384740249894611b4e565b60405191829182611b6e565b0390a1565b611c158480611b4e565b611cb9565b50611c2f61129e611c2a3061039d565b612546565b8015611b995750611ba2611c4360016111fb565b611c57611c506001611ab1565b9160ff1690565b149050611b99565b50611c6a60016111fb565b611c77611c506001611ab1565b10611b92565b15611c8457565b60405162461bcd60e51b815260206004820152600d60248201526c24b73b30b634b21030b236b4b760991b6044820152606490fd5b6102f490611cdd611ccc6103425f61133d565b6001600160a01b0383161415611c7d565b611ce9816119cf610b8d565b611d00815f516020612b325f395f51905f5261227e565b7f189ab7a9244df0848122154315af71fe140f3db0fe014031783b0946b8c9d2e361227e565b6102f490611b7e565b906102f491611d40610f3882610e49565b906102f4916122eb565b906102f491611d2f565b61030a929190611d705f516020612b125f395f51905f52612273565b611f91565b15611d7c57565b60405162461bcd60e51b815260206004820152600d60248201526c24b73b30b634b210313abcb2b960991b6044820152606490fd5b15611db857565b60405162461bcd60e51b815260206004820152600c60248201526b496e76616c696420636f646560a01b6044820152606490fd5b15611df357565b60405162461bcd60e51b815260206004820152602660248201527f427579657220616c7265616479207265676973746572656420776974682072656044820152653332b93932b960d11b6064820152608490fd5b15611e4e57565b60405162461bcd60e51b815260206004820152601d60248201527f496e76616c69642f6578706972656420726566657272616c20636f64650000006044820152606490fd5b15611e9a57565b60405162461bcd60e51b815260206004820152601d60248201527f43616e6e6f742072656769737465722077697468206f776e20636f64650000006044820152606490fd5b15611ee657565b60405162461bcd60e51b815260206004820152601960248201527f52656665727265722077616c6c6574206e6f7420666f756e64000000000000006044820152606490fd5b91906008611388910291611f456001600160a01b03841b90565b921b90565b9190611f5b61030a6113a99361039d565b908354611f2b565b90815491680100000000000000008310156107685782611f8b9160016102f495018155610d14565b90611f4a565b50906120866118b8612080611fa55f61133d565b94611fc56001600160a01b0387166001600160a01b0383165b1415611d75565b611fdc611fd461030a5f61059d565b861415611db1565b611ff5611ff061129e6112998460066103a6565b611dec565b61200661200186611a71565b611e47565b61204a61203961201a6112db886002610c78565b976103426001600160a01b0385166001600160a01b038b161415611e93565b6001600160a01b0388161415611edf565b612059866119418360046103a6565b61206960016114808360066103a6565b6114d98161207b61030a8960056103a6565b611f63565b9361039d565b917f3a451388576ecee7f128c5113486da62e2bc6a21468de14aabe7024f097e45f56120b160405190565b5f90a4600190565b61030a91905f611d54565b61030a9291906120e05f516020612b125f395f51905f52612273565b61216a565b156120ec57565b60405162461bcd60e51b815260206004820152600d60248201526c496e76616c696420707269636560981b6044820152606490fd5b818102929181159184041417156113cf57565b634e487b7160e01b5f52601260045260245ffd5b8115612152570490565b612134565b9081526040810192916102f49160200152565b509061218a61217b6103425f61133d565b6001600160a01b038416611fbe565b61219d6121965f61059d565b82116120e5565b6121ae61129e6112998460066103a6565b8015612254575b612249576121ce6121de916121c8610c0d565b90612121565b6121d8606461059d565b90612148565b906121ef60016114808360076103a6565b6121fd6112db8260046103a6565b7f8edc5dc91b78e8f9420d57c10a8c8b398b90feaf9f4ca3961bc698f6b0a6d0b961198961223561208061222f6105aa565b9561039d565b9361223f60405190565b9182918783612157565b505061030a5f61059d565b506122636112998360076103a6565b6121b5565b61030a91905f6120c4565b6102f4903390612642565b61228b61129e8383611a3b565b612293575050565b6122a76001611480845f611a558682610c78565b6122bb6122b5612080339390565b9161039d565b917f2f8788117e7eff1d82e926ec794901d17c78024a50270940304540a733656f0d6122e660405190565b5f90a4565b6122f58282611a3b565b6122fd575050565b6123105f6114808482611a558682610c78565b61231e6122b5612080339390565b917ff6391f5c32d9c69d2a47ea670b442974b53935d1edc7fd64eb21e047a839171b6122e660405190565b61030a5f61235861030a61163b565b01610e6f565b506102f47f189ab7a9244df0848122154315af71fe140f3db0fe014031783b0946b8c9d2e3612273565b6102f49061235e565b61030a7f4910fdfa16fed3260ed0e7147f7cc6da11a60208b5b9406d12a635614ffd914361059d565b905051906102f482610405565b906020828203126102d05761030a916123ba565b156123e257565b60405162461bcd60e51b815260206004820152602960248201527f45524331393637557067726164653a20756e737570706f727465642070726f786044820152681a58589b195555525160ba1b6064820152608490fd5b91906124505f61244a61030a612391565b016111fb565b156124605750506102f49061275b565b61246c6114d98461039d565b92602061247860405190565b6352d1902d60e01b815294859060049082905afa5f9481612515575b506124f55760405162461bcd60e51b815260206004820152602e60248201527f45524331393637557067726164653a206e657720696d706c656d656e7461746960448201526d6f6e206973206e6f74205555505360901b6064820152608490fd5b6125106102f49461250a6118b861030a61163b565b146123db565b6126bb565b61253891955060203d60201161253f575b6125308183610746565b8101906123c7565b935f612494565b503d612526565b3b6125536118b85f61059d565b1190565b61030a9061059d565b5f5b8381106125715750505f910152565b8181015183820152602001612562565b61045761259992602092612593815190565b94859290565b93849101612560565b6125e061030a93926125da6125da937f416363657373436f6e74726f6c3a206163636f756e7420000000000000000000815260170190565b90612581565b7001034b99036b4b9b9b4b733903937b6329607d1b815260110190565b61261e61262760209361045793612612815190565b80835293849260200190565b95869101612560565b601f01601f191690565b602080825261030a929101906125fd565b9061265061129e8284611a3b565b612658575050565b6118f861030a610fb69361268a61267a6126746126a2966127b2565b92612557565b612684602061059d565b9061286b565b9061269460405190565b9384926020840192836125a2565b6040515b62461bcd60e51b815291829160048301612631565b916126c583612984565b81516126d36118b85f61059d565b119081156126f1575b506126e5575050565b6126ee91612a0b565b50565b90505f6126dc565b1561270057565b60405162461bcd60e51b815260206004820152602d60248201527f455243313936373a206e657720696d706c656d656e746174696f6e206973206e60448201526c1bdd08184818dbdb9d1c9858dd609a1b6064820152608490fd5b6102f49061277061276b82612546565b6126f9565b5f61277c61030a61163b565b016116f4565b61030a61030a61030a926001600160a01b031690565b61030a6014611ab1565b61030a61030a61030a9260ff1690565b6127cf6127ca61030a926127c4606090565b50610394565b612782565b6126846127da612798565b6127a2565b906127e8825190565b811015610d34570160200190565b80156113cf575f190190565b61030a906128166118b861030a9460ff1690565b901c90565b1561282257565b60405162461bcd60e51b815280610fb6600482016020808252818101527f537472696e67733a20686578206c656e67746820696e73756666696369656e74604082015260600190565b6128946111786128848461287f600261059d565b612121565b61288e600261059d565b906113f4565b9160306128a96128a35f61059d565b856127df565b53600f60fb1b6128e26128d960019384935f1a6128ce6128c88661059d565b896127df565b5361287f600261059d565b61288e8361059d565b915b612905575b50509061030a61030a926128ff6118b85f61059d565b1461281b565b90916129108261059d565b83111561297e576f181899199a1a9b1b9c1cb0b131b232b360811b612935600f61059d565b8216906010821015610d3457839261295561297292612978941a60f81b90565b5f1a61296187896127df565b5361296c6004611ab1565b90612802565b936127f6565b916128e4565b916128e9565b612991906114d98161275b565b7fbc7cd75a20ee27fd9adebab32041f755214dbc6bffa90cc0225b39da2e5c2d3b6129bb60405190565b5f90a2565b6129ca6027611124565b7f416464726573733a206c6f772d6c6576656c2064656c65676174652063616c6c6020820152660819985a5b195960ca1b604082015290565b61030a6129c0565b61030a91612a17612a03565b91612a3b565b3d15612a3657612a2c3d611124565b903d5f602084013e565b606090565b5f8061030a9493612a4a606090565b50602081519101845af4612a5c612a1d565b91612aae565b15612a6957565b60405162461bcd60e51b815260206004820152601d60248201527f416464726573733a2063616c6c20746f206e6f6e2d636f6e74726163740000006044820152606490fd5b91929015612adf57508151612ac56118b85f61059d565b14612ace575090565b612ada61030a91612546565b612a62565b8290612ae9825190565b612af56118b85f61059d565b1115612b045750805190602001fd5b610fb6906126a66040519056fe0ea61da3a8a09ad801432653699f8c1860b1ae9d2ea4a141fadfd63227717bc8a49807205ce4d355092ef5a8a18f56e8913cf4a201fbe287825b095693c21775a264697066735822122016190181bf2119daa66ddf307f5b666764709736e2f2998ad54627226712c22164736f6c634300081c0033",
  "linkReferences": {},
  "deployedLinkReferences": {}
}