{
  "_format": "hh-sol-artifact-1",
  "contractName": "ReferralSystem",
  "sourceName": "contracts/Marketplace/ReferralSystem.sol",
  "abi": [
    {
      "inputs": [],
      "stateMutability": "nonpayable",
      "type": "constructor"
    },
    {
      "anonymous": false,
      "inputs": [
        {
          "indexed": false,
          "internalType": "address",
          "name": "previousAdmin",
          "type": "address"
        },
        {
          "indexed": false,
          "internalType": "address",
          "name": "newAdmin",
          "type": "address"
        }
      ],
      "name": "AdminChanged",
      "type": "event"
    },
    {
      "anonymous": false,
      "inputs": [
        {
          "indexed": true,
          "internalType": "address",
          "name": "beacon",
          "type": "address"
        }
      ],
      "name": "BeaconUpgraded",
      "type": "event"
    },
    {
      "anonymous": false,
      "inputs": [
        {
          "indexed": false,
          "internalType": "uint8",
          "name": "version",
          "type": "uint8"
        }
      ],
      "name": "Initialized",
      "type": "event"
    },
    {
      "anonymous": false,
      "inputs": [
        {
          "indexed": true,
          "internalType": "address",
          "name": "referrer",
          "type": "address"
        },
        {
          "indexed": false,
          "internalType": "uint256",
          "name": "xpAmount",
          "type": "uint256"
        },
        {
          "indexed": false,
          "internalType": "string",
          "name": "reason",
          "type": "string"
        }
      ],
      "name": "ReferralBonusEarned",
      "type": "event"
    },
    {
      "anonymous": false,
      "inputs": [
        {
          "indexed": true,
          "internalType": "address",
          "name": "buyer",
          "type": "address"
        },
        {
          "indexed": false,
          "internalType": "uint256",
          "name": "xpAmount",
          "type": "uint256"
        }
      ],
      "name": "ReferralBonusGiven",
      "type": "event"
    },
    {
      "anonymous": false,
      "inputs": [
        {
          "indexed": true,
          "internalType": "address",
          "name": "user",
          "type": "address"
        },
        {
          "indexed": true,
          "internalType": "bytes32",
          "name": "code",
          "type": "bytes32"
        }
      ],
      "name": "ReferralCodeGenerated",
      "type": "event"
    },
    {
      "anonymous": false,
      "inputs": [
        {
          "indexed": true,
          "internalType": "address",
          "name": "user",
          "type": "address"
        },
        {
          "indexed": true,
          "internalType": "address",
          "name": "referrer",
          "type": "address"
        }
      ],
      "name": "ReferralRegistered",
      "type": "event"
    },
    {
      "anonymous": false,
      "inputs": [
        {
          "indexed": true,
          "internalType": "bytes32",
          "name": "role",
          "type": "bytes32"
        },
        {
          "indexed": true,
          "internalType": "bytes32",
          "name": "previousAdminRole",
          "type": "bytes32"
        },
        {
          "indexed": true,
          "internalType": "bytes32",
          "name": "newAdminRole",
          "type": "bytes32"
        }
      ],
      "name": "RoleAdminChanged",
      "type": "event"
    },
    {
      "anonymous": false,
      "inputs": [
        {
          "indexed": true,
          "internalType": "bytes32",
          "name": "role",
          "type": "bytes32"
        },
        {
          "indexed": true,
          "internalType": "address",
          "name": "account",
          "type": "address"
        },
        {
          "indexed": true,
          "internalType": "address",
          "name": "sender",
          "type": "address"
        }
      ],
      "name": "RoleGranted",
      "type": "event"
    },
    {
      "anonymous": false,
      "inputs": [
        {
          "indexed": true,
          "internalType": "bytes32",
          "name": "role",
          "type": "bytes32"
        },
        {
          "indexed": true,
          "internalType": "address",
          "name": "account",
          "type": "address"
        },
        {
          "indexed": true,
          "internalType": "address",
          "name": "sender",
          "type": "address"
        }
      ],
      "name": "RoleRevoked",
      "type": "event"
    },
    {
      "anonymous": false,
      "inputs": [
        {
          "indexed": true,
          "internalType": "address",
          "name": "implementation",
          "type": "address"
        }
      ],
      "name": "Upgraded",
      "type": "event"
    },
    {
      "inputs": [],
      "name": "ADMIN_ROLE",
      "outputs": [
        {
          "internalType": "bytes32",
          "name": "",
          "type": "bytes32"
        }
      ],
      "stateMutability": "view",
      "type": "function"
    },
    {
      "inputs": [],
      "name": "BUYER_REFERRAL_BONUS_XP",
      "outputs": [
        {
          "internalType": "uint256",
          "name": "",
          "type": "uint256"
        }
      ],
      "stateMutability": "view",
      "type": "function"
    },
    {
      "inputs": [],
      "name": "DEFAULT_ADMIN_ROLE",
      "outputs": [
        {
          "internalType": "bytes32",
          "name": "",
          "type": "bytes32"
        }
      ],
      "stateMutability": "view",
      "type": "function"
    },
    {
      "inputs": [],
      "name": "MARKETPLACE_ROLE",
      "outputs": [
        {
          "internalType": "bytes32",
          "name": "",
          "type": "bytes32"
        }
      ],
      "stateMutability": "view",
      "type": "function"
    },
    {
      "inputs": [],
      "name": "REFERRER_BASE_XP",
      "outputs": [
        {
          "internalType": "uint256",
          "name": "",
          "type": "uint256"
        }
      ],
      "stateMutability": "view",
      "type": "function"
    },
    {
      "inputs": [],
      "name": "UPGRADER_ROLE",
      "outputs": [
        {
          "internalType": "bytes32",
          "name": "",
          "type": "bytes32"
        }
      ],
      "stateMutability": "view",
      "type": "function"
    },
    {
      "inputs": [
        {
          "internalType": "address",
          "name": "user",
          "type": "address"
        }
      ],
      "name": "generateReferralCode",
      "outputs": [
        {
          "internalType": "bytes32",
          "name": "",
          "type": "bytes32"
        }
      ],
      "stateMutability": "nonpayable",
      "type": "function"
    },
    {
      "inputs": [],
      "name": "getReferralActivity",
      "outputs": [
        {
          "internalType": "uint256",
          "name": "last24hReferrals",
          "type": "uint256"
        },
        {
          "internalType": "uint256",
          "name": "last7dReferrals",
          "type": "uint256"
        },
        {
          "internalType": "uint256",
          "name": "last30dReferrals",
          "type": "uint256"
        },
        {
          "internalType": "uint256",
          "name": "trendPercentage",
          "type": "uint256"
        }
      ],
      "stateMutability": "pure",
      "type": "function"
    },
    {
      "inputs": [
        {
          "internalType": "address",
          "name": "user",
          "type": "address"
        }
      ],
      "name": "getReferralCode",
      "outputs": [
        {
          "internalType": "bytes32",
          "name": "",
          "type": "bytes32"
        }
      ],
      "stateMutability": "view",
      "type": "function"
    },
    {
      "inputs": [],
      "name": "getReferralConversionMetrics",
      "outputs": [
        {
          "internalType": "uint256",
          "name": "codesGenerated",
          "type": "uint256"
        },
        {
          "internalType": "uint256",
          "name": "codesUsed",
          "type": "uint256"
        },
        {
          "internalType": "uint256",
          "name": "conversionRate",
          "type": "uint256"
        },
        {
          "internalType": "uint256",
          "name": "averageTimeToConvert",
          "type": "uint256"
        }
      ],
      "stateMutability": "pure",
      "type": "function"
    },
    {
      "inputs": [],
      "name": "getReferralSystemStats",
      "outputs": [
        {
          "internalType": "uint256",
          "name": "totalReferrals",
          "type": "uint256"
        },
        {
          "internalType": "uint256",
          "name": "totalUsers",
          "type": "uint256"
        },
        {
          "internalType": "uint256",
          "name": "totalXPEarned",
          "type": "uint256"
        },
        {
          "internalType": "uint256",
          "name": "averageReferralsPerUser",
          "type": "uint256"
        },
        {
          "internalType": "uint256",
          "name": "conversionRate",
          "type": "uint256"
        }
      ],
      "stateMutability": "pure",
      "type": "function"
    },
    {
      "inputs": [
        {
          "internalType": "bytes32",
          "name": "role",
          "type": "bytes32"
        }
      ],
      "name": "getRoleAdmin",
      "outputs": [
        {
          "internalType": "bytes32",
          "name": "",
          "type": "bytes32"
        }
      ],
      "stateMutability": "view",
      "type": "function"
    },
    {
      "inputs": [
        {
          "internalType": "uint256",
          "name": "_limit",
          "type": "uint256"
        }
      ],
      "name": "getTopReferrers",
      "outputs": [
        {
          "internalType": "address[]",
          "name": "referrers",
          "type": "address[]"
        },
        {
          "internalType": "uint256[]",
          "name": "referralCounts",
          "type": "uint256[]"
        },
        {
          "internalType": "uint256[]",
          "name": "xpEarned",
          "type": "uint256[]"
        }
      ],
      "stateMutability": "pure",
      "type": "function"
    },
    {
      "inputs": [
        {
          "internalType": "address",
          "name": "_user",
          "type": "address"
        }
      ],
      "name": "getUserReferralNetwork",
      "outputs": [
        {
          "internalType": "uint256",
          "name": "directReferrals",
          "type": "uint256"
        },
        {
          "internalType": "uint256",
          "name": "totalXPFromReferrals",
          "type": "uint256"
        },
        {
          "internalType": "address[]",
          "name": "referralAddresses",
          "type": "address[]"
        },
        {
          "internalType": "bool[]",
          "name": "activeStatus",
          "type": "bool[]"
        }
      ],
      "stateMutability": "view",
      "type": "function"
    },
    {
      "inputs": [
        {
          "internalType": "address",
          "name": "user",
          "type": "address"
        }
      ],
      "name": "getUserReferralStats",
      "outputs": [
        {
          "internalType": "uint256",
          "name": "totalCount",
          "type": "uint256"
        },
        {
          "internalType": "uint256",
          "name": "totalXPEarned",
          "type": "uint256"
        },
        {
          "internalType": "address[]",
          "name": "referralList",
          "type": "address[]"
        }
      ],
      "stateMutability": "view",
      "type": "function"
    },
    {
      "inputs": [
        {
          "internalType": "address",
          "name": "user",
          "type": "address"
        }
      ],
      "name": "getUserReferrer",
      "outputs": [
        {
          "internalType": "address",
          "name": "",
          "type": "address"
        }
      ],
      "stateMutability": "view",
      "type": "function"
    },
    {
      "inputs": [
        {
          "internalType": "bytes32",
          "name": "role",
          "type": "bytes32"
        },
        {
          "internalType": "address",
          "name": "account",
          "type": "address"
        }
      ],
      "name": "grantRole",
      "outputs": [],
      "stateMutability": "nonpayable",
      "type": "function"
    },
    {
      "inputs": [
        {
          "internalType": "address",
          "name": "",
          "type": "address"
        }
      ],
      "name": "hasReferrer",
      "outputs": [
        {
          "internalType": "bool",
          "name": "",
          "type": "bool"
        }
      ],
      "stateMutability": "view",
      "type": "function"
    },
    {
      "inputs": [
        {
          "internalType": "bytes32",
          "name": "role",
          "type": "bytes32"
        },
        {
          "internalType": "address",
          "name": "account",
          "type": "address"
        }
      ],
      "name": "hasRole",
      "outputs": [
        {
          "internalType": "bool",
          "name": "",
          "type": "bool"
        }
      ],
      "stateMutability": "view",
      "type": "function"
    },
    {
      "inputs": [
        {
          "internalType": "address",
          "name": "platformAdmin",
          "type": "address"
        }
      ],
      "name": "initialize",
      "outputs": [],
      "stateMutability": "nonpayable",
      "type": "function"
    },
    {
      "inputs": [
        {
          "internalType": "bytes32",
          "name": "code",
          "type": "bytes32"
        }
      ],
      "name": "isValidReferralCode",
      "outputs": [
        {
          "internalType": "bool",
          "name": "",
          "type": "bool"
        }
      ],
      "stateMutability": "view",
      "type": "function"
    },
    {
      "inputs": [],
      "name": "proxiableUUID",
      "outputs": [
        {
          "internalType": "bytes32",
          "name": "",
          "type": "bytes32"
        }
      ],
      "stateMutability": "view",
      "type": "function"
    },
    {
      "inputs": [
        {
          "internalType": "address",
          "name": "buyer",
          "type": "address"
        },
        {
          "internalType": "uint256",
          "name": "xpAmount",
          "type": "uint256"
        }
      ],
      "name": "recordBuyerReferralBonus",
      "outputs": [],
      "stateMutability": "nonpayable",
      "type": "function"
    },
    {
      "inputs": [
        {
          "internalType": "address",
          "name": "referrerAddress",
          "type": "address"
        },
        {
          "internalType": "uint256",
          "name": "xpAmount",
          "type": "uint256"
        },
        {
          "internalType": "string",
          "name": "reason",
          "type": "string"
        }
      ],
      "name": "recordReferralXP",
      "outputs": [],
      "stateMutability": "nonpayable",
      "type": "function"
    },
    {
      "inputs": [
        {
          "internalType": "address",
          "name": "",
          "type": "address"
        }
      ],
      "name": "referralCode",
      "outputs": [
        {
          "internalType": "bytes32",
          "name": "",
          "type": "bytes32"
        }
      ],
      "stateMutability": "view",
      "type": "function"
    },
    {
      "inputs": [
        {
          "internalType": "bytes32",
          "name": "",
          "type": "bytes32"
        }
      ],
      "name": "referralCodeOwner",
      "outputs": [
        {
          "internalType": "address",
          "name": "",
          "type": "address"
        }
      ],
      "stateMutability": "view",
      "type": "function"
    },
    {
      "inputs": [
        {
          "internalType": "address",
          "name": "",
          "type": "address"
        }
      ],
      "name": "referralCount",
      "outputs": [
        {
          "internalType": "uint256",
          "name": "",
          "type": "uint256"
        }
      ],
      "stateMutability": "view",
      "type": "function"
    },
    {
      "inputs": [
        {
          "internalType": "address",
          "name": "",
          "type": "address"
        }
      ],
      "name": "referralXPEarned",
      "outputs": [
        {
          "internalType": "uint256",
          "name": "",
          "type": "uint256"
        }
      ],
      "stateMutability": "view",
      "type": "function"
    },
    {
      "inputs": [
        {
          "internalType": "address",
          "name": "",
          "type": "address"
        },
        {
          "internalType": "uint256",
          "name": "",
          "type": "uint256"
        }
      ],
      "name": "referrals",
      "outputs": [
        {
          "internalType": "address",
          "name": "",
          "type": "address"
        }
      ],
      "stateMutability": "view",
      "type": "function"
    },
    {
      "inputs": [
        {
          "internalType": "address",
          "name": "",
          "type": "address"
        }
      ],
      "name": "referrer",
      "outputs": [
        {
          "internalType": "address",
          "name": "",
          "type": "address"
        }
      ],
      "stateMutability": "view",
      "type": "function"
    },
    {
      "inputs": [
        {
          "internalType": "address",
          "name": "user",
          "type": "address"
        },
        {
          "internalType": "bytes32",
          "name": "code",
          "type": "bytes32"
        }
      ],
      "name": "registerWithReferralCode",
      "outputs": [
        {
          "internalType": "bool",
          "name": "",
          "type": "bool"
        }
      ],
      "stateMutability": "nonpayable",
      "type": "function"
    },
    {
      "inputs": [
        {
          "internalType": "bytes32",
          "name": "role",
          "type": "bytes32"
        },
        {
          "internalType": "address",
          "name": "account",
          "type": "address"
        }
      ],
      "name": "renounceRole",
      "outputs": [],
      "stateMutability": "nonpayable",
      "type": "function"
    },
    {
      "inputs": [
        {
          "internalType": "bytes32",
          "name": "role",
          "type": "bytes32"
        },
        {
          "internalType": "address",
          "name": "account",
          "type": "address"
        }
      ],
      "name": "revokeRole",
      "outputs": [],
      "stateMutability": "nonpayable",
      "type": "function"
    },
    {
      "inputs": [
        {
          "internalType": "bytes4",
          "name": "interfaceId",
          "type": "bytes4"
        }
      ],
      "name": "supportsInterface",
      "outputs": [
        {
          "internalType": "bool",
          "name": "",
          "type": "bool"
        }
      ],
      "stateMutability": "view",
      "type": "function"
    },
    {
      "inputs": [
        {
          "internalType": "address",
          "name": "newImplementation",
          "type": "address"
        }
      ],
      "name": "upgradeTo",
      "outputs": [],
      "stateMutability": "nonpayable",
      "type": "function"
    },
    {
      "inputs": [
        {
          "internalType": "address",
          "name": "newImplementation",
          "type": "address"
        },
        {
          "internalType": "bytes",
          "name": "data",
          "type": "bytes"
        }
      ],
      "name": "upgradeToAndCall",
      "outputs": [],
      "stateMutability": "payable",
      "type": "function"
    },
    {
      "inputs": [
        {
          "internalType": "address",
          "name": "user",
          "type": "address"
        }
      ],
      "name": "userHasReferrer",
      "outputs": [
        {
          "internalType": "bool",
          "name": "",
          "type": "bool"
        }
      ],
      "stateMutability": "view",
      "type": "function"
    }
  ],
  "bytecode": "0x60a06040523461003257610011610036565b60405161263e6101c58239608051818181610eff015261121c015261263e90f35b5f80fd5b61003e61007d565b610046610155565b565b61005c9061005f906001600160a01b031682565b90565b6001600160a01b031690565b61005c90610048565b61005c9061006b565b61008630610074565b608052565b61005c9060081c5b60ff1690565b61005c905461008b565b60208082526027908201527f496e697469616c697a61626c653a20636f6e747261637420697320696e697469604082015266616c697a696e6760c81b606082015260800190565b156100f157565b60405162461bcd60e51b81528061010a600482016100a3565b0390fd5b61005c90610093565b61005c905461010e565b61009361005c61005c9260ff1690565b9061014161005c61015192610121565b825460ff191660ff919091161790565b9055565b61016e6101696101656001610099565b1590565b6100ea565b6101786001610117565b60ff9081160361018457565b61019060ff6001610131565b7f7f26b83ff96e1f2b6a682f133852f6798a09c465da95921460cefb38474024986101ba60405190565b60ff8152602090a156fe60806040526004361015610011575f80fd5b5f3560e01c806301ffc9a71461025b57806318452cd8146102565780631be0d12114610251578063248a9ca31461024c5780632cf003c2146102475780632f2ff15d1461024257806336144c9a1461023d57806336568abe146102385780633659cfe6146102335780633fe93b0b146101d957806348768caa1461022e5780634f1ef2861461022957806352d1902d1461022457806353fc75d41461021f5780635af0244c1461021a5780635f068e4e146102155780636c9c7b631461021057806375b238fc1461020b5780637d05c50c1461020657806391d1485414610201578063924a20e1146101fc57806392c40344146101f757806393bc0a49146101f25780639a50afdb146101ed578063a217fddf146101e8578063aa0decff146101e3578063acf881b4146101de578063bb793115146101d9578063c108a07e146101d4578063c3439f3f146101cf578063c4d66de8146101ca578063c4f343fd146101c5578063d547741f146101c0578063db02e94d146101bb578063db74559b146101b6578063e697b5d8146101b15763f72c0d8b0361026057610c72565b610c56565b610bdb565b610bb0565b610b97565b610b7c565b610b4f565b610b29565b610b10565b61052b565b610ad2565b610aa8565b610a63565b610a37565b610a0a565b6109ef565b6109d4565b610999565b61096f565b61090b565b6108f0565b6108c6565b610836565b6107c3565b610777565b610763565b61063b565b6104d9565b6104c0565b6104a5565b610487565b61042f565b6103d7565b610395565b61037a565b6102a1565b5f80fd5b6001600160e01b031981165b0361026057565b9050359061028482610264565b565b906020828203126102605761029a91610277565b90565b9052565b34610260576102ce6102bc6102b7366004610286565b610cab565b60405191829182901515815260200190565b0390f35b6001600160a01b031690565b6001600160a01b038116610270565b90503590610284826102de565b906020828203126102605761029a916102ed565b6102d261029a61029a926001600160a01b031690565b61029a9061030e565b61029a90610324565b906103409061032d565b5f5260205260405f2090565b61029a916008021c5b60ff1690565b9061029a915461034c565b5f61037561029a926006610336565b61035b565b34610260576102ce6102bc6103903660046102fa565b610366565b34610260576102ce6102bc6103ab3660046102fa565b610cf8565b80610270565b90503590610284826103b0565b906020828203126102605761029a916103b6565b34610260576102ce6103f26103ed3660046103c3565b610d24565b6040515b9182918290815260200190565b61029a916008021c6102d2565b9061029a9154610403565b5f61042a61029a926004610336565b610410565b34610260576102ce61044a6104453660046102fa565b61041b565b604051918291826001600160a01b03909116815260200190565b91906040838203126102605761029a90602061048082866103b6565b94016102ed565b34610260576104a061049a366004610464565b90610d61565b604051005b34610260576102ce61044a6104bb3660046102fa565b610d7e565b34610260576104a06104d3366004610464565b90610e02565b34610260576104a06104ec3660046102fa565b610fcb565b5f91031261026057565b61052761028494610520606094989795610519608086019a5f870152565b6020850152565b6040830152565b0152565b346102605761053b3660046104f1565b6102ce610546610fd4565b9061055394929460405190565b948594856104fb565b0190565b9061058061057961056f845190565b8084529260200190565b9260200190565b905f5b8181106105905750505090565b9091926105b66105af60019286516001600160a01b0316815260200190565b9460200190565b929101610583565b906105cd61057961056f845190565b905f5b8181106105dd5750505090565b9091926105f56105af60019286511515815260200190565b9291016105d0565b929061062d9161062061029a969461061960808801945f890152565b6020870152565b8482036040860152610560565b9160608184039101526105be565b34610260576102ce6106566106513660046102fa565b6110cc565b9061066394929460405190565b948594856105fd565b634e487b7160e01b5f52604160045260245ffd5b90601f01601f1916810190811067ffffffffffffffff8211176106a257604052565b61066c565b906102846106b460405190565b9283610680565b67ffffffffffffffff81116106a257602090601f01601f19160190565b90825f939282370152565b909291926106f86106f3826106bb565b6106a7565b9381855281830111610260576102849160208501906106d8565b9080601f830112156102605781602061029a933591016106e3565b9190916040818403126102605761074483826102ed565b92602082013567ffffffffffffffff81116102605761029a9201610712565b6104a061077136600461072d565b90611183565b34610260576107873660046104f1565b6102ce6103f261127e565b90959492610284946107bc610527926107b560809661061960a088019c5f890152565b6040850152565b6060830152565b34610260576107d33660046104f1565b6102ce6107de611287565b916107eb95939560405190565b95869586610792565b916060838303126102605761080982846102ed565b9261081783602083016103b6565b92604082013567ffffffffffffffff81116102605761029a9201610712565b34610260576104a06108493660046107f4565b91611459565b9061085e61057961056f845190565b905f5b81811061086e5750505090565b9091926108846105af6001928651815260200190565b929101610861565b916108b8906108aa61029a959360608601908682035f880152610560565b90848203602086015261084f565b91604081840391015261084f565b34610260576102ce6108e16108dc3660046103c3565b611464565b6040519193919384938461088c565b34610260576102ce6103f26109063660046102fa565b61153e565b346102605761091b3660046104f1565b6102ce7fa49807205ce4d355092ef5a8a18f56e8913cf4a201fbe287825b095693c217756103f2565b61096261029a94929361095b60608401955f850152565b6020830152565b6040818403910152610560565b34610260576102ce61098a6109853660046102fa565b61160d565b60405191939193849384610944565b34610260576102ce6102bc6109af366004610464565b90611639565b61029a61029a61029a9290565b61029a60056109b5565b61029a6109c2565b34610260576109e43660046104f1565b6102ce6103f26109cc565b34610260576102ce6103f2610a053660046102fa565b611659565b34610260576102ce6102bc610a203660046103c3565b61166f565b61029a600a6109b5565b61029a610a25565b3461026057610a473660046104f1565b6102ce6103f2610a2f565b61029a5f6109b5565b61029a610a52565b3461026057610a733660046104f1565b6102ce6103f2610a5b565b61029a916008021c81565b9061029a9154610a7e565b5f610aa361029a926007610336565b610a89565b34610260576102ce6103f2610abe3660046102fa565b610a94565b5f610aa361029a926003610336565b34610260576102ce6103f2610ae83660046102fa565b610ac3565b91906040838203126102605761029a906020610b0982866102ed565b94016103b6565b34610260576104a0610b23366004610aed565b90611747565b3461026057610b393660046104f1565b6102ce5f5160206125e95f395f51905f526103f2565b34610260576104a0610b623660046102fa565b611a18565b90610340565b5f61042a61029a926002610b67565b34610260576102ce61044a610b923660046103c3565b610b6d565b34610260576104a0610baa366004610464565b90611a3c565b34610260576102ce6102bc610bc6366004610aed565b90611d7b565b5f610aa361029a926008610336565b34610260576102ce6103f2610bf13660046102fa565b610bcc565b634e487b7160e01b5f52603260045260245ffd5b8054821015610c2a57610c226001915f5260205f2090565b910201905f90565b610bf6565b610c3a906005610336565b80548210156102605761029a91610c5091610c0a565b90610410565b34610260576102ce61044a610c6c366004610aed565b90610c2f565b3461026057610c823660046104f1565b6102ce7f189ab7a9244df0848122154315af71fe140f3db0fe014031783b0946b8c9d2e36103f2565b637965db0b60e01b6001600160e01b0319821614908115610cca575090565b61029a91506001600160e01b0319166301ffc9a760e01b1490565b61029a90610355565b61029a9054610ce5565b610d0e61029a91610d065f90565b506006610336565b610cee565b61029a9081565b61029a9054610d13565b6001610d3b61029a92610d345f90565b505f610b67565b01610d1a565b9061028491610d57610d5282610d24565b611d86565b9061028491611d91565b9061028491610d41565b61029a906102d2565b61029a9054610d6b565b610d9461029a91610d8c5f90565b506004610336565b610d74565b15610da057565b60405162461bcd60e51b815260206004820152602f60248201527f416363657373436f6e74726f6c3a2063616e206f6e6c792072656e6f756e636560448201526e103937b632b9903337b91039b2b63360891b606482015280608481015b0390fd5b6102849190610e23610e13336102d2565b6001600160a01b03841614610d99565b611dfe565b15610e2f57565b60405162461bcd60e51b815260206004820152602c60248201527f46756e6374696f6e206d7573742062652063616c6c6564207468726f7567682060448201526b19195b1959d85d1958d85b1b60a21b6064820152608490fd5b15610e9057565b60405162461bcd60e51b815260206004820152602c60248201527f46756e6374696f6e206d7573742062652063616c6c6564207468726f7567682060448201526b6163746976652070726f787960a01b6064820152608490fd5b61028490610f67610efa3061032d565b610f467f000000000000000000000000000000000000000000000000000000000000000091610f3f610f32846001600160a01b031690565b916001600160a01b031690565b1415610e28565b610f61610f32610f54611e5c565b926001600160a01b031690565b14610e89565b610fa6565b90610f796106f3836106bb565b918252565b369037565b90610284610f99610f9384610f6c565b936106bb565b601f190160208401610f7e565b5f61028491610fb481611e9b565b610fc5610fc0836109b5565b610f83565b90611f4c565b61028490610eea565b610fdd5f6109b5565b908180918190565b90610ffe610ff461056f845490565b925f5260205f2090565b905f5b81811061100e5750505090565b90919261103b61103460019261102387610d74565b6001600160a01b0316815260200190565b9460010190565b929101611001565b9061029a91610fe5565b906102846110679261105e60405190565b93848092611043565b0383610680565b61029a9061104d565b67ffffffffffffffff81116106a25760208091020190565b90610f796106f383611077565b90610284610f996110ac8461108f565b93611077565b906110bb825190565b811015610c2a576020809102010190565b906110e06110db836008610336565b610d1a565b6111016110fc6110f46110db866007610336565b946005610336565b61106e565b9261111261110d855190565b61109c565b938461111d5f6109b5565b61112861029a845190565b8110156111545761114f906111496001611142838b6110b2565b9015159052565b60010190565b61111d565b50919390929450565b906102849161116e610efa3061032d565b6102849160019161117e81611e9b565b611f4c565b906102849161115d565b1561119457565b60405162461bcd60e51b815260206004820152603860248201527f555550535570677261646561626c653a206d757374206e6f742062652063616c60448201527f6c6564207468726f7567682064656c656761746563616c6c00000000000000006064820152608490fd5b61029a9061124761120f3061032d565b6112416001600160a01b037f000000000000000000000000000000000000000000000000000000000000000016610f32565b1461118d565b611275565b61029a7f360894a13ba1a3210667c828492db98dca3e2076cc3735a920a3ca505d382bbc6109b5565b5061029a61124c565b61029a5f6111ff565b6112905f6109b5565b80918180918190565b6102849291906112b55f5160206125e95f395f51905f52611d86565b6113cc565b6102d261029a61029a9290565b61029a906112ba565b156112d757565b60405162461bcd60e51b815260206004820152601060248201526f24b73b30b634b2103932b332b93932b960811b6044820152606490fd5b634e487b7160e01b5f52601160045260245ffd5b9190820180921161133057565b61130f565b905f19905b9181191691161790565b9061135461029a61135b926109b5565b8254611335565b9055565b5f5b8381106113705750505f910152565b8181015183820152602001611361565b6113a16113aa60209361055c93611395815190565b80835293849260200190565b9586910161135f565b601f01601f191690565b90815260406020820181905261029a92910190611380565b9161143e7f3b0c9cf3ee7eac3d84586374eabf93652ed1aaec58b4910eed1e74508cb06c8392936114136114026102d25f6112c7565b6001600160a01b03831614156112d0565b611439611421826007610336565b6114338761142e83610d1a565b611323565b90611344565b61032d565b9261145461144b60405190565b928392836113b4565b0390a2565b906102849291611299565b61146d8161109c565b9161029a61147a8361109c565b9261109c565b1561148757565b60405162461bcd60e51b815260206004820152601460248201527f496e76616c6964207573657220616464726573730000000000000000000000006044820152606490fd5b9190820391821161133057565b61029d906001600160a01b031660601b90565b60209392611504601483611504889561055c976114d9565b01918252565b906001600160a01b039061133a565b9061152961029a61135b9261032d565b825461150a565b9061135461029a61135b9290565b61155e61154d6102d25f6112c7565b6001600160a01b0383161415611480565b6115db61157461156e60016109b5565b436114cc565b61159f61158060405190565b80926115936020830191404288846114ec565b90810382520382610680565b6115b16115aa825190565b9160200190565b20916115c7816115c2856002610b67565b611519565b611439836115d6836003610336565b611530565b81907f8920d361bf79cd161c43fb7a91fe9358e63f23539ac70cba2fb25dc89a1d4a3961160760405190565b5f90a390565b9061161c6110db836008610336565b9061029a6116316110f46110db866007610336565b92939261106e565b61029a915f611653610d0e9361164c5f90565b5082610b67565b01610336565b6110db61029a916116675f90565b506003610336565b610d946116859161167d5f90565b506002610b67565b611694610f326102d25f6112c7565b141590565b61028491906116b45f5160206125e95f395f51905f52611d86565b6116f5565b156116c057565b60405162461bcd60e51b815260206004820152600d60248201526c24b73b30b634b210313abcb2b960991b6044820152606490fd5b61145461173d7f13433820f813b7d4a54ebf48376c5137156c4127e9adaf630d52a319bea56aa29261143961172c6102d25f6112c7565b6001600160a01b03831614156116b9565b926103f660405190565b9061028491611699565b61029a9060081c610355565b61029a9054611751565b61035561029a61029a9290565b1561177b57565b60405162461bcd60e51b815260206004820152602e60248201527f496e697469616c697a61626c653a20636f6e747261637420697320616c72656160448201526d191e481a5b9a5d1a585b1a5e995960921b6064820152608490fd5b9060ff9061133a565b61035561029a61029a9260ff1690565b9061180061029a61135b926117e0565b82546117d7565b9061ff009060081b61133a565b9061182461029a61135b92151590565b8254611807565b61029d90611767565b602081019291610284919061182b565b611855611851600161175d565b1590565b8080611929575b80156118e4575b61186c90611774565b61188e6001928261188561187f86611767565b866117f0565b6118d557611993565b6118955750565b6118d0816118c45f7f7f26b83ff96e1f2b6a682f133852f6798a09c465da95921460cefb384740249894611814565b60405191829182611834565b0390a1565b6118df8480611814565b611993565b506118f96118516118f43061032d565b61205d565b8015611863575061186c61190d6001610cee565b61192161191a6001611767565b9160ff1690565b149050611863565b506119346001610cee565b61194161191a6001611767565b1061185c565b1561194e57565b60405162461bcd60e51b815260206004820152601660248201527f496e76616c696420706c6174666f726d2061646d696e000000000000000000006044820152606490fd5b610284906119b76119a66102d25f6112c7565b6001600160a01b0383161415611947565b6119c8816119c3610a52565b611d91565b6119f2817fa49807205ce4d355092ef5a8a18f56e8913cf4a201fbe287825b095693c21775611d91565b7f189ab7a9244df0848122154315af71fe140f3db0fe014031783b0946b8c9d2e3611d91565b61028490611844565b9061028491611a32610d5282610d24565b9061028491611dfe565b9061028491611a21565b61029a929190611a625f5160206125e95f395f51905f52611d86565b611c45565b15611a6e57565b60405162461bcd60e51b815260206004820152600c60248201526b24b73b30b634b2103ab9b2b960a11b6044820152606490fd5b15611aa957565b60405162461bcd60e51b815260206004820152600c60248201526b496e76616c696420636f646560a01b6044820152606490fd5b15611ae457565b60405162461bcd60e51b815260206004820152601960248201527f5573657220616c726561647920686173207265666572726572000000000000006044820152606490fd5b15611b3057565b60405162461bcd60e51b815260206004820152601560248201527f496e76616c696420726566657272616c20636f646500000000000000000000006044820152606490fd5b15611b7c57565b60405162461bcd60e51b815260206004820152601d60248201527f43616e6e6f742072656769737465722077697468206f776e20636f64650000006044820152606490fd5b9061180061029a61135b92151590565b9190600861133a910291611beb6001600160a01b03841b90565b921b90565b9190611c0161029a61135b9361032d565b908354611bd1565b90815491680100000000000000008310156106a25782611c3191600161028495018155610c0a565b90611bf0565b5f1981146113305760010190565b611ce7610d94611d489394611d429350611c75611c646102d25f6112c7565b6001600160a01b0388161415611a67565b611c8c611c8461029a5f6109b5565b821415611aa2565b611ca5611ca0611851610d0e896006610336565b611add565b611cb6611cb18261166f565b611b29565b611ce0611cc7610d94836002610b67565b611cd96001600160a01b038916610f32565b1415611b75565b6002610b67565b92611cf7846115c2836004610336565b611d0c6001611d07836006610336565b611bc1565b611d2381611d1e61029a876005610336565b611c09565b611439611d31856008610336565b611433611d3d82610d1a565b611c37565b9161032d565b907f5f1ca2fcc108b751843a763e60d2201f593516109d7dbb1b700468f2d4190bb7611d7360405190565b5f90a3600190565b61029a91905f611a46565b610284903390612104565b611d9e6118518383611639565b611da6575050565b611dba6001611d07845f6116538682610b67565b611dce611d42611dc8339390565b9361032d565b917f2f8788117e7eff1d82e926ec794901d17c78024a50270940304540a733656f0d611df960405190565b5f90a4565b611e088282611639565b611e10575050565b611e235f611d0784826116538682610b67565b611e31611d42611dc8339390565b917ff6391f5c32d9c69d2a47ea670b442974b53935d1edc7fd64eb21e047a839171b611df960405190565b61029a5f611e6b61029a61124c565b01610d74565b506102847f189ab7a9244df0848122154315af71fe140f3db0fe014031783b0946b8c9d2e3611d86565b61028490611e71565b61029a7f4910fdfa16fed3260ed0e7147f7cc6da11a60208b5b9406d12a635614ffd91436109b5565b90505190610284826103b0565b906020828203126102605761029a91611ecd565b15611ef557565b60405162461bcd60e51b815260206004820152602960248201527f45524331393637557067726164653a20756e737570706f727465642070726f786044820152681a58589b195555525160ba1b6064820152608490fd5b9190611f635f611f5d61029a611ea4565b01610cee565b15611f735750506102849061221d565b611f7f6114398461032d565b926020611f8b60405190565b6352d1902d60e01b815294859060049082905afa5f948161202c575b506120085760405162461bcd60e51b815260206004820152602e60248201527f45524331393637557067726164653a206e657720696d706c656d656e7461746960448201526d6f6e206973206e6f74205555505360901b6064820152608490fd5b6120276102849461202161201d61029a61124c565b9190565b14611eee565b61217d565b61204f91955060203d602011612056575b6120478183610680565b810190611eda565b935f611fa7565b503d61203d565b3b61206a61201d5f6109b5565b1190565b61029a906109b5565b61055c61208f92602092612089815190565b94859290565b9384910161135f565b6120d661029a93926120d06120d0937f416363657373436f6e74726f6c3a206163636f756e7420000000000000000000815260170190565b90612077565b7001034b99036b4b9b9b4b733903937b6329607d1b815260110190565b602080825261029a92910190611380565b906121126118518284611639565b61211a575050565b61159361029a610dfe9361214c61213c61213661216496612274565b9261206e565b61214660206109b5565b90612340565b9061215660405190565b938492602084019283612098565b6040515b62461bcd60e51b8152918291600483016120f3565b9161218783612459565b815161219561201d5f6109b5565b119081156121b3575b506121a7575050565b6121b0916124e2565b50565b90505f61219e565b156121c257565b60405162461bcd60e51b815260206004820152602d60248201527f455243313936373a206e657720696d706c656d656e746174696f6e206973206e60448201526c1bdd08184818dbdb9d1c9858dd609a1b6064820152608490fd5b6102849061223261222d8261205d565b6121bb565b5f61223e61029a61124c565b01611519565b61029a61029a61029a926001600160a01b031690565b61029a6014611767565b61029a61029a61029a9260ff1690565b61229161228c61029a92612286606090565b50610324565b612244565b61214661229c61225a565b612264565b8181029291811591840414171561133057565b906122bd825190565b811015610c2a570160200190565b8015611330575f190190565b61029a906122eb61201d61029a9460ff1690565b901c90565b156122f757565b60405162461bcd60e51b815280610dfe600482016020808252818101527f537472696e67733a20686578206c656e67746820696e73756666696369656e74604082015260600190565b612369610fc06123598461235460026109b5565b6122a1565b61236360026109b5565b90611323565b91603061237e6123785f6109b5565b856122b4565b53600f60fb1b6123b76123ae60019384935f1a6123a361239d866109b5565b896122b4565b5361235460026109b5565b612363836109b5565b915b6123da575b50509061029a61029a926123d461201d5f6109b5565b146122f0565b90916123e5826109b5565b831115612453576f181899199a1a9b1b9c1cb0b131b232b360811b61240a600f6109b5565b8216906010821015610c2a57839261242a6124479261244d941a60f81b90565b5f1a61243687896122b4565b536124416004611767565b906122d7565b936122cb565b916123b9565b916123be565b612466906114398161221d565b7fbc7cd75a20ee27fd9adebab32041f755214dbc6bffa90cc0225b39da2e5c2d3b61249060405190565b8080611454565b6124a16027610f6c565b7f416464726573733a206c6f772d6c6576656c2064656c65676174652063616c6c6020820152660819985a5b195960ca1b604082015290565b61029a612497565b61029a916124ee6124da565b91612512565b3d1561250d576125033d610f6c565b903d5f602084013e565b606090565b5f8061029a9493612521606090565b50602081519101845af46125336124f4565b91612585565b1561254057565b60405162461bcd60e51b815260206004820152601d60248201527f416464726573733a2063616c6c20746f206e6f6e2d636f6e74726163740000006044820152606490fd5b919290156125b65750815161259c61201d5f6109b5565b146125a5575090565b6125b161029a9161205d565b612539565b82906125c0825190565b6125cc61201d5f6109b5565b11156125db5750805190602001fd5b610dfe906121686040519056fe0ea61da3a8a09ad801432653699f8c1860b1ae9d2ea4a141fadfd63227717bc8a2646970667358221220fc7b8353446769db50f0b336bf4fe20883431d643976c92e2b67d5ee2c348f8964736f6c634300081c0033",
  "linkReferences": {},
  "deployedLinkReferences": {}
}