{
  "_format": "hh-sol-artifact-1",
  "contractName": "EnhancedSmartStakingRewards",
  "sourceName": "contracts/SmartStaking/EnhancedSmartStakingRewards.sol",
  "abi": [
    {
      "inputs": [],
      "stateMutability": "nonpayable",
      "type": "constructor"
    },
    {
      "anonymous": false,
      "inputs": [
        {
          "indexed": true,
          "internalType": "uint8",
          "name": "lockupIndex",
          "type": "uint8"
        },
        {
          "indexed": false,
          "internalType": "uint256",
          "name": "newAPY",
          "type": "uint256"
        }
      ],
      "name": "APYUpdated",
      "type": "event"
    },
    {
      "anonymous": false,
      "inputs": [
        {
          "indexed": true,
          "internalType": "address",
          "name": "admin",
          "type": "address"
        },
        {
          "indexed": false,
          "internalType": "uint256",
          "name": "amount",
          "type": "uint256"
        }
      ],
      "name": "EmergencyWithdrawal",
      "type": "event"
    },
    {
      "anonymous": false,
      "inputs": [
        {
          "indexed": true,
          "internalType": "address",
          "name": "previousOwner",
          "type": "address"
        },
        {
          "indexed": true,
          "internalType": "address",
          "name": "newOwner",
          "type": "address"
        }
      ],
      "name": "OwnershipTransferred",
      "type": "event"
    },
    {
      "anonymous": false,
      "inputs": [
        {
          "indexed": true,
          "internalType": "address",
          "name": "user",
          "type": "address"
        },
        {
          "indexed": true,
          "internalType": "uint256",
          "name": "questId",
          "type": "uint256"
        },
        {
          "indexed": false,
          "internalType": "uint256",
          "name": "amount",
          "type": "uint256"
        },
        {
          "indexed": false,
          "internalType": "uint256",
          "name": "boostApplied",
          "type": "uint256"
        }
      ],
      "name": "QuestRewardClaimed",
      "type": "event"
    },
    {
      "anonymous": false,
      "inputs": [
        {
          "indexed": true,
          "internalType": "address",
          "name": "funder",
          "type": "address"
        },
        {
          "indexed": false,
          "internalType": "uint256",
          "name": "amount",
          "type": "uint256"
        }
      ],
      "name": "RewardFunded",
      "type": "event"
    },
    {
      "inputs": [
        {
          "internalType": "uint8",
          "name": "lockupIndex",
          "type": "uint8"
        },
        {
          "internalType": "uint16",
          "name": "stakingBoostTotal",
          "type": "uint16"
        }
      ],
      "name": "calculateBoostedAPY",
      "outputs": [
        {
          "internalType": "uint256",
          "name": "",
          "type": "uint256"
        }
      ],
      "stateMutability": "view",
      "type": "function"
    },
    {
      "inputs": [
        {
          "internalType": "address",
          "name": "user",
          "type": "address"
        },
        {
          "internalType": "uint256",
          "name": "baseReward",
          "type": "uint256"
        }
      ],
      "name": "calculateQuestReward",
      "outputs": [
        {
          "internalType": "uint256",
          "name": "finalReward",
          "type": "uint256"
        }
      ],
      "stateMutability": "view",
      "type": "function"
    },
    {
      "inputs": [
        {
          "internalType": "uint256",
          "name": "depositAmount",
          "type": "uint256"
        },
        {
          "internalType": "uint256",
          "name": "",
          "type": "uint256"
        },
        {
          "internalType": "uint256",
          "name": "lastClaimTime",
          "type": "uint256"
        },
        {
          "internalType": "uint8",
          "name": "lockupPeriodIndex",
          "type": "uint8"
        },
        {
          "internalType": "uint16",
          "name": "stakingBoostTotal",
          "type": "uint16"
        }
      ],
      "name": "calculateStakingRewards",
      "outputs": [
        {
          "internalType": "uint256",
          "name": "rewards",
          "type": "uint256"
        }
      ],
      "stateMutability": "view",
      "type": "function"
    },
    {
      "inputs": [
        {
          "internalType": "uint256",
          "name": "questId",
          "type": "uint256"
        }
      ],
      "name": "claimQuestReward",
      "outputs": [],
      "stateMutability": "nonpayable",
      "type": "function"
    },
    {
      "inputs": [
        {
          "internalType": "uint256",
          "name": "amount",
          "type": "uint256"
        }
      ],
      "name": "emergencyWithdraw",
      "outputs": [],
      "stateMutability": "nonpayable",
      "type": "function"
    },
    {
      "inputs": [],
      "name": "gamificationModule",
      "outputs": [
        {
          "internalType": "contract IEnhancedSmartStakingGamification",
          "name": "",
          "type": "address"
        }
      ],
      "stateMutability": "view",
      "type": "function"
    },
    {
      "inputs": [
        {
          "internalType": "uint8",
          "name": "index",
          "type": "uint8"
        }
      ],
      "name": "getBaseAPY",
      "outputs": [
        {
          "internalType": "uint256",
          "name": "",
          "type": "uint256"
        }
      ],
      "stateMutability": "view",
      "type": "function"
    },
    {
      "inputs": [],
      "name": "getLockupPeriodsConfig",
      "outputs": [
        {
          "internalType": "uint256[]",
          "name": "periods",
          "type": "uint256[]"
        },
        {
          "internalType": "uint256[]",
          "name": "apys",
          "type": "uint256[]"
        }
      ],
      "stateMutability": "view",
      "type": "function"
    },
    {
      "inputs": [],
      "name": "owner",
      "outputs": [
        {
          "internalType": "address",
          "name": "",
          "type": "address"
        }
      ],
      "stateMutability": "view",
      "type": "function"
    },
    {
      "inputs": [],
      "name": "renounceOwnership",
      "outputs": [],
      "stateMutability": "nonpayable",
      "type": "function"
    },
    {
      "inputs": [
        {
          "internalType": "address",
          "name": "_gamificationModule",
          "type": "address"
        }
      ],
      "name": "setGamificationModule",
      "outputs": [],
      "stateMutability": "nonpayable",
      "type": "function"
    },
    {
      "inputs": [
        {
          "internalType": "address",
          "name": "_skillsModule",
          "type": "address"
        }
      ],
      "name": "setSkillsModule",
      "outputs": [],
      "stateMutability": "nonpayable",
      "type": "function"
    },
    {
      "inputs": [],
      "name": "skillsModule",
      "outputs": [
        {
          "internalType": "contract IEnhancedSmartStakingSkills",
          "name": "",
          "type": "address"
        }
      ],
      "stateMutability": "view",
      "type": "function"
    },
    {
      "inputs": [
        {
          "internalType": "address",
          "name": "newOwner",
          "type": "address"
        }
      ],
      "name": "transferOwnership",
      "outputs": [],
      "stateMutability": "nonpayable",
      "type": "function"
    },
    {
      "inputs": [
        {
          "internalType": "uint8",
          "name": "lockupPeriodIndex",
          "type": "uint8"
        },
        {
          "internalType": "uint256",
          "name": "newAPY",
          "type": "uint256"
        }
      ],
      "name": "updateBaseAPY",
      "outputs": [],
      "stateMutability": "nonpayable",
      "type": "function"
    },
    {
      "stateMutability": "payable",
      "type": "receive"
    }
  ],
  "bytecode": "0x60806040523461002257610011610238565b6040516113d461047882396113d490f35b5f80fd5b634e487b7160e01b5f52604160045260245ffd5b90601f01601f191681019081106001600160401b0382111761005b57604052565b610026565b9061007461006d60405190565b928361003a565b565b6001600160401b03811161005b5760200290565b61009661009b91610076565b610060565b90565b6100ab61009b61009b9290565b63ffffffff1690565b915f1960089290920291821b911b5b9181191691161790565b61009b61009b61009b9290565b91906100eb61009b6100f3936100cd565b9083546100b4565b9055565b610074915f916100da565b81811061010d575050565b8061011a5f6001936100f7565b01610102565b91909182821061012f57505050565b610074929161014290915f5260205f2090565b9182019101610102565b9068010000000000000000811161005b5781610169610074935490565b90828155610120565b60059161019261018860019261009b868661014c565b925f5260205f2090565b9204915f5b8381106101a45750505050565b60019060206101ba61009b865163ffffffff1690565b9401938184015501610197565b9061007491610172565b6101de61009b61009b9290565b61ffff1690565b6005916101fb61018860019261009b868661014c565b9204915f5b83811061020d5750505050565b600190602061022161009b865161ffff1690565b9401938184015501610200565b90610074916101e5565b610240610367565b6102db61024d600561008a565b6102636102595f61009e565b63ffffffff168252565b61027f61027262278d0061009e565b63ffffffff166020830152565b61029b61028e6276a70061009e565b63ffffffff166040830152565b6102b76102aa62ed4e0061009e565b63ffffffff166060830152565b6102d46102c76301e1338061009e565b63ffffffff166080830152565b60046101c7565b6100746102e8600561008a565b6102fd6102f560646101d1565b61ffff168252565b61031561030a60c86101d1565b61ffff166020830152565b61032e61032361012c6101d1565b61ffff166040830152565b61034761033c6101f46101d1565b61ffff166060830152565b6103606103556103206101d1565b61ffff166080830152565b600561022e565b610074610399565b61009b60016100cd565b905f19906100c3565b9061039261009b6100f3926100cd565b8254610379565b6103a16103b3565b6100746103ac61036f565b6001610382565b61007433610423565b61009b905b6001600160a01b031690565b61009b90546103bc565b906001600160a01b03906100c3565b61009b906103c1906001600160a01b031682565b61009b906103e6565b61009b906103fa565b9061041c61009b6100f392610403565b82546103d7565b6104476104416104325f6103cd565b61043c845f61040c565b610403565b91610403565b907f8be0079c531659141344cd1fd0a4f28419497f9722a3daafe3b4186f6b6457e061047260405190565b5f90a356fe60806040526004361015610022575b3615610018575f80fd5b6100206111ed565b005b5f3560e01c80635312ea8e14610111578063593510de1461010c5780635cb60986146101075780636ec5043714610102578063715018a6146100fd57806375af38f2146100f857806375b9ea1d146100f35780638da5cb5b146100ee578063ad293709146100e9578063c6b094b0146100e4578063dde82651146100df578063e41265d0146100da578063ef6c4acf146100d5578063f2fde38b146100d05763fb39242d0361000e5761052a565b6104f6565b6104de565b6104bf565b61045f565b61041e565b6103c9565b610389565b610371565b61034a565b6102c7565b610299565b6101f9565b6101a4565b610149565b805b0361011f57565b5f80fd5b9050359061013082610116565b565b9060208282031261011f5761014691610123565b90565b3461011f5761016161015c366004610132565b610640565b60405180805b0390f35b60ff8116610118565b905035906101308261016b565b919060408382031261011f5761014690602061019d8286610174565b9401610123565b3461011f576101616101b7366004610181565b906107f9565b6001600160a01b031690565b6001600160a01b038116610118565b90503590610130826101c9565b9060208282031261011f57610146916101d8565b3461011f5761016161020c3660046101e5565b6108bc565b5f91031261011f57565b9052565b9061023f61023861022e845190565b8084529260200190565b9260200190565b905f5b81811061024f5750505090565b90919261026c6102656001928651815260200190565b9460200190565b929101610242565b604080825261014693919261028b9184019061021f565b91602081840391015261021f565b3461011f576102a9366004610211565b6102b161099a565b906101676102be60405190565b92839283610274565b3461011f576102d7366004610211565b6101616109cb565b610146916008021c6001600160a01b031690565b9061014691546102df565b6101465f60036102f3565b6101bd610146610146926001600160a01b031690565b61014690610309565b6101469061031f565b61021b90610328565b6020810192916101309190610331565b3461011f5761035a366004610211565b6101676103656102fe565b6040519182918261033a565b3461011f57610161610384366004610132565b610e61565b3461011f57610399366004610211565b6101676103a4610e6a565b604051918291826001600160a01b03909116815260200190565b6101465f60026102f3565b3461011f576103d9366004610211565b6101676103656103be565b61ffff8116610118565b90503590610130826103e4565b919060408382031261011f576101469060206104178286610174565b94016103ee565b3461011f5761016761043a6104343660046103fb565b90610ea7565b6040515b9182918290815260200190565b9060208282031261011f5761014691610174565b3461011f5761016761043a61047536600461044b565b610ef4565b919060a08382031261011f576104908184610123565b9261049e8260208301610123565b926101466104af8460408501610123565b9360806104178260608701610174565b3461011f5761016761043a6104d536600461047a565b93929092610f68565b3461011f576101616104f13660046101e5565b61101f565b3461011f576101616105093660046101e5565b6110b8565b919060408382031261011f5761014690602061019d82866101d8565b3461011f5761016761043a61054036600461050e565b90611112565b6101309061055261127d565b6105b3565b1561055e57565b60405162461bcd60e51b815260206004820152601460248201527f496e73756666696369656e742062616c616e6365000000000000000000000000604482015280606481015b0390fd5b6040513d5f823e3d90fd5b6105ce6105c66105c230610328565b3190565b821115610557565b5f808080846105e66105e16105e1610e6a565b610328565b828215610637575bf115610632577f23d6711a1d031134a36921253c75aa59e967d38e369ac625992824315e204f2061062d6106236105e1610e6a565b9261043e60405190565b0390a2565b6105a8565b506108fc6105ee565b61013090610546565b906101309161065661127d565b610783565b6101466101466101469260ff1690565b1561067257565b60405162461bcd60e51b815260206004820152601560248201527f496e76616c6964206c6f636b757020706572696f6400000000000000000000006044820152606490fd5b6101466101466101469290565b156106cb57565b60405162461bcd60e51b815260206004820152600b60248201526a496e76616c69642041505960a81b6044820152606490fd5b634e487b7160e01b5f52603260045260245ffd5b80548210156107325761072a6001915f5260205f2090565b910201905f90565b6106fe565b915f1960089290920291821b911b5b9181191691161790565b9190610761610146610769936106b7565b908354610737565b9055565b61077d6101466101469260ff1690565b60ff1690565b61062d6106237f47e648479186dea95868988c8f4a63c72201970c2ebc30e5ab82810e3e3f5124926107c96107ba61014660055490565b6107c38361065b565b1061066b565b6107df6107d76127106106b7565b8611156106c4565b6107f4856107ee836005610712565b90610750565b61076d565b9061013091610649565b6101309061080f61127d565b61088e565b6101bd6101466101469290565b61014690610814565b1561083157565b60405162461bcd60e51b815260206004820152600f60248201526e496e76616c6964206164647265737360881b6044820152606490fd5b906001600160a01b0390610746565b9061088761014661076992610328565b8254610868565b6108b5610130916105e16108a46101bd5f610821565b6001600160a01b038316141561082a565b6003610877565b61013090610803565b6101469081565b61014690546108c5565b906108ef6108e561022e845490565b925f5260205f2090565b905f5b8181106108ff5750505090565b90919261092361091c600192610914876108cc565b815260200190565b9460010190565b9291016108f2565b90610146916108d6565b634e487b7160e01b5f52604160045260245ffd5b90601f01601f1916810190811067ffffffffffffffff82111761096b57604052565b610935565b9061013061098a9261098160405190565b9384809261092b565b0383610949565b61014690610970565b6109a46004610991565b906101466005610991565b6109b761127d565b6101306101306109c65f610821565b61129a565b6101306109af565b6109e4906109df611361565b610c46565b610130611393565b610146906101bd565b61014690546109ec565b15610a0657565b60405162461bcd60e51b815260206004820152601460248201527f47616d696669636174696f6e206e6f74207365740000000000000000000000006044820152606490fd5b90610130610a5860405190565b9283610949565b9050519061013082610116565b801515610118565b9050519061013082610a6c565b919060608382031261011f57610ac2906040610a9d6060610a4b565b94610aa88382610a5f565b8652610ab78360208301610a5f565b602087015201610a74565b6040830152565b9060608282031261011f5761014691610a81565b6001600160a01b0390911681526040810192916101309160200152565b15610b0157565b60405162461bcd60e51b815260206004820152600f60248201526e139bc81c995dd85c9908199bdd5b99608a1b6044820152606490fd5b15610b3f57565b60405162461bcd60e51b815260206004820152601660248201527f52657761726420616c726561647920636c61696d6564000000000000000000006044820152606490fd5b15610b8b57565b60405162461bcd60e51b815260206004820152600e60248201526d14995dd85c9908195e1c1a5c995960921b6044820152606490fd5b15610bc857565b60405162461bcd60e51b815260206004820152601960248201527f496e73756666696369656e74207265776172642066756e6473000000000000006044820152606490fd5b634e487b7160e01b5f52601160045260245ffd5b91908203918211610c2e57565b610c0d565b9081526040810192916101309160200152565b610c79610c566105e160036109f5565b610c72610c656101bd5f610821565b916001600160a01b031690565b14156109ff565b610c866105e160036109f5565b906060610c9260405190565b92839063ef4857d760e01b82528180610caf863360048401610add565b03915afa918215610632575f92610e30575b50610d18610d10610146602085610cef610cd9825190565b610ce9610ce55f6106b7565b9190565b11610afa565b610d0b610d06610d026040840151151590565b1590565b610b38565b015190565b421115610b84565b610d29610d23835190565b33611112565b91610d376105e160036109f5565b803b1561011f575f610d4860405190565b91829063c2dd541960e01b8252818381610d66893360048401610add565b03925af1801561063257610e13575b50610d8c610d8230610328565b8490311015610bc1565b5f80808086610d9d6105e133610328565b828215610e0a575bf11561063257610ddd610dd77fc71283499d072556bd9c2a6e2804e030b6490f819431c47fb84484ca6ce59b91925190565b84610c21565b610def610de933610328565b936106b7565b93610e05610dfc60405190565b92839283610c33565b0390a3565b506108fc610da5565b610e2a905f610e228183610949565b810190610211565b5f610d75565b610e5391925060603d606011610e5a575b610e4b8183610949565b810190610ac9565b905f610cc1565b503d610e41565b610130906109d3565b6101465f6109f5565b610146916008021c81565b906101469154610e73565b6101466101466101469261ffff1690565b91908201809211610c2e57565b90610eb461014660055490565b610ebd8361065b565b1015610ee957610ee3610edd610ed7610146946005610712565b90610e7e565b91610e89565b90610e9a565b50506101465f6106b7565b610f0061014660055490565b610f098261065b565b1015610f1d57610ed7610146916005610712565b506101465f6106b7565b81810292918115918404141715610c2e57565b6101466127106106b7565b634e487b7160e01b5f52601260045260245ffd5b8115610f63570490565b610f45565b93919050610f7861014660055490565b610f818461065b565b1015610fe957610f919042610c21565b90610f9b5f6106b7565b8214610fe95761014693610fc0610fc692610ee3610edd610ed7610fcb986005610712565b90610f27565b610f27565b610fe3610fd6610f3a565b610fc66301e133806106b7565b90610f59565b505050506101465f6106b7565b6101309061100261127d565b611018610130916105e16108a46101bd5f610821565b6002610877565b61013090610ff6565b6101309061103461127d565b611094565b1561104057565b60405162461bcd60e51b815260206004820152602660248201527f4f776e61626c653a206e6577206f776e657220697320746865207a65726f206160448201526564647265737360d01b6064820152608490fd5b610130906109c66110a76101bd5f610821565b6001600160a01b0383161415611039565b61013090611028565b90505190610130826103e4565b909160608284031261011f576101466110e784846110c1565b9360406110f782602087016110c1565b94016110c1565b61110b6101466101469290565b61ffff1690565b61111f6105e160026109f5565b61112e610c656101bd5f610821565b146111b9576060611171916111466105e160026109f5565b60405193849283918291630166b5c560e61b8352600483016001600160a01b03909116815260200190565b03915afa908115610632575f916111bd575b5061118d5f6110fe565b61ffff821611156111b95790610ee36111b16111ab61014694610e89565b83610f27565b610fe3610f3a565b5090565b6111df915060603d6060116111e6575b6111d78183610949565b8101906110ce565b9150611183565b503d6111cd565b6111f633610328565b7f525b74a34fa7d280989782ff88faded7890117edd2a674614497b9ed45b4598861122060405190565b348152806020810161062d565b1561123457565b60405162461bcd60e51b8152806105a4600482016020808252818101527f4f776e61626c653a2063616c6c6572206973206e6f7420746865206f776e6572604082015260600190565b610130611288610e6a565b611294610c65336101bd565b1461122d565b6112b96112b36112a95f6109f5565b6105e1845f610877565b91610328565b907f8be0079c531659141344cd1fd0a4f28419497f9722a3daafe3b4186f6b6457e06112e460405190565b8080610e05565b61014660026106b7565b156112fc57565b60405162461bcd60e51b815260206004820152601f60248201527f5265656e7472616e637947756172643a207265656e7472616e742063616c6c006044820152606490fd5b905f1990610746565b9061135a610146610769926106b7565b8254611341565b61013061136e60016108cc565b6113826113796112eb565b918214156112f5565b600161134a565b61014660016106b7565b61013061138261138956fea2646970667358221220da18ce5de970a7c779e8fccb30a626a83d525bc898174ca90fe86bcf6ae216a564736f6c634300081c0033",
  "linkReferences": {},
  "deployedLinkReferences": {}
}