{
  "_format": "hh-sol-artifact-1",
  "contractName": "EnhancedSmartStakingSkills",
  "sourceName": "contracts/SmartStaking/EnhancedSmartStakingSkills.sol",
  "abi": [
    {
      "inputs": [],
      "stateMutability": "nonpayable",
      "type": "constructor"
    },
    {
      "anonymous": false,
      "inputs": [
        {
          "indexed": true,
          "internalType": "address",
          "name": "previousOwner",
          "type": "address"
        },
        {
          "indexed": true,
          "internalType": "address",
          "name": "newOwner",
          "type": "address"
        }
      ],
      "name": "OwnershipTransferred",
      "type": "event"
    },
    {
      "anonymous": false,
      "inputs": [
        {
          "indexed": true,
          "internalType": "address",
          "name": "user",
          "type": "address"
        },
        {
          "indexed": true,
          "internalType": "uint256",
          "name": "nftId",
          "type": "uint256"
        },
        {
          "indexed": false,
          "internalType": "enum IStakingIntegration.SkillType",
          "name": "skillType",
          "type": "uint8"
        },
        {
          "indexed": false,
          "internalType": "uint16",
          "name": "effectValue",
          "type": "uint16"
        },
        {
          "indexed": false,
          "internalType": "uint16",
          "name": "totalBoost",
          "type": "uint16"
        }
      ],
      "name": "SkillActivated",
      "type": "event"
    },
    {
      "anonymous": false,
      "inputs": [
        {
          "indexed": true,
          "internalType": "address",
          "name": "user",
          "type": "address"
        },
        {
          "indexed": true,
          "internalType": "uint256",
          "name": "nftId",
          "type": "uint256"
        },
        {
          "indexed": false,
          "internalType": "enum IStakingIntegration.SkillType",
          "name": "skillType",
          "type": "uint8"
        },
        {
          "indexed": false,
          "internalType": "uint16",
          "name": "totalBoost",
          "type": "uint16"
        }
      ],
      "name": "SkillDeactivated",
      "type": "event"
    },
    {
      "anonymous": false,
      "inputs": [
        {
          "indexed": true,
          "internalType": "uint256",
          "name": "nftId",
          "type": "uint256"
        },
        {
          "indexed": false,
          "internalType": "enum IEnhancedSmartStakingSkills.SkillRarity",
          "name": "rarity",
          "type": "uint8"
        },
        {
          "indexed": false,
          "internalType": "uint16",
          "name": "rarityMultiplier",
          "type": "uint16"
        }
      ],
      "name": "SkillRarityUpdated",
      "type": "event"
    },
    {
      "inputs": [
        {
          "internalType": "uint256[]",
          "name": "nftIds",
          "type": "uint256[]"
        },
        {
          "internalType": "enum IEnhancedSmartStakingSkills.SkillRarity[]",
          "name": "rarities",
          "type": "uint8[]"
        }
      ],
      "name": "batchSetSkillRarity",
      "outputs": [],
      "stateMutability": "nonpayable",
      "type": "function"
    },
    {
      "inputs": [],
      "name": "coreStakingContract",
      "outputs": [
        {
          "internalType": "address",
          "name": "",
          "type": "address"
        }
      ],
      "stateMutability": "view",
      "type": "function"
    },
    {
      "inputs": [
        {
          "internalType": "address",
          "name": "user",
          "type": "address"
        }
      ],
      "name": "getActiveSkillsWithDetails",
      "outputs": [
        {
          "components": [
            {
              "internalType": "uint256",
              "name": "nftId",
              "type": "uint256"
            },
            {
              "internalType": "enum IStakingIntegration.SkillType",
              "name": "skillType",
              "type": "uint8"
            },
            {
              "internalType": "enum IEnhancedSmartStakingSkills.SkillRarity",
              "name": "rarity",
              "type": "uint8"
            },
            {
              "internalType": "uint16",
              "name": "boost",
              "type": "uint16"
            },
            {
              "internalType": "uint16",
              "name": "rarityMultiplier",
              "type": "uint16"
            },
            {
              "internalType": "bool",
              "name": "isActive",
              "type": "bool"
            },
            {
              "internalType": "uint64",
              "name": "activatedAt",
              "type": "uint64"
            },
            {
              "internalType": "uint64",
              "name": "cooldownEnds",
              "type": "uint64"
            }
          ],
          "internalType": "struct IEnhancedSmartStakingSkills.SkillInfo[]",
          "name": "skills",
          "type": "tuple[]"
        }
      ],
      "stateMutability": "view",
      "type": "function"
    },
    {
      "inputs": [],
      "name": "getAllSkillBoosts",
      "outputs": [
        {
          "internalType": "enum IStakingIntegration.SkillType[]",
          "name": "skillTypes",
          "type": "uint8[]"
        },
        {
          "internalType": "uint16[]",
          "name": "boosts",
          "type": "uint16[]"
        }
      ],
      "stateMutability": "view",
      "type": "function"
    },
    {
      "inputs": [
        {
          "internalType": "enum IStakingIntegration.SkillType",
          "name": "skillType",
          "type": "uint8"
        }
      ],
      "name": "getSkillBoost",
      "outputs": [
        {
          "internalType": "uint16",
          "name": "boost",
          "type": "uint16"
        }
      ],
      "stateMutability": "view",
      "type": "function"
    },
    {
      "inputs": [
        {
          "internalType": "uint256",
          "name": "nftId",
          "type": "uint256"
        }
      ],
      "name": "getSkillRarity",
      "outputs": [
        {
          "internalType": "enum IEnhancedSmartStakingSkills.SkillRarity",
          "name": "rarity",
          "type": "uint8"
        },
        {
          "internalType": "uint16",
          "name": "multiplier",
          "type": "uint16"
        }
      ],
      "stateMutability": "view",
      "type": "function"
    },
    {
      "inputs": [
        {
          "internalType": "address",
          "name": "user",
          "type": "address"
        }
      ],
      "name": "getUserBoosts",
      "outputs": [
        {
          "internalType": "uint16",
          "name": "totalBoost",
          "type": "uint16"
        },
        {
          "internalType": "uint16",
          "name": "rarityMultiplier",
          "type": "uint16"
        },
        {
          "internalType": "uint16",
          "name": "effectiveBoost",
          "type": "uint16"
        }
      ],
      "stateMutability": "view",
      "type": "function"
    },
    {
      "inputs": [
        {
          "internalType": "address",
          "name": "user",
          "type": "address"
        }
      ],
      "name": "getUserSkillProfile",
      "outputs": [
        {
          "components": [
            {
              "internalType": "uint256[]",
              "name": "activeSkillNFTIds",
              "type": "uint256[]"
            },
            {
              "internalType": "uint16",
              "name": "totalBoost",
              "type": "uint16"
            },
            {
              "internalType": "uint16",
              "name": "stakingBoostTotal",
              "type": "uint16"
            },
            {
              "internalType": "uint16",
              "name": "feeDiscountTotal",
              "type": "uint16"
            },
            {
              "internalType": "uint16",
              "name": "lockTimeReduction",
              "type": "uint16"
            },
            {
              "internalType": "bool",
              "name": "hasAutoCompound",
              "type": "bool"
            },
            {
              "internalType": "uint16",
              "name": "rarityMultiplier",
              "type": "uint16"
            },
            {
              "internalType": "uint16",
              "name": "level",
              "type": "uint16"
            },
            {
              "internalType": "uint8",
              "name": "activeSkillCount",
              "type": "uint8"
            }
          ],
          "internalType": "struct IEnhancedSmartStakingSkills.UserSkillProfile",
          "name": "profile",
          "type": "tuple"
        }
      ],
      "stateMutability": "view",
      "type": "function"
    },
    {
      "inputs": [
        {
          "internalType": "address",
          "name": "user",
          "type": "address"
        },
        {
          "internalType": "uint256",
          "name": "nftId",
          "type": "uint256"
        }
      ],
      "name": "isSkillActive",
      "outputs": [
        {
          "internalType": "bool",
          "name": "isActive",
          "type": "bool"
        }
      ],
      "stateMutability": "view",
      "type": "function"
    },
    {
      "inputs": [],
      "name": "marketplaceContract",
      "outputs": [
        {
          "internalType": "address",
          "name": "",
          "type": "address"
        }
      ],
      "stateMutability": "view",
      "type": "function"
    },
    {
      "inputs": [
        {
          "internalType": "address",
          "name": "user",
          "type": "address"
        },
        {
          "internalType": "uint256",
          "name": "nftId",
          "type": "uint256"
        },
        {
          "internalType": "enum IStakingIntegration.SkillType",
          "name": "skillType",
          "type": "uint8"
        },
        {
          "internalType": "uint16",
          "name": "effectValue",
          "type": "uint16"
        }
      ],
      "name": "notifySkillActivation",
      "outputs": [],
      "stateMutability": "nonpayable",
      "type": "function"
    },
    {
      "inputs": [
        {
          "internalType": "address",
          "name": "user",
          "type": "address"
        },
        {
          "internalType": "uint256",
          "name": "nftId",
          "type": "uint256"
        }
      ],
      "name": "notifySkillDeactivation",
      "outputs": [],
      "stateMutability": "nonpayable",
      "type": "function"
    },
    {
      "inputs": [],
      "name": "owner",
      "outputs": [
        {
          "internalType": "address",
          "name": "",
          "type": "address"
        }
      ],
      "stateMutability": "view",
      "type": "function"
    },
    {
      "inputs": [],
      "name": "renounceOwnership",
      "outputs": [],
      "stateMutability": "nonpayable",
      "type": "function"
    },
    {
      "inputs": [
        {
          "internalType": "address",
          "name": "_coreStaking",
          "type": "address"
        }
      ],
      "name": "setCoreStakingContract",
      "outputs": [],
      "stateMutability": "nonpayable",
      "type": "function"
    },
    {
      "inputs": [
        {
          "internalType": "address",
          "name": "_marketplace",
          "type": "address"
        }
      ],
      "name": "setMarketplaceContract",
      "outputs": [],
      "stateMutability": "nonpayable",
      "type": "function"
    },
    {
      "inputs": [
        {
          "internalType": "uint256",
          "name": "nftId",
          "type": "uint256"
        },
        {
          "internalType": "enum IEnhancedSmartStakingSkills.SkillRarity",
          "name": "rarity",
          "type": "uint8"
        }
      ],
      "name": "setSkillRarity",
      "outputs": [],
      "stateMutability": "nonpayable",
      "type": "function"
    },
    {
      "inputs": [
        {
          "internalType": "address",
          "name": "newOwner",
          "type": "address"
        }
      ],
      "name": "transferOwnership",
      "outputs": [],
      "stateMutability": "nonpayable",
      "type": "function"
    },
    {
      "inputs": [
        {
          "internalType": "enum IStakingIntegration.SkillType",
          "name": "skillType",
          "type": "uint8"
        },
        {
          "internalType": "uint16",
          "name": "newBoost",
          "type": "uint16"
        }
      ],
      "name": "updateSkillBoost",
      "outputs": [],
      "stateMutability": "nonpayable",
      "type": "function"
    }
  ],
  "bytecode": "0x608060405234610022576100116100ee565b60405161267461036c823961267490f35b5f80fd5b6100366100336100339290565b90565b61ffff1690565b634e487b7160e01b5f52602160045260245ffd5b6005111561005b57565b61003d565b9061006a82610051565b565b61003390610060565b9061007f9061006c565b5f5260205260405f2090565b9061ffff905b9181191691161790565b6100366100336100339261ffff1690565b906100bc6100336100c39261009b565b825461008b565b9055565b6011111561005b57565b9061006a826100c7565b610033906100d1565b9061007f906100db565b6100f66102a6565b61006a61011b61011b601061010b6064610026565b61012060089161011b5f84610075565b6100ac565b61013861012d6096610026565b61011b600184610075565b61015061014560c8610026565b61011b600284610075565b61016961015e61012c610026565b61011b600384610075565b6102386101776101f4610026565b916101878361011b600484610075565b6101905f610026565b9586916101b26007956101a78561011b5f8a6100e4565b61011b6001886100e4565b61021a6101c06103e8610026565b6101cf8161011b60028a6100e4565b6101e86101dd6107d0610026565b61011b60038a6100e4565b6101f78561011b60048a6100e4565b61020f61020460fa610026565b61011b60058a6100e4565b61011b6006886100e4565b6102326102286109c4610026565b61011b87806100e4565b846100e4565b6102478461011b6009846100e4565b6102568461011b600a846100e4565b6102658461011b600b846100e4565b6102748461011b600c846100e4565b6102838461011b600d846100e4565b6102928461011b600e846100e4565b6102a18461011b600f846100e4565b6100e4565b61006a8033610317565b610033905b6001600160a01b031690565b61003390546102b0565b906001600160a01b0390610091565b610033906102b5906001600160a01b031682565b610033906102da565b610033906102ee565b906103106100336100c3926102f7565b82546102cb565b61033b6103356103265f6102c1565b610330845f610300565b6102f7565b916102f7565b907f8be0079c531659141344cd1fd0a4f28419497f9722a3daafe3b4186f6b6457e061036660405190565b5f90a356fe60806040526004361015610011575f80fd5b5f3560e01c80631102610e146101405780631e26d5891461013b5780632e2dc84a1461013657806330c1d2e714610131578063313a19541461012c5780634411ac5f14610127578063549d5c771461012257806359ad71401461011d578063715018a61461011857806389257817146101135780638da5cb5b1461010e57806395e505d814610109578063bf37bb6a14610104578063d1bb5cf1146100ff578063d349e1d9146100fa578063dedd3430146100f5578063e7e75400146100f0578063eb97e4eb146100eb5763f2fde38b0361014557610909565b6108e2565b6107dc565b61076d565b610734565b61062d565b6105dc565b6104cd565b61047c565b610463565b61044b565b610417565b6103ce565b61039e565b61036e565b6102d6565b610293565b6101fc565b61018d565b5f80fd5b6001600160a01b031690565b90565b6001600160a01b0381165b0361014557565b9050359061017782610158565b565b90602082820312610145576101559161016a565b34610145576101a56101a0366004610179565b610a0e565b60405180805b0390f35b80610163565b90503590610177826101af565b6005111561014557565b90503590610177826101c2565b9190604083820312610145576101559060206101f582866101b5565b94016101cc565b34610145576101a561020f3660046101d9565b90610bab565b909182601f830112156101455781359167ffffffffffffffff831161014557602001926020830284011161014557565b909160408284031261014557813567ffffffffffffffff8111610145578361026e918401610215565b929093602082013567ffffffffffffffff81116101455761028f9201610215565b9091565b34610145576101a56102a6366004610245565b92919091610d5b565b9190604083820312610145576101559060206102cb828661016a565b94016101b5565b9052565b34610145576101ab6102f26102ec3660046102af565b90610d71565b60405191829182901515815260200190565b6011111561014557565b9050359061017782610304565b61ffff8116610163565b905035906101778261031b565b60808183031261014557610346828261016a565b9261015561035784602085016101b5565b936060610367826040870161030e565b9401610325565b34610145576101a5610381366004610332565b929190916115d5565b90602082820312610145576101559161030e565b34610145576101ab6103b96103b436600461038a565b6115e1565b6040519182918261ffff909116815260200190565b34610145576101a56103e1366004610179565b61161d565b61ffff909116815260608101939261017792909160409161040d905b61ffff166020830152565b019061ffff169052565b34610145576101ab61043261042d366004610179565b611626565b604051919391938493846103e6565b5f91031261014557565b346101455761045b366004610441565b6101a56116ba565b34610145576101a56104763660046102af565b9061180d565b346101455761048c366004610441565b6101ab610497611817565b604051918291826001600160a01b03909116815260200190565b919060408382031261014557610155906020610367828661030e565b34610145576101a56104e03660046104b1565b906118b2565b0190565b9061050a6105036104f9845190565b8084529260200190565b9260200190565b905f5b81811061051a5750505090565b9091926105376105306001928651815260200190565b9460200190565b92910161050d565b90610155906101008061056061012084015f8701518582035f8701526104ea565b60208087015161ffff16908501529460408181015161ffff169085015260608181015161ffff169085015260808181015161ffff169085015260a08181015115159085015260c08181015161ffff169085015260e08181015161ffff1690850152015160ff16910152565b60208082526101559291019061053f565b34610145576101ab6105f76105f2366004610179565b611b87565b604051918291826105cb565b610155916008021c6001600160a01b031690565b906101559154610603565b6101555f6001610617565b346101455761063d366004610441565b6101ab610497610622565b634e487b7160e01b5f52602160045260245ffd5b6011111561066657565b610648565b906101778261065c565b6101559061066b565b6102d290610675565b906104e68160209361067e565b906106a36105036104f9845190565b905f5b8181106106b35750505090565b9091926106c66105306001928651610687565b9291016106a6565b906106dd6105036104f9845190565b905f5b8181106106ed5750505090565b909192610707610530600192865161ffff16815260200190565b9291016106e0565b604080825261015593919261072691840190610694565b9160208184039101526106ce565b3461014557610744366004610441565b61074c611c50565b906101ab61075960405190565b9283928361070f565b6101555f6002610617565b346101455761077d366004610441565b6101ab610497610762565b9060208282031261014557610155916101b5565b6005111561066657565b906101778261079c565b610155906107a6565b6102d2906107b0565b91602061017792949361040d60408201965f8301906107b9565b34610145576107f46107ef366004610788565b611cf5565b906101ab61080160405190565b928392836107c2565b80518252610177919060e090819061082a6020820151602086019061067e565b61083c604082015160408601906107b9565b60608181015161ffff169085015260808181015161ffff169085015260a08181015115159085015260c08181015167ffffffffffffffff1690850152015167ffffffffffffffff16910152565b906104e6816101009361080a565b906108a66105036104f9845190565b905f5b8181106108b65750505090565b9091926108c96105306001928651610889565b9291016108a9565b602080825261015592910190610897565b34610145576101ab6108fd6108f8366004610179565b611dec565b604051918291826108d1565b34610145576101a561091c366004610179565b611fb7565b6101779061092d612010565b6109e3565b6101496101556101559290565b61015590610932565b1561094f57565b60405162461bcd60e51b815260206004820152600f60248201526e496e76616c6964206164647265737360881b604482015280606481015b0390fd5b906001600160a01b03905b9181191691161790565b610149610155610155926001600160a01b031690565b610155906109a0565b610155906109b6565b906109d86101556109df926109bf565b825461098b565b9055565b61017790610a076109f66101495f61093f565b6001600160a01b0383161415610948565b60016109c8565b61017790610921565b61015590610149565b6101559054610a17565b15610a3157565b60405162461bcd60e51b815260206004820152601060248201526f4f6e6c79206d61726b6574706c61636560801b6044820152606490fd5b9061017791610a85610a7e6101496001610a20565b3314610a2a565b610b2a565b15610a9157565b60405162461bcd60e51b815260206004820152600e60248201526d496e76616c69642072617269747960901b6044820152606490fd5b6101556101556101559290565b90610ade90610ac7565b5f5260205260405f2090565b9060ff90610996565b90610b036101556109df926107b0565b8254610aea565b90610ade906107b0565b610155905b61ffff1690565b6101559054610b14565b7fe4c060b5d1855b8343036624828df128ad5b506efec729de52efe055fcf2085d90610b69610b5960046107a6565b610b62856107a6565b1115610a8a565b610b7d83610b78836006610ad4565b610af3565b610b99610b93610b8e856008610b0a565b610b20565b91610ac7565b92610ba661080160405190565b0390a2565b9061017791610a69565b90610177939291610bcc610a7e6101496001610a20565b610c4c565b15610bd857565b60405162461bcd60e51b815260206004820152600f60248201526e098cadccee8d040dad2e6dac2e8c6d608b1b6044820152606490fd5b634e487b7160e01b5f52603260045260245ffd5b9190811015610c33576020020190565b610c0f565b35610155816101c2565b35610155816101af565b9392908093610c5c838614610bd1565b610c655f610ac7565b855b811015610d5257610d4b81867fe4c060b5d1855b8343036624828df128ad5b506efec729de52efe055fcf2085d8a610d35610d2f610cca868c610d29610cfb838f610d06610c679f610cca818f80610ce2610ccf610cca610ce7978e8096610c23565b610c38565b610b62610cdc60046107a6565b916107a6565b610c23565b610b788c610d00610cfb8787600694610c23565b610c42565b90610ad4565b610d23610b8e8d610d1d610cca868a600894610c23565b90610b0a565b99610c23565b97610c23565b93610ac7565b92610d4261080160405190565b0390a260010190565b9050610c65565b50945050505050565b90610177939291610bb5565b90610ade906109bf565b90610d8b61015561015593610d835f90565b506003610d67565b61203a565b90610177939291610da7610a7e6101496001610a20565b6111f7565b15610db357565b60405162461bcd60e51b8152602060048201526012602482015271496e76616c696420736b696c6c207479706560701b6044820152606490fd5b15610df457565b60405162461bcd60e51b815260206004820152601460248201527f536b696c6c20616c7265616479206163746976650000000000000000000000006044820152606490fd5b610e466101556101559290565b60ff1690565b610155600a610e39565b6101556101556101559260ff1690565b15610e6d57565b60405162461bcd60e51b815260206004820152601260248201527113585e081cdada5b1b1cc81c995858da195960721b6044820152606490fd5b61015590610e46565b6101559054610ea7565b610b196101556101559290565b90610ade90610675565b90610b036101556109df92610675565b9062ffff009060081b610996565b610b196101556101559261ffff1690565b90610f106101556109df92610eef565b8254610ee1565b610f246101556101559290565b67ffffffffffffffff1690565b906affffffffffffffff0000009060181b610996565b610f246101556101559267ffffffffffffffff1690565b90610f6e6101556109df92610f47565b8254610f31565b9072ffffffffffffffff00000000000000000000009060581b610996565b90610fa36101556109df92610f47565b8254610f75565b9060ff60981b9060981b610996565b90610fc96101556109df92151590565b8254610faa565b634e487b7160e01b5f52601160045260245ffd5b610ff59061ffff165b9161ffff1690565b019061ffff821161100257565b610fd0565b9061ffff90610996565b906110216101556109df92610eef565b8254611007565b9060ff60681b9060681b610996565b610e466101556101559260ff1690565b906110576101556109df92611037565b8254611028565b6101559060481c610b19565b610155905461105e565b906affff0000000000000000009060481b610996565b9061109a6101556109df92610eef565b8254611074565b6101556101556101559261ffff1690565b8181029291811591840414171561100257565b634e487b7160e01b5f52601260045260245ffd5b906110e3565b9190565b9081156110ee570490565b6110c5565b9068ff00000000000000009060401b610996565b906111176101556109df92151590565b82546110f3565b6101559060301c610b19565b610155905461111e565b9067ffff0000000000009060301b610996565b906111576101556109df92610eef565b8254611134565b6101559060201c610b19565b610155905461115e565b9065ffff000000009060201b610996565b906111956101556109df92610eef565b8254611174565b6101559060101c610b19565b610155905461119c565b9063ffff00009060101b610996565b906111d16101556109df92610eef565b82546111b2565b60409061040d610177949695939661040260608401985f85019061067e565b929190916112176112075f61066b565b6112108461066b565b1415610dac565b60039161123a61123561123186610d8b6101558a89610d67565b1590565b610ded565b611248610155866004610d67565b61127961126061125b6101558988610d67565b61205a565b6112736110df61126e610e4c565b610e56565b10610e66565b61128f8561128a6101558988610d67565b612073565b506006926112a56112a08786610ad4565b610eb0565b6112b1610cdc5f6107a6565b146115c2575b6112c05f610eba565b61ffff821611156115ad57925b856112d9886005610d67565b906112e391610ad4565b916112ee8484610ed1565b6112f88584610f00565b61130142610f17565b61130b9084610f5e565b6113145f610f17565b61131e9084610f93565b6001928361132b91610fb9565b84836113378985610ad4565b61134090610eb0565b61134b906008610b0a565b61135490610b20565b92018161136082610b20565b9061136a91610fe4565b6113749082611011565b61137e8a89610d67565b6113879061205a565b61139090610e39565b61139a9082611047565b6113a38161106a565b6113ac5f610eba565b9061ffff16149761149b95611488956114366114316114216114829861141b7fcc2690f10d3d819287fb2ccf72d49018cd5fb1e545873e633c503ac034930d4d9f61147c9a61141591611595575b611406610b198c61106a565b61ffff851611611586576110a1565b916110a1565b906110b2565b61142b6064610ac7565b906110d9565b610eba565b926114408361066b565b6114498b61066b565b1490811561156a575b8115611550575b50156114a0575050611476610b8e91611471846111a8565b610fe4565b826111c1565b976109bf565b95610ac7565b9561149260405190565b938493846111d8565b0390a3565b6114a99061066b565b6114b28961066b565b148015611536575b156114d657506114d0610b8e916114718461116a565b82611185565b6114e0600561066b565b6114e98961066b565b0361150557506114ff610b8e916114718461112a565b82611147565b9050611511600461066b565b61151a8861066b565b14611526575b50610b20565b6115309082611107565b5f611520565b50611541600761066b565b61154a8961066b565b146114ba565b61155a915061066b565b6115638a61066b565b145f611459565b9050611576600261066b565b61157f8b61066b565b1490611452565b611590848c61108a565b6110a1565b6115a86115a26064610eba565b8c61108a565b6113fa565b506115bc610b8e836007610ec7565b926112cd565b6115d05f610b788887610ad4565b6112b7565b90610177939291610d90565b610b8e610155916115ef5f90565b506007610ec7565b61017790611603612010565b610177906116166109f66101495f61093f565b60026109c8565b610177906115f7565b61163e6101556001926116365f90565b506004610d67565b0190611649826111a8565b9081926116558161106a565b611661610fed5f610eba565b03611687575061015561143161142161167a6064610eba565b61141b61141582976110a1565b6114316114216116996101559361106a565b61167a565b6116a6612010565b6101776101776116b55f61093f565b61208b565b61017761169e565b90610177916116d7610a7e6101496001610a20565b611735565b156116e357565b60405162461bcd60e51b815260206004820152601060248201526f536b696c6c206e6f742061637469766560801b6044820152606490fd5b91602061017792949361040d60408201965f83019061067e565b9061175061174b82610d8b610155866003610d67565b6116dc565b7f709f86ffdc2166bd4851014cbf752901db2aca80b80ee474cbf2328540bcf7df61178861015583611783866005610d67565b610ad4565b926117c95f61179686610eb0565b956117ae866117a9610155876003610d67565b6120e1565b50016117ba5f82610fb9565b6117c342610f17565b90610f93565b6117d2816120f9565b6117f7610d2f6117f160016117eb610155866004610d67565b01610b20565b926109bf565b9361149b61180460405190565b9283928361171b565b90610177916116c2565b6101555f610a20565b906101779161182d612010565b61186f565b1561183957565b60405162461bcd60e51b815260206004820152600e60248201526d084dedee6e840e8dede40d0d2ced60931b6044820152606490fd5b906118ad6101779261188c6118835f61066b565b6112108361066b565b6118a661189a6109c4610eba565b61ffff85161115611832565b6007610ec7565b611011565b9061017791611820565b634e487b7160e01b5f52604160045260245ffd5b90601f01601f1916810190811067ffffffffffffffff8211176118f257604052565b6118bc565b9061017761190460405190565b92836118d0565b6101556101206118f7565b61191e61190b565b9060608252602080808080808080808a015f8152015f5b8152015f8152015f8152015f8152015f8152015f8152015f905250565b610155611916565b6101559081565b610155905461195a565b9061198461197a6104f9845490565b925f5260205f2090565b905f5b8181106119945750505090565b9091926119b86119b16001926119a987611961565b815260200190565b9460010190565b929101611987565b906101559161196b565b906101776119e4926119db60405190565b938480926119c0565b03836118d0565b6101559060401c610e46565b61015590546119eb565b6101559060581c610b19565b6101559054611a01565b6101559060681c610e46565b6101559054611a17565b90610177611b026001611a3e61190b565b94611a4f611a4b826119ca565b8752565b611a68611a5d838301610b20565b61ffff166020880152565b611a81611a768383016111a8565b61ffff166040880152565b611a9a611a8f83830161116a565b61ffff166060880152565b611ab3611aa883830161112a565b61ffff166080880152565b611aca611ac18383016119f7565b151560a0880152565b611ae3611ad883830161106a565b61ffff1660c0880152565b611afc611af1838301611a0d565b61ffff1660e0880152565b01611a23565b60ff16610100840152565b61015590611a2d565b67ffffffffffffffff81116118f25760208091020190565b90611b40611b3b83611b16565b6118f7565b918252565b369037565b90610177611b60611b5a84611b2e565b93611b16565b601f190160208401611b45565b90611b76825190565b811015610c33576020809102010190565b90611b90611952565b50611ba4611b9f836004610d67565b611b0d565b916003611bb861125b610155846003610d67565b92611bc284611b4a565b8552611bcd5f610ac7565b845b811015611c1357611c0c81611c06611bf6611bcf94611bf16101558a8a610d67565b61239f565b611c03835f8c0151611b6d565b52565b60010190565b9050611bcd565b5092505050565b6101556011610e39565b6001610155910160ff1690565b611c416101556101559260ff1690565b61066b565b906102d29061066b565b611c58611c1a565b611c6181610e56565b611c6a81611b4a565b90611c758291611b4a565b938490611c815f610e39565b60ff86165b60ff82161015611cec57611ce581611ce0611cc5610b8e611ca9611c8696611c31565b6118a681611cc08d611cba89610e56565b90611b6d565b611c46565b611cd7611cd184610e56565b8c611b6d565b9061ffff169052565b611c24565b9050611c81565b50925092509250565b6112a0611d0b91611d035f90565b506006610ad4565b90610155610b8e836008610b0a565b6101556101006118f7565b611d2d611d1a565b905f825260208080808080808089015f611935565b610155611d25565b5f5b828110611d5857505050565b602090611d63611d42565b8184015201611d4c565b90610177611d7d611b5a84611b2e565b601f190160208401611d4a565b6101559060081c610b19565b6101559054611d8a565b6101559060981c610e46565b6101559054611da0565b6101559060181c610f24565b6101559054611db6565b6101559060581c610f24565b6101559054611dcc565b906102d2906107a6565b90600391611e0161125b610155836003610d67565b92611e0b84611d6d565b928390611e175f610ac7565b86811015611f1e5780611e2a8686610d67565b90611e349161239f565b611e3f816006610ad4565b611e4890610eb0565b81611e54886005610d67565b90611e5e91610ad4565b611e6781610eb0565b91611e7182611d96565b611e7c826008610b0a565b611e8590610b20565b90611e8f84611dac565b92611e9985611dc2565b94611ea390611dd8565b95611eac611d1a565b978852611ebc9060208901611c46565b611ec99060408801611de2565b61ffff16606086015261ffff166080850152151560a084015267ffffffffffffffff1660c083015267ffffffffffffffff1660e0820152611f0a8288611b6d565b52611f158187611b6d565b50600101611e17565b50935093505050565b61017790611f33612010565b611f93565b15611f3f57565b60405162461bcd60e51b815260206004820152602660248201527f4f776e61626c653a206e6577206f776e657220697320746865207a65726f206160448201526564647265737360d01b6064820152608490fd5b610177906116b5611fa66101495f61093f565b6001600160a01b0383161415611f38565b61017790611f27565b15611fc757565b60405162461bcd60e51b815280610987600482016020808252818101527f4f776e61626c653a2063616c6c6572206973206e6f7420746865206f776e6572604082015260600190565b61017761201b611817565b61203461202733610149565b916001600160a01b031690565b14611fc0565b906120556110df5f6101559461204d5f90565b500192610ac7565b6123c2565b61206e5f610155926120695f90565b500190565b6123f0565b906120866110df5f6101559461204d5f90565b61249a565b6120af6120a961209a5f610a20565b6120a4845f6109c8565b6109bf565b916109bf565b907f8be0079c531659141344cd1fd0a4f28419497f9722a3daafe3b4186f6b6457e06120da60405190565b808061149b565b906120f46110df5f6101559461204d5f90565b612564565b90600461210a610155846004610d67565b926121145f610eba565b9161214160018601936121278186611011565b61213181866111c1565b61213b8186611185565b84611147565b61214b5f84611107565b600361216e61216861216361125b6101558786610d67565b610e39565b85611047565b60649561218461217e6064610eba565b8661108a565b61219461125b6101558685610d67565b9561219e5f610ac7565b875b81101561238b5761229481611c068961228e8d8b61223c6121cc6121a099611bf16101558f8690610d67565b926121e06101558561178360059687610d67565b9561221d6114315f6121ff610b8e6008610d1d6112a060069c8d610ad4565b99019361142b610b9361221461159088611d96565b61141b8d6110a1565b9661222a610b198361106a565b61ffff82161161237b575b5050610eb0565b906001926122498461066b565b6122528461066b565b148015612361575b8015612348575b1561229b57505050612282818a0161227c85611471836111a8565b906111c1565b88019161147183610b20565b90611011565b905061219e565b6122a49061066b565b6122ad8361066b565b14801561232e575b156122da5750506122d5818a016122cf856114718361116a565b90611185565b612282565b6122e39061066b565b6122ec8261066b565b0361230b57506122d5818a01612305856114718361112a565b90611147565b61231d6123178d61066b565b9161066b565b036122d5576122d581808b01611107565b50612339600761066b565b6123428361066b565b146122b5565b506123528d61066b565b61235b8461066b565b14612261565b5061236c600261066b565b6123758461066b565b1461225a565b6123849161108a565b8f5f612235565b509650505050505050565b61015590610ac7565b610155916123b25f6123b7936120695f90565b612627565b612396565b90610ade565b6123df9160016123da926123d35f90565b50016123bc565b611961565b6123eb6110df5f610ac7565b141590565b5f610155916123fc5f90565b50015490565b8054821015610c335761241a6001915f5260205f2090565b910201905f90565b915f1960089290920291821b911b610996565b91906124446101556109df9390565b908354612422565b90815491680100000000000000008310156118f2578261247491600161017795018155612402565b90612435565b905f1990610996565b906124936101556109df92610ac7565b825461247a565b6124a761123183836123c2565b156124d9576124d4916124cf9060016124c8846124c4848261244c565b5490565b93016123bc565b612483565b600190565b50505f90565b9190820391821161100257565b610155916008021c81565b9061015591546124ec565b634e487b7160e01b5f52603160045260245ffd5b610177915f91612435565b80548015612543575f19019061254061253a8383612402565b90612516565b55565b612502565b91906124446101556109df93610ac7565b610177915f91612548565b906125756123da82600185016123bc565b61257e5f610ac7565b8114612620576125e2610155925f926125d7956125dc60019788936125ab6125a586610ac7565b826124df565b888501916125c96125ba845490565b6125c389610ac7565b906124df565b8281036125e7575b50505090565b612521565b016123bc565b612559565b612474612610612618946126076126016124cf9589612402565b906124f7565b92839188612402565b8888016123bc565b5f80806125d1565b5050505f90565b610155915f612601926126375f90565b500161240256fea26469706673582212202e5de0b95067e3cd43f49dcaeb84b73ee42d65a9208d4b860c98b7417af91ffe64736f6c634300081c0033",
  "linkReferences": {},
  "deployedLinkReferences": {}
}