{
  "_format": "hh-sol-artifact-1",
  "contractName": "EnhancedSmartStakingView",
  "sourceName": "contracts/SmartStaking/EnhancedSmartStakingView.sol",
  "abi": [
    {
      "inputs": [
        {
          "internalType": "address",
          "name": "_stakingContract",
          "type": "address"
        }
      ],
      "stateMutability": "nonpayable",
      "type": "constructor"
    },
    {
      "anonymous": false,
      "inputs": [
        {
          "indexed": true,
          "internalType": "address",
          "name": "newAddress",
          "type": "address"
        }
      ],
      "name": "StakingContractUpdated",
      "type": "event"
    },
    {
      "inputs": [
        {
          "internalType": "address",
          "name": "user",
          "type": "address"
        }
      ],
      "name": "getActiveSkillsWithDetails",
      "outputs": [
        {
          "components": [
            {
              "internalType": "enum IStakingIntegration.SkillType",
              "name": "skillType",
              "type": "uint8"
            },
            {
              "internalType": "uint16",
              "name": "effectValue",
              "type": "uint16"
            },
            {
              "internalType": "enum IStakingIntegration.Rarity",
              "name": "rarity",
              "type": "uint8"
            },
            {
              "internalType": "uint64",
              "name": "activatedAt",
              "type": "uint64"
            },
            {
              "internalType": "uint64",
              "name": "cooldownEnds",
              "type": "uint64"
            },
            {
              "internalType": "bool",
              "name": "isActive",
              "type": "bool"
            },
            {
              "internalType": "uint256",
              "name": "rarityBoost",
              "type": "uint256"
            }
          ],
          "internalType": "struct EnhancedSmartStakingView.SkillDetails[]",
          "name": "",
          "type": "tuple[]"
        }
      ],
      "stateMutability": "view",
      "type": "function"
    },
    {
      "inputs": [
        {
          "internalType": "uint256",
          "name": "page",
          "type": "uint256"
        },
        {
          "internalType": "uint256",
          "name": "pageSize",
          "type": "uint256"
        }
      ],
      "name": "getAutoCompoundUsersPage",
      "outputs": [
        {
          "internalType": "address[]",
          "name": "users",
          "type": "address[]"
        },
        {
          "internalType": "uint256",
          "name": "totalPages",
          "type": "uint256"
        },
        {
          "internalType": "uint256",
          "name": "currentPage",
          "type": "uint256"
        }
      ],
      "stateMutability": "view",
      "type": "function"
    },
    {
      "inputs": [],
      "name": "getAvailableSkillsConfiguration",
      "outputs": [
        {
          "components": [
            {
              "internalType": "enum IStakingIntegration.SkillType",
              "name": "skillType",
              "type": "uint8"
            },
            {
              "internalType": "bool",
              "name": "enabled",
              "type": "bool"
            },
            {
              "internalType": "uint16",
              "name": "effectValue",
              "type": "uint16"
            },
            {
              "internalType": "string",
              "name": "description",
              "type": "string"
            }
          ],
          "internalType": "struct EnhancedSmartStakingView.SkillConfig[]",
          "name": "",
          "type": "tuple[]"
        }
      ],
      "stateMutability": "view",
      "type": "function"
    },
    {
      "inputs": [
        {
          "internalType": "uint256",
          "name": "nftId",
          "type": "uint256"
        }
      ],
      "name": "getSkillRarity",
      "outputs": [
        {
          "internalType": "enum IStakingIntegration.Rarity",
          "name": "rarity",
          "type": "uint8"
        },
        {
          "internalType": "uint256",
          "name": "rarityBoost",
          "type": "uint256"
        },
        {
          "internalType": "uint8",
          "name": "stars",
          "type": "uint8"
        }
      ],
      "stateMutability": "view",
      "type": "function"
    },
    {
      "inputs": [
        {
          "internalType": "address",
          "name": "user",
          "type": "address"
        }
      ],
      "name": "getTotalDeposit",
      "outputs": [
        {
          "internalType": "uint256",
          "name": "",
          "type": "uint256"
        }
      ],
      "stateMutability": "view",
      "type": "function"
    },
    {
      "inputs": [
        {
          "internalType": "address",
          "name": "user",
          "type": "address"
        }
      ],
      "name": "getUserDeposits",
      "outputs": [
        {
          "components": [
            {
              "internalType": "uint256",
              "name": "totalDeposited",
              "type": "uint256"
            },
            {
              "internalType": "uint256",
              "name": "totalRewards",
              "type": "uint256"
            },
            {
              "internalType": "uint256",
              "name": "depositCount",
              "type": "uint256"
            },
            {
              "internalType": "uint256",
              "name": "lastWithdrawTime",
              "type": "uint256"
            }
          ],
          "internalType": "struct EnhancedSmartStakingView.UserDepositInfo",
          "name": "",
          "type": "tuple"
        }
      ],
      "stateMutability": "view",
      "type": "function"
    },
    {
      "inputs": [
        {
          "internalType": "address",
          "name": "user",
          "type": "address"
        }
      ],
      "name": "getUserDetailedStats",
      "outputs": [
        {
          "components": [
            {
              "internalType": "uint256",
              "name": "totalDeposited",
              "type": "uint256"
            },
            {
              "internalType": "uint256",
              "name": "totalRewards",
              "type": "uint256"
            },
            {
              "internalType": "uint256",
              "name": "boostedRewards",
              "type": "uint256"
            },
            {
              "internalType": "uint256",
              "name": "boostedRewardsWithRarity",
              "type": "uint256"
            },
            {
              "internalType": "uint256",
              "name": "depositCount",
              "type": "uint256"
            },
            {
              "internalType": "uint256",
              "name": "lastWithdrawTime",
              "type": "uint256"
            },
            {
              "internalType": "uint16",
              "name": "userLevel",
              "type": "uint16"
            },
            {
              "internalType": "uint256",
              "name": "userXP",
              "type": "uint256"
            },
            {
              "internalType": "uint8",
              "name": "maxActiveSkills",
              "type": "uint8"
            },
            {
              "internalType": "uint8",
              "name": "activeSkillsCount",
              "type": "uint8"
            },
            {
              "internalType": "uint16",
              "name": "stakingBoostTotal",
              "type": "uint16"
            },
            {
              "internalType": "uint16",
              "name": "feeDiscountTotal",
              "type": "uint16"
            },
            {
              "internalType": "bool",
              "name": "hasAutoCompound",
              "type": "bool"
            }
          ],
          "internalType": "struct EnhancedSmartStakingView.UserStats",
          "name": "",
          "type": "tuple"
        }
      ],
      "stateMutability": "view",
      "type": "function"
    },
    {
      "inputs": [
        {
          "internalType": "address",
          "name": "user",
          "type": "address"
        }
      ],
      "name": "getUserInfoWithSkills",
      "outputs": [
        {
          "components": [
            {
              "internalType": "uint256",
              "name": "totalDeposited",
              "type": "uint256"
            },
            {
              "internalType": "uint256",
              "name": "totalRewards",
              "type": "uint256"
            },
            {
              "internalType": "uint256",
              "name": "depositCount",
              "type": "uint256"
            },
            {
              "internalType": "uint256",
              "name": "lastWithdrawTime",
              "type": "uint256"
            },
            {
              "components": [
                {
                  "internalType": "uint256[]",
                  "name": "activeNFTIds",
                  "type": "uint256[]"
                },
                {
                  "internalType": "uint256",
                  "name": "totalXP",
                  "type": "uint256"
                },
                {
                  "internalType": "uint16",
                  "name": "level",
                  "type": "uint16"
                },
                {
                  "internalType": "uint8",
                  "name": "maxActiveSkills",
                  "type": "uint8"
                },
                {
                  "internalType": "uint16",
                  "name": "stakingBoostTotal",
                  "type": "uint16"
                },
                {
                  "internalType": "uint16",
                  "name": "feeDiscountTotal",
                  "type": "uint16"
                },
                {
                  "internalType": "bool",
                  "name": "hasAutoCompound",
                  "type": "bool"
                }
              ],
              "internalType": "struct IStakingIntegration.UserSkillProfile",
              "name": "skillProfile",
              "type": "tuple"
            },
            {
              "components": [
                {
                  "internalType": "enum IStakingIntegration.SkillType",
                  "name": "skillType",
                  "type": "uint8"
                },
                {
                  "internalType": "uint16",
                  "name": "effectValue",
                  "type": "uint16"
                },
                {
                  "internalType": "enum IStakingIntegration.Rarity",
                  "name": "rarity",
                  "type": "uint8"
                },
                {
                  "internalType": "uint64",
                  "name": "activatedAt",
                  "type": "uint64"
                },
                {
                  "internalType": "uint64",
                  "name": "cooldownEnds",
                  "type": "uint64"
                },
                {
                  "internalType": "bool",
                  "name": "isActive",
                  "type": "bool"
                }
              ],
              "internalType": "struct IStakingIntegration.NFTSkill[]",
              "name": "activeSkills",
              "type": "tuple[]"
            }
          ],
          "internalType": "struct EnhancedSmartStakingView.UserInfoWithSkills",
          "name": "",
          "type": "tuple"
        }
      ],
      "stateMutability": "view",
      "type": "function"
    },
    {
      "inputs": [
        {
          "internalType": "address",
          "name": "_stakingContract",
          "type": "address"
        }
      ],
      "name": "setStakingContract",
      "outputs": [],
      "stateMutability": "nonpayable",
      "type": "function"
    },
    {
      "inputs": [],
      "name": "stakingContract",
      "outputs": [
        {
          "internalType": "contract IStakingViewData",
          "name": "",
          "type": "address"
        }
      ],
      "stateMutability": "view",
      "type": "function"
    }
  ],
  "bytecode": "0x60806040523461002a576100196100146100bf565b610195565b6040516120b56101c882396120b590f35b5f80fd5b634e487b7160e01b5f52604160045260245ffd5b90601f01601f191681019081106001600160401b0382111761006357604052565b61002e565b9061007c61007560405190565b9283610042565b565b6001600160a01b031690565b90565b6001600160a01b0381160361002a57565b9050519061007c8261008d565b9060208282031261002a5761008a9161009e565b61008a61227d803803806100d281610068565b9283398101906100ab565b61007e61008a61008a9290565b61008a906100dd565b156100fa57565b60405162461bcd60e51b815260206004820152601860248201527f496e76616c6964207374616b696e6720636f6e747261637400000000000000006044820152606490fd5b61008a9061007e906001600160a01b031682565b61008a9061013f565b61008a90610153565b9061017561008a6101919261015c565b82546001600160a01b0319166001600160a01b03919091161790565b9055565b6101c161007c916101bc6101ab61007e5f6100ea565b6001600160a01b03831614156100f3565b61015c565b5f61016556fe60806040526004361015610011575f80fd5b5f3560e01c806301d9b842146100b057806316e1a0fe146100ab5780631fc8ee5e146100a65780632a5bf6d2146100a1578063857184d11461009c57806387a7b7f6146100975780639dd373b914610092578063e7e754001461008d578063eb97e4eb146100885763ee99205c036100b557610904565b610873565b610780565b610720565b6106f9565b610607565b6105e0565b610572565b6104a2565b61022f565b5f80fd5b5f9103126100b557565b634e487b7160e01b5f52602160045260245ffd5b601111156100e157565b6100c3565b906100f0826100d7565b565b6100fb906100e6565b90565b610107906100f2565b9052565b5f5b83811061011c5750505f910152565b818101518382015260200161010d565b61014d61015660209361016093610141815190565b80835293849260200190565b9586910161010b565b601f01601f191690565b0190565b6100fb916060608082019261017f5f8201515f8501906100fe565b60208181015115159084015260408181015161ffff1690840152015190606081840391015261012c565b906100fb91610164565b906101c96101bf835190565b8083529160200190565b90816101db6020830284019460200190565b925f915b8383106101ee57505050505090565b9091929394602061021161020a838560019503875289516101a9565b9760200190565b93019301919392906101df565b60208082526100fb929101906101b3565b346100b55761023f3660046100b9565b61025661024a610bc6565b6040519182918261021e565b0390f35b6001600160a01b031690565b6001600160a01b0381165b036100b557565b905035906100f082610266565b906020828203126100b5576100fb91610278565b906102b96102b26102a8845190565b8084529260200190565b9260200190565b905f5b8181106102c95750505090565b9091926102e66102df6001928651815260200190565b9460200190565b9291016102bc565b906100fb9060c08061030d60e084015f8701518582035f870152610299565b9461031d60208201516020860152565b60408181015161ffff169085015260608181015160ff169085015260808181015161ffff169085015260a08181015161ffff16908501525b01511515910152565b600511156100e157565b906100f08261035e565b6100fb90610368565b61010790610372565b9060a0806100f09361039c5f8201515f8601906100fe565b60208181015161ffff16908501526103bc6040820151604086019061037b565b60608181015167ffffffffffffffff169085015260808181015167ffffffffffffffff1690850152610355565b906101608160c093610384565b906104056102b26102a8845190565b905f5b8181106104155750505090565b9091926104286102df60019286516103e9565b929101610408565b805182526100fb9160a061048060c0830161045060208601516020860152565b61045f60408601516040860152565b61046e60608601516060860152565b608085015184820360808601526102ee565b9201519060a08184039101526103f6565b60208082526100fb92910190610430565b346100b5576102566104bd6104b8366004610285565b6110dc565b60405191829182610491565b80610271565b905035906100f0826104c9565b91906040838203126100b5576100fb9060206104f882866104cf565b94016104cf565b9061050e6102b26102a8845190565b905f5b81811061051e5750505090565b90919261053d6102df60019286516001600160a01b0316815260200190565b929101610511565b60409061056e6105666100f09597969460608401908482035f8601526104ff565b966020830152565b0152565b346100b55761025661058e6105883660046104dc565b9061140e565b60405191939193849384610545565b805182526100f0919060609081906105ba60208201516020860152565b6105c960408201516040860152565b0151910152565b6080810192916100f0919061059d565b346100b5576102566105fb6105f6366004610285565b6115a2565b604051918291826105d0565b346100b55761025661062261061d366004610285565b61164c565b6040519182918290815260200190565b805182526100f0919061018090819061065060208201516020860152565b61065f60408201516040860152565b61066e60608201516060860152565b61067d60808201516080860152565b61068c60a082015160a0860152565b60c08181015161ffff16908501526106a960e082015160e0860152565b6101008181015160ff16908501526101208181015160ff16908501526101408181015161ffff16908501526101608181015161ffff1690850152610355565b6101a0810192916100f09190610632565b346100b55761025661071461070f366004610285565b611702565b604051918291826106e8565b346100b557610738610733366004610285565b611a83565b604051005b906020828203126100b5576100fb916104cf565b6040906107776100f0949695939661077060608401985f85019061037b565b6020830152565b019060ff169052565b346100b55761025661079b61079636600461073d565b611afc565b60405191939193849384610751565b9060c0806100f0936107c25f8201515f8601906100fe565b60208181015161ffff16908501526107e26040820151604086019061037b565b60608181015167ffffffffffffffff169085015260808181015167ffffffffffffffff169085015260a0818101511515908501526105c9565b906101608160e0936107aa565b906108376102b26102a8845190565b905f5b8181106108475750505090565b90919261085a6102df600192865161081b565b92910161083a565b60208082526100fb92910190610828565b346100b55761025661088e610889366004610285565b611c0c565b60405191829182610862565b6100fb916008021c6001600160a01b031690565b906100fb915461089a565b6100fb5f806108ae565b61025a6100fb6100fb926001600160a01b031690565b6100fb906108c3565b6100fb906108d9565b610107906108e2565b6020810192916100f091906108eb565b346100b5576109143660046100b9565b61025661091f6108b9565b604051918291826108f4565b6100fb6100fb6100fb9290565b634e487b7160e01b5f52604160045260245ffd5b90601f01601f1916810190811067ffffffffffffffff82111761096e57604052565b610938565b906100f061098060405190565b928361094c565b67ffffffffffffffff811161096e5760208091020190565b906109b16109ac83610987565b610973565b918252565b6100fb6080610973565b6109c86109b6565b905f8252602080808085015f8152015f5b8152016060905250565b6100fb6109c0565b5f5b8281106109f957505050565b602090610a046109e3565b81840152016109ed565b906100f0610a24610a1e8461099f565b93610987565b601f1901602084016109eb565b67ffffffffffffffff811161096e57602090601f01601f19160190565b906109b16109ac83610a31565b610a656007610a4e565b662b35252041505960c81b602082015290565b6100fb610a5b565b634e487b7160e01b5f52603260045260245ffd5b90610a9d825190565b811015610aae576020809102010190565b610a80565b610abd6008610a4e565b672b3130252041505960c01b602082015290565b6100fb610ab3565b610ae36008610a4e565b672b3230252041505960c01b602082015290565b6100fb610ad9565b610b096015610a4e565b7f4175746f6d6174696320636f6d706f756e64696e670000000000000000000000602082015290565b6100fb610aff565b610b44600e610a4e565b6d2d323525206c6f636b2074696d6560901b602082015290565b6100fb610b3a565b610b706012610a4e565b712d31302520706c6174666f726d206665657360701b602082015290565b6100fb610b66565b610ba06012610a4e565b712d32352520706c6174666f726d206665657360701b602082015290565b6100fb610b96565b610bd8610bd3600761092b565b610a0e565b610bea610be3610a78565b6001611de8565b610bfc610bf65f61092b565b83610a94565b52610c0f610c095f61092b565b82610a94565b50610c22610c1b610ad1565b6002611de8565b610c2f610bf6600161092b565b52610c3d610c09600161092b565b50610c50610c49610af7565b6003611de8565b610c5d610bf6600261092b565b52610c6b610c09600261092b565b50610c7e610c77610b32565b6004611de8565b610c8b610bf6600361092b565b52610c99610c09600361092b565b50610cac610ca5610b5e565b6005611de8565b610cb9610bf6600461092b565b52610cc7610c09600461092b565b50610cda610cd3610b8e565b6006611de8565b610ce7610bf6600561092b565b52610cf5610c09600561092b565b50610d08610d01610bbe565b6007611de8565b610d15610bf6600661092b565b52610d23610c09600661092b565b5090565b6100fb60c0610973565b6100fb60e0610973565b610d43610d31565b9060605b8252602080808080808088015f5b8152015f8152015f8152015f5b8152015f8152015f905250565b6100fb610d3b565b610d7f610d27565b905f82526020808080808087015f8152015f8152015f8152016109d9610d6f565b6100fb610d77565b6100fb9061025a565b6100fb9054610da8565b905051906100f0826104c9565b6080818303126100b557610ddc8282610dbb565b926100fb610ded8460208501610dbb565b936060610dfd8260408701610dbb565b9401610dbb565b6040513d5f823e3d90fd5b90929192610e1f6109ac82610987565b93818552602080860192028301928184116100b557915b838310610e435750505050565b60208091610e518486610dbb565b815201920191610e36565b9080601f830112156100b55781516100fb92602001610e0f565b61ffff8116610271565b905051906100f082610e76565b60ff8116610271565b905051906100f082610e8d565b801515610271565b905051906100f082610ea3565b91909160e0818403126100b557610ecf60e0610973565b925f82015167ffffffffffffffff81116100b55782610ef58360c093610f579601610e5c565b8652610f048360208301610dbb565b6020870152610f168360408301610e80565b6040870152610f288360608301610e96565b6060870152610f3a8360808301610e80565b6080870152610f4c8360a08301610e80565b60a087015201610eab565b60c0830152565b906020828203126100b557815167ffffffffffffffff81116100b5576100fb9201610eb8565b601111156100b557565b905051906100f082610f84565b600511156100b557565b905051906100f082610f9b565b67ffffffffffffffff8116610271565b905051906100f082610fb2565b919060c0838203126100b5576110469060a0610feb60c0610973565b94610ff68382610f8e565b86526110058360208301610e80565b60208701526110178360408301610fa5565b60408701526110298360608301610fc2565b606087015261103b8360808301610fc2565b608087015201610eab565b60a0830152565b9092919261105d6109ac82610987565b9381855260c06020860192028301928184116100b557915b8383106110825750505050565b602060c0916110918486610fcf565b815201920191611075565b9080601f830112156100b55781516100fb9260200161104d565b906020828203126100b557815167ffffffffffffffff81116100b5576100fb920161109c565b6110e4610da0565b506110f66110f15f610db1565b6108e2565b90608061110260405190565b636386c1c760e01b81526001600160a01b038316600482015292839060249082905afa908115611248575f925f915f915f94611273575b506111466110f15f610db1565b935f61115160405190565b635f9bddb560e11b81526001600160a01b038416600482015295869060249082905afa918215611248576111bf955f9361124d575b505f906111956110f183610db1565b6040519788928391829163161ba78160e01b5b83526001600160a01b031660048301526024820190565b03915afa928315611248576100fb955f94611212575b509061120461120b926111fd61104696976111f66111f1610d27565b9b8c52565b60208b0152565b6040890152565b6060870152565b6080850152565b611046945061120b92916111fd61123d611204933d805f833e611235818361094c565b8101906110b6565b9650509192506111d5565b610e04565b5f91935061126c903d8084833e611264818361094c565b810190610f5e565b9290611186565b925093505061129a915060803d6080116112a2575b611292818361094c565b810190610dc8565b92935f611139565b503d611288565b905051906100f082610266565b909291926112c66109ac82610987565b93818552602080860192028301928184116100b557915b8383106112ea5750505050565b602080916112f884866112a9565b8152019201916112dd565b9080601f830112156100b55781516100fb926020016112b6565b906020828203126100b557815167ffffffffffffffff81116100b5576100fb9201611303565b634e487b7160e01b5f52601160045260245ffd5b9190820180921161136457565b611343565b9190820391821161136457565b634e487b7160e01b5f52601260045260245ffd5b8115611394570490565b611376565b156113a057565b60405162461bcd60e51b815260206004820152601160248201527050616765206f7574206f662072616e676560781b6044820152606490fd5b8181029291811591840414171561136457565b369037565b906100f0611401610a1e8461099f565b601f1901602084016113ec565b909161141c6110f15f610db1565b925f61142760405190565b634b1d06d760e01b815294859060049082905afa938415611248575f94611559575b506114ab90611456855190565b946114ba6114648388611357565b926114848161147f600196611479600161092b565b90611369565b61138a565b978888108015611543575b61149890611399565b6114a282896113d9565b95869283611357565b9080821161153b575b50611369565b926114c4846113f1565b93836114cf5f61092b565b905b6114e0575b5050505050929190565b81811015611536578061152a6115126115056114ff6115309588611357565b88610a94565b516001600160a01b031690565b61151c838a610a94565b906001600160a01b03169052565b60010190565b846114d1565b6114d6565b90505f6114b4565b506114986115505f61092b565b8214905061148f565b6114ab91945061157a903d805f833e611572818361094c565b81019061131d565b9390611449565b6115896109b6565b905f8252602080808085015f610d62565b6100fb611581565b60806115d4916115b061159a565b506115bd6110f15f610db1565b60405193849283918291636386c1c760e01b6111a8565b03915afa8015611248575f905f5f905f9261161d575b6100fb9394509061160f611616926116086116036109b6565b978852565b6020870152565b6040850152565b6060830152565b505050506100fb61161661164261160f9360803d6080116112a257611292818361094c565b93509193506115ea565b6080611659916115b05f90565b03915afa908115611248575f9161166e575090565b611687915060803d6080116112a257611292818361094c565b50505090565b6100fb6101a0610973565b6020908180808080808080808080806116af61168d565b9d8e5f8152015f8152015f8152015f8152015f8152015f8152015f8152015f610d55565b6100fb611698565b906020828203126100b5576100fb91610dbb565b6116fc6100fb6100fb9290565b60ff1690565b61170a6116d3565b506117176110f15f610db1565b608061172260405190565b636386c1c760e01b81526001600160a01b038416600482015291829060249082905afa908115611248575f925f925f925f916119bb575b506117666110f15f610db1565b925f61177160405190565b635f9bddb560e11b81526001600160a01b038516600482015294859060249082905afa938415611248575f9461199f575b506117af6110f15f610db1565b905f6117ba60405190565b63161ba78160e01b81526001600160a01b038616600482015292839060249082905afa918215611248575f92611983575b506117f86110f15f610db1565b92602061180460405190565b633bab7a8960e01b81526001600160a01b038716600482015294859060249082905afa938415611248575f9461195f575b50602061186094956118496110f15f610db1565b60405196879283918291635c83ef7760e11b6111a8565b03915afa938415611248575f9461192e575b50604086015161ffff1690611888602088015190565b92611897606089015160ff1690565b94516118a2906116ef565b956118b260808a015161ffff1690565b976118c260a08b015161ffff1690565b60c0909a015115159a6118d361168d565b9c8d5260208d015260408c015260608b015260808a015260a089015261ffff1660c088015260e087015260ff1661010086015260ff1661012085015261ffff1661014084015261ffff16610160830152151561018082015290565b61195191945060203d602011611958575b611949818361094c565b8101906116db565b925f611872565b503d61193f565b611860945061197c602091823d841161195857611949818361094c565b9450611835565b6119989192503d805f833e611235818361094c565b905f6117eb565b6119b49194503d805f833e611264818361094c565b925f6117a2565b92505092506119d9915060803d6080116112a257611292818361094c565b5f9491929394611759565b61025a6100fb6100fb9290565b6100fb906119e4565b15611a0157565b60405162461bcd60e51b815260206004820152601860248201527f496e76616c6964207374616b696e6720636f6e747261637400000000000000006044820152606490fd5b90611a566100fb611a7f926108e2565b825473ffffffffffffffffffffffffffffffffffffffff19166001600160a01b03919091161790565b9055565b611ab990611aa7611a9661025a5f6119f1565b6001600160a01b03831614156119fa565b6110f1611ab3826108e2565b5f611a46565b7f6397f5b135542bb3f477cb346cfab5abdec1251d08dc8f8d4efb4ffe122ea0bf611ae360405190565b5f90a2565b906020828203126100b5576100fb91610fa5565b6020611b3791611b095f90565b50611b166110f15f610db1565b6040519384928391829163f154a54960e01b83526004830190815260200190565b03915afa908115611248575f91611b5e575b5080916100fb611b5883611f16565b92611fcf565b611b80915060203d602011611b86575b611b78818361094c565b810190611ae8565b5f611b49565b503d611b6e565b611b95610d31565b905f610d47565b6100fb611b8d565b5f5b828110611bb257505050565b602090611bbd611b9c565b8184015201611ba6565b906100f0611bd7610a1e8461099f565b601f190160208401611ba4565b6100fb90516100e6565b6100fb9051610368565b90610107906100e6565b9061010790610368565b5f611c3d91611c19606090565b50611c266110f183610db1565b6040519384928391829163161ba78160e01b6111a8565b03915afa908115611248575f91611d96575b50611c60611c5b825190565b611bc7565b90611c6a5f61092b565b611c756100fb835190565b811015611d9157611c868183610a94565b51611c9090611be4565b611c9a8284610a94565b516020015161ffff16611cad8385610a94565b51604001611cba90611bee565b611cc48486610a94565b516060015167ffffffffffffffff16611cdd8587610a94565b516080015167ffffffffffffffff1690611cf78688610a94565b5160a00151151592611d098789610a94565b51604001611d1690611bee565b611d1f90611f16565b94611d28610d31565b96611d339088611bf8565b61ffff166020870152611d499060408701611c02565b67ffffffffffffffff16606085015267ffffffffffffffff166080840152151560a083015260c0820152611d7d8285610a94565b52611d888184610a94565b50600101611c6a565b505090565b611daa91503d805f833e611235818361094c565b5f611c4f565b906020828203126100b5576100fb91610eab565b6020810192916100f091906100fe565b906020828203126100b5576100fb91610e80565b90611df16109e3565b50611dfe6110f15f610db1565b906020611e0a60405190565b928390634c94bb5560e11b82528180611e268860048301611dc4565b03915afa918215611248575f92611ee5575b50611e456110f15f610db1565b6020611e5060405190565b9182906361fbc71d60e11b82528180611e6c8960048301611dc4565b03915afa8015611248576100fb93611616925f92611eb0575b50611ea590611e9c611e956109b6565b9788611bf8565b15156020870152565b61ffff166040850152565b611ea5919250611ed79060203d602011611ede575b611ecf818361094c565b810190611dd4565b9190611e85565b503d611ec5565b611f0891925060203d602011611f0f575b611f00818361094c565b810190611db0565b905f611e38565b503d611ef6565b611f1f5f610368565b611f2882610368565b14611fc557611f376001610368565b611f4082610368565b14611fb957611f4f6002610368565b611f5882610368565b14611fad57611f676003610368565b611f7082610368565b14611fa157611f88611f826004610368565b91610368565b14611f96576100fb5f61092b565b6100fb611f4061092b565b506100fb610fa061092b565b506100fb6107d061092b565b506100fb6103e861092b565b506100fb5f61092b565b611fd85f610368565b611fe182610368565b1461207457611ff06001610368565b611ff982610368565b14612069576120086002610368565b61201182610368565b1461205e576120206003610368565b61202982610368565b146120535761203b611f826004610368565b14612049576100fb5f6116ef565b6100fb600a6116ef565b506100fb60096116ef565b506100fb60076116ef565b506100fb60056116ef565b506100fb60036116ef56fea2646970667358221220baea0c67405fce962bd2b95f16db3f44e1c09940d615e30bd0a0e26756fc3bff64736f6c634300081c0033",
  "linkReferences": {},
  "deployedLinkReferences": {}
}