{
  "_format": "hh-sol-artifact-1",
  "contractName": "EnhancedSmartStakingView",
  "sourceName": "contracts/SmartStaking/EnhancedSmartStakingView.sol",
  "abi": [
    {
      "inputs": [
        {
          "internalType": "address",
          "name": "_stakingContract",
          "type": "address"
        }
      ],
      "stateMutability": "nonpayable",
      "type": "constructor"
    },
    {
      "anonymous": false,
      "inputs": [
        {
          "indexed": true,
          "internalType": "address",
          "name": "previousOwner",
          "type": "address"
        },
        {
          "indexed": true,
          "internalType": "address",
          "name": "newOwner",
          "type": "address"
        }
      ],
      "name": "OwnershipTransferred",
      "type": "event"
    },
    {
      "anonymous": false,
      "inputs": [
        {
          "indexed": true,
          "internalType": "address",
          "name": "newAddress",
          "type": "address"
        }
      ],
      "name": "StakingContractUpdated",
      "type": "event"
    },
    {
      "inputs": [
        {
          "internalType": "address",
          "name": "user",
          "type": "address"
        }
      ],
      "name": "getActiveSkillsWithDetails",
      "outputs": [
        {
          "components": [
            {
              "internalType": "enum IStakingIntegration.SkillType",
              "name": "skillType",
              "type": "uint8"
            },
            {
              "internalType": "uint16",
              "name": "effectValue",
              "type": "uint16"
            },
            {
              "internalType": "enum IStakingIntegration.Rarity",
              "name": "rarity",
              "type": "uint8"
            },
            {
              "internalType": "uint64",
              "name": "activatedAt",
              "type": "uint64"
            },
            {
              "internalType": "uint64",
              "name": "cooldownEnds",
              "type": "uint64"
            },
            {
              "internalType": "bool",
              "name": "isActive",
              "type": "bool"
            },
            {
              "internalType": "uint256",
              "name": "rarityBoost",
              "type": "uint256"
            }
          ],
          "internalType": "struct EnhancedSmartStakingView.SkillDetails[]",
          "name": "",
          "type": "tuple[]"
        }
      ],
      "stateMutability": "view",
      "type": "function"
    },
    {
      "inputs": [
        {
          "internalType": "uint256",
          "name": "page",
          "type": "uint256"
        },
        {
          "internalType": "uint256",
          "name": "pageSize",
          "type": "uint256"
        }
      ],
      "name": "getAutoCompoundUsersPage",
      "outputs": [
        {
          "internalType": "address[]",
          "name": "users",
          "type": "address[]"
        },
        {
          "internalType": "uint256",
          "name": "totalPages",
          "type": "uint256"
        },
        {
          "internalType": "uint256",
          "name": "currentPage",
          "type": "uint256"
        }
      ],
      "stateMutability": "view",
      "type": "function"
    },
    {
      "inputs": [],
      "name": "getAvailableSkillsConfiguration",
      "outputs": [
        {
          "components": [
            {
              "internalType": "enum IStakingIntegration.SkillType",
              "name": "skillType",
              "type": "uint8"
            },
            {
              "internalType": "bool",
              "name": "enabled",
              "type": "bool"
            },
            {
              "internalType": "uint16",
              "name": "effectValue",
              "type": "uint16"
            },
            {
              "internalType": "string",
              "name": "description",
              "type": "string"
            }
          ],
          "internalType": "struct EnhancedSmartStakingView.SkillConfig[]",
          "name": "",
          "type": "tuple[]"
        }
      ],
      "stateMutability": "view",
      "type": "function"
    },
    {
      "inputs": [
        {
          "internalType": "address",
          "name": "user",
          "type": "address"
        },
        {
          "internalType": "uint256",
          "name": "daysFromNow",
          "type": "uint256"
        }
      ],
      "name": "getEstimatedRewards",
      "outputs": [
        {
          "internalType": "uint256",
          "name": "baseEstimate",
          "type": "uint256"
        },
        {
          "internalType": "uint256",
          "name": "boostedEstimate",
          "type": "uint256"
        },
        {
          "internalType": "uint256",
          "name": "activeSkillsCount",
          "type": "uint256"
        }
      ],
      "stateMutability": "view",
      "type": "function"
    },
    {
      "inputs": [],
      "name": "getMarketStats",
      "outputs": [
        {
          "components": [
            {
              "internalType": "uint256",
              "name": "autoCompoundUsersCount",
              "type": "uint256"
            },
            {
              "internalType": "uint256",
              "name": "timestamp",
              "type": "uint256"
            }
          ],
          "internalType": "struct EnhancedSmartStakingView.MarketStats",
          "name": "",
          "type": "tuple"
        }
      ],
      "stateMutability": "view",
      "type": "function"
    },
    {
      "inputs": [
        {
          "internalType": "address",
          "name": "user",
          "type": "address"
        }
      ],
      "name": "getPortfolioSummary",
      "outputs": [
        {
          "components": [
            {
              "internalType": "uint256",
              "name": "totalDeposited",
              "type": "uint256"
            },
            {
              "internalType": "uint256",
              "name": "pendingRewards",
              "type": "uint256"
            },
            {
              "internalType": "uint256",
              "name": "totalValue",
              "type": "uint256"
            },
            {
              "internalType": "uint256",
              "name": "depositCount",
              "type": "uint256"
            },
            {
              "internalType": "uint256",
              "name": "rewardEfficiency",
              "type": "uint256"
            }
          ],
          "internalType": "struct EnhancedSmartStakingView.PortfolioSummary",
          "name": "",
          "type": "tuple"
        }
      ],
      "stateMutability": "view",
      "type": "function"
    },
    {
      "inputs": [
        {
          "internalType": "address",
          "name": "user",
          "type": "address"
        }
      ],
      "name": "getSkillEffectiveness",
      "outputs": [
        {
          "components": [
            {
              "internalType": "enum IStakingIntegration.SkillType",
              "name": "skillType",
              "type": "uint8"
            },
            {
              "internalType": "uint16",
              "name": "effectValue",
              "type": "uint16"
            },
            {
              "internalType": "enum IStakingIntegration.Rarity",
              "name": "rarity",
              "type": "uint8"
            },
            {
              "internalType": "bool",
              "name": "isActive",
              "type": "bool"
            },
            {
              "internalType": "uint256",
              "name": "impactValue",
              "type": "uint256"
            }
          ],
          "internalType": "struct EnhancedSmartStakingView.SkillEffectiveness[]",
          "name": "",
          "type": "tuple[]"
        }
      ],
      "stateMutability": "view",
      "type": "function"
    },
    {
      "inputs": [
        {
          "internalType": "uint256",
          "name": "nftId",
          "type": "uint256"
        }
      ],
      "name": "getSkillRarity",
      "outputs": [
        {
          "internalType": "enum IStakingIntegration.Rarity",
          "name": "rarity",
          "type": "uint8"
        },
        {
          "internalType": "uint256",
          "name": "rarityBoost",
          "type": "uint256"
        },
        {
          "internalType": "uint8",
          "name": "stars",
          "type": "uint8"
        }
      ],
      "stateMutability": "view",
      "type": "function"
    },
    {
      "inputs": [
        {
          "internalType": "address",
          "name": "user",
          "type": "address"
        }
      ],
      "name": "getTotalDeposit",
      "outputs": [
        {
          "internalType": "uint256",
          "name": "",
          "type": "uint256"
        }
      ],
      "stateMutability": "view",
      "type": "function"
    },
    {
      "inputs": [
        {
          "internalType": "address",
          "name": "user",
          "type": "address"
        }
      ],
      "name": "getUserDeposits",
      "outputs": [
        {
          "components": [
            {
              "internalType": "uint256",
              "name": "totalDeposited",
              "type": "uint256"
            },
            {
              "internalType": "uint256",
              "name": "totalRewards",
              "type": "uint256"
            },
            {
              "internalType": "uint256",
              "name": "depositCount",
              "type": "uint256"
            },
            {
              "internalType": "uint256",
              "name": "lastWithdrawTime",
              "type": "uint256"
            }
          ],
          "internalType": "struct EnhancedSmartStakingView.UserDepositInfo",
          "name": "",
          "type": "tuple"
        }
      ],
      "stateMutability": "view",
      "type": "function"
    },
    {
      "inputs": [
        {
          "internalType": "address",
          "name": "user",
          "type": "address"
        }
      ],
      "name": "getUserDetailedStats",
      "outputs": [
        {
          "components": [
            {
              "internalType": "uint256",
              "name": "totalDeposited",
              "type": "uint256"
            },
            {
              "internalType": "uint256",
              "name": "totalRewards",
              "type": "uint256"
            },
            {
              "internalType": "uint256",
              "name": "boostedRewards",
              "type": "uint256"
            },
            {
              "internalType": "uint256",
              "name": "boostedRewardsWithRarity",
              "type": "uint256"
            },
            {
              "internalType": "uint256",
              "name": "depositCount",
              "type": "uint256"
            },
            {
              "internalType": "uint256",
              "name": "lastWithdrawTime",
              "type": "uint256"
            },
            {
              "internalType": "uint16",
              "name": "userLevel",
              "type": "uint16"
            },
            {
              "internalType": "uint256",
              "name": "userXP",
              "type": "uint256"
            },
            {
              "internalType": "uint8",
              "name": "maxActiveSkills",
              "type": "uint8"
            },
            {
              "internalType": "uint8",
              "name": "activeSkillsCount",
              "type": "uint8"
            },
            {
              "internalType": "uint16",
              "name": "stakingBoostTotal",
              "type": "uint16"
            },
            {
              "internalType": "uint16",
              "name": "feeDiscountTotal",
              "type": "uint16"
            },
            {
              "internalType": "bool",
              "name": "hasAutoCompound",
              "type": "bool"
            }
          ],
          "internalType": "struct EnhancedSmartStakingView.UserStats",
          "name": "",
          "type": "tuple"
        }
      ],
      "stateMutability": "view",
      "type": "function"
    },
    {
      "inputs": [
        {
          "internalType": "address",
          "name": "user",
          "type": "address"
        }
      ],
      "name": "getUserInfoWithSkills",
      "outputs": [
        {
          "components": [
            {
              "internalType": "uint256",
              "name": "totalDeposited",
              "type": "uint256"
            },
            {
              "internalType": "uint256",
              "name": "totalRewards",
              "type": "uint256"
            },
            {
              "internalType": "uint256",
              "name": "depositCount",
              "type": "uint256"
            },
            {
              "internalType": "uint256",
              "name": "lastWithdrawTime",
              "type": "uint256"
            },
            {
              "components": [
                {
                  "internalType": "uint256[]",
                  "name": "activeNFTIds",
                  "type": "uint256[]"
                },
                {
                  "internalType": "uint256",
                  "name": "totalXP",
                  "type": "uint256"
                },
                {
                  "internalType": "uint16",
                  "name": "level",
                  "type": "uint16"
                },
                {
                  "internalType": "uint8",
                  "name": "maxActiveSkills",
                  "type": "uint8"
                },
                {
                  "internalType": "uint16",
                  "name": "stakingBoostTotal",
                  "type": "uint16"
                },
                {
                  "internalType": "uint16",
                  "name": "feeDiscountTotal",
                  "type": "uint16"
                },
                {
                  "internalType": "bool",
                  "name": "hasAutoCompound",
                  "type": "bool"
                }
              ],
              "internalType": "struct IStakingIntegration.UserSkillProfile",
              "name": "skillProfile",
              "type": "tuple"
            },
            {
              "components": [
                {
                  "internalType": "enum IStakingIntegration.SkillType",
                  "name": "skillType",
                  "type": "uint8"
                },
                {
                  "internalType": "uint16",
                  "name": "effectValue",
                  "type": "uint16"
                },
                {
                  "internalType": "enum IStakingIntegration.Rarity",
                  "name": "rarity",
                  "type": "uint8"
                },
                {
                  "internalType": "uint64",
                  "name": "activatedAt",
                  "type": "uint64"
                },
                {
                  "internalType": "uint64",
                  "name": "cooldownEnds",
                  "type": "uint64"
                },
                {
                  "internalType": "bool",
                  "name": "isActive",
                  "type": "bool"
                }
              ],
              "internalType": "struct IStakingIntegration.NFTSkill[]",
              "name": "activeSkills",
              "type": "tuple[]"
            }
          ],
          "internalType": "struct EnhancedSmartStakingView.UserInfoWithSkills",
          "name": "",
          "type": "tuple"
        }
      ],
      "stateMutability": "view",
      "type": "function"
    },
    {
      "inputs": [
        {
          "internalType": "address",
          "name": "user",
          "type": "address"
        }
      ],
      "name": "getUserMetrics",
      "outputs": [
        {
          "components": [
            {
              "internalType": "uint256",
              "name": "totalDeposited",
              "type": "uint256"
            },
            {
              "internalType": "uint256",
              "name": "totalRewards",
              "type": "uint256"
            },
            {
              "internalType": "uint256",
              "name": "deposits",
              "type": "uint256"
            },
            {
              "internalType": "uint8",
              "name": "activeSkills",
              "type": "uint8"
            },
            {
              "internalType": "uint16",
              "name": "level",
              "type": "uint16"
            },
            {
              "internalType": "uint256",
              "name": "xp",
              "type": "uint256"
            },
            {
              "internalType": "uint16",
              "name": "boosts",
              "type": "uint16"
            }
          ],
          "internalType": "struct EnhancedSmartStakingView.UserMetrics",
          "name": "",
          "type": "tuple"
        }
      ],
      "stateMutability": "view",
      "type": "function"
    },
    {
      "inputs": [
        {
          "internalType": "address",
          "name": "user",
          "type": "address"
        }
      ],
      "name": "hasActiveStake",
      "outputs": [
        {
          "internalType": "bool",
          "name": "",
          "type": "bool"
        }
      ],
      "stateMutability": "view",
      "type": "function"
    },
    {
      "inputs": [],
      "name": "owner",
      "outputs": [
        {
          "internalType": "address",
          "name": "",
          "type": "address"
        }
      ],
      "stateMutability": "view",
      "type": "function"
    },
    {
      "inputs": [
        {
          "internalType": "address",
          "name": "_stakingContract",
          "type": "address"
        }
      ],
      "name": "setStakingContract",
      "outputs": [],
      "stateMutability": "nonpayable",
      "type": "function"
    },
    {
      "inputs": [],
      "name": "stakingContract",
      "outputs": [
        {
          "internalType": "contract IStakingViewData",
          "name": "",
          "type": "address"
        }
      ],
      "stateMutability": "view",
      "type": "function"
    },
    {
      "inputs": [
        {
          "internalType": "address",
          "name": "newOwner",
          "type": "address"
        }
      ],
      "name": "transferOwnership",
      "outputs": [],
      "stateMutability": "nonpayable",
      "type": "function"
    }
  ],
  "bytecode": "0x60806040523461002a576100196100146100bf565b610195565b604051612d576101d38239612d5790f35b5f80fd5b634e487b7160e01b5f52604160045260245ffd5b90601f01601f191681019081106001600160401b0382111761006357604052565b61002e565b9061007c61007560405190565b9283610042565b565b6001600160a01b031690565b90565b6001600160a01b0381160361002a57565b9050519061007c8261008d565b9060208282031261002a5761008a9161009e565b61008a612f2a803803806100d281610068565b9283398101906100ab565b61007e61008a61008a9290565b61008a906100dd565b156100fa57565b60405162461bcd60e51b815260206004820152601860248201527f496e76616c6964207374616b696e6720636f6e747261637400000000000000006044820152606490fd5b61008a9061007e906001600160a01b031682565b61008a9061013f565b61008a90610153565b9061017561008a6101919261015c565b82546001600160a01b0319166001600160a01b03919091161790565b9055565b6101c16101c7916101bc6101ab61007e5f6100ea565b6001600160a01b03831614156100f3565b61015c565b5f610165565b61007c33600161016556fe60806040526004361015610011575f80fd5b5f3560e01c806301d9b8421461013057806316e1a0fe1461012b5780631fc8ee5e146101265780632a5bf6d21461012157806369486d291461011c578063857184d11461011757806387a7b7f6146101125780638da5cb5b1461010d57806396039e84146101085780639dd373b914610103578063c5f57015146100fe578063e346f570146100f9578063e421ffb1146100f4578063e7e75400146100ef578063eb97e4eb146100ea578063ee99205c146100e5578063f2fde38b146100e05763ff4cd5b90361013557610c83565b610c48565b610c21565b610baf565b610abc565b610a59565b610991565b61091f565b610891565b610866565b6107f7565b6107a6565b6106b4565b610687565b610660565b6105f2565b610522565b6102af565b5f80fd5b5f91031261013557565b634e487b7160e01b5f52602160045260245ffd5b6011111561016157565b610143565b9061017082610157565b565b61017b90610166565b90565b61018790610172565b9052565b5f5b83811061019c5750505f910152565b818101518382015260200161018d565b6101cd6101d66020936101e0936101c1815190565b80835293849260200190565b9586910161018b565b601f01601f191690565b0190565b61017b91606060808201926101ff5f8201515f85019061017e565b60208181015115159084015260408181015161ffff169084015201519060608184039101526101ac565b9061017b916101e4565b9061024961023f835190565b8083529160200190565b908161025b6020830284019460200190565b925f915b83831061026e57505050505090565b9091929394602061029161028a83856001950387528951610229565b9760200190565b930193019193929061025f565b602080825261017b92910190610233565b34610135576102bf366004610139565b6102d66102ca610f45565b6040519182918261029e565b0390f35b6001600160a01b031690565b6001600160a01b0381165b0361013557565b90503590610170826102e6565b906020828203126101355761017b916102f8565b90610339610332610328845190565b8084529260200190565b9260200190565b905f5b8181106103495750505090565b90919261036661035f6001928651815260200190565b9460200190565b92910161033c565b9061017b9060c08061038d60e084015f8701518582035f870152610319565b9461039d60208201516020860152565b60408181015161ffff169085015260608181015160ff169085015260808181015161ffff169085015260a08181015161ffff16908501525b01511515910152565b6005111561016157565b90610170826103de565b61017b906103e8565b610187906103f2565b9060a0806101709361041c5f8201515f86019061017e565b60208181015161ffff169085015261043c604082015160408601906103fb565b60608181015167ffffffffffffffff169085015260808181015167ffffffffffffffff16908501526103d5565b906101e08160c093610404565b90610485610332610328845190565b905f5b8181106104955750505090565b9091926104a861035f6001928651610469565b929101610488565b8051825261017b9160a061050060c083016104d060208601516020860152565b6104df60408601516040860152565b6104ee60608601516060860152565b6080850151848203608086015261036e565b9201519060a0818403910152610476565b602080825261017b929101906104b0565b34610135576102d661053d610538366004610305565b61145c565b60405191829182610511565b806102f1565b9050359061017082610549565b91906040838203126101355761017b906020610578828661054f565b940161054f565b9061058e610332610328845190565b905f5b81811061059e5750505090565b9091926105bd61035f60019286516001600160a01b0316815260200190565b929101610591565b6040906105ee6105e66101709597969460608401908482035f86015261057f565b966020830152565b0152565b34610135576102d661060e61060836600461055c565b90611799565b604051919391938493846105c5565b805182526101709190606090819061063a60208201516020860152565b61064960408201516040860152565b0151910152565b608081019291610170919061061d565b34610135576102d661067b610676366004610305565b61192d565b60405191829182610650565b34610135576102d66106a261069d366004610305565b6119d7565b60405191829182901515815260200190565b34610135576102d66106cf6106ca366004610305565b611a27565b6040519182918290815260200190565b8051825261017091906101809081906106fd60208201516020860152565b61070c60408201516040860152565b61071b60608201516060860152565b61072a60808201516080860152565b61073960a082015160a0860152565b60c08181015161ffff169085015261075660e082015160e0860152565b6101008181015160ff16908501526101208181015160ff16908501526101408181015161ffff16908501526101608181015161ffff16908501526103d5565b6101a08101929161017091906106df565b34610135576102d66107c16107bc366004610305565b611ae1565b60405191829182610795565b61017b916008021c6001600160a01b031690565b9061017b91546107cd565b61017b5f60016107e1565b3461013557610807366004610139565b6102d66108126107ec565b604051918291826001600160a01b03909116815260200190565b91906040838203126101355761017b90602061057882866102f8565b9081526060810193926101709290916040916105ee905b6020830152565b34610135576102d661088261087c36600461082c565b90611dc3565b60405191939193849384610848565b34610135576108a96108a4366004610305565b6120c4565b604051005b80518252610170919060c09081906108cb60208201516020860152565b6108da60408201516040860152565b60608181015160ff169085015260808181015161ffff169085015261090460a082015160a0860152565b015161ffff16910152565b60e08101929161017091906108ae565b34610135576102d661093a610935366004610305565b6120e4565b6040519182918261090f565b805182526101709190608090819061096360208201516020860152565b61097260408201516040860152565b61064960608201516060860152565b60a0810192916101709190610946565b34610135576102d66109ac6109a7366004610305565b6122c2565b60405191829182610981565b90608080610170936109d05f8201515f86019061017e565b60208181015161ffff16908501526109f0604082015160408601906103fb565b606081810151151590850152610649565b906101e08160a0936109b8565b90610a1d610332610328845190565b905f5b818110610a2d5750505090565b909192610a4061035f6001928651610a01565b929101610a20565b602080825261017b92910190610a0e565b34610135576102d6610a74610a6f366004610305565b61249a565b60405191829182610a48565b906020828203126101355761017b9161054f565b604090610ab3610170949695939661085f60608401985f8501906103fb565b019060ff169052565b34610135576102d6610ad7610ad2366004610a80565b612674565b60405191939193849384610a94565b9060c08061017093610afe5f8201515f86019061017e565b60208181015161ffff1690850152610b1e604082015160408601906103fb565b60608181015167ffffffffffffffff169085015260808181015167ffffffffffffffff169085015260a081810151151590850152610649565b906101e08160e093610ae6565b90610b73610332610328845190565b905f5b818110610b835750505090565b909192610b9661035f6001928651610b57565b929101610b76565b602080825261017b92910190610b64565b34610135576102d6610bca610bc5366004610305565b612745565b60405191829182610b9e565b61017b5f806107e1565b6102da61017b61017b926001600160a01b031690565b61017b90610be0565b61017b90610bf6565b61018790610bff565b6020810192916101709190610c08565b3461013557610c31366004610139565b6102d6610c3c610bd6565b60405191829182610c11565b34610135576108a9610c5b366004610305565b6129b1565b8051825261017091906020908190610649565b6040810192916101709190610c60565b3461013557610c93366004610139565b6102d6610c9e6129e0565b60405191829182610c73565b61017b61017b61017b9290565b634e487b7160e01b5f52604160045260245ffd5b90601f01601f1916810190811067ffffffffffffffff821117610ced57604052565b610cb7565b90610170610cff60405190565b9283610ccb565b67ffffffffffffffff8111610ced5760208091020190565b90610d30610d2b83610d06565b610cf2565b918252565b61017b6080610cf2565b610d47610d35565b905f8252602080808085015f8152015f5b8152016060905250565b61017b610d3f565b5f5b828110610d7857505050565b602090610d83610d62565b8184015201610d6c565b90610170610da3610d9d84610d1e565b93610d06565b601f190160208401610d6a565b67ffffffffffffffff8111610ced57602090601f01601f19160190565b90610d30610d2b83610db0565b610de46007610dcd565b662b35252041505960c81b602082015290565b61017b610dda565b634e487b7160e01b5f52603260045260245ffd5b90610e1c825190565b811015610e2d576020809102010190565b610dff565b610e3c6008610dcd565b672b3130252041505960c01b602082015290565b61017b610e32565b610e626008610dcd565b672b3230252041505960c01b602082015290565b61017b610e58565b610e886015610dcd565b7f4175746f6d6174696320636f6d706f756e64696e670000000000000000000000602082015290565b61017b610e7e565b610ec3600e610dcd565b6d2d323525206c6f636b2074696d6560901b602082015290565b61017b610eb9565b610eef6012610dcd565b712d31302520706c6174666f726d206665657360701b602082015290565b61017b610ee5565b610f1f6012610dcd565b712d32352520706c6174666f726d206665657360701b602082015290565b61017b610f15565b610f57610f526007610caa565b610d8d565b610f69610f62610df7565b6001612a8a565b610f7b610f755f610caa565b83610e13565b52610f8e610f885f610caa565b82610e13565b50610fa1610f9a610e50565b6002612a8a565b610fae610f756001610caa565b52610fbc610f886001610caa565b50610fcf610fc8610e76565b6003612a8a565b610fdc610f756002610caa565b52610fea610f886002610caa565b50610ffd610ff6610eb1565b6004612a8a565b61100a610f756003610caa565b52611018610f886003610caa565b5061102b611024610edd565b6005612a8a565b611038610f756004610caa565b52611046610f886004610caa565b50611059611052610f0d565b6006612a8a565b611066610f756005610caa565b52611074610f886005610caa565b50611087611080610f3d565b6007612a8a565b611094610f756006610caa565b526110a2610f886006610caa565b5090565b61017b60c0610cf2565b61017b60e0610cf2565b6110c26110b0565b9060605b8252602080808080808088015f5b8152015f8152015f5b8152015f5b8152015f8152015f905250565b61017b6110ba565b6110ff6110a6565b905f82526020808080808087015f8152015f8152015f815201610d586110ef565b61017b6110f7565b61017b906102da565b61017b9054611128565b9050519061017082610549565b6080818303126101355761115c828261113b565b9261017b61116d846020850161113b565b93606061117d826040870161113b565b940161113b565b6040513d5f823e3d90fd5b9092919261119f610d2b82610d06565b938185526020808601920283019281841161013557915b8383106111c35750505050565b602080916111d1848661113b565b8152019201916111b6565b9080601f8301121561013557815161017b9260200161118f565b61ffff81166102f1565b90505190610170826111f6565b60ff81166102f1565b905051906101708261120d565b8015156102f1565b9050519061017082611223565b91909160e0818403126101355761124f60e0610cf2565b925f82015167ffffffffffffffff811161013557826112758360c0936112d796016111dc565b8652611284836020830161113b565b60208701526112968360408301611200565b60408701526112a88360608301611216565b60608701526112ba8360808301611200565b60808701526112cc8360a08301611200565b60a08701520161122b565b60c0830152565b9060208282031261013557815167ffffffffffffffff81116101355761017b9201611238565b6011111561013557565b9050519061017082611304565b6005111561013557565b905051906101708261131b565b67ffffffffffffffff81166102f1565b9050519061017082611332565b919060c083820312610135576113c69060a061136b60c0610cf2565b94611376838261130e565b86526113858360208301611200565b60208701526113978360408301611325565b60408701526113a98360608301611342565b60608701526113bb8360808301611342565b60808701520161122b565b60a0830152565b909291926113dd610d2b82610d06565b9381855260c060208601920283019281841161013557915b8383106114025750505050565b602060c091611411848661134f565b8152019201916113f5565b9080601f8301121561013557815161017b926020016113cd565b9060208282031261013557815167ffffffffffffffff81116101355761017b920161141c565b611464611120565b506114766114715f611131565b610bff565b90608061148260405190565b636386c1c760e01b81526001600160a01b038316600482015292839060249082905afa9081156115c8575f925f915f915f946115f3575b506114c66114715f611131565b935f6114d160405190565b635f9bddb560e11b81526001600160a01b038416600482015295869060249082905afa9182156115c85761153f955f936115cd575b505f9061151561147183611131565b6040519788928391829163161ba78160e01b5b83526001600160a01b031660048301526024820190565b03915afa9283156115c85761017b955f94611592575b509061158461158b9261157d6113c696976115766115716110a6565b9b8c52565b60208b0152565b6040890152565b6060870152565b6080850152565b6113c6945061158b929161157d6115bd611584933d805f833e6115b58183610ccb565b810190611436565b965050919250611555565b611184565b5f9193506115ec903d8084833e6115e48183610ccb565b8101906112de565b9290611506565b925093505061161a915060803d608011611622575b6116128183610ccb565b810190611148565b92935f6114b9565b503d611608565b90505190610170826102e6565b90929192611646610d2b82610d06565b938185526020808601920283019281841161013557915b83831061166a5750505050565b602080916116788486611629565b81520192019161165d565b9080601f8301121561013557815161017b92602001611636565b9060208282031261013557815167ffffffffffffffff81116101355761017b9201611683565b634e487b7160e01b5f52601160045260245ffd5b919082018092116116e457565b6116c3565b919082039182116116e457565b634e487b7160e01b5f52601260045260245ffd5b90611714565b9190565b90811561171f570490565b6116f6565b1561172b57565b60405162461bcd60e51b815260206004820152601160248201527050616765206f7574206f662072616e676560781b6044820152606490fd5b818102929181159184041417156116e457565b369037565b9061017061178c610d9d84610d1e565b601f190160208401611777565b90916117a76114715f611131565b925f6117b260405190565b634b1d06d760e01b815294859060049082905afa9384156115c8575f946118e4575b50611836906117e1855190565b946118456117ef83886116d7565b9261180f8161180a6001966118046001610caa565b906116e9565b61170a565b9788881080156118ce575b61182390611724565b61182d8289611764565b958692836116d7565b908082116118c6575b506116e9565b9261184f8461177c565b938361185a5f610caa565b905b61186b575b5050505050929190565b818110156118c157806118b561189d61189061188a6118bb95886116d7565b88610e13565b516001600160a01b031690565b6118a7838a610e13565b906001600160a01b03169052565b60010190565b8461185c565b611861565b90505f61183f565b506118236118db5f610caa565b8214905061181a565b611836919450611905903d805f833e6118fd8183610ccb565b81019061169d565b93906117d4565b611914610d35565b905f8252602080808085015f6110e2565b61017b61190c565b608061195f9161193b611925565b506119486114715f611131565b60405193849283918291636386c1c760e01b611528565b03915afa80156115c8575f905f5f905f926119a8575b61017b9394509061199a6119a19261199361198e610d35565b978852565b6020870152565b6040850152565b6060830152565b5050505061017b6119a16119cd61199a9360803d608011611622576116128183610ccb565b9350919350611975565b60806119e49161193b5f90565b03915afa9081156115c8575f91611a07575b50611a036117105f610caa565b1190565b611a20915060803d608011611622576116128183610ccb565b50506119f6565b6080611a349161193b5f90565b03915afa9081156115c8575f91611a49575090565b611a62915060803d608011611622576116128183610ccb565b50505090565b61017b6101a0610cf2565b602090818080808080808080808080611a8a611a68565b9d8e5f8152015f8152015f8152015f8152015f8152015f8152015f8152015f6110d4565b61017b611a73565b906020828203126101355761017b9161113b565b5190565b611adb61017b61017b9290565b60ff1690565b611ae9611aae565b50611af66114715f611131565b6080611b0160405190565b636386c1c760e01b81526001600160a01b038416600482015291829060249082905afa9081156115c8575f925f925f925f91611d9a575b50611b456114715f611131565b925f611b5060405190565b635f9bddb560e11b81526001600160a01b038516600482015294859060249082905afa9384156115c8575f94611d7e575b50611b8e6114715f611131565b905f611b9960405190565b63161ba78160e01b81526001600160a01b038616600482015292839060249082905afa9182156115c8575f92611d62575b50611bd76114715f611131565b926020611be360405190565b633bab7a8960e01b81526001600160a01b038716600482015294859060249082905afa9384156115c8575f94611d3e575b506020611c3f9495611c286114715f611131565b60405196879283918291635c83ef7760e11b611528565b03915afa9384156115c8575f94611d0d575b50604086015161ffff1690611c67602088015190565b92611c76606089015160ff1690565b9451611c8190611ace565b95611c9160808a015161ffff1690565b97611ca160a08b015161ffff1690565b60c0909a015115159a611cb2611a68565b9c8d5260208d015260408c015260608b015260808a015260a089015261ffff1660c088015260e087015260ff1661010086015260ff1661012085015261ffff1661014084015261ffff16610160830152151561018082015290565b611d3091945060203d602011611d37575b611d288183610ccb565b810190611ab6565b925f611c51565b503d611d1e565b611c3f9450611d5b602091823d8411611d3757611d288183610ccb565b9450611c14565b611d779192503d805f833e6115b58183610ccb565b905f611bca565b611d939194503d805f833e6115e48183610ccb565b925f611b81565b9250509250611db8915060803d608011611622576116128183610ccb565b5f9491929394611b38565b9091611dd16114715f611131565b916020611ddd60405190565b633bab7a8960e01b81526001600160a01b038316600482015293849060249082905afa9283156115c8575f93611f46575b50611e1b6114715f611131565b926020611e2760405190565b635c83ef7760e11b81526001600160a01b038416600482015294859060249082905afa9182156115c857611e82945f93611f23575b505f90611e6b61147183611131565b6040519687928391829163161ba78160e01b611528565b03915afa9384156115c8575f94611ef5575b5061017b91611ecf611ed5611ee393611eac5f610caa565b891115611ee857611ecf89611eca611ec46001610caa565b8461170a565b611764565b906116d7565b96611eca611ec46001610caa565b925190565b611ecf89611eca5f610caa565b611ee391945091611ecf611ed5611f1861017b953d805f833e6115b58183610ccb565b969350505091611e94565b5f919350611f3f9060203d602011611d3757611d288183610ccb565b9290611e5c565b611f6091935060203d602011611d3757611d288183610ccb565b915f611e0e565b15611f6e57565b60405162461bcd60e51b815260206004820152600a60248201526927b7363c9037bbb732b960b11b6044820152606490fd5b61017090611fbb611fb46102da6001611131565b3314611f67565b61205f565b6102da61017b61017b9290565b61017b90611fc0565b15611fdd57565b60405162461bcd60e51b815260206004820152601860248201527f496e76616c6964207374616b696e6720636f6e747261637400000000000000006044820152606490fd5b9061203261017b61205b92610bff565b825473ffffffffffffffffffffffffffffffffffffffff19166001600160a01b03919091161790565b9055565b612095906120836120726102da5f611fcd565b6001600160a01b0383161415611fd6565b61147161208f82610bff565b5f612022565b7f6397f5b135542bb3f477cb346cfab5abdec1251d08dc8f8d4efb4ffe122ea0bf6120bf60405190565b5f90a2565b61017090611fa0565b6120d56110b0565b905f6110c6565b61017b6120cd565b6120ec6120dc565b506120f96114715f611131565b90608061210560405190565b636386c1c760e01b81526001600160a01b038316600482015292839060249082905afa80156115c8575f905f935f91612270575b506121466114715f611131565b925f61215160405190565b635f9bddb560e11b81526001600160a01b038316600482015294859060249082905afa9081156115c857612194945f9261225257505f90611e6b61147183611131565b03915afa9384156115c8575f95612221612233946122176121c96121c461017b9a61222c978d9161223e57505190565b611ace565b916122106121dc604089015161ffff1690565b956122096121fa60806121f060208d015190565b9b015161ffff1690565b9b6122036110b0565b9e8f0152565b60208d0152565b60408b0152565b60ff166060890152565b61ffff166080870152565b60a0850152565b61ffff1660c0830152565b611aca91503d808f833e6115b58183610ccb565b5f919250612269903d8084833e6115e48183610ccb565b9190611e5c565b91505061228d91925060803d608011611622576116128183610ccb565b93929193612139565b61017b60a0610cf2565b6122a8612296565b905f825260208080808086015f6110dd565b61017b6122a0565b6122ca6122ba565b506122d76114715f611131565b60806122e260405190565b636386c1c760e01b81526001600160a01b038416600482015291829060249082905afa80156115c8575f915f916123f6575b50602061233f92936123286114715f611131565b60405194859283918291633bab7a8960e01b611528565b03915afa9081156115c85761017b925f926123d1575b506123b8906123b161236784876116d7565b6123705f610caa565b8711156123bf576123aa6123918861180a61238b6064610caa565b89611764565b955b6123a361239e612296565b998a52565b6020890152565b6040870152565b6060850152565b6080830152565b6123aa6123cb5f610caa565b95612393565b6123b89192506123ef9060203d602011611d3757611d288183610ccb565b9190612355565b61233f9250602091506124179060803d608011611622576116128183610ccb565b5092505091612314565b5f5b82811061242f57505050565b60209061243a6122ba565b8184015201612423565b90610170612454610d9d84610d1e565b601f190160208401612421565b61017b9051610166565b61017b90516103e8565b61017b61017b61017b9261ffff1690565b9061018790610166565b90610187906103e8565b6124a66114715f611131565b5f6124b060405190565b63161ba78160e01b81526001600160a01b038416600482015291829060249082905afa9081156115c8575f91612646575b5061251b60206124f76124f2845190565b612444565b936125046114715f611131565b60405193849283918291633bab7a8960e01b611528565b03915afa9081156115c8575f91612627575b506125375f610caa565b61254261017b845190565b811015611a62576125538184610e13565b5161255d90612461565b6125678285610e13565b516020015161ffff1661257a8386610e13565b516040016125879061246b565b6125918487610e13565b5160a001511515906125a38588610e13565b516020015161ffff166125b590612475565b6125bf9087611764565b6125ca612710610caa565b6125d39161170a565b926125dc612296565b946125e79086612486565b61ffff1660208501526125fd9060408501612490565b1515606083015260808201526126138286610e13565b5261261e8185610e13565b50600101612537565b612640915060203d602011611d3757611d288183610ccb565b5f61252d565b61265a91503d805f833e6115b58183610ccb565b5f6124e1565b906020828203126101355761017b91611325565b60206126af916126815f90565b5061268e6114715f611131565b6040519384928391829163f154a54960e01b83526004830190815260200190565b03915afa9081156115c8575f916126d6575b50809161017b6126d083612bb8565b92612c71565b6126f8915060203d6020116126fe575b6126f08183610ccb565b810190612660565b5f6126c1565b503d6126e6565b5f5b82811061271357505050565b60209061271e6120dc565b8184015201612707565b90610170612738610d9d84610d1e565b601f190160208401612705565b5f61277691612752606090565b5061275f61147183611131565b6040519384928391829163161ba78160e01b611528565b03915afa9081156115c8575f916128cf575b50612799612794825190565b612728565b906127a35f610caa565b6127ae61017b835190565b8110156128ca576127bf8183610e13565b516127c990612461565b6127d38284610e13565b516020015161ffff166127e68385610e13565b516040016127f39061246b565b6127fd8486610e13565b516060015167ffffffffffffffff166128168587610e13565b516080015167ffffffffffffffff16906128308688610e13565b5160a001511515926128428789610e13565b5160400161284f9061246b565b61285890612bb8565b946128616110b0565b9661286c9088612486565b61ffff1660208701526128829060408701612490565b67ffffffffffffffff16606085015267ffffffffffffffff166080840152151560a083015260c08201526128b68285610e13565b526128c18184610e13565b506001016127a3565b505090565b6128e391503d805f833e6115b58183610ccb565b5f612788565b610170906128fd611fb46102da6001611131565b612940565b1561290957565b60405162461bcd60e51b815260206004820152600f60248201526e496e76616c6964206164647265737360881b6044820152606490fd5b61296061294f6102da5f611fcd565b6001600160a01b0383161415612902565b61298161297b6129706001611131565b611471846001612022565b91610bff565b907f8be0079c531659141344cd1fd0a4f28419497f9722a3daafe3b4186f6b6457e06129ac60405190565b5f90a3565b610170906128e9565b61017b6040610cf2565b6129cc6129ba565b905f82525f6020830152565b61017b6129c4565b6129e86129d8565b506129f56114715f611131565b5f6129ff60405190565b634b1d06d760e01b815291829060049082905afa80156115c857612a28915f91612a3e57505190565b612a33610d306129ba565b61017b426020830152565b611aca91503d805f833e6118fd8183610ccb565b906020828203126101355761017b9161122b565b602081019291610170919061017e565b906020828203126101355761017b91611200565b90612a93610d62565b50612aa06114715f611131565b906020612aac60405190565b928390634c94bb5560e11b82528180612ac88860048301612a66565b03915afa9182156115c8575f92612b87575b50612ae76114715f611131565b6020612af260405190565b9182906361fbc71d60e11b82528180612b0e8960048301612a66565b03915afa80156115c85761017b936119a1925f92612b52575b50612b4790612b3e612b37610d35565b9788612486565b15156020870152565b61ffff166040850152565b612b47919250612b799060203d602011612b80575b612b718183610ccb565b810190612a76565b9190612b27565b503d612b67565b612baa91925060203d602011612bb1575b612ba28183610ccb565b810190612a52565b905f612ada565b503d612b98565b612bc15f6103e8565b612bca826103e8565b14612c6757612bd960016103e8565b612be2826103e8565b14612c5b57612bf160026103e8565b612bfa826103e8565b14612c4f57612c0960036103e8565b612c12826103e8565b14612c4357612c2a612c2460046103e8565b916103e8565b14612c385761017b5f610caa565b61017b611f40610caa565b5061017b610fa0610caa565b5061017b6107d0610caa565b5061017b6103e8610caa565b5061017b5f610caa565b612c7a5f6103e8565b612c83826103e8565b14612d1657612c9260016103e8565b612c9b826103e8565b14612d0b57612caa60026103e8565b612cb3826103e8565b14612d0057612cc260036103e8565b612ccb826103e8565b14612cf557612cdd612c2460046103e8565b14612ceb5761017b5f611ace565b61017b600a611ace565b5061017b6009611ace565b5061017b6007611ace565b5061017b6005611ace565b5061017b6003611ace56fea26469706673582212209e74a04781f33480cf078d3a5e4ef94411511b090ac47a6af9293bba0c98d0e264736f6c634300081c0033",
  "linkReferences": {},
  "deployedLinkReferences": {}
}