{
  "_format": "hh-sol-artifact-1",
  "contractName": "EnhancedSmartStaking",
  "sourceName": "contracts/SmartStaking/EnhancedSmartStaking.sol",
  "abi": [
    {
      "inputs": [
        {
          "internalType": "address",
          "name": "_treasury",
          "type": "address"
        }
      ],
      "stateMutability": "nonpayable",
      "type": "constructor"
    },
    {
      "inputs": [],
      "name": "AlreadyMigrated",
      "type": "error"
    },
    {
      "inputs": [],
      "name": "AutoCompoundNotActive",
      "type": "error"
    },
    {
      "inputs": [
        {
          "internalType": "uint256",
          "name": "provided",
          "type": "uint256"
        },
        {
          "internalType": "uint256",
          "name": "maximum",
          "type": "uint256"
        }
      ],
      "name": "BatchSizeTooLarge",
      "type": "error"
    },
    {
      "inputs": [
        {
          "internalType": "address",
          "name": "treasury",
          "type": "address"
        },
        {
          "internalType": "uint256",
          "name": "amount",
          "type": "uint256"
        }
      ],
      "name": "CommissionTransferFailed",
      "type": "error"
    },
    {
      "inputs": [],
      "name": "ContractIsMigrated",
      "type": "error"
    },
    {
      "inputs": [
        {
          "internalType": "uint256",
          "name": "availableToWithdraw",
          "type": "uint256"
        }
      ],
      "name": "DailyWithdrawalLimitExceeded",
      "type": "error"
    },
    {
      "inputs": [
        {
          "internalType": "uint256",
          "name": "provided",
          "type": "uint256"
        },
        {
          "internalType": "uint256",
          "name": "maximum",
          "type": "uint256"
        }
      ],
      "name": "DepositTooHigh",
      "type": "error"
    },
    {
      "inputs": [
        {
          "internalType": "uint256",
          "name": "provided",
          "type": "uint256"
        },
        {
          "internalType": "uint256",
          "name": "minimum",
          "type": "uint256"
        }
      ],
      "name": "DepositTooLow",
      "type": "error"
    },
    {
      "inputs": [],
      "name": "FundsAreLocked",
      "type": "error"
    },
    {
      "inputs": [],
      "name": "InsufficientBalance",
      "type": "error"
    },
    {
      "inputs": [],
      "name": "InsufficientSkillNFTs",
      "type": "error"
    },
    {
      "inputs": [],
      "name": "InvalidAddress",
      "type": "error"
    },
    {
      "inputs": [],
      "name": "InvalidEffectValue",
      "type": "error"
    },
    {
      "inputs": [],
      "name": "InvalidLockupDuration",
      "type": "error"
    },
    {
      "inputs": [
        {
          "internalType": "uint256",
          "name": "expected",
          "type": "uint256"
        },
        {
          "internalType": "uint256",
          "name": "provided",
          "type": "uint256"
        }
      ],
      "name": "InvalidPrice",
      "type": "error"
    },
    {
      "inputs": [],
      "name": "LevelUpNotEligible",
      "type": "error"
    },
    {
      "inputs": [
        {
          "internalType": "address",
          "name": "user",
          "type": "address"
        },
        {
          "internalType": "uint8",
          "name": "maxSkills",
          "type": "uint8"
        }
      ],
      "name": "MaxActiveSkillsReached",
      "type": "error"
    },
    {
      "inputs": [
        {
          "internalType": "address",
          "name": "user",
          "type": "address"
        },
        {
          "internalType": "uint16",
          "name": "maxDeposits",
          "type": "uint16"
        }
      ],
      "name": "MaxDepositsReached",
      "type": "error"
    },
    {
      "inputs": [],
      "name": "NoDepositsFound",
      "type": "error"
    },
    {
      "inputs": [],
      "name": "NoPendingCommission",
      "type": "error"
    },
    {
      "inputs": [],
      "name": "NoRewardsAvailable",
      "type": "error"
    },
    {
      "inputs": [],
      "name": "OnlyMarketplace",
      "type": "error"
    },
    {
      "inputs": [],
      "name": "SkillAlreadyActive",
      "type": "error"
    },
    {
      "inputs": [],
      "name": "SkillNotActive",
      "type": "error"
    },
    {
      "inputs": [],
      "name": "SkillTypeDisabled",
      "type": "error"
    },
    {
      "inputs": [],
      "name": "UnauthorizedSender",
      "type": "error"
    },
    {
      "anonymous": false,
      "inputs": [
        {
          "indexed": true,
          "internalType": "address",
          "name": "user",
          "type": "address"
        },
        {
          "indexed": false,
          "internalType": "uint256",
          "name": "achievementId",
          "type": "uint256"
        },
        {
          "indexed": false,
          "internalType": "uint256",
          "name": "rewardAmount",
          "type": "uint256"
        },
        {
          "indexed": false,
          "internalType": "uint256",
          "name": "timestamp",
          "type": "uint256"
        }
      ],
      "name": "AchievementRewardObtained",
      "type": "event"
    },
    {
      "anonymous": false,
      "inputs": [
        {
          "indexed": true,
          "internalType": "address",
          "name": "user",
          "type": "address"
        },
        {
          "indexed": false,
          "internalType": "uint256",
          "name": "compoundedAmount",
          "type": "uint256"
        }
      ],
      "name": "AutoCompoundTriggered",
      "type": "event"
    },
    {
      "anonymous": false,
      "inputs": [
        {
          "indexed": true,
          "internalType": "address",
          "name": "user",
          "type": "address"
        },
        {
          "indexed": false,
          "internalType": "uint256",
          "name": "amount",
          "type": "uint256"
        }
      ],
      "name": "AutoCompounded",
      "type": "event"
    },
    {
      "anonymous": false,
      "inputs": [
        {
          "indexed": true,
          "internalType": "address",
          "name": "receiver",
          "type": "address"
        },
        {
          "indexed": false,
          "internalType": "uint256",
          "name": "amount",
          "type": "uint256"
        },
        {
          "indexed": false,
          "internalType": "uint256",
          "name": "timestamp",
          "type": "uint256"
        }
      ],
      "name": "CommissionPaid",
      "type": "event"
    },
    {
      "anonymous": false,
      "inputs": [
        {
          "indexed": true,
          "internalType": "address",
          "name": "user",
          "type": "address"
        },
        {
          "indexed": false,
          "internalType": "uint256",
          "name": "amount",
          "type": "uint256"
        }
      ],
      "name": "Compounded",
      "type": "event"
    },
    {
      "anonymous": false,
      "inputs": [
        {
          "indexed": true,
          "internalType": "address",
          "name": "user",
          "type": "address"
        },
        {
          "indexed": false,
          "internalType": "uint256",
          "name": "amount",
          "type": "uint256"
        },
        {
          "indexed": false,
          "internalType": "uint256",
          "name": "lockupDuration",
          "type": "uint256"
        }
      ],
      "name": "Deposited",
      "type": "event"
    },
    {
      "anonymous": false,
      "inputs": [
        {
          "indexed": true,
          "internalType": "address",
          "name": "user",
          "type": "address"
        },
        {
          "indexed": false,
          "internalType": "uint256",
          "name": "amount",
          "type": "uint256"
        }
      ],
      "name": "EmergencyRewardClaimed",
      "type": "event"
    },
    {
      "anonymous": false,
      "inputs": [
        {
          "indexed": true,
          "internalType": "address",
          "name": "user",
          "type": "address"
        },
        {
          "indexed": false,
          "internalType": "uint256",
          "name": "amount",
          "type": "uint256"
        }
      ],
      "name": "EmergencyWithdrawal",
      "type": "event"
    },
    {
      "anonymous": false,
      "inputs": [
        {
          "indexed": true,
          "internalType": "address",
          "name": "oldMarketplace",
          "type": "address"
        },
        {
          "indexed": true,
          "internalType": "address",
          "name": "newMarketplace",
          "type": "address"
        }
      ],
      "name": "MarketplaceUpdated",
      "type": "event"
    },
    {
      "anonymous": false,
      "inputs": [
        {
          "indexed": true,
          "internalType": "address",
          "name": "newContract",
          "type": "address"
        }
      ],
      "name": "MigrationInitiated",
      "type": "event"
    },
    {
      "anonymous": false,
      "inputs": [
        {
          "indexed": true,
          "internalType": "address",
          "name": "user",
          "type": "address"
        },
        {
          "indexed": true,
          "internalType": "uint256",
          "name": "tokenId",
          "type": "uint256"
        }
      ],
      "name": "NFTStaked",
      "type": "event"
    },
    {
      "anonymous": false,
      "inputs": [
        {
          "indexed": true,
          "internalType": "address",
          "name": "user",
          "type": "address"
        },
        {
          "indexed": true,
          "internalType": "uint256",
          "name": "tokenId",
          "type": "uint256"
        }
      ],
      "name": "NFTUnstaked",
      "type": "event"
    },
    {
      "anonymous": false,
      "inputs": [
        {
          "indexed": true,
          "internalType": "address",
          "name": "previousOwner",
          "type": "address"
        },
        {
          "indexed": true,
          "internalType": "address",
          "name": "newOwner",
          "type": "address"
        }
      ],
      "name": "OwnershipTransferred",
      "type": "event"
    },
    {
      "anonymous": false,
      "inputs": [
        {
          "indexed": false,
          "internalType": "address",
          "name": "account",
          "type": "address"
        }
      ],
      "name": "Paused",
      "type": "event"
    },
    {
      "anonymous": false,
      "inputs": [
        {
          "indexed": true,
          "internalType": "address",
          "name": "user",
          "type": "address"
        },
        {
          "indexed": false,
          "internalType": "uint256",
          "name": "questId",
          "type": "uint256"
        },
        {
          "indexed": false,
          "internalType": "uint256",
          "name": "rewardAmount",
          "type": "uint256"
        },
        {
          "indexed": false,
          "internalType": "uint256",
          "name": "timestamp",
          "type": "uint256"
        }
      ],
      "name": "QuestRewardObtained",
      "type": "event"
    },
    {
      "anonymous": false,
      "inputs": [
        {
          "indexed": true,
          "internalType": "address",
          "name": "user",
          "type": "address"
        },
        {
          "indexed": false,
          "internalType": "uint256",
          "name": "amount",
          "type": "uint256"
        }
      ],
      "name": "RewardsCompounded",
      "type": "event"
    },
    {
      "anonymous": false,
      "inputs": [
        {
          "indexed": true,
          "internalType": "address",
          "name": "user",
          "type": "address"
        },
        {
          "indexed": true,
          "internalType": "uint256",
          "name": "nftId",
          "type": "uint256"
        },
        {
          "indexed": false,
          "internalType": "enum IStakingIntegration.SkillType",
          "name": "skillType",
          "type": "uint8"
        },
        {
          "indexed": false,
          "internalType": "uint16",
          "name": "effectValue",
          "type": "uint16"
        }
      ],
      "name": "SkillActivated",
      "type": "event"
    },
    {
      "anonymous": false,
      "inputs": [
        {
          "indexed": true,
          "internalType": "address",
          "name": "user",
          "type": "address"
        },
        {
          "indexed": true,
          "internalType": "uint256",
          "name": "tokenId",
          "type": "uint256"
        },
        {
          "indexed": false,
          "internalType": "enum IStakingIntegration.SkillType",
          "name": "skillType",
          "type": "uint8"
        },
        {
          "indexed": false,
          "internalType": "uint8",
          "name": "skillLevel",
          "type": "uint8"
        }
      ],
      "name": "SkillApplied",
      "type": "event"
    },
    {
      "anonymous": false,
      "inputs": [
        {
          "indexed": true,
          "internalType": "address",
          "name": "user",
          "type": "address"
        },
        {
          "indexed": true,
          "internalType": "uint256",
          "name": "nftId",
          "type": "uint256"
        },
        {
          "indexed": false,
          "internalType": "enum IStakingIntegration.SkillType",
          "name": "skillType",
          "type": "uint8"
        }
      ],
      "name": "SkillDeactivated",
      "type": "event"
    },
    {
      "anonymous": false,
      "inputs": [
        {
          "indexed": true,
          "internalType": "address",
          "name": "user",
          "type": "address"
        },
        {
          "indexed": false,
          "internalType": "uint8",
          "name": "level",
          "type": "uint8"
        },
        {
          "indexed": false,
          "internalType": "uint8",
          "name": "maxActiveSkills",
          "type": "uint8"
        },
        {
          "indexed": false,
          "internalType": "uint16",
          "name": "stakingBoostTotal",
          "type": "uint16"
        }
      ],
      "name": "SkillProfileUpdated",
      "type": "event"
    },
    {
      "anonymous": false,
      "inputs": [
        {
          "indexed": true,
          "internalType": "address",
          "name": "user",
          "type": "address"
        },
        {
          "indexed": true,
          "internalType": "uint256",
          "name": "tokenId",
          "type": "uint256"
        },
        {
          "indexed": false,
          "internalType": "enum IStakingIntegration.SkillType",
          "name": "skillType",
          "type": "uint8"
        }
      ],
      "name": "SkillRemoved",
      "type": "event"
    },
    {
      "anonymous": false,
      "inputs": [
        {
          "indexed": true,
          "internalType": "address",
          "name": "user",
          "type": "address"
        },
        {
          "indexed": true,
          "internalType": "uint256",
          "name": "tokenId",
          "type": "uint256"
        },
        {
          "indexed": false,
          "internalType": "enum IStakingIntegration.Rarity",
          "name": "newRarity",
          "type": "uint8"
        },
        {
          "indexed": false,
          "internalType": "uint256",
          "name": "upgradeReward",
          "type": "uint256"
        }
      ],
      "name": "SkillUpgraded",
      "type": "event"
    },
    {
      "anonymous": false,
      "inputs": [
        {
          "indexed": true,
          "internalType": "address",
          "name": "oldTreasury",
          "type": "address"
        },
        {
          "indexed": true,
          "internalType": "address",
          "name": "newTreasury",
          "type": "address"
        }
      ],
      "name": "TreasuryUpdated",
      "type": "event"
    },
    {
      "anonymous": false,
      "inputs": [
        {
          "indexed": false,
          "internalType": "address",
          "name": "account",
          "type": "address"
        }
      ],
      "name": "Unpaused",
      "type": "event"
    },
    {
      "anonymous": false,
      "inputs": [
        {
          "indexed": true,
          "internalType": "address",
          "name": "user",
          "type": "address"
        },
        {
          "indexed": false,
          "internalType": "uint256",
          "name": "totalAmount",
          "type": "uint256"
        }
      ],
      "name": "WithdrawAll",
      "type": "event"
    },
    {
      "anonymous": false,
      "inputs": [
        {
          "indexed": true,
          "internalType": "address",
          "name": "user",
          "type": "address"
        },
        {
          "indexed": false,
          "internalType": "uint256",
          "name": "amount",
          "type": "uint256"
        },
        {
          "indexed": false,
          "internalType": "uint256",
          "name": "commission",
          "type": "uint256"
        },
        {
          "indexed": false,
          "internalType": "uint256",
          "name": "timestamp",
          "type": "uint256"
        },
        {
          "indexed": false,
          "internalType": "uint256",
          "name": "depositId",
          "type": "uint256"
        }
      ],
      "name": "WithdrawalMade",
      "type": "event"
    },
    {
      "anonymous": false,
      "inputs": [
        {
          "indexed": true,
          "internalType": "address",
          "name": "user",
          "type": "address"
        },
        {
          "indexed": false,
          "internalType": "uint256",
          "name": "amount",
          "type": "uint256"
        }
      ],
      "name": "Withdrawn",
      "type": "event"
    },
    {
      "inputs": [],
      "name": "AUTO_COMPOUND_INTERVAL",
      "outputs": [
        {
          "internalType": "uint64",
          "name": "",
          "type": "uint64"
        }
      ],
      "stateMutability": "view",
      "type": "function"
    },
    {
      "inputs": [],
      "name": "achievementRewardExpirationTime",
      "outputs": [
        {
          "internalType": "uint256",
          "name": "",
          "type": "uint256"
        }
      ],
      "stateMutability": "view",
      "type": "function"
    },
    {
      "inputs": [
        {
          "internalType": "address[]",
          "name": "userAddresses",
          "type": "address[]"
        }
      ],
      "name": "batchAutoCompound",
      "outputs": [],
      "stateMutability": "nonpayable",
      "type": "function"
    },
    {
      "inputs": [
        {
          "internalType": "address",
          "name": "user",
          "type": "address"
        },
        {
          "internalType": "uint256",
          "name": "baseAPY",
          "type": "uint256"
        }
      ],
      "name": "calculateBoostedAPY",
      "outputs": [
        {
          "internalType": "uint256",
          "name": "",
          "type": "uint256"
        }
      ],
      "stateMutability": "view",
      "type": "function"
    },
    {
      "inputs": [
        {
          "internalType": "address",
          "name": "userAddress",
          "type": "address"
        }
      ],
      "name": "calculateBoostedRewards",
      "outputs": [
        {
          "internalType": "uint256",
          "name": "totalRewards",
          "type": "uint256"
        }
      ],
      "stateMutability": "view",
      "type": "function"
    },
    {
      "inputs": [
        {
          "internalType": "address",
          "name": "user",
          "type": "address"
        }
      ],
      "name": "calculateBoostedRewardsWithRarityMultiplier",
      "outputs": [
        {
          "internalType": "uint256",
          "name": "totalBoosted",
          "type": "uint256"
        }
      ],
      "stateMutability": "view",
      "type": "function"
    },
    {
      "inputs": [
        {
          "internalType": "address",
          "name": "user",
          "type": "address"
        },
        {
          "internalType": "uint256",
          "name": "baseFee",
          "type": "uint256"
        }
      ],
      "name": "calculateFeeDiscount",
      "outputs": [
        {
          "internalType": "uint256",
          "name": "",
          "type": "uint256"
        }
      ],
      "stateMutability": "view",
      "type": "function"
    },
    {
      "inputs": [
        {
          "internalType": "address",
          "name": "user",
          "type": "address"
        },
        {
          "internalType": "uint256",
          "name": "baseLockTime",
          "type": "uint256"
        }
      ],
      "name": "calculateReducedLockTime",
      "outputs": [
        {
          "internalType": "uint256",
          "name": "",
          "type": "uint256"
        }
      ],
      "stateMutability": "view",
      "type": "function"
    },
    {
      "inputs": [
        {
          "internalType": "address",
          "name": "userAddress",
          "type": "address"
        }
      ],
      "name": "calculateRewards",
      "outputs": [
        {
          "internalType": "uint256",
          "name": "totalRewards",
          "type": "uint256"
        }
      ],
      "stateMutability": "view",
      "type": "function"
    },
    {
      "inputs": [
        {
          "internalType": "address",
          "name": "_newTreasury",
          "type": "address"
        }
      ],
      "name": "changeTreasuryAddress",
      "outputs": [],
      "stateMutability": "nonpayable",
      "type": "function"
    },
    {
      "inputs": [
        {
          "internalType": "address",
          "name": "user",
          "type": "address"
        }
      ],
      "name": "checkAutoCompound",
      "outputs": [
        {
          "internalType": "bool",
          "name": "upkeepNeeded",
          "type": "bool"
        },
        {
          "internalType": "bytes",
          "name": "performData",
          "type": "bytes"
        }
      ],
      "stateMutability": "view",
      "type": "function"
    },
    {
      "inputs": [],
      "name": "compound",
      "outputs": [],
      "stateMutability": "nonpayable",
      "type": "function"
    },
    {
      "inputs": [
        {
          "internalType": "uint64",
          "name": "_lockupDuration",
          "type": "uint64"
        }
      ],
      "name": "deposit",
      "outputs": [],
      "stateMutability": "payable",
      "type": "function"
    },
    {
      "inputs": [
        {
          "internalType": "uint64",
          "name": "_lockupDuration",
          "type": "uint64"
        }
      ],
      "name": "depositWithBoosts",
      "outputs": [],
      "stateMutability": "payable",
      "type": "function"
    },
    {
      "inputs": [
        {
          "internalType": "uint256",
          "name": "_amount",
          "type": "uint256"
        }
      ],
      "name": "emergencyWithdraw",
      "outputs": [],
      "stateMutability": "nonpayable",
      "type": "function"
    },
    {
      "inputs": [],
      "name": "emergencyWithdrawAll",
      "outputs": [],
      "stateMutability": "nonpayable",
      "type": "function"
    },
    {
      "inputs": [
        {
          "internalType": "address",
          "name": "user",
          "type": "address"
        }
      ],
      "name": "getActiveSkills",
      "outputs": [
        {
          "components": [
            {
              "internalType": "enum IStakingIntegration.SkillType",
              "name": "skillType",
              "type": "uint8"
            },
            {
              "internalType": "uint16",
              "name": "effectValue",
              "type": "uint16"
            },
            {
              "internalType": "enum IStakingIntegration.Rarity",
              "name": "rarity",
              "type": "uint8"
            },
            {
              "internalType": "uint64",
              "name": "activatedAt",
              "type": "uint64"
            },
            {
              "internalType": "uint64",
              "name": "cooldownEnds",
              "type": "uint64"
            },
            {
              "internalType": "bool",
              "name": "isActive",
              "type": "bool"
            }
          ],
          "internalType": "struct IStakingIntegration.NFTSkill[]",
          "name": "",
          "type": "tuple[]"
        }
      ],
      "stateMutability": "view",
      "type": "function"
    },
    {
      "inputs": [
        {
          "internalType": "address",
          "name": "user",
          "type": "address"
        }
      ],
      "name": "getActiveSkillsWithDetails",
      "outputs": [
        {
          "internalType": "uint256[]",
          "name": "nftIds",
          "type": "uint256[]"
        },
        {
          "internalType": "enum IStakingIntegration.SkillType[]",
          "name": "skillTypes",
          "type": "uint8[]"
        },
        {
          "internalType": "enum IStakingIntegration.Rarity[]",
          "name": "rarities",
          "type": "uint8[]"
        },
        {
          "internalType": "uint16[]",
          "name": "effectValues",
          "type": "uint16[]"
        },
        {
          "internalType": "uint8[]",
          "name": "rarityStars",
          "type": "uint8[]"
        }
      ],
      "stateMutability": "view",
      "type": "function"
    },
    {
      "inputs": [],
      "name": "getAutoCompoundUsers",
      "outputs": [
        {
          "internalType": "address[]",
          "name": "",
          "type": "address[]"
        }
      ],
      "stateMutability": "view",
      "type": "function"
    },
    {
      "inputs": [],
      "name": "getAvailableSkillsConfiguration",
      "outputs": [
        {
          "internalType": "enum IStakingIntegration.SkillType[]",
          "name": "skillTypes",
          "type": "uint8[]"
        },
        {
          "internalType": "uint16[]",
          "name": "defaultEffects",
          "type": "uint16[]"
        },
        {
          "internalType": "bool[]",
          "name": "enabled",
          "type": "bool[]"
        }
      ],
      "stateMutability": "view",
      "type": "function"
    },
    {
      "inputs": [],
      "name": "getContractBalance",
      "outputs": [
        {
          "internalType": "uint256",
          "name": "",
          "type": "uint256"
        }
      ],
      "stateMutability": "view",
      "type": "function"
    },
    {
      "inputs": [
        {
          "internalType": "uint256",
          "name": "nftId",
          "type": "uint256"
        }
      ],
      "name": "getSkillRarity",
      "outputs": [
        {
          "internalType": "enum IStakingIntegration.Rarity",
          "name": "",
          "type": "uint8"
        }
      ],
      "stateMutability": "view",
      "type": "function"
    },
    {
      "inputs": [
        {
          "internalType": "address",
          "name": "userAddress",
          "type": "address"
        }
      ],
      "name": "getTotalDeposit",
      "outputs": [
        {
          "internalType": "uint256",
          "name": "",
          "type": "uint256"
        }
      ],
      "stateMutability": "view",
      "type": "function"
    },
    {
      "inputs": [
        {
          "internalType": "address",
          "name": "userAddress",
          "type": "address"
        }
      ],
      "name": "getUserDeposits",
      "outputs": [
        {
          "components": [
            {
              "internalType": "uint128",
              "name": "amount",
              "type": "uint128"
            },
            {
              "internalType": "uint64",
              "name": "timestamp",
              "type": "uint64"
            },
            {
              "internalType": "uint64",
              "name": "lastClaimTime",
              "type": "uint64"
            },
            {
              "internalType": "uint64",
              "name": "lockupDuration",
              "type": "uint64"
            }
          ],
          "internalType": "struct EnhancedSmartStaking.Deposit[]",
          "name": "",
          "type": "tuple[]"
        }
      ],
      "stateMutability": "view",
      "type": "function"
    },
    {
      "inputs": [
        {
          "internalType": "address",
          "name": "user",
          "type": "address"
        }
      ],
      "name": "getUserDetailedStats",
      "outputs": [
        {
          "internalType": "uint256",
          "name": "totalStaked",
          "type": "uint256"
        },
        {
          "internalType": "uint256",
          "name": "baseRewards",
          "type": "uint256"
        },
        {
          "internalType": "uint256",
          "name": "boostedRewards",
          "type": "uint256"
        },
        {
          "internalType": "uint256",
          "name": "questRewards",
          "type": "uint256"
        },
        {
          "internalType": "uint256",
          "name": "achievementRewards",
          "type": "uint256"
        },
        {
          "internalType": "uint8",
          "name": "skillLevel",
          "type": "uint8"
        },
        {
          "internalType": "uint8",
          "name": "activeSkillsCount",
          "type": "uint8"
        },
        {
          "internalType": "bool",
          "name": "hasAutoCompoundSkill",
          "type": "bool"
        }
      ],
      "stateMutability": "view",
      "type": "function"
    },
    {
      "inputs": [
        {
          "internalType": "address",
          "name": "userAddress",
          "type": "address"
        }
      ],
      "name": "getUserInfo",
      "outputs": [
        {
          "internalType": "uint256",
          "name": "totalDeposited",
          "type": "uint256"
        },
        {
          "internalType": "uint256",
          "name": "totalRewards",
          "type": "uint256"
        },
        {
          "internalType": "uint256",
          "name": "depositCount",
          "type": "uint256"
        },
        {
          "internalType": "uint256",
          "name": "lastWithdrawTime",
          "type": "uint256"
        }
      ],
      "stateMutability": "view",
      "type": "function"
    },
    {
      "inputs": [
        {
          "internalType": "address",
          "name": "userAddress",
          "type": "address"
        }
      ],
      "name": "getUserInfoWithSkills",
      "outputs": [
        {
          "internalType": "uint256",
          "name": "totalDeposited",
          "type": "uint256"
        },
        {
          "internalType": "uint256",
          "name": "baseRewards",
          "type": "uint256"
        },
        {
          "internalType": "uint256",
          "name": "boostedRewards",
          "type": "uint256"
        },
        {
          "internalType": "uint256",
          "name": "lastWithdraw",
          "type": "uint256"
        },
        {
          "internalType": "uint16",
          "name": "stakingBoost",
          "type": "uint16"
        },
        {
          "internalType": "bool",
          "name": "hasAutoCompound_",
          "type": "bool"
        },
        {
          "internalType": "uint8",
          "name": "level",
          "type": "uint8"
        },
        {
          "internalType": "uint8",
          "name": "activeSkillCount",
          "type": "uint8"
        }
      ],
      "stateMutability": "view",
      "type": "function"
    },
    {
      "inputs": [
        {
          "internalType": "address",
          "name": "user",
          "type": "address"
        }
      ],
      "name": "getUserSkillProfile",
      "outputs": [
        {
          "components": [
            {
              "internalType": "uint256[]",
              "name": "activeNFTIds",
              "type": "uint256[]"
            },
            {
              "internalType": "uint256",
              "name": "totalXP",
              "type": "uint256"
            },
            {
              "internalType": "uint8",
              "name": "level",
              "type": "uint8"
            },
            {
              "internalType": "uint8",
              "name": "maxActiveSkills",
              "type": "uint8"
            },
            {
              "internalType": "uint16",
              "name": "stakingBoostTotal",
              "type": "uint16"
            },
            {
              "internalType": "uint16",
              "name": "feeDiscountTotal",
              "type": "uint16"
            },
            {
              "internalType": "bool",
              "name": "hasAutoCompound",
              "type": "bool"
            }
          ],
          "internalType": "struct IStakingIntegration.UserSkillProfile",
          "name": "",
          "type": "tuple"
        }
      ],
      "stateMutability": "view",
      "type": "function"
    },
    {
      "inputs": [
        {
          "internalType": "address",
          "name": "user",
          "type": "address"
        }
      ],
      "name": "hasAutoCompound",
      "outputs": [
        {
          "internalType": "bool",
          "name": "",
          "type": "bool"
        }
      ],
      "stateMutability": "view",
      "type": "function"
    },
    {
      "inputs": [
        {
          "internalType": "address",
          "name": "",
          "type": "address"
        }
      ],
      "name": "lastAchievementUnlockTime",
      "outputs": [
        {
          "internalType": "uint256",
          "name": "",
          "type": "uint256"
        }
      ],
      "stateMutability": "view",
      "type": "function"
    },
    {
      "inputs": [],
      "name": "lastAutoCompoundExecution",
      "outputs": [
        {
          "internalType": "uint64",
          "name": "",
          "type": "uint64"
        }
      ],
      "stateMutability": "view",
      "type": "function"
    },
    {
      "inputs": [
        {
          "internalType": "address",
          "name": "",
          "type": "address"
        }
      ],
      "name": "lastQuestCompletionTime",
      "outputs": [
        {
          "internalType": "uint256",
          "name": "",
          "type": "uint256"
        }
      ],
      "stateMutability": "view",
      "type": "function"
    },
    {
      "inputs": [],
      "name": "marketplaceContract",
      "outputs": [
        {
          "internalType": "address",
          "name": "",
          "type": "address"
        }
      ],
      "stateMutability": "view",
      "type": "function"
    },
    {
      "inputs": [],
      "name": "migrated",
      "outputs": [
        {
          "internalType": "bool",
          "name": "",
          "type": "bool"
        }
      ],
      "stateMutability": "view",
      "type": "function"
    },
    {
      "inputs": [],
      "name": "newContractAddress",
      "outputs": [
        {
          "internalType": "address",
          "name": "",
          "type": "address"
        }
      ],
      "stateMutability": "view",
      "type": "function"
    },
    {
      "inputs": [
        {
          "internalType": "uint256",
          "name": "",
          "type": "uint256"
        }
      ],
      "name": "nftRarity",
      "outputs": [
        {
          "internalType": "enum IStakingIntegration.Rarity",
          "name": "",
          "type": "uint8"
        }
      ],
      "stateMutability": "view",
      "type": "function"
    },
    {
      "inputs": [
        {
          "internalType": "uint256",
          "name": "",
          "type": "uint256"
        }
      ],
      "name": "nftSkills",
      "outputs": [
        {
          "internalType": "enum IStakingIntegration.SkillType",
          "name": "skillType",
          "type": "uint8"
        },
        {
          "internalType": "uint16",
          "name": "effectValue",
          "type": "uint16"
        },
        {
          "internalType": "enum IStakingIntegration.Rarity",
          "name": "rarity",
          "type": "uint8"
        },
        {
          "internalType": "uint64",
          "name": "activatedAt",
          "type": "uint64"
        },
        {
          "internalType": "uint64",
          "name": "cooldownEnds",
          "type": "uint64"
        },
        {
          "internalType": "bool",
          "name": "isActive",
          "type": "bool"
        }
      ],
      "stateMutability": "view",
      "type": "function"
    },
    {
      "inputs": [
        {
          "internalType": "address",
          "name": "user",
          "type": "address"
        },
        {
          "internalType": "uint256",
          "name": "achievementId",
          "type": "uint256"
        },
        {
          "internalType": "uint256",
          "name": "rewardAmount",
          "type": "uint256"
        }
      ],
      "name": "notifyAchievementUnlocked",
      "outputs": [],
      "stateMutability": "nonpayable",
      "type": "function"
    },
    {
      "inputs": [
        {
          "internalType": "address",
          "name": "user",
          "type": "address"
        },
        {
          "internalType": "uint256",
          "name": "questId",
          "type": "uint256"
        },
        {
          "internalType": "uint256",
          "name": "rewardAmount",
          "type": "uint256"
        }
      ],
      "name": "notifyQuestCompletion",
      "outputs": [],
      "stateMutability": "nonpayable",
      "type": "function"
    },
    {
      "inputs": [
        {
          "internalType": "address",
          "name": "user",
          "type": "address"
        },
        {
          "internalType": "uint256",
          "name": "nftId",
          "type": "uint256"
        },
        {
          "internalType": "enum IStakingIntegration.SkillType",
          "name": "skillType",
          "type": "uint8"
        },
        {
          "internalType": "uint16",
          "name": "effectValue",
          "type": "uint16"
        }
      ],
      "name": "notifySkillActivation",
      "outputs": [],
      "stateMutability": "nonpayable",
      "type": "function"
    },
    {
      "inputs": [
        {
          "internalType": "address",
          "name": "user",
          "type": "address"
        },
        {
          "internalType": "uint256",
          "name": "nftId",
          "type": "uint256"
        }
      ],
      "name": "notifySkillDeactivation",
      "outputs": [],
      "stateMutability": "nonpayable",
      "type": "function"
    },
    {
      "inputs": [
        {
          "internalType": "address",
          "name": "user",
          "type": "address"
        },
        {
          "internalType": "uint256",
          "name": "oldSkillId1",
          "type": "uint256"
        },
        {
          "internalType": "uint256",
          "name": "oldSkillId2",
          "type": "uint256"
        },
        {
          "internalType": "uint256",
          "name": "newSkillId",
          "type": "uint256"
        },
        {
          "internalType": "enum IStakingIntegration.Rarity",
          "name": "newRarity",
          "type": "uint8"
        }
      ],
      "name": "notifySkillUpgrade",
      "outputs": [],
      "stateMutability": "nonpayable",
      "type": "function"
    },
    {
      "inputs": [],
      "name": "owner",
      "outputs": [
        {
          "internalType": "address",
          "name": "",
          "type": "address"
        }
      ],
      "stateMutability": "view",
      "type": "function"
    },
    {
      "inputs": [],
      "name": "pause",
      "outputs": [],
      "stateMutability": "nonpayable",
      "type": "function"
    },
    {
      "inputs": [],
      "name": "paused",
      "outputs": [
        {
          "internalType": "bool",
          "name": "",
          "type": "bool"
        }
      ],
      "stateMutability": "view",
      "type": "function"
    },
    {
      "inputs": [
        {
          "internalType": "bytes",
          "name": "performData",
          "type": "bytes"
        }
      ],
      "name": "performAutoCompound",
      "outputs": [],
      "stateMutability": "nonpayable",
      "type": "function"
    },
    {
      "inputs": [],
      "name": "questRewardExpirationTime",
      "outputs": [
        {
          "internalType": "uint256",
          "name": "",
          "type": "uint256"
        }
      ],
      "stateMutability": "view",
      "type": "function"
    },
    {
      "inputs": [],
      "name": "renounceOwnership",
      "outputs": [],
      "stateMutability": "nonpayable",
      "type": "function"
    },
    {
      "inputs": [
        {
          "internalType": "address",
          "name": "_marketplace",
          "type": "address"
        }
      ],
      "name": "setMarketplaceAddress",
      "outputs": [],
      "stateMutability": "nonpayable",
      "type": "function"
    },
    {
      "inputs": [
        {
          "internalType": "enum IStakingIntegration.SkillType",
          "name": "skillType",
          "type": "uint8"
        },
        {
          "internalType": "bool",
          "name": "enabled",
          "type": "bool"
        }
      ],
      "name": "setSkillEnabled",
      "outputs": [],
      "stateMutability": "nonpayable",
      "type": "function"
    },
    {
      "inputs": [
        {
          "internalType": "uint256",
          "name": "nftId",
          "type": "uint256"
        },
        {
          "internalType": "enum IStakingIntegration.Rarity",
          "name": "rarity",
          "type": "uint8"
        }
      ],
      "name": "setSkillRarity",
      "outputs": [],
      "stateMutability": "nonpayable",
      "type": "function"
    },
    {
      "inputs": [
        {
          "internalType": "address",
          "name": "",
          "type": "address"
        }
      ],
      "name": "setStakingAddress",
      "outputs": [],
      "stateMutability": "view",
      "type": "function"
    },
    {
      "inputs": [
        {
          "internalType": "enum IStakingIntegration.SkillType",
          "name": "",
          "type": "uint8"
        }
      ],
      "name": "skillDefaultEffects",
      "outputs": [
        {
          "internalType": "uint16",
          "name": "",
          "type": "uint16"
        }
      ],
      "stateMutability": "view",
      "type": "function"
    },
    {
      "inputs": [
        {
          "internalType": "enum IStakingIntegration.SkillType",
          "name": "",
          "type": "uint8"
        }
      ],
      "name": "skillEnabled",
      "outputs": [
        {
          "internalType": "bool",
          "name": "",
          "type": "bool"
        }
      ],
      "stateMutability": "view",
      "type": "function"
    },
    {
      "inputs": [
        {
          "internalType": "address",
          "name": "",
          "type": "address"
        }
      ],
      "name": "totalAchievementRewards",
      "outputs": [
        {
          "internalType": "uint256",
          "name": "",
          "type": "uint256"
        }
      ],
      "stateMutability": "view",
      "type": "function"
    },
    {
      "inputs": [],
      "name": "totalPoolBalance",
      "outputs": [
        {
          "internalType": "uint256",
          "name": "",
          "type": "uint256"
        }
      ],
      "stateMutability": "view",
      "type": "function"
    },
    {
      "inputs": [
        {
          "internalType": "address",
          "name": "",
          "type": "address"
        }
      ],
      "name": "totalQuestRewards",
      "outputs": [
        {
          "internalType": "uint256",
          "name": "",
          "type": "uint256"
        }
      ],
      "stateMutability": "view",
      "type": "function"
    },
    {
      "inputs": [
        {
          "internalType": "address",
          "name": "newOwner",
          "type": "address"
        }
      ],
      "name": "transferOwnership",
      "outputs": [],
      "stateMutability": "nonpayable",
      "type": "function"
    },
    {
      "inputs": [],
      "name": "treasury",
      "outputs": [
        {
          "internalType": "address",
          "name": "",
          "type": "address"
        }
      ],
      "stateMutability": "view",
      "type": "function"
    },
    {
      "inputs": [],
      "name": "uniqueUsersCount",
      "outputs": [
        {
          "internalType": "uint256",
          "name": "",
          "type": "uint256"
        }
      ],
      "stateMutability": "view",
      "type": "function"
    },
    {
      "inputs": [],
      "name": "unpause",
      "outputs": [],
      "stateMutability": "nonpayable",
      "type": "function"
    },
    {
      "inputs": [
        {
          "internalType": "enum IStakingIntegration.SkillType",
          "name": "skillType",
          "type": "uint8"
        },
        {
          "internalType": "uint16",
          "name": "newEffectValue",
          "type": "uint16"
        }
      ],
      "name": "updateSkillEffect",
      "outputs": [],
      "stateMutability": "nonpayable",
      "type": "function"
    },
    {
      "inputs": [
        {
          "internalType": "address",
          "name": "user",
          "type": "address"
        },
        {
          "internalType": "uint256",
          "name": "xpGained",
          "type": "uint256"
        }
      ],
      "name": "updateUserXP",
      "outputs": [],
      "stateMutability": "nonpayable",
      "type": "function"
    },
    {
      "inputs": [
        {
          "internalType": "address",
          "name": "",
          "type": "address"
        },
        {
          "internalType": "uint256",
          "name": "",
          "type": "uint256"
        }
      ],
      "name": "userAchievementRewards",
      "outputs": [
        {
          "internalType": "uint256",
          "name": "",
          "type": "uint256"
        }
      ],
      "stateMutability": "view",
      "type": "function"
    },
    {
      "inputs": [
        {
          "internalType": "address",
          "name": "",
          "type": "address"
        },
        {
          "internalType": "uint256",
          "name": "",
          "type": "uint256"
        }
      ],
      "name": "userQuestRewards",
      "outputs": [
        {
          "internalType": "uint256",
          "name": "",
          "type": "uint256"
        }
      ],
      "stateMutability": "view",
      "type": "function"
    },
    {
      "inputs": [
        {
          "internalType": "address",
          "name": "",
          "type": "address"
        }
      ],
      "name": "userSkillProfiles",
      "outputs": [
        {
          "internalType": "uint256",
          "name": "totalXP",
          "type": "uint256"
        },
        {
          "internalType": "uint8",
          "name": "level",
          "type": "uint8"
        },
        {
          "internalType": "uint8",
          "name": "maxActiveSkills",
          "type": "uint8"
        },
        {
          "internalType": "uint16",
          "name": "stakingBoostTotal",
          "type": "uint16"
        },
        {
          "internalType": "uint16",
          "name": "feeDiscountTotal",
          "type": "uint16"
        },
        {
          "internalType": "bool",
          "name": "hasAutoCompound",
          "type": "bool"
        }
      ],
      "stateMutability": "view",
      "type": "function"
    },
    {
      "inputs": [],
      "name": "withdraw",
      "outputs": [],
      "stateMutability": "nonpayable",
      "type": "function"
    },
    {
      "inputs": [],
      "name": "withdrawAll",
      "outputs": [],
      "stateMutability": "nonpayable",
      "type": "function"
    },
    {
      "inputs": [],
      "name": "withdrawBoosted",
      "outputs": [],
      "stateMutability": "nonpayable",
      "type": "function"
    },
    {
      "stateMutability": "payable",
      "type": "receive"
    }
  ],
  "bytecode": "0x60806040523461002a576100196100146100bf565b6101c9565b604051615adc6104b68239615adc90f35b5f80fd5b634e487b7160e01b5f52604160045260245ffd5b90601f01601f191681019081106001600160401b0382111761006357604052565b61002e565b9061007c61007560405190565b9283610042565b565b6001600160a01b031690565b90565b6001600160a01b0381160361002a57565b9050519061007c8261008d565b9060208282031261002a5761008a9161009e565b61008a615f92803803806100d281610068565b9283398101906100ab565b905f19905b9181191691161790565b61008a61008a61008a9290565b9061010961008a610110926100ec565b82546100dd565b9055565b61007e61008a61008a9290565b61008a90610114565b906001600160a01b03906100e2565b61008a9061007e906001600160a01b031682565b61008a90610139565b61008a9061014d565b9061016f61008a61011092610156565b825461012a565b61018361008a61008a9290565b6001600160401b031690565b906001600160401b03906100e2565b61008a90610183906001600160401b031682565b906101c261008a6101109261019e565b825461018f565b6101d161023c565b6101ea62278d006101e38160186100f9565b60196100f9565b6101f661007e5f610121565b6001600160a01b0382161461022b5761021090600261015f565b61021861035b565b61007c61022442610176565b60126101b2565b63e6c4247b60e01b5f908152600490fd5b61007c61024e565b61008a60016100ec565b61025661028e565b61007c610261610244565b60016100f9565b9060ff60a01b9060a01b6100e2565b9061028761008a61011092151590565b8254610268565b6102966102a0565b61007c5f80610277565b61007c33610461565b634e487b7160e01b5f52602160045260245ffd5b601111156102c757565b6102a9565b9061007c826102bd565b61008a906102cc565b906102e9906102d6565b5f5260205260405f2090565b9060ff906100e2565b9061030e61008a61011092151590565b82546102f5565b61032261008a61008a9290565b61ffff1690565b9061ffff906100e2565b61032261008a61008a9261ffff1690565b9061035461008a61011092610333565b8254610329565b61007c60016103ce816103796007600d61037e8461037981846102df565b6102fe565b61038d846103796002846102df565b61039c846103796003846102df565b6103ab846103796004846102df565b6103ba846103796005846102df565b6103c9846103796006846102df565b6102df565b6103ed6103dc6101f4610315565b6103e8600e93846102df565b610344565b61042e6103fb6103e8610315565b61040a816103e86002866102df565b6104236104186107d0610315565b6103e86003866102df565b6103e86006846102df565b6103e8600561043e6109c4610315565b926103c9846103e86007846102df565b61008a9061007e565b61008a905461044e565b61048561047f6104705f610457565b61047a845f61015f565b610156565b91610156565b907f8be0079c531659141344cd1fd0a4f28419497f9722a3daafe3b4186f6b6457e06104b060405190565b5f90a356fe60806040526004361015610022575b3615610018575f80fd5b610020614dcc565b005b5f3560e01c806301d9b8421461046c578063116e1e3e1461046757806311bd459f14610462578063137658381461045d578063161ba7811461045857806316e1a0fe1461045357806318f2f4021461044e5780631e26d589146104495780632a5bf6d2146104445780632c678c641461043f5780632f1df4761461043a578063313a1954146104355780633b457e4b146104305780633bab7a891461042b5780633ccfd60b146104265780633f4ba83a146103cc5780633fd51fbf146104215780634301d9aa1461041c57806349be75bb146104175780634b1d06d7146104125780635026d63e1461040d5780635312ea8e1461040857806354fd1461146104035780635b0df80a146103fe5780635c975abb146103f95780635efc27d6146103f457806361d027b3146103ef578063635e0c4d146103ea5780636386c1c7146103e557806364ab8675146103e05780636af04a57146103db5780636f9fb98a146103d6578063715018a6146103d15780638456cb59146103cc578063853828b6146103c7578063857184d1146103c257806387a7b7f6146103bd57806389257817146103b85780638d79bb50146103b35780638da5cb5b146103ae578063910418be146103a9578063992976aa146103a45780639f99dc411461039f578063a13c196d1461039a578063a646c1ce14610395578063a6f353f014610390578063ae03126a1461038b578063b2e89a9614610386578063b415ff7a14610381578063b47cc5561461037c578063b6e18cfe14610377578063b907deee14610372578063bece23ba1461036d578063bf37bb6a14610368578063c3f78e3a14610363578063c9f8234f1461035e578063cb836fb114610359578063ce4098be14610354578063d1bb5cf11461034f578063d1cc7bb21461034a578063dd19171914610345578063e7e7540014610340578063e8ac83451461033b578063eb97e4eb14610336578063f154a54914610331578063f2fde38b1461032c578063f4e0d9ac14610327578063f69e2046146103225763fef802e70361000e57611a28565b6118ff565b6118ea565b6118d2565b6118b7565b611877565b611739565b611712565b6116ea565b6116d2565b6116b7565b611691565b61166b565b611645565b61160a565b6115b7565b6114e3565b6114c8565b6114ac565b61144f565b611434565b611419565b6113ee565b6113c3565b6113a8565b61136c565b611342565b611318565b6112cd565b61125e565b611245565b61122c565b6111f5565b611194565b61117c565b610dc9565b611164565b611149565b61112e565b611107565b6110d6565b611071565b611019565b610fdd565b610fc2565b610fa9565b610f36565b610f0f565b610ef4565b610ec2565b610e52565b610e23565b610e0a565b610db1565b610d96565b610d7a565b610cf9565b610c8d565b610c11565b610bc7565b610b09565b610aa2565b610a48565b6109d7565b6108ff565b6108a1565b6107c2565b6105e4565b5f91031261047b57565b5f80fd5b634e487b7160e01b5f52602160045260245ffd5b6011111561049d57565b61047f565b906104ac82610493565b565b6104b7906104a2565b90565b6104c3906104ae565b9052565b906104d4816020936104ba565b0190565b906104f86104f16104e7845190565b8084529260200190565b9260200190565b905f5b8181106105085750505090565b90919261052261051b60019286516104c7565b9460200190565b9291016104fb565b906105396104f16104e7845190565b905f5b8181106105495750505090565b90919261056361051b600192865161ffff16815260200190565b92910161053c565b9061057a6104f16104e7845190565b905f5b81811061058a5750505090565b9091926105a261051b60019286511515815260200190565b92910161057d565b916105d6906105c86104b7959360608601908682035f8801526104d8565b90848203602086015261052a565b91604081840391015261056b565b3461047b576105f4366004610471565b61060e6105ff611b5a565b604051919391938493846105aa565b0390f35b805b0361047b57565b905035906104ac82610612565b9060208282031261047b576104b79161061b565b6104b76104b76104b79290565b906106539061063c565b5f5260205260405f2090565b6104b7905b60ff1690565b6104b7905461065f565b6104b79060081c5b61ffff1690565b6104b79054610674565b6104b79060181c610664565b6104b7905461068d565b6104b79060201c5b6001600160401b031690565b6104b790546106a3565b6104b79060601c6106ab565b6104b790546106c1565b6104b79060a01c610664565b6104b790546106d7565b6106f890600c610649565b906107028261066a565b9161070c81610683565b9161071682610699565b91610720816106b7565b916104b75f61072e846106cd565b93016106e3565b6005111561049d57565b906104ac82610735565b6104b79061073f565b6104c390610749565b91946107aa6107ba9298979561079a60a0966107906104ac9a61078560c08a019e5f8b01906104ba565b61ffff166020890152565b6040870190610752565b6001600160401b03166060850152565b6001600160401b03166080830152565b019015159052565b3461047b5761060e6107dd6107d8366004610628565b6106ed565b926107ed96949692919260405190565b9687968761075b565b6001600160a01b031690565b6001600160a01b038116610614565b905035906104ac82610802565b9060208282031261047b576104b791610811565b5f5b8381106108435750505f910152565b8181015183820152602001610834565b61087461087d6020936104d493610868815190565b80835293849260200190565b95869101610832565b601f01601f191690565b90151581526040602082018190526104b792910190610853565b3461047b576108b96108b436600461081e565b611d5b565b9061060e6108c660405190565b92839283610887565b6001600160401b038116610614565b905035906104ac826108cf565b9060208282031261047b576104b7916108de565b61091261090d3660046108eb565b6124c3565b604051005b9060a0806104ac9361092f5f8201515f8601906104ba565b60208181015161ffff169085015261094f60408201516040860190610752565b6060818101516001600160401b0316908501526080818101516001600160401b0316908501525b01511515910152565b906104d48160c093610917565b9061099b6104f16104e7845190565b905f5b8181106109ab5750505090565b9091926109be61051b600192865161097f565b92910161099e565b60208082526104b79291019061098c565b3461047b5761060e6109f26109ed36600461081e565b6125ff565b604051918291826109c6565b90815261010081019897969095909490939092909160208701526040860152606085015261ffff166080840152151560a083015260ff1660c082015260e0016104ac9160ff169052565b3461047b5761060e610a63610a5e36600461081e565b6126d1565b94610a7698969894919493929360405190565b988998896109fe565b919060408382031261047b576104b7906020610a9b8286610811565b940161061b565b3461047b5761060e610abe610ab8366004610a7f565b90612762565b6040515b9182918290815260200190565b6005111561047b57565b905035906104ac82610acf565b919060408382031261047b576104b7906020610b02828661061b565b9401610ad9565b3461047b57610912610b1c366004610ae6565b906128bd565b80516001600160801b031682526104ac919060609081906020818101516001600160401b0316908501526040818101516001600160401b03169085015201516001600160401b0316910152565b906104d481608093610b22565b90610b8b6104f16104e7845190565b905f5b818110610b9b5750505090565b909192610bae61051b6001928651610b6f565b929101610b8e565b60208082526104b792910190610b7c565b3461047b5761060e610be2610bdd36600461081e565b6129aa565b60405191829182610bb6565b6104b7916008021c610664565b906104b79154610bee565b6104b75f6005610bfb565b3461047b57610c21366004610471565b61060e610c2c610c06565b60405191829182901515815260200190565b6011111561047b57565b905035906104ac82610c3e565b801515610614565b905035906104ac82610c55565b919060408382031261047b576104b7906020610c868286610c48565b9401610c5d565b3461047b57610912610ca0366004610c6a565b906129fe565b61ffff8116610614565b905035906104ac82610ca6565b60808183031261047b57610cd18282610811565b926104b7610ce2846020850161061b565b936060610cf28260408701610c48565b9401610cb0565b3461047b57610912610d0c366004610cbd565b92919091612d9a565b6107f66104b76104b7926001600160a01b031690565b6104b790610d15565b6104b790610d2b565b9061065390610d34565b6104b7916008021c81565b906104b79154610d47565b610d756104b792610d705f936014610d3d565b610649565b610d52565b3461047b5761060e610abe610d90366004610a7f565b90610d5d565b3461047b5761060e610abe610dac36600461081e565b612da6565b3461047b57610dc1366004610471565b610912613109565b3461047b57610dd9366004610471565b610912613124565b909160608284031261047b576104b7610dfa8484610811565b936040610a9b826020870161061b565b3461047b57610912610e1d366004610de1565b916131e8565b610912610e313660046108eb565b61328a565b919060408382031261047b576104b7906020610cf28286610c48565b3461047b57610912610e65366004610e36565b90613300565b90610e7a6104f16104e7845190565b905f5b818110610e8a5750505090565b909192610ea961051b60019286516001600160a01b0316815260200190565b929101610e7d565b60208082526104b792910190610e6b565b3461047b57610ed2366004610471565b61060e610edd61339c565b60405191829182610eb1565b6104b75f6003610d52565b3461047b57610f04366004610471565b61060e610abe610ee9565b3461047b57610912610f22366004610628565b613538565b5f610d756104b792601b610d3d565b3461047b5761060e610abe610f4c36600461081e565b610f27565b909182601f8301121561047b578135916001600160401b03831161047b57602001926001830284011161047b57565b9060208282031261047b5781356001600160401b03811161047b57610fa59201610f51565b9091565b3461047b57610912610fbc366004610f80565b90613541565b3461047b57610fd2366004610471565b61060e610c2c6136b2565b3461047b57610912610ff0366004610a7f565b9061384a565b6104b7916008021c6107f6565b906104b79154610ff6565b6104b75f6002611003565b3461047b57611029366004610471565b61060e61103461100e565b604051918291826001600160a01b03909116815260200190565b6104b7916008021c6106ab565b906104b7915461104e565b6104b75f601261105b565b3461047b57611081366004610471565b61060e61108c611066565b604051918291826001600160401b03909116815260200190565b6110d26104ac946110cb6060949897956110c4608086019a5f870152565b6020850152565b6040830152565b0152565b3461047b5761060e6110f16110ec36600461081e565b613854565b906110fe94929460405190565b948594856110a6565b3461047b5761060e610abe61111d36600461081e565b61390a565b6104b760016005611003565b3461047b5761113e366004610471565b61060e611034611122565b3461047b57611159366004610471565b61060e610abe613b5b565b3461047b57611174366004610471565b610912613b84565b3461047b5761118c366004610471565b610912613e28565b3461047b5761060e610abe6111aa36600461081e565b613e30565b908152610100810198979690959094909390929091602087015260408601526060850152608084015260ff1660a083015260ff1660c082015260e0016104ac9115159052565b3461047b5761060e61121061120b36600461081e565b613e49565b9461122398969894919493929360405190565b988998896111af565b3461047b5761091261123f366004610a7f565b90613fd9565b3461047b57610912611258366004610de1565b91614051565b3461047b5761126e366004610471565b61060e61103461405c565b909182601f8301121561047b578135916001600160401b03831161047b57602001926020830284011161047b57565b9060208282031261047b5781356001600160401b03811161047b57610fa59201611279565b3461047b576109126112e03660046112a8565b90614233565b9060208282031261047b576104b791610c48565b90610653906104ae565b5f6113136104b792600d6112fa565b610bfb565b3461047b5761060e610c2c61132e3660046112e6565b611304565b5f610d756104b7926016610d3d565b3461047b5761060e610abe61135836600461081e565b611333565b5f610d756104b792601a610d3d565b3461047b5761060e610abe61138236600461081e565b61135d565b6106ab6104b76104b79290565b6104b762015180611387565b6104b7611394565b3461047b576113b8366004610471565b61060e61108c6113a0565b3461047b576109126113d636600461081e565b6142e6565b610d756104b792610d705f936015610d3d565b3461047b5761060e610abe611404366004610a7f565b906113db565b5f610d756104b7926017610d3d565b3461047b5761060e610abe61142f36600461081e565b61140a565b3461047b5761060e610c2c61144a36600461081e565b6142ef565b3461047b5761091261146236600461081e565b614339565b919060a08382031261047b5761147d8184610811565b9261148b826020830161061b565b926104b761149c846040850161061b565b936080610b02826060870161061b565b3461047b576109126114bf366004611467565b93929092614498565b3461047b5761060e610abe6114de36600461081e565b6144a5565b3461047b5761060e610abe6114f9366004610a7f565b90614648565b9061150e6104f16104e7845190565b905f5b81811061151e5750505090565b90919261153461051b6001928651815260200190565b929101611511565b906104b79060c08061155b60e084015f8701518582035f8701526114ff565b9461156b60208201516020860152565b60408181015160ff169085015260608181015160ff169085015260808181015161ffff169085015260a08181015161ffff1690850152610976565b60208082526104b79291019061153c565b3461047b5761060e6115d26115cd36600461081e565b6147d0565b604051918291826115a6565b6104b7916008021c61067c565b906104b791546115de565b5f6116056104b792600e6112fa565b6115eb565b3461047b5761060e6116256116203660046112e6565b6115f6565b6040519182918261ffff909116815260200190565b6104b75f6004610d52565b3461047b57611655366004610471565b61060e610abe61163a565b6104b75f6018610d52565b3461047b5761167b366004610471565b61060e610abe611660565b6104b75f6019610d52565b3461047b576116a1366004610471565b61060e610abe611686565b6104b75f6009611003565b3461047b576116c7366004610471565b61060e6110346116ac565b3461047b576116e2366004610471565b610912614a29565b3461047b576116fa366004610471565b610912614a5f565b6020810192916104ac9190610752565b3461047b5761060e61172d611728366004610628565b614a67565b60405191829182611702565b3461047b5761060e610abe61174f366004610a7f565b90614a7d565b906117646104f16104e7845190565b905f5b8181106117745750505090565b90919261178a61051b6001928651815260200190565b929101611767565b906104d481602093610752565b906117ae6104f16104e7845190565b905f5b8181106117be5750505090565b9091926117d161051b6001928651611792565b9291016117b1565b906117e86104f16104e7845190565b905f5b8181106117f85750505090565b90919261181161051b600192865160ff16815260200190565b9291016117eb565b93906104b7959361184d6118699461183f61185b9460a08a01908a82035f8c0152611755565b9088820360208a01526104d8565b90868203604088015261179f565b90848203606086015261052a565b9160808184039101526117d9565b3461047b5761060e61189261188d36600461081e565b614acb565b9161189f95939560405190565b95869586611819565b5f6113136104b7926013610649565b3461047b5761060e61172d6118cd366004610628565b6118a8565b3461047b576109126118e536600461081e565b614c70565b3461047b576118fa36600461081e565b614cb7565b3461047b5761190f366004610471565b610912614dc4565b6104b79081565b6104b79054611917565b6104b79060081c610664565b6104b79054611928565b6104b79060101c61067c565b6104b7905461193e565b6104b79060201c61067c565b6104b79054611954565b6104b79060301c610664565b6104b7905461196a565b61198b90600b610d3d565b906119986001830161191e565b916119a56002820161066a565b916119b260028301611934565b916119bf6002820161194a565b916104b760026119d0818501611960565b9301611976565b9194611a1d6107ba92989795611a1260a096611a086104ac9a6119fe60c08a019e5f8b0152565b60ff166020890152565b60ff166040870152565b61ffff166060850152565b61ffff166080830152565b3461047b5761060e611a43611a3e36600461081e565b611980565b92611a5396949692919260405190565b968796876119d7565b634e487b7160e01b5f52604160045260245ffd5b90601f01601f191681019081106001600160401b03821117611a9157604052565b611a5c565b906104ac611aa360405190565b9283611a70565b6001600160401b038111611a915760208091020190565b90611ad3611ace83611aaa565b611a96565b918252565b369037565b906104ac611af3611aed84611ac1565b93611aaa565b601f190160208401611ad8565b634e487b7160e01b5f52603260045260245ffd5b90611b1d825190565b811015611b2e576020809102010190565b611b00565b906104c3906104a2565b6104b790516104a2565b6104b79061067c565b6104b79054611b47565b600790611b668261063c565b90611b7082611add565b611b7983611add565b93611b8384611add565b93611c13600192611ba66001611ba1611b9b5f61063c565b88611b14565b611b33565b611bb86002611ba1611b9b600161063c565b611bca6003611ba1611b9b600261063c565b611bdc6004611ba1611b9b600361063c565b611bee6005611ba1611b9b600461063c565b611c006006611ba1611b9b600561063c565b611ba1611c0d600661063c565b86611b14565b81611c1d5f61063c565b905b611c2c575b505050929190565b81811015611cad57611ca790611c73611c60611c5b600e611c55611c50868b611b14565b611b3d565b906112fa565b611b50565b611c6a838b611b14565b9061ffff169052565b611ca1611c90611c8b600d611c55611c50868b611b14565b61066a565b611c9a838a611b14565b9015159052565b60010190565b82611c1f565b611c24565b6001600160401b038111611a9157602090601f01601f19160190565b90611ad3611ace83611cb2565b6104b75f611cce565b6104b7611cdb565b6104b7906106ab565b6104b79054611cec565b634e487b7160e01b5f52601160045260245ffd5b611d2e906001600160401b03165b916001600160401b031690565b01906001600160401b038211611d4057565b611cff565b6104b76104b76104b7926001600160401b031690565b5f91606091611d7d611d796002611d7384600b610d3d565b01611976565b1590565b611e0e57611d8a81612da6565b611da1611d9d662386f26fc1000061063c565b9190565b101580611de2575b611db05750565b925090506001916104b7611dc360405190565b6001600160a01b03929092166020808401919091528252604082611a70565b50611e06611e01611df36012611cf5565b611dfb611394565b90611d13565b611d45565b421015611da9565b509150505f906104b7611ce4565b611e2d90611e28614e61565b611e35565b6104ac614e93565b6104ac90611e41614edd565b611e4b600561066a565b611e58576104ac90611ea2565b63f2bcabb960e01b5f90815260045b035ffd5b6104b7678ac7230489e8000061063c565b9081526040810192916104ac9160200152565b6104b769021e19e0c9bab240000061063c565b611eaa611e6b565b803410611ee45750611eba611e8f565b803411611ecb57506104ac90612254565b6330250a5b60e11b5f90815290611e6790346004611e7c565b63ea691a4b60e01b5f90815290611e6790346004611e7c565b61067c6104b76104b79290565b6104b761012c611efd565b6104b76104b76104b79261ffff1690565b6001600160a01b0390911681526040810192916104ac916020905b019061ffff169052565b6104b7610258611efd565b9190611f61565b9290565b91808302928184041490151715611d4057565b6104b761271061063c565b634e487b7160e01b5f52601260045260245ffd5b905b908115611fa0570490565b611f7f565b91908203918211611d4057565b905f19905b9181191691161790565b90611fd16104b7611fd89261063c565b8254611fb2565b9055565b91908201809211611d4057565b611ff66104b76104b79290565b6001600160801b031690565b6104b790611ff6565b6104b79054612002565b612030906001600160801b03165b916001600160801b031690565b01906001600160801b038211611d4057565b906001600160801b0390611fb7565b611ff66104b76104b7926001600160801b031690565b906120776104b7611fd892612051565b8254612042565b612090906001600160401b0316611d21565b02906001600160401b038216918203611d4057565b6104b76080611a96565b8054821015611b2e576120c76002915f5260205f2090565b910201905f90565b634e487b7160e01b5f525f60045260245ffd5b9067ffffffffffffffff60801b9060801b611fb7565b6106ab6104b76104b7926001600160401b031690565b9061211e6104b7611fd8926120f8565b82546120e2565b9077ffffffffffffffffffffffffffffffffffffffffffffffff199060c01b611fb7565b906121596104b7611fd8926120f8565b8254612125565b906001600160401b0390611fb7565b9061217f6104b7611fd8926120f8565b8254612160565b6104ac916001906121f1906060906121e3856121b26121ac84516001600160801b031690565b82612067565b6121cf6121c960208501516001600160401b031690565b8261210e565b60408301516001600160401b031690612149565b01516001600160401b031690565b910161216f565b9190612207576104ac91612186565b6120cf565b90815491600160401b831015611a91578261222f9160016104ac950181556120af565b906121f8565b6104c390611d45565b9081526040810192916104ac9160200190612235565b61225d5f611387565b6001600160401b0382161415806124a7575b8061248b575b8061246f575b80612452575b612441576122936104b7336006610d3d565b805490919082906122a2611f0a565b906122af611d9d83611f15565b10156124285750906123e87f73a19dd210f1a7f902193214c0ee91dd35ee5b4d920cba8d519eca65a7b488ca926123e36123096122fb6122f56122f0611f4b565b611f15565b34611f56565b612303611f74565b90611f93565b916123148334611fa5565b9661231d815490565b612329611d9d5f61063c565b1461240c575b61234c61234589612340600361191e565b611fdc565b6003611fc1565b612374600161235a8a611fe9565b930161236e846123698361200b565b612015565b90612067565b6123de61238042611387565b916123ce61239c611f5d61239662015180611387565b8b61207e565b936123b76123a86120a5565b6001600160801b039097168752565b6001600160401b0316602086018190526040860152565b6001600160401b03166060840152565b61220c565b614ef0565b6123f133610d34565b926124076123fe60405190565b9283928361223e565b0390a2565b61242361241c611ca1600461191e565b6004611fc1565b61232f565b63756a320d60e11b5f90815290611e6790336004611f26565b631ab8aa1760e21b5f908152600490fd5b5061245e61016d611387565b6001600160401b0382161415612281565b5061247a60b4611387565b6001600160401b038216141561227b565b50612496605a611387565b6001600160401b0382161415612275565b506124b2601e611387565b6001600160401b038216141561226f565b6104ac90611e1c565b6104b760c0611a96565b6124de6124cc565b905f82526020808080808087015f5b8152015f8152015f8152015f8152015f905250565b6104b76124d6565b5f5b82811061251857505050565b602090612523612502565b818401520161250c565b906104ac61253d611aed84611ac1565b601f19016020840161250a565b906104c39061073f565b906104ac6125ed5f6125646124cc565b9461257b61257383830161066a565b838801611b33565b612594612589838301610683565b61ffff166020880152565b6125ab6125a2838301610699565b6040880161254a565b6125c96125b98383016106b7565b6001600160401b03166060880152565b6125e76125d78383016106cd565b6001600160401b03166080880152565b016106e3565b151560a0840152565b6104b790612554565b6126196104b761261e92612611606090565b50600a610d3d565b614f6d565b61262e612629825190565b61252d565b906126385f61063c565b6126436104b7835190565b8110156126935761268e9061267261266d600c6126676126638588611b14565b5190565b90610649565b6125f6565b61267c8286611b14565b526126878185611b14565b5060010190565b612638565b505090565b6104b76104b76104b7926001600160801b031690565b6104b79060801c6106ab565b6104b790546126ae565b6106646104b76104b79290565b6126df6104b7826006610d3d565b60016126ef6104b784600b610d3d565b9101906127036126fe8361200b565b612698565b9361270d8461390a565b936002612725611e0161271f84612da6565b966126ba565b9301906127318261194a565b926104b761275d6127586104b761275061274a88611976565b9761066a565b95600a610d3d565b614f7e565b6126c4565b6126196104b7612773926126115f90565b9061277d5f61063c565b6127886104b7845190565b8110156127ef576127ab5f6127a5600c6126676126638689611b14565b0161066a565b6127be6127b860056104a2565b916104a2565b146127cb5760010161277d565b506104b791506127e5906127df604b61063c565b90611f56565b612303606461063c565b50905090565b6104b7906107f6565b6104b790546127f5565b906128166107f660096127fe565b3303612825576104ac9161287c565b632b35006d60e21b5f908152600490fd5b9060ff90611fb7565b9061284f6104b7611fd892610749565b8254612836565b9063ff0000009060181b611fb7565b906128756104b7611fd892610749565b8254612856565b906128918161288c846013610649565b61283f565b6128a05f6125e784600c610649565b6128a8575050565b5f6128b76104ac93600c610649565b01612865565b906104ac91612808565b6104b79060c01c6106ab565b6104b790546128c7565b906104ac6123ce60016128ee6120a5565b946129086128fb8261200b565b6001600160801b03168752565b612924612914826126ba565b6001600160401b03166020880152565b612940612930826128d3565b6001600160401b03166040880152565b01611cf5565b6104b7906128dd565b90612958825490565b61296181611ac1565b9261297360208501915f5260205f2090565b5f915b8383106129835750505050565b6002602060019261299385612946565b815201920192019190612976565b6104b79061294f565b5f6129c26104b7926129ba606090565b506006610d3d565b016129a1565b906104ac916129d5614fe7565b6129ea565b9061284f6104b7611fd892151590565b906129f96104ac92600d6112fa565b6129da565b906104ac916129c8565b929190612a186107f660096127fe565b3303612825576104ac93612bd6565b6104b76104b76104b79260ff1690565b9061284f6104b7611fd8926104ae565b9062ffff009060081b611fb7565b61067c6104b76104b79261ffff1690565b90612a766104b7611fd892612a55565b8254612a47565b6104b7905161073f565b906bffffffffffffffff000000009060201b611fb7565b90612aae6104b7611fd8926120f8565b8254612a87565b9073ffffffffffffffff0000000000000000000000009060601b611fb7565b90612ae46104b7611fd8926120f8565b8254612ab5565b9060ff60a01b9060a01b611fb7565b90612b0a6104b7611fd892151590565b8254612aeb565b6104ac91612b9c9060a090612b2e612b2882611b3d565b85612a37565b612b46612b40602083015161ffff1690565b85612a66565b612b5b612b5560408301612a7d565b85612865565b612b78612b7260608301516001600160401b031690565b85612a9e565b612b95612b8f60808301516001600160401b031690565b85612ad4565b0151151590565b90612afa565b906104ac91612b11565b6104c3906126c4565b9160206104ac929493612bcf60408201965f8301906104ba565b0190612bac565b909192612bea611d79611c8b86600d6112fa565b612d8957612c0583612c006104b785600a610d3d565b615004565b612d7857612c176104b783600b610d3d565b8054600290910190612c33611d9d612c2e84611934565b612a27565b1015612d415750612d18612d127f9bff5e2430318e7e3bdbef4e9e3208dcd561912d43b73a29dd7634b06da71f8393612cf560018095612cd68a612cb2612c7942611387565b612c8b612c846124cc565b9384611b33565b61ffff85166020840152612ca25f6040850161254a565b6001600160401b03166060830152565b612cbe6107aa5f611387565b83151560a0820152612cd18b600c610649565b612ba2565b612ced89612ce86104b787600a610d3d565b615024565b50898461515a565b612cff60046104a2565b612d08886104a2565b14612d3357610d34565b9361063c565b93612d2e612d2560405190565b92839283612bb5565b0390a3565b612d3c81615408565b610d34565b611e6783612d4f5f93611934565b6341684d0160e01b84526001600160a01b03909116600484015260ff1660248301526044820190565b6317fc7f7160e31b5f908152600490fd5b63372d865360e21b5f908152600490fd5b906104ac939291612a08565b612daf8161390a565b90612db95f61063c565b8214612e2457612dcf6104b7600292600b610d3d565b01612dd98161194a565b612ded612de55f611efd565b9161ffff1690565b1115612e205790612e1a612e0f612e096122f06104b79561194a565b83611f56565b61230361271061063c565b90611fdc565b5090565b50506104b75f61063c565b612e37614e61565b611e2d612e42614edd565b6104ac612e4f600561066a565b611e58576104ac612e79565b6104b76201518061063c565b6104b7683635c9adc5dea0000061063c565b612e876104b7336006610d3d565b612e8f612e5b565b612e998142611f93565b612eb2611d9d6104b7612ead336008610d3d565b61191e565b116130c4575b50612ec23361390a565b90612ecc5f61063c565b82146130b3576007612ee583612340612ead3385610d3d565b612eed612e67565b9081106130815750612f03612f16913390610d3d565b612f10846123408361191e565b90611fc1565b5f92835b82548390821015612f9857612e2082612f32926120af565b60018101612f3f81611cf5565b612f4b611d215f611387565b119182612f72575b5050612f6157600101612f1a565b633b20f1c360e21b5f908152600490fd5b612f8f925090611dfb612f895f611e0194016126ba565b91611cf5565b42105f80612f53565b505091929092612fbf612fb86122fb612fb26122f0611f4b565b84611f56565b8092611fa5565b92612fc930610d34565b31612fda611d9d6104b78588611fdc565b1061307057612fe842611387565b925b855486908210156130145790611ca1855f6130088461300f966120af565b5001612149565b612fea565b5050936130279260016123e3920161210e565b6130398161303433610d34565b615510565b7f7084f5476618d8e60b11ef0d7d3f06914655adb8793e28ff7f018d4c76d505d561240761306633610d34565b92610ac260405190565b631e9acf1760e31b5f908152600490fd5b61309d611e6791613097612ead5f953390610d3d565b90611fa5565b631aefe80360e21b835260048301526024820190565b63afb0be3360e01b5f908152600490fd5b6130f8611e016130f3613103936130ed6130dd5f61063c565b6130e8336007610d3d565b611fc1565b42611f93565b611387565b6130e8336008610d3d565b5f612eb8565b6104ac612e2f565b613119614fe7565b6104ac6104ac615594565b6104ac613111565b919061313b6107f660096127fe565b3303612825576104ac92613167565b9081526060810193926104ac9290916040916110d2906020830152565b906131d07f342455cf9ed6bd3095ba56ce918ab26b698fccdb2374c90901c953ce1cc1c0a2926131a0856130e885610d70856014610d3d565b6131bb6131ae826016610d3d565b612f10876123408361191e565b612d3c6131c982601a610d3d565b4290611fc1565b926124076131dd60405190565b92839242918461314a565b906104ac929161312c565b611e2d906131ff614e61565b6104ac9061320b614edd565b613215600561066a565b611e58576104ac90613225611e6b565b803410611ee45750613235611e8f565b803411611ecb57506104ac9061090d61324e91336155ae565b61325e6002611d7333600b610d3d565b80613273575b61326a57565b6104ac33615408565b50613285611d79611c8b336010610d3d565b613264565b6104ac906131f3565b906104ac916132a0614fe7565b6132c6565b9061ffff90611fb7565b906132bf6104b7611fd892612a55565b82546132a5565b906132d2612710611efd565b61ffff8216116132ef576132ea6104ac92600e6112fa565b6132af565b63af35630960e01b5f908152600490fd5b906104ac91613293565b906133236133196104e7845490565b925f5260205f2090565b905f5b8181106133335750505090565b909192613360613359600192613348876127fe565b6001600160a01b0316815260200190565b9460010190565b929101613326565b906104b79161330a565b906104ac61338c9261338360405190565b93848092613368565b0383611a70565b6104b790613372565b6104b7600f613393565b6104ac906133b2614fe7565b613429565b6104c39061063c565b9081526040810192916104ac916020905b01906133b7565b6107f66104b76104b79290565b6104b7906133d8565b3d15613407576133fd3d611cce565b903d5f602084013e565b606090565b6001600160a01b0390911681526040810192916104ac9160200152565b6134325f61063c565b811461351e5761344130610d34565b80318211613504575061345460026127fe565b6134706134636107f65f6133e5565b916001600160a01b031690565b146134f3576134a05f8061348a612d3c612d3c60026127fe565b6040515f9186905af161349b6133ee565b501590565b6134d1577f23d6711a1d031134a36921253c75aa59e967d38e369ac625992824315e204f2061240761306633610d34565b611e675f916134e060026127fe565b63d3cc1fd760e01b84526004840161340c565b63e6c4247b60e01b5f908152600490fd5b63af608abb60e01b5f90815291611e679131906004611e7c565b63af608abb60e01b5f90815290611e6790829060046133c0565b6104ac906133a6565b612d3c906135519281019061081e565b613564611d796002611d7384600b610d3d565b6136a15761357181612da6565b61357a5f61063c565b81146130b35761358e6104b7836006610d3d565b9261359882611fe9565b916135ad6001860161236e856123698361200b565b6135fb5f6135ba42611387565b960193846135d86135c96120a5565b6001600160801b039093168352565b6001600160401b0388166020830181905260408301525b6123de6123ce5f611387565b6136045f61063c565b61360f6104b7855490565b81101561362e5780611ca1875f61300861362995896120af565b613604565b50927f8ce0a2fad3764c1fd039c26f784a2d7490f96db7928a834db2330abc1efd2944925061366690612d3c6124079396601261216f565b92837f6b10037a13671faab8b41aef8f8189149de5e1b5b514a49814e4938dfbc04cbc61369260405190565b838152602090a2604051610ac2565b63595b4b9760e11b5f908152600490fd5b6104b75f6106e3565b906136c96107f660096127fe565b3303612825576104ac91613763565b6106646104b76104b79260ff1690565b9061284f6104b7611fd8926136d8565b611f959060ff165b9160ff1690565b6137139060ff16613700565b019060ff8211611d4057565b9061ff009060081b611fb7565b9061373c6104b7611fd8926136d8565b825461371f565b60ff9182168152911660208201526060810192916104ac91604090611f41565b9060026137a361275d61379861377d6104b787600b610d3d565b94612ead61379260018801926123408461191e565b82611fc1565b6123036103e861063c565b91016137b16106648261066a565b60ff8316116137bf57505050565b816137eb7fbeef0cffca661d6b267dd54e822a7589d098d873a6aa1aec940369103d62e71593836136e8565b6138196138136138046137fe600a6126c4565b846136f8565b61380e60036126c4565b613707565b8361372c565b61240761383761383161382b85611934565b9461194a565b95610d34565b9461384160405190565b93849384613743565b906104ac916136bb565b906138636104b7836006610d3d565b9160018301916104b761389a61389461388e5f6138886138828961200b565b9761390a565b98015490565b956126ba565b93612698565b949392611d45565b6138af6104b76104b79290565b6001600160e01b031690565b6104b7603261063c565b6104b760d261063c565b6104b760aa61063c565b6104b7608c61063c565b6104b7606461063c565b6104b79081906001600160e01b031681565b6104b76130d4611efd565b905f9061391c6104b783946006610d3d565b80549091909261392b5f61063c565b8414613b4d575b835b811015613b4757613948612e2082856120af565b8061397461396f61396461395e611e01856128d3565b42611fa5565b612303610e1061063c565b6138a2565b9061397e5f6138a2565b6001600160e01b038316116139a5575b50505061399e6139349160010190565b9050613932565b916139349397613a1b613a0f613a819461399e966139cd60016139c66138bb565b9201611cf5565b6139d962278d00611387565b6001600160401b03821603613ab35750506127df613a096139f86138e3565b613a046126fe8961200b565b611f56565b916138ed565b612303620f424061063c565b8092613a37613a2c6126fe8361200b565b6127df6122f06138ff565b91613a4a613a43611f74565b8094611f93565b908110613aa9575b50613a6561395e611e01613a6a936126ba565b615635565b613a735f61063c565b8111613a89575b5050611fdc565b95915f61398e565b8391613a9c612e1a92613aa19596611f56565b611f93565b905f80613a7a565b9350613a65613a52565b613abf6276a700611387565b6001600160401b03821603613ae35750506127df613a09613ade6138d9565b6139f8565b613aef62ed4e00611387565b6001600160401b03821603613b0e5750506127df613a09613ade6138cf565b613b1e611d216301e13380611387565b14613b30575b613a096127df916139f8565b506127df613a09613b3f6138c5565b915050613b24565b50915050565b50925050506104b75f61063c565b613b6430610d34565b3190565b613b70614fe7565b6104ac6104ac613b7f5f6133e5565b6156b0565b6104ac613b68565b613b94614e61565b611e2d613b9f614edd565b6104ac613bac600561066a565b611e58576104ac613c6a565b6104b7906002611f56565b905f03612207575f808255600190910155565b818110613be1575050565b80613bee5f600293613bc3565b01613bd6565b919091828210613c0357505050565b613c25613c1b613c156104ac95613bb8565b93613bb8565b915f5260205f2090565b9182019101613bd6565b90600160401b8111611a915781613c476104ac935490565b90828155613bf4565b5f6104ac91613c2f565b905f03612207576104ac90613c50565b613c786104b7336006610d3d565b906001820190613c878261200b565b613c936120235f611fe9565b14613e1757613ca15f61063c565b83548490821015613d0857612e2082613cb9926120af565b60018101613cc681611cf5565b613cd2611d215f611387565b119182613ce8575b5050612f6157600101613ca1565b613cff925090611dfb612f895f611e0194016126ba565b42105f80613cda565b50509190613d153361390a565b90613d386122fb613d2c846123406126fe8661200b565b936127df6122f0611f4b565b90613d438284611fa5565b93613d4d30610d34565b31613d5e611d9d6104b78689611fdc565b1061307057613dc793613d985f8061234594613d92613da797613d836121ac85611fe9565b613d8c42611387565b9061210e565b01613c5a565b613da2600361191e565b611fa5565b613db1600461191e565b613dbd611d9d5f61063c565b11613e0157614ef0565b613dd48161303433610d34565b7fd7a4aa9f3dca5f6606ac15d7e1850920201bbb02c38cd986793779f58ae0dfd361240761306633610d34565b6123e361241c613e11600461191e565b5f190190565b636f16c5e960e11b5f908152600490fd5b6104ac613b8c565b6126fe6001613e436104b7936129ba5f90565b0161200b565b613e576104b7826006610d3d565b90613e756126fe6001613e6e6104b785600b610d3d565b940161200b565b92613e7f8261390a565b92613e8983612da6565b92613e98612ead826016610d3d565b926002613ea9612ead846017610d3d565b9301906104b7613ecc61275d6127586104b7613ec48761066a565b97600a610d3d565b92611976565b90613ee06107f660096127fe565b3303612825576104ac91613eff565b6020810192916104ac91906104ba565b90613f15611d7982612c006104b786600a610d3d565b613fc8577f29f88aa955b5ab5e495c04e7c61c10449ebf20048ae55d19f096a197bc29501b612d2e613fac612d12613f6b95613f8f5f613f596104b789600c610649565b613f788280613f718185019d8e61066a565b9d610683565b9301612afa565b612ced89613f8a6104b787600a610d3d565b6156f4565b613f9960046104a2565b613fa2886104a2565b14613fbf57610d34565b93613fb660405190565b91829182613eef565b612d3c8161575d565b636379c45760e11b5f908152600490fd5b906104ac91613ed2565b9190613ff26107f660096127fe565b3303612825576104ac92906131d07f87a3f62af380980eb2ea2eb2e3677feb226ae9683c4169370f32aef4f46ff9e092614035856130e885610d70856015610d3d565b6140436131ae826017610d3d565b612d3c6131c982601b610d3d565b906104ac9291613fe3565b6104b75f6127fe565b906104ac91614072614fe7565b6140d6565b6104b76064611efd565b6104c390611f15565b9081526040810192916104ac9160200190614081565b9190811015611b2e576020020190565b356104b781610802565b60208082526104b792910190610853565b6040513d5f823e3d90fd5b81926140e0614077565b6140e981611f15565b851161421b57505f5b845b8110156142145761411e6002611d73600b614118614113868a8a6140a0565b6140b0565b90610d3d565b614132575b6140f4906001015b90506140f2565b614143610dac6141138387876140a0565b614156611d9d662386f26fc1000061063c565b10614123576141696141138286866140a0565b9061419561417660405190565b6001600160a01b03939093166020808501919091528352604083611a70565b61419e30610d34565b803b1561047b576141d15f939184926141b660405190565b9586938492839190632d86fc0560e11b8352600483016140ba565b03925af190811561420f576140f49261412b926141f2575b50915050614123565b614209905f6142018183611a70565b810190610471565b5f6141e9565b6140cb565b5092505050565b62ef8cfb60e11b5f90815290611e679086600461408a565b906104ac91614065565b6104ac90614249614fe7565b6142556107f65f6133e5565b6001600160a01b038216146134f3576104ac90614293565b906001600160a01b0390611fb7565b9061428c6104b7611fd892610d34565b825461426d565b6142b46142ae6142a360026127fe565b612d3c84600261427c565b91610d34565b907f4ab5be82436d353e61ca18726e984e561f5c1cc7c6d38b29d2553c790434705a6142df60405190565b8080612d2e565b6104ac9061423d565b6002611d736104b7926142ff5f90565b50600b610d3d565b6104ac90614313614fe7565b61431f6107f65f6133e5565b6001600160a01b038216146134f3576104ac90600961427c565b6104ac90614307565b939291906143536107f660096127fe565b3303612825576104ac9461437c565b9160206104ac9294936110d260408201965f830190610752565b907f43bb53177d20242bc821fcb16632e2daaff51a1d3a8a6c6d398aba90247d82c892600c916143b05f6125e78386610649565b80614480575b614458575b506143ca5f6125e78385610649565b80614440575b614412575b50506143e68461288c856013610649565b6143fc612d126143f6606461063c565b92610d34565b93612d2e61440960405190565b92839283614362565b61442a5f806144248461443896610649565b01612afa565b613f8a6104b784600a610d3d565b505f806143d5565b5061445381612c006104b786600a610d3d565b6143d0565b8061446b5f806144246144799588610649565b613f8a6104b786600a610d3d565b505f6143bb565b5061449381612c006104b787600a610d3d565b6143b6565b906104ac94939291614342565b6144ae8161390a565b6144b75f61063c565b8114612e24576144dc6126196104b76144d46104b786600b610d3d565b94600a610d3d565b6144e55f61063c565b91825b6144f36104b7845190565b8410156145dc5761450f611c8b60136126676126638888611b14565b614519600161073f565b6145228261073f565b03614547575061453a61454191612e1a6103e861063c565b9360010190565b926144e8565b614551600261073f565b61455a8261073f565b03614572575061453a61454191612e1a6107d061063c565b61457c600361073f565b6145858261073f565b0361459d575061453a61454191612e1a610fa061063c565b6145b36145ad600496939661073f565b9161073f565b146145c1575b600101614541565b926145d461454191612e1a611f4061063c565b9390506145b9565b61461c9350614616906145f5600261234094970161194a565b936145fe815190565b61460a611d9d5f61063c565b111561463d5751612303565b91611f15565b6146255f61063c565b811115612e205790612e1a612e0f6104b79383611f56565b50612303600161063c565b6146586104b76002926142ff5f90565b016146628161194a565b61466e612de55f611efd565b14612e205790612e1a612e0f612e096122f06104b79561194a565b6104b760e0611a96565b61469b614689565b9060608252602080808080808088015f8152015f6124ed565b6104b7614693565b906146cb6133196104e7845490565b905f5b8181106146db5750505090565b9091926146f86133596001926146f08761191e565b815260200190565b9291016146ce565b906104b7916146bc565b906104ac61338c9261471b60405190565b93848092614700565b906104ac6147be6002614735614689565b946147466147428261470a565b8752565b61475c6147556001830161191e565b6020880152565b61477461476a83830161066a565b60ff166040880152565b61478c614782838301611934565b60ff166060880152565b6147a561479a83830161194a565b61ffff166080880152565b611d736147b3838301611960565b61ffff1660a0880152565b151560c0840152565b6104b790614724565b6147df6104b7916142ff6146b4565b6147c7565b6147ec614e61565b611e2d6147f7614edd565b6104ac614804600561066a565b611e58576104ac61482e565b6133d16104ac946110cb6060949897956110c4608086019a5f870152565b61483c6104b7336006610d3d565b90614845612e5b565b61484f8142611f93565b614863611d9d6104b7612ead336008610d3d565b11614a0a575b5061487333612da6565b9161487d5f61063c565b83146130b357600761489684612340612ead3385610d3d565b61489e612e67565b90811061308157506148b46148c1913390610d3d565b612f10856123408361191e565b5f92835b8254839082101561492c57612e20826148dd926120af565b600181016148ea81611cf5565b6148f6611d215f611387565b11918261490c575b5050612f61576001016148c5565b614923925090611dfb612f895f611e0194016126ba565b42105f806148fe565b50509192909261495361494c6122fb6149466122f0611f4b565b86611f56565b8094611fa5565b9061495d30610d34565b3161496e611d9d6104b78786611fdc565b106130705761497c42611387565b925b855486908210156149a15790611ca1855f6130088461499c966120af565b61497e565b5050937f92f2787b755dae547f1701582fe74c7abf277ec14db316dd01abc69cacf7a2599260016149d2920161210e565b6149db83614ef0565b6149e88161303433610d34565b6149f133610d34565b926124075f6149ff60405190565b938493429185614810565b6130f8611e016130f3614a23936130ed6130dd5f61063c565b5f614869565b6104ac6147e4565b614a39614fe7565b6104ac614a4530610d34565b31614a4f5f61063c565b811461351e5761345460026127fe565b6104ac614a31565b611c8b6104b791614a755f90565b506013610649565b614a8d6104b76002926142ff5f90565b01614a9781611960565b614aa3612de55f611efd565b14612e2057612e0f612e096122f0614aba93611960565b80821115612e24576104b791611fa5565b6126196104b7614add92612611606090565b90614ae6825190565b90614af082611add565b614af983611add565b614b0284611add565b614b0b85611add565b95614b1586611add565b94614b1f5f61063c565b87811015614bcd57614b318184611b14565b51614b3d81600c610649565b614b48826013610649565b614b519061066a565b91614b5c848a611b14565b52614b668161066a565b614b708489611b14565b90614b7a91611b33565b81614b858488611b14565b90614b8f9161254a565b614b9890610683565b614ba2838c611b14565b61ffff9091169052614bb3906157ff565b614bbd8289611b14565b60ff919091169052600101614b1f565b509396929550909391929050565b6104ac90614be7614fe7565b614c4c565b15614bf357565b60405162461bcd60e51b815260206004820152602660248201527f4f776e61626c653a206e6577206f776e657220697320746865207a65726f206160448201526564647265737360d01b606482015280608481015b0390fd5b6104ac90613b7f614c5f6107f65f6133e5565b6001600160a01b0383161415614bec565b6104ac90614bdb565b614c81614fe7565b60405162461bcd60e51b815260206004820152600e60248201526d4e6f74206170706c696361626c6560901b6044820152606490fd5b614c79565b614cc4614e61565b611e2d614ccf614edd565b6104ac614cdc600561066a565b611e58576104ac614cf16104b7336006610d3d565b90614cfb3361390a565b90614d055f61063c565b82146130b357614d1482611fe9565b90614d296001850161236e846123698361200b565b614d605f614d3642611387565b95019283614d456135c96120a5565b6001600160401b0387166020830181905260408301526135ef565b614d695f61063c565b614d746104b7845490565b811015614d935780611ca1865f613008614d8e95886120af565b614d69565b509250507fc16de066392da7e40ceccb739c331fc48a2e76bf147449613c48023d960eec3261240761306633610d34565b6104ac614cbc565b614dd533610d34565b7fe37b2ae9cc03ec700b9146c4df2fc797e7a1119c08fc25513755ab5315faa6d2614dff60405190565b80612407423483611e7c565b6104b7600261063c565b15614e1c57565b60405162461bcd60e51b815260206004820152601f60248201527f5265656e7472616e637947756172643a207265656e7472616e742063616c6c006044820152606490fd5b6104ac614e6e600161191e565b614e82614e79614e0b565b91821415614e15565b6001611fc1565b6104b7600161063c565b6104ac614e82614e89565b15614ea557565b60405162461bcd60e51b815260206004820152601060248201526f14185d5cd8589b194e881c185d5cd95960821b6044820152606490fd5b6104ac614eeb611d796136b2565b614e9e565b614efa60026127fe565b614f096134636107f65f6133e5565b146134f357614f235f8061348a612d3c612d3c60026127fe565b6134d1577fe37b2ae9cc03ec700b9146c4df2fc797e7a1119c08fc25513755ab5315faa6d2612407614f58612d3c60026127fe565b92614f6260405190565b918291429083611e7c565b606090614f79906158f7565b905090565b614f925f6104b792614f8d5f90565b500190565b61590b565b15614f9e57565b60405162461bcd60e51b815280614c48600482016020808252818101527f4f776e61626c653a2063616c6c6572206973206e6f7420746865206f776e6572604082015260600190565b6104ac614ff261405c565b614ffe613463336107f6565b14614f97565b9061501f611d9d5f6104b7946150175f90565b50019261063c565b615923565b90615037611d9d5f6104b7946150175f90565b615984565b9066ff0000000000009060301b611fb7565b9061505e6104b7611fd892151590565b825461503c565b6150729061ffff16612de5565b90039061ffff8211611d4057565b9065ffff000000009060201b611fb7565b906150a16104b7611fd892612a55565b8254615080565b9063ffff00009060101b611fb7565b906150c76104b7611fd892612a55565b82546150a8565b8054821015611b2e576120c76001915f5260205f2090565b915f1960089290920291821b911b611fb7565b921b90565b919061510f6104b7611fd89361063c565b9083546150e6565b90815491600160401b831015611a91578261513a9160016104ac950181556150ce565b906150fe565b61514d9061ffff16612de5565b019061ffff8211611d4057565b6104b761516891600b610d3d565b9215615276576151818361517b5f61063c565b90615117565b61518b60016104a2565b615194826104a2565b14801561525c575b8015615242575b156151c857506151c260026104ac9301916151bd8361194a565b615140565b906150b7565b6151d260066104a2565b6151db826104a2565b148015615228575b1561520357506151fd60026104ac9301916151bd83611960565b90615091565b90506152126127b860046104a2565b1461521a5750565b600160026104ac920161504e565b5061523360076104a2565b61523c826104a2565b146151e3565b5061524d60036104a2565b615256826104a2565b146151a3565b5061526760026104a2565b615270826104a2565b1461519c565b61528060016104a2565b615289826104a2565b148015615392575b8015615378575b156152de575060026104ac9201906152af8261194a565b6152bc61ffff8316612de5565b11156152d4576151c2906152cf8361194a565b615065565b506151c25f611efd565b6152e860066104a2565b6152f1826104a2565b14801561535e575b1561533a575060026104ac92019061531082611960565b61531d61ffff8316612de5565b1115615330576151fd906152cf83611960565b506151fd5f611efd565b90506153496127b860046104a2565b146153515750565b5f60026104ac920161504e565b5061536960076104a2565b615372826104a2565b146152f9565b5061538360036104a2565b61538c826104a2565b14615298565b5061539d60026104a2565b6153a6826104a2565b14615291565b91906008611fb79102916150f96001600160a01b03841b90565b91906153d76104b7611fd893610d34565b9083546153ac565b90815491600160401b831015611a9157826154029160016104ac950181556150ce565b906153c6565b615419611d79611c8b836010610d3d565b6154205750565b60016129f96104ac92615440615435600f5490565b6130e8836011610d3d565b61544b81600f6153df565b6010610d3d565b1561545957565b60405162461bcd60e51b815260206004820152601d60248201527f416464726573733a20696e73756666696369656e742062616c616e63650000006044820152606490fd5b156154a557565b60405162461bcd60e51b815260206004820152603a60248201527f416464726573733a20756e61626c6520746f2073656e642076616c75652c207260448201527f6563697069656e74206d617920686176652072657665727465640000000000006064820152608490fd5b5f6104ac926155308293612d3c61552630610d34565b8490311015615452565b9061553a60405190565b90818003925af16155496133ee565b5061549e565b615557614edd565b6104ac61556560015f612afa565b7f62e78cea01bee320cd4e420270b5ea74000d11b0c9f74754ebdbfc544b05a25861558f33611034565b0390a1565b6104ac61554f565b611f95906001600160401b0316611d21565b6126196104b76155bf926126115f90565b906155c95f61063c565b6155d46104b7845190565b8110156127ef576155f15f6127a5600c6126676126638689611b14565b6155fe6127b860056104a2565b1461560b576001016155c9565b506104b791506156259061561f604b611387565b9061207e565b61562f6064611387565b9061559c565b6156426301e1338061063c565b8110156156a45761565562ed4e0061063c565b811015615698576156686276a70061063c565b81101561568d5761567e611d9d62278d0061063c565b10156138bb576104b75f61063c565b506104b7606461063c565b506104b761012c61063c565b506104b76101f461063c565b6156c96142ae6156bf5f6127fe565b612d3c845f61427c565b907f8be0079c531659141344cd1fd0a4f28419497f9722a3daafe3b4186f6b6457e06142df60405190565b90615707611d9d5f6104b7946150175f90565b6159ee565b634e487b7160e01b5f52603160045260245ffd5b6104ac915f916153c6565b8054801561574d575f19019061574a61574483836150ce565b90615720565b55565b61570c565b6104ac915f916150fe565b61576b611c8b826010610d3d565b6157725750565b5f6157cd6104ac9260116157b96157b461578f612ead8585610d3d565b600f906157a761579d835490565b613097600161063c565b908181036157d257505090565b61572b565b6157c8846129f9846010610d3d565b610d3d565b615752565b6130e86157eb6157e56104b794866150ce565b90611003565b6157f98161540285886150ce565b87610d3d565b615809600461073f565b6158128261073f565b1461588357615821600361073f565b61582a8261073f565b1461587857615839600261073f565b6158428261073f565b1461586d576158546145ad600161073f565b14615863576104b760016126c4565b6104b760026126c4565b506104b760036126c4565b506104b760046126c4565b506104b760056126c4565b9061589d6133196104e7845490565b905f5b8181106158ad5750505090565b9091926158c26133596001926146f08761191e565b9291016158a0565b906104b79161588e565b906104ac61338c926158e560405190565b938480926158ca565b6104b7906158d4565b5f6104b791615904606090565b50016158ee565b5f6104b7916159175f90565b50015490565b90610653565b61593b916001612ead926159345f90565b500161591d565b615947611d9d5f61063c565b141590565b919061510f6104b7611fd89390565b90815491600160401b831015611a91578261597e9160016104ac950181556150ce565b9061594c565b615991611d798383615923565b156159be576159b9916130e89060016159b2846159ae848261595b565b5490565b930161591d565b600190565b50505f90565b6104ac915f9161594c565b8054801561574d575f19019061574a6159e883836150ce565b906159c4565b906159ff612ead826001850161591d565b615a085f61063c565b8114615a9f576157cd6104b7925f92615a5b95615a606001978893615a35615a2f8661063c565b82611fa5565b88850191615a4d615a44845490565b6130978961063c565b828103615a66575b50505090565b6159cf565b0161591d565b61597e615a8f615a9794615a86615a806130e895896150ce565b90610d52565b928391886150ce565b88880161591d565b5f8080615a55565b5050505f9056fea2646970667358221220cb3dccbd7fb2a26314222f10cd471e6c45345e77ff90327bcc31f5758ba5bf7764736f6c634300081c0033",
  "linkReferences": {},
  "deployedLinkReferences": {}
}