{
  "_format": "hh-sol-artifact-1",
  "contractName": "EnhancedSmartStakingView",
  "sourceName": "contracts/SmartStaking/EnhancedSmartStakingView.sol",
  "abi": [
    {
      "inputs": [
        {
          "internalType": "address",
          "name": "_stakingContract",
          "type": "address"
        }
      ],
      "stateMutability": "nonpayable",
      "type": "constructor"
    },
    {
      "anonymous": false,
      "inputs": [
        {
          "indexed": true,
          "internalType": "address",
          "name": "previousOwner",
          "type": "address"
        },
        {
          "indexed": true,
          "internalType": "address",
          "name": "newOwner",
          "type": "address"
        }
      ],
      "name": "OwnershipTransferred",
      "type": "event"
    },
    {
      "anonymous": false,
      "inputs": [
        {
          "indexed": true,
          "internalType": "address",
          "name": "newAddress",
          "type": "address"
        }
      ],
      "name": "StakingContractUpdated",
      "type": "event"
    },
    {
      "inputs": [
        {
          "internalType": "uint256",
          "name": "amount",
          "type": "uint256"
        },
        {
          "internalType": "uint8",
          "name": "lockupPeriodIndex",
          "type": "uint8"
        },
        {
          "internalType": "uint256",
          "name": "daysToProject",
          "type": "uint256"
        }
      ],
      "name": "calculatePotentialEarnings",
      "outputs": [
        {
          "internalType": "uint256",
          "name": "projectedEarnings",
          "type": "uint256"
        },
        {
          "internalType": "uint256",
          "name": "effectiveAPY",
          "type": "uint256"
        }
      ],
      "stateMutability": "pure",
      "type": "function"
    },
    {
      "inputs": [],
      "name": "getAPYRates",
      "outputs": [
        {
          "internalType": "uint256",
          "name": "flexibleAPY",
          "type": "uint256"
        },
        {
          "internalType": "uint256",
          "name": "locked30APY",
          "type": "uint256"
        },
        {
          "internalType": "uint256",
          "name": "locked90APY",
          "type": "uint256"
        },
        {
          "internalType": "uint256",
          "name": "locked180APY",
          "type": "uint256"
        },
        {
          "internalType": "uint256",
          "name": "locked365APY",
          "type": "uint256"
        }
      ],
      "stateMutability": "pure",
      "type": "function"
    },
    {
      "inputs": [
        {
          "internalType": "address",
          "name": "user",
          "type": "address"
        }
      ],
      "name": "getActiveSkillsWithDetails",
      "outputs": [
        {
          "components": [
            {
              "internalType": "enum IStakingIntegration.SkillType",
              "name": "skillType",
              "type": "uint8"
            },
            {
              "internalType": "uint16",
              "name": "effectValue",
              "type": "uint16"
            },
            {
              "internalType": "enum IStakingIntegration.Rarity",
              "name": "rarity",
              "type": "uint8"
            },
            {
              "internalType": "uint64",
              "name": "activatedAt",
              "type": "uint64"
            },
            {
              "internalType": "uint64",
              "name": "cooldownEnds",
              "type": "uint64"
            },
            {
              "internalType": "bool",
              "name": "isActive",
              "type": "bool"
            },
            {
              "internalType": "uint256",
              "name": "rarityBoost",
              "type": "uint256"
            }
          ],
          "internalType": "struct EnhancedSmartStakingView.SkillDetails[]",
          "name": "",
          "type": "tuple[]"
        }
      ],
      "stateMutability": "view",
      "type": "function"
    },
    {
      "inputs": [
        {
          "internalType": "uint256",
          "name": "page",
          "type": "uint256"
        },
        {
          "internalType": "uint256",
          "name": "pageSize",
          "type": "uint256"
        }
      ],
      "name": "getAutoCompoundUsersPage",
      "outputs": [
        {
          "internalType": "address[]",
          "name": "users",
          "type": "address[]"
        },
        {
          "internalType": "uint256",
          "name": "totalPages",
          "type": "uint256"
        },
        {
          "internalType": "uint256",
          "name": "currentPage",
          "type": "uint256"
        }
      ],
      "stateMutability": "view",
      "type": "function"
    },
    {
      "inputs": [],
      "name": "getAvailableSkillsConfiguration",
      "outputs": [
        {
          "components": [
            {
              "internalType": "enum IStakingIntegration.SkillType",
              "name": "skillType",
              "type": "uint8"
            },
            {
              "internalType": "bool",
              "name": "enabled",
              "type": "bool"
            },
            {
              "internalType": "uint16",
              "name": "effectValue",
              "type": "uint16"
            },
            {
              "internalType": "string",
              "name": "description",
              "type": "string"
            }
          ],
          "internalType": "struct EnhancedSmartStakingView.SkillConfig[]",
          "name": "",
          "type": "tuple[]"
        }
      ],
      "stateMutability": "view",
      "type": "function"
    },
    {
      "inputs": [],
      "name": "getContractBalance",
      "outputs": [
        {
          "internalType": "uint256",
          "name": "contractBalance",
          "type": "uint256"
        },
        {
          "internalType": "uint256",
          "name": "totalPoolBalance_",
          "type": "uint256"
        },
        {
          "internalType": "uint256",
          "name": "availableForRewards",
          "type": "uint256"
        }
      ],
      "stateMutability": "view",
      "type": "function"
    },
    {
      "inputs": [
        {
          "internalType": "address",
          "name": "_user",
          "type": "address"
        }
      ],
      "name": "getDashboardData",
      "outputs": [
        {
          "internalType": "uint256",
          "name": "poolTotalValue",
          "type": "uint256"
        },
        {
          "internalType": "uint256",
          "name": "poolActiveUsers",
          "type": "uint256"
        },
        {
          "internalType": "uint256",
          "name": "poolContractBalance",
          "type": "uint256"
        },
        {
          "internalType": "uint8",
          "name": "poolHealthStatus",
          "type": "uint8"
        },
        {
          "internalType": "uint256",
          "name": "userStaked",
          "type": "uint256"
        },
        {
          "internalType": "uint256",
          "name": "userRewards",
          "type": "uint256"
        },
        {
          "internalType": "uint256",
          "name": "userDeposits",
          "type": "uint256"
        },
        {
          "internalType": "uint256",
          "name": "userFlexible",
          "type": "uint256"
        },
        {
          "internalType": "uint256",
          "name": "userLocked",
          "type": "uint256"
        }
      ],
      "stateMutability": "view",
      "type": "function"
    },
    {
      "inputs": [
        {
          "internalType": "address",
          "name": "_user",
          "type": "address"
        }
      ],
      "name": "getDashboardUserSummary",
      "outputs": [
        {
          "internalType": "uint256",
          "name": "userStaked",
          "type": "uint256"
        },
        {
          "internalType": "uint256",
          "name": "userPendingRewards",
          "type": "uint256"
        },
        {
          "internalType": "uint256",
          "name": "userDepositCount",
          "type": "uint256"
        },
        {
          "internalType": "uint256",
          "name": "userFlexibleBalance",
          "type": "uint256"
        },
        {
          "internalType": "uint256",
          "name": "userLockedBalance",
          "type": "uint256"
        },
        {
          "internalType": "uint256",
          "name": "userUnlockedBalance",
          "type": "uint256"
        }
      ],
      "stateMutability": "view",
      "type": "function"
    },
    {
      "inputs": [
        {
          "internalType": "address",
          "name": "_user",
          "type": "address"
        },
        {
          "internalType": "uint256",
          "name": "_depositIndex",
          "type": "uint256"
        }
      ],
      "name": "getDepositDetails",
      "outputs": [
        {
          "components": [
            {
              "internalType": "uint256",
              "name": "depositIndex",
              "type": "uint256"
            },
            {
              "internalType": "uint256",
              "name": "amount",
              "type": "uint256"
            },
            {
              "internalType": "uint256",
              "name": "currentRewards",
              "type": "uint256"
            },
            {
              "internalType": "uint256",
              "name": "timestamp",
              "type": "uint256"
            },
            {
              "internalType": "uint256",
              "name": "lastClaimTime",
              "type": "uint256"
            },
            {
              "internalType": "uint256",
              "name": "lockupDuration",
              "type": "uint256"
            },
            {
              "internalType": "uint256",
              "name": "unlockTime",
              "type": "uint256"
            },
            {
              "internalType": "string",
              "name": "lockupType",
              "type": "string"
            },
            {
              "internalType": "bool",
              "name": "isLocked",
              "type": "bool"
            },
            {
              "internalType": "bool",
              "name": "isWithdrawable",
              "type": "bool"
            }
          ],
          "internalType": "struct EnhancedSmartStakingView.DepositDetails",
          "name": "",
          "type": "tuple"
        }
      ],
      "stateMutability": "view",
      "type": "function"
    },
    {
      "inputs": [
        {
          "internalType": "address",
          "name": "_user",
          "type": "address"
        },
        {
          "internalType": "uint256",
          "name": "_depositIndex",
          "type": "uint256"
        }
      ],
      "name": "getDepositRewardRates",
      "outputs": [
        {
          "internalType": "uint256",
          "name": "hourlyRate",
          "type": "uint256"
        },
        {
          "internalType": "uint256",
          "name": "dailyRate",
          "type": "uint256"
        },
        {
          "internalType": "uint256",
          "name": "monthlyRate",
          "type": "uint256"
        },
        {
          "internalType": "uint256",
          "name": "totalAccrued",
          "type": "uint256"
        }
      ],
      "stateMutability": "view",
      "type": "function"
    },
    {
      "inputs": [
        {
          "internalType": "address",
          "name": "_user",
          "type": "address"
        }
      ],
      "name": "getDepositSummaryByType",
      "outputs": [
        {
          "internalType": "uint256[]",
          "name": "summaries",
          "type": "uint256[]"
        }
      ],
      "stateMutability": "view",
      "type": "function"
    },
    {
      "inputs": [
        {
          "internalType": "address",
          "name": "_user",
          "type": "address"
        }
      ],
      "name": "getEarningsBreakdown",
      "outputs": [
        {
          "internalType": "uint256",
          "name": "dailyEarnings",
          "type": "uint256"
        },
        {
          "internalType": "uint256",
          "name": "monthlyEarnings",
          "type": "uint256"
        },
        {
          "internalType": "uint256",
          "name": "annualEarnings",
          "type": "uint256"
        }
      ],
      "stateMutability": "view",
      "type": "function"
    },
    {
      "inputs": [
        {
          "internalType": "address",
          "name": "user",
          "type": "address"
        },
        {
          "internalType": "uint256",
          "name": "daysFromNow",
          "type": "uint256"
        }
      ],
      "name": "getEstimatedRewards",
      "outputs": [
        {
          "internalType": "uint256",
          "name": "baseEstimate",
          "type": "uint256"
        },
        {
          "internalType": "uint256",
          "name": "boostedEstimate",
          "type": "uint256"
        },
        {
          "internalType": "uint256",
          "name": "activeSkillsCount",
          "type": "uint256"
        }
      ],
      "stateMutability": "view",
      "type": "function"
    },
    {
      "inputs": [],
      "name": "getGlobalStats",
      "outputs": [
        {
          "components": [
            {
              "internalType": "uint256",
              "name": "totalValueLocked",
              "type": "uint256"
            },
            {
              "internalType": "uint256",
              "name": "totalUniqueUsers",
              "type": "uint256"
            },
            {
              "internalType": "uint256",
              "name": "contractBalance",
              "type": "uint256"
            },
            {
              "internalType": "uint256",
              "name": "availableRewards",
              "type": "uint256"
            },
            {
              "internalType": "uint8",
              "name": "healthStatus",
              "type": "uint8"
            },
            {
              "internalType": "uint256",
              "name": "timestamp",
              "type": "uint256"
            }
          ],
          "internalType": "struct EnhancedSmartStakingView.GlobalStakingStats",
          "name": "stats",
          "type": "tuple"
        }
      ],
      "stateMutability": "view",
      "type": "function"
    },
    {
      "inputs": [],
      "name": "getHourlyROIRates",
      "outputs": [
        {
          "internalType": "uint256[5]",
          "name": "rates",
          "type": "uint256[5]"
        }
      ],
      "stateMutability": "pure",
      "type": "function"
    },
    {
      "inputs": [
        {
          "internalType": "address",
          "name": "_user",
          "type": "address"
        }
      ],
      "name": "getLockedDepositInfo",
      "outputs": [
        {
          "internalType": "bool",
          "name": "hasLocked",
          "type": "bool"
        },
        {
          "internalType": "uint256",
          "name": "lockedAmount",
          "type": "uint256"
        }
      ],
      "stateMutability": "view",
      "type": "function"
    },
    {
      "inputs": [],
      "name": "getMarketStats",
      "outputs": [
        {
          "components": [
            {
              "internalType": "uint256",
              "name": "autoCompoundUsersCount",
              "type": "uint256"
            },
            {
              "internalType": "uint256",
              "name": "timestamp",
              "type": "uint256"
            }
          ],
          "internalType": "struct EnhancedSmartStakingView.MarketStats",
          "name": "",
          "type": "tuple"
        }
      ],
      "stateMutability": "view",
      "type": "function"
    },
    {
      "inputs": [
        {
          "internalType": "address",
          "name": "_user",
          "type": "address"
        }
      ],
      "name": "getNextUnlockTime",
      "outputs": [
        {
          "internalType": "uint256",
          "name": "secondsUntilUnlock",
          "type": "uint256"
        },
        {
          "internalType": "uint256",
          "name": "nextUnlockTime",
          "type": "uint256"
        }
      ],
      "stateMutability": "view",
      "type": "function"
    },
    {
      "inputs": [],
      "name": "getPoolHealth",
      "outputs": [
        {
          "internalType": "uint8",
          "name": "healthStatus",
          "type": "uint8"
        },
        {
          "internalType": "string",
          "name": "statusMessage",
          "type": "string"
        },
        {
          "internalType": "uint256",
          "name": "reserveRatio",
          "type": "uint256"
        },
        {
          "internalType": "string",
          "name": "description",
          "type": "string"
        }
      ],
      "stateMutability": "view",
      "type": "function"
    },
    {
      "inputs": [],
      "name": "getPoolStats",
      "outputs": [
        {
          "internalType": "uint256",
          "name": "totalPoolValue",
          "type": "uint256"
        },
        {
          "internalType": "uint256",
          "name": "totalRewards",
          "type": "uint256"
        },
        {
          "internalType": "uint256",
          "name": "activeUsersCount",
          "type": "uint256"
        },
        {
          "internalType": "uint256",
          "name": "totalDeposits",
          "type": "uint256"
        },
        {
          "internalType": "uint256",
          "name": "contractBalanceValue",
          "type": "uint256"
        }
      ],
      "stateMutability": "view",
      "type": "function"
    },
    {
      "inputs": [
        {
          "internalType": "address",
          "name": "user",
          "type": "address"
        }
      ],
      "name": "getPortfolioSummary",
      "outputs": [
        {
          "components": [
            {
              "internalType": "uint256",
              "name": "totalDeposited",
              "type": "uint256"
            },
            {
              "internalType": "uint256",
              "name": "pendingRewards",
              "type": "uint256"
            },
            {
              "internalType": "uint256",
              "name": "totalValue",
              "type": "uint256"
            },
            {
              "internalType": "uint256",
              "name": "depositCount",
              "type": "uint256"
            },
            {
              "internalType": "uint256",
              "name": "rewardEfficiency",
              "type": "uint256"
            }
          ],
          "internalType": "struct EnhancedSmartStakingView.PortfolioSummary",
          "name": "",
          "type": "tuple"
        }
      ],
      "stateMutability": "view",
      "type": "function"
    },
    {
      "inputs": [
        {
          "internalType": "address",
          "name": "user",
          "type": "address"
        }
      ],
      "name": "getSkillEffectiveness",
      "outputs": [
        {
          "components": [
            {
              "internalType": "enum IStakingIntegration.SkillType",
              "name": "skillType",
              "type": "uint8"
            },
            {
              "internalType": "uint16",
              "name": "effectValue",
              "type": "uint16"
            },
            {
              "internalType": "enum IStakingIntegration.Rarity",
              "name": "rarity",
              "type": "uint8"
            },
            {
              "internalType": "bool",
              "name": "isActive",
              "type": "bool"
            },
            {
              "internalType": "uint256",
              "name": "impactValue",
              "type": "uint256"
            }
          ],
          "internalType": "struct EnhancedSmartStakingView.SkillEffectiveness[]",
          "name": "",
          "type": "tuple[]"
        }
      ],
      "stateMutability": "view",
      "type": "function"
    },
    {
      "inputs": [
        {
          "internalType": "uint256",
          "name": "nftId",
          "type": "uint256"
        }
      ],
      "name": "getSkillRarity",
      "outputs": [
        {
          "internalType": "enum IStakingIntegration.Rarity",
          "name": "rarity",
          "type": "uint8"
        },
        {
          "internalType": "uint256",
          "name": "rarityBoost",
          "type": "uint256"
        },
        {
          "internalType": "uint8",
          "name": "stars",
          "type": "uint8"
        }
      ],
      "stateMutability": "view",
      "type": "function"
    },
    {
      "inputs": [],
      "name": "getStakeDistribution",
      "outputs": [
        {
          "internalType": "uint256",
          "name": "flexibleTotal",
          "type": "uint256"
        },
        {
          "internalType": "uint256",
          "name": "locked30Total",
          "type": "uint256"
        },
        {
          "internalType": "uint256",
          "name": "locked90Total",
          "type": "uint256"
        },
        {
          "internalType": "uint256",
          "name": "locked180Total",
          "type": "uint256"
        },
        {
          "internalType": "uint256",
          "name": "locked365Total",
          "type": "uint256"
        },
        {
          "internalType": "uint256",
          "name": "totalLockedValue",
          "type": "uint256"
        },
        {
          "internalType": "uint256",
          "name": "totalFlexibleValue",
          "type": "uint256"
        }
      ],
      "stateMutability": "pure",
      "type": "function"
    },
    {
      "inputs": [
        {
          "internalType": "address",
          "name": "_user",
          "type": "address"
        }
      ],
      "name": "getStakingEfficiency",
      "outputs": [
        {
          "internalType": "uint256",
          "name": "efficiency",
          "type": "uint256"
        },
        {
          "internalType": "string[3]",
          "name": "suggestions",
          "type": "string[3]"
        }
      ],
      "stateMutability": "view",
      "type": "function"
    },
    {
      "inputs": [],
      "name": "getStakingRatesInfo",
      "outputs": [
        {
          "components": [
            {
              "internalType": "uint256[5]",
              "name": "lockupPeriods",
              "type": "uint256[5]"
            },
            {
              "internalType": "uint256[5]",
              "name": "hourlyROI",
              "type": "uint256[5]"
            },
            {
              "internalType": "uint256[5]",
              "name": "annualAPY",
              "type": "uint256[5]"
            },
            {
              "internalType": "string[5]",
              "name": "periodNames",
              "type": "string[5]"
            }
          ],
          "internalType": "struct EnhancedSmartStakingView.StakingRatesInfo",
          "name": "info",
          "type": "tuple"
        }
      ],
      "stateMutability": "pure",
      "type": "function"
    },
    {
      "inputs": [
        {
          "internalType": "address",
          "name": "user",
          "type": "address"
        }
      ],
      "name": "getTotalDeposit",
      "outputs": [
        {
          "internalType": "uint256",
          "name": "",
          "type": "uint256"
        }
      ],
      "stateMutability": "view",
      "type": "function"
    },
    {
      "inputs": [
        {
          "internalType": "address",
          "name": "user",
          "type": "address"
        }
      ],
      "name": "getUserDeposits",
      "outputs": [
        {
          "components": [
            {
              "internalType": "uint256",
              "name": "totalDeposited",
              "type": "uint256"
            },
            {
              "internalType": "uint256",
              "name": "totalRewards",
              "type": "uint256"
            },
            {
              "internalType": "uint256",
              "name": "depositCount",
              "type": "uint256"
            },
            {
              "internalType": "uint256",
              "name": "lastWithdrawTime",
              "type": "uint256"
            }
          ],
          "internalType": "struct EnhancedSmartStakingView.UserDepositInfo",
          "name": "",
          "type": "tuple"
        }
      ],
      "stateMutability": "view",
      "type": "function"
    },
    {
      "inputs": [
        {
          "internalType": "address",
          "name": "_user",
          "type": "address"
        }
      ],
      "name": "getUserDepositsByType",
      "outputs": [
        {
          "components": [
            {
              "internalType": "uint256",
              "name": "depositIndex",
              "type": "uint256"
            },
            {
              "internalType": "uint256",
              "name": "amount",
              "type": "uint256"
            },
            {
              "internalType": "uint256",
              "name": "currentRewards",
              "type": "uint256"
            },
            {
              "internalType": "uint256",
              "name": "timestamp",
              "type": "uint256"
            },
            {
              "internalType": "uint256",
              "name": "lastClaimTime",
              "type": "uint256"
            },
            {
              "internalType": "uint256",
              "name": "lockupDuration",
              "type": "uint256"
            },
            {
              "internalType": "uint256",
              "name": "unlockTime",
              "type": "uint256"
            },
            {
              "internalType": "string",
              "name": "lockupType",
              "type": "string"
            },
            {
              "internalType": "bool",
              "name": "isLocked",
              "type": "bool"
            },
            {
              "internalType": "bool",
              "name": "isWithdrawable",
              "type": "bool"
            }
          ],
          "internalType": "struct EnhancedSmartStakingView.DepositDetails[]",
          "name": "flexible",
          "type": "tuple[]"
        },
        {
          "components": [
            {
              "internalType": "uint256",
              "name": "depositIndex",
              "type": "uint256"
            },
            {
              "internalType": "uint256",
              "name": "amount",
              "type": "uint256"
            },
            {
              "internalType": "uint256",
              "name": "currentRewards",
              "type": "uint256"
            },
            {
              "internalType": "uint256",
              "name": "timestamp",
              "type": "uint256"
            },
            {
              "internalType": "uint256",
              "name": "lastClaimTime",
              "type": "uint256"
            },
            {
              "internalType": "uint256",
              "name": "lockupDuration",
              "type": "uint256"
            },
            {
              "internalType": "uint256",
              "name": "unlockTime",
              "type": "uint256"
            },
            {
              "internalType": "string",
              "name": "lockupType",
              "type": "string"
            },
            {
              "internalType": "bool",
              "name": "isLocked",
              "type": "bool"
            },
            {
              "internalType": "bool",
              "name": "isWithdrawable",
              "type": "bool"
            }
          ],
          "internalType": "struct EnhancedSmartStakingView.DepositDetails[]",
          "name": "locked30",
          "type": "tuple[]"
        },
        {
          "components": [
            {
              "internalType": "uint256",
              "name": "depositIndex",
              "type": "uint256"
            },
            {
              "internalType": "uint256",
              "name": "amount",
              "type": "uint256"
            },
            {
              "internalType": "uint256",
              "name": "currentRewards",
              "type": "uint256"
            },
            {
              "internalType": "uint256",
              "name": "timestamp",
              "type": "uint256"
            },
            {
              "internalType": "uint256",
              "name": "lastClaimTime",
              "type": "uint256"
            },
            {
              "internalType": "uint256",
              "name": "lockupDuration",
              "type": "uint256"
            },
            {
              "internalType": "uint256",
              "name": "unlockTime",
              "type": "uint256"
            },
            {
              "internalType": "string",
              "name": "lockupType",
              "type": "string"
            },
            {
              "internalType": "bool",
              "name": "isLocked",
              "type": "bool"
            },
            {
              "internalType": "bool",
              "name": "isWithdrawable",
              "type": "bool"
            }
          ],
          "internalType": "struct EnhancedSmartStakingView.DepositDetails[]",
          "name": "locked90",
          "type": "tuple[]"
        },
        {
          "components": [
            {
              "internalType": "uint256",
              "name": "depositIndex",
              "type": "uint256"
            },
            {
              "internalType": "uint256",
              "name": "amount",
              "type": "uint256"
            },
            {
              "internalType": "uint256",
              "name": "currentRewards",
              "type": "uint256"
            },
            {
              "internalType": "uint256",
              "name": "timestamp",
              "type": "uint256"
            },
            {
              "internalType": "uint256",
              "name": "lastClaimTime",
              "type": "uint256"
            },
            {
              "internalType": "uint256",
              "name": "lockupDuration",
              "type": "uint256"
            },
            {
              "internalType": "uint256",
              "name": "unlockTime",
              "type": "uint256"
            },
            {
              "internalType": "string",
              "name": "lockupType",
              "type": "string"
            },
            {
              "internalType": "bool",
              "name": "isLocked",
              "type": "bool"
            },
            {
              "internalType": "bool",
              "name": "isWithdrawable",
              "type": "bool"
            }
          ],
          "internalType": "struct EnhancedSmartStakingView.DepositDetails[]",
          "name": "locked180",
          "type": "tuple[]"
        },
        {
          "components": [
            {
              "internalType": "uint256",
              "name": "depositIndex",
              "type": "uint256"
            },
            {
              "internalType": "uint256",
              "name": "amount",
              "type": "uint256"
            },
            {
              "internalType": "uint256",
              "name": "currentRewards",
              "type": "uint256"
            },
            {
              "internalType": "uint256",
              "name": "timestamp",
              "type": "uint256"
            },
            {
              "internalType": "uint256",
              "name": "lastClaimTime",
              "type": "uint256"
            },
            {
              "internalType": "uint256",
              "name": "lockupDuration",
              "type": "uint256"
            },
            {
              "internalType": "uint256",
              "name": "unlockTime",
              "type": "uint256"
            },
            {
              "internalType": "string",
              "name": "lockupType",
              "type": "string"
            },
            {
              "internalType": "bool",
              "name": "isLocked",
              "type": "bool"
            },
            {
              "internalType": "bool",
              "name": "isWithdrawable",
              "type": "bool"
            }
          ],
          "internalType": "struct EnhancedSmartStakingView.DepositDetails[]",
          "name": "locked365",
          "type": "tuple[]"
        }
      ],
      "stateMutability": "view",
      "type": "function"
    },
    {
      "inputs": [
        {
          "internalType": "address",
          "name": "user",
          "type": "address"
        }
      ],
      "name": "getUserDetailedStats",
      "outputs": [
        {
          "components": [
            {
              "internalType": "uint256",
              "name": "totalDeposited",
              "type": "uint256"
            },
            {
              "internalType": "uint256",
              "name": "totalRewards",
              "type": "uint256"
            },
            {
              "internalType": "uint256",
              "name": "boostedRewards",
              "type": "uint256"
            },
            {
              "internalType": "uint256",
              "name": "boostedRewardsWithRarity",
              "type": "uint256"
            },
            {
              "internalType": "uint256",
              "name": "depositCount",
              "type": "uint256"
            },
            {
              "internalType": "uint256",
              "name": "lastWithdrawTime",
              "type": "uint256"
            },
            {
              "internalType": "uint16",
              "name": "userLevel",
              "type": "uint16"
            },
            {
              "internalType": "uint256",
              "name": "userXP",
              "type": "uint256"
            },
            {
              "internalType": "uint8",
              "name": "maxActiveSkills",
              "type": "uint8"
            },
            {
              "internalType": "uint8",
              "name": "activeSkillsCount",
              "type": "uint8"
            },
            {
              "internalType": "uint16",
              "name": "stakingBoostTotal",
              "type": "uint16"
            },
            {
              "internalType": "uint16",
              "name": "feeDiscountTotal",
              "type": "uint16"
            },
            {
              "internalType": "bool",
              "name": "hasAutoCompound",
              "type": "bool"
            }
          ],
          "internalType": "struct EnhancedSmartStakingView.UserStats",
          "name": "",
          "type": "tuple"
        }
      ],
      "stateMutability": "view",
      "type": "function"
    },
    {
      "inputs": [
        {
          "internalType": "address",
          "name": "user",
          "type": "address"
        }
      ],
      "name": "getUserInfoWithSkills",
      "outputs": [
        {
          "components": [
            {
              "internalType": "uint256",
              "name": "totalDeposited",
              "type": "uint256"
            },
            {
              "internalType": "uint256",
              "name": "totalRewards",
              "type": "uint256"
            },
            {
              "internalType": "uint256",
              "name": "depositCount",
              "type": "uint256"
            },
            {
              "internalType": "uint256",
              "name": "lastWithdrawTime",
              "type": "uint256"
            },
            {
              "components": [
                {
                  "internalType": "uint256[]",
                  "name": "activeNFTIds",
                  "type": "uint256[]"
                },
                {
                  "internalType": "uint256",
                  "name": "totalXP",
                  "type": "uint256"
                },
                {
                  "internalType": "uint16",
                  "name": "level",
                  "type": "uint16"
                },
                {
                  "internalType": "uint8",
                  "name": "maxActiveSkills",
                  "type": "uint8"
                },
                {
                  "internalType": "uint16",
                  "name": "stakingBoostTotal",
                  "type": "uint16"
                },
                {
                  "internalType": "uint16",
                  "name": "feeDiscountTotal",
                  "type": "uint16"
                },
                {
                  "internalType": "bool",
                  "name": "hasAutoCompound",
                  "type": "bool"
                }
              ],
              "internalType": "struct IStakingIntegration.UserSkillProfile",
              "name": "skillProfile",
              "type": "tuple"
            },
            {
              "components": [
                {
                  "internalType": "enum IStakingIntegration.SkillType",
                  "name": "skillType",
                  "type": "uint8"
                },
                {
                  "internalType": "uint16",
                  "name": "effectValue",
                  "type": "uint16"
                },
                {
                  "internalType": "enum IStakingIntegration.Rarity",
                  "name": "rarity",
                  "type": "uint8"
                },
                {
                  "internalType": "uint64",
                  "name": "activatedAt",
                  "type": "uint64"
                },
                {
                  "internalType": "uint64",
                  "name": "cooldownEnds",
                  "type": "uint64"
                },
                {
                  "internalType": "bool",
                  "name": "isActive",
                  "type": "bool"
                }
              ],
              "internalType": "struct IStakingIntegration.NFTSkill[]",
              "name": "activeSkills",
              "type": "tuple[]"
            }
          ],
          "internalType": "struct EnhancedSmartStakingView.UserInfoWithSkills",
          "name": "",
          "type": "tuple"
        }
      ],
      "stateMutability": "view",
      "type": "function"
    },
    {
      "inputs": [
        {
          "internalType": "address",
          "name": "_user",
          "type": "address"
        }
      ],
      "name": "getUserLockupAnalysis",
      "outputs": [
        {
          "components": [
            {
              "internalType": "uint256",
              "name": "totalFlexible",
              "type": "uint256"
            },
            {
              "internalType": "uint256",
              "name": "totalLocked30",
              "type": "uint256"
            },
            {
              "internalType": "uint256",
              "name": "totalLocked90",
              "type": "uint256"
            },
            {
              "internalType": "uint256",
              "name": "totalLocked180",
              "type": "uint256"
            },
            {
              "internalType": "uint256",
              "name": "totalLocked365",
              "type": "uint256"
            },
            {
              "internalType": "uint256",
              "name": "nextUnlockAmount",
              "type": "uint256"
            },
            {
              "internalType": "uint256",
              "name": "nextUnlockTime",
              "type": "uint256"
            }
          ],
          "internalType": "struct EnhancedSmartStakingView.LockupAnalysis",
          "name": "analysis",
          "type": "tuple"
        }
      ],
      "stateMutability": "view",
      "type": "function"
    },
    {
      "inputs": [
        {
          "internalType": "address",
          "name": "user",
          "type": "address"
        }
      ],
      "name": "getUserMetrics",
      "outputs": [
        {
          "components": [
            {
              "internalType": "uint256",
              "name": "totalDeposited",
              "type": "uint256"
            },
            {
              "internalType": "uint256",
              "name": "totalRewards",
              "type": "uint256"
            },
            {
              "internalType": "uint256",
              "name": "deposits",
              "type": "uint256"
            },
            {
              "internalType": "uint8",
              "name": "activeSkills",
              "type": "uint8"
            },
            {
              "internalType": "uint16",
              "name": "level",
              "type": "uint16"
            },
            {
              "internalType": "uint256",
              "name": "xp",
              "type": "uint256"
            },
            {
              "internalType": "uint16",
              "name": "boosts",
              "type": "uint16"
            }
          ],
          "internalType": "struct EnhancedSmartStakingView.UserMetrics",
          "name": "",
          "type": "tuple"
        }
      ],
      "stateMutability": "view",
      "type": "function"
    },
    {
      "inputs": [
        {
          "internalType": "address",
          "name": "_user",
          "type": "address"
        }
      ],
      "name": "getUserPortfolio",
      "outputs": [
        {
          "components": [
            {
              "internalType": "uint256",
              "name": "totalDeposited",
              "type": "uint256"
            },
            {
              "internalType": "uint256",
              "name": "totalRewards",
              "type": "uint256"
            },
            {
              "internalType": "uint256",
              "name": "totalPortfolioValue",
              "type": "uint256"
            },
            {
              "internalType": "uint256",
              "name": "depositCount",
              "type": "uint256"
            },
            {
              "internalType": "uint256",
              "name": "flexibleBalance",
              "type": "uint256"
            },
            {
              "internalType": "uint256",
              "name": "lockedBalance",
              "type": "uint256"
            },
            {
              "internalType": "uint256",
              "name": "unlockedBalance",
              "type": "uint256"
            },
            {
              "internalType": "uint256",
              "name": "lastWithdrawTime",
              "type": "uint256"
            },
            {
              "components": [
                {
                  "internalType": "uint256",
                  "name": "depositIndex",
                  "type": "uint256"
                },
                {
                  "internalType": "uint256",
                  "name": "amount",
                  "type": "uint256"
                },
                {
                  "internalType": "uint256",
                  "name": "currentRewards",
                  "type": "uint256"
                },
                {
                  "internalType": "uint256",
                  "name": "timestamp",
                  "type": "uint256"
                },
                {
                  "internalType": "uint256",
                  "name": "lastClaimTime",
                  "type": "uint256"
                },
                {
                  "internalType": "uint256",
                  "name": "lockupDuration",
                  "type": "uint256"
                },
                {
                  "internalType": "uint256",
                  "name": "unlockTime",
                  "type": "uint256"
                },
                {
                  "internalType": "string",
                  "name": "lockupType",
                  "type": "string"
                },
                {
                  "internalType": "bool",
                  "name": "isLocked",
                  "type": "bool"
                },
                {
                  "internalType": "bool",
                  "name": "isWithdrawable",
                  "type": "bool"
                }
              ],
              "internalType": "struct EnhancedSmartStakingView.DepositDetails[]",
              "name": "deposits",
              "type": "tuple[]"
            }
          ],
          "internalType": "struct EnhancedSmartStakingView.UserPortfolio",
          "name": "portfolio",
          "type": "tuple"
        }
      ],
      "stateMutability": "view",
      "type": "function"
    },
    {
      "inputs": [
        {
          "internalType": "address",
          "name": "_user",
          "type": "address"
        }
      ],
      "name": "getUserRewardsProjection",
      "outputs": [
        {
          "components": [
            {
              "internalType": "uint256",
              "name": "hourlyRewards",
              "type": "uint256"
            },
            {
              "internalType": "uint256",
              "name": "dailyRewards",
              "type": "uint256"
            },
            {
              "internalType": "uint256",
              "name": "weeklyRewards",
              "type": "uint256"
            },
            {
              "internalType": "uint256",
              "name": "monthlyRewards",
              "type": "uint256"
            },
            {
              "internalType": "uint256",
              "name": "yearlyRewards",
              "type": "uint256"
            },
            {
              "internalType": "uint256",
              "name": "currentPendingRewards",
              "type": "uint256"
            }
          ],
          "internalType": "struct EnhancedSmartStakingView.UserRewardsProjection",
          "name": "projection",
          "type": "tuple"
        }
      ],
      "stateMutability": "view",
      "type": "function"
    },
    {
      "inputs": [
        {
          "internalType": "address",
          "name": "_user",
          "type": "address"
        }
      ],
      "name": "getWithdrawableDeposits",
      "outputs": [
        {
          "internalType": "uint256[]",
          "name": "withdrawableIndices",
          "type": "uint256[]"
        },
        {
          "internalType": "uint256",
          "name": "withdrawableAmount",
          "type": "uint256"
        }
      ],
      "stateMutability": "view",
      "type": "function"
    },
    {
      "inputs": [
        {
          "internalType": "address",
          "name": "_user",
          "type": "address"
        }
      ],
      "name": "getWithdrawalStatus",
      "outputs": [
        {
          "internalType": "bool",
          "name": "canWithdraw",
          "type": "bool"
        },
        {
          "internalType": "uint256",
          "name": "withdrawableRewards",
          "type": "uint256"
        },
        {
          "internalType": "uint256",
          "name": "lockedUntil",
          "type": "uint256"
        },
        {
          "internalType": "uint256",
          "name": "dailyLimitRemaining",
          "type": "uint256"
        }
      ],
      "stateMutability": "view",
      "type": "function"
    },
    {
      "inputs": [
        {
          "internalType": "address",
          "name": "user",
          "type": "address"
        }
      ],
      "name": "hasActiveStake",
      "outputs": [
        {
          "internalType": "bool",
          "name": "",
          "type": "bool"
        }
      ],
      "stateMutability": "view",
      "type": "function"
    },
    {
      "inputs": [],
      "name": "owner",
      "outputs": [
        {
          "internalType": "address",
          "name": "",
          "type": "address"
        }
      ],
      "stateMutability": "view",
      "type": "function"
    },
    {
      "inputs": [
        {
          "internalType": "address",
          "name": "_stakingContract",
          "type": "address"
        }
      ],
      "name": "setStakingContract",
      "outputs": [],
      "stateMutability": "nonpayable",
      "type": "function"
    },
    {
      "inputs": [],
      "name": "stakingContract",
      "outputs": [
        {
          "internalType": "contract IStakingViewData",
          "name": "",
          "type": "address"
        }
      ],
      "stateMutability": "view",
      "type": "function"
    },
    {
      "inputs": [
        {
          "internalType": "address",
          "name": "newOwner",
          "type": "address"
        }
      ],
      "name": "transferOwnership",
      "outputs": [],
      "stateMutability": "nonpayable",
      "type": "function"
    }
  ],
  "bytecode": "0x60806040523461002a576100196100146100bf565b610195565b604051616ae16101d38239616ae190f35b5f80fd5b634e487b7160e01b5f52604160045260245ffd5b90601f01601f191681019081106001600160401b0382111761006357604052565b61002e565b9061007c61007560405190565b9283610042565b565b6001600160a01b031690565b90565b6001600160a01b0381160361002a57565b9050519061007c8261008d565b9060208282031261002a5761008a9161009e565b61008a616cb4803803806100d281610068565b9283398101906100ab565b61007e61008a61008a9290565b61008a906100dd565b156100fa57565b60405162461bcd60e51b815260206004820152601860248201527f496e76616c6964207374616b696e6720636f6e747261637400000000000000006044820152606490fd5b61008a9061007e906001600160a01b031682565b61008a9061013f565b61008a90610153565b9061017561008a6101919261015c565b82546001600160a01b0319166001600160a01b03919091161790565b9055565b6101c16101c7916101bc6101ab61007e5f6100ea565b6001600160a01b03831614156100f3565b61015c565b5f610165565b61007c33600161016556fe60806040526004361015610011575f80fd5b5f3560e01c806301d9b842146102b057806302e17dbc146102ab57806308be9206146102a65780631252217f146102a157806316e1a0fe1461029c57806318e25659146102975780631edb27e9146102925780631fc8ee5e1461028d57806326bff2061461028857806328394095146102835780632a5bf6d21461027e57806334e57ad8146102795780633d0132e71461027457806346c3b8d41461026f578063494a599e1461026a57806369486d29146102655780636b4169c3146102605780636f9fb98a1461025b5780637491687e146102565780637bae41e714610251578063857184d11461024c57806387a7b7f6146102475780638da5cb5b1461024257806396039e841461023d5780639c28f80b146102385780639dd373b914610233578063b49b8bd71461022e578063b5b7add414610229578063bbb8518814610224578063bda628411461021f578063c289c7911461021a578063c5f5701514610215578063e346f57014610210578063e421ffb11461020b578063e7e7540014610206578063ea710dac14610201578063eb97e4eb146101fc578063edd05223146101f7578063ee99205c146101f2578063f2fde38b146101ed578063f9a46351146101e85763ff4cd5b9036102b55761194c565b611902565b6118a2565b61187b565b611809565b6117d1565b6116f1565b611688565b611625565b61155d565b6114eb565b61145f565b611438565b61133a565b611306565b611292565b6111bd565b61118f565b61110d565b6110d8565b611087565b610f95565b610f67565b610f21565b610ed5565b610e90565b610e06565b610dd5565b610d6b565b610d17565b610cbc565b610c37565b610bcd565b610b93565b610aff565b610a2f565b610863565b6107f4565b6105bc565b61055a565b61045a565b61042f565b5f80fd5b5f9103126102b557565b634e487b7160e01b5f52602160045260245ffd5b601111156102e157565b6102c3565b906102f0826102d7565b565b6102fb906102e6565b90565b610307906102f2565b9052565b5f5b83811061031c5750505f910152565b818101518382015260200161030d565b61034d61035660209361036093610341815190565b80835293849260200190565b9586910161030b565b601f01601f191690565b0190565b6102fb916060608082019261037f5f8201515f8501906102fe565b60208181015115159084015260408181015161ffff1690840152015190606081840391015261032c565b906102fb91610364565b906103c96103bf835190565b8083529160200190565b90816103db6020830284019460200190565b925f915b8383106103ee57505050505090565b9091929394602061041161040a838560019503875289516103a9565b9760200190565b93019301919392906103df565b60208082526102fb929101906103b3565b346102b55761043f3660046102b9565b61045661044a611c11565b6040519182918261041e565b0390f35b346102b55761046a3660046102b9565b610456610475611d72565b9361048597959793919360405190565b9788978890815260e081019796959094909390929091602086015260408501526060840152608083015260a082015260c00152565b6001600160a01b031690565b6001600160a01b0381165b036102b557565b905035906102f0826104c6565b906020828203126102b5576102fb916104d8565b805182526102f0919060a090819061051660208201516020860152565b61052560408201516040860152565b61053460608201516060860152565b61054360808201516080860152565b0151910152565b60c0810192916102f091906104f9565b346102b5576104566105756105703660046104e5565b611e88565b6040519182918261054a565b60ff90911681526102fb93916105af906105a7906080840190848203602086015261032c565b936040830152565b606081840391015261032c565b346102b5576105cc3660046102b9565b6104566105d7612295565b906105e494929460405190565b94859485610581565b9061060d6106066105fc845190565b8084529260200190565b9260200190565b905f5b81811061061d5750505090565b90919261063a6106336001928651815260200190565b9460200190565b929101610610565b906102fb9060c08061066160e084015f8701518582035f8701526105ed565b9461067160208201516020860152565b60408181015161ffff169085015260608181015160ff169085015260808181015161ffff169085015260a08181015161ffff16908501525b01511515910152565b600511156102e157565b906102f0826106b2565b6102fb906106bc565b610307906106c6565b9060a0806102f0936106f05f8201515f8601906102fe565b60208181015161ffff1690850152610710604082015160408601906106cf565b6060818101516001600160401b0316908501526080818101516001600160401b0316908501526106a9565b906103608160c0936106d8565b906107576106066105fc845190565b905f5b8181106107675750505090565b90919261077a610633600192865161073b565b92910161075a565b805182526102fb9160a06107d260c083016107a260208601516020860152565b6107b160408601516040860152565b6107c060608601516060860152565b60808501518482036080860152610642565b9201519060a0818403910152610748565b60208082526102fb92910190610782565b346102b55761045661080f61080a3660046104e5565b6127d2565b604051918291826107e3565b9694929099989795939161012088019a5f8901610836919052565b6020880152604087015260ff166060860152608085015260a084015260c083015260e08201526101000152565b346102b55761045661087e6108793660046104e5565b612b06565b9561089199979995919594929460405190565b998a998a61081b565b80518252906102fb906101208061091b61014084016108be60208801516020870152565b6108cd60408801516040870152565b6108dc60608801516060870152565b6108eb60808801516080870152565b6108fa60a088015160a0870152565b61090960c088015160c0870152565b60e087015185820360e087015261032c565b61010080870151151590850152946106a9565b906102fb9161089a565b906109446103bf835190565b90816109566020830284019460200190565b925f915b83831061096957505050505090565b9091929394602061098561040a8385600195038752895161092e565b930193019193929061095a565b805182526102fb91610120810191610100906109b360208201516020850152565b6109c260408201516040850152565b6109d160608201516060850152565b6109e060808201516080850152565b6109ef60a082015160a0850152565b6109fe60c082015160c0850152565b610a0d60e082015160e0850152565b015190610100818403910152610938565b60208082526102fb92910190610992565b346102b557610456610a4a610a453660046104e5565b612f22565b60405191829182610a1e565b806104d1565b905035906102f082610a56565b91906040838203126102b5576102fb906020610a858286610a5c565b9401610a5c565b90610a9b6106066105fc845190565b905f5b818110610aab5750505090565b909192610aca61063360019286516001600160a01b0316815260200190565b929101610a9e565b604090610afb610af36102f09597969460608401908482035f860152610a8c565b966020830152565b0152565b346102b557610456610b1b610b15366004610a69565b9061321b565b60405191939193849384610ad2565b805182526102f0919060c0908190610b4760208201516020860152565b610b5660408201516040860152565b610b6560608201516060860152565b610b7460808201516080860152565b61054360a082015160a0860152565b60e0810192916102f09190610b2a565b346102b557610456610bae610ba93660046104e5565b6133db565b60405191829182610b83565b9081526040810192916102f09160200152565b346102b557610be5610be03660046104e5565b61368f565b90610456610bf260405190565b92839283610bba565b805182526102f091906060908190610c1860208201516020860152565b61054360408201516040860152565b6080810192916102f09190610bfb565b346102b557610456610c52610c4d3660046104e5565b61383a565b60405191829182610c27565b90610c6d6106066105fc845190565b905f5b818110610c7d5750505090565b909192610c936106336001928651815260200190565b929101610c70565b92916020610cb76102f09360408701908782035f890152610c5e565b940152565b346102b557610cd4610ccf3660046104e5565b6138dd565b90610456610ce160405190565b92839283610c9b565b91906040838203126102b5576102fb906020610a8582866104d8565b60208082526102fb9291019061089a565b346102b557610456610d33610d2d366004610cea565b90613abe565b60405191829182610d06565b610afb6102f094610d64606094989795610d5d608086019a5f870152565b6020850152565b6040830152565b346102b557610456610d87610d81366004610cea565b90613b13565b90610d9494929460405190565b94859485610d3f565b909594926102f094610dce610afb92610dc7608096610dc060a088019c5f890152565b6020870152565b6040850152565b6060830152565b346102b557610de53660046102b9565b610456610df0613d67565b91610dfd95939560405190565b95869586610d9d565b346102b557610456610e21610e1c3660046104e5565b613da0565b60405191829182901515815260200190565b805182526102f0919060a0908190610e5060208201516020860152565b610e5f60408201516040860152565b610e6e60608201516060860152565b60808181015160ff1690850152610543565b60c0810192916102f09190610e33565b346102b557610ea03660046102b9565b610456610eab613df0565b60405191829182610e80565b9081526060810193926102f0929091604091610afb905b6020830152565b346102b557610ee53660046102b9565b610456610ef0613fc5565b60405191939193849384610eb7565b610afb6102f094610d64606094989795610d5d608086019a5f87019015159052565b346102b557610456610f3c610f373660046104e5565b614050565b90610f4994929460405190565b94859485610eff565b90151581526040810192916102f09160200152565b346102b557610f7f610f7a3660046104e5565b614239565b90610456610f8c60405190565b92839283610f52565b346102b557610456610fb0610fab3660046104e5565b6143a8565b6040519182918290815260200190565b805182526102f09190610180908190610fde60208201516020860152565b610fed60408201516040860152565b610ffc60608201516060860152565b61100b60808201516080860152565b61101a60a082015160a0860152565b60c08181015161ffff169085015261103760e082015160e0860152565b6101008181015160ff16908501526101208181015160ff16908501526101408181015161ffff16908501526101608181015161ffff16908501526106a9565b6101a0810192916102f09190610fc0565b346102b5576104566110a261109d3660046104e5565b614437565b60405191829182611076565b6102fb916008021c6001600160a01b031690565b906102fb91546110ae565b6102fb5f60016110c2565b346102b5576110e83660046102b9565b6104566110f36110cd565b604051918291826001600160a01b03909116815260200190565b346102b557610456610ef0611123366004610cea565b90614709565b906102fb9161032c565b60608201916003905f90805b83831061114e57505050505090565b9091929394602061116a61040a83856001950387528951611129565b930193019193929061113f565b9081526040602082018190526102fb92910190611133565b346102b5576111a76111a23660046104e5565b614a66565b906104566111b460405190565b92839283611177565b346102b5576111d56111d03660046104e5565b614ebe565b604051005b906111e66103bf835190565b90816111f86020830284019460200190565b925f915b83831061120b57505050505090565b9091929394602061122761040a8385600195038752895161092e565b93019301919392906111fc565b93906102fb95936112686112849461125a6112769460a08a01908a82035f8c01526111da565b9088820360208a01526111da565b9086820360408801526111da565b9084820360608601526111da565b9160808184039101526111da565b346102b5576104566112ad6112a83660046104e5565b614ec7565b916112ba95939560405190565b95869586611234565b91946112ff610afb929897956112f860a0966112f16102f09a6112ea60c08a019e5f8b0152565b6020890152565b6040870152565b6060850152565b6080830152565b346102b55761045661132161131c3660046104e5565b61516f565b9261133196949692919260405190565b968796876112c3565b346102b55761134a3660046102b9565b610456610df061531e565b61136561136160059390565b9190565b5f915b8383106113755750505050565b6113886106066001928451815260200190565b92019190611368565b60a08201916005905f90805b8383106113ac57505050505090565b909192939460206113c861040a83856001950387528951611129565b930193019193929061139d565b6102fb9160606102008201926113f15f8201515f850190611355565b611403602082015160a0850190611355565b6114166040820151610140850190611355565b0151906101e0818403910152611391565b60208082526102fb929101906113d5565b346102b5576114483660046102b9565b61045661145361555e565b60405191829182611427565b346102b557610456610ef06114753660046104e5565b6156a9565b805182526102f0919060c090819061149760208201516020860152565b6114a660408201516040860152565b60608181015160ff169085015260808181015161ffff16908501526114d060a082015160a0860152565b015161ffff16910152565b60e0810192916102f0919061147a565b346102b5576104566115066115013660046104e5565b6158fc565b604051918291826114db565b805182526102f09190608090819061152f60208201516020860152565b61153e60408201516040860152565b61054360608201516060860152565b60a0810192916102f09190611512565b346102b5576104566115786115733660046104e5565b615ada565b6040519182918261154d565b906080806102f09361159c5f8201515f8601906102fe565b60208181015161ffff16908501526115bc604082015160408601906106cf565b606081810151151590850152610543565b906103608160a093611584565b906115e96106066105fc845190565b905f5b8181106115f95750505090565b90919261160c61063360019286516115cd565b9291016115ec565b60208082526102fb929101906115da565b346102b55761045661164061163b3660046104e5565b615c96565b60405191829182611614565b906020828203126102b5576102fb91610a5c565b60409061167f6102f09496959396610ece60608401985f8501906106cf565b019060ff169052565b346102b5576104566116a361169e36600461164c565b615e70565b60405191939193849384611660565b60ff81166104d1565b905035906102f0826116b2565b90916060828403126102b5576102fb6116e18484610a5c565b936040610a8582602087016116bb565b346102b557610be56117043660046116c8565b91615f4d565b9060c0806102f0936117225f8201515f8601906102fe565b60208181015161ffff1690850152611742604082015160408601906106cf565b6060818101516001600160401b0316908501526080818101516001600160401b03169085015260a081810151151590850152610543565b906103608160e09361170a565b906117956106066105fc845190565b905f5b8181106117a55750505090565b9091926117b86106336001928651611779565b929101611798565b60208082526102fb92910190611786565b346102b5576104566117ec6117e73660046104e5565b615fd4565b604051918291826117c0565b60208082526102fb92910190610c5e565b346102b55761045661182461181f3660046104e5565b616174565b604051918291826117f8565b6102fb5f806110c2565b6104ba6102fb6102fb926001600160a01b031690565b6102fb9061183a565b6102fb90611850565b61030790611859565b6020810192916102f09190611862565b346102b55761188b3660046102b9565b610456611896611830565b6040519182918261186b565b346102b5576111d56118b53660046104e5565b6164b2565b6118c661136160059390565b5f915b8383106118d65750505050565b6118e96106066001928451815260200190565b920191906118c9565b60a0810192916102f091906118ba565b346102b5576119123660046102b9565b61045661191d6164bb565b604051918291826118f2565b805182526102f091906020908190610543565b6040810192916102f09190611929565b346102b55761195c3660046102b9565b610456611967616535565b6040519182918261193c565b6102fb6102fb6102fb9290565b634e487b7160e01b5f52604160045260245ffd5b90601f01601f191681019081106001600160401b038211176119b557604052565b611980565b906102f06119c760405190565b9283611994565b6001600160401b0381116119b55760208091020190565b906119f76119f2836119ce565b6119ba565b918252565b6102fb60806119ba565b611a0e6119fc565b905f8252602080808085015f5b8152015f5b8152016060905250565b905250565b6102fb611a06565b5f5b828110611a4557505050565b602090611a50611a2f565b8184015201611a39565b906102f0611a70611a6a846119e5565b936119ce565b601f190160208401611a37565b6001600160401b0381116119b557602090601f01601f19160190565b906119f76119f283611a7d565b611ab06007611a99565b662b35252041505960c81b602082015290565b6102fb611aa6565b634e487b7160e01b5f52603260045260245ffd5b90611ae8825190565b811015611af9576020809102010190565b611acb565b611b086008611a99565b672b3130252041505960c01b602082015290565b6102fb611afe565b611b2e6008611a99565b672b3230252041505960c01b602082015290565b6102fb611b24565b611b546015611a99565b7f4175746f6d6174696320636f6d706f756e64696e670000000000000000000000602082015290565b6102fb611b4a565b611b8f600e611a99565b6d2d323525206c6f636b2074696d6560901b602082015290565b6102fb611b85565b611bbb6012611a99565b712d31302520706c6174666f726d206665657360701b602082015290565b6102fb611bb1565b611beb6012611a99565b712d32352520706c6174666f726d206665657360701b602082015290565b6102fb611be1565b611c23611c1e6007611973565b611a5a565b611c35611c2e611ac3565b60016165df565b611c47611c415f611973565b83611adf565b52611c5a611c545f611973565b82611adf565b50611c6d611c66611b1c565b60026165df565b611c7a611c416001611973565b52611c88611c546001611973565b50611c9b611c94611b42565b60036165df565b611ca8611c416002611973565b52611cb6611c546002611973565b50611cc9611cc2611b7d565b60046165df565b611cd6611c416003611973565b52611ce4611c546003611973565b50611cf7611cf0611ba9565b60056165df565b611d04611c416004611973565b52611d12611c546004611973565b50611d25611d1e611bd9565b60066165df565b611d32611c416005611973565b52611d40611c546005611973565b50611d53611d4c611c09565b60076165df565b611d60611c416006611973565b52611d6e611c546006611973565b5090565b611d7b5f611973565b90819082908390849085908690565b6102fb60c06119ba565b611d9c611d8a565b905f82526020808080808087015f5b8152015f5b8152015f5b8152015f8152015f905250565b6102fb611d94565b905051906102f082610a56565b90916060828403126102b5576102fb611df08484611dca565b936040611e008260208701611dca565b9401611dca565b6040513d5f823e3d90fd5b6102fb906104ba565b6102fb9054611e12565b906020828203126102b5576102fb91611dca565b634e487b7160e01b5f52601260045260245ffd5b634e487b7160e01b5f52601160045260245ffd5b8115611e6b570490565b611e39565b81810292918115918404141715611e8357565b611e4d565b90611e91611dc2565b9182611e9c30611859565b6060611ea760405190565b63c289c79160e01b81526001600160a01b038516600482015291829060249082905afa918215611fb157611f1f935f905f935f95611fb6575b50602090611ef5611ef05f611e1b565b611859565b604051978892839182916364ab867560e01b5b83526001600160a01b031660048301526024820190565b03915afa928315611fb157610dce610dc7610afb93611f4d6080976102f09a5f91611f82575b5060a0880152565b611f58816020880152565b611f72611f6e611f686018611973565b83611e61565b8752565b611f7c6007611973565b90611e70565b611fa4915060203d602011611faa575b611f9c8183611994565b810190611e25565b5f611f45565b503d611f92565b611e07565b90935060209450611fdf915060603d606011611fe8575b611fd78183611994565b810190611dd7565b94939093611ee0565b503d611fcd565b611ffc6102fb6102fb9290565b60ff1690565b61200c6005611a99565b64456d70747960d81b602082015290565b6102fb612002565b61202f6013611a99565b72139bc819195c1bdcda5d1cc81a5b881c1bdbdb606a1b602082015290565b6102fb612025565b6120606008611a99565b6710dc9a5d1a58d85b60c21b602082015290565b6102fb612056565b612086602d611a99565b7f506f6f6c20726573657276657320637269746963616c6c79206c6f772c20726560208201526c7761726473206174207269736b60981b604082015290565b6102fb61207c565b6120d76009611a99565b684c6f772046756e647360b81b602082015290565b6102fb6120cd565b6120fe6030611a99565b7f506f6f6c20726573657276657320617265206c6f772c206d617920737472756760208201526f676c652077697468207265776172647360801b604082015290565b6102fb6120f4565b6121526008611a99565b674d6f64657261746560c01b602082015290565b6102fb612148565b612178602e611a99565b7f506f6f6c2072657365727665732061726520616465717561746520627574207760208201526d61746368206c697175696469747960901b604082015290565b6102fb61216e565b6121ca6007611a99565b664865616c74687960c81b602082015290565b6102fb6121c0565b6121ef601c611a99565b7f506f6f6c206861732073756666696369656e7420726573657276657300000000602082015290565b6102fb6121e5565b61222a6009611a99565b68115e18d95b1b195b9d60ba1b602082015290565b6102fb612220565b612251602a611a99565b7f506f6f6c20686173206162756e64616e7420726573657276657320666f7220616020820152696c6c207265776172647360b01b604082015290565b6102fb612247565b6122a1611ef05f611e1b565b60206122ac60405190565b6328136b1f60e11b815291829060049082905afa908115611fb1575f91612458575b506122d85f611973565b811461242f576122ea611ef05f611e1b565b9060206122f660405190565b6337cfdcc560e11b815292839060049082905afa918215611fb1575f9261240a575b506123329061232d61271093611f7c85611973565b611e61565b9061233e613a98611973565b8210612368575061234f6004611fef565b61235761223f565b9261236061228d565b915b93929190565b61237190611973565b8110612398576123816003611fef565b6123896121dd565b92612392612218565b91612362565b6123a3611388611973565b81106123c4576123b36002611fef565b6123bb612166565b926123926121b8565b6123cf6107d0611973565b81106123f0576123df6001611fef565b6123e76120ec565b92612392612140565b6123f95f611fef565b612401612074565b926123926120c5565b6123329192506124289060203d602011611faa57611f9c8183611994565b9190612318565b5061271061243d6003611fef565b9161244f61244961201d565b92611973565b906102fb61204e565b612471915060203d602011611faa57611f9c8183611994565b5f6122ce565b6102fb60e06119ba565b612489612477565b9060605b8252602080808080808088015f5b8152015f611dab565b6102fb612481565b6124b4611d8a565b905f82526020808080808087015f8152015f8152015f815201611a206124a4565b6102fb6124ac565b6080818303126102b5576124f18282611dca565b926102fb6125028460208501611dca565b936060611e008260408701611dca565b909291926125226119f2826119ce565b93818552602080860192028301928184116102b557915b8383106125465750505050565b602080916125548486611dca565b815201920191612539565b9080601f830112156102b55781516102fb92602001612512565b61ffff81166104d1565b905051906102f082612579565b905051906102f0826116b2565b8015156104d1565b905051906102f08261259d565b91909160e0818403126102b5576125c960e06119ba565b925f8201516001600160401b0381116102b557826125ee8360c093612650960161255f565b86526125fd8360208301611dca565b602087015261260f8360408301612583565b60408701526126218360608301612590565b60608701526126338360808301612583565b60808701526126458360a08301612583565b60a0870152016125a5565b60c0830152565b906020828203126102b55781516001600160401b0381116102b5576102fb92016125b2565b601111156102b557565b905051906102f08261267c565b600511156102b557565b905051906102f082612693565b6001600160401b0381166104d1565b905051906102f0826126aa565b919060c0838203126102b55761273d9060a06126e260c06119ba565b946126ed8382612686565b86526126fc8360208301612583565b602087015261270e836040830161269d565b604087015261272083606083016126b9565b606087015261273283608083016126b9565b6080870152016125a5565b60a0830152565b909291926127546119f2826119ce565b9381855260c06020860192028301928184116102b557915b8383106127795750505050565b602060c09161278884866126c6565b81520192019161276c565b9080601f830112156102b55781516102fb92602001612744565b906020828203126102b55781516001600160401b0381116102b5576102fb9201612793565b6127da6124d5565b506127e7611ef05f611e1b565b9060806127f360405190565b636386c1c760e01b81526001600160a01b038316600482015292839060249082905afa908115611fb1575f925f915f915f9461294c575b50612837611ef05f611e1b565b935f61284260405190565b635f9bddb560e11b81526001600160a01b038416600482015295869060249082905afa918215611fb15761289d955f93612926575b505f90612886611ef083611e1b565b6040519788928391829163161ba78160e01b611f08565b03915afa928315611fb1576102fb955f946128f0575b50906128e26128e9926128db61273d96976128d46128cf611d8a565b9b8c52565b60208b0152565b6040890152565b6060870152565b6080850152565b61273d94506128e992916128db61291b6128e2933d805f833e6129138183611994565b8101906127ad565b9650509192506128b3565b5f919350612945903d8084833e61293d8183611994565b810190612657565b9290612877565b9250935050612973915060803d60801161297b575b61296b8183611994565b8101906124dd565b92935f61282a565b503d612961565b909291926129926119f282611a7d565b93818552818301116102b5576102f091602085019061030b565b9080601f830112156102b55781516102fb92602001612982565b906080828203126102b5576129db8183612590565b9260208301516001600160401b0381116102b557826129fb9185016129ac565b92612a098360408301611dca565b9260608201516001600160401b0381116102b5576102fb92016129ac565b60010190565b6fffffffffffffffffffffffffffffffff81166104d1565b905051906102f082612a2d565b6080818303126102b557612a668282612a45565b926102fb612a7784602085016126b9565b936060612a8782604087016126b9565b94016126b9565b6001600160a01b0390911681526040810192916102f09160200152565b6102fb6102fb6102fb926001600160401b031690565b91908201809211611e8357565b612adb6102fb6102fb9290565b6001600160401b031690565b6102fb6102fb6102fb926fffffffffffffffffffffffffffffffff1690565b905f8092612b16611ef05f611e1b565b926020612b2260405190565b6328136b1f60e11b815294859060049082905afa938415611fb1575f94612e2d575b50612b51611ef05f611e1b565b906020612b5d60405190565b63c9f8234f60e01b815292839060049082905afa918215611fb1575f92612e0c575b50612b8c611ef05f611e1b565b906020612b9860405190565b6337cfdcc560e11b815292839060049082905afa918215611fb1575f92612deb575b50612bc430611859565b905f612bcf60405190565b631252217f60e01b815292839060049082905afa918215611fb1575f92612dc4575b50612bfe611ef05f611e1b565b6080612c0960405190565b636386c1c760e01b81526001600160a01b038816600482015291829060249082905afa8015611fb1575f925f925f92612d9d575b50612c475f611973565b985b828a1015612d8b57612c8c60808b612c63611ef05f611e1b565b8c612c6d60405190565b809581948293612c81636071105860e01b90565b845260048401612a8e565b03915afa8015611fb1575f915f905f92612d4a575b506102fb612cb1612cc092612aab565b612cba84612aab565b90612ac1565b42109081612d2e575b612ce2612cd55f612ace565b916001600160401b031690565b03612d055750612cff91612cba612cf892612ae7565b9960010190565b98612c49565b9a919a612d16575b50600101612cff565b612cff919c612cba612d2792612ae7565b9b90612d0d565b9050612d395f612ace565b6001600160401b0382161190612cc9565b612cb193506102fb9250612cc09150612d799060803d8111612d84575b612d718183611994565b810190612a52565b945050915092612ca1565b503d612d67565b999a9699959850939650919490939192565b91509250612dba915060803d60801161297b5761296b8183611994565b9390919293612c3d565b612de19192503d805f833e612dd98183611994565b8101906129c6565b5050919091612bf1565b612e0591925060203d602011611faa57611f9c8183611994565b905f612bba565b612e2691925060203d602011611faa57611f9c8183611994565b905f612b7f565b612e4791945060203d602011611faa57611f9c8183611994565b925f612b44565b6102fb6101206119ba565b612e61612e4e565b905f8252602080808080808080808a015f8152015f8152015f8152015f8152015f8152015f611a1b565b6102fb612e59565b5190565b6102fb6101406119ba565b612eaa612e97565b905f825260208080808080808080808b015f8152015f8152015f8152015f8152015f8152015f8152016060611db5565b6102fb612ea2565b5f5b828110612ef057505050565b602090612efb612eda565b8184015201612ee4565b906102f0612f15611a6a846119e5565b601f190160208401612ee2565b90612f2b612e8b565b9081612f39611ef05f611e1b565b926080612f4560405190565b636386c1c760e01b81526001600160a01b038716600482015294859060249082905afa8015611fb1575f5f915f965f916130d7575b5091612cba612fb6610d6493612e93612fbb96612f985f8a01938452565b612fa460208a01968752565b612faf8c60608b0152565b60e0890152565b915190565b612fc45f611973565b90612fd0826080830152565b612fdb8260a0830152565b612fe68260c0830152565b8185146130bf5750612ff784612f05565b926101008301938452815b855b8110156130b5576130648161301c613004938a61670d565b6130338289518361302d8383611adf565b52611adf565b50856130436102fb60a084015190565b0361306b5760200151608087018051612a279261030791612ac1565b612ac1565b9050613002565b61308061307c610100830151151590565b1590565b1561309c576020015160c087018051612a279261030791612ac1565b60200151612a27905b61030760a089019161305f835190565b5094505091505090565b935090506130ce919350612f05565b61010082015290565b612fb69750612fbb9350610d649250612e939150613106612cba9160803d60801161297b5761296b8183611994565b9450995094509250612f7a565b905051906102f0826104c6565b909291926131306119f2826119ce565b93818552602080860192028301928184116102b557915b8383106131545750505050565b602080916131628486613113565b815201920191613147565b9080601f830112156102b55781516102fb92602001613120565b906020828203126102b55781516001600160401b0381116102b5576102fb920161316d565b91908203918211611e8357565b156131c057565b60405162461bcd60e51b815260206004820152601160248201527050616765206f7574206f662072616e676560781b6044820152606490fd5b369037565b906102f061320e611a6a846119e5565b601f1901602084016131f9565b9091613229611ef05f611e1b565b925f61323460405190565b634b1d06d760e01b815294859060049082905afa938415611fb1575f9461335b575b506132b390613263855190565b946132c26132718388612ac1565b9261328c8161232d6001966132866001611973565b906131ac565b978888108015613345575b6132a0906131b9565b6132aa8289611e70565b95869283612ac1565b9080821161333d575b506131ac565b926132cc846131fe565b93836132d75f611973565b905b6132e8575b5050505050929190565b818110156133385780612a2761331a61330d6133076133329588612ac1565b88611adf565b516001600160a01b031690565b613324838a611adf565b906001600160a01b03169052565b846132d9565b6132de565b90505f6132bc565b506132a06133525f611973565b82149050613297565b6132b391945061337c903d805f833e6133748183611994565b810190613187565b9390613256565b61338b612477565b905f61248d565b6102fb613383565b906020828203126102b55781516001600160401b0381116102b5576102fb920161255f565b91906040838203126102b5576102fb906020611e008286611dca565b906133e4613392565b80926133ef30611859565b916133f960405190565b63edd0522360e01b81526001600160a01b03831660048201525f81602481875afa908115611fb1575f9161366d575b50613445613441612e9361343b5f611973565b84611adf565b8352565b600192613461610d5d612e9361345b6001611973565b85611adf565b613474610dc7612e9361345b6002611973565b6134876112f8612e9361345b6003611973565b6134a36128e9612e9360049461349d6004611973565b90611adf565b60408051632839409560e01b81526001600160a01b038316600482015295869060249082905afa948515611fb1575f9561363c575b506134e560c08401958652565b6134f1611ef05f611e1b565b60806134fc60405190565b636386c1c760e01b81526001600160a01b038416600482015291829060249082905afa908115611fb1575f9161361b575b50846135385f611973565b905b613548575b50505050505050565b818110156136165761355c611ef05f611e1b565b90608061356860405190565b928390630c0e220b60e31b82528180613584868a8c8401612a8e565b03915afa918215611fb1576135d0925f905f5f916135e8575b6135b59293506135af612cba91612aab565b91612aab565b6135c36113616102fb8c5190565b146135d6575b5060010190565b8561353a565b6130a56135e291612ae7565b5f6135c9565b5050506135b5612cba61360b6135af9360803d8111612d8457612d718183611994565b93505090925061359d565b61353f565b613634915060803d60801161297b5761296b8183611994565b50915061352d565b61365f91955060403d604011613666575b6136578183611994565b8101906133bf565b94906134d8565b503d61364d565b61368991503d805f833e6136818183611994565b81019061339a565b5f613428565b61369b611ef05f611e1b565b9060806136a760405190565b636386c1c760e01b81526001600160a01b038316600482015292839060249082905afa918215611fb1575f926137f6575b505f1992836136e65f611973565b845b8110156137bf576136fb611ef05f611e1b565b608061370660405190565b918290630c0e220b60e31b82528180613723878b60048401612a8e565b03915afa908115611fb1575f905f9261379e575b506137415f612ace565b6001600160401b03831611613767575b50506137606136e89160010190565b90506136e6565b90612cba6135af61377793612aab565b86811080613795575b61378b575b80613751565b9550613760613785565b50428111613780565b90506137b8915060803d8111612d8457612d718183611994565b9250613737565b50909250905082146137e657428211156137dd5761136142836131ac565b6113615f611973565b90506137f15f611973565b908190565b61381091925060803d60801161297b5761296b8183611994565b509291506136d8565b6138216119fc565b905f8252602080808085015f611db5565b6102fb613819565b608061386c91613848613832565b50613855611ef05f611e1b565b60405193849283918291636386c1c760e01b611f08565b03915afa8015611fb1575f905f5f905f926138a0575b6102fb93945090610dc7610dce92610dc061389b6119fc565b978852565b505050506102fb610dce6138c5610dc79360803d60801161297b5761296b8183611994565b9350919350613882565b5f198114611e835760010190565b905f906138ec611ef05f611e1b565b9060806138f860405190565b636386c1c760e01b81526001600160a01b038616600482015292839060249082905afa918215611fb1575f92613a9b575b50613933826131fe565b93839161393f5f611973565b845b811015613a4b57613954611ef05f611e1b565b608061395f60405190565b918290630c0e220b60e31b8252818061397c878a60048401612a8e565b03915afa908115611fb15788915f915f905f92613a1a575b506102fb612cb16139a492612aab565b421015908115613a05575b506139cb575b50506139c46139419160010190565b905061393f565b8295612cba6139fb926139f6613941966139f38d6139ed6139c4999f916138cf565b9e611adf565b52565b612ae7565b94918891506139b5565b9050613a13612cd55f612ace565b145f6139af565b612cb193506102fb92506139a49150613a409060803d8111612d8457612d718183611994565b945050915092613994565b50925050613a58836131fe565b91613a625f611973565b845b811015613a9357613a8c81612a27613a82612e93613a64958b611adf565b6139f38389611adf565b9050613a62565b509193509150565b613ab591925060803d60801161297b5761296b8183611994565b50929150613929565b906102fb91613acb612eda565b5061670d565b6001600160401b0381116119b55760200290565b6119f26102fb91613ad1565b9060055b811015611af9576020020190565b6102fb6102fb6102fb9260ff1690565b906080613b3891613b215f90565b93613b2e611ef05f611e1b565b90612c6d60405190565b03915afa8015611fb1575f925f925f92613d40575b5090613b585f612ace565b6001600160401b03821603613c69575050613be4613bde612e93613b7b5f611fef565b613bd8613b886005613ae5565b91613b9b613b97610107611973565b8452565b613ba9610d5d6101b6611973565b613bb7610dc7610314611973565b613bc56112f861041b611973565b613bd36128e9610629611973565b613b03565b90613af1565b92612ae7565b926102fb613c5b613c09613bf88688611e70565b613c03612710611973565b90611e61565b95613c56613c21613c1b61016d611973565b89611e61565b96613c50613c4a613c44613c398b613c036018611973565b9b613c03600c611973565b98612aab565b426131ac565b92611e70565b611e70565b613c0364496cebb800611973565b613c7562278d00612ace565b6001600160401b03821603613c9e575050613be4613bde612e93613c996001611fef565b613b7b565b613caa6276a700612ace565b6001600160401b03821603613cce575050613be4613bde612e93613c996002611fef565b613cda62ed4e00612ace565b6001600160401b03821603613cfe575050613be4613bde612e93613c996003611fef565b613d0e612cd56301e13380612ace565b14613d23575b613bde612e93613be492613b7b565b50613be4613bde612e93613d376004611fef565b92505050613d14565b91509250613d5d915060803d608011612d8457612d718183611994565b9193909293613b4d565b6101076101b6916103149161041b916102fb612449613d9a613d94613d8e61062996611973565b98611973565b96611973565b94611973565b6080613dad916138485f90565b03915afa908115611fb1575f91613dd0575b50613dcc6113615f611973565b1190565b613de9915060803d60801161297b5761296b8183611994565b5050613dbf565b613df8611dc2565b9081613e06611ef05f611e1b565b6020613e1160405190565b6328136b1f60e11b815291829060049082905afa908115611fb1575f91613fa6575b50815280613e43611ef05f611e1b565b6020613e4e60405190565b63c9f8234f60e01b815291829060049082905afa8015611fb157613e7b915f91613f87575b506020840152565b613e87611ef05f611e1b565b6020613e9260405190565b6337cfdcc560e11b815291829060049082905afa908115611fb1575f91613f68575b50613ec160408401918252565b8051613ed16113616102fb855190565b1115613f5557613ee991613286612fb6610dce935190565b613ef230611859565b905f613efd60405190565b631252217f60e01b815292839060049082905afa918215611fb1576102f092613f32915f91613f3a575b5060ff166080830152565b60a042910152565b613f4e91503d805f833e612dd98183611994565b5050613f27565b5050613ee9613f635f611973565b610dce565b613f81915060203d602011611faa57611f9c8183611994565b5f613eb4565b613fa0915060203d602011611faa57611f9c8183611994565b5f613e73565b613fbf915060203d602011611faa57611f9c8183611994565b5f613e33565b613fd1611ef05f611e1b565b906020613fdd60405190565b6328136b1f60e11b815292839060049082905afa918215611fb1575f9261402f575b5061400c611ef05f611e1b565b3190828211156140265761402083836131ac565b91929190565b6140205f611973565b61404991925060203d602011611faa57611f9c8183611994565b905f613fff565b9061405d611ef05f611e1b565b90602061406960405190565b6364ab867560e01b81526001600160a01b038516600482015292839060249082905afa918215611fb1575f92614218575b50816140a86113615f611973565b116140b5611ef05f611e1b565b9260806140c160405190565b636386c1c760e01b81526001600160a01b038716600482015294859060249082905afa938415611fb1575f946141f5575b505f1992836141005f611973565b865b8110156141c45761412560808261411b611ef05f611e1b565b8b612c6d60405190565b03915afa908115611fb1575f905f926141a3575b506141435f612ace565b6001600160401b03831611614169575b50506141626141029160010190565b9050614100565b90612cba6135af61417993612aab565b4281118061419a575b61418d575b80614153565b95505f9450614162614187565b50868110614182565b90506141bd915060803d8111612d8457612d718183611994565b9250614139565b50929550909350919081036141f057506141dd5f611973565b906102fb683635c9adc5dea00000611973565b6141dd565b61420f91945060803d60801161297b5761296b8183611994565b509491506140f2565b61423291925060203d602011611faa57611f9c8183611994565b905f61409a565b5f90614247611ef05f611e1b565b91608061425360405190565b636386c1c760e01b81526001600160a01b038416600482015293849060249082905afa928315611fb1575f93614385575b509261428f5f611973565b835b811015614372576142a4611ef05f611e1b565b60806142af60405190565b918290630c0e220b60e31b825281806142cc878a60048401612a8e565b03915afa8015611fb1575f915f905f92614341575b506102fb612cb16142f192612aab565b4210908161432c575b50614310575b50614291906001015b905061428f565b6143246142919296612cba61430993612ae7565b959150614300565b905061433a612cd55f612ace565b115f6142fa565b612cb193506102fb92506142f191506143679060803d8111612d8457612d718183611994565b9450509150926142e1565b5091505061437f5f611973565b82119190565b61439f91935060803d60801161297b5761296b8183611994565b50939150614284565b60806143b5916138485f90565b03915afa908115611fb1575f916143ca575090565b6143e3915060803d60801161297b5761296b8183611994565b50505090565b6102fb6101a06119ba565b60209081808080808080808080808061440b6143e9565b9d8e5f8152015f8152015f8152015f8152015f8152015f8152015f8152015f61249b565b6102fb6143f4565b61443f61442f565b5061444c611ef05f611e1b565b608061445760405190565b636386c1c760e01b81526001600160a01b038416600482015291829060249082905afa908115611fb1575f925f925f925f916146e0575b5061449b611ef05f611e1b565b925f6144a660405190565b635f9bddb560e11b81526001600160a01b038516600482015294859060249082905afa938415611fb1575f946146c4575b506144e4611ef05f611e1b565b905f6144ef60405190565b63161ba78160e01b81526001600160a01b038616600482015292839060249082905afa918215611fb1575f926146a8575b5061452d611ef05f611e1b565b92602061453960405190565b633bab7a8960e01b81526001600160a01b038716600482015294859060249082905afa938415611fb1575f94614684575b506020614595949561457e611ef05f611e1b565b60405196879283918291635c83ef7760e11b611f08565b03915afa938415611fb1575f94614663575b50604086015161ffff16906145bd602088015190565b926145cc606089015160ff1690565b94516145d790611fef565b956145e760808a015161ffff1690565b976145f760a08b015161ffff1690565b60c0909a015115159a6146086143e9565b9c8d5260208d015260408c015260608b015260808a015260a089015261ffff1660c088015260e087015260ff1661010086015260ff1661012085015261ffff1661014084015261ffff16610160830152151561018082015290565b61467d91945060203d602011611faa57611f9c8183611994565b925f6145a7565b61459594506146a1602091823d8411611faa57611f9c8183611994565b945061456a565b6146bd9192503d805f833e6129138183611994565b905f614520565b6146d99194503d805f833e61293d8183611994565b925f6144d7565b92505092506146fe915060803d60801161297b5761296b8183611994565b5f949192939461448e565b9091614717611ef05f611e1b565b91602061472360405190565b633bab7a8960e01b81526001600160a01b038316600482015293849060249082905afa928315611fb1575f93614881575b50614761611ef05f611e1b565b92602061476d60405190565b635c83ef7760e11b81526001600160a01b038416600482015294859060249082905afa918215611fb1576147c8945f9361485e575b505f906147b1611ef083611e1b565b6040519687928391829163161ba78160e01b611f08565b03915afa938415611fb1575f94614830575b506102fb91612cba61481061481e936147f25f611973565b89111561482357612cba89613c5661480a6001611973565b84611e61565b96613c5661480a6001611973565b925190565b612cba89613c565f611973565b61481e91945091612cba6148106148536102fb953d805f833e6129138183611994565b9693505050916147da565b5f91935061487a9060203d602011611faa57611f9c8183611994565b92906147a2565b61489b91935060203d602011611faa57611f9c8183611994565b915f614754565b5f5b8281106148b057505050565b6060828201526020016148a4565b906102f06148d46148ce84613ae5565b93613ad1565b836148a2565b6102fb60036148be565b6148ee601d611a99565b7f5374617274207374616b696e6720746f206561726e2072657761726473000000602082015290565b6102fb6148e4565b6149296023611a99565b7f436f6e7369646572203336352d646179206c6f636b757020666f72206d61782060208201526241505960e81b604082015290565b6102fb61491f565b6102fb5f611a99565b6102fb614966565b60ff1660ff8114611e835760010190565b906003613af5565b61499a602f611a99565b7f4d6f766520666c657869626c65206465706f7369747320746f206c6f636b656460208201526e20666f72206869676865722041505960881b604082015290565b6149e56027611a99565b7f436f6e7369646572203336352d646179206c6f636b757020666f72203135372e6020820152663638252041505960c81b604082015290565b614a28602c611a99565b7f436f6e736964657220636f6d706f756e64696e6720746f20636f6e736f6c696460208201526b617465206465706f7369747360a01b604082015290565b90614a6f6148da565b90614a7c611ef05f611e1b565b6080614a8760405190565b636386c1c760e01b81526001600160a01b038616600482015291829060249082905afa8015611fb1575f915f91614d3f575b50614ac35f611973565b8214614d00575f614aee95614ad730611859565b6040519788928391829163edd0522360e01b611f08565b03915afa948515611fb1575f95614ce4575b50614c19612e93614bd5614bc2614bb8614b9a8a612cba614b90612e93614b85614b68614b45614b3b612e93614b355f611973565b89611adf565b611f7c6001611973565b612cba614b5e612e93614b586001611973565b8a611adf565b611f7c6002611973565b612cba614b7b612e93614b356002611973565b611f7c6003611973565b9361349d6003611973565b611f7c6004611973565b612cba614bae612e938d61349d6004611973565b611f7c6005611973565b611f7c6064611973565b613c03614bcf6005611973565b87611e70565b96614bdf5f611fef565b94614c096113616102fb614bfe612e93614bf85f611973565b87611adf565b93613c036002611973565b11614cb1575b61349d6004611973565b614c256113615f611973565b14614c78575b614c38611361600a611973565b11614c405750565b614c6f81614c51614c759391614977565b50613bd3614c5d614a1e565b6139f3614c6984613b03565b88614988565b83614988565b50565b614cab614ca5614c8784614977565b93613bd3614c936149db565b6139f3614c9f84613b03565b8a614988565b85614988565b50614c2b565b614cde614c69614cc087614977565b96613bd3614ccc614990565b6139f3614cd884613b03565b8d614988565b50614c0f565b614cf99195503d805f833e6136818183611994565b935f614b00565b5050915050614d0f6003613ae5565b90614d1b613441614917565b614d2d614d2661495e565b6020840152565b6137dd614d3861496f565b6040840152565b9050614d5a915060803d60801161297b5761296b8183611994565b5090614ab9565b15614d6857565b60405162461bcd60e51b815260206004820152600a60248201526927b7363c9037bbb732b960b11b6044820152606490fd5b6102f090614db5614dae6104ba6001611e1b565b3314614d61565b614e59565b6104ba6102fb6102fb9290565b6102fb90614dba565b15614dd757565b60405162461bcd60e51b815260206004820152601860248201527f496e76616c6964207374616b696e6720636f6e747261637400000000000000006044820152606490fd5b90614e2c6102fb614e5592611859565b825473ffffffffffffffffffffffffffffffffffffffff19166001600160a01b03919091161790565b9055565b614e8f90614e7d614e6c6104ba5f614dc7565b6001600160a01b0383161415614dd0565b611ef0614e8982611859565b5f614e1c565b7f6397f5b135542bb3f477cb346cfab5abdec1251d08dc8f8d4efb4ffe122ea0bf614eb960405190565b5f90a2565b6102f090614d9a565b614ed3611ef05f611e1b565b6080614ede60405190565b636386c1c760e01b81526001600160a01b038416600482015291829060249082905afa908115611fb1575f9161514e575b50614f19816131fe565b614f22826131fe565b90614f2c836131fe565b91614f36846131fe565b90614f40856131fe565b955f9485809481938290614f535f611973565b8b5b81101561510957614f68611ef05f611e1b565b6080614f7360405190565b918290630c0e220b60e31b82528180614f90878960048401612a8e565b03915afa908115611fb1578a918f915f916150e9575b50614fb05f612ace565b6001600160401b03821603614fe857505050808b614fcd906138cf565b9b614fd8908c611adf565b52614f55906001015b9050614f53565b614ff462278d00612ace565b6001600160401b0382160361502457505081612a27614f55936139f361501d614fe1959e6138cf565b9d8d611adf565b9091506150336276a700612ace565b6001600160401b03821603615062575050614fe181612a27614f55936139f361505b8c6138cf565b9b8b611adf565b61506e62ed4e00612ace565b6001600160401b0382160361509d575050614fe181612a27614f55936139f36150968a6138cf565b9989611adf565b6150ad612cd56301e13380612ace565b146150c0575b50614f5590600101614fe1565b92816150e0614f55936139f3846150da614fe196916138cf565b98611adf565b9150508c6150b3565b615101915060803d8111612d8457612d718183611994565b925050614fa6565b5099509497936151326151469761512b615139949d97615140979f9b8e6168e1565b9a8c6168e1565b9b8a6168e1565b98886168e1565b956168e1565b919493929190565b615167915060803d60801161297b5761296b8183611994565b509150614f0f565b905f808093615180611ef05f611e1b565b608061518b60405190565b636386c1c760e01b81526001600160a01b038416600482015291829060249082905afa8015611fb1575f955f925f926152f7575b506151c95f611973565b955b828710156152ea576151df611ef05f611e1b565b60806151ea60405190565b918290630c0e220b60e31b825281806152078d8c60048401612a8e565b03915afa8015611fb1575f915f905f926152b9575b506102fb612cb161522c92612aab565b4210908161529d575b615241612cd55f612ace565b03615264575061525e91612cba61525792612ae7565b9660010190565b956151cb565b91979691156152845761525e91612cba61527d92612ae7565b9560010190565b61525e919699612cba61529692612ae7565b9860010190565b90506152a85f612ace565b6001600160401b0382161190615235565b612cb193506102fb925061522c91506152df9060803d8111612d8457612d718183611994565b94505091509261521c565b9697929691955090939250565b91509550615314915060803d60801161297b5761296b8183611994565b96909192966151bf565b61532a611ef05f611e1b565b602061533560405190565b6328136b1f60e11b815291829060049082905afa908115611fb1575f91615419575b5090615365611ef05f611e1b565b602061537060405190565b63c9f8234f60e01b815291829060049082905afa908115611fb1575f916153fa575b5061539f611ef05f611e1b565b60206153aa60405190565b6337cfdcc560e11b815291829060049082905afa908115611fb1575f916153db575b506153d65f611973565b908193565b6153f4915060203d602011611faa57611f9c8183611994565b5f6153cc565b615413915060203d602011611faa57611f9c8183611994565b5f615392565b615432915060203d602011611faa57611f9c8183611994565b5f615357565b906102f06154486148ce84613ae5565b836131f9565b6102fb6005615438565b6102fb60056148be565b61546a6119fc565b9061547361544e565b82526020808080850161548461544e565b81520161548f61544e565b815201611a2a615458565b6102fb615462565b6154ac6008611a99565b67466c657869626c6560c01b602082015290565b6102fb6154a2565b6154d26007611a99565b663330204461797360c81b602082015290565b6102fb6154c8565b6154f76007611a99565b663930204461797360c81b602082015290565b6102fb6154ed565b61551c6008611a99565b67313830204461797360c01b602082015290565b6102fb615512565b6155426008611a99565b67333635204461797360c01b602082015290565b6102fb615538565b61556661549a565b90816155726005613ae5565b61558261557e5f611973565b8252565b61560561558f601e611973565b9161559b836020830152565b6155f86155a8605a611973565b6155b3816040850152565b6155bd60b4611973565b926155c9846060830152565b6155d76112ff61016d611973565b86526155eb6155e66005613ae5565b958652565b610dc7610dc06032611973565b6112ff6112f86078611973565b60208201526156146005613ae5565b61562261557e610107611973565b615630610ece6101b6611973565b61563e610d64610314611973565b61564c610dce61041b611973565b61565a6112ff610629611973565b6040820152606061566b6005613ae5565b91615677613b976154c0565b615682610d5d6154e5565b61568d610dc761550a565b61569e615698615530565b83850152565b610afb6128e9615556565b905f6156b7611ef05f611e1b565b9160806156c360405190565b636386c1c760e01b81526001600160a01b038616600482015293849060249082905afa928315611fb1575f936158d9575b506156fe5f611973565b83146158cc57615710611ef05f611e1b565b90602061571c60405190565b6364ab867560e01b81526001600160a01b038716600482015292839060249082905afa918215611fb1575f926158ab575b5082916157595f611973565b855b8110156157f85761577e608082615774611ef05f611e1b565b8a612c6d60405190565b03915afa8015611fb157615799915f916157d8575b50612aab565b4281106157b1575b5061575b906001015b9050615759565b6157d06157ca61575b939697612cba6157aa94426131ac565b966138cf565b9491506157a1565b6157f0915060803d8111612d8457612d718183611994565b505090615793565b509291935093506158085f611973565b8314801561589a575b615887576158469261582291611e61565b90816158306113615f611973565b1461586e575b61232d90611f7c62015180611973565b615859615853601e611973565b82611e70565b9161402061586861016d611973565b83611e70565b905061232d61587f62015180611973565b919050615836565b5050506158935f611973565b9081908290565b506158a45f611973565b8114615811565b6158c591925060203d602011611faa57611f9c8183611994565b905f61574d565b925050506158935f611973565b6158f391935060803d60801161297b5761296b8183611994565b509391506156f4565b615904613392565b50615911611ef05f611e1b565b90608061591d60405190565b636386c1c760e01b81526001600160a01b038316600482015292839060249082905afa8015611fb1575f905f935f91615a88575b5061595e611ef05f611e1b565b925f61596960405190565b635f9bddb560e11b81526001600160a01b038316600482015294859060249082905afa908115611fb1576159ac945f92615a6a57505f906147b1611ef083611e1b565b03915afa938415611fb1575f95615a39615a4b94615a2f6159e16159dc6102fb9a615a44978d91615a5657505190565b611fef565b91615a286159f4604089015161ffff1690565b95615a21615a126080615a0860208d015190565b9b015161ffff1690565b9b615a1b612477565b9e8f0152565b60208d0152565b60408b0152565b60ff166060890152565b61ffff166080870152565b60a0850152565b61ffff1660c0830152565b612e9391503d808f833e6129138183611994565b5f919250615a81903d8084833e61293d8183611994565b91906147a2565b915050615aa591925060803d60801161297b5761296b8183611994565b93929193615951565b6102fb60a06119ba565b615ac0615aae565b905f825260208080808086015f611db0565b6102fb615ab8565b615ae2615ad2565b50615aef611ef05f611e1b565b6080615afa60405190565b636386c1c760e01b81526001600160a01b038416600482015291829060249082905afa8015611fb1575f915f91615bf2575b506020615b579293615b40611ef05f611e1b565b60405194859283918291633bab7a8960e01b611f08565b03915afa908115611fb1576102fb925f92615bcd575b506112ff906112f8615b7f8487612ac1565b615b885f611973565b871115615bbb576112f1615ba98861232d615ba36064611973565b89611e70565b955b6112ea615bb6615aae565b998a52565b6112f1615bc75f611973565b95615bab565b6112ff919250615beb9060203d602011611faa57611f9c8183611994565b9190615b6d565b615b57925060209150615c139060803d60801161297b5761296b8183611994565b5092505091615b2c565b5f5b828110615c2b57505050565b602090615c36615ad2565b8184015201615c1f565b906102f0615c50611a6a846119e5565b601f190160208401615c1d565b6102fb90516102e6565b6102fb90516106bc565b6102fb6102fb6102fb9261ffff1690565b90610307906102e6565b90610307906106bc565b615ca2611ef05f611e1b565b5f615cac60405190565b63161ba78160e01b81526001600160a01b038416600482015291829060249082905afa908115611fb1575f91615e42575b50615d176020615cf3615cee845190565b615c40565b93615d00611ef05f611e1b565b60405193849283918291633bab7a8960e01b611f08565b03915afa908115611fb1575f91615e23575b50615d335f611973565b615d3e6102fb845190565b8110156143e357615d4f8184611adf565b51615d5990615c5d565b615d638285611adf565b516020015161ffff16615d768386611adf565b51604001615d8390615c67565b615d8d8487611adf565b5160a00151151590615d9f8588611adf565b516020015161ffff16615db190615c71565b615dbb9087611e70565b615dc6612710611973565b615dcf91611e61565b92615dd8615aae565b94615de39086615c82565b61ffff166020850152615df99060408501615c8c565b151560608301526080820152615e0f8286611adf565b52615e1a8185611adf565b50600101615d33565b615e3c915060203d602011611faa57611f9c8183611994565b5f615d29565b615e5691503d805f833e6129138183611994565b5f615cdd565b906020828203126102b5576102fb9161269d565b6020615eab91615e7d5f90565b50615e8a611ef05f611e1b565b6040519384928391829163f154a54960e01b83526004830190815260200190565b03915afa908115611fb1575f91615ed2575b5080916102fb615ecc83616942565b926169fb565b615ef4915060203d602011615efa575b615eec8183611994565b810190615e5c565b5f615ebd565b503d615ee2565b15615f0857565b60405162461bcd60e51b815260206004820152601560248201527f496e76616c6964206c6f636b757020706572696f6400000000000000000000006044820152606490fd5b91615f8590613c56615f7e612e93615f9195615f665f90565b50613b7b615f746005611fef565b60ff831610615f01565b8095611e70565b613c036237b1d0611973565b91565b5f5b828110615fa257505050565b602090615fad613392565b8184015201615f96565b906102f0615fc7611a6a846119e5565b601f190160208401615f94565b5f61600591615fe1606090565b50615fee611ef083611e1b565b6040519384928391829163161ba78160e01b611f08565b03915afa908115611fb1575f9161615a575b50616028616023825190565b615fb7565b906160325f611973565b61603d6102fb835190565b8110156161555761604e8183611adf565b5161605890615c5d565b6160628284611adf565b516020015161ffff166160758385611adf565b5160400161608290615c67565b61608c8486611adf565b51606001516001600160401b03166160a48587611adf565b51608001516001600160401b0316906160bd8688611adf565b5160a001511515926160cf8789611adf565b516040016160dc90615c67565b6160e590616942565b946160ee612477565b966160f99088615c82565b61ffff16602087015261610f9060408701615c8c565b6001600160401b031660608501526001600160401b03166080840152151560a083015260c08201526161418285611adf565b5261614c8184611adf565b50600101616032565b505090565b61616e91503d805f833e6129138183611994565b5f616017565b616180611ef05f611e1b565b90608061618c60405190565b636386c1c760e01b81526001600160a01b038316600482015292839060249082905afa918215611fb1575f926163c7575b506161d06161cb6005611973565b6131fe565b926161da5f611973565b835b8110156163c1576161ef611ef05f611e1b565b9060806161fb60405190565b928390630c0e220b60e31b82528180616218868a60048401612a8e565b03915afa908115611fb1576161dc9287616280935f925f9161639c575b5061623f5f612ace565b6001600160401b0382160361628757505061627461625f612a2792612ae7565b61305f612e9361626e5f611973565b8c611adf565b6139f3614b585f611973565b90506161da565b61629362278d00612ace565b6001600160401b038216036162ca57506139f3614b586124496162b8612a2795612ae7565b61305f612e9360019661349d88611973565b6162d66276a700612ace565b6001600160401b0382160361630d57506139f3614b586124496162fb612a2795612ae7565b61305f612e9360029661349d88611973565b61631962ed4e00612ace565b6001600160401b0382160361635057506139f3614b5861244961633e612a2795612ae7565b61305f612e9360039661349d88611973565b616360612cd56301e13380612ace565b1461636e575b505060010190565b6139f3614b5861244961638361639595612ae7565b61305f612e9360049661349d88611973565b5f87616366565b90506163b791925060803d8111612d8457612d718183611994565b9150929192616235565b50915050565b6163e191925060803d60801161297b5761296b8183611994565b509291506161bd565b6102f0906163fe614dae6104ba6001611e1b565b616441565b1561640a57565b60405162461bcd60e51b815260206004820152600f60248201526e496e76616c6964206164647265737360881b6044820152606490fd5b6164616164506104ba5f614dc7565b6001600160a01b0383161415616403565b61648261647c6164716001611e1b565b611ef0846001614e1c565b91611859565b907f8be0079c531659141344cd1fd0a4f28419497f9722a3daafe3b4186f6b6457e06164ad60405190565b5f90a3565b6102f0906163ea565b6164c361544e565b506164ce6005613ae5565b6164db61557e601e611973565b6164e8610ece6032611973565b6164f5610d64605a611973565b616502610dce6078611973565b6102fb6112ff60b4611973565b6102fb60406119ba565b61652161650f565b905f82525f6020830152565b6102fb616519565b61653d61652d565b5061654a611ef05f611e1b565b5f61655460405190565b634b1d06d760e01b815291829060049082905afa8015611fb15761657d915f9161659357505190565b6165886119f761650f565b6102fb426020830152565b612e9391503d805f833e6133748183611994565b906020828203126102b5576102fb916125a5565b6020810192916102f091906102fe565b906020828203126102b5576102fb91612583565b906165e8611a2f565b506165f5611ef05f611e1b565b90602061660160405190565b928390634c94bb5560e11b8252818061661d88600483016165bb565b03915afa918215611fb1575f926166dc575b5061663c611ef05f611e1b565b602061664760405190565b9182906361fbc71d60e11b8252818061666389600483016165bb565b03915afa8015611fb1576102fb93610dce925f926166a7575b5061669c9061669361668c6119fc565b9788615c82565b15156020870152565b61ffff166040850152565b61669c9192506166ce9060203d6020116166d5575b6166c68183611994565b8101906165cb565b919061667c565b503d6166bc565b6166ff91925060203d602011616706575b6166f78183611994565b8101906165a7565b905f61662f565b503d6166ed565b6080826167299261671c612eda565b50613b2e611ef05f611e1b565b03915afa8015611fb1575f5f5f935f936168b7575b5061674890612aab565b61675183612aab565b61675b8183612ac1565b91824210948561689b575b6060906167725f612ace565b6001600160401b038216036167ec57505061679461678e6154c0565b94612ae7565b9561679e90612aab565b908515966167aa612e97565b98895260208901526167bb5f611973565b60408901526060880152608087015260a086015260c085015260e08401521515610100830152151561012082015290565b6167f862278d00612ace565b6001600160401b0382160361681457505061679461678e6154e5565b6168206276a700612ace565b6001600160401b0382160361683c57505061679461678e61550a565b61684862ed4e00612ace565b6001600160401b0382160361686457505061679461678e615530565b616877612cd56301e13380979397612ace565b14616886575b61679490612ae7565b9350616794616893615556565b94905061687d565b94506168a65f612ace565b6001600160401b0386161194616766565b91505061674892506168d8915060803d608011612d8457612d718183611994565b9291909361673e565b919291906168ee84612f05565b926168f85f611973565b855b81101561693a576169338161691e616918612e936168fa9588611adf565b8761670d565b6169288289611adf565b526135c98188611adf565b90506168f8565b509350505090565b61694b5f6106bc565b616954826106bc565b146169f15761696360016106bc565b61696c826106bc565b146169e55761697b60026106bc565b616984826106bc565b146169d95761699360036106bc565b61699c826106bc565b146169cd576169b46169ae60046106bc565b916106bc565b146169c2576102fb5f611973565b6102fb611f40611973565b506102fb610fa0611973565b506102fb6107d0611973565b506102fb6103e8611973565b506102fb5f611973565b616a045f6106bc565b616a0d826106bc565b14616aa057616a1c60016106bc565b616a25826106bc565b14616a9557616a3460026106bc565b616a3d826106bc565b14616a8a57616a4c60036106bc565b616a55826106bc565b14616a7f57616a676169ae60046106bc565b14616a75576102fb5f611fef565b6102fb600a611fef565b506102fb6009611fef565b506102fb6007611fef565b506102fb6005611fef565b506102fb6003611fef56fea2646970667358221220530fe41bf405be168d173ecb3283df5468faa44fd6137641cc99ae36536222ee64736f6c634300081c0033",
  "linkReferences": {},
  "deployedLinkReferences": {}
}