{
  "_format": "hh-sol-artifact-1",
  "contractName": "EnhancedSmartStaking",
  "sourceName": "contracts/SmartStaking/EnhancedSmartStaking.sol",
  "abi": [
    {
      "inputs": [
        {
          "internalType": "address",
          "name": "_treasury",
          "type": "address"
        }
      ],
      "stateMutability": "nonpayable",
      "type": "constructor"
    },
    {
      "inputs": [],
      "name": "AlreadyMigrated",
      "type": "error"
    },
    {
      "inputs": [],
      "name": "AutoCompoundNotActive",
      "type": "error"
    },
    {
      "inputs": [],
      "name": "ContractIsMigrated",
      "type": "error"
    },
    {
      "inputs": [
        {
          "internalType": "uint256",
          "name": "availableToWithdraw",
          "type": "uint256"
        }
      ],
      "name": "DailyWithdrawalLimitExceeded",
      "type": "error"
    },
    {
      "inputs": [
        {
          "internalType": "uint256",
          "name": "provided",
          "type": "uint256"
        },
        {
          "internalType": "uint256",
          "name": "maximum",
          "type": "uint256"
        }
      ],
      "name": "DepositTooHigh",
      "type": "error"
    },
    {
      "inputs": [
        {
          "internalType": "uint256",
          "name": "provided",
          "type": "uint256"
        },
        {
          "internalType": "uint256",
          "name": "minimum",
          "type": "uint256"
        }
      ],
      "name": "DepositTooLow",
      "type": "error"
    },
    {
      "inputs": [],
      "name": "FundsAreLocked",
      "type": "error"
    },
    {
      "inputs": [],
      "name": "InsufficientBalance",
      "type": "error"
    },
    {
      "inputs": [],
      "name": "InsufficientSkillNFTs",
      "type": "error"
    },
    {
      "inputs": [],
      "name": "InvalidAddress",
      "type": "error"
    },
    {
      "inputs": [],
      "name": "InvalidEffectValue",
      "type": "error"
    },
    {
      "inputs": [],
      "name": "InvalidLockupDuration",
      "type": "error"
    },
    {
      "inputs": [],
      "name": "LevelUpNotEligible",
      "type": "error"
    },
    {
      "inputs": [
        {
          "internalType": "address",
          "name": "user",
          "type": "address"
        },
        {
          "internalType": "uint16",
          "name": "maxDeposits",
          "type": "uint16"
        }
      ],
      "name": "MaxDepositsReached",
      "type": "error"
    },
    {
      "inputs": [],
      "name": "NoDepositsFound",
      "type": "error"
    },
    {
      "inputs": [],
      "name": "NoPendingCommission",
      "type": "error"
    },
    {
      "inputs": [],
      "name": "NoRewardsAvailable",
      "type": "error"
    },
    {
      "inputs": [],
      "name": "OnlyMarketplace",
      "type": "error"
    },
    {
      "inputs": [],
      "name": "SkillAlreadyActive",
      "type": "error"
    },
    {
      "inputs": [],
      "name": "SkillNotActive",
      "type": "error"
    },
    {
      "inputs": [],
      "name": "SkillTypeDisabled",
      "type": "error"
    },
    {
      "inputs": [],
      "name": "UnauthorizedSender",
      "type": "error"
    },
    {
      "anonymous": false,
      "inputs": [
        {
          "indexed": true,
          "internalType": "address",
          "name": "user",
          "type": "address"
        },
        {
          "indexed": false,
          "internalType": "uint256",
          "name": "achievementId",
          "type": "uint256"
        },
        {
          "indexed": false,
          "internalType": "uint256",
          "name": "rewardAmount",
          "type": "uint256"
        },
        {
          "indexed": false,
          "internalType": "uint256",
          "name": "timestamp",
          "type": "uint256"
        }
      ],
      "name": "AchievementRewardObtained",
      "type": "event"
    },
    {
      "anonymous": false,
      "inputs": [
        {
          "indexed": true,
          "internalType": "address",
          "name": "user",
          "type": "address"
        },
        {
          "indexed": false,
          "internalType": "uint256",
          "name": "compoundedAmount",
          "type": "uint256"
        }
      ],
      "name": "AutoCompoundTriggered",
      "type": "event"
    },
    {
      "anonymous": false,
      "inputs": [
        {
          "indexed": true,
          "internalType": "address",
          "name": "user",
          "type": "address"
        },
        {
          "indexed": false,
          "internalType": "uint256",
          "name": "amount",
          "type": "uint256"
        }
      ],
      "name": "AutoCompounded",
      "type": "event"
    },
    {
      "anonymous": false,
      "inputs": [
        {
          "indexed": true,
          "internalType": "address",
          "name": "receiver",
          "type": "address"
        },
        {
          "indexed": false,
          "internalType": "uint256",
          "name": "amount",
          "type": "uint256"
        },
        {
          "indexed": false,
          "internalType": "uint256",
          "name": "timestamp",
          "type": "uint256"
        }
      ],
      "name": "CommissionPaid",
      "type": "event"
    },
    {
      "anonymous": false,
      "inputs": [
        {
          "indexed": true,
          "internalType": "address",
          "name": "user",
          "type": "address"
        },
        {
          "indexed": false,
          "internalType": "uint256",
          "name": "amount",
          "type": "uint256"
        }
      ],
      "name": "Compounded",
      "type": "event"
    },
    {
      "anonymous": false,
      "inputs": [
        {
          "indexed": true,
          "internalType": "address",
          "name": "user",
          "type": "address"
        },
        {
          "indexed": false,
          "internalType": "uint256",
          "name": "amount",
          "type": "uint256"
        },
        {
          "indexed": false,
          "internalType": "uint256",
          "name": "lockupDuration",
          "type": "uint256"
        }
      ],
      "name": "Deposited",
      "type": "event"
    },
    {
      "anonymous": false,
      "inputs": [
        {
          "indexed": true,
          "internalType": "address",
          "name": "user",
          "type": "address"
        },
        {
          "indexed": false,
          "internalType": "uint256",
          "name": "amount",
          "type": "uint256"
        }
      ],
      "name": "EmergencyRewardClaimed",
      "type": "event"
    },
    {
      "anonymous": false,
      "inputs": [
        {
          "indexed": true,
          "internalType": "address",
          "name": "user",
          "type": "address"
        },
        {
          "indexed": false,
          "internalType": "uint256",
          "name": "amount",
          "type": "uint256"
        }
      ],
      "name": "EmergencyWithdrawal",
      "type": "event"
    },
    {
      "anonymous": false,
      "inputs": [
        {
          "indexed": true,
          "internalType": "address",
          "name": "oldMarketplace",
          "type": "address"
        },
        {
          "indexed": true,
          "internalType": "address",
          "name": "newMarketplace",
          "type": "address"
        }
      ],
      "name": "MarketplaceUpdated",
      "type": "event"
    },
    {
      "anonymous": false,
      "inputs": [
        {
          "indexed": true,
          "internalType": "address",
          "name": "newContract",
          "type": "address"
        }
      ],
      "name": "MigrationInitiated",
      "type": "event"
    },
    {
      "anonymous": false,
      "inputs": [
        {
          "indexed": true,
          "internalType": "address",
          "name": "user",
          "type": "address"
        },
        {
          "indexed": true,
          "internalType": "uint256",
          "name": "tokenId",
          "type": "uint256"
        }
      ],
      "name": "NFTStaked",
      "type": "event"
    },
    {
      "anonymous": false,
      "inputs": [
        {
          "indexed": true,
          "internalType": "address",
          "name": "user",
          "type": "address"
        },
        {
          "indexed": true,
          "internalType": "uint256",
          "name": "tokenId",
          "type": "uint256"
        }
      ],
      "name": "NFTUnstaked",
      "type": "event"
    },
    {
      "anonymous": false,
      "inputs": [
        {
          "indexed": true,
          "internalType": "address",
          "name": "previousOwner",
          "type": "address"
        },
        {
          "indexed": true,
          "internalType": "address",
          "name": "newOwner",
          "type": "address"
        }
      ],
      "name": "OwnershipTransferred",
      "type": "event"
    },
    {
      "anonymous": false,
      "inputs": [
        {
          "indexed": false,
          "internalType": "address",
          "name": "account",
          "type": "address"
        }
      ],
      "name": "Paused",
      "type": "event"
    },
    {
      "anonymous": false,
      "inputs": [
        {
          "indexed": true,
          "internalType": "address",
          "name": "user",
          "type": "address"
        },
        {
          "indexed": false,
          "internalType": "uint256",
          "name": "questId",
          "type": "uint256"
        },
        {
          "indexed": false,
          "internalType": "uint256",
          "name": "rewardAmount",
          "type": "uint256"
        },
        {
          "indexed": false,
          "internalType": "uint256",
          "name": "timestamp",
          "type": "uint256"
        }
      ],
      "name": "QuestRewardObtained",
      "type": "event"
    },
    {
      "anonymous": false,
      "inputs": [
        {
          "indexed": true,
          "internalType": "address",
          "name": "user",
          "type": "address"
        },
        {
          "indexed": false,
          "internalType": "uint256",
          "name": "amount",
          "type": "uint256"
        }
      ],
      "name": "RewardsCompounded",
      "type": "event"
    },
    {
      "anonymous": false,
      "inputs": [
        {
          "indexed": true,
          "internalType": "address",
          "name": "user",
          "type": "address"
        },
        {
          "indexed": true,
          "internalType": "uint256",
          "name": "nftId",
          "type": "uint256"
        },
        {
          "indexed": false,
          "internalType": "enum IStakingIntegration.SkillType",
          "name": "skillType",
          "type": "uint8"
        },
        {
          "indexed": false,
          "internalType": "uint16",
          "name": "effectValue",
          "type": "uint16"
        }
      ],
      "name": "SkillActivated",
      "type": "event"
    },
    {
      "anonymous": false,
      "inputs": [
        {
          "indexed": true,
          "internalType": "address",
          "name": "user",
          "type": "address"
        },
        {
          "indexed": true,
          "internalType": "uint256",
          "name": "tokenId",
          "type": "uint256"
        },
        {
          "indexed": false,
          "internalType": "enum IStakingIntegration.SkillType",
          "name": "skillType",
          "type": "uint8"
        },
        {
          "indexed": false,
          "internalType": "uint8",
          "name": "skillLevel",
          "type": "uint8"
        }
      ],
      "name": "SkillApplied",
      "type": "event"
    },
    {
      "anonymous": false,
      "inputs": [
        {
          "indexed": true,
          "internalType": "address",
          "name": "user",
          "type": "address"
        },
        {
          "indexed": true,
          "internalType": "uint256",
          "name": "nftId",
          "type": "uint256"
        },
        {
          "indexed": false,
          "internalType": "enum IStakingIntegration.SkillType",
          "name": "skillType",
          "type": "uint8"
        }
      ],
      "name": "SkillDeactivated",
      "type": "event"
    },
    {
      "anonymous": false,
      "inputs": [
        {
          "indexed": true,
          "internalType": "address",
          "name": "user",
          "type": "address"
        },
        {
          "indexed": false,
          "internalType": "uint8",
          "name": "level",
          "type": "uint8"
        },
        {
          "indexed": false,
          "internalType": "uint8",
          "name": "maxActiveSkills",
          "type": "uint8"
        },
        {
          "indexed": false,
          "internalType": "uint16",
          "name": "stakingBoostTotal",
          "type": "uint16"
        }
      ],
      "name": "SkillProfileUpdated",
      "type": "event"
    },
    {
      "anonymous": false,
      "inputs": [
        {
          "indexed": true,
          "internalType": "address",
          "name": "user",
          "type": "address"
        },
        {
          "indexed": true,
          "internalType": "uint256",
          "name": "tokenId",
          "type": "uint256"
        },
        {
          "indexed": false,
          "internalType": "enum IStakingIntegration.SkillType",
          "name": "skillType",
          "type": "uint8"
        }
      ],
      "name": "SkillRemoved",
      "type": "event"
    },
    {
      "anonymous": false,
      "inputs": [
        {
          "indexed": true,
          "internalType": "address",
          "name": "user",
          "type": "address"
        },
        {
          "indexed": true,
          "internalType": "uint256",
          "name": "tokenId",
          "type": "uint256"
        },
        {
          "indexed": false,
          "internalType": "enum IStakingIntegration.Rarity",
          "name": "newRarity",
          "type": "uint8"
        },
        {
          "indexed": false,
          "internalType": "uint256",
          "name": "upgradeReward",
          "type": "uint256"
        }
      ],
      "name": "SkillUpgraded",
      "type": "event"
    },
    {
      "anonymous": false,
      "inputs": [
        {
          "indexed": true,
          "internalType": "address",
          "name": "oldTreasury",
          "type": "address"
        },
        {
          "indexed": true,
          "internalType": "address",
          "name": "newTreasury",
          "type": "address"
        }
      ],
      "name": "TreasuryUpdated",
      "type": "event"
    },
    {
      "anonymous": false,
      "inputs": [
        {
          "indexed": false,
          "internalType": "address",
          "name": "account",
          "type": "address"
        }
      ],
      "name": "Unpaused",
      "type": "event"
    },
    {
      "anonymous": false,
      "inputs": [
        {
          "indexed": true,
          "internalType": "address",
          "name": "user",
          "type": "address"
        },
        {
          "indexed": false,
          "internalType": "uint256",
          "name": "totalAmount",
          "type": "uint256"
        }
      ],
      "name": "WithdrawAll",
      "type": "event"
    },
    {
      "anonymous": false,
      "inputs": [
        {
          "indexed": true,
          "internalType": "address",
          "name": "user",
          "type": "address"
        },
        {
          "indexed": false,
          "internalType": "uint256",
          "name": "amount",
          "type": "uint256"
        },
        {
          "indexed": false,
          "internalType": "uint256",
          "name": "commission",
          "type": "uint256"
        },
        {
          "indexed": false,
          "internalType": "uint256",
          "name": "timestamp",
          "type": "uint256"
        },
        {
          "indexed": false,
          "internalType": "uint256",
          "name": "depositId",
          "type": "uint256"
        }
      ],
      "name": "WithdrawalMade",
      "type": "event"
    },
    {
      "anonymous": false,
      "inputs": [
        {
          "indexed": true,
          "internalType": "address",
          "name": "user",
          "type": "address"
        },
        {
          "indexed": false,
          "internalType": "uint256",
          "name": "amount",
          "type": "uint256"
        }
      ],
      "name": "Withdrawn",
      "type": "event"
    },
    {
      "inputs": [],
      "name": "AUTO_COMPOUND_INTERVAL",
      "outputs": [
        {
          "internalType": "uint64",
          "name": "",
          "type": "uint64"
        }
      ],
      "stateMutability": "view",
      "type": "function"
    },
    {
      "inputs": [],
      "name": "achievementRewardExpirationTime",
      "outputs": [
        {
          "internalType": "uint256",
          "name": "",
          "type": "uint256"
        }
      ],
      "stateMutability": "view",
      "type": "function"
    },
    {
      "inputs": [
        {
          "internalType": "address[]",
          "name": "userAddresses",
          "type": "address[]"
        }
      ],
      "name": "batchAutoCompound",
      "outputs": [],
      "stateMutability": "nonpayable",
      "type": "function"
    },
    {
      "inputs": [
        {
          "internalType": "address",
          "name": "user",
          "type": "address"
        },
        {
          "internalType": "uint256",
          "name": "baseAPY",
          "type": "uint256"
        }
      ],
      "name": "calculateBoostedAPY",
      "outputs": [
        {
          "internalType": "uint256",
          "name": "",
          "type": "uint256"
        }
      ],
      "stateMutability": "view",
      "type": "function"
    },
    {
      "inputs": [
        {
          "internalType": "address",
          "name": "userAddress",
          "type": "address"
        }
      ],
      "name": "calculateBoostedRewards",
      "outputs": [
        {
          "internalType": "uint256",
          "name": "totalRewards",
          "type": "uint256"
        }
      ],
      "stateMutability": "view",
      "type": "function"
    },
    {
      "inputs": [
        {
          "internalType": "address",
          "name": "user",
          "type": "address"
        }
      ],
      "name": "calculateBoostedRewardsWithRarityMultiplier",
      "outputs": [
        {
          "internalType": "uint256",
          "name": "totalBoosted",
          "type": "uint256"
        }
      ],
      "stateMutability": "view",
      "type": "function"
    },
    {
      "inputs": [
        {
          "internalType": "address",
          "name": "user",
          "type": "address"
        },
        {
          "internalType": "uint256",
          "name": "baseFee",
          "type": "uint256"
        }
      ],
      "name": "calculateFeeDiscount",
      "outputs": [
        {
          "internalType": "uint256",
          "name": "",
          "type": "uint256"
        }
      ],
      "stateMutability": "view",
      "type": "function"
    },
    {
      "inputs": [
        {
          "internalType": "address",
          "name": "user",
          "type": "address"
        },
        {
          "internalType": "uint256",
          "name": "baseLockTime",
          "type": "uint256"
        }
      ],
      "name": "calculateReducedLockTime",
      "outputs": [
        {
          "internalType": "uint256",
          "name": "",
          "type": "uint256"
        }
      ],
      "stateMutability": "view",
      "type": "function"
    },
    {
      "inputs": [
        {
          "internalType": "address",
          "name": "userAddress",
          "type": "address"
        }
      ],
      "name": "calculateRewards",
      "outputs": [
        {
          "internalType": "uint256",
          "name": "totalRewards",
          "type": "uint256"
        }
      ],
      "stateMutability": "view",
      "type": "function"
    },
    {
      "inputs": [
        {
          "internalType": "address",
          "name": "_newTreasury",
          "type": "address"
        }
      ],
      "name": "changeTreasuryAddress",
      "outputs": [],
      "stateMutability": "nonpayable",
      "type": "function"
    },
    {
      "inputs": [
        {
          "internalType": "address",
          "name": "user",
          "type": "address"
        }
      ],
      "name": "checkAutoCompound",
      "outputs": [
        {
          "internalType": "bool",
          "name": "upkeepNeeded",
          "type": "bool"
        },
        {
          "internalType": "bytes",
          "name": "performData",
          "type": "bytes"
        }
      ],
      "stateMutability": "view",
      "type": "function"
    },
    {
      "inputs": [],
      "name": "compound",
      "outputs": [],
      "stateMutability": "nonpayable",
      "type": "function"
    },
    {
      "inputs": [
        {
          "internalType": "uint64",
          "name": "_lockupDuration",
          "type": "uint64"
        }
      ],
      "name": "deposit",
      "outputs": [],
      "stateMutability": "payable",
      "type": "function"
    },
    {
      "inputs": [
        {
          "internalType": "uint64",
          "name": "_lockupDuration",
          "type": "uint64"
        }
      ],
      "name": "depositWithBoosts",
      "outputs": [],
      "stateMutability": "payable",
      "type": "function"
    },
    {
      "inputs": [
        {
          "internalType": "address",
          "name": "user",
          "type": "address"
        }
      ],
      "name": "getActiveSkills",
      "outputs": [
        {
          "components": [
            {
              "internalType": "enum IStakingIntegration.SkillType",
              "name": "skillType",
              "type": "uint8"
            },
            {
              "internalType": "uint16",
              "name": "effectValue",
              "type": "uint16"
            },
            {
              "internalType": "enum IStakingIntegration.Rarity",
              "name": "rarity",
              "type": "uint8"
            },
            {
              "internalType": "uint64",
              "name": "activatedAt",
              "type": "uint64"
            },
            {
              "internalType": "uint64",
              "name": "cooldownEnds",
              "type": "uint64"
            },
            {
              "internalType": "bool",
              "name": "isActive",
              "type": "bool"
            }
          ],
          "internalType": "struct IStakingIntegration.NFTSkill[]",
          "name": "",
          "type": "tuple[]"
        }
      ],
      "stateMutability": "view",
      "type": "function"
    },
    {
      "inputs": [
        {
          "internalType": "address",
          "name": "user",
          "type": "address"
        }
      ],
      "name": "getActiveSkillsWithDetails",
      "outputs": [
        {
          "internalType": "uint256[]",
          "name": "nftIds",
          "type": "uint256[]"
        },
        {
          "internalType": "enum IStakingIntegration.SkillType[]",
          "name": "skillTypes",
          "type": "uint8[]"
        },
        {
          "internalType": "enum IStakingIntegration.Rarity[]",
          "name": "rarities",
          "type": "uint8[]"
        },
        {
          "internalType": "uint16[]",
          "name": "effectValues",
          "type": "uint16[]"
        },
        {
          "internalType": "uint8[]",
          "name": "rarityStars",
          "type": "uint8[]"
        }
      ],
      "stateMutability": "view",
      "type": "function"
    },
    {
      "inputs": [],
      "name": "getAutoCompoundUsers",
      "outputs": [
        {
          "internalType": "address[]",
          "name": "",
          "type": "address[]"
        }
      ],
      "stateMutability": "view",
      "type": "function"
    },
    {
      "inputs": [],
      "name": "getAvailableSkillsConfiguration",
      "outputs": [
        {
          "internalType": "enum IStakingIntegration.SkillType[]",
          "name": "skillTypes",
          "type": "uint8[]"
        },
        {
          "internalType": "uint16[]",
          "name": "defaultEffects",
          "type": "uint16[]"
        },
        {
          "internalType": "bool[]",
          "name": "enabled",
          "type": "bool[]"
        }
      ],
      "stateMutability": "view",
      "type": "function"
    },
    {
      "inputs": [],
      "name": "getContractBalance",
      "outputs": [
        {
          "internalType": "uint256",
          "name": "",
          "type": "uint256"
        }
      ],
      "stateMutability": "view",
      "type": "function"
    },
    {
      "inputs": [
        {
          "internalType": "uint256",
          "name": "nftId",
          "type": "uint256"
        }
      ],
      "name": "getSkillRarity",
      "outputs": [
        {
          "internalType": "enum IStakingIntegration.Rarity",
          "name": "",
          "type": "uint8"
        }
      ],
      "stateMutability": "view",
      "type": "function"
    },
    {
      "inputs": [
        {
          "internalType": "address",
          "name": "userAddress",
          "type": "address"
        }
      ],
      "name": "getTotalDeposit",
      "outputs": [
        {
          "internalType": "uint256",
          "name": "",
          "type": "uint256"
        }
      ],
      "stateMutability": "view",
      "type": "function"
    },
    {
      "inputs": [
        {
          "internalType": "address",
          "name": "userAddress",
          "type": "address"
        }
      ],
      "name": "getUserDeposits",
      "outputs": [
        {
          "components": [
            {
              "internalType": "uint128",
              "name": "amount",
              "type": "uint128"
            },
            {
              "internalType": "uint64",
              "name": "timestamp",
              "type": "uint64"
            },
            {
              "internalType": "uint64",
              "name": "lastClaimTime",
              "type": "uint64"
            },
            {
              "internalType": "uint64",
              "name": "lockupDuration",
              "type": "uint64"
            }
          ],
          "internalType": "struct EnhancedSmartStaking.Deposit[]",
          "name": "",
          "type": "tuple[]"
        }
      ],
      "stateMutability": "view",
      "type": "function"
    },
    {
      "inputs": [
        {
          "internalType": "address",
          "name": "user",
          "type": "address"
        }
      ],
      "name": "getUserDetailedStats",
      "outputs": [
        {
          "internalType": "uint256",
          "name": "totalStaked",
          "type": "uint256"
        },
        {
          "internalType": "uint256",
          "name": "baseRewards",
          "type": "uint256"
        },
        {
          "internalType": "uint256",
          "name": "boostedRewards",
          "type": "uint256"
        },
        {
          "internalType": "uint256",
          "name": "questRewards",
          "type": "uint256"
        },
        {
          "internalType": "uint256",
          "name": "achievementRewards",
          "type": "uint256"
        },
        {
          "internalType": "uint8",
          "name": "skillLevel",
          "type": "uint8"
        },
        {
          "internalType": "uint8",
          "name": "activeSkillsCount",
          "type": "uint8"
        },
        {
          "internalType": "bool",
          "name": "hasAutoCompoundSkill",
          "type": "bool"
        }
      ],
      "stateMutability": "view",
      "type": "function"
    },
    {
      "inputs": [
        {
          "internalType": "address",
          "name": "userAddress",
          "type": "address"
        }
      ],
      "name": "getUserInfo",
      "outputs": [
        {
          "internalType": "uint256",
          "name": "totalDeposited",
          "type": "uint256"
        },
        {
          "internalType": "uint256",
          "name": "totalRewards",
          "type": "uint256"
        },
        {
          "internalType": "uint256",
          "name": "depositCount",
          "type": "uint256"
        },
        {
          "internalType": "uint256",
          "name": "lastWithdrawTime",
          "type": "uint256"
        }
      ],
      "stateMutability": "view",
      "type": "function"
    },
    {
      "inputs": [
        {
          "internalType": "address",
          "name": "userAddress",
          "type": "address"
        }
      ],
      "name": "getUserInfoWithSkills",
      "outputs": [
        {
          "internalType": "uint256",
          "name": "totalDeposited",
          "type": "uint256"
        },
        {
          "internalType": "uint256",
          "name": "baseRewards",
          "type": "uint256"
        },
        {
          "internalType": "uint256",
          "name": "boostedRewards",
          "type": "uint256"
        },
        {
          "internalType": "uint256",
          "name": "lastWithdraw",
          "type": "uint256"
        },
        {
          "internalType": "uint16",
          "name": "stakingBoost",
          "type": "uint16"
        },
        {
          "internalType": "bool",
          "name": "hasAutoCompound_",
          "type": "bool"
        },
        {
          "internalType": "uint8",
          "name": "level",
          "type": "uint8"
        },
        {
          "internalType": "uint8",
          "name": "activeSkillCount",
          "type": "uint8"
        }
      ],
      "stateMutability": "view",
      "type": "function"
    },
    {
      "inputs": [
        {
          "internalType": "address",
          "name": "user",
          "type": "address"
        }
      ],
      "name": "getUserSkillProfile",
      "outputs": [
        {
          "components": [
            {
              "internalType": "uint256[]",
              "name": "activeNFTIds",
              "type": "uint256[]"
            },
            {
              "internalType": "uint256",
              "name": "totalXP",
              "type": "uint256"
            },
            {
              "internalType": "uint8",
              "name": "level",
              "type": "uint8"
            },
            {
              "internalType": "uint8",
              "name": "maxActiveSkills",
              "type": "uint8"
            },
            {
              "internalType": "uint16",
              "name": "stakingBoostTotal",
              "type": "uint16"
            },
            {
              "internalType": "uint16",
              "name": "feeDiscountTotal",
              "type": "uint16"
            },
            {
              "internalType": "bool",
              "name": "hasAutoCompound",
              "type": "bool"
            }
          ],
          "internalType": "struct IStakingIntegration.UserSkillProfile",
          "name": "",
          "type": "tuple"
        }
      ],
      "stateMutability": "view",
      "type": "function"
    },
    {
      "inputs": [
        {
          "internalType": "address",
          "name": "user",
          "type": "address"
        }
      ],
      "name": "hasAutoCompound",
      "outputs": [
        {
          "internalType": "bool",
          "name": "",
          "type": "bool"
        }
      ],
      "stateMutability": "view",
      "type": "function"
    },
    {
      "inputs": [
        {
          "internalType": "address",
          "name": "",
          "type": "address"
        }
      ],
      "name": "lastAchievementUnlockTime",
      "outputs": [
        {
          "internalType": "uint256",
          "name": "",
          "type": "uint256"
        }
      ],
      "stateMutability": "view",
      "type": "function"
    },
    {
      "inputs": [],
      "name": "lastAutoCompoundExecution",
      "outputs": [
        {
          "internalType": "uint64",
          "name": "",
          "type": "uint64"
        }
      ],
      "stateMutability": "view",
      "type": "function"
    },
    {
      "inputs": [
        {
          "internalType": "address",
          "name": "",
          "type": "address"
        }
      ],
      "name": "lastQuestCompletionTime",
      "outputs": [
        {
          "internalType": "uint256",
          "name": "",
          "type": "uint256"
        }
      ],
      "stateMutability": "view",
      "type": "function"
    },
    {
      "inputs": [],
      "name": "marketplaceContract",
      "outputs": [
        {
          "internalType": "address",
          "name": "",
          "type": "address"
        }
      ],
      "stateMutability": "view",
      "type": "function"
    },
    {
      "inputs": [],
      "name": "migrated",
      "outputs": [
        {
          "internalType": "bool",
          "name": "",
          "type": "bool"
        }
      ],
      "stateMutability": "view",
      "type": "function"
    },
    {
      "inputs": [],
      "name": "newContractAddress",
      "outputs": [
        {
          "internalType": "address",
          "name": "",
          "type": "address"
        }
      ],
      "stateMutability": "view",
      "type": "function"
    },
    {
      "inputs": [
        {
          "internalType": "uint256",
          "name": "",
          "type": "uint256"
        }
      ],
      "name": "nftRarity",
      "outputs": [
        {
          "internalType": "enum IStakingIntegration.Rarity",
          "name": "",
          "type": "uint8"
        }
      ],
      "stateMutability": "view",
      "type": "function"
    },
    {
      "inputs": [
        {
          "internalType": "uint256",
          "name": "",
          "type": "uint256"
        }
      ],
      "name": "nftSkills",
      "outputs": [
        {
          "internalType": "enum IStakingIntegration.SkillType",
          "name": "skillType",
          "type": "uint8"
        },
        {
          "internalType": "uint16",
          "name": "effectValue",
          "type": "uint16"
        },
        {
          "internalType": "enum IStakingIntegration.Rarity",
          "name": "rarity",
          "type": "uint8"
        },
        {
          "internalType": "uint64",
          "name": "activatedAt",
          "type": "uint64"
        },
        {
          "internalType": "uint64",
          "name": "cooldownEnds",
          "type": "uint64"
        },
        {
          "internalType": "bool",
          "name": "isActive",
          "type": "bool"
        }
      ],
      "stateMutability": "view",
      "type": "function"
    },
    {
      "inputs": [
        {
          "internalType": "address",
          "name": "user",
          "type": "address"
        },
        {
          "internalType": "uint256",
          "name": "achievementId",
          "type": "uint256"
        },
        {
          "internalType": "uint256",
          "name": "rewardAmount",
          "type": "uint256"
        }
      ],
      "name": "notifyAchievementUnlocked",
      "outputs": [],
      "stateMutability": "nonpayable",
      "type": "function"
    },
    {
      "inputs": [
        {
          "internalType": "address",
          "name": "user",
          "type": "address"
        },
        {
          "internalType": "uint256",
          "name": "questId",
          "type": "uint256"
        },
        {
          "internalType": "uint256",
          "name": "rewardAmount",
          "type": "uint256"
        }
      ],
      "name": "notifyQuestCompletion",
      "outputs": [],
      "stateMutability": "nonpayable",
      "type": "function"
    },
    {
      "inputs": [
        {
          "internalType": "address",
          "name": "user",
          "type": "address"
        },
        {
          "internalType": "uint256",
          "name": "nftId",
          "type": "uint256"
        },
        {
          "internalType": "enum IStakingIntegration.SkillType",
          "name": "skillType",
          "type": "uint8"
        },
        {
          "internalType": "uint16",
          "name": "effectValue",
          "type": "uint16"
        }
      ],
      "name": "notifySkillActivation",
      "outputs": [],
      "stateMutability": "nonpayable",
      "type": "function"
    },
    {
      "inputs": [
        {
          "internalType": "address",
          "name": "user",
          "type": "address"
        },
        {
          "internalType": "uint256",
          "name": "nftId",
          "type": "uint256"
        }
      ],
      "name": "notifySkillDeactivation",
      "outputs": [],
      "stateMutability": "nonpayable",
      "type": "function"
    },
    {
      "inputs": [
        {
          "internalType": "address",
          "name": "user",
          "type": "address"
        },
        {
          "internalType": "uint256",
          "name": "oldSkillId1",
          "type": "uint256"
        },
        {
          "internalType": "uint256",
          "name": "oldSkillId2",
          "type": "uint256"
        },
        {
          "internalType": "uint256",
          "name": "newSkillId",
          "type": "uint256"
        },
        {
          "internalType": "enum IStakingIntegration.Rarity",
          "name": "newRarity",
          "type": "uint8"
        }
      ],
      "name": "notifySkillUpgrade",
      "outputs": [],
      "stateMutability": "nonpayable",
      "type": "function"
    },
    {
      "inputs": [],
      "name": "owner",
      "outputs": [
        {
          "internalType": "address",
          "name": "",
          "type": "address"
        }
      ],
      "stateMutability": "view",
      "type": "function"
    },
    {
      "inputs": [],
      "name": "pause",
      "outputs": [],
      "stateMutability": "nonpayable",
      "type": "function"
    },
    {
      "inputs": [],
      "name": "paused",
      "outputs": [
        {
          "internalType": "bool",
          "name": "",
          "type": "bool"
        }
      ],
      "stateMutability": "view",
      "type": "function"
    },
    {
      "inputs": [
        {
          "internalType": "bytes",
          "name": "performData",
          "type": "bytes"
        }
      ],
      "name": "performAutoCompound",
      "outputs": [],
      "stateMutability": "nonpayable",
      "type": "function"
    },
    {
      "inputs": [],
      "name": "questRewardExpirationTime",
      "outputs": [
        {
          "internalType": "uint256",
          "name": "",
          "type": "uint256"
        }
      ],
      "stateMutability": "view",
      "type": "function"
    },
    {
      "inputs": [],
      "name": "renounceOwnership",
      "outputs": [],
      "stateMutability": "nonpayable",
      "type": "function"
    },
    {
      "inputs": [
        {
          "internalType": "address",
          "name": "_marketplace",
          "type": "address"
        }
      ],
      "name": "setMarketplaceAddress",
      "outputs": [],
      "stateMutability": "nonpayable",
      "type": "function"
    },
    {
      "inputs": [
        {
          "internalType": "enum IStakingIntegration.SkillType",
          "name": "skillType",
          "type": "uint8"
        },
        {
          "internalType": "bool",
          "name": "enabled",
          "type": "bool"
        }
      ],
      "name": "setSkillEnabled",
      "outputs": [],
      "stateMutability": "nonpayable",
      "type": "function"
    },
    {
      "inputs": [
        {
          "internalType": "uint256",
          "name": "nftId",
          "type": "uint256"
        },
        {
          "internalType": "enum IStakingIntegration.Rarity",
          "name": "rarity",
          "type": "uint8"
        }
      ],
      "name": "setSkillRarity",
      "outputs": [],
      "stateMutability": "nonpayable",
      "type": "function"
    },
    {
      "inputs": [
        {
          "internalType": "address",
          "name": "",
          "type": "address"
        }
      ],
      "name": "setStakingAddress",
      "outputs": [],
      "stateMutability": "view",
      "type": "function"
    },
    {
      "inputs": [
        {
          "internalType": "enum IStakingIntegration.SkillType",
          "name": "",
          "type": "uint8"
        }
      ],
      "name": "skillDefaultEffects",
      "outputs": [
        {
          "internalType": "uint16",
          "name": "",
          "type": "uint16"
        }
      ],
      "stateMutability": "view",
      "type": "function"
    },
    {
      "inputs": [
        {
          "internalType": "enum IStakingIntegration.SkillType",
          "name": "",
          "type": "uint8"
        }
      ],
      "name": "skillEnabled",
      "outputs": [
        {
          "internalType": "bool",
          "name": "",
          "type": "bool"
        }
      ],
      "stateMutability": "view",
      "type": "function"
    },
    {
      "inputs": [
        {
          "internalType": "address",
          "name": "",
          "type": "address"
        }
      ],
      "name": "totalAchievementRewards",
      "outputs": [
        {
          "internalType": "uint256",
          "name": "",
          "type": "uint256"
        }
      ],
      "stateMutability": "view",
      "type": "function"
    },
    {
      "inputs": [],
      "name": "totalPoolBalance",
      "outputs": [
        {
          "internalType": "uint256",
          "name": "",
          "type": "uint256"
        }
      ],
      "stateMutability": "view",
      "type": "function"
    },
    {
      "inputs": [
        {
          "internalType": "address",
          "name": "",
          "type": "address"
        }
      ],
      "name": "totalQuestRewards",
      "outputs": [
        {
          "internalType": "uint256",
          "name": "",
          "type": "uint256"
        }
      ],
      "stateMutability": "view",
      "type": "function"
    },
    {
      "inputs": [
        {
          "internalType": "address",
          "name": "newOwner",
          "type": "address"
        }
      ],
      "name": "transferOwnership",
      "outputs": [],
      "stateMutability": "nonpayable",
      "type": "function"
    },
    {
      "inputs": [],
      "name": "treasury",
      "outputs": [
        {
          "internalType": "address",
          "name": "",
          "type": "address"
        }
      ],
      "stateMutability": "view",
      "type": "function"
    },
    {
      "inputs": [],
      "name": "uniqueUsersCount",
      "outputs": [
        {
          "internalType": "uint256",
          "name": "",
          "type": "uint256"
        }
      ],
      "stateMutability": "view",
      "type": "function"
    },
    {
      "inputs": [],
      "name": "unpause",
      "outputs": [],
      "stateMutability": "nonpayable",
      "type": "function"
    },
    {
      "inputs": [
        {
          "internalType": "enum IStakingIntegration.SkillType",
          "name": "skillType",
          "type": "uint8"
        },
        {
          "internalType": "uint16",
          "name": "newEffectValue",
          "type": "uint16"
        }
      ],
      "name": "updateSkillEffect",
      "outputs": [],
      "stateMutability": "nonpayable",
      "type": "function"
    },
    {
      "inputs": [
        {
          "internalType": "address",
          "name": "user",
          "type": "address"
        },
        {
          "internalType": "uint256",
          "name": "xpGained",
          "type": "uint256"
        }
      ],
      "name": "updateUserXP",
      "outputs": [],
      "stateMutability": "nonpayable",
      "type": "function"
    },
    {
      "inputs": [
        {
          "internalType": "address",
          "name": "",
          "type": "address"
        },
        {
          "internalType": "uint256",
          "name": "",
          "type": "uint256"
        }
      ],
      "name": "userAchievementRewards",
      "outputs": [
        {
          "internalType": "uint256",
          "name": "",
          "type": "uint256"
        }
      ],
      "stateMutability": "view",
      "type": "function"
    },
    {
      "inputs": [
        {
          "internalType": "address",
          "name": "",
          "type": "address"
        },
        {
          "internalType": "uint256",
          "name": "",
          "type": "uint256"
        }
      ],
      "name": "userQuestRewards",
      "outputs": [
        {
          "internalType": "uint256",
          "name": "",
          "type": "uint256"
        }
      ],
      "stateMutability": "view",
      "type": "function"
    },
    {
      "inputs": [
        {
          "internalType": "address",
          "name": "",
          "type": "address"
        }
      ],
      "name": "userSkillProfiles",
      "outputs": [
        {
          "internalType": "uint256",
          "name": "totalXP",
          "type": "uint256"
        },
        {
          "internalType": "uint8",
          "name": "level",
          "type": "uint8"
        },
        {
          "internalType": "uint8",
          "name": "maxActiveSkills",
          "type": "uint8"
        },
        {
          "internalType": "uint16",
          "name": "stakingBoostTotal",
          "type": "uint16"
        },
        {
          "internalType": "uint16",
          "name": "feeDiscountTotal",
          "type": "uint16"
        },
        {
          "internalType": "bool",
          "name": "hasAutoCompound",
          "type": "bool"
        }
      ],
      "stateMutability": "view",
      "type": "function"
    },
    {
      "inputs": [],
      "name": "withdraw",
      "outputs": [],
      "stateMutability": "nonpayable",
      "type": "function"
    },
    {
      "inputs": [],
      "name": "withdrawAll",
      "outputs": [],
      "stateMutability": "nonpayable",
      "type": "function"
    },
    {
      "inputs": [],
      "name": "withdrawBoosted",
      "outputs": [],
      "stateMutability": "nonpayable",
      "type": "function"
    }
  ],
  "bytecode": "0x60806040523461002a576100196100146100bf565b6101c9565b60405161597a6104b6823961597a90f35b5f80fd5b634e487b7160e01b5f52604160045260245ffd5b90601f01601f191681019081106001600160401b0382111761006357604052565b61002e565b9061007c61007560405190565b9283610042565b565b6001600160a01b031690565b90565b6001600160a01b0381160361002a57565b9050519061007c8261008d565b9060208282031261002a5761008a9161009e565b61008a615e30803803806100d281610068565b9283398101906100ab565b905f19905b9181191691161790565b61008a61008a61008a9290565b9061010961008a610110926100ec565b82546100dd565b9055565b61007e61008a61008a9290565b61008a90610114565b906001600160a01b03906100e2565b61008a9061007e906001600160a01b031682565b61008a90610139565b61008a9061014d565b9061016f61008a61011092610156565b825461012a565b61018361008a61008a9290565b6001600160401b031690565b906001600160401b03906100e2565b61008a90610183906001600160401b031682565b906101c261008a6101109261019e565b825461018f565b6101d161023c565b6101ea62278d006101e38160176100f9565b60186100f9565b6101f661007e5f610121565b6001600160a01b0382161461022b5761021090600261015f565b61021861035b565b61007c61022442610176565b60116101b2565b63e6c4247b60e01b5f908152600490fd5b61007c61024e565b61008a60016100ec565b61025661028e565b61007c610261610244565b60016100f9565b9060ff60a01b9060a01b6100e2565b9061028761008a61011092151590565b8254610268565b6102966102a0565b61007c5f80610277565b61007c33610461565b634e487b7160e01b5f52602160045260245ffd5b601311156102c757565b6102a9565b9061007c826102bd565b61008a906102cc565b906102e9906102d6565b5f5260205260405f2090565b9060ff906100e2565b9061030e61008a61011092151590565b82546102f5565b61032261008a61008a9290565b61ffff1690565b9061ffff906100e2565b61032261008a61008a9261ffff1690565b9061035461008a61011092610333565b8254610329565b61007c60016103ce816103796007600d61037e8461037981846102df565b6102fe565b61038d846103796002846102df565b61039c846103796003846102df565b6103ab846103796004846102df565b6103ba846103796005846102df565b6103c9846103796006846102df565b6102df565b6103ed6103dc6101f4610315565b6103e8600e93846102df565b610344565b61042e6103fb6103e8610315565b61040a816103e86002866102df565b6104236104186107d0610315565b6103e86003866102df565b6103e86006846102df565b6103e8600561043e6109c4610315565b926103c9846103e86007846102df565b61008a9061007e565b61008a905461044e565b61048561047f6104705f610457565b61047a845f61015f565b610156565b91610156565b907f8be0079c531659141344cd1fd0a4f28419497f9722a3daafe3b4186f6b6457e06104b060405190565b5f90a356fe60806040526004361015610011575f80fd5b5f3560e01c806301d9b84214610440578063116e1e3e1461043b57806311bd459f146104365780631376583814610431578063161ba7811461042c57806316e1a0fe1461042757806318f2f402146104225780631e26d5891461041d5780632a5bf6d2146104185780632c678c64146104135780632f1df4761461040e578063313a1954146104095780633b457e4b146104045780633bab7a89146103ff5780633ccfd60b146103fa5780633f4ba83a146103f55780633fd51fbf146103f05780634301d9aa146103eb57806349be75bb146103e65780634b1d06d7146103e15780635026d63e146103dc57806354fd1461146103d75780635b0df80a146103d25780635c975abb146103cd5780635efc27d6146103c857806361d027b3146103c3578063635e0c4d146103be5780636386c1c7146103b957806364ab8675146103b45780636af04a57146103af5780636f9fb98a146103aa578063715018a6146103a55780638456cb59146103a0578063853828b61461039b578063857184d11461039657806387a7b7f614610391578063892578171461038c5780638d79bb50146103875780638da5cb5b14610382578063910418be1461037d578063992976aa146103785780639f99dc4114610373578063a13c196d1461036e578063a646c1ce14610369578063a6f353f014610364578063ae03126a1461035f578063b2e89a961461035a578063b415ff7a14610355578063b47cc55614610350578063b6e18cfe1461034b578063b907deee14610346578063bece23ba14610341578063bf37bb6a1461033c578063c3f78e3a14610337578063c9f8234f14610332578063cb836fb11461032d578063ce4098be14610328578063d1bb5cf114610323578063d1cc7bb21461031e578063e7e7540014610319578063e8ac834514610314578063eb97e4eb1461030f578063f154a5491461030a578063f2fde38b14610305578063f4e0d9ac14610300578063f69e2046146102fb5763fef802e703610445576119e4565b6118bb565b6118a6565b61188e565b611873565b611833565b6116f5565b6116ce565b6116a6565b61168b565b611665565b61163f565b611619565b6115de565b61158b565b6114b7565b61149c565b611480565b611423565b611408565b6113ed565b6113c2565b611397565b61137c565b611340565b611316565b6112ec565b6112a1565b611232565b611219565b611200565b6111c9565b611168565b611150565b611138565b611120565b611105565b6110ea565b6110c3565b611092565b61102d565b610fd5565b610f99565b610f7e565b610f65565b610ef2565b610ec8565b610e96565b610e26565b610df7565b610dde565b610d9d565b610d85565b610d6a565b610d4e565b610ccd565b610c61565b610be5565b610b9b565b610add565b610a76565b610a1c565b6109ab565b6108d3565b610875565b610796565b6105b8565b5f80fd5b5f91031261044557565b634e487b7160e01b5f52602160045260245ffd5b6013111561047157565b610453565b9061048082610467565b565b61048b90610476565b90565b61049790610482565b9052565b906104a88160209361048e565b0190565b906104cc6104c56104bb845190565b8084529260200190565b9260200190565b905f5b8181106104dc5750505090565b9091926104f66104ef600192865161049b565b9460200190565b9291016104cf565b9061050d6104c56104bb845190565b905f5b81811061051d5750505090565b9091926105376104ef600192865161ffff16815260200190565b929101610510565b9061054e6104c56104bb845190565b905f5b81811061055e5750505090565b9091926105766104ef60019286511515815260200190565b929101610551565b916105aa9061059c61048b959360608601908682035f8801526104ac565b9084820360208601526104fe565b91604081840391015261053f565b34610445576105c8366004610449565b6105e26105d3611b16565b6040519193919384938461057e565b0390f35b805b0361044557565b90503590610480826105e6565b906020828203126104455761048b916105ef565b61048b61048b61048b9290565b9061062790610610565b5f5260205260405f2090565b61048b905b60ff1690565b61048b9054610633565b61048b9060081c5b61ffff1690565b61048b9054610648565b61048b9060181c610638565b61048b9054610661565b61048b9060201c5b6001600160401b031690565b61048b9054610677565b61048b9060601c61067f565b61048b9054610695565b61048b9060a01c610638565b61048b90546106ab565b6106cc90600c61061d565b906106d68261063e565b916106e081610657565b916106ea8261066d565b916106f48161068b565b9161048b5f610702846106a1565b93016106b7565b6005111561047157565b9061048082610709565b61048b90610713565b6104979061071d565b919461077e61078e9298979561076e60a0966107646104809a61075960c08a019e5f8b019061048e565b61ffff166020890152565b6040870190610726565b6001600160401b03166060850152565b6001600160401b03166080830152565b019015159052565b34610445576105e26107b16107ac3660046105fc565b6106c1565b926107c196949692919260405190565b9687968761072f565b6001600160a01b031690565b6001600160a01b0381166105e8565b90503590610480826107d6565b906020828203126104455761048b916107e5565b5f5b8381106108175750505f910152565b8181015183820152602001610808565b6108486108516020936104a89361083c815190565b80835293849260200190565b95869101610806565b601f01601f191690565b901515815260406020820181905261048b92910190610827565b346104455761088d6108883660046107f2565b611d17565b906105e261089a60405190565b9283928361085b565b6001600160401b0381166105e8565b90503590610480826108a3565b906020828203126104455761048b916108b2565b6108e66108e13660046108bf565b612473565b604051005b9060a080610480936109035f8201515f86019061048e565b60208181015161ffff169085015261092360408201516040860190610726565b6060818101516001600160401b0316908501526080818101516001600160401b0316908501525b01511515910152565b906104a88160c0936108eb565b9061096f6104c56104bb845190565b905f5b81811061097f5750505090565b9091926109926104ef6001928651610953565b929101610972565b602080825261048b92910190610960565b34610445576105e26109c66109c13660046107f2565b6125af565b6040519182918261099a565b90815261010081019897969095909490939092909160208701526040860152606085015261ffff166080840152151560a083015260ff1660c082015260e0016104809160ff169052565b34610445576105e2610a37610a323660046107f2565b612681565b94610a4a98969894919493929360405190565b988998896109d2565b91906040838203126104455761048b906020610a6f82866107e5565b94016105ef565b34610445576105e2610a92610a8c366004610a53565b90612712565b6040515b9182918290815260200190565b6005111561044557565b9050359061048082610aa3565b91906040838203126104455761048b906020610ad682866105ef565b9401610aad565b34610445576108e6610af0366004610aba565b9061286d565b80516001600160801b03168252610480919060609081906020818101516001600160401b0316908501526040818101516001600160401b03169085015201516001600160401b0316910152565b906104a881608093610af6565b90610b5f6104c56104bb845190565b905f5b818110610b6f5750505090565b909192610b826104ef6001928651610b43565b929101610b62565b602080825261048b92910190610b50565b34610445576105e2610bb6610bb13660046107f2565b61295a565b60405191829182610b8a565b61048b916008021c610638565b9061048b9154610bc2565b61048b5f6005610bcf565b3461044557610bf5366004610449565b6105e2610c00610bda565b60405191829182901515815260200190565b6013111561044557565b9050359061048082610c12565b8015156105e8565b9050359061048082610c29565b91906040838203126104455761048b906020610c5a8286610c1c565b9401610c31565b34610445576108e6610c74366004610c3e565b906129ae565b61ffff81166105e8565b9050359061048082610c7a565b60808183031261044557610ca582826107e5565b9261048b610cb684602085016105ef565b936060610cc68260408701610c1c565b9401610c84565b34610445576108e6610ce0366004610c91565b92919091612cd2565b6107ca61048b61048b926001600160a01b031690565b61048b90610ce9565b61048b90610cff565b9061062790610d08565b61048b916008021c81565b9061048b9154610d1b565b610d4961048b92610d445f936013610d11565b61061d565b610d26565b34610445576105e2610a92610d64366004610a53565b90610d31565b34610445576105e2610a92610d803660046107f2565b612cde565b3461044557610d95366004610449565b6108e6613041565b3461044557610dad366004610449565b6108e661305c565b90916060828403126104455761048b610dce84846107e5565b936040610a6f82602087016105ef565b34610445576108e6610df1366004610db5565b91613120565b6108e6610e053660046108bf565b6131c2565b91906040838203126104455761048b906020610cc68286610c1c565b34610445576108e6610e39366004610e0a565b90613238565b90610e4e6104c56104bb845190565b905f5b818110610e5e5750505090565b909192610e7d6104ef60019286516001600160a01b0316815260200190565b929101610e51565b602080825261048b92910190610e3f565b3461044557610ea6366004610449565b6105e2610eb16132d4565b60405191829182610e85565b61048b5f6003610d26565b3461044557610ed8366004610449565b6105e2610a92610ebd565b5f610d4961048b92601a610d11565b34610445576105e2610a92610f083660046107f2565b610ee3565b909182601f83011215610445578135916001600160401b03831161044557602001926001830284011161044557565b906020828203126104455781356001600160401b03811161044557610f619201610f0d565b9091565b34610445576108e6610f78366004610f3c565b906132de565b3461044557610f8e366004610449565b6105e2610c0061344f565b34610445576108e6610fac366004610a53565b906135e1565b61048b916008021c6107ca565b9061048b9154610fb2565b61048b5f6002610fbf565b3461044557610fe5366004610449565b6105e2610ff0610fca565b604051918291826001600160a01b03909116815260200190565b61048b916008021c61067f565b9061048b915461100a565b61048b5f6011611017565b346104455761103d366004610449565b6105e2611048611022565b604051918291826001600160401b03909116815260200190565b61108e61048094611087606094989795611080608086019a5f870152565b6020850152565b6040830152565b0152565b34610445576105e26110ad6110a83660046107f2565b6135eb565b906110ba94929460405190565b94859485611062565b34610445576105e2610a926110d93660046107f2565b6136a1565b61048b60016005610fbf565b34610445576110fa366004610449565b6105e2610ff06110de565b3461044557611115366004610449565b6105e2610a926138f9565b3461044557611130366004610449565b6108e661393d565b3461044557611148366004610449565b6108e6613958565b3461044557611160366004610449565b6108e6613cb8565b34610445576105e2610a9261117e3660046107f2565b613cc0565b908152610100810198979690959094909390929091602087015260408601526060850152608084015260ff1660a083015260ff1660c082015260e0016104809115159052565b34610445576105e26111e46111df3660046107f2565b613cd9565b946111f798969894919493929360405190565b98899889611183565b34610445576108e6611213366004610a53565b90613e69565b34610445576108e661122c366004610db5565b91613ee1565b3461044557611242366004610449565b6105e2610ff0613eec565b909182601f83011215610445578135916001600160401b03831161044557602001926020830284011161044557565b906020828203126104455781356001600160401b03811161044557610f61920161124d565b34610445576108e66112b436600461127c565b90614065565b906020828203126104455761048b91610c1c565b9061062790610482565b5f6112e761048b92600d6112ce565b610bcf565b34610445576105e2610c006113023660046112ba565b6112d8565b5f610d4961048b926015610d11565b34610445576105e2610a9261132c3660046107f2565b611307565b5f610d4961048b926019610d11565b34610445576105e2610a926113563660046107f2565b611331565b61067f61048b61048b9290565b61048b6201518061135b565b61048b611368565b346104455761138c366004610449565b6105e2611048611374565b34610445576108e66113aa3660046107f2565b614129565b610d4961048b92610d445f936014610d11565b34610445576105e2610a926113d8366004610a53565b906113af565b5f610d4961048b926016610d11565b34610445576105e2610a926114033660046107f2565b6113de565b34610445576105e2610c0061141e3660046107f2565b614132565b34610445576108e66114363660046107f2565b61417c565b919060a0838203126104455761145181846107e5565b9261145f82602083016105ef565b9261048b61147084604085016105ef565b936080610ad682606087016105ef565b34610445576108e661149336600461143b565b939290926142db565b34610445576105e2610a926114b23660046107f2565b6142e8565b34610445576105e2610a926114cd366004610a53565b9061448b565b906114e26104c56104bb845190565b905f5b8181106114f25750505090565b9091926115086104ef6001928651815260200190565b9291016114e5565b9061048b9060c08061152f60e084015f8701518582035f8701526114d3565b9461153f60208201516020860152565b60408181015160ff169085015260608181015160ff169085015260808181015161ffff169085015260a08181015161ffff169085015261094a565b602080825261048b92910190611510565b34610445576105e26115a66115a13660046107f2565b614613565b6040519182918261157a565b61048b916008021c610650565b9061048b91546115b2565b5f6115d961048b92600e6112ce565b6115bf565b34610445576105e26115f96115f43660046112ba565b6115ca565b6040519182918261ffff909116815260200190565b61048b5f6004610d26565b3461044557611629366004610449565b6105e2610a9261160e565b61048b5f6017610d26565b346104455761164f366004610449565b6105e2610a92611634565b61048b5f6018610d26565b3461044557611675366004610449565b6105e2610a9261165a565b61048b5f6009610fbf565b346104455761169b366004610449565b6105e2610ff0611680565b34610445576116b6366004610449565b6108e661487c565b6020810192916104809190610726565b34610445576105e26116e96116e43660046105fc565b614884565b604051918291826116be565b34610445576105e2610a9261170b366004610a53565b9061489a565b906117206104c56104bb845190565b905f5b8181106117305750505090565b9091926117466104ef6001928651815260200190565b929101611723565b906104a881602093610726565b9061176a6104c56104bb845190565b905f5b81811061177a5750505090565b90919261178d6104ef600192865161174e565b92910161176d565b906117a46104c56104bb845190565b905f5b8181106117b45750505090565b9091926117cd6104ef600192865160ff16815260200190565b9291016117a7565b939061048b9593611809611825946117fb6118179460a08a01908a82035f8c0152611711565b9088820360208a01526104ac565b90868203604088015261175b565b9084820360608601526104fe565b916080818403910152611795565b34610445576105e261184e6118493660046107f2565b6148e8565b9161185b95939560405190565b958695866117d5565b5f6112e761048b92601261061d565b34610445576105e26116e96118893660046105fc565b611864565b34610445576108e66118a13660046107f2565b614a88565b34610445576118b63660046107f2565b614acf565b34610445576118cb366004610449565b6108e6614bdc565b61048b9081565b61048b90546118d3565b61048b9060081c610638565b61048b90546118e4565b61048b9060101c610650565b61048b90546118fa565b61048b9060201c610650565b61048b9054611910565b61048b9060301c610638565b61048b9054611926565b61194790600b610d11565b90611954600183016118da565b916119616002820161063e565b9161196e600283016118f0565b9161197b60028201611906565b9161048b600261198c81850161191c565b9301611932565b91946119d961078e929897956119ce60a0966119c46104809a6119ba60c08a019e5f8b0152565b60ff166020890152565b60ff166040870152565b61ffff166060850152565b61ffff166080830152565b34610445576105e26119ff6119fa3660046107f2565b61193c565b92611a0f96949692919260405190565b96879687611993565b634e487b7160e01b5f52604160045260245ffd5b90601f01601f191681019081106001600160401b03821117611a4d57604052565b611a18565b90610480611a5f60405190565b9283611a2c565b6001600160401b038111611a4d5760208091020190565b90611a8f611a8a83611a66565b611a52565b918252565b369037565b90610480611aaf611aa984611a7d565b93611a66565b601f190160208401611a94565b634e487b7160e01b5f52603260045260245ffd5b90611ad9825190565b811015611aea576020809102010190565b611abc565b9061049790610476565b61048b9051610476565b61048b90610650565b61048b9054611b03565b600790611b2282610610565b90611b2c82611a99565b611b3583611a99565b93611b3f84611a99565b93611bcf600192611b626001611b5d611b575f610610565b88611ad0565b611aef565b611b746002611b5d611b576001610610565b611b866003611b5d611b576002610610565b611b986004611b5d611b576003610610565b611baa6005611b5d611b576004610610565b611bbc6006611b5d611b576005610610565b611b5d611bc96006610610565b86611ad0565b81611bd95f610610565b905b611be8575b505050929190565b81811015611c6957611c6390611c2f611c1c611c17600e611c11611c0c868b611ad0565b611af9565b906112ce565b611b0c565b611c26838b611ad0565b9061ffff169052565b611c5d611c4c611c47600d611c11611c0c868b611ad0565b61063e565b611c56838a611ad0565b9015159052565b60010190565b82611bdb565b611be0565b6001600160401b038111611a4d57602090601f01601f19160190565b90611a8f611a8a83611c6e565b61048b5f611c8a565b61048b611c97565b61048b9061067f565b61048b9054611ca8565b634e487b7160e01b5f52601160045260245ffd5b611cea906001600160401b03165b916001600160401b031690565b01906001600160401b038211611cfc57565b611cbb565b61048b61048b61048b926001600160401b031690565b5f91606091611d39611d356002611d2f84600b610d11565b01611932565b1590565b611dca57611d4681612cde565b611d5d611d59662386f26fc10000610610565b9190565b101580611d9e575b611d6c5750565b9250905060019161048b611d7f60405190565b6001600160a01b03929092166020808401919091528252604082611a2c565b50611dc2611dbd611daf6011611cb1565b611db7611368565b90611ccf565b611d01565b421015611d65565b509150505f9061048b611ca0565b611de990611de4614c3a565b611df1565b610480614c6c565b61048090611dfd614cb6565b611e07600561063e565b611e145761048090611e5e565b63f2bcabb960e01b5f90815260045b035ffd5b61048b678ac7230489e80000610610565b9081526040810192916104809160200152565b61048b69021e19e0c9bab2400000610610565b611e66611e27565b803410611ea05750611e76611e4b565b803411611e87575061048090612209565b6330250a5b60e11b5f90815290611e2390346004611e38565b63ea691a4b60e01b5f90815290611e2390346004611e38565b61065061048b61048b9290565b61049790611eb9565b6001600160a01b0390911681526040810192916104809160200190611ec6565b61048b610258611eb9565b61048b61048b61048b9261ffff1690565b9190611f16565b9290565b91808302928184041490151715611cfc57565b61048b612710610610565b634e487b7160e01b5f52601260045260245ffd5b905b908115611f55570490565b611f34565b91908203918211611cfc57565b905f19905b9181191691161790565b90611f8661048b611f8d92610610565b8254611f67565b9055565b91908201809211611cfc57565b611fab61048b61048b9290565b6001600160801b031690565b61048b90611fab565b61048b9054611fb7565b611fe5906001600160801b03165b916001600160801b031690565b01906001600160801b038211611cfc57565b906001600160801b0390611f6c565b611fab61048b61048b926001600160801b031690565b9061202c61048b611f8d92612006565b8254611ff7565b612045906001600160401b0316611cdd565b02906001600160401b038216918203611cfc57565b61048b6080611a52565b8054821015611aea5761207c6002915f5260205f2090565b910201905f90565b634e487b7160e01b5f525f60045260245ffd5b9067ffffffffffffffff60801b9060801b611f6c565b61067f61048b61048b926001600160401b031690565b906120d361048b611f8d926120ad565b8254612097565b9077ffffffffffffffffffffffffffffffffffffffffffffffff199060c01b611f6c565b9061210e61048b611f8d926120ad565b82546120da565b906001600160401b0390611f6c565b9061213461048b611f8d926120ad565b8254612115565b610480916001906121a6906060906121988561216761216184516001600160801b031690565b8261201c565b61218461217e60208501516001600160401b031690565b826120c3565b60408301516001600160401b0316906120fe565b01516001600160401b031690565b9101612124565b91906121bc576104809161213b565b612084565b90815491600160401b831015611a4d57826121e491600161048095018155612064565b906121ad565b61049790611d01565b90815260408101929161048091602001906121ea565b6122125f61135b565b6001600160401b038216141580612457575b8061243b575b8061241f575b80612402575b6123f15761224861048b336006610d11565b8054909190829061012c9061225f611d5983610610565b10156123d85750906123987f73a19dd210f1a7f902193214c0ee91dd35ee5b4d920cba8d519eca65a7b488ca926123936122b96122ab6122a56122a0611eef565b611efa565b34611f0b565b6122b3611f29565b90611f48565b916122c48334611f5a565b966122cd815490565b6122d9611d595f610610565b146123bc575b6122fc6122f5896122f060036118da565b611f91565b6003611f76565b612324600161230a8a611f9e565b930161231e8461231983611fc0565b611fca565b9061201c565b61238e6123304261135b565b9161237e61234c611f126123466201518061135b565b8b612033565b9361236761235861205a565b6001600160801b039097168752565b6001600160401b0316602086018190526040860152565b6001600160401b03166060840152565b6121c1565b614ce7565b6123a133610d08565b926123b76123ae60405190565b928392836121f3565b0390a2565b6123d36123cc611c5d60046118da565b6004611f76565b6122df565b63756a320d60e11b5f90815290611e2390336004611ecf565b631ab8aa1760e21b5f908152600490fd5b5061240e61016d61135b565b6001600160401b0382161415612236565b5061242a60b461135b565b6001600160401b0382161415612230565b50612446605a61135b565b6001600160401b038216141561222a565b50612462601e61135b565b6001600160401b0382161415612224565b61048090611dd8565b61048b60c0611a52565b61248e61247c565b905f82526020808080808087015f5b8152015f8152015f8152015f8152015f905250565b61048b612486565b5f5b8281106124c857505050565b6020906124d36124b2565b81840152016124bc565b906104806124ed611aa984611a7d565b601f1901602084016124ba565b9061049790610713565b9061048061259d5f61251461247c565b9461252b61252383830161063e565b838801611aef565b612544612539838301610657565b61ffff166020880152565b61255b61255283830161066d565b604088016124fa565b61257961256983830161068b565b6001600160401b03166060880152565b6125976125878383016106a1565b6001600160401b03166080880152565b016106b7565b151560a0840152565b61048b90612504565b6125c961048b6125ce926125c1606090565b50600a610d11565b614d52565b6125de6125d9825190565b6124dd565b906125e85f610610565b6125f361048b835190565b8110156126435761263e9061262261261d600c6126176126138588611ad0565b5190565b9061061d565b6125a6565b61262c8286611ad0565b526126378185611ad0565b5060010190565b6125e8565b505090565b61048b61048b61048b926001600160801b031690565b61048b9060801c61067f565b61048b905461265e565b61063861048b61048b9290565b61268f61048b826006610d11565b600161269f61048b84600b610d11565b9101906126b36126ae83611fc0565b612648565b936126bd846136a1565b9360026126d5611dbd6126cf84612cde565b9661266a565b9301906126e182611906565b9261048b61270d61270861048b6127006126fa88611932565b9761063e565b95600a610d11565b614d63565b612674565b6125c961048b612723926125c15f90565b9061272d5f610610565b61273861048b845190565b81101561279f5761275b5f612755600c6126176126138689611ad0565b0161063e565b61276e6127686005610476565b91610476565b1461277b5760010161272d565b5061048b91506127959061278f604b610610565b90611f0b565b6122b36064610610565b50905090565b61048b906107ca565b61048b90546127a5565b906127c66107ca60096127ae565b33036127d5576104809161282c565b632b35006d60e21b5f908152600490fd5b9060ff90611f6c565b906127ff61048b611f8d9261071d565b82546127e6565b9063ff0000009060181b611f6c565b9061282561048b611f8d9261071d565b8254612806565b906128418161283c84601261061d565b6127ef565b6128505f61259784600c61061d565b612858575050565b5f61286761048093600c61061d565b01612815565b90610480916127b8565b61048b9060c01c61067f565b61048b9054612877565b9061048061237e600161289e61205a565b946128b86128ab82611fc0565b6001600160801b03168752565b6128d46128c48261266a565b6001600160401b03166020880152565b6128f06128e082612883565b6001600160401b03166040880152565b01611cb1565b61048b9061288d565b90612908825490565b61291181611a7d565b9261292360208501915f5260205f2090565b5f915b8383106129335750505050565b60026020600192612943856128f6565b815201920192019190612926565b61048b906128ff565b5f61297261048b9261296a606090565b506006610d11565b01612951565b9061048091612985614dcc565b61299a565b906127ff61048b611f8d92151590565b906129a961048092600d6112ce565b61298a565b9061048091612978565b9291906129c86107ca60096127ae565b33036127d55761048093612b76565b906127ff61048b611f8d92610482565b9062ffff009060081b611f6c565b61065061048b61048b9261ffff1690565b90612a1661048b611f8d926129f5565b82546129e7565b61048b9051610713565b906bffffffffffffffff000000009060201b611f6c565b90612a4e61048b611f8d926120ad565b8254612a27565b9073ffffffffffffffff0000000000000000000000009060601b611f6c565b90612a8461048b611f8d926120ad565b8254612a55565b9060ff60a01b9060a01b611f6c565b90612aaa61048b611f8d92151590565b8254612a8b565b61048091612b3c9060a090612ace612ac882611af9565b856129d7565b612ae6612ae0602083015161ffff1690565b85612a06565b612afb612af560408301612a1d565b85612815565b612b18612b1260608301516001600160401b031690565b85612a3e565b612b35612b2f60808301516001600160401b031690565b85612a74565b0151151590565b90612a9a565b9061048091612ab1565b61049790612674565b916020610480929493612b6f60408201965f83019061048e565b0190612b4c565b909192612b8a611d35611c4786600d6112ce565b612cc157612ba583612ba061048b85600a610d11565b614df6565b612cb057612c87612c817f9bff5e2430318e7e3bdbef4e9e3208dcd561912d43b73a29dd7634b06da71f8393612c6460018095612c458a612c21612be84261135b565b612bfa612bf361247c565b9384611aef565b61ffff85166020840152612c115f604085016124fa565b6001600160401b03166060830152565b612c2d61077e5f61135b565b83151560a0820152612c408b600c61061d565b612b42565b612c5c89612c5761048b87600a610d11565b614e16565b508984614f4c565b612c6e6004610476565b612c7788610476565b14612ca257610d08565b93610610565b93612c9d612c9460405190565b92839283612b55565b0390a3565b612cab816151fa565b610d08565b6317fc7f7160e31b5f908152600490fd5b63372d865360e21b5f908152600490fd5b906104809392916129b8565b612ce7816136a1565b90612cf15f610610565b8214612d5c57612d0761048b600292600b610d11565b01612d1181611906565b612d25612d1d5f611eb9565b9161ffff1690565b1115612d585790612d52612d47612d416122a061048b95611906565b83611f0b565b6122b3612710610610565b90611f91565b5090565b505061048b5f610610565b612d6f614c3a565b611de9612d7a614cb6565b610480612d87600561063e565b611e1457610480612db1565b61048b62015180610610565b61048b683635c9adc5dea00000610610565b612dbf61048b336006610d11565b612dc7612d93565b612dd18142611f48565b612dea611d5961048b612de5336008610d11565b6118da565b11612ffc575b50612dfa336136a1565b90612e045f610610565b8214612feb576007612e1d836122f0612de53385610d11565b612e25612d9f565b908110612fb95750612e3b612e4e913390610d11565b612e48846122f0836118da565b90611f76565b5f92835b82548390821015612ed057612d5882612e6a92612064565b60018101612e7781611cb1565b612e83611cdd5f61135b565b119182612eaa575b5050612e9957600101612e52565b633b20f1c360e21b5f908152600490fd5b612ec7925090611db7612ec15f611dbd940161266a565b91611cb1565b42105f80612e8b565b505091929092612ef7612ef06122ab612eea6122a0611eef565b84611f0b565b8092611f5a565b92612f0130610d08565b31612f12611d5961048b8588611f91565b10612fa857612f204261135b565b925b85548690821015612f4c5790611c5d855f612f4084612f4796612064565b50016120fe565b612f22565b505093612f5f92600161239392016120c3565b612f7181612f6c33610d08565b6152f1565b7f7084f5476618d8e60b11ef0d7d3f06914655adb8793e28ff7f018d4c76d505d56123b7612f9e33610d08565b92610a9660405190565b631e9acf1760e31b5f908152600490fd5b612fd5611e2391612fcf612de55f953390610d11565b90611f5a565b631aefe80360e21b835260048301526024820190565b63afb0be3360e01b5f908152600490fd5b613030611dbd61302b61303b936130256130155f610610565b613020336007610d11565b611f76565b42611f48565b61135b565b613020336008610d11565b5f612df0565b610480612d67565b613051614dcc565b610480610480615374565b610480613049565b91906130736107ca60096127ae565b33036127d5576104809261309f565b90815260608101939261048092909160409161108e906020830152565b906131087f342455cf9ed6bd3095ba56ce918ab26b698fccdb2374c90901c953ce1cc1c0a2926130d88561302085610d44856013610d11565b6130f36130e6826015610d11565b612e48876122f0836118da565b612cab613101826019610d11565b4290611f76565b926123b761311560405190565b928392429184613082565b906104809291613064565b611de990613137614c3a565b61048090613143614cb6565b61314d600561063e565b611e14576104809061315d611e27565b803410611ea0575061316d611e4b565b803411611e875750610480906108e1613186913361538e565b6131966002611d2f33600b610d11565b806131ab575b6131a257565b610480336151fa565b506131bd611d35611c47336010610d11565b61319c565b6104809061312b565b90610480916131d8614dcc565b6131fe565b9061ffff90611f6c565b906131f761048b611f8d926129f5565b82546131dd565b9061320a612710611eb9565b61ffff8216116132275761322261048092600e6112ce565b6131e7565b63af35630960e01b5f908152600490fd5b90610480916131cb565b9061325b6132516104bb845490565b925f5260205f2090565b905f5b81811061326b5750505090565b909192613298613291600192613280876127ae565b6001600160a01b0316815260200190565b9460010190565b92910161325e565b9061048b91613242565b906104806132c4926132bb60405190565b938480926132a0565b0383611a2c565b61048b906132aa565b61048b600f6132cb565b612cab906132ee928101906107f2565b613301611d356002611d2f84600b610d11565b61343e5761330e81612cde565b6133175f610610565b8114612feb5761332b61048b836006610d11565b9261333582611f9e565b9161334a6001860161231e8561231983611fc0565b6133985f6133574261135b565b9601938461337561336661205a565b6001600160801b039093168352565b6001600160401b0388166020830181905260408301525b61238e61237e5f61135b565b6133a15f610610565b6133ac61048b855490565b8110156133cb5780611c5d875f612f406133c69589612064565b6133a1565b50927f8ce0a2fad3764c1fd039c26f784a2d7490f96db7928a834db2330abc1efd2944925061340390612cab6123b793966011612124565b92837f6b10037a13671faab8b41aef8f8189149de5e1b5b514a49814e4938dfbc04cbc61342f60405190565b838152602090a2604051610a96565b63595b4b9760e11b5f908152600490fd5b61048b5f6106b7565b906134666107ca60096127ae565b33036127d557610480916134e0565b61063861048b61048b9260ff1690565b906127ff61048b611f8d92613475565b611f4a9060ff165b9160ff1690565b6134b09060ff1661349d565b019060ff8211611cfc57565b9061ff009060081b611f6c565b906134d961048b611f8d92613475565b82546134bc565b90600261352061270d6135156134fa61048b87600b610d11565b94612de561350f60018801926122f0846118da565b82611f76565b6122b36103e8610610565b910161352e6106388261063e565b60ff83161161353c57505050565b816135687fbeef0cffca661d6b267dd54e822a7589d098d873a6aa1aec940369103d62e7159383613485565b61359661359061358161357b600a612674565b84613495565b61358b6003612674565b6134a4565b836134c9565b6123b76135b46135ae6135a8856118f0565b94611906565b95610d08565b946135be60405190565b9384938460ff91821681529116602082015261ffff909116604082015260600190565b9061048091613458565b906135fa61048b836006610d11565b91600183019161048b61363161362b6136255f61361f61361989611fc0565b976136a1565b98015490565b9561266a565b93612648565b949392611d01565b61364661048b61048b9290565b6001600160e01b031690565b61048b6032610610565b61048b60d2610610565b61048b60aa610610565b61048b608c610610565b61048b6064610610565b61048b9081906001600160e01b031681565b61048b6130d4611eb9565b905f906136b361048b83946006610d11565b8054909190926136c25f610610565b84146138eb575b835b8110156138e5576136df612d588285612064565b8061370b6137066136fb6136f5611dbd85612883565b42611f5a565b6122b3610e10610610565b613639565b906137155f613639565b6001600160e01b0383161161373c575b5050506137356136cb9160010190565b90506136c9565b916136cb93976137ac6137a06138129461373596600161375a613652565b910161376581611cb1565b613774611cdd62278d0061135b565b0361384457505061278f61379a61378961367a565b6137956126ae89611fc0565b611f0b565b91613684565b6122b3620f4240610610565b80926137c86137bd6126ae83611fc0565b61278f6122a0613696565b916137db6137d4611f29565b8094611f48565b90811061383a575b506137f66136f5611dbd6137fb9361266a565b615415565b6138045f610610565b811161381a575b5050611f91565b95915f613725565b839161382d612d52926138329596611f0b565b611f48565b905f8061380b565b93506137f66137e3565b61384d81611cb1565b61385c611cdd6276a70061135b565b0361387657505061278f61379a613871613670565b613789565b61387f81611cb1565b61388e611cdd62ed4e0061135b565b036138a357505061278f61379a613871613666565b6138ac90611cb1565b6138bc611cdd6301e1338061135b565b146138ce575b61379a61278f91613789565b5061278f61379a6138dd61365c565b9150506138c2565b50915050565b509250505061048b5f610610565b61390230610d08565b3190565b61390e614dcc565b61048061392c565b6107ca61048b61048b9290565b61048b90613916565b6104806139385f613923565b615490565b610480613906565b61394d614dcc565b610480610480615514565b610480613945565b613968614c3a565b611de9613973614cb6565b610480613980600561063e565b611e1457610480613ad5565b1561399357565b60405162461bcd60e51b815260206004820152600b60248201526a4e6f206465706f7369747360a81b604482015280606481015b0390fd5b156139d257565b60405162461bcd60e51b815260206004820152601460248201527f496e73756666696369656e742062616c616e63650000000000000000000000006044820152606490fd5b61048b906002611f0b565b905f036121bc575f808255600190910155565b818110613a40575050565b80613a4d5f600293613a22565b01613a35565b919091828210613a6257505050565b613a84613a7a613a7461048095613a17565b93613a17565b915f5260205f2090565b9182019101613a35565b90600160401b8111611a4d5781613aa6610480935490565b90828155613a53565b5f61048091613a8e565b905f036121bc5761048090613aaf565b8015611cfc575f190190565b613ae361048b336006610d11565b6001810191613b06613af484611fc0565b613b00611fd85f611f9e565b1161398c565b613b0f5f610610565b82548390821015613b7657612d5882613b2792612064565b60018101613b3481611cb1565b613b40611cdd5f61135b565b119182613b56575b5050612e9957600101613b0f565b613b6d925090611db7612ec15f611dbd940161266a565b42105f80613b48565b5050919033613b84906136a1565b80613b8e84611fc0565b613b9790612648565b90613ba191611f91565b90613baa611eef565b613bb390611efa565b613bbc91611f0b565b613bc4611f29565b613bcd91611f48565b91613bd88383611f5a565b93613be230610d08565b31613bed8587611f91565b1115613bf8906139cb565b613c015f611f9e565b613c0b908261201c565b613c144261135b565b613c1d916120c3565b613c28905f90613ab9565b613c3260036118da565b90613c3c91611f5a565b613c47906003611f76565b613c5160046118da565b613c5a5f610610565b1090613c6991613ca357614ce7565b613c7681612f6c33610d08565b7fd7a4aa9f3dca5f6606ac15d7e1850920201bbb02c38cd986793779f58ae0dfd36123b7612f9e33610d08565b6123936123cc613cb360046118da565b613ac9565b610480613960565b6126ae6001613cd361048b9361296a5f90565b01611fc0565b613ce761048b826006610d11565b90613d056126ae6001613cfe61048b85600b610d11565b9401611fc0565b92613d0f826136a1565b92613d1983612cde565b92613d28612de5826015610d11565b926002613d39612de5846016610d11565b93019061048b613d5c61270d61270861048b613d548761063e565b97600a610d11565b92611932565b90613d706107ca60096127ae565b33036127d55761048091613d8f565b602081019291610480919061048e565b90613da5611d3582612ba061048b86600a610d11565b613e58577f29f88aa955b5ab5e495c04e7c61c10449ebf20048ae55d19f096a197bc29501b612c9d613e3c612c81613dfb95613e1f5f613de961048b89600c61061d565b613e088280613e018185019d8e61063e565b9d610657565b9301612a9a565b612c5c89613e1a61048b87600a610d11565b61551c565b613e296004610476565b613e3288610476565b14613e4f57610d08565b93613e4660405190565b91829182613d7f565b612cab8161557a565b636379c45760e11b5f908152600490fd5b9061048091613d62565b9190613e826107ca60096127ae565b33036127d55761048092906131087f87a3f62af380980eb2ea2eb2e3677feb226ae9683c4169370f32aef4f46ff9e092613ec58561302085610d44856014610d11565b613ed36130e6826016610d11565b612cab61310182601a610d11565b906104809291613e73565b61048b5f6127ae565b9061048091613f02614dcc565b613f3d565b9190811015611aea576020020190565b3561048b816107d6565b602080825261048b92910190610827565b6040513d5f823e3d90fd5b613f465f610610565b8281101561406057613f716002611d2f600b613f6b613f66868989613f07565b613f17565b90610d11565b613f83575b600101613f46565b613f46565b613f94610d80613f66838686613f07565b613fa7611d59662386f26fc10000610610565b10613f7657613fba613f66828585613f07565b90613fe6613fc760405190565b6001600160a01b03939093166020808501919091528352604083611a2c565b613fef30610d08565b803b15610445576140225f9391849261400760405190565b9586938492839190632d86fc0560e11b835260048301613f21565b03925af191821561405b57613f7e9261403e575b509050613f76565b614055905f61404d8183611a2c565b810190610449565b5f614036565b613f32565b505050565b9061048091613ef5565b6104809061407b614dcc565b6140876107ca5f613923565b6001600160a01b0382161461409f57610480906140d6565b63e6c4247b60e01b5f908152600490fd5b906001600160a01b0390611f6c565b906140cf61048b611f8d92610d08565b82546140b0565b6140f76140f16140e660026127ae565b612cab8460026140bf565b91610d08565b907f4ab5be82436d353e61ca18726e984e561f5c1cc7c6d38b29d2553c790434705a61412260405190565b8080612c9d565b6104809061406f565b6002611d2f61048b926141425f90565b50600b610d11565b61048090614156614dcc565b6141626107ca5f613923565b6001600160a01b0382161461409f576104809060096140bf565b6104809061414a565b939291906141966107ca60096127ae565b33036127d557610480946141bf565b91602061048092949361108e60408201965f830190610726565b907f43bb53177d20242bc821fcb16632e2daaff51a1d3a8a6c6d398aba90247d82c892600c916141f35f612597838661061d565b806142c3575b61429b575b5061420d5f612597838561061d565b80614283575b614255575b50506142298461283c85601261061d565b61423f612c816142396064610610565b92610d08565b93612c9d61424c60405190565b928392836141a5565b61426d5f806142678461427b9661061d565b01612a9a565b613e1a61048b84600a610d11565b505f80614218565b5061429681612ba061048b86600a610d11565b614213565b806142ae5f806142676142bc958861061d565b613e1a61048b86600a610d11565b505f6141fe565b506142d681612ba061048b87600a610d11565b6141f9565b9061048094939291614185565b6142f1816136a1565b6142fa5f610610565b8114612d5c5761431f6125c961048b61431761048b86600b610d11565b94600a610d11565b6143285f610610565b91825b61433661048b845190565b84101561441f57614352611c4760126126176126138888611ad0565b61435c6001610713565b61436582610713565b0361438a575061437d61438491612d526103e8610610565b9360010190565b9261432b565b6143946002610713565b61439d82610713565b036143b5575061437d61438491612d526107d0610610565b6143bf6003610713565b6143c882610713565b036143e0575061437d61438491612d52610fa0610610565b6143f66143f06004969396610713565b91610713565b14614404575b600101614384565b9261441761438491612d52611f40610610565b9390506143fc565b61445f93506144599061443860026122f0949701611906565b93614441815190565b61444d611d595f610610565b111561448057516122b3565b91611efa565b6144685f610610565b811115612d585790612d52612d4761048b9383611f0b565b506122b36001610610565b61449b61048b6002926141425f90565b016144a581611906565b6144b1612d1d5f611eb9565b14612d585790612d52612d47612d416122a061048b95611906565b61048b60e0611a52565b6144de6144cc565b9060608252602080808080808088015f8152015f61249d565b61048b6144d6565b9061450e6132516104bb845490565b905f5b81811061451e5750505090565b90919261453b613291600192614533876118da565b815260200190565b929101614511565b9061048b916144ff565b906104806132c49261455e60405190565b93848092614543565b9061048061460160026145786144cc565b946145896145858261454d565b8752565b61459f614598600183016118da565b6020880152565b6145b76145ad83830161063e565b60ff166040880152565b6145cf6145c58383016118f0565b60ff166060880152565b6145e86145dd838301611906565b61ffff166080880152565b611d2f6145f683830161191c565b61ffff1660a0880152565b151560c0840152565b61048b90614567565b61462261048b916141426144f7565b61460a565b61462f614c3a565b611de961463a614cb6565b610480614647600561063e565b611e1457610480614681565b61049790610610565b61467a61048094611087606094989795611080608086019a5f870152565b0190614653565b61468f61048b336006610d11565b90614698612d93565b6146a28142611f48565b6146b6611d5961048b612de5336008610d11565b1161485d575b506146c633612cde565b916146d05f610610565b8314612feb5760076146e9846122f0612de53385610d11565b6146f1612d9f565b908110612fb95750614707614714913390610d11565b612e48856122f0836118da565b5f92835b8254839082101561477f57612d588261473092612064565b6001810161473d81611cb1565b614749611cdd5f61135b565b11918261475f575b5050612e9957600101614718565b614776925090611db7612ec15f611dbd940161266a565b42105f80614751565b5050919290926147a661479f6122ab6147996122a0611eef565b86611f0b565b8094611f5a565b906147b030610d08565b316147c1611d5961048b8786611f91565b10612fa8576147cf4261135b565b925b855486908210156147f45790611c5d855f612f40846147ef96612064565b6147d1565b5050937f92f2787b755dae547f1701582fe74c7abf277ec14db316dd01abc69cacf7a25992600161482592016120c3565b61482e83614ce7565b61483b81612f6c33610d08565b61484433610d08565b926123b75f61485260405190565b93849342918561465c565b613030611dbd61302b614876936130256130155f610610565b5f6146bc565b610480614627565b611c4761048b916148925f90565b50601261061d565b6148aa61048b6002926141425f90565b016148b48161191c565b6148c0612d1d5f611eb9565b14612d5857612d47612d416122a06148d79361191c565b80821115612d5c5761048b91611f5a565b6125c961048b6148fa926125c1606090565b90614903825190565b9061490d82611a99565b61491683611a99565b61491f84611a99565b61492885611a99565b9561493286611a99565b9461493c5f610610565b878110156149ea5761494e8184611ad0565b5161495a81600c61061d565b61496582601261061d565b61496e9061063e565b91614979848a611ad0565b526149838161063e565b61498d8489611ad0565b9061499791611aef565b816149a28488611ad0565b906149ac916124fa565b6149b590610657565b6149bf838c611ad0565b61ffff90911690526149d090615631565b6149da8289611ad0565b60ff91909116905260010161493c565b509396929550909391929050565b61048090614a04614dcc565b614a64565b15614a1057565b60405162461bcd60e51b815260206004820152602660248201527f4f776e61626c653a206e6577206f776e657220697320746865207a65726f206160448201526564647265737360d01b6064820152608490fd5b61048090613938614a776107ca5f613923565b6001600160a01b0383161415614a09565b610480906149f8565b614a99614dcc565b60405162461bcd60e51b815260206004820152600e60248201526d4e6f74206170706c696361626c6560901b6044820152606490fd5b614a91565b614adc614c3a565b611de9614ae7614cb6565b610480614af4600561063e565b611e1457610480614b0961048b336006610d11565b90614b13336136a1565b90614b1d5f610610565b8214612feb57614b2c82611f9e565b90614b416001850161231e8461231983611fc0565b614b785f614b4e4261135b565b95019283614b5d61336661205a565b6001600160401b03871660208301819052604083015261338c565b614b815f610610565b614b8c61048b845490565b811015614bab5780611c5d865f612f40614ba69588612064565b614b81565b509250507fc16de066392da7e40ceccb739c331fc48a2e76bf147449613c48023d960eec326123b7612f9e33610d08565b610480614ad4565b61048b6002610610565b15614bf557565b60405162461bcd60e51b815260206004820152601f60248201527f5265656e7472616e637947756172643a207265656e7472616e742063616c6c006044820152606490fd5b610480614c4760016118da565b614c5b614c52614be4565b91821415614bee565b6001611f76565b61048b6001610610565b610480614c5b614c62565b15614c7e57565b60405162461bcd60e51b815260206004820152601060248201526f14185d5cd8589b194e881c185d5cd95960821b6044820152606490fd5b610480614cc4611d3561344f565b614c77565b3d15614ce257614cd83d611c8a565b903d5f602084013e565b606090565b5f80614cf9612cab612cab60026127ae565b6040515f9185905af150614d0b614cc9565b507fe37b2ae9cc03ec700b9146c4df2fc797e7a1119c08fc25513755ab5315faa6d26123b7614d3d612cab60026127ae565b92614d4760405190565b918291429083611e38565b606090614d5e90615729565b905090565b614d775f61048b92614d725f90565b500190565b61573d565b15614d8357565b60405162461bcd60e51b8152806139c7600482016020808252818101527f4f776e61626c653a2063616c6c6572206973206e6f7420746865206f776e6572604082015260600190565b610480614dd7613eec565b614df0614de3336107ca565b916001600160a01b031690565b14614d7c565b90614e11611d595f61048b94614e095f90565b500192610610565b615755565b90614e29611d595f61048b94614e095f90565b6157b6565b9066ff0000000000009060301b611f6c565b90614e5061048b611f8d92151590565b8254614e2e565b614e649061ffff16612d1d565b90039061ffff8211611cfc57565b9065ffff000000009060201b611f6c565b90614e9361048b611f8d926129f5565b8254614e72565b9063ffff00009060101b611f6c565b90614eb961048b611f8d926129f5565b8254614e9a565b8054821015611aea5761207c6001915f5260205f2090565b915f1960089290920291821b911b611f6c565b921b90565b9190614f0161048b611f8d93610610565b908354614ed8565b90815491600160401b831015611a4d5782614f2c91600161048095018155614ec0565b90614ef0565b614f3f9061ffff16612d1d565b019061ffff8211611cfc57565b61048b614f5a91600b610d11565b921561506857614f7383614f6d5f610610565b90614f09565b614f7d6001610476565b614f8682610476565b14801561504e575b8015615034575b15614fba5750614fb46002610480930191614faf83611906565b614f32565b90614ea9565b614fc46006610476565b614fcd82610476565b14801561501a575b15614ff55750614fef6002610480930191614faf8361191c565b90614e83565b90506150046127686004610476565b1461500c5750565b600160026104809201614e40565b506150256007610476565b61502e82610476565b14614fd5565b5061503f6003610476565b61504882610476565b14614f95565b506150596002610476565b61506282610476565b14614f8e565b6150726001610476565b61507b82610476565b148015615184575b801561516a575b156150d0575060026104809201906150a182611906565b6150ae61ffff8316612d1d565b11156150c657614fb4906150c183611906565b614e57565b50614fb45f611eb9565b6150da6006610476565b6150e382610476565b148015615150575b1561512c575060026104809201906151028261191c565b61510f61ffff8316612d1d565b111561512257614fef906150c18361191c565b50614fef5f611eb9565b905061513b6127686004610476565b146151435750565b5f60026104809201614e40565b5061515b6007610476565b61516482610476565b146150eb565b506151756003610476565b61517e82610476565b1461508a565b5061518f6002610476565b61519882610476565b14615083565b91906008611f6c910291614eeb6001600160a01b03841b90565b91906151c961048b611f8d93610d08565b90835461519e565b90815491600160401b831015611a4d57826151f491600161048095018155614ec0565b906151b8565b61520b611d35611c47836010610d11565b6152125750565b60016129a98261522c61048094615227600f90565b6151d1565b6010610d11565b1561523a57565b60405162461bcd60e51b815260206004820152601d60248201527f416464726573733a20696e73756666696369656e742062616c616e63650000006044820152606490fd5b1561528657565b60405162461bcd60e51b815260206004820152603a60248201527f416464726573733a20756e61626c6520746f2073656e642076616c75652c207260448201527f6563697069656e74206d617920686176652072657665727465640000000000006064820152608490fd5b5f610480926153118293612cab61530730610d08565b8490311015615233565b9061531b60405190565b90818003925af161532a614cc9565b5061527f565b615338615842565b6104806153455f80612a9a565b7f5db9ee0a495bf2e6ff9c91a7834c1ba4fdd244a5e8aa4e537bd38aeae4b073aa61536f33610ff0565b0390a1565b610480615330565b611f4a906001600160401b0316611cdd565b6125c961048b61539f926125c15f90565b906153a95f610610565b6153b461048b845190565b81101561279f576153d15f612755600c6126176126138689611ad0565b6153de6127686005610476565b146153eb576001016153a9565b5061048b9150615405906153ff604b61135b565b90612033565b61540f606461135b565b9061537c565b6154226301e13380610610565b8110156154845761543562ed4e00610610565b811015615478576154486276a700610610565b81101561546d5761545e611d5962278d00610610565b10156136525761048b5f610610565b5061048b6064610610565b5061048b61012c610610565b5061048b6101f4610610565b6154a96140f161549f5f6127ae565b612cab845f6140bf565b907f8be0079c531659141344cd1fd0a4f28419497f9722a3daafe3b4186f6b6457e061412260405190565b6154dc614cb6565b6104806154ea60015f612a9a565b7f62e78cea01bee320cd4e420270b5ea74000d11b0c9f74754ebdbfc544b05a25861536f33610ff0565b6104806154d4565b9061552f611d595f61048b94614e095f90565b615887565b634e487b7160e01b5f52603160045260245ffd5b610480915f916151b8565b80548015615575575f19019061557261556c8383614ec0565b90615548565b55565b615534565b615588611c47826010610d11565b61558f5750565b6155985f610610565b600f6155a561048b825490565b821015615622576155bf6155b98383614ec0565b90610fbf565b6155d16001600160a01b038516614de3565b146155df5750600101615598565b6104809261522c61561d8361048b5f966151f46156166155b96156106156066129a99b5490565b612fcf6001610610565b86614ec0565b9184614ec0565b615553565b50505f6129a96104809261522c565b61563b6004610713565b61564482610713565b146156b5576156536003610713565b61565c82610713565b146156aa5761566b6002610713565b61567482610713565b1461569f576156866143f06001610713565b146156955761048b6001612674565b61048b6002612674565b5061048b6003612674565b5061048b6004612674565b5061048b6005612674565b906156cf6132516104bb845490565b905f5b8181106156df5750505090565b9091926156f4613291600192614533876118da565b9291016156d2565b9061048b916156c0565b906104806132c49261571760405190565b938480926156fc565b61048b90615706565b5f61048b91615736606090565b5001615720565b5f61048b916157495f90565b50015490565b90610627565b61576d916001612de5926157665f90565b500161574f565b615779611d595f610610565b141590565b9190614f0161048b611f8d9390565b90815491600160401b831015611a4d57826157b091600161048095018155614ec0565b9061577e565b6157c3611d358383615755565b156157f0576157eb916130209060016157e4846157e0848261578d565b5490565b930161574f565b600190565b50505f90565b156157fd57565b60405162461bcd60e51b815260206004820152601460248201527f5061757361626c653a206e6f74207061757365640000000000000000000000006044820152606490fd5b61048061584d61344f565b6157f6565b610480915f9161577e565b80548015615575575f1901906155726158768383614ec0565b90615852565b610480915f91614ef0565b90615898612de5826001850161574f565b6158a15f610610565b811461593d576158ff61048b925f926158f4956158f960019788936158ce6158c886610610565b82611f5a565b888501916158e66158dd845490565b612fcf89610610565b828103615904575b50505090565b61585d565b0161574f565b61587c565b6157b061592d6159359461592461591e6130209589614ec0565b90610d26565b92839188614ec0565b88880161574f565b5f80806158ee565b5050505f9056fea2646970667358221220b130ba9be7bdb04e9c27687b6ff4812adf10c6ec714a68bfa54f98bc3584d41464736f6c634300081c0033",
  "linkReferences": {},
  "deployedLinkReferences": {}
}