{
  "_format": "hh-sol-artifact-1",
  "contractName": "EnhancedSmartStakingView",
  "sourceName": "contracts/SmartStaking/EnhancedSmartStakingView.sol",
  "abi": [
    {
      "inputs": [
        {
          "internalType": "address",
          "name": "_stakingContract",
          "type": "address"
        }
      ],
      "stateMutability": "nonpayable",
      "type": "constructor"
    },
    {
      "anonymous": false,
      "inputs": [
        {
          "indexed": true,
          "internalType": "address",
          "name": "previousOwner",
          "type": "address"
        },
        {
          "indexed": true,
          "internalType": "address",
          "name": "newOwner",
          "type": "address"
        }
      ],
      "name": "OwnershipTransferred",
      "type": "event"
    },
    {
      "anonymous": false,
      "inputs": [
        {
          "indexed": true,
          "internalType": "address",
          "name": "newAddress",
          "type": "address"
        }
      ],
      "name": "StakingContractUpdated",
      "type": "event"
    },
    {
      "inputs": [],
      "name": "getAPYRates",
      "outputs": [
        {
          "internalType": "uint256",
          "name": "flexibleAPY",
          "type": "uint256"
        },
        {
          "internalType": "uint256",
          "name": "locked30APY",
          "type": "uint256"
        },
        {
          "internalType": "uint256",
          "name": "locked90APY",
          "type": "uint256"
        },
        {
          "internalType": "uint256",
          "name": "locked180APY",
          "type": "uint256"
        },
        {
          "internalType": "uint256",
          "name": "locked365APY",
          "type": "uint256"
        }
      ],
      "stateMutability": "pure",
      "type": "function"
    },
    {
      "inputs": [
        {
          "internalType": "address",
          "name": "user",
          "type": "address"
        }
      ],
      "name": "getActiveSkillsWithDetails",
      "outputs": [
        {
          "components": [
            {
              "internalType": "enum IStakingIntegration.SkillType",
              "name": "skillType",
              "type": "uint8"
            },
            {
              "internalType": "uint16",
              "name": "effectValue",
              "type": "uint16"
            },
            {
              "internalType": "enum IStakingIntegration.Rarity",
              "name": "rarity",
              "type": "uint8"
            },
            {
              "internalType": "uint64",
              "name": "activatedAt",
              "type": "uint64"
            },
            {
              "internalType": "uint64",
              "name": "cooldownEnds",
              "type": "uint64"
            },
            {
              "internalType": "bool",
              "name": "isActive",
              "type": "bool"
            },
            {
              "internalType": "uint256",
              "name": "rarityBoost",
              "type": "uint256"
            }
          ],
          "internalType": "struct EnhancedSmartStakingView.SkillDetails[]",
          "name": "",
          "type": "tuple[]"
        }
      ],
      "stateMutability": "view",
      "type": "function"
    },
    {
      "inputs": [
        {
          "internalType": "uint256",
          "name": "page",
          "type": "uint256"
        },
        {
          "internalType": "uint256",
          "name": "pageSize",
          "type": "uint256"
        }
      ],
      "name": "getAutoCompoundUsersPage",
      "outputs": [
        {
          "internalType": "address[]",
          "name": "users",
          "type": "address[]"
        },
        {
          "internalType": "uint256",
          "name": "totalPages",
          "type": "uint256"
        },
        {
          "internalType": "uint256",
          "name": "currentPage",
          "type": "uint256"
        }
      ],
      "stateMutability": "view",
      "type": "function"
    },
    {
      "inputs": [],
      "name": "getAvailableSkillsConfiguration",
      "outputs": [
        {
          "components": [
            {
              "internalType": "enum IStakingIntegration.SkillType",
              "name": "skillType",
              "type": "uint8"
            },
            {
              "internalType": "bool",
              "name": "enabled",
              "type": "bool"
            },
            {
              "internalType": "uint16",
              "name": "effectValue",
              "type": "uint16"
            },
            {
              "internalType": "string",
              "name": "description",
              "type": "string"
            }
          ],
          "internalType": "struct EnhancedSmartStakingView.SkillConfig[]",
          "name": "",
          "type": "tuple[]"
        }
      ],
      "stateMutability": "view",
      "type": "function"
    },
    {
      "inputs": [],
      "name": "getContractBalance",
      "outputs": [
        {
          "internalType": "uint256",
          "name": "contractBalance",
          "type": "uint256"
        },
        {
          "internalType": "uint256",
          "name": "totalPoolBalance_",
          "type": "uint256"
        },
        {
          "internalType": "uint256",
          "name": "availableForRewards",
          "type": "uint256"
        }
      ],
      "stateMutability": "view",
      "type": "function"
    },
    {
      "inputs": [
        {
          "internalType": "address",
          "name": "_user",
          "type": "address"
        }
      ],
      "name": "getDashboardData",
      "outputs": [
        {
          "internalType": "uint256",
          "name": "poolTotalValue",
          "type": "uint256"
        },
        {
          "internalType": "uint256",
          "name": "poolActiveUsers",
          "type": "uint256"
        },
        {
          "internalType": "uint256",
          "name": "poolContractBalance",
          "type": "uint256"
        },
        {
          "internalType": "uint8",
          "name": "poolHealthStatus",
          "type": "uint8"
        },
        {
          "internalType": "uint256",
          "name": "userStaked",
          "type": "uint256"
        },
        {
          "internalType": "uint256",
          "name": "userRewards",
          "type": "uint256"
        },
        {
          "internalType": "uint256",
          "name": "userDeposits",
          "type": "uint256"
        },
        {
          "internalType": "uint256",
          "name": "userFlexible",
          "type": "uint256"
        },
        {
          "internalType": "uint256",
          "name": "userLocked",
          "type": "uint256"
        }
      ],
      "stateMutability": "view",
      "type": "function"
    },
    {
      "inputs": [
        {
          "internalType": "address",
          "name": "_user",
          "type": "address"
        }
      ],
      "name": "getDashboardUserSummary",
      "outputs": [
        {
          "internalType": "uint256",
          "name": "userStaked",
          "type": "uint256"
        },
        {
          "internalType": "uint256",
          "name": "userPendingRewards",
          "type": "uint256"
        },
        {
          "internalType": "uint256",
          "name": "userDepositCount",
          "type": "uint256"
        },
        {
          "internalType": "uint256",
          "name": "userFlexibleBalance",
          "type": "uint256"
        },
        {
          "internalType": "uint256",
          "name": "userLockedBalance",
          "type": "uint256"
        },
        {
          "internalType": "uint256",
          "name": "userUnlockedBalance",
          "type": "uint256"
        }
      ],
      "stateMutability": "view",
      "type": "function"
    },
    {
      "inputs": [
        {
          "internalType": "address",
          "name": "_user",
          "type": "address"
        },
        {
          "internalType": "uint256",
          "name": "_depositIndex",
          "type": "uint256"
        }
      ],
      "name": "getDepositDetails",
      "outputs": [
        {
          "components": [
            {
              "internalType": "uint256",
              "name": "depositIndex",
              "type": "uint256"
            },
            {
              "internalType": "uint256",
              "name": "amount",
              "type": "uint256"
            },
            {
              "internalType": "uint256",
              "name": "currentRewards",
              "type": "uint256"
            },
            {
              "internalType": "uint256",
              "name": "timestamp",
              "type": "uint256"
            },
            {
              "internalType": "uint256",
              "name": "lastClaimTime",
              "type": "uint256"
            },
            {
              "internalType": "uint256",
              "name": "lockupDuration",
              "type": "uint256"
            },
            {
              "internalType": "uint256",
              "name": "unlockTime",
              "type": "uint256"
            },
            {
              "internalType": "string",
              "name": "lockupType",
              "type": "string"
            },
            {
              "internalType": "bool",
              "name": "isLocked",
              "type": "bool"
            },
            {
              "internalType": "bool",
              "name": "isWithdrawable",
              "type": "bool"
            }
          ],
          "internalType": "struct EnhancedSmartStakingView.DepositDetails",
          "name": "",
          "type": "tuple"
        }
      ],
      "stateMutability": "view",
      "type": "function"
    },
    {
      "inputs": [
        {
          "internalType": "address",
          "name": "_user",
          "type": "address"
        }
      ],
      "name": "getDepositSummaryByType",
      "outputs": [
        {
          "internalType": "uint256[]",
          "name": "summaries",
          "type": "uint256[]"
        }
      ],
      "stateMutability": "view",
      "type": "function"
    },
    {
      "inputs": [
        {
          "internalType": "address",
          "name": "_user",
          "type": "address"
        }
      ],
      "name": "getEarningsBreakdown",
      "outputs": [
        {
          "internalType": "uint256",
          "name": "dailyEarnings",
          "type": "uint256"
        },
        {
          "internalType": "uint256",
          "name": "monthlyEarnings",
          "type": "uint256"
        },
        {
          "internalType": "uint256",
          "name": "annualEarnings",
          "type": "uint256"
        }
      ],
      "stateMutability": "view",
      "type": "function"
    },
    {
      "inputs": [
        {
          "internalType": "address",
          "name": "user",
          "type": "address"
        },
        {
          "internalType": "uint256",
          "name": "daysFromNow",
          "type": "uint256"
        }
      ],
      "name": "getEstimatedRewards",
      "outputs": [
        {
          "internalType": "uint256",
          "name": "baseEstimate",
          "type": "uint256"
        },
        {
          "internalType": "uint256",
          "name": "boostedEstimate",
          "type": "uint256"
        },
        {
          "internalType": "uint256",
          "name": "activeSkillsCount",
          "type": "uint256"
        }
      ],
      "stateMutability": "view",
      "type": "function"
    },
    {
      "inputs": [
        {
          "internalType": "address",
          "name": "_user",
          "type": "address"
        }
      ],
      "name": "getLockedDepositInfo",
      "outputs": [
        {
          "internalType": "bool",
          "name": "hasLocked",
          "type": "bool"
        },
        {
          "internalType": "uint256",
          "name": "lockedAmount",
          "type": "uint256"
        }
      ],
      "stateMutability": "view",
      "type": "function"
    },
    {
      "inputs": [],
      "name": "getMarketStats",
      "outputs": [
        {
          "components": [
            {
              "internalType": "uint256",
              "name": "autoCompoundUsersCount",
              "type": "uint256"
            },
            {
              "internalType": "uint256",
              "name": "timestamp",
              "type": "uint256"
            }
          ],
          "internalType": "struct EnhancedSmartStakingView.MarketStats",
          "name": "",
          "type": "tuple"
        }
      ],
      "stateMutability": "view",
      "type": "function"
    },
    {
      "inputs": [
        {
          "internalType": "address",
          "name": "_user",
          "type": "address"
        }
      ],
      "name": "getNextUnlockTime",
      "outputs": [
        {
          "internalType": "uint256",
          "name": "secondsUntilUnlock",
          "type": "uint256"
        },
        {
          "internalType": "uint256",
          "name": "nextUnlockTime",
          "type": "uint256"
        }
      ],
      "stateMutability": "view",
      "type": "function"
    },
    {
      "inputs": [],
      "name": "getPoolHealth",
      "outputs": [
        {
          "internalType": "uint8",
          "name": "healthStatus",
          "type": "uint8"
        },
        {
          "internalType": "string",
          "name": "statusMessage",
          "type": "string"
        },
        {
          "internalType": "uint256",
          "name": "reserveRatio",
          "type": "uint256"
        },
        {
          "internalType": "string",
          "name": "description",
          "type": "string"
        }
      ],
      "stateMutability": "view",
      "type": "function"
    },
    {
      "inputs": [],
      "name": "getPoolStats",
      "outputs": [
        {
          "internalType": "uint256",
          "name": "totalPoolValue",
          "type": "uint256"
        },
        {
          "internalType": "uint256",
          "name": "totalRewards",
          "type": "uint256"
        },
        {
          "internalType": "uint256",
          "name": "activeUsersCount",
          "type": "uint256"
        },
        {
          "internalType": "uint256",
          "name": "totalDeposits",
          "type": "uint256"
        },
        {
          "internalType": "uint256",
          "name": "contractBalanceValue",
          "type": "uint256"
        }
      ],
      "stateMutability": "view",
      "type": "function"
    },
    {
      "inputs": [
        {
          "internalType": "address",
          "name": "user",
          "type": "address"
        }
      ],
      "name": "getPortfolioSummary",
      "outputs": [
        {
          "components": [
            {
              "internalType": "uint256",
              "name": "totalDeposited",
              "type": "uint256"
            },
            {
              "internalType": "uint256",
              "name": "pendingRewards",
              "type": "uint256"
            },
            {
              "internalType": "uint256",
              "name": "totalValue",
              "type": "uint256"
            },
            {
              "internalType": "uint256",
              "name": "depositCount",
              "type": "uint256"
            },
            {
              "internalType": "uint256",
              "name": "rewardEfficiency",
              "type": "uint256"
            }
          ],
          "internalType": "struct EnhancedSmartStakingView.PortfolioSummary",
          "name": "",
          "type": "tuple"
        }
      ],
      "stateMutability": "view",
      "type": "function"
    },
    {
      "inputs": [
        {
          "internalType": "address",
          "name": "user",
          "type": "address"
        }
      ],
      "name": "getSkillEffectiveness",
      "outputs": [
        {
          "components": [
            {
              "internalType": "enum IStakingIntegration.SkillType",
              "name": "skillType",
              "type": "uint8"
            },
            {
              "internalType": "uint16",
              "name": "effectValue",
              "type": "uint16"
            },
            {
              "internalType": "enum IStakingIntegration.Rarity",
              "name": "rarity",
              "type": "uint8"
            },
            {
              "internalType": "bool",
              "name": "isActive",
              "type": "bool"
            },
            {
              "internalType": "uint256",
              "name": "impactValue",
              "type": "uint256"
            }
          ],
          "internalType": "struct EnhancedSmartStakingView.SkillEffectiveness[]",
          "name": "",
          "type": "tuple[]"
        }
      ],
      "stateMutability": "view",
      "type": "function"
    },
    {
      "inputs": [
        {
          "internalType": "uint256",
          "name": "nftId",
          "type": "uint256"
        }
      ],
      "name": "getSkillRarity",
      "outputs": [
        {
          "internalType": "enum IStakingIntegration.Rarity",
          "name": "rarity",
          "type": "uint8"
        },
        {
          "internalType": "uint256",
          "name": "rarityBoost",
          "type": "uint256"
        },
        {
          "internalType": "uint8",
          "name": "stars",
          "type": "uint8"
        }
      ],
      "stateMutability": "view",
      "type": "function"
    },
    {
      "inputs": [],
      "name": "getStakeDistribution",
      "outputs": [
        {
          "internalType": "uint256",
          "name": "flexibleTotal",
          "type": "uint256"
        },
        {
          "internalType": "uint256",
          "name": "locked30Total",
          "type": "uint256"
        },
        {
          "internalType": "uint256",
          "name": "locked90Total",
          "type": "uint256"
        },
        {
          "internalType": "uint256",
          "name": "locked180Total",
          "type": "uint256"
        },
        {
          "internalType": "uint256",
          "name": "locked365Total",
          "type": "uint256"
        },
        {
          "internalType": "uint256",
          "name": "totalLockedValue",
          "type": "uint256"
        },
        {
          "internalType": "uint256",
          "name": "totalFlexibleValue",
          "type": "uint256"
        }
      ],
      "stateMutability": "pure",
      "type": "function"
    },
    {
      "inputs": [
        {
          "internalType": "address",
          "name": "user",
          "type": "address"
        }
      ],
      "name": "getTotalDeposit",
      "outputs": [
        {
          "internalType": "uint256",
          "name": "",
          "type": "uint256"
        }
      ],
      "stateMutability": "view",
      "type": "function"
    },
    {
      "inputs": [
        {
          "internalType": "address",
          "name": "user",
          "type": "address"
        }
      ],
      "name": "getUserDeposits",
      "outputs": [
        {
          "components": [
            {
              "internalType": "uint256",
              "name": "totalDeposited",
              "type": "uint256"
            },
            {
              "internalType": "uint256",
              "name": "totalRewards",
              "type": "uint256"
            },
            {
              "internalType": "uint256",
              "name": "depositCount",
              "type": "uint256"
            },
            {
              "internalType": "uint256",
              "name": "lastWithdrawTime",
              "type": "uint256"
            }
          ],
          "internalType": "struct EnhancedSmartStakingView.UserDepositInfo",
          "name": "",
          "type": "tuple"
        }
      ],
      "stateMutability": "view",
      "type": "function"
    },
    {
      "inputs": [
        {
          "internalType": "address",
          "name": "_user",
          "type": "address"
        }
      ],
      "name": "getUserDepositsByType",
      "outputs": [
        {
          "components": [
            {
              "internalType": "uint256",
              "name": "depositIndex",
              "type": "uint256"
            },
            {
              "internalType": "uint256",
              "name": "amount",
              "type": "uint256"
            },
            {
              "internalType": "uint256",
              "name": "currentRewards",
              "type": "uint256"
            },
            {
              "internalType": "uint256",
              "name": "timestamp",
              "type": "uint256"
            },
            {
              "internalType": "uint256",
              "name": "lastClaimTime",
              "type": "uint256"
            },
            {
              "internalType": "uint256",
              "name": "lockupDuration",
              "type": "uint256"
            },
            {
              "internalType": "uint256",
              "name": "unlockTime",
              "type": "uint256"
            },
            {
              "internalType": "string",
              "name": "lockupType",
              "type": "string"
            },
            {
              "internalType": "bool",
              "name": "isLocked",
              "type": "bool"
            },
            {
              "internalType": "bool",
              "name": "isWithdrawable",
              "type": "bool"
            }
          ],
          "internalType": "struct EnhancedSmartStakingView.DepositDetails[]",
          "name": "flexible",
          "type": "tuple[]"
        },
        {
          "components": [
            {
              "internalType": "uint256",
              "name": "depositIndex",
              "type": "uint256"
            },
            {
              "internalType": "uint256",
              "name": "amount",
              "type": "uint256"
            },
            {
              "internalType": "uint256",
              "name": "currentRewards",
              "type": "uint256"
            },
            {
              "internalType": "uint256",
              "name": "timestamp",
              "type": "uint256"
            },
            {
              "internalType": "uint256",
              "name": "lastClaimTime",
              "type": "uint256"
            },
            {
              "internalType": "uint256",
              "name": "lockupDuration",
              "type": "uint256"
            },
            {
              "internalType": "uint256",
              "name": "unlockTime",
              "type": "uint256"
            },
            {
              "internalType": "string",
              "name": "lockupType",
              "type": "string"
            },
            {
              "internalType": "bool",
              "name": "isLocked",
              "type": "bool"
            },
            {
              "internalType": "bool",
              "name": "isWithdrawable",
              "type": "bool"
            }
          ],
          "internalType": "struct EnhancedSmartStakingView.DepositDetails[]",
          "name": "locked30",
          "type": "tuple[]"
        },
        {
          "components": [
            {
              "internalType": "uint256",
              "name": "depositIndex",
              "type": "uint256"
            },
            {
              "internalType": "uint256",
              "name": "amount",
              "type": "uint256"
            },
            {
              "internalType": "uint256",
              "name": "currentRewards",
              "type": "uint256"
            },
            {
              "internalType": "uint256",
              "name": "timestamp",
              "type": "uint256"
            },
            {
              "internalType": "uint256",
              "name": "lastClaimTime",
              "type": "uint256"
            },
            {
              "internalType": "uint256",
              "name": "lockupDuration",
              "type": "uint256"
            },
            {
              "internalType": "uint256",
              "name": "unlockTime",
              "type": "uint256"
            },
            {
              "internalType": "string",
              "name": "lockupType",
              "type": "string"
            },
            {
              "internalType": "bool",
              "name": "isLocked",
              "type": "bool"
            },
            {
              "internalType": "bool",
              "name": "isWithdrawable",
              "type": "bool"
            }
          ],
          "internalType": "struct EnhancedSmartStakingView.DepositDetails[]",
          "name": "locked90",
          "type": "tuple[]"
        },
        {
          "components": [
            {
              "internalType": "uint256",
              "name": "depositIndex",
              "type": "uint256"
            },
            {
              "internalType": "uint256",
              "name": "amount",
              "type": "uint256"
            },
            {
              "internalType": "uint256",
              "name": "currentRewards",
              "type": "uint256"
            },
            {
              "internalType": "uint256",
              "name": "timestamp",
              "type": "uint256"
            },
            {
              "internalType": "uint256",
              "name": "lastClaimTime",
              "type": "uint256"
            },
            {
              "internalType": "uint256",
              "name": "lockupDuration",
              "type": "uint256"
            },
            {
              "internalType": "uint256",
              "name": "unlockTime",
              "type": "uint256"
            },
            {
              "internalType": "string",
              "name": "lockupType",
              "type": "string"
            },
            {
              "internalType": "bool",
              "name": "isLocked",
              "type": "bool"
            },
            {
              "internalType": "bool",
              "name": "isWithdrawable",
              "type": "bool"
            }
          ],
          "internalType": "struct EnhancedSmartStakingView.DepositDetails[]",
          "name": "locked180",
          "type": "tuple[]"
        },
        {
          "components": [
            {
              "internalType": "uint256",
              "name": "depositIndex",
              "type": "uint256"
            },
            {
              "internalType": "uint256",
              "name": "amount",
              "type": "uint256"
            },
            {
              "internalType": "uint256",
              "name": "currentRewards",
              "type": "uint256"
            },
            {
              "internalType": "uint256",
              "name": "timestamp",
              "type": "uint256"
            },
            {
              "internalType": "uint256",
              "name": "lastClaimTime",
              "type": "uint256"
            },
            {
              "internalType": "uint256",
              "name": "lockupDuration",
              "type": "uint256"
            },
            {
              "internalType": "uint256",
              "name": "unlockTime",
              "type": "uint256"
            },
            {
              "internalType": "string",
              "name": "lockupType",
              "type": "string"
            },
            {
              "internalType": "bool",
              "name": "isLocked",
              "type": "bool"
            },
            {
              "internalType": "bool",
              "name": "isWithdrawable",
              "type": "bool"
            }
          ],
          "internalType": "struct EnhancedSmartStakingView.DepositDetails[]",
          "name": "locked365",
          "type": "tuple[]"
        }
      ],
      "stateMutability": "view",
      "type": "function"
    },
    {
      "inputs": [
        {
          "internalType": "address",
          "name": "user",
          "type": "address"
        }
      ],
      "name": "getUserDetailedStats",
      "outputs": [
        {
          "components": [
            {
              "internalType": "uint256",
              "name": "totalDeposited",
              "type": "uint256"
            },
            {
              "internalType": "uint256",
              "name": "totalRewards",
              "type": "uint256"
            },
            {
              "internalType": "uint256",
              "name": "boostedRewards",
              "type": "uint256"
            },
            {
              "internalType": "uint256",
              "name": "boostedRewardsWithRarity",
              "type": "uint256"
            },
            {
              "internalType": "uint256",
              "name": "depositCount",
              "type": "uint256"
            },
            {
              "internalType": "uint256",
              "name": "lastWithdrawTime",
              "type": "uint256"
            },
            {
              "internalType": "uint16",
              "name": "userLevel",
              "type": "uint16"
            },
            {
              "internalType": "uint256",
              "name": "userXP",
              "type": "uint256"
            },
            {
              "internalType": "uint8",
              "name": "maxActiveSkills",
              "type": "uint8"
            },
            {
              "internalType": "uint8",
              "name": "activeSkillsCount",
              "type": "uint8"
            },
            {
              "internalType": "uint16",
              "name": "stakingBoostTotal",
              "type": "uint16"
            },
            {
              "internalType": "uint16",
              "name": "feeDiscountTotal",
              "type": "uint16"
            },
            {
              "internalType": "bool",
              "name": "hasAutoCompound",
              "type": "bool"
            }
          ],
          "internalType": "struct EnhancedSmartStakingView.UserStats",
          "name": "",
          "type": "tuple"
        }
      ],
      "stateMutability": "view",
      "type": "function"
    },
    {
      "inputs": [
        {
          "internalType": "address",
          "name": "user",
          "type": "address"
        }
      ],
      "name": "getUserInfoWithSkills",
      "outputs": [
        {
          "components": [
            {
              "internalType": "uint256",
              "name": "totalDeposited",
              "type": "uint256"
            },
            {
              "internalType": "uint256",
              "name": "totalRewards",
              "type": "uint256"
            },
            {
              "internalType": "uint256",
              "name": "depositCount",
              "type": "uint256"
            },
            {
              "internalType": "uint256",
              "name": "lastWithdrawTime",
              "type": "uint256"
            },
            {
              "components": [
                {
                  "internalType": "uint256[]",
                  "name": "activeNFTIds",
                  "type": "uint256[]"
                },
                {
                  "internalType": "uint256",
                  "name": "totalXP",
                  "type": "uint256"
                },
                {
                  "internalType": "uint16",
                  "name": "level",
                  "type": "uint16"
                },
                {
                  "internalType": "uint8",
                  "name": "maxActiveSkills",
                  "type": "uint8"
                },
                {
                  "internalType": "uint16",
                  "name": "stakingBoostTotal",
                  "type": "uint16"
                },
                {
                  "internalType": "uint16",
                  "name": "feeDiscountTotal",
                  "type": "uint16"
                },
                {
                  "internalType": "bool",
                  "name": "hasAutoCompound",
                  "type": "bool"
                }
              ],
              "internalType": "struct IStakingIntegration.UserSkillProfile",
              "name": "skillProfile",
              "type": "tuple"
            },
            {
              "components": [
                {
                  "internalType": "enum IStakingIntegration.SkillType",
                  "name": "skillType",
                  "type": "uint8"
                },
                {
                  "internalType": "uint16",
                  "name": "effectValue",
                  "type": "uint16"
                },
                {
                  "internalType": "enum IStakingIntegration.Rarity",
                  "name": "rarity",
                  "type": "uint8"
                },
                {
                  "internalType": "uint64",
                  "name": "activatedAt",
                  "type": "uint64"
                },
                {
                  "internalType": "uint64",
                  "name": "cooldownEnds",
                  "type": "uint64"
                },
                {
                  "internalType": "bool",
                  "name": "isActive",
                  "type": "bool"
                }
              ],
              "internalType": "struct IStakingIntegration.NFTSkill[]",
              "name": "activeSkills",
              "type": "tuple[]"
            }
          ],
          "internalType": "struct EnhancedSmartStakingView.UserInfoWithSkills",
          "name": "",
          "type": "tuple"
        }
      ],
      "stateMutability": "view",
      "type": "function"
    },
    {
      "inputs": [
        {
          "internalType": "address",
          "name": "user",
          "type": "address"
        }
      ],
      "name": "getUserMetrics",
      "outputs": [
        {
          "components": [
            {
              "internalType": "uint256",
              "name": "totalDeposited",
              "type": "uint256"
            },
            {
              "internalType": "uint256",
              "name": "totalRewards",
              "type": "uint256"
            },
            {
              "internalType": "uint256",
              "name": "deposits",
              "type": "uint256"
            },
            {
              "internalType": "uint8",
              "name": "activeSkills",
              "type": "uint8"
            },
            {
              "internalType": "uint16",
              "name": "level",
              "type": "uint16"
            },
            {
              "internalType": "uint256",
              "name": "xp",
              "type": "uint256"
            },
            {
              "internalType": "uint16",
              "name": "boosts",
              "type": "uint16"
            }
          ],
          "internalType": "struct EnhancedSmartStakingView.UserMetrics",
          "name": "",
          "type": "tuple"
        }
      ],
      "stateMutability": "view",
      "type": "function"
    },
    {
      "inputs": [
        {
          "internalType": "address",
          "name": "_user",
          "type": "address"
        }
      ],
      "name": "getUserPortfolio",
      "outputs": [
        {
          "components": [
            {
              "internalType": "uint256",
              "name": "totalDeposited",
              "type": "uint256"
            },
            {
              "internalType": "uint256",
              "name": "totalRewards",
              "type": "uint256"
            },
            {
              "internalType": "uint256",
              "name": "totalPortfolioValue",
              "type": "uint256"
            },
            {
              "internalType": "uint256",
              "name": "depositCount",
              "type": "uint256"
            },
            {
              "internalType": "uint256",
              "name": "flexibleBalance",
              "type": "uint256"
            },
            {
              "internalType": "uint256",
              "name": "lockedBalance",
              "type": "uint256"
            },
            {
              "internalType": "uint256",
              "name": "unlockedBalance",
              "type": "uint256"
            },
            {
              "internalType": "uint256",
              "name": "lastWithdrawTime",
              "type": "uint256"
            },
            {
              "components": [
                {
                  "internalType": "uint256",
                  "name": "depositIndex",
                  "type": "uint256"
                },
                {
                  "internalType": "uint256",
                  "name": "amount",
                  "type": "uint256"
                },
                {
                  "internalType": "uint256",
                  "name": "currentRewards",
                  "type": "uint256"
                },
                {
                  "internalType": "uint256",
                  "name": "timestamp",
                  "type": "uint256"
                },
                {
                  "internalType": "uint256",
                  "name": "lastClaimTime",
                  "type": "uint256"
                },
                {
                  "internalType": "uint256",
                  "name": "lockupDuration",
                  "type": "uint256"
                },
                {
                  "internalType": "uint256",
                  "name": "unlockTime",
                  "type": "uint256"
                },
                {
                  "internalType": "string",
                  "name": "lockupType",
                  "type": "string"
                },
                {
                  "internalType": "bool",
                  "name": "isLocked",
                  "type": "bool"
                },
                {
                  "internalType": "bool",
                  "name": "isWithdrawable",
                  "type": "bool"
                }
              ],
              "internalType": "struct EnhancedSmartStakingView.DepositDetails[]",
              "name": "deposits",
              "type": "tuple[]"
            }
          ],
          "internalType": "struct EnhancedSmartStakingView.UserPortfolio",
          "name": "portfolio",
          "type": "tuple"
        }
      ],
      "stateMutability": "view",
      "type": "function"
    },
    {
      "inputs": [
        {
          "internalType": "address",
          "name": "_user",
          "type": "address"
        }
      ],
      "name": "getWithdrawableDeposits",
      "outputs": [
        {
          "internalType": "uint256[]",
          "name": "withdrawableIndices",
          "type": "uint256[]"
        },
        {
          "internalType": "uint256",
          "name": "withdrawableAmount",
          "type": "uint256"
        }
      ],
      "stateMutability": "view",
      "type": "function"
    },
    {
      "inputs": [
        {
          "internalType": "address",
          "name": "user",
          "type": "address"
        }
      ],
      "name": "hasActiveStake",
      "outputs": [
        {
          "internalType": "bool",
          "name": "",
          "type": "bool"
        }
      ],
      "stateMutability": "view",
      "type": "function"
    },
    {
      "inputs": [],
      "name": "owner",
      "outputs": [
        {
          "internalType": "address",
          "name": "",
          "type": "address"
        }
      ],
      "stateMutability": "view",
      "type": "function"
    },
    {
      "inputs": [
        {
          "internalType": "address",
          "name": "_stakingContract",
          "type": "address"
        }
      ],
      "name": "setStakingContract",
      "outputs": [],
      "stateMutability": "nonpayable",
      "type": "function"
    },
    {
      "inputs": [],
      "name": "stakingContract",
      "outputs": [
        {
          "internalType": "contract IStakingViewData",
          "name": "",
          "type": "address"
        }
      ],
      "stateMutability": "view",
      "type": "function"
    },
    {
      "inputs": [
        {
          "internalType": "address",
          "name": "newOwner",
          "type": "address"
        }
      ],
      "name": "transferOwnership",
      "outputs": [],
      "stateMutability": "nonpayable",
      "type": "function"
    }
  ],
  "bytecode": "0x60806040523461002a576100196100146100bf565b610195565b6040516153bb6101d382396153bb90f35b5f80fd5b634e487b7160e01b5f52604160045260245ffd5b90601f01601f191681019081106001600160401b0382111761006357604052565b61002e565b9061007c61007560405190565b9283610042565b565b6001600160a01b031690565b90565b6001600160a01b0381160361002a57565b9050519061007c8261008d565b9060208282031261002a5761008a9161009e565b61008a61558e803803806100d281610068565b9283398101906100ab565b61007e61008a61008a9290565b61008a906100dd565b156100fa57565b60405162461bcd60e51b815260206004820152601860248201527f496e76616c6964207374616b696e6720636f6e747261637400000000000000006044820152606490fd5b61008a9061007e906001600160a01b031682565b61008a9061013f565b61008a90610153565b9061017561008a6101919261015c565b82546001600160a01b0319166001600160a01b03919091161790565b9055565b6101c16101c7916101bc6101ab61007e5f6100ea565b6001600160a01b03831614156100f3565b61015c565b5f610165565b61007c33600161016556fe60806040526004361015610011575f80fd5b5f3560e01c806301d9b8421461022057806302e17dbc1461021b5780631252217f1461021657806316e1a0fe1461021157806318e256591461020c5780631edb27e9146102075780631fc8ee5e1461020257806328394095146101fd5780632a5bf6d2146101f857806334e57ad8146101f35780633d0132e7146101ee578063494a599e146101e957806369486d29146101e45780636f9fb98a146101df5780637bae41e7146101da578063857184d1146101d557806387a7b7f6146101d05780638da5cb5b146101cb57806396039e84146101c65780639dd373b9146101c1578063b49b8bd7146101bc578063b5b7add4146101b7578063bbb85188146101b2578063c289c791146101ad578063c5f57015146101a8578063e346f570146101a3578063e421ffb11461019e578063e7e7540014610199578063eb97e4eb14610194578063edd052231461018f578063ee99205c1461018a578063f2fde38b146101855763ff4cd5b90361022557611411565b6113d6565b6113af565b61133d565b611305565b611214565b6111b1565b6110e9565b611077565b610feb565b610fd0565b610f9c565b610f28565b610e53565b610e37565b610e02565b610db1565b610cbf565b610c91565b610c52565b610c07565b610bd6565b610b76565b610b1b565b610a96565b610a25565b6109e7565b610917565b61074b565b6106dc565b610465565b6103ca565b61039f565b5f80fd5b5f91031261022557565b634e487b7160e01b5f52602160045260245ffd5b6011111561025157565b610233565b9061026082610247565b565b61026b90610256565b90565b61027790610262565b9052565b5f5b83811061028c5750505f910152565b818101518382015260200161027d565b6102bd6102c66020936102d0936102b1815190565b80835293849260200190565b9586910161027b565b601f01601f191690565b0190565b61026b91606060808201926102ef5f8201515f85019061026e565b60208181015115159084015260408181015161ffff1690840152015190606081840391015261029c565b9061026b916102d4565b9061033961032f835190565b8083529160200190565b908161034b6020830284019460200190565b925f915b83831061035e57505050505090565b9091929394602061038161037a83856001950387528951610319565b9760200190565b930193019193929061034f565b602080825261026b92910190610323565b34610225576103af366004610229565b6103c66103ba6116d1565b6040519182918261038e565b0390f35b34610225576103da366004610229565b6103c66103e5611832565b936103f597959793919360405190565b9788978890815260e081019796959094909390929091602086015260408501526060840152608083015260a082015260c00152565b60ff909116815261026b939161045890610450906080840190848203602086015261029c565b936040830152565b606081840391015261029c565b3461022557610475366004610229565b6103c6610480611b89565b9061048d94929460405190565b9485948561042a565b6001600160a01b031690565b6001600160a01b0381165b0361022557565b90503590610260826104a2565b906020828203126102255761026b916104b4565b906104f56104ee6104e4845190565b8084529260200190565b9260200190565b905f5b8181106105055750505090565b90919261052261051b6001928651815260200190565b9460200190565b9291016104f8565b9061026b9060c08061054960e084015f8701518582035f8701526104d5565b9461055960208201516020860152565b60408181015161ffff169085015260608181015160ff169085015260808181015161ffff169085015260a08181015161ffff16908501525b01511515910152565b6005111561025157565b906102608261059a565b61026b906105a4565b610277906105ae565b9060a080610260936105d85f8201515f86019061026e565b60208181015161ffff16908501526105f8604082015160408601906105b7565b6060818101516001600160401b0316908501526080818101516001600160401b031690850152610591565b906102d08160c0936105c0565b9061063f6104ee6104e4845190565b905f5b81811061064f5750505090565b90919261066261051b6001928651610623565b929101610642565b8051825261026b9160a06106ba60c0830161068a60208601516020860152565b61069960408601516040860152565b6106a860608601516060860152565b6080850151848203608086015261052a565b9201519060a0818403910152610630565b602080825261026b9291019061066a565b34610225576103c66106f76106f23660046104c1565b612112565b604051918291826106cb565b9694929099989795939161012088019a5f890161071e919052565b6020880152604087015260ff166060860152608085015260a084015260c083015260e08201526101000152565b34610225576103c66107666107613660046104c1565b612459565b9561077999979995919594929460405190565b998a998a610703565b805182529061026b906101208061080361014084016107a660208801516020870152565b6107b560408801516040870152565b6107c460608801516060870152565b6107d360808801516080870152565b6107e260a088015160a0870152565b6107f160c088015160c0870152565b60e087015185820360e087015261029c565b6101008087015115159085015294610591565b9061026b91610782565b9061082c61032f835190565b908161083e6020830284019460200190565b925f915b83831061085157505050505090565b9091929394602061086d61037a83856001950387528951610816565b9301930191939290610842565b8051825261026b916101208101916101009061089b60208201516020850152565b6108aa60408201516040850152565b6108b960608201516060850152565b6108c860808201516080850152565b6108d760a082015160a0850152565b6108e660c082015160c0850152565b6108f560e082015160e0850152565b015190610100818403910152610820565b602080825261026b9291019061087a565b34610225576103c661093261092d3660046104c1565b612875565b60405191829182610906565b806104ad565b905035906102608261093e565b91906040838203126102255761026b90602061096d8286610944565b9401610944565b906109836104ee6104e4845190565b905f5b8181106109935750505090565b9091926109b261051b60019286516001600160a01b0316815260200190565b929101610986565b6040906109e36109db6102609597969460608401908482035f860152610974565b966020830152565b0152565b34610225576103c6610a036109fd366004610951565b90612b73565b604051919391938493846109ba565b9081526040810192916102609160200152565b3461022557610a3d610a383660046104c1565b612cdb565b906103c6610a4a60405190565b92839283610a12565b8051825261026091906060908190610a7060208201516020860152565b610a7f60408201516040860152565b0151910152565b6080810192916102609190610a53565b34610225576103c6610ab1610aac3660046104c1565b612e8c565b60405191829182610a86565b90610acc6104ee6104e4845190565b905f5b818110610adc5750505090565b909192610af261051b6001928651815260200190565b929101610acf565b92916020610b166102609360408701908782035f890152610abd565b940152565b3461022557610b33610b2e3660046104c1565b612f2f565b906103c6610b4060405190565b92839283610afa565b91906040838203126102255761026b90602061096d82866104b4565b602080825261026b92910190610782565b34610225576103c6610b92610b8c366004610b49565b90613110565b60405191829182610b65565b9095949261026094610bcf6109e392610bc8608096610bc160a088019c5f890152565b6020870152565b6040850152565b6060830152565b3461022557610be6366004610229565b6103c6610bf1613123565b91610bfe95939560405190565b95869586610b9e565b34610225576103c6610c22610c1d3660046104c1565b61315a565b60405191829182901515815260200190565b9081526060810193926102609290916040916109e3905b6020830152565b3461022557610c62366004610229565b6103c6610c6d6131aa565b60405191939193849384610c34565b90151581526040810192916102609160200152565b3461022557610ca9610ca43660046104c1565b613235565b906103c6610cb660405190565b92839283610c7c565b34610225576103c6610cda610cd53660046104c1565b6133a4565b6040519182918290815260200190565b805182526102609190610180908190610d0860208201516020860152565b610d1760408201516040860152565b610d2660608201516060860152565b610d3560808201516080860152565b610d4460a082015160a0860152565b60c08181015161ffff1690850152610d6160e082015160e0860152565b6101008181015160ff16908501526101208181015160ff16908501526101408181015161ffff16908501526101608181015161ffff1690850152610591565b6101a0810192916102609190610cea565b34610225576103c6610dcc610dc73660046104c1565b613433565b60405191829182610da0565b61026b916008021c6001600160a01b031690565b9061026b9154610dd8565b61026b5f6001610dec565b3461022557610e12366004610229565b6103c6610e1d610df7565b604051918291826001600160a01b03909116815260200190565b34610225576103c6610c6d610e4d366004610b49565b90613705565b3461022557610e6b610e663660046104c1565b613a00565b604051005b90610e7c61032f835190565b9081610e8e6020830284019460200190565b925f915b838310610ea157505050505090565b90919293946020610ebd61037a83856001950387528951610816565b9301930191939290610e92565b939061026b9593610efe610f1a94610ef0610f0c9460a08a01908a82035f8c0152610e70565b9088820360208a0152610e70565b908682036040880152610e70565b908482036060860152610e70565b916080818403910152610e70565b34610225576103c6610f43610f3e3660046104c1565b613a09565b91610f5095939560405190565b95869586610eca565b9194610f956109e392989795610f8e60a096610f876102609a610f8060c08a019e5f8b0152565b6020890152565b6040870152565b6060850152565b6080830152565b34610225576103c6610fb7610fb23660046104c1565b613cb1565b92610fc796949692919260405190565b96879687610f59565b3461022557610fe0366004610229565b6103c6610bf1613e60565b34610225576103c6610c6d6110013660046104c1565b613f7a565b80518252610260919060c090819061102360208201516020860152565b61103260408201516040860152565b60608181015160ff169085015260808181015161ffff169085015261105c60a082015160a0860152565b015161ffff16910152565b60e0810192916102609190611006565b34610225576103c661109261108d3660046104c1565b6141e4565b60405191829182611067565b80518252610260919060809081906110bb60208201516020860152565b6110ca60408201516040860152565b610a7f60608201516060860152565b60a081019291610260919061109e565b34610225576103c66111046110ff3660046104c1565b6143c2565b604051918291826110d9565b90608080610260936111285f8201515f86019061026e565b60208181015161ffff1690850152611148604082015160408601906105b7565b606081810151151590850152610a7f565b906102d08160a093611110565b906111756104ee6104e4845190565b905f5b8181106111855750505090565b90919261119861051b6001928651611159565b929101611178565b602080825261026b92910190611166565b34610225576103c66111cc6111c73660046104c1565b61457e565b604051918291826111a0565b906020828203126102255761026b91610944565b60409061120b6102609496959396610c4b60608401985f8501906105b7565b019060ff169052565b34610225576103c661122f61122a3660046111d8565b614758565b604051919391938493846111ec565b9060c080610260936112565f8201515f86019061026e565b60208181015161ffff1690850152611276604082015160408601906105b7565b6060818101516001600160401b0316908501526080818101516001600160401b03169085015260a081810151151590850152610a7f565b906102d08160e09361123e565b906112c96104ee6104e4845190565b905f5b8181106112d95750505090565b9091926112ec61051b60019286516112ad565b9291016112cc565b602080825261026b929101906112ba565b34610225576103c661132061131b3660046104c1565b614829565b604051918291826112f4565b602080825261026b92910190610abd565b34610225576103c66113586113533660046104c1565b6149c9565b6040519182918261132c565b61026b5f80610dec565b61049661026b61026b926001600160a01b031690565b61026b9061136e565b61026b90611384565b6102779061138d565b6020810192916102609190611396565b34610225576113bf366004610229565b6103c66113ca611364565b6040519182918261139f565b3461022557610e6b6113e93660046104c1565b614d13565b8051825261026091906020908190610a7f565b60408101929161026091906113ee565b3461022557611421366004610229565b6103c661142c614d42565b60405191829182611401565b61026b61026b61026b9290565b634e487b7160e01b5f52604160045260245ffd5b90601f01601f191681019081106001600160401b0382111761147a57604052565b611445565b9061026061148c60405190565b9283611459565b6001600160401b03811161147a5760208091020190565b906114bc6114b783611493565b61147f565b918252565b61026b608061147f565b6114d36114c1565b905f8252602080808085015f5b8152015f5b8152016060905250565b61026b6114cb565b5f5b82811061150557505050565b6020906115106114ef565b81840152016114f9565b9061026061153061152a846114aa565b93611493565b601f1901602084016114f7565b6001600160401b03811161147a57602090601f01601f19160190565b906114bc6114b78361153d565b6115706007611559565b662b35252041505960c81b602082015290565b61026b611566565b634e487b7160e01b5f52603260045260245ffd5b906115a8825190565b8110156115b9576020809102010190565b61158b565b6115c86008611559565b672b3130252041505960c01b602082015290565b61026b6115be565b6115ee6008611559565b672b3230252041505960c01b602082015290565b61026b6115e4565b6116146015611559565b7f4175746f6d6174696320636f6d706f756e64696e670000000000000000000000602082015290565b61026b61160a565b61164f600e611559565b6d2d323525206c6f636b2074696d6560901b602082015290565b61026b611645565b61167b6012611559565b712d31302520706c6174666f726d206665657360701b602082015290565b61026b611671565b6116ab6012611559565b712d32352520706c6174666f726d206665657360701b602082015290565b61026b6116a1565b6116e36116de6007611438565b61151a565b6116f56116ee611583565b6001614dec565b6117076117015f611438565b8361159f565b5261171a6117145f611438565b8261159f565b5061172d6117266115dc565b6002614dec565b61173a6117016001611438565b526117486117146001611438565b5061175b611754611602565b6003614dec565b6117686117016002611438565b526117766117146002611438565b5061178961178261163d565b6004614dec565b6117966117016003611438565b526117a46117146003611438565b506117b76117b0611669565b6005614dec565b6117c46117016004611438565b526117d26117146004611438565b506117e56117de611699565b6006614dec565b6117f26117016005611438565b526118006117146005611438565b5061181361180c6116c9565b6007614dec565b6118206117016006611438565b5261182e6117146006611438565b5090565b61183b5f611438565b90819082908390849085908690565b61026b90610496565b61026b905461184a565b905051906102608261093e565b906020828203126102255761026b9161185d565b6040513d5f823e3d90fd5b61189661026b61026b9290565b60ff1690565b6118a66005611559565b64456d70747960d81b602082015290565b61026b61189c565b6118c96013611559565b72139bc819195c1bdcda5d1cc81a5b881c1bdbdb606a1b602082015290565b61026b6118bf565b634e487b7160e01b5f52601160045260245ffd5b8181029291811591840414171561191757565b6118f0565b634e487b7160e01b5f52601260045260245ffd5b9061193a565b9190565b908115611945570490565b61191c565b6119546008611559565b6710dc9a5d1a58d85b60c21b602082015290565b61026b61194a565b61197a602d611559565b7f506f6f6c20726573657276657320637269746963616c6c79206c6f772c20726560208201526c7761726473206174207269736b60981b604082015290565b61026b611970565b6119cb6009611559565b684c6f772046756e647360b81b602082015290565b61026b6119c1565b6119f26030611559565b7f506f6f6c20726573657276657320617265206c6f772c206d617920737472756760208201526f676c652077697468207265776172647360801b604082015290565b61026b6119e8565b611a466008611559565b674d6f64657261746560c01b602082015290565b61026b611a3c565b611a6c602e611559565b7f506f6f6c2072657365727665732061726520616465717561746520627574207760208201526d61746368206c697175696469747960901b604082015290565b61026b611a62565b611abe6007611559565b664865616c74687960c81b602082015290565b61026b611ab4565b611ae3601c611559565b7f506f6f6c206861732073756666696369656e7420726573657276657300000000602082015290565b61026b611ad9565b611b1e6009611559565b68115e18d95b1b195b9d60ba1b602082015290565b61026b611b14565b611b45602a611559565b7f506f6f6c20686173206162756e64616e7420726573657276657320666f7220616020820152696c6c207265776172647360b01b604082015290565b61026b611b3b565b611b9a611b955f611853565b61138d565b6020611ba560405190565b6328136b1f60e11b815291829060049082905afa908115611d3e575f91611d6c575b50611bd15f611438565b8114611d4357611be3611b955f611853565b906020611bef60405190565b6337cfdcc560e11b815292839060049082905afa918215611d3e575f92611d09575b50611c3190611c2c61271093611c2685611438565b90611904565b611930565b90611c3d613a98611438565b8210611c675750611c4e6004611889565b611c56611b33565b92611c5f611b81565b915b93929190565b611c7090611438565b8110611c9757611c806003611889565b611c88611ad1565b92611c91611b0c565b91611c61565b611ca2611388611438565b8110611cc357611cb26002611889565b611cba611a5a565b92611c91611aac565b611cce6107d0611438565b8110611cef57611cde6001611889565b611ce66119e0565b92611c91611a34565b611cf85f611889565b611d00611968565b92611c916119b9565b611c31919250611d309060203d602011611d37575b611d288183611459565b81019061186a565b9190611c11565b503d611d1e565b61187e565b50612710611d516003611889565b91611d63611d5d6118b7565b92611438565b9061026b6118e8565b611d85915060203d602011611d3757611d288183611459565b5f611bc7565b61026b60c061147f565b61026b60e061147f565b611da7611d95565b9060605b8252602080808080808088015f5b8152015f8152015f5b8152015f5b8152015f8152015f905250565b61026b611d9f565b611de4611d8b565b905f82526020808080808087015f8152015f8152015f8152016114e5611dd4565b61026b611ddc565b60808183031261022557611e21828261185d565b9261026b611e32846020850161185d565b936060611e42826040870161185d565b940161185d565b90929192611e596114b782611493565b938185526020808601920283019281841161022557915b838310611e7d5750505050565b60208091611e8b848661185d565b815201920191611e70565b9080601f8301121561022557815161026b92602001611e49565b61ffff81166104ad565b9050519061026082611eb0565b60ff81166104ad565b9050519061026082611ec7565b8015156104ad565b9050519061026082611edd565b91909160e08184031261022557611f0960e061147f565b925f8201516001600160401b0381116102255782611f2e8360c093611f909601611e96565b8652611f3d836020830161185d565b6020870152611f4f8360408301611eba565b6040870152611f618360608301611ed0565b6060870152611f738360808301611eba565b6080870152611f858360a08301611eba565b60a087015201611ee5565b60c0830152565b906020828203126102255781516001600160401b0381116102255761026b9201611ef2565b6011111561022557565b9050519061026082611fbc565b6005111561022557565b9050519061026082611fd3565b6001600160401b0381166104ad565b9050519061026082611fea565b919060c0838203126102255761207d9060a061202260c061147f565b9461202d8382611fc6565b865261203c8360208301611eba565b602087015261204e8360408301611fdd565b60408701526120608360608301611ff9565b60608701526120728360808301611ff9565b608087015201611ee5565b60a0830152565b909291926120946114b782611493565b9381855260c060208601920283019281841161022557915b8383106120b95750505050565b602060c0916120c88486612006565b8152019201916120ac565b9080601f8301121561022557815161026b92602001612084565b906020828203126102255781516001600160401b0381116102255761026b92016120d3565b61211a611e05565b50612127611b955f611853565b90608061213360405190565b636386c1c760e01b81526001600160a01b038316600482015292839060249082905afa908115611d3e575f925f915f915f9461229f575b50612177611b955f611853565b935f61218260405190565b635f9bddb560e11b81526001600160a01b038416600482015295869060249082905afa918215611d3e576121f0955f93612279575b505f906121c6611b9583611853565b6040519788928391829163161ba78160e01b5b83526001600160a01b031660048301526024820190565b03915afa928315611d3e5761026b955f94612243575b509061223561223c9261222e61207d9697612227612222611d8b565b9b8c52565b60208b0152565b6040890152565b6060870152565b6080850152565b61207d945061223c929161222e61226e612235933d805f833e6122668183611459565b8101906120ed565b965050919250612206565b5f919350612298903d8084833e6122908183611459565b810190611f97565b92906121b7565b92509350506122c6915060803d6080116122ce575b6122be8183611459565b810190611e0d565b92935f61216a565b503d6122b4565b909291926122e56114b78261153d565b93818552818301116102255761026091602085019061027b565b9080601f8301121561022557815161026b926020016122d5565b906080828203126102255761232e8183611ed0565b9260208301516001600160401b038111610225578261234e9185016122ff565b9261235c836040830161185d565b9260608201516001600160401b0381116102255761026b92016122ff565b60010190565b6fffffffffffffffffffffffffffffffff81166104ad565b9050519061026082612380565b608081830312610225576123b98282612398565b9261026b6123ca8460208501611ff9565b9360606123da8260408701611ff9565b9401611ff9565b6001600160a01b0390911681526040810192916102609160200152565b61026b61026b61026b926001600160401b031690565b9190820180921161191757565b61242e61026b61026b9290565b6001600160401b031690565b61026b61026b61026b926fffffffffffffffffffffffffffffffff1690565b905f8092612469611b955f611853565b92602061247560405190565b6328136b1f60e11b815294859060049082905afa938415611d3e575f94612780575b506124a4611b955f611853565b9060206124b060405190565b63c9f8234f60e01b815292839060049082905afa918215611d3e575f9261275f575b506124df611b955f611853565b9060206124eb60405190565b6337cfdcc560e11b815292839060049082905afa918215611d3e575f9261273e575b506125173061138d565b905f61252260405190565b631252217f60e01b815292839060049082905afa918215611d3e575f92612717575b50612551611b955f611853565b608061255c60405190565b636386c1c760e01b81526001600160a01b038816600482015291829060249082905afa8015611d3e575f925f925f926126f0575b5061259a5f611438565b985b828a10156126de576125df60808b6125b6611b955f611853565b8c6125c060405190565b8095819482936125d4636071105860e01b90565b8452600484016123e1565b03915afa8015611d3e575f915f905f9261269d575b5061026b612604612613926123fe565b61260d846123fe565b90612414565b42109081612681575b6126356126285f612421565b916001600160401b031690565b0361265857506126529161260d61264b9261243a565b9960010190565b9861259c565b9a919a612669575b50600101612652565b612652919c61260d61267a9261243a565b9b90612660565b905061268c5f612421565b6001600160401b038216119061261c565b612604935061026b925061261391506126cc9060803d81116126d7575b6126c48183611459565b8101906123a5565b9450509150926125f4565b503d6126ba565b999a9699959850939650919490939192565b9150925061270d915060803d6080116122ce576122be8183611459565b9390919293612590565b6127349192503d805f833e61272c8183611459565b810190612319565b5050919091612544565b61275891925060203d602011611d3757611d288183611459565b905f61250d565b61277991925060203d602011611d3757611d288183611459565b905f6124d2565b61279a91945060203d602011611d3757611d288183611459565b925f612497565b61026b61012061147f565b6127b46127a1565b905f8252602080808080808080808a015f8152015f8152015f8152015f8152015f8152015f6114e0565b61026b6127ac565b5190565b61026b61014061147f565b6127fd6127ea565b905f825260208080808080808080808b015f8152015f8152015f8152015f8152015f8152015f8152016060611dc7565b61026b6127f5565b5f5b82811061284357505050565b60209061284e61282d565b8184015201612837565b9061026061286861152a846114aa565b601f190160208401612835565b9061287e6127de565b908161288c611b955f611853565b92608061289860405190565b636386c1c760e01b81526001600160a01b038716600482015294859060249082905afa8015611d3e575f5f915f965f91612a2f575b509161260d61290961290e936127e6612915966128eb5f8a01938452565b6128f760208a01968752565b6129028c60608b0152565b60e0890152565b915190565b6040830152565b61291e5f611438565b9061292a826080830152565b6129358260a0830152565b6129408260c0830152565b818514612a17575061295184612858565b926101008301938452815b855b811015612a0d576129be8161297661295e938a614fd6565b61298d82895183612987838361159f565b5261159f565b508561299d61026b60a084015190565b036129c5576020015160808701805161237a9261027791612414565b612414565b905061295c565b6129da6129d6610100830151151590565b1590565b156129f6576020015160c08701805161237a9261027791612414565b6020015160a08701805161237a9261027791612414565b5094505091505090565b93509050612a26919350612858565b61010082015290565b6129099750612915935061290e92506127e69150612a5e61260d9160803d6080116122ce576122be8183611459565b94509950945092506128cd565b90505190610260826104a2565b90929192612a886114b782611493565b938185526020808601920283019281841161022557915b838310612aac5750505050565b60208091612aba8486612a6b565b815201920191612a9f565b9080601f8301121561022557815161026b92602001612a78565b906020828203126102255781516001600160401b0381116102255761026b9201612ac5565b9190820391821161191757565b15612b1857565b60405162461bcd60e51b815260206004820152601160248201527050616765206f7574206f662072616e676560781b6044820152606490fd5b369037565b90610260612b6661152a846114aa565b601f190160208401612b51565b9091612b81611b955f611853565b925f612b8c60405190565b634b1d06d760e01b815294859060049082905afa938415611d3e575f94612cb3575b50612c0b90612bbb855190565b94612c1a612bc98388612414565b92612be481611c2c600196612bde6001611438565b90612b04565b978888108015612c9d575b612bf890612b11565b612c028289611904565b95869283612414565b90808211612c95575b50612b04565b92612c2484612b56565b9383612c2f5f611438565b905b612c40575b5050505050929190565b81811015612c90578061237a612c72612c65612c5f612c8a9588612414565b8861159f565b516001600160a01b031690565b612c7c838a61159f565b906001600160a01b03169052565b84612c31565b612c36565b90505f612c14565b50612bf8612caa5f611438565b82149050612bef565b612c0b919450612cd4903d805f833e612ccc8183611459565b810190612adf565b9390612bae565b612ce7611b955f611853565b906080612cf360405190565b636386c1c760e01b81526001600160a01b038316600482015292839060249082905afa918215611d3e575f92612e48575b505f199283612d325f611438565b845b811015612e1157612d47611b955f611853565b6080612d5260405190565b918290630c0e220b60e31b82528180612d6f878b600484016123e1565b03915afa908115611d3e575f905f92612df0575b50612d8d5f612421565b6001600160401b03831611612db3575b5050612dac612d349160010190565b9050612d32565b9061260d612dc3612dc9936123fe565b916123fe565b86811080612de7575b612ddd575b80612d9d565b9550612dac612dd7565b50428111612dd2565b9050612e0a915060803d81116126d7576126c48183611459565b9250612d83565b5090925090508214612e385742821115612e2f576119364283612b04565b6119365f611438565b9050612e435f611438565b908190565b612e6291925060803d6080116122ce576122be8183611459565b50929150612d24565b612e736114c1565b905f8252602080808085015f611dc7565b61026b612e6b565b6080612ebe91612e9a612e84565b50612ea7611b955f611853565b60405193849283918291636386c1c760e01b6121d9565b03915afa8015611d3e575f905f5f905f92612ef2575b61026b93945090610bc8610bcf92610bc1612eed6114c1565b978852565b5050505061026b610bcf612f17610bc89360803d6080116122ce576122be8183611459565b9350919350612ed4565b5f1981146119175760010190565b905f90612f3e611b955f611853565b906080612f4a60405190565b636386c1c760e01b81526001600160a01b038616600482015292839060249082905afa918215611d3e575f926130ed575b50612f8582612b56565b938391612f915f611438565b845b81101561309d57612fa6611b955f611853565b6080612fb160405190565b918290630c0e220b60e31b82528180612fce878a600484016123e1565b03915afa908115611d3e5788915f915f905f9261306c575b5061026b612604612ff6926123fe565b421015908115613057575b5061301d575b5050613016612f939160010190565b9050612f91565b829561260d61304d92613048612f93966130458d61303f613016999f91612f21565b9e61159f565b52565b61243a565b9491889150613007565b90506130656126285f612421565b145f613001565b612604935061026b9250612ff691506130929060803d81116126d7576126c48183611459565b945050915092612fe6565b509250506130aa83612b56565b916130b45f611438565b845b8110156130e5576130de8161237a6130d46127e66130b6958b61159f565b613045838961159f565b90506130b4565b509193509150565b61310791925060803d6080116122ce576122be8183611459565b50929150612f7b565b9061026b9161311d61282d565b50614fd6565b61016d906103909061072190610e429061026b611d5d61315461314e6131485f611438565b98611438565b96611438565b94611438565b608061316791612e9a5f90565b03915afa908115611d3e575f9161318a575b506131866119365f611438565b1190565b6131a3915060803d6080116122ce576122be8183611459565b5050613179565b6131b6611b955f611853565b9060206131c260405190565b6328136b1f60e11b815292839060049082905afa918215611d3e575f92613214575b506131f1611b955f611853565b31908282111561320b576132058383612b04565b91929190565b6132055f611438565b61322e91925060203d602011611d3757611d288183611459565b905f6131e4565b5f90613243611b955f611853565b91608061324f60405190565b636386c1c760e01b81526001600160a01b038416600482015293849060249082905afa928315611d3e575f93613381575b509261328b5f611438565b835b81101561336e576132a0611b955f611853565b60806132ab60405190565b918290630c0e220b60e31b825281806132c8878a600484016123e1565b03915afa8015611d3e575f915f905f9261333d575b5061026b6126046132ed926123fe565b42109081613328575b5061330c575b5061328d906001015b905061328b565b61332061328d929661260d6133059361243a565b9591506132fc565b90506133366126285f612421565b115f6132f6565b612604935061026b92506132ed91506133639060803d81116126d7576126c48183611459565b9450509150926132dd565b5091505061337b5f611438565b82119190565b61339b91935060803d6080116122ce576122be8183611459565b50939150613280565b60806133b191612e9a5f90565b03915afa908115611d3e575f916133c6575090565b6133df915060803d6080116122ce576122be8183611459565b50505090565b61026b6101a061147f565b6020908180808080808080808080806134076133e5565b9d8e5f8152015f8152015f8152015f8152015f8152015f8152015f8152015f611db9565b61026b6133f0565b61343b61342b565b50613448611b955f611853565b608061345360405190565b636386c1c760e01b81526001600160a01b038416600482015291829060249082905afa908115611d3e575f925f925f925f916136dc575b50613497611b955f611853565b925f6134a260405190565b635f9bddb560e11b81526001600160a01b038516600482015294859060249082905afa938415611d3e575f946136c0575b506134e0611b955f611853565b905f6134eb60405190565b63161ba78160e01b81526001600160a01b038616600482015292839060249082905afa918215611d3e575f926136a4575b50613529611b955f611853565b92602061353560405190565b633bab7a8960e01b81526001600160a01b038716600482015294859060249082905afa938415611d3e575f94613680575b506020613591949561357a611b955f611853565b60405196879283918291635c83ef7760e11b6121d9565b03915afa938415611d3e575f9461365f575b50604086015161ffff16906135b9602088015190565b926135c8606089015160ff1690565b94516135d390611889565b956135e360808a015161ffff1690565b976135f360a08b015161ffff1690565b60c0909a015115159a6136046133e5565b9c8d5260208d015260408c015260608b015260808a015260a089015261ffff1660c088015260e087015260ff1661010086015260ff1661012085015261ffff1661014084015261ffff16610160830152151561018082015290565b61367991945060203d602011611d3757611d288183611459565b925f6135a3565b613591945061369d602091823d8411611d3757611d288183611459565b9450613566565b6136b99192503d805f833e6122668183611459565b905f61351c565b6136d59194503d805f833e6122908183611459565b925f6134d3565b92505092506136fa915060803d6080116122ce576122be8183611459565b5f949192939461348a565b9091613713611b955f611853565b91602061371f60405190565b633bab7a8960e01b81526001600160a01b038316600482015293849060249082905afa928315611d3e575f93613882575b5061375d611b955f611853565b92602061376960405190565b635c83ef7760e11b81526001600160a01b038416600482015294859060249082905afa918215611d3e576137c4945f9361385f575b505f906137ad611b9583611853565b6040519687928391829163161ba78160e01b6121d9565b03915afa938415611d3e575f94613831575b5061026b9161260d61381161381f936137ee5f611438565b8911156138245761260d8961380c6138066001611438565b84611930565b611904565b9661380c6138066001611438565b925190565b61260d8961380c5f611438565b61381f9194509161260d61381161385461026b953d805f833e6122668183611459565b9693505050916137d6565b5f91935061387b9060203d602011611d3757611d288183611459565b929061379e565b61389c91935060203d602011611d3757611d288183611459565b915f613750565b156138aa57565b60405162461bcd60e51b815260206004820152600a60248201526927b7363c9037bbb732b960b11b6044820152606490fd5b610260906138f76138f06104966001611853565b33146138a3565b61399b565b61049661026b61026b9290565b61026b906138fc565b1561391957565b60405162461bcd60e51b815260206004820152601860248201527f496e76616c6964207374616b696e6720636f6e747261637400000000000000006044820152606490fd5b9061396e61026b6139979261138d565b825473ffffffffffffffffffffffffffffffffffffffff19166001600160a01b03919091161790565b9055565b6139d1906139bf6139ae6104965f613909565b6001600160a01b0383161415613912565b611b956139cb8261138d565b5f61395e565b7f6397f5b135542bb3f477cb346cfab5abdec1251d08dc8f8d4efb4ffe122ea0bf6139fb60405190565b5f90a2565b610260906138dc565b613a15611b955f611853565b6080613a2060405190565b636386c1c760e01b81526001600160a01b038416600482015291829060249082905afa908115611d3e575f91613c90575b50613a5b81612b56565b613a6482612b56565b90613a6e83612b56565b91613a7884612b56565b90613a8285612b56565b955f9485809481938290613a955f611438565b8b5b811015613c4b57613aaa611b955f611853565b6080613ab560405190565b918290630c0e220b60e31b82528180613ad28789600484016123e1565b03915afa908115611d3e578a918f915f91613c2b575b50613af25f612421565b6001600160401b03821603613b2a57505050808b613b0f90612f21565b9b613b1a908c61159f565b52613a97906001015b9050613a95565b613b3662278d00612421565b6001600160401b03821603613b665750508161237a613a9793613045613b5f613b23959e612f21565b9d8d61159f565b909150613b756276a700612421565b6001600160401b03821603613ba4575050613b238161237a613a9793613045613b9d8c612f21565b9b8b61159f565b613bb062ed4e00612421565b6001600160401b03821603613bdf575050613b238161237a613a9793613045613bd88a612f21565b998961159f565b613bef6126286301e13380612421565b14613c02575b50613a9790600101613b23565b9281613c22613a979361304584613c1c613b239691612f21565b9861159f565b9150508c613bf5565b613c43915060803d81116126d7576126c48183611459565b925050613ae8565b509950949793613c74613c8897613c6d613c7b949d97613c82979f9b8e6151b4565b9a8c6151b4565b9b8a6151b4565b98886151b4565b956151b4565b919493929190565b613ca9915060803d6080116122ce576122be8183611459565b509150613a51565b905f808093613cc2611b955f611853565b6080613ccd60405190565b636386c1c760e01b81526001600160a01b038416600482015291829060249082905afa8015611d3e575f955f925f92613e39575b50613d0b5f611438565b955b82871015613e2c57613d21611b955f611853565b6080613d2c60405190565b918290630c0e220b60e31b82528180613d498d8c600484016123e1565b03915afa8015611d3e575f915f905f92613dfb575b5061026b612604613d6e926123fe565b42109081613ddf575b613d836126285f612421565b03613da65750613da09161260d613d999261243a565b9660010190565b95613d0d565b9197969115613dc657613da09161260d613dbf9261243a565b9560010190565b613da091969961260d613dd89261243a565b9860010190565b9050613dea5f612421565b6001600160401b0382161190613d77565b612604935061026b9250613d6e9150613e219060803d81116126d7576126c48183611459565b945050915092613d5e565b9697929691955090939250565b91509550613e56915060803d6080116122ce576122be8183611459565b9690919296613d01565b613e6c611b955f611853565b6020613e7760405190565b6328136b1f60e11b815291829060049082905afa908115611d3e575f91613f5b575b5090613ea7611b955f611853565b6020613eb260405190565b63c9f8234f60e01b815291829060049082905afa908115611d3e575f91613f3c575b50613ee1611b955f611853565b6020613eec60405190565b6337cfdcc560e11b815291829060049082905afa908115611d3e575f91613f1d575b50613f185f611438565b908193565b613f36915060203d602011611d3757611d288183611459565b5f613f0e565b613f55915060203d602011611d3757611d288183611459565b5f613ed4565b613f74915060203d602011611d3757611d288183611459565b5f613e99565b905f613f88611b955f611853565b916080613f9460405190565b636386c1c760e01b81526001600160a01b038616600482015293849060249082905afa928315611d3e575f936141aa575b50613fcf5f611438565b831461419d57613fe1611b955f611853565b906020613fed60405190565b6364ab867560e01b81526001600160a01b038716600482015292839060249082905afa918215611d3e575f9261417c575b50829161402a5f611438565b855b8110156140c95761404f608082614045611b955f611853565b8a6125c060405190565b03915afa8015611d3e5761406a915f916140a9575b506123fe565b428110614082575b5061402c906001015b905061402a565b6140a161409b61402c93969761260d61407b9442612b04565b96612f21565b949150614072565b6140c1915060803d81116126d7576126c48183611459565b505090614064565b509291935093506140d95f611438565b8314801561416b575b61415857614117926140f391611930565b90816141016119365f611438565b1461413f575b611c2c90611c2662015180611438565b61412a614124601e611438565b82611904565b9161320561413961016d611438565b83611904565b9050611c2c61415062015180611438565b919050614107565b5050506141645f611438565b9081908290565b506141755f611438565b81146140e2565b61419691925060203d602011611d3757611d288183611459565b905f61401e565b925050506141645f611438565b6141c491935060803d6080116122ce576122be8183611459565b50939150613fc5565b6141d5611d95565b905f611dab565b61026b6141cd565b6141ec6141dc565b506141f9611b955f611853565b90608061420560405190565b636386c1c760e01b81526001600160a01b038316600482015292839060249082905afa8015611d3e575f905f935f91614370575b50614246611b955f611853565b925f61425160405190565b635f9bddb560e11b81526001600160a01b038316600482015294859060249082905afa908115611d3e57614294945f9261435257505f906137ad611b9583611853565b03915afa938415611d3e575f95614321614333946143176142c96142c461026b9a61432c978d9161433e57505190565b611889565b916143106142dc604089015161ffff1690565b956143096142fa60806142f060208d015190565b9b015161ffff1690565b9b614303611d95565b9e8f0152565b60208d0152565b60408b0152565b60ff166060890152565b61ffff166080870152565b60a0850152565b61ffff1660c0830152565b6127e691503d808f833e6122668183611459565b5f919250614369903d8084833e6122908183611459565b919061379e565b91505061438d91925060803d6080116122ce576122be8183611459565b93929193614239565b61026b60a061147f565b6143a8614396565b905f825260208080808086015f611dc2565b61026b6143a0565b6143ca6143ba565b506143d7611b955f611853565b60806143e260405190565b636386c1c760e01b81526001600160a01b038416600482015291829060249082905afa8015611d3e575f915f916144da575b50602061443f9293614428611b955f611853565b60405194859283918291633bab7a8960e01b6121d9565b03915afa908115611d3e5761026b925f926144b5575b50610f9590610f8e6144678487612414565b6144705f611438565b8711156144a357610f8761449188611c2c61448b6064611438565b89611904565b955b610f8061449e614396565b998a52565b610f876144af5f611438565b95614493565b610f959192506144d39060203d602011611d3757611d288183611459565b9190614455565b61443f9250602091506144fb9060803d6080116122ce576122be8183611459565b5092505091614414565b5f5b82811061451357505050565b60209061451e6143ba565b8184015201614507565b9061026061453861152a846114aa565b601f190160208401614505565b61026b9051610256565b61026b90516105a4565b61026b61026b61026b9261ffff1690565b9061027790610256565b90610277906105a4565b61458a611b955f611853565b5f61459460405190565b63161ba78160e01b81526001600160a01b038416600482015291829060249082905afa908115611d3e575f9161472a575b506145ff60206145db6145d6845190565b614528565b936145e8611b955f611853565b60405193849283918291633bab7a8960e01b6121d9565b03915afa908115611d3e575f9161470b575b5061461b5f611438565b61462661026b845190565b8110156133df57614637818461159f565b5161464190614545565b61464b828561159f565b516020015161ffff1661465e838661159f565b5160400161466b9061454f565b614675848761159f565b5160a00151151590614687858861159f565b516020015161ffff1661469990614559565b6146a39087611904565b6146ae612710611438565b6146b791611930565b926146c0614396565b946146cb908661456a565b61ffff1660208501526146e19060408501614574565b1515606083015260808201526146f7828661159f565b52614702818561159f565b5060010161461b565b614724915060203d602011611d3757611d288183611459565b5f614611565b61473e91503d805f833e6122668183611459565b5f6145c5565b906020828203126102255761026b91611fdd565b6020614793916147655f90565b50614772611b955f611853565b6040519384928391829163f154a54960e01b83526004830190815260200190565b03915afa908115611d3e575f916147ba575b50809161026b6147b48361521c565b926152d5565b6147dc915060203d6020116147e2575b6147d48183611459565b810190614744565b5f6147a5565b503d6147ca565b5f5b8281106147f757505050565b6020906148026141dc565b81840152016147eb565b9061026061481c61152a846114aa565b601f1901602084016147e9565b5f61485a91614836606090565b50614843611b9583611853565b6040519384928391829163161ba78160e01b6121d9565b03915afa908115611d3e575f916149af575b5061487d614878825190565b61480c565b906148875f611438565b61489261026b835190565b8110156149aa576148a3818361159f565b516148ad90614545565b6148b7828461159f565b516020015161ffff166148ca838561159f565b516040016148d79061454f565b6148e1848661159f565b51606001516001600160401b03166148f9858761159f565b51608001516001600160401b031690614912868861159f565b5160a00151151592614924878961159f565b516040016149319061454f565b61493a9061521c565b94614943611d95565b9661494e908861456a565b61ffff1660208701526149649060408701614574565b6001600160401b031660608501526001600160401b03166080840152151560a083015260c0820152614996828561159f565b526149a1818461159f565b50600101614887565b505090565b6149c391503d805f833e6122668183611459565b5f61486c565b6149d5611b955f611853565b9060806149e160405190565b636386c1c760e01b81526001600160a01b038316600482015292839060249082905afa918215611d3e575f92614c28575b50614a25614a206005611438565b612b56565b92614a2f5f611438565b835b811015614c2257614a44611b955f611853565b906080614a5060405190565b928390630c0e220b60e31b82528180614a6d868a600484016123e1565b03915afa908115611d3e57614a319287614adb935f925f91614bfd575b50614a945f612421565b6001600160401b03821603614ae2575050614ac9614ab461237a9261243a565b6129b96127e6614ac35f611438565b8c61159f565b613045614ad55f611438565b8a61159f565b9050614a2f565b614aee62278d00612421565b6001600160401b03821603614b2b5750613045614ad5611d5d614b1361237a9561243a565b6129b96127e6600196614b2588611438565b9061159f565b614b376276a700612421565b6001600160401b03821603614b6e5750613045614ad5611d5d614b5c61237a9561243a565b6129b96127e6600296614b2588611438565b614b7a62ed4e00612421565b6001600160401b03821603614bb15750613045614ad5611d5d614b9f61237a9561243a565b6129b96127e6600396614b2588611438565b614bc16126286301e13380612421565b14614bcf575b505060010190565b613045614ad5611d5d614be4614bf69561243a565b6129b96127e6600496614b2588611438565b5f87614bc7565b9050614c1891925060803d81116126d7576126c48183611459565b9150929192614a8a565b50915050565b614c4291925060803d6080116122ce576122be8183611459565b50929150614a12565b61026090614c5f6138f06104966001611853565b614ca2565b15614c6b57565b60405162461bcd60e51b815260206004820152600f60248201526e496e76616c6964206164647265737360881b6044820152606490fd5b614cc2614cb16104965f613909565b6001600160a01b0383161415614c64565b614ce3614cdd614cd26001611853565b611b9584600161395e565b9161138d565b907f8be0079c531659141344cd1fd0a4f28419497f9722a3daafe3b4186f6b6457e0614d0e60405190565b5f90a3565b61026090614c4b565b61026b604061147f565b614d2e614d1c565b905f82525f6020830152565b61026b614d26565b614d4a614d3a565b50614d57611b955f611853565b5f614d6160405190565b634b1d06d760e01b815291829060049082905afa8015611d3e57614d8a915f91614da057505190565b614d956114bc614d1c565b61026b426020830152565b6127e691503d805f833e612ccc8183611459565b906020828203126102255761026b91611ee5565b602081019291610260919061026e565b906020828203126102255761026b91611eba565b90614df56114ef565b50614e02611b955f611853565b906020614e0e60405190565b928390634c94bb5560e11b82528180614e2a8860048301614dc8565b03915afa918215611d3e575f92614ee9575b50614e49611b955f611853565b6020614e5460405190565b9182906361fbc71d60e11b82528180614e708960048301614dc8565b03915afa8015611d3e5761026b93610bcf925f92614eb4575b50614ea990614ea0614e996114c1565b978861456a565b15156020870152565b61ffff166040850152565b614ea9919250614edb9060203d602011614ee2575b614ed38183611459565b810190614dd8565b9190614e89565b503d614ec9565b614f0c91925060203d602011614f13575b614f048183611459565b810190614db4565b905f614e3c565b503d614efa565b614f246008611559565b67333635204461797360c01b602082015290565b61026b614f1a565b614f4a6008611559565b67313830204461797360c01b602082015290565b61026b614f40565b614f706007611559565b663930204461797360c81b602082015290565b61026b614f66565b614f956007611559565b663330204461797360c81b602082015290565b61026b614f8b565b614fba6008611559565b67466c657869626c6560c01b602082015290565b61026b614fb0565b608082614ffc92614fe561282d565b50614ff2611b955f611853565b906125c060405190565b03915afa8015611d3e575f5f5f935f9361518a575b5061501b906123fe565b615024836123fe565b61502e8183612414565b91824210948561516e575b6060906150455f612421565b6001600160401b038216036150bf575050615067615061614fce565b9461243a565b95615071906123fe565b9085159661507d6127ea565b988952602089015261508e5f611438565b60408901526060880152608087015260a086015260c085015260e08401521515610100830152151561012082015290565b6150cb62278d00612421565b6001600160401b038216036150e7575050615067615061614fa8565b6150f36276a700612421565b6001600160401b0382160361510f575050615067615061614f83565b61511b62ed4e00612421565b6001600160401b03821603615137575050615067615061614f5e565b61514a6126286301e13380979397612421565b14615159575b6150679061243a565b9350615067615166614f38565b949050615150565b94506151795f612421565b6001600160401b0386161194615039565b91505061501b92506151ab915060803d6080116126d7576126c48183611459565b92919093615011565b919291906151c184612858565b926151cb5f611438565b855b8110156152145761520d816151f16151eb6127e66151cd958861159f565b87614fd6565b6151fb828961159f565b52615206818861159f565b5060010190565b90506151cb565b509350505090565b6152255f6105a4565b61522e826105a4565b146152cb5761523d60016105a4565b615246826105a4565b146152bf5761525560026105a4565b61525e826105a4565b146152b35761526d60036105a4565b615276826105a4565b146152a75761528e61528860046105a4565b916105a4565b1461529c5761026b5f611438565b61026b611f40611438565b5061026b610fa0611438565b5061026b6107d0611438565b5061026b6103e8611438565b5061026b5f611438565b6152de5f6105a4565b6152e7826105a4565b1461537a576152f660016105a4565b6152ff826105a4565b1461536f5761530e60026105a4565b615317826105a4565b146153645761532660036105a4565b61532f826105a4565b146153595761534161528860046105a4565b1461534f5761026b5f611889565b61026b600a611889565b5061026b6009611889565b5061026b6007611889565b5061026b6005611889565b5061026b600361188956fea2646970667358221220f3f4fd805e4b8c01d78bc295731dbc4663edcec85b95c4df7068c4c642775be564736f6c634300081c0033",
  "linkReferences": {},
  "deployedLinkReferences": {}
}