{
  "_format": "hh-sol-artifact-1",
  "contractName": "GameifiedMarketplaceQuests",
  "sourceName": "contracts/Marketplace/GameifiedMarketplaceQuests.sol",
  "abi": [
    {
      "inputs": [
        {
          "internalType": "address",
          "name": "_coreAddress",
          "type": "address"
        }
      ],
      "stateMutability": "nonpayable",
      "type": "constructor"
    },
    {
      "inputs": [],
      "name": "AlreadyCompleted",
      "type": "error"
    },
    {
      "inputs": [],
      "name": "InvalidAddress",
      "type": "error"
    },
    {
      "inputs": [],
      "name": "InvalidMetadata",
      "type": "error"
    },
    {
      "inputs": [],
      "name": "InvalidRequirement",
      "type": "error"
    },
    {
      "inputs": [],
      "name": "InvalidXPReward",
      "type": "error"
    },
    {
      "inputs": [],
      "name": "LevelingContractNotSet",
      "type": "error"
    },
    {
      "inputs": [],
      "name": "QuestNotActive",
      "type": "error"
    },
    {
      "inputs": [],
      "name": "QuestNotFound",
      "type": "error"
    },
    {
      "inputs": [],
      "name": "RequirementNotMet",
      "type": "error"
    },
    {
      "anonymous": false,
      "inputs": [
        {
          "indexed": true,
          "internalType": "address",
          "name": "oldCore",
          "type": "address"
        },
        {
          "indexed": true,
          "internalType": "address",
          "name": "newCore",
          "type": "address"
        }
      ],
      "name": "CoreContractUpdated",
      "type": "event"
    },
    {
      "anonymous": false,
      "inputs": [
        {
          "indexed": true,
          "internalType": "address",
          "name": "oldLeveling",
          "type": "address"
        },
        {
          "indexed": true,
          "internalType": "address",
          "name": "newLeveling",
          "type": "address"
        }
      ],
      "name": "LevelingContractUpdated",
      "type": "event"
    },
    {
      "anonymous": false,
      "inputs": [
        {
          "indexed": false,
          "internalType": "address",
          "name": "account",
          "type": "address"
        }
      ],
      "name": "Paused",
      "type": "event"
    },
    {
      "anonymous": false,
      "inputs": [
        {
          "indexed": true,
          "internalType": "address",
          "name": "user",
          "type": "address"
        },
        {
          "indexed": true,
          "internalType": "uint256",
          "name": "questId",
          "type": "uint256"
        },
        {
          "indexed": false,
          "internalType": "uint256",
          "name": "xpReward",
          "type": "uint256"
        }
      ],
      "name": "QuestCompleted",
      "type": "event"
    },
    {
      "anonymous": false,
      "inputs": [
        {
          "indexed": true,
          "internalType": "uint256",
          "name": "questId",
          "type": "uint256"
        },
        {
          "indexed": false,
          "internalType": "enum GameifiedMarketplaceQuests.QuestType",
          "name": "questType",
          "type": "uint8"
        },
        {
          "indexed": false,
          "internalType": "string",
          "name": "title",
          "type": "string"
        },
        {
          "indexed": false,
          "internalType": "uint256",
          "name": "requirement",
          "type": "uint256"
        },
        {
          "indexed": false,
          "internalType": "uint256",
          "name": "xpReward",
          "type": "uint256"
        }
      ],
      "name": "QuestCreated",
      "type": "event"
    },
    {
      "anonymous": false,
      "inputs": [
        {
          "indexed": true,
          "internalType": "uint256",
          "name": "questId",
          "type": "uint256"
        }
      ],
      "name": "QuestDeactivated",
      "type": "event"
    },
    {
      "anonymous": false,
      "inputs": [
        {
          "indexed": true,
          "internalType": "address",
          "name": "user",
          "type": "address"
        },
        {
          "indexed": true,
          "internalType": "uint256",
          "name": "questId",
          "type": "uint256"
        },
        {
          "indexed": false,
          "internalType": "uint256",
          "name": "progress",
          "type": "uint256"
        }
      ],
      "name": "QuestProgressUpdated",
      "type": "event"
    },
    {
      "anonymous": false,
      "inputs": [
        {
          "indexed": true,
          "internalType": "bytes32",
          "name": "role",
          "type": "bytes32"
        },
        {
          "indexed": true,
          "internalType": "bytes32",
          "name": "previousAdminRole",
          "type": "bytes32"
        },
        {
          "indexed": true,
          "internalType": "bytes32",
          "name": "newAdminRole",
          "type": "bytes32"
        }
      ],
      "name": "RoleAdminChanged",
      "type": "event"
    },
    {
      "anonymous": false,
      "inputs": [
        {
          "indexed": true,
          "internalType": "bytes32",
          "name": "role",
          "type": "bytes32"
        },
        {
          "indexed": true,
          "internalType": "address",
          "name": "account",
          "type": "address"
        },
        {
          "indexed": true,
          "internalType": "address",
          "name": "sender",
          "type": "address"
        }
      ],
      "name": "RoleGranted",
      "type": "event"
    },
    {
      "anonymous": false,
      "inputs": [
        {
          "indexed": true,
          "internalType": "bytes32",
          "name": "role",
          "type": "bytes32"
        },
        {
          "indexed": true,
          "internalType": "address",
          "name": "account",
          "type": "address"
        },
        {
          "indexed": true,
          "internalType": "address",
          "name": "sender",
          "type": "address"
        }
      ],
      "name": "RoleRevoked",
      "type": "event"
    },
    {
      "anonymous": false,
      "inputs": [
        {
          "indexed": true,
          "internalType": "address",
          "name": "user",
          "type": "address"
        },
        {
          "indexed": false,
          "internalType": "uint256",
          "name": "newTotal",
          "type": "uint256"
        }
      ],
      "name": "SocialActionRecorded",
      "type": "event"
    },
    {
      "anonymous": false,
      "inputs": [
        {
          "indexed": true,
          "internalType": "address",
          "name": "oldStaking",
          "type": "address"
        },
        {
          "indexed": true,
          "internalType": "address",
          "name": "newStaking",
          "type": "address"
        }
      ],
      "name": "StakingContractUpdated",
      "type": "event"
    },
    {
      "anonymous": false,
      "inputs": [
        {
          "indexed": false,
          "internalType": "address",
          "name": "account",
          "type": "address"
        }
      ],
      "name": "Unpaused",
      "type": "event"
    },
    {
      "inputs": [],
      "name": "ADMIN_ROLE",
      "outputs": [
        {
          "internalType": "bytes32",
          "name": "",
          "type": "bytes32"
        }
      ],
      "stateMutability": "view",
      "type": "function"
    },
    {
      "inputs": [],
      "name": "DEFAULT_ADMIN_ROLE",
      "outputs": [
        {
          "internalType": "bytes32",
          "name": "",
          "type": "bytes32"
        }
      ],
      "stateMutability": "view",
      "type": "function"
    },
    {
      "inputs": [
        {
          "internalType": "uint256",
          "name": "_questId",
          "type": "uint256"
        }
      ],
      "name": "completeQuest",
      "outputs": [],
      "stateMutability": "nonpayable",
      "type": "function"
    },
    {
      "inputs": [],
      "name": "coreContractAddress",
      "outputs": [
        {
          "internalType": "address",
          "name": "",
          "type": "address"
        }
      ],
      "stateMutability": "view",
      "type": "function"
    },
    {
      "inputs": [
        {
          "internalType": "enum GameifiedMarketplaceQuests.QuestType",
          "name": "_questType",
          "type": "uint8"
        },
        {
          "internalType": "string",
          "name": "_title",
          "type": "string"
        },
        {
          "internalType": "string",
          "name": "_description",
          "type": "string"
        },
        {
          "internalType": "uint256",
          "name": "_requirement",
          "type": "uint256"
        },
        {
          "internalType": "uint256",
          "name": "_xpReward",
          "type": "uint256"
        }
      ],
      "name": "createQuest",
      "outputs": [
        {
          "internalType": "uint256",
          "name": "",
          "type": "uint256"
        }
      ],
      "stateMutability": "nonpayable",
      "type": "function"
    },
    {
      "inputs": [
        {
          "internalType": "uint256",
          "name": "_questId",
          "type": "uint256"
        }
      ],
      "name": "deactivateQuest",
      "outputs": [],
      "stateMutability": "nonpayable",
      "type": "function"
    },
    {
      "inputs": [],
      "name": "getAllActiveQuests",
      "outputs": [
        {
          "components": [
            {
              "internalType": "uint256",
              "name": "questId",
              "type": "uint256"
            },
            {
              "internalType": "enum GameifiedMarketplaceQuests.QuestType",
              "name": "questType",
              "type": "uint8"
            },
            {
              "internalType": "string",
              "name": "title",
              "type": "string"
            },
            {
              "internalType": "string",
              "name": "description",
              "type": "string"
            },
            {
              "internalType": "uint256",
              "name": "requirement",
              "type": "uint256"
            },
            {
              "internalType": "uint256",
              "name": "xpReward",
              "type": "uint256"
            },
            {
              "internalType": "bool",
              "name": "active",
              "type": "bool"
            },
            {
              "internalType": "uint256",
              "name": "createdAt",
              "type": "uint256"
            }
          ],
          "internalType": "struct GameifiedMarketplaceQuests.Quest[]",
          "name": "",
          "type": "tuple[]"
        }
      ],
      "stateMutability": "view",
      "type": "function"
    },
    {
      "inputs": [
        {
          "internalType": "uint256",
          "name": "_questId",
          "type": "uint256"
        }
      ],
      "name": "getQuest",
      "outputs": [
        {
          "components": [
            {
              "internalType": "uint256",
              "name": "questId",
              "type": "uint256"
            },
            {
              "internalType": "enum GameifiedMarketplaceQuests.QuestType",
              "name": "questType",
              "type": "uint8"
            },
            {
              "internalType": "string",
              "name": "title",
              "type": "string"
            },
            {
              "internalType": "string",
              "name": "description",
              "type": "string"
            },
            {
              "internalType": "uint256",
              "name": "requirement",
              "type": "uint256"
            },
            {
              "internalType": "uint256",
              "name": "xpReward",
              "type": "uint256"
            },
            {
              "internalType": "bool",
              "name": "active",
              "type": "bool"
            },
            {
              "internalType": "uint256",
              "name": "createdAt",
              "type": "uint256"
            }
          ],
          "internalType": "struct GameifiedMarketplaceQuests.Quest",
          "name": "",
          "type": "tuple"
        }
      ],
      "stateMutability": "view",
      "type": "function"
    },
    {
      "inputs": [
        {
          "internalType": "enum GameifiedMarketplaceQuests.QuestType",
          "name": "_questType",
          "type": "uint8"
        }
      ],
      "name": "getQuestsByType",
      "outputs": [
        {
          "components": [
            {
              "internalType": "uint256",
              "name": "questId",
              "type": "uint256"
            },
            {
              "internalType": "enum GameifiedMarketplaceQuests.QuestType",
              "name": "questType",
              "type": "uint8"
            },
            {
              "internalType": "string",
              "name": "title",
              "type": "string"
            },
            {
              "internalType": "string",
              "name": "description",
              "type": "string"
            },
            {
              "internalType": "uint256",
              "name": "requirement",
              "type": "uint256"
            },
            {
              "internalType": "uint256",
              "name": "xpReward",
              "type": "uint256"
            },
            {
              "internalType": "bool",
              "name": "active",
              "type": "bool"
            },
            {
              "internalType": "uint256",
              "name": "createdAt",
              "type": "uint256"
            }
          ],
          "internalType": "struct GameifiedMarketplaceQuests.Quest[]",
          "name": "",
          "type": "tuple[]"
        }
      ],
      "stateMutability": "view",
      "type": "function"
    },
    {
      "inputs": [
        {
          "internalType": "bytes32",
          "name": "role",
          "type": "bytes32"
        }
      ],
      "name": "getRoleAdmin",
      "outputs": [
        {
          "internalType": "bytes32",
          "name": "",
          "type": "bytes32"
        }
      ],
      "stateMutability": "view",
      "type": "function"
    },
    {
      "inputs": [
        {
          "internalType": "address",
          "name": "_user",
          "type": "address"
        }
      ],
      "name": "getUserCompletedQuests",
      "outputs": [
        {
          "internalType": "uint256[]",
          "name": "",
          "type": "uint256[]"
        }
      ],
      "stateMutability": "view",
      "type": "function"
    },
    {
      "inputs": [
        {
          "internalType": "address",
          "name": "_user",
          "type": "address"
        },
        {
          "internalType": "uint256",
          "name": "_questId",
          "type": "uint256"
        }
      ],
      "name": "getUserQuestProgress",
      "outputs": [
        {
          "components": [
            {
              "internalType": "uint256",
              "name": "questId",
              "type": "uint256"
            },
            {
              "internalType": "uint256",
              "name": "currentProgress",
              "type": "uint256"
            },
            {
              "internalType": "bool",
              "name": "completed",
              "type": "bool"
            },
            {
              "internalType": "uint256",
              "name": "completedAt",
              "type": "uint256"
            }
          ],
          "internalType": "struct GameifiedMarketplaceQuests.UserQuestProgress",
          "name": "",
          "type": "tuple"
        }
      ],
      "stateMutability": "view",
      "type": "function"
    },
    {
      "inputs": [
        {
          "internalType": "address",
          "name": "_user",
          "type": "address"
        },
        {
          "internalType": "enum GameifiedMarketplaceQuests.QuestType",
          "name": "_questType",
          "type": "uint8"
        }
      ],
      "name": "getUserQuestProgressByType",
      "outputs": [
        {
          "internalType": "uint256[]",
          "name": "questIds",
          "type": "uint256[]"
        },
        {
          "components": [
            {
              "internalType": "uint256",
              "name": "questId",
              "type": "uint256"
            },
            {
              "internalType": "uint256",
              "name": "currentProgress",
              "type": "uint256"
            },
            {
              "internalType": "bool",
              "name": "completed",
              "type": "bool"
            },
            {
              "internalType": "uint256",
              "name": "completedAt",
              "type": "uint256"
            }
          ],
          "internalType": "struct GameifiedMarketplaceQuests.UserQuestProgress[]",
          "name": "progresses",
          "type": "tuple[]"
        }
      ],
      "stateMutability": "view",
      "type": "function"
    },
    {
      "inputs": [
        {
          "internalType": "address",
          "name": "_user",
          "type": "address"
        }
      ],
      "name": "getUserSocialActions",
      "outputs": [
        {
          "internalType": "uint256",
          "name": "",
          "type": "uint256"
        }
      ],
      "stateMutability": "view",
      "type": "function"
    },
    {
      "inputs": [
        {
          "internalType": "bytes32",
          "name": "role",
          "type": "bytes32"
        },
        {
          "internalType": "address",
          "name": "account",
          "type": "address"
        }
      ],
      "name": "grantRole",
      "outputs": [],
      "stateMutability": "nonpayable",
      "type": "function"
    },
    {
      "inputs": [
        {
          "internalType": "bytes32",
          "name": "role",
          "type": "bytes32"
        },
        {
          "internalType": "address",
          "name": "account",
          "type": "address"
        }
      ],
      "name": "hasRole",
      "outputs": [
        {
          "internalType": "bool",
          "name": "",
          "type": "bool"
        }
      ],
      "stateMutability": "view",
      "type": "function"
    },
    {
      "inputs": [],
      "name": "levelingContractAddress",
      "outputs": [
        {
          "internalType": "address",
          "name": "",
          "type": "address"
        }
      ],
      "stateMutability": "view",
      "type": "function"
    },
    {
      "inputs": [],
      "name": "pause",
      "outputs": [],
      "stateMutability": "nonpayable",
      "type": "function"
    },
    {
      "inputs": [],
      "name": "paused",
      "outputs": [
        {
          "internalType": "bool",
          "name": "",
          "type": "bool"
        }
      ],
      "stateMutability": "view",
      "type": "function"
    },
    {
      "inputs": [
        {
          "internalType": "uint256",
          "name": "",
          "type": "uint256"
        }
      ],
      "name": "quests",
      "outputs": [
        {
          "internalType": "uint256",
          "name": "questId",
          "type": "uint256"
        },
        {
          "internalType": "enum GameifiedMarketplaceQuests.QuestType",
          "name": "questType",
          "type": "uint8"
        },
        {
          "internalType": "string",
          "name": "title",
          "type": "string"
        },
        {
          "internalType": "string",
          "name": "description",
          "type": "string"
        },
        {
          "internalType": "uint256",
          "name": "requirement",
          "type": "uint256"
        },
        {
          "internalType": "uint256",
          "name": "xpReward",
          "type": "uint256"
        },
        {
          "internalType": "bool",
          "name": "active",
          "type": "bool"
        },
        {
          "internalType": "uint256",
          "name": "createdAt",
          "type": "uint256"
        }
      ],
      "stateMutability": "view",
      "type": "function"
    },
    {
      "inputs": [
        {
          "internalType": "address",
          "name": "_user",
          "type": "address"
        }
      ],
      "name": "recordSocialAction",
      "outputs": [],
      "stateMutability": "nonpayable",
      "type": "function"
    },
    {
      "inputs": [
        {
          "internalType": "bytes32",
          "name": "role",
          "type": "bytes32"
        },
        {
          "internalType": "address",
          "name": "account",
          "type": "address"
        }
      ],
      "name": "renounceRole",
      "outputs": [],
      "stateMutability": "nonpayable",
      "type": "function"
    },
    {
      "inputs": [
        {
          "internalType": "bytes32",
          "name": "role",
          "type": "bytes32"
        },
        {
          "internalType": "address",
          "name": "account",
          "type": "address"
        }
      ],
      "name": "revokeRole",
      "outputs": [],
      "stateMutability": "nonpayable",
      "type": "function"
    },
    {
      "inputs": [
        {
          "internalType": "address",
          "name": "_coreAddress",
          "type": "address"
        }
      ],
      "name": "setCoreContract",
      "outputs": [],
      "stateMutability": "nonpayable",
      "type": "function"
    },
    {
      "inputs": [
        {
          "internalType": "address",
          "name": "_levelingAddress",
          "type": "address"
        }
      ],
      "name": "setLevelingContract",
      "outputs": [],
      "stateMutability": "nonpayable",
      "type": "function"
    },
    {
      "inputs": [
        {
          "internalType": "address",
          "name": "_stakingAddress",
          "type": "address"
        }
      ],
      "name": "setStakingContract",
      "outputs": [],
      "stateMutability": "nonpayable",
      "type": "function"
    },
    {
      "inputs": [],
      "name": "stakingContractAddress",
      "outputs": [
        {
          "internalType": "address",
          "name": "",
          "type": "address"
        }
      ],
      "stateMutability": "view",
      "type": "function"
    },
    {
      "inputs": [
        {
          "internalType": "bytes4",
          "name": "interfaceId",
          "type": "bytes4"
        }
      ],
      "name": "supportsInterface",
      "outputs": [
        {
          "internalType": "bool",
          "name": "",
          "type": "bool"
        }
      ],
      "stateMutability": "view",
      "type": "function"
    },
    {
      "inputs": [],
      "name": "unpause",
      "outputs": [],
      "stateMutability": "nonpayable",
      "type": "function"
    },
    {
      "inputs": [
        {
          "internalType": "address",
          "name": "_user",
          "type": "address"
        },
        {
          "internalType": "uint256",
          "name": "_questId",
          "type": "uint256"
        }
      ],
      "name": "updateQuestProgress",
      "outputs": [],
      "stateMutability": "nonpayable",
      "type": "function"
    },
    {
      "inputs": [
        {
          "internalType": "address",
          "name": "",
          "type": "address"
        },
        {
          "internalType": "uint256",
          "name": "",
          "type": "uint256"
        }
      ],
      "name": "userCompletedQuests",
      "outputs": [
        {
          "internalType": "uint256",
          "name": "",
          "type": "uint256"
        }
      ],
      "stateMutability": "view",
      "type": "function"
    },
    {
      "inputs": [
        {
          "internalType": "address",
          "name": "",
          "type": "address"
        },
        {
          "internalType": "uint256",
          "name": "",
          "type": "uint256"
        }
      ],
      "name": "userQuestProgress",
      "outputs": [
        {
          "internalType": "uint256",
          "name": "questId",
          "type": "uint256"
        },
        {
          "internalType": "uint256",
          "name": "currentProgress",
          "type": "uint256"
        },
        {
          "internalType": "bool",
          "name": "completed",
          "type": "bool"
        },
        {
          "internalType": "uint256",
          "name": "completedAt",
          "type": "uint256"
        }
      ],
      "stateMutability": "view",
      "type": "function"
    },
    {
      "inputs": [
        {
          "internalType": "address",
          "name": "",
          "type": "address"
        }
      ],
      "name": "userSocialActions",
      "outputs": [
        {
          "internalType": "uint256",
          "name": "",
          "type": "uint256"
        }
      ],
      "stateMutability": "view",
      "type": "function"
    }
  ],
  "bytecode": "0x60806040523461002a576100196100146100bf565b61015f565b604051612da86103138239612da890f35b5f80fd5b634e487b7160e01b5f52604160045260245ffd5b90601f01601f191681019081106001600160401b0382111761006357604052565b61002e565b9061007c61007560405190565b9283610042565b565b6001600160a01b031690565b90565b6001600160a01b0381160361002a57565b9050519061007c8261008d565b9060208282031261002a5761008a9161009e565b61008a6130bb803803806100d281610068565b9283398101906100ab565b61007e61008a61008a9290565b61008a906100dd565b61008a61008a61008a9290565b61008a5f6100f3565b906001600160a01b03905b9181191691161790565b61008a9061007e906001600160a01b031682565b61008a9061011e565b61008a90610132565b9061015461008a61015b9261013b565b8254610109565b9055565b610167610203565b61017361007e5f6100ea565b6001600160a01b038216146101c85761007c90610198610191610100565b3390610248565b6101c17fa49807205ce4d355092ef5a8a18f56e8913cf4a201fbe287825b095693c21775610191565b6008610144565b63e6c4247b60e01b5f908152600490fd5b61008a60016100f3565b905f1990610114565b906101fc61008a61015b926100f3565b82546101e3565b61020b61023d565b61007c6102166101d9565b60026101ec565b9060ff90610114565b9061023661008a61015b92151590565b825461021d565b61007c5f6001610226565b9061007c9161026a565b905b5f5260205260405f2090565b906102549061013b565b61027b61027783836102f3565b1590565b610283575050565b6102a2600161029d845f6102978682610252565b01610260565b610226565b6102bc6102b66102b0339390565b9361013b565b9161013b565b917f2f8788117e7eff1d82e926ec794901d17c78024a50270940304540a733656f0d6102e760405190565b5f90a4565b5460ff1690565b61008a915f61029761030d936103065f90565b5082610252565b6102ec56fe60806040526004361015610011575f80fd5b5f3560e01c806301ffc9a71461022057806309a077ff1461021b578063248a9ca3146102165780632e324b99146102115780632f2ff15d1461020c5780633535f48b1461020757806336568abe1461020257806338258252146101fd5780633f4ba83a146101f857806344886014146101f357806344dacb73146101ee57806347f72605146101e957806349f86f34146101e45780634a1a5989146101df578063528be0a9146101da5780635c975abb146101d557806375b238fc146101d05780637dbfe54c146101cb5780637f221734146101c65780638456cb59146101c157806391d14854146101bc5780639685391c146101b75780639dd373b9146101b2578063a217fddf146101ad578063af887456146101a8578063b0602c91146101a3578063bd07aabf1461019e578063c110165614610199578063c626669314610194578063d547741f1461018f578063e085f9801461018a578063e9d2821d146101855763f4f798490361022557610e91565b610e68565b610e31565b610c1f565b610c07565b610bee565b610bd3565b610bad565b610b7e565b610b63565b610b3a565b610b18565b610a5c565b610a44565b610a28565b610997565b610966565b61094b565b610933565b61091b565b6108f4565b6108bb565b61087c565b610752565b61073a565b610708565b6105db565b6105a6565b610554565b610516565b6104ae565b610460565b610266565b5f80fd5b6001600160e01b031981165b0361022557565b9050359061024982610229565b565b906020828203126102255761025f9161023c565b90565b9052565b346102255761029361028161027c36600461024b565b610eb8565b60405191829182901515815260200190565b0390f35b6005111561022557565b9050359061024982610297565b906020828203126102255761025f916102a1565b634e487b7160e01b5f52602160045260245ffd5b600511156102e057565b6102c2565b90610249826102d6565b61025f906102e5565b610262906102ef565b5f5b8381106103125750505f910152565b8181015183820152602001610303565b61034361034c60209361035693610337815190565b80835293849260200190565b95869101610301565b601f01601f191690565b0190565b805182529061025f9060e0806103a76103956101008501610383602089015160208801906102f8565b60408801518682036040880152610322565b60608701518582036060870152610322565b946103b760808201516080860152565b6103c660a082015160a0860152565b60c0818101511515908501525b0151910152565b9061025f9161035a565b906103fa6103f0835190565b8083529160200190565b908161040c6020830284019460200190565b925f915b83831061041f57505050505090565b9091929394602061044261043b838560019503875289516103da565b9760200190565b9301930191939290610410565b602080825261025f929101906103e4565b346102255761029361047b6104763660046102ae565b6110d1565b6040519182918261044f565b80610235565b9050359061024982610487565b906020828203126102255761025f9161048d565b34610225576102936104c96104c436600461049a565b611222565b6040515b9182918290815260200190565b6001600160a01b031690565b6001600160a01b038116610235565b90503590610249826104e6565b906020828203126102255761025f916104f5565b34610225576102936104c961052c366004610502565b611239565b91906040838203126102255761025f90602061054d828661048d565b94016104f5565b346102255761056d610567366004610531565b90611274565b604051005b5f91031261022557565b61025f916008021c6001600160a01b031690565b9061025f915461057c565b61025f5f6009610590565b34610225576105b6366004610572565b6102936105c161059b565b604051918291826001600160a01b03909116815260200190565b346102255761056d6105ee366004610531565b906112e7565b91906040838203126102255761025f90602061061082866104f5565b940161048d565b6104da61025f61025f926001600160a01b031690565b61025f90610617565b61025f9061062d565b9061064990610636565b5f5260205260405f2090565b61025f61025f61025f9290565b9061064990610655565b61025f9081565b61025f905461066c565b61025f905b60ff1690565b61025f905461067d565b906106a16106a692600561063f565b610662565b906106b082610673565b916106bd60018201610673565b9161025f60036106cf60028501610688565b9301610673565b610704610249946106fb6060949897956106f4608086019a5f870152565b6020850152565b15156040830152565b0152565b346102255761029361072461071e3660046105f4565b90610692565b9061073194929460405190565b948594856106d6565b346102255761074a366004610572565b61056d61132e565b346102255761056d610765366004610502565b611433565b91906040838203126102255761025f90602061078682866104f5565b94016102a1565b906107ad6107a661079c845190565b8084529260200190565b9260200190565b905f5b8181106107bd5750505090565b9091926107da6107d36001928651815260200190565b9460200190565b9291016107b0565b80518252610249919060609081906107ff60208201516020860152565b6040818101511515908501526103d3565b90610356816080936107e2565b9061082c6107a661079c845190565b905f5b81811061083c5750505090565b90919261084f6107d36001928651610810565b92910161082f565b604080825261025f93919261086e9184019061078d565b91602081840391015261081d565b346102255761089561088f36600461076a565b90611525565b906102936108a260405190565b92839283610857565b60808101929161024991906107e2565b34610225576102936108d76108d13660046105f4565b90611640565b604051918291826108ab565b602080825261025f9291019061035a565b346102255761029361090f61090a36600461049a565b61165b565b604051918291826108e3565b346102255761056d61092e366004610502565b611751565b346102255761056d61094636600461049a565b611b5f565b346102255761095b366004610572565b610293610281611b68565b3461022557610976366004610572565b6102935f516020612d535f395f51905f526104c9565b61025f5f600a610590565b34610225576109a7366004610572565b6102936105c161098c565b634e487b7160e01b5f52603260045260245ffd5b80548210156109e6576109de6001915f5260205f2090565b910201905f90565b6109b2565b61025f916008021c81565b9061025f91546109eb565b610a0c90600661063f565b80548210156102255761025f91610a22916109c6565b906109f6565b34610225576102936104c9610a3e3660046105f4565b90610a01565b3461022557610a54366004610572565b61056d611b93565b3461022557610293610281610a72366004610531565b90611b9b565b909182601f830112156102255781359167ffffffffffffffff831161022557602001926001830284011161022557565b909160a08284031261022557610abe83836102a1565b92602083013567ffffffffffffffff81116102255781610adf918501610a78565b92909360408101359167ffffffffffffffff831161022557610b068461025f948401610a78565b9390946080610610826060870161048d565b34610225576102936104c9610b2e366004610aa8565b9594909493919361206a565b346102255761056d610b4d366004610502565b6120f5565b61025f5f610655565b61025f610b52565b3461022557610b73366004610572565b6102936104c9610b5b565b3461022557610b8e366004610572565b61029361047b6120fe565b5f610ba861025f92600761063f565b6109f6565b34610225576102936104c9610bc3366004610502565b610b99565b61025f5f6008610590565b3461022557610be3366004610572565b6102936105c1610bc8565b346102255761056d610c013660046105f4565b90612271565b346102255761056d610c1a366004610502565b6122f6565b346102255761056d610c32366004610531565b9061231a565b634e487b7160e01b5f52602260045260245ffd5b9060016002830492168015610c6c575b6020831014610c6757565b610c38565b91607f1691610c5c565b80545f939291610c92610c8883610c4c565b8085529360200190565b9160018116908115610ce15750600114610cab57505050565b610cbc91929394505f5260205f2090565b915f925b818410610ccd5750500190565b805484840152602090930192600101610cc0565b92949550505060ff1916825215156020020190565b9061025f91610c76565b634e487b7160e01b5f52604160045260245ffd5b90601f01601f1916810190811067ffffffffffffffff821117610d3657604052565b610d00565b90610249610d5592610d4c60405190565b93848092610cf6565b0383610d14565b610d67906004610662565b90610d7182610673565b91610d7e60018201610688565b91610d8b60028301610d3b565b91610d9860038201610d3b565b91610da560048301610673565b91610db260058201610673565b9161025f60076106cf60068501610688565b9395610e21610e1960e0979b9a98610e0b8861070498610dfe6102499e99610df4610e289a5f6101008701960152565b60208d01906102f8565b8a820360408c0152610322565b9088820360608a0152610322565b9a6080870152565b60a0850152565b151560c0830152565b3461022557610293610e4c610e4736600461049a565b610d5c565b94610e5f98969894919493929360405190565b98899889610dc4565b346102255761056d610e7b36600461049a565b6123b8565b602080825261025f9291019061078d565b3461022557610293610eac610ea7366004610502565b612443565b60405191829182610e80565b637965db0b60e01b6001600160e01b0319821614908115610ed7575090565b61025f91506001600160e01b0319166301ffc9a760e01b1490565b634e487b7160e01b5f52601160045260245ffd5b5f198114610f145760010190565b610ef2565b90610249610f2660405190565b9283610d14565b67ffffffffffffffff8111610d365760208091020190565b90610f57610f5283610f2d565b610f19565b918252565b61025f610100610f19565b610f6f610f5c565b905f825260208080808080808089015f815201606081520160608152015f8152015f5b8152015f8152015f905250565b61025f610f67565b5f5b828110610fb557505050565b602090610fc0610f9f565b8184015201610fa9565b90610249610fe0610fda84610f45565b93610f2d565b601f190160208401610fa7565b90610ff6825190565b8110156109e6576020809102010190565b90610262906102e5565b906102496110c16007611022610f5c565b9461103361102f82610673565b8752565b61104b61104260018301610688565b60208801611007565b61106161105a60028301610d3b565b6040880152565b61107761107060038301610d3b565b6060880152565b61108d61108660048301610673565b6080880152565b6110a361109c60058301610673565b60a0880152565b6110bb6110b260068301610688565b151560c0880152565b01610673565b60e0840152565b61025f90611011565b906110dc600361245f565b6110e55f610655565b90815b818110156111635760048161110860066111028385610662565b01610688565b9182611138575b5050611123575b6001016110e8565b6110e8565b9161113061111e91610f06565b929050611116565b611149925060019161110291610662565b61115b611155876102e5565b916102e5565b14815f61110f565b50919061116f90610fca565b906111795f610655565b90815b845b81101561121357600461119660066111028484610662565b806111f1575b6111b1575b5061117e906001015b905061117c565b6111e982946111ce6111c961117e956111aa95610662565b6110c8565b6111d88289610fed565b526111e38188610fed565b50610f06565b9391506111a1565b5061120160016111028484610662565b61120d611155896102e5565b1461119c565b50935050905090565b90610649565b60016110bb61025f926112325f90565b505f61121c565b61124f61025f916112475f90565b50600761063f565b610673565b906102499161126a61126582611222565b612472565b906102499161247d565b9061024991611254565b1561128557565b60405162461bcd60e51b815260206004820152602f60248201527f416363657373436f6e74726f6c3a2063616e206f6e6c792072656e6f756e636560448201526e103937b632b9903337b91039b2b63360891b606482015280608481015b0390fd5b61024991906113086112f8336104da565b6001600160a01b0384161461127e565b6124e9565b6113235f516020612d535f395f51905f52612472565b61024961024961258c565b61024961130d565b610249906113505f516020612d535f395f51905f52612472565b6113ae565b6104da61025f61025f9290565b61025f90611355565b61025f906104da565b61025f905461136b565b906001600160a01b03905b9181191691161790565b906113a361025f6113aa92610636565b825461137e565b9055565b6113ba6104da5f611362565b6001600160a01b03821614611422576113ef6113e96113d9600a611374565b6113e484600a611393565b610636565b91610636565b907ff4cd839e90b0215ae51e284db309cbf46ce3dc719e4962f377203954110a941161141a60405190565b80805b0390a3565b63e6c4247b60e01b5f908152600490fd5b61024990611336565b369037565b90610249611451610fda84610f45565b601f19016020840161143c565b61025f6080610f19565b61147061145e565b905f8252602080808085015f610f92565b61025f611468565b5f5b82811061149757505050565b6020906114a2611481565b818401520161148b565b906102496114bc610fda84610f45565b601f190160208401611489565b9061024961151560036114da61145e565b946114e761102f82610673565b6114fd6114f660018301610673565b6020880152565b6110bb61150c60028301610688565b15156040880152565b6060840152565b61025f906114c9565b9091611531600361245f565b61153a5f610655565b91825b82811015611589576115556001611102836004610662565b611561611155886102e5565b14611574575b60010161153d565b61153d565b9261158161156f91610f06565b939050611567565b50909261159e61159884611441565b936114ac565b946115a85f610655565b92835b865b811015611636576115c46001611102836004610662565b6115d0611155856102e5565b146115e5575b6115ad906001015b90506115ab565b936115de61162d82611601886115fe6115ad968c610fed565b52565b611618611613896106a18a600561063f565b61151c565b611622828d610fed565b526111e3818c610fed565b959150506115d6565b5094505050509190565b61025f916106a161161392611653611481565b50600561063f565b611663610f9f565b506116726111c9826004610662565b90611689611685611681845190565b9290565b9190565b036116915790565b63629744f760e01b5f908152600490fd5b610249906116bc5f516020612d535f395f51905f52612472565b6116e1565b905f1990611389565b906116da61025f6113aa92610655565b82546116c1565b6117076116ef82600761063f565b6117016116fb82610673565b60010190565b906116ca565b7f851a0994d82c1644de2ea7d946c83c51713a8d8e537fe45ceb34215dabc9670d61174c61174261173c61124f85600761063f565b93610636565b926104cd60405190565b0390a2565b610249906116a2565b610249906117666125d3565b6117779061177261263c565b6118de565b61024961266e565b9060ff90611389565b9061179861025f6113aa92151590565b825461177f565b60036117f26060610249946117bd6117b75f83015190565b866116ca565b6117d46117cb602083015190565b600187016116ca565b6117ed6117e46040830151151590565b60028701611788565b015190565b91016116ca565b906102499161179f565b915f1960089290920291821b911b611389565b919061182761025f6113aa93610655565b908354611803565b9081549168010000000000000000831015610d365782611857916001610249950181556109c6565b90611816565b61188461025f9361187d60608401945f8501906001600160a01b03169052565b6020830152565b6040818303910152600f81526e14555154d517d0d3d3541311551151608a1b602082015260400190565b6040513d5f823e3d90fd5b6001600160a01b0390911681526060810193926102499290916040916107049061187d565b60046118ed6111c98383610662565b906119026118fe60c0840151151590565b1590565b611b515761191a6002611102856106a133600561063f565b611b43576119288233612781565b61193661025f608085015190565b8110611b335761197a9061195461194b61145e565b9161187d878452565b60016040820152611966426060830152565b611975856106a133600561063f565b6117f9565b6119918361198c61025f33600661063f565b61182f565b61199b600a611374565b6119a45f611362565b906119c06001600160a01b0383165b916001600160a01b031690565b03611ac0575b6119e36119b36119d66009611374565b926001600160a01b031690565b03611a30575b5060a001515b907fe0b5124b12e878158288d1002ed1fb960faff0ec1c7b3168f86d9d1afd1b0d8b61141d611a26611a2033610636565b93610655565b936104cd60405190565b90611a416113e46113e46009611374565b91611a4d60a083015190565b833b1561022557611a7f93855f8094611a6560405190565b97889586948593633fd51fbf60e01b8552339085016118b9565b03925af1908115611abb576119ef9260a092611a9e575b5091506119e9565b611ab5905f611aad8183610d14565b810190610572565b5f611a96565b6118ae565b611ad06113e46113e4600a611374565b60a084015190803b1561022557611b095f92918392611aee60405190565b948593849283919063d0654f3560e01b8352338b840161185d565b03925af18015611abb57611b1e575b506119c6565b611b2d905f611aad8183610d14565b5f611b18565b632417fae360e21b5f9081528290fd5b63195332a560e01b5f908152fd5b630bb6646b60e01b5f908152fd5b6102499061175a565b61025f6001610688565b611b885f516020612d535f395f51905f52612472565b610249610249612981565b610249611b72565b61025f915f611bb5611bbb93611bae5f90565b508261121c565b0161063f565b610688565b61025f9796959493929190611be15f516020612d535f395f51905f52612472565b611ec3565b61025f61c350610655565b61025f6103e8610655565b67ffffffffffffffff8111610d3657602090601f01601f19160190565b90825f939282370152565b90929192611c34610f5282611bfc565b938185528183011161022557610249916020850190611c19565b61025f913691611c24565b61025f90516102e5565b9061179861025f6113aa926102ef565b610249915f91611816565b818110611c89575050565b80611c965f600193611c73565b01611c7e565b9190601f8111611cab57505050565b611cbb610249935f5260205f2090565b906020601f840181900483019310611cdd575b6020601f909101040190611c7e565b9091508190611cce565b90611cf0815190565b9067ffffffffffffffff8211610d3657611d1482611d0e8554610c4c565b85611c9c565b602090601f8311600114611d4d576113aa92915f9183611d42575b50505f19600883021c1916906002021790565b015190505f80611d2f565b601f19831691611d60855f5260205f2090565b925f5b818110611d9c57509160029391856001969410611d84575b50505002019055565b01515f196008601f8516021c191690555f8080611d7b565b91936020600181928787015181550195019201611d63565b9061024991611ce7565b60076117f260e061024994611dd66117b75f83015190565b611dee611de560208301611c59565b60018701611c63565b611e05611dfc604083015190565b60028701611db4565b611e1c611e13606083015190565b60038701611db4565b611e33611e2a608083015190565b600487016116ca565b611e4a611e4160a083015190565b600587016116ca565b6117ed611e5a60c0830151151590565b60068701611788565b9061024991611dbe565b919061034c81611e84816103569560209181520190565b8095611c19565b90611ebb6107049161024996989795606095611eae60808701935f8801906102f8565b8583036020870152611e6d565b966040830152565b50929591939092919084611ed96116855f610655565b148015612056575b61204557611eee5f610655565b8614611ffd57611efd5f610655565b82148015612032575b61202157611f1460026102e5565b611f1d846102e5565b148061200e575b611ffd57600396611f348861245f565b97611f3e90612989565b611f46610f5c565b91611f4f898452565b611f5c8560208501611007565b611f668787611c4e565b6040840152611f7491611c4e565b6060820152611f84866080830152565b611f8f8260a0830152565b600160c0820152611fa14260e0830152565b611fac876004610662565b90611fb691611e63565b611fbf86610655565b94611fc960405190565b948594611fd69486611e8b565b037fb8abc18ba7191953b6f26fb8d5eea6ea1275367682c9ec994c65c891c0a0fe7b91a290565b6327c97a1360e21b5f908152600490fd5b5061201a61025f611bf1565b8611611f24565b6308d663db60e31b5f908152600490fd5b5061203e61025f611be6565b8211611f06565b635e765b2560e11b5f908152600490fd5b50806120646116855f610655565b14611ee1565b61025f969594939291905f611bc0565b610249906120945f516020612d535f395f51905f52612472565b6120a06104da5f611362565b6001600160a01b03821614611422576120ca6113e96120bf6009611374565b6113e4846009611393565b907f7042586b23181180eb30b4798702d7a0233b7fc2551e89806770e8e5d9392e6a61141a60405190565b6102499061207a565b612108600361245f565b6121115f610655565b805b828110156121525761212b6006611102836004610662565b61213d575b600101612113565b612113565b9061214a61213891610f06565b919050612130565b5061215c90610fca565b6121655f610655565b805b835b8110156121cb57600461218160066111028484610662565b612196575b50612169906001015b9050612167565b6121c382936121ae6111c96121699561218f95610662565b6121b88288610fed565b526111e38187610fed565b929150612186565b5050905090565b61024991906121ed5f516020612d535f395f51905f52612472565b906121fc6111c9826004610662565b61220c6118fe60c0830151151590565b6122605761141d611a26611a206122447f95b529ceb2b4c5026133eafcb0f6e7e63f17c39398d1b67e14569272cf3c956b9487612781565b956113e487600161225a896106a186600561063f565b016116ca565b630bb6646b60e01b5f908152600490fd5b90610249916121d2565b610249906122955f516020612d535f395f51905f52612472565b6122a16104da5f611362565b6001600160a01b03821614611422576122cb6113e96122c06008611374565b6113e4846008611393565b907f3031b4b27765dea43fa73ae93b7d9fda4f5fa1019ac8d1f82c4f48b6189da2f261141a60405190565b6102499061227b565b906102499161231061126582611222565b90610249916124e9565b90610249916122ff565b6102499061233e5f516020612d535f395f51905f52612472565b906004916123546118fe60066111028487610662565b6123a8576123725f600661236c846123779697610662565b01611788565b610655565b7ffe9e2f781236bffd062f9dfcd0b9b06f51589ac3187e0cb8532d990a0d3fe9646123a160405190565b808061174c565b630bb6646b60e01b5f9081528390fd5b61024990612324565b906123da6123d061079c845490565b925f5260205f2090565b905f5b8181106123ea5750505090565b90919261240e6124076001926123ff87610673565b815260200190565b9460010190565b9291016123dd565b9061025f916123c1565b90610249610d559261243160405190565b93848092612416565b61025f90612420565b61245a61025f91612452606090565b50600661063f565b61243a565b5f61025f9161246b5f90565b5001610673565b610249903390612a3d565b61248a6118fe8383611b9b565b612492575050565b6124ab60016124a6845f611bb5868261121c565b611788565b6124b96113e961173c339390565b917f2f8788117e7eff1d82e926ec794901d17c78024a50270940304540a733656f0d6124e460405190565b5f90a4565b6124f38282611b9b565b6124fb575050565b61250e5f6124a68482611bb5868261121c565b61251c6113e961173c339390565b917ff6391f5c32d9c69d2a47ea670b442974b53935d1edc7fd64eb21e047a839171b6124e460405190565b61254f612b0d565b61024961255d5f6001611788565b7f5db9ee0a495bf2e6ff9c91a7834c1ba4fdd244a5e8aa4e537bd38aeae4b073aa612587336105c1565b0390a1565b610249612547565b1561259b57565b60405162461bcd60e51b815260206004820152601060248201526f14185d5cd8589b194e881c185d5cd95960821b6044820152606490fd5b6102496125e16118fe611b68565b612594565b61025f6002610655565b156125f757565b60405162461bcd60e51b815260206004820152601f60248201527f5265656e7472616e637947756172643a207265656e7472616e742063616c6c006044820152606490fd5b6102496126496002610673565b61265d6126546125e6565b918214156125f0565b60026116ca565b61025f6001610655565b61024961265d612664565b9050519061024982610487565b60ff8116610235565b9050519061024982612686565b63ffffffff8116610235565b905051906102498261269c565b919060c0838203126102255761272c9060a06126d160c0610f19565b946126dc8382612679565b86526126eb836020830161268f565b60208701526126fd8360408301612679565b604087015261270f8360608301612679565b606087015261272183608083016126a8565b6080870152016126a8565b60a0830152565b9060c0828203126102255761025f916126b5565b61068261025f61025f9290565b61025f6032612747565b61025f61025f61025f9260ff1690565b61025f61025f61025f9263ffffffff1690565b9060200161278e81611c59565b61279b61115560026102e5565b14612932576127aa600a611374565b6127b96119b36104da5f611362565b146129275760c06127ff926127d46113e46113e4600a611374565b60405194859283918291634c3f70ab60e11b8352600483016001600160a01b03909116815260200190565b03915afa918215611abb575f926128f6575b5061281b81611c59565b6128276111555f6102e5565b03612840575060a0015161025f9063ffffffff1661276e565b61284981611c59565b61285661115560016102e5565b0361286357506040015190565b61286c81611c59565b61287961115560046102e5565b0361289257506080015161025f9063ffffffff1661276e565b61289b90611c59565b6128a861115560036102e5565b146128b7575061025f5f610655565b602061025f91016128c9815160ff1690565b906128d2612754565b9160ff808416911611156128e6575061275e565b5160ff16905061275e565b61275e565b61291991925060c03d60c011612920575b6129118183610d14565b810190612733565b905f612811565b503d612907565b505061025f5f610655565b5061124f61025f91600761063f565b6129496125d3565b610249612957600180611788565b7f62e78cea01bee320cd4e420270b5ea74000d11b0c9f74754ebdbfc544b05a258612587336105c1565b610249612941565b610249906117015f61299b6001610655565b92019161035683610673565b61025f90610655565b6103566129c8926020926129c2815190565b94859290565b93849101610301565b612a0f61025f9392612a09612a09937f416363657373436f6e74726f6c3a206163636f756e7420000000000000000000815260170190565b906129b0565b7001034b99036b4b9b9b4b733903937b6329607d1b815260110190565b602080825261025f92910190610322565b90612a4b6118fe8284611b9b565b612a53575050565b612a9d61025f6112e393612a85612a75612a6f612aa996612b3d565b926129a7565b612a7f6020610655565b90612c34565b90612a8f60405190565b9384926020840192836129d1565b90810382520382610d14565b60405162461bcd60e51b815291829160048301612a2c565b15612ac857565b60405162461bcd60e51b815260206004820152601460248201527f5061757361626c653a206e6f74207061757365640000000000000000000000006044820152606490fd5b610249612b18611b68565b612ac1565b61025f61025f61025f926001600160a01b031690565b61025f6014612747565b612b5a612b5561025f92612b4f606090565b5061062d565b612b1d565b612a7f6128f1612b33565b81810292918115918404141715610f1457565b91908201809211610f1457565b90610f57610f5283611bfc565b90610249611451612ba284612b85565b93611bfc565b90612bb1825190565b8110156109e6570160200190565b8015610f14575f190190565b61025f90612bdf61168561025f9460ff1690565b901c90565b15612beb57565b60405162461bcd60e51b8152806112e3600482016020808252818101527f537472696e67733a20686578206c656e67746820696e73756666696369656e74604082015260600190565b612c62612c5d612c4d84612c486002610655565b612b65565b612c576002610655565b90612b78565b612b92565b916030612c77612c715f610655565b85612ba8565b53600f60fb1b612cb0612ca760019384935f1a612c9c612c9686610655565b89612ba8565b53612c486002610655565b612c5783610655565b915b612cd3575b50509061025f61025f92612ccd6116855f610655565b14612be4565b9091612cde82610655565b831115612d4c576f181899199a1a9b1b9c1cb0b131b232b360811b612d03600f610655565b82169060108210156109e6578392612d23612d4092612d46941a60f81b90565b5f1a612d2f8789612ba8565b53612d3a6004612747565b90612bcb565b93612bbf565b91612cb2565b91612cb756fea49807205ce4d355092ef5a8a18f56e8913cf4a201fbe287825b095693c21775a2646970667358221220c8464197b5030b64faa7f9ba3c6e35cb5f8fe9163d05c6fb3e688ade002eda3d64736f6c634300081c0033",
  "linkReferences": {},
  "deployedLinkReferences": {}
}