{
  "_format": "hh-sol-artifact-1",
  "contractName": "GameifiedMarketplaceCoreV1",
  "sourceName": "contracts/Marketplace/GameifiedMarketplaceCoreV1.sol",
  "abi": [
    {
      "inputs": [],
      "stateMutability": "nonpayable",
      "type": "constructor"
    },
    {
      "inputs": [],
      "name": "InsufficientPayment",
      "type": "error"
    },
    {
      "inputs": [],
      "name": "NoOffersAvailable",
      "type": "error"
    },
    {
      "inputs": [],
      "name": "NotTokenOwner",
      "type": "error"
    },
    {
      "inputs": [],
      "name": "TokenNotFound",
      "type": "error"
    },
    {
      "inputs": [],
      "name": "TokenNotListed",
      "type": "error"
    },
    {
      "anonymous": false,
      "inputs": [
        {
          "indexed": false,
          "internalType": "address",
          "name": "previousAdmin",
          "type": "address"
        },
        {
          "indexed": false,
          "internalType": "address",
          "name": "newAdmin",
          "type": "address"
        }
      ],
      "name": "AdminChanged",
      "type": "event"
    },
    {
      "anonymous": false,
      "inputs": [
        {
          "indexed": true,
          "internalType": "address",
          "name": "owner",
          "type": "address"
        },
        {
          "indexed": true,
          "internalType": "address",
          "name": "approved",
          "type": "address"
        },
        {
          "indexed": true,
          "internalType": "uint256",
          "name": "tokenId",
          "type": "uint256"
        }
      ],
      "name": "Approval",
      "type": "event"
    },
    {
      "anonymous": false,
      "inputs": [
        {
          "indexed": true,
          "internalType": "address",
          "name": "owner",
          "type": "address"
        },
        {
          "indexed": true,
          "internalType": "address",
          "name": "operator",
          "type": "address"
        },
        {
          "indexed": false,
          "internalType": "bool",
          "name": "approved",
          "type": "bool"
        }
      ],
      "name": "ApprovalForAll",
      "type": "event"
    },
    {
      "anonymous": false,
      "inputs": [
        {
          "indexed": false,
          "internalType": "uint256",
          "name": "_fromTokenId",
          "type": "uint256"
        },
        {
          "indexed": false,
          "internalType": "uint256",
          "name": "_toTokenId",
          "type": "uint256"
        }
      ],
      "name": "BatchMetadataUpdate",
      "type": "event"
    },
    {
      "anonymous": false,
      "inputs": [
        {
          "indexed": true,
          "internalType": "address",
          "name": "beacon",
          "type": "address"
        }
      ],
      "name": "BeaconUpgraded",
      "type": "event"
    },
    {
      "anonymous": false,
      "inputs": [
        {
          "indexed": true,
          "internalType": "address",
          "name": "user",
          "type": "address"
        },
        {
          "indexed": true,
          "internalType": "uint256",
          "name": "tokenId",
          "type": "uint256"
        },
        {
          "indexed": false,
          "internalType": "string",
          "name": "comment",
          "type": "string"
        }
      ],
      "name": "CommentAdded",
      "type": "event"
    },
    {
      "anonymous": false,
      "inputs": [
        {
          "indexed": false,
          "internalType": "uint8",
          "name": "version",
          "type": "uint8"
        }
      ],
      "name": "Initialized",
      "type": "event"
    },
    {
      "anonymous": false,
      "inputs": [
        {
          "indexed": true,
          "internalType": "address",
          "name": "user",
          "type": "address"
        },
        {
          "indexed": false,
          "internalType": "uint8",
          "name": "newLevel",
          "type": "uint8"
        }
      ],
      "name": "LevelUp",
      "type": "event"
    },
    {
      "anonymous": false,
      "inputs": [
        {
          "indexed": true,
          "internalType": "address",
          "name": "user",
          "type": "address"
        },
        {
          "indexed": true,
          "internalType": "uint256",
          "name": "tokenId",
          "type": "uint256"
        },
        {
          "indexed": false,
          "internalType": "bool",
          "name": "liked",
          "type": "bool"
        }
      ],
      "name": "LikeToggled",
      "type": "event"
    },
    {
      "anonymous": false,
      "inputs": [
        {
          "indexed": false,
          "internalType": "uint256",
          "name": "_tokenId",
          "type": "uint256"
        }
      ],
      "name": "MetadataUpdate",
      "type": "event"
    },
    {
      "anonymous": false,
      "inputs": [
        {
          "indexed": true,
          "internalType": "address",
          "name": "seller",
          "type": "address"
        },
        {
          "indexed": true,
          "internalType": "address",
          "name": "buyer",
          "type": "address"
        },
        {
          "indexed": true,
          "internalType": "uint256",
          "name": "tokenId",
          "type": "uint256"
        },
        {
          "indexed": false,
          "internalType": "uint256",
          "name": "amount",
          "type": "uint256"
        }
      ],
      "name": "OfferAccepted",
      "type": "event"
    },
    {
      "anonymous": false,
      "inputs": [
        {
          "indexed": true,
          "internalType": "address",
          "name": "offeror",
          "type": "address"
        },
        {
          "indexed": true,
          "internalType": "uint256",
          "name": "tokenId",
          "type": "uint256"
        },
        {
          "indexed": false,
          "internalType": "uint256",
          "name": "amount",
          "type": "uint256"
        }
      ],
      "name": "OfferMade",
      "type": "event"
    },
    {
      "anonymous": false,
      "inputs": [
        {
          "indexed": false,
          "internalType": "address",
          "name": "account",
          "type": "address"
        }
      ],
      "name": "Paused",
      "type": "event"
    },
    {
      "anonymous": false,
      "inputs": [
        {
          "indexed": true,
          "internalType": "address",
          "name": "from",
          "type": "address"
        },
        {
          "indexed": false,
          "internalType": "uint256",
          "name": "amount",
          "type": "uint256"
        },
        {
          "indexed": true,
          "internalType": "address",
          "name": "to",
          "type": "address"
        },
        {
          "indexed": false,
          "internalType": "string",
          "name": "operation",
          "type": "string"
        }
      ],
      "name": "PlatformFeeTransferred",
      "type": "event"
    },
    {
      "anonymous": false,
      "inputs": [
        {
          "indexed": true,
          "internalType": "address",
          "name": "seller",
          "type": "address"
        },
        {
          "indexed": true,
          "internalType": "uint256",
          "name": "tokenId",
          "type": "uint256"
        },
        {
          "indexed": false,
          "internalType": "uint256",
          "name": "newPrice",
          "type": "uint256"
        }
      ],
      "name": "PriceUpdated",
      "type": "event"
    },
    {
      "anonymous": false,
      "inputs": [
        {
          "indexed": true,
          "internalType": "address",
          "name": "oldAddress",
          "type": "address"
        },
        {
          "indexed": true,
          "internalType": "address",
          "name": "newAddress",
          "type": "address"
        }
      ],
      "name": "QuestsContractUpdated",
      "type": "event"
    },
    {
      "anonymous": false,
      "inputs": [
        {
          "indexed": true,
          "internalType": "bytes32",
          "name": "role",
          "type": "bytes32"
        },
        {
          "indexed": true,
          "internalType": "bytes32",
          "name": "previousAdminRole",
          "type": "bytes32"
        },
        {
          "indexed": true,
          "internalType": "bytes32",
          "name": "newAdminRole",
          "type": "bytes32"
        }
      ],
      "name": "RoleAdminChanged",
      "type": "event"
    },
    {
      "anonymous": false,
      "inputs": [
        {
          "indexed": true,
          "internalType": "bytes32",
          "name": "role",
          "type": "bytes32"
        },
        {
          "indexed": true,
          "internalType": "address",
          "name": "account",
          "type": "address"
        },
        {
          "indexed": true,
          "internalType": "address",
          "name": "sender",
          "type": "address"
        }
      ],
      "name": "RoleGranted",
      "type": "event"
    },
    {
      "anonymous": false,
      "inputs": [
        {
          "indexed": true,
          "internalType": "bytes32",
          "name": "role",
          "type": "bytes32"
        },
        {
          "indexed": true,
          "internalType": "address",
          "name": "account",
          "type": "address"
        },
        {
          "indexed": true,
          "internalType": "address",
          "name": "sender",
          "type": "address"
        }
      ],
      "name": "RoleRevoked",
      "type": "event"
    },
    {
      "anonymous": false,
      "inputs": [
        {
          "indexed": true,
          "internalType": "address",
          "name": "oldAddress",
          "type": "address"
        },
        {
          "indexed": true,
          "internalType": "address",
          "name": "newAddress",
          "type": "address"
        }
      ],
      "name": "SkillsContractUpdated",
      "type": "event"
    },
    {
      "anonymous": false,
      "inputs": [
        {
          "indexed": true,
          "internalType": "address",
          "name": "oldAddress",
          "type": "address"
        },
        {
          "indexed": true,
          "internalType": "address",
          "name": "newAddress",
          "type": "address"
        }
      ],
      "name": "StakingContractUpdated",
      "type": "event"
    },
    {
      "anonymous": false,
      "inputs": [
        {
          "indexed": true,
          "internalType": "address",
          "name": "creator",
          "type": "address"
        },
        {
          "indexed": true,
          "internalType": "uint256",
          "name": "tokenId",
          "type": "uint256"
        },
        {
          "indexed": false,
          "internalType": "string",
          "name": "uri",
          "type": "string"
        }
      ],
      "name": "TokenCreated",
      "type": "event"
    },
    {
      "anonymous": false,
      "inputs": [
        {
          "indexed": true,
          "internalType": "address",
          "name": "seller",
          "type": "address"
        },
        {
          "indexed": true,
          "internalType": "uint256",
          "name": "tokenId",
          "type": "uint256"
        },
        {
          "indexed": false,
          "internalType": "uint256",
          "name": "price",
          "type": "uint256"
        }
      ],
      "name": "TokenListed",
      "type": "event"
    },
    {
      "anonymous": false,
      "inputs": [
        {
          "indexed": true,
          "internalType": "address",
          "name": "seller",
          "type": "address"
        },
        {
          "indexed": true,
          "internalType": "address",
          "name": "buyer",
          "type": "address"
        },
        {
          "indexed": true,
          "internalType": "uint256",
          "name": "tokenId",
          "type": "uint256"
        },
        {
          "indexed": false,
          "internalType": "uint256",
          "name": "price",
          "type": "uint256"
        }
      ],
      "name": "TokenSold",
      "type": "event"
    },
    {
      "anonymous": false,
      "inputs": [
        {
          "indexed": true,
          "internalType": "address",
          "name": "seller",
          "type": "address"
        },
        {
          "indexed": true,
          "internalType": "uint256",
          "name": "tokenId",
          "type": "uint256"
        }
      ],
      "name": "TokenUnlisted",
      "type": "event"
    },
    {
      "anonymous": false,
      "inputs": [
        {
          "indexed": true,
          "internalType": "address",
          "name": "from",
          "type": "address"
        },
        {
          "indexed": true,
          "internalType": "address",
          "name": "to",
          "type": "address"
        },
        {
          "indexed": true,
          "internalType": "uint256",
          "name": "tokenId",
          "type": "uint256"
        }
      ],
      "name": "Transfer",
      "type": "event"
    },
    {
      "anonymous": false,
      "inputs": [
        {
          "indexed": false,
          "internalType": "address",
          "name": "account",
          "type": "address"
        }
      ],
      "name": "Unpaused",
      "type": "event"
    },
    {
      "anonymous": false,
      "inputs": [
        {
          "indexed": true,
          "internalType": "address",
          "name": "implementation",
          "type": "address"
        }
      ],
      "name": "Upgraded",
      "type": "event"
    },
    {
      "anonymous": false,
      "inputs": [
        {
          "indexed": true,
          "internalType": "address",
          "name": "user",
          "type": "address"
        },
        {
          "indexed": false,
          "internalType": "uint256",
          "name": "amount",
          "type": "uint256"
        },
        {
          "indexed": false,
          "internalType": "string",
          "name": "reason",
          "type": "string"
        }
      ],
      "name": "XPGained",
      "type": "event"
    },
    {
      "inputs": [],
      "name": "ADMIN_ROLE",
      "outputs": [
        {
          "internalType": "bytes32",
          "name": "",
          "type": "bytes32"
        }
      ],
      "stateMutability": "view",
      "type": "function"
    },
    {
      "inputs": [],
      "name": "DEFAULT_ADMIN_ROLE",
      "outputs": [
        {
          "internalType": "bytes32",
          "name": "",
          "type": "bytes32"
        }
      ],
      "stateMutability": "view",
      "type": "function"
    },
    {
      "inputs": [],
      "name": "PLATFORM_FEE_PERCENTAGE",
      "outputs": [
        {
          "internalType": "uint256",
          "name": "",
          "type": "uint256"
        }
      ],
      "stateMutability": "view",
      "type": "function"
    },
    {
      "inputs": [],
      "name": "UPGRADER_ROLE",
      "outputs": [
        {
          "internalType": "bytes32",
          "name": "",
          "type": "bytes32"
        }
      ],
      "stateMutability": "view",
      "type": "function"
    },
    {
      "inputs": [
        {
          "internalType": "uint256",
          "name": "_tokenId",
          "type": "uint256"
        },
        {
          "internalType": "uint256",
          "name": "_offerIndex",
          "type": "uint256"
        }
      ],
      "name": "acceptOffer",
      "outputs": [],
      "stateMutability": "nonpayable",
      "type": "function"
    },
    {
      "inputs": [
        {
          "internalType": "uint256",
          "name": "_tokenId",
          "type": "uint256"
        },
        {
          "internalType": "string",
          "name": "_text",
          "type": "string"
        }
      ],
      "name": "addComment",
      "outputs": [],
      "stateMutability": "nonpayable",
      "type": "function"
    },
    {
      "inputs": [
        {
          "internalType": "address",
          "name": "to",
          "type": "address"
        },
        {
          "internalType": "uint256",
          "name": "tokenId",
          "type": "uint256"
        }
      ],
      "name": "approve",
      "outputs": [],
      "stateMutability": "nonpayable",
      "type": "function"
    },
    {
      "inputs": [
        {
          "internalType": "address",
          "name": "owner",
          "type": "address"
        }
      ],
      "name": "balanceOf",
      "outputs": [
        {
          "internalType": "uint256",
          "name": "",
          "type": "uint256"
        }
      ],
      "stateMutability": "view",
      "type": "function"
    },
    {
      "inputs": [
        {
          "internalType": "uint256",
          "name": "_tokenId",
          "type": "uint256"
        }
      ],
      "name": "buyToken",
      "outputs": [],
      "stateMutability": "payable",
      "type": "function"
    },
    {
      "inputs": [
        {
          "internalType": "uint256",
          "name": "_tokenId",
          "type": "uint256"
        },
        {
          "internalType": "uint256",
          "name": "_offerIndex",
          "type": "uint256"
        }
      ],
      "name": "cancelOffer",
      "outputs": [],
      "stateMutability": "nonpayable",
      "type": "function"
    },
    {
      "inputs": [
        {
          "internalType": "string",
          "name": "_tokenURI",
          "type": "string"
        },
        {
          "internalType": "string",
          "name": "_category",
          "type": "string"
        },
        {
          "internalType": "uint96",
          "name": "_royaltyPercentage",
          "type": "uint96"
        }
      ],
      "name": "createStandardNFT",
      "outputs": [
        {
          "internalType": "uint256",
          "name": "",
          "type": "uint256"
        }
      ],
      "stateMutability": "nonpayable",
      "type": "function"
    },
    {
      "inputs": [
        {
          "internalType": "uint256",
          "name": "tokenId",
          "type": "uint256"
        }
      ],
      "name": "getApproved",
      "outputs": [
        {
          "internalType": "address",
          "name": "",
          "type": "address"
        }
      ],
      "stateMutability": "view",
      "type": "function"
    },
    {
      "inputs": [
        {
          "internalType": "bytes32",
          "name": "role",
          "type": "bytes32"
        }
      ],
      "name": "getRoleAdmin",
      "outputs": [
        {
          "internalType": "bytes32",
          "name": "",
          "type": "bytes32"
        }
      ],
      "stateMutability": "view",
      "type": "function"
    },
    {
      "inputs": [
        {
          "internalType": "address",
          "name": "_user",
          "type": "address"
        }
      ],
      "name": "getUserProfile",
      "outputs": [
        {
          "components": [
            {
              "internalType": "uint256",
              "name": "totalXP",
              "type": "uint256"
            },
            {
              "internalType": "uint8",
              "name": "level",
              "type": "uint8"
            },
            {
              "internalType": "uint256",
              "name": "nftsCreated",
              "type": "uint256"
            },
            {
              "internalType": "uint256",
              "name": "nftsOwned",
              "type": "uint256"
            },
            {
              "internalType": "uint32",
              "name": "nftsSold",
              "type": "uint32"
            },
            {
              "internalType": "uint32",
              "name": "nftsBought",
              "type": "uint32"
            }
          ],
          "internalType": "struct GameifiedMarketplaceCoreV1.UserProfile",
          "name": "",
          "type": "tuple"
        }
      ],
      "stateMutability": "view",
      "type": "function"
    },
    {
      "inputs": [
        {
          "internalType": "bytes32",
          "name": "role",
          "type": "bytes32"
        },
        {
          "internalType": "address",
          "name": "account",
          "type": "address"
        }
      ],
      "name": "grantRole",
      "outputs": [],
      "stateMutability": "nonpayable",
      "type": "function"
    },
    {
      "inputs": [
        {
          "internalType": "bytes32",
          "name": "role",
          "type": "bytes32"
        },
        {
          "internalType": "address",
          "name": "account",
          "type": "address"
        }
      ],
      "name": "hasRole",
      "outputs": [
        {
          "internalType": "bool",
          "name": "",
          "type": "bool"
        }
      ],
      "stateMutability": "view",
      "type": "function"
    },
    {
      "inputs": [
        {
          "internalType": "address",
          "name": "_platformTreasury",
          "type": "address"
        }
      ],
      "name": "initialize",
      "outputs": [],
      "stateMutability": "nonpayable",
      "type": "function"
    },
    {
      "inputs": [
        {
          "internalType": "address",
          "name": "owner",
          "type": "address"
        },
        {
          "internalType": "address",
          "name": "operator",
          "type": "address"
        }
      ],
      "name": "isApprovedForAll",
      "outputs": [
        {
          "internalType": "bool",
          "name": "",
          "type": "bool"
        }
      ],
      "stateMutability": "view",
      "type": "function"
    },
    {
      "inputs": [
        {
          "internalType": "uint256",
          "name": "",
          "type": "uint256"
        }
      ],
      "name": "isListed",
      "outputs": [
        {
          "internalType": "bool",
          "name": "",
          "type": "bool"
        }
      ],
      "stateMutability": "view",
      "type": "function"
    },
    {
      "inputs": [
        {
          "internalType": "uint256",
          "name": "_tokenId",
          "type": "uint256"
        },
        {
          "internalType": "uint256",
          "name": "_price",
          "type": "uint256"
        }
      ],
      "name": "listTokenForSale",
      "outputs": [],
      "stateMutability": "nonpayable",
      "type": "function"
    },
    {
      "inputs": [
        {
          "internalType": "uint256",
          "name": "",
          "type": "uint256"
        }
      ],
      "name": "listedPrice",
      "outputs": [
        {
          "internalType": "uint256",
          "name": "",
          "type": "uint256"
        }
      ],
      "stateMutability": "view",
      "type": "function"
    },
    {
      "inputs": [
        {
          "internalType": "uint256",
          "name": "_tokenId",
          "type": "uint256"
        },
        {
          "internalType": "uint8",
          "name": "_expiresInDays",
          "type": "uint8"
        }
      ],
      "name": "makeOffer",
      "outputs": [],
      "stateMutability": "payable",
      "type": "function"
    },
    {
      "inputs": [],
      "name": "name",
      "outputs": [
        {
          "internalType": "string",
          "name": "",
          "type": "string"
        }
      ],
      "stateMutability": "view",
      "type": "function"
    },
    {
      "inputs": [
        {
          "internalType": "uint256",
          "name": "",
          "type": "uint256"
        },
        {
          "internalType": "uint256",
          "name": "",
          "type": "uint256"
        }
      ],
      "name": "nftComments",
      "outputs": [
        {
          "internalType": "string",
          "name": "",
          "type": "string"
        }
      ],
      "stateMutability": "view",
      "type": "function"
    },
    {
      "inputs": [
        {
          "internalType": "uint256",
          "name": "",
          "type": "uint256"
        }
      ],
      "name": "nftLikeCount",
      "outputs": [
        {
          "internalType": "uint256",
          "name": "",
          "type": "uint256"
        }
      ],
      "stateMutability": "view",
      "type": "function"
    },
    {
      "inputs": [
        {
          "internalType": "uint256",
          "name": "",
          "type": "uint256"
        },
        {
          "internalType": "address",
          "name": "",
          "type": "address"
        }
      ],
      "name": "nftLikes",
      "outputs": [
        {
          "internalType": "bool",
          "name": "",
          "type": "bool"
        }
      ],
      "stateMutability": "view",
      "type": "function"
    },
    {
      "inputs": [
        {
          "internalType": "uint256",
          "name": "",
          "type": "uint256"
        }
      ],
      "name": "nftMetadata",
      "outputs": [
        {
          "internalType": "address",
          "name": "creator",
          "type": "address"
        },
        {
          "internalType": "string",
          "name": "uri",
          "type": "string"
        },
        {
          "internalType": "string",
          "name": "category",
          "type": "string"
        },
        {
          "internalType": "uint256",
          "name": "createdAt",
          "type": "uint256"
        },
        {
          "internalType": "uint96",
          "name": "royaltyPercentage",
          "type": "uint96"
        }
      ],
      "stateMutability": "view",
      "type": "function"
    },
    {
      "inputs": [
        {
          "internalType": "uint256",
          "name": "",
          "type": "uint256"
        },
        {
          "internalType": "uint256",
          "name": "",
          "type": "uint256"
        }
      ],
      "name": "nftOffers",
      "outputs": [
        {
          "internalType": "address",
          "name": "offeror",
          "type": "address"
        },
        {
          "internalType": "uint256",
          "name": "amount",
          "type": "uint256"
        },
        {
          "internalType": "uint8",
          "name": "expiresInDays",
          "type": "uint8"
        },
        {
          "internalType": "uint256",
          "name": "timestamp",
          "type": "uint256"
        }
      ],
      "stateMutability": "view",
      "type": "function"
    },
    {
      "inputs": [
        {
          "internalType": "uint256",
          "name": "tokenId",
          "type": "uint256"
        }
      ],
      "name": "ownerOf",
      "outputs": [
        {
          "internalType": "address",
          "name": "",
          "type": "address"
        }
      ],
      "stateMutability": "view",
      "type": "function"
    },
    {
      "inputs": [],
      "name": "pause",
      "outputs": [],
      "stateMutability": "nonpayable",
      "type": "function"
    },
    {
      "inputs": [],
      "name": "paused",
      "outputs": [
        {
          "internalType": "bool",
          "name": "",
          "type": "bool"
        }
      ],
      "stateMutability": "view",
      "type": "function"
    },
    {
      "inputs": [],
      "name": "platformTreasury",
      "outputs": [
        {
          "internalType": "address",
          "name": "",
          "type": "address"
        }
      ],
      "stateMutability": "view",
      "type": "function"
    },
    {
      "inputs": [],
      "name": "proxiableUUID",
      "outputs": [
        {
          "internalType": "bytes32",
          "name": "",
          "type": "bytes32"
        }
      ],
      "stateMutability": "view",
      "type": "function"
    },
    {
      "inputs": [],
      "name": "questsContractAddress",
      "outputs": [
        {
          "internalType": "address",
          "name": "",
          "type": "address"
        }
      ],
      "stateMutability": "view",
      "type": "function"
    },
    {
      "inputs": [
        {
          "internalType": "bytes32",
          "name": "role",
          "type": "bytes32"
        },
        {
          "internalType": "address",
          "name": "account",
          "type": "address"
        }
      ],
      "name": "renounceRole",
      "outputs": [],
      "stateMutability": "nonpayable",
      "type": "function"
    },
    {
      "inputs": [
        {
          "internalType": "bytes32",
          "name": "role",
          "type": "bytes32"
        },
        {
          "internalType": "address",
          "name": "account",
          "type": "address"
        }
      ],
      "name": "revokeRole",
      "outputs": [],
      "stateMutability": "nonpayable",
      "type": "function"
    },
    {
      "inputs": [
        {
          "internalType": "uint256",
          "name": "tokenId",
          "type": "uint256"
        },
        {
          "internalType": "uint256",
          "name": "salePrice",
          "type": "uint256"
        }
      ],
      "name": "royaltyInfo",
      "outputs": [
        {
          "internalType": "address",
          "name": "",
          "type": "address"
        },
        {
          "internalType": "uint256",
          "name": "",
          "type": "uint256"
        }
      ],
      "stateMutability": "view",
      "type": "function"
    },
    {
      "inputs": [
        {
          "internalType": "address",
          "name": "from",
          "type": "address"
        },
        {
          "internalType": "address",
          "name": "to",
          "type": "address"
        },
        {
          "internalType": "uint256",
          "name": "tokenId",
          "type": "uint256"
        }
      ],
      "name": "safeTransferFrom",
      "outputs": [],
      "stateMutability": "nonpayable",
      "type": "function"
    },
    {
      "inputs": [
        {
          "internalType": "address",
          "name": "from",
          "type": "address"
        },
        {
          "internalType": "address",
          "name": "to",
          "type": "address"
        },
        {
          "internalType": "uint256",
          "name": "tokenId",
          "type": "uint256"
        },
        {
          "internalType": "bytes",
          "name": "data",
          "type": "bytes"
        }
      ],
      "name": "safeTransferFrom",
      "outputs": [],
      "stateMutability": "nonpayable",
      "type": "function"
    },
    {
      "inputs": [
        {
          "internalType": "address",
          "name": "operator",
          "type": "address"
        },
        {
          "internalType": "bool",
          "name": "approved",
          "type": "bool"
        }
      ],
      "name": "setApprovalForAll",
      "outputs": [],
      "stateMutability": "nonpayable",
      "type": "function"
    },
    {
      "inputs": [
        {
          "internalType": "address",
          "name": "_questsAddress",
          "type": "address"
        }
      ],
      "name": "setQuestsContract",
      "outputs": [],
      "stateMutability": "nonpayable",
      "type": "function"
    },
    {
      "inputs": [
        {
          "internalType": "address",
          "name": "_skillsAddress",
          "type": "address"
        }
      ],
      "name": "setSkillsContract",
      "outputs": [],
      "stateMutability": "nonpayable",
      "type": "function"
    },
    {
      "inputs": [
        {
          "internalType": "address",
          "name": "_stakingAddress",
          "type": "address"
        }
      ],
      "name": "setStakingContract",
      "outputs": [],
      "stateMutability": "nonpayable",
      "type": "function"
    },
    {
      "inputs": [],
      "name": "skillsContractAddress",
      "outputs": [
        {
          "internalType": "address",
          "name": "",
          "type": "address"
        }
      ],
      "stateMutability": "view",
      "type": "function"
    },
    {
      "inputs": [],
      "name": "stakingContractAddress",
      "outputs": [
        {
          "internalType": "address",
          "name": "",
          "type": "address"
        }
      ],
      "stateMutability": "view",
      "type": "function"
    },
    {
      "inputs": [
        {
          "internalType": "bytes4",
          "name": "interfaceId",
          "type": "bytes4"
        }
      ],
      "name": "supportsInterface",
      "outputs": [
        {
          "internalType": "bool",
          "name": "",
          "type": "bool"
        }
      ],
      "stateMutability": "view",
      "type": "function"
    },
    {
      "inputs": [],
      "name": "symbol",
      "outputs": [
        {
          "internalType": "string",
          "name": "",
          "type": "string"
        }
      ],
      "stateMutability": "view",
      "type": "function"
    },
    {
      "inputs": [
        {
          "internalType": "uint256",
          "name": "_tokenId",
          "type": "uint256"
        }
      ],
      "name": "toggleLike",
      "outputs": [],
      "stateMutability": "nonpayable",
      "type": "function"
    },
    {
      "inputs": [
        {
          "internalType": "uint256",
          "name": "tokenId",
          "type": "uint256"
        }
      ],
      "name": "tokenURI",
      "outputs": [
        {
          "internalType": "string",
          "name": "",
          "type": "string"
        }
      ],
      "stateMutability": "view",
      "type": "function"
    },
    {
      "inputs": [
        {
          "internalType": "address",
          "name": "from",
          "type": "address"
        },
        {
          "internalType": "address",
          "name": "to",
          "type": "address"
        },
        {
          "internalType": "uint256",
          "name": "tokenId",
          "type": "uint256"
        }
      ],
      "name": "transferFrom",
      "outputs": [],
      "stateMutability": "nonpayable",
      "type": "function"
    },
    {
      "inputs": [
        {
          "internalType": "uint256",
          "name": "_tokenId",
          "type": "uint256"
        }
      ],
      "name": "unlistToken",
      "outputs": [],
      "stateMutability": "nonpayable",
      "type": "function"
    },
    {
      "inputs": [],
      "name": "unpause",
      "outputs": [],
      "stateMutability": "nonpayable",
      "type": "function"
    },
    {
      "inputs": [
        {
          "internalType": "uint256",
          "name": "_tokenId",
          "type": "uint256"
        },
        {
          "internalType": "uint256",
          "name": "_newPrice",
          "type": "uint256"
        }
      ],
      "name": "updatePrice",
      "outputs": [],
      "stateMutability": "nonpayable",
      "type": "function"
    },
    {
      "inputs": [
        {
          "internalType": "address",
          "name": "_user",
          "type": "address"
        },
        {
          "internalType": "uint256",
          "name": "_amount",
          "type": "uint256"
        }
      ],
      "name": "updateUserXP",
      "outputs": [],
      "stateMutability": "nonpayable",
      "type": "function"
    },
    {
      "inputs": [
        {
          "internalType": "address",
          "name": "newImplementation",
          "type": "address"
        }
      ],
      "name": "upgradeTo",
      "outputs": [],
      "stateMutability": "nonpayable",
      "type": "function"
    },
    {
      "inputs": [
        {
          "internalType": "address",
          "name": "newImplementation",
          "type": "address"
        },
        {
          "internalType": "bytes",
          "name": "data",
          "type": "bytes"
        }
      ],
      "name": "upgradeToAndCall",
      "outputs": [],
      "stateMutability": "payable",
      "type": "function"
    },
    {
      "inputs": [
        {
          "internalType": "address",
          "name": "",
          "type": "address"
        }
      ],
      "name": "userProfiles",
      "outputs": [
        {
          "internalType": "uint256",
          "name": "totalXP",
          "type": "uint256"
        },
        {
          "internalType": "uint8",
          "name": "level",
          "type": "uint8"
        },
        {
          "internalType": "uint256",
          "name": "nftsCreated",
          "type": "uint256"
        },
        {
          "internalType": "uint256",
          "name": "nftsOwned",
          "type": "uint256"
        },
        {
          "internalType": "uint32",
          "name": "nftsSold",
          "type": "uint32"
        },
        {
          "internalType": "uint32",
          "name": "nftsBought",
          "type": "uint32"
        }
      ],
      "stateMutability": "view",
      "type": "function"
    }
  ],
  "bytecode": "0x60a06040523461003257610011610108565b60405161576a61051a82396080518181816121950152612358015261576a90f35b5f80fd5b634e487b7160e01b5f52604160045260245ffd5b90601f01601f191681019081106001600160401b0382111761006b57604052565b610036565b9061008461007d60405190565b928361004a565b565b6001600160401b03811161006b57602090601f01601f19160190565b906100b46100af83610086565b610070565b918252565b6100c3600c6100a2565b6b11d85b595a599a595913919560a21b602082015290565b6100e36100b9565b90565b6100f060046100a2565b6311d3919560e21b602082015290565b6100e36100e6565b6101216101136100db565b61011b610100565b9061015b565b6100846104aa565b6100e39061013d906001600160a01b031682565b6001600160a01b031690565b6100e390610129565b6100e390610149565b9061016591610173565b61016e30610152565b608052565b610084918291829182916101ac565b9060ff905b9181191691161790565b906101a16100e36101a892151590565b8254610182565b9055565b906101b6916101f8565b6100845f600b610191565b6100e36100e36100e39290565b6100e360016101c1565b905f1990610187565b906101f16100e36101a8926101c1565b82546101d8565b9061020291610214565b61008461020d6101ce565b600a6101e1565b6100849182918291906103d6565b634e487b7160e01b5f52602260045260245ffd5b9060016002830492168015610256575b602083101461025157565b610222565b91607f1691610246565b915f1960089290920291821b911b610187565b91906102846100e36101a8936101c1565b908354610260565b610084915f91610273565b8181106102a2575050565b806102af5f60019361028c565b01610297565b9190601f81116102c457505050565b6102d4610084935f5260205f2090565b906020601f8401819004830193106102f6575b6020601f909101040190610297565b90915081906102e7565b90610309815190565b906001600160401b03821161006b5761032c826103268554610236565b856102b5565b602090601f8311600114610365576101a892915f918361035a575b50505f19600883021c1916906002021790565b015190505f80610347565b601f19831691610378855f5260205f2090565b925f5b8181106103b45750916002939185600196941061039c575b50505002019055565b01515f196008601f8516021c191690555f8080610393565b9193602060018192878701518155019501920161037b565b9061008491610300565b906103e56100849260026103cc565b60036103cc565b6100e39060101c5b60ff1690565b6100e390546103ec565b1561040b57565b60405162461bcd60e51b815260206004820152602760248201527f496e697469616c697a61626c653a20636f6e747261637420697320696e697469604482015266616c697a696e6760c81b6064820152608490fd5b6100e39060081c6103f4565b6100e39054610460565b9061ff009060081b610187565b6103f46100e36100e39260ff1690565b906104a36100e36101a892610483565b8254610476565b6104c36104be6104ba600b6103fa565b1590565b610404565b6104cd600b61046c565b60ff908116036104d957565b6104e560ff600b610493565b7f7f26b83ff96e1f2b6a682f133852f6798a09c465da95921460cefb384740249861050f60405190565b60ff8152602090a156fe60806040526004361015610011575f80fd5b5f3560e01c806301ffc9a7146103a057806306fdde031461039b578063081812fc14610396578063095ea7b314610391578063155482321461038c57806323b872dd146103875780632406e67714610382578063248a9ca31461037d5780632a55205a146103785780632d296bf1146103735780632f2ff15d1461036e578063332d56d7146103695780633535f48b1461036457806336568abe1461035f5780633659cfe61461035a5780633c039039146103555780633f4ba83a1461035057806342842e0e1461034b57806349541015146103465780634f1ef2861461034157806352d1902d1461033c57806354398d18146103375780635c975abb146103325780635efc27d61461032d578063602dcf29146103285780636352211e14610323578063638ac8d31461031e57806370a082311461031957806375b238fc1461031457806377ea168e1461030f5780637de7ff081461030a57806381257bd51461030557806382367b2d146103005780638456cb59146102fb5780638cf53102146102f657806391d14854146102f157806395d89b41146102ec578063987ee156146102e75780639dd373b9146102e2578063a217fddf146102dd578063a22cb465146102d8578063aa7e5683146102d3578063ad3a358c146102ce578063b88d4fde146102c9578063bd4ad42f146102c4578063c4d66de8146102bf578063c87b56dd146102ba578063cb8c8a15146102b5578063d45557cc146102b0578063d489be26146102ab578063d547741f146102a6578063e138818c146102a1578063e5a818f81461029c578063e985e9c514610297578063f72c0d8b14610292578063f748efb81461028d5763fcce4883036103a557611430565b611409565b6113d0565b6113b4565b61137d565b611353565b61132f565b611313565b611293565b611278565b611233565b61121b565b611200565b6111d9565b611171565b611158565b611105565b6110b2565b611089565b611062565b610fe1565b610fc5565b610fad565b610f95565b610f7c565b610f63565b610f44565b610e6d565b610d7f565b610d64565b610d48565b610cf8565b610ce4565b610c92565b610c77565b610c5f565b610c44565b610c30565b610b43565b610927565b61090f565b6108f4565b6108d1565b6108b8565b61089d565b610846565b6106db565b6106a5565b610676565b61063a565b610621565b6105ec565b610597565b61055a565b6104e6565b61048c565b6103e6565b5f80fd5b6001600160e01b031981165b036103a557565b905035906103c9826103a9565b565b906020828203126103a5576103df916103bc565b90565b9052565b346103a5576104146104016103fc3660046103cb565b61144b565b6040515b91829182901515815260200190565b0390f35b5f9103126103a557565b5f5b8381106104335750505f910152565b8181015183820152602001610424565b61046461046d60209361047793610458815190565b80835293849260200190565b95869101610422565b601f01601f191690565b0190565b60208082526103df92910190610443565b346103a55761049c366004610418565b6104146104a761145d565b6040519182918261047b565b806103b5565b905035906103c9826104b3565b906020828203126103a5576103df916104b9565b6001600160a01b031690565b346103a5576104146105016104fc3660046104c6565b611467565b604051918291826001600160a01b03909116815260200190565b6001600160a01b0381166103b5565b905035906103c98261051b565b91906040838203126103a5576103df906020610553828661052a565b94016104b9565b346103a55761057361056d366004610537565b90611558565b604051005b6103df6103df6103df9290565b6103df6005610578565b6103df610585565b346103a5576105a7366004610418565b6104146105b261058f565b6040515b9182918290815260200190565b90916060828403126103a5576103df6105dc848461052a565b936040610553826020870161052a565b346103a5576105736105ff3660046105c3565b9161161b565b91906040838203126103a5576103df90602061055382866104b9565b346103a557610573610634366004610605565b906117ad565b346103a5576104146105b26106503660046104c6565b6117bd565b6001600160a01b0390911681526040810192916103c99160200152565b0152565b346103a55761068f610689366004610605565b906118ce565b9061041461069c60405190565b92839283610655565b6105736106b33660046104c6565b612001565b91906040838203126103a5576103df9060206106d482866104b9565b940161052a565b346103a5576105736106ee3660046106b8565b9061202a565b906020828203126103a5576103df9161052a565b6104da6103df6103df926001600160a01b031690565b6103df90610708565b6103df9061071e565b9061073a90610727565b5f5260205260405f2090565b6103df9081565b6103df9054610746565b6103df905b60ff1690565b6103df9054610757565b6103df905b63ffffffff1690565b6103df905461076c565b6103df9060201c610771565b6103df9054610784565b6107a5906014610730565b906107af8261074d565b916107bc60018201610762565b916107c96002830161074d565b916107d66003820161074d565b916103df60046107e781850161077a565b9301610790565b919461082d61083a9298979561082660a09661081f6103c99a61081560c08a019e5f8b0152565b60ff166020890152565b6040870152565b6060850152565b63ffffffff166080830152565b019063ffffffff169052565b346103a55761041461086161085c3660046106f4565b61079a565b9261087196949692919260405190565b968796876107ee565b6103df916008021c6104da565b906103df915461087a565b6103df5f6018610887565b346103a5576108ad366004610418565b610414610501610892565b346103a5576105736108cb3660046106b8565b90612098565b346103a5576105736108e43660046106f4565b612242565b6103df5f6016610887565b346103a557610904366004610418565b6104146105016108e9565b346103a55761091f366004610418565b61057361226c565b346103a55761057361093a3660046105c3565b91612285565b9061073a90610578565b6103df906104da565b6103df905461094a565b634e487b7160e01b5f52602260045260245ffd5b9060016002830492168015610991575b602083101461098c57565b61095d565b91607f1691610981565b80545f9392916109b76109ad83610971565b8085529360200190565b9160018116908115610a0657506001146109d057505050565b6109e191929394505f5260205f2090565b915f925b8184106109f25750500190565b8054848401526020909301926001016109e5565b92949550505060ff1916825215156020020190565b906103df9161099b565b634e487b7160e01b5f52604160045260245ffd5b90601f01601f1916810190811067ffffffffffffffff821117610a5b57604052565b610a25565b906103c9610a7a92610a7160405190565b93848092610a1b565b0383610a39565b6103df905b6001600160601b031690565b6103df9054610a81565b610aa790600d610940565b610ab081610953565b91610abd60018301610a60565b91610aca60028201610a60565b916103df6004610adc6003850161074d565b9301610a92565b90610b2c6103c995979694610b1e610b3493608096610b1160a08801925f8901906001600160a01b03169052565b8682036020880152610443565b908482036040860152610443565b966060830152565b01906001600160601b03169052565b346103a557610414610b5e610b593660046104c6565b610a9c565b91610b6b95939560405190565b95869586610ae3565b906103c9610b8160405190565b9283610a39565b67ffffffffffffffff8111610a5b57602090601f01601f19160190565b90825f939282370152565b90929192610bc5610bc082610b88565b610b74565b93818552818301116103a5576103c9916020850190610ba5565b9080601f830112156103a5578160206103df93359101610bb0565b9190916040818403126103a557610c11838261052a565b92602082013567ffffffffffffffff81116103a5576103df9201610bdf565b610573610c3e366004610bfa565b906122bf565b346103a557610c54366004610418565b6104146105b26123ba565b346103a557610573610c723660046104c6565b6125be565b346103a557610c87366004610418565b6104146104016125c7565b346103a557610573610ca5366004610537565b906127fa565b60ff81166103b5565b905035906103c982610cab565b91906040838203126103a5576103df906020610cdd82866104b9565b9401610cb4565b610573610cf2366004610cc1565b90612a4d565b346103a557610414610501610d0e3660046104c6565b612aa3565b6103df916008021c61075c565b906103df9154610d13565b610d436103df92610d3e5f936010610940565b610730565b610d20565b346103a557610414610401610d5e3660046106b8565b90610d2b565b346103a5576104146105b2610d7a3660046106f4565b612b2d565b346103a557610d8f366004610418565b6104145f5160206156f55f395f51905f526105b2565b634e487b7160e01b5f52603260045260245ffd5b8054821015610dd957610dd16004915f5260205f2090565b910201905f90565b610da5565b610de9906013610940565b90610df2825490565b8110156103a557610e0291610db9565b5090610e0d82610953565b91610e1a6001820161074d565b916103df6003610e2c60028501610762565b930161074d565b6106726103c994610e63606094989795610e5c608086019a5f8701906001600160a01b03169052565b6020850152565b60ff166040830152565b346103a557610414610e89610e83366004610605565b90610dde565b90610e9694929460405190565b94859485610e33565b909182601f830112156103a55781359167ffffffffffffffff83116103a55760200192600183028401116103a557565b6001600160601b0381166103b5565b905035906103c982610ecf565b6060818303126103a557803567ffffffffffffffff81116103a55782610f12918301610e9f565b929093602083013567ffffffffffffffff81116103a55782610f3b6040946103df938701610e9f565b94909501610ede565b346103a5576104146105b2610f5a366004610eeb565b93929092612fdb565b346103a557610573610f76366004610605565b906133b2565b346103a557610573610f8f366004610605565b90613431565b346103a557610fa5366004610418565b61057361345c565b346103a557610573610fc03660046106f4565b613534565b346103a557610414610401610fdb3660046106b8565b9061353d565b346103a557610ff1366004610418565b6104146104a7613556565b805182526103c9919060a090819060208181015160ff169085015261102660408201516040860152565b61103560608201516060860152565b60808181015163ffffffff1690850152015163ffffffff16910152565b60c0810192916103c99190610ffc565b346103a55761041461107d6110783660046106f4565b61363b565b60405191829182611052565b346103a55761057361109c3660046106f4565b6136c6565b6103df5f610578565b6103df6110a1565b346103a5576110c2366004610418565b6104146105b26110aa565b8015156103b5565b905035906103c9826110cd565b91906040838203126103a5576103df9060206110fe828661052a565b94016110d5565b346103a5576105736111183660046110e2565b906136cf565b9190916040818403126103a55761113583826104b9565b92602082013567ffffffffffffffff81116103a5576111549201610e9f565b9091565b346103a55761057361116b36600461111e565b916139a5565b346103a5576105736111843660046104c6565b613a36565b906080828203126103a55761119e818361052a565b926111ac826020850161052a565b926111ba83604083016104b9565b92606082013567ffffffffffffffff81116103a5576103df9201610bdf565b346103a5576105736111ec366004611189565b92919091613a3f565b6103df5f6017610887565b346103a557611210366004610418565b6104146105016111f5565b346103a55761057361122e3660046106f4565b613cce565b346103a5576104146104a76112493660046104c6565b613cd7565b6103df916008021c81565b906103df915461124e565b5f6112736103df926011610940565b611259565b346103a5576104146105b261128e3660046104c6565b611264565b346103a5576105736112a6366004610605565b90613ed5565b8054821015610dd957610dd16001915f5260205f2090565b634e487b7160e01b5f525f60045260245ffd5b905f106112e7576103df90610a60565b6112c4565b6112f7906012610940565b80548210156103a5576103df9161130d916112ac565b906112d7565b346103a5576104146104a7611329366004610605565b906112ec565b346103a5576105736113423660046106b8565b90613efa565b6103df5f6015610887565b346103a557611363366004610418565b610414610501611348565b5f6112736103df92600f610940565b346103a5576104146105b26113933660046104c6565b61136e565b91906040838203126103a5576103df9060206106d4828661052a565b346103a5576104146104016113ca366004611398565b90613f04565b346103a5576113e0366004610418565b6104147f189ab7a9244df0848122154315af71fe140f3db0fe014031783b0946b8c9d2e36105b2565b346103a55761057361141c3660046106f4565b613f8d565b5f610d436103df92600e610940565b346103a5576104146104016114463660046104c6565b611421565b6103df90613f96565b6103df90610a60565b6103df6002611454565b6114866103df916114755f90565b5061147f81613fbf565b6006610940565b610953565b1561149257565b60405162461bcd60e51b815260206004820152602160248201527f4552433732313a20617070726f76616c20746f2063757272656e74206f776e656044820152603960f91b606482015280608481015b0390fd5b156114ed57565b60405162461bcd60e51b815260206004820152603d60248201527f4552433732313a20617070726f76652063616c6c6572206973206e6f7420746f60448201527f6b656e206f776e6572206f7220617070726f76656420666f7220616c6c0000006064820152608490fd5b906103c9916115a361156983612aa3565b6115876001600160a01b0382166001600160a01b038516141561148b565b336001600160a01b03821681149182156115a8575b50506114e6565b613fd0565b6115b29250613f04565b5f8061159c565b156115c057565b60405162461bcd60e51b815260206004820152602d60248201527f4552433732313a2063616c6c6572206973206e6f7420746f6b656e206f776e6560448201526c1c881bdc88185c1c1c9bdd9959609a1b6064820152608490fd5b6103c992919061163361162e8433614029565b6115b9565b6140d2565b906103c99161164561413c565b611708565b1561165157565b60405162461bcd60e51b81526020600482015260096024820152682737ba1037bbb732b960b91b6044820152606490fd5b1561168957565b60405162461bcd60e51b815260206004820152600d60248201526c496e76616c696420707269636560981b6044820152606490fd5b9060ff905b9181191691161790565b906116dd6103df6116e492151590565b82546116be565b9055565b905f19906116c3565b906117016103df6116e492610578565b82546116e8565b61172c61171482612aa3565b611726335b916001600160a01b031690565b1461164a565b61173f6117385f610578565b8311611682565b611754600161174f83600e610940565b6116cd565b6117688261176383600f610940565b6116f1565b7f5dc96537cbae524775a674b6a810d9a1ba04a9e279f172d156b352151394677a6117a861179e61179833610727565b93610578565b936105b660405190565b0390a3565b906103c991611638565b9061073a565b60016117d56103df926117cd5f90565b5060096117b7565b0161074d565b6103df9060a01c610a86565b6103df90546117db565b6103df6040610b74565b906103c961182f5f61180b6117f1565b9461182961181a838301610953565b6001600160a01b031687840152565b016117e7565b6001600160601b03166020840152565b6103df906117fb565b6104da6103df6103df9290565b6103df90611848565b6103df6103df6103df926001600160601b031690565b634e487b7160e01b5f52601160045260245ffd5b8181029291811591840414171561189b57565b611874565b634e487b7160e01b5f52601260045260245ffd5b906118be565b9190565b9081156118c9570490565b6118a0565b6118e76118ec919392936118df5f90565b506001610940565b61183f565b916118fe83516001600160a01b031690565b61190d6117196104da5f611855565b14611960575b5f6119516119406118ba9361193a61193560208901516001600160601b031690565b61185e565b90611888565b61194b61193561414f565b906118b4565b9301516001600160a01b031690565b91506118ba5f6119516119406119758361183f565b959350505050611913565b6103c99061198c61413c565b61199d906119986141b0565b611d0d565b6103c96141e2565b156119ac57565b60405162461bcd60e51b815260206004820152600a602482015269139bdd081b1a5cdd195960b21b6044820152606490fd5b156119e557565b60405162461bcd60e51b815260206004820152601460248201527f496e73756666696369656e74207061796d656e740000000000000000000000006044820152606490fd5b9190820391821161189b57565b63ffffffff1663ffffffff811461189b5760010190565b9063ffffffff906116c3565b6107716103df6103df9263ffffffff1690565b90611a7d6103df6116e492611a5a565b8254611a4e565b9067ffffffff000000009060201b6116c3565b90611aa76103df6116e492611a5a565b8254611a84565b9190820180921161189b57565b6103df906004611888565b915f1960089290920291821b911b6116c3565b921b90565b9190611aef6103df6116e493610578565b908354611ac6565b6103c9915f91611ade565b5f8082556103c991600390611b1a8360018301611af7565b82600282015501611af7565b905f036112e7576103c990611b02565b818110611b41575050565b80611b4e5f600493611b26565b01611b36565b919091828210611b6357505050565b611b85611b7b611b756103c995611abb565b93611abb565b915f5260205f2090565b9182019101611b36565b90600160401b8111610a5b5781611ba76103c9935490565b90828155611b54565b5f6103c991611b8f565b905f036112e7576103c990611bb0565b90611bd7610bc083610b88565b918252565b3d15611bf557611beb3d611bca565b903d5f602084013e565b606090565b15611c0157565b60405162461bcd60e51b815260206004820152601860248201527f5472656173757279207472616e73666572206661696c656400000000000000006044820152606490fd5b15611c4d57565b60405162461bcd60e51b815260206004820152601660248201527f53656c6c6572207472616e73666572206661696c6564000000000000000000006044820152606490fd5b6103e290610578565b6103df91604082019190611cb0908290611c92565b6020818303910152600881526713919517d4d3d31160c21b602082015260400190565b6103df91604082019190611ce8908290611c92565b6020818303910152600a81526913919517d093d551d21560b21b602082015260400190565b611d1881600e610940565b611d2190610762565b611d2a906119a5565b600f611d368282610940565b611d3f9061074d565b341015611d4b906119de565b611d5482612aa3565b90611d5f8382610940565b611d689061074d565b92611d748133856140d2565b611d7c610585565b611d869085611888565b611d906064610578565b611d99916118b4565b93611da48582611a2a565b93601494611db28287610730565b600401611dbe8161077a565b611dc790611a37565b611dd091611a6d565b611dda3387610730565b600401611de681610790565b611def90611a37565b611df891611a97565b611e0186610578565b611e0b8388610730565b90611e158261074d565b90611e1f91611aae565b611e28916116f1565b611e3185610578565b611e3b3388610730565b90611e458261074d565b90611e4f91611aae565b611e58916116f1565b611e6384600e610940565b5f611e6d916116cd565b611e765f610578565b611e808587610940565b90611e8a916116f1565b611e95846013610940565b5f611e9f91611bba565b86611eaa6015610953565b611eb390610727565b611ebc90610727565b6040515f905a935f94938594f1611ed1611bdc565b50611edb90611bfa565b611ee482610727565b611eed90610727565b6040515f905a935f94938594f1611f02611bdc565b50611f0c90611c46565b611f166015610953565b90611f2033610727565b9687611f2c8194610727565b91611f3660405190565b908152604060208201819052600a9082015269544f4b454e5f53414c4560b01b60608201527f21ef4c3fb7c1ca86841fe7b11bbb71ad12bd4b7bb3205924ec33c681c9d47c3f90608090a3611f8a90610727565b611f948194610578565b92611f9e60405190565b9081527fa8a7473f10e62cf9687e243de1c3ac8b3cbc3dd04b96826beb3a65b59538581490602090a45f5160206157155f395f51905f528093611fe060405190565b611feb819282611c9b565b0390a2604051611ffc819282611cd3565b0390a2565b6103c990611980565b906103c99161202061201b826117bd565b6141ed565b906103c9916141f8565b906103c99161200a565b1561203b57565b60405162461bcd60e51b815260206004820152602f60248201527f416363657373436f6e74726f6c3a2063616e206f6e6c792072656e6f756e636560448201526e103937b632b9903337b91039b2b63360891b6064820152608490fd5b6103c991906120b96120a9336104da565b6001600160a01b03841614612034565b61425b565b156120c557565b60405162461bcd60e51b815260206004820152602c60248201527f46756e6374696f6e206d7573742062652063616c6c6564207468726f7567682060448201526b19195b1959d85d1958d85b1b60a21b6064820152608490fd5b1561212657565b60405162461bcd60e51b815260206004820152602c60248201527f46756e6374696f6e206d7573742062652063616c6c6564207468726f7567682060448201526b6163746976652070726f787960a01b6064820152608490fd5b6103c9906121f061219030610727565b6121cf7f0000000000000000000000000000000000000000000000000000000000000000916121c8611719846001600160a01b031690565b14156120be565b6121ea6117196121dd6142ba565b926001600160a01b031690565b1461211f565b61221d565b369037565b906103c961221061220a84611bca565b93610b88565b601f1901602084016121f5565b5f6103c99161222b816142f9565b61223c61223783610578565b6121fa565b906143aa565b6103c990612180565b6122615f5160206156f55f395f51905f526141ed565b6103c96103c96144f1565b6103c961224b565b6103df5f611bca565b6103df612274565b90916103c99261229361227d565b92613a3f565b906103c9916122aa61219030610727565b6103c9916001916122ba816142f9565b6143aa565b906103c991612299565b156122d057565b60405162461bcd60e51b815260206004820152603860248201527f555550535570677261646561626c653a206d757374206e6f742062652063616c60448201527f6c6564207468726f7567682064656c656761746563616c6c00000000000000006064820152608490fd5b6103df9061238361234b30610727565b61237d6001600160a01b037f000000000000000000000000000000000000000000000000000000000000000016611719565b146122c9565b6123b1565b6103df7f360894a13ba1a3210667c828492db98dca3e2076cc3735a920a3ca505d382bbc610578565b506103df612388565b6103df5f61233b565b6103c9906123cf61413c565b612441565b156123db57565b60405162461bcd60e51b815260206004820152600a6024820152694e6f742065786973747360b01b6044820152606490fd5b6103df91604082019190612422908290611c92565b602081830391015260048152634c494b4560e01b602082015260400190565b61246361244d82612aa3565b61245c6117196104da5f611855565b14156123d4565b6124cb61248661247f83601061248b61248661247f8484610940565b3390610730565b610762565b1561252c576124a15f61174f61247f8585610940565b6124b46124af836011610940565b61074d565b6124c06118ba5f610578565b11612506575b610940565b907f4d5c3df35a8d7d04f2e10db1454548af37ee7449c97a4b4c243681f29c2ea4076117a86124fc61179833610727565b9361040560405190565b6124c6612514836011610940565b6125266125208261074d565b5f190190565b906116f1565b61253e600161174f61247f8585610940565b61255e61254c836011610940565b6125266125588261074d565b60010190565b61258a61256b6001610578565b6125265f61257a336014610730565b01916125858361074d565b611aae565b61259333610727565b5f5160206157155f395f51905f526125aa60405190565b806125b660018261240d565b0390a2610940565b6103c9906123c3565b6103df600b610762565b6103c991906125ec5f5160206156f55f395f51905f526141ed565b61267f565b6103df611388610578565b1561260357565b60405162461bcd60e51b815260206004820152601660248201527f5850206f766572666c6f772070726f74656374696f6e000000000000000000006044820152606490fd5b61075c6103df6103df9290565b6103df6032612648565b61075c6103df6103df9260ff1690565b906116dd6103df6116e49261265f565b611ffc61274b5f5160206157155f395f51905f529260146126c06126ab876125855f6117d58787610730565b6126b96118ba6103df6125f1565b11156125fc565b6126dc5f6126ce8484610730565b01612526886125858361074d565b816127006126fb6126f15f6117d58587610730565b61194b6064610578565b612648565b918261270a612655565b9061271a60ff83165b9160ff1690565b116127f2575b5061273961075c60016127338585610730565b01610762565b60ff841611612789575b505050610727565b9261275560405190565b91829182908152604060208201819052600f908201526e45585445524e414c5f534f5552434560881b606082015260800190565b600161279961279f938593610730565b0161266f565b7fa49b8576e012f713baa7dceadb7d709aaec8773b498ecfe582d8b9c0c8fd074f6127e76127cc84610727565b926127d660405190565b9182918260ff909116815260200190565b0390a25f8181612743565b92505f612720565b906103c9916125d1565b906103c99161281161413c565b61295b565b1561281d57565b60405162461bcd60e51b815260206004820152600d60248201526c24b73b30b634b21037b33332b960991b6044820152606490fd5b1561285957565b60405162461bcd60e51b815260206004820152600e60248201526d496e76616c69642065787069727960901b6044820152606490fd5b6103df6080610b74565b906001600160a01b03906116c3565b906128b86103df6116e492610727565b8254612899565b600361291c60606103c9946128e66128e05f8301516001600160a01b031690565b866128a8565b6128fd6128f4602083015190565b600187016116f1565b61291761290e604083015160ff1690565b6002870161266f565b015190565b91016116f1565b91906112e7576103c9916128bf565b90815491600160401b831015610a5b57826129559160016103c995018155610db9565b90612923565b906129e89061297661297161248685600e610940565b6119a5565b6129896129825f610578565b3411612816565b6129925f612648565b60ff82161180612a32575b6129a690612852565b6129b46103df846013610940565b6129d86129bf61288f565b338152926129ce346020860152565b60ff166040840152565b6129e3426060840152565b612932565b6129fa6129f433610727565b91610578565b907f7beddbbf70d8b2a25af77e15d4a173af5f34673a1e7302c7af208aac599dc6db612a2560405190565b34815280602081016117a8565b506129a6612a40601e612648565b60ff83161115905061299d565b906103c991612804565b15612a5e57565b60405162461bcd60e51b815260206004820152601860248201527f4552433732313a20696e76616c696420746f6b656e20494400000000000000006044820152606490fd5b612aaf905f5b506144f9565b6103df612abe6104da5f611855565b6001600160a01b0383161415612a57565b15612ad657565b60405162461bcd60e51b815260206004820152602960248201527f4552433732313a2061646472657373207a65726f206973206e6f7420612076616044820152683634b21037bbb732b960b91b6064820152608490fd5b6124af6103df91612b3b5f90565b50612b5c612b4b6104da5f611855565b6001600160a01b0383161415612acf565b6005610730565b906103df9594939291612b7461413c565b612e53565b610a866103df6103df9290565b15612b8d57565b60405162461bcd60e51b815260206004820152600f60248201526e496e76616c696420726f79616c747960881b6044820152606490fd5b6103df913691610bb0565b6103df60a0610b74565b818110612be4575050565b80612bf15f600193611af7565b01612bd9565b9190601f8111612c0657505050565b612c166103c9935f5260205f2090565b906020601f840181900483019310612c38575b6020601f909101040190612bd9565b9091508190612c29565b90612c4b815190565b9067ffffffffffffffff8211610a5b57612c6f82612c698554610971565b85612bf7565b602090601f8311600114612ca8576116e492915f9183612c9d575b50505f19600883021c1916906002021790565b015190505f80612c8a565b601f19831691612cbb855f5260205f2090565b925f5b818110612cf857509160029391856001969410612cdf575b50505002019055565b01515f196008601f8516021c19165b90555f8080612cd6565b91936020600181928787015181550195019201612cbe565b906103c991612c42565b906001600160601b03906116c3565b610a866103df6103df926001600160601b031690565b90612d4f6103df6116e492612d29565b8254612d1a565b6004612dca60806103c994612d776128e05f8301516001600160a01b031690565b612d8e612d85602083015190565b60018701612d10565b612da5612d9c604083015190565b60028701612d10565b612dbc612db3606083015190565b600387016116f1565b01516001600160601b031690565b9101612d3f565b906103c991612d56565b5f19811461189b5760010190565b919061046d81612e00816104779560209181520190565b8095610ba5565b60208082526103df93910191612de9565b6103df91604082019190612e2d908290611c92565b6020818303910152600b81526a13919517d0d4915055115160aa1b602082015260400190565b7f1e1b69b56bd875547ce642e5ca9d38001b825863ffbf9cf08c72e0ff64b00a8d94959193612f2a9150612e9c612e8b612710612b79565b6001600160601b0385161115612b86565b612f00612ef9600c98612eb7612eb18b61450f565b9a614522565b612ec18a33614540565b612ed4612ece888a612bc4565b8b6145b5565b612edc612bcf565b33815293612ef4612eed898b612bc4565b6020870152565b612bc4565b6040830152565b612f0b426060830152565b6001600160601b0383166080820152612f2587600d610940565b612dd1565b612f335f612b79565b6001600160601b03821611612fca575b50612f666002612f54336014610730565b01612526612f618261074d565b612ddb565b612f7361256b600a610578565b612f7c33610727565b928391612f8886610578565b93612f9e612f9560405190565b92839283612e07565b0390a35f5160206157155f395f51905f52612fb860405190565b80612fc4600a82612e18565b0390a290565b612fd5903386614716565b5f612f43565b6103df94939291905f612b63565b9061199d91612ff66141b0565b6130f2565b906103c9613055600361300c61288f565b9461302661301982610953565b6001600160a01b03168752565b61303c6130356001830161074d565b6020880152565b6117d561304b60028301610762565b60ff166040880152565b6060840152565b6103df90612ffb565b6130756103df6103df9260ff1690565b62ffffff1690565b6130756103df6103df9290565b62ffffff9081169116029062ffffff821691820361189b57565b6103df6103df6103df9262ffffff1690565b156130bd57565b60405162461bcd60e51b815260206004820152600d60248201526c13d999995c88195e1c1a5c9959609a1b6044820152606490fd5b613333905f9261310461171483612aa3565b61314161313b60139261312c6131246103df6131208888610940565b5490565b825b10612816565b6131368585610940565b610db9565b5061305c565b61319661318e6103df613155606085015190565b613188613183613169604088015160ff1690565b61317e6131786201518061307d565b91613065565b61308a565b6130a4565b90611aae565b4211156130b6565b6132f4856131b860206131b2838601516001600160a01b031690565b94015190565b9687946131c68786336140d2565b61329882613293896131ec6131e56126f16131df610585565b8d611888565b809b611a2a565b9461326d60146125268661257a8e61322160046132093388610730565b0161321b6132168261077a565b611a37565b90611a6d565b61324360046132308388610730565b0161323d61321682610790565b90611a97565b61325d61324f86610578565b6125268561257a338a610730565b613267600f610578565b94610730565b61327c8461174f84600e610940565b6124c661328885610578565b61176384600f610940565b611bba565b6132c982806132b26132ad6132ad6015610953565b610727565b6040515f918b905af16132c3611bdc565b50611bfa565b6132d56132ad33610727565b906132df60405190565b90818003925af16132ee611bdc565b50611c46565b7f21ef4c3fb7c1ca86841fe7b11bbb71ad12bd4b7bb3205924ec33c681c9d47c3f61337061332b6133256015610953565b93610727565b958693610727565b9361333d60405190565b91829182908152604060208201819052600e908201526d13d191915497d050d0d15415115160921b606082015260800190565b0390a37fa6da490df6e8f0e592e795b4d96c5810d8ddfda51c21577adbdd8e1a0fa47a676133ad6133a361179833610727565b946105b660405190565b0390a4565b906103c991612fe9565b906103c9916133c961413c565b6133d561171482612aa3565b6133e661297161248683600e610940565b6133f26117385f610578565b6134018261176383600f610940565b7fb556fac599c3c70efb9ab1fa725ecace6c81cc48d1455f886607def065f3e0c06117a861179e61179833610727565b906103c9916133bc565b6134515f5160206156f55f395f51905f526141ed565b6103c96103c96147d7565b6103c961343b565b6103c99061347e5f5160206156f55f395f51905f526141ed565b6134c1565b1561348a57565b60405162461bcd60e51b815260206004820152600f60248201526e496e76616c6964206164647265737360881b6044820152606490fd5b6134e16134d06104da5f611855565b6001600160a01b0383161415613483565b6135026134fc6134f16016610953565b6132ad8460166128a8565b91610727565b907f86184096e44f529467a03d9c408bb371b99687d885947800e80e6d5b08108f6361352d60405190565b80806117a8565b6103c990613464565b6103df915f613550612486936117cd5f90565b01610730565b6103df6003611454565b6103df60c0610b74565b613572613560565b905f82526020808080808087015f8152015f8152015f8152015f8152015f905250565b6103df61356a565b906103c961362560046135ae613560565b946135bf6135bb8261074d565b8752565b6135d86135ce60018301610762565b60ff166020880152565b6135ee6135e76002830161074d565b6040880152565b6136046135fd6003830161074d565b6060880152565b61361f61361283830161077a565b63ffffffff166080880152565b01610790565b63ffffffff1660a0840152565b6103df9061359d565b6136526103df9161364a613595565b506014610730565b613632565b6103c9906136715f5160206156f55f395f51905f526141ed565b6136806134d06104da5f611855565b61369b6134fc6136906018610953565b6132ad8460186128a8565b907f7042586b23181180eb30b4798702d7a0233b7fc2551e89806770e8e5d9392e6a61352d60405190565b6103c990613657565b6103c991903361482b565b906103c992916136e861413c565b6138ad565b156136f457565b60405162461bcd60e51b815260206004820152601660248201527f496e76616c696420636f6d6d656e74206c656e677468000000000000000000006044820152606490fd5b6103df6103e8610578565b1561374b57565b60405162461bcd60e51b8152602060048201526011602482015270546f6f206d616e7920636f6d6d656e747360781b6044820152606490fd5b919067ffffffffffffffff8211610a5b576137a382612c698554610971565b5f90601f83116001146137da576116e492915f91836137cf5750505f19600883021c1916906002021790565b013590505f80612c8a565b90601f198316916137ee855f5260205f2090565b925f5b818110613824575091600293918560019694106138115750505002019055565b01355f19601f84166008021c1916612cee565b929360206001819287860135815501950193016137f1565b9291906112e7576103c992613784565b9190825492600160401b841015610a5b57836138709160016103c9960181556112ac565b9061383c565b6103df9160408201919061388b908290611c92565b6020818303910152600781526610d3d35351539560ca1b602082015260400190565b7f6ef560d19dd02f57976e8453b811685a89edf49009d64ab71b19489923ef5f09613956936138de61244d84612aa3565b806138eb6118ba5f610578565b1180613989575b6138fb906136ed565b61392061390c613120856012610940565b61391a6118ba6103df613739565b10613744565b61393881856139336103df876012610940565b61384c565b61394561256b6002610578565b61394e33610727565b948593610578565b93613963612f9560405190565b0390a35f5160206157155f395f51905f5261397d60405190565b80611ffc600282613876565b506138fb8161399c6118ba610118610578565b111590506138f2565b906103c992916136da565b6103c9906139bc61413c565b6139c861171482612aa3565b6139d961297161248683600e610940565b6139e85f61174f83600e610940565b6139ff6139f45f610578565b61176383600f610940565b613a0b6129f433610727565b907f24287c09523dfd960e13a9774c247fb28a2ccb301eb4208b0d4072bcd0f1826e61352d60405190565b6103c9906139b0565b6103c993929190613a5361162e8433614029565b6148f5565b6103df9060101c61075c565b6103df9054613a58565b6103df9060081c61075c565b6103df9054613a6e565b15613a8b57565b60405162461bcd60e51b815260206004820152602e60248201527f496e697469616c697a61626c653a20636f6e747261637420697320616c72656160448201526d191e481a5b9a5d1a585b1a5e995960921b6064820152608490fd5b9061ff009060081b6116c3565b90613b046103df6116e49261265f565b8254613ae7565b9062ff00009060101b6116c3565b90613b296103df6116e492151590565b8254613b0b565b6103e290612648565b6020810192916103c99190613b30565b613b93613b5d613b59600b613a64565b1590565b918280613c2e575b8015613bf0575b613b7590613a84565b82613b8a613b836001612648565b600b613af4565b613bdf57613c4c565b613b9957565b613ba45f600b613b19565b7f7f26b83ff96e1f2b6a682f133852f6798a09c465da95921460cefb3847402498613bce60405190565b80613bda600182613b39565b0390a1565b613beb6001600b613b19565b613c4c565b50613c05613b59613c0030610727565b614914565b8015613b6c5750613b75613c19600b613a7a565b613c266127136001612648565b149050613b6c565b50613c39600b613a7a565b613c466127136001612648565b10613b65565b613c5e613c576110a1565b3390612020565b613c745f5160206156f55f395f51905f52613c57565b613c9d7f189ab7a9244df0848122154315af71fe140f3db0fe014031783b0946b8c9d2e3613c57565b613ca96104da5f611855565b6001600160a01b03821614613cc4576103c9905b60156128a8565b506103c933613cbd565b6103c990613b49565b6103df9061495a565b9061199d91613ced6141b0565b613df3565b15613cf957565b60405162461bcd60e51b815260206004820152600b60248201526a2737ba1037b33332b937b960a91b6044820152606490fd5b818103613d37575050565b600361291c8184613d4f6128e05f6103c99801610953565b613d5e6128f46001830161074d565b6117d561290e60028301610762565b91906112e7576103c991613d2c565b634e487b7160e01b5f52603160045260245ffd5b80548015613db2575f190190613daf613da98383610db9565b90611b26565b55565b613d7c565b15613dbe57565b60405162461bcd60e51b815260206004820152600d60248201526c1499599d5b990819985a5b1959609a1b6044820152606490fd5b5f6103c992613eaa613ea56103df84956013613e1e613e186103df6131208585610940565b87613126565b6124c6613e5c6020613e3761313b8a6131368888610940565b612917613e4d8c8301516001600160a01b031690565b613e5633611719565b14613cf2565b96613e9f613e93613e6d8686610940565b613e8d613e7d6131208989610940565b613e876001610578565b90611a2a565b90610db9565b50916131368686610940565b90613d6d565b613d90565b613eb66132ad33610727565b90613ec060405190565b90818003925af1613ecf611bdc565b50613db7565b906103c991613ce0565b906103c991613ef061201b826117bd565b906103c99161425b565b906103c991613edf565b6103df91610d3e61248692613f165f90565b506007610730565b6103c990613f385f5160206156f55f395f51905f526141ed565b613f476134d06104da5f611855565b613f626134fc613f576017610953565b6132ad8460176128a8565b907fb7b5cab3bc5ae437bba269a16d0a369211a068ae683607ff2ca96f344492953961352d60405190565b6103c990613f1e565b637965db0b60e01b6001600160e01b0319821614908115613fb5575090565b6103df91506149e5565b613fcb6103c9916149ee565b612a57565b90613fe582613fe0836006610940565b6128a8565b613ff76129f46133256132ad84612aa3565b917f8c5be1e5ebec7d5bd14f71427d1e84f3dd0314c0f7b2291e5b200ac8c7c3b92561402260405190565b80806133ad565b61403282612aa3565b916001600160a01b0383166001600160a01b03831614928315614072575b50821561405c57505090565b61406e9192506121dd61171991611467565b1490565b61407f9193508290613f04565b915f614050565b1561408d57565b60405162461bcd60e51b815260206004820152601f60248201527f43616e6e6f74207472616e7366657220746f207a65726f2061646472657373006044820152606490fd5b906103c992916140f86140e76104da5f611855565b6001600160a01b0384161415614086565b614afc565b1561410457565b60405162461bcd60e51b815260206004820152601060248201526f14185d5cd8589b194e881c185d5cd95960821b6044820152606490fd5b6103c961414a613b596125c7565b6140fd565b6103df612710612b79565b6103df6002610578565b1561416b57565b60405162461bcd60e51b815260206004820152601f60248201527f5265656e7472616e637947756172643a207265656e7472616e742063616c6c006044820152606490fd5b6103c96141bd600a61074d565b6141d16141c861415a565b91821415614164565b600a6116f1565b6103df6001610578565b6103c96141d16141d8565b6103c9903390614c49565b614205613b59838361353d565b61420d575050565b614222600161174f845f6135508660096117b7565b6142306134fc613325339390565b917f2f8788117e7eff1d82e926ec794901d17c78024a50270940304540a733656f0d61402260405190565b614265828261353d565b61426d575050565b6142815f61174f84826135508660096117b7565b61428f6134fc613325339390565b917ff6391f5c32d9c69d2a47ea670b442974b53935d1edc7fd64eb21e047a839171b61402260405190565b6103df5f6142c96103df612388565b01610953565b506103c97f189ab7a9244df0848122154315af71fe140f3db0fe014031783b0946b8c9d2e36141ed565b6103c9906142cf565b6103df7f4910fdfa16fed3260ed0e7147f7cc6da11a60208b5b9406d12a635614ffd9143610578565b905051906103c9826104b3565b906020828203126103a5576103df9161432b565b1561435357565b60405162461bcd60e51b815260206004820152602960248201527f45524331393637557067726164653a20756e737570706f727465642070726f786044820152681a58589b195555525160ba1b6064820152608490fd5b91906143bb5f6127336103df614302565b156143cb5750506103c990614d62565b6143d76132ad84610727565b9260206143e360405190565b6352d1902d60e01b815294859060049082905afa5f9481614480575b506144605760405162461bcd60e51b815260206004820152602e60248201527f45524331393637557067726164653a206e657720696d706c656d656e7461746960448201526d6f6e206973206e6f74205555505360901b6064820152608490fd5b61447b6103c9946144756118ba6103df612388565b1461434c565b614cc2565b6144a391955060203d6020116144aa575b61449b8183610a39565b810190614338565b935f6143ff565b503d614491565b6144b9614dd5565b6103c96144c75f600b6116cd565b7f5db9ee0a495bf2e6ff9c91a7834c1ba4fdd244a5e8aa4e537bd38aeae4b073aa613bda33610501565b6103c96144b1565b6114866103df916145075f90565b506004610940565b5f6103df9161451b5f90565b500161074d565b6103c9906125265f6145346001610578565b9201916104778361074d565b6103c99161454c61227d565b91614de5565b1561455957565b60405162461bcd60e51b815260206004820152602e60248201527f45524337323155524953746f726167653a2055524920736574206f66206e6f6e60448201526d32bc34b9ba32b73a103a37b5b2b760911b6064820152608490fd5b613bda906105b27ff8e1a15aba9398e019f0b49df1a4fde98ee17ae345cb5f6b5e2c27f5033e8ce7936145ef6145ea846149ee565b614552565b6145fa836008610940565b612d10565b1561460657565b60405162461bcd60e51b815260206004820152602a60248201527f455243323938313a20726f79616c7479206665652077696c6c206578636565646044820152692073616c65507269636560b01b6064820152608490fd5b1561466557565b60405162461bcd60e51b815260206004820152601b60248201527f455243323938313a20496e76616c696420706172616d657465727300000000006044820152606490fd5b9073ffffffffffffffffffffffffffffffffffffffff199060a01b6116c3565b906146da6103df6116e492612d29565b82546146aa565b6103c99161470690602090612dbc61470082516001600160a01b031690565b856128a8565b906146ca565b906103c9916146e1565b6147919061478a6103c99461474061472f610a8661414f565b6001600160601b03831611156145ff565b61476061474f6104da5f611855565b6001600160a01b038716141561465e565b61477a61476b6117f1565b6001600160a01b039096168652565b6001600160601b03166020850152565b6001610940565b61470c565b61479e61413c565b6103c96147ad6001600b6116cd565b7f62e78cea01bee320cd4e420270b5ea74000d11b0c9f74754ebdbfc544b05a258613bda33610501565b6103c9614796565b156147e657565b60405162461bcd60e51b815260206004820152601960248201527f4552433732313a20617070726f766520746f2063616c6c6572000000000000006044820152606490fd5b6117a86124fc6133257f17307eab39ab6107e8899845ad3d59bd9653f200f220920489ca2b5937696c319361487a614869876001600160a01b031690565b6001600160a01b03831614156147df565b6132ad8761174f88610d3e856007610730565b1561489457565b6040515b62461bcd60e51b815260206004820152603260248201527f4552433732313a207472616e7366657220746f206e6f6e20455243373231526560448201527131b2b4bb32b91034b6b83632b6b2b73a32b960711b6064820152608490fd5b916103c9939161490f9361490a8383836140d2565b614e58565b61488d565b3b6149216118ba5f610578565b1190565b61047761493d92602092614937815190565b94859290565b93849101610422565b614954906103df9392614925565b90614925565b61496381613fbf565b614976614971826008610940565b611454565b61497e614f30565b805161498c6118ba5f610578565b146149df57815161499f6118ba5f610578565b116149af5750506103df90614f38565b6103df92506149d3916103df916149c560405190565b938492602084019283614946565b90810382520382610a39565b50905090565b6103df90614fa4565b6149f8905f612aa9565b614a076117196104da5f611855565b141590565b15614a1357565b60405162461bcd60e51b815260206004820152602560248201527f4552433732313a207472616e736665722066726f6d20696e636f72726563742060448201526437bbb732b960d91b6064820152608490fd5b15614a6d57565b60405162461bcd60e51b8152602060048201526024808201527f4552433732313a207472616e7366657220746f20746865207a65726f206164646044820152637265737360e01b6064820152608490fd5b919060086116c3910291611ad96001600160a01b03841b90565b9190614ae96103df6116e493610727565b908354614abe565b6103c9915f91614ad8565b6129f4613325614bc092949394614b2d614b1586612aa3565b614b276001600160a01b038416611719565b14614a0c565b614b4d614b3c6104da5f611855565b6001600160a01b0388161415614a66565b614b59614b1586612aa3565b614b6d5f614b68876006610940565b614af1565b614bb1614b7a6001610578565b614b99614b88846005610730565b61252683614b958361074d565b0390565b612526614ba7896005610730565b916104778361074d565b6132ad86613fe0876004610940565b917fddf252ad1be2c89b69c2b068fc378daa952ba7f163c4a11628f55a4df523b3ef61402260405190565b6103df90610578565b614c2c6103df9392614954614954937f416363657373436f6e74726f6c3a206163636f756e7420000000000000000000815260170190565b7001034b99036b4b9b9b4b733903937b6329607d1b815260110190565b90614c57613b59828461353d565b614c5f575050565b6149d36103df6114e293614c91614c81614c7b614ca996615005565b92614beb565b614c8b6020610578565b906150be565b90614c9b60405190565b938492602084019283614bf4565b6040515b62461bcd60e51b81529182916004830161047b565b91614ccc836151d1565b8151614cda6118ba5f610578565b11908115614cf8575b50614cec575050565b614cf59161525a565b50565b90505f614ce3565b15614d0757565b60405162461bcd60e51b815260206004820152602d60248201527f455243313936373a206e657720696d706c656d656e746174696f6e206973206e60448201526c1bdd08184818dbdb9d1c9858dd609a1b6064820152608490fd5b6103c990614d77614d7282614914565b614d00565b5f614d836103df612388565b016128a8565b15614d9057565b60405162461bcd60e51b815260206004820152601460248201527f5061757361626c653a206e6f74207061757365640000000000000000000000006044820152606490fd5b6103c9614de06125c7565b614d89565b9161490f916103c993614df88282615308565b61490a5f611855565b905051906103c9826103a9565b906020828203126103a5576103df91614e01565b6001600160a01b039182168152911660208201526103df926080820192909190614e4b90612ef9565b6060818403910152610443565b909190614e6483614914565b15614f2757614e776132ad602094610727565b905f33614ea0614e8660405190565b97889687958694630a85bd0160e11b865260048601614e22565b03925af15f9181614ef6575b50614edc57614eb9611bdc565b8051614ec76118ba5f610578565b03614ed457604051614898565b805190602001fd5b61406e630a85bd0160e11b5b916001600160e01b03191690565b614f1991925060203d602011614f20575b614f118183610a39565b810190614e0e565b905f614eac565b503d614f07565b50505050600190565b6103df61227d565b614f4181613fbf565b614f49614f30565b8051614f576118ba5f610578565b1115614f7a576103df6149d391614f706103df94615369565b906149c560405190565b50506103df61227d565b614f97614f916103df9290565b60e01b90565b6001600160e01b03191690565b614fb4614f976349064906614f84565b6001600160e01b0319821614908115614fcb575090565b6103df91506153f4565b6103df6103df6103df926001600160a01b031690565b6103df6014612648565b6103df6103df6103df9260ff1690565b61502261501d6103df92615017606090565b5061071e565b614fd5565b614c8b61502d614feb565b614ff5565b9061503b825190565b811015610dd9570160200190565b801561189b575f190190565b6103df906150696118ba6103df9460ff1690565b901c90565b1561507557565b60405162461bcd60e51b8152806114e2600482016020808252818101527f537472696e67733a20686578206c656e67746820696e73756666696369656e74604082015260600190565b6150e16122376150d7846150d26002610578565b611888565b6131886002610578565b9160306150f66150f05f610578565b85615032565b53600f60fb1b61512f61512660019384935f1a61511b61511586610578565b89615032565b536150d26002610578565b61318883610578565b915b615152575b5050906103df6103df9261514c6118ba5f610578565b1461506e565b909161515d82610578565b8311156151cb576f181899199a1a9b1b9c1cb0b131b232b360811b615182600f610578565b8216906010821015610dd95783926151a26151bf926151c5941a60f81b90565b5f1a6151ae8789615032565b536151b96004612648565b90615055565b93615049565b91615131565b91615136565b6151de906132ad81614d62565b7fbc7cd75a20ee27fd9adebab32041f755214dbc6bffa90cc0225b39da2e5c2d3b61520860405190565b8080611ffc565b6152196027611bca565b7f416464726573733a206c6f772d6c6576656c2064656c65676174652063616c6c6020820152660819985a5b195960ca1b604082015290565b6103df61520f565b6103df91615266615252565b9161543f565b1561527357565b60405162461bcd60e51b8152806114e2600482016020808252818101527f4552433732313a206d696e7420746f20746865207a65726f2061646472657373604082015260600190565b156152c357565b60405162461bcd60e51b815260206004820152601c60248201527f4552433732313a20746f6b656e20616c7265616479206d696e746564000000006044820152606490fd5b90614bc06129f461332561531b5f611855565b6153396001600160a01b0382166001600160a01b038816141561526c565b61534d615348613b59876149ee565b6152bc565b61535c615348613b59876149ee565b614bb1614b996001610578565b61537281615466565b906153836001926104776001610578565b918061538e846121fa565b936020018401905b6153a1575b50505090565b81156153ef576153d4905f1901926f181899199a1a9b1b9c1cb0b131b232b360811b600a82061a845361194b600a610578565b90816153e26118ba5f610578565b146153ef57909181615396565b61539b565b6380ac58cd60e01b6001600160e01b0319821614908115615424575b811561541a575090565b6103df9150615607565b6001600160e01b03198116635b5e139f60e01b149150615410565b5f806103df949361544e606090565b50602081519101845af4615460611bdc565b9161567c565b61546f5f610578565b907a184f03e93ff9f4daa797ed6e38ed64bf6a1f01000000000000000061549581610578565b8210156155e5575b506d04ee2d6d415b85acef81000000006154b681610578565b8210156155c3575b50662386f26fc100006154d081610578565b8210156155a1575b506305f5e1006154e781610578565b82101561557f575b506127106154fc81610578565b82101561555d575b5061550f6064610578565b81101561553b575b6155246118ba600a610578565b101561552d5790565b6103df906104776001610578565b61554c6155579161194b6064610578565b916104776002610578565b90615517565b6155789161194b61556d92610578565b916104776004610578565b905f615504565b61559a9161194b61558f92610578565b916104776008610578565b905f6154ef565b6155bc9161194b6155b192610578565b916104776010610578565b905f6154d8565b6155de9161194b6155d392610578565b916104776020610578565b905f6154be565b6156009161194b6155f592610578565b916104776040610578565b905f61549d565b63152a902d60e11b6001600160e01b0319821614908115615626575090565b6103df91506156b3565b1561563757565b60405162461bcd60e51b815260206004820152601d60248201527f416464726573733a2063616c6c20746f206e6f6e2d636f6e74726163740000006044820152606490fd5b919290156156ad575081516156936118ba5f610578565b1461569c575090565b6156a86103df91614914565b615630565b826156c3565b61406e6301ffc9a760e01b614ee8565b906156cc825190565b6156d86118ba5f610578565b11156156e75750805190602001fd5b6114e290614cad6040519056fea49807205ce4d355092ef5a8a18f56e8913cf4a201fbe287825b095693c21775bc485bf8e37db28d327f937baa2ba28235470b977aa1200fd7eedfd31f24ac45a26469706673582212202a90c1e7e0bd4924273987ad61ed49837dcbceed154c07bdef7d97d35aa1f69a64736f6c634300081c0033",
  "linkReferences": {},
  "deployedLinkReferences": {}
}