{
  "_format": "hh-sol-artifact-1",
  "contractName": "GameifiedMarketplaceSkillsV2",
  "sourceName": "contracts/Marketplace/GameifiedMarketplaceSkillsNft.sol",
  "abi": [
    {
      "inputs": [
        {
          "internalType": "address",
          "name": "_coreAddress",
          "type": "address"
        }
      ],
      "stateMutability": "nonpayable",
      "type": "constructor"
    },
    {
      "inputs": [],
      "name": "CoreContractNotSet",
      "type": "error"
    },
    {
      "inputs": [],
      "name": "DuplicateSkillType",
      "type": "error"
    },
    {
      "inputs": [
        {
          "internalType": "uint256",
          "name": "required",
          "type": "uint256"
        },
        {
          "internalType": "uint256",
          "name": "current",
          "type": "uint256"
        }
      ],
      "name": "InsufficientStakingBalance",
      "type": "error"
    },
    {
      "inputs": [],
      "name": "InvalidAddress",
      "type": "error"
    },
    {
      "inputs": [
        {
          "internalType": "uint256",
          "name": "expected",
          "type": "uint256"
        },
        {
          "internalType": "uint256",
          "name": "provided",
          "type": "uint256"
        }
      ],
      "name": "InvalidPrice",
      "type": "error"
    },
    {
      "inputs": [
        {
          "internalType": "uint8",
          "name": "rarity",
          "type": "uint8"
        }
      ],
      "name": "InvalidRarity",
      "type": "error"
    },
    {
      "inputs": [],
      "name": "InvalidSkillCount",
      "type": "error"
    },
    {
      "inputs": [],
      "name": "InvalidSkillType",
      "type": "error"
    },
    {
      "inputs": [],
      "name": "MaxActiveSkillsReached",
      "type": "error"
    },
    {
      "inputs": [],
      "name": "NotSkillOwner",
      "type": "error"
    },
    {
      "inputs": [],
      "name": "SkillNFTNotFound",
      "type": "error"
    },
    {
      "inputs": [
        {
          "internalType": "uint256",
          "name": "expiryTime",
          "type": "uint256"
        }
      ],
      "name": "SkillNotExpiredYet",
      "type": "error"
    },
    {
      "inputs": [
        {
          "internalType": "enum IStakingIntegration.SkillType",
          "name": "skillType",
          "type": "uint8"
        }
      ],
      "name": "SkillTypeAlreadyActiveDuplicate",
      "type": "error"
    },
    {
      "anonymous": false,
      "inputs": [
        {
          "indexed": true,
          "internalType": "address",
          "name": "admin",
          "type": "address"
        },
        {
          "indexed": false,
          "internalType": "uint256",
          "name": "amount",
          "type": "uint256"
        },
        {
          "indexed": true,
          "internalType": "address",
          "name": "to",
          "type": "address"
        }
      ],
      "name": "EmergencyWithdrawal",
      "type": "event"
    },
    {
      "anonymous": false,
      "inputs": [
        {
          "indexed": true,
          "internalType": "address",
          "name": "user",
          "type": "address"
        },
        {
          "indexed": true,
          "internalType": "uint256",
          "name": "tokenId",
          "type": "uint256"
        },
        {
          "indexed": false,
          "internalType": "enum IStakingIntegration.SkillType",
          "name": "skillType",
          "type": "uint8"
        }
      ],
      "name": "FreeSkillClaimed",
      "type": "event"
    },
    {
      "anonymous": false,
      "inputs": [
        {
          "indexed": false,
          "internalType": "address",
          "name": "account",
          "type": "address"
        }
      ],
      "name": "Paused",
      "type": "event"
    },
    {
      "anonymous": false,
      "inputs": [
        {
          "indexed": true,
          "internalType": "bytes32",
          "name": "role",
          "type": "bytes32"
        },
        {
          "indexed": true,
          "internalType": "bytes32",
          "name": "previousAdminRole",
          "type": "bytes32"
        },
        {
          "indexed": true,
          "internalType": "bytes32",
          "name": "newAdminRole",
          "type": "bytes32"
        }
      ],
      "name": "RoleAdminChanged",
      "type": "event"
    },
    {
      "anonymous": false,
      "inputs": [
        {
          "indexed": true,
          "internalType": "bytes32",
          "name": "role",
          "type": "bytes32"
        },
        {
          "indexed": true,
          "internalType": "address",
          "name": "account",
          "type": "address"
        },
        {
          "indexed": true,
          "internalType": "address",
          "name": "sender",
          "type": "address"
        }
      ],
      "name": "RoleGranted",
      "type": "event"
    },
    {
      "anonymous": false,
      "inputs": [
        {
          "indexed": true,
          "internalType": "bytes32",
          "name": "role",
          "type": "bytes32"
        },
        {
          "indexed": true,
          "internalType": "address",
          "name": "account",
          "type": "address"
        },
        {
          "indexed": true,
          "internalType": "address",
          "name": "sender",
          "type": "address"
        }
      ],
      "name": "RoleRevoked",
      "type": "event"
    },
    {
      "anonymous": false,
      "inputs": [
        {
          "indexed": true,
          "internalType": "uint256",
          "name": "tokenId",
          "type": "uint256"
        },
        {
          "indexed": false,
          "internalType": "enum IStakingIntegration.SkillType",
          "name": "skillType",
          "type": "uint8"
        },
        {
          "indexed": false,
          "internalType": "enum IStakingIntegration.Rarity",
          "name": "rarity",
          "type": "uint8"
        }
      ],
      "name": "SkillAdded",
      "type": "event"
    },
    {
      "anonymous": false,
      "inputs": [
        {
          "indexed": true,
          "internalType": "address",
          "name": "user",
          "type": "address"
        },
        {
          "indexed": true,
          "internalType": "uint256",
          "name": "tokenId",
          "type": "uint256"
        },
        {
          "indexed": false,
          "internalType": "enum IStakingIntegration.SkillType",
          "name": "skillType",
          "type": "uint8"
        }
      ],
      "name": "SkillDeactivatedManually",
      "type": "event"
    },
    {
      "anonymous": false,
      "inputs": [
        {
          "indexed": true,
          "internalType": "address",
          "name": "user",
          "type": "address"
        },
        {
          "indexed": true,
          "internalType": "uint256",
          "name": "tokenId",
          "type": "uint256"
        },
        {
          "indexed": false,
          "internalType": "enum IStakingIntegration.SkillType",
          "name": "skillType",
          "type": "uint8"
        }
      ],
      "name": "SkillExpired",
      "type": "event"
    },
    {
      "anonymous": false,
      "inputs": [
        {
          "indexed": true,
          "internalType": "address",
          "name": "creator",
          "type": "address"
        },
        {
          "indexed": true,
          "internalType": "uint256",
          "name": "tokenId",
          "type": "uint256"
        },
        {
          "indexed": false,
          "internalType": "uint256",
          "name": "skillCount",
          "type": "uint256"
        },
        {
          "indexed": false,
          "internalType": "uint256",
          "name": "totalXP",
          "type": "uint256"
        }
      ],
      "name": "SkillNFTCreated",
      "type": "event"
    },
    {
      "anonymous": false,
      "inputs": [
        {
          "indexed": true,
          "internalType": "address",
          "name": "user",
          "type": "address"
        },
        {
          "indexed": true,
          "internalType": "uint256",
          "name": "tokenId",
          "type": "uint256"
        },
        {
          "indexed": false,
          "internalType": "uint256",
          "name": "amount",
          "type": "uint256"
        },
        {
          "indexed": false,
          "internalType": "string",
          "name": "operationType",
          "type": "string"
        }
      ],
      "name": "SkillPaymentProcessed",
      "type": "event"
    },
    {
      "anonymous": false,
      "inputs": [
        {
          "indexed": true,
          "internalType": "address",
          "name": "user",
          "type": "address"
        },
        {
          "indexed": true,
          "internalType": "uint256",
          "name": "tokenId",
          "type": "uint256"
        },
        {
          "indexed": false,
          "internalType": "uint256",
          "name": "newExpiryTime",
          "type": "uint256"
        }
      ],
      "name": "SkillRenewed",
      "type": "event"
    },
    {
      "anonymous": false,
      "inputs": [
        {
          "indexed": true,
          "internalType": "address",
          "name": "user",
          "type": "address"
        },
        {
          "indexed": true,
          "internalType": "uint256",
          "name": "oldTokenId",
          "type": "uint256"
        },
        {
          "indexed": true,
          "internalType": "uint256",
          "name": "newTokenId",
          "type": "uint256"
        },
        {
          "indexed": false,
          "internalType": "enum IStakingIntegration.SkillType",
          "name": "skillType",
          "type": "uint8"
        },
        {
          "indexed": false,
          "internalType": "uint256",
          "name": "switchFee",
          "type": "uint256"
        }
      ],
      "name": "SkillSwitched",
      "type": "event"
    },
    {
      "anonymous": false,
      "inputs": [
        {
          "indexed": true,
          "internalType": "address",
          "name": "user",
          "type": "address"
        },
        {
          "indexed": false,
          "internalType": "enum IStakingIntegration.SkillType",
          "name": "skillType",
          "type": "uint8"
        }
      ],
      "name": "SkillTypeAlreadyActive",
      "type": "event"
    },
    {
      "anonymous": false,
      "inputs": [
        {
          "indexed": true,
          "internalType": "address",
          "name": "oldStaking",
          "type": "address"
        },
        {
          "indexed": true,
          "internalType": "address",
          "name": "newStaking",
          "type": "address"
        }
      ],
      "name": "StakingContractUpdated",
      "type": "event"
    },
    {
      "anonymous": false,
      "inputs": [
        {
          "indexed": true,
          "internalType": "address",
          "name": "oldTreasury",
          "type": "address"
        },
        {
          "indexed": true,
          "internalType": "address",
          "name": "newTreasury",
          "type": "address"
        }
      ],
      "name": "TreasuryAddressUpdated",
      "type": "event"
    },
    {
      "anonymous": false,
      "inputs": [
        {
          "indexed": false,
          "internalType": "address",
          "name": "account",
          "type": "address"
        }
      ],
      "name": "Unpaused",
      "type": "event"
    },
    {
      "inputs": [],
      "name": "ADMIN_ROLE",
      "outputs": [
        {
          "internalType": "bytes32",
          "name": "",
          "type": "bytes32"
        }
      ],
      "stateMutability": "view",
      "type": "function"
    },
    {
      "inputs": [],
      "name": "DEFAULT_ADMIN_ROLE",
      "outputs": [
        {
          "internalType": "bytes32",
          "name": "",
          "type": "bytes32"
        }
      ],
      "stateMutability": "view",
      "type": "function"
    },
    {
      "inputs": [],
      "name": "coreContractAddress",
      "outputs": [
        {
          "internalType": "address",
          "name": "",
          "type": "address"
        }
      ],
      "stateMutability": "view",
      "type": "function"
    },
    {
      "inputs": [
        {
          "internalType": "uint256",
          "name": "_tokenId",
          "type": "uint256"
        }
      ],
      "name": "deactivateExpiredSkill",
      "outputs": [],
      "stateMutability": "nonpayable",
      "type": "function"
    },
    {
      "inputs": [
        {
          "internalType": "uint256",
          "name": "_tokenId",
          "type": "uint256"
        },
        {
          "internalType": "enum IStakingIntegration.SkillType",
          "name": "_skillType",
          "type": "uint8"
        }
      ],
      "name": "deactivateSkillManually",
      "outputs": [],
      "stateMutability": "nonpayable",
      "type": "function"
    },
    {
      "inputs": [
        {
          "internalType": "uint256",
          "name": "_amount",
          "type": "uint256"
        }
      ],
      "name": "emergencyWithdraw",
      "outputs": [],
      "stateMutability": "nonpayable",
      "type": "function"
    },
    {
      "inputs": [],
      "name": "emergencyWithdrawAll",
      "outputs": [],
      "stateMutability": "nonpayable",
      "type": "function"
    },
    {
      "inputs": [
        {
          "internalType": "address",
          "name": "_user",
          "type": "address"
        }
      ],
      "name": "getActiveSkillsForUser",
      "outputs": [
        {
          "internalType": "uint256[]",
          "name": "",
          "type": "uint256[]"
        }
      ],
      "stateMutability": "view",
      "type": "function"
    },
    {
      "inputs": [],
      "name": "getAllSkillNFTs",
      "outputs": [
        {
          "internalType": "uint256[]",
          "name": "",
          "type": "uint256[]"
        }
      ],
      "stateMutability": "view",
      "type": "function"
    },
    {
      "inputs": [
        {
          "internalType": "uint256",
          "name": "_limit",
          "type": "uint256"
        }
      ],
      "name": "getPopularSkills",
      "outputs": [
        {
          "internalType": "enum IStakingIntegration.SkillType[]",
          "name": "skillTypes",
          "type": "uint8[]"
        },
        {
          "internalType": "uint256[]",
          "name": "purchaseCounts",
          "type": "uint256[]"
        },
        {
          "internalType": "enum IStakingIntegration.Rarity[]",
          "name": "mostBoughtRarity",
          "type": "uint8[]"
        }
      ],
      "stateMutability": "view",
      "type": "function"
    },
    {
      "inputs": [
        {
          "internalType": "bytes32",
          "name": "role",
          "type": "bytes32"
        }
      ],
      "name": "getRoleAdmin",
      "outputs": [
        {
          "internalType": "bytes32",
          "name": "",
          "type": "bytes32"
        }
      ],
      "stateMutability": "view",
      "type": "function"
    },
    {
      "inputs": [
        {
          "internalType": "uint256",
          "name": "_tokenId",
          "type": "uint256"
        }
      ],
      "name": "getSkillExpiryTime",
      "outputs": [
        {
          "internalType": "uint256",
          "name": "",
          "type": "uint256"
        }
      ],
      "stateMutability": "view",
      "type": "function"
    },
    {
      "inputs": [],
      "name": "getSkillMarketStats",
      "outputs": [
        {
          "internalType": "uint256",
          "name": "totalSkillNFTs",
          "type": "uint256"
        },
        {
          "internalType": "uint256",
          "name": "totalActiveSkills",
          "type": "uint256"
        },
        {
          "internalType": "uint256",
          "name": "totalExpiredSkills",
          "type": "uint256"
        },
        {
          "internalType": "uint256",
          "name": "totalSkillsSold",
          "type": "uint256"
        },
        {
          "internalType": "uint256",
          "name": "totalRevenue",
          "type": "uint256"
        },
        {
          "internalType": "uint256",
          "name": "averageSkillsPerNFT",
          "type": "uint256"
        }
      ],
      "stateMutability": "view",
      "type": "function"
    },
    {
      "inputs": [
        {
          "internalType": "uint256",
          "name": "_tokenId",
          "type": "uint256"
        }
      ],
      "name": "getSkillNFT",
      "outputs": [
        {
          "components": [
            {
              "internalType": "address",
              "name": "creator",
              "type": "address"
            },
            {
              "components": [
                {
                  "internalType": "enum IStakingIntegration.SkillType",
                  "name": "skillType",
                  "type": "uint8"
                },
                {
                  "internalType": "enum IStakingIntegration.Rarity",
                  "name": "rarity",
                  "type": "uint8"
                },
                {
                  "internalType": "uint256",
                  "name": "level",
                  "type": "uint256"
                },
                {
                  "internalType": "uint256",
                  "name": "createdAt",
                  "type": "uint256"
                },
                {
                  "internalType": "uint256",
                  "name": "expiresAt",
                  "type": "uint256"
                }
              ],
              "internalType": "struct GameifiedMarketplaceSkillsV2.Skill[]",
              "name": "skills",
              "type": "tuple[]"
            },
            {
              "internalType": "uint256",
              "name": "createdAt",
              "type": "uint256"
            },
            {
              "internalType": "uint256",
              "name": "basePrice",
              "type": "uint256"
            }
          ],
          "internalType": "struct GameifiedMarketplaceSkillsV2.SkillNFT",
          "name": "",
          "type": "tuple"
        }
      ],
      "stateMutability": "view",
      "type": "function"
    },
    {
      "inputs": [
        {
          "internalType": "uint256",
          "name": "_tokenId",
          "type": "uint256"
        }
      ],
      "name": "getSkillNFTSkills",
      "outputs": [
        {
          "components": [
            {
              "internalType": "enum IStakingIntegration.SkillType",
              "name": "skillType",
              "type": "uint8"
            },
            {
              "internalType": "enum IStakingIntegration.Rarity",
              "name": "rarity",
              "type": "uint8"
            },
            {
              "internalType": "uint256",
              "name": "level",
              "type": "uint256"
            },
            {
              "internalType": "uint256",
              "name": "createdAt",
              "type": "uint256"
            },
            {
              "internalType": "uint256",
              "name": "expiresAt",
              "type": "uint256"
            }
          ],
          "internalType": "struct GameifiedMarketplaceSkillsV2.Skill[]",
          "name": "",
          "type": "tuple[]"
        }
      ],
      "stateMutability": "view",
      "type": "function"
    },
    {
      "inputs": [
        {
          "internalType": "enum IStakingIntegration.SkillType",
          "name": "_skillType",
          "type": "uint8"
        },
        {
          "internalType": "enum IStakingIntegration.Rarity",
          "name": "_rarity",
          "type": "uint8"
        }
      ],
      "name": "getSkillPrice",
      "outputs": [
        {
          "internalType": "uint256",
          "name": "",
          "type": "uint256"
        }
      ],
      "stateMutability": "view",
      "type": "function"
    },
    {
      "inputs": [
        {
          "internalType": "enum IStakingIntegration.SkillType",
          "name": "_skillType",
          "type": "uint8"
        }
      ],
      "name": "getSkillPricesAllRarities",
      "outputs": [
        {
          "internalType": "uint256[5]",
          "name": "",
          "type": "uint256[5]"
        }
      ],
      "stateMutability": "view",
      "type": "function"
    },
    {
      "inputs": [],
      "name": "getSkillRarityDistribution",
      "outputs": [
        {
          "internalType": "uint256",
          "name": "commonCount",
          "type": "uint256"
        },
        {
          "internalType": "uint256",
          "name": "uncommonCount",
          "type": "uint256"
        },
        {
          "internalType": "uint256",
          "name": "rareCount",
          "type": "uint256"
        },
        {
          "internalType": "uint256",
          "name": "epicCount",
          "type": "uint256"
        },
        {
          "internalType": "uint256",
          "name": "legendaryCount",
          "type": "uint256"
        }
      ],
      "stateMutability": "view",
      "type": "function"
    },
    {
      "inputs": [
        {
          "internalType": "address",
          "name": "_user",
          "type": "address"
        },
        {
          "internalType": "enum IStakingIntegration.SkillType",
          "name": "_skillType",
          "type": "uint8"
        }
      ],
      "name": "getSkillSwitchInfo",
      "outputs": [
        {
          "internalType": "uint256",
          "name": "activeTokenId",
          "type": "uint256"
        },
        {
          "internalType": "uint256",
          "name": "expiresAt",
          "type": "uint256"
        },
        {
          "internalType": "bool",
          "name": "canSwitch",
          "type": "bool"
        }
      ],
      "stateMutability": "view",
      "type": "function"
    },
    {
      "inputs": [
        {
          "internalType": "enum IStakingIntegration.SkillType",
          "name": "_skillType",
          "type": "uint8"
        }
      ],
      "name": "getSkillTypeCount",
      "outputs": [
        {
          "internalType": "uint256",
          "name": "",
          "type": "uint256"
        }
      ],
      "stateMutability": "view",
      "type": "function"
    },
    {
      "inputs": [
        {
          "internalType": "address",
          "name": "_user",
          "type": "address"
        }
      ],
      "name": "getUserSkillNFTs",
      "outputs": [
        {
          "internalType": "uint256[]",
          "name": "",
          "type": "uint256[]"
        }
      ],
      "stateMutability": "view",
      "type": "function"
    },
    {
      "inputs": [
        {
          "internalType": "address",
          "name": "_user",
          "type": "address"
        }
      ],
      "name": "getUserSkillNFTsWithDetails",
      "outputs": [
        {
          "internalType": "uint256[]",
          "name": "tokenIds",
          "type": "uint256[]"
        },
        {
          "components": [
            {
              "internalType": "address",
              "name": "creator",
              "type": "address"
            },
            {
              "components": [
                {
                  "internalType": "enum IStakingIntegration.SkillType",
                  "name": "skillType",
                  "type": "uint8"
                },
                {
                  "internalType": "enum IStakingIntegration.Rarity",
                  "name": "rarity",
                  "type": "uint8"
                },
                {
                  "internalType": "uint256",
                  "name": "level",
                  "type": "uint256"
                },
                {
                  "internalType": "uint256",
                  "name": "createdAt",
                  "type": "uint256"
                },
                {
                  "internalType": "uint256",
                  "name": "expiresAt",
                  "type": "uint256"
                }
              ],
              "internalType": "struct GameifiedMarketplaceSkillsV2.Skill[]",
              "name": "skills",
              "type": "tuple[]"
            },
            {
              "internalType": "uint256",
              "name": "createdAt",
              "type": "uint256"
            },
            {
              "internalType": "uint256",
              "name": "basePrice",
              "type": "uint256"
            }
          ],
          "internalType": "struct GameifiedMarketplaceSkillsV2.SkillNFT[]",
          "name": "skillNFTDetails",
          "type": "tuple[]"
        },
        {
          "internalType": "uint256[]",
          "name": "expiryTimes",
          "type": "uint256[]"
        },
        {
          "internalType": "bool[]",
          "name": "isExpired",
          "type": "bool[]"
        }
      ],
      "stateMutability": "view",
      "type": "function"
    },
    {
      "inputs": [
        {
          "internalType": "address",
          "name": "_user",
          "type": "address"
        }
      ],
      "name": "getUserSkillPortfolio",
      "outputs": [
        {
          "internalType": "uint256",
          "name": "totalSkillNFTs",
          "type": "uint256"
        },
        {
          "internalType": "uint256",
          "name": "activeSkillNFTs",
          "type": "uint256"
        },
        {
          "internalType": "uint256",
          "name": "expiredSkillNFTs",
          "type": "uint256"
        },
        {
          "internalType": "uint256",
          "name": "totalActiveSkills",
          "type": "uint256"
        },
        {
          "internalType": "uint256",
          "name": "stakingSkillsCount",
          "type": "uint256"
        },
        {
          "internalType": "uint256",
          "name": "platformSkillsCount",
          "type": "uint256"
        },
        {
          "internalType": "uint256",
          "name": "expiringIn24h",
          "type": "uint256"
        },
        {
          "internalType": "uint256",
          "name": "totalSpentOnSkills",
          "type": "uint256"
        }
      ],
      "stateMutability": "view",
      "type": "function"
    },
    {
      "inputs": [
        {
          "internalType": "address",
          "name": "_user",
          "type": "address"
        },
        {
          "internalType": "enum IStakingIntegration.SkillType",
          "name": "_skillType",
          "type": "uint8"
        }
      ],
      "name": "getUserSkillsByType",
      "outputs": [
        {
          "internalType": "uint256[]",
          "name": "tokenIds",
          "type": "uint256[]"
        },
        {
          "internalType": "uint8[]",
          "name": "statuses",
          "type": "uint8[]"
        }
      ],
      "stateMutability": "view",
      "type": "function"
    },
    {
      "inputs": [
        {
          "internalType": "address",
          "name": "_user",
          "type": "address"
        }
      ],
      "name": "getUserSkillsGrouped",
      "outputs": [
        {
          "internalType": "enum IStakingIntegration.SkillType[]",
          "name": "skillTypes",
          "type": "uint8[]"
        },
        {
          "internalType": "enum IStakingIntegration.Rarity[]",
          "name": "rarities",
          "type": "uint8[]"
        },
        {
          "internalType": "uint256[]",
          "name": "counts",
          "type": "uint256[]"
        }
      ],
      "stateMutability": "view",
      "type": "function"
    },
    {
      "inputs": [
        {
          "internalType": "address",
          "name": "_user",
          "type": "address"
        }
      ],
      "name": "getUserTotalActiveSkills",
      "outputs": [
        {
          "internalType": "uint256",
          "name": "",
          "type": "uint256"
        }
      ],
      "stateMutability": "view",
      "type": "function"
    },
    {
      "inputs": [
        {
          "internalType": "bytes32",
          "name": "role",
          "type": "bytes32"
        },
        {
          "internalType": "address",
          "name": "account",
          "type": "address"
        }
      ],
      "name": "grantRole",
      "outputs": [],
      "stateMutability": "nonpayable",
      "type": "function"
    },
    {
      "inputs": [
        {
          "internalType": "address",
          "name": "",
          "type": "address"
        }
      ],
      "name": "hasClaimedFreeSkill",
      "outputs": [
        {
          "internalType": "bool",
          "name": "",
          "type": "bool"
        }
      ],
      "stateMutability": "view",
      "type": "function"
    },
    {
      "inputs": [
        {
          "internalType": "bytes32",
          "name": "role",
          "type": "bytes32"
        },
        {
          "internalType": "address",
          "name": "account",
          "type": "address"
        }
      ],
      "name": "hasRole",
      "outputs": [
        {
          "internalType": "bool",
          "name": "",
          "type": "bool"
        }
      ],
      "stateMutability": "view",
      "type": "function"
    },
    {
      "inputs": [
        {
          "internalType": "uint256",
          "name": "",
          "type": "uint256"
        }
      ],
      "name": "isFirstSkillFree",
      "outputs": [
        {
          "internalType": "bool",
          "name": "",
          "type": "bool"
        }
      ],
      "stateMutability": "view",
      "type": "function"
    },
    {
      "inputs": [
        {
          "internalType": "uint256",
          "name": "_tokenId",
          "type": "uint256"
        }
      ],
      "name": "isSkillExpired",
      "outputs": [
        {
          "internalType": "bool",
          "name": "",
          "type": "bool"
        }
      ],
      "stateMutability": "view",
      "type": "function"
    },
    {
      "inputs": [],
      "name": "pause",
      "outputs": [],
      "stateMutability": "nonpayable",
      "type": "function"
    },
    {
      "inputs": [],
      "name": "paused",
      "outputs": [
        {
          "internalType": "bool",
          "name": "",
          "type": "bool"
        }
      ],
      "stateMutability": "view",
      "type": "function"
    },
    {
      "inputs": [
        {
          "internalType": "uint256",
          "name": "_tokenId",
          "type": "uint256"
        },
        {
          "internalType": "enum IStakingIntegration.SkillType[]",
          "name": "_skillTypes",
          "type": "uint8[]"
        },
        {
          "internalType": "enum IStakingIntegration.Rarity[]",
          "name": "_rarities",
          "type": "uint8[]"
        },
        {
          "internalType": "uint256[]",
          "name": "_levels",
          "type": "uint256[]"
        }
      ],
      "name": "registerSkillsForNFT",
      "outputs": [
        {
          "internalType": "uint256",
          "name": "",
          "type": "uint256"
        }
      ],
      "stateMutability": "payable",
      "type": "function"
    },
    {
      "inputs": [
        {
          "internalType": "uint256",
          "name": "_tokenId",
          "type": "uint256"
        }
      ],
      "name": "renewSkill",
      "outputs": [],
      "stateMutability": "payable",
      "type": "function"
    },
    {
      "inputs": [
        {
          "internalType": "bytes32",
          "name": "role",
          "type": "bytes32"
        },
        {
          "internalType": "address",
          "name": "account",
          "type": "address"
        }
      ],
      "name": "renounceRole",
      "outputs": [],
      "stateMutability": "nonpayable",
      "type": "function"
    },
    {
      "inputs": [
        {
          "internalType": "bytes32",
          "name": "role",
          "type": "bytes32"
        },
        {
          "internalType": "address",
          "name": "account",
          "type": "address"
        }
      ],
      "name": "revokeRole",
      "outputs": [],
      "stateMutability": "nonpayable",
      "type": "function"
    },
    {
      "inputs": [
        {
          "internalType": "address",
          "name": "_stakingAddress",
          "type": "address"
        }
      ],
      "name": "setStakingContract",
      "outputs": [],
      "stateMutability": "nonpayable",
      "type": "function"
    },
    {
      "inputs": [
        {
          "internalType": "address",
          "name": "_treasuryAddress",
          "type": "address"
        }
      ],
      "name": "setTreasuryAddress",
      "outputs": [],
      "stateMutability": "nonpayable",
      "type": "function"
    },
    {
      "inputs": [
        {
          "internalType": "uint256",
          "name": "",
          "type": "uint256"
        }
      ],
      "name": "skillNFTs",
      "outputs": [
        {
          "internalType": "address",
          "name": "creator",
          "type": "address"
        },
        {
          "internalType": "uint256",
          "name": "createdAt",
          "type": "uint256"
        },
        {
          "internalType": "uint256",
          "name": "basePrice",
          "type": "uint256"
        }
      ],
      "stateMutability": "view",
      "type": "function"
    },
    {
      "inputs": [
        {
          "internalType": "enum IStakingIntegration.SkillType",
          "name": "",
          "type": "uint8"
        },
        {
          "internalType": "enum IStakingIntegration.Rarity",
          "name": "",
          "type": "uint8"
        }
      ],
      "name": "skillPrices",
      "outputs": [
        {
          "internalType": "uint256",
          "name": "",
          "type": "uint256"
        }
      ],
      "stateMutability": "view",
      "type": "function"
    },
    {
      "inputs": [
        {
          "internalType": "enum IStakingIntegration.SkillType",
          "name": "",
          "type": "uint8"
        }
      ],
      "name": "skillTypeCount",
      "outputs": [
        {
          "internalType": "uint256",
          "name": "",
          "type": "uint256"
        }
      ],
      "stateMutability": "view",
      "type": "function"
    },
    {
      "inputs": [],
      "name": "stakingContractAddress",
      "outputs": [
        {
          "internalType": "address",
          "name": "",
          "type": "address"
        }
      ],
      "stateMutability": "view",
      "type": "function"
    },
    {
      "inputs": [
        {
          "internalType": "bytes4",
          "name": "interfaceId",
          "type": "bytes4"
        }
      ],
      "name": "supportsInterface",
      "outputs": [
        {
          "internalType": "bool",
          "name": "",
          "type": "bool"
        }
      ],
      "stateMutability": "view",
      "type": "function"
    },
    {
      "inputs": [
        {
          "internalType": "uint256",
          "name": "_oldTokenId",
          "type": "uint256"
        },
        {
          "internalType": "uint256",
          "name": "_newTokenId",
          "type": "uint256"
        },
        {
          "internalType": "enum IStakingIntegration.SkillType",
          "name": "_skillType",
          "type": "uint8"
        }
      ],
      "name": "switchSkill",
      "outputs": [],
      "stateMutability": "payable",
      "type": "function"
    },
    {
      "inputs": [],
      "name": "treasuryAddress",
      "outputs": [
        {
          "internalType": "address",
          "name": "",
          "type": "address"
        }
      ],
      "stateMutability": "view",
      "type": "function"
    },
    {
      "inputs": [],
      "name": "unpause",
      "outputs": [],
      "stateMutability": "nonpayable",
      "type": "function"
    },
    {
      "inputs": [
        {
          "internalType": "uint256",
          "name": "_common",
          "type": "uint256"
        },
        {
          "internalType": "uint256",
          "name": "_uncommon",
          "type": "uint256"
        },
        {
          "internalType": "uint256",
          "name": "_rare",
          "type": "uint256"
        },
        {
          "internalType": "uint256",
          "name": "_epic",
          "type": "uint256"
        },
        {
          "internalType": "uint256",
          "name": "_legendary",
          "type": "uint256"
        }
      ],
      "name": "updateActiveSkillsPricing",
      "outputs": [],
      "stateMutability": "nonpayable",
      "type": "function"
    },
    {
      "inputs": [
        {
          "internalType": "enum IStakingIntegration.SkillType",
          "name": "_skillType",
          "type": "uint8"
        },
        {
          "internalType": "enum IStakingIntegration.Rarity",
          "name": "_rarity",
          "type": "uint8"
        },
        {
          "internalType": "uint256",
          "name": "_newPrice",
          "type": "uint256"
        }
      ],
      "name": "updateSkillPrice",
      "outputs": [],
      "stateMutability": "nonpayable",
      "type": "function"
    },
    {
      "inputs": [
        {
          "internalType": "uint256",
          "name": "_common",
          "type": "uint256"
        },
        {
          "internalType": "uint256",
          "name": "_uncommon",
          "type": "uint256"
        },
        {
          "internalType": "uint256",
          "name": "_rare",
          "type": "uint256"
        },
        {
          "internalType": "uint256",
          "name": "_epic",
          "type": "uint256"
        },
        {
          "internalType": "uint256",
          "name": "_legendary",
          "type": "uint256"
        }
      ],
      "name": "updateStakingSkillsPricing",
      "outputs": [],
      "stateMutability": "nonpayable",
      "type": "function"
    },
    {
      "inputs": [
        {
          "internalType": "address",
          "name": "",
          "type": "address"
        },
        {
          "internalType": "enum IStakingIntegration.SkillType",
          "name": "",
          "type": "uint8"
        }
      ],
      "name": "userActiveSkillsByType",
      "outputs": [
        {
          "internalType": "uint256",
          "name": "",
          "type": "uint256"
        }
      ],
      "stateMutability": "view",
      "type": "function"
    },
    {
      "inputs": [
        {
          "internalType": "address",
          "name": "",
          "type": "address"
        },
        {
          "internalType": "enum IStakingIntegration.SkillType",
          "name": "",
          "type": "uint8"
        }
      ],
      "name": "userSkillNFTId",
      "outputs": [
        {
          "internalType": "uint256",
          "name": "",
          "type": "uint256"
        }
      ],
      "stateMutability": "view",
      "type": "function"
    },
    {
      "inputs": [
        {
          "internalType": "address",
          "name": "",
          "type": "address"
        },
        {
          "internalType": "uint256",
          "name": "",
          "type": "uint256"
        }
      ],
      "name": "userSkillNFTs",
      "outputs": [
        {
          "internalType": "uint256",
          "name": "",
          "type": "uint256"
        }
      ],
      "stateMutability": "view",
      "type": "function"
    },
    {
      "inputs": [
        {
          "internalType": "address",
          "name": "",
          "type": "address"
        }
      ],
      "name": "userTotalActiveSkills",
      "outputs": [
        {
          "internalType": "uint256",
          "name": "",
          "type": "uint256"
        }
      ],
      "stateMutability": "view",
      "type": "function"
    },
    {
      "stateMutability": "payable",
      "type": "receive"
    }
  ],
  "bytecode": "0x60806040523461002a576100196100146100bf565b61015f565b6040516155d161060582396155d190f35b5f80fd5b634e487b7160e01b5f52604160045260245ffd5b90601f01601f191681019081106001600160401b0382111761006357604052565b61002e565b9061007c61007560405190565b9283610042565b565b6001600160a01b031690565b90565b6001600160a01b0381160361002a57565b9050519061007c8261008d565b9060208282031261002a5761008a9161009e565b61008a615bd6803803806100d281610068565b9283398101906100ab565b61007e61008a61008a9290565b61008a906100dd565b61008a61008a61008a9290565b61008a5f6100f3565b906001600160a01b03905b9181191691161790565b61008a9061007e906001600160a01b031682565b61008a9061011e565b61008a90610132565b9061015461008a61015b9261013b565b8254610109565b9055565b610167610216565b61017361007e5f6100ea565b6001600160a01b038216146101db576101c890610198610191610100565b339061025b565b6101c17fa49807205ce4d355092ef5a8a18f56e8913cf4a201fbe287825b095693c21775610191565b600d610144565b6101d333600f610144565b61007c6103de565b63e6c4247b60e01b5f908152600490fd5b61008a60016100f3565b905f1990610114565b9061020f61008a61015b926100f3565b82546101f6565b61021e610250565b61007c6102296101ec565b60026101ff565b9060ff90610114565b9061024961008a61015b92151590565b8254610230565b61007c5f6001610239565b9061007c91610550565b61027261008a61008a9290565b60ff1690565b634e487b7160e01b5f52601160045260245ffd5b60ff1660ff811461029d5760010190565b610278565b634e487b7160e01b5f52602160045260245ffd5b601111156102c057565b6102a2565b9061007c826102b6565b6102df61008a61008a9260ff1690565b6102c5565b61008a6802b5e3af16b18800006100f3565b61008a906102c5565b90610309906102f6565b5f5260205260405f2090565b600511156102c057565b9061007c82610315565b61008a9061031f565b9061030990610329565b61008a6804563918244f4000006100f3565b61008a68056bc75e2d631000006100f3565b61008a680821ab0d44149800006100f3565b61008a680bed1d0263d9f000006100f3565b61008a6803860e639d806400006100f3565b61008a6805a34a38fc00a000006100f3565b61008a68070c1cc73b00c800006100f3565b61008a680a922b2ad8812c00006100f3565b61008a680f810c1cb501b800006100f3565b600180806103eb81610265565b905b6104c4575b506103fd6008610265565b905b610407575050565b6104116010610265565b60ff8216116104c0576104ba816104b561042b85946102cf565b610455600461045061043b610384565b9361045a600c956104555f610450858a6102ff565b610332565b6101ff565b610473610465610396565b6104558b610450858a6102ff565b61048d61047e6103a8565b6104556002610450858a6102ff565b6104a76104986103ba565b6104556003610450858a6102ff565b6104af6103cc565b946102ff565b61028c565b906103ff565b5050565b6104ce6007610265565b60ff82161161053b57806104b56104e7610535936102cf565b61045560046104506104f76102e4565b9361050c600c956104555f610450858a6102ff565b61051761046561033c565b61052261047e61034e565b61052d610498610360565b6104af610372565b816103ed565b6103f2565b90610309565b906103099061013b565b61056161055d83836105e5565b1590565b610569575050565b6105886001610583845f61057d8682610540565b01610546565b610239565b6105a261059c610596339390565b9361013b565b9161013b565b917f2f8788117e7eff1d82e926ec794901d17c78024a50270940304540a733656f0d6105cd60405190565b5f90a4565b61008a90610272565b61008a90546105d2565b61008a915f61057d6105ff936105f85f90565b5082610540565b6105db56fe60c0604052600436101561001a575b3615610018575f80fd5b005b5f3560e01c806301ffc9a7146103895780630f72adc51461038457806313f487ec1461037f57806314d952f11461037a5780631bb445c2146103755780631d5295bd146103705780631df947fb1461036b578063234d41db14610366578063248a9ca3146103615780632e5cd5ab1461035c5780632f2ff15d146103575780633535f48b1461035257806336568abe1461034d57806336e517b7146103485780633f4ba83a14610343578063401cf38a1461033e5780634e847941146103395780634fa2d3d7146103345780635312ea8e1461032f57806354951e481461032a578063554ba220146103255780635c975abb146103205780635d32adde1461031b5780636605bfda1461031657806368d5c67a1461031157806375b238fc1461030c5780638456cb5914610307578063845952d714610302578063850c1f1f146102fd5780638d09af25146102f85780638e3ac9c2146102f357806391413334146102ee57806391d14854146102e957806393e1124e146102e4578063978196c9146102df5780639d2e99e7146102da5780639dd373b9146102d5578063a217fddf146102d0578063a5313547146102cb578063a5cad937146102c6578063a7edd012146102c1578063a8389596146102bc578063bd07aabf146102b7578063bd6d0224146102b2578063c5f956af146102ad578063cddc0f10146102a8578063cf1084ff146102a3578063d547741f1461029e578063d7e685f614610299578063dd19171914610294578063ea6798aa1461028f578063ec2f59511461028a578063ede8a1f614610285578063f192efc0146102805763f75826b30361000e5761159a565b61157e565b611552565b61151a565b6114ef565b611447565b6113dc565b6113c3565b6113a6565b6112cc565b61123b565b611214565b6111b4565b611178565b611052565b610fec565b610fc2565b610fa7565b610f7e565b610f57565b610e56565b610dbf565b610da3565b610d8f565b610d4b565b610d33565b610d1a565b610ccf565b610c91565b610c6b565b610c37565b610bdc565b610bc1565b610ba6565b610b7f565b610af4565b610ab6565b610a9a565b610a67565b610a4c565b610a06565b6109f3565b6109da565b6109a5565b610964565b610926565b6108ca565b6108ae565b610884565b6107fc565b6107be565b610700565b61068b565b6105c2565b6103cf565b6001600160e01b031981165b036103a157565b5f80fd5b905035906103b28261038e565b565b906020828203126103a1576103c8916103a5565b90565b9052565b346103a1576103fc6103ea6103e53660046103b4565b6115b5565b60405191829182901515815260200190565b0390f35b6001600160a01b031690565b6001600160a01b03811661039a565b905035906103b28261040c565b906020828203126103a1576103c89161041b565b634e487b7160e01b5f52602160045260245ffd5b6011111561045a57565b61043c565b906103b282610450565b6103c89061045f565b6103cb90610469565b9061048881602093610472565b0190565b906104ac6104a561049b845190565b8084529260200190565b9260200190565b905f5b8181106104bc5750505090565b9091926104d66104cf600192865161047b565b9460200190565b9291016104af565b6005111561045a57565b906103b2826104de565b6103c8906104e8565b6103cb906104f2565b90610488816020936104fb565b906105206104a561049b845190565b905f5b8181106105305750505090565b9091926105436104cf6001928651610504565b929101610523565b9061055a6104a561049b845190565b905f5b81811061056a5750505090565b9091926105806104cf6001928651815260200190565b92910161055d565b916105b4906105a66103c8959360608601908682035f88015261048c565b908482036020860152610511565b91604081840391015261054b565b346103a1576103fc6105dd6105d8366004610428565b6117ce565b60405191939193849384610588565b601111156103a157565b905035906103b2826105ec565b91906040838203126103a1576103c890602061061f828661041b565b94016105f6565b906106356104a561049b845190565b905f5b8181106106455750505090565b90919261065e6104cf600192865160ff16815260200190565b929101610638565b60408082526103c893919261067d9184019061054b565b916020818403910152610626565b346103a1576106a461069e366004610603565b90611a98565b906103fc6106b160405190565b92839283610666565b5f9103126103a157565b909594926103b2946106f56106fc926106ee6080966106e760a088019c5f890152565b6020870152565b6040850152565b6060830152565b0152565b346103a1576107103660046106ba565b6103fc61071b611ce6565b9161072895939560405190565b958695866106c4565b600511156103a157565b905035906103b282610731565b91906040838203126103a1576103c890602061076482866105f6565b940161073b565b9061077590610469565b5f5260205260405f2090565b90610775906104f2565b6103c8916008021c81565b906103c8915461078b565b6107b96103c8926107b45f93600c61076b565b610781565b610796565b346103a1576103fc6107da6107d4366004610748565b906107a1565b6040515b9182918290815260200190565b60208082526103c89291019061054b565b346103a1576103fc610817610812366004610428565b611ebe565b604051918291826107eb565b8061039a565b905035906103b282610823565b906020828203126103a1576103c891610829565b91610876906108686103c8959360608601908682035f88015261048c565b90848203602086015261054b565b916040818403910152610511565b346103a1576103fc61089f61089a366004610836565b611f32565b6040519193919384938461084a565b346103a1576103fc6107da6108c4366004610748565b9061211a565b346103a1576103fc6107da6108e0366004610836565b61213a565b6104006103c86103c8926001600160a01b031690565b6103c8906108e5565b6103c8906108fb565b9061077590610904565b5f6107b96103c892600b61090d565b346103a1576103fc6107da61093c366004610428565b610917565b91906040838203126103a1576103c890602061095d8286610829565b940161041b565b346103a15761097d610977366004610941565b90612177565b604051005b6103c8916008021c610400565b906103c89154610982565b6103c85f600e61098f565b346103a1576109b53660046106ba565b6103fc6109c061099a565b604051918291826001600160a01b03909116815260200190565b346103a15761097d6109ed366004610941565b906121ea565b61097d610a01366004610836565b6126d0565b346103a157610a163660046106ba565b61097d6126fa565b6103c8916008021c5b60ff1690565b906103c89154610a1e565b5f610a476103c892600861090d565b610a2d565b346103a1576103fc6103ea610a62366004610428565b610a38565b346103a157610a773660046106ba565b6103fc610817612702565b6107b96103c892610a955f93600961090d565b61076b565b346103a1576103fc6107da610ab0366004610603565b90610a82565b346103a15761097d610ac9366004610836565b6128d1565b9081526060810193926103b2929091604091610aec905b6020830152565b019015159052565b346103a1576103fc610b10610b0a366004610603565b906128da565b60405191939193849384610ace565b906020828203126103a1576103c8916105f6565b610b43610b3f60059390565b9190565b5f915b838310610b535750505050565b610b666104a56001928451815260200190565b92019190610b46565b60a0810192916103b29190610b33565b346103a1576103fc610b9a610b95366004610b1f565b612a59565b60405191829182610b6f565b346103a157610bb63660046106ba565b6103fc6103ea612b1a565b346103a1576103fc6107da610bd7366004610428565b612b24565b346103a15761097d610bef366004610428565b612bed565b9194610c306106fc92989795610c2960a096610c226103b29a610c1b60c08a019e5f8b0152565b6020890152565b6040870152565b6060850152565b6080830152565b346103a157610c473660046106ba565b6103fc610c52612bf6565b92610c6296949692919260405190565b96879687610bf4565b346103a157610c7b3660046106ba565b6103fc5f51602061557c5f395f51905f526107da565b346103a157610ca13660046106ba565b61097d612d24565b6103c86103c86103c89290565b9061077590610ca9565b5f610a476103c8926007610cb6565b346103a1576103fc6103ea610ce5366004610836565b610cc0565b90916060828403126103a1576103c8610d0384846105f6565b936040610d13826020870161073b565b9401610829565b346103a15761097d610d2d366004610cea565b91612df5565b346103a15761097d610d46366004610836565b612e1c565b346103a1576103fc6103ea610d61366004610836565b612fb8565b90916060828403126103a1576103c8610d7f8484610829565b93604061061f8260208701610829565b61097d610d9d366004610d66565b91613460565b346103a1576103fc6103ea610db9366004610941565b9061346b565b346103a1576103fc6107da610dd5366004610b1f565b613490565b91906040838203126103a1576103c8906020610d13828661041b565b634e487b7160e01b5f52603260045260245ffd5b8054821015610e2a57610e226001915f5260205f2090565b910201905f90565b610df6565b610e3a90600561090d565b80548210156103a1576103c891610e5091610e0a565b90610796565b346103a1576103fc6107da610e6c366004610dda565b90610e2f565b906080806103b293610e8a5f8201515f860190610472565b610e9c602082015160208601906104fb565b610eab60408201516040860152565b610eba60608201516060860152565b0151910152565b906104888160a093610e72565b90610edd6104a561049b845190565b905f5b818110610eed5750505090565b909192610f006104cf6001928651610ec1565b929101610ee0565b80516001600160a01b03168252906103c890606080610f366080840160208701518582036020870152610ece565b94610eba60408201516040860152565b60208082526103c892910190610f08565b346103a1576103fc610f72610f6d366004610836565b61360b565b60405191829182610f46565b346103a15761097d610f91366004610428565b6136a2565b6103c85f610ca9565b6103c8610f96565b346103a157610fb73660046106ba565b6103fc6107da610f9f565b346103a1576103fc6107da610fd8366004610836565b6136ab565b5f6107b96103c892600661076b565b346103a1576103fc6107da611002366004610b1f565b610fdd565b906110166104a561049b845190565b905f5b8181106110265750505090565b9091926110396104cf6001928651610ec1565b929101611019565b60208082526103c892910190611007565b346103a1576103fc61106d611068366004610836565b6136be565b60405191829182611041565b906103c891610f08565b9061109961108f835190565b8083529160200190565b90816110ab6020830284019460200190565b925f915b8383106110be57505050505090565b909192939460206110e16110da83856001950387528951611079565b9760200190565b93019301919392906110af565b906110fd6104a561049b845190565b905f5b81811061110d5750505090565b9091926111256104cf60019286511515815260200190565b929101611100565b9261115c6103c8959361114e61116a9460808801908882035f8a015261054b565b908682036020880152611083565b90848203604086015261054b565b9160608184039101526110ee565b346103a1576103fc61119361118e366004610428565b613715565b906111a094929460405190565b9485948561112d565b6103c85f600d61098f565b346103a1576111c43660046106ba565b6103fc6109c06111a9565b919060a0838203126103a1576111e58184610829565b926111f38260208301610829565b926103c86112048460408501610829565b936080610d138260608701610829565b346103a15761097d6112273660046111cf565b939290926138a5565b6103c85f600f61098f565b346103a15761124b3660046106ba565b6103fc6109c0611230565b6103c890610400565b6103c89054611256565b6103c89081565b6103c89054611269565b611285906004610cb6565b61128e8161125f565b916103c860036112a060028501611270565b9301611270565b6001600160a01b0390911681526060810193926103b29290916040916106fc90610ae5565b346103a1576103fc6112e76112e2366004610836565b61127a565b604051919391938493846112a7565b909182601f830112156103a15781359167ffffffffffffffff83116103a15760200192602083028401116103a157565b9190916080818403126103a15761133d8382610829565b92602082013567ffffffffffffffff81116103a1578161135e9184016112f6565b929093604082013567ffffffffffffffff81116103a157836113819184016112f6565b929093606082013567ffffffffffffffff81116103a1576113a292016112f6565b9091565b6103fc6107da6113b7366004611326565b95949094939193614757565b346103a15761097d6113d6366004610941565b90614782565b346103a1576103fc6113f76113f2366004610428565b61478c565b9461140a98969894919493929360405190565b98899889908152610100810198979690959094909390929091602087015260408601526060850152608084015260a083015260c082015260e00152565b346103a1576114573660046106ba565b61097d6149fd565b906103c891610ece565b9061147561108f835190565b90816114876020830284019460200190565b925f915b83831061149a57505050505090565b909192939460206114b66110da8385600195038752895161145f565b930193019193929061148b565b916114e1906108686103c8959360608601908682035f88015261054b565b916040818403910152611469565b346103a1576103fc61150b611505366004610dda565b90614a3e565b604051919391938493846114c3565b346103a15761097d61152d3660046111cf565b93929092614c70565b91906040838203126103a1576103c890602061061f8286610829565b346103a15761097d611565366004611536565b90614e2f565b6107b96103c892610a955f93600a61090d565b346103a1576103fc6107da611594366004610603565b9061156b565b346103a1576103fc6108176115b0366004610428565b614e39565b637965db0b60e01b6001600160e01b03198216149081156115d4575090565b6103c891506001600160e01b0319166301ffc9a760e01b1490565b906116086115fe61049b845490565b925f5260205f2090565b905f5b8181106116185750505090565b90919261163c61163560019261162d87611270565b815260200190565b9460010190565b92910161160b565b906103c8916115ef565b634e487b7160e01b5f52604160045260245ffd5b90601f01601f1916810190811067ffffffffffffffff82111761168457604052565b61164e565b906103b26116a39261169a60405190565b93848092611644565b0383611662565b6103c890611689565b906103b26116c060405190565b9283611662565b67ffffffffffffffff81116116845760208091020190565b906116f16116ec836116c7565b6116b3565b918252565b369037565b906103b261171161170b846116df565b936116c7565b601f1901602084016116f6565b60010190565b9061172d825190565b811015610e2a576020809102010190565b6103c8905161045f565b8054821015610e2a57610e226004915f5260205f2090565b6103c890610a27565b6103c89054611760565b6103c890516104e8565b6103c89060081c610a27565b6103c8905461177d565b634e487b7160e01b5f52601160045260245ffd5b5f1981146117b55760010190565b611793565b906103cb9061045f565b906103cb906104e8565b6117e56117ea916117dd606090565b50600561090d565b6116aa565b6117f46050610ca9565b916117fe836116fb565b61181061180a856116fb565b946116fb565b9061181a5f610ca9565b9182955b6118296103c8875190565b8710156119ee57611855600161048860049997989961184f61184b8a8d611724565b5190565b90610cb6565b9461185f5f610ca9565b965b61186c6103c8885490565b8810156119d4575f9861187e5f610ca9565b878110156119c757886118c06118ba6118b55f6118ae8f6118a86118a38f8a90611724565b61173e565b96611748565b5001611769565b61045f565b9161045f565b14898b83888461198f575b505050506118db5760010161187e565b611906919992939a506119036118fc6118f761184b848a611724565b6117a7565b9187611724565b52565b61191060015b1590565b611921575b6001015b969790611861565b946119876119199161194961193a5f6118ae8b8d611748565b611944838a611724565b6117ba565b6119706119615f61195a8b8d611748565b5001611789565b61196b8388611724565b6117c4565b6118f761197d6001610ca9565b6119038389611724565b959050611915565b6119bd93945061195a6119b7936118a86119ad6119b2955f95611724565b611773565b6104e8565b916104e8565b14898b83886118cb565b5097909198611910901590565b96506119e4919792955060010190565b959493909461181e565b919294509294506119fe846116fb565b8092611a09866116fb565b9384611a14886116fb565b988990611a205f610ca9565b8a5b811015611a7d57611a768161171e8e611903838f8f8f988f928f61184b9361196b84611a6b611a229f826119ad91611a71611a6b9c61194484611a6b6118a382611a719e611724565b92611724565b611724565b9050611a20565b509650965096509650505050565b610a276103c86103c89290565b9091611aa86117e583600561090d565b92611ab25f610ca9565b9182935b611ac16103c8875190565b851015611b5657611add6103c8600461184f61184b898b611724565b95611ae75f610ca9565b60018801611af66103c8825490565b821015611b46575f6118ae83611b0b93611748565b611b176118ba8761045f565b14611b2457600101611ae7565b509295509392611b36611b3d916117a7565b9360010190565b93949194611ab6565b505092955093611b3d9060010190565b9193509391611b64816116fb565b92611b6f84926116fb565b918295611b92611b8d82610a95611b855f610ca9565b98600961090d565b611270565b9185975b611ba16103c8865190565b891015611cc457611bbd6103c8600461184f61184b8d8a611724565b995f92611bc95f610ca9565b60018d01611bd86103c8825490565b821015611cb7575f6118ae83611bed93611748565b611bf96118ba8861045f565b14611c0657600101611bc9565b50939a509890915060015b611c23575b6001015b97989190611b96565b95611c77611c1a91611c45611c3b61184b8b8a611724565b611903838d611724565b611c5261184b8a89611724565b869003611c7f576118f7611c655f611a8b565b611c6f838b611724565b9060ff169052565b969050611c16565b611c976103c8611c9261184b8c8b611724565b614f22565b4210611caa576118f7611c656002611a8b565b6118f7611c656001611a8b565b5050939a50989091611c11565b97509795505050505050565b6104006103c86103c89290565b6103c890611cd0565b6003905f80808080611cf787614f66565b95611d015f610ca9565b875b811015611eb3576004611d205f611d1a8484610cb6565b0161125f565b611d3c611d2f6104005f611cdd565b916001600160a01b031690565b03611d52575b50611d03906001015b9050611d01565b9195611d67600161048884869d959c9d610cb6565b99611d715f610ca9565b915b611d7e6103c88d5490565b831015611ea157611d935f61195a858f611748565b611d9f6119b75f6104e8565b03611dbd57611db0611db7916117a7565b9260010190565b91611d73565b91968b611dce5f61195a8b84611748565b611ddb6119b760016104e8565b03611df45750611ded611db7916117a7565b9760010190565b5f61195a8a611e06939b9a949b611748565b611e136119b760026104e8565b03611e2b57611e24611db7916117a7565b9660010190565b95948b611e3c5f61195a8984611748565b611e486119b7876104e8565b03611e615750611e5a611db7916117a7565b9560010190565b5f61195a88611e7293999499611748565b611e7e6119b7876104e8565b14611e8c575b600101611db7565b98611e99611db7916117a7565b999050611e84565b929a509891969250611d4b9050611d42565b509194929550929550565b6117e56103c8916117dd606090565b60ff1660ff81146117b55760010190565b6103c86103c86103c89260ff1690565b6118b56103c86103c89260ff1690565b611f0d9060ff165b9160ff1690565b90039060ff82116117b557565b611f269060ff16611f06565b019060ff82116117b557565b611f3c6010610ca9565b611f45816116fb565b926001928380611f5481611a8b565b905b6120c0575b5050611f648390565b8110156120b557909392935b611f79826116fb565b92858495611f86856116fb565b8096611f91876116fb565b918297611f9d5f610ca9565b9b5b611fb2575b505050505050509091929350565b808c10156120b057611fc35f610ca9565b611fcc5f611a8b565b9081885b61204e575b509c61171e61204392899a9b9c9d9e9f61201a90612010612006612001611ffb8f611a8b565b86611f1a565b611eee565b611944878c611724565b6119038589611724565b6120285f61196b858b611724565b61190361203d6120375f610ca9565b92611ede565b8a611724565b9b9a99989796611f9f565b8961205882611ede565b10156120ab578061207561184b61206f8c94611ede565b8b611724565b831061208b575b61208590611ecd565b90611fd0565b925050506120a461184b61209e83611ede565b88611724565b878261207c565b611fd5565b611fa4565b508190939293611f70565b846120ca82611ede565b116121155761210f9061210a6120ed611b8d60066120e785611eee565b9061076b565b61190361206f6121056120ff88611a8b565b86611efe565b611ede565b611ecd565b81611f56565b611f5b565b6103c8916107b4611b8d9261212c5f90565b50600c61076b565b90610775565b60016121516103c89261214a5f90565b505f612134565b01611270565b906103b29161216d6121688261213a565b614f72565b906103b291614f7d565b906103b291612157565b1561218857565b60405162461bcd60e51b815260206004820152602f60248201527f416363657373436f6e74726f6c3a2063616e206f6e6c792072656e6f756e636560448201526e103937b632b9903337b91039b2b63360891b606482015280608481015b0390fd5b6103b2919061220b6121fb33610400565b6001600160a01b03841614612181565b614fec565b6103b29061221c615089565b61222d906122286150f2565b612361565b6103b261511a565b634e487b7160e01b5f52601260045260245ffd5b8115612253570490565b612235565b9081526040810192916103b29160200152565b6103c862278d00610ca9565b919082018092116117b557565b905f19905b9181191691161790565b906122a36103c86122aa92610ca9565b8254612284565b9055565b818102929181159184041417156117b557565b6122ce6103c86103c89290565b61ffff1690565b61230f6103b2946123056060949897956122fe608086019a5f8701906001600160a01b03169052565b6020850152565b60ff166040830152565b019061ffff169052565b67ffffffffffffffff811161168457602090601f01601f19160190565b906116f16116ec83612319565b3d1561235c576123523d612336565b903d5f602084013e565b606090565b6004906123716103c88284610cb6565b9261237b8461125f565b61238433611d2f565b036126c05761239282614f22565b8042106126aa57506123a660038501611270565b916123bd6002936123b76002610ca9565b90612249565b803410612691576123d56123cf61226b565b42612277565b946123df5f610ca9565b600188016123ee6103c8825490565b821015612415579061171e8860036124098461241096611748565b5001612293565b6123df565b5050919395909295612427600e61125f565b916124315f611cdd565b926124446001600160a01b038516611d2f565b03612596575b50506124555f610ca9565b8311908161256f575b506124ab575b50507f20caca271ed23e340f745b19f7a0a0b1fa92c5dfaab7694caeb4e7349e4671d46124a661249c61249633610904565b93610ca9565b936107de60405190565b0390a3565b6124dd5f806124c56124c06124c0600f61125f565b610904565b6040518681805b03925af16124d8612343565b501590565b61255d57506124eb33610904565b7f4c369879192a61f41a90aef2b9388fd74227d8429a5f5fe1887a365da71d723c61255361251885610ca9565b9361252260405190565b91829182908152604060208201819052600c908201526b52454e45575f534b494c4c5360a01b606082015260800190565b0390a35f80612464565b63e6c4247b60e01b5f908152905b035ffd5b905061258e611d2f612581600f61125f565b926001600160a01b031690565b14155f61245e565b95909691936125a45f610ca9565b600188016125b36103c8825490565b82101561268257816126715f808b858f8c61265061261461260f61260061265f956125fa60019f61267b9f8c61195a6125f4936125ef93611748565b6104f2565b91610ca9565b906122ae565b61260a6005610ca9565b612277565b6122c1565b61263461262f886118ae8d612629600e61125f565b99611748565b610469565b60405196879460208601630c4e865560e21b81520133906122d5565b60208201810382520383611662565b82602083519301915af16124d8612343565b61171e5760010190565b90506125a4565b50509391965094505f8061244a565b63af608abb60e01b5f9081529061256b90349087612258565b63fc2df8a960e01b5f9081529084526020840190fd5b632500456d60e01b5f9081528390fd5b6103b290612210565b6126ef5f51602061557c5f395f51905f52614f72565b6103b26103b261516a565b6103b26126d9565b61270c6003614f66565b6127155f610ca9565b805b828110156127655761272e5f611d1a836004610cb6565b61273d611d2f6104005f611cdd565b03612750575b600101612717565b612717565b9061275d61274b916117a7565b919050612743565b5061276f906116fb565b6127785f610ca9565b92835b835b8110156127d9576127935f611d1a836004610cb6565b6127a2611d2f6104005f611cdd565b036127b7575b61277d906001015b905061277b565b936127b06127d0826118f78861190361277d9689611724565b959150506127a8565b509250905090565b6103b2906127fb5f51602061557c5f395f51905f52614f72565b61281f565b6103cb90610ca9565b9081526040810192916103b29160200190612800565b6128285f610ca9565b81146128b75761283730610904565b8031821161289d575061284a600f61125f565b612859611d2f6104005f611cdd565b1461288c575f80612886926128746124c06124c0600f61125f565b9061287e60405190565b9081806124cc565b61288c57565b63e6c4247b60e01b5f908152600490fd5b63af608abb60e01b5f9081529161256b9131906004612258565b63af608abb60e01b5f9081529061256b9082906004612809565b6103b2906127e1565b5f906128ee611b8d84610a9584600961090d565b93846128fc610b3f5f610ca9565b146129eb576129186117e561291087614f22565b93600561090d565b6129215f610ca9565b61292c6103c8835190565b8110156129d85761294061184b8284611724565b879003612950575b600101612921565b93946129676103c8600461184f61184b8987611724565b956129715f610ca9565b600188016129806103c8825490565b8210156129df575f6118ae8361299593611748565b6129a16118ba8561045f565b146129af575b600101612971565b6129c26103c8611c9261184b8a88611724565b4210156129a75750509450600193845b15612948575b5050909250565b505080959196506129d2565b93505050506129f95f610ca9565b908190600190565b67ffffffffffffffff81116116845760200290565b6116ec6103c891612a01565b906103b2612a38612a3284612a16565b93612a01565b836116f6565b6103c86005612a22565b906005811015610e2a576020020190565b612a61612a3e565b506103c8612b07611b8d60046107b4612a78612a3e565b95600c612aa1612a8f611b8d5f6107b4868661076b565b611903612a9b5f610ca9565b8b612a48565b612ac3612ab6611b8d60016107b4868661076b565b611903612a9b6001610ca9565b612ae5612ad8611b8d60026107b4868661076b565b611903612a9b6002610ca9565b610a95612afa611b8d60036107b4868661076b565b611903612a9b6003610ca9565b611903612b146004610ca9565b84612a48565b6103c86001611769565b611b8d6103c891612b325f90565b50600b61090d565b6103b290612b545f51602061557c5f395f51905f52614f72565b612b7f565b906001600160a01b0390612289565b90612b786103c86122aa92610904565b8254612b59565b612b8b6104005f611cdd565b6001600160a01b0382161461288c57612bbb612bb5612baa600f61125f565b6124c084600f612b68565b91610904565b907f430359a6d97ced2b6f93c77a91e7ce9dfd43252eb91e916adba170485cd8a6a4612be660405190565b80806124a6565b6103b290612b3a565b60035f612c0282614f66565b91612c0c5f610ca9565b809281928291835b875b811015612cd2576004612c2d5f611d1a8484610cb6565b612c3c611d2f6104005f611cdd565b03612c52575b50612c16906001015b9050612c14565b919493612c7e6001612c8a84612c84612c6f612c8f979d9a6117a7565b9a612c7e8a612151858c610cb6565b90612277565b96610cb6565b015490565b92612c9c6103c888614f22565b421015612cbb57612c4b612cb2612c16926117a7565b975b9150612c42565b9594612c4b612ccc612c16926117a7565b96612cb4565b50929395505092948295949383612ce85f610ca9565b811115612cf8576103c891612249565b50506103c85f610ca9565b612d195f51602061557c5f395f51905f52614f72565b6103b26103b26151b2565b6103b2612d03565b6103b2929190612d485f51602061557c5f395f51905f52614f72565b92919092612d5581610469565b612d62611f066001611a8b565b108015612dd8575b612dc757612d77846104f2565b612d84611f066004611a8b565b11612da1576103b292936107b4612d9c92600c61076b565b612293565b5f61256b612dae866104f2565b63ad2489af60e01b835260ff1660048301526024820190565b630e76c5d160e21b5f908152600490fd5b50612de281610469565b612def611f066010611a8b565b11612d6a565b906103b29291612d2c565b80156117b5575f190190565b6020810192916103b29190610472565b612e2a6103c8826004610cb6565b612e338161125f565b612e42611d2f6104005f611cdd565b14612fa757612e5082614f22565b804210612f905750612e615f610ca9565b6001820190612e716103c8835490565b811015612f8a57612e895f6118ae83612f0195611748565b612eb86124c0856009612eab611b8d86610a95612ea58661125f565b8561090d565b8914612f06575b5061125f565b7fcd0a7e6e5bd57a0d6455d029e6c672cc55e5520e660f833fde5701702dd1e6de612ef8612ee588610ca9565b93612eef60405190565b91829182612e0c565b0390a360010190565b612e61565b612f2c610a9591612d9c87612f1a5f610ca9565b948593612f268861125f565b9061090d565b612f4281612d9c87610a95600a612f268861125f565b600b90612f576103c8611b8d612ea58661125f565b1115612eb257612f6d612f8491612f268461125f565b612f7e612f7982611270565b612e00565b90612293565b5f612eb2565b50505050565b63fc2df8a960e01b5f908152600491909152602490fd5b632b38bfed60e01b5f908152600490fd5b6103c8612fcc91612fc65f90565b50614f22565b42101590565b906103b29291612fe0615089565b9061222d9291612fee6150f2565b61302a565b6001600160a01b0390911681526040810192916103b29160200152565b9160206103b29294936106fc60408201965f830190610472565b909160049261303c6103c88486610cb6565b9261304a6103c88387610cb6565b6130538561125f565b61305c33611d2f565b036134505761306a8161125f565b61307333611d2f565b03613450575f9586956130855f610ca9565b600182016130946103c8825490565b82101561343f575f6118ae836130a993611748565b6130b56118ba8961045f565b146130c257600101613085565b6130e09192939495969798506124d85f61195a600193848701611748565b61341d576130f6611b8d87610a9533600961090d565b84900361341d575f6131075f610ca9565b600185016131166103c8825490565b82101561342d575f6118ae8361312b93611748565b6131376118ba8a61045f565b1461314457600101613107565b6131689293949596979850613163915061195a5f916001809801611748565b931590565b61341d576131786103c886614f22565b4210156133f95761318e60036131979201611270565b6123b783610ca9565b918234106133e2576131a9600e61125f565b906131b35f611cdd565b916131c66001600160a01b038416611d2f565b03613323575b506131e085612d9c88610a9533600961090d565b6131f385612d9c88610a9533600a61090d565b6131fc5f610ca9565b83119081613309575b5061325e575b507fab73b2dcba8ed1b6096f7940dcb388d5406686d8115d4ee75d33309b73a829309061324361323d61323d33610904565b94610ca9565b9461325961325060405190565b92839283613010565b0390a4565b6132735f806124c56124c06124c0600f61125f565b61255d57507fab73b2dcba8ed1b6096f7940dcb388d5406686d8115d4ee75d33309b73a82930906132a333610904565b6132ac85610ca9565b907f4c369879192a61f41a90aef2b9388fd74227d8429a5f5fe1887a365da71d723c6132d760405190565b848152604060208201819052600d908201526c5357495443485f534b494c4c5360981b6060820152608090a39061320b565b905061331b611d2f612581600f61125f565b14155f613205565b5f61338b61260f612600613381849585808c61333f600e61125f565b6133688d61265061334f60405190565b94859260208401638925781760e01b8152013390612ff3565b82602083519301915af15061337b612343565b506104f2565b6125fa6002610ca9565b613395600e61125f565b6133c86133a18b610469565b6126506133ad60405190565b9485928d8b60208601630c4e865560e21b81520133906122d5565b82602083519301915af1506133db612343565b505f6131cc565b63af608abb60e01b5f90815261256b348585612258565b5f61256b8361340788614f22565b63fc2df8a960e01b845290830190815260200190565b630e76c5d160e21b5f9081528290fd5b50506131689192935096939495961590565b5050909192939495966130e0901590565b632500456d60e01b5f9081528690fd5b906103b29291612fd2565b6103c8915f61348561348b9361347e5f90565b5082612134565b0161090d565b611769565b611b8d6103c89161349e5f90565b50600661076b565b6103c860806116b3565b6134b86134a6565b5f8082526060602083018190526040830182905282015290565b6103c86134b0565b6103c860a06116b3565b906103b261354960036134f56134da565b9461350861350282611769565b876117ba565b61351d61351482611789565b602088016117c4565b61353361352c60018301611270565b6040880152565b61215161354260028301611270565b6060880152565b6080840152565b6103c8906134e4565b90613562825490565b61356b816116df565b9261357d60208501915f5260205f2090565b5f915b83831061358d5750505050565b6004602060019261359d85613550565b815201920192019190613580565b906103b26135fb60036135bc6134a6565b946135d66135c98261125f565b6001600160a01b03168752565b6135ec6135e560018301613559565b6020880152565b61215161352c60028301611270565b6060840152565b6103c8906135ab565b6136226103c89161361a6134d2565b506004610cb6565b613602565b6103b2906136415f51602061557c5f395f51905f52614f72565b61364d6104005f611cdd565b6001600160a01b0382161461288c57613677612bb561366c600e61125f565b6124c084600e612b68565b907f7042586b23181180eb30b4798702d7a0233b7fc2551e89806770e8e5d9392e6a612be660405190565b6103b290613627565b6103c8905f612fc6565b6103c890613559565b60016136cf6103c89261361a606090565b016136b5565b5f5b8281106136e357505050565b6020906136ee6134d2565b81840152016136d7565b906103b261370861170b846116df565b601f1901602084016136d5565b6117e5613724916117dd606090565b9061372d825190565b90613737826116fb565b92613741836136f8565b9361374b846116fb565b91613755856116fb565b9361375f5f610ca9565b87875b8210156137e3578161171e6137c86137ba83612fc6816137dc9761379c8d6119036137948f6137629e61184b91611724565b968792611724565b6137aa613622856004610cb6565b6137b48383611724565b52611724565b6103c881611903868d611724565b4210156137d5838b611724565b9015159052565b905061375f565b50509294505093929190565b6103b2949392919061380d5f51602061557c5f395f51905f52614f72565b9194939492909261381e6008611a8b565b6138286010611a8b565b60ff82161161389c578061210a88612d9c60046107b461384a61389797611eee565b600c61385e8c612d9c5f6107b4868661076b565b6138718d612d9c60016107b4868661076b565b6138848a612d9c60026107b4868661076b565b610a958b612d9c60036107b4868661076b565b61381e565b50505050509050565b906103b2949392916137ef565b906103c8979695949392916138c5615089565b906138dd979695949392916138d86150f2565b613b43565b906103b261511a565b905051906103b282610823565b906020828203126103a1576103c8916138e6565b6040513d5f823e3d90fd5b6103c8680d8d726b7177a80000610ca9565b9190811015610e2a576020020190565b356103c8816105ec565b6103c86005610ca9565b356103c881610731565b9060ff90612289565b9061396b6103c86122aa92151590565b8254613952565b919082039182116117b557565b356103c881610823565b634e487b7160e01b5f525f60045260245ffd5b9061396b6103c86122aa92610469565b9061ff009060081b612289565b906139c96103c86122aa926104f2565b82546139ac565b6103b291600390613a3990608090613a06856139f46139ee8461173e565b8261399c565b613a0060208401611773565b906139b9565b613a1d613a14604083015190565b60018701612293565b613a34613a2b606083015190565b60028701612293565b015190565b9101612293565b9190613a4f576103b2916139d0565b613989565b90815491600160401b8310156116845782613a779160016103b295018155611748565b90613a40565b6103c86032610ca9565b9160206103b2929493613aa160408201965f830190610472565b01906104fb565b6103c86001610ca9565b915f1960089290920291821b911b612289565b9190613ad66103c86122aa93610ca9565b908354613ab2565b90815491600160401b8310156116845782613b019160016103b295018155610e0a565b90613ac5565b15613b0e57565b60405162461bcd60e51b815260206004820152600d60248201526c1499599d5b990819985a5b1959609a1b6044820152606490fd5b9197939492909796959660805260a05250613b5e600d61125f565b93613b685f611cdd565b94613b7b6001600160a01b038716611d2f565b1461474657613b9161190c61348b33600861090d565b60a05190959091861561473757613bb4613bae6121056001611a8b565b84612277565b98613bbe5f610ca9565b8a148015614725575b61470a5784841415801561471b575b61470a57613be4600e61125f565b613bf66001600160a01b038516611d2f565b03614663575b613c055f610ca9565b98895b85811015613d00578980613cda575b613cc9578a613c476103c8611b8d613c3033600961090d565b6120e7613c428760a051608051613924565b613934565b03613c5457600101613c08565b61256b613cb6613c4283613c71613c425f9660a051608051613924565b7f8e81a6b62ca13c48a33846156d48db394e770a1f9553b166f964b3c0ac91457a613ca8613c9e33610904565b92612eef60405190565b0390a260a051608051613924565b634a41725760e11b835260048301612e0c565b6330f1e06560e01b5f908152600490fd5b50613ced613c428260a051608051613924565b613cfa6118ba600161045f565b14613c17565b5091939699613d1e919396995097949761260a611b8d33600b61090d565b613d2c610b3f6103c861393e565b1161465257613d3a5f610ca9565b86811015613e7857613d5761262f613c428360a051608051613924565b600190613d66611f0683611a8b565b108015613e4f575b612dc757613d886125ef613d83848c8f613924565b613948565b90600491613d98611f0684611a8b565b11613e1e5780613db0613daa82610ca9565b85612277565b905b613dc9575b505050613dc49060010190565b613d3a565b89811015613e1957613de3613c428560a051608051613924565b613dfb6118ba6118b5613c428560a051608051613924565b14613e095760010181613db2565b6330f1e06560e01b5f9081528390fd5b613db7565b505f9250613e366125ef613d8361256b948c8f613924565b63ad2489af60e01b845260ff1690830190815260200190565b50613e6561262f613c428460a051608051613924565b613e72611f066010611a8b565b11613d6e565b509091929397959496613e8f6103c8846004610cb6565b90613e9a3383612b68565b613ea74260028401612293565b613eb05f610ca9565b94613ebc6123cf61226b565b91869a879b5b818d1015613f0557613ef8613eff91612c7e8f8f908f81613d8391613ef2613c426108c49560a051608051613924565b94613924565b9c60010190565b9b613ec2565b91939597999c90929496989b50613f268c613f218b6007610cb6565b61395b565b81341061463a57613f3c829d9c9b9a9d34613972565b91613f4a8160038a01612293565b8d5b848110156141d457808e9f9c809e9f8d9e8e8e8e8e8e60a0518960805191613f7392613924565b613f7c90613934565b9389613f89818a8c613924565b613f9290613948565b92613f9c92613924565b613fa59061397f565b90613fae6134da565b94613fb990866117ba565b613fc690602086016117c4565b6040840152613fd6426060850152565b608083015260010190613fe891613a54565b600660a0518660805191613ffb92613924565b61400490613934565b61400d9161076b565b61401681611270565b61401f906117a7565b61402891612293565b8061403433600961090d565b60a051876080519161404592613924565b61404e90613934565b6140579161076b565b9061406191612293565b600a9061406e338361090d565b60a051876080519161407f92613924565b61408890613934565b6140919161076b565b9061409b91612293565b6140a633600b61090d565b6140af81611270565b6140b8906117a7565b6140c191612293565b6140ca5f610ca9565b850361415657506140db600f610ca9565b6140e491612277565b9e61412d6125f4613d8361414c977f9b3f65d29aeb401bfee016fe6ee834d6f484bc7eddf7c981ec065d0ba8289ad3955b614127613c428360a051608051613924565b97613924565b9261414361413a60405190565b92839283613a87565b0390a260010190565b9d9c9b9a9d613f4c565b9061417f6141979261260a6125f46141756125ef613d838b8a8c613924565b6125fa6005610ca9565b614187613a7d565b90818111156141cc575090612277565b9e61412d6125f4613d8361414c977f9b3f65d29aeb401bfee016fe6ee834d6f484bc7eddf7c981ec065d0ba8289ad395614115565b905090612277565b50945094929b9895919990979a96506144a3575b5050600594614204896141ff6103c833600561090d565b613ade565b61420d5f610ca9565b811161446c575b5061421e5f610ca9565b811180614448575b6143a7575b5061423c6124c06124c0600d61125f565b803b156103a1575f61424d60405190565b918290632f7e13eb60e11b825281838161426b8c3360048401612ff3565b03925af180156143a257614385575b5061428b611d2f612581600e61125f565b036142e4575b5050507f19755b80f038339a1001e8fd8b922efd79bc678c2c12bfc7d50d14c8726f86796142be33610904565b916142c885610ca9565b936142de6142d560405190565b92839283612258565b0390a390565b91936142f35f97929497610ca9565b8181101561437657806126715f8061432761260f61431e6133816125ef613d836143719a8f8f613924565b61260a8d610ca9565b614331600e61125f565b61265f8d61265061434d61262f613c428b60a051608051613924565b9461435760405190565b630c4e865560e21b602082015295869333602486016122d5565b6142f3565b509350949150505f8080614291565b61439c905f6143948183611662565b8101906106ba565b5f61427a565b613907565b6143c75f806143bc6124c06124c0600f61125f565b6040518581806124cc565b61288c576143d433610904565b7f4c369879192a61f41a90aef2b9388fd74227d8429a5f5fe1887a365da71d723c61443f6144018b610ca9565b9361440b60405190565b91829182908152604060208201819052600f908201526e52454749535445525f534b494c4c5360881b606082015260800190565b0390a35f61422b565b50614453600f61125f565b6144656001600160a01b038416611d2f565b1415614226565b5f8061449d9261447e6124c033610904565b9061448860405190565b90818003925af1614497612343565b50613b07565b5f614214565b90966001975f926144b2613aa8565b916144bb6134da565b926144c68c856117ba565b6144d386602086016117c4565b60408401526144e3426060850152565b6080830152600101906144f591613a54565b61450088600661076b565b61450981611270565b614512906117a7565b61451b91612293565b898861452833600961090d565b906145329161076b565b9061453c91612293565b898861454933600a61090d565b906145539161076b565b9061455d91612293565b61456833600b61090d565b61457181611270565b61457a906117a7565b61458391612293565b61458d600f610ca9565b61459691612277565b966145a233600861090d565b60016145ad9161395b565b6145b68a610ca9565b80926145c160405190565b6145cd81928583613a87565b037f9b3f65d29aeb401bfee016fe6ee834d6f484bc7eddf7c981ec065d0ba8289ad391a26145fa33610904565b9061460460405190565b61460f819282612e0c565b037fa533774fabd5497c00fa5520591482368009b97b38d28bb36bda9df7dc322e1391a35f806141e8565b63af608abb60e01b5f90815261256b34846004612258565b63234acd7160e11b5f908152600490fd5b6146736124c06124c0600e61125f565b602061467e60405190565b63857184d160e01b815233600482015291829060249082905afa5f91816146d9575b506146ab5750613bfc565b6146b3613912565b8082106146c1575050613bfc565b63109ddee960e21b5f9081529161256b916004612258565b6146fc91925060203d602011614703575b6146f48183611662565b8101906138f3565b905f6146a0565b503d6146ea565b63ac9fbab160e01b5f908152600490fd5b5081841415613bd6565b506147306005610ca9565b8a11613bc7565b613bb4613bae6121055f611a8b565b630991dc9d60e11b5f908152600490fd5b6103c8969594939291905f6138b2565b906103b2916147786121688261213a565b906103b291614fec565b906103b291614767565b5f9081928283918493856147a46117e583600561090d565b906147ad825190565b946147bd6123cf62015180610ca9565b6147c65f610ca9565b9a5b6147d36103c8865190565b8c1015614943576147e48c86611724565b51946147f1866004610cb6565b9b6147fe60038e01611270565b61480791612277565b9561481190614f22565b918242101561493157614823906117a7565b91831015614921575b6148355f610ca9565b995b60018d016148466103c8825490565b8c10156148fd5761262f5f6118ae8e61485e94611748565b6148686001611a8b565b60ff82161015806148e7575b15614893575061488661488d916117a7565b9a60010190565b99614837565b6148a060089c929c611a8b565b60ff8216101590816148d0575b506148bb575b60010161488d565b9a6148c861488d916117a7565b9b90506148b3565b90506148df611f066010611a8b565b11155f6148ad565b506148f26007611a8b565b60ff82161115614874565b5099509397929691959b61491491959b5060010190565b9a949095919692936147c8565b9361492b906117a7565b9361482c565b91509261493d906117a7565b9261482c565b9993505096939594985091611b8d61495c91600b61090d565b94565b6149755f51602061557c5f395f51905f52614f72565b6103b2614997565b9160206103b29294936106fc60408201965f830190612800565b6149a1600f61125f565b6149b0611d2f6104005f611cdd565b1461288c576149be30610904565b316149c85f610ca9565b81146149e4575f80612886926128746124c06124c0600f61125f565b63af608abb60e01b5f9081529061256b9082600461497d565b6103b261495f565b5f5b828110614a1357505050565b606082820152602001614a07565b906103b2614a3161170b846116df565b601f190160208401614a05565b6123cf614a566117e5614a62939594956117dd606090565b936125fa610e10610ca9565b614a6b5f610ca9565b90815b614a796103c8865190565b811015614acd57614a90611c9261184b8388611724565b4281119081614ac2575b50614aad575b600101614a6e565b614a6e565b91614aba614aa8916117a7565b929050614aa0565b83915011155f614a9a565b5090614ad8816116fb565b80614ae2836116fb565b91614aed8394614a21565b908194614af95f610ca9565b95865b614b076103c88c5190565b811015614b9f57614b1b61184b828d611724565b614b2481614f22565b42811180614b95575b614b41575b5050600101614afc565b614afc565b98614b7260016136cf84614b6b614b3c979e6119038f8f90611a71614b8d9b6119038c8095611724565b6004610cb6565b614b7c8289611724565b52614b878188611724565b506117a7565b97905f614b32565b508a811115614b2d565b5096509694509650505050565b6103b29493929190614bca5f51602061557c5f395f51905f52614f72565b9192909260019384614bdc6001611a8b565b905b614bec575b50505050505050565b614bf66007611a8b565b60ff821611614c6b57614c658161210a89612d9c60046107b4614c198d98611eee565b600c614c2d8e612d9c5f6107b4868661076b565b614c3f8b612d9c8c6107b4868661076b565b614c528c612d9c60026107b4868661076b565b610a958d612d9c60036107b4868661076b565b90614bde565b614be3565b906103b294939291614bac565b906103b291614c8a615089565b90600491614c9b6103c88285610cb6565b92614ca58461125f565b614cae33611d2f565b03614e2157614cc5611b8d84610a9533600961090d565b829003614e05575f614cd65f610ca9565b60018601614ce56103c8825490565b821015614e13575f6118ae83614cfa93611748565b614d066118ba8761045f565b14614d1357600101614cd6565b509293509091505f5b614e05578190614d2c600e61125f565b614d3b611d2f6104005f611cdd565b03614dcc575b5050614d4c5f610ca9565b614d5f81612d9c85610a9533600961090d565b614d7281612d9c85610a9533600a61090d565b614d836103c8611b8d33600b61090d565b11614db9575b7fcb584b9c19a4cd48046a2f7367004a44e11beb9fab06c203cc0eafd56e4d95906124a6612ee561249633610904565b614dc7612f6d33600b61090d565b614d89565b5f918291614dea614ddd600e61125f565b9161265061334f60405190565b82602083519301915af150614dfd612343565b50805f614d41565b630e76c5d160e21b5f908152fd5b5050614d1c91929394501590565b632500456d60e01b5f908152fd5b906103b291614c7d565b6117e5614e48916117dd606090565b90614e525f610ca9565b805b614e5f6103c8855190565b811015614ea257614e796103c8611c9261184b8488611724565b4210614e8d575b600101614e54565b614e54565b90614e9a614e88916117a7565b919050614e80565b50614eac906116fb565b91614eb65f610ca9565b92835b614ec46103c8845190565b811015614f1c57614ede6103c8611c9261184b8487611724565b4210614ef2575b600101614eb9565b614eb9565b93614f14614eed916118f7614f0a61184b8988611724565b6119038387611724565b949050614ee5565b50925050565b614f326103c860019261361a5f90565b018054614f41610b3f5f610ca9565b14614f5c576003614f555f6103c893611748565b5001611270565b506103c85f610ca9565b5f6103c891614f555f90565b6103b29033906152a5565b614f8a61190c838361346b565b614f92575050565b614fa66001613f21845f6134858682612134565b614fba612bb5614fb4339390565b93610904565b917f2f8788117e7eff1d82e926ec794901d17c78024a50270940304540a733656f0d614fe560405190565b8080613259565b614ff6828261346b565b614ffe575050565b6150115f613f2184826134858682612134565b61501f612bb5614fb4339390565b917ff6391f5c32d9c69d2a47ea670b442974b53935d1edc7fd64eb21e047a839171b614fe560405190565b1561505157565b60405162461bcd60e51b815260206004820152601060248201526f14185d5cd8589b194e881c185d5cd95960821b6044820152606490fd5b6103b261509761190c612b1a565b61504a565b6103c86002610ca9565b156150ad57565b60405162461bcd60e51b815260206004820152601f60248201527f5265656e7472616e637947756172643a207265656e7472616e742063616c6c006044820152606490fd5b6103b26150ff6002611270565b61511361510a61509c565b918214156150a6565b6002612293565b6103b2615113613aa8565b61512d615375565b6103b261513b5f600161395b565b7f5db9ee0a495bf2e6ff9c91a7834c1ba4fdd244a5e8aa4e537bd38aeae4b073aa615165336109c0565b0390a1565b6103b2615125565b61517a615089565b6103b261518860018061395b565b7f62e78cea01bee320cd4e420270b5ea74000d11b0c9f74754ebdbfc544b05a258615165336109c0565b6103b2615172565b6103c890610ca9565b5f5b8381106151d45750505f910152565b81810151838201526020016151c5565b6104886151fc926020926151f6815190565b94859290565b938491016151c3565b6152436103c8939261523d61523d937f416363657373436f6e74726f6c3a206163636f756e7420000000000000000000815260170190565b906151e4565b7001034b99036b4b9b9b4b733903937b6329607d1b815260110190565b61528161528a60209361048893615275815190565b80835293849260200190565b958691016151c3565b601f01601f191690565b60208082526103c892910190615260565b906152b361190c828461346b565b6152bb575050565b6153056103c86121e6936152ed6152dd6152d7615311966153a5565b926151ba565b6152e76020610ca9565b90615463565b906152f760405190565b938492602084019283615205565b90810382520382611662565b60405162461bcd60e51b815291829160048301615294565b1561533057565b60405162461bcd60e51b815260206004820152601460248201527f5061757361626c653a206e6f74207061757365640000000000000000000000006044820152606490fd5b6103b2615380612b1a565b615329565b6103c86103c86103c8926001600160a01b031690565b6103c86014611a8b565b6153c26153bd6103c8926153b7606090565b506108fb565b615385565b6152e761210561539b565b906103b26117116153dd84612336565b93612319565b906153ec825190565b811015610e2a570160200190565b6103c89061540e610b3f6103c89460ff1690565b901c90565b1561541a57565b60405162461bcd60e51b8152806121e6600482016020808252818101527f537472696e67733a20686578206c656e67746820696e73756666696369656e74604082015260600190565b61548b61548661547c846154776002610ca9565b6122ae565b612c7e6002610ca9565b6153cd565b9160306154a061549a5f610ca9565b856153e3565b53600f60fb1b6154d96154d060019384935f1a6154c56154bf86610ca9565b896153e3565b536154776002610ca9565b612c7e83610ca9565b915b6154fc575b5050906103c86103c8926154f6610b3f5f610ca9565b14615413565b909161550782610ca9565b831115615575576f181899199a1a9b1b9c1cb0b131b232b360811b61552c600f610ca9565b8216906010821015610e2a57839261554c6155699261556f941a60f81b90565b5f1a61555887896153e3565b536155636004611a8b565b906153fa565b93612e00565b916154db565b916154e056fea49807205ce4d355092ef5a8a18f56e8913cf4a201fbe287825b095693c21775a26469706673582212203ad95a4525c0381acc88e4aeb2c65a1eb1e8f523b46ff86004086d0a9e54de6864736f6c634300081c0033",
  "linkReferences": {},
  "deployedLinkReferences": {}
}