{
  "_format": "hh-sol-artifact-1",
  "contractName": "GameifiedMarketplaceCoreV1",
  "sourceName": "contracts/Marketplace/GameifiedMarketplaceCoreV1.sol",
  "abi": [
    {
      "inputs": [],
      "stateMutability": "nonpayable",
      "type": "constructor"
    },
    {
      "anonymous": false,
      "inputs": [
        {
          "indexed": false,
          "internalType": "address",
          "name": "previousAdmin",
          "type": "address"
        },
        {
          "indexed": false,
          "internalType": "address",
          "name": "newAdmin",
          "type": "address"
        }
      ],
      "name": "AdminChanged",
      "type": "event"
    },
    {
      "anonymous": false,
      "inputs": [
        {
          "indexed": true,
          "internalType": "address",
          "name": "owner",
          "type": "address"
        },
        {
          "indexed": true,
          "internalType": "address",
          "name": "approved",
          "type": "address"
        },
        {
          "indexed": true,
          "internalType": "uint256",
          "name": "tokenId",
          "type": "uint256"
        }
      ],
      "name": "Approval",
      "type": "event"
    },
    {
      "anonymous": false,
      "inputs": [
        {
          "indexed": true,
          "internalType": "address",
          "name": "owner",
          "type": "address"
        },
        {
          "indexed": true,
          "internalType": "address",
          "name": "operator",
          "type": "address"
        },
        {
          "indexed": false,
          "internalType": "bool",
          "name": "approved",
          "type": "bool"
        }
      ],
      "name": "ApprovalForAll",
      "type": "event"
    },
    {
      "anonymous": false,
      "inputs": [
        {
          "indexed": false,
          "internalType": "uint256",
          "name": "_fromTokenId",
          "type": "uint256"
        },
        {
          "indexed": false,
          "internalType": "uint256",
          "name": "_toTokenId",
          "type": "uint256"
        }
      ],
      "name": "BatchMetadataUpdate",
      "type": "event"
    },
    {
      "anonymous": false,
      "inputs": [
        {
          "indexed": true,
          "internalType": "address",
          "name": "beacon",
          "type": "address"
        }
      ],
      "name": "BeaconUpgraded",
      "type": "event"
    },
    {
      "anonymous": false,
      "inputs": [
        {
          "indexed": true,
          "internalType": "address",
          "name": "user",
          "type": "address"
        },
        {
          "indexed": true,
          "internalType": "uint256",
          "name": "tokenId",
          "type": "uint256"
        },
        {
          "indexed": false,
          "internalType": "string",
          "name": "comment",
          "type": "string"
        }
      ],
      "name": "CommentAdded",
      "type": "event"
    },
    {
      "anonymous": false,
      "inputs": [
        {
          "indexed": false,
          "internalType": "uint8",
          "name": "version",
          "type": "uint8"
        }
      ],
      "name": "Initialized",
      "type": "event"
    },
    {
      "anonymous": false,
      "inputs": [
        {
          "indexed": true,
          "internalType": "address",
          "name": "user",
          "type": "address"
        },
        {
          "indexed": true,
          "internalType": "uint256",
          "name": "tokenId",
          "type": "uint256"
        },
        {
          "indexed": false,
          "internalType": "bool",
          "name": "liked",
          "type": "bool"
        }
      ],
      "name": "LikeToggled",
      "type": "event"
    },
    {
      "anonymous": false,
      "inputs": [
        {
          "indexed": false,
          "internalType": "uint256",
          "name": "_tokenId",
          "type": "uint256"
        }
      ],
      "name": "MetadataUpdate",
      "type": "event"
    },
    {
      "anonymous": false,
      "inputs": [
        {
          "indexed": true,
          "internalType": "address",
          "name": "seller",
          "type": "address"
        },
        {
          "indexed": true,
          "internalType": "address",
          "name": "buyer",
          "type": "address"
        },
        {
          "indexed": true,
          "internalType": "uint256",
          "name": "tokenId",
          "type": "uint256"
        },
        {
          "indexed": false,
          "internalType": "uint256",
          "name": "amount",
          "type": "uint256"
        }
      ],
      "name": "OfferAccepted",
      "type": "event"
    },
    {
      "anonymous": false,
      "inputs": [
        {
          "indexed": true,
          "internalType": "address",
          "name": "offeror",
          "type": "address"
        },
        {
          "indexed": true,
          "internalType": "uint256",
          "name": "tokenId",
          "type": "uint256"
        },
        {
          "indexed": false,
          "internalType": "uint256",
          "name": "amount",
          "type": "uint256"
        }
      ],
      "name": "OfferMade",
      "type": "event"
    },
    {
      "anonymous": false,
      "inputs": [
        {
          "indexed": false,
          "internalType": "address",
          "name": "account",
          "type": "address"
        }
      ],
      "name": "Paused",
      "type": "event"
    },
    {
      "anonymous": false,
      "inputs": [
        {
          "indexed": true,
          "internalType": "address",
          "name": "from",
          "type": "address"
        },
        {
          "indexed": false,
          "internalType": "uint256",
          "name": "amount",
          "type": "uint256"
        },
        {
          "indexed": true,
          "internalType": "address",
          "name": "to",
          "type": "address"
        },
        {
          "indexed": false,
          "internalType": "string",
          "name": "operation",
          "type": "string"
        }
      ],
      "name": "PlatformFeeTransferred",
      "type": "event"
    },
    {
      "anonymous": false,
      "inputs": [
        {
          "indexed": true,
          "internalType": "address",
          "name": "seller",
          "type": "address"
        },
        {
          "indexed": true,
          "internalType": "uint256",
          "name": "tokenId",
          "type": "uint256"
        },
        {
          "indexed": false,
          "internalType": "uint256",
          "name": "newPrice",
          "type": "uint256"
        }
      ],
      "name": "PriceUpdated",
      "type": "event"
    },
    {
      "anonymous": false,
      "inputs": [
        {
          "indexed": true,
          "internalType": "bytes32",
          "name": "role",
          "type": "bytes32"
        },
        {
          "indexed": true,
          "internalType": "bytes32",
          "name": "previousAdminRole",
          "type": "bytes32"
        },
        {
          "indexed": true,
          "internalType": "bytes32",
          "name": "newAdminRole",
          "type": "bytes32"
        }
      ],
      "name": "RoleAdminChanged",
      "type": "event"
    },
    {
      "anonymous": false,
      "inputs": [
        {
          "indexed": true,
          "internalType": "bytes32",
          "name": "role",
          "type": "bytes32"
        },
        {
          "indexed": true,
          "internalType": "address",
          "name": "account",
          "type": "address"
        },
        {
          "indexed": true,
          "internalType": "address",
          "name": "sender",
          "type": "address"
        }
      ],
      "name": "RoleGranted",
      "type": "event"
    },
    {
      "anonymous": false,
      "inputs": [
        {
          "indexed": true,
          "internalType": "bytes32",
          "name": "role",
          "type": "bytes32"
        },
        {
          "indexed": true,
          "internalType": "address",
          "name": "account",
          "type": "address"
        },
        {
          "indexed": true,
          "internalType": "address",
          "name": "sender",
          "type": "address"
        }
      ],
      "name": "RoleRevoked",
      "type": "event"
    },
    {
      "anonymous": false,
      "inputs": [
        {
          "indexed": true,
          "internalType": "address",
          "name": "creator",
          "type": "address"
        },
        {
          "indexed": true,
          "internalType": "uint256",
          "name": "tokenId",
          "type": "uint256"
        },
        {
          "indexed": false,
          "internalType": "string",
          "name": "uri",
          "type": "string"
        }
      ],
      "name": "TokenCreated",
      "type": "event"
    },
    {
      "anonymous": false,
      "inputs": [
        {
          "indexed": true,
          "internalType": "address",
          "name": "seller",
          "type": "address"
        },
        {
          "indexed": true,
          "internalType": "uint256",
          "name": "tokenId",
          "type": "uint256"
        },
        {
          "indexed": false,
          "internalType": "uint256",
          "name": "price",
          "type": "uint256"
        }
      ],
      "name": "TokenListed",
      "type": "event"
    },
    {
      "anonymous": false,
      "inputs": [
        {
          "indexed": true,
          "internalType": "address",
          "name": "seller",
          "type": "address"
        },
        {
          "indexed": true,
          "internalType": "address",
          "name": "buyer",
          "type": "address"
        },
        {
          "indexed": true,
          "internalType": "uint256",
          "name": "tokenId",
          "type": "uint256"
        },
        {
          "indexed": false,
          "internalType": "uint256",
          "name": "price",
          "type": "uint256"
        }
      ],
      "name": "TokenSold",
      "type": "event"
    },
    {
      "anonymous": false,
      "inputs": [
        {
          "indexed": true,
          "internalType": "address",
          "name": "seller",
          "type": "address"
        },
        {
          "indexed": true,
          "internalType": "uint256",
          "name": "tokenId",
          "type": "uint256"
        }
      ],
      "name": "TokenUnlisted",
      "type": "event"
    },
    {
      "anonymous": false,
      "inputs": [
        {
          "indexed": true,
          "internalType": "address",
          "name": "from",
          "type": "address"
        },
        {
          "indexed": true,
          "internalType": "address",
          "name": "to",
          "type": "address"
        },
        {
          "indexed": true,
          "internalType": "uint256",
          "name": "tokenId",
          "type": "uint256"
        }
      ],
      "name": "Transfer",
      "type": "event"
    },
    {
      "anonymous": false,
      "inputs": [
        {
          "indexed": false,
          "internalType": "address",
          "name": "account",
          "type": "address"
        }
      ],
      "name": "Unpaused",
      "type": "event"
    },
    {
      "anonymous": false,
      "inputs": [
        {
          "indexed": true,
          "internalType": "address",
          "name": "implementation",
          "type": "address"
        }
      ],
      "name": "Upgraded",
      "type": "event"
    },
    {
      "inputs": [],
      "name": "ADMIN_ROLE",
      "outputs": [
        {
          "internalType": "bytes32",
          "name": "",
          "type": "bytes32"
        }
      ],
      "stateMutability": "view",
      "type": "function"
    },
    {
      "inputs": [],
      "name": "DEFAULT_ADMIN_ROLE",
      "outputs": [
        {
          "internalType": "bytes32",
          "name": "",
          "type": "bytes32"
        }
      ],
      "stateMutability": "view",
      "type": "function"
    },
    {
      "inputs": [],
      "name": "PLATFORM_FEE_PERCENTAGE",
      "outputs": [
        {
          "internalType": "uint256",
          "name": "",
          "type": "uint256"
        }
      ],
      "stateMutability": "view",
      "type": "function"
    },
    {
      "inputs": [],
      "name": "UPGRADER_ROLE",
      "outputs": [
        {
          "internalType": "bytes32",
          "name": "",
          "type": "bytes32"
        }
      ],
      "stateMutability": "view",
      "type": "function"
    },
    {
      "inputs": [
        {
          "internalType": "uint256",
          "name": "_tokenId",
          "type": "uint256"
        },
        {
          "internalType": "uint256",
          "name": "_offerIndex",
          "type": "uint256"
        }
      ],
      "name": "acceptOffer",
      "outputs": [],
      "stateMutability": "nonpayable",
      "type": "function"
    },
    {
      "inputs": [
        {
          "internalType": "uint256",
          "name": "_tokenId",
          "type": "uint256"
        },
        {
          "internalType": "string",
          "name": "_text",
          "type": "string"
        }
      ],
      "name": "addComment",
      "outputs": [],
      "stateMutability": "nonpayable",
      "type": "function"
    },
    {
      "inputs": [
        {
          "internalType": "address",
          "name": "to",
          "type": "address"
        },
        {
          "internalType": "uint256",
          "name": "tokenId",
          "type": "uint256"
        }
      ],
      "name": "approve",
      "outputs": [],
      "stateMutability": "nonpayable",
      "type": "function"
    },
    {
      "inputs": [
        {
          "internalType": "address",
          "name": "owner",
          "type": "address"
        }
      ],
      "name": "balanceOf",
      "outputs": [
        {
          "internalType": "uint256",
          "name": "",
          "type": "uint256"
        }
      ],
      "stateMutability": "view",
      "type": "function"
    },
    {
      "inputs": [
        {
          "internalType": "uint256",
          "name": "_tokenId",
          "type": "uint256"
        }
      ],
      "name": "buyToken",
      "outputs": [],
      "stateMutability": "payable",
      "type": "function"
    },
    {
      "inputs": [
        {
          "internalType": "uint256",
          "name": "_tokenId",
          "type": "uint256"
        },
        {
          "internalType": "uint256",
          "name": "_offerIndex",
          "type": "uint256"
        }
      ],
      "name": "cancelOffer",
      "outputs": [],
      "stateMutability": "nonpayable",
      "type": "function"
    },
    {
      "inputs": [
        {
          "internalType": "string",
          "name": "_tokenURI",
          "type": "string"
        },
        {
          "internalType": "string",
          "name": "_category",
          "type": "string"
        },
        {
          "internalType": "uint96",
          "name": "_royaltyPercentage",
          "type": "uint96"
        }
      ],
      "name": "createStandardNFT",
      "outputs": [
        {
          "internalType": "uint256",
          "name": "",
          "type": "uint256"
        }
      ],
      "stateMutability": "nonpayable",
      "type": "function"
    },
    {
      "inputs": [
        {
          "internalType": "uint256",
          "name": "tokenId",
          "type": "uint256"
        }
      ],
      "name": "getApproved",
      "outputs": [
        {
          "internalType": "address",
          "name": "",
          "type": "address"
        }
      ],
      "stateMutability": "view",
      "type": "function"
    },
    {
      "inputs": [],
      "name": "getListedNFTs",
      "outputs": [
        {
          "internalType": "uint256[]",
          "name": "",
          "type": "uint256[]"
        }
      ],
      "stateMutability": "view",
      "type": "function"
    },
    {
      "inputs": [
        {
          "internalType": "uint256",
          "name": "_tokenId",
          "type": "uint256"
        }
      ],
      "name": "getNFTComments",
      "outputs": [
        {
          "internalType": "string[]",
          "name": "",
          "type": "string[]"
        }
      ],
      "stateMutability": "view",
      "type": "function"
    },
    {
      "inputs": [
        {
          "internalType": "uint256",
          "name": "_tokenId",
          "type": "uint256"
        }
      ],
      "name": "getNFTLikeCount",
      "outputs": [
        {
          "internalType": "uint256",
          "name": "",
          "type": "uint256"
        }
      ],
      "stateMutability": "view",
      "type": "function"
    },
    {
      "inputs": [
        {
          "internalType": "uint256",
          "name": "_tokenId",
          "type": "uint256"
        }
      ],
      "name": "getNFTMetadata",
      "outputs": [
        {
          "components": [
            {
              "internalType": "address",
              "name": "creator",
              "type": "address"
            },
            {
              "internalType": "string",
              "name": "uri",
              "type": "string"
            },
            {
              "internalType": "string",
              "name": "category",
              "type": "string"
            },
            {
              "internalType": "uint256",
              "name": "createdAt",
              "type": "uint256"
            },
            {
              "internalType": "uint96",
              "name": "royaltyPercentage",
              "type": "uint96"
            }
          ],
          "internalType": "struct GameifiedMarketplaceCoreV1.NFTMetadata",
          "name": "",
          "type": "tuple"
        }
      ],
      "stateMutability": "view",
      "type": "function"
    },
    {
      "inputs": [
        {
          "internalType": "uint256",
          "name": "_tokenId",
          "type": "uint256"
        }
      ],
      "name": "getNFTOffers",
      "outputs": [
        {
          "components": [
            {
              "internalType": "address",
              "name": "offeror",
              "type": "address"
            },
            {
              "internalType": "uint256",
              "name": "amount",
              "type": "uint256"
            },
            {
              "internalType": "uint8",
              "name": "expiresInDays",
              "type": "uint8"
            },
            {
              "internalType": "uint256",
              "name": "timestamp",
              "type": "uint256"
            }
          ],
          "internalType": "struct GameifiedMarketplaceCoreV1.Offer[]",
          "name": "",
          "type": "tuple[]"
        }
      ],
      "stateMutability": "view",
      "type": "function"
    },
    {
      "inputs": [
        {
          "internalType": "bytes32",
          "name": "role",
          "type": "bytes32"
        }
      ],
      "name": "getRoleAdmin",
      "outputs": [
        {
          "internalType": "bytes32",
          "name": "",
          "type": "bytes32"
        }
      ],
      "stateMutability": "view",
      "type": "function"
    },
    {
      "inputs": [
        {
          "internalType": "address",
          "name": "_user",
          "type": "address"
        }
      ],
      "name": "getUserCreatedNFTs",
      "outputs": [
        {
          "internalType": "uint256[]",
          "name": "",
          "type": "uint256[]"
        }
      ],
      "stateMutability": "view",
      "type": "function"
    },
    {
      "inputs": [
        {
          "internalType": "address",
          "name": "_user",
          "type": "address"
        }
      ],
      "name": "getUserNFTs",
      "outputs": [
        {
          "internalType": "uint256[]",
          "name": "",
          "type": "uint256[]"
        }
      ],
      "stateMutability": "view",
      "type": "function"
    },
    {
      "inputs": [
        {
          "internalType": "bytes32",
          "name": "role",
          "type": "bytes32"
        },
        {
          "internalType": "address",
          "name": "account",
          "type": "address"
        }
      ],
      "name": "grantRole",
      "outputs": [],
      "stateMutability": "nonpayable",
      "type": "function"
    },
    {
      "inputs": [
        {
          "internalType": "bytes32",
          "name": "role",
          "type": "bytes32"
        },
        {
          "internalType": "address",
          "name": "account",
          "type": "address"
        }
      ],
      "name": "hasRole",
      "outputs": [
        {
          "internalType": "bool",
          "name": "",
          "type": "bool"
        }
      ],
      "stateMutability": "view",
      "type": "function"
    },
    {
      "inputs": [
        {
          "internalType": "address",
          "name": "_platformTreasury",
          "type": "address"
        }
      ],
      "name": "initialize",
      "outputs": [],
      "stateMutability": "nonpayable",
      "type": "function"
    },
    {
      "inputs": [
        {
          "internalType": "address",
          "name": "owner",
          "type": "address"
        },
        {
          "internalType": "address",
          "name": "operator",
          "type": "address"
        }
      ],
      "name": "isApprovedForAll",
      "outputs": [
        {
          "internalType": "bool",
          "name": "",
          "type": "bool"
        }
      ],
      "stateMutability": "view",
      "type": "function"
    },
    {
      "inputs": [
        {
          "internalType": "uint256",
          "name": "",
          "type": "uint256"
        }
      ],
      "name": "isListed",
      "outputs": [
        {
          "internalType": "bool",
          "name": "",
          "type": "bool"
        }
      ],
      "stateMutability": "view",
      "type": "function"
    },
    {
      "inputs": [],
      "name": "levelingSystemAddress",
      "outputs": [
        {
          "internalType": "address",
          "name": "",
          "type": "address"
        }
      ],
      "stateMutability": "view",
      "type": "function"
    },
    {
      "inputs": [
        {
          "internalType": "uint256",
          "name": "_tokenId",
          "type": "uint256"
        },
        {
          "internalType": "uint256",
          "name": "_price",
          "type": "uint256"
        }
      ],
      "name": "listTokenForSale",
      "outputs": [],
      "stateMutability": "nonpayable",
      "type": "function"
    },
    {
      "inputs": [
        {
          "internalType": "uint256",
          "name": "",
          "type": "uint256"
        }
      ],
      "name": "listedPrice",
      "outputs": [
        {
          "internalType": "uint256",
          "name": "",
          "type": "uint256"
        }
      ],
      "stateMutability": "view",
      "type": "function"
    },
    {
      "inputs": [
        {
          "internalType": "uint256",
          "name": "_tokenId",
          "type": "uint256"
        },
        {
          "internalType": "uint8",
          "name": "_expiresInDays",
          "type": "uint8"
        }
      ],
      "name": "makeOffer",
      "outputs": [],
      "stateMutability": "payable",
      "type": "function"
    },
    {
      "inputs": [],
      "name": "name",
      "outputs": [
        {
          "internalType": "string",
          "name": "",
          "type": "string"
        }
      ],
      "stateMutability": "view",
      "type": "function"
    },
    {
      "inputs": [
        {
          "internalType": "uint256",
          "name": "",
          "type": "uint256"
        },
        {
          "internalType": "uint256",
          "name": "",
          "type": "uint256"
        }
      ],
      "name": "nftComments",
      "outputs": [
        {
          "internalType": "string",
          "name": "",
          "type": "string"
        }
      ],
      "stateMutability": "view",
      "type": "function"
    },
    {
      "inputs": [
        {
          "internalType": "uint256",
          "name": "",
          "type": "uint256"
        }
      ],
      "name": "nftLikeCount",
      "outputs": [
        {
          "internalType": "uint256",
          "name": "",
          "type": "uint256"
        }
      ],
      "stateMutability": "view",
      "type": "function"
    },
    {
      "inputs": [
        {
          "internalType": "uint256",
          "name": "",
          "type": "uint256"
        },
        {
          "internalType": "address",
          "name": "",
          "type": "address"
        }
      ],
      "name": "nftLikes",
      "outputs": [
        {
          "internalType": "bool",
          "name": "",
          "type": "bool"
        }
      ],
      "stateMutability": "view",
      "type": "function"
    },
    {
      "inputs": [
        {
          "internalType": "uint256",
          "name": "",
          "type": "uint256"
        }
      ],
      "name": "nftMetadata",
      "outputs": [
        {
          "internalType": "address",
          "name": "creator",
          "type": "address"
        },
        {
          "internalType": "string",
          "name": "uri",
          "type": "string"
        },
        {
          "internalType": "string",
          "name": "category",
          "type": "string"
        },
        {
          "internalType": "uint256",
          "name": "createdAt",
          "type": "uint256"
        },
        {
          "internalType": "uint96",
          "name": "royaltyPercentage",
          "type": "uint96"
        }
      ],
      "stateMutability": "view",
      "type": "function"
    },
    {
      "inputs": [
        {
          "internalType": "uint256",
          "name": "",
          "type": "uint256"
        },
        {
          "internalType": "uint256",
          "name": "",
          "type": "uint256"
        }
      ],
      "name": "nftOffers",
      "outputs": [
        {
          "internalType": "address",
          "name": "offeror",
          "type": "address"
        },
        {
          "internalType": "uint256",
          "name": "amount",
          "type": "uint256"
        },
        {
          "internalType": "uint8",
          "name": "expiresInDays",
          "type": "uint8"
        },
        {
          "internalType": "uint256",
          "name": "timestamp",
          "type": "uint256"
        }
      ],
      "stateMutability": "view",
      "type": "function"
    },
    {
      "inputs": [
        {
          "internalType": "uint256",
          "name": "tokenId",
          "type": "uint256"
        }
      ],
      "name": "ownerOf",
      "outputs": [
        {
          "internalType": "address",
          "name": "",
          "type": "address"
        }
      ],
      "stateMutability": "view",
      "type": "function"
    },
    {
      "inputs": [],
      "name": "pause",
      "outputs": [],
      "stateMutability": "nonpayable",
      "type": "function"
    },
    {
      "inputs": [],
      "name": "paused",
      "outputs": [
        {
          "internalType": "bool",
          "name": "",
          "type": "bool"
        }
      ],
      "stateMutability": "view",
      "type": "function"
    },
    {
      "inputs": [],
      "name": "platformTreasury",
      "outputs": [
        {
          "internalType": "address",
          "name": "",
          "type": "address"
        }
      ],
      "stateMutability": "view",
      "type": "function"
    },
    {
      "inputs": [],
      "name": "proxiableUUID",
      "outputs": [
        {
          "internalType": "bytes32",
          "name": "",
          "type": "bytes32"
        }
      ],
      "stateMutability": "view",
      "type": "function"
    },
    {
      "inputs": [],
      "name": "referralSystemAddress",
      "outputs": [
        {
          "internalType": "address",
          "name": "",
          "type": "address"
        }
      ],
      "stateMutability": "view",
      "type": "function"
    },
    {
      "inputs": [
        {
          "internalType": "bytes32",
          "name": "role",
          "type": "bytes32"
        },
        {
          "internalType": "address",
          "name": "account",
          "type": "address"
        }
      ],
      "name": "renounceRole",
      "outputs": [],
      "stateMutability": "nonpayable",
      "type": "function"
    },
    {
      "inputs": [
        {
          "internalType": "bytes32",
          "name": "role",
          "type": "bytes32"
        },
        {
          "internalType": "address",
          "name": "account",
          "type": "address"
        }
      ],
      "name": "revokeRole",
      "outputs": [],
      "stateMutability": "nonpayable",
      "type": "function"
    },
    {
      "inputs": [
        {
          "internalType": "uint256",
          "name": "tokenId",
          "type": "uint256"
        },
        {
          "internalType": "uint256",
          "name": "salePrice",
          "type": "uint256"
        }
      ],
      "name": "royaltyInfo",
      "outputs": [
        {
          "internalType": "address",
          "name": "",
          "type": "address"
        },
        {
          "internalType": "uint256",
          "name": "",
          "type": "uint256"
        }
      ],
      "stateMutability": "view",
      "type": "function"
    },
    {
      "inputs": [
        {
          "internalType": "address",
          "name": "from",
          "type": "address"
        },
        {
          "internalType": "address",
          "name": "to",
          "type": "address"
        },
        {
          "internalType": "uint256",
          "name": "tokenId",
          "type": "uint256"
        }
      ],
      "name": "safeTransferFrom",
      "outputs": [],
      "stateMutability": "nonpayable",
      "type": "function"
    },
    {
      "inputs": [
        {
          "internalType": "address",
          "name": "from",
          "type": "address"
        },
        {
          "internalType": "address",
          "name": "to",
          "type": "address"
        },
        {
          "internalType": "uint256",
          "name": "tokenId",
          "type": "uint256"
        },
        {
          "internalType": "bytes",
          "name": "data",
          "type": "bytes"
        }
      ],
      "name": "safeTransferFrom",
      "outputs": [],
      "stateMutability": "nonpayable",
      "type": "function"
    },
    {
      "inputs": [
        {
          "internalType": "address",
          "name": "operator",
          "type": "address"
        },
        {
          "internalType": "bool",
          "name": "approved",
          "type": "bool"
        }
      ],
      "name": "setApprovalForAll",
      "outputs": [],
      "stateMutability": "nonpayable",
      "type": "function"
    },
    {
      "inputs": [
        {
          "internalType": "address",
          "name": "_addr",
          "type": "address"
        }
      ],
      "name": "setLevelingSystem",
      "outputs": [],
      "stateMutability": "nonpayable",
      "type": "function"
    },
    {
      "inputs": [
        {
          "internalType": "address",
          "name": "_addr",
          "type": "address"
        }
      ],
      "name": "setReferralSystem",
      "outputs": [],
      "stateMutability": "nonpayable",
      "type": "function"
    },
    {
      "inputs": [
        {
          "internalType": "address",
          "name": "_addr",
          "type": "address"
        }
      ],
      "name": "setSkillsContract",
      "outputs": [],
      "stateMutability": "nonpayable",
      "type": "function"
    },
    {
      "inputs": [],
      "name": "skillsContractAddress",
      "outputs": [
        {
          "internalType": "address",
          "name": "",
          "type": "address"
        }
      ],
      "stateMutability": "view",
      "type": "function"
    },
    {
      "inputs": [
        {
          "internalType": "bytes4",
          "name": "interfaceId",
          "type": "bytes4"
        }
      ],
      "name": "supportsInterface",
      "outputs": [
        {
          "internalType": "bool",
          "name": "",
          "type": "bool"
        }
      ],
      "stateMutability": "view",
      "type": "function"
    },
    {
      "inputs": [],
      "name": "symbol",
      "outputs": [
        {
          "internalType": "string",
          "name": "",
          "type": "string"
        }
      ],
      "stateMutability": "view",
      "type": "function"
    },
    {
      "inputs": [
        {
          "internalType": "uint256",
          "name": "_tokenId",
          "type": "uint256"
        }
      ],
      "name": "toggleLike",
      "outputs": [],
      "stateMutability": "nonpayable",
      "type": "function"
    },
    {
      "inputs": [
        {
          "internalType": "uint256",
          "name": "tokenId",
          "type": "uint256"
        }
      ],
      "name": "tokenURI",
      "outputs": [
        {
          "internalType": "string",
          "name": "",
          "type": "string"
        }
      ],
      "stateMutability": "view",
      "type": "function"
    },
    {
      "inputs": [
        {
          "internalType": "address",
          "name": "",
          "type": "address"
        }
      ],
      "name": "totalCreators",
      "outputs": [
        {
          "internalType": "uint256",
          "name": "",
          "type": "uint256"
        }
      ],
      "stateMutability": "view",
      "type": "function"
    },
    {
      "inputs": [],
      "name": "totalNFTsSold",
      "outputs": [
        {
          "internalType": "uint256",
          "name": "",
          "type": "uint256"
        }
      ],
      "stateMutability": "view",
      "type": "function"
    },
    {
      "inputs": [],
      "name": "totalRoyaltiesPaid",
      "outputs": [
        {
          "internalType": "uint256",
          "name": "",
          "type": "uint256"
        }
      ],
      "stateMutability": "view",
      "type": "function"
    },
    {
      "inputs": [],
      "name": "totalTradingVolume",
      "outputs": [
        {
          "internalType": "uint256",
          "name": "",
          "type": "uint256"
        }
      ],
      "stateMutability": "view",
      "type": "function"
    },
    {
      "inputs": [
        {
          "internalType": "address",
          "name": "from",
          "type": "address"
        },
        {
          "internalType": "address",
          "name": "to",
          "type": "address"
        },
        {
          "internalType": "uint256",
          "name": "tokenId",
          "type": "uint256"
        }
      ],
      "name": "transferFrom",
      "outputs": [],
      "stateMutability": "nonpayable",
      "type": "function"
    },
    {
      "inputs": [
        {
          "internalType": "uint256",
          "name": "_tokenId",
          "type": "uint256"
        }
      ],
      "name": "unlistToken",
      "outputs": [],
      "stateMutability": "nonpayable",
      "type": "function"
    },
    {
      "inputs": [],
      "name": "unpause",
      "outputs": [],
      "stateMutability": "nonpayable",
      "type": "function"
    },
    {
      "inputs": [
        {
          "internalType": "uint256",
          "name": "_tokenId",
          "type": "uint256"
        },
        {
          "internalType": "uint256",
          "name": "_newPrice",
          "type": "uint256"
        }
      ],
      "name": "updatePrice",
      "outputs": [],
      "stateMutability": "nonpayable",
      "type": "function"
    },
    {
      "inputs": [
        {
          "internalType": "address",
          "name": "newImplementation",
          "type": "address"
        }
      ],
      "name": "upgradeTo",
      "outputs": [],
      "stateMutability": "nonpayable",
      "type": "function"
    },
    {
      "inputs": [
        {
          "internalType": "address",
          "name": "newImplementation",
          "type": "address"
        },
        {
          "internalType": "bytes",
          "name": "data",
          "type": "bytes"
        }
      ],
      "name": "upgradeToAndCall",
      "outputs": [],
      "stateMutability": "payable",
      "type": "function"
    },
    {
      "inputs": [
        {
          "internalType": "address",
          "name": "",
          "type": "address"
        }
      ],
      "name": "userNFTsBought",
      "outputs": [
        {
          "internalType": "uint256",
          "name": "",
          "type": "uint256"
        }
      ],
      "stateMutability": "view",
      "type": "function"
    },
    {
      "inputs": [
        {
          "internalType": "address",
          "name": "",
          "type": "address"
        }
      ],
      "name": "userNFTsSold",
      "outputs": [
        {
          "internalType": "uint256",
          "name": "",
          "type": "uint256"
        }
      ],
      "stateMutability": "view",
      "type": "function"
    },
    {
      "inputs": [
        {
          "internalType": "address",
          "name": "",
          "type": "address"
        }
      ],
      "name": "userPurchaseVolume",
      "outputs": [
        {
          "internalType": "uint256",
          "name": "",
          "type": "uint256"
        }
      ],
      "stateMutability": "view",
      "type": "function"
    },
    {
      "inputs": [
        {
          "internalType": "address",
          "name": "",
          "type": "address"
        }
      ],
      "name": "userRoyaltiesEarned",
      "outputs": [
        {
          "internalType": "uint256",
          "name": "",
          "type": "uint256"
        }
      ],
      "stateMutability": "view",
      "type": "function"
    },
    {
      "inputs": [
        {
          "internalType": "address",
          "name": "",
          "type": "address"
        }
      ],
      "name": "userSalesVolume",
      "outputs": [
        {
          "internalType": "uint256",
          "name": "",
          "type": "uint256"
        }
      ],
      "stateMutability": "view",
      "type": "function"
    }
  ],
  "bytecode": "0x60a080604052346100da57306080525f549060ff8260081c16610088575060ff8082160361004e575b60405161557890816100df8239608051818181612780015281816128640152612c180152f35b60ff90811916175f557f7f26b83ff96e1f2b6a682f133852f6798a09c465da95921460cefb3847402498602060405160ff8152a15f610028565b62461bcd60e51b815260206004820152602760248201527f496e697469616c697a61626c653a20636f6e747261637420697320696e697469604482015266616c697a696e6760c81b6064820152608490fd5b5f80fdfe60806040526004361015610011575f80fd5b5f5f3560e01c8063012386f014613c69578063016fc10e14613be757806301ffc9a714613b2b57806306fdde0314613a74578063081812fc14613a56578063095ea7b3146138d0578063141ed343146138b2578063155482321461389757806323b872dd146138715780632406e677146137e55780632483320d146137ac578063248a9ca3146137865780632a55205a1461375f5780632d296bf114612fac5780632f2ff15d14612f0a57806335df17b414612ed057806336568abe14612e3d5780633659cfe614612bf95780633c03903914612bcf5780633f4ba83a14612b3857806342842e0e14612b035780634954101514612a6e5780634f1ef2861461282b57806352d1902d1461276d57806352de4ee5146126e857806354398d181461253d57806356129b0a146124ef5780635c975abb146124cb578063602dcf291461233f5780636352211e1461230e578063638ac8d3146122c35780636be9a6f1146121b057806370a082311461211a57806375b238fc146120f257806377ea168e146120885780637af338a51461205e5780637de7ff081461197457806381257bd514611777578063821025481461173d57806382367b2d146116b85780638456cb591461165b5780638cf531021461160d57806391d14854146115c257806393338065146115a357806395d89b41146114e75780639a01126c14611499578063a217fddf1461147d578063a22cb465146113b1578063aa7e568314611102578063ad3a358c1461105a578063b7f3a58914610f79578063b88d4fde14610f00578063bd45b7fc14610ec6578063c4d66de814610910578063c87b56dd146108f0578063cb8c8a15146108c5578063d45557cc146106b4578063d489be2614610642578063d547741f14610608578063d7e2997b146105de578063d9edf576146105a7578063df6a53271461056d578063dfb0886b1461054e578063e138818c14610524578063e5a818f8146104f9578063e985e9c5146104a1578063ec17f30414610467578063f291f5dd14610376578063f72c0d8b1461034e5763fcce48831461031c575f80fd5b3461034b57602036600319011261034b5760ff6040602092600435815261022984522054166040519015158152f35b80fd5b503461034b578060031936011261034b5760206040515f5160206154035f395f51905f528152f35b503461034b57602036600319011261034b5760043561039c61039782614b6e565b6145c2565b815261022e6020526040812080546103b38161403d565b906103c16040519283613eb0565b80825260208201809385526020852085915b83831061044957868587604051928392602084019060208552518091526040840192915b818110610405575050500390f35b919350916020608060019260608751858060a01b038151168352848101518584015260ff6040820151166040840152015160608201520194019101918493926103f7565b600460206001926104598561468b565b8152019201920191906103d3565b503461034b57602036600319011261034b576020906040906001600160a01b0361048f613d36565b16815261024083522054604051908152f35b503461034b57604036600319011261034b5760406104bd613d36565b916104c6613d4c565b9260018060a01b03168152609c602052209060018060a01b03165f52602052602060ff60405f2054166040519015158152f35b503461034b57602036600319011261034b576040602091600435815261022a83522054604051908152f35b503461034b578060031936011261034b57610233546040516001600160a01b039091168152602090f35b503461034b578060031936011261034b57602061023854604051908152f35b503461034b57602036600319011261034b576020906040906001600160a01b03610595613d36565b16815261023b83522054604051908152f35b503461034b57602036600319011261034b5760406020916004356105cd61039782614b6e565b815261022c83522054604051908152f35b503461034b578060031936011261034b57610236546040516001600160a01b039091168152602090f35b503461034b57604036600319011261034b5761063f600435610628613d4c565b9061063a6106358261419b565b614aab565b614aeb565b80f35b503461034b5761065136613de2565b90825261022d602052604082209081548110156106b05761067191614028565b91909161069c5761069861068483613ed3565b604051918291602083526020830190613d83565b0390f35b634e487b7160e01b81526004819052602490fd5b8280fd5b503461034b576106c336613de2565b906106cc6148f5565b80835261022e6020526106e46040842054831061451d565b80835261022e6020526107036106fd8360408620613fe2565b5061468b565b80516001600160a01b0316330361089257602001519181845261022e6020526040842082855261022e6020526040852054905f19820191821161087e576107619161074d91613fe2565b509183865261022e60205260408620613fe2565b9190916108045780820361082c575b5050825261022e6020526040822080548015610818575f1901906107948282613fe2565b610804578493849384938460038582809755826001820155826002820155015555335af16107c061434f565b50156107cf57600161015f5580f35b60405162461bcd60e51b815260206004820152600d60248201526c1499599d5b990819985a5b1959609a1b6044820152606490fd5b634e487b7160e01b85526004859052602485fd5b634e487b7160e01b84526031600452602484fd5b805482546001600160a01b0319166001600160a01b039190911617825560018082015490830155600280820154908301805460ff191660ff929092169190911790556003908101549101555f80610770565b634e487b7160e01b86526011600452602486fd5b60405162461bcd60e51b815260206004820152600b60248201526a2737ba1037b33332b937b960a91b6044820152606490fd5b503461034b57602036600319011261034b576040602091600435815261022c83522054604051908152f35b503461034b57602036600319011261034b57610698610684600435614c5d565b503461034b57602036600319011261034b5761092a613d36565b815460ff8160081c161590818092610eb9575b8015610ea2575b15610e465760ff198116600117845581610e35575b5060409182516109698482613eb0565b600c81526b11d85b595a599a595913919560a21b602082015283519061098f8583613eb0565b600482526311d3919560e21b60208301526109b960ff875460081c166109b481614bfd565b614bfd565b8051906001600160401b038211610e21576109d5609754613e13565b601f8111610dd1575b50602090601f8311600114610d6d57610a019291889183610c9a575b5050614652565b6097555b8051906001600160401b038211610d5957610a21609854613e13565b601f8111610d09575b50602090601f8311600114610ca557610a4c9291879183610c9a575050614652565b6098555b610ab160ff855460081c16610a6481614bfd565b610a6d81614bfd565b610a7681614bfd565b610a7f81614bfd565b610a8881614bfd565b600161015f55610a9781614bfd565b610aa081614bfd565b60ff19610191541661019155614bfd565b6001600160a01b03811615610c93575b61023380546001600160a01b0319166001600160a01b039290921691909117905582805261012d6020908152828420335f90815291528290205460ff1615610c56575b5f5160206154a35f395f51905f52835261012d6020908152828420335f90815291528290205460ff1615610bfb575b5f5160206154035f395f51905f52835261012d6020908152828420335f90815291528290205460ff1615610ba0575b610b6a575080f35b60207f7f26b83ff96e1f2b6a682f133852f6798a09c465da95921460cefb38474024989161ff001984541684555160018152a180f35b5f5160206154035f395f51905f52835261012d60205281832060018060a01b0333165f52602052815f20600160ff1982541617905533335f5160206154035f395f51905f525f5160206153835f395f51905f528680a4610b62565b5f5160206154a35f395f51905f52835261012d60205281832060018060a01b0333165f52602052815f20600160ff1982541617905533335f5160206154a35f395f51905f525f5160206153835f395f51905f528680a4610b33565b82805261012d6020908152828420335f81815291909252839020805460ff1916600117905580845f5160206153835f395f51905f528180a4610b04565b5033610ac1565b015190505f806109fa565b609887528187209190601f198416885b818110610cf15750908460019594939210610cd9575b505050811b01609855610a50565b01515f1960f88460031b161c191690555f8080610ccb565b92936020600181928786015181550195019301610cb5565b609887525f5160206155235f395f51905f52601f840160051c81019160208510610d4f575b601f0160051c01905b818110610d445750610a2a565b878155600101610d37565b9091508190610d2e565b634e487b7160e01b86526041600452602486fd5b609788528188209190601f198416895b818110610db95750908460019594939210610da1575b505050811b01609755610a05565b01515f1960f88460031b161c191690555f8080610d93565b92936020600181928786015181550195019301610d7d565b609788525f5160206153c35f395f51905f52601f840160051c81019160208510610e17575b601f0160051c01905b818110610e0c57506109de565b888155600101610dff565b9091508190610df6565b634e487b7160e01b87526041600452602487fd5b61ffff19166101011783555f610959565b60405162461bcd60e51b815260206004820152602e60248201527f496e697469616c697a61626c653a20636f6e747261637420697320616c72656160448201526d191e481a5b9a5d1a585b1a5e995960921b6064820152608490fd5b50303b1580156109445750600160ff821614610944565b50600160ff82161061093d565b503461034b57602036600319011261034b576020906040906001600160a01b03610eee613d36565b16815261023e83522054604051908152f35b503461034b57608036600319011261034b57610f1a613d36565b610f22613d4c565b90606435906044356001600160401b038311610f755761063f93610f4d610f70943690600401613fc4565b92610f60610f5b84336146c9565b6140c5565b610f6b83838361473e565b6150ad565b614bdd565b8480fd5b503461034b57602036600319011261034b57600435610f9a61039782614b6e565b815261022d602052604081208054610fb18161403d565b90610fbf6040519283613eb0565b80825260208201809385526020852085915b83831061103d57868587604051928392602084019060208552518091526040840160408260051b8601019392905b82821061100e57505050500390f35b9193600191939550602061102d8192603f198a82030186528851613d83565b9601920192018594939192610fff565b60016020819261104c85613ed3565b815201920192019190610fd1565b503461034b57602036600319011261034b576004356110776148b0565b611093611083826145a0565b6001600160a01b03163314614127565b8082526102296020526110ac60ff604084205416614248565b8082526102296020526040822060ff19815416905580825261022a6020528160408120556110d981614dae565b50337f24287c09523dfd960e13a9774c247fb28a2ccb301eb4208b0d4072bcd0f1826e8380a380f35b503461034b57604036600319011261034b576004356024356001600160401b0381116106b057611136903690600401613ffb565b61113e6148b0565b61114f61114a84614b6e565b6144a6565b801515806113a5575b1561136f5782845261022d6020526103e8604085205410156113365782845261022d60205260408420805490600160401b821015610d5957906111a091600182018155614028565b610804576001600160401b038211611322576111c6826111c08354613e13565b83614603565b8482601f81116001146112c057806111e59288916112b5575b50614652565b90555b6102355484906001600160a01b031680611238575b50506112327f6ef560d19dd02f57976e8453b811685a89edf49009d64ab71b19489923ef5f0991604051918291339583614664565b0390a380f35b803b156112b15781809160a46040518094819363d0654f3560e01b83523360048401526002602484015260606044840152600760648401526610d3d35351539560ca1b60848401525af180156112a657156111fd578161129791613eb0565b6112a257835f6111fd565b8380fd5b6040513d84823e3d90fd5b5080fd5b90508501355f6111df565b50818652602086209083601f198116885b8181106113075750106112ee575b5050600182811b0190556111e8565b8401355f19600385901b60f8161c191690555f806112df565b878401358555600190940193602093840193879350016112d1565b634e487b7160e01b85526041600452602485fd5b60405162461bcd60e51b8152602060048201526011602482015270546f6f206d616e7920636f6d6d656e747360781b6044820152606490fd5b60405162461bcd60e51b815260206004820152600e60248201526d092dcecc2d8d2c840d8cadccee8d60931b6044820152606490fd5b50610118811115611158565b503461034b57604036600319011261034b576113cb613d36565b602435908115158092036106b0576001600160a01b03169033821461143c57338352609c60205260408320825f5260205260405f2060ff1981541660ff83161790556040519081527f17307eab39ab6107e8899845ad3d59bd9653f200f220920489ca2b5937696c3160203392a380f35b60405162461bcd60e51b815260206004820152601960248201527822a9219b99189d1030b8383937bb32903a379031b0b63632b960391b6044820152606490fd5b503461034b578060031936011261034b57602090604051908152f35b503461034b57602036600319011261034b576114b3613d36565b6114bb614a4c565b6001600160a01b03166114cf8115156144df565b61023680546001600160a01b03191691909117905580f35b503461034b578060031936011261034b5760405190806098549061150a82613e13565b808552916001811690811561157c5750600114611532575b6106988461068481860382613eb0565b609881525f5160206155235f395f51905f52939250905b8082106115625750909150810160200161068482611522565b919260018160209254838588010152019101909291611549565b60ff191660208087019190915292151560051b850190920192506106849150839050611522565b503461034b578060031936011261034b57602061023954604051908152f35b503461034b57604036600319011261034b5760406115de613d4c565b91600435815261012d602052209060018060a01b03165f52602052602060ff60405f2054166040519015158152f35b503461034b57602036600319011261034b57611627613d36565b61162f614a4c565b6001600160a01b03166116438115156144df565b61023480546001600160a01b03191691909117905580f35b503461034b578060031936011261034b57611674614a4c565b61167c6148b0565b600160ff19610191541617610191557f62e78cea01bee320cd4e420270b5ea74000d11b0c9f74754ebdbfc544b05a2586020604051338152a180f35b503461034b576116c736613de2565b6116cf6148b0565b6116db611083836145a0565b8183526102296020526116f460ff604085205416614248565b6116ff81151561415f565b81835261022a6020528060408420556040519081527fb556fac599c3c70efb9ab1fa725ecace6c81cc48d1455f886607def065f3e0c060203392a380f35b503461034b57602036600319011261034b576020906040906001600160a01b03611765613d36565b16815261023d83522054604051908152f35b503461034b576106fd6117cd61178c36613de2565b6117979391936148f5565b6117a3611083856145a0565b83855261022e6020526117bb6040862054821061451d565b83855261022e60205260408520613fe2565b60608101516201518060ff604084015116029062ffffff821691820361192b57906117f79161429c565b421161193f57602060018060a01b0382511691015161181783833361473e565b600581028181046005148215171561192b57606490046118ac8580808061183e8688614281565b8982526102296020526040822060ff19815416905589825261022a60205281604081205589825261022e602052611877604083206142f9565b61189b828080808b60018060a01b0361023354165af161189561434f565b5061437e565b335af16118a661434f565b506143c5565b825f5160206154435f395f51905f52608060018060a01b0361023354169360405190815260406020820152600e60408201526d13d191915497d050d0d15415115160921b6060820152a36040519081527fa6da490df6e8f0e592e795b4d96c5810d8ddfda51c21577adbdd8e1a0fa47a6760203392a4600161015f5580f35b634e487b7160e01b85526011600452602485fd5b60405162461bcd60e51b815260206004820152600d60248201526c13d999995c88195e1c1a5c9959609a1b6044820152606490fd5b503461034b57606036600319011261034b576004356001600160401b0381116112b1576119a5903690600401613ffb565b906024356001600160401b0381116112a2576119c5903690600401613ffb565b90929091906044356001600160601b038116810361205a576119e56148b0565b6127106001600160601b038216116120235761022754936001850161022755602095604051611a148882613eb0565b8881523315611fe057611a2f611a2988614b6e565b1561529e565b885b60018110611fb75750610f70611a9591611a4d611a298a614b6e565b33808c52609a8b526040808d20805460010190558a8d5260998c528c2080546001600160a01b0319168217905589908c5f5160206154835f395f51905f528180a48833614fbd565b611aa0368587613f8e565b611aa987614b6e565b15611f5b5786895260c9885260408920815190916001600160401b038211611f4757611adf82611ad98554613e13565b85614603565b8990601f8311600114611ee557611aff92918c9183610c9a575050614652565b90555b7ff8e1a15aba9398e019f0b49df1a4fde98ee17ae345cb5f6b5e2c27f5033e8ce787604051888152a160405192611b3884613e7a565b338452611b46368688613f8e565b93888101948552611b58368585613f8e565b6040828101919091524260608301526001600160601b0383166080830152888b526102288a528a20815181546001600160a01b0319166001600160a01b0391909116178155945180516001600160401b038111611e6457611bc981611bc060018a0154613e13565b60018a01614603565b8a918c601f8311600114611e7857611be993909183610c9a575050614652565b60018601555b60408101518051906001600160401b038211611e645791818c8b979694611c288e9795611c1f60028d0154613e13565b60028d01614603565b8691601f8411600114611dee579280611cb89b93611c4f9360049692610c9a575050614652565b60028201555b60608301516003820155608090920151910180546001600160601b0319166001600160601b039283161790558116611d9e575b50338a526102308252611c9e8460408c20614d5a565b50826040519384928337810161023f815203019020614d5a565b5033855261023084526001604086205414611d8a575b610235546001600160a01b031680611d22575b50907f1e1b69b56bd875547ce642e5ca9d38001b825863ffbf9cf08c72e0ff64b00a8d611d178493604051918291339583614664565b0390a3604051908152f35b8086913b156112b157819060246040518099819363199df06360e31b83523360048401525af1958615611d7d57849596611d60575b50859450611ce1565b818093949550611d6f91613eb0565b61034b579081849392611d57565b50604051903d90823e3d90fd5b338552610240845260016040862055611cce565b60405190611dab82613e95565b3382526001600160601b0316838201908152858c526066845260408c209151905160a01b6001600160a01b0319166001600160a01b03919091161790555f611c88565b9060028b94939b018252878220915b601f1984168110611e49575091600191611cb89b6004959483601f19811610611e31575b505050811b016002820155611c55565b01515f1960f88460031b161c191690555f8080611e21565b818c015183559a88019a8e9a508f9860019093019201611dfd565b634e487b7160e01b8c52604160045260248cfd5b5091600188018d528b8d20908d935b8d601f1985168610611ecc57506001945083601f19811610611eb4575b505050811b016001860155611bef565b01515f1960f88460031b161c191690555f8080611ea4565b8282015184559485019460019093019290910190611e87565b838c528a8c209190601f1984168d5b8d828210611f31575050908460019594939210611f19575b505050811b019055611b02565b01515f1960f88460031b161c191690555f8080611f0c565b6001859682939686015181550195019301611ef4565b634e487b7160e01b8b52604160045260248bfd5b60405162461bcd60e51b815260048101899052602e60248201527f45524337323155524953746f726167653a2055524920736574206f66206e6f6e60448201526d32bc34b9ba32b73a103a37b5b2b760911b6064820152608490fd5b600190338b5261022f8a52611fd960408c20611fd3838c61429c565b90614d5a565b5001611a31565b6064886040519062461bcd60e51b825280600483015260248201527f4552433732313a206d696e7420746f20746865207a65726f20616464726573736044820152fd5b60405162461bcd60e51b815260206004820152600f60248201526e496e76616c696420726f79616c747960881b6044820152606490fd5b8580fd5b503461034b578060031936011261034b57610235546040516001600160a01b039091168152602090f35b503461034b5761209736613de2565b9190815261022e6020526040812090815483101561034b5760806120bb8484613fe2565b5060018060a01b0381541690600181015490600360ff60028301541691015491604051938452602084015260408301526060820152f35b503461034b578060031936011261034b5760206040515f5160206154a35f395f51905f528152f35b503461034b57602036600319011261034b576001600160a01b0361213c613d36565b168015612159578160409160209352609a83522054604051908152f35b60405162461bcd60e51b815260206004820152602960248201527f4552433732313a2061646472657373207a65726f206973206e6f7420612076616044820152683634b21037bbb732b960b91b6064820152608490fd5b503461034b57602036600319011261034b5760409060043581608084516121d681613e7a565b8281526060602082015260608682015282606082015201526121fa61039782614b6e565b81526102286020522060405161220f81613e7a565b81546001600160a01b0316815261222860018301613ed3565b916020820192835261223c60028201613ed3565b604083019081526122a960038301549260608501938452600460018060601b039101541691608085019283526122966040519687966020885260018060a01b0390511660208801525160a0604088015260c0870190613d83565b9051858203601f19016060870152613d83565b91516080840152516001600160601b031660a08301520390f35b503461034b57604036600319011261034b5760406122df613d4c565b91600435815261022b602052209060018060a01b03165f52602052602060ff60405f2054166040519015158152f35b503461034b57602036600319011261034b57602061232d6004356145a0565b6040516001600160a01b039091168152f35b50604036600319011261034b5760043560243560ff81168091036106b0576123656148b0565b81835261022960205261237e60ff604085205416614248565b61238934151561451d565b801515806124c0575b1561248a5781835261022e60205260408320604051916123b183613e4b565b33835260208301348152604084019182526060840192428452805490600160401b82101561247657906123e991600182018155613fe2565b949094612462575184546001600160a01b0319166001600160a01b03919091161784555160018401555160028301805460ff191660ff92909216919091179055516003919091015560405134815233907f7beddbbf70d8b2a25af77e15d4a173af5f34673a1e7302c7af208aac599dc6db90602090a380f35b634e487b7160e01b87526004879052602487fd5b634e487b7160e01b88526041600452602488fd5b60405162461bcd60e51b815260206004820152600e60248201526d496e76616c69642065787069727960901b6044820152606490fd5b50601e811115612392565b503461034b578060031936011261034b57602060ff61019154166040519015158152f35b503461034b57602036600319011261034b57612509613d36565b612511614a4c565b6001600160a01b03166125258115156144df565b61023580546001600160a01b03191691909117905580f35b503461034b57602036600319011261034b5760043561255a6148b0565b61256661114a82614b6e565b80825261022b60209081526040808420335f908152925290205460ff16156126295780825261022b60209081526040808420335f908152908352819020805460ff1916905582845261022c909152822054612610575b80825261022b6020526040822060018060a01b0333165f5260205260ff60405f20541660405190151581527f4d5c3df35a8d7d04f2e10db1454548af37ee7449c97a4b4c243681f29c2ea40760203392a380f35b80825261022c6020526040822080545f190190556125bc565b80825261022b6020526040822060018060a01b0333165f5260205260405f20600160ff1982541617905580825261022c60205260408220600181540190558160018060a01b03610235541680612681575b50506125bc565b803b156112b15781809160a46040518094819363d0654f3560e01b8352336004840152600160248401526060604484015260046064840152634c494b4560e01b60848401525af180156112a6571561267a57816126dd91613eb0565b6112b157815f61267a565b503461034b57602036600319011261034b576001600160a01b0361270a613d36565b169081815261022f60205260408120549061272482614054565b92815b83811061273c57604051806106988782613cfd565b60019082845261022f6020526127558160408620614028565b90549060031b1c6127668288614086565b5201612727565b503461034b578060031936011261034b577f00000000000000000000000000000000000000000000000000000000000000006001600160a01b031630036127c55760206040515f5160206154235f395f51905f528152f35b60405162461bcd60e51b815260206004820152603860248201527f555550535570677261646561626c653a206d757374206e6f742062652063616c6044820152771b1959081d1a1c9bdd59da0819195b1959d85d1958d85b1b60421b6064820152608490fd5b50604036600319011261034b57612840613d36565b6024356001600160401b0381116106b05761285f903690600401613fc4565b6128b67f00000000000000000000000000000000000000000000000000000000000000006001600160a01b03166128983082141561440a565b5f5160206154235f395f51905f52546001600160a01b031614614458565b6128be61494d565b5f5160206153a35f395f51905f525460ff16156128df575061063f90614f2d565b6040516352d1902d60e01b81526001600160a01b03831690602081600481855afa859181612a3a575b506129565760405162461bcd60e51b815260206004820152602e60248201525f5160206155035f395f51905f5260448201526d6f6e206973206e6f74205555505360901b6064820152608490fd5b5f5160206154235f395f51905f52036129f65761297283614f2d565b5f5160206154635f395f51905f528480a28051158015906129ee575b61299757505080f35b6129ea918380604051936129ac606086613eb0565b602785525f5160206154e35f395f51905f526020860152660819985a5b195960ca1b6040860152602081519101845af46129e461434f565b916152e9565b5080f35b50600161298e565b60405162461bcd60e51b815260206004820152602960248201525f5160206154c35f395f51905f526044820152681a58589b195555525160ba1b6064820152608490fd5b9091506020813d602011612a66575b81612a5660209383613eb0565b8101031261205a5751905f612908565b3d9150612a49565b503461034b57602036600319011261034b5760043581526102286020526040902080546001600160a01b0316612aa660018301613ed3565b91612ab360028201613ed3565b612af4600383015492600460018060601b039101541691612ae6604051968796875260a0602088015260a0870190613d83565b908582036040870152613d83565b91606084015260808301520390f35b503461034b5761063f610f70612b1836613da8565b9060405192612b28602085613eb0565b868452610f60610f5b84336146c9565b503461034b578060031936011261034b57612b51614a4c565b6101915460ff811615612b935760ff1916610191557f5db9ee0a495bf2e6ff9c91a7834c1ba4fdd244a5e8aa4e537bd38aeae4b073aa6020604051338152a180f35b60405162461bcd60e51b815260206004820152601460248201527314185d5cd8589b194e881b9bdd081c185d5cd95960621b6044820152606490fd5b503461034b578060031936011261034b57610234546040516001600160a01b039091168152602090f35b503461034b57602036600319011261034b57612c13613d36565b612c4c7f00000000000000000000000000000000000000000000000000000000000000006001600160a01b03166128983082141561440a565b612c5461494d565b602090604051612c648382613eb0565b83815282810190601f1984013683375f5160206153a35f395f51905f525460ff1615612c9657505061063f9150614f2d565b6040516352d1902d60e01b81529192916001600160a01b038316908581600481855afa879181612e0a575b50612d0f5760405162461bcd60e51b815260048101879052602e60248201525f5160206155035f395f51905f5260448201526d6f6e206973206e6f74205555505360901b6064820152608490fd5b9394937fc9f76b5ec45e5cdef99837d7b6d2467235c1df8933c8ca56df5c35afa2c7d44401612dc657908591612d4484614f2d565b5f5160206154635f395f51905f528380a2805115801590612dbf575b612d6d575b505050505080f35b612db49482915f5160206154e35f395f51905f5260405196612d90606089613eb0565b60278852870152660819985a5b195960ca1b60408701525190845af46129e461434f565b505f80808381612d65565b5081612d60565b60405162461bcd60e51b815260048101859052602960248201525f5160206154c35f395f51905f526044820152681a58589b195555525160ba1b6064820152608490fd5b9091508681813d8311612e36575b612e228183613eb0565b81010312612e325751905f612cc1565b8780fd5b503d612e18565b503461034b57604036600319011261034b57612e57613d4c565b336001600160a01b03821603612e735761063f90600435614aeb565b60405162461bcd60e51b815260206004820152602f60248201527f416363657373436f6e74726f6c3a2063616e206f6e6c792072656e6f756e636560448201526e103937b632b9903337b91039b2b63360891b6064820152608490fd5b503461034b57602036600319011261034b576020906040906001600160a01b03612ef8613d36565b16815261023a83522054604051908152f35b503461034b57604036600319011261034b57600435612f27613d4c565b90612f346106358261419b565b80835261012d6020526040832060018060a01b0383165f5260205260ff60405f20541615612f60578280f35b80835261012d602090815260408085206001600160a01b03949094165f81815294909252909220805460ff191660011790553391905f5160206153835f395f51905f528480a45f808280f35b5060203660031901126136c057600435612fc46148b0565b612fcc6148f5565b805f52610229602052612fe560ff60405f205416614248565b805f5261022a60205260405f2054341061372357613002816145a0565b815f5261022a60205260405f20549061301c83338361473e565b600582028281046005148315171561370f576064900461303c8184614281565b916130496102375461428e565b6102375561305a846102385461429c565b6102385560018060a01b031691825f5261023a60205260405f2061307f85825461429c565b9055335f5261023b60205260405f2061309985825461429c565b9055825f5261023d60205260405f206130b2815461428e565b9055335f5261023e60205260405f206130cb815461428e565b90556130d784866141ae565b90811515806136fd575b6136c4575b5050610235546001600160a01b031680613615575b506102365486906001600160a01b0316801515806135aa575b613209575b5080808061318d948982526102296020526040822060ff19815416905589825261022a60205281604081205561314e8a614dae565b5089825261022e602052613164604083206142f9565b613182828080808b60018060a01b0361023354165af161189561434f565b875af16118a661434f565b60018060a01b0361023354169060405190815260406020820152600a604082015269544f4b454e5f53414c4560b01b60608201525f5160206154435f395f51905f5260803392a36040519182527fa8a7473f10e62cf9687e243de1c3ac8b3cbc3dd04b96826beb3a65b59538581460203393a4600161015f5580f35b604051631b0a264d60e11b8152336004820152909150602081602481855afa90811561359f57889161355d575b50610234546001600160a01b03166127108982613451575b5061ffff915016908160050260058104830361343d5761271090049180600a0290600a82040361343d57906127108a9493920492803b15610f75578460405180926316bc091360e21b82528183816132aa8989600484016142b6565b03925af190811561341d578591613428575b5050610236546001600160a01b0316803b15610f7557846040518092636084503f60e11b82528183816132f38a3360048401613df8565b03925af190811561341d578591613408575b5050610235546001600160a01b03169182613323575b505050613119565b823b15610f755761334d9285928360405180968195829463d0654f3560e01b8452600484016142b6565b03925af19081156133fd5783916133e8575b5050610235546001600160a01b031690813b156106b057829160a48392604051948593849263d0654f3560e01b8452336004850152602484015260606044840152600e60648401526d524546455252414c5f424f4e555360901b60848401525af180156112a6576133d3575b80808061331b565b6133de828092613eb0565b61034b575f6133cb565b816133f291613eb0565b6112b157815f61335f565b6040513d85823e3d90fd5b8161341291613eb0565b6112a257835f613305565b6040513d87823e3d90fd5b8161343291613eb0565b6112a257835f6132bc565b634e487b7160e01b8a52601160045260248afd5b604051634d73ca5f60e11b81526001600160a01b038516600482015292839060249082905afa8a818c926134b6575b61ffff9450613492575b50508961324e565b806134ab575b6134a3575b8061348a565b90505f61349d565b508281161515613498565b9150503d808c853e6134c88185613eb0565b830192606081850312613559576134de816142a9565b60208201519161ffff83168303613555576040810151906001600160401b03821161355157019480601f8701121561355557855161351b81613f73565b916135296040519384613eb0565b818352602082890101116135515761ffff9660208061354a94019101613d62565b9091613480565b8e80fd5b8d80fd5b8b80fd5b90506020813d602011613597575b8161357860209383613eb0565b81010312612e3257516001600160a01b0381168103612e32575f613236565b3d915061356b565b6040513d8a823e3d90fd5b50604051631be0d12160e01b8152336004820152602081602481855afa9081156133fd5783916135db575b50613114565b90506020813d60201161360d575b816135f660209383613eb0565b810103126106b057613607906142a9565b5f6135d5565b3d91506135e9565b803b156136c0575f8091602460405180948193638efa571f60e01b83528960048401525af180156136b5576136a0575b506102355486906001600160a01b0316803b156112b157818091602460405180948193634fbf879360e01b83523360048401525af180156112a65761368b575b506130fb565b8161369591613eb0565b61205a57855f613685565b6136ad9196505f90613eb0565b5f945f613645565b6040513d5f823e3d90fd5b5f80fd5b6136d1826102395461429c565b6102395560018060a01b03165f5261023c6020526136f460405f2091825461429c565b90555f806130e6565b506001600160a01b03811615156130e1565b634e487b7160e01b5f52601160045260245ffd5b60405162461bcd60e51b8152602060048201526014602482015273125b9cdd59999a58da595b9d081c185e5b595b9d60621b6044820152606490fd5b346136c05761377661377036613de2565b906141ae565b9061069860405192839283613df8565b346136c05760203660031901126136c05760206137a460043561419b565b604051908152f35b346136c05760203660031901126136c0576001600160a01b036137cd613d36565b165f5261023c602052602060405f2054604051908152f35b346136c0576137f336613de2565b6137fb6148b0565b613807611083836145a0565b61381281151561415f565b815f5261022960205260405f20600160ff19825416179055815f5261022a6020528060405f205561384282614ce9565b506040519081527f5dc96537cbae524775a674b6a810d9a1ba04a9e279f172d156b352151394677a60203392a3005b346136c05761389561388236613da8565b91613890610f5b84336146c9565b61473e565b005b346136c0575f3660031901126136c057602060405160058152f35b346136c0575f3660031901126136c057602061023754604051908152f35b346136c05760403660031901126136c0576138e9613d36565b602435906001600160a01b036138fe836145a0565b6001600160a01b039092169116818114613a07578033149081156139e3575b5015613978575f828152609b6020526040902080546001600160a01b031916821790556001600160a01b03613951836145a0565b167f8c5be1e5ebec7d5bd14f71427d1e84f3dd0314c0f7b2291e5b200ac8c7c3b9255f80a4005b60405162461bcd60e51b815260206004820152603d60248201527f4552433732313a20617070726f76652063616c6c6572206973206e6f7420746f60448201527f6b656e206f776e6572206f7220617070726f76656420666f7220616c6c0000006064820152608490fd5b5f908152609c6020908152604080832033845290915290205460ff1690508361391d565b60405162461bcd60e51b815260206004820152602160248201527f4552433732313a20617070726f76616c20746f2063757272656e74206f776e656044820152603960f91b6064820152608490fd5b346136c05760203660031901126136c057602061232d60043561409a565b346136c0575f3660031901126136c0576040515f609754613a9481613e13565b8084529060018116908115613b075750600114613abc575b6106988361068481850382613eb0565b60975f9081525f5160206153c35f395f51905f52939250905b808210613aed57509091508101602001610684613aac565b919260018160209254838588010152019101909291613ad5565b60ff191660208086019190915291151560051b840190910191506106849050613aac565b346136c05760203660031901126136c05760043563ffffffff60e01b81168091036136c057602090637965db0b60e01b8114908115613b70575b506040519015158152f35b632483248360e11b811491508115613b8a575b5082613b65565b6380ac58cd60e01b811491508115613bd6575b8115613bab575b5082613b83565b63152a902d60e11b811491508115613bc5575b5082613ba4565b6301ffc9a760e01b14905082613bbe565b635b5e139f60e01b81149150613b9d565b346136c05760203660031901126136c0576001600160a01b03613c08613d36565b16805f5261023060205260405f2054613c2081614054565b915f5b828110613c3857604051806106988682613cfd565b600190825f52610230602052613c518160405f20614028565b90549060031b1c613c628287614086565b5201613c23565b346136c0575f3660031901126136c05761023154613c8681614054565b905f61023154905b828110613ca357604051806106988682613cfd565b81811015613ce9576102315f527fae55bd7d7ac199ab94a59019d11e8ea53916adefebcd74fd08d32115dd445d1081015460019190613ce28287614086565b5201613c8e565b634e487b7160e01b5f52603260045260245ffd5b60206040818301928281528451809452019201905f5b818110613d205750505090565b8251845260209384019390920191600101613d13565b600435906001600160a01b03821682036136c057565b602435906001600160a01b03821682036136c057565b5f5b838110613d735750505f910152565b8181015183820152602001613d64565b90602091613d9c81518092818552858086019101613d62565b601f01601f1916010190565b60609060031901126136c0576004356001600160a01b03811681036136c057906024356001600160a01b03811681036136c0579060443590565b60409060031901126136c0576004359060243590565b6001600160a01b039091168152602081019190915260400190565b90600182811c92168015613e41575b6020831014613e2d57565b634e487b7160e01b5f52602260045260245ffd5b91607f1691613e22565b608081019081106001600160401b03821117613e6657604052565b634e487b7160e01b5f52604160045260245ffd5b60a081019081106001600160401b03821117613e6657604052565b604081019081106001600160401b03821117613e6657604052565b601f909101601f19168101906001600160401b03821190821017613e6657604052565b9060405191825f825492613ee684613e13565b8084529360018116908115613f515750600114613f0d575b50613f0b92500383613eb0565b565b90505f9291925260205f20905f915b818310613f35575050906020613f0b928201015f613efe565b6020919350806001915483858901015201910190918492613f1c565b905060209250613f0b94915060ff191682840152151560051b8201015f613efe565b6001600160401b038111613e6657601f01601f191660200190565b929192613f9a82613f73565b91613fa86040519384613eb0565b8294818452818301116136c0578281602093845f960137010152565b9080601f830112156136c057816020613fdf93359101613f8e565b90565b8054821015613ce9575f5260205f209060021b01905f90565b9181601f840112156136c0578235916001600160401b0383116136c057602083818601950101116136c057565b8054821015613ce9575f5260205f2001905f90565b6001600160401b038111613e665760051b60200190565b9061405e8261403d565b61406b6040519182613eb0565b828152809261407c601f199161403d565b0190602036910137565b8051821015613ce95760209160051b010190565b6140ab6140a682614b6e565b614559565b5f908152609b60205260409020546001600160a01b031690565b156140cc57565b60405162461bcd60e51b815260206004820152602d60248201527f4552433732313a2063616c6c6572206973206e6f7420746f6b656e206f776e6560448201526c1c881bdc88185c1c1c9bdd9959609a1b6064820152608490fd5b1561412e57565b60405162461bcd60e51b81526020600482015260096024820152682737ba1037bbb732b960b91b6044820152606490fd5b1561416657565b60405162461bcd60e51b815260206004820152600d60248201526c496e76616c696420707269636560981b6044820152606490fd5b5f5261012d602052600160405f20015490565b9190915f52606660205260405f2091604051926141ca84613e95565b546001600160a01b03811680855260a09190911c60208501521561421d575b60208301516001600160601b0316818102918015908304909114171561370f5791516001600160a01b031691612710900490565b915060405161422b81613e95565b6065546001600160a01b038116825260a01c6020820152916141e9565b1561424f57565b60405162461bcd60e51b815260206004820152600a602482015269139bdd081b1a5cdd195960b21b6044820152606490fd5b9190820391821161370f57565b5f19811461370f5760010190565b9190820180921161370f57565b519081151582036136c057565b909160a092600180851b031682526020820152606060408201526015606082015274524546455252414c5f4e46545f505552434841534560581b60808201520190565b8054905f815581614308575050565b6001600160fe1b038216820361370f575f5260205f209060021b8101905b818110614331575050565b6004905f81555f60018201555f60028201555f600382015501614326565b3d15614379573d9061436082613f73565b9161436e6040519384613eb0565b82523d5f602084013e565b606090565b1561438557565b60405162461bcd60e51b8152602060048201526018602482015277151c99585cdd5c9e481d1c985b9cd9995c8819985a5b195960421b6044820152606490fd5b156143cc57565b60405162461bcd60e51b815260206004820152601660248201527514d95b1b195c881d1c985b9cd9995c8819985a5b195960521b6044820152606490fd5b1561441157565b60405162461bcd60e51b815260206004820152602c60248201525f5160206153e35f395f51905f5260448201526b19195b1959d85d1958d85b1b60a21b6064820152608490fd5b1561445f57565b60405162461bcd60e51b815260206004820152602c60248201525f5160206153e35f395f51905f5260448201526b6163746976652070726f787960a01b6064820152608490fd5b156144ad57565b60405162461bcd60e51b815260206004820152600a6024820152694e6f742065786973747360b01b6044820152606490fd5b156144e657565b60405162461bcd60e51b815260206004820152600f60248201526e496e76616c6964206164647265737360881b6044820152606490fd5b1561452457565b60405162461bcd60e51b815260206004820152600d60248201526c24b73b30b634b21037b33332b960991b6044820152606490fd5b1561456057565b60405162461bcd60e51b8152602060048201526018602482015277115490cdcc8c4e881a5b9d985b1a59081d1bdad95b88125160421b6044820152606490fd5b5f908152609960205260409020546001600160a01b0316613fdf811515614559565b156145c957565b60405162461bcd60e51b815260206004820152601260248201527113919508191bd95cc81b9bdd08195e1a5cdd60721b6044820152606490fd5b601f821161461057505050565b5f5260205f20906020601f840160051c83019310614648575b601f0160051c01905b81811061463d575050565b5f8155600101614632565b9091508190614629565b8160011b915f199060031b1c19161790565b90918060409360208452816020850152848401375f828201840152601f01601f1916010190565b9060405161469881613e4b565b82546001600160a01b0316815260018301546020820152600283015460ff1660408201526003909201546060830152565b906001600160a01b036146db826145a0565b6001600160a01b039093169216828114929190831561471b575b50821561470157505090565b9091506001600160a01b03906147169061409a565b161490565b9092505f52609c60205260405f20815f5260205260ff60405f205416915f6146f5565b6001600160a01b0390911690811561486b5761477061475c846145a0565b6001600160a01b0392831692168214614c8f565b80614831575b816147fd575b614798816001600160a01b03614791866145a0565b1614614c8f565b5f838152609b6020908152604080832080546001600160a01b0319908116909155848452609a835281842080545f1901905585845281842080546001019055868452609990925282208054909116841790555f5160206154835f395f51905f529080a4565b5f5b6001811061480d575061477c565b600190835f5261022f60205261482a60405f20611fd3838861429c565b50016147ff565b5f5b600181106148415750614776565b600190825f5261022f60205261486460405f2061485e838861429c565b90614e7c565b5001614833565b60405162461bcd60e51b815260206004820152601f60248201527f43616e6e6f74207472616e7366657220746f207a65726f2061646472657373006044820152606490fd5b60ff61019154166148bd57565b60405162461bcd60e51b815260206004820152601060248201526f14185d5cd8589b194e881c185d5cd95960821b6044820152606490fd5b600261015f541461490857600261015f55565b60405162461bcd60e51b815260206004820152601f60248201527f5265656e7472616e637947756172643a207265656e7472616e742063616c6c006044820152606490fd5b335f9081527fe8b47e42cab78272d650e16c902ae501350b5785a88ad6cc35425628c6398d9a602052604090205460ff161561498557565b614a4861499133615116565b614a2860116149ac5f5160206154035f395f51905f526151fc565b92603760405194859276020b1b1b2b9b9a1b7b73a3937b61d1030b1b1b7bab73a1604d1b60208501526149e88151809260208688019101613d62565b83017001034b99036b4b9b9b4b733903937b6329607d1b83820152614a17825180936020604885019101613d62565b01010301601f198101835282613eb0565b60405162461bcd60e51b8152602060048201529182916024830190613d83565b0390fd5b335f9081527f7ed425ae1d300634375f848c08e126f7f779b9d472950d746ef0d3e26602551d602052604090205460ff1615614a8457565b614a48614a9033615116565b614a2860116149ac5f5160206154a35f395f51905f526151fc565b5f81815261012d6020908152604080832033845290915290205460ff1615614ad05750565b614a4890614a2860116149ac614ae533615116565b936151fc565b805f5261012d60205260405f2060018060a01b0383165f5260205260ff60405f205416614b16575050565b5f81815261012d602090815260408083206001600160a01b0395909516808452949091528120805460ff19169055339291907ff6391f5c32d9c69d2a47ea670b442974b53935d1edc7fd64eb21e047a839171b9080a4565b5f908152609960205260409020546001600160a01b0316151590565b60809060208152603260208201527f4552433732313a207472616e7366657220746f206e6f6e20455243373231526560408201527131b2b4bb32b91034b6b83632b6b2b73a32b960711b60608201520190565b15614be457565b60405162461bcd60e51b815280614a4860048201614b8a565b15614c0457565b60405162461bcd60e51b815260206004820152602b60248201527f496e697469616c697a61626c653a20636f6e7472616374206973206e6f74206960448201526a6e697469616c697a696e6760a81b6064820152608490fd5b614c696140a682614b6e565b5f5260c9602052614c7c60405f20613ed3565b5f604051614c8b602082613eb0565b5290565b15614c9657565b60405162461bcd60e51b815260206004820152602560248201527f4552433732313a207472616e736665722066726f6d20696e636f72726563742060448201526437bbb732b960d91b6064820152608490fd5b805f5261023260205260405f2054155f14614d555761023154600160401b811015613e6657614d3c614d2682600185940161023155610231614028565b819391549060031b91821b915f19901b19161790565b905561023154905f5261023260205260405f2055600190565b505f90565b6001810190825f528160205260405f2054155f14614da7578054600160401b811015613e6657614d94614d26826001879401855584614028565b905554915f5260205260405f2055600190565b5050505f90565b5f81815261023260205260409020548015614e76575f19810181811161370f57610231545f1981019190821161370f57808203614e3b575b505050610231548015614e27575f1901614e0281610231614028565b8154905f199060031b1b19169055610231555f526102326020525f6040812055600190565b634e487b7160e01b5f52603160045260245ffd5b614e5f614e4d614d2693610231614028565b90549060031b1c928392610231614028565b90555f5261023260205260405f20555f8080614de6565b50505f90565b906001820191815f528260205260405f20548015155f14614f25575f19810181811161370f5782545f1981019190821161370f57808203614ef0575b50505080548015614e27575f190190614ed18282614028565b8154905f199060031b1b19169055555f526020525f6040812055600190565b614f10614f00614d269386614028565b90549060031b1c92839286614028565b90555f528360205260405f20555f8080614eb8565b505050505f90565b803b15614f62575f5160206154235f395f51905f5280546001600160a01b0319166001600160a01b0392909216919091179055565b60405162461bcd60e51b815260206004820152602d60248201527f455243313936373a206e657720696d706c656d656e746174696f6e206973206e60448201526c1bdd08184818dbdb9d1c9858dd609a1b6064820152608490fd5b91823b156150a557615002926020925f604051809681958294630a85bd0160e11b84523360048501528460248501526044840152608060648401526084830190613d83565b03926001600160a01b03165af15f9181615060575b5061504a5761502461434f565b805190816150455760405162461bcd60e51b815280614a4860048201614b8a565b602001fd5b6001600160e01b031916630a85bd0160e11b1490565b9091506020813d60201161509d575b8161507c60209383613eb0565b810103126136c057516001600160e01b0319811681036136c057905f615017565b3d915061506f565b505050600190565b919290803b156150fc57615002935f60209460405196879586948593630a85bd0160e11b855233600486015260018060a01b031660248501526044840152608060648401526084830190613d83565b50505050600190565b908151811015613ce9570160200190565b615120602a613f73565b9061512e6040519283613eb0565b602a825261513c602a613f73565b6020830190601f1901368237825115613ce95760309053815160011015613ce9576078602183015360295b600181116151bb57506151775790565b606460405162461bcd60e51b815260206004820152602060248201527f537472696e67733a20686578206c656e67746820696e73756666696369656e746044820152fd5b90600f81166010811015613ce9576f181899199a1a9b1b9c1cb0b131b232b360811b901a6151e98385615105565b5360041c90801561370f575f1901615167565b6152066042613f73565b906152146040519283613eb0565b604282526152226042613f73565b6020830190601f1901368237825115613ce95760309053815160011015613ce9576078602183015360415b6001811161525d57506151775790565b90600f81166010811015613ce9576f181899199a1a9b1b9c1cb0b131b232b360811b901a61528b8385615105565b5360041c90801561370f575f190161524d565b156152a557565b60405162461bcd60e51b815260206004820152601c60248201527b115490cdcc8c4e881d1bdad95b88185b1c9958591e481b5a5b9d195960221b6044820152606490fd5b9192901561534b57508151156152fd575090565b3b156153065790565b60405162461bcd60e51b815260206004820152601d60248201527f416464726573733a2063616c6c20746f206e6f6e2d636f6e74726163740000006044820152606490fd5b82519091501561535e5750805190602001fd5b60405162461bcd60e51b815260206004820152908190614a48906024830190613d8356fe2f8788117e7eff1d82e926ec794901d17c78024a50270940304540a733656f0d4910fdfa16fed3260ed0e7147f7cc6da11a60208b5b9406d12a635614ffd9143354a83ed9988f79f6038d4c7a7dadbad8af32f4ad6df893e0e5807a1b1944ff946756e6374696f6e206d7573742062652063616c6c6564207468726f75676820189ab7a9244df0848122154315af71fe140f3db0fe014031783b0946b8c9d2e3360894a13ba1a3210667c828492db98dca3e2076cc3735a920a3ca505d382bbc21ef4c3fb7c1ca86841fe7b11bbb71ad12bd4b7bb3205924ec33c681c9d47c3fbc7cd75a20ee27fd9adebab32041f755214dbc6bffa90cc0225b39da2e5c2d3bddf252ad1be2c89b69c2b068fc378daa952ba7f163c4a11628f55a4df523b3efa49807205ce4d355092ef5a8a18f56e8913cf4a201fbe287825b095693c2177545524331393637557067726164653a20756e737570706f727465642070726f78416464726573733a206c6f772d6c6576656c2064656c65676174652063616c6c45524331393637557067726164653a206e657720696d706c656d656e746174692237a976fa961f5921fd19f2b03c925c725d77b20ce8f790c19709c03de4d814a2646970667358221220fc8b4d8ef4d5c64ab0698b174d8e0cac95b324fd1b635694b761c939f0ea553164736f6c634300081c0033",
  "linkReferences": {},
  "deployedLinkReferences": {}
}