{
  "_format": "hh-sol-artifact-1",
  "contractName": "GameifiedMarketplaceSkillsV2",
  "sourceName": "contracts/Marketplace/GameifiedMarketplaceSkillsV2.sol",
  "abi": [
    {
      "inputs": [
        {
          "internalType": "address",
          "name": "_coreAddress",
          "type": "address"
        }
      ],
      "stateMutability": "nonpayable",
      "type": "constructor"
    },
    {
      "inputs": [],
      "name": "CoreContractNotSet",
      "type": "error"
    },
    {
      "inputs": [],
      "name": "DuplicateSkillType",
      "type": "error"
    },
    {
      "inputs": [
        {
          "internalType": "uint256",
          "name": "required",
          "type": "uint256"
        },
        {
          "internalType": "uint256",
          "name": "current",
          "type": "uint256"
        }
      ],
      "name": "InsufficientStakingBalance",
      "type": "error"
    },
    {
      "inputs": [],
      "name": "InvalidAddress",
      "type": "error"
    },
    {
      "inputs": [
        {
          "internalType": "uint256",
          "name": "expected",
          "type": "uint256"
        },
        {
          "internalType": "uint256",
          "name": "provided",
          "type": "uint256"
        }
      ],
      "name": "InvalidPrice",
      "type": "error"
    },
    {
      "inputs": [
        {
          "internalType": "uint8",
          "name": "rarity",
          "type": "uint8"
        }
      ],
      "name": "InvalidRarity",
      "type": "error"
    },
    {
      "inputs": [],
      "name": "InvalidSkillCount",
      "type": "error"
    },
    {
      "inputs": [],
      "name": "InvalidSkillType",
      "type": "error"
    },
    {
      "inputs": [],
      "name": "MaxActiveSkillsReached",
      "type": "error"
    },
    {
      "inputs": [],
      "name": "NotSkillOwner",
      "type": "error"
    },
    {
      "inputs": [],
      "name": "SkillNFTNotFound",
      "type": "error"
    },
    {
      "inputs": [
        {
          "internalType": "uint256",
          "name": "expiryTime",
          "type": "uint256"
        }
      ],
      "name": "SkillNotExpiredYet",
      "type": "error"
    },
    {
      "inputs": [
        {
          "internalType": "enum IStakingIntegration.SkillType",
          "name": "skillType",
          "type": "uint8"
        }
      ],
      "name": "SkillTypeAlreadyActiveDuplicate",
      "type": "error"
    },
    {
      "anonymous": false,
      "inputs": [
        {
          "indexed": true,
          "internalType": "address",
          "name": "admin",
          "type": "address"
        },
        {
          "indexed": false,
          "internalType": "uint256",
          "name": "amount",
          "type": "uint256"
        },
        {
          "indexed": true,
          "internalType": "address",
          "name": "to",
          "type": "address"
        }
      ],
      "name": "EmergencyWithdrawal",
      "type": "event"
    },
    {
      "anonymous": false,
      "inputs": [
        {
          "indexed": false,
          "internalType": "address",
          "name": "account",
          "type": "address"
        }
      ],
      "name": "Paused",
      "type": "event"
    },
    {
      "anonymous": false,
      "inputs": [
        {
          "indexed": true,
          "internalType": "bytes32",
          "name": "role",
          "type": "bytes32"
        },
        {
          "indexed": true,
          "internalType": "bytes32",
          "name": "previousAdminRole",
          "type": "bytes32"
        },
        {
          "indexed": true,
          "internalType": "bytes32",
          "name": "newAdminRole",
          "type": "bytes32"
        }
      ],
      "name": "RoleAdminChanged",
      "type": "event"
    },
    {
      "anonymous": false,
      "inputs": [
        {
          "indexed": true,
          "internalType": "bytes32",
          "name": "role",
          "type": "bytes32"
        },
        {
          "indexed": true,
          "internalType": "address",
          "name": "account",
          "type": "address"
        },
        {
          "indexed": true,
          "internalType": "address",
          "name": "sender",
          "type": "address"
        }
      ],
      "name": "RoleGranted",
      "type": "event"
    },
    {
      "anonymous": false,
      "inputs": [
        {
          "indexed": true,
          "internalType": "bytes32",
          "name": "role",
          "type": "bytes32"
        },
        {
          "indexed": true,
          "internalType": "address",
          "name": "account",
          "type": "address"
        },
        {
          "indexed": true,
          "internalType": "address",
          "name": "sender",
          "type": "address"
        }
      ],
      "name": "RoleRevoked",
      "type": "event"
    },
    {
      "anonymous": false,
      "inputs": [
        {
          "indexed": true,
          "internalType": "uint256",
          "name": "tokenId",
          "type": "uint256"
        },
        {
          "indexed": false,
          "internalType": "enum IStakingIntegration.SkillType",
          "name": "skillType",
          "type": "uint8"
        },
        {
          "indexed": false,
          "internalType": "enum IStakingIntegration.Rarity",
          "name": "rarity",
          "type": "uint8"
        }
      ],
      "name": "SkillAdded",
      "type": "event"
    },
    {
      "anonymous": false,
      "inputs": [
        {
          "indexed": true,
          "internalType": "address",
          "name": "user",
          "type": "address"
        },
        {
          "indexed": true,
          "internalType": "uint256",
          "name": "tokenId",
          "type": "uint256"
        },
        {
          "indexed": false,
          "internalType": "enum IStakingIntegration.SkillType",
          "name": "skillType",
          "type": "uint8"
        }
      ],
      "name": "SkillDeactivatedManually",
      "type": "event"
    },
    {
      "anonymous": false,
      "inputs": [
        {
          "indexed": true,
          "internalType": "address",
          "name": "user",
          "type": "address"
        },
        {
          "indexed": true,
          "internalType": "uint256",
          "name": "tokenId",
          "type": "uint256"
        },
        {
          "indexed": false,
          "internalType": "enum IStakingIntegration.SkillType",
          "name": "skillType",
          "type": "uint8"
        }
      ],
      "name": "SkillExpired",
      "type": "event"
    },
    {
      "anonymous": false,
      "inputs": [
        {
          "indexed": true,
          "internalType": "address",
          "name": "creator",
          "type": "address"
        },
        {
          "indexed": true,
          "internalType": "uint256",
          "name": "tokenId",
          "type": "uint256"
        },
        {
          "indexed": false,
          "internalType": "uint256",
          "name": "skillCount",
          "type": "uint256"
        },
        {
          "indexed": false,
          "internalType": "uint256",
          "name": "totalXP",
          "type": "uint256"
        }
      ],
      "name": "SkillNFTCreated",
      "type": "event"
    },
    {
      "anonymous": false,
      "inputs": [
        {
          "indexed": true,
          "internalType": "address",
          "name": "user",
          "type": "address"
        },
        {
          "indexed": true,
          "internalType": "uint256",
          "name": "tokenId",
          "type": "uint256"
        },
        {
          "indexed": false,
          "internalType": "uint256",
          "name": "amount",
          "type": "uint256"
        },
        {
          "indexed": false,
          "internalType": "string",
          "name": "operationType",
          "type": "string"
        }
      ],
      "name": "SkillPaymentProcessed",
      "type": "event"
    },
    {
      "anonymous": false,
      "inputs": [
        {
          "indexed": true,
          "internalType": "address",
          "name": "user",
          "type": "address"
        },
        {
          "indexed": true,
          "internalType": "uint256",
          "name": "tokenId",
          "type": "uint256"
        },
        {
          "indexed": false,
          "internalType": "uint256",
          "name": "newExpiryTime",
          "type": "uint256"
        }
      ],
      "name": "SkillRenewed",
      "type": "event"
    },
    {
      "anonymous": false,
      "inputs": [
        {
          "indexed": true,
          "internalType": "address",
          "name": "user",
          "type": "address"
        },
        {
          "indexed": true,
          "internalType": "uint256",
          "name": "oldTokenId",
          "type": "uint256"
        },
        {
          "indexed": true,
          "internalType": "uint256",
          "name": "newTokenId",
          "type": "uint256"
        },
        {
          "indexed": false,
          "internalType": "enum IStakingIntegration.SkillType",
          "name": "skillType",
          "type": "uint8"
        },
        {
          "indexed": false,
          "internalType": "uint256",
          "name": "switchFee",
          "type": "uint256"
        }
      ],
      "name": "SkillSwitched",
      "type": "event"
    },
    {
      "anonymous": false,
      "inputs": [
        {
          "indexed": true,
          "internalType": "address",
          "name": "user",
          "type": "address"
        },
        {
          "indexed": false,
          "internalType": "enum IStakingIntegration.SkillType",
          "name": "skillType",
          "type": "uint8"
        }
      ],
      "name": "SkillTypeAlreadyActive",
      "type": "event"
    },
    {
      "anonymous": false,
      "inputs": [
        {
          "indexed": true,
          "internalType": "address",
          "name": "oldStaking",
          "type": "address"
        },
        {
          "indexed": true,
          "internalType": "address",
          "name": "newStaking",
          "type": "address"
        }
      ],
      "name": "StakingContractUpdated",
      "type": "event"
    },
    {
      "anonymous": false,
      "inputs": [
        {
          "indexed": true,
          "internalType": "address",
          "name": "oldTreasury",
          "type": "address"
        },
        {
          "indexed": true,
          "internalType": "address",
          "name": "newTreasury",
          "type": "address"
        }
      ],
      "name": "TreasuryAddressUpdated",
      "type": "event"
    },
    {
      "anonymous": false,
      "inputs": [
        {
          "indexed": false,
          "internalType": "address",
          "name": "account",
          "type": "address"
        }
      ],
      "name": "Unpaused",
      "type": "event"
    },
    {
      "inputs": [],
      "name": "ADMIN_ROLE",
      "outputs": [
        {
          "internalType": "bytes32",
          "name": "",
          "type": "bytes32"
        }
      ],
      "stateMutability": "view",
      "type": "function"
    },
    {
      "inputs": [],
      "name": "DEFAULT_ADMIN_ROLE",
      "outputs": [
        {
          "internalType": "bytes32",
          "name": "",
          "type": "bytes32"
        }
      ],
      "stateMutability": "view",
      "type": "function"
    },
    {
      "inputs": [],
      "name": "coreContractAddress",
      "outputs": [
        {
          "internalType": "address",
          "name": "",
          "type": "address"
        }
      ],
      "stateMutability": "view",
      "type": "function"
    },
    {
      "inputs": [
        {
          "internalType": "uint256",
          "name": "_tokenId",
          "type": "uint256"
        }
      ],
      "name": "deactivateExpiredSkill",
      "outputs": [],
      "stateMutability": "nonpayable",
      "type": "function"
    },
    {
      "inputs": [
        {
          "internalType": "uint256",
          "name": "_tokenId",
          "type": "uint256"
        },
        {
          "internalType": "enum IStakingIntegration.SkillType",
          "name": "_skillType",
          "type": "uint8"
        }
      ],
      "name": "deactivateSkillManually",
      "outputs": [],
      "stateMutability": "nonpayable",
      "type": "function"
    },
    {
      "inputs": [
        {
          "internalType": "uint256",
          "name": "_amount",
          "type": "uint256"
        }
      ],
      "name": "emergencyWithdraw",
      "outputs": [],
      "stateMutability": "nonpayable",
      "type": "function"
    },
    {
      "inputs": [],
      "name": "emergencyWithdrawAll",
      "outputs": [],
      "stateMutability": "nonpayable",
      "type": "function"
    },
    {
      "inputs": [
        {
          "internalType": "address",
          "name": "_user",
          "type": "address"
        }
      ],
      "name": "getActiveSkillsForUser",
      "outputs": [
        {
          "internalType": "uint256[]",
          "name": "",
          "type": "uint256[]"
        }
      ],
      "stateMutability": "view",
      "type": "function"
    },
    {
      "inputs": [
        {
          "internalType": "bytes32",
          "name": "role",
          "type": "bytes32"
        }
      ],
      "name": "getRoleAdmin",
      "outputs": [
        {
          "internalType": "bytes32",
          "name": "",
          "type": "bytes32"
        }
      ],
      "stateMutability": "view",
      "type": "function"
    },
    {
      "inputs": [
        {
          "internalType": "uint256",
          "name": "_tokenId",
          "type": "uint256"
        }
      ],
      "name": "getSkillExpiryTime",
      "outputs": [
        {
          "internalType": "uint256",
          "name": "",
          "type": "uint256"
        }
      ],
      "stateMutability": "view",
      "type": "function"
    },
    {
      "inputs": [
        {
          "internalType": "uint256",
          "name": "_tokenId",
          "type": "uint256"
        }
      ],
      "name": "getSkillNFT",
      "outputs": [
        {
          "components": [
            {
              "internalType": "address",
              "name": "creator",
              "type": "address"
            },
            {
              "components": [
                {
                  "internalType": "enum IStakingIntegration.SkillType",
                  "name": "skillType",
                  "type": "uint8"
                },
                {
                  "internalType": "enum IStakingIntegration.Rarity",
                  "name": "rarity",
                  "type": "uint8"
                },
                {
                  "internalType": "uint256",
                  "name": "level",
                  "type": "uint256"
                },
                {
                  "internalType": "uint256",
                  "name": "createdAt",
                  "type": "uint256"
                },
                {
                  "internalType": "uint256",
                  "name": "expiresAt",
                  "type": "uint256"
                }
              ],
              "internalType": "struct GameifiedMarketplaceSkillsV2.Skill[]",
              "name": "skills",
              "type": "tuple[]"
            },
            {
              "internalType": "uint256",
              "name": "createdAt",
              "type": "uint256"
            },
            {
              "internalType": "uint256",
              "name": "basePrice",
              "type": "uint256"
            }
          ],
          "internalType": "struct GameifiedMarketplaceSkillsV2.SkillNFT",
          "name": "",
          "type": "tuple"
        }
      ],
      "stateMutability": "view",
      "type": "function"
    },
    {
      "inputs": [
        {
          "internalType": "uint256",
          "name": "_tokenId",
          "type": "uint256"
        }
      ],
      "name": "getSkillNFTSkills",
      "outputs": [
        {
          "components": [
            {
              "internalType": "enum IStakingIntegration.SkillType",
              "name": "skillType",
              "type": "uint8"
            },
            {
              "internalType": "enum IStakingIntegration.Rarity",
              "name": "rarity",
              "type": "uint8"
            },
            {
              "internalType": "uint256",
              "name": "level",
              "type": "uint256"
            },
            {
              "internalType": "uint256",
              "name": "createdAt",
              "type": "uint256"
            },
            {
              "internalType": "uint256",
              "name": "expiresAt",
              "type": "uint256"
            }
          ],
          "internalType": "struct GameifiedMarketplaceSkillsV2.Skill[]",
          "name": "",
          "type": "tuple[]"
        }
      ],
      "stateMutability": "view",
      "type": "function"
    },
    {
      "inputs": [
        {
          "internalType": "enum IStakingIntegration.SkillType",
          "name": "_skillType",
          "type": "uint8"
        },
        {
          "internalType": "enum IStakingIntegration.Rarity",
          "name": "_rarity",
          "type": "uint8"
        }
      ],
      "name": "getSkillPrice",
      "outputs": [
        {
          "internalType": "uint256",
          "name": "",
          "type": "uint256"
        }
      ],
      "stateMutability": "view",
      "type": "function"
    },
    {
      "inputs": [
        {
          "internalType": "enum IStakingIntegration.SkillType",
          "name": "_skillType",
          "type": "uint8"
        }
      ],
      "name": "getSkillPricesAllRarities",
      "outputs": [
        {
          "internalType": "uint256[5]",
          "name": "",
          "type": "uint256[5]"
        }
      ],
      "stateMutability": "view",
      "type": "function"
    },
    {
      "inputs": [
        {
          "internalType": "address",
          "name": "_user",
          "type": "address"
        },
        {
          "internalType": "enum IStakingIntegration.SkillType",
          "name": "_skillType",
          "type": "uint8"
        }
      ],
      "name": "getSkillSwitchInfo",
      "outputs": [
        {
          "internalType": "uint256",
          "name": "activeTokenId",
          "type": "uint256"
        },
        {
          "internalType": "uint256",
          "name": "expiresAt",
          "type": "uint256"
        },
        {
          "internalType": "bool",
          "name": "canSwitch",
          "type": "bool"
        }
      ],
      "stateMutability": "view",
      "type": "function"
    },
    {
      "inputs": [
        {
          "internalType": "enum IStakingIntegration.SkillType",
          "name": "_skillType",
          "type": "uint8"
        }
      ],
      "name": "getSkillTypeCount",
      "outputs": [
        {
          "internalType": "uint256",
          "name": "",
          "type": "uint256"
        }
      ],
      "stateMutability": "view",
      "type": "function"
    },
    {
      "inputs": [
        {
          "internalType": "address",
          "name": "_user",
          "type": "address"
        }
      ],
      "name": "getUserSkillNFTs",
      "outputs": [
        {
          "internalType": "uint256[]",
          "name": "",
          "type": "uint256[]"
        }
      ],
      "stateMutability": "view",
      "type": "function"
    },
    {
      "inputs": [
        {
          "internalType": "address",
          "name": "_user",
          "type": "address"
        },
        {
          "internalType": "enum IStakingIntegration.SkillType",
          "name": "_skillType",
          "type": "uint8"
        }
      ],
      "name": "getUserSkillsByType",
      "outputs": [
        {
          "internalType": "uint256[]",
          "name": "tokenIds",
          "type": "uint256[]"
        },
        {
          "internalType": "uint8[]",
          "name": "statuses",
          "type": "uint8[]"
        }
      ],
      "stateMutability": "view",
      "type": "function"
    },
    {
      "inputs": [
        {
          "internalType": "address",
          "name": "_user",
          "type": "address"
        }
      ],
      "name": "getUserTotalActiveSkills",
      "outputs": [
        {
          "internalType": "uint256",
          "name": "",
          "type": "uint256"
        }
      ],
      "stateMutability": "view",
      "type": "function"
    },
    {
      "inputs": [
        {
          "internalType": "bytes32",
          "name": "role",
          "type": "bytes32"
        },
        {
          "internalType": "address",
          "name": "account",
          "type": "address"
        }
      ],
      "name": "grantRole",
      "outputs": [],
      "stateMutability": "nonpayable",
      "type": "function"
    },
    {
      "inputs": [
        {
          "internalType": "bytes32",
          "name": "role",
          "type": "bytes32"
        },
        {
          "internalType": "address",
          "name": "account",
          "type": "address"
        }
      ],
      "name": "hasRole",
      "outputs": [
        {
          "internalType": "bool",
          "name": "",
          "type": "bool"
        }
      ],
      "stateMutability": "view",
      "type": "function"
    },
    {
      "inputs": [
        {
          "internalType": "uint256",
          "name": "",
          "type": "uint256"
        }
      ],
      "name": "isFirstSkillFree",
      "outputs": [
        {
          "internalType": "bool",
          "name": "",
          "type": "bool"
        }
      ],
      "stateMutability": "view",
      "type": "function"
    },
    {
      "inputs": [
        {
          "internalType": "uint256",
          "name": "_tokenId",
          "type": "uint256"
        }
      ],
      "name": "isSkillExpired",
      "outputs": [
        {
          "internalType": "bool",
          "name": "",
          "type": "bool"
        }
      ],
      "stateMutability": "view",
      "type": "function"
    },
    {
      "inputs": [],
      "name": "pause",
      "outputs": [],
      "stateMutability": "nonpayable",
      "type": "function"
    },
    {
      "inputs": [],
      "name": "paused",
      "outputs": [
        {
          "internalType": "bool",
          "name": "",
          "type": "bool"
        }
      ],
      "stateMutability": "view",
      "type": "function"
    },
    {
      "inputs": [
        {
          "internalType": "uint256",
          "name": "_tokenId",
          "type": "uint256"
        },
        {
          "internalType": "enum IStakingIntegration.SkillType[]",
          "name": "_skillTypes",
          "type": "uint8[]"
        },
        {
          "internalType": "enum IStakingIntegration.Rarity[]",
          "name": "_rarities",
          "type": "uint8[]"
        },
        {
          "internalType": "uint256[]",
          "name": "_levels",
          "type": "uint256[]"
        }
      ],
      "name": "registerSkillsForNFT",
      "outputs": [
        {
          "internalType": "uint256",
          "name": "",
          "type": "uint256"
        }
      ],
      "stateMutability": "payable",
      "type": "function"
    },
    {
      "inputs": [
        {
          "internalType": "uint256",
          "name": "_tokenId",
          "type": "uint256"
        }
      ],
      "name": "renewSkill",
      "outputs": [],
      "stateMutability": "payable",
      "type": "function"
    },
    {
      "inputs": [
        {
          "internalType": "bytes32",
          "name": "role",
          "type": "bytes32"
        },
        {
          "internalType": "address",
          "name": "account",
          "type": "address"
        }
      ],
      "name": "renounceRole",
      "outputs": [],
      "stateMutability": "nonpayable",
      "type": "function"
    },
    {
      "inputs": [
        {
          "internalType": "bytes32",
          "name": "role",
          "type": "bytes32"
        },
        {
          "internalType": "address",
          "name": "account",
          "type": "address"
        }
      ],
      "name": "revokeRole",
      "outputs": [],
      "stateMutability": "nonpayable",
      "type": "function"
    },
    {
      "inputs": [
        {
          "internalType": "address",
          "name": "_stakingAddress",
          "type": "address"
        }
      ],
      "name": "setStakingContract",
      "outputs": [],
      "stateMutability": "nonpayable",
      "type": "function"
    },
    {
      "inputs": [
        {
          "internalType": "address",
          "name": "_treasuryAddress",
          "type": "address"
        }
      ],
      "name": "setTreasuryAddress",
      "outputs": [],
      "stateMutability": "nonpayable",
      "type": "function"
    },
    {
      "inputs": [
        {
          "internalType": "uint256",
          "name": "",
          "type": "uint256"
        }
      ],
      "name": "skillNFTs",
      "outputs": [
        {
          "internalType": "address",
          "name": "creator",
          "type": "address"
        },
        {
          "internalType": "uint256",
          "name": "createdAt",
          "type": "uint256"
        },
        {
          "internalType": "uint256",
          "name": "basePrice",
          "type": "uint256"
        }
      ],
      "stateMutability": "view",
      "type": "function"
    },
    {
      "inputs": [
        {
          "internalType": "enum IStakingIntegration.SkillType",
          "name": "",
          "type": "uint8"
        },
        {
          "internalType": "enum IStakingIntegration.Rarity",
          "name": "",
          "type": "uint8"
        }
      ],
      "name": "skillPrices",
      "outputs": [
        {
          "internalType": "uint256",
          "name": "",
          "type": "uint256"
        }
      ],
      "stateMutability": "view",
      "type": "function"
    },
    {
      "inputs": [
        {
          "internalType": "enum IStakingIntegration.SkillType",
          "name": "",
          "type": "uint8"
        }
      ],
      "name": "skillTypeCount",
      "outputs": [
        {
          "internalType": "uint256",
          "name": "",
          "type": "uint256"
        }
      ],
      "stateMutability": "view",
      "type": "function"
    },
    {
      "inputs": [],
      "name": "stakingContractAddress",
      "outputs": [
        {
          "internalType": "address",
          "name": "",
          "type": "address"
        }
      ],
      "stateMutability": "view",
      "type": "function"
    },
    {
      "inputs": [
        {
          "internalType": "bytes4",
          "name": "interfaceId",
          "type": "bytes4"
        }
      ],
      "name": "supportsInterface",
      "outputs": [
        {
          "internalType": "bool",
          "name": "",
          "type": "bool"
        }
      ],
      "stateMutability": "view",
      "type": "function"
    },
    {
      "inputs": [
        {
          "internalType": "uint256",
          "name": "_oldTokenId",
          "type": "uint256"
        },
        {
          "internalType": "uint256",
          "name": "_newTokenId",
          "type": "uint256"
        },
        {
          "internalType": "enum IStakingIntegration.SkillType",
          "name": "_skillType",
          "type": "uint8"
        }
      ],
      "name": "switchSkill",
      "outputs": [],
      "stateMutability": "payable",
      "type": "function"
    },
    {
      "inputs": [],
      "name": "treasuryAddress",
      "outputs": [
        {
          "internalType": "address",
          "name": "",
          "type": "address"
        }
      ],
      "stateMutability": "view",
      "type": "function"
    },
    {
      "inputs": [],
      "name": "unpause",
      "outputs": [],
      "stateMutability": "nonpayable",
      "type": "function"
    },
    {
      "inputs": [
        {
          "internalType": "uint256",
          "name": "_common",
          "type": "uint256"
        },
        {
          "internalType": "uint256",
          "name": "_uncommon",
          "type": "uint256"
        },
        {
          "internalType": "uint256",
          "name": "_rare",
          "type": "uint256"
        },
        {
          "internalType": "uint256",
          "name": "_epic",
          "type": "uint256"
        },
        {
          "internalType": "uint256",
          "name": "_legendary",
          "type": "uint256"
        }
      ],
      "name": "updateActiveSkillsPricing",
      "outputs": [],
      "stateMutability": "nonpayable",
      "type": "function"
    },
    {
      "inputs": [
        {
          "internalType": "enum IStakingIntegration.SkillType",
          "name": "_skillType",
          "type": "uint8"
        },
        {
          "internalType": "enum IStakingIntegration.Rarity",
          "name": "_rarity",
          "type": "uint8"
        },
        {
          "internalType": "uint256",
          "name": "_newPrice",
          "type": "uint256"
        }
      ],
      "name": "updateSkillPrice",
      "outputs": [],
      "stateMutability": "nonpayable",
      "type": "function"
    },
    {
      "inputs": [
        {
          "internalType": "uint256",
          "name": "_common",
          "type": "uint256"
        },
        {
          "internalType": "uint256",
          "name": "_uncommon",
          "type": "uint256"
        },
        {
          "internalType": "uint256",
          "name": "_rare",
          "type": "uint256"
        },
        {
          "internalType": "uint256",
          "name": "_epic",
          "type": "uint256"
        },
        {
          "internalType": "uint256",
          "name": "_legendary",
          "type": "uint256"
        }
      ],
      "name": "updateStakingSkillsPricing",
      "outputs": [],
      "stateMutability": "nonpayable",
      "type": "function"
    },
    {
      "inputs": [
        {
          "internalType": "address",
          "name": "",
          "type": "address"
        },
        {
          "internalType": "enum IStakingIntegration.SkillType",
          "name": "",
          "type": "uint8"
        }
      ],
      "name": "userActiveSkillsByType",
      "outputs": [
        {
          "internalType": "uint256",
          "name": "",
          "type": "uint256"
        }
      ],
      "stateMutability": "view",
      "type": "function"
    },
    {
      "inputs": [
        {
          "internalType": "address",
          "name": "",
          "type": "address"
        },
        {
          "internalType": "enum IStakingIntegration.SkillType",
          "name": "",
          "type": "uint8"
        }
      ],
      "name": "userSkillNFTId",
      "outputs": [
        {
          "internalType": "uint256",
          "name": "",
          "type": "uint256"
        }
      ],
      "stateMutability": "view",
      "type": "function"
    },
    {
      "inputs": [
        {
          "internalType": "address",
          "name": "",
          "type": "address"
        },
        {
          "internalType": "uint256",
          "name": "",
          "type": "uint256"
        }
      ],
      "name": "userSkillNFTs",
      "outputs": [
        {
          "internalType": "uint256",
          "name": "",
          "type": "uint256"
        }
      ],
      "stateMutability": "view",
      "type": "function"
    },
    {
      "inputs": [
        {
          "internalType": "address",
          "name": "",
          "type": "address"
        }
      ],
      "name": "userTotalActiveSkills",
      "outputs": [
        {
          "internalType": "uint256",
          "name": "",
          "type": "uint256"
        }
      ],
      "stateMutability": "view",
      "type": "function"
    },
    {
      "stateMutability": "payable",
      "type": "receive"
    }
  ],
  "bytecode": "0x60806040523461002a576100196100146100bf565b61015f565b6040516140e861060582396140e890f35b5f80fd5b634e487b7160e01b5f52604160045260245ffd5b90601f01601f191681019081106001600160401b0382111761006357604052565b61002e565b9061007c61007560405190565b9283610042565b565b6001600160a01b031690565b90565b6001600160a01b0381160361002a57565b9050519061007c8261008d565b9060208282031261002a5761008a9161009e565b61008a6146ed803803806100d281610068565b9283398101906100ab565b61007e61008a61008a9290565b61008a906100dd565b61008a61008a61008a9290565b61008a5f6100f3565b906001600160a01b03905b9181191691161790565b61008a9061007e906001600160a01b031682565b61008a9061011e565b61008a90610132565b9061015461008a61015b9261013b565b8254610109565b9055565b610167610216565b61017361007e5f6100ea565b6001600160a01b038216146101db576101c890610198610191610100565b339061025b565b6101c17fa49807205ce4d355092ef5a8a18f56e8913cf4a201fbe287825b095693c21775610191565b600c610144565b6101d333600e610144565b61007c6103de565b63e6c4247b60e01b5f908152600490fd5b61008a60016100f3565b905f1990610114565b9061020f61008a61015b926100f3565b82546101f6565b61021e610250565b61007c6102296101ec565b60026101ff565b9060ff90610114565b9061024961008a61015b92151590565b8254610230565b61007c5f6001610239565b9061007c91610550565b61027261008a61008a9290565b60ff1690565b634e487b7160e01b5f52601160045260245ffd5b60ff1660ff811461029d5760010190565b610278565b634e487b7160e01b5f52602160045260245ffd5b601111156102c057565b6102a2565b9061007c826102b6565b6102df61008a61008a9260ff1690565b6102c5565b61008a6802b5e3af16b18800006100f3565b61008a906102c5565b90610309906102f6565b5f5260205260405f2090565b600511156102c057565b9061007c82610315565b61008a9061031f565b9061030990610329565b61008a6804563918244f4000006100f3565b61008a68056bc75e2d631000006100f3565b61008a680821ab0d44149800006100f3565b61008a680bed1d0263d9f000006100f3565b61008a6803860e639d806400006100f3565b61008a6805a34a38fc00a000006100f3565b61008a68070c1cc73b00c800006100f3565b61008a680a922b2ad8812c00006100f3565b61008a680f810c1cb501b800006100f3565b600180806103eb81610265565b905b6104c4575b506103fd6008610265565b905b610407575050565b6104116010610265565b60ff8216116104c0576104ba816104b561042b85946102cf565b610455600461045061043b610384565b9361045a600b956104555f610450858a6102ff565b610332565b6101ff565b610473610465610396565b6104558b610450858a6102ff565b61048d61047e6103a8565b6104556002610450858a6102ff565b6104a76104986103ba565b6104556003610450858a6102ff565b6104af6103cc565b946102ff565b61028c565b906103ff565b5050565b6104ce6007610265565b60ff82161161053b57806104b56104e7610535936102cf565b61045560046104506104f76102e4565b9361050c600b956104555f610450858a6102ff565b61051761046561033c565b61052261047e61034e565b61052d610498610360565b6104af610372565b816103ed565b6103f2565b90610309565b906103099061013b565b61056161055d83836105e5565b1590565b610569575050565b6105886001610583845f61057d8682610540565b01610546565b610239565b6105a261059c610596339390565b9361013b565b9161013b565b917f2f8788117e7eff1d82e926ec794901d17c78024a50270940304540a733656f0d6105cd60405190565b5f90a4565b61008a90610272565b61008a90546105d2565b61008a915f61057d6105ff936105f85f90565b5082610540565b6105db56fe6080604052600436101561001a575b3615610018575f80fd5b005b5f3560e01c806301ffc9a7146102f957806313f487ec146102f45780631bb445c2146102ef5780631d5295bd146102ea578063234d41db146102e5578063248a9ca3146102e05780632e5cd5ab146102db5780632f2ff15d146102d65780633535f48b146102d157806336568abe146102cc57806336e517b7146102c75780633f4ba83a146102c25780634fa2d3d7146102bd5780635312ea8e146102b857806354951e48146102b3578063554ba220146102ae5780635c975abb146102a95780635d32adde146102a45780636605bfda1461029f57806375b238fc1461029a5780638456cb5914610295578063845952d714610290578063850c1f1f1461028b5780638d09af25146102865780638e3ac9c214610281578063914133341461027c57806391d148541461027757806393e1124e14610272578063978196c91461026d5780639d2e99e7146102685780639dd373b914610263578063a217fddf1461025e578063a531354714610259578063a5cad93714610254578063a7edd0121461024f578063bd07aabf1461024a578063bd6d022414610245578063c5f956af14610240578063cddc0f101461023b578063cf1084ff14610236578063d547741f14610231578063dd1917191461022c578063ec2f595114610227578063ede8a1f614610222578063f192efc01461021d5763f75826b30361000e57611039565b61101d565b610ff1565b610fb9565b610fa1565b610f88565b610f6b565b610e91565b610dfc565b610dd5565b610d75565b610d43565b610cdd565b610cb3565b610c98565b610c6f565b610c48565b610b35565b610a9e565b610a82565b610a6e565b610a2a565b610a12565b6109f9565b6109ae565b610951565b61092b565b610913565b6108f8565b6108dd565b6108b6565b61082b565b6107ed565b6107d1565b6107a1565b61078e565b610775565b610740565b6106f5565b6106b7565b61065b565b610618565b6105f1565b61059f565b610490565b61033f565b6001600160e01b031981165b0361031157565b5f80fd5b90503590610322826102fe565b565b906020828203126103115761033891610315565b90565b9052565b346103115761036c61035a610355366004610324565b611054565b60405191829182901515815260200190565b0390f35b6001600160a01b031690565b6001600160a01b03811661030a565b905035906103228261037c565b6011111561031157565b9050359061032282610398565b9190604083820312610311576103389060206103cb828661038b565b94016103a2565b0190565b906103f66103ef6103e5845190565b8084529260200190565b9260200190565b905f5b8181106104065750505090565b90919261042361041c6001928651815260200190565b9460200190565b9291016103f9565b9061043a6103ef6103e5845190565b905f5b81811061044a5750505090565b90919261046361041c600192865160ff16815260200190565b92910161043d565b6040808252610338939192610482918401906103d6565b91602081840391015261042b565b34610311576104a96104a33660046103af565b90611236565b9061036c6104b660405190565b9283928361046b565b6005111561031157565b90503590610322826104bf565b9190604083820312610311576103389060206104f282866103a2565b94016104c9565b634e487b7160e01b5f52602160045260245ffd5b6011111561051757565b6104f9565b906103228261050d565b6103389061051c565b9061053990610526565b5f5260205260405f2090565b6005111561051757565b9061032282610545565b6103389061054f565b9061053990610559565b610338916008021c81565b90610338915461056c565b61059a610338926105955f93600b61052f565b610562565b610577565b346103115761036c6105bb6105b53660046104d6565b90610582565b6040515b9182918290815260200190565b90602082820312610311576103389161038b565b6020808252610338929101906103d6565b346103115761036c61060c6106073660046105cc565b611492565b604051918291826105e0565b346103115761036c6105bb61062e3660046104d6565b906114a9565b8061030a565b9050359061032282610634565b90602082820312610311576103389161063a565b346103115761036c6105bb610671366004610647565b6114c9565b610370610338610338926001600160a01b031690565b61033890610676565b6103389061068c565b9061053990610695565b5f61059a61033892600a61069e565b346103115761036c6105bb6106cd3660046105cc565b6106a8565b9190604083820312610311576103389060206106ee828661063a565b940161038b565b346103115761070e6107083660046106d2565b90611506565b604051005b5f91031261031157565b610338916008021c610370565b90610338915461071d565b6103385f600d61072a565b3461031157610750366004610713565b61036c61075b610735565b604051918291826001600160a01b03909116815260200190565b346103115761070e6107883660046106d2565b90611579565b61070e61079c366004610647565b611aa1565b34610311576107b1366004610713565b61070e611acb565b61059a610338926107cc5f93600861069e565b61052f565b346103115761036c6105bb6107e73660046103af565b906107b9565b346103115761070e610800366004610647565b611bc3565b908152606081019392610322929091604091610823905b6020830152565b019015159052565b346103115761036c6108476108413660046103af565b90611bcc565b60405191939193849384610805565b9060208282031261031157610338916103a2565b61087a61087660059390565b9190565b5f915b83831061088a5750505050565b61089d6103ef6001928451815260200190565b9201919061087d565b60a081019291610322919061086a565b346103115761036c6108d16108cc366004610856565b611d4b565b604051918291826108a6565b34610311576108ed366004610713565b61036c61035a611e0c565b346103115761036c6105bb61090e3660046105cc565b611e16565b346103115761070e6109263660046105cc565b611edf565b346103115761093b366004610713565b61036c5f5160206140935f395f51905f526105bb565b3461031157610961366004610713565b61070e611f09565b6103386103386103389290565b9061053990610969565b610338916008021c5b60ff1690565b906103389154610980565b5f6109a9610338926007610976565b61098f565b346103115761036c61035a6109c4366004610647565b61099a565b9091606082840312610311576103386109e284846103a2565b9360406109f282602087016104c9565b940161063a565b346103115761070e610a0c3660046109c9565b91611fe1565b346103115761070e610a25366004610647565b612008565b346103115761036c61035a610a40366004610647565b6121a4565b909160608284031261031157610338610a5e848461063a565b9360406103cb826020870161063a565b61070e610a7c366004610a45565b91612650565b346103115761036c61035a610a983660046106d2565b9061265b565b346103115761036c6105bb610ab4366004610856565b612680565b9190604083820312610311576103389060206109f2828661038b565b634e487b7160e01b5f52603260045260245ffd5b8054821015610b0957610b016001915f5260205f2090565b910201905f90565b610ad5565b610b1990600561069e565b80548210156103115761033891610b2f91610ae9565b90610577565b346103115761036c6105bb610b4b366004610ab9565b90610b0e565b61033b90610526565b61033b90610559565b9060808061032293610b7b5f8201515f860190610b51565b610b8d60208201516020860190610b5a565b610b9c60408201516040860152565b610bab60608201516060860152565b0151910152565b906103d28160a093610b63565b90610bce6103ef6103e5845190565b905f5b818110610bde5750505090565b909192610bf161041c6001928651610bb2565b929101610bd1565b80516001600160a01b031682529061033890606080610c276080840160208701518582036020870152610bbf565b94610bab60408201516040860152565b602080825261033892910190610bf9565b346103115761036c610c63610c5e366004610647565b61280f565b60405191829182610c37565b346103115761070e610c823660046105cc565b6128a6565b6103385f610969565b610338610c87565b3461031157610ca8366004610713565b61036c6105bb610c90565b346103115761036c6105bb610cc9366004610647565b6128af565b5f61059a61033892600661052f565b346103115761036c6105bb610cf3366004610856565b610cce565b90610d076103ef6103e5845190565b905f5b818110610d175750505090565b909192610d2a61041c6001928651610bb2565b929101610d0a565b602080825261033892910190610cf8565b346103115761036c610d5e610d59366004610647565b6128c2565b60405191829182610d32565b6103385f600c61072a565b3461031157610d85366004610713565b61036c61075b610d6a565b919060a08382031261031157610da6818461063a565b92610db4826020830161063a565b92610338610dc5846040850161063a565b9360806109f2826060870161063a565b346103115761070e610de8366004610d90565b939290926129bf565b6103385f600e61072a565b3461031157610e0c366004610713565b61036c61075b610df1565b61033890610370565b6103389054610e17565b6103389081565b6103389054610e2a565b610e46906004610976565b610e4f81610e20565b916103386003610e6160028501610e31565b9301610e31565b6001600160a01b039091168152606081019392610322929091604091610e8d9061081c565b0152565b346103115761036c610eac610ea7366004610647565b610e3b565b60405191939193849384610e68565b909182601f830112156103115781359167ffffffffffffffff831161031157602001926020830284011161031157565b91909160808184031261031157610f02838261063a565b92602082013567ffffffffffffffff81116103115781610f23918401610ebb565b929093604082013567ffffffffffffffff81116103115783610f46918401610ebb565b929093606082013567ffffffffffffffff811161031157610f679201610ebb565b9091565b61036c6105bb610f7c366004610eeb565b959490949391936135d5565b346103115761070e610f9b3660046106d2565b90613600565b3461031157610fb1366004610713565b61070e6136a8565b346103115761070e610fcc366004610d90565b93929092613774565b9190604083820312610311576103389060206103cb828661063a565b346103115761070e611004366004610fd5565b90613933565b61059a610338926107cc5f93600961069e565b346103115761036c6105bb6110333660046103af565b9061100a565b346103115761036c61060c61104f3660046105cc565b61393d565b637965db0b60e01b6001600160e01b0319821614908115611073575090565b61033891506001600160e01b0319166301ffc9a760e01b1490565b906110a761109d6103e5845490565b925f5260205f2090565b905f5b8181106110b75750505090565b9091926110db6110d46001926110cc87610e31565b815260200190565b9460010190565b9291016110aa565b906103389161108e565b634e487b7160e01b5f52604160045260245ffd5b90601f01601f1916810190811067ffffffffffffffff82111761112357604052565b6110ed565b906103226111429261113960405190565b938480926110e3565b0383611101565b61033890611128565b9061115b825190565b811015610b09576020809102010190565b8054821015610b0957610b016004915f5260205f2090565b61033890610989565b6103389054611184565b634e487b7160e01b5f52601160045260245ffd5b5f1981146111b95760010190565b611197565b906103226111cb60405190565b9283611101565b67ffffffffffffffff81116111235760208091020190565b906111fc6111f7836111d2565b6111be565b918252565b369037565b9061032261121c611216846111ea565b936111d2565b601f190160208401611201565b6109896103386103389290565b909161124b61124683600561069e565b611149565b926112555f610969565b9182935b611264610338875190565b8510156113105761128a6103386004611284611280898b611152565b5190565b90610976565b956112945f610969565b600188016112a3610338825490565b821015611300575f6112b8836112bf9361116c565b500161118d565b6112d16112cb8761051c565b9161051c565b146112de57600101611294565b5092955093926112f06112f7916111ab565b9360010190565b93949194611259565b5050929550936112f79060010190565b919350939161131e81611206565b926113298492611206565b91829561134c611347826107cc61133f5f610969565b98600861069e565b610e31565b9185975b61135b610338865190565b8910156114865761137761033860046112846112808d8a611152565b995f926113835f610969565b60018d01611392610338825490565b821015611479575f6112b8836113a79361116c565b6113b36112cb8861051c565b146113c057600101611383565b50939a509890915060015b6113dd575b6001015b97989190611350565b956114396113d4916114026113f56112808b8a611152565b6113ff838d611152565b52565b61140f6112808a89611152565b869003611441576114346114225f611229565b61142c838b611152565b9060ff169052565b6111ab565b9690506113d0565b6114596103386114546112808c8b611152565b613a26565b421061146c576114346114226002611229565b6114346114226001611229565b5050939a509890916113cb565b97509795505050505050565b611246610338916114a1606090565b50600561069e565b61033891610595611347926114bb5f90565b50600b61052f565b90610539565b60016114e0610338926114d95f90565b505f6114c3565b01610e31565b90610322916114fc6114f7826114c9565b613a6a565b9061032291613a75565b90610322916114e6565b1561151757565b60405162461bcd60e51b815260206004820152602f60248201527f416363657373436f6e74726f6c3a2063616e206f6e6c792072656e6f756e636560448201526e103937b632b9903337b91039b2b63360891b606482015280608481015b0390fd5b610322919061159a61158a33610370565b6001600160a01b03841614611510565b613ae4565b610322906115ab613b81565b6115bc906115b7613bea565b61171c565b610322613c1c565b634e487b7160e01b5f52601260045260245ffd5b81156115e2570490565b6115c4565b9081526040810192916103229160200152565b61033862278d00610969565b919082018092116111b957565b905f19905b9181191691161790565b9061163261033861163992610969565b8254611613565b9055565b6103706103386103389290565b6103389061163d565b6103389060081c610989565b6103389054611653565b818102929181159184041417156111b957565b6116896103386103389290565b61ffff1690565b6116ca610322946116c06060949897956116b9608086019a5f8701906001600160a01b03169052565b6020850152565b60ff166040830152565b019061ffff169052565b67ffffffffffffffff811161112357602090601f01601f19160190565b906111fc6111f7836116d4565b3d156117175761170d3d6116f1565b903d5f602084013e565b606090565b60049061172c6103388284610976565b9261173684610e20565b611748335b916001600160a01b031690565b03611a915761175682613a26565b804210611a7b575061176a60038501610e31565b9161178160029361177b6002610969565b906115d8565b803410611a62576117996117936115fa565b42611606565b946117a35f610969565b600188016117b2610338825490565b8210156117df57906117d48860036117cd846117da9661116c565b5001611622565b60010190565b6117a3565b50509193959092956117f1600d610e20565b916117fb5f61164a565b9261180e6001600160a01b03851661173b565b03611960575b505061181f5f610969565b83119081611939575b50611875575b50507f20caca271ed23e340f745b19f7a0a0b1fa92c5dfaab7694caeb4e7349e4671d461187061186661186033610695565b93610969565b936105bf60405190565b0390a3565b6118a75f8061188f61188a61188a600e610e20565b610695565b6040518681805b03925af16118a26116fe565b501590565b61192757506118b533610695565b7f4c369879192a61f41a90aef2b9388fd74227d8429a5f5fe1887a365da71d723c61191d6118e285610969565b936118ec60405190565b91829182908152604060208201819052600c908201526b52454e45575f534b494c4c5360a01b606082015260800190565b0390a35f8061182e565b63e6c4247b60e01b5f908152905b035ffd5b905061195861173b61194b600e610e20565b926001600160a01b031690565b14155f611828565b959096919361196e5f610969565b6001880161197d610338825490565b821015611a535781611a425f808b858f8c611a216119e56119e06119d1611a30956119cb60019f611a4c9f8c6119b96119c5936119c09361116c565b500161165f565b610559565b91610969565b90611669565b6119db6005610969565b611606565b61167c565b611a05611a00886112b88d6119fa600d610e20565b9961116c565b610526565b60405196879460208601630c4e865560e21b8152013390611690565b60208201810382520383611101565b82602083519301915af16118a26116fe565b6117d45760010190565b905061196e565b50509391965094505f80611814565b63af608abb60e01b5f90815290611935903490876115e7565b63fc2df8a960e01b5f9081529084526020840190fd5b632500456d60e01b5f9081528390fd5b6103229061159f565b611ac05f5160206140935f395f51905f52613a6a565b610322610322613c6c565b610322611aaa565b61032290611aed5f5160206140935f395f51905f52613a6a565b611b11565b61033b90610969565b9081526040810192916103229160200190611af2565b611b1a5f610969565b8114611ba957611b2930610695565b80318211611b8f5750611b3c600e610e20565b611b4b61173b6103705f61164a565b14611b7e575f80611b7892611b6661188a61188a600e610e20565b90611b7060405190565b908180611896565b611b7e57565b63e6c4247b60e01b5f908152600490fd5b63af608abb60e01b5f9081529161193591319060046115e7565b63af608abb60e01b5f908152906119359082906004611afb565b61032290611ad3565b5f90611be0611347846107cc84600861069e565b9384611bee6108765f610969565b14611cdd57611c0a611246611c0287613a26565b93600561069e565b611c135f610969565b611c1e610338835190565b811015611cca57611c326112808284611152565b879003611c42575b600101611c13565b9394611c5961033860046112846112808987611152565b95611c635f610969565b60018801611c72610338825490565b821015611cd1575f6112b883611c879361116c565b611c936112cb8561051c565b14611ca1575b600101611c63565b611cb46103386114546112808a88611152565b421015611c995750509450600193845b15611c3a575b5050909250565b50508095919650611cc4565b9350505050611ceb5f610969565b908190600190565b67ffffffffffffffff81116111235760200290565b6111f761033891611cf3565b90610322611d2a611d2484611d08565b93611cf3565b83611201565b6103386005611d14565b906005811015610b09576020020190565b611d53611d30565b50610338611df96113476004610595611d6a611d30565b95600b611d93611d816113475f610595868661052f565b6113ff611d8d5f610969565b8b611d3a565b611db5611da86113476001610595868661052f565b6113ff611d8d6001610969565b611dd7611dca6113476002610595868661052f565b6113ff611d8d6002610969565b6107cc611dec6113476003610595868661052f565b6113ff611d8d6003610969565b6113ff611e066004610969565b84611d3a565b610338600161118d565b61134761033891611e245f90565b50600a61069e565b61032290611e465f5160206140935f395f51905f52613a6a565b611e71565b906001600160a01b0390611618565b90611e6a61033861163992610695565b8254611e4b565b611e7d6103705f61164a565b6001600160a01b03821614611b7e57611ead611ea7611e9c600e610e20565b61188a84600e611e5a565b91610695565b907f430359a6d97ced2b6f93c77a91e7ce9dfd43252eb91e916adba170485cd8a6a4611ed860405190565b8080611870565b61032290611e2c565b611efe5f5160206140935f395f51905f52613a6a565b610322610322613cb4565b610322611ee8565b610322929190611f2d5f5160206140935f395f51905f52613a6a565b92919092611f3a81610526565b611f4e611f476001611229565b9160ff1690565b108015611fc4575b611fb357611f6384610559565b611f70611f476004611229565b11611f8d576103229293610595611f8892600b61052f565b611622565b5f611935611f9a86610559565b63ad2489af60e01b835260ff1660048301526024820190565b630e76c5d160e21b5f908152600490fd5b50611fce81610526565b611fdb611f476010611229565b11611f56565b906103229291611f11565b80156111b9575f190190565b6020810192916103229190610b51565b612016610338826004610976565b61201f81610e20565b61202e61173b6103705f61164a565b146121935761203c82613a26565b80421061217c575061204d5f610969565b600182019061205d610338835490565b811015612176576120755f6112b8836120ed9561116c565b6120a461188a856008612097611347866107cc61209186610e20565b8561069e565b89146120f2575b50610e20565b7fcd0a7e6e5bd57a0d6455d029e6c672cc55e5520e660f833fde5701702dd1e6de6120e46120d188610969565b936120db60405190565b91829182611ff8565b0390a360010190565b61204d565b6121186107cc91611f88876121065f610969565b94859361211288610e20565b9061069e565b61212e81611f88876107cc600961211288610e20565b600a9061214361033861134761209186610e20565b111561209e576121596121709161211284610e20565b61216a61216582610e31565b611fec565b90611622565b5f61209e565b50505050565b63fc2df8a960e01b5f908152600491909152602490fd5b632b38bfed60e01b5f908152600490fd5b6103386121b8916121b25f90565b50613a26565b42101590565b9061032292916121cc613b81565b906115bc92916121da613bea565b612216565b6001600160a01b0390911681526040810192916103229160200152565b916020610322929493610e8d60408201965f830190610b51565b90916004926122286103388486610976565b926122366103388387610976565b61223f85610e20565b6122483361173b565b036126405761225681610e20565b61225f3361173b565b03612640575f9586956122715f610969565b60018201612280610338825490565b82101561262f575f6112b8836122959361116c565b6122a16112cb8961051c565b146122ae57600101612271565b6122d09192939495969798506118a25f6119b960019384870161116c565b1590565b61260d576122e6611347876107cc33600861069e565b84900361260d575f6122f75f610969565b60018501612306610338825490565b82101561261d575f6112b88361231b9361116c565b6123276112cb8a61051c565b14612334576001016122f7565b612358929394959697985061235391506119b95f91600180980161116c565b931590565b61260d5761236861033886613a26565b4210156125e95761237e60036123879201610e31565b61177b83610969565b918234106125d257612399600d610e20565b906123a35f61164a565b916123b66001600160a01b03841661173b565b03612513575b506123d085611f88886107cc33600861069e565b6123e385611f88886107cc33600961069e565b6123ec5f610969565b831190816124f9575b5061244e575b507fab73b2dcba8ed1b6096f7940dcb388d5406686d8115d4ee75d33309b73a829309061243361242d61242d33610695565b94610969565b9461244961244060405190565b928392836121fc565b0390a4565b6124635f8061188f61188a61188a600e610e20565b61192757507fab73b2dcba8ed1b6096f7940dcb388d5406686d8115d4ee75d33309b73a829309061249333610695565b61249c85610969565b907f4c369879192a61f41a90aef2b9388fd74227d8429a5f5fe1887a365da71d723c6124c760405190565b848152604060208201819052600d908201526c5357495443485f534b494c4c5360981b6060820152608090a3906123fb565b905061250b61173b61194b600e610e20565b14155f6123f5565b5f61257b6119e06119d1612571849585808c61252f600d610e20565b6125588d611a2161253f60405190565b94859260208401638925781760e01b81520133906121df565b82602083519301915af15061256b6116fe565b50610559565b6119cb6002610969565b612585600d610e20565b6125b86125918b610526565b611a2161259d60405190565b9485928d8b60208601630c4e865560e21b8152013390611690565b82602083519301915af1506125cb6116fe565b505f6123bc565b63af608abb60e01b5f9081526119353485856115e7565b5f611935836125f788613a26565b63fc2df8a960e01b845290830190815260200190565b630e76c5d160e21b5f9081528290fd5b50506123589192935096939495961590565b5050909192939495966122d0901590565b632500456d60e01b5f9081528690fd5b9061032292916121be565b610338915f61267561267b9361266e5f90565b50826114c3565b0161069e565b61118d565b6113476103389161268e5f90565b50600661052f565b61033860806111be565b6126a8612696565b5f8082526060602083018190526040830182905282015290565b6103386126a0565b9061033b9061051c565b9061033b9061054f565b61033860a06111be565b9061032261274d60036126f96126de565b9461270c6127068261118d565b876126ca565b6127216127188261165f565b602088016126d4565b61273761273060018301610e31565b6040880152565b6114e061274660028301610e31565b6060880152565b6080840152565b610338906126e8565b90612766825490565b61276f816111ea565b9261278160208501915f5260205f2090565b5f915b8383106127915750505050565b600460206001926127a185612754565b815201920192019190612784565b906103226127ff60036127c0612696565b946127da6127cd82610e20565b6001600160a01b03168752565b6127f06127e96001830161275d565b6020880152565b6114e061273060028301610e31565b6060840152565b610338906127af565b6128266103389161281e6126c2565b506004610976565b612806565b610322906128455f5160206140935f395f51905f52613a6a565b6128516103705f61164a565b6001600160a01b03821614611b7e5761287b611ea7612870600d610e20565b61188a84600d611e5a565b907f7042586b23181180eb30b4798702d7a0233b7fc2551e89806770e8e5d9392e6a611ed860405190565b6103229061282b565b610338905f6121b2565b6103389061275d565b60016128d36103389261281e606090565b016128b9565b61032294939291906128f75f5160206140935f395f51905f52613a6a565b612922565b60ff1660ff81146111b95760010190565b61291d6103386103389260ff1690565b61051c565b919493949290926129336008611229565b61293d6010611229565b60ff8216116129b657806129ac88611f88600461059561295f6129b19761290d565b600b6129738c611f885f610595868661052f565b6129868d611f886001610595868661052f565b6129998a611f886002610595868661052f565b6107cc8b611f886003610595868661052f565b6128fc565b612933565b50505050509050565b90610322949392916128d9565b90610338979695949392916129df613b81565b906129f7979695949392916129f2613bea565b612c2b565b90610322613c1c565b9050519061032282610634565b906020828203126103115761033891612a00565b6040513d5f823e3d90fd5b610338680d8d726b7177a80000610969565b9190811015610b09576020020190565b3561033881610398565b6103386005610969565b35610338816104bf565b919082039182116111b957565b9060ff90611618565b90612a9261033861163992151590565b8254612a79565b3561033881610634565b634e487b7160e01b5f525f60045260245ffd5b610338905161051c565b90612a9261033861163992610526565b610338905161054f565b9061ff009060081b611618565b90612af761033861163992610559565b8254612ada565b61032291600390612b6790608090612b3485612b22612b1c84612ab6565b82612ac0565b612b2e60208401612ad0565b90612ae7565b612b4b612b42604083015190565b60018701611622565b612b62612b59606083015190565b60028701611622565b015190565b9101611622565b9190612b7d5761032291612afe565b612aa3565b90815491600160401b8310156111235782612ba59160016103229501815561116c565b90612b6e565b6103386032610969565b916020610322929493612bcf60408201965f830190610b51565b0190610b5a565b915f1960089290920291821b911b611618565b9190612bfa61033861163993610969565b908354612bd6565b90815491600160401b8310156111235782612c2591600161032295018155610ae9565b90612be9565b509691959094939091612c3e600c610e20565b94612c485f61164a565b95612c5b6001600160a01b03881661173b565b146135c4578791612c6b5f610969565b831480156135b2575b613597578383141580156135a8575b61359757612c91600d610e20565b612ca36001600160a01b03891661173b565b036134f0575b612cb25f610969565b96875b84811015612d685788612cee6103386113478d8f612ce387612ce892612cdd6008339061069e565b94612a3e565b612a4e565b9061052f565b03612cfb57600101612cb5565b611935612d55612ce3838e8e612d16612ce35f988484612a3e565b7f8e81a6b62ca13c48a33846156d48db394e770a1f9553b166f964b3c0ac91457a612d4d612d4333610695565b926120db60405190565b0390a2612a3e565b634a41725760e11b835260048301611ff8565b5091939796509193979498612d85856119db61134733600a61069e565b612d93610876610338612a58565b116134df57612da15f610969565b85811015612ed457612dba611a00612ce3838a8c612a3e565b600190612dc9611f4783611229565b108015612eaf575b611fb357612dec6119c0612de7848f8e90612a3e565b612a62565b90600491612dfc611f4784611229565b11612e7e5780612e14612e0e82610969565b85611606565b905b612e2d575b505050612e289060010190565b612da1565b8a8a8a831015612e77576112cb61291d612ce38584612e53612ce38c612e59988a612a3e565b96612a3e565b14612e675760010181612e16565b6330f1e06560e01b5f9081528390fd5b5050612e1b565b5061193590612e966119c0612de78f958e5f97612a3e565b63ad2489af60e01b845260ff1690830190815260200190565b50612ec1611a00612ce3848b8d612a3e565b612ece611f476010611229565b11612dd1565b509091929896959397612eeb610338836004610976565b612ef53382611e5a565b612f024260028301611622565b612f0b5f610969565b91612f176117936115fa565b90839c8c612f23869190565b811015612f6557612f5e8e9f612f57908f8f908f8f87612f5194612cdd612ce38361062e96612de796612a3e565b90611606565b9160010190565b909e612f23565b50919380979d8b8d8c9d999f9496989c8c90612f816001610969565b87036134b8575050505050612fa16001612f9c8c6007610976565b612a82565b878111806134af575b61349557612fc2816003999e9d9c9b9a998801611622565b8c5b8281101561320e57808c809e9f8c8e9f819f8e9f938f948f958f908f8f928f9187948b938e809b81612ff7818b8b612a3e565b61300090612a4e565b9761300a92612a3e565b61301390612a62565b9261301d92612a3e565b61302690612a99565b9061302f6126de565b9461303a90866126ca565b61304790602086016126d4565b6040840152613057426060850152565b60808301526001019061306991612b82565b6006613076878484612a3e565b61307f90612a4e565b6130889161052f565b61309181610e31565b61309a906111ab565b6130a391611622565b826130af33600861069e565b6130ba888585612a3e565b6130c390612a4e565b6130cc9161052f565b906130d691611622565b856130e233600961069e565b926130ec92612a3e565b6130f590612a4e565b6130fe9161052f565b9061310891611622565b61311333600a61069e565b61311c81610e31565b613125906111ab565b61312e91611622565b6131375f610969565b83036131bf57613147600f610969565b61315091611606565b9e6131b3977f9b3f65d29aeb401bfee016fe6ee834d6f484bc7eddf7c981ec065d0ba8289ad39561318e612ce3613194966119c596612de796612a3e565b97612a3e565b926131aa6131a160405190565b92839283612bb5565b0390a260010190565b9c9b9a9998979c612fc4565b613150906131ee6131e46131da6119c0612de7888b8d612a3e565b6119cb6005610969565b6119db600a610969565b6131f6612bab565b9081811115613206575090611606565b905090611606565b5096979b99945099925050506005936132348a61322f61033833600561069e565b612c02565b61323d5f610969565b811180613471575b6133d0575b5061325b61188a61188a600c610e20565b803b15610311575f61328e81928a61327260405190565b9485938492839190632f7e13eb60e11b835233600484016121df565b03925af180156133cb576133ae575b506132ae61173b61194b600d610e20565b03613309575b50505050507f19755b80f038339a1001e8fd8b922efd79bc678c2c12bfc7d50d14c8726f86796132e333610695565b916132ed85610969565b936133036132fa60405190565b928392836115e7565b0390a390565b91939790929561331b5f989698610969565b8181101561339b5780611a425f808d8c611a308d611a216133728f8f8f9c6133616119e06133969f946119db6119c56125716119c0612de788612ce39a611a009c612a3e565b9861336c600d610e20565b98612a3e565b9461337c60405190565b630c4e865560e21b60208201529586933360248601611690565b61331b565b5095509650505050915f808080806132b4565b6133c5905f6133bd8183611101565b810190610713565b5f61329d565b612a21565b6133f05f806133e561188a61188a600e610e20565b604051858180611896565b611b7e576133fd33610695565b7f4c369879192a61f41a90aef2b9388fd74227d8429a5f5fe1887a365da71d723c61346861342a8d610969565b9361343460405190565b91829182908152604060208201819052600f908201526e52454749535445525f534b494c4c5360881b606082015260800190565b0390a35f61324a565b5061347c600e610e20565b61348e6001600160a01b03841661173b565b1415613245565b63af608abb60e01b5f9081529061193590349060046115e7565b50803410612faa565b856134d494612cdd612ce36134da99612de79561062e97612a3e565b90612a6c565b612fa1565b63234acd7160e11b5f908152600490fd5b61350061188a61188a600d610e20565b602061350b60405190565b63857184d160e01b815233600482015291829060249082905afa5f9181613566575b506135385750612ca9565b613540612a2c565b80821061354e575050612ca9565b63109ddee960e21b5f908152916119359160046115e7565b61358991925060203d602011613590575b6135818183611101565b810190612a0d565b905f61352d565b503d613577565b63ac9fbab160e01b5f908152600490fd5b5084831415612c83565b506135bd6005610969565b8311612c74565b630991dc9d60e11b5f908152600490fd5b610338969594939291905f6129cc565b90610322916135f66114f7826114c9565b9061032291613ae4565b90610322916135e5565b6136205f5160206140935f395f51905f52613a6a565b610322613642565b916020610322929493610e8d60408201965f830190611af2565b61364c600e610e20565b61365b61173b6103705f61164a565b14611b7e5761366930610695565b316136735f610969565b811461368f575f80611b7892611b6661188a61188a600e610e20565b63af608abb60e01b5f9081529061193590826004613628565b61032261360a565b61032294939291906136ce5f5160206140935f395f51905f52613a6a565b91929092600193846136e06001611229565b905b6136f0575b50505050505050565b6136fa6007611229565b60ff82161161376f57613769816129ac89611f88600461059561371d8d9861290d565b600b6137318e611f885f610595868661052f565b6137438b611f888c610595868661052f565b6137568c611f886002610595868661052f565b6107cc8d611f886003610595868661052f565b906136e2565b6136e7565b90610322949392916136b0565b906103229161378e613b81565b9060049161379f6103388285610976565b926137a984610e20565b6137b23361173b565b03613925576137c9611347846107cc33600861069e565b829003613909575f6137da5f610969565b600186016137e9610338825490565b821015613917575f6112b8836137fe9361116c565b61380a6112cb8761051c565b14613817576001016137da565b509293509091505f5b613909578190613830600d610e20565b61383f61173b6103705f61164a565b036138d0575b50506138505f610969565b61386381611f88856107cc33600861069e565b61387681611f88856107cc33600961069e565b61388761033861134733600a61069e565b116138bd575b7fcb584b9c19a4cd48046a2f7367004a44e11beb9fab06c203cc0eafd56e4d95906118706120d161186033610695565b6138cb61215933600a61069e565b61388d565b5f9182916138ee6138e1600d610e20565b91611a2161253f60405190565b82602083519301915af1506139016116fe565b50805f613845565b630e76c5d160e21b5f908152fd5b505061382091929394501590565b632500456d60e01b5f908152fd5b9061032291613781565b61124661394c916114a1606090565b906139565f610969565b805b613963610338855190565b8110156139a65761397d6103386114546112808488611152565b4210613991575b600101613958565b613958565b9061399e61398c916111ab565b919050613984565b506139b090611206565b916139ba5f610969565b92835b6139c8610338845190565b811015613a20576139e26103386114546112808487611152565b42106139f6575b6001016139bd565b6139bd565b93613a186139f191611434613a0e6112808988611152565b6113ff8387611152565b9490506139e9565b50925050565b613a3661033860019261281e5f90565b018054613a456108765f610969565b14613a60576003613a595f6103389361116c565b5001610e31565b506103385f610969565b610322903390613da7565b613a826122cc838361265b565b613a8a575050565b613a9e6001612f9c845f61267586826114c3565b613ab2611ea7613aac339390565b93610695565b917f2f8788117e7eff1d82e926ec794901d17c78024a50270940304540a733656f0d613add60405190565b8080612449565b613aee828261265b565b613af6575050565b613b095f612f9c848261267586826114c3565b613b17611ea7613aac339390565b917ff6391f5c32d9c69d2a47ea670b442974b53935d1edc7fd64eb21e047a839171b613add60405190565b15613b4957565b60405162461bcd60e51b815260206004820152601060248201526f14185d5cd8589b194e881c185d5cd95960821b6044820152606490fd5b610322613b8f6122cc611e0c565b613b42565b6103386002610969565b15613ba557565b60405162461bcd60e51b815260206004820152601f60248201527f5265656e7472616e637947756172643a207265656e7472616e742063616c6c006044820152606490fd5b610322613bf76002610e31565b613c0b613c02613b94565b91821415613b9e565b6002611622565b6103386001610969565b610322613c0b613c12565b613c2f613e77565b610322613c3d5f6001612a82565b7f5db9ee0a495bf2e6ff9c91a7834c1ba4fdd244a5e8aa4e537bd38aeae4b073aa613c673361075b565b0390a1565b610322613c27565b613c7c613b81565b610322613c8a600180612a82565b7f62e78cea01bee320cd4e420270b5ea74000d11b0c9f74754ebdbfc544b05a258613c673361075b565b610322613c74565b61033890610969565b5f5b838110613cd65750505f910152565b8181015183820152602001613cc7565b6103d2613cfe92602092613cf8815190565b94859290565b93849101613cc5565b613d456103389392613d3f613d3f937f416363657373436f6e74726f6c3a206163636f756e7420000000000000000000815260170190565b90613ce6565b7001034b99036b4b9b9b4b733903937b6329607d1b815260110190565b613d83613d8c6020936103d293613d77815190565b80835293849260200190565b95869101613cc5565b601f01601f191690565b602080825261033892910190613d62565b90613db56122cc828461265b565b613dbd575050565b613e0761033861157593613def613ddf613dd9613e1396613eb7565b92613cbc565b613de96020610969565b90613f7a565b90613df960405190565b938492602084019283613d07565b90810382520382611101565b60405162461bcd60e51b815291829160048301613d96565b15613e3257565b60405162461bcd60e51b815260206004820152601460248201527f5061757361626c653a206e6f74207061757365640000000000000000000000006044820152606490fd5b610322613e82611e0c565b613e2b565b610338610338610338926001600160a01b031690565b6103386014611229565b6103386103386103389260ff1690565b613ed4613ecf61033892613ec9606090565b5061068c565b613e87565b613de9613edf613e9d565b613ea7565b9061032261121c613ef4846116f1565b936116d4565b90613f03825190565b811015610b09570160200190565b61033890613f256108766103389460ff1690565b901c90565b15613f3157565b60405162461bcd60e51b815280611575600482016020808252818101527f537472696e67733a20686578206c656e67746820696e73756666696369656e74604082015260600190565b613fa2613f9d613f9384613f8e6002610969565b611669565b612f516002610969565b613ee4565b916030613fb7613fb15f610969565b85613efa565b53600f60fb1b613ff0613fe760019384935f1a613fdc613fd686610969565b89613efa565b53613f8e6002610969565b612f5183610969565b915b614013575b5050906103386103389261400d6108765f610969565b14613f2a565b909161401e82610969565b83111561408c576f181899199a1a9b1b9c1cb0b131b232b360811b614043600f610969565b8216906010821015610b0957839261406361408092614086941a60f81b90565b5f1a61406f8789613efa565b5361407a6004611229565b90613f11565b93611fec565b91613ff2565b91613ff756fea49807205ce4d355092ef5a8a18f56e8913cf4a201fbe287825b095693c21775a264697066735822122002741a4e038a4f13ff89c43215f6c198896c3f97a29e29d70118696d486c3bb964736f6c634300081c0033",
  "linkReferences": {},
  "deployedLinkReferences": {}
}