{
  "_format": "hh-sol-artifact-1",
  "contractName": "GameifiedMarketplaceCoreV1",
  "sourceName": "contracts/Marketplace/GameifiedMarketplaceCoreV1.sol",
  "abi": [
    {
      "inputs": [],
      "stateMutability": "nonpayable",
      "type": "constructor"
    },
    {
      "inputs": [],
      "name": "InsufficientPayment",
      "type": "error"
    },
    {
      "inputs": [],
      "name": "NoOffersAvailable",
      "type": "error"
    },
    {
      "inputs": [],
      "name": "NotTokenOwner",
      "type": "error"
    },
    {
      "inputs": [],
      "name": "TokenNotFound",
      "type": "error"
    },
    {
      "inputs": [],
      "name": "TokenNotListed",
      "type": "error"
    },
    {
      "anonymous": false,
      "inputs": [
        {
          "indexed": false,
          "internalType": "address",
          "name": "previousAdmin",
          "type": "address"
        },
        {
          "indexed": false,
          "internalType": "address",
          "name": "newAdmin",
          "type": "address"
        }
      ],
      "name": "AdminChanged",
      "type": "event"
    },
    {
      "anonymous": false,
      "inputs": [
        {
          "indexed": true,
          "internalType": "address",
          "name": "owner",
          "type": "address"
        },
        {
          "indexed": true,
          "internalType": "address",
          "name": "approved",
          "type": "address"
        },
        {
          "indexed": true,
          "internalType": "uint256",
          "name": "tokenId",
          "type": "uint256"
        }
      ],
      "name": "Approval",
      "type": "event"
    },
    {
      "anonymous": false,
      "inputs": [
        {
          "indexed": true,
          "internalType": "address",
          "name": "owner",
          "type": "address"
        },
        {
          "indexed": true,
          "internalType": "address",
          "name": "operator",
          "type": "address"
        },
        {
          "indexed": false,
          "internalType": "bool",
          "name": "approved",
          "type": "bool"
        }
      ],
      "name": "ApprovalForAll",
      "type": "event"
    },
    {
      "anonymous": false,
      "inputs": [
        {
          "indexed": false,
          "internalType": "uint256",
          "name": "_fromTokenId",
          "type": "uint256"
        },
        {
          "indexed": false,
          "internalType": "uint256",
          "name": "_toTokenId",
          "type": "uint256"
        }
      ],
      "name": "BatchMetadataUpdate",
      "type": "event"
    },
    {
      "anonymous": false,
      "inputs": [
        {
          "indexed": true,
          "internalType": "address",
          "name": "beacon",
          "type": "address"
        }
      ],
      "name": "BeaconUpgraded",
      "type": "event"
    },
    {
      "anonymous": false,
      "inputs": [
        {
          "indexed": true,
          "internalType": "address",
          "name": "user",
          "type": "address"
        },
        {
          "indexed": true,
          "internalType": "uint256",
          "name": "tokenId",
          "type": "uint256"
        },
        {
          "indexed": false,
          "internalType": "string",
          "name": "comment",
          "type": "string"
        }
      ],
      "name": "CommentAdded",
      "type": "event"
    },
    {
      "anonymous": false,
      "inputs": [
        {
          "indexed": false,
          "internalType": "uint8",
          "name": "version",
          "type": "uint8"
        }
      ],
      "name": "Initialized",
      "type": "event"
    },
    {
      "anonymous": false,
      "inputs": [
        {
          "indexed": true,
          "internalType": "address",
          "name": "user",
          "type": "address"
        },
        {
          "indexed": false,
          "internalType": "uint8",
          "name": "newLevel",
          "type": "uint8"
        }
      ],
      "name": "LevelUp",
      "type": "event"
    },
    {
      "anonymous": false,
      "inputs": [
        {
          "indexed": true,
          "internalType": "address",
          "name": "user",
          "type": "address"
        },
        {
          "indexed": true,
          "internalType": "uint256",
          "name": "tokenId",
          "type": "uint256"
        },
        {
          "indexed": false,
          "internalType": "bool",
          "name": "liked",
          "type": "bool"
        }
      ],
      "name": "LikeToggled",
      "type": "event"
    },
    {
      "anonymous": false,
      "inputs": [
        {
          "indexed": false,
          "internalType": "uint256",
          "name": "_tokenId",
          "type": "uint256"
        }
      ],
      "name": "MetadataUpdate",
      "type": "event"
    },
    {
      "anonymous": false,
      "inputs": [
        {
          "indexed": true,
          "internalType": "address",
          "name": "seller",
          "type": "address"
        },
        {
          "indexed": true,
          "internalType": "address",
          "name": "buyer",
          "type": "address"
        },
        {
          "indexed": true,
          "internalType": "uint256",
          "name": "tokenId",
          "type": "uint256"
        },
        {
          "indexed": false,
          "internalType": "uint256",
          "name": "amount",
          "type": "uint256"
        }
      ],
      "name": "OfferAccepted",
      "type": "event"
    },
    {
      "anonymous": false,
      "inputs": [
        {
          "indexed": true,
          "internalType": "address",
          "name": "offeror",
          "type": "address"
        },
        {
          "indexed": true,
          "internalType": "uint256",
          "name": "tokenId",
          "type": "uint256"
        },
        {
          "indexed": false,
          "internalType": "uint256",
          "name": "amount",
          "type": "uint256"
        }
      ],
      "name": "OfferMade",
      "type": "event"
    },
    {
      "anonymous": false,
      "inputs": [
        {
          "indexed": false,
          "internalType": "address",
          "name": "account",
          "type": "address"
        }
      ],
      "name": "Paused",
      "type": "event"
    },
    {
      "anonymous": false,
      "inputs": [
        {
          "indexed": true,
          "internalType": "address",
          "name": "seller",
          "type": "address"
        },
        {
          "indexed": true,
          "internalType": "uint256",
          "name": "tokenId",
          "type": "uint256"
        },
        {
          "indexed": false,
          "internalType": "uint256",
          "name": "newPrice",
          "type": "uint256"
        }
      ],
      "name": "PriceUpdated",
      "type": "event"
    },
    {
      "anonymous": false,
      "inputs": [
        {
          "indexed": true,
          "internalType": "bytes32",
          "name": "role",
          "type": "bytes32"
        },
        {
          "indexed": true,
          "internalType": "bytes32",
          "name": "previousAdminRole",
          "type": "bytes32"
        },
        {
          "indexed": true,
          "internalType": "bytes32",
          "name": "newAdminRole",
          "type": "bytes32"
        }
      ],
      "name": "RoleAdminChanged",
      "type": "event"
    },
    {
      "anonymous": false,
      "inputs": [
        {
          "indexed": true,
          "internalType": "bytes32",
          "name": "role",
          "type": "bytes32"
        },
        {
          "indexed": true,
          "internalType": "address",
          "name": "account",
          "type": "address"
        },
        {
          "indexed": true,
          "internalType": "address",
          "name": "sender",
          "type": "address"
        }
      ],
      "name": "RoleGranted",
      "type": "event"
    },
    {
      "anonymous": false,
      "inputs": [
        {
          "indexed": true,
          "internalType": "bytes32",
          "name": "role",
          "type": "bytes32"
        },
        {
          "indexed": true,
          "internalType": "address",
          "name": "account",
          "type": "address"
        },
        {
          "indexed": true,
          "internalType": "address",
          "name": "sender",
          "type": "address"
        }
      ],
      "name": "RoleRevoked",
      "type": "event"
    },
    {
      "anonymous": false,
      "inputs": [
        {
          "indexed": true,
          "internalType": "address",
          "name": "creator",
          "type": "address"
        },
        {
          "indexed": true,
          "internalType": "uint256",
          "name": "tokenId",
          "type": "uint256"
        },
        {
          "indexed": false,
          "internalType": "string",
          "name": "uri",
          "type": "string"
        }
      ],
      "name": "TokenCreated",
      "type": "event"
    },
    {
      "anonymous": false,
      "inputs": [
        {
          "indexed": true,
          "internalType": "address",
          "name": "seller",
          "type": "address"
        },
        {
          "indexed": true,
          "internalType": "uint256",
          "name": "tokenId",
          "type": "uint256"
        },
        {
          "indexed": false,
          "internalType": "uint256",
          "name": "price",
          "type": "uint256"
        }
      ],
      "name": "TokenListed",
      "type": "event"
    },
    {
      "anonymous": false,
      "inputs": [
        {
          "indexed": true,
          "internalType": "address",
          "name": "seller",
          "type": "address"
        },
        {
          "indexed": true,
          "internalType": "address",
          "name": "buyer",
          "type": "address"
        },
        {
          "indexed": true,
          "internalType": "uint256",
          "name": "tokenId",
          "type": "uint256"
        },
        {
          "indexed": false,
          "internalType": "uint256",
          "name": "price",
          "type": "uint256"
        }
      ],
      "name": "TokenSold",
      "type": "event"
    },
    {
      "anonymous": false,
      "inputs": [
        {
          "indexed": true,
          "internalType": "address",
          "name": "seller",
          "type": "address"
        },
        {
          "indexed": true,
          "internalType": "uint256",
          "name": "tokenId",
          "type": "uint256"
        }
      ],
      "name": "TokenUnlisted",
      "type": "event"
    },
    {
      "anonymous": false,
      "inputs": [
        {
          "indexed": true,
          "internalType": "address",
          "name": "from",
          "type": "address"
        },
        {
          "indexed": true,
          "internalType": "address",
          "name": "to",
          "type": "address"
        },
        {
          "indexed": true,
          "internalType": "uint256",
          "name": "tokenId",
          "type": "uint256"
        }
      ],
      "name": "Transfer",
      "type": "event"
    },
    {
      "anonymous": false,
      "inputs": [
        {
          "indexed": false,
          "internalType": "address",
          "name": "account",
          "type": "address"
        }
      ],
      "name": "Unpaused",
      "type": "event"
    },
    {
      "anonymous": false,
      "inputs": [
        {
          "indexed": true,
          "internalType": "address",
          "name": "implementation",
          "type": "address"
        }
      ],
      "name": "Upgraded",
      "type": "event"
    },
    {
      "anonymous": false,
      "inputs": [
        {
          "indexed": true,
          "internalType": "address",
          "name": "user",
          "type": "address"
        },
        {
          "indexed": false,
          "internalType": "uint256",
          "name": "amount",
          "type": "uint256"
        },
        {
          "indexed": false,
          "internalType": "string",
          "name": "reason",
          "type": "string"
        }
      ],
      "name": "XPGained",
      "type": "event"
    },
    {
      "inputs": [],
      "name": "ADMIN_ROLE",
      "outputs": [
        {
          "internalType": "bytes32",
          "name": "",
          "type": "bytes32"
        }
      ],
      "stateMutability": "view",
      "type": "function"
    },
    {
      "inputs": [],
      "name": "DEFAULT_ADMIN_ROLE",
      "outputs": [
        {
          "internalType": "bytes32",
          "name": "",
          "type": "bytes32"
        }
      ],
      "stateMutability": "view",
      "type": "function"
    },
    {
      "inputs": [],
      "name": "PLATFORM_FEE_PERCENTAGE",
      "outputs": [
        {
          "internalType": "uint256",
          "name": "",
          "type": "uint256"
        }
      ],
      "stateMutability": "view",
      "type": "function"
    },
    {
      "inputs": [],
      "name": "UPGRADER_ROLE",
      "outputs": [
        {
          "internalType": "bytes32",
          "name": "",
          "type": "bytes32"
        }
      ],
      "stateMutability": "view",
      "type": "function"
    },
    {
      "inputs": [
        {
          "internalType": "uint256",
          "name": "_tokenId",
          "type": "uint256"
        },
        {
          "internalType": "uint256",
          "name": "_offerIndex",
          "type": "uint256"
        }
      ],
      "name": "acceptOffer",
      "outputs": [],
      "stateMutability": "nonpayable",
      "type": "function"
    },
    {
      "inputs": [
        {
          "internalType": "uint256",
          "name": "_tokenId",
          "type": "uint256"
        },
        {
          "internalType": "string",
          "name": "_text",
          "type": "string"
        }
      ],
      "name": "addComment",
      "outputs": [],
      "stateMutability": "nonpayable",
      "type": "function"
    },
    {
      "inputs": [
        {
          "internalType": "address",
          "name": "to",
          "type": "address"
        },
        {
          "internalType": "uint256",
          "name": "tokenId",
          "type": "uint256"
        }
      ],
      "name": "approve",
      "outputs": [],
      "stateMutability": "nonpayable",
      "type": "function"
    },
    {
      "inputs": [
        {
          "internalType": "address",
          "name": "owner",
          "type": "address"
        }
      ],
      "name": "balanceOf",
      "outputs": [
        {
          "internalType": "uint256",
          "name": "",
          "type": "uint256"
        }
      ],
      "stateMutability": "view",
      "type": "function"
    },
    {
      "inputs": [
        {
          "internalType": "uint256",
          "name": "_tokenId",
          "type": "uint256"
        }
      ],
      "name": "buyToken",
      "outputs": [],
      "stateMutability": "payable",
      "type": "function"
    },
    {
      "inputs": [
        {
          "internalType": "uint256",
          "name": "_tokenId",
          "type": "uint256"
        },
        {
          "internalType": "uint256",
          "name": "_offerIndex",
          "type": "uint256"
        }
      ],
      "name": "cancelOffer",
      "outputs": [],
      "stateMutability": "nonpayable",
      "type": "function"
    },
    {
      "inputs": [
        {
          "internalType": "string",
          "name": "_tokenURI",
          "type": "string"
        },
        {
          "internalType": "string",
          "name": "_category",
          "type": "string"
        },
        {
          "internalType": "uint96",
          "name": "_royaltyPercentage",
          "type": "uint96"
        }
      ],
      "name": "createStandardNFT",
      "outputs": [
        {
          "internalType": "uint256",
          "name": "",
          "type": "uint256"
        }
      ],
      "stateMutability": "nonpayable",
      "type": "function"
    },
    {
      "inputs": [
        {
          "internalType": "uint256",
          "name": "tokenId",
          "type": "uint256"
        }
      ],
      "name": "getApproved",
      "outputs": [
        {
          "internalType": "address",
          "name": "",
          "type": "address"
        }
      ],
      "stateMutability": "view",
      "type": "function"
    },
    {
      "inputs": [
        {
          "internalType": "bytes32",
          "name": "role",
          "type": "bytes32"
        }
      ],
      "name": "getRoleAdmin",
      "outputs": [
        {
          "internalType": "bytes32",
          "name": "",
          "type": "bytes32"
        }
      ],
      "stateMutability": "view",
      "type": "function"
    },
    {
      "inputs": [
        {
          "internalType": "address",
          "name": "_user",
          "type": "address"
        }
      ],
      "name": "getUserProfile",
      "outputs": [
        {
          "components": [
            {
              "internalType": "uint256",
              "name": "totalXP",
              "type": "uint256"
            },
            {
              "internalType": "uint8",
              "name": "level",
              "type": "uint8"
            },
            {
              "internalType": "uint256",
              "name": "nftsCreated",
              "type": "uint256"
            },
            {
              "internalType": "uint256",
              "name": "nftsOwned",
              "type": "uint256"
            },
            {
              "internalType": "uint32",
              "name": "nftsSold",
              "type": "uint32"
            },
            {
              "internalType": "uint32",
              "name": "nftsBought",
              "type": "uint32"
            }
          ],
          "internalType": "struct GameifiedMarketplaceCoreV1.UserProfile",
          "name": "",
          "type": "tuple"
        }
      ],
      "stateMutability": "view",
      "type": "function"
    },
    {
      "inputs": [
        {
          "internalType": "bytes32",
          "name": "role",
          "type": "bytes32"
        },
        {
          "internalType": "address",
          "name": "account",
          "type": "address"
        }
      ],
      "name": "grantRole",
      "outputs": [],
      "stateMutability": "nonpayable",
      "type": "function"
    },
    {
      "inputs": [
        {
          "internalType": "bytes32",
          "name": "role",
          "type": "bytes32"
        },
        {
          "internalType": "address",
          "name": "account",
          "type": "address"
        }
      ],
      "name": "hasRole",
      "outputs": [
        {
          "internalType": "bool",
          "name": "",
          "type": "bool"
        }
      ],
      "stateMutability": "view",
      "type": "function"
    },
    {
      "inputs": [
        {
          "internalType": "address",
          "name": "_platformTreasury",
          "type": "address"
        }
      ],
      "name": "initialize",
      "outputs": [],
      "stateMutability": "nonpayable",
      "type": "function"
    },
    {
      "inputs": [
        {
          "internalType": "address",
          "name": "owner",
          "type": "address"
        },
        {
          "internalType": "address",
          "name": "operator",
          "type": "address"
        }
      ],
      "name": "isApprovedForAll",
      "outputs": [
        {
          "internalType": "bool",
          "name": "",
          "type": "bool"
        }
      ],
      "stateMutability": "view",
      "type": "function"
    },
    {
      "inputs": [
        {
          "internalType": "uint256",
          "name": "",
          "type": "uint256"
        }
      ],
      "name": "isListed",
      "outputs": [
        {
          "internalType": "bool",
          "name": "",
          "type": "bool"
        }
      ],
      "stateMutability": "view",
      "type": "function"
    },
    {
      "inputs": [
        {
          "internalType": "uint256",
          "name": "_tokenId",
          "type": "uint256"
        },
        {
          "internalType": "uint256",
          "name": "_price",
          "type": "uint256"
        },
        {
          "internalType": "string",
          "name": "",
          "type": "string"
        }
      ],
      "name": "listTokenForSale",
      "outputs": [],
      "stateMutability": "nonpayable",
      "type": "function"
    },
    {
      "inputs": [
        {
          "internalType": "uint256",
          "name": "",
          "type": "uint256"
        }
      ],
      "name": "listedPrice",
      "outputs": [
        {
          "internalType": "uint256",
          "name": "",
          "type": "uint256"
        }
      ],
      "stateMutability": "view",
      "type": "function"
    },
    {
      "inputs": [
        {
          "internalType": "uint256",
          "name": "_tokenId",
          "type": "uint256"
        },
        {
          "internalType": "uint8",
          "name": "_expiresInDays",
          "type": "uint8"
        }
      ],
      "name": "makeOffer",
      "outputs": [],
      "stateMutability": "payable",
      "type": "function"
    },
    {
      "inputs": [],
      "name": "name",
      "outputs": [
        {
          "internalType": "string",
          "name": "",
          "type": "string"
        }
      ],
      "stateMutability": "view",
      "type": "function"
    },
    {
      "inputs": [
        {
          "internalType": "uint256",
          "name": "",
          "type": "uint256"
        },
        {
          "internalType": "uint256",
          "name": "",
          "type": "uint256"
        }
      ],
      "name": "nftComments",
      "outputs": [
        {
          "internalType": "string",
          "name": "",
          "type": "string"
        }
      ],
      "stateMutability": "view",
      "type": "function"
    },
    {
      "inputs": [
        {
          "internalType": "uint256",
          "name": "",
          "type": "uint256"
        }
      ],
      "name": "nftLikeCount",
      "outputs": [
        {
          "internalType": "uint256",
          "name": "",
          "type": "uint256"
        }
      ],
      "stateMutability": "view",
      "type": "function"
    },
    {
      "inputs": [
        {
          "internalType": "uint256",
          "name": "",
          "type": "uint256"
        },
        {
          "internalType": "address",
          "name": "",
          "type": "address"
        }
      ],
      "name": "nftLikes",
      "outputs": [
        {
          "internalType": "bool",
          "name": "",
          "type": "bool"
        }
      ],
      "stateMutability": "view",
      "type": "function"
    },
    {
      "inputs": [
        {
          "internalType": "uint256",
          "name": "",
          "type": "uint256"
        }
      ],
      "name": "nftMetadata",
      "outputs": [
        {
          "internalType": "address",
          "name": "creator",
          "type": "address"
        },
        {
          "internalType": "string",
          "name": "uri",
          "type": "string"
        },
        {
          "internalType": "string",
          "name": "category",
          "type": "string"
        },
        {
          "internalType": "uint256",
          "name": "createdAt",
          "type": "uint256"
        },
        {
          "internalType": "uint96",
          "name": "royaltyPercentage",
          "type": "uint96"
        }
      ],
      "stateMutability": "view",
      "type": "function"
    },
    {
      "inputs": [
        {
          "internalType": "uint256",
          "name": "",
          "type": "uint256"
        },
        {
          "internalType": "uint256",
          "name": "",
          "type": "uint256"
        }
      ],
      "name": "nftOffers",
      "outputs": [
        {
          "internalType": "address",
          "name": "offeror",
          "type": "address"
        },
        {
          "internalType": "uint256",
          "name": "amount",
          "type": "uint256"
        },
        {
          "internalType": "uint8",
          "name": "expiresInDays",
          "type": "uint8"
        },
        {
          "internalType": "uint256",
          "name": "timestamp",
          "type": "uint256"
        }
      ],
      "stateMutability": "view",
      "type": "function"
    },
    {
      "inputs": [
        {
          "internalType": "uint256",
          "name": "tokenId",
          "type": "uint256"
        }
      ],
      "name": "ownerOf",
      "outputs": [
        {
          "internalType": "address",
          "name": "",
          "type": "address"
        }
      ],
      "stateMutability": "view",
      "type": "function"
    },
    {
      "inputs": [],
      "name": "pause",
      "outputs": [],
      "stateMutability": "nonpayable",
      "type": "function"
    },
    {
      "inputs": [],
      "name": "paused",
      "outputs": [
        {
          "internalType": "bool",
          "name": "",
          "type": "bool"
        }
      ],
      "stateMutability": "view",
      "type": "function"
    },
    {
      "inputs": [],
      "name": "platformTreasury",
      "outputs": [
        {
          "internalType": "address",
          "name": "",
          "type": "address"
        }
      ],
      "stateMutability": "view",
      "type": "function"
    },
    {
      "inputs": [],
      "name": "proxiableUUID",
      "outputs": [
        {
          "internalType": "bytes32",
          "name": "",
          "type": "bytes32"
        }
      ],
      "stateMutability": "view",
      "type": "function"
    },
    {
      "inputs": [],
      "name": "questsContractAddress",
      "outputs": [
        {
          "internalType": "address",
          "name": "",
          "type": "address"
        }
      ],
      "stateMutability": "view",
      "type": "function"
    },
    {
      "inputs": [
        {
          "internalType": "bytes32",
          "name": "role",
          "type": "bytes32"
        },
        {
          "internalType": "address",
          "name": "account",
          "type": "address"
        }
      ],
      "name": "renounceRole",
      "outputs": [],
      "stateMutability": "nonpayable",
      "type": "function"
    },
    {
      "inputs": [
        {
          "internalType": "bytes32",
          "name": "role",
          "type": "bytes32"
        },
        {
          "internalType": "address",
          "name": "account",
          "type": "address"
        }
      ],
      "name": "revokeRole",
      "outputs": [],
      "stateMutability": "nonpayable",
      "type": "function"
    },
    {
      "inputs": [
        {
          "internalType": "uint256",
          "name": "tokenId",
          "type": "uint256"
        },
        {
          "internalType": "uint256",
          "name": "salePrice",
          "type": "uint256"
        }
      ],
      "name": "royaltyInfo",
      "outputs": [
        {
          "internalType": "address",
          "name": "",
          "type": "address"
        },
        {
          "internalType": "uint256",
          "name": "",
          "type": "uint256"
        }
      ],
      "stateMutability": "view",
      "type": "function"
    },
    {
      "inputs": [
        {
          "internalType": "address",
          "name": "from",
          "type": "address"
        },
        {
          "internalType": "address",
          "name": "to",
          "type": "address"
        },
        {
          "internalType": "uint256",
          "name": "tokenId",
          "type": "uint256"
        }
      ],
      "name": "safeTransferFrom",
      "outputs": [],
      "stateMutability": "nonpayable",
      "type": "function"
    },
    {
      "inputs": [
        {
          "internalType": "address",
          "name": "from",
          "type": "address"
        },
        {
          "internalType": "address",
          "name": "to",
          "type": "address"
        },
        {
          "internalType": "uint256",
          "name": "tokenId",
          "type": "uint256"
        },
        {
          "internalType": "bytes",
          "name": "data",
          "type": "bytes"
        }
      ],
      "name": "safeTransferFrom",
      "outputs": [],
      "stateMutability": "nonpayable",
      "type": "function"
    },
    {
      "inputs": [
        {
          "internalType": "address",
          "name": "operator",
          "type": "address"
        },
        {
          "internalType": "bool",
          "name": "approved",
          "type": "bool"
        }
      ],
      "name": "setApprovalForAll",
      "outputs": [],
      "stateMutability": "nonpayable",
      "type": "function"
    },
    {
      "inputs": [
        {
          "internalType": "address",
          "name": "_questsAddress",
          "type": "address"
        }
      ],
      "name": "setQuestsContract",
      "outputs": [],
      "stateMutability": "nonpayable",
      "type": "function"
    },
    {
      "inputs": [
        {
          "internalType": "address",
          "name": "_skillsAddress",
          "type": "address"
        }
      ],
      "name": "setSkillsContract",
      "outputs": [],
      "stateMutability": "nonpayable",
      "type": "function"
    },
    {
      "inputs": [
        {
          "internalType": "address",
          "name": "_stakingAddress",
          "type": "address"
        }
      ],
      "name": "setStakingContract",
      "outputs": [],
      "stateMutability": "nonpayable",
      "type": "function"
    },
    {
      "inputs": [],
      "name": "skillsContractAddress",
      "outputs": [
        {
          "internalType": "address",
          "name": "",
          "type": "address"
        }
      ],
      "stateMutability": "view",
      "type": "function"
    },
    {
      "inputs": [],
      "name": "stakingContractAddress",
      "outputs": [
        {
          "internalType": "address",
          "name": "",
          "type": "address"
        }
      ],
      "stateMutability": "view",
      "type": "function"
    },
    {
      "inputs": [
        {
          "internalType": "bytes4",
          "name": "interfaceId",
          "type": "bytes4"
        }
      ],
      "name": "supportsInterface",
      "outputs": [
        {
          "internalType": "bool",
          "name": "",
          "type": "bool"
        }
      ],
      "stateMutability": "view",
      "type": "function"
    },
    {
      "inputs": [],
      "name": "symbol",
      "outputs": [
        {
          "internalType": "string",
          "name": "",
          "type": "string"
        }
      ],
      "stateMutability": "view",
      "type": "function"
    },
    {
      "inputs": [
        {
          "internalType": "uint256",
          "name": "_tokenId",
          "type": "uint256"
        }
      ],
      "name": "toggleLike",
      "outputs": [],
      "stateMutability": "nonpayable",
      "type": "function"
    },
    {
      "inputs": [
        {
          "internalType": "uint256",
          "name": "tokenId",
          "type": "uint256"
        }
      ],
      "name": "tokenURI",
      "outputs": [
        {
          "internalType": "string",
          "name": "",
          "type": "string"
        }
      ],
      "stateMutability": "view",
      "type": "function"
    },
    {
      "inputs": [
        {
          "internalType": "address",
          "name": "from",
          "type": "address"
        },
        {
          "internalType": "address",
          "name": "to",
          "type": "address"
        },
        {
          "internalType": "uint256",
          "name": "tokenId",
          "type": "uint256"
        }
      ],
      "name": "transferFrom",
      "outputs": [],
      "stateMutability": "nonpayable",
      "type": "function"
    },
    {
      "inputs": [
        {
          "internalType": "uint256",
          "name": "_tokenId",
          "type": "uint256"
        }
      ],
      "name": "unlistToken",
      "outputs": [],
      "stateMutability": "nonpayable",
      "type": "function"
    },
    {
      "inputs": [],
      "name": "unpause",
      "outputs": [],
      "stateMutability": "nonpayable",
      "type": "function"
    },
    {
      "inputs": [
        {
          "internalType": "uint256",
          "name": "_tokenId",
          "type": "uint256"
        },
        {
          "internalType": "uint256",
          "name": "_newPrice",
          "type": "uint256"
        }
      ],
      "name": "updatePrice",
      "outputs": [],
      "stateMutability": "nonpayable",
      "type": "function"
    },
    {
      "inputs": [
        {
          "internalType": "address",
          "name": "_user",
          "type": "address"
        },
        {
          "internalType": "uint256",
          "name": "_amount",
          "type": "uint256"
        }
      ],
      "name": "updateUserXP",
      "outputs": [],
      "stateMutability": "nonpayable",
      "type": "function"
    },
    {
      "inputs": [
        {
          "internalType": "address",
          "name": "newImplementation",
          "type": "address"
        }
      ],
      "name": "upgradeTo",
      "outputs": [],
      "stateMutability": "nonpayable",
      "type": "function"
    },
    {
      "inputs": [
        {
          "internalType": "address",
          "name": "newImplementation",
          "type": "address"
        },
        {
          "internalType": "bytes",
          "name": "data",
          "type": "bytes"
        }
      ],
      "name": "upgradeToAndCall",
      "outputs": [],
      "stateMutability": "payable",
      "type": "function"
    },
    {
      "inputs": [
        {
          "internalType": "address",
          "name": "",
          "type": "address"
        }
      ],
      "name": "userBalance",
      "outputs": [
        {
          "internalType": "uint256",
          "name": "",
          "type": "uint256"
        }
      ],
      "stateMutability": "view",
      "type": "function"
    },
    {
      "inputs": [
        {
          "internalType": "address",
          "name": "",
          "type": "address"
        }
      ],
      "name": "userProfiles",
      "outputs": [
        {
          "internalType": "uint256",
          "name": "totalXP",
          "type": "uint256"
        },
        {
          "internalType": "uint8",
          "name": "level",
          "type": "uint8"
        },
        {
          "internalType": "uint256",
          "name": "nftsCreated",
          "type": "uint256"
        },
        {
          "internalType": "uint256",
          "name": "nftsOwned",
          "type": "uint256"
        },
        {
          "internalType": "uint32",
          "name": "nftsSold",
          "type": "uint32"
        },
        {
          "internalType": "uint32",
          "name": "nftsBought",
          "type": "uint32"
        }
      ],
      "stateMutability": "view",
      "type": "function"
    }
  ],
  "bytecode": "0x60a06040523461003257610011610108565b60405161547561051a8239608051818181611f5e0152612121015261547590f35b5f80fd5b634e487b7160e01b5f52604160045260245ffd5b90601f01601f191681019081106001600160401b0382111761006b57604052565b610036565b9061008461007d60405190565b928361004a565b565b6001600160401b03811161006b57602090601f01601f19160190565b906100b46100af83610086565b610070565b918252565b6100c3600c6100a2565b6b11d85b595a599a595913919560a21b602082015290565b6100e36100b9565b90565b6100f060046100a2565b6311d3919560e21b602082015290565b6100e36100e6565b6101216101136100db565b61011b610100565b9061015b565b6100846104aa565b6100e39061013d906001600160a01b031682565b6001600160a01b031690565b6100e390610129565b6100e390610149565b9061016591610173565b61016e30610152565b608052565b610084918291829182916101ac565b9060ff905b9181191691161790565b906101a16100e36101a892151590565b8254610182565b9055565b906101b6916101f8565b6100845f600b610191565b6100e36100e36100e39290565b6100e360016101c1565b905f1990610187565b906101f16100e36101a8926101c1565b82546101d8565b9061020291610214565b61008461020d6101ce565b600a6101e1565b6100849182918291906103d6565b634e487b7160e01b5f52602260045260245ffd5b9060016002830492168015610256575b602083101461025157565b610222565b91607f1691610246565b915f1960089290920291821b911b610187565b91906102846100e36101a8936101c1565b908354610260565b610084915f91610273565b8181106102a2575050565b806102af5f60019361028c565b01610297565b9190601f81116102c457505050565b6102d4610084935f5260205f2090565b906020601f8401819004830193106102f6575b6020601f909101040190610297565b90915081906102e7565b90610309815190565b906001600160401b03821161006b5761032c826103268554610236565b856102b5565b602090601f8311600114610365576101a892915f918361035a575b50505f19600883021c1916906002021790565b015190505f80610347565b601f19831691610378855f5260205f2090565b925f5b8181106103b45750916002939185600196941061039c575b50505002019055565b01515f196008601f8516021c191690555f8080610393565b9193602060018192878701518155019501920161037b565b9061008491610300565b906103e56100849260026103cc565b60036103cc565b6100e39060101c5b60ff1690565b6100e390546103ec565b1561040b57565b60405162461bcd60e51b815260206004820152602760248201527f496e697469616c697a61626c653a20636f6e747261637420697320696e697469604482015266616c697a696e6760c81b6064820152608490fd5b6100e39060081c6103f4565b6100e39054610460565b9061ff009060081b610187565b6103f46100e36100e39260ff1690565b906104a36100e36101a892610483565b8254610476565b6104c36104be6104ba600b6103fa565b1590565b610404565b6104cd600b61046c565b60ff908116036104d957565b6104e560ff600b610493565b7f7f26b83ff96e1f2b6a682f133852f6798a09c465da95921460cefb384740249861050f60405190565b60ff8152602090a156fe60806040526004361015610011575f80fd5b5f3560e01c80630103c92b146103b057806301ffc9a7146103ab57806306fdde03146103a6578063081812fc146103a1578063095ea7b31461039c578063155482321461039757806323b872dd14610392578063248a9ca31461038d5780632a55205a146103885780632d296bf1146103835780632f2ff15d1461037e578063332d56d7146103795780633535f48b1461037457806336568abe1461036f5780633659cfe61461036a5780633c039039146103655780633f4ba83a1461036057806342842e0e1461035b57806349541015146103565780634f1ef2861461035157806352d1902d1461034c57806354398d1814610347578063578eaf44146103425780635c975abb1461033d5780635efc27d614610338578063602dcf29146103335780636352211e1461032e578063638ac8d31461032957806370a082311461032457806375b238fc1461031f57806377ea168e1461031a5780637de7ff081461031557806381257bd51461031057806382367b2d1461030b5780638456cb59146103065780638cf531021461030157806391d14854146102fc57806395d89b41146102f7578063987ee156146102f25780639dd373b9146102ed578063a217fddf146102e8578063a22cb465146102e3578063aa7e5683146102de578063ad3a358c146102d9578063b88d4fde146102d4578063bd4ad42f146102cf578063c4d66de8146102ca578063c87b56dd146102c5578063cb8c8a15146102c0578063d45557cc146102bb578063d489be26146102b6578063d547741f146102b1578063e138818c146102ac578063e5a818f8146102a7578063e985e9c5146102a2578063f72c0d8b1461029d578063f748efb8146102985763fcce4883036103b5576114af565b611488565b61144f565b611433565b6113fc565b6113d2565b6113ae565b611392565b611312565b6112f7565b6112cd565b6112b5565b61129a565b611273565b61120b565b6111f2565b6111a3565b611150565b611127565b611100565b61107f565b611063565b61104b565b611033565b61101a565b611001565b610fe2565b610f3b565b610e4d565b610e32565b610e16565b610dc6565b610db2565b610d60565b610d45565b610d29565b610c9b565b610c80565b610c6c565b610b7f565b610963565b61094b565b610930565b61090d565b6108f4565b6108d9565b610882565b610769565b610733565b610704565b6106ac565b610693565b61064f565b610612565b6105ba565b61056c565b6104ca565b610469565b5f80fd5b6001600160a01b031690565b90565b6001600160a01b0381165b036103b557565b905035906103e7826103c8565b565b906020828203126103b5576103c5916103da565b6103b96103c56103c5926001600160a01b031690565b6103c5906103fd565b6103c590610413565b9061042f9061041c565b5f5260205260405f2090565b6103c5916008021c81565b906103c5915461043b565b5f6104606103c5926015610425565b610446565b9052565b346103b55761049561048461047f3660046103e9565b610451565b6040515b9182918290815260200190565b0390f35b6001600160e01b031981166103d3565b905035906103e782610499565b906020828203126103b5576103c5916104a9565b346103b5576104956104e56104e03660046104b6565b6114ca565b6040515b91829182901515815260200190565b5f9103126103b557565b5f5b8381106105135750505f910152565b8181015183820152602001610504565b61054461054d60209361055793610538815190565b80835293849260200190565b95869101610502565b601f01601f191690565b0190565b60208082526103c592910190610523565b346103b55761057c3660046104f8565b6104956105876114dc565b6040519182918261055b565b806103d3565b905035906103e782610593565b906020828203126103b5576103c591610599565b346103b5576104956105d56105d03660046105a6565b6114e6565b604051918291826001600160a01b03909116815260200190565b91906040838203126103b5576103c590602061060b82866103da565b9401610599565b346103b55761062b6106253660046105ef565b906115d7565b604051005b6103c56103c56103c59290565b6103c56005610630565b6103c561063d565b346103b55761065f3660046104f8565b610495610484610647565b90916060828403126103b5576103c561068384846103da565b93604061060b82602087016103da565b346103b55761062b6106a636600461066a565b9161169a565b346103b5576104956104846106c23660046105a6565b6116bd565b91906040838203126103b5576103c590602061060b8286610599565b6001600160a01b0390911681526040810192916103e79160200152565b0152565b346103b55761071d6107173660046106c7565b906117ce565b9061049561072a60405190565b928392836106e3565b61062b6107413660046105a6565b611dca565b91906040838203126103b5576103c59060206107628286610599565b94016103da565b346103b55761062b61077c366004610746565b90611df3565b6103c59081565b6103c59054610782565b6103c5905b60ff1690565b6103c59054610793565b6103c5905b63ffffffff1690565b6103c590546107a8565b6103c59060201c6107ad565b6103c590546107c0565b6107e1906014610425565b906107eb82610789565b916107f86001820161079e565b9161080560028301610789565b9161081260038201610789565b916103c560046108238185016107b6565b93016107cc565b91946108696108769298979561086260a09661085b6103e79a61085160c08a019e5f8b0152565b60ff166020890152565b6040870152565b6060850152565b63ffffffff166080830152565b019063ffffffff169052565b346103b55761049561089d6108983660046103e9565b6107d6565b926108ad96949692919260405190565b9687968761082a565b6103c5916008021c6103b9565b906103c591546108b6565b6103c55f60196108c3565b346103b5576108e93660046104f8565b6104956105d56108ce565b346103b55761062b610907366004610746565b90611e61565b346103b55761062b6109203660046103e9565b61200b565b6103c55f60176108c3565b346103b5576109403660046104f8565b6104956105d5610925565b346103b55761095b3660046104f8565b61062b612035565b346103b55761062b61097636600461066a565b9161204e565b9061042f90610630565b6103c5906103b9565b6103c59054610986565b634e487b7160e01b5f52602260045260245ffd5b90600160028304921680156109cd575b60208310146109c857565b610999565b91607f16916109bd565b80545f9392916109f36109e9836109ad565b8085529360200190565b9160018116908115610a425750600114610a0c57505050565b610a1d91929394505f5260205f2090565b915f925b818410610a2e5750500190565b805484840152602090930192600101610a21565b92949550505060ff1916825215156020020190565b906103c5916109d7565b634e487b7160e01b5f52604160045260245ffd5b90601f01601f1916810190811067ffffffffffffffff821117610a9757604052565b610a61565b906103e7610ab692610aad60405190565b93848092610a57565b0383610a75565b6103c5905b6001600160601b031690565b6103c59054610abd565b610ae390600d61097c565b610aec8161098f565b91610af960018301610a9c565b91610b0660028201610a9c565b916103c56004610b1860038501610789565b9301610ace565b90610b686103e795979694610b5a610b7093608096610b4d60a08801925f8901906001600160a01b03169052565b8682036020880152610523565b908482036040860152610523565b966060830152565b01906001600160601b03169052565b346103b557610495610b9a610b953660046105a6565b610ad8565b91610ba795939560405190565b95869586610b1f565b906103e7610bbd60405190565b9283610a75565b67ffffffffffffffff8111610a9757602090601f01601f19160190565b90825f939282370152565b90929192610c01610bfc82610bc4565b610bb0565b93818552818301116103b5576103e7916020850190610be1565b9080601f830112156103b5578160206103c593359101610bec565b9190916040818403126103b557610c4d83826103da565b92602082013567ffffffffffffffff81116103b5576103c59201610c1b565b61062b610c7a366004610c36565b90612088565b346103b557610c903660046104f8565b610495610484612183565b346103b55761062b610cae3660046105a6565b61238a565b909182601f830112156103b55781359167ffffffffffffffff83116103b55760200192600183028401116103b557565b916060838303126103b557610cf88284610599565b92610d068360208301610599565b92604082013567ffffffffffffffff81116103b557610d259201610cb3565b9091565b346103b55761062b610d3c366004610ce3565b929190916124ab565b346103b557610d553660046104f8565b6104956104e56124b7565b346103b55761062b610d733660046105ef565b90612637565b60ff81166103d3565b905035906103e782610d79565b91906040838203126103b5576103c5906020610dab8286610599565b9401610d82565b61062b610dc0366004610d8f565b9061288a565b346103b5576104956105d5610ddc3660046105a6565b6128e0565b6103c5916008021c610798565b906103c59154610de1565b610e116103c592610e0c5f93601061097c565b610425565b610dee565b346103b5576104956104e5610e2c366004610746565b90610df9565b346103b557610495610484610e483660046103e9565b61296a565b346103b557610e5d3660046104f8565b6104955f5160206154005f395f51905f52610484565b634e487b7160e01b5f52603260045260245ffd5b8054821015610ea757610e9f6004915f5260205f2090565b910201905f90565b610e73565b610eb790601361097c565b90610ec0825490565b8110156103b557610ed091610e87565b5090610edb8261098f565b91610ee860018201610789565b916103c56003610efa6002850161079e565b9301610789565b6107006103e794610f31606094989795610f2a608086019a5f8701906001600160a01b03169052565b6020850152565b60ff166040830152565b346103b557610495610f57610f513660046106c7565b90610eac565b90610f6494929460405190565b94859485610f01565b6001600160601b0381166103d3565b905035906103e782610f6d565b6060818303126103b557803567ffffffffffffffff81116103b55782610fb0918301610cb3565b929093602083013567ffffffffffffffff81116103b55782610fd96040946103c5938701610cb3565b94909501610f7c565b346103b557610495610484610ff8366004610f89565b93929092612e46565b346103b55761062b6110143660046106c7565b90613287565b346103b55761062b61102d3660046106c7565b90613306565b346103b5576110433660046104f8565b61062b613331565b346103b55761062b61105e3660046103e9565b6133c1565b346103b5576104956104e5611079366004610746565b906133ca565b346103b55761108f3660046104f8565b6104956105876133e3565b805182526103e7919060a090819060208181015160ff16908501526110c460408201516040860152565b6110d360608201516060860152565b60808181015163ffffffff1690850152015163ffffffff16910152565b60c0810192916103e7919061109a565b346103b55761049561111b6111163660046103e9565b6134c8565b604051918291826110f0565b346103b55761062b61113a3660046103e9565b613518565b6103c55f610630565b6103c561113f565b346103b5576111603660046104f8565b610495610484611148565b8015156103d3565b905035906103e78261116b565b91906040838203126103b5576103c590602061119c82866103da565b9401611173565b346103b55761062b6111b6366004611180565b90613521565b9190916040818403126103b5576111d38382610599565b92602082013567ffffffffffffffff81116103b557610d259201610cb3565b346103b55761062b6112053660046111bc565b91613754565b346103b55761062b61121e3660046105a6565b6137ec565b906080828203126103b55761123881836103da565b9261124682602085016103da565b926112548360408301610599565b92606082013567ffffffffffffffff81116103b5576103c59201610c1b565b346103b55761062b611286366004611223565b929190916137f5565b6103c55f60186108c3565b346103b5576112aa3660046104f8565b6104956105d561128f565b346103b55761062b6112c83660046103e9565b613a8b565b346103b5576104956105876112e33660046105a6565b613a94565b5f6104606103c592601161097c565b346103b55761049561048461130d3660046105a6565b6112e8565b346103b55761062b6113253660046106c7565b90613c92565b8054821015610ea757610e9f6001915f5260205f2090565b634e487b7160e01b5f525f60045260245ffd5b905f10611366576103c590610a9c565b611343565b61137690601261097c565b80548210156103b5576103c59161138c9161132b565b90611356565b346103b5576104956105876113a83660046106c7565b9061136b565b346103b55761062b6113c1366004610746565b90613cb7565b6103c55f60166108c3565b346103b5576113e23660046104f8565b6104956105d56113c7565b5f6104606103c592600f61097c565b346103b5576104956104846114123660046105a6565b6113ed565b91906040838203126103b5576103c590602061076282866103da565b346103b5576104956104e5611449366004611417565b90613cc1565b346103b55761145f3660046104f8565b6104957f189ab7a9244df0848122154315af71fe140f3db0fe014031783b0946b8c9d2e3610484565b346103b55761062b61149b3660046103e9565b613d0f565b5f610e116103c592600e61097c565b346103b5576104956104e56114c53660046105a6565b6114a0565b6103c590613d18565b6103c590610a9c565b6103c560026114d3565b6115056103c5916114f45f90565b506114fe81613d41565b600661097c565b61098f565b1561151157565b60405162461bcd60e51b815260206004820152602160248201527f4552433732313a20617070726f76616c20746f2063757272656e74206f776e656044820152603960f91b606482015280608481015b0390fd5b1561156c57565b60405162461bcd60e51b815260206004820152603d60248201527f4552433732313a20617070726f76652063616c6c6572206973206e6f7420746f60448201527f6b656e206f776e6572206f7220617070726f76656420666f7220616c6c0000006064820152608490fd5b906103e7916116226115e8836128e0565b6116066001600160a01b0382166001600160a01b038516141561150a565b336001600160a01b0382168114918215611627575b5050611565565b613d52565b6116319250613cc1565b5f8061161b565b1561163f57565b60405162461bcd60e51b815260206004820152602d60248201527f4552433732313a2063616c6c6572206973206e6f7420746f6b656e206f776e6560448201526c1c881bdc88185c1c1c9bdd9959609a1b6064820152608490fd5b6103e79291906116b26116ad8433613db1565b611638565b613efe565b9061042f565b60016116d56103c5926116cd5f90565b5060096116b7565b01610789565b6103c59060a01c610ac2565b6103c590546116db565b6103c56040610bb0565b906103e761172f5f61170b6116f1565b9461172961171a83830161098f565b6001600160a01b031687840152565b016116e7565b6001600160601b03166020840152565b6103c5906116fb565b6103b96103c56103c59290565b6103c590611748565b6103c56103c56103c5926001600160601b031690565b634e487b7160e01b5f52601160045260245ffd5b8181029291811591840414171561179b57565b611774565b634e487b7160e01b5f52601260045260245ffd5b906117be565b9190565b9081156117c9570490565b6117a0565b6117e76117ec919392936117df5f90565b50600161097c565b61173f565b916117fe83516001600160a01b031690565b61181a61180d6103b95f611755565b916001600160a01b031690565b1461186d575b5f61185e61184d6117ba9361184761184260208901516001600160601b031690565b61175e565b90611788565b611858611842613fed565b906117b4565b9301516001600160a01b031690565b91506117ba5f61185e61184d6118828361173f565b959350505050611820565b6103e790611899614037565b6118aa906118a56140a0565b611b55565b6103e76140d2565b156118b957565b60405162461bcd60e51b815260206004820152600a602482015269139bdd081b1a5cdd195960b21b6044820152606490fd5b156118f257565b60405162461bcd60e51b815260206004820152601460248201527f496e73756666696369656e74207061796d656e740000000000000000000000006044820152606490fd5b9190820391821161179b57565b63ffffffff1663ffffffff811461179b5760010190565b9063ffffffff905b9181191691161790565b6107ad6103c56103c59263ffffffff1690565b906119906103c56119979261196d565b825461195b565b9055565b9067ffffffff000000009060201b611963565b906119be6103c56119979261196d565b825461199b565b9190820180921161179b57565b905f1990611963565b906119eb6103c561199792610630565b82546119d2565b9060ff90611963565b90611a0b6103c561199792151590565b82546119f2565b90611a1f610bfc83610bc4565b918252565b3d15611a3d57611a333d611a12565b903d5f602084013e565b606090565b15611a4957565b60405162461bcd60e51b815260206004820152601860248201527f5472656173757279207472616e73666572206661696c656400000000000000006044820152606490fd5b15611a9557565b60405162461bcd60e51b815260206004820152601660248201527f53656c6c6572207472616e73666572206661696c6564000000000000000000006044820152606490fd5b61046590610630565b6103c591604082019190611af8908290611ada565b6020818303910152600881526713919517d4d3d31160c21b602082015260400190565b6103c591604082019190611b30908290611ada565b6020818303910152600a81526913919517d093d551d21560b21b602082015260400190565b611b6081600e61097c565b611b699061079e565b611b72906118b2565b600f611b7e828261097c565b611b8790610789565b341015611b93906118eb565b611b9c826128e0565b90611ba7838261097c565b611bb090610789565b92611bbc813385613efe565b611bc461063d565b611bce9085611788565b611bd86064610630565b611be1916117b4565b92611bec8486611937565b601494611bf98387610425565b600401611c05816107b6565b611c0e90611944565b611c1791611980565b611c213387610425565b600401611c2d816107cc565b611c3690611944565b611c3f916119ae565b611c4886610630565b611c528488610425565b90611c5c82610789565b90611c66916119c5565b611c6f916119db565b611c7885610630565b611c823388610425565b90611c8c82610789565b90611c96916119c5565b611c9f916119db565b611caa84600e61097c565b5f611cb4916119fb565b611cbd5f610630565b611cc7858761097c565b90611cd1916119db565b611cdb601661098f565b611ce49061041c565b611ced9061041c565b6040515f905a935f94938594f1611d02611a24565b50611d0c90611a42565b611d158261041c565b611d1e9061041c565b6040515f905a935f94938594f1611d33611a24565b50611d3d90611a8e565b611d469061041c565b938491611d523361041c565b95611d5d8792610630565b92611d6760405190565b9081527fa8a7473f10e62cf9687e243de1c3ac8b3cbc3dd04b96826beb3a65b59538581490602090a45f5160206154205f395f51905f528093611da960405190565b611db4819282611ae3565b0390a2604051611dc5819282611b1b565b0390a2565b6103e79061188d565b906103e791611de9611de4826116bd565b6140dd565b906103e7916140e8565b906103e791611dd3565b15611e0457565b60405162461bcd60e51b815260206004820152602f60248201527f416363657373436f6e74726f6c3a2063616e206f6e6c792072656e6f756e636560448201526e103937b632b9903337b91039b2b63360891b6064820152608490fd5b6103e79190611e82611e72336103b9565b6001600160a01b03841614611dfd565b614151565b15611e8e57565b60405162461bcd60e51b815260206004820152602c60248201527f46756e6374696f6e206d7573742062652063616c6c6564207468726f7567682060448201526b19195b1959d85d1958d85b1b60a21b6064820152608490fd5b15611eef57565b60405162461bcd60e51b815260206004820152602c60248201527f46756e6374696f6e206d7573742062652063616c6c6564207468726f7567682060448201526b6163746976652070726f787960a01b6064820152608490fd5b6103e790611fb9611f593061041c565b611f987f000000000000000000000000000000000000000000000000000000000000000091611f9161180d846001600160a01b031690565b1415611e87565b611fb361180d611fa66141b0565b926001600160a01b031690565b14611ee8565b611fe6565b369037565b906103e7611fd9611fd384611a12565b93610bc4565b601f190160208401611fbe565b5f6103e791611ff4816141ef565b61200561200083610630565b611fc3565b906142a0565b6103e790611f49565b61202a5f5160206154005f395f51905f526140dd565b6103e76103e76143e7565b6103e7612014565b6103c55f611a12565b6103c561203d565b90916103e79261205c612046565b926137f5565b906103e791612073611f593061041c565b6103e791600191612083816141ef565b6142a0565b906103e791612062565b1561209957565b60405162461bcd60e51b815260206004820152603860248201527f555550535570677261646561626c653a206d757374206e6f742062652063616c60448201527f6c6564207468726f7567682064656c656761746563616c6c00000000000000006064820152608490fd5b6103c59061214c6121143061041c565b6121466001600160a01b037f00000000000000000000000000000000000000000000000000000000000000001661180d565b14612092565b61217a565b6103c57f360894a13ba1a3210667c828492db98dca3e2076cc3735a920a3ca505d382bbc610630565b506103c5612151565b6103c55f612104565b6103e790612198614037565b612224565b156121a457565b60405162461bcd60e51b815260206004820152600a6024820152694e6f742065786973747360b01b6044820152606490fd5b5f19811461179b5760010190565b6103c5916040820191906121f9908290611ada565b602081830391015260048152634c494b4560e01b602082015260400190565b801561179b575f190190565b612246612230826128e0565b61223f61180d6103b95f611755565b141561219d565b6122b361226961226283601061226e612269612262848461097c565b3390610425565b61079e565b156122f9576122895f612284612262858561097c565b6119fb565b6122ae61229783601161097c565b6122a86122a382610789565b612218565b906119db565b61097c565b907f4d5c3df35a8d7d04f2e10db1454548af37ee7449c97a4b4c243681f29c2ea4076122f46122ea6122e43361041c565b93610630565b936104e960405190565b0390a3565b61230b6001612284612262858561097c565b61232a61231983601161097c565b6122a861232582610789565b6121d6565b6123566123376001610630565b6122a85f612346336014610425565b019161235183610789565b6119c5565b61235f3361041c565b5f5160206154205f395f51905f5261237660405190565b806123826001826121e4565b0390a261097c565b6103e79061218c565b906103e79392916123a2614037565b61241b565b156123ae57565b60405162461bcd60e51b81526020600482015260096024820152682737ba1037bbb732b960b91b6044820152606490fd5b156123e657565b60405162461bcd60e51b815260206004820152600d60248201526c496e76616c696420707269636560981b6044820152606490fd5b9150915061243a61242b826128e0565b6124343361180d565b146123a7565b61244d6124465f610630565b83116123df565b61245d600161228483600e61097c565b6124718261246c83600f61097c565b6119db565b7f5dc96537cbae524775a674b6a810d9a1ba04a9e279f172d156b352151394677a6122f46124a16122e43361041c565b9361048860405190565b906103e7939291612393565b6103c5600b61079e565b6103e791906124dc5f5160206154005f395f51905f526140dd565b61250e565b6107986103c56103c59290565b6107986103c56103c59260ff1690565b90611a0b6103c5611997926124ee565b611dc56125905f5160206154205f395f51905f529260146125415f6125338484610425565b016122a88861235183610789565b816125656125606125565f6116d58587610425565b6118586064610630565b6124e1565b9161257e61079860016125788585610425565b0161079e565b60ff8416116125ce575b50505061041c565b9261259a60405190565b91829182908152604060208201819052600f908201526e45585445524e414c5f534f5552434560881b606082015260800190565b60016125de6125e4938593610425565b016124fe565b7fa49b8576e012f713baa7dceadb7d709aaec8773b498ecfe582d8b9c0c8fd074f61262c6126118461041c565b9261261b60405190565b9182918260ff909116815260200190565b0390a25f8181612588565b906103e7916124c1565b906103e79161264e614037565b612798565b1561265a57565b60405162461bcd60e51b815260206004820152600d60248201526c24b73b30b634b21037b33332b960991b6044820152606490fd5b1561269657565b60405162461bcd60e51b815260206004820152600e60248201526d496e76616c69642065787069727960901b6044820152606490fd5b6103c56080610bb0565b906001600160a01b0390611963565b906126f56103c56119979261041c565b82546126d6565b600361275960606103e79461272361271d5f8301516001600160a01b031690565b866126e5565b61273a612731602083015190565b600187016119db565b61275461274b604083015160ff1690565b600287016124fe565b015190565b91016119db565b9190611366576103e7916126fc565b90815491600160401b831015610a9757826127929160016103e795018155610e87565b90612760565b90612825906127b36127ae61226985600e61097c565b6118b2565b6127c66127bf5f610630565b3411612653565b6127cf5f6124e1565b60ff8216118061286f575b6127e39061268f565b6127f16103c584601361097c565b6128156127fc6126cc565b3381529261280b346020860152565b60ff166040840152565b612820426060840152565b61276f565b6128376128313361041c565b91610630565b907f7beddbbf70d8b2a25af77e15d4a173af5f34673a1e7302c7af208aac599dc6db61286260405190565b34815280602081016122f4565b506127e361287d601e6124e1565b60ff8316111590506127da565b906103e791612641565b1561289b57565b60405162461bcd60e51b815260206004820152601860248201527f4552433732313a20696e76616c696420746f6b656e20494400000000000000006044820152606490fd5b6128ec905f5b506143ef565b6103c56128fb6103b95f611755565b6001600160a01b0383161415612894565b1561291357565b60405162461bcd60e51b815260206004820152602960248201527f4552433732313a2061646472657373207a65726f206973206e6f7420612076616044820152683634b21037bbb732b960b91b6064820152608490fd5b6129a06103c5916129785f90565b506129996129886103b95f611755565b6001600160a01b038316141561290c565b6005610425565b610789565b906103c595949392916129b6614037565b612cc3565b610ac26103c56103c59290565b156129cf57565b60405162461bcd60e51b815260206004820152600f60248201526e496e76616c696420726f79616c747960881b6044820152606490fd5b6103c5913691610bec565b6103c560a0610bb0565b915f1960089290920291821b911b611963565b921b90565b9190612a446103c561199793610630565b908354612a1b565b6103e7915f91612a33565b818110612a62575050565b80612a6f5f600193612a4c565b01612a57565b9190601f8111612a8457505050565b612a946103e7935f5260205f2090565b906020601f840181900483019310612ab6575b6020601f909101040190612a57565b9091508190612aa7565b90612ac9815190565b9067ffffffffffffffff8211610a9757612aed82612ae785546109ad565b85612a75565b602090601f8311600114612b265761199792915f9183612b1b575b50505f19600883021c1916906002021790565b015190505f80612b08565b601f19831691612b39855f5260205f2090565b925f5b818110612b7657509160029391856001969410612b5d575b50505002019055565b01515f196008601f8516021c19165b90555f8080612b54565b91936020600181928787015181550195019201612b3c565b906103e791612ac0565b906001600160601b0390611963565b610ac26103c56103c5926001600160601b031690565b90612bcd6103c561199792612ba7565b8254612b98565b6004612c4860806103e794612bf561271d5f8301516001600160a01b031690565b612c0c612c03602083015190565b60018701612b8e565b612c23612c1a604083015190565b60028701612b8e565b612c3a612c31606083015190565b600387016119db565b01516001600160601b031690565b9101612bbd565b906103e791612bd4565b919061054d81612c70816105579560209181520190565b8095610be1565b60208082526103c593910191612c59565b6103c591604082019190612c9d908290611ada565b6020818303910152600b81526a13919517d0d4915055115160aa1b602082015260400190565b7f1e1b69b56bd875547ce642e5ca9d38001b825863ffbf9cf08c72e0ff64b00a8d94959193612d9a9150612d0c612cfb6127106129bb565b6001600160601b03851611156129c8565b612d70612d69600c98612d27612d218b614405565b9a614418565b612d318a33614436565b612d44612d3e888a612a06565b8b6144ab565b612d4c612a11565b33815293612d64612d5d898b612a06565b6020870152565b612a06565b6040830152565b612d7b426060830152565b6001600160601b0383166080820152612d9587600d61097c565b612c4f565b612da35f6129bb565b6001600160601b03821611612e35575b50612dd16002612dc4336014610425565b016122a861232582610789565b612dde612337600a610630565b612de73361041c565b928391612df386610630565b93612e09612e0060405190565b92839283612c77565b0390a35f5160206154205f395f51905f52612e2360405190565b80612e2f600a82612c88565b0390a290565b612e4090338661460c565b5f612db3565b6103c594939291905f6129a5565b906118aa91612e616140a0565b613030565b906103e7612ec06003612e776126cc565b94612e91612e848261098f565b6001600160a01b03168752565b612ea7612ea060018301610789565b6020880152565b6116d5612eb66002830161079e565b60ff166040880152565b6060840152565b6103c590612e66565b612ee06103c56103c59260ff1690565b62ffffff1690565b612ee06103c56103c59290565b62ffffff9081169116029062ffffff821691820361179b57565b6103c56103c56103c59262ffffff1690565b15612f2857565b60405162461bcd60e51b815260206004820152600d60248201526c13d999995c88195e1c1a5c9959609a1b6044820152606490fd5b6103c5906004611788565b5f8082556103e791600390612f808360018301612a4c565b82600282015501612a4c565b905f03611366576103e790612f68565b818110612fa7575050565b80612fb45f600493612f8c565b01612f9c565b919091828210612fc957505050565b612feb612fe1612fdb6103e795612f5d565b93612f5d565b915f5260205f2090565b9182019101612f9c565b90600160401b8111610a97578161300d6103e7935490565b90828155612fba565b5f6103e791612ff5565b905f03611366576103e790613016565b60206132395f808461320e8280613087613081859b61305161242b886128e0565b61307261306a6103c561306660139a8b61097c565b5490565b825b10612653565b61307c8c8861097c565b610e87565b50612ec7565b936130dd6130d56103c561309c606089015190565b6130cf6130ca6130b060408c015160ff1690565b6130c56130bf62015180612ee8565b91612ed0565b612ef5565b612f0f565b906119c5565b421115612f21565b6131da826131d56131026130fa838a01516001600160a01b031690565b9c8d99015190565b9d8e94613110828b33613efe565b6131af61313161312a61255661312461063d565b8a611788565b8098611937565b9a6122a886612346601493613163600461314b3388610425565b0161315d613158826107b6565b611944565b90611980565b61318560046131728388610425565b0161317f613158826107cc565b906119ae565b61319f61319186610630565b6122a885612346338a610425565b6131a9600f610630565b94610425565b6131be8461228484600e61097c565b6122ae6131ca85610630565b61246c84600f61097c565b613020565b6131ef6131ea6131ea601661098f565b61041c565b906131f960405190565b90818003925af1613208611a24565b50611a42565b61321a6131ea3361041c565b9061322460405190565b90818003925af1613233611a24565b50611a8e565b7fa6da490df6e8f0e592e795b4d96c5810d8ddfda51c21577adbdd8e1a0fa47a6761328261327861327261326c3361041c565b9461041c565b94610630565b9461048860405190565b0390a4565b906103e791612e54565b906103e79161329e614037565b6132aa61242b826128e0565b6132bb6127ae61226983600e61097c565b6132c76124465f610630565b6132d68261246c83600f61097c565b7fb556fac599c3c70efb9ab1fa725ecace6c81cc48d1455f886607def065f3e0c06122f46124a16122e43361041c565b906103e791613291565b6133265f5160206154005f395f51905f526140dd565b6103e76103e76146cd565b6103e7613310565b6103e7906133535f5160206154005f395f51905f526140dd565b613396565b1561335f57565b60405162461bcd60e51b815260206004820152600f60248201526e496e76616c6964206164647265737360881b6044820152606490fd5b6103e7906133ba6133a96103b95f611755565b6001600160a01b0383161415613358565b60176126e5565b6103e790613339565b6103c5915f6133dd612269936116cd5f90565b01610425565b6103c560036114d3565b6103c560c0610bb0565b6133ff6133ed565b905f82526020808080808087015f8152015f8152015f8152015f8152015f905250565b6103c56133f7565b906103e76134b2600461343b6133ed565b9461344c61344882610789565b8752565b61346561345b6001830161079e565b60ff166020880152565b61347b61347460028301610789565b6040880152565b61349161348a60038301610789565b6060880152565b6134ac61349f8383016107b6565b63ffffffff166080880152565b016107cc565b63ffffffff1660a0840152565b6103c59061342a565b6134df6103c5916134d7613422565b506014610425565b6134bf565b6103e7906134fe5f5160206154005f395f51905f526140dd565b6103e7906135116133a96103b95f611755565b60196126e5565b6103e7906134e4565b6103e7919033614721565b906103e7929161353a614037565b6136a4565b1561354657565b60405162461bcd60e51b815260206004820152600d60248201526c115b5c1d1e4818dbdb5b595b9d609a1b6044820152606490fd5b919067ffffffffffffffff8211610a975761359a82612ae785546109ad565b5f90601f83116001146135d15761199792915f91836135c65750505f19600883021c1916906002021790565b013590505f80612b08565b90601f198316916135e5855f5260205f2090565b925f5b81811061361b575091600293918560019694106136085750505002019055565b01355f19601f84166008021c1916612b6c565b929360206001819287860135815501950193016135e8565b929190611366576103e79261357b565b9190825492600160401b841015610a9757836136679160016103e79601815561132b565b90613633565b6103c591604082019190613682908290611ada565b6020818303910152600781526610d3d35351539560ca1b602082015260400190565b7f6ef560d19dd02f57976e8453b811685a89edf49009d64ab71b19489923ef5f09613721936136d5612230846128e0565b6136eb816136e56117ba5f610630565b1161353f565b61370381856136fe6103c587601261097c565b613643565b6137106123376002610630565b6137193361041c565b948593610630565b9361372e612e0060405190565b0390a35f5160206154205f395f51905f5261374860405190565b80611dc560028261366d565b906103e7929161352c565b6103e79061376b614037565b61377761242b826128e0565b6137886127ae61226983600e61097c565b6137975f61228483600e61097c565b6137ae6137a35f610630565b61246c83600f61097c565b6137ba6128313361041c565b907f24287c09523dfd960e13a9774c247fb28a2ccb301eb4208b0d4072bcd0f1826e6137e560405190565b80806122f4565b6103e79061375f565b6103e7939291906138096116ad8433613db1565b6147eb565b6103c59060101c610798565b6103c5905461380e565b6103c59060081c610798565b6103c59054613824565b1561384157565b60405162461bcd60e51b815260206004820152602e60248201527f496e697469616c697a61626c653a20636f6e747261637420697320616c72656160448201526d191e481a5b9a5d1a585b1a5e995960921b6064820152608490fd5b9061ff009060081b611963565b906138ba6103c5611997926124ee565b825461389d565b9062ff00009060101b611963565b906138df6103c561199792151590565b82546138c1565b610465906124e1565b6020810192916103e791906138e6565b61394961391361390f600b61381a565b1590565b9182806139eb575b80156139a6575b61392b9061383a565b8261394061393960016124e1565b600b6138aa565b61399557613a09565b61394f57565b61395a5f600b6138cf565b7f7f26b83ff96e1f2b6a682f133852f6798a09c465da95921460cefb384740249861398460405190565b806139906001826138ef565b0390a1565b6139a16001600b6138cf565b613a09565b506139bb61390f6139b63061041c565b61480a565b8015613922575061392b6139cf600b613830565b6139e36139dc60016124e1565b9160ff1690565b149050613922565b506139f6600b613830565b613a036139dc60016124e1565b1061391b565b613a1b613a1461113f565b3390611de9565b613a315f5160206154005f395f51905f52613a14565b613a5a7f189ab7a9244df0848122154315af71fe140f3db0fe014031783b0946b8c9d2e3613a14565b613a666103b95f611755565b6001600160a01b03821614613a81576103e7905b60166126e5565b506103e733613a7a565b6103e7906138ff565b6103c590614850565b906118aa91613aaa6140a0565b613bb0565b15613ab657565b60405162461bcd60e51b815260206004820152600b60248201526a2737ba1037b33332b937b960a91b6044820152606490fd5b818103613af4575050565b60036127598184613b0c61271d5f6103e7980161098f565b613b1b61273160018301610789565b6116d561274b6002830161079e565b9190611366576103e791613ae9565b634e487b7160e01b5f52603160045260245ffd5b80548015613b6f575f190190613b6c613b668383610e87565b90612f8c565b55565b613b39565b15613b7b57565b60405162461bcd60e51b815260206004820152600d60248201526c1499599d5b990819985a5b1959609a1b6044820152606490fd5b5f6103e792613c67613c626103c584956013613bdb613bd56103c5613066858561097c565b8761306c565b6122ae613c196020613bf46130818a61307c888861097c565b612754613c0a8c8301516001600160a01b031690565b613c133361180d565b14613aaf565b96613c5c613c50613c2a868661097c565b613c4a613c3a613066898961097c565b613c446001610630565b90611937565b90610e87565b509161307c868661097c565b90613b2a565b613b4d565b613c736131ea3361041c565b90613c7d60405190565b90818003925af1613c8c611a24565b50613b74565b906103e791613a9d565b906103e791613cad611de4826116bd565b906103e791614151565b906103e791613c9c565b6103c591610e0c61226992613cd35f90565b506007610425565b6103e790613cf55f5160206154005f395f51905f526140dd565b6103e790613d086133a96103b95f611755565b60186126e5565b6103e790613cdb565b637965db0b60e01b6001600160e01b0319821614908115613d37575090565b6103c591506148db565b613d4d6103e7916148e4565b612894565b90613d6782613d6283600661097c565b6126e5565b613d7f612831613d796131ea846128e0565b9361041c565b917f8c5be1e5ebec7d5bd14f71427d1e84f3dd0314c0f7b2291e5b200ac8c7c3b925613daa60405190565b8080613282565b613dba826128e0565b916001600160a01b0383166001600160a01b03831614928315613dfa575b508215613de457505090565b613df6919250611fa661180d916114e6565b1490565b613e079193508290613cc1565b915f613dd8565b15613e1557565b60405162461bcd60e51b815260206004820152602560248201527f4552433732313a207472616e736665722066726f6d20696e636f72726563742060448201526437bbb732b960d91b6064820152608490fd5b15613e6f57565b60405162461bcd60e51b8152602060048201526024808201527f4552433732313a207472616e7366657220746f20746865207a65726f206164646044820152637265737360e01b6064820152608490fd5b91906008611963910291612a2e6001600160a01b03841b90565b9190613eeb6103c56119979361041c565b908354613ec0565b6103e7915f91613eda565b612831613d79613fc292949394613f2f613f17866128e0565b613f296001600160a01b03841661180d565b14613e0e565b613f4f613f3e6103b95f611755565b6001600160a01b0388161415613e68565b613f5b613f17866128e0565b613f6f5f613f6a87600661097c565b613ef3565b613fb3613f7c6001610630565b613f9b613f8a846005610425565b6122a883613f9783610789565b0390565b6122a8613fa9896005610425565b9161055783610789565b6131ea86613d6287600461097c565b917fddf252ad1be2c89b69c2b068fc378daa952ba7f163c4a11628f55a4df523b3ef613daa60405190565b6103c56127106129bb565b15613fff57565b60405162461bcd60e51b815260206004820152601060248201526f14185d5cd8589b194e881c185d5cd95960821b6044820152606490fd5b6103e761404561390f6124b7565b613ff8565b6103c56002610630565b1561405b57565b60405162461bcd60e51b815260206004820152601f60248201527f5265656e7472616e637947756172643a207265656e7472616e742063616c6c006044820152606490fd5b6103e76140ad600a610789565b6140c16140b861404a565b91821415614054565b600a6119db565b6103c56001610630565b6103e76140c16140c8565b6103e7903390614960565b6140f561390f83836133ca565b6140fd575050565b6141126001612284845f6133dd8660096116b7565b614126614120613d79339390565b9161041c565b917f2f8788117e7eff1d82e926ec794901d17c78024a50270940304540a733656f0d613daa60405190565b61415b82826133ca565b614163575050565b6141775f61228484826133dd8660096116b7565b614185614120613d79339390565b917ff6391f5c32d9c69d2a47ea670b442974b53935d1edc7fd64eb21e047a839171b613daa60405190565b6103c55f6141bf6103c5612151565b0161098f565b506103e77f189ab7a9244df0848122154315af71fe140f3db0fe014031783b0946b8c9d2e36140dd565b6103e7906141c5565b6103c57f4910fdfa16fed3260ed0e7147f7cc6da11a60208b5b9406d12a635614ffd9143610630565b905051906103e782610593565b906020828203126103b5576103c591614221565b1561424957565b60405162461bcd60e51b815260206004820152602960248201527f45524331393637557067726164653a20756e737570706f727465642070726f786044820152681a58589b195555525160ba1b6064820152608490fd5b91906142b15f6125786103c56141f8565b156142c15750506103e790614a79565b6142cd6131ea8461041c565b9260206142d960405190565b6352d1902d60e01b815294859060049082905afa5f9481614376575b506143565760405162461bcd60e51b815260206004820152602e60248201527f45524331393637557067726164653a206e657720696d706c656d656e7461746960448201526d6f6e206973206e6f74205555505360901b6064820152608490fd5b6143716103e79461436b6117ba6103c5612151565b14614242565b6149d9565b61439991955060203d6020116143a0575b6143918183610a75565b81019061422e565b935f6142f5565b503d614387565b6143af614aec565b6103e76143bd5f600b6119fb565b7f5db9ee0a495bf2e6ff9c91a7834c1ba4fdd244a5e8aa4e537bd38aeae4b073aa613990336105d5565b6103e76143a7565b6115056103c5916143fd5f90565b50600461097c565b5f6103c5916144115f90565b5001610789565b6103e7906122a85f61442a6001610630565b92019161055783610789565b6103e791614442612046565b91614afc565b1561444f57565b60405162461bcd60e51b815260206004820152602e60248201527f45524337323155524953746f726167653a2055524920736574206f66206e6f6e60448201526d32bc34b9ba32b73a103a37b5b2b760911b6064820152608490fd5b613990906104847ff8e1a15aba9398e019f0b49df1a4fde98ee17ae345cb5f6b5e2c27f5033e8ce7936144e56144e0846148e4565b614448565b6144f083600861097c565b612b8e565b156144fc57565b60405162461bcd60e51b815260206004820152602a60248201527f455243323938313a20726f79616c7479206665652077696c6c206578636565646044820152692073616c65507269636560b01b6064820152608490fd5b1561455b57565b60405162461bcd60e51b815260206004820152601b60248201527f455243323938313a20496e76616c696420706172616d657465727300000000006044820152606490fd5b9073ffffffffffffffffffffffffffffffffffffffff199060a01b611963565b906145d06103c561199792612ba7565b82546145a0565b6103e7916145fc90602090612c3a6145f682516001600160a01b031690565b856126e5565b906145c0565b906103e7916145d7565b614687906146806103e794614636614625610ac2613fed565b6001600160601b03831611156144f5565b6146566146456103b95f611755565b6001600160a01b0387161415614554565b6146706146616116f1565b6001600160a01b039096168652565b6001600160601b03166020850152565b600161097c565b614602565b614694614037565b6103e76146a36001600b6119fb565b7f62e78cea01bee320cd4e420270b5ea74000d11b0c9f74754ebdbfc544b05a258613990336105d5565b6103e761468c565b156146dc57565b60405162461bcd60e51b815260206004820152601960248201527f4552433732313a20617070726f766520746f2063616c6c6572000000000000006044820152606490fd5b6122f46122ea613d797f17307eab39ab6107e8899845ad3d59bd9653f200f220920489ca2b5937696c319361477061475f876001600160a01b031690565b6001600160a01b03831614156146d5565b6131ea8761228488610e0c856007610425565b1561478a57565b6040515b62461bcd60e51b815260206004820152603260248201527f4552433732313a207472616e7366657220746f206e6f6e20455243373231526560448201527131b2b4bb32b91034b6b83632b6b2b73a32b960711b6064820152608490fd5b916103e7939161480593614800838383613efe565b614b6f565b614783565b3b6148176117ba5f610630565b1190565b6105576148339260209261482d815190565b94859290565b93849101610502565b61484a906103c5939261481b565b9061481b565b61485981613d41565b61486c61486782600861097c565b6114d3565b614874614c47565b80516148826117ba5f610630565b146148d55781516148956117ba5f610630565b116148a55750506103c590614c4f565b6103c592506148c9916103c5916148bb60405190565b93849260208401928361483c565b90810382520382610a75565b50905090565b6103c590614cbb565b6148ee905f6128e6565b6148fd61180d6103b95f611755565b141590565b6103c590610630565b6149436103c5939261484a61484a937f416363657373436f6e74726f6c3a206163636f756e7420000000000000000000815260170190565b7001034b99036b4b9b9b4b733903937b6329607d1b815260110190565b9061496e61390f82846133ca565b614976575050565b6148c96103c5611561936149a86149986149926149c096614d1c565b92614902565b6149a26020610630565b90614dc9565b906149b260405190565b93849260208401928361490b565b6040515b62461bcd60e51b81529182916004830161055b565b916149e383614edc565b81516149f16117ba5f610630565b11908115614a0f575b50614a03575050565b614a0c91614f65565b50565b90505f6149fa565b15614a1e57565b60405162461bcd60e51b815260206004820152602d60248201527f455243313936373a206e657720696d706c656d656e746174696f6e206973206e60448201526c1bdd08184818dbdb9d1c9858dd609a1b6064820152608490fd5b6103e790614a8e614a898261480a565b614a17565b5f614a9a6103c5612151565b016126e5565b15614aa757565b60405162461bcd60e51b815260206004820152601460248201527f5061757361626c653a206e6f74207061757365640000000000000000000000006044820152606490fd5b6103e7614af76124b7565b614aa0565b91614805916103e793614b0f8282615013565b6148005f611755565b905051906103e782610499565b906020828203126103b5576103c591614b18565b6001600160a01b039182168152911660208201526103c5926080820192909190614b6290612d69565b6060818403910152610523565b909190614b7b8361480a565b15614c3e57614b8e6131ea60209461041c565b905f33614bb7614b9d60405190565b97889687958694630a85bd0160e11b865260048601614b39565b03925af15f9181614c0d575b50614bf357614bd0611a24565b8051614bde6117ba5f610630565b03614beb5760405161478e565b805190602001fd5b613df6630a85bd0160e11b5b916001600160e01b03191690565b614c3091925060203d602011614c37575b614c288183610a75565b810190614b25565b905f614bc3565b503d614c1e565b50505050600190565b6103c5612046565b614c5881613d41565b614c60614c47565b8051614c6e6117ba5f610630565b1115614c91576103c56148c991614c876103c594615074565b906148bb60405190565b50506103c5612046565b614cae614ca86103c59290565b60e01b90565b6001600160e01b03191690565b614ccb614cae6349064906614c9b565b6001600160e01b0319821614908115614ce2575090565b6103c591506150ff565b6103c56103c56103c5926001600160a01b031690565b6103c560146124e1565b6103c56103c56103c59260ff1690565b614d39614d346103c592614d2e606090565b50610413565b614cec565b6149a2614d44614d02565b614d0c565b90614d52825190565b811015610ea7570160200190565b6103c590614d746117ba6103c59460ff1690565b901c90565b15614d8057565b60405162461bcd60e51b815280611561600482016020808252818101527f537472696e67733a20686578206c656e67746820696e73756666696369656e74604082015260600190565b614dec612000614de284614ddd6002610630565b611788565b6130cf6002610630565b916030614e01614dfb5f610630565b85614d49565b53600f60fb1b614e3a614e3160019384935f1a614e26614e2086610630565b89614d49565b53614ddd6002610630565b6130cf83610630565b915b614e5d575b5050906103c56103c592614e576117ba5f610630565b14614d79565b9091614e6882610630565b831115614ed6576f181899199a1a9b1b9c1cb0b131b232b360811b614e8d600f610630565b8216906010821015610ea7578392614ead614eca92614ed0941a60f81b90565b5f1a614eb98789614d49565b53614ec460046124e1565b90614d60565b93612218565b91614e3c565b91614e41565b614ee9906131ea81614a79565b7fbc7cd75a20ee27fd9adebab32041f755214dbc6bffa90cc0225b39da2e5c2d3b614f1360405190565b8080611dc5565b614f246027611a12565b7f416464726573733a206c6f772d6c6576656c2064656c65676174652063616c6c6020820152660819985a5b195960ca1b604082015290565b6103c5614f1a565b6103c591614f71614f5d565b9161514a565b15614f7e57565b60405162461bcd60e51b815280611561600482016020808252818101527f4552433732313a206d696e7420746f20746865207a65726f2061646472657373604082015260600190565b15614fce57565b60405162461bcd60e51b815260206004820152601c60248201527f4552433732313a20746f6b656e20616c7265616479206d696e746564000000006044820152606490fd5b90613fc2612831613d796150265f611755565b6150446001600160a01b0382166001600160a01b0388161415614f77565b61505861505361390f876148e4565b614fc7565b61506761505361390f876148e4565b613fb3613f9b6001610630565b61507d81615171565b9061508e6001926105576001610630565b918061509984611fc3565b936020018401905b6150ac575b50505090565b81156150fa576150df905f1901926f181899199a1a9b1b9c1cb0b131b232b360811b600a82061a8453611858600a610630565b90816150ed6117ba5f610630565b146150fa579091816150a1565b6150a6565b6380ac58cd60e01b6001600160e01b031982161490811561512f575b8115615125575090565b6103c59150615312565b6001600160e01b03198116635b5e139f60e01b14915061511b565b5f806103c59493615159606090565b50602081519101845af461516b611a24565b91615387565b61517a5f610630565b907a184f03e93ff9f4daa797ed6e38ed64bf6a1f0100000000000000006151a081610630565b8210156152f0575b506d04ee2d6d415b85acef81000000006151c181610630565b8210156152ce575b50662386f26fc100006151db81610630565b8210156152ac575b506305f5e1006151f281610630565b82101561528a575b5061271061520781610630565b821015615268575b5061521a6064610630565b811015615246575b61522f6117ba600a610630565b10156152385790565b6103c5906105576001610630565b615257615262916118586064610630565b916105576002610630565b90615222565b6152839161185861527892610630565b916105576004610630565b905f61520f565b6152a59161185861529a92610630565b916105576008610630565b905f6151fa565b6152c7916118586152bc92610630565b916105576010610630565b905f6151e3565b6152e9916118586152de92610630565b916105576020610630565b905f6151c9565b61530b9161185861530092610630565b916105576040610630565b905f6151a8565b63152a902d60e11b6001600160e01b0319821614908115615331575090565b6103c591506153be565b1561534257565b60405162461bcd60e51b815260206004820152601d60248201527f416464726573733a2063616c6c20746f206e6f6e2d636f6e74726163740000006044820152606490fd5b919290156153b85750815161539e6117ba5f610630565b146153a7575090565b6153b36103c59161480a565b61533b565b826153ce565b613df66301ffc9a760e01b614bff565b906153d7825190565b6153e36117ba5f610630565b11156153f25750805190602001fd5b611561906149c46040519056fea49807205ce4d355092ef5a8a18f56e8913cf4a201fbe287825b095693c21775bc485bf8e37db28d327f937baa2ba28235470b977aa1200fd7eedfd31f24ac45a2646970667358221220119ff6fd8e4998123552b9d33059aebc67249a8d8eb6c4af74e30ef2366bdad364736f6c634300081c0033",
  "linkReferences": {},
  "deployedLinkReferences": {}
}