{
  "_format": "hh-sol-artifact-1",
  "contractName": "IndividualSkillsMarketplaceImpl",
  "sourceName": "contracts/Marketplace/IndividualSkillsMarketplaceImpl.sol",
  "abi": [
    {
      "inputs": [
        {
          "internalType": "address",
          "name": "_treasuryAddress",
          "type": "address"
        }
      ],
      "stateMutability": "nonpayable",
      "type": "constructor"
    },
    {
      "inputs": [],
      "name": "CannotTransferActiveSkill",
      "type": "error"
    },
    {
      "inputs": [
        {
          "internalType": "uint256",
          "name": "required",
          "type": "uint256"
        },
        {
          "internalType": "uint256",
          "name": "current",
          "type": "uint256"
        }
      ],
      "name": "InsufficientStakingBalance",
      "type": "error"
    },
    {
      "inputs": [],
      "name": "InvalidAddress",
      "type": "error"
    },
    {
      "inputs": [
        {
          "internalType": "uint256",
          "name": "level",
          "type": "uint256"
        }
      ],
      "name": "InvalidLevel",
      "type": "error"
    },
    {
      "inputs": [],
      "name": "InvalidMetadata",
      "type": "error"
    },
    {
      "inputs": [
        {
          "internalType": "uint256",
          "name": "expected",
          "type": "uint256"
        },
        {
          "internalType": "uint256",
          "name": "provided",
          "type": "uint256"
        }
      ],
      "name": "InvalidPrice",
      "type": "error"
    },
    {
      "inputs": [
        {
          "internalType": "uint8",
          "name": "rarity",
          "type": "uint8"
        }
      ],
      "name": "InvalidRarity",
      "type": "error"
    },
    {
      "inputs": [
        {
          "internalType": "uint8",
          "name": "skillType",
          "type": "uint8"
        }
      ],
      "name": "InvalidSkillType",
      "type": "error"
    },
    {
      "inputs": [
        {
          "internalType": "uint8",
          "name": "max",
          "type": "uint8"
        }
      ],
      "name": "MaxActiveSkillsReached",
      "type": "error"
    },
    {
      "inputs": [],
      "name": "NotSkillOwner",
      "type": "error"
    },
    {
      "inputs": [
        {
          "internalType": "uint256",
          "name": "expiresAt",
          "type": "uint256"
        }
      ],
      "name": "SkillAlreadyExpired",
      "type": "error"
    },
    {
      "inputs": [],
      "name": "SkillIsActive",
      "type": "error"
    },
    {
      "inputs": [],
      "name": "SkillNotActive",
      "type": "error"
    },
    {
      "inputs": [
        {
          "internalType": "uint256",
          "name": "expiresAt",
          "type": "uint256"
        }
      ],
      "name": "SkillNotExpired",
      "type": "error"
    },
    {
      "inputs": [
        {
          "internalType": "uint256",
          "name": "skillId",
          "type": "uint256"
        }
      ],
      "name": "SkillNotFound",
      "type": "error"
    },
    {
      "inputs": [
        {
          "internalType": "uint256",
          "name": "skillId",
          "type": "uint256"
        }
      ],
      "name": "SkillNotInList",
      "type": "error"
    },
    {
      "inputs": [
        {
          "internalType": "address",
          "name": "user",
          "type": "address"
        },
        {
          "internalType": "uint256",
          "name": "skillId",
          "type": "uint256"
        }
      ],
      "name": "StakingNotificationFailed",
      "type": "error"
    },
    {
      "anonymous": false,
      "inputs": [
        {
          "indexed": true,
          "internalType": "enum IStakingIntegration.Rarity",
          "name": "rarity",
          "type": "uint8"
        },
        {
          "indexed": false,
          "internalType": "uint256",
          "name": "newPrice",
          "type": "uint256"
        }
      ],
      "name": "BasePriceUpdated",
      "type": "event"
    },
    {
      "anonymous": false,
      "inputs": [
        {
          "indexed": true,
          "internalType": "address",
          "name": "admin",
          "type": "address"
        },
        {
          "indexed": false,
          "internalType": "uint256",
          "name": "amount",
          "type": "uint256"
        },
        {
          "indexed": true,
          "internalType": "address",
          "name": "to",
          "type": "address"
        }
      ],
      "name": "EmergencyWithdrawal",
      "type": "event"
    },
    {
      "anonymous": false,
      "inputs": [
        {
          "indexed": true,
          "internalType": "address",
          "name": "user",
          "type": "address"
        },
        {
          "indexed": true,
          "internalType": "uint256",
          "name": "skillId",
          "type": "uint256"
        },
        {
          "indexed": false,
          "internalType": "enum IStakingIntegration.SkillType",
          "name": "skillType",
          "type": "uint8"
        }
      ],
      "name": "IndividualSkillActivated",
      "type": "event"
    },
    {
      "anonymous": false,
      "inputs": [
        {
          "indexed": true,
          "internalType": "address",
          "name": "user",
          "type": "address"
        },
        {
          "indexed": true,
          "internalType": "uint256",
          "name": "skillId",
          "type": "uint256"
        },
        {
          "indexed": false,
          "internalType": "enum IStakingIntegration.SkillType",
          "name": "skillType",
          "type": "uint8"
        }
      ],
      "name": "IndividualSkillDeactivated",
      "type": "event"
    },
    {
      "anonymous": false,
      "inputs": [
        {
          "indexed": true,
          "internalType": "address",
          "name": "user",
          "type": "address"
        },
        {
          "indexed": true,
          "internalType": "uint256",
          "name": "skillId",
          "type": "uint256"
        },
        {
          "indexed": false,
          "internalType": "enum IStakingIntegration.SkillType",
          "name": "skillType",
          "type": "uint8"
        }
      ],
      "name": "IndividualSkillExpired",
      "type": "event"
    },
    {
      "anonymous": false,
      "inputs": [
        {
          "indexed": true,
          "internalType": "address",
          "name": "user",
          "type": "address"
        },
        {
          "indexed": true,
          "internalType": "uint256",
          "name": "skillId",
          "type": "uint256"
        },
        {
          "indexed": false,
          "internalType": "enum IStakingIntegration.SkillType",
          "name": "skillType",
          "type": "uint8"
        },
        {
          "indexed": false,
          "internalType": "enum IStakingIntegration.Rarity",
          "name": "rarity",
          "type": "uint8"
        },
        {
          "indexed": false,
          "internalType": "uint256",
          "name": "price",
          "type": "uint256"
        }
      ],
      "name": "IndividualSkillPurchased",
      "type": "event"
    },
    {
      "anonymous": false,
      "inputs": [
        {
          "indexed": true,
          "internalType": "address",
          "name": "user",
          "type": "address"
        },
        {
          "indexed": true,
          "internalType": "uint256",
          "name": "skillId",
          "type": "uint256"
        },
        {
          "indexed": false,
          "internalType": "uint256",
          "name": "newExpiryTime",
          "type": "uint256"
        }
      ],
      "name": "IndividualSkillRenewed",
      "type": "event"
    },
    {
      "anonymous": false,
      "inputs": [
        {
          "indexed": true,
          "internalType": "address",
          "name": "from",
          "type": "address"
        },
        {
          "indexed": true,
          "internalType": "address",
          "name": "to",
          "type": "address"
        },
        {
          "indexed": true,
          "internalType": "uint256",
          "name": "skillId",
          "type": "uint256"
        },
        {
          "indexed": false,
          "internalType": "enum IStakingIntegration.SkillType",
          "name": "skillType",
          "type": "uint8"
        }
      ],
      "name": "IndividualSkillTransferred",
      "type": "event"
    },
    {
      "anonymous": false,
      "inputs": [
        {
          "indexed": false,
          "internalType": "address",
          "name": "account",
          "type": "address"
        }
      ],
      "name": "Paused",
      "type": "event"
    },
    {
      "anonymous": false,
      "inputs": [
        {
          "indexed": true,
          "internalType": "enum IStakingIntegration.Rarity",
          "name": "rarity",
          "type": "uint8"
        },
        {
          "indexed": false,
          "internalType": "uint16",
          "name": "newMultiplier",
          "type": "uint16"
        }
      ],
      "name": "RarityEffectMultiplierUpdated",
      "type": "event"
    },
    {
      "anonymous": false,
      "inputs": [
        {
          "indexed": true,
          "internalType": "bytes32",
          "name": "role",
          "type": "bytes32"
        },
        {
          "indexed": true,
          "internalType": "bytes32",
          "name": "previousAdminRole",
          "type": "bytes32"
        },
        {
          "indexed": true,
          "internalType": "bytes32",
          "name": "newAdminRole",
          "type": "bytes32"
        }
      ],
      "name": "RoleAdminChanged",
      "type": "event"
    },
    {
      "anonymous": false,
      "inputs": [
        {
          "indexed": true,
          "internalType": "bytes32",
          "name": "role",
          "type": "bytes32"
        },
        {
          "indexed": true,
          "internalType": "address",
          "name": "account",
          "type": "address"
        },
        {
          "indexed": true,
          "internalType": "address",
          "name": "sender",
          "type": "address"
        }
      ],
      "name": "RoleGranted",
      "type": "event"
    },
    {
      "anonymous": false,
      "inputs": [
        {
          "indexed": true,
          "internalType": "bytes32",
          "name": "role",
          "type": "bytes32"
        },
        {
          "indexed": true,
          "internalType": "address",
          "name": "account",
          "type": "address"
        },
        {
          "indexed": true,
          "internalType": "address",
          "name": "sender",
          "type": "address"
        }
      ],
      "name": "RoleRevoked",
      "type": "event"
    },
    {
      "anonymous": false,
      "inputs": [
        {
          "indexed": true,
          "internalType": "address",
          "name": "user",
          "type": "address"
        },
        {
          "indexed": true,
          "internalType": "uint256",
          "name": "skillId",
          "type": "uint256"
        }
      ],
      "name": "SkillCleanedUp",
      "type": "event"
    },
    {
      "anonymous": false,
      "inputs": [
        {
          "indexed": true,
          "internalType": "enum IStakingIntegration.SkillType",
          "name": "skillType",
          "type": "uint8"
        },
        {
          "indexed": true,
          "internalType": "enum IStakingIntegration.Rarity",
          "name": "rarity",
          "type": "uint8"
        },
        {
          "indexed": false,
          "internalType": "uint16",
          "name": "newEffectValue",
          "type": "uint16"
        }
      ],
      "name": "SkillEffectValueUpdated",
      "type": "event"
    },
    {
      "anonymous": false,
      "inputs": [
        {
          "indexed": true,
          "internalType": "uint8",
          "name": "level",
          "type": "uint8"
        },
        {
          "indexed": false,
          "internalType": "uint16",
          "name": "newMultiplier",
          "type": "uint16"
        }
      ],
      "name": "SkillLevelMultiplierUpdated",
      "type": "event"
    },
    {
      "anonymous": false,
      "inputs": [
        {
          "indexed": true,
          "internalType": "enum IStakingIntegration.SkillType",
          "name": "skillType",
          "type": "uint8"
        },
        {
          "indexed": false,
          "internalType": "uint256",
          "name": "basePrice",
          "type": "uint256"
        },
        {
          "indexed": false,
          "internalType": "uint256",
          "name": "rarityMultiplier",
          "type": "uint256"
        }
      ],
      "name": "SkillPricingUpdated",
      "type": "event"
    },
    {
      "anonymous": false,
      "inputs": [
        {
          "indexed": true,
          "internalType": "address",
          "name": "user",
          "type": "address"
        },
        {
          "indexed": true,
          "internalType": "uint256",
          "name": "skillId",
          "type": "uint256"
        },
        {
          "indexed": false,
          "internalType": "enum IStakingIntegration.SkillType",
          "name": "skillType",
          "type": "uint8"
        },
        {
          "indexed": false,
          "internalType": "uint256",
          "name": "amount",
          "type": "uint256"
        },
        {
          "indexed": false,
          "internalType": "string",
          "name": "operation",
          "type": "string"
        }
      ],
      "name": "SkillPurchaseProcessed",
      "type": "event"
    },
    {
      "anonymous": false,
      "inputs": [
        {
          "indexed": true,
          "internalType": "address",
          "name": "oldStaking",
          "type": "address"
        },
        {
          "indexed": true,
          "internalType": "address",
          "name": "newStaking",
          "type": "address"
        }
      ],
      "name": "StakingContractUpdated",
      "type": "event"
    },
    {
      "anonymous": false,
      "inputs": [
        {
          "indexed": true,
          "internalType": "address",
          "name": "oldTreasury",
          "type": "address"
        },
        {
          "indexed": true,
          "internalType": "address",
          "name": "newTreasury",
          "type": "address"
        }
      ],
      "name": "TreasuryAddressUpdated",
      "type": "event"
    },
    {
      "anonymous": false,
      "inputs": [
        {
          "indexed": false,
          "internalType": "address",
          "name": "account",
          "type": "address"
        }
      ],
      "name": "Unpaused",
      "type": "event"
    },
    {
      "inputs": [],
      "name": "ADMIN_ROLE",
      "outputs": [
        {
          "internalType": "bytes32",
          "name": "",
          "type": "bytes32"
        }
      ],
      "stateMutability": "view",
      "type": "function"
    },
    {
      "inputs": [],
      "name": "DEFAULT_ADMIN_ROLE",
      "outputs": [
        {
          "internalType": "bytes32",
          "name": "",
          "type": "bytes32"
        }
      ],
      "stateMutability": "view",
      "type": "function"
    },
    {
      "inputs": [
        {
          "internalType": "uint256",
          "name": "_skillId",
          "type": "uint256"
        }
      ],
      "name": "activateIndividualSkill",
      "outputs": [],
      "stateMutability": "nonpayable",
      "type": "function"
    },
    {
      "inputs": [
        {
          "internalType": "uint8",
          "name": "",
          "type": "uint8"
        }
      ],
      "name": "basePricePerRarity",
      "outputs": [
        {
          "internalType": "uint256",
          "name": "",
          "type": "uint256"
        }
      ],
      "stateMutability": "view",
      "type": "function"
    },
    {
      "inputs": [
        {
          "internalType": "uint256",
          "name": "_skillId",
          "type": "uint256"
        }
      ],
      "name": "claimExpiredIndividualSkill",
      "outputs": [],
      "stateMutability": "nonpayable",
      "type": "function"
    },
    {
      "inputs": [
        {
          "internalType": "uint256",
          "name": "_skillId",
          "type": "uint256"
        }
      ],
      "name": "deactivateIndividualSkill",
      "outputs": [],
      "stateMutability": "nonpayable",
      "type": "function"
    },
    {
      "inputs": [
        {
          "internalType": "uint256",
          "name": "_amount",
          "type": "uint256"
        }
      ],
      "name": "emergencyWithdraw",
      "outputs": [],
      "stateMutability": "nonpayable",
      "type": "function"
    },
    {
      "inputs": [],
      "name": "emergencyWithdrawAll",
      "outputs": [],
      "stateMutability": "nonpayable",
      "type": "function"
    },
    {
      "inputs": [
        {
          "internalType": "address",
          "name": "_user",
          "type": "address"
        }
      ],
      "name": "getActiveIndividualSkills",
      "outputs": [
        {
          "internalType": "uint256[]",
          "name": "activeSkillIds",
          "type": "uint256[]"
        }
      ],
      "stateMutability": "view",
      "type": "function"
    },
    {
      "inputs": [],
      "name": "getAllSkillsPricing",
      "outputs": [
        {
          "internalType": "enum IStakingIntegration.SkillType[]",
          "name": "skillTypes",
          "type": "uint8[]"
        },
        {
          "internalType": "uint8[]",
          "name": "categories",
          "type": "uint8[]"
        },
        {
          "internalType": "uint256[][]",
          "name": "prices",
          "type": "uint256[][]"
        }
      ],
      "stateMutability": "view",
      "type": "function"
    },
    {
      "inputs": [],
      "name": "getCurrentBasePrices",
      "outputs": [
        {
          "internalType": "uint256[5]",
          "name": "prices",
          "type": "uint256[5]"
        }
      ],
      "stateMutability": "view",
      "type": "function"
    },
    {
      "inputs": [
        {
          "internalType": "uint256",
          "name": "_skillId",
          "type": "uint256"
        }
      ],
      "name": "getIndividualSkill",
      "outputs": [
        {
          "components": [
            {
              "internalType": "enum IStakingIntegration.SkillType",
              "name": "skillType",
              "type": "uint8"
            },
            {
              "internalType": "enum IStakingIntegration.Rarity",
              "name": "rarity",
              "type": "uint8"
            },
            {
              "internalType": "uint256",
              "name": "level",
              "type": "uint256"
            },
            {
              "internalType": "address",
              "name": "owner",
              "type": "address"
            },
            {
              "internalType": "uint256",
              "name": "purchasedAt",
              "type": "uint256"
            },
            {
              "internalType": "uint256",
              "name": "expiresAt",
              "type": "uint256"
            },
            {
              "internalType": "bool",
              "name": "isActive",
              "type": "bool"
            },
            {
              "internalType": "string",
              "name": "metadata",
              "type": "string"
            },
            {
              "internalType": "uint256",
              "name": "createdAt",
              "type": "uint256"
            }
          ],
          "internalType": "struct IIndividualSkills.IndividualSkill",
          "name": "",
          "type": "tuple"
        }
      ],
      "stateMutability": "view",
      "type": "function"
    },
    {
      "inputs": [
        {
          "internalType": "enum IStakingIntegration.Rarity",
          "name": "_rarity",
          "type": "uint8"
        }
      ],
      "name": "getIndividualSkillPrice",
      "outputs": [
        {
          "internalType": "uint256",
          "name": "",
          "type": "uint256"
        }
      ],
      "stateMutability": "view",
      "type": "function"
    },
    {
      "inputs": [],
      "name": "getIndividualSkillsMarketStats",
      "outputs": [
        {
          "internalType": "uint256",
          "name": "skillsSold",
          "type": "uint256"
        },
        {
          "internalType": "uint256",
          "name": "activeSkills",
          "type": "uint256"
        },
        {
          "internalType": "uint256",
          "name": "revenue",
          "type": "uint256"
        },
        {
          "internalType": "uint256",
          "name": "averagePricePerSkill",
          "type": "uint256"
        },
        {
          "internalType": "uint256",
          "name": "uniqueBuyers",
          "type": "uint256"
        }
      ],
      "stateMutability": "view",
      "type": "function"
    },
    {
      "inputs": [],
      "name": "getLevelMultipliers",
      "outputs": [
        {
          "internalType": "uint16[3]",
          "name": "multipliers",
          "type": "uint16[3]"
        }
      ],
      "stateMutability": "view",
      "type": "function"
    },
    {
      "inputs": [],
      "name": "getRarityEffectMultipliers",
      "outputs": [
        {
          "internalType": "uint16[5]",
          "name": "multipliers",
          "type": "uint16[5]"
        }
      ],
      "stateMutability": "view",
      "type": "function"
    },
    {
      "inputs": [
        {
          "internalType": "bytes32",
          "name": "role",
          "type": "bytes32"
        }
      ],
      "name": "getRoleAdmin",
      "outputs": [
        {
          "internalType": "bytes32",
          "name": "",
          "type": "bytes32"
        }
      ],
      "stateMutability": "view",
      "type": "function"
    },
    {
      "inputs": [],
      "name": "getSkillAdoptionRates",
      "outputs": [
        {
          "internalType": "enum IStakingIntegration.SkillType[]",
          "name": "skillTypes",
          "type": "uint8[]"
        },
        {
          "internalType": "uint256[]",
          "name": "userCounts",
          "type": "uint256[]"
        },
        {
          "internalType": "uint256[]",
          "name": "percentages",
          "type": "uint256[]"
        }
      ],
      "stateMutability": "view",
      "type": "function"
    },
    {
      "inputs": [
        {
          "internalType": "enum IStakingIntegration.SkillType",
          "name": "_skillType",
          "type": "uint8"
        }
      ],
      "name": "getSkillEffectValuesAllRarities",
      "outputs": [
        {
          "internalType": "uint16[5]",
          "name": "effectValues",
          "type": "uint16[5]"
        }
      ],
      "stateMutability": "view",
      "type": "function"
    },
    {
      "inputs": [
        {
          "internalType": "enum IStakingIntegration.SkillType",
          "name": "_skillType",
          "type": "uint8"
        },
        {
          "internalType": "enum IStakingIntegration.Rarity",
          "name": "_rarity",
          "type": "uint8"
        }
      ],
      "name": "getSkillPrice",
      "outputs": [
        {
          "internalType": "uint256",
          "name": "",
          "type": "uint256"
        }
      ],
      "stateMutability": "view",
      "type": "function"
    },
    {
      "inputs": [
        {
          "internalType": "enum IStakingIntegration.SkillType",
          "name": "_skillType",
          "type": "uint8"
        }
      ],
      "name": "getSkillPricesAllRarities",
      "outputs": [
        {
          "internalType": "uint256[5]",
          "name": "prices",
          "type": "uint256[5]"
        }
      ],
      "stateMutability": "view",
      "type": "function"
    },
    {
      "inputs": [],
      "name": "getSkillRevenueByRarity",
      "outputs": [
        {
          "internalType": "enum IStakingIntegration.Rarity[]",
          "name": "rarities",
          "type": "uint8[]"
        },
        {
          "internalType": "uint256[]",
          "name": "revenue",
          "type": "uint256[]"
        },
        {
          "internalType": "uint256[]",
          "name": "salesCount",
          "type": "uint256[]"
        }
      ],
      "stateMutability": "view",
      "type": "function"
    },
    {
      "inputs": [],
      "name": "getSkillRevenueByType",
      "outputs": [
        {
          "internalType": "enum IStakingIntegration.SkillType[]",
          "name": "skillTypes",
          "type": "uint8[]"
        },
        {
          "internalType": "uint256[]",
          "name": "revenue",
          "type": "uint256[]"
        },
        {
          "internalType": "uint256[]",
          "name": "salesCount",
          "type": "uint256[]"
        }
      ],
      "stateMutability": "view",
      "type": "function"
    },
    {
      "inputs": [
        {
          "internalType": "address",
          "name": "_user",
          "type": "address"
        },
        {
          "internalType": "enum IStakingIntegration.SkillType",
          "name": "",
          "type": "uint8"
        }
      ],
      "name": "getUserActiveIndividualSkills",
      "outputs": [
        {
          "internalType": "uint256[]",
          "name": "",
          "type": "uint256[]"
        }
      ],
      "stateMutability": "view",
      "type": "function"
    },
    {
      "inputs": [
        {
          "internalType": "address",
          "name": "_user",
          "type": "address"
        }
      ],
      "name": "getUserActiveSkillCount",
      "outputs": [
        {
          "internalType": "uint8",
          "name": "count",
          "type": "uint8"
        }
      ],
      "stateMutability": "view",
      "type": "function"
    },
    {
      "inputs": [
        {
          "internalType": "address",
          "name": "_user",
          "type": "address"
        }
      ],
      "name": "getUserIndividualSkills",
      "outputs": [
        {
          "internalType": "uint256[]",
          "name": "",
          "type": "uint256[]"
        }
      ],
      "stateMutability": "view",
      "type": "function"
    },
    {
      "inputs": [
        {
          "internalType": "address",
          "name": "_user",
          "type": "address"
        }
      ],
      "name": "getUserIndividualSkillsDetailed",
      "outputs": [
        {
          "components": [
            {
              "internalType": "enum IStakingIntegration.SkillType",
              "name": "skillType",
              "type": "uint8"
            },
            {
              "internalType": "enum IStakingIntegration.Rarity",
              "name": "rarity",
              "type": "uint8"
            },
            {
              "internalType": "uint256",
              "name": "level",
              "type": "uint256"
            },
            {
              "internalType": "address",
              "name": "owner",
              "type": "address"
            },
            {
              "internalType": "uint256",
              "name": "purchasedAt",
              "type": "uint256"
            },
            {
              "internalType": "uint256",
              "name": "expiresAt",
              "type": "uint256"
            },
            {
              "internalType": "bool",
              "name": "isActive",
              "type": "bool"
            },
            {
              "internalType": "string",
              "name": "metadata",
              "type": "string"
            },
            {
              "internalType": "uint256",
              "name": "createdAt",
              "type": "uint256"
            }
          ],
          "internalType": "struct IIndividualSkills.IndividualSkill[]",
          "name": "skills",
          "type": "tuple[]"
        },
        {
          "internalType": "bool[]",
          "name": "isActive",
          "type": "bool[]"
        }
      ],
      "stateMutability": "view",
      "type": "function"
    },
    {
      "inputs": [
        {
          "internalType": "address",
          "name": "_user",
          "type": "address"
        }
      ],
      "name": "getUserPlatformSkills",
      "outputs": [
        {
          "components": [
            {
              "internalType": "enum IStakingIntegration.SkillType",
              "name": "skillType",
              "type": "uint8"
            },
            {
              "internalType": "enum IStakingIntegration.Rarity",
              "name": "rarity",
              "type": "uint8"
            },
            {
              "internalType": "uint256",
              "name": "level",
              "type": "uint256"
            },
            {
              "internalType": "address",
              "name": "owner",
              "type": "address"
            },
            {
              "internalType": "uint256",
              "name": "purchasedAt",
              "type": "uint256"
            },
            {
              "internalType": "uint256",
              "name": "expiresAt",
              "type": "uint256"
            },
            {
              "internalType": "bool",
              "name": "isActive",
              "type": "bool"
            },
            {
              "internalType": "string",
              "name": "metadata",
              "type": "string"
            },
            {
              "internalType": "uint256",
              "name": "createdAt",
              "type": "uint256"
            }
          ],
          "internalType": "struct IIndividualSkills.IndividualSkill[]",
          "name": "skills",
          "type": "tuple[]"
        },
        {
          "internalType": "bool[]",
          "name": "isActive",
          "type": "bool[]"
        },
        {
          "internalType": "bool[]",
          "name": "isExpired",
          "type": "bool[]"
        }
      ],
      "stateMutability": "view",
      "type": "function"
    },
    {
      "inputs": [
        {
          "internalType": "address",
          "name": "_user",
          "type": "address"
        }
      ],
      "name": "getUserSkillSpending",
      "outputs": [
        {
          "internalType": "uint256",
          "name": "totalSpent",
          "type": "uint256"
        },
        {
          "internalType": "uint256",
          "name": "skillsPurchased",
          "type": "uint256"
        },
        {
          "internalType": "uint256",
          "name": "averageSpentPerSkill",
          "type": "uint256"
        },
        {
          "internalType": "enum IStakingIntegration.SkillType",
          "name": "mostPurchasedType",
          "type": "uint8"
        }
      ],
      "stateMutability": "view",
      "type": "function"
    },
    {
      "inputs": [
        {
          "internalType": "address",
          "name": "_user",
          "type": "address"
        }
      ],
      "name": "getUserSkillStats",
      "outputs": [
        {
          "internalType": "uint256",
          "name": "totalSkills",
          "type": "uint256"
        },
        {
          "internalType": "uint256",
          "name": "totalStakingSkills",
          "type": "uint256"
        },
        {
          "internalType": "uint256",
          "name": "totalPlatformSkills",
          "type": "uint256"
        },
        {
          "internalType": "uint256",
          "name": "activeCount",
          "type": "uint256"
        },
        {
          "internalType": "uint256",
          "name": "expiredCount",
          "type": "uint256"
        }
      ],
      "stateMutability": "view",
      "type": "function"
    },
    {
      "inputs": [
        {
          "internalType": "address",
          "name": "_user",
          "type": "address"
        }
      ],
      "name": "getUserSkillsByCategory",
      "outputs": [
        {
          "components": [
            {
              "internalType": "enum IStakingIntegration.SkillType",
              "name": "skillType",
              "type": "uint8"
            },
            {
              "internalType": "enum IStakingIntegration.Rarity",
              "name": "rarity",
              "type": "uint8"
            },
            {
              "internalType": "uint256",
              "name": "level",
              "type": "uint256"
            },
            {
              "internalType": "address",
              "name": "owner",
              "type": "address"
            },
            {
              "internalType": "uint256",
              "name": "purchasedAt",
              "type": "uint256"
            },
            {
              "internalType": "uint256",
              "name": "expiresAt",
              "type": "uint256"
            },
            {
              "internalType": "bool",
              "name": "isActive",
              "type": "bool"
            },
            {
              "internalType": "string",
              "name": "metadata",
              "type": "string"
            },
            {
              "internalType": "uint256",
              "name": "createdAt",
              "type": "uint256"
            }
          ],
          "internalType": "struct IIndividualSkills.IndividualSkill[]",
          "name": "stakingSkills",
          "type": "tuple[]"
        },
        {
          "components": [
            {
              "internalType": "enum IStakingIntegration.SkillType",
              "name": "skillType",
              "type": "uint8"
            },
            {
              "internalType": "enum IStakingIntegration.Rarity",
              "name": "rarity",
              "type": "uint8"
            },
            {
              "internalType": "uint256",
              "name": "level",
              "type": "uint256"
            },
            {
              "internalType": "address",
              "name": "owner",
              "type": "address"
            },
            {
              "internalType": "uint256",
              "name": "purchasedAt",
              "type": "uint256"
            },
            {
              "internalType": "uint256",
              "name": "expiresAt",
              "type": "uint256"
            },
            {
              "internalType": "bool",
              "name": "isActive",
              "type": "bool"
            },
            {
              "internalType": "string",
              "name": "metadata",
              "type": "string"
            },
            {
              "internalType": "uint256",
              "name": "createdAt",
              "type": "uint256"
            }
          ],
          "internalType": "struct IIndividualSkills.IndividualSkill[]",
          "name": "activeSkills",
          "type": "tuple[]"
        }
      ],
      "stateMutability": "view",
      "type": "function"
    },
    {
      "inputs": [
        {
          "internalType": "address",
          "name": "_user",
          "type": "address"
        }
      ],
      "name": "getUserSkillsComprehensive",
      "outputs": [
        {
          "components": [
            {
              "internalType": "enum IStakingIntegration.SkillType",
              "name": "skillType",
              "type": "uint8"
            },
            {
              "internalType": "enum IStakingIntegration.Rarity",
              "name": "rarity",
              "type": "uint8"
            },
            {
              "internalType": "uint256",
              "name": "level",
              "type": "uint256"
            },
            {
              "internalType": "address",
              "name": "owner",
              "type": "address"
            },
            {
              "internalType": "uint256",
              "name": "purchasedAt",
              "type": "uint256"
            },
            {
              "internalType": "uint256",
              "name": "expiresAt",
              "type": "uint256"
            },
            {
              "internalType": "bool",
              "name": "isActive",
              "type": "bool"
            },
            {
              "internalType": "string",
              "name": "metadata",
              "type": "string"
            },
            {
              "internalType": "uint256",
              "name": "createdAt",
              "type": "uint256"
            }
          ],
          "internalType": "struct IIndividualSkills.IndividualSkill[]",
          "name": "allSkills",
          "type": "tuple[]"
        },
        {
          "internalType": "bool[]",
          "name": "isActive",
          "type": "bool[]"
        },
        {
          "internalType": "bool[]",
          "name": "isExpired",
          "type": "bool[]"
        },
        {
          "internalType": "uint256[]",
          "name": "expiresIn",
          "type": "uint256[]"
        },
        {
          "internalType": "string[]",
          "name": "categoryNames",
          "type": "string[]"
        }
      ],
      "stateMutability": "view",
      "type": "function"
    },
    {
      "inputs": [
        {
          "internalType": "address",
          "name": "_user",
          "type": "address"
        }
      ],
      "name": "getUserStakingSkills",
      "outputs": [
        {
          "components": [
            {
              "internalType": "enum IStakingIntegration.SkillType",
              "name": "skillType",
              "type": "uint8"
            },
            {
              "internalType": "enum IStakingIntegration.Rarity",
              "name": "rarity",
              "type": "uint8"
            },
            {
              "internalType": "uint256",
              "name": "level",
              "type": "uint256"
            },
            {
              "internalType": "address",
              "name": "owner",
              "type": "address"
            },
            {
              "internalType": "uint256",
              "name": "purchasedAt",
              "type": "uint256"
            },
            {
              "internalType": "uint256",
              "name": "expiresAt",
              "type": "uint256"
            },
            {
              "internalType": "bool",
              "name": "isActive",
              "type": "bool"
            },
            {
              "internalType": "string",
              "name": "metadata",
              "type": "string"
            },
            {
              "internalType": "uint256",
              "name": "createdAt",
              "type": "uint256"
            }
          ],
          "internalType": "struct IIndividualSkills.IndividualSkill[]",
          "name": "skills",
          "type": "tuple[]"
        },
        {
          "internalType": "bool[]",
          "name": "isActive",
          "type": "bool[]"
        },
        {
          "internalType": "bool[]",
          "name": "isExpired",
          "type": "bool[]"
        }
      ],
      "stateMutability": "view",
      "type": "function"
    },
    {
      "inputs": [
        {
          "internalType": "bytes32",
          "name": "role",
          "type": "bytes32"
        },
        {
          "internalType": "address",
          "name": "account",
          "type": "address"
        }
      ],
      "name": "grantRole",
      "outputs": [],
      "stateMutability": "nonpayable",
      "type": "function"
    },
    {
      "inputs": [
        {
          "internalType": "bytes32",
          "name": "role",
          "type": "bytes32"
        },
        {
          "internalType": "address",
          "name": "account",
          "type": "address"
        }
      ],
      "name": "hasRole",
      "outputs": [
        {
          "internalType": "bool",
          "name": "",
          "type": "bool"
        }
      ],
      "stateMutability": "view",
      "type": "function"
    },
    {
      "inputs": [
        {
          "internalType": "uint256",
          "name": "",
          "type": "uint256"
        }
      ],
      "name": "individualSkills",
      "outputs": [
        {
          "internalType": "enum IStakingIntegration.SkillType",
          "name": "skillType",
          "type": "uint8"
        },
        {
          "internalType": "enum IStakingIntegration.Rarity",
          "name": "rarity",
          "type": "uint8"
        },
        {
          "internalType": "uint256",
          "name": "level",
          "type": "uint256"
        },
        {
          "internalType": "address",
          "name": "owner",
          "type": "address"
        },
        {
          "internalType": "uint256",
          "name": "purchasedAt",
          "type": "uint256"
        },
        {
          "internalType": "uint256",
          "name": "expiresAt",
          "type": "uint256"
        },
        {
          "internalType": "bool",
          "name": "isActive",
          "type": "bool"
        },
        {
          "internalType": "string",
          "name": "metadata",
          "type": "string"
        },
        {
          "internalType": "uint256",
          "name": "createdAt",
          "type": "uint256"
        }
      ],
      "stateMutability": "view",
      "type": "function"
    },
    {
      "inputs": [
        {
          "internalType": "uint8",
          "name": "",
          "type": "uint8"
        }
      ],
      "name": "levelMultiplier",
      "outputs": [
        {
          "internalType": "uint16",
          "name": "",
          "type": "uint16"
        }
      ],
      "stateMutability": "view",
      "type": "function"
    },
    {
      "inputs": [],
      "name": "pause",
      "outputs": [],
      "stateMutability": "nonpayable",
      "type": "function"
    },
    {
      "inputs": [],
      "name": "paused",
      "outputs": [
        {
          "internalType": "bool",
          "name": "",
          "type": "bool"
        }
      ],
      "stateMutability": "view",
      "type": "function"
    },
    {
      "inputs": [
        {
          "internalType": "enum IStakingIntegration.SkillType",
          "name": "_skillType",
          "type": "uint8"
        },
        {
          "internalType": "enum IStakingIntegration.Rarity",
          "name": "_rarity",
          "type": "uint8"
        },
        {
          "internalType": "uint256",
          "name": "_level",
          "type": "uint256"
        },
        {
          "internalType": "string",
          "name": "_metadata",
          "type": "string"
        }
      ],
      "name": "purchaseIndividualSkill",
      "outputs": [
        {
          "internalType": "uint256",
          "name": "skillId",
          "type": "uint256"
        }
      ],
      "stateMutability": "payable",
      "type": "function"
    },
    {
      "inputs": [
        {
          "internalType": "uint8",
          "name": "",
          "type": "uint8"
        }
      ],
      "name": "rarityEffectMultiplier",
      "outputs": [
        {
          "internalType": "uint16",
          "name": "",
          "type": "uint16"
        }
      ],
      "stateMutability": "view",
      "type": "function"
    },
    {
      "inputs": [
        {
          "internalType": "uint256",
          "name": "_skillId",
          "type": "uint256"
        }
      ],
      "name": "renewIndividualSkill",
      "outputs": [],
      "stateMutability": "payable",
      "type": "function"
    },
    {
      "inputs": [
        {
          "internalType": "bytes32",
          "name": "role",
          "type": "bytes32"
        },
        {
          "internalType": "address",
          "name": "account",
          "type": "address"
        }
      ],
      "name": "renounceRole",
      "outputs": [],
      "stateMutability": "nonpayable",
      "type": "function"
    },
    {
      "inputs": [],
      "name": "resetSkillPricingToDefaults",
      "outputs": [],
      "stateMutability": "nonpayable",
      "type": "function"
    },
    {
      "inputs": [
        {
          "internalType": "enum IStakingIntegration.Rarity",
          "name": "",
          "type": "uint8"
        }
      ],
      "name": "revenueByRarity",
      "outputs": [
        {
          "internalType": "uint256",
          "name": "",
          "type": "uint256"
        }
      ],
      "stateMutability": "view",
      "type": "function"
    },
    {
      "inputs": [
        {
          "internalType": "enum IStakingIntegration.SkillType",
          "name": "",
          "type": "uint8"
        }
      ],
      "name": "revenueBySkillType",
      "outputs": [
        {
          "internalType": "uint256",
          "name": "",
          "type": "uint256"
        }
      ],
      "stateMutability": "view",
      "type": "function"
    },
    {
      "inputs": [
        {
          "internalType": "bytes32",
          "name": "role",
          "type": "bytes32"
        },
        {
          "internalType": "address",
          "name": "account",
          "type": "address"
        }
      ],
      "name": "revokeRole",
      "outputs": [],
      "stateMutability": "nonpayable",
      "type": "function"
    },
    {
      "inputs": [
        {
          "internalType": "uint8",
          "name": "_rarityIndex",
          "type": "uint8"
        },
        {
          "internalType": "uint256",
          "name": "_newPrice",
          "type": "uint256"
        }
      ],
      "name": "setBasePricePerRarity",
      "outputs": [],
      "stateMutability": "nonpayable",
      "type": "function"
    },
    {
      "inputs": [
        {
          "internalType": "uint8",
          "name": "_levelIndex",
          "type": "uint8"
        },
        {
          "internalType": "uint16",
          "name": "_newMultiplier",
          "type": "uint16"
        }
      ],
      "name": "setLevelMultiplier",
      "outputs": [],
      "stateMutability": "nonpayable",
      "type": "function"
    },
    {
      "inputs": [
        {
          "internalType": "uint8",
          "name": "_rarityIndex",
          "type": "uint8"
        },
        {
          "internalType": "uint16",
          "name": "_newMultiplier",
          "type": "uint16"
        }
      ],
      "name": "setRarityEffectMultiplier",
      "outputs": [],
      "stateMutability": "nonpayable",
      "type": "function"
    },
    {
      "inputs": [
        {
          "internalType": "enum IStakingIntegration.SkillType",
          "name": "_skillType",
          "type": "uint8"
        },
        {
          "internalType": "enum IStakingIntegration.Rarity",
          "name": "_rarity",
          "type": "uint8"
        },
        {
          "internalType": "uint16",
          "name": "_effectValue",
          "type": "uint16"
        }
      ],
      "name": "setSkillEffectValue",
      "outputs": [],
      "stateMutability": "nonpayable",
      "type": "function"
    },
    {
      "inputs": [
        {
          "internalType": "enum IStakingIntegration.SkillType",
          "name": "_skillType",
          "type": "uint8"
        },
        {
          "internalType": "uint16",
          "name": "_commonEffect",
          "type": "uint16"
        },
        {
          "internalType": "uint16",
          "name": "_uncommonEffect",
          "type": "uint16"
        },
        {
          "internalType": "uint16",
          "name": "_rareEffect",
          "type": "uint16"
        },
        {
          "internalType": "uint16",
          "name": "_epicEffect",
          "type": "uint16"
        },
        {
          "internalType": "uint16",
          "name": "_legendaryEffect",
          "type": "uint16"
        }
      ],
      "name": "setSkillEffectValuesAllRarities",
      "outputs": [],
      "stateMutability": "nonpayable",
      "type": "function"
    },
    {
      "inputs": [
        {
          "internalType": "address",
          "name": "_stakingAddress",
          "type": "address"
        }
      ],
      "name": "setStakingContract",
      "outputs": [],
      "stateMutability": "nonpayable",
      "type": "function"
    },
    {
      "inputs": [
        {
          "internalType": "address",
          "name": "_treasuryAddress",
          "type": "address"
        }
      ],
      "name": "setTreasuryAddress",
      "outputs": [],
      "stateMutability": "nonpayable",
      "type": "function"
    },
    {
      "inputs": [
        {
          "internalType": "enum IStakingIntegration.SkillType",
          "name": "",
          "type": "uint8"
        },
        {
          "internalType": "enum IStakingIntegration.Rarity",
          "name": "",
          "type": "uint8"
        }
      ],
      "name": "skillEffectValues",
      "outputs": [
        {
          "internalType": "uint16",
          "name": "",
          "type": "uint16"
        }
      ],
      "stateMutability": "view",
      "type": "function"
    },
    {
      "inputs": [
        {
          "internalType": "enum IStakingIntegration.SkillType",
          "name": "",
          "type": "uint8"
        }
      ],
      "name": "skillLevelCount",
      "outputs": [
        {
          "internalType": "uint8",
          "name": "",
          "type": "uint8"
        }
      ],
      "stateMutability": "view",
      "type": "function"
    },
    {
      "inputs": [
        {
          "internalType": "enum IStakingIntegration.SkillType",
          "name": "",
          "type": "uint8"
        },
        {
          "internalType": "enum IStakingIntegration.Rarity",
          "name": "",
          "type": "uint8"
        }
      ],
      "name": "skillPrices",
      "outputs": [
        {
          "internalType": "uint256",
          "name": "",
          "type": "uint256"
        }
      ],
      "stateMutability": "view",
      "type": "function"
    },
    {
      "inputs": [
        {
          "internalType": "enum IStakingIntegration.Rarity",
          "name": "",
          "type": "uint8"
        }
      ],
      "name": "skillsSoldByRarity",
      "outputs": [
        {
          "internalType": "uint256",
          "name": "",
          "type": "uint256"
        }
      ],
      "stateMutability": "view",
      "type": "function"
    },
    {
      "inputs": [
        {
          "internalType": "enum IStakingIntegration.SkillType",
          "name": "",
          "type": "uint8"
        }
      ],
      "name": "skillsSoldByType",
      "outputs": [
        {
          "internalType": "uint256",
          "name": "",
          "type": "uint256"
        }
      ],
      "stateMutability": "view",
      "type": "function"
    },
    {
      "inputs": [],
      "name": "stakingContractAddress",
      "outputs": [
        {
          "internalType": "address",
          "name": "",
          "type": "address"
        }
      ],
      "stateMutability": "view",
      "type": "function"
    },
    {
      "inputs": [
        {
          "internalType": "bytes4",
          "name": "interfaceId",
          "type": "bytes4"
        }
      ],
      "name": "supportsInterface",
      "outputs": [
        {
          "internalType": "bool",
          "name": "",
          "type": "bool"
        }
      ],
      "stateMutability": "view",
      "type": "function"
    },
    {
      "inputs": [],
      "name": "totalRevenue",
      "outputs": [
        {
          "internalType": "uint256",
          "name": "",
          "type": "uint256"
        }
      ],
      "stateMutability": "view",
      "type": "function"
    },
    {
      "inputs": [],
      "name": "totalSkillsSold",
      "outputs": [
        {
          "internalType": "uint256",
          "name": "",
          "type": "uint256"
        }
      ],
      "stateMutability": "view",
      "type": "function"
    },
    {
      "inputs": [
        {
          "internalType": "uint256",
          "name": "_skillId",
          "type": "uint256"
        },
        {
          "internalType": "address",
          "name": "_recipient",
          "type": "address"
        }
      ],
      "name": "transferIndividualSkill",
      "outputs": [],
      "stateMutability": "nonpayable",
      "type": "function"
    },
    {
      "inputs": [],
      "name": "treasuryAddress",
      "outputs": [
        {
          "internalType": "address",
          "name": "",
          "type": "address"
        }
      ],
      "stateMutability": "view",
      "type": "function"
    },
    {
      "inputs": [],
      "name": "unpause",
      "outputs": [],
      "stateMutability": "nonpayable",
      "type": "function"
    },
    {
      "inputs": [
        {
          "internalType": "uint256",
          "name": "_commonPrice",
          "type": "uint256"
        },
        {
          "internalType": "uint256",
          "name": "_uncommonPrice",
          "type": "uint256"
        },
        {
          "internalType": "uint256",
          "name": "_rarePrice",
          "type": "uint256"
        },
        {
          "internalType": "uint256",
          "name": "_epicPrice",
          "type": "uint256"
        },
        {
          "internalType": "uint256",
          "name": "_legendaryPrice",
          "type": "uint256"
        }
      ],
      "name": "updateActiveSkillsPricing",
      "outputs": [],
      "stateMutability": "nonpayable",
      "type": "function"
    },
    {
      "inputs": [
        {
          "internalType": "enum IStakingIntegration.SkillType",
          "name": "_skillType",
          "type": "uint8"
        },
        {
          "internalType": "enum IStakingIntegration.Rarity",
          "name": "_rarity",
          "type": "uint8"
        },
        {
          "internalType": "uint256",
          "name": "_price",
          "type": "uint256"
        }
      ],
      "name": "updateSkillPrice",
      "outputs": [],
      "stateMutability": "nonpayable",
      "type": "function"
    },
    {
      "inputs": [
        {
          "internalType": "uint256",
          "name": "_commonPrice",
          "type": "uint256"
        },
        {
          "internalType": "uint256",
          "name": "_uncommonPrice",
          "type": "uint256"
        },
        {
          "internalType": "uint256",
          "name": "_rarePrice",
          "type": "uint256"
        },
        {
          "internalType": "uint256",
          "name": "_epicPrice",
          "type": "uint256"
        },
        {
          "internalType": "uint256",
          "name": "_legendaryPrice",
          "type": "uint256"
        }
      ],
      "name": "updateStakingSkillsPricing",
      "outputs": [],
      "stateMutability": "nonpayable",
      "type": "function"
    },
    {
      "inputs": [
        {
          "internalType": "address",
          "name": "",
          "type": "address"
        }
      ],
      "name": "userActiveSkillCount",
      "outputs": [
        {
          "internalType": "uint8",
          "name": "",
          "type": "uint8"
        }
      ],
      "stateMutability": "view",
      "type": "function"
    },
    {
      "inputs": [
        {
          "internalType": "address",
          "name": "",
          "type": "address"
        },
        {
          "internalType": "uint256",
          "name": "",
          "type": "uint256"
        }
      ],
      "name": "userActiveSkills",
      "outputs": [
        {
          "internalType": "uint256",
          "name": "",
          "type": "uint256"
        }
      ],
      "stateMutability": "view",
      "type": "function"
    },
    {
      "inputs": [
        {
          "internalType": "address",
          "name": "",
          "type": "address"
        },
        {
          "internalType": "uint256",
          "name": "",
          "type": "uint256"
        }
      ],
      "name": "userIndividualSkills",
      "outputs": [
        {
          "internalType": "uint256",
          "name": "",
          "type": "uint256"
        }
      ],
      "stateMutability": "view",
      "type": "function"
    },
    {
      "inputs": [
        {
          "internalType": "address",
          "name": "",
          "type": "address"
        }
      ],
      "name": "userTotalSpent",
      "outputs": [
        {
          "internalType": "uint256",
          "name": "",
          "type": "uint256"
        }
      ],
      "stateMutability": "view",
      "type": "function"
    },
    {
      "stateMutability": "payable",
      "type": "receive"
    }
  ],
  "bytecode": "0x60806040523461002a576100196100146100bf565b6100dd565b604051615f2f6111928239615f2f90f35b5f80fd5b634e487b7160e01b5f52604160045260245ffd5b90601f01601f191681019081106001600160401b0382111761006357604052565b61002e565b9061007c61007560405190565b9283610042565b565b6001600160a01b031690565b90565b6001600160a01b0381160361002a57565b9050519061007c8261008d565b9060208282031261002a5761008a9161009e565b61008a6170c1803803806100d281610068565b9283398101906100ab565b61007c90610168565b61007e61008a61008a9290565b61008a906100e6565b61008a61008a61008a9290565b61008a5f6100fc565b906001600160a01b03905b9181191691161790565b61008a9061007e906001600160a01b031682565b61008a90610127565b61008a9061013b565b9061015d61008a61016492610144565b8254610112565b9055565b6101706101f2565b61017c61007e5f6100f3565b6001600160a01b038216146101e1576101d1906101a161019a610109565b3390610269565b6101ca7fa49807205ce4d355092ef5a8a18f56e8913cf4a201fbe287825b095693c2177561019a565b600861014d565b6101d961037e565b61007c6104ef565b63e6c4247b60e01b5f908152600490fd5b61007c610224565b61008a60016100fc565b905f199061011d565b9061021d61008a610164926100fc565b8254610204565b61022c61025e565b61007c6102376101fa565b600261020d565b9060ff9061011d565b9061025761008a61016492151590565b825461023e565b61007c5f6001610247565b9061007c916110dd565b61008a6802b5e3af16b18800006100fc565b61029261008a61008a9290565b60ff1690565b906102a290610285565b5f5260205260405f2090565b61008a6804563918244f4000006100fc565b61008a68056bc75e2d631000006100fc565b61008a680821ab0d44149800006100fc565b61008a680bed1d0263d9f000006100fc565b61030361008a61008a9290565b61ffff1690565b61008a6127106102f6565b9061ffff9061011d565b61030361008a61008a9261ffff1690565b9061034061008a6101649261031f565b8254610315565b61008a613a986102f6565b61008a614e206102f6565b61008a6175306102f6565b61008a61c3506102f6565b61008a6161a86102f6565b6103f3610389610273565b61039e600a916103995f84610298565b61020d565b6103b46103a96102ae565b610399600184610298565b6103ca6103bf6102c0565b610399600284610298565b6103e06103d56102d2565b610399600384610298565b61039960046103ed6102e4565b92610298565b61007c6103fe61030a565b61047b600b610416836104115f84610298565b610330565b61046a610421610347565b9161043183610411600184610298565b61044761043c610352565b610411600284610298565b61045d61045261035d565b610411600384610298565b61041160046103ed610368565b61043c600c93610411600186610298565b61041160036103ed610373565b634e487b7160e01b5f52602160045260245ffd5b601111156104a657565b610488565b9061007c8261049c565b61008a906104ab565b906102a2906104b5565b600511156104a657565b9061007c826104c8565b61008a906104d2565b906102a2906104dc565b6104fa6101f46102f6565b6105066001600d6104be565b5f610510916104e5565b9061051a91610330565b6105256102bc6102f6565b6105316001600d6104be565b600161053c916104e5565b9061054691610330565b6105516103846102f6565b61055d6001600d6104be565b6002610568916104e5565b9061057291610330565b61057d6104b06102f6565b8061058a6001600d6104be565b6003610595916104e5565b9061059f91610330565b6105aa6106406102f6565b806105b76001600d6104be565b60046105c2916104e5565b906105cc91610330565b6105d76103e86102f6565b90816105e56002600d6104be565b5f6105ef916104e5565b906105f991610330565b6106046105146102f6565b806106116002600d6104be565b600161061c916104e5565b9061062691610330565b816106336002600d6104be565b600261063e916104e5565b9061064891610330565b6106536108346102f6565b91826106616002600d6104be565b600361066c916104e5565b9061067691610330565b610681610af06102f6565b948561068f6002600d6104be565b600461069a916104e5565b906106a491610330565b6106af6105dc6102f6565b91826106bd6003600d6104be565b5f6106c7916104e5565b906106d191610330565b6106dc61076c6102f6565b6106e86003600d6104be565b60016106f3916104e5565b906106fd91610330565b6107086108fc6102f6565b806107156003600d6104be565b6002610720916104e5565b9061072a91610330565b610735610bb86102f6565b95866107436003600d6104be565b600361074e916104e5565b9061075891610330565b610763610ed86102f6565b61076f6003600d6104be565b600461077a916104e5565b9061078491610330565b876107916004600d6104be565b5f61079b916104e5565b906107a591610330565b856107b26004600d6104be565b60016107bd916104e5565b906107c791610330565b826107d46004600d6104be565b60026107df916104e5565b906107e991610330565b6107f56004600d6104be565b6003610800916104e5565b9061080a91610330565b610815610a286102f6565b6108216004600d6104be565b600461082c916104e5565b9061083691610330565b836108436005600d6104be565b5f61084d916104e5565b9061085791610330565b876108636107d06102f6565b95866108716005600d6104be565b600161087c916104e5565b9061088691610330565b6108916109c46102f6565b61089d6005600d6104be565b60026108a8916104e5565b906108b291610330565b6108bd610dac6102f6565b6108c96005600d6104be565b60036108d4916104e5565b906108de91610330565b6108e96111946102f6565b93846108f76005600d6104be565b6004610902916104e5565b9061090c91610330565b6006918a61091b84600d6104be565b5f610925916104e5565b9061092f91610330565b61093a83600d6104be565b6001610945916104e5565b9061094f91610330565b61095a82600d6104be565b6002610965916104e5565b9061096f91610330565b61097a6108986102f6565b61098582600d6104be565b6003610990916104e5565b9061099a91610330565b6109a590600d6104be565b60046109b0916104e5565b906109ba91610330565b6109c56107086102f6565b97600791896109d584600d6104be565b5f6109df916104e5565b906109e991610330565b6109f483600d6104be565b60016109ff916104e5565b90610a0991610330565b610a1482600d6104be565b6002610a1f916104e5565b90610a2991610330565b610a34610e746102f6565b610a3f82600d6104be565b6003610a4a916104e5565b90610a5491610330565b610a5f90600d6104be565b6004610a6a916104e5565b90610a7491610330565b84610a816008600d6104be565b5f610a8b916104e5565b90610a9591610330565b81610aa26008600d6104be565b6001610aad916104e5565b90610ab791610330565b82610ac46008600d6104be565b6002610acf916104e5565b90610ad991610330565b83610ae66008600d6104be565b6003610af1916104e5565b90610afb91610330565b610b066113886102f6565b9586610b146008600d6104be565b6004610b1f916104e5565b90610b2991610330565b86600987610b3882600d6104be565b5f610b42916104e5565b90610b4c91610330565b84610b5882600d6104be565b6001610b63916104e5565b90610b6d91610330565b85610b7982600d6104be565b6002610b84916104e5565b90610b8e91610330565b86610b9a82600d6104be565b6003610ba5916104e5565b90610baf91610330565b610bba90600d6104be565b6004610bc5916104e5565b90610bcf91610330565b86600a87610bde82600d6104be565b5f610be8916104e5565b90610bf291610330565b84610bfe82600d6104be565b6001610c09916104e5565b90610c1391610330565b85610c1f82600d6104be565b6002610c2a916104e5565b90610c3491610330565b86610c4082600d6104be565b6003610c4b916104e5565b90610c5591610330565b610c6090600d6104be565b6004610c6b916104e5565b90610c7591610330565b610c806127106102f6565b600b90610c8e82600d6104be565b5f610c98916104e5565b90610ca291610330565b610cad612ee06102f6565b610cb882600d6104be565b6001610cc3916104e5565b90610ccd91610330565b610cd86136b06102f6565b610ce382600d6104be565b6002610cee916104e5565b90610cf891610330565b610d036146506102f6565b610d0e82600d6104be565b6003610d19916104e5565b90610d2391610330565b610d2e615dc06102f6565b90610d3a90600d6104be565b6004610d45916104e5565b90610d4f91610330565b600c9186610d5e84600d6104be565b5f610d68916104e5565b90610d7291610330565b610d7d83600d6104be565b6001610d88916104e5565b90610d9291610330565b610d9d6105786102f6565b610da883600d6104be565b6002610db3916104e5565b90610dbd91610330565b610dc882600d6104be565b6003610dd3916104e5565b90610ddd91610330565b610de86109606102f6565b90610df490600d6104be565b6004610dff916104e5565b90610e0991610330565b610e14613a986102f6565b610e1f600d806104be565b5f610e29916104e5565b90610e3391610330565b610e3e614e206102f6565b610e49600d806104be565b6001610e54916104e5565b90610e5e91610330565b610e696165906102f6565b610e74600d806104be565b6002610e7f916104e5565b90610e8991610330565b610e946175306102f6565b610e9f600d806104be565b6003610eaa916104e5565b90610eb491610330565b610ebf6188b86102f6565b610eca600d806104be565b6004610ed5916104e5565b90610edf91610330565b84600e85610eee82600d6104be565b5f610ef8916104e5565b90610f0291610330565b82610f0e82600d6104be565b6001610f19916104e5565b90610f2391610330565b83610f2f82600d6104be565b6002610f3a916104e5565b90610f4491610330565b84610f5082600d6104be565b6003610f5b916104e5565b90610f6591610330565b610f7090600d6104be565b6004610f7b916104e5565b90610f8591610330565b84600f85610f9482600d6104be565b5f610f9e916104e5565b90610fa891610330565b82610fb482600d6104be565b6001610fbf916104e5565b90610fc991610330565b83610fd582600d6104be565b6002610fe0916104e5565b90610fea91610330565b84610ff682600d6104be565b6003611001916104e5565b9061100b91610330565b61101690600d6104be565b6004611021916104e5565b9061102b91610330565b60109361103985600d6104be565b5f611043916104e5565b9061104d91610330565b61105884600d6104be565b6001611063916104e5565b9061106d91610330565b61107883600d6104be565b6002611083916104e5565b9061108d91610330565b61109882600d6104be565b60036110a3916104e5565b906110ad91610330565b6110b890600d6104be565b60046110c3916104e5565b9061007c91610330565b906102a2565b906102a290610144565b6110ee6110ea8383611172565b1590565b6110f6575050565b6111156001611110845f61110a86826110cd565b016110d3565b610247565b61112f611129611123339390565b93610144565b91610144565b917f2f8788117e7eff1d82e926ec794901d17c78024a50270940304540a733656f0d61115a60405190565b5f90a4565b61008a90610292565b61008a905461115f565b61008a915f61110a61118c936111855f90565b50826110cd565b61116856fe6080604052600436101561001a575b3615610018575f80fd5b005b5f3560e01c806301ffc9a7146104a9578063030f5782146104a45780630538809a1461049f57806311f5483a1461049a57806318f069b91461049557806319be57ee146104905780631bb445c21461048b5780631d9ff7d0146104865780631e1561b814610481578063234d41db1461047c578063248a9ca3146104775780632eb849eb146104725780632f2ff15d1461046d5780633535f48b1461046857806336568abe146104635780633ede838c1461045e5780633f4ba83a1461045957806347474470146104545780634da15f5c1461044f5780635312ea8e1461044a578063554ba2201461044557806357762f6a146104405780635c975abb1461043b578063655277021461043657806365cd7949146104315780636605bfda1461042c578063663b9a6314610427578063676a5068146104225780636e4d63001461041d57806372df82111461041857806372f3e635146104135780637354e29c1461040e5780637575fc7c1461040957806375b238fc14610404578063762b3c31146103ff5780637c93ff44146103fa5780638087dc46146103f55780638456cb59146103f0578063850c1f1f146103eb5780638e916a13146103e6578063908960e0146103e157806391d14854146103dc578063926207de146103d7578063980c6d6d146103d257806398e1ec8b146103cd5780639dd373b9146103c8578063a217fddf146103c3578063a42b6a8e146103be578063ab3acc24146103b9578063ae9a5fcd146103b4578063b5619d26146103af578063bd6d0224146103aa578063bf2d9e0b146103a5578063c0e383d0146103a0578063c5f956af1461039b578063cc8854cc14610396578063d1f038d114610391578063d25476641461038c578063d283cb2f14610387578063d547741f14610382578063d7432c621461037d578063d796304614610378578063dadef3f914610373578063dd1917191461036e578063de6bbf1d14610369578063eb82083014610364578063ec2f59511461035f578063f0ec2ce11461035a578063f8289b8514610355578063f96ecb4b14610350578063fc7647081461034b578063fd1828a9146103465763fde4b2260361000e57611ccd565b611c90565b611c5f565b611c10565b611bea565b611bc3565b611ba7565b611b7d565b611afd565b611ad6565b611abb565b611a91565b611a3c565b611a23565b611a08565b6119de565b6119c2565b61192b565b611910565b6118f2565b6118d7565b6118b0565b611850565b611826565b611800565b6117e7565b6117cc565b6117a3565b611788565b61175e565b611745565b611729565b611710565b6116d9565b611662565b611621565b6115f0565b6114fd565b6114a6565b611471565b611456565b61142e565b6113f0565b6113c9565b6113ae565b611393565b611311565b6112f9565b6112c2565b61103e565b61100f565b610ff0565b610f76565b610f02565b610edb565b610e65565b610dd4565b610daa565b610c2f565b610bfa565b610bb7565b610b66565b610a9d565b610a81565b610a68565b6109ef565b6109a0565b610902565b61083d565b6106a6565b610624565b6105e5565b6104ef565b6001600160e01b031981165b036104c157565b5f80fd5b905035906104d2826104ae565b565b906020828203126104c1576104e8916104c5565b90565b9052565b346104c15761051c61050a6105053660046104d4565b611cfb565b60405191829182901515815260200190565b0390f35b601111156104c157565b905035906104d282610520565b600511156104c157565b905035906104d282610537565b806104ba565b905035906104d28261054e565b909182601f830112156104c15781359167ffffffffffffffff83116104c15760200192600183028401116104c157565b906080828203126104c1576105a6818361052a565b926105b48260208501610541565b926105c28360408301610554565b92606082013567ffffffffffffffff81116104c1576105e19201610561565b9091565b61051c6105ff6105f6366004610591565b939290926124a0565b6040515b9182918290815260200190565b906020828203126104c1576104e891610554565b346104c15761063c610637366004610610565b6126f1565b604051005b5f9103126104c157565b0190565b61065f61065b60039390565b9190565b5f915b83831061066f5750505050565b61068d610686600192845161ffff16815260200190565b9260200190565b92019190610662565b6060810192916104d2919061064f565b346104c1576106b6366004610641565b61051c6106c1612775565b60405191829182610696565b634e487b7160e01b5f52602160045260245ffd5b601111156106eb57565b6106cd565b906104d2826106e1565b6104e8906106f0565b6104eb906106fa565b600511156106eb57565b906104d28261070c565b6104e890610716565b6104eb90610720565b6001600160a01b031690565b5f5b83811061074f5750505f910152565b8181015183820152602001610740565b61078061078960209361064b93610774815190565b80835293849260200190565b9586910161073e565b601f01601f191690565b906104e8906101008061082461012084016107b45f8801515f870190610703565b6107c660208801516020870190610729565b6107d560408801516040870152565b6060878101516001600160a01b0316908601526107f760808801516080870152565b61080660a088015160a0870152565b60c08781015115159086015260e087015185820360e087015261075f565b940151910152565b60208082526104e892910190610793565b346104c15761051c610858610853366004610610565b612932565b6040519182918261082c565b6001600160a01b0381166104ba565b905035906104d282610864565b91906040838203126104c1576104e890602061089c8286610873565b940161052a565b906108bc6106866108b2845190565b8084529260200190565b905f5b8181106108cc5750505090565b9091926108e96108e26001928651815260200190565b9460200190565b9291016108bf565b60208082526104e8929101906108a3565b346104c15761051c61091e610918366004610880565b906129d0565b604051918291826108f1565b91906040838203126104c1576104e8906020610946828661052a565b9401610541565b90610957906106fa565b5f5260205260405f2090565b9061095790610720565b6104e8916008021c81565b906104e8915461096d565b61099b6104e8926109965f93600f61094d565b610963565b610978565b346104c15761051c6105ff6109b636600461092a565b90610983565b6104e8916008021c5b61ffff1690565b906104e891546109bc565b6109ea6104e8926109965f93600d61094d565b6109cc565b346104c15761051c610a0b610a0536600461092a565b906109d7565b6040515b9182918261ffff909116815260200190565b61ffff81166104ba565b905035906104d282610a21565b90916060828403126104c1576104e8610a51848461052a565b936040610a618260208701610541565b9401610a2b565b346104c15761063c610a7b366004610a38565b91612b0c565b346104c15761051c6105ff610a9736600461092a565b90612b17565b346104c15761051c6105ff610ab3366004610610565b612b27565b906020828203126104c1576104e891610873565b906104e891610793565b90610aec610ae2835190565b8083529160200190565b9081610afe6020830284019460200190565b925f915b838310610b1157505050505090565b90919293946020610b34610b2d83856001950387528951610acc565b9760200190565b9301930191939290610b02565b60408082526104e8939192610b5891840190610ad6565b916020818403910152610ad6565b346104c157610b7e610b79366004610ab8565b612bcd565b9061051c610b8b60405190565b92839283610b41565b91906040838203126104c1576104e8906020610bb08286610554565b9401610873565b346104c15761063c610bca366004610b94565b90612e0b565b6104e8916008021c6001600160a01b031690565b906104e89154610bd0565b6104e85f6009610be4565b346104c157610c0a366004610641565b61051c610c15610bef565b604051918291826001600160a01b03909116815260200190565b346104c15761063c610c42366004610b94565b90612e7e565b9061064b81602093610703565b90610c646106866108b2845190565b905f5b818110610c745750505090565b909192610c876108e26001928651610c48565b929101610c67565b90610c9e6106866108b2845190565b905f5b818110610cae5750505090565b909192610cc76108e2600192865160ff16815260200190565b929101610ca1565b90610cde6106866108b2845190565b905f5b818110610cee5750505090565b909192610d046108e26001928651815260200190565b929101610ce1565b906104e891610ccf565b90610d22610ae2835190565b9081610d346020830284019460200190565b925f915b838310610d4757505050505090565b90919293946020610d63610b2d83856001950387528951610d0c565b9301930191939290610d38565b91610d9c90610d8e6104e8959360608601908682035f880152610c55565b908482036020860152610c8f565b916040818403910152610d16565b346104c157610dba366004610641565b61051c610dc5612f4e565b60405191939193849384610d70565b346104c157610de4366004610641565b61063c61313e565b90610dfb6106866108b2845190565b905f5b818110610e0b5750505090565b909192610e236108e260019286511515815260200190565b929101610dfe565b91610e5790610e496104e8959360608601908682035f880152610ad6565b908482036020860152610dec565b916040818403910152610dec565b346104c15761051c610e80610e7b366004610ab8565b613146565b60405191939193849384610e2b565b610e9b61065b60059390565b5f915b838310610eab5750505050565b610ec2610686600192845161ffff16815260200190565b92019190610e9e565b60a0810192916104d29190610e8f565b346104c157610eeb366004610641565b61051c610ef6613336565b60405191829182610ecb565b346104c15761063c610f15366004610610565b6134b2565b906020828203126104c1576104e89161052a565b610f3a61065b60059390565b5f915b838310610f4a5750505050565b610f5d6106866001928451815260200190565b92019190610f3d565b60a0810192916104d29190610f2e565b346104c15761051c610f91610f8c366004610f1a565b6134bb565b60405191829182610f66565b909160c0828403126104c157610fb3838361052a565b92610fc18160208501610a2b565b92610fcf8260408301610a2b565b926104e8610fe08460608501610a2b565b9360a0610a618260808701610a2b565b346104c15761063c611003366004610f9d565b94939093929192613689565b346104c15761101f366004610641565b61051c61050a613697565b906020828203126104c1576104e891610541565b346104c15761051c6105ff61105436600461102a565b6136ae565b6104e86104e86104e89290565b9061095790611059565b6104e8905b60ff1690565b6104e89054611070565b6104e89060081c611075565b6104e89054611085565b6104e89081565b6104e8905461109b565b6104e890610732565b6104e890546110ac565b634e487b7160e01b5f52602260045260245ffd5b90600160028304921680156110f3575b60208310146110ee57565b6110bf565b91607f16916110e3565b80545f93929161111961110f836110d3565b8085529360200190565b9160018116908115611168575060011461113257505050565b61114391929394505f5260205f2090565b915f925b8184106111545750500190565b805484840152602090930192600101611147565b92949550505060ff1916825215156020020190565b906104e8916110fd565b634e487b7160e01b5f52604160045260245ffd5b90601f01601f1916810190811067ffffffffffffffff8211176111bd57604052565b611187565b906104d26111dc926111d360405190565b9384809261117d565b038361119b565b6111ee906004611066565b6111f78161107b565b9161120182611091565b9161120e600182016110a2565b9161121b600283016110b5565b91611228600382016110a2565b91611235600483016110a2565b916112426005820161107b565b916104e86007611254600685016111c2565b93016110a2565b999897969492909593916101208b01965f8c0161127791610703565b60208b0161128491610729565b60408a01526001600160a01b03166060890152608088015260a0870152151560c086015284810360e08601526112b99161075f565b61010090930152565b346104c15761051c6112dd6112d8366004610610565b6111e3565b956112f099979995919594929460405190565b998a998a61125b565b346104c15761063c61130c366004610ab8565b613759565b346104c15761051c61132c611327366004610ab8565b613762565b6040519182918260ff909116815260200190565b60ff81166104ba565b905035906104d282611340565b906020828203126104c1576104e891611349565b6110756104e86104e89260ff1690565b906109579061136a565b5f6109ea6104e892600c61137a565b346104c15761051c610a0b6113a9366004611356565b611384565b346104c1576113be366004610641565b61051c610f91613778565b346104c15761063c6113dc366004610610565b613905565b5f61099b6104e892601261094d565b346104c15761051c6105ff611406366004610f1a565b6113e1565b91906040838203126104c1576104e89060206114278286611349565b9401610554565b346104c15761063c61144136600461140b565b906139d6565b5f61099b6104e892601461094d565b346104c15761051c6105ff61146c366004610f1a565b611447565b346104c157611481366004610641565b61051c5f516020615eda5f395f51905f526105ff565b5f61099b6104e8926015610963565b346104c15761051c6105ff6114bc36600461102a565b611497565b909594926104d2946114f26114f9926114eb6080966114e460a088019c5f890152565b6020870152565b6040850152565b6060830152565b0152565b346104c15761150d366004610641565b61051c611518613a03565b9161152595939560405190565b958695866114c1565b906104e89161075f565b90611544610ae2835190565b90816115566020830284019460200190565b925f915b83831061156957505050505090565b90919293946020611585610b2d8385600195038752895161152e565b930193019193929061155a565b93906104e895936115c66115e2946115b86115d49460a08a01908a82035f8c0152610ad6565b9088820360208a0152610dec565b908682036040880152610dec565b9084820360608601526108a3565b916080818403910152611538565b346104c15761051c61160b611606366004610ab8565b613c06565b9161161895939560405190565b95869586611592565b346104c157611631366004610641565b61063c613e25565b90916060828403126104c1576104e8611652848461052a565b9360406114278260208701610541565b346104c15761063c611675366004611639565b91613f27565b6107326104e86104e8926001600160a01b031690565b6104e89061167b565b6104e890611691565b906109579061169a565b6104e8916008021c611075565b906104e891546116ad565b5f6116d46104e89260076116a3565b6116ba565b346104c15761051c61132c6116ef366004610ab8565b6116c5565b91906040838203126104c1576104e8906020610a618286611349565b346104c15761063c6117233660046116f4565b90614016565b346104c15761051c61050a61173f366004610b94565b90614020565b346104c15761063c611758366004610b94565b906141b8565b346104c15761051c610e80611774366004610ab8565b6141c2565b5f61099b6104e8926013610963565b346104c15761051c6105ff61179e36600461102a565b611779565b346104c15761063c6117b6366004610ab8565b614395565b6104e85f611059565b6104e86117bb565b346104c1576117dc366004610641565b61051c6105ff6117c4565b346104c15761063c6117fa3660046116f4565b90614464565b346104c15761051c61091e611816366004610ab8565b61446e565b6104e85f6010610978565b346104c157611836366004610641565b61051c6105ff61181b565b5f6109ea6104e892600b61137a565b346104c15761051c610a0b611866366004611356565b611841565b919060a0838203126104c1576118818184610554565b9261188f8260208301610554565b926104e86118a08460408501610554565b9360806114278260608701610554565b346104c15761063c6118c336600461186b565b93929092614538565b6104e85f6011610978565b346104c1576118e7366004610641565b61051c6105ff6118cc565b61063c611900366004610610565b614748565b6104e85f6008610be4565b346104c157611920366004610641565b61051c610c15611905565b346104c15761051c611518611941366004610ab8565b614751565b91906040838203126104c1576104e89060206114278286610873565b634e487b7160e01b5f52603260045260245ffd5b80548210156119965761198e6001915f5260205f2090565b910201905f90565b611962565b6119a69060066116a3565b80548210156104c1576104e8916119bc91611976565b90610978565b346104c15761051c6105ff6119d8366004611946565b9061199b565b346104c15761051c61091e6119f4366004610ab8565b61487d565b5f6116d46104e892600e61094d565b346104c15761051c61132c611a1e366004610f1a565b6119f9565b346104c15761063c611a36366004610b94565b90614991565b346104c15761051c610ef6611a52366004610f1a565b61499b565b91611a8390611a756104e8959360608601908682035f880152610c55565b9084820360208601526108a3565b9160408184039101526108a3565b346104c157611aa1366004610641565b61051c611aac614a95565b60405191939193849384611a57565b346104c157611acb366004610641565b61051c611aac614b8a565b346104c157611ae6366004610641565b61063c614cf0565b5f61099b6104e892600a61137a565b346104c15761051c6105ff611b13366004611356565b611aee565b9061064b81602093610729565b90611b346106866108b2845190565b905f5b818110611b445750505090565b909192611b576108e26001928651611b18565b929101611b37565b91611a8390611a756104e8959360608601908682035f880152611b25565b346104c157611b8d366004610641565b61051c611b98614cf8565b60405191939193849384611b5f565b346104c15761063c611bba36600461186b565b93929092614e6e565b346104c157611bd3366004610641565b61063c614e9c565b5f61099b6104e89260166116a3565b346104c15761051c6105ff611c00366004610ab8565b611bdb565b6119a69060056116a3565b346104c15761051c6105ff611c26366004611946565b90611c05565b611c586104d294611c51606094989795611c4a608086019a5f870152565b6020850152565b6040830152565b0190610703565b346104c15761051c611c7a611c75366004610ab8565b614ea4565b90611c8794929460405190565b94859485611c2c565b346104c15761063c611ca3366004610610565b614f33565b60408082526104e8939192611cbf91840190610ad6565b916020818403910152610dec565b346104c157611ce5611ce0366004610ab8565b6150a8565b9061051c611cf260405190565b92839283611ca8565b637965db0b60e01b6001600160e01b0319821614908115611d1a575090565b6104e891506001600160e01b0319166301ffc9a760e01b1490565b906104e89594939291611d466151b8565b90611d5c9594939291611d57615221565b612125565b906104d2615253565b6110756104e86104e89290565b6104e86001611d65565b6104e86010611d65565b6104e86004611d65565b6104e86104e86104e89260ff1690565b6104e86032611d65565b9081526040810192916104d29160200152565b6104e862278d00611059565b634e487b7160e01b5f52601160045260245ffd5b91908201809211611dea57565b611dc9565b9060ff905b9181191691161790565b90611e0e6104e8611e15926106fa565b8254611def565b9055565b9061ff009060081b611df4565b90611e366104e8611e1592610720565b8254611e19565b905f1990611df4565b90611e566104e8611e1592611059565b8254611e3d565b906001600160a01b0390611df4565b90611e7c6104e8611e159261169a565b8254611e5d565b90611e0e6104e8611e1592151590565b915f1960089290920291821b911b611df4565b9190611eb76104e8611e1593611059565b908354611e93565b6104d2915f91611ea6565b818110611ed5575050565b80611ee25f600193611ebf565b01611eca565b9190601f8111611ef757505050565b611f076104d2935f5260205f2090565b906020601f840181900483019310611f29575b6020601f909101040190611eca565b9091508190611f1a565b919067ffffffffffffffff82116111bd57611f5882611f5285546110d3565b85611ee8565b5f90601f8311600114611f9057611e1592915f9183611f85575b50505f19600883021c1916906002021790565b013590505f80611f72565b90601f19831691611fa4855f5260205f2090565b925f5b818110611fe057509160029391856001969410611fc8575b50505002019055565b01355f19601f84166008021c191690555f8080611fbf565b92936020600181928786013581550195019301611fa7565b906104d29291611f33565b90815491680100000000000000008310156111bd578261202b9160016104d295018155611976565b90611ea6565b5f198114611dea5760010190565b6040906114f96104d2949695939661205e60608401985f850190610703565b6020830190610729565b6120876104e89361208060608401945f850190610703565b6020830152565b6040818303910152601981527f50555243484153455f494e444956494455414c5f534b494c4c00000000000000602082015260400190565b906104d26120cc60405190565b928361119b565b67ffffffffffffffff81116111bd57602090601f01601f19160190565b906121026120fd836120d3565b6120bf565b918252565b3d15612120576121163d6120f0565b903d5f602084013e565b606090565b509293929091612134826106fa565b61213c611d72565b9061214c60ff83165b9160ff1690565b108015612482575b61245c5761216184610720565b61216f612145611075611d86565b116124365761217d90611d90565b8110801561241e575b612407578361219761065b5f611059565b146123f6576121a68383615269565b938434106123de579161227d612391926122737ff38edfb531b7e5ecb36f5810588b0158177a68cbfc19fdf5e73bcc37b095bb83956121e3600390565b996121f66121f08c615366565b9b615379565b61225d8b61223a61221c6104e861221461220e611dbd565b42611ddd565b936004611066565b966122318d8961222c8d82611dfe565b611e26565b60018801611e46565b6122473360028801611e6c565b6122544260038801611e46565b60048601611e46565b61226a5f60058601611e83565b60068401611ff8565b6007429101611e46565b6122948661228f6104e83360056116a3565b612003565b6122b06122a96122a460106110a2565b612031565b6010611e46565b6122cd6122c6866122c160116110a2565b611ddd565b6011611e46565b6122ed6122db82601261094d565b6122e76122a4826110a2565b90611e46565b6122fb6122db856013610963565b61231661230982601461094d565b6122e7876122c1836110a2565b612324612309856015610963565b6123326123093360166116a3565b61233b3361169a565b93847fa24add44f839e4a174295a620f3ddbb4677703fc07bf693e61c6e52e920359c761236789611059565b97889361238061237660405190565b928392888461203f565b0390a3604051918291349083612068565b0390a36123c45f806123ae6123a96123a960086110b5565b61169a565b6040515f9134905af16123bf612107565b501590565b6123cb5790565b63e6c4247b60e01b5f90815260045b035ffd5b63af608abb60e01b5f9081526123da34876004611daa565b635e765b2560e11b5f908152600490fd5b639cb3af6760e01b5f908152600491909152602490fd5b5061242f61242a611da0565b611d90565b8111612186565b5f6123da61244386610720565b63ad2489af60e01b835260ff1660048301526024820190565b5f6123da612469856106fa565b6327987c8f60e01b835260ff1660048301526024820190565b5061248c836106fa565b61249a612145611075611d7c565b11612154565b6104e894939291905f611d35565b6104d2906124ba6151b8565b61250c565b6107326104e86104e89290565b6104e8906124bf565b6104e86005611059565b60016104e8910160ff1690565b90611e0e6104e8611e159261136a565b6020810192916104d29190610703565b600461251b6104e88383611066565b9060028201612529816110b5565b61253b335b916001600160a01b031690565b036126e157612549906110b5565b61255861252e6107325f6124cc565b146126ca57600582019061256b8261107b565b6126bc5780830161257e6104e8826110a2565b421015612698575061258f336153ca565b6125a261259d3360076116a3565b61107b565b6125aa6124d5565b906125b58291611d90565b1015612671575050612622916125cd60015f93611e83565b6125df8461228f6104e83360066116a3565b6126046125ed3360076116a3565b6125fe6125f98261107b565b6124df565b906124ec565b0161259d6126118261107b565b61261a83611091565b9085336154f5565b907f3c1e2947eccfc26b7af1957d6b147f0437d82aa658e1d63fa59cca763922430f61266c6126596126533361169a565b93611059565b9361266360405190565b918291826124fc565b0390a3565b5f9161267f6123da92611d65565b63567af16960e01b845260ff1690830190815260200190565b5f916126a66123da926110a2565b6364c0907560e11b845290830190815260200190565b6393f3800760e01b5f908152fd5b639eeb380960e01b5f90815283825290602001035ffd5b632500456d60e01b5f9081528290fd5b6104d2906124ae565b67ffffffffffffffff81116111bd5760200290565b6120fd6104e8916126fa565b369037565b906104d26127366127308461270f565b936126fa565b8361271b565b6104e86003612720565b9061095790611d65565b6104e8906109c5565b6104e89054612750565b9060035b811015611996576020020190565b61277d61273c565b6104e86127de61279b6003600c6127bb6127a061279b600184612746565b612759565b6127b26127ac5f611059565b89612763565b9061ffff169052565b6127d96127cc61279b600284612746565b6127b26127ac6001611059565b612746565b6127b26127eb6002611059565b84612763565b6104e86101206120bf565b6128046127f1565b905f8252602080808080808080808a015f8152015f8152015f8152015f8152015f8152015f81520160608152015f905250565b6104e86127fc565b906104eb906106f0565b906104eb90610716565b906104d261292160076128646127f1565b946128776128718261107b565b8761283f565b61288c61288382611091565b60208801612849565b6128a261289b600183016110a2565b6040880152565b6128c16128b1600283016110b5565b6001600160a01b03166060880152565b6128d76128d0600383016110a2565b6080880152565b6128ed6128e6600483016110a2565b60a0880152565b6129056128fc6005830161107b565b151560c0880152565b61291b612914600683016111c2565b60e0880152565b016110a2565b610100840152565b6104e890612853565b6129496104e891612941612837565b506004611066565b612929565b9061296761295d6108b2845490565b925f5260205f2090565b905f5b8181106129775750505090565b90919261299b61299460019261298c876110a2565b815260200190565b9460010190565b92910161296a565b906104e89161294e565b906104d26111dc926129be60405190565b938480926129a3565b6104e8906129ad565b6104e891506129e09060066116a3565b6129c7565b6104d2929190612a065f516020615eda5f395f51905f52615590565b615590565b612a3d565b9061ffff90611df4565b6109c56104e86104e89261ffff1690565b90612a366104e8611e1592612a15565b8254612a0b565b612a46816106fa565b612a54612145611075611d72565b108015612aee575b612ae157612a6982610720565b612a77612145611075611d86565b11612ad45761266c612aca612ac483612abf87612aba886109967f4fec850a3969cc2947a35d356d1d1423b857a49ca7ee4ad738e382cfbd6abfa699600d61094d565b612a26565b6106fa565b93610720565b93610a0f60405190565b5f6123da61244384610720565b6123da6124695f926106fa565b50612af8816106fa565b612b06612145611075611d7c565b11612a5c565b906104d292916129e5565b6104e89190615269565b90610957565b600161291b6104e892612b375f90565b505f612b21565b90612b47825190565b811015611996576020809102010190565b6104e890516106f0565b67ffffffffffffffff81116111bd5760208091020190565b906121026120fd83612b62565b5f5b828110612b9557505050565b602090612ba0612837565b8184015201612b89565b906104d2612bc0612bba84612b7a565b93612b62565b601f190160208401612b87565b6129e0612be491612bdc606090565b5060056116a3565b90612bee5f611059565b80805b612bfc6104e8865190565b811015612ccb57612c2f612abf5f612c296129496004612c23612c1f888d612b3e565b5190565b90611066565b01612b58565b612c396001611d65565b60ff8216101580612cb5575b15612c64575090612c58612c5f91612031565b9160010190565b612bf1565b612c6e6008611d65565b60ff821610159081612c9e575b50612c89575b600101612bf1565b91612c96612c5f91612031565b929050612c81565b9050612cad6121456010611d65565b11155f612c7b565b50612cc06007611d65565b60ff82161115612c45565b50612cd8612cde91612baa565b91612baa565b90612ce85f611059565b9081825b612cf76104e8885190565b841015612de657612d136129496004612c23612c1f888c612b3e565b612d1f612abf82612b58565b612d296001611d65565b60ff8216101580612dd0575b15612d6b575081612d5e91612d4d612d659487612b3e565b52612d588186612b3e565b50612031565b9360010190565b92612cec565b612d786008969396611d65565b60ff821610159081612db9575b50612d94575b50600101612d65565b82612db291612da7612d65949589612b3e565b52612d588188612b3e565b9190612d8b565b9050612dc86121456010611d65565b11155f612d85565b50612ddb6007611d65565b60ff82161115612d35565b5050919350509190565b906104d291612e01612a0182612b27565b906104d29161559b565b906104d291612df0565b15612e1c57565b60405162461bcd60e51b815260206004820152602f60248201527f416363657373436f6e74726f6c3a2063616e206f6e6c792072656e6f756e636560448201526e103937b632b9903337b91039b2b63360891b606482015280608481015b0390fd5b6104d29190612e9f612e8f33610732565b6001600160a01b03841614612e15565b615609565b906104d2612eb4612bba84612b7a565b601f19016020840161271b565b5f5b828110612ecf57505050565b606082820152602001612ec3565b906104d2612eed612bba84612b7a565b601f190160208401612ec1565b60ff1660ff8114611dea5760010190565b612f1b6104e86104e89260ff1690565b6106f0565b612f2c9060ff16612145565b90039060ff8211611dea57565b612f496104e86104e89260ff1690565b610716565b6010612f5a6010611059565b91612f6483612ea4565b612f76612f7085612ea4565b94612edd565b9260019081612f8481611d65565b905b612f93575b505050929190565b612f9c82611d65565b60ff8216116131185782612faf82612f0b565b612fd681612fd1612fcb61242a612fc587611d65565b88612f20565b89612b3e565b61283f565b612fe06007611d65565b60ff84161161310357613020612ff55f611d65565b949392945b61301861301261242a61300c89611d65565b87612f20565b8c612b3e565b9060ff169052565b600561306561305f61303961303484611059565b612ea4565b61304561300c89611d65565b906130598d61305384611d90565b90612b3e565b52611d90565b8a612b3e565b50846130705f611d65565b905b61308a575b50505061308390612efa565b9091612f86565b6130978296949596611d65565b60ff821610156130fa57806125f98b6130ee6130e46130ce6130c96130be6130f198612f39565b6109968b600f61094d565b6110a2565b9261305361242a6130de8c611d65565b8d612f20565b5161305385611d90565b52565b83959493613072565b94939294613077565b61302061310f83611d65565b94939294612ffa565b612f8b565b6131335f516020615eda5f395f51905f52615590565b6104d26104d26156ac565b6104d261311d565b6129e061315591612bdc606090565b9061315f5f611059565b805b61316c6104e8855190565b8110156131e857613192612abf5f61318c6004612c23612c1f878b612b3e565b0161107b565b61319c6001611d65565b60ff8216101590816131d1575b506131bc575b600101613161565b613161565b906131c96131b791612031565b9190506131af565b90506131e06121456007611d65565b11155f6131a9565b506131f281612baa565b6132046131fe83612ea4565b92612ea4565b9061320e5f611059565b91825b61321c6104e8885190565b81101561331a5761323d612949613236612c1f848b612b3e565b6004611066565b613249612abf82612b58565b6132536001611d65565b60ff821610159081613303575b50613274575b50600101613211565b613211565b846122a46132cd6104e860a0856132da9661329361326f999c8c612b3e565b5261329e868b612b3e565b50856132ad60c0830151151590565b8d816132e1575b6132c8926132c191612b3e565b9015159052565b015190565b4210156132c18387612b3e565b9390613266565b90506132c16132c8926132f76104e88787015190565b421092915092506132b4565b90506133126121456007611d65565b11155f613260565b5090945091929050565b6104e86005612720565b906005612767565b61333e613324565b6133475f611d65565b6133516005611d65565b60ff8216101561338757806125f961337061279b61338294600b61137a565b6127b261337c84611d90565b8661332e565b613347565b5090565b6104d2906133a55f516020615eda5f395f51905f52615590565b6133cb565b6104eb90611059565b9081526040810192916104d2916020905b01906133aa565b6133d45f611059565b8114613498576133e33061169a565b8031821161347e57506133f660086110b5565b61340561252e6107325f6124cc565b146123cb576134305f8061341f6123a96123a960086110b5565b6040515f9186905af16123bf612107565b6123cb5761343e60086110b5565b7f3ab9db27a4cdd8c603a752b62d5fbd93b4b3509fe2596708e9688e42bbac357661266c61347461346e3361169a565b9361169a565b9361060360405190565b63af608abb60e01b5f908152916123da9131906004611daa565b63af608abb60e01b5f908152906123da90829060046133b3565b6104d29061338b565b6134c3613324565b906134cd5f611d65565b6134d76005611d65565b60ff8216101561351157806125f96134fa6134f461350c94612f39565b85615269565b6130ee61350684611d90565b8761332e565b6134cd565b505090565b6104d29594939291906135355f516020615eda5f395f51905f52615590565b92909391613542846106fa565b613550612145611075611d72565b10801561366b575b61365e57908392916135c287612aba600461099661365099600d6135848d612aba5f610996868661094d565b61359788612aba6001610996868661094d565b6135aa89612aba6002610996868661094d565b6135bd8a612aba6003610996868661094d565b61094d565b7f4fec850a3969cc2947a35d356d1d1423b857a49ca7ee4ad738e382cfbd6abfa6956135ed856106fa565b876135fa612aca5f610720565b0390a3613606846106fa565b86613614612aca6001610720565b0390a3613620836106fa565b8561362e612aca6002610720565b0390a361363a826106fa565b84613648612aca6003610720565b0390a36106fa565b9061266c612aca6004610720565b5f6123da612469866106fa565b50613675846106fa565b613683612145611075611d7c565b11613558565b906104d29594939291613516565b6104e8600161107b565b612f1b6104e86104e89290565b6130c96104e8916136bc5f90565b506109966136ca60086136a1565b600f61094d565b6104d2906136eb5f516020615eda5f395f51905f52615590565b6136f76107325f6124cc565b6001600160a01b038216146123cb5761372761372161371660086110b5565b6123a9846008611e6c565b9161169a565b907f430359a6d97ced2b6f93c77a91e7ce9dfd43252eb91e916adba170485cd8a6a461375260405190565b808061266c565b6104d2906136d1565b61259d6104e8916137705f90565b5060076116a3565b613780613324565b6137895f611d65565b6137936005611d65565b60ff8216101561338757806125f96137b26130c96137be94600a61137a565b6130ee61337c84611d90565b613789565b6104d2906137cf6151b8565b6137e1565b60016104e8910360ff1690565b6137ef6104e8826004611066565b6137fb600282016110b5565b6138043361252e565b036138f4576005810161381d6138198261107b565b1590565b6138e3575f61382b91611e83565b613845613819836138406104e83360066116a3565b6156ef565b6138cd575f6138789161385c61259d3360076116a3565b61386861214584611d65565b116138a9575b61318c843361578b565b907f83c082921b7caf1a96d9ce647becd54e4ff5e95f02eb8b2b3d23fb2daecfa46861266c6126596126533361169a565b6138c86138b73360076116a3565b6125fe6138c38261107b565b6137d4565b61386e565b6372e2506b60e11b5f9081526004839052602490fd5b636379c45760e11b5f908152600490fd5b632500456d60e01b5f908152600490fd5b6104d2906137c3565b6104d291906139295f516020615eda5f395f51905f52615590565b613934611075611d86565b60ff8216116139bc576139465f611059565b82146139a45761399f6139956139908361398b866139867fb72dc354a47d0e65eede275ad8905a7d03efc42c5699b7ce2cfd946f0902f76d97600a61137a565b611e46565b612f39565b610720565b9261060360405190565b0390a2565b63af608abb60e01b5f9081526123da818460046133b3565b63ad2489af60e01b5f90815260ff9091166004526024035ffd5b906104d29161390e565b634e487b7160e01b5f52601260045260245ffd5b81156139fe570490565b6139e0565b613a0d60106110a2565b9081613a1960116110a2565b8091613a245f611059565b811115613b5857613a34916139f4565b91613a3f6003615366565b90613a495f611059565b92835b83811015613ac557600481613a6c6002613a668385611066565b016110b5565b613a7b61252e6107325f6124cc565b14159182613aad575b5050613a98575b600101613a4c565b613a4c565b93613aa5613a9391612031565b949050613a8b565b613abe925060059161318c91611066565b815f613a84565b50919390613ad25f611059565b805b86811015613b4e57613aec6002613a66836004611066565b613af86107325f6124cc565b6001600160a01b03821614159081613b27575b50613b1857600101613ad4565b506104e8919293949550612031565b613b3b9150613b379060056116a3565b5490565b613b4761065b5f611059565b115f613b0b565b5090919293945090565b5050613b635f611059565b613a34565b5f5b828110613b7657505050565b606082820152602001613b6a565b906104d2613b94612bba84612b7a565b601f190160208401613b68565b91908203918211611dea57565b613bb860076120f0565b662aa725a727aba760c91b602082015290565b613bd560086120f0565b67504c4154464f524d60c01b602082015290565b613bf360076120f0565b665354414b494e4760c81b602082015290565b6129e0613c1591612bdc606090565b90613c1e825190565b90613c2882612baa565b613c3183612ea4565b613c3a84612ea4565b90613c4485612ea4565b95613c4e86613b84565b94613c585f611059565b875b811015613df557613d568187818c60a0613c80612949613236612c1f613c5a9a8d612b3e565b613ca284613c90612abf84612b58565b9683613c9c8383612b3e565b52612b3e565b5083613cb160c0830151151590565b8c81613dd3575b613cc5926132c191612b3e565b01613ce28b6132c185613cd96104e8865190565b42101592612b3e565b613ced6104e8825190565b421015613dbd57613d1392613d0d613d066130ee935190565b4290613ba1565b92612b3e565b613d1d6001611d65565b60ff8216101580613da7575b15613d5d5750613d44613d3a613be9565b6130ee838c612b3e565b613d4e818a612b3e565b505b60010190565b9050613c58565b613d676008611d65565b60ff821610159081613d90575b5015613d8557613d44613d3a613bcb565b613d44613d3a613bae565b9050613d9f6121456010611d65565b11155f613d74565b50613db26007611d65565b60ff82161115613d29565b506130ee613dce92613d0d5f611059565b613d13565b90506132c1613cc592613de96104e88787015190565b42109291509250613cb8565b50929550509492919493929190565b613e1a5f516020615eda5f395f51905f52615590565b6104d26104d2615828565b6104d2613e04565b6104d2929190613e495f516020615eda5f395f51905f52615590565b613e6d565b6104eb90611d90565b9081526040810192916104d29160200190613e4e565b92919092613e7a816106fa565b613e88612145611075611d72565b108015613f09575b612ae157613e9d84610720565b613eab612145611075611d86565b1161243657613ef3613eed85613990856139867fe39dd15db0b108e8191c7305d60bd9fc58ebf4a2a296a1d49252bababa47eed197989961099688600f61094d565b916106fa565b9261399f613f0060405190565b92839283613e57565b50613f13816106fa565b613f21612145611075611d7c565b11613e90565b906104d29291613e2d565b6104d29190613f4d5f516020615eda5f395f51905f52615590565b613f93565b6109c56104e86104e89290565b6104e86104e86104e89261ffff1690565b6104eb90613f5f565b9160206104d29294936133c460408201965f830190613f70565b613f9e611075611d86565b60ff8216116139bc57613fb05f613f52565b61ffff831614613ffe5761399f613ff46139908361398b86612aba7f3e299cb159d184adb21adbcd6d53a9058d9a4cc7380dd2ddfafdfe7e0591209197600b61137a565b92610a0f60405190565b63af608abb60e01b5f9081526123da81846004613f79565b906104d291613f32565b6104e8915f61403a61259d936140335f90565b5082612b21565b016116a3565b906104d29161404d6151b8565b6140565f6124cc565b6001600160a01b0381166001600160a01b038416146123cb5760049061407f6104e88484611066565b9160028301916140a161252e614094856110b5565b926001600160a01b031690565b146141a1576140af826110b5565b6140b83361252e565b03614193576140c96005840161107b565b614185578083016140dc6104e8826110a2565b42101561269857506140f9613819856138406104e83360056116a3565b61416e575061411f9161410d855f93611e6c565b61318c8461228f6104e88860056116a3565b917f94855b6276c7880af847d362eadca337daa949f718fbfaa881bcea598fb2281a61416961415f6141596141533361169a565b9461169a565b94611059565b9461266360405190565b0390a4565b6372e2506b60e11b5f90815284825290602001035ffd5b63ee0c112d60e01b5f908152fd5b632500456d60e01b5f908152fd5b639eeb380960e01b5f90815284825290602001035ffd5b906104d291614040565b6129e06141d191612bdc606090565b906141db5f611059565b805b6141e86104e8855190565b81101561425e57614208612abf5f61318c6004612c23612c1f878b612b3e565b6142126008611d65565b60ff821610159081614247575b50614232575b6001016141dd565b6141dd565b9061423f61422d91612031565b919050614225565b90506142566121456010611d65565b11155f61421f565b5061426881612baa565b6142746131fe83612ea4565b9061427e5f611059565b91825b61428c6104e8885190565b81101561331a576142a6612949613236612c1f848b612b3e565b6142b2612abf82612b58565b6142bc6008611d65565b60ff821610159081614303575b506142dd575b50600101614281565b614281565b846122a46132cd6104e860a0856142fc966132936142d8999c8c612b3e565b93906142cf565b90506143126121456010611d65565b11155f6142c9565b6104d2906143345f516020615eda5f395f51905f52615590565b6143406107325f6124cc565b6001600160a01b038216146123cb5761436a61372161435f60096110b5565b6123a9846009611e6c565b907f7042586b23181180eb30b4798702d7a0233b7fc2551e89806770e8e5d9392e6a61375260405190565b6104d29061431a565b6104d291906143b95f516020615eda5f395f51905f52615590565b6143ce565b6020810192916104d29190613e4e565b6143d86001611d65565b60ff821610801561444f575b614437576143f15f613f52565b61ffff831614613ffe5761399f613ff48261443285612aba7fe87979c49b87f32e5440592a4640d358a5ba1c9a89581c040e549ae9ab43035096600c61137a565b61136a565b639cb3af6760e01b5f908152906123da9060046143be565b5061445a6003611d65565b60ff8216116143e4565b906104d29161439e565b6129e06104e891612bdc606090565b6104d2949392919061449b5f516020615eda5f395f51905f52615590565b919493949290926144ac6008611d65565b6144b66010611d65565b60ff82161161452f57806145258861398660046109966144d861452a97612f0b565b600f6144ec8c6139865f610996868661094d565b6144ff8d6139866001610996868661094d565b6145128a6139866002610996868661094d565b6135bd8b6139866003610996868661094d565b612efa565b6144ac565b50505050509050565b906104d29493929161447d565b6104d2906145516151b8565b6145629061455d615221565b6145ba565b6104d2615253565b6145826104e89361208060608401945f850190610703565b6040818303910152601681527f52454e45575f494e444956494455414c5f534b494c4c00000000000000000000602082015260400190565b6004906145ca6104e88284611066565b906145d7600283016110b5565b6145e03361252e565b0361473857828201916145f56104e8846110a2565b4210614714579161462a61461a61460b8561107b565b61461486611091565b90615269565b6146246002611059565b906139f4565b8034106146fb57506146ce6146c06146b8946146ac946146797ff38edfb531b7e5ecb36f5810588b0158177a68cbfc19fdf5e73bcc37b095bb83956130c961467361220e611dbd565b82611e46565b907f4f265249e3faa5652094d4e493ca94e1c30eb9febc9372aeeb501a52c4ab00136146a43361169a565b978892611059565b98899361060360405190565b0390a361107b565b60405191829134908361456a565b0390a36146e65f806123ae6123a96123a960086110b5565b6146ed5750565b63e6c4247b60e01b5f908152fd5b63af608abb60e01b5f908152906123da90349087611daa565b5f6123da85614722866110a2565b635935648960e01b845290830190815260200190565b632500456d60e01b5f9081528390fd5b6104d290614545565b905f8092816147656129e0849360056116a3565b8051946147715f611059565b945b86861015614870576147906129496004612c23612c1f8a88612b3e565b9761479d612abf8a612b58565b6147a76001611d65565b60ff821610158061485a575b156147fe57506104e860a06147ca6147d093612031565b9a015190565b4210156147f0576147e36147ea91612031565b9560010190565b94614773565b94936129946147ea91612031565b61480b60089a929a611d65565b60ff821610159081614843575b50614827575b60a001516147d0565b936104e860a06148396147d093612031565b969250505061481e565b90506148526121456010611d65565b11155f614818565b506148656007611d65565b60ff821611156147b3565b9450919490509493929190565b6129e061488c91612bdc606090565b906148965f611059565b805b6148a36104e8855190565b8110156148f1576148c86104e8600461291b6148c2612c1f868a612b3e565b82611066565b42106148dc575b600101614898565b614898565b906148e96148d791612031565b9190506148cf565b506148fb90612ea4565b916149055f611059565b92835b6149136104e8845190565b811015614970576149326104e8600461291b6148c2612c1f8689612b3e565b4210614946575b600101614908565b614908565b93614968614941916122a461495e612c1f8988612b3e565b6130ee8387612b3e565b949050614939565b50925050565b906104d291614987612a0182612b27565b906104d291615609565b906104d291614976565b6149a3613324565b906149ad816106fa565b6149bb612145611075611d72565b108015614a77575b612ae157614a6461279b60046109966104e894600d6149fe6149ec61279b5f610996868661094d565b6127b26149f85f611059565b8b61332e565b614a20614a1361279b6001610996868661094d565b6127b26149f86001611059565b614a42614a3561279b6002610996868661094d565b6127b26149f86002611059565b6135bd614a5761279b6003610996868661094d565b6127b26149f86003611059565b6127b2614a716004611059565b8461332e565b50614a81816106fa565b614a8f612145611075611d7c565b116149c3565b614a9f6010611059565b614aa881612ea4565b8092614ab383612ea4565b918293614abf81612ea4565b80946001938493614acf85611d65565b945b614ade575b505050505050565b80614ae886611d90565b11614b7257614b6c85614525614b546130c9614b1d614b298c612fd1614b2361242a839f614b1590612f0b565b958694611d65565b8a612f20565b8b612b3e565b614b4d8b6130ee61301261242a614b1d614b476130c988601461094d565b94611d65565b601261094d565b6130ee612fcb61242a614b668c611d65565b86612f20565b94614ad1565b614ad6565b81810292918115918404141715611dea57565b6010614b966010611059565b90614ba082612ea4565b9283614bab84612ea4565b908194614bb781612ea4565b9081956001938492614bc884611d65565b935b614bd8575b50505050505050565b80614be285611d90565b11614caf57614c9b84614bf58896612f0b565b614c1181612fd1614c0b61242a61300c8c611d65565b88612b3e565b601290614c3e886130ee8d61305361242a614c38614c326130c9898b61094d565b95611d65565b89612f20565b614c47876110a2565b614c5361065b5f611059565b1115614ca157614c80614c6f6130c9614c89936145259561094d565b614c7a612710611059565b90614b77565b614624886110a2565b6130ee61305f61242a614b668b611d65565b93614bca565b5050614525614c895f611059565b614bcf565b614cca5f516020615eda5f395f51905f52615590565b6104d2614cd63061169a565b31614ce05f611059565b8114613498576133f660086110b5565b6104d2614cb4565b614d026005611059565b90614d0c82612ea4565b80614d1684612ea4565b91614d218395612ea4565b9485614d2c5f611d65565b614d366004611d65565b60ff821611614da65780614525614d956130c9614d55614da195612f39565b614d7081614d6b614d6588611d90565b8d612b3e565b612849565b614d8e614d816130c9836015610963565b6130ee8d61305389611d90565b6013610963565b6130ee61301284611d90565b614d2c565b5093509391509350565b6104d29493929190614dce5f516020615eda5f395f51905f52615590565b9192909260019384614de06001611d65565b905b614def5750505050505050565b614df96007611d65565b60ff821611614caf57614e6881614525896139866004610996614e1c8d98612f0b565b600f614e308e6139865f610996868661094d565b614e428b6139868c610996868661094d565b614e558c6139866002610996868661094d565b6135bd8d6139866003610996868661094d565b90614de2565b906104d294939291614db0565b614e915f516020615eda5f395f51905f52615590565b6104d26104d26158cc565b6104d2614e7b565b614eb26130c98260166116a3565b908192614ec3613b378360056116a3565b9283614ece5f611059565b811115614f1d57614ee56129e091614eed936139f4565b9360056116a3565b8051614efb61065b5f611059565b1115614f18575f61318c613236612c1f6104e89461305385611059565b505f90565b5050614eed6129e0614f2e5f611059565b614ee5565b6004614f426104e88383611066565b90614f4f600283016110b5565b614f583361252e565b0361419357808201614f6c6104e8826110a2565b421061509a575060058201614f808161107b565b615034575b50614f9b613819846138406104e83360056116a3565b61501d5750614ff091614fe491614fb19061107b565b907f11ff84a00d533cdc33fdd8daf084ef19d5c0586defb48904fe2e0662dfc6de14614fdc3361169a565b938492611059565b94859361266360405190565b0390a37f50a744fa6f7ccdc3205bb1024e3d645d99213fc48d0315cd42a1710ddd1666e461375260405190565b6372e2506b60e11b5f90815283825290602001035ffd5b5f61503e91611e83565b615053613819846138406104e83360066116a3565b61501d5761506561259d3360076116a3565b6150716121455f611d65565b11615087575b615081833361578b565b5f614f85565b6150956138b73360076116a3565b615077565b5f916147226123da926110a2565b6129e06150b791612bdc606090565b906150c86150c3835190565b612baa565b6150d3613034845190565b926150dd5f611059565b6150e86104e8835190565b8110156151735761514c906151086129496004612c23612c1f8588612b3e565b6151128286612b3e565b5261511d8185612b3e565b506151366104e860a06151308488612b3e565b51015190565b421080615151575b613d50906132c18389612b3e565b6150dd565b50613d5061516c60c06151648488612b3e565b510151151590565b905061513e565b50509190565b1561518057565b60405162461bcd60e51b815260206004820152601060248201526f14185d5cd8589b194e881c185d5cd95960821b6044820152606490fd5b6104d26151c6613819613697565b615179565b6104e86002611059565b156151dc57565b60405162461bcd60e51b815260206004820152601f60248201527f5265656e7472616e637947756172643a207265656e7472616e742063616c6c006044820152606490fd5b6104d261522e60026110a2565b6152426152396151cb565b918214156151d5565b6002611e46565b6104e86001611059565b6104d2615242615249565b6104e8612710611059565b6153616153456152836104e89461527d5f90565b50610720565b92614c7a61534061533861529b6130c988600a61137a565b9361533261532c6152ac600561270f565b926152c36152bb612710613f52565b61ffff168552565b6152dc6152d1613a98613f52565b61ffff166020860152565b6152f56152ea614e20613f52565b61ffff166040860152565b61530e615303616d60613f52565b61ffff166060860152565b61532761531c6188b8613f52565b61ffff166080860152565b6159cc565b98611d90565b9061332e565b5161ffff1690565b613f5f565b91614c7a61535b61535461525e565b80956139f4565b91613f5f565b6139f4565b5f6104e8916153725f90565b50016110a2565b6104d2906122e75f61538b6001611059565b92019161064b836110a2565b905051906104d28261054e565b906020828203126104c1576104e891615397565b6104e8680d8d726b7177a80000611059565b6153d460096110b5565b6153e361252e6107325f6124cc565b146154b5575f61542c819261543b6153fb60096110b5565b9161540560405190565b63857184d160e01b6020820152938491602483016001600160a01b03909116815260200190565b6020820181038252038361119b565b602082519201905afa61544c612107565b908061549e575b61545a5750565b806020615468615473935190565b8183010191016153a4565b61547b6153b8565b808210615486575050565b63109ddee960e21b5f908152916123da916004611daa565b5080516154ae61065b6020611059565b1015615453565b50565b6154eb6104d2946154e1606094989795611c4a608086019a5f8701906001600160a01b03169052565b60ff166040830152565b019061ffff169052565b90919261550260096110b5565b61551161252e6107325f6124cc565b1461558a576155209084615b21565b9161552a5f613f52565b61ffff84161461558a57615584936155725f949361542c869561555661555060096110b5565b956106fa565b604051630c4e865560e21b6020820152968794602486016154b8565b82602083519301915af16123bf612107565b6104d257565b50505050565b6104d2903390615bf1565b6155a86138198383614020565b6155b0575050565b6155c960016155c4845f61403a8682612b21565b611e83565b6155d761372161346e339390565b917f2f8788117e7eff1d82e926ec794901d17c78024a50270940304540a733656f0d61560260405190565b8080614169565b6156138282614020565b61561b575050565b61562e5f6155c4848261403a8682612b21565b61563c61372161346e339390565b917ff6391f5c32d9c69d2a47ea670b442974b53935d1edc7fd64eb21e047a839171b61560260405190565b61566f615cc1565b6104d261567d5f6001611e83565b7f5db9ee0a495bf2e6ff9c91a7834c1ba4fdd244a5e8aa4e537bd38aeae4b073aa6156a733610c15565b0390a1565b6104d2615667565b634e487b7160e01b5f52603160045260245ffd5b805480156156ea575f1901906156e76156e18383611976565b90611ebf565b55565b6156b4565b6156f85f611059565b6157036104e8835490565b811015615767576157176119bc8284611976565b8314615725576001016156f8565b9150806157626157366104e8935490565b9361202b61575b6119bc61575560019861574f8a611059565b90613ba1565b86611976565b9184611976565b6156c8565b5050505f90565b6001600160a01b0390911681526040810192916104d29160200152565b9061579660096110b5565b6157a561252e6107325f6124cc565b146157e4575f8091615584936155726157be60096110b5565b9161542c6157cb60405190565b638925781760e01b60208201529485926024840161576e565b5050565b6157f06151b8565b6104d26157fe600180611e83565b7f62e78cea01bee320cd4e420270b5ea74000d11b0c9f74754ebdbfc544b05a2586156a733610c15565b6104d26157e8565b6104e86802b5e3af16b1880000611059565b6104e86804563918244f400000611059565b6104e868056bc75e2d63100000611059565b6104e8680821ab0d4414980000611059565b6104e8680bed1d0263d9f00000611059565b6104e8612710613f52565b6104e8613a98613f52565b6104e8614e20613f52565b6104e8617530613f52565b6104e861c350613f52565b6104e86161a8613f52565b61593c6158d7615830565b6158e7600a916139865f84612746565b6158fd6158f2615842565b613986600184612746565b615913615908615854565b613986600284612746565b61592961591e615866565b613986600384612746565b6139866004615936615878565b92612746565b6104d261594761588a565b6159bf600b61595a83612aba5f84612746565b6159ae615965615895565b9161597583612aba600184612746565b61598b6159806158a0565b612aba600284612746565b6159a16159966158ab565b612aba600384612746565b612aba60046159366158b6565b615980600c93612aba600186612746565b612aba60036159366158c1565b6159d660016106f0565b6159df826106f0565b036159f057506104e8612710613f52565b6159fa60026106f0565b615a03826106f0565b03615a1457506104e8613a98613f52565b615a1e60036106f0565b615a27826106f0565b03615a3857506104e86155f0613f52565b615a4260046106f0565b615a4b826106f0565b03615a5c57506104e8614650613f52565b615a6660056106f0565b615a6f826106f0565b03615a8057506104e8613e80613f52565b615a8a60066106f0565b615a93826106f0565b03615aa457506104e86136b0613f52565b615aae60076106f0565b615ab7826106f0565b03615ac857506104e8614e20613f52565b615ad1816106fa565b615ade6121456008611d65565b10159081615b02575b50615af7576104e8612710613f52565b6104e8612ee0613f52565b615b0c91506106fa565b615b196121456010611d65565b11155f615ae7565b615b3b9161099661279b92615b335f90565b50600d61094d565b615b445f613f52565b61ffff821614615b515790565b506104e85f613f52565b6104e890611059565b61064b615b7c92602092615b76815190565b94859290565b9384910161073e565b615bc36104e89392615bbd615bbd937f416363657373436f6e74726f6c3a206163636f756e7420000000000000000000815260170190565b90615b64565b7001034b99036b4b9b9b4b733903937b6329607d1b815260110190565b60208082526104e89291019061075f565b90615bff6138198284614020565b615c07575050565b615c516104e8612e7a93615c39615c29615c23615c5d96615cf1565b92615b5b565b615c336020611059565b90615dbb565b90615c4360405190565b938492602084019283615b85565b9081038252038261119b565b60405162461bcd60e51b815291829160048301615be0565b15615c7c57565b60405162461bcd60e51b815260206004820152601460248201527f5061757361626c653a206e6f74207061757365640000000000000000000000006044820152606490fd5b6104d2615ccc613697565b615c75565b6104e86104e86104e8926001600160a01b031690565b6104e86014611d65565b615d0e615d096104e892615d03606090565b50611691565b615cd1565b615c3361242a615ce7565b906104d2612eb4615d29846120f0565b936120d3565b90615d38825190565b811015611996570160200190565b8015611dea575f190190565b6104e890615d6661065b6104e89460ff1690565b901c90565b15615d7257565b60405162461bcd60e51b815280612e7a600482016020808252818101527f537472696e67733a20686578206c656e67746820696e73756666696369656e74604082015260600190565b615de9615de4615dd484615dcf6002611059565b614b77565b615dde6002611059565b90611ddd565b615d19565b916030615dfe615df85f611059565b85615d2f565b53600f60fb1b615e37615e2e60019384935f1a615e23615e1d86611059565b89615d2f565b53615dcf6002611059565b615dde83611059565b915b615e5a575b5050906104e86104e892615e5461065b5f611059565b14615d6b565b9091615e6582611059565b831115615ed3576f181899199a1a9b1b9c1cb0b131b232b360811b615e8a600f611059565b8216906010821015611996578392615eaa615ec792615ecd941a60f81b90565b5f1a615eb68789615d2f565b53615ec16004611d65565b90615d52565b93615d46565b91615e39565b91615e3e56fea49807205ce4d355092ef5a8a18f56e8913cf4a201fbe287825b095693c21775a2646970667358221220e700a476cb20ea370889eb80f5879ba4197255ba0473814c8439defc9adb504964736f6c634300081c0033",
  "linkReferences": {},
  "deployedLinkReferences": {}
}