{
  "_format": "hh-sol-artifact-1",
  "contractName": "IndividualSkillsMarketplace",
  "sourceName": "contracts/Marketplace/IndividualSkillsMarketplace.sol",
  "abi": [
    {
      "inputs": [
        {
          "internalType": "address",
          "name": "_treasuryAddress",
          "type": "address"
        }
      ],
      "stateMutability": "nonpayable",
      "type": "constructor"
    },
    {
      "inputs": [],
      "name": "CannotTransferActiveSkill",
      "type": "error"
    },
    {
      "inputs": [
        {
          "internalType": "uint256",
          "name": "required",
          "type": "uint256"
        },
        {
          "internalType": "uint256",
          "name": "current",
          "type": "uint256"
        }
      ],
      "name": "InsufficientStakingBalance",
      "type": "error"
    },
    {
      "inputs": [],
      "name": "InvalidAddress",
      "type": "error"
    },
    {
      "inputs": [
        {
          "internalType": "uint256",
          "name": "level",
          "type": "uint256"
        }
      ],
      "name": "InvalidLevel",
      "type": "error"
    },
    {
      "inputs": [],
      "name": "InvalidMetadata",
      "type": "error"
    },
    {
      "inputs": [
        {
          "internalType": "uint256",
          "name": "expected",
          "type": "uint256"
        },
        {
          "internalType": "uint256",
          "name": "provided",
          "type": "uint256"
        }
      ],
      "name": "InvalidPrice",
      "type": "error"
    },
    {
      "inputs": [
        {
          "internalType": "uint8",
          "name": "rarity",
          "type": "uint8"
        }
      ],
      "name": "InvalidRarity",
      "type": "error"
    },
    {
      "inputs": [
        {
          "internalType": "uint8",
          "name": "skillType",
          "type": "uint8"
        }
      ],
      "name": "InvalidSkillType",
      "type": "error"
    },
    {
      "inputs": [
        {
          "internalType": "uint8",
          "name": "max",
          "type": "uint8"
        }
      ],
      "name": "MaxActiveSkillsReached",
      "type": "error"
    },
    {
      "inputs": [],
      "name": "NotSkillOwner",
      "type": "error"
    },
    {
      "inputs": [
        {
          "internalType": "uint256",
          "name": "expiresAt",
          "type": "uint256"
        }
      ],
      "name": "SkillAlreadyExpired",
      "type": "error"
    },
    {
      "inputs": [],
      "name": "SkillIsActive",
      "type": "error"
    },
    {
      "inputs": [],
      "name": "SkillNotActive",
      "type": "error"
    },
    {
      "inputs": [
        {
          "internalType": "uint256",
          "name": "expiresAt",
          "type": "uint256"
        }
      ],
      "name": "SkillNotExpired",
      "type": "error"
    },
    {
      "inputs": [
        {
          "internalType": "uint256",
          "name": "skillId",
          "type": "uint256"
        }
      ],
      "name": "SkillNotFound",
      "type": "error"
    },
    {
      "inputs": [
        {
          "internalType": "uint256",
          "name": "skillId",
          "type": "uint256"
        }
      ],
      "name": "SkillNotInList",
      "type": "error"
    },
    {
      "inputs": [
        {
          "internalType": "address",
          "name": "user",
          "type": "address"
        },
        {
          "internalType": "uint256",
          "name": "skillId",
          "type": "uint256"
        }
      ],
      "name": "StakingNotificationFailed",
      "type": "error"
    },
    {
      "anonymous": false,
      "inputs": [
        {
          "indexed": true,
          "internalType": "address",
          "name": "admin",
          "type": "address"
        },
        {
          "indexed": false,
          "internalType": "uint256",
          "name": "amount",
          "type": "uint256"
        },
        {
          "indexed": true,
          "internalType": "address",
          "name": "to",
          "type": "address"
        }
      ],
      "name": "EmergencyWithdrawal",
      "type": "event"
    },
    {
      "anonymous": false,
      "inputs": [
        {
          "indexed": true,
          "internalType": "address",
          "name": "user",
          "type": "address"
        },
        {
          "indexed": true,
          "internalType": "uint256",
          "name": "skillId",
          "type": "uint256"
        },
        {
          "indexed": false,
          "internalType": "enum IStakingIntegration.SkillType",
          "name": "skillType",
          "type": "uint8"
        }
      ],
      "name": "IndividualSkillActivated",
      "type": "event"
    },
    {
      "anonymous": false,
      "inputs": [
        {
          "indexed": true,
          "internalType": "address",
          "name": "user",
          "type": "address"
        },
        {
          "indexed": true,
          "internalType": "uint256",
          "name": "skillId",
          "type": "uint256"
        },
        {
          "indexed": false,
          "internalType": "enum IStakingIntegration.SkillType",
          "name": "skillType",
          "type": "uint8"
        }
      ],
      "name": "IndividualSkillDeactivated",
      "type": "event"
    },
    {
      "anonymous": false,
      "inputs": [
        {
          "indexed": true,
          "internalType": "address",
          "name": "user",
          "type": "address"
        },
        {
          "indexed": true,
          "internalType": "uint256",
          "name": "skillId",
          "type": "uint256"
        },
        {
          "indexed": false,
          "internalType": "enum IStakingIntegration.SkillType",
          "name": "skillType",
          "type": "uint8"
        }
      ],
      "name": "IndividualSkillExpired",
      "type": "event"
    },
    {
      "anonymous": false,
      "inputs": [
        {
          "indexed": true,
          "internalType": "address",
          "name": "user",
          "type": "address"
        },
        {
          "indexed": true,
          "internalType": "uint256",
          "name": "skillId",
          "type": "uint256"
        },
        {
          "indexed": false,
          "internalType": "enum IStakingIntegration.SkillType",
          "name": "skillType",
          "type": "uint8"
        },
        {
          "indexed": false,
          "internalType": "enum IStakingIntegration.Rarity",
          "name": "rarity",
          "type": "uint8"
        },
        {
          "indexed": false,
          "internalType": "uint256",
          "name": "price",
          "type": "uint256"
        }
      ],
      "name": "IndividualSkillPurchased",
      "type": "event"
    },
    {
      "anonymous": false,
      "inputs": [
        {
          "indexed": true,
          "internalType": "address",
          "name": "user",
          "type": "address"
        },
        {
          "indexed": true,
          "internalType": "uint256",
          "name": "skillId",
          "type": "uint256"
        },
        {
          "indexed": false,
          "internalType": "uint256",
          "name": "newExpiryTime",
          "type": "uint256"
        }
      ],
      "name": "IndividualSkillRenewed",
      "type": "event"
    },
    {
      "anonymous": false,
      "inputs": [
        {
          "indexed": true,
          "internalType": "address",
          "name": "from",
          "type": "address"
        },
        {
          "indexed": true,
          "internalType": "address",
          "name": "to",
          "type": "address"
        },
        {
          "indexed": true,
          "internalType": "uint256",
          "name": "skillId",
          "type": "uint256"
        },
        {
          "indexed": false,
          "internalType": "enum IStakingIntegration.SkillType",
          "name": "skillType",
          "type": "uint8"
        }
      ],
      "name": "IndividualSkillTransferred",
      "type": "event"
    },
    {
      "anonymous": false,
      "inputs": [
        {
          "indexed": false,
          "internalType": "address",
          "name": "account",
          "type": "address"
        }
      ],
      "name": "Paused",
      "type": "event"
    },
    {
      "anonymous": false,
      "inputs": [
        {
          "indexed": true,
          "internalType": "bytes32",
          "name": "role",
          "type": "bytes32"
        },
        {
          "indexed": true,
          "internalType": "bytes32",
          "name": "previousAdminRole",
          "type": "bytes32"
        },
        {
          "indexed": true,
          "internalType": "bytes32",
          "name": "newAdminRole",
          "type": "bytes32"
        }
      ],
      "name": "RoleAdminChanged",
      "type": "event"
    },
    {
      "anonymous": false,
      "inputs": [
        {
          "indexed": true,
          "internalType": "bytes32",
          "name": "role",
          "type": "bytes32"
        },
        {
          "indexed": true,
          "internalType": "address",
          "name": "account",
          "type": "address"
        },
        {
          "indexed": true,
          "internalType": "address",
          "name": "sender",
          "type": "address"
        }
      ],
      "name": "RoleGranted",
      "type": "event"
    },
    {
      "anonymous": false,
      "inputs": [
        {
          "indexed": true,
          "internalType": "bytes32",
          "name": "role",
          "type": "bytes32"
        },
        {
          "indexed": true,
          "internalType": "address",
          "name": "account",
          "type": "address"
        },
        {
          "indexed": true,
          "internalType": "address",
          "name": "sender",
          "type": "address"
        }
      ],
      "name": "RoleRevoked",
      "type": "event"
    },
    {
      "anonymous": false,
      "inputs": [
        {
          "indexed": true,
          "internalType": "address",
          "name": "user",
          "type": "address"
        },
        {
          "indexed": true,
          "internalType": "uint256",
          "name": "skillId",
          "type": "uint256"
        }
      ],
      "name": "SkillCleanedUp",
      "type": "event"
    },
    {
      "anonymous": false,
      "inputs": [
        {
          "indexed": true,
          "internalType": "enum IStakingIntegration.SkillType",
          "name": "skillType",
          "type": "uint8"
        },
        {
          "indexed": false,
          "internalType": "uint256",
          "name": "basePrice",
          "type": "uint256"
        },
        {
          "indexed": false,
          "internalType": "uint256",
          "name": "rarityMultiplier",
          "type": "uint256"
        }
      ],
      "name": "SkillPricingUpdated",
      "type": "event"
    },
    {
      "anonymous": false,
      "inputs": [
        {
          "indexed": true,
          "internalType": "address",
          "name": "user",
          "type": "address"
        },
        {
          "indexed": true,
          "internalType": "uint256",
          "name": "skillId",
          "type": "uint256"
        },
        {
          "indexed": false,
          "internalType": "enum IStakingIntegration.SkillType",
          "name": "skillType",
          "type": "uint8"
        },
        {
          "indexed": false,
          "internalType": "uint256",
          "name": "amount",
          "type": "uint256"
        },
        {
          "indexed": false,
          "internalType": "string",
          "name": "operation",
          "type": "string"
        }
      ],
      "name": "SkillPurchaseProcessed",
      "type": "event"
    },
    {
      "anonymous": false,
      "inputs": [
        {
          "indexed": true,
          "internalType": "address",
          "name": "oldStaking",
          "type": "address"
        },
        {
          "indexed": true,
          "internalType": "address",
          "name": "newStaking",
          "type": "address"
        }
      ],
      "name": "StakingContractUpdated",
      "type": "event"
    },
    {
      "anonymous": false,
      "inputs": [
        {
          "indexed": true,
          "internalType": "address",
          "name": "oldTreasury",
          "type": "address"
        },
        {
          "indexed": true,
          "internalType": "address",
          "name": "newTreasury",
          "type": "address"
        }
      ],
      "name": "TreasuryAddressUpdated",
      "type": "event"
    },
    {
      "anonymous": false,
      "inputs": [
        {
          "indexed": false,
          "internalType": "address",
          "name": "account",
          "type": "address"
        }
      ],
      "name": "Unpaused",
      "type": "event"
    },
    {
      "inputs": [],
      "name": "ADMIN_ROLE",
      "outputs": [
        {
          "internalType": "bytes32",
          "name": "",
          "type": "bytes32"
        }
      ],
      "stateMutability": "view",
      "type": "function"
    },
    {
      "inputs": [],
      "name": "DEFAULT_ADMIN_ROLE",
      "outputs": [
        {
          "internalType": "bytes32",
          "name": "",
          "type": "bytes32"
        }
      ],
      "stateMutability": "view",
      "type": "function"
    },
    {
      "inputs": [
        {
          "internalType": "uint256",
          "name": "_skillId",
          "type": "uint256"
        }
      ],
      "name": "activateIndividualSkill",
      "outputs": [],
      "stateMutability": "nonpayable",
      "type": "function"
    },
    {
      "inputs": [
        {
          "internalType": "uint256",
          "name": "_skillId",
          "type": "uint256"
        }
      ],
      "name": "claimExpiredIndividualSkill",
      "outputs": [],
      "stateMutability": "nonpayable",
      "type": "function"
    },
    {
      "inputs": [
        {
          "internalType": "uint256",
          "name": "_skillId",
          "type": "uint256"
        }
      ],
      "name": "deactivateIndividualSkill",
      "outputs": [],
      "stateMutability": "nonpayable",
      "type": "function"
    },
    {
      "inputs": [
        {
          "internalType": "uint256",
          "name": "_amount",
          "type": "uint256"
        }
      ],
      "name": "emergencyWithdraw",
      "outputs": [],
      "stateMutability": "nonpayable",
      "type": "function"
    },
    {
      "inputs": [],
      "name": "emergencyWithdrawAll",
      "outputs": [],
      "stateMutability": "nonpayable",
      "type": "function"
    },
    {
      "inputs": [
        {
          "internalType": "address",
          "name": "_user",
          "type": "address"
        }
      ],
      "name": "getActiveIndividualSkills",
      "outputs": [
        {
          "internalType": "uint256[]",
          "name": "activeSkillIds",
          "type": "uint256[]"
        }
      ],
      "stateMutability": "view",
      "type": "function"
    },
    {
      "inputs": [],
      "name": "getAllSkillsPricing",
      "outputs": [
        {
          "internalType": "enum IStakingIntegration.SkillType[]",
          "name": "skillTypes",
          "type": "uint8[]"
        },
        {
          "internalType": "uint8[]",
          "name": "categories",
          "type": "uint8[]"
        },
        {
          "internalType": "uint256[][]",
          "name": "prices",
          "type": "uint256[][]"
        }
      ],
      "stateMutability": "view",
      "type": "function"
    },
    {
      "inputs": [
        {
          "internalType": "uint256",
          "name": "_skillId",
          "type": "uint256"
        }
      ],
      "name": "getIndividualSkill",
      "outputs": [
        {
          "components": [
            {
              "internalType": "enum IStakingIntegration.SkillType",
              "name": "skillType",
              "type": "uint8"
            },
            {
              "internalType": "enum IStakingIntegration.Rarity",
              "name": "rarity",
              "type": "uint8"
            },
            {
              "internalType": "uint256",
              "name": "level",
              "type": "uint256"
            },
            {
              "internalType": "address",
              "name": "owner",
              "type": "address"
            },
            {
              "internalType": "uint256",
              "name": "purchasedAt",
              "type": "uint256"
            },
            {
              "internalType": "uint256",
              "name": "expiresAt",
              "type": "uint256"
            },
            {
              "internalType": "bool",
              "name": "isActive",
              "type": "bool"
            },
            {
              "internalType": "string",
              "name": "metadata",
              "type": "string"
            },
            {
              "internalType": "uint256",
              "name": "createdAt",
              "type": "uint256"
            }
          ],
          "internalType": "struct IIndividualSkills.IndividualSkill",
          "name": "",
          "type": "tuple"
        }
      ],
      "stateMutability": "view",
      "type": "function"
    },
    {
      "inputs": [
        {
          "internalType": "enum IStakingIntegration.Rarity",
          "name": "_rarity",
          "type": "uint8"
        }
      ],
      "name": "getIndividualSkillPrice",
      "outputs": [
        {
          "internalType": "uint256",
          "name": "",
          "type": "uint256"
        }
      ],
      "stateMutability": "view",
      "type": "function"
    },
    {
      "inputs": [
        {
          "internalType": "bytes32",
          "name": "role",
          "type": "bytes32"
        }
      ],
      "name": "getRoleAdmin",
      "outputs": [
        {
          "internalType": "bytes32",
          "name": "",
          "type": "bytes32"
        }
      ],
      "stateMutability": "view",
      "type": "function"
    },
    {
      "inputs": [
        {
          "internalType": "enum IStakingIntegration.SkillType",
          "name": "_skillType",
          "type": "uint8"
        },
        {
          "internalType": "enum IStakingIntegration.Rarity",
          "name": "_rarity",
          "type": "uint8"
        }
      ],
      "name": "getSkillPrice",
      "outputs": [
        {
          "internalType": "uint256",
          "name": "",
          "type": "uint256"
        }
      ],
      "stateMutability": "view",
      "type": "function"
    },
    {
      "inputs": [
        {
          "internalType": "enum IStakingIntegration.SkillType",
          "name": "_skillType",
          "type": "uint8"
        }
      ],
      "name": "getSkillPricesAllRarities",
      "outputs": [
        {
          "internalType": "uint256[5]",
          "name": "prices",
          "type": "uint256[5]"
        }
      ],
      "stateMutability": "view",
      "type": "function"
    },
    {
      "inputs": [
        {
          "internalType": "address",
          "name": "_user",
          "type": "address"
        },
        {
          "internalType": "enum IStakingIntegration.SkillType",
          "name": "_skillType",
          "type": "uint8"
        }
      ],
      "name": "getUserActiveIndividualSkills",
      "outputs": [
        {
          "internalType": "uint256[]",
          "name": "",
          "type": "uint256[]"
        }
      ],
      "stateMutability": "view",
      "type": "function"
    },
    {
      "inputs": [
        {
          "internalType": "address",
          "name": "_user",
          "type": "address"
        },
        {
          "internalType": "enum IStakingIntegration.SkillType",
          "name": "_skillType",
          "type": "uint8"
        }
      ],
      "name": "getUserActiveSkillCountByType",
      "outputs": [
        {
          "internalType": "uint8",
          "name": "count",
          "type": "uint8"
        }
      ],
      "stateMutability": "view",
      "type": "function"
    },
    {
      "inputs": [
        {
          "internalType": "address",
          "name": "_user",
          "type": "address"
        }
      ],
      "name": "getUserIndividualSkills",
      "outputs": [
        {
          "internalType": "uint256[]",
          "name": "",
          "type": "uint256[]"
        }
      ],
      "stateMutability": "view",
      "type": "function"
    },
    {
      "inputs": [
        {
          "internalType": "address",
          "name": "_user",
          "type": "address"
        }
      ],
      "name": "getUserIndividualSkillsDetailed",
      "outputs": [
        {
          "components": [
            {
              "internalType": "enum IStakingIntegration.SkillType",
              "name": "skillType",
              "type": "uint8"
            },
            {
              "internalType": "enum IStakingIntegration.Rarity",
              "name": "rarity",
              "type": "uint8"
            },
            {
              "internalType": "uint256",
              "name": "level",
              "type": "uint256"
            },
            {
              "internalType": "address",
              "name": "owner",
              "type": "address"
            },
            {
              "internalType": "uint256",
              "name": "purchasedAt",
              "type": "uint256"
            },
            {
              "internalType": "uint256",
              "name": "expiresAt",
              "type": "uint256"
            },
            {
              "internalType": "bool",
              "name": "isActive",
              "type": "bool"
            },
            {
              "internalType": "string",
              "name": "metadata",
              "type": "string"
            },
            {
              "internalType": "uint256",
              "name": "createdAt",
              "type": "uint256"
            }
          ],
          "internalType": "struct IIndividualSkills.IndividualSkill[]",
          "name": "skills",
          "type": "tuple[]"
        },
        {
          "internalType": "bool[]",
          "name": "isActive",
          "type": "bool[]"
        }
      ],
      "stateMutability": "view",
      "type": "function"
    },
    {
      "inputs": [
        {
          "internalType": "bytes32",
          "name": "role",
          "type": "bytes32"
        },
        {
          "internalType": "address",
          "name": "account",
          "type": "address"
        }
      ],
      "name": "grantRole",
      "outputs": [],
      "stateMutability": "nonpayable",
      "type": "function"
    },
    {
      "inputs": [
        {
          "internalType": "bytes32",
          "name": "role",
          "type": "bytes32"
        },
        {
          "internalType": "address",
          "name": "account",
          "type": "address"
        }
      ],
      "name": "hasRole",
      "outputs": [
        {
          "internalType": "bool",
          "name": "",
          "type": "bool"
        }
      ],
      "stateMutability": "view",
      "type": "function"
    },
    {
      "inputs": [
        {
          "internalType": "uint256",
          "name": "",
          "type": "uint256"
        }
      ],
      "name": "individualSkills",
      "outputs": [
        {
          "internalType": "enum IStakingIntegration.SkillType",
          "name": "skillType",
          "type": "uint8"
        },
        {
          "internalType": "enum IStakingIntegration.Rarity",
          "name": "rarity",
          "type": "uint8"
        },
        {
          "internalType": "uint256",
          "name": "level",
          "type": "uint256"
        },
        {
          "internalType": "address",
          "name": "owner",
          "type": "address"
        },
        {
          "internalType": "uint256",
          "name": "purchasedAt",
          "type": "uint256"
        },
        {
          "internalType": "uint256",
          "name": "expiresAt",
          "type": "uint256"
        },
        {
          "internalType": "bool",
          "name": "isActive",
          "type": "bool"
        },
        {
          "internalType": "string",
          "name": "metadata",
          "type": "string"
        },
        {
          "internalType": "uint256",
          "name": "createdAt",
          "type": "uint256"
        }
      ],
      "stateMutability": "view",
      "type": "function"
    },
    {
      "inputs": [],
      "name": "pause",
      "outputs": [],
      "stateMutability": "nonpayable",
      "type": "function"
    },
    {
      "inputs": [],
      "name": "paused",
      "outputs": [
        {
          "internalType": "bool",
          "name": "",
          "type": "bool"
        }
      ],
      "stateMutability": "view",
      "type": "function"
    },
    {
      "inputs": [
        {
          "internalType": "enum IStakingIntegration.SkillType",
          "name": "_skillType",
          "type": "uint8"
        },
        {
          "internalType": "enum IStakingIntegration.Rarity",
          "name": "_rarity",
          "type": "uint8"
        },
        {
          "internalType": "uint256",
          "name": "_level",
          "type": "uint256"
        },
        {
          "internalType": "string",
          "name": "_metadata",
          "type": "string"
        }
      ],
      "name": "purchaseIndividualSkill",
      "outputs": [
        {
          "internalType": "uint256",
          "name": "skillId",
          "type": "uint256"
        }
      ],
      "stateMutability": "payable",
      "type": "function"
    },
    {
      "inputs": [
        {
          "internalType": "uint256",
          "name": "_skillId",
          "type": "uint256"
        }
      ],
      "name": "renewIndividualSkill",
      "outputs": [],
      "stateMutability": "payable",
      "type": "function"
    },
    {
      "inputs": [
        {
          "internalType": "bytes32",
          "name": "role",
          "type": "bytes32"
        },
        {
          "internalType": "address",
          "name": "account",
          "type": "address"
        }
      ],
      "name": "renounceRole",
      "outputs": [],
      "stateMutability": "nonpayable",
      "type": "function"
    },
    {
      "inputs": [],
      "name": "resetSkillPricingToDefaults",
      "outputs": [],
      "stateMutability": "nonpayable",
      "type": "function"
    },
    {
      "inputs": [
        {
          "internalType": "bytes32",
          "name": "role",
          "type": "bytes32"
        },
        {
          "internalType": "address",
          "name": "account",
          "type": "address"
        }
      ],
      "name": "revokeRole",
      "outputs": [],
      "stateMutability": "nonpayable",
      "type": "function"
    },
    {
      "inputs": [
        {
          "internalType": "address",
          "name": "_stakingAddress",
          "type": "address"
        }
      ],
      "name": "setStakingContract",
      "outputs": [],
      "stateMutability": "nonpayable",
      "type": "function"
    },
    {
      "inputs": [
        {
          "internalType": "address",
          "name": "_treasuryAddress",
          "type": "address"
        }
      ],
      "name": "setTreasuryAddress",
      "outputs": [],
      "stateMutability": "nonpayable",
      "type": "function"
    },
    {
      "inputs": [
        {
          "internalType": "enum IStakingIntegration.SkillType",
          "name": "",
          "type": "uint8"
        },
        {
          "internalType": "enum IStakingIntegration.Rarity",
          "name": "",
          "type": "uint8"
        }
      ],
      "name": "skillPrices",
      "outputs": [
        {
          "internalType": "uint256",
          "name": "",
          "type": "uint256"
        }
      ],
      "stateMutability": "view",
      "type": "function"
    },
    {
      "inputs": [],
      "name": "stakingContractAddress",
      "outputs": [
        {
          "internalType": "address",
          "name": "",
          "type": "address"
        }
      ],
      "stateMutability": "view",
      "type": "function"
    },
    {
      "inputs": [
        {
          "internalType": "bytes4",
          "name": "interfaceId",
          "type": "bytes4"
        }
      ],
      "name": "supportsInterface",
      "outputs": [
        {
          "internalType": "bool",
          "name": "",
          "type": "bool"
        }
      ],
      "stateMutability": "view",
      "type": "function"
    },
    {
      "inputs": [
        {
          "internalType": "uint256",
          "name": "_skillId",
          "type": "uint256"
        },
        {
          "internalType": "address",
          "name": "_recipient",
          "type": "address"
        }
      ],
      "name": "transferIndividualSkill",
      "outputs": [],
      "stateMutability": "nonpayable",
      "type": "function"
    },
    {
      "inputs": [],
      "name": "treasuryAddress",
      "outputs": [
        {
          "internalType": "address",
          "name": "",
          "type": "address"
        }
      ],
      "stateMutability": "view",
      "type": "function"
    },
    {
      "inputs": [],
      "name": "unpause",
      "outputs": [],
      "stateMutability": "nonpayable",
      "type": "function"
    },
    {
      "inputs": [
        {
          "internalType": "uint256",
          "name": "_commonPrice",
          "type": "uint256"
        },
        {
          "internalType": "uint256",
          "name": "_uncommonPrice",
          "type": "uint256"
        },
        {
          "internalType": "uint256",
          "name": "_rarePrice",
          "type": "uint256"
        },
        {
          "internalType": "uint256",
          "name": "_epicPrice",
          "type": "uint256"
        },
        {
          "internalType": "uint256",
          "name": "_legendaryPrice",
          "type": "uint256"
        }
      ],
      "name": "updateActiveSkillsPricing",
      "outputs": [],
      "stateMutability": "nonpayable",
      "type": "function"
    },
    {
      "inputs": [
        {
          "internalType": "enum IStakingIntegration.SkillType",
          "name": "_skillType",
          "type": "uint8"
        },
        {
          "internalType": "enum IStakingIntegration.Rarity",
          "name": "_rarity",
          "type": "uint8"
        },
        {
          "internalType": "uint256",
          "name": "_price",
          "type": "uint256"
        }
      ],
      "name": "updateSkillPrice",
      "outputs": [],
      "stateMutability": "nonpayable",
      "type": "function"
    },
    {
      "inputs": [
        {
          "internalType": "uint256",
          "name": "_commonPrice",
          "type": "uint256"
        },
        {
          "internalType": "uint256",
          "name": "_uncommonPrice",
          "type": "uint256"
        },
        {
          "internalType": "uint256",
          "name": "_rarePrice",
          "type": "uint256"
        },
        {
          "internalType": "uint256",
          "name": "_epicPrice",
          "type": "uint256"
        },
        {
          "internalType": "uint256",
          "name": "_legendaryPrice",
          "type": "uint256"
        }
      ],
      "name": "updateStakingSkillsPricing",
      "outputs": [],
      "stateMutability": "nonpayable",
      "type": "function"
    },
    {
      "inputs": [
        {
          "internalType": "address",
          "name": "",
          "type": "address"
        },
        {
          "internalType": "enum IStakingIntegration.SkillType",
          "name": "",
          "type": "uint8"
        }
      ],
      "name": "userActiveSkillCount",
      "outputs": [
        {
          "internalType": "uint8",
          "name": "",
          "type": "uint8"
        }
      ],
      "stateMutability": "view",
      "type": "function"
    },
    {
      "inputs": [
        {
          "internalType": "address",
          "name": "",
          "type": "address"
        },
        {
          "internalType": "enum IStakingIntegration.SkillType",
          "name": "",
          "type": "uint8"
        },
        {
          "internalType": "uint256",
          "name": "",
          "type": "uint256"
        }
      ],
      "name": "userActiveSkills",
      "outputs": [
        {
          "internalType": "uint256",
          "name": "",
          "type": "uint256"
        }
      ],
      "stateMutability": "view",
      "type": "function"
    },
    {
      "inputs": [
        {
          "internalType": "address",
          "name": "",
          "type": "address"
        },
        {
          "internalType": "uint256",
          "name": "",
          "type": "uint256"
        }
      ],
      "name": "userIndividualSkills",
      "outputs": [
        {
          "internalType": "uint256",
          "name": "",
          "type": "uint256"
        }
      ],
      "stateMutability": "view",
      "type": "function"
    },
    {
      "stateMutability": "payable",
      "type": "receive"
    }
  ],
  "bytecode": "0x60806040523461002a576100196100146100bf565b61015f565b604051613de96106028239613de990f35b5f80fd5b634e487b7160e01b5f52604160045260245ffd5b90601f01601f191681019081106001600160401b0382111761006357604052565b61002e565b9061007c61007560405190565b9283610042565b565b6001600160a01b031690565b90565b6001600160a01b0381160361002a57565b9050519061007c8261008d565b9060208282031261002a5761008a9161009e565b61008a6143eb803803806100d281610068565b9283398101906100ab565b61007e61008a61008a9290565b61008a906100dd565b61008a61008a61008a9290565b61008a5f6100f3565b906001600160a01b03905b9181191691161790565b61008a9061007e906001600160a01b031682565b61008a9061011e565b61008a90610132565b9061015461008a61015b9261013b565b8254610109565b9055565b6101676101e1565b61017361007e5f6100ea565b6001600160a01b038216146101d0576101c890610198610191610100565b3390610258565b6101c17fa49807205ce4d355092ef5a8a18f56e8913cf4a201fbe287825b095693c21775610191565b6008610144565b61007c6103db565b63e6c4247b60e01b5f908152600490fd5b61007c610213565b61008a60016100f3565b905f1990610114565b9061020c61008a61015b926100f3565b82546101f3565b61021b61024d565b61007c6102266101e9565b60026101fc565b9060ff90610114565b9061024661008a61015b92151590565b825461022d565b61007c5f6001610236565b9061007c9161054d565b61026f61008a61008a9290565b60ff1690565b634e487b7160e01b5f52601160045260245ffd5b60ff1660ff811461029a5760010190565b610275565b634e487b7160e01b5f52602160045260245ffd5b601111156102bd57565b61029f565b9061007c826102b3565b6102dc61008a61008a9260ff1690565b6102c2565b61008a6802b5e3af16b18800006100f3565b61008a906102c2565b90610306906102f3565b5f5260205260405f2090565b600511156102bd57565b9061007c82610312565b61008a9061031c565b9061030690610326565b61008a6804563918244f4000006100f3565b61008a68056bc75e2d631000006100f3565b61008a680821ab0d44149800006100f3565b61008a680bed1d0263d9f000006100f3565b61008a6803860e639d806400006100f3565b61008a6805a34a38fc00a000006100f3565b61008a68070c1cc73b00c800006100f3565b61008a680a922b2ad8812c00006100f3565b61008a680f810c1cb501b800006100f3565b600180806103e881610262565b905b6104c1575b506103fa6008610262565b905b610404575050565b61040e6010610262565b60ff8216116104bd576104b7816104b261042885946102cc565b610452600461044d610438610381565b93610457600a956104525f61044d858a6102fc565b61032f565b6101fc565b610470610462610393565b6104528b61044d858a6102fc565b61048a61047b6103a5565b610452600261044d858a6102fc565b6104a46104956103b7565b610452600361044d858a6102fc565b6104ac6103c9565b946102fc565b610289565b906103fc565b5050565b6104cb6007610262565b60ff82161161053857806104b26104e4610532936102cc565b610452600461044d6104f46102e1565b93610509600a956104525f61044d858a6102fc565b610514610462610339565b61051f61047b61034b565b61052a61049561035d565b6104ac61036f565b816103ea565b6103ef565b90610306565b906103069061013b565b61055e61055a83836105e2565b1590565b610566575050565b6105856001610580845f61057a868261053d565b01610543565b610236565b61059f610599610593339390565b9361013b565b9161013b565b917f2f8788117e7eff1d82e926ec794901d17c78024a50270940304540a733656f0d6105ca60405190565b5f90a4565b61008a9061026f565b61008a90546105cf565b61008a915f61057a6105fc936105f55f90565b508261053d565b6105d856fe6080604052600436101561001a575b3615610018575f80fd5b005b5f3560e01c806301ffc9a7146102b9578063030f5782146102b45780630538809a146102af57806318f069b9146102aa57806319be57ee146102a55780631bb445c2146102a0578063234d41db1461029b578063248a9ca3146102965780632f2ff15d146102915780633535f48b1461028c57806336568abe146102875780633ede838c146102825780633f4ba83a1461027d5780635312ea8e14610278578063554ba220146102735780635c975abb1461026e578063655277021461026957806365cd7949146102645780636605bfda1461025f57806372df82111461025a57806375b238fc146102555780638456cb5914610250578063850c1f1f1461024b5780638abad5f81461024657806391d1485414610241578063926207de1461023c5780639dd373b914610237578063a217fddf14610232578063a5d34cb11461022d578063ab3acc2414610228578063bd6d022414610223578063c0e383d01461021e578063c5f956af14610219578063d254766414610214578063d547741f1461020f578063dd1917191461020a578063e6b82d9614610205578063ec2f595114610200578063f0ec2ce1146101fb578063f96ecb4b146101f6578063fd1828a9146101f15763fde4b2260361000e57611276565b611196565b61117a565b61113b565b61111f565b611103565b6110eb565b6110d2565b6110b7565b61109c565b61107e565b611062565b611002565b610fd2565b610f87565b610f5e565b610f45565b610f29565b610f0d565b610e30565b610de8565b610dc2565b610daa565b610d92565b610d47565b610ac3565b610a94565b610a6d565b6109f5565b6109dd565b6109b3565b610827565b6107f2565b6107a5565b610767565b61074b565b61072f565b610691565b6105c5565b610434565b6103f5565b6102ff565b6001600160e01b031981165b036102d157565b5f80fd5b905035906102e2826102be565b565b906020828203126102d1576102f8916102d5565b90565b9052565b346102d15761032c61031a6103153660046102e4565b6112a4565b60405191829182901515815260200190565b0390f35b601111156102d157565b905035906102e282610330565b600511156102d157565b905035906102e282610347565b806102ca565b905035906102e28261035e565b909182601f830112156102d15781359167ffffffffffffffff83116102d15760200192600183028401116102d157565b906080828203126102d1576103b6818361033a565b926103c48260208501610351565b926103d28360408301610364565b92606082013567ffffffffffffffff81116102d1576103f19201610371565b9091565b61032c61040f6104063660046103a1565b939290926119a1565b6040515b9182918290815260200190565b906020828203126102d1576102f891610364565b346102d15761044c610447366004610420565b611c2e565b604051005b634e487b7160e01b5f52602160045260245ffd5b6011111561046f57565b610451565b906102e282610465565b6102f890610474565b6102fb9061047e565b6005111561046f57565b906102e282610490565b6102f89061049a565b6102fb906104a4565b6001600160a01b031690565b5f5b8381106104d35750505f910152565b81810151838201526020016104c4565b61050461050d602093610517936104f8815190565b80835293849260200190565b958691016104c2565b601f01601f191690565b0190565b906102f890610100806105ac610120840161053c5f8801515f870190610487565b61054e602088015160208701906104ad565b61055d60408801516040870152565b6060878101516001600160a01b03169086015261057f60808801516080870152565b61058e60a088015160a0870152565b60c08781015115159086015260e087015185820360e08701526104e3565b940151910152565b60208082526102f89291019061051b565b346102d15761032c6105e06105db366004610420565b611d78565b604051918291826105b4565b6001600160a01b0381166102ca565b905035906102e2826105ec565b91906040838203126102d1576102f890602061062482866105fb565b940161033a565b9061064b61064461063a845190565b8084529260200190565b9260200190565b905f5b81811061065b5750505090565b9091926106786106716001928651815260200190565b9460200190565b92910161064e565b60208082526102f89291019061062b565b346102d15761032c6106ad6106a7366004610608565b90611e16565b60405191829182610680565b91906040838203126102d1576102f89060206106d5828661033a565b9401610351565b906106e69061047e565b5f5260205260405f2090565b906106e6906104a4565b6102f8916008021c81565b906102f891546106fc565b61072a6102f8926107255f93600a6106dc565b6106f2565b610707565b346102d15761032c61040f6107453660046106b9565b90610712565b346102d15761032c61040f6107613660046106b9565b90611e36565b346102d15761032c61040f61077d366004610420565b611e46565b91906040838203126102d1576102f890602061079e8286610364565b94016105fb565b346102d15761044c6107b8366004610782565b90611e7d565b5f9103126102d157565b6102f8916008021c6001600160a01b031690565b906102f891546107c8565b6102f85f60096107dc565b346102d1576108023660046107be565b61032c61080d6107e7565b604051918291826001600160a01b03909116815260200190565b346102d15761044c61083a366004610782565b90611ef0565b9061051781602093610487565b9061085c61064461063a845190565b905f5b81811061086c5750505090565b90919261087f6106716001928651610840565b92910161085f565b9061089661064461063a845190565b905f5b8181106108a65750505090565b9091926108bf610671600192865160ff16815260200190565b929101610899565b906108d661064461063a845190565b905f5b8181106108e65750505090565b9091926108fc6106716001928651815260200190565b9291016108d9565b906102f8916108c7565b9061092461091a835190565b8083529160200190565b90816109366020830284019460200190565b925f915b83831061094957505050505090565b9091929394602061096c61096583856001950387528951610904565b9760200190565b930193019193929061093a565b916109a5906109976102f8959360608601908682035f88015261084d565b908482036020860152610887565b91604081840391015261090e565b346102d1576109c33660046107be565b61032c6109ce61200a565b60405191939193849384610979565b346102d1576109ed3660046107be565b61044c6121fa565b346102d15761044c610a08366004610420565b612327565b906020828203126102d1576102f89161033a565b610a31610a2d60059390565b9190565b5f915b838310610a415750505050565b610a546106446001928451815260200190565b92019190610a34565b60a0810192916102e29190610a21565b346102d15761032c610a88610a83366004610a0d565b612388565b60405191829182610a5d565b346102d157610aa43660046107be565b61032c61031a6123e3565b906020828203126102d1576102f891610351565b346102d15761032c61040f610ad9366004610aaf565b6123fa565b6102f86102f86102f89290565b906106e690610ade565b6102f8905b60ff1690565b6102f89054610af5565b6102f89060081c610afa565b6102f89054610b0a565b6102f89081565b6102f89054610b20565b6102f8906104b6565b6102f89054610b31565b634e487b7160e01b5f52602260045260245ffd5b9060016002830492168015610b78575b6020831014610b7357565b610b44565b91607f1691610b68565b80545f939291610b9e610b9483610b58565b8085529360200190565b9160018116908115610bed5750600114610bb757505050565b610bc891929394505f5260205f2090565b915f925b818410610bd95750500190565b805484840152602090930192600101610bcc565b92949550505060ff1916825215156020020190565b906102f891610b82565b634e487b7160e01b5f52604160045260245ffd5b90601f01601f1916810190811067ffffffffffffffff821117610c4257604052565b610c0c565b906102e2610c6192610c5860405190565b93848092610c02565b0383610c20565b610c73906004610aeb565b610c7c81610b00565b91610c8682610b16565b91610c9360018201610b27565b91610ca060028301610b3a565b91610cad60038201610b27565b91610cba60048301610b27565b91610cc760058201610b00565b916102f86007610cd960068501610c47565b9301610b27565b999897969492909593916101208b01965f8c01610cfc91610487565b60208b01610d09916104ad565b60408a01526001600160a01b03166060890152608088015260a0870152151560c086015284810360e0860152610d3e916104e3565b61010090930152565b346102d15761032c610d62610d5d366004610420565b610c68565b95610d7599979995919594929460405190565b998a998a610ce0565b906020828203126102d1576102f8916105fb565b346102d15761044c610da5366004610d7e565b6124a5565b346102d15761044c610dbd366004610420565b612605565b346102d157610dd23660046107be565b61032c5f516020613d945f395f51905f5261040f565b346102d157610df83660046107be565b61044c61262f565b90916060828403126102d1576102f8610e19848461033a565b936040610e298260208701610351565b9401610364565b346102d15761044c610e43366004610e00565b9161274d565b90916060828403126102d1576102f8610e6284846105fb565b936040610e29826020870161033a565b6104b66102f86102f8926001600160a01b031690565b6102f890610e72565b6102f890610e88565b906106e690610e91565b634e487b7160e01b5f52603260045260245ffd5b8054821015610ed857610ed06001915f5260205f2090565b910201905f90565b610ea4565b90610eec610ef1926006610e9a565b6106dc565b80548210156102d1576102f891610f0791610eb8565b90610707565b346102d15761032c61040f610f23366004610e49565b91610edd565b346102d15761032c61031a610f3f366004610782565b90612758565b346102d15761044c610f58366004610782565b906128f6565b346102d15761044c610f71366004610d7e565b61297b565b6102f85f610ade565b6102f8610f76565b346102d157610f973660046107be565b61032c61040f610f7f565b6102f8916008021c610afa565b906102f89154610fa2565b610fcd6102f892610eec5f936007610e9a565b610faf565b346102d15761032c610fee610fe8366004610608565b90610fba565b6040519182918260ff909116815260200190565b346102d15761032c6106ad611018366004610d7e565b612984565b919060a0838203126102d1576110338184610364565b926110418260208301610364565b926102f86110528460408501610364565b936080610e298260608701610364565b346102d15761044c61107536600461101d565b93929092612a56565b61044c61108c366004610420565b612c89565b6102f85f60086107dc565b346102d1576110ac3660046107be565b61032c61080d611091565b346102d15761032c6106ad6110cd366004610d7e565b612ca0565b346102d15761044c6110e5366004610782565b90612dbd565b346102d1576110fb3660046107be565b61044c612e03565b346102d15761032c610fee611119366004610608565b90612e0b565b346102d15761044c61113236600461101d565b93929092612ee9565b346102d15761114b3660046107be565b61044c612f17565b91906040838203126102d1576102f8906020610e2982866105fb565b610ef1906005610e9a565b346102d15761032c61040f611190366004611153565b9061116f565b346102d15761044c6111a9366004610420565b612f1f565b906102f89161051b565b906111c461091a835190565b90816111d66020830284019460200190565b925f915b8383106111e957505050505090565b90919293946020611205610965838560019503875289516111ae565b93019301919392906111da565b9061122161064461063a845190565b905f5b8181106112315750505090565b90919261124961067160019286511515815260200190565b929101611224565b60408082526102f8939192611268918401906111b8565b916020818403910152611212565b346102d15761128e611289366004610d7e565b61310c565b9061032c61129b60405190565b92839283611251565b637965db0b60e01b6001600160e01b03198216149081156112c3575090565b6102f891506001600160e01b0319166301ffc9a760e01b1490565b906102f895949392916112ef61322f565b906113059594939291611300613298565b6116c4565b906102e26132ca565b610afa6102f86102f89290565b6102f8600161130e565b6102f8601061130e565b6102f8600461130e565b6102f86102f86102f89260ff1690565b6102f8603261130e565b9081526040810192916102e29160200152565b0152565b6102f862278d00610ade565b634e487b7160e01b5f52601160045260245ffd5b9190820180921161139757565b611376565b9060ff905b9181191691161790565b906113bb6102f86113c29261047e565b825461139c565b9055565b9061ff009060081b6113a1565b906113e36102f86113c2926104a4565b82546113c6565b905f19906113a1565b906114036102f86113c292610ade565b82546113ea565b906001600160a01b03906113a1565b906114296102f86113c292610e91565b825461140a565b906113bb6102f86113c292151590565b915f1960089290920291821b911b6113a1565b91906114646102f86113c293610ade565b908354611440565b6102e2915f91611453565b818110611482575050565b8061148f5f60019361146c565b01611477565b9190601f81116114a457505050565b6114b46102e2935f5260205f2090565b906020601f8401819004830193106114d6575b6020601f909101040190611477565b90915081906114c7565b919067ffffffffffffffff8211610c4257611505826114ff8554610b58565b85611495565b5f90601f831160011461153d576113c292915f9183611532575b50505f19600883021c1916906002021790565b013590505f8061151f565b90601f19831691611551855f5260205f2090565b925f5b81811061158d57509160029391856001969410611575575b50505002019055565b01355f19601f84166008021c191690555f808061156c565b92936020600181928786013581550195019301611554565b906102e292916114e0565b9081549168010000000000000000831015610c4257826115d89160016102e295018155610eb8565b90611453565b6040906113666102e294969593966115fd60608401985f850190610487565b60208301906104ad565b6116266102f89361161f60608401945f850190610487565b6020830152565b6040818303910152601981527f50555243484153455f494e444956494455414c5f534b494c4c00000000000000602082015260400190565b906102e261166b60405190565b9283610c20565b67ffffffffffffffff8111610c4257602090601f01601f19160190565b906116a161169c83611672565b61165e565b918252565b3d156116bf576116b53d61168f565b903d5f602084013e565b606090565b5092939290916116d38261047e565b6116db61131b565b906116eb60ff83165b9160ff1690565b108015611983575b61195d57611700846104a4565b61170e6116e4610afa61132f565b116119375761171c90611339565b8110801561191f575b6119085783611736610a2d5f610ade565b146118f75761174583836132d5565b938434106118df579161181c611892926118127ff38edfb531b7e5ecb36f5810588b0158177a68cbfc19fdf5e73bcc37b095bb8395611782600390565b9961179561178f8c6132ef565b9b613302565b6117fc8b6117d96117bb6102f86117b36117ad61136a565b4261138a565b936004610aeb565b966117d08d896117cb8d826113ab565b6113d3565b600188016113f3565b6117e63360028801611419565b6117f342600388016113f3565b600486016113f3565b6118095f60058601611430565b600684016115a5565b60074291016113f3565b6118338661182e6102f8336005610e9a565b6115b0565b61183c33610e91565b93847fa24add44f839e4a174295a620f3ddbb4677703fc07bf693e61c6e52e920359c761186889610ade565b97889361188161187760405190565b92839288846115de565b0390a3604051918291349083611607565b0390a36118c55f806118af6118aa6118aa6008610b3a565b610e91565b6040515f9134905af16118c06116a6565b501590565b6118cc5790565b63e6c4247b60e01b5f90815260045b035ffd5b63af608abb60e01b5f9081526118db34876004611353565b635e765b2560e11b5f908152600490fd5b639cb3af6760e01b5f908152600491909152602490fd5b5061193061192b611349565b611339565b8111611725565b5f6118db611944866104a4565b63ad2489af60e01b835260ff1660048301526024820190565b5f6118db61196a8561047e565b6327987c8f60e01b835260ff1660048301526024820190565b5061198d8361047e565b61199b6116e4610afa611325565b116116f3565b6102f894939291905f6112de565b6102e2906119bb61322f565b611a1d565b6104b66102f86102f89290565b6102f8906119c0565b6102f86003610ade565b60016102f8910160ff1690565b610afa6102f86102f89260ff1690565b906113bb6102f86113c2926119ed565b6020810192916102e29190610487565b6004611a2c6102f88383610aeb565b9060028201611a3a81610b3a565b611a4c335b916001600160a01b031690565b03611c1e57611a5a90610b3a565b611a69611a3f6104b65f6119cd565b14611c07576005820190611a7c82610b00565b611bf957808301611a8f6102f882610b27565b421015611bd55750611aa033613359565b611ac9611ac45f611ab2336007610e9a565b950194611abe86610b00565b906106dc565b610b00565b611ad16119d6565b90611adc8291611339565b1015611bae57505090611af36001611b5f93611430565b611b118361182e6102f8611b08336006610e9a565b611abe86610b00565b611b42611b2b611b22336007610e9a565b611abe84610b00565b611b3c611b3782610b00565b6119e0565b906119fd565b611ac4611b4e82610b00565b611b5783610b16565b9085336134b2565b907f3c1e2947eccfc26b7af1957d6b147f0437d82aa658e1d63fa59cca763922430f611ba9611b96611b9033610e91565b93610ade565b93611ba060405190565b91829182611a0d565b0390a3565b5f91611bbc6118db9261130e565b63567af16960e01b845260ff1690830190815260200190565b5f91611be36118db92610b27565b6364c0907560e11b845290830190815260200190565b6393f3800760e01b5f908152fd5b639eeb380960e01b5f90815283825290602001035ffd5b632500456d60e01b5f9081528290fd5b6102e2906119af565b6102f861012061165e565b611c4a611c37565b905f8252602080808080808080808a015f8152015f8152015f8152015f8152015f8152015f81520160608152015f905250565b6102f8611c42565b906102fb90610474565b906102fb9061049a565b906102e2611d676007611caa611c37565b94611cbd611cb782610b00565b87611c85565b611cd2611cc982610b16565b60208801611c8f565b611ce8611ce160018301610b27565b6040880152565b611d07611cf760028301610b3a565b6001600160a01b03166060880152565b611d1d611d1660038301610b27565b6080880152565b611d33611d2c60048301610b27565b60a0880152565b611d4b611d4260058301610b00565b151560c0880152565b611d61611d5a60068301610c47565b60e0880152565b01610b27565b610100840152565b6102f890611c99565b611d8f6102f891611d87611c7d565b506004610aeb565b611d6f565b90611dad611da361063a845490565b925f5260205f2090565b905f5b818110611dbd5750505090565b909192611de1611dda600192611dd287610b27565b815260200190565b9460010190565b929101611db0565b906102f891611d94565b906102e2610c6192611e0460405190565b93848092611de9565b6102f890611df3565b6102f891610eec611e3192611e29606090565b506006610e9a565b611e0d565b6102f891906132d5565b906106e6565b6001611d616102f892611e565f90565b505f611e40565b906102e291611e73611e6e82611e46565b613565565b906102e291613570565b906102e291611e5d565b15611e8e57565b60405162461bcd60e51b815260206004820152602f60248201527f416363657373436f6e74726f6c3a2063616e206f6e6c792072656e6f756e636560448201526e103937b632b9903337b91039b2b63360891b606482015280608481015b0390fd5b6102e29190611f11611f01336104b6565b6001600160a01b03841614611e87565b6135de565b67ffffffffffffffff8111610c425760208091020190565b906116a161169c83611f16565b369037565b906102e2611f56611f5084611f2e565b93611f16565b601f190160208401611f3b565b5f5b828110611f7157505050565b606082820152602001611f65565b906102e2611f8f611f5084611f2e565b601f190160208401611f63565b60ff1660ff81146113975760010190565b611fbd6102f86102f89260ff1690565b610474565b611fce9060ff166116e4565b90039060ff821161139757565b90611fe4825190565b811015610ed8576020809102010190565b6120056102f86102f89260ff1690565b61049a565b60106120166010610ade565b9161202083611f40565b61203261202c85611f40565b94611f7f565b92600190816120408161130e565b905b61204f575b505050929190565b6120588261130e565b60ff8216116121d4578261206b82611fad565b6120928161208d61208761192b6120818761130e565b88611fc2565b89611fdb565b611c85565b61209c600761130e565b60ff8416116121bf576120dc6120b15f61130e565b949392945b6120d46120ce61192b6120c88961130e565b87611fc2565b8c611fdb565b9060ff169052565b600561212161211b6120f56120f084610ade565b611f40565b6121016120c88961130e565b906121158d61210f84611339565b90611fdb565b52611339565b8a611fdb565b508461212c5f61130e565b905b612146575b50505061213f90611f9c565b9091612042565b612153829694959661130e565b60ff821610156121b65780611b378b6121aa6121a061218a61218561217a6121ad98611ff5565b6107258b600a6106dc565b610b27565b9261210f61192b61219a8c61130e565b8d611fc2565b5161210f85611339565b52565b8395949361212e565b94939294612133565b6120dc6121cb8361130e565b949392946120b6565b612047565b6121ef5f516020613d945f395f51905f52613565565b6102e26102e2613681565b6102e26121d9565b6102e29061221c5f516020613d945f395f51905f52613565565b612240565b6102fb90610ade565b9081526040810192916102e29160200190612221565b6122495f610ade565b811461230d5761225830610e91565b803182116122f3575061226b6008610b3a565b61227a611a3f6104b65f6119cd565b146118cc576122a55f806122946118aa6118aa6008610b3a565b6040515f9186905af16118c06116a6565b6118cc576122b36008610b3a565b7f3ab9db27a4cdd8c603a752b62d5fbd93b4b3509fe2596708e9688e42bbac3576611ba96122e96122e333610e91565b93610e91565b9361041360405190565b63af608abb60e01b5f908152916118db9131906004611353565b63af608abb60e01b5f908152906118db908290600461222a565b6102e290612202565b67ffffffffffffffff8111610c425760200290565b61169c6102f891612330565b906102e261236761236184612345565b93612330565b83611f3b565b6102f86005612351565b906005811015610ed8576020020190565b61239061236d565b9061239a5f61130e565b6123a4600561130e565b60ff821610156123de5780611b376123c76123c16123d994611ff5565b856132d5565b6121aa6123d384611339565b87612377565b61239a565b505090565b6102f86001610b00565b611fbd6102f86102f89290565b6121856102f8916124085f90565b5061072561241660086123ed565b600a6106dc565b6102e2906124375f516020613d945f395f51905f52613565565b6124436104b65f6119cd565b6001600160a01b038216146118cc5761247361246d6124626008610b3a565b6118aa846008611419565b91610e91565b907f430359a6d97ced2b6f93c77a91e7ce9dfd43252eb91e916adba170485cd8a6a461249e60405190565b8080611ba9565b6102e29061241d565b6102e2906124ba61322f565b6124cc565b60016102f8910360ff1690565b6124da6102f8826004610aeb565b6124e660028201610b3a565b6124ef33611a3f565b036125f4576005810161250861250482610b00565b1590565b6125e3575f61251691611430565b6125406125048361253b6102f85f61252f336006610e9a565b960195611abe87610b00565b6136d1565b6125cd5761257590612559611ac4611b22336007610e9a565b6125656116e45f61130e565b116125a6575b611ac4833361376d565b907f83c082921b7caf1a96d9ce647becd54e4ff5e95f02eb8b2b3d23fb2daecfa468611ba9611b96611b9033610e91565b6125c86125b7611b22336007610e9a565b611b3c6125c382610b00565b6124bf565b61256b565b6372e2506b60e11b5f9081526004839052602490fd5b636379c45760e11b5f908152600490fd5b632500456d60e01b5f908152600490fd5b6102e2906124ae565b6126245f516020613d945f395f51905f52613565565b6102e26102e261380a565b6102e261260e565b6102e29291906126535f516020613d945f395f51905f52613565565b612677565b6102fb90611339565b9081526040810192916102e29160200190612658565b929190926126848161047e565b6126926116e4610afa61131b565b10801561272f575b612722576126a7846104a4565b6126b56116e4610afa61132f565b1161193757612707612701856126fc856126f77fe39dd15db0b108e8191c7305d60bd9fc58ebf4a2a296a1d49252bababa47eed197989961072588600a6106dc565b6113f3565b6104a4565b9161047e565b9261271d61271460405190565b92839283612661565b0390a2565b6118db61196a5f9261047e565b506127398161047e565b6127476116e4610afa611325565b1161269a565b906102e29291612637565b6102f8915f612772611ac49361276b5f90565b5082611e40565b01610e9a565b906102e29161278561322f565b61278e5f6119cd565b6001600160a01b0381166001600160a01b038416146118cc576004906127b76102f88484610aeb565b9160028301916127d9611a3f6127cc85610b3a565b926001600160a01b031690565b146128df576127e782610b3a565b6127f033611a3f565b036128d15761280160058401610b00565b6128c3578083016128146102f882610b27565b421015611bd557506128316125048561253b6102f8336005610e9a565b6128ac575061285d91612845855f93611419565b6128578461182e6102f8886005610e9a565b01610b00565b917f94855b6276c7880af847d362eadca337daa949f718fbfaa881bcea598fb2281a6128a761289d61289761289133610e91565b94610e91565b94610ade565b94611ba060405190565b0390a4565b6372e2506b60e11b5f90815284825290602001035ffd5b63ee0c112d60e01b5f908152fd5b632500456d60e01b5f908152fd5b639eeb380960e01b5f90815284825290602001035ffd5b906102e291612778565b6102e29061291a5f516020613d945f395f51905f52613565565b6129266104b65f6119cd565b6001600160a01b038216146118cc5761295061246d6129456009610b3a565b6118aa846009611419565b907f7042586b23181180eb30b4798702d7a0233b7fc2551e89806770e8e5d9392e6a61249e60405190565b6102e290612900565b611e316102f891612993606090565b506005610e9a565b6102e294939291906129b95f516020613d945f395f51905f52613565565b919493949290926129ca600861130e565b6129d4601061130e565b60ff821611612a4d5780612a43886126f760046107256129f6612a4897611fad565b600a612a0a8c6126f75f61072586866106dc565b612a1d8d6126f7600161072586866106dc565b612a308a6126f7600261072586866106dc565b610eec8b6126f7600361072586866106dc565b611f9c565b6129ca565b50505050509050565b906102e29493929161299b565b6102e290612a6f61322f565b612a8090612a7b613298565b612afb565b6102e26132ca565b634e487b7160e01b5f52601260045260245ffd5b8115612aa6570490565b612a88565b612ac36102f89361161f60608401945f850190610487565b6040818303910152601681527f52454e45575f494e444956494455414c5f534b494c4c00000000000000000000602082015260400190565b600490612b0b6102f88284610aeb565b90612b1860028301610b3a565b612b2133611a3f565b03612c795782820191612b366102f884610b27565b4210612c555791612b6b612b5b612b4c85610b00565b612b5586610b16565b906132d5565b612b656002610ade565b90612a9c565b803410612c3c5750612c0f612c01612bf994612bed94612bba7ff38edfb531b7e5ecb36f5810588b0158177a68cbfc19fdf5e73bcc37b095bb8395612185612bb46117ad61136a565b826113f3565b907f4f265249e3faa5652094d4e493ca94e1c30eb9febc9372aeeb501a52c4ab0013612be533610e91565b978892610ade565b98899361041360405190565b0390a3610b00565b604051918291349083612aab565b0390a3612c275f806118af6118aa6118aa6008610b3a565b612c2e5750565b63e6c4247b60e01b5f908152fd5b63af608abb60e01b5f908152906118db90349087611353565b5f6118db85612c6386610b27565b635935648960e01b845290830190815260200190565b632500456d60e01b5f9081528390fd5b6102e290612a63565b5f1981146113975760010190565b611e31612caf91612993606090565b90612cb95f610ade565b805b612cc66102f8855190565b811015612d1857612cef6102f86004611d61612ce9612ce5868a611fdb565b5190565b82610aeb565b4210612d03575b600101612cbb565b612cbb565b90612d10612cfe91612c92565b919050612cf6565b50612d2290611f40565b91612d2c5f610ade565b92835b612d3a6102f8845190565b811015612d9c57612d596102f86004611d61612ce9612ce58689611fdb565b4210612d6d575b600101612d2f565b612d2f565b93612d94612d6891612d8f612d85612ce58988611fdb565b6121aa8387611fdb565b612c92565b949050612d60565b50925050565b906102e291612db3611e6e82611e46565b906102e2916135de565b906102e291612da2565b612ddd5f516020613d945f395f51905f52613565565b6102e2612de930610e91565b31612df35f610ade565b811461230d5761226b6008610b3a565b6102e2612dc7565b6102f891610eec611ac492612e1d5f90565b506007610e9a565b6102e29493929190612e435f516020613d945f395f51905f52613565565b9192909260019384612e55600161130e565b905b612e65575b50505050505050565b612e6f600761130e565b60ff821611612ee457612ede81612a43896126f76004610725612e928d98611fad565b600a612ea68e6126f75f61072586866106dc565b612eb88b6126f78c61072586866106dc565b612ecb8c6126f7600261072586866106dc565b610eec8d6126f7600361072586866106dc565b90612e57565b612e5c565b906102e294939291612e25565b612f0c5f516020613d945f395f51905f52613565565b6102e26102e26138c6565b6102e2612ef6565b6004612f2e6102f88383610aeb565b90612f3b60028301610b3a565b612f4433611a3f565b036128d157808201612f586102f882610b27565b42106130be575060058201612f6c81610b00565b613020575b50612f876125048461253b6102f8336005610e9a565b6130095750612fdc91612fd091612f9d90610b00565b907f11ff84a00d533cdc33fdd8daf084ef19d5c0586defb48904fe2e0662dfc6de14612fc833610e91565b938492610ade565b948593611ba060405190565b0390a37f50a744fa6f7ccdc3205bb1024e3d645d99213fc48d0315cd42a1710ddd1666e461249e60405190565b6372e2506b60e11b5f90815283825290602001035ffd5b5f61302a91611430565b613035336006610e9a565b61304f6125048561253b6102f85f880195611abe87610b00565b6130a857613064611ac4611b22336007610e9a565b6130706116e45f61130e565b11613087575b50613081833361376d565b5f612f71565b6125b76130a291611abe61309c336007610e9a565b91610b00565b5f613076565b6372e2506b60e11b5f9081528483526020830190fd5b5f91612c636118db92610b27565b5f5b8281106130da57505050565b6020906130e5611c7d565b81840152016130ce565b906102e26130ff611f5084611f2e565b601f1901602084016130cc565b611e3161311b91612993606090565b9061312c613127835190565b6130ef565b6131376120f0845190565b926131415f610ade565b61314c6102f8835190565b8110156131ea576131c390613172611d8f600461316c612ce58588611fdb565b90610aeb565b61317c8286611fdb565b526131878185611fdb565b506131a06102f860a061319a8488611fdb565b51015190565b4210806131c8575b6131bd906131b68389611fdb565b9015159052565b60010190565b613141565b506131bd6131e360c06131db8488611fdb565b510151151590565b90506131a8565b50509190565b156131f757565b60405162461bcd60e51b815260206004820152601060248201526f14185d5cd8589b194e881c185d5cd95960821b6044820152606490fd5b6102e261323d6125046123e3565b6131f0565b6102f86002610ade565b1561325357565b60405162461bcd60e51b815260206004820152601f60248201527f5265656e7472616e637947756172643a207265656e7472616e742063616c6c006044820152606490fd5b6102e26132a56002610b27565b6132b96132b0613242565b9182141561324c565b60026113f3565b6102f86001610ade565b6102e26132b96132c0565b6102f891610725612185926132e75f90565b50600a6106dc565b5f6102f8916132fb5f90565b5001610b27565b6102e2906133205f6133146001610ade565b92019161051783610b27565b906113f3565b905051906102e28261035e565b906020828203126102d1576102f891613326565b6102f8680d8d726b7177a80000610ade565b6133636009610b3a565b613372611a3f6104b65f6119cd565b14613444575f6133bb81926133ca61338a6009610b3a565b9161339460405190565b63857184d160e01b6020820152938491602483016001600160a01b03909116815260200190565b60208201810382520383610c20565b602082519201905afa6133db6116a6565b908061342d575b6133e95750565b8060206133f7613402935190565b818301019101613333565b61340a613347565b808210613415575050565b63109ddee960e21b5f908152916118db916004611353565b50805161343d610a2d6020610ade565b10156133e2565b50565b8181029291811591840414171561139757565b6134676102f86102f89290565b61ffff1690565b6134a86102e29461349e606094989795613497608086019a5f8701906001600160a01b03169052565b6020850152565b60ff166040830152565b019061ffff169052565b909291926134c06009610b3a565b6134cf611a3f6104b65f6119cd565b1461355f57613559936135475f94936133bb6135186135136135046134f48a996104a4565b6134fe6002610ade565b90613447565b61350e6005610ade565b61138a565b61345a565b61352b6135256009610b3a565b9561047e565b604051630c4e865560e21b60208201529687946024860161346e565b82602083519301915af16118c06116a6565b6102e257565b50505050565b6102e2903390613aab565b61357d6125048383612758565b613585575050565b61359e6001613599845f6127728682611e40565b611430565b6135ac61246d6122e3339390565b917f2f8788117e7eff1d82e926ec794901d17c78024a50270940304540a733656f0d6135d760405190565b80806128a7565b6135e88282612758565b6135f0575050565b6136035f61359984826127728682611e40565b61361161246d6122e3339390565b917ff6391f5c32d9c69d2a47ea670b442974b53935d1edc7fd64eb21e047a839171b6135d760405190565b613644613b7b565b6102e26136525f6001611430565b7f5db9ee0a495bf2e6ff9c91a7834c1ba4fdd244a5e8aa4e537bd38aeae4b073aa61367c3361080d565b0390a1565b6102e261363c565b9190820391821161139757565b634e487b7160e01b5f52603160045260245ffd5b805480156136cc575f1901906136c96136c38383610eb8565b9061146c565b55565b613696565b6136da5f610ade565b6136e56102f8835490565b811015613749576136f9610f078284610eb8565b8314613707576001016136da565b9150806137446137186102f8935490565b936115d861373d610f076137376001986137318a610ade565b90613689565b86610eb8565b9184610eb8565b6136aa565b5050505f90565b6001600160a01b0390911681526040810192916102e29160200152565b906137786009610b3a565b613787611a3f6104b65f6119cd565b146137c6575f8091613559936135476137a06009610b3a565b916133bb6137ad60405190565b638925781760e01b602082015294859260248401613750565b5050565b6137d261322f565b6102e26137e0600180611430565b7f62e78cea01bee320cd4e420270b5ea74000d11b0c9f74754ebdbfc544b05a25861367c3361080d565b6102e26137ca565b6102f86802b5e3af16b1880000610ade565b6102f86804563918244f400000610ade565b6102f868056bc75e2d63100000610ade565b6102f8680821ab0d4414980000610ade565b6102f8680bed1d0263d9f00000610ade565b6102f86803860e639d80640000610ade565b6102f86805a34a38fc00a00000610ade565b6102f868070c1cc73b00c80000610ade565b6102f8680a922b2ad8812c0000610ade565b6102f8680f810c1cb501b80000610ade565b600180806138d38161130e565b905b613999575b506138e5600861130e565b905b6138ef575050565b6138f9601061130e565b60ff8216116137c65761399381612a436139138594611fad565b6126f7600461072561392361386c565b93613938600a956126f75f610725858a6106dc565b61395161394361387e565b6126f78b610725858a6106dc565b61396b61395c613890565b6126f76002610725858a6106dc565b6139856139766138a2565b6126f76003610725858a6106dc565b61398d6138b4565b946106dc565b906138e7565b6139a3600761130e565b60ff821611613a105780612a436139bc613a0a93611fad565b6126f760046107256139cc613812565b936139e1600a956126f75f610725858a6106dc565b6139ec613943613824565b6139f761395c613836565b613a02613976613848565b61398d61385a565b816138d5565b6138da565b6102f890610ade565b610517613a3692602092613a30815190565b94859290565b938491016104c2565b613a7d6102f89392613a77613a77937f416363657373436f6e74726f6c3a206163636f756e7420000000000000000000815260170190565b90613a1e565b7001034b99036b4b9b9b4b733903937b6329607d1b815260110190565b60208082526102f8929101906104e3565b90613ab96125048284612758565b613ac1575050565b613b0b6102f8611eec93613af3613ae3613add613b1796613bab565b92613a15565b613aed6020610ade565b90613c75565b90613afd60405190565b938492602084019283613a3f565b90810382520382610c20565b60405162461bcd60e51b815291829160048301613a9a565b15613b3657565b60405162461bcd60e51b815260206004820152601460248201527f5061757361626c653a206e6f74207061757365640000000000000000000000006044820152606490fd5b6102e2613b866123e3565b613b2f565b6102f86102f86102f8926001600160a01b031690565b6102f8601461130e565b613bc8613bc36102f892613bbd606090565b50610e88565b613b8b565b613aed61192b613ba1565b906102e2611f56613be38461168f565b93611672565b90613bf2825190565b811015610ed8570160200190565b8015611397575f190190565b6102f890613c20610a2d6102f89460ff1690565b901c90565b15613c2c57565b60405162461bcd60e51b815280611eec600482016020808252818101527f537472696e67733a20686578206c656e67746820696e73756666696369656e74604082015260600190565b613ca3613c9e613c8e84613c896002610ade565b613447565b613c986002610ade565b9061138a565b613bd3565b916030613cb8613cb25f610ade565b85613be9565b53600f60fb1b613cf1613ce860019384935f1a613cdd613cd786610ade565b89613be9565b53613c896002610ade565b613c9883610ade565b915b613d14575b5050906102f86102f892613d0e610a2d5f610ade565b14613c25565b9091613d1f82610ade565b831115613d8d576f181899199a1a9b1b9c1cb0b131b232b360811b613d44600f610ade565b8216906010821015610ed8578392613d64613d8192613d87941a60f81b90565b5f1a613d708789613be9565b53613d7b600461130e565b90613c0c565b93613c00565b91613cf3565b91613cf856fea49807205ce4d355092ef5a8a18f56e8913cf4a201fbe287825b095693c21775a2646970667358221220a1d946f2d4167e1567993a6c281bc7f068df15fb906c55cea99aa5fb9a263b5c64736f6c634300081c0033",
  "linkReferences": {},
  "deployedLinkReferences": {}
}