{
  "_format": "hh-sol-artifact-1",
  "contractName": "LevelingSystem",
  "sourceName": "contracts/Marketplace/LevelingSystem.sol",
  "abi": [
    {
      "inputs": [],
      "stateMutability": "nonpayable",
      "type": "constructor"
    },
    {
      "anonymous": false,
      "inputs": [
        {
          "indexed": false,
          "internalType": "address",
          "name": "previousAdmin",
          "type": "address"
        },
        {
          "indexed": false,
          "internalType": "address",
          "name": "newAdmin",
          "type": "address"
        }
      ],
      "name": "AdminChanged",
      "type": "event"
    },
    {
      "anonymous": false,
      "inputs": [
        {
          "indexed": true,
          "internalType": "address",
          "name": "user",
          "type": "address"
        },
        {
          "indexed": false,
          "internalType": "uint256",
          "name": "badgeId",
          "type": "uint256"
        },
        {
          "indexed": false,
          "internalType": "string",
          "name": "name",
          "type": "string"
        }
      ],
      "name": "BadgeEarned",
      "type": "event"
    },
    {
      "anonymous": false,
      "inputs": [
        {
          "indexed": true,
          "internalType": "address",
          "name": "beacon",
          "type": "address"
        }
      ],
      "name": "BeaconUpgraded",
      "type": "event"
    },
    {
      "anonymous": false,
      "inputs": [
        {
          "indexed": false,
          "internalType": "uint8",
          "name": "version",
          "type": "uint8"
        }
      ],
      "name": "Initialized",
      "type": "event"
    },
    {
      "anonymous": false,
      "inputs": [
        {
          "indexed": true,
          "internalType": "address",
          "name": "user",
          "type": "address"
        },
        {
          "indexed": false,
          "internalType": "uint8",
          "name": "newLevel",
          "type": "uint8"
        }
      ],
      "name": "LevelUp",
      "type": "event"
    },
    {
      "anonymous": false,
      "inputs": [
        {
          "indexed": true,
          "internalType": "address",
          "name": "buyer",
          "type": "address"
        }
      ],
      "name": "NFTBought",
      "type": "event"
    },
    {
      "anonymous": false,
      "inputs": [
        {
          "indexed": true,
          "internalType": "address",
          "name": "creator",
          "type": "address"
        }
      ],
      "name": "NFTCreated",
      "type": "event"
    },
    {
      "anonymous": false,
      "inputs": [
        {
          "indexed": true,
          "internalType": "address",
          "name": "owner",
          "type": "address"
        }
      ],
      "name": "NFTOwned",
      "type": "event"
    },
    {
      "anonymous": false,
      "inputs": [
        {
          "indexed": true,
          "internalType": "address",
          "name": "seller",
          "type": "address"
        }
      ],
      "name": "NFTSold",
      "type": "event"
    },
    {
      "anonymous": false,
      "inputs": [
        {
          "indexed": true,
          "internalType": "address",
          "name": "user",
          "type": "address"
        },
        {
          "indexed": false,
          "internalType": "uint256",
          "name": "amount",
          "type": "uint256"
        }
      ],
      "name": "RewardPaid",
      "type": "event"
    },
    {
      "anonymous": false,
      "inputs": [
        {
          "indexed": true,
          "internalType": "bytes32",
          "name": "role",
          "type": "bytes32"
        },
        {
          "indexed": true,
          "internalType": "bytes32",
          "name": "previousAdminRole",
          "type": "bytes32"
        },
        {
          "indexed": true,
          "internalType": "bytes32",
          "name": "newAdminRole",
          "type": "bytes32"
        }
      ],
      "name": "RoleAdminChanged",
      "type": "event"
    },
    {
      "anonymous": false,
      "inputs": [
        {
          "indexed": true,
          "internalType": "bytes32",
          "name": "role",
          "type": "bytes32"
        },
        {
          "indexed": true,
          "internalType": "address",
          "name": "account",
          "type": "address"
        },
        {
          "indexed": true,
          "internalType": "address",
          "name": "sender",
          "type": "address"
        }
      ],
      "name": "RoleGranted",
      "type": "event"
    },
    {
      "anonymous": false,
      "inputs": [
        {
          "indexed": true,
          "internalType": "bytes32",
          "name": "role",
          "type": "bytes32"
        },
        {
          "indexed": true,
          "internalType": "address",
          "name": "account",
          "type": "address"
        },
        {
          "indexed": true,
          "internalType": "address",
          "name": "sender",
          "type": "address"
        }
      ],
      "name": "RoleRevoked",
      "type": "event"
    },
    {
      "anonymous": false,
      "inputs": [
        {
          "indexed": true,
          "internalType": "address",
          "name": "implementation",
          "type": "address"
        }
      ],
      "name": "Upgraded",
      "type": "event"
    },
    {
      "anonymous": false,
      "inputs": [
        {
          "indexed": true,
          "internalType": "address",
          "name": "user",
          "type": "address"
        },
        {
          "indexed": false,
          "internalType": "uint256",
          "name": "amount",
          "type": "uint256"
        },
        {
          "indexed": false,
          "internalType": "string",
          "name": "reason",
          "type": "string"
        }
      ],
      "name": "XPGained",
      "type": "event"
    },
    {
      "inputs": [],
      "name": "ADMIN_ROLE",
      "outputs": [
        {
          "internalType": "bytes32",
          "name": "",
          "type": "bytes32"
        }
      ],
      "stateMutability": "view",
      "type": "function"
    },
    {
      "inputs": [],
      "name": "DEFAULT_ADMIN_ROLE",
      "outputs": [
        {
          "internalType": "bytes32",
          "name": "",
          "type": "bytes32"
        }
      ],
      "stateMutability": "view",
      "type": "function"
    },
    {
      "inputs": [],
      "name": "LEVEL_UP_REWARD",
      "outputs": [
        {
          "internalType": "uint256",
          "name": "",
          "type": "uint256"
        }
      ],
      "stateMutability": "view",
      "type": "function"
    },
    {
      "inputs": [],
      "name": "MARKETPLACE_ROLE",
      "outputs": [
        {
          "internalType": "bytes32",
          "name": "",
          "type": "bytes32"
        }
      ],
      "stateMutability": "view",
      "type": "function"
    },
    {
      "inputs": [],
      "name": "UPGRADER_ROLE",
      "outputs": [
        {
          "internalType": "bytes32",
          "name": "",
          "type": "bytes32"
        }
      ],
      "stateMutability": "view",
      "type": "function"
    },
    {
      "inputs": [
        {
          "internalType": "address",
          "name": "user",
          "type": "address"
        },
        {
          "internalType": "uint256",
          "name": "amount",
          "type": "uint256"
        }
      ],
      "name": "addXP",
      "outputs": [],
      "stateMutability": "nonpayable",
      "type": "function"
    },
    {
      "inputs": [
        {
          "internalType": "address",
          "name": "user",
          "type": "address"
        },
        {
          "internalType": "uint256",
          "name": "id",
          "type": "uint256"
        },
        {
          "internalType": "string",
          "name": "name",
          "type": "string"
        },
        {
          "internalType": "string",
          "name": "description",
          "type": "string"
        }
      ],
      "name": "awardBadge",
      "outputs": [],
      "stateMutability": "nonpayable",
      "type": "function"
    },
    {
      "inputs": [
        {
          "internalType": "address",
          "name": "",
          "type": "address"
        }
      ],
      "name": "dailyXPGained",
      "outputs": [
        {
          "internalType": "uint256",
          "name": "",
          "type": "uint256"
        }
      ],
      "stateMutability": "view",
      "type": "function"
    },
    {
      "inputs": [],
      "name": "getBadgeStats",
      "outputs": [
        {
          "internalType": "uint256",
          "name": "totalBadgesAwarded",
          "type": "uint256"
        },
        {
          "internalType": "uint256",
          "name": "uniqueBadgeTypes",
          "type": "uint256"
        },
        {
          "internalType": "uint256[]",
          "name": "badgeIds",
          "type": "uint256[]"
        },
        {
          "internalType": "uint256[]",
          "name": "awardCounts",
          "type": "uint256[]"
        }
      ],
      "stateMutability": "pure",
      "type": "function"
    },
    {
      "inputs": [],
      "name": "getLevelDistribution",
      "outputs": [
        {
          "internalType": "uint8[]",
          "name": "levels",
          "type": "uint8[]"
        },
        {
          "internalType": "uint256[]",
          "name": "userCounts",
          "type": "uint256[]"
        }
      ],
      "stateMutability": "pure",
      "type": "function"
    },
    {
      "inputs": [
        {
          "internalType": "uint256",
          "name": "_totalXP",
          "type": "uint256"
        }
      ],
      "name": "getLevelFromXP",
      "outputs": [
        {
          "internalType": "uint8",
          "name": "",
          "type": "uint8"
        }
      ],
      "stateMutability": "pure",
      "type": "function"
    },
    {
      "inputs": [],
      "name": "getLevelingStats",
      "outputs": [
        {
          "internalType": "uint256",
          "name": "totalUsers",
          "type": "uint256"
        },
        {
          "internalType": "uint256",
          "name": "totalXPAwarded",
          "type": "uint256"
        },
        {
          "internalType": "uint8",
          "name": "averageLevel",
          "type": "uint8"
        },
        {
          "internalType": "uint8",
          "name": "highestLevel",
          "type": "uint8"
        },
        {
          "internalType": "uint256",
          "name": "maxLevelUsers",
          "type": "uint256"
        }
      ],
      "stateMutability": "pure",
      "type": "function"
    },
    {
      "inputs": [
        {
          "internalType": "bytes32",
          "name": "role",
          "type": "bytes32"
        }
      ],
      "name": "getRoleAdmin",
      "outputs": [
        {
          "internalType": "bytes32",
          "name": "",
          "type": "bytes32"
        }
      ],
      "stateMutability": "view",
      "type": "function"
    },
    {
      "inputs": [
        {
          "internalType": "address",
          "name": "user",
          "type": "address"
        }
      ],
      "name": "getUserBadges",
      "outputs": [
        {
          "components": [
            {
              "internalType": "uint256",
              "name": "id",
              "type": "uint256"
            },
            {
              "internalType": "string",
              "name": "name",
              "type": "string"
            },
            {
              "internalType": "string",
              "name": "description",
              "type": "string"
            },
            {
              "internalType": "uint256",
              "name": "dateEarned",
              "type": "uint256"
            }
          ],
          "internalType": "struct LevelingSystem.Badge[]",
          "name": "",
          "type": "tuple[]"
        }
      ],
      "stateMutability": "view",
      "type": "function"
    },
    {
      "inputs": [
        {
          "internalType": "address",
          "name": "_user",
          "type": "address"
        }
      ],
      "name": "getUserLevelProgress",
      "outputs": [
        {
          "internalType": "uint8",
          "name": "currentLevel",
          "type": "uint8"
        },
        {
          "internalType": "uint256",
          "name": "currentLevelXP",
          "type": "uint256"
        },
        {
          "internalType": "uint256",
          "name": "xpInCurrentLevel",
          "type": "uint256"
        },
        {
          "internalType": "uint256",
          "name": "xpNeededForNext",
          "type": "uint256"
        },
        {
          "internalType": "uint256",
          "name": "progressPercentage",
          "type": "uint256"
        }
      ],
      "stateMutability": "view",
      "type": "function"
    },
    {
      "inputs": [
        {
          "internalType": "address",
          "name": "user",
          "type": "address"
        }
      ],
      "name": "getUserProfile",
      "outputs": [
        {
          "components": [
            {
              "internalType": "uint256",
              "name": "totalXP",
              "type": "uint256"
            },
            {
              "internalType": "uint8",
              "name": "level",
              "type": "uint8"
            },
            {
              "internalType": "uint256",
              "name": "nftsCreated",
              "type": "uint256"
            },
            {
              "internalType": "uint256",
              "name": "nftsOwned",
              "type": "uint256"
            },
            {
              "internalType": "uint32",
              "name": "nftsSold",
              "type": "uint32"
            },
            {
              "internalType": "uint32",
              "name": "nftsBought",
              "type": "uint32"
            }
          ],
          "internalType": "struct LevelingSystem.UserProfile",
          "name": "",
          "type": "tuple"
        }
      ],
      "stateMutability": "view",
      "type": "function"
    },
    {
      "inputs": [
        {
          "internalType": "address",
          "name": "user",
          "type": "address"
        }
      ],
      "name": "getUserProfileDetailed",
      "outputs": [
        {
          "internalType": "uint256",
          "name": "totalXP",
          "type": "uint256"
        },
        {
          "internalType": "uint8",
          "name": "level",
          "type": "uint8"
        },
        {
          "internalType": "uint256",
          "name": "nftsCreated",
          "type": "uint256"
        },
        {
          "internalType": "uint256",
          "name": "nftsOwned",
          "type": "uint256"
        },
        {
          "internalType": "uint32",
          "name": "nftsSold",
          "type": "uint32"
        },
        {
          "internalType": "uint32",
          "name": "nftsBought",
          "type": "uint32"
        },
        {
          "internalType": "uint256",
          "name": "xpForCurrentLevel",
          "type": "uint256"
        },
        {
          "internalType": "uint256",
          "name": "xpForNextLevel",
          "type": "uint256"
        }
      ],
      "stateMutability": "view",
      "type": "function"
    },
    {
      "inputs": [
        {
          "internalType": "address",
          "name": "",
          "type": "address"
        }
      ],
      "name": "getUserRanking",
      "outputs": [
        {
          "internalType": "uint256",
          "name": "rank",
          "type": "uint256"
        },
        {
          "internalType": "uint256",
          "name": "totalUsers",
          "type": "uint256"
        },
        {
          "internalType": "uint256",
          "name": "percentile",
          "type": "uint256"
        }
      ],
      "stateMutability": "pure",
      "type": "function"
    },
    {
      "inputs": [
        {
          "internalType": "uint256",
          "name": "_limit",
          "type": "uint256"
        }
      ],
      "name": "getXPLeaderboard",
      "outputs": [
        {
          "internalType": "address[]",
          "name": "users",
          "type": "address[]"
        },
        {
          "internalType": "uint256[]",
          "name": "xpAmounts",
          "type": "uint256[]"
        },
        {
          "internalType": "uint8[]",
          "name": "levels",
          "type": "uint8[]"
        }
      ],
      "stateMutability": "pure",
      "type": "function"
    },
    {
      "inputs": [
        {
          "internalType": "uint8",
          "name": "_level",
          "type": "uint8"
        }
      ],
      "name": "getXPRequiredForLevel",
      "outputs": [
        {
          "internalType": "uint256",
          "name": "",
          "type": "uint256"
        }
      ],
      "stateMutability": "pure",
      "type": "function"
    },
    {
      "inputs": [
        {
          "internalType": "bytes32",
          "name": "role",
          "type": "bytes32"
        },
        {
          "internalType": "address",
          "name": "account",
          "type": "address"
        }
      ],
      "name": "grantRole",
      "outputs": [],
      "stateMutability": "nonpayable",
      "type": "function"
    },
    {
      "inputs": [
        {
          "internalType": "bytes32",
          "name": "role",
          "type": "bytes32"
        },
        {
          "internalType": "address",
          "name": "account",
          "type": "address"
        }
      ],
      "name": "hasRole",
      "outputs": [
        {
          "internalType": "bool",
          "name": "",
          "type": "bool"
        }
      ],
      "stateMutability": "view",
      "type": "function"
    },
    {
      "inputs": [
        {
          "internalType": "address",
          "name": "user",
          "type": "address"
        }
      ],
      "name": "incrementNftsOwned",
      "outputs": [],
      "stateMutability": "nonpayable",
      "type": "function"
    },
    {
      "inputs": [
        {
          "internalType": "address",
          "name": "platformAdmin",
          "type": "address"
        }
      ],
      "name": "initialize",
      "outputs": [],
      "stateMutability": "nonpayable",
      "type": "function"
    },
    {
      "inputs": [
        {
          "internalType": "address",
          "name": "",
          "type": "address"
        }
      ],
      "name": "lastXPDay",
      "outputs": [
        {
          "internalType": "uint256",
          "name": "",
          "type": "uint256"
        }
      ],
      "stateMutability": "view",
      "type": "function"
    },
    {
      "inputs": [],
      "name": "proxiableUUID",
      "outputs": [
        {
          "internalType": "bytes32",
          "name": "",
          "type": "bytes32"
        }
      ],
      "stateMutability": "view",
      "type": "function"
    },
    {
      "inputs": [
        {
          "internalType": "address",
          "name": "buyer",
          "type": "address"
        }
      ],
      "name": "recordNFTBought",
      "outputs": [],
      "stateMutability": "nonpayable",
      "type": "function"
    },
    {
      "inputs": [
        {
          "internalType": "address",
          "name": "creator",
          "type": "address"
        }
      ],
      "name": "recordNFTCreated",
      "outputs": [],
      "stateMutability": "nonpayable",
      "type": "function"
    },
    {
      "inputs": [
        {
          "internalType": "address",
          "name": "owner",
          "type": "address"
        }
      ],
      "name": "recordNFTOwned",
      "outputs": [],
      "stateMutability": "nonpayable",
      "type": "function"
    },
    {
      "inputs": [
        {
          "internalType": "address",
          "name": "seller",
          "type": "address"
        }
      ],
      "name": "recordNFTSold",
      "outputs": [],
      "stateMutability": "nonpayable",
      "type": "function"
    },
    {
      "inputs": [
        {
          "internalType": "bytes32",
          "name": "role",
          "type": "bytes32"
        },
        {
          "internalType": "address",
          "name": "account",
          "type": "address"
        }
      ],
      "name": "renounceRole",
      "outputs": [],
      "stateMutability": "nonpayable",
      "type": "function"
    },
    {
      "inputs": [
        {
          "internalType": "bytes32",
          "name": "role",
          "type": "bytes32"
        },
        {
          "internalType": "address",
          "name": "account",
          "type": "address"
        }
      ],
      "name": "revokeRole",
      "outputs": [],
      "stateMutability": "nonpayable",
      "type": "function"
    },
    {
      "inputs": [
        {
          "internalType": "bytes4",
          "name": "interfaceId",
          "type": "bytes4"
        }
      ],
      "name": "supportsInterface",
      "outputs": [
        {
          "internalType": "bool",
          "name": "",
          "type": "bool"
        }
      ],
      "stateMutability": "view",
      "type": "function"
    },
    {
      "inputs": [
        {
          "internalType": "address",
          "name": "user",
          "type": "address"
        },
        {
          "internalType": "uint256",
          "name": "xpAmount",
          "type": "uint256"
        },
        {
          "internalType": "string",
          "name": "reason",
          "type": "string"
        }
      ],
      "name": "updateUserXP",
      "outputs": [],
      "stateMutability": "nonpayable",
      "type": "function"
    },
    {
      "inputs": [
        {
          "internalType": "address",
          "name": "newImplementation",
          "type": "address"
        }
      ],
      "name": "upgradeTo",
      "outputs": [],
      "stateMutability": "nonpayable",
      "type": "function"
    },
    {
      "inputs": [
        {
          "internalType": "address",
          "name": "newImplementation",
          "type": "address"
        },
        {
          "internalType": "bytes",
          "name": "data",
          "type": "bytes"
        }
      ],
      "name": "upgradeToAndCall",
      "outputs": [],
      "stateMutability": "payable",
      "type": "function"
    },
    {
      "inputs": [
        {
          "internalType": "address",
          "name": "",
          "type": "address"
        },
        {
          "internalType": "uint256",
          "name": "",
          "type": "uint256"
        }
      ],
      "name": "userBadges",
      "outputs": [
        {
          "internalType": "uint256",
          "name": "id",
          "type": "uint256"
        },
        {
          "internalType": "string",
          "name": "name",
          "type": "string"
        },
        {
          "internalType": "string",
          "name": "description",
          "type": "string"
        },
        {
          "internalType": "uint256",
          "name": "dateEarned",
          "type": "uint256"
        }
      ],
      "stateMutability": "view",
      "type": "function"
    },
    {
      "inputs": [
        {
          "internalType": "address",
          "name": "",
          "type": "address"
        }
      ],
      "name": "userProfiles",
      "outputs": [
        {
          "internalType": "uint256",
          "name": "totalXP",
          "type": "uint256"
        },
        {
          "internalType": "uint8",
          "name": "level",
          "type": "uint8"
        },
        {
          "internalType": "uint256",
          "name": "nftsCreated",
          "type": "uint256"
        },
        {
          "internalType": "uint256",
          "name": "nftsOwned",
          "type": "uint256"
        },
        {
          "internalType": "uint32",
          "name": "nftsSold",
          "type": "uint32"
        },
        {
          "internalType": "uint32",
          "name": "nftsBought",
          "type": "uint32"
        }
      ],
      "stateMutability": "view",
      "type": "function"
    },
    {
      "stateMutability": "payable",
      "type": "receive"
    }
  ],
  "bytecode": "0x60a06040523461003257610011610036565b6040516134bb6101c582396080518181816113960152611c2a01526134bb90f35b5f80fd5b61003e61007d565b610046610155565b565b61005c9061005f906001600160a01b031682565b90565b6001600160a01b031690565b61005c90610048565b61005c9061006b565b61008630610074565b608052565b61005c9060081c5b60ff1690565b61005c905461008b565b60208082526027908201527f496e697469616c697a61626c653a20636f6e747261637420697320696e697469604082015266616c697a696e6760c81b606082015260800190565b156100f157565b60405162461bcd60e51b81528061010a600482016100a3565b0390fd5b61005c90610093565b61005c905461010e565b61009361005c61005c9260ff1690565b9061014161005c61015192610121565b825460ff191660ff919091161790565b9055565b61016e6101696101656001610099565b1590565b6100ea565b6101786001610117565b60ff9081160361018457565b61019060ff6001610131565b7f7f26b83ff96e1f2b6a682f133852f6798a09c465da95921460cefb38474024986101ba60405190565b60ff8152602090a156fe6080604052600436101561001a575b3615610018575f80fd5b005b5f3560e01c806301ffc9a71461027957806320de46ca14610274578063248a9ca31461026f5780632f2ff15d1461026a578063332d56d71461026557806336568abe146102605780633659cfe61461025b57806337c245fe146102565780633d4358cd146102515780633d6931e81461024c5780633e3721a214610247578063456fab38146102425780634f1ef2861461023d5780634f41e1bd146102385780634fbf87931461023357806352d1902d1461022e57806375b238fc146102295780638068b830146102245780638efa571f1461021f57806391d148541461021a578063987ee156146102155780639ae7ad5e14610210578063a217fddf1461020b578063a40ade0a14610206578063c3439f3f14610201578063c4d66de8146101fc578063ccef8318146101f7578063d0654f35146101f2578063d1668261146101ed578063d2555cc5146101e8578063d547741f146101e3578063d9c68690146101de578063dc8a7851146101d9578063df91cc23146101d4578063e81b4534146101cf578063f0b7729f146101ca578063f72c0d8b146101c55763fdcbaf970361000e5761112f565b6110f6565b6110de565b6110b4565b611002565b610e1d565b610e05565b610dec565b610dbe565b610d28565b610cd8565b610c7e565b610c66565b610c40565b610c27565b610be9565b610ba7565b610af4565b610a72565b610a5a565b610a29565b6109b3565b610998565b610980565b610965565b610927565b6108d6565b610889565b61073b565b6106ff565b6106c9565b610590565b610577565b610543565b610425565b6103e7565b610394565b6102bf565b6001600160e01b031981165b0361029157565b5f80fd5b905035906102a28261027e565b565b90602082820312610291576102b891610295565b90565b9052565b34610291576102ec6102da6102d53660046102a4565b6111a9565b60405191829182901515815260200190565b0390f35b6001600160a01b031690565b6001600160a01b03811661028a565b905035906102a2826102fc565b90602082820312610291576102b89161030b565b6102f06102b86102b8926001600160a01b031690565b6102b89061032c565b6102b890610342565b9061035e9061034b565b5f5260205260405f2090565b6102b8916008021c81565b906102b8915461036a565b5f61038f6102b8926003610354565b610375565b34610291576102ec6103af6103aa366004610318565b610380565b6040515b9182918290815260200190565b8061028a565b905035906102a2826103c0565b90602082820312610291576102b8916103c6565b34610291576102ec6103af6103fd3660046103d3565b6111e9565b9190604083820312610291576102b890602061041e82866103c6565b940161030b565b346102915761043e610438366004610402565b90611226565b604051005b6102b89081565b6102b89054610443565b6102b8905b60ff1690565b6102b89054610454565b6102b8905b63ffffffff1690565b6102b89054610469565b6102b89060201c61046e565b6102b89054610481565b6104a2906002610354565b906104ac8261044a565b916104b96001820161045f565b916104c66002830161044a565b916104d36003820161044a565b916102b860046104e4818501610477565b930161048d565b919461052a6105379298979561052360a09661051c6102a29a61051260c08a019e5f8b0152565b60ff166020890152565b6040870152565b6060850152565b63ffffffff166080830152565b019063ffffffff169052565b34610291576102ec61055e610559366004610318565b610497565b9261056e96949692919260405190565b968796876104eb565b346102915761043e61058a366004610402565b90611299565b346102915761043e6105a3366004610318565b611462565b5f5b8381106105b95750505f910152565b81810151838201526020016105aa565b6105ea6105f36020936105fd936105de815190565b80835293849260200190565b958691016105a8565b601f01601f191690565b0190565b80518252906102b89060608061063b61062960808501602088015186820360208801526105c9565b604087015185820360408701526105c9565b940151910152565b906102b891610601565b90610663610659835190565b8083529160200190565b90816106756020830284019460200190565b925f915b83831061068857505050505090565b909192939460206106ab6106a483856001950387528951610643565b9760200190565b9301930191939290610679565b60208082526102b89291019061064d565b34610291576102ec6106e46106df366004610318565b611553565b604051918291826106b8565b5f61038f6102b8926004610354565b34610291576102ec6103af610715366004610318565b6106f0565b9081526060810193926102a2929091604091610737906020830152565b0152565b34610291576102ec610756610751366004610318565b61156f565b6040519193919384938461071a565b634e487b7160e01b5f52604160045260245ffd5b90601f01601f1916810190811067ffffffffffffffff82111761079b57604052565b610765565b906102a26107ad60405190565b9283610779565b67ffffffffffffffff811161079b57602090601f01601f19160190565b90825f939282370152565b909291926107f16107ec826107b4565b6107a0565b9381855281830111610291576102a29160208501906107d1565b9080601f83011215610291578160206102b8933591016107dc565b906080828203126102915761083b818361030b565b9261084982602085016103c6565b92604081013567ffffffffffffffff8111610291578361086a91830161080b565b92606082013567ffffffffffffffff8111610291576102b8920161080b565b346102915761043e61089c366004610826565b9291909161189e565b5f91031261029157565b6102b86102b86102b89290565b6102b86801158e460913d000006108af565b6102b86108bc565b34610291576108e63660046108a5565b6102ec6103af6108ce565b91909160408184031261029157610908838261030b565b92602082013567ffffffffffffffff8111610291576102b8920161080b565b61043e6109353660046108f1565b906118d0565b60ff811661028a565b905035906102a28261093b565b90602082820312610291576102b891610944565b34610291576102ec6103af61097b366004610951565b61192d565b346102915761043e610993366004610318565b611b92565b34610291576109a83660046108a5565b6102ec6103af611c8c565b34610291576109c33660046108a5565b6102ec7fa49807205ce4d355092ef5a8a18f56e8913cf4a201fbe287825b095693c217756103af565b909594926102a294610a2261073792610a1b608096610a1460a088019c5f89019060ff169052565b6020870152565b6040850152565b6060830152565b34610291576102ec610a44610a3f366004610318565b611db2565b91610a5195939560405190565b958695866109ec565b346102915761043e610a6d366004610318565b611fec565b34610291576102ec6102da610a88366004610402565b90611ff5565b805182526102a2919060a090819060208181015160ff1690850152610ab860408201516040860152565b610ac760608201516060860152565b60808181015163ffffffff1690850152015163ffffffff16910152565b60c0810192916102a29190610a8e565b34610291576102ec610b0f610b0a366004610318565b61204d565b60405191829182610ae4565b90610b3b610b34610b2a845190565b8084529260200190565b9260200190565b905f5b818110610b4b5750505090565b909192610b68610b616001928651815260200190565b9460200190565b929101610b3e565b9290610b9991610b8c6102b89694610a1460808801945f890152565b8482036040860152610b1b565b916060818403910152610b1b565b3461029157610bb73660046108a5565b6102ec610bc2612072565b90610bcf94929460405190565b94859485610b70565b6102b85f6108af565b6102b8610bd8565b3461029157610bf93660046108a5565b6102ec6103af610be1565b9190604083820312610291576102b8906020610c20828661030b565b94016103c6565b346102915761043e610c3a366004610c04565b90612196565b3461029157610c503660046108a5565b6102ec5f5160206134665f395f51905f526103af565b346102915761043e610c79366004610318565b612453565b346102915761043e610c91366004610318565b61257a565b9160608383031261029157610cab828461030b565b92610cb983602083016103c6565b92604082013567ffffffffffffffff8111610291576102b8920161080b565b346102915761043e610ceb366004610c96565b916125aa565b909594926102a294610d1e61073792610d14608096610a1460a088019c5f890152565b60ff166040850152565b60ff166060830152565b3461029157610d383660046108a5565b6102ec610d436125b5565b91610d5095939560405190565b95869586610cf1565b90610d68610b34610b2a845190565b905f5b818110610d785750505090565b909192610d91610b61600192865160ff16815260200190565b929101610d6b565b60408082526102b8939192610db091840190610d59565b916020818403910152610b1b565b3461029157610dce3660046108a5565b610dd66125fa565b906102ec610de360405190565b92839283610d99565b346102915761043e610dff366004610402565b906126c2565b346102915761043e610e18366004610318565b612785565b34610291576102ec610e38610e333660046103d3565b61279f565b6040519182918260ff909116815260200190565b634e487b7160e01b5f52603260045260245ffd5b8054821015610e8057610e786004915f5260205f2090565b910201905f90565b610e4c565b634e487b7160e01b5f52602260045260245ffd5b9060016002830492168015610eb9575b6020831014610eb457565b610e85565b91607f1691610ea9565b80545f939291610edf610ed583610e99565b8085529360200190565b9160018116908115610f2e5750600114610ef857505050565b610f0991929394505f5260205f2090565b915f925b818410610f1a5750500190565b805484840152602090930192600101610f0d565b92949550505060ff1916825215156020020190565b906102b891610ec3565b906102a2610f6792610f5e60405190565b93848092610f43565b0383610779565b610f79906005610354565b90610f82825490565b81101561029157610f9291610e60565b5090610f9d8261044a565b91610faa60018201610f4d565b916102b86003610fbc60028501610f4d565b930161044a565b9493916102a293610fef606093610ffd93610fe260808b01925f8c0152565b89820360208b01526105c9565b9087820360408901526105c9565b940152565b34610291576102ec61101e611018366004610c04565b90610f6e565b9061102b94929460405190565b94859485610fc3565b90611043610b34610b2a845190565b905f5b8181106110535750505090565b909192611072610b6160019286516001600160a01b0316815260200190565b929101611046565b916110a6906110986102b8959360608601908682035f880152611034565b908482036020860152610b1b565b916040818403910152610d59565b34610291576102ec6110cf6110ca3660046103d3565b612829565b6040519193919384938461107a565b346102915761043e6110f1366004610318565b612887565b34610291576111063660046108a5565b6102ec7f189ab7a9244df0848122154315af71fe140f3db0fe014031783b0946b8c9d2e36103af565b34610291576102ec61114a611145366004610318565b612890565b9461115d98969894919493929360405190565b9889988990815261010081019897969095909490939092909160ff1660208701526040860152606085015263ffffffff16608084015263ffffffff1660a083015260c082015260e00152565b637965db0b60e01b6001600160e01b03198216149081156111c8575090565b6102b891506001600160e01b0319166301ffc9a760e01b1490565b9061035e565b60016112006102b8926111f95f90565b505f6111e3565b0161044a565b906102a29161121c611217826111e9565b6129c8565b906102a2916129e3565b906102a291611206565b1561123757565b60405162461bcd60e51b815260206004820152602f60248201527f416363657373436f6e74726f6c3a2063616e206f6e6c792072656e6f756e636560448201526e103937b632b9903337b91039b2b63360891b606482015280608481015b0390fd5b6102a291906112ba6112aa336102f0565b6001600160a01b03841614611230565b612a5b565b156112c657565b60405162461bcd60e51b815260206004820152602c60248201527f46756e6374696f6e206d7573742062652063616c6c6564207468726f7567682060448201526b19195b1959d85d1958d85b1b60a21b6064820152608490fd5b1561132757565b60405162461bcd60e51b815260206004820152602c60248201527f46756e6374696f6e206d7573742062652063616c6c6564207468726f7567682060448201526b6163746976652070726f787960a01b6064820152608490fd5b6102a2906113fe6113913061034b565b6113dd7f0000000000000000000000000000000000000000000000000000000000000000916113d66113c9846001600160a01b031690565b916001600160a01b031690565b14156112bf565b6113f86113c96113eb612acc565b926001600160a01b031690565b14611320565b61143d565b906114106107ec836107b4565b918252565b369037565b906102a261143061142a84611403565b936107b4565b601f190160208401611415565b5f6102a29161144b81612b0b565b61145c611457836108af565b61141a565b90612bbc565b6102a290611381565b67ffffffffffffffff811161079b5760208091020190565b906114106107ec8361146b565b6102b860806107a0565b906102a26114e860036114ab611490565b946114bc6114b88261044a565b8752565b6114d26114cb60018301610f4d565b6020880152565b6112006114e160028301610f4d565b6040880152565b6060840152565b6102b89061149a565b90611501825490565b61150a81611483565b9261151c60208501915f5260205f2090565b5f915b83831061152c5750505050565b6004602060019261153c856114ef565b81520192019201919061151f565b6102b8906114f8565b61156a6102b891611562606090565b506005610354565b61154a565b5061157a60016108af565b9081906102b860646108af565b6102a2939291906115a45f5160206134665f395f51905f526129c8565b61180f565b634e487b7160e01b5f525f60045260245ffd5b905f19905b9181191691161790565b906115db6102b86115e2926108af565b82546115bc565b9055565b915f1960089290920291821b911b6115c1565b919061160a6102b86115e2936108af565b9083546115e6565b6102a2915f916115f9565b818110611628575050565b806116355f600193611612565b0161161d565b9190601f811161164a57505050565b61165a6102a2935f5260205f2090565b906020601f84018190048301931061167c575b6020601f90910104019061161d565b909150819061166d565b9061168f815190565b9067ffffffffffffffff821161079b576116b3826116ad8554610e99565b8561163b565b602090601f83116001146116ec576115e292915f91836116e1575b50505f19600883021c1916906002021790565b015190505f806116ce565b601f198316916116ff855f5260205f2090565b925f5b81811061173b57509160029391856001969410611723575b50505002019055565b01515f196008601f8516021c191690555f808061171a565b91936020600181928787015181550195019201611702565b906102a291611686565b60036117ae60606102a29461177b6117755f83015190565b866115cb565b611792611789602083015190565b60018701611753565b6117a96117a0604083015190565b60028701611753565b015190565b91016115cb565b91906117c4576102a29161175d565b6115a9565b908154916801000000000000000083101561079b57826117f19160016102a295018155610e60565b906117b5565b9081526040602082018190526102b8929101906105c9565b6118839061187e7fee48ad85a8081671a3e9ea552bb829b3619542eb24eccc4f98e740e44441ef539493956118486102b8846005610354565b61186e611853611490565b9261185c8a8552565b611867886020860152565b6040840152565b611879426060840152565b6117c9565b61034b565b9261189961189060405190565b928392836117f7565b0390a2565b906102a2939291611587565b906102a2916118bb6113913061034b565b6102a2916001916118cb81612b0b565b612bbc565b906102a2916118aa565b6104596102b86102b89290565b6102b860326118da565b156118f857565b60405162461bcd60e51b815260206004820152600d60248201526c125b9d985b1a59081b195d995b609a1b6044820152606490fd5b61193760016118da565b60ff82161015806119d7575b61194c906118f1565b611956600a6118da565b60ff821611156119cc5761196a60146118da565b60ff821611156119c15761197e601e6118da565b60ff821611156119b65761199c61199560286118da565b9160ff1690565b11156119ac576102b860fa6108af565b6102b860c86108af565b506102b860966108af565b506102b860646108af565b506102b860326108af565b5061194c6119e66104596118e7565b60ff831611159050611943565b6102a290611a0d5f5160206134665f395f51905f526129c8565b611af9565b6102f06102b86102b89290565b6102b890611a12565b15611a2f57565b60405162461bcd60e51b815260206004820152600d60248201526c24b73b30b634b210313abcb2b960991b6044820152606490fd5b634e487b7160e01b5f52601160045260245ffd5b63ffffffff1663ffffffff8114611a8f5760010190565b611a64565b9067ffffffff000000009060201b6115c1565b61046e6102b86102b89263ffffffff1690565b90611aca6102b86115e292611aa7565b8254611a94565b611adb600a611403565b6913919517d093d551d21560b21b602082015290565b6102b8611ad1565b611b6190611b1d611b0c6102f05f611a1f565b6001600160a01b0383161415611a28565b611b456004611b2d836002610354565b01611b3f611b3a8261048d565b611a78565b90611aba565b61187e611b52600f6108af565b611b5a611af1565b9083612d2d565b7f1df60a1f5061f2e3c9803a2d1a320981bc61f7befcdbce8be656374d553bf194611b8b60405190565b8080611899565b6102a2906119f3565b15611ba257565b60405162461bcd60e51b815260206004820152603860248201527f555550535570677261646561626c653a206d757374206e6f742062652063616c60448201527f6c6564207468726f7567682064656c656761746563616c6c00000000000000006064820152608490fd5b6102b890611c55611c1d3061034b565b611c4f6001600160a01b037f0000000000000000000000000000000000000000000000000000000000000000166113c9565b14611b9b565b611c83565b6102b87f360894a13ba1a3210667c828492db98dca3e2076cc3735a920a3ca505d382bbc6108af565b506102b8611c5a565b6102b85f611c0d565b6102b860c06107a0565b906102a2611d1c6004611cb0611c95565b94611cbd6114b88261044a565b611cd6611ccc6001830161045f565b60ff166020880152565b611ce56114e16002830161044a565b611cfb611cf46003830161044a565b6060880152565b611d16611d09838301610477565b63ffffffff166080880152565b0161048d565b63ffffffff1660a0840152565b6102b890611c9f565b60016102b8910160ff1690565b91908201809211611a8f57565b91908203918211611a8f57565b611d659060ff16611995565b019060ff8211611a8f57565b81810292918115918404141715611a8f57565b634e487b7160e01b5f52601260045260245ffd5b90611da2565b9190565b908115611dad570490565b611d84565b611dc8611dcd91611dc05f90565b506002610354565b611d29565b602081015160ff168092611de05f6108af565b908193600180611df060016118da565b915b611e88575b505080518590811015611e8057611e0f611e14925190565b611d4c565b8093611e216104596118e7565b60ff82161015611e795761097b611e4291611e3c60016118da565b90611d59565b8093611e4b8290565b1115611e6d57611e686102b892611e6260646108af565b90611d71565b611d98565b50506102b860646108af565b5082611e42565b505081611e14565b909560ff861660ff88161015611ebb57611eae611eb491611ea88961192d565b90611d3f565b96611d32565b9080611df2565b95611df7565b6102a290611edb5f5160206134665f395f51905f526129c8565b611f66565b15611ee757565b60405162461bcd60e51b815260206004820152600e60248201526d24b73b30b634b21039b2b63632b960911b6044820152606490fd5b9063ffffffff906115c1565b90611f396102b86115e292611aa7565b8254611f1d565b611f4a6008611403565b6713919517d4d3d31160c21b602082015290565b6102b8611f40565b611fc290611f8a611f796102f05f611a1f565b6001600160a01b0383161415611ee0565b611fad6004611f9a836002610354565b01611fa7611b3a82610477565b90611f29565b61187e611fba60146108af565b611b5a611f5e565b7fcfcbd50fb6f62a364cb9f5e315814e5714383adf7af1898c84aa67dc1b000b06611b8b60405190565b6102a290611ec1565b6102b8915f61200f612015936120085f90565b50826111e3565b01610354565b61045f565b612022611c95565b905f82526020808080808087015f8152015f8152015f8152015f8152015f905250565b6102b861201a565b611dc86102b891611dc0612045565b906102a261143061206c84611483565b9361146b565b61207b5f6108af565b908180916102b861208b8361205c565b9261205c565b6102a291906120ac5f5160206134665f395f51905f526129c8565b612150565b156120b857565b60405162461bcd60e51b815260206004820152600c60248201526b24b73b30b634b2103ab9b2b960a11b6044820152606490fd5b156120f357565b60405162461bcd60e51b815260206004820152600e60248201526d125b9d985b1a5908185b5bdd5b9d60921b6044820152606490fd5b6121336009611403565b6804449524543545f58560bc1b602082015290565b6102b8612129565b6102a2916121756121636102f05f611a1f565b6001600160a01b0384165b14156120b1565b6121886121815f6108af565b82116120ec565b612190612148565b91612d2d565b906102a291612091565b6102b89060081c610459565b6102b890546121a0565b156121bd57565b60405162461bcd60e51b815260206004820152602e60248201527f496e697469616c697a61626c653a20636f6e747261637420697320616c72656160448201526d191e481a5b9a5d1a585b1a5e995960921b6064820152608490fd5b9060ff906115c1565b6104596102b86102b89260ff1690565b906122426102b86115e292612222565b8254612219565b9061ff009060081b6115c1565b906122666102b86115e292151590565b8254612249565b6102bb906118da565b6020810192916102a2919061226d565b61229761229360016121ac565b1590565b8080612364575b8015612326575b6122ae906121b6565b6122d0600192826122c76122c1866118da565b86612232565b612317576123ce565b6122d75750565b612312816123065f7f7f26b83ff96e1f2b6a682f133852f6798a09c465da95921460cefb384740249894612256565b60405191829182612276565b0390a1565b6123218480612256565b6123ce565b5061233b6122936123363061034b565b612e5f565b80156122a557506122ae61234f600161045f565b61235c61199560016118da565b1490506122a5565b5061236f600161045f565b61237c61199560016118da565b1061229e565b1561238957565b60405162461bcd60e51b815260206004820152601660248201527f496e76616c696420706c6174666f726d2061646d696e000000000000000000006044820152606490fd5b6102a2906123f26123e16102f05f611a1f565b6001600160a01b0383161415612382565b612403816123fe610bd8565b6129e3565b61242d817fa49807205ce4d355092ef5a8a18f56e8913cf4a201fbe287825b095693c217756129e3565b7f189ab7a9244df0848122154315af71fe140f3db0fe014031783b0946b8c9d2e36129e3565b6102a290612286565b6102a2906124765f5160206134665f395f51905f526129c8565b6124f0565b1561248257565b60405162461bcd60e51b815260206004820152600f60248201526e24b73b30b634b21031b932b0ba37b960891b6044820152606490fd5b5f198114611a8f5760010190565b6124d1600b611403565b6a13919517d0d4915055115160aa1b602082015290565b6102b86124c7565b612550906125146125036102f05f611a1f565b6001600160a01b038316141561247b565b61253b60026125238382610354565b016125356125308261044a565b6124b9565b906115cb565b61187e612548600a6108af565b611b5a6124e8565b7f3754da1a98214dd62255f52efe5c8d68ba410e5c19339cc7883a5fba3df0adf2611b8b60405190565b6102a29061245c565b6102a292919061259f5f5160206134665f395f51905f526129c8565b906102a29291612d2d565b906102a29291612583565b6125be5f6108af565b8091816125ca5f6118da565b91829190565b6102b86102b86102b89260ff1690565b906125e9825190565b811015610e80576020809102010190565b6126026118e7565b61260b816125d0565b6126148161205c565b9061261f829161205c565b93849061262b5f6118da565b60ff86165b60ff8216101561269e576126976126309161267161265761265160016118da565b83611d59565b612669612663846125d0565b8a6125e0565b9060ff169052565b61269261267d5f6108af565b61268f612689846125d0565b8c6125e0565b52565b611d32565b905061262b565b50925092509250565b906102a2916126b8611217826111e9565b906102a291612a5b565b906102a2916126a7565b6102a2906126e65f5160206134665f395f51905f526129c8565b612727565b156126f257565b60405162461bcd60e51b815260206004820152600d60248201526c24b73b30b634b21037bbb732b960991b6044820152606490fd5b61275b9061274b61273a6102f05f611a1f565b6001600160a01b03831614156126eb565b61187e6003612523836002610354565b7f0350ff25ae499e67547a932dad94cad34fbe054498b3808c1397487ce7c452ca611b8b60405190565b6102a2906126cc565b60ff1660ff8114611a8f5760010190565b6127a85f6108af565b811461281f576127b75f6108af565b90600180926127c660016118da565b915b6127d9575b505050506102b86118e7565b6127e46104596118e7565b60ff83161161281a576127fa90611ea88361192d565b90818311156128135761280c9061278e565b90836127c8565b9250505090565b6127cd565b506102b85f6118da565b6128328161205c565b916102b861208b8361205c565b6102a2906128595f5160206134665f395f51905f526129c8565b60036125236102a2926128806128716102f05f611a1f565b6001600160a01b03831661216e565b6002610354565b6102a29061283f565b611dc861289e91611dc05f90565b6128a75f6108af565b9160208201916128b8835160ff1690565b6128c46119955f6118da565b11612970575b83926128d7815160ff1690565b6128e56119956104596118e7565b10612944575b6128fe6128f6835190565b915160ff1690565b9461290a604084015190565b94612916606085015190565b9461293960a061292d608088015163ffffffff1690565b96015163ffffffff1690565b939796959493929190565b925061296a61296461097b61295a865160ff1690565b611e3c60016118da565b85611d3f565b926128eb565b60018061297d60016118da565b915b61298b575b50506128ca565b909461299b610459865160ff1690565b60ff871610156129c2576129b56129bb91611ea88861192d565b95611d32565b908061297f565b94612984565b6102a2903390612f06565b906122426102b86115e292151590565b6129f06122938383611ff5565b6129f8575050565b612a116001612a0c845f61200f86826111e3565b6129d3565b612a2b612a25612a1f339390565b9361034b565b9161034b565b917f2f8788117e7eff1d82e926ec794901d17c78024a50270940304540a733656f0d612a5660405190565b5f90a4565b612a658282611ff5565b612a6d575050565b612a805f612a0c848261200f86826111e3565b612a8e612a25612a1f339390565b917ff6391f5c32d9c69d2a47ea670b442974b53935d1edc7fd64eb21e047a839171b612a5660405190565b6102b8906102f0565b6102b89054612ab9565b6102b85f612adb6102b8611c5a565b01612ac2565b506102a27f189ab7a9244df0848122154315af71fe140f3db0fe014031783b0946b8c9d2e36129c8565b6102a290612ae1565b6102b87f4910fdfa16fed3260ed0e7147f7cc6da11a60208b5b9406d12a635614ffd91436108af565b905051906102a2826103c0565b90602082820312610291576102b891612b3d565b15612b6557565b60405162461bcd60e51b815260206004820152602960248201527f45524331393637557067726164653a20756e737570706f727465642070726f786044820152681a58589b195555525160ba1b6064820152608490fd5b9190612bd35f612bcd6102b8612b14565b0161045f565b15612be35750506102a290613051565b612bef61187e8461034b565b926020612bfb60405190565b6352d1902d60e01b815294859060049082905afa5f9481612c98575b50612c785760405162461bcd60e51b815260206004820152602e60248201527f45524331393637557067726164653a206e657720696d706c656d656e7461746960448201526d6f6e206973206e6f74205555505360901b6064820152608490fd5b612c936102a294612c8d611d9e6102b8611c5a565b14612b5e565b612f8b565b612cbb91955060203d602011612cc2575b612cb38183610779565b810190612b4a565b935f612c17565b503d612ca9565b15612cd057565b60405162461bcd60e51b8152602060048201526011602482015270125b9d985b1a5908161408185b5bdd5b9d607a1b6044820152606490fd5b6102b8611d4c6108af565b612d209060ff16611995565b90039060ff8211611a8f57565b90612d3d6121636102f05f611a1f565b612d50612d495f6108af565b8211612cc9565b612d5e6102b8836002610354565b926001840191612dac612da55f612d748661045f565b9701612d8884612d838361044a565b611d3f565b9081612d92612d09565b908110612e55575b5081610e33916115cb565b8094612232565b7fbc485bf8e37db28d327f937baa2ba28235470b977aa1200fd7eedfd31f24ac45612dd68561034b565b928392612de561189060405190565b0390a260ff841660ff831611612dfc575b50505050565b612e4c93612e4692612e41927fa49b8576e012f713baa7dceadb7d709aaec8773b498ecfe582d8b9c0c8fd074f612e3260405190565b60ff84168152602090a2612d14565b6125d0565b90613096565b5f808080612df6565b9150610e33612d9a565b3b612e6c611d9e5f6108af565b1190565b6102b8906108af565b6105fd612e9192602092612e8b815190565b94859290565b938491016105a8565b612ed86102b89392612ed2612ed2937f416363657373436f6e74726f6c3a206163636f756e7420000000000000000000815260170190565b90612e79565b7001034b99036b4b9b9b4b733903937b6329607d1b815260110190565b60208082526102b8929101906105c9565b90612f146122938284611ff5565b612f1c575050565b612f666102b861129593612f4e612f3e612f38612f7296613139565b92612e70565b612f4860206108af565b906131ed565b90612f5860405190565b938492602084019283612e9a565b90810382520382610779565b6040515b62461bcd60e51b815291829160048301612ef5565b91612f9583613300565b8151612fa3611d9e5f6108af565b11908115612fc1575b50612fb5575050565b612fbe91613382565b50565b90505f612fac565b15612fd057565b60405162461bcd60e51b815260206004820152602d60248201527f455243313936373a206e657720696d706c656d656e746174696f6e206973206e60448201526c1bdd08184818dbdb9d1c9858dd609a1b6064820152608490fd5b906001600160a01b03906115c1565b9061304a6102b86115e29261034b565b825461302b565b6102a29061306661306182612e5f565b612fc9565b5f6130726102b8611c5a565b0161303a565b3d15613091576130873d611403565b903d5f602084013e565b606090565b906130a390611e626108bc565b906130ad3061034b565b82903110156130ba575050565b5f806130c861187e8461034b565b6040515f9186905af16130d9613078565b506130e2575050565b61189961310f7fe2403640ba68fed3a2f88b7557551d1993f84b99bb10ff833f0cf8db0c5e04869261034b565b926103b360405190565b6102b86102b86102b8926001600160a01b031690565b6102b860146118da565b6131566131516102b89261314b606090565b50610342565b613119565b612f48612e4161312f565b9061316a825190565b811015610e80570160200190565b8015611a8f575f190190565b6102b890613198611d9e6102b89460ff1690565b901c90565b156131a457565b60405162461bcd60e51b815280611295600482016020808252818101527f537472696e67733a20686578206c656e67746820696e73756666696369656e74604082015260600190565b6132106114576132068461320160026108af565b611d71565b611ea860026108af565b91603061322561321f5f6108af565b85613161565b53600f60fb1b61325e61325560019384935f1a61324a613244866108af565b89613161565b5361320160026108af565b611ea8836108af565b915b613281575b5050906102b86102b89261327b611d9e5f6108af565b1461319d565b909161328c826108af565b8311156132fa576f181899199a1a9b1b9c1cb0b131b232b360811b6132b1600f6108af565b8216906010821015610e805783926132d16132ee926132f4941a60f81b90565b5f1a6132dd8789613161565b536132e860046118da565b90613184565b93613178565b91613260565b91613265565b61330d9061187e81613051565b7fbc7cd75a20ee27fd9adebab32041f755214dbc6bffa90cc0225b39da2e5c2d3b611b8b60405190565b6133416027611403565b7f416464726573733a206c6f772d6c6576656c2064656c65676174652063616c6c6020820152660819985a5b195960ca1b604082015290565b6102b8613337565b6102b89161338e61337a565b915f806102b8949361339e606090565b50602081519101845af46133b0613078565b91613402565b156133bd57565b60405162461bcd60e51b815260206004820152601d60248201527f416464726573733a2063616c6c20746f206e6f6e2d636f6e74726163740000006044820152606490fd5b9192901561343357508151613419611d9e5f6108af565b14613422575090565b61342e6102b891612e5f565b6133b6565b829061343d825190565b613449611d9e5f6108af565b11156134585750805190602001fd5b61129590612f766040519056fe0ea61da3a8a09ad801432653699f8c1860b1ae9d2ea4a141fadfd63227717bc8a26469706673582212200d571c56d688149d53202178901a58274595a804a7c04a935965f9d508c023ba64736f6c634300081c0033",
  "linkReferences": {},
  "deployedLinkReferences": {}
}