{
  "_format": "hh-sol-artifact-1",
  "contractName": "Marketplace",
  "sourceName": "contracts/Marketplace/Marketplace.sol",
  "abi": [
    {
      "inputs": [],
      "stateMutability": "nonpayable",
      "type": "constructor"
    },
    {
      "inputs": [],
      "name": "AlreadyListed",
      "type": "error"
    },
    {
      "inputs": [],
      "name": "BlacklistedAddress",
      "type": "error"
    },
    {
      "inputs": [],
      "name": "CategoryNotValid",
      "type": "error"
    },
    {
      "inputs": [],
      "name": "InsufficientFunds",
      "type": "error"
    },
    {
      "inputs": [],
      "name": "InvalidInput",
      "type": "error"
    },
    {
      "inputs": [],
      "name": "OfferExpired",
      "type": "error"
    },
    {
      "inputs": [],
      "name": "OfferNotActive",
      "type": "error"
    },
    {
      "inputs": [],
      "name": "RoyaltyTooHigh",
      "type": "error"
    },
    {
      "inputs": [],
      "name": "SectionPaused",
      "type": "error"
    },
    {
      "inputs": [],
      "name": "TokenDoesNotExist",
      "type": "error"
    },
    {
      "inputs": [],
      "name": "TokenNotForSale",
      "type": "error"
    },
    {
      "inputs": [],
      "name": "TooManyOffers",
      "type": "error"
    },
    {
      "inputs": [],
      "name": "TransferFailed",
      "type": "error"
    },
    {
      "inputs": [],
      "name": "Unauthorized",
      "type": "error"
    },
    {
      "anonymous": false,
      "inputs": [
        {
          "indexed": true,
          "internalType": "address",
          "name": "owner",
          "type": "address"
        },
        {
          "indexed": true,
          "internalType": "address",
          "name": "approved",
          "type": "address"
        },
        {
          "indexed": true,
          "internalType": "uint256",
          "name": "tokenId",
          "type": "uint256"
        }
      ],
      "name": "Approval",
      "type": "event"
    },
    {
      "anonymous": false,
      "inputs": [
        {
          "indexed": true,
          "internalType": "address",
          "name": "owner",
          "type": "address"
        },
        {
          "indexed": true,
          "internalType": "address",
          "name": "operator",
          "type": "address"
        },
        {
          "indexed": false,
          "internalType": "bool",
          "name": "approved",
          "type": "bool"
        }
      ],
      "name": "ApprovalForAll",
      "type": "event"
    },
    {
      "anonymous": false,
      "inputs": [
        {
          "indexed": false,
          "internalType": "uint256",
          "name": "_fromTokenId",
          "type": "uint256"
        },
        {
          "indexed": false,
          "internalType": "uint256",
          "name": "_toTokenId",
          "type": "uint256"
        }
      ],
      "name": "BatchMetadataUpdate",
      "type": "event"
    },
    {
      "anonymous": false,
      "inputs": [
        {
          "indexed": false,
          "internalType": "string",
          "name": "category",
          "type": "string"
        }
      ],
      "name": "CategoryRegistered",
      "type": "event"
    },
    {
      "anonymous": false,
      "inputs": [
        {
          "indexed": true,
          "internalType": "uint256",
          "name": "tokenId",
          "type": "uint256"
        },
        {
          "indexed": false,
          "internalType": "address",
          "name": "commenter",
          "type": "address"
        },
        {
          "indexed": false,
          "internalType": "string",
          "name": "comment",
          "type": "string"
        }
      ],
      "name": "CommentAdded",
      "type": "event"
    },
    {
      "anonymous": false,
      "inputs": [
        {
          "indexed": false,
          "internalType": "address",
          "name": "to",
          "type": "address"
        },
        {
          "indexed": false,
          "internalType": "uint256",
          "name": "amount",
          "type": "uint256"
        }
      ],
      "name": "EmergencyWithdrawal",
      "type": "event"
    },
    {
      "anonymous": false,
      "inputs": [
        {
          "indexed": false,
          "internalType": "uint256",
          "name": "_tokenId",
          "type": "uint256"
        }
      ],
      "name": "MetadataUpdate",
      "type": "event"
    },
    {
      "anonymous": false,
      "inputs": [
        {
          "indexed": true,
          "internalType": "uint256",
          "name": "offerId",
          "type": "uint256"
        },
        {
          "indexed": true,
          "internalType": "uint256",
          "name": "tokenId",
          "type": "uint256"
        },
        {
          "indexed": false,
          "internalType": "address",
          "name": "seller",
          "type": "address"
        },
        {
          "indexed": false,
          "internalType": "address",
          "name": "buyer",
          "type": "address"
        },
        {
          "indexed": false,
          "internalType": "uint256",
          "name": "amount",
          "type": "uint256"
        }
      ],
      "name": "OfferAccepted",
      "type": "event"
    },
    {
      "anonymous": false,
      "inputs": [
        {
          "indexed": true,
          "internalType": "uint256",
          "name": "offerId",
          "type": "uint256"
        }
      ],
      "name": "OfferCancelled",
      "type": "event"
    },
    {
      "anonymous": false,
      "inputs": [
        {
          "indexed": true,
          "internalType": "uint256",
          "name": "offerId",
          "type": "uint256"
        },
        {
          "indexed": true,
          "internalType": "uint256",
          "name": "tokenId",
          "type": "uint256"
        },
        {
          "indexed": true,
          "internalType": "address",
          "name": "buyer",
          "type": "address"
        },
        {
          "indexed": false,
          "internalType": "uint256",
          "name": "amount",
          "type": "uint256"
        },
        {
          "indexed": false,
          "internalType": "uint256",
          "name": "expiresAt",
          "type": "uint256"
        }
      ],
      "name": "OfferCreated",
      "type": "event"
    },
    {
      "anonymous": false,
      "inputs": [
        {
          "indexed": true,
          "internalType": "uint256",
          "name": "offerId",
          "type": "uint256"
        },
        {
          "indexed": true,
          "internalType": "uint256",
          "name": "tokenId",
          "type": "uint256"
        }
      ],
      "name": "OfferExpiredCleaned",
      "type": "event"
    },
    {
      "anonymous": false,
      "inputs": [
        {
          "indexed": true,
          "internalType": "uint256",
          "name": "offerId",
          "type": "uint256"
        }
      ],
      "name": "OfferRejected",
      "type": "event"
    },
    {
      "anonymous": false,
      "inputs": [
        {
          "indexed": false,
          "internalType": "address",
          "name": "account",
          "type": "address"
        }
      ],
      "name": "Paused",
      "type": "event"
    },
    {
      "anonymous": false,
      "inputs": [
        {
          "indexed": true,
          "internalType": "uint256",
          "name": "offerId",
          "type": "uint256"
        },
        {
          "indexed": true,
          "internalType": "address",
          "name": "buyer",
          "type": "address"
        },
        {
          "indexed": false,
          "internalType": "uint256",
          "name": "amount",
          "type": "uint256"
        }
      ],
      "name": "RefundFailed",
      "type": "event"
    },
    {
      "anonymous": false,
      "inputs": [
        {
          "indexed": true,
          "internalType": "bytes32",
          "name": "role",
          "type": "bytes32"
        },
        {
          "indexed": true,
          "internalType": "bytes32",
          "name": "previousAdminRole",
          "type": "bytes32"
        },
        {
          "indexed": true,
          "internalType": "bytes32",
          "name": "newAdminRole",
          "type": "bytes32"
        }
      ],
      "name": "RoleAdminChanged",
      "type": "event"
    },
    {
      "anonymous": false,
      "inputs": [
        {
          "indexed": true,
          "internalType": "bytes32",
          "name": "role",
          "type": "bytes32"
        },
        {
          "indexed": true,
          "internalType": "address",
          "name": "account",
          "type": "address"
        },
        {
          "indexed": true,
          "internalType": "address",
          "name": "sender",
          "type": "address"
        }
      ],
      "name": "RoleGranted",
      "type": "event"
    },
    {
      "anonymous": false,
      "inputs": [
        {
          "indexed": true,
          "internalType": "bytes32",
          "name": "role",
          "type": "bytes32"
        },
        {
          "indexed": true,
          "internalType": "address",
          "name": "account",
          "type": "address"
        },
        {
          "indexed": true,
          "internalType": "address",
          "name": "sender",
          "type": "address"
        }
      ],
      "name": "RoleRevoked",
      "type": "event"
    },
    {
      "anonymous": false,
      "inputs": [
        {
          "indexed": true,
          "internalType": "uint256",
          "name": "tokenId",
          "type": "uint256"
        },
        {
          "indexed": true,
          "internalType": "address",
          "name": "creator",
          "type": "address"
        },
        {
          "indexed": false,
          "internalType": "uint256",
          "name": "amount",
          "type": "uint256"
        }
      ],
      "name": "RoyaltyPaid",
      "type": "event"
    },
    {
      "anonymous": false,
      "inputs": [
        {
          "indexed": true,
          "internalType": "uint256",
          "name": "tokenId",
          "type": "uint256"
        },
        {
          "indexed": false,
          "internalType": "address",
          "name": "user",
          "type": "address"
        },
        {
          "indexed": false,
          "internalType": "uint256",
          "name": "totalLikes",
          "type": "uint256"
        }
      ],
      "name": "TokenLiked",
      "type": "event"
    },
    {
      "anonymous": false,
      "inputs": [
        {
          "indexed": true,
          "internalType": "uint256",
          "name": "tokenId",
          "type": "uint256"
        },
        {
          "indexed": true,
          "internalType": "address",
          "name": "seller",
          "type": "address"
        },
        {
          "indexed": false,
          "internalType": "uint256",
          "name": "price",
          "type": "uint256"
        },
        {
          "indexed": false,
          "internalType": "string",
          "name": "category",
          "type": "string"
        }
      ],
      "name": "TokenListed",
      "type": "event"
    },
    {
      "anonymous": false,
      "inputs": [
        {
          "indexed": true,
          "internalType": "uint256",
          "name": "tokenId",
          "type": "uint256"
        },
        {
          "indexed": true,
          "internalType": "address",
          "name": "creator",
          "type": "address"
        },
        {
          "indexed": false,
          "internalType": "string",
          "name": "tokenURI",
          "type": "string"
        },
        {
          "indexed": false,
          "internalType": "string",
          "name": "category",
          "type": "string"
        }
      ],
      "name": "TokenMinted",
      "type": "event"
    },
    {
      "anonymous": false,
      "inputs": [
        {
          "indexed": true,
          "internalType": "uint256",
          "name": "tokenId",
          "type": "uint256"
        },
        {
          "indexed": false,
          "internalType": "uint256",
          "name": "newPrice",
          "type": "uint256"
        }
      ],
      "name": "TokenPriceUpdated",
      "type": "event"
    },
    {
      "anonymous": false,
      "inputs": [
        {
          "indexed": true,
          "internalType": "uint256",
          "name": "tokenId",
          "type": "uint256"
        },
        {
          "indexed": true,
          "internalType": "address",
          "name": "seller",
          "type": "address"
        },
        {
          "indexed": true,
          "internalType": "address",
          "name": "buyer",
          "type": "address"
        },
        {
          "indexed": false,
          "internalType": "uint256",
          "name": "price",
          "type": "uint256"
        }
      ],
      "name": "TokenSold",
      "type": "event"
    },
    {
      "anonymous": false,
      "inputs": [
        {
          "indexed": true,
          "internalType": "uint256",
          "name": "tokenId",
          "type": "uint256"
        },
        {
          "indexed": false,
          "internalType": "address",
          "name": "user",
          "type": "address"
        },
        {
          "indexed": false,
          "internalType": "uint256",
          "name": "totalLikes",
          "type": "uint256"
        }
      ],
      "name": "TokenUnLiked",
      "type": "event"
    },
    {
      "anonymous": false,
      "inputs": [
        {
          "indexed": true,
          "internalType": "uint256",
          "name": "tokenId",
          "type": "uint256"
        }
      ],
      "name": "TokenUnlisted",
      "type": "event"
    },
    {
      "anonymous": false,
      "inputs": [
        {
          "indexed": true,
          "internalType": "address",
          "name": "from",
          "type": "address"
        },
        {
          "indexed": true,
          "internalType": "address",
          "name": "to",
          "type": "address"
        },
        {
          "indexed": true,
          "internalType": "uint256",
          "name": "tokenId",
          "type": "uint256"
        }
      ],
      "name": "Transfer",
      "type": "event"
    },
    {
      "anonymous": false,
      "inputs": [
        {
          "indexed": false,
          "internalType": "address",
          "name": "account",
          "type": "address"
        }
      ],
      "name": "Unpaused",
      "type": "event"
    },
    {
      "inputs": [],
      "name": "ADMIN_ROLE",
      "outputs": [
        {
          "internalType": "bytes32",
          "name": "",
          "type": "bytes32"
        }
      ],
      "stateMutability": "view",
      "type": "function"
    },
    {
      "inputs": [],
      "name": "DEFAULT_ADMIN_ROLE",
      "outputs": [
        {
          "internalType": "bytes32",
          "name": "",
          "type": "bytes32"
        }
      ],
      "stateMutability": "view",
      "type": "function"
    },
    {
      "inputs": [],
      "name": "MAX_BATCH_MINT_SIZE",
      "outputs": [
        {
          "internalType": "uint256",
          "name": "",
          "type": "uint256"
        }
      ],
      "stateMutability": "view",
      "type": "function"
    },
    {
      "inputs": [],
      "name": "MAX_BATCH_SIZE",
      "outputs": [
        {
          "internalType": "uint256",
          "name": "",
          "type": "uint256"
        }
      ],
      "stateMutability": "view",
      "type": "function"
    },
    {
      "inputs": [],
      "name": "MAX_OFFERS_PER_TOKEN",
      "outputs": [
        {
          "internalType": "uint256",
          "name": "",
          "type": "uint256"
        }
      ],
      "stateMutability": "view",
      "type": "function"
    },
    {
      "inputs": [],
      "name": "MIN_PRICE",
      "outputs": [
        {
          "internalType": "uint256",
          "name": "",
          "type": "uint256"
        }
      ],
      "stateMutability": "view",
      "type": "function"
    },
    {
      "inputs": [],
      "name": "MODERATOR_ROLE",
      "outputs": [
        {
          "internalType": "bytes32",
          "name": "",
          "type": "bytes32"
        }
      ],
      "stateMutability": "view",
      "type": "function"
    },
    {
      "inputs": [
        {
          "internalType": "uint256",
          "name": "offerId",
          "type": "uint256"
        }
      ],
      "name": "acceptOffer",
      "outputs": [],
      "stateMutability": "nonpayable",
      "type": "function"
    },
    {
      "inputs": [
        {
          "internalType": "uint256",
          "name": "tokenId",
          "type": "uint256"
        },
        {
          "internalType": "string",
          "name": "text",
          "type": "string"
        }
      ],
      "name": "addComment",
      "outputs": [],
      "stateMutability": "nonpayable",
      "type": "function"
    },
    {
      "inputs": [
        {
          "internalType": "address",
          "name": "to",
          "type": "address"
        },
        {
          "internalType": "uint256",
          "name": "tokenId",
          "type": "uint256"
        }
      ],
      "name": "approve",
      "outputs": [],
      "stateMutability": "nonpayable",
      "type": "function"
    },
    {
      "inputs": [
        {
          "internalType": "address",
          "name": "owner",
          "type": "address"
        }
      ],
      "name": "balanceOf",
      "outputs": [
        {
          "internalType": "uint256",
          "name": "",
          "type": "uint256"
        }
      ],
      "stateMutability": "view",
      "type": "function"
    },
    {
      "inputs": [
        {
          "internalType": "address",
          "name": "user",
          "type": "address"
        }
      ],
      "name": "blacklistAddress",
      "outputs": [],
      "stateMutability": "nonpayable",
      "type": "function"
    },
    {
      "inputs": [
        {
          "internalType": "uint256",
          "name": "tokenId",
          "type": "uint256"
        }
      ],
      "name": "buyToken",
      "outputs": [],
      "stateMutability": "payable",
      "type": "function"
    },
    {
      "inputs": [
        {
          "internalType": "uint256",
          "name": "offerId",
          "type": "uint256"
        }
      ],
      "name": "cancelOffer",
      "outputs": [],
      "stateMutability": "nonpayable",
      "type": "function"
    },
    {
      "inputs": [
        {
          "internalType": "string",
          "name": "_tokenURI",
          "type": "string"
        },
        {
          "internalType": "string",
          "name": "category",
          "type": "string"
        },
        {
          "internalType": "uint96",
          "name": "royaltyPercentage",
          "type": "uint96"
        }
      ],
      "name": "createNFT",
      "outputs": [
        {
          "internalType": "uint256",
          "name": "",
          "type": "uint256"
        }
      ],
      "stateMutability": "nonpayable",
      "type": "function"
    },
    {
      "inputs": [
        {
          "internalType": "string",
          "name": "_tokenURI",
          "type": "string"
        },
        {
          "internalType": "string",
          "name": "category",
          "type": "string"
        },
        {
          "internalType": "uint96",
          "name": "royaltyPercentage",
          "type": "uint96"
        },
        {
          "internalType": "uint256",
          "name": "quantity",
          "type": "uint256"
        }
      ],
      "name": "createNFTBatch",
      "outputs": [
        {
          "internalType": "uint256[]",
          "name": "",
          "type": "uint256[]"
        }
      ],
      "stateMutability": "nonpayable",
      "type": "function"
    },
    {
      "inputs": [],
      "name": "defaultRoyaltyPercentage",
      "outputs": [
        {
          "internalType": "uint96",
          "name": "",
          "type": "uint96"
        }
      ],
      "stateMutability": "view",
      "type": "function"
    },
    {
      "inputs": [
        {
          "internalType": "address payable",
          "name": "to",
          "type": "address"
        }
      ],
      "name": "emergencyWithdraw",
      "outputs": [],
      "stateMutability": "nonpayable",
      "type": "function"
    },
    {
      "inputs": [
        {
          "internalType": "uint256",
          "name": "tokenId",
          "type": "uint256"
        }
      ],
      "name": "getApproved",
      "outputs": [
        {
          "internalType": "address",
          "name": "",
          "type": "address"
        }
      ],
      "stateMutability": "view",
      "type": "function"
    },
    {
      "inputs": [
        {
          "internalType": "uint256",
          "name": "tokenId",
          "type": "uint256"
        },
        {
          "internalType": "uint256",
          "name": "startIndex",
          "type": "uint256"
        },
        {
          "internalType": "uint256",
          "name": "count",
          "type": "uint256"
        }
      ],
      "name": "getComments",
      "outputs": [
        {
          "internalType": "address[]",
          "name": "",
          "type": "address[]"
        },
        {
          "internalType": "string[]",
          "name": "",
          "type": "string[]"
        },
        {
          "internalType": "uint256[]",
          "name": "",
          "type": "uint256[]"
        }
      ],
      "stateMutability": "view",
      "type": "function"
    },
    {
      "inputs": [
        {
          "internalType": "uint256",
          "name": "tokenId",
          "type": "uint256"
        }
      ],
      "name": "getLikesCount",
      "outputs": [
        {
          "internalType": "uint256",
          "name": "",
          "type": "uint256"
        }
      ],
      "stateMutability": "view",
      "type": "function"
    },
    {
      "inputs": [
        {
          "internalType": "uint256",
          "name": "tokenId",
          "type": "uint256"
        }
      ],
      "name": "getListedToken",
      "outputs": [
        {
          "internalType": "uint256",
          "name": "",
          "type": "uint256"
        },
        {
          "internalType": "address",
          "name": "",
          "type": "address"
        },
        {
          "internalType": "address",
          "name": "",
          "type": "address"
        },
        {
          "internalType": "uint256",
          "name": "",
          "type": "uint256"
        },
        {
          "internalType": "bool",
          "name": "",
          "type": "bool"
        },
        {
          "internalType": "uint256",
          "name": "",
          "type": "uint256"
        },
        {
          "internalType": "string",
          "name": "",
          "type": "string"
        }
      ],
      "stateMutability": "view",
      "type": "function"
    },
    {
      "inputs": [
        {
          "internalType": "uint256",
          "name": "offerId",
          "type": "uint256"
        }
      ],
      "name": "getOffer",
      "outputs": [
        {
          "internalType": "uint256",
          "name": "",
          "type": "uint256"
        },
        {
          "internalType": "uint256",
          "name": "",
          "type": "uint256"
        },
        {
          "internalType": "address",
          "name": "",
          "type": "address"
        },
        {
          "internalType": "uint256",
          "name": "",
          "type": "uint256"
        },
        {
          "internalType": "uint256",
          "name": "",
          "type": "uint256"
        },
        {
          "internalType": "bool",
          "name": "",
          "type": "bool"
        }
      ],
      "stateMutability": "view",
      "type": "function"
    },
    {
      "inputs": [
        {
          "internalType": "bytes32",
          "name": "role",
          "type": "bytes32"
        }
      ],
      "name": "getRoleAdmin",
      "outputs": [
        {
          "internalType": "bytes32",
          "name": "",
          "type": "bytes32"
        }
      ],
      "stateMutability": "view",
      "type": "function"
    },
    {
      "inputs": [
        {
          "internalType": "address",
          "name": "creator",
          "type": "address"
        }
      ],
      "name": "getTokensByCreator",
      "outputs": [
        {
          "internalType": "uint256[]",
          "name": "",
          "type": "uint256[]"
        }
      ],
      "stateMutability": "view",
      "type": "function"
    },
    {
      "inputs": [
        {
          "internalType": "bytes32",
          "name": "role",
          "type": "bytes32"
        },
        {
          "internalType": "address",
          "name": "account",
          "type": "address"
        }
      ],
      "name": "grantRole",
      "outputs": [],
      "stateMutability": "nonpayable",
      "type": "function"
    },
    {
      "inputs": [
        {
          "internalType": "bytes32",
          "name": "role",
          "type": "bytes32"
        },
        {
          "internalType": "address",
          "name": "account",
          "type": "address"
        }
      ],
      "name": "hasRole",
      "outputs": [
        {
          "internalType": "bool",
          "name": "",
          "type": "bool"
        }
      ],
      "stateMutability": "view",
      "type": "function"
    },
    {
      "inputs": [
        {
          "internalType": "uint256",
          "name": "tokenId",
          "type": "uint256"
        },
        {
          "internalType": "address",
          "name": "user",
          "type": "address"
        }
      ],
      "name": "hasUserLiked",
      "outputs": [
        {
          "internalType": "bool",
          "name": "",
          "type": "bool"
        }
      ],
      "stateMutability": "view",
      "type": "function"
    },
    {
      "inputs": [
        {
          "internalType": "address",
          "name": "owner",
          "type": "address"
        },
        {
          "internalType": "address",
          "name": "operator",
          "type": "address"
        }
      ],
      "name": "isApprovedForAll",
      "outputs": [
        {
          "internalType": "bool",
          "name": "",
          "type": "bool"
        }
      ],
      "stateMutability": "view",
      "type": "function"
    },
    {
      "inputs": [
        {
          "internalType": "uint256",
          "name": "tokenId",
          "type": "uint256"
        },
        {
          "internalType": "uint256",
          "name": "price",
          "type": "uint256"
        },
        {
          "internalType": "string",
          "name": "category",
          "type": "string"
        }
      ],
      "name": "listTokenForSale",
      "outputs": [],
      "stateMutability": "nonpayable",
      "type": "function"
    },
    {
      "inputs": [
        {
          "internalType": "uint256",
          "name": "tokenId",
          "type": "uint256"
        },
        {
          "internalType": "uint8",
          "name": "expiresInDays",
          "type": "uint8"
        }
      ],
      "name": "makeOffer",
      "outputs": [],
      "stateMutability": "payable",
      "type": "function"
    },
    {
      "inputs": [],
      "name": "name",
      "outputs": [
        {
          "internalType": "string",
          "name": "",
          "type": "string"
        }
      ],
      "stateMutability": "view",
      "type": "function"
    },
    {
      "inputs": [
        {
          "internalType": "uint256",
          "name": "tokenId",
          "type": "uint256"
        }
      ],
      "name": "ownerOf",
      "outputs": [
        {
          "internalType": "address",
          "name": "",
          "type": "address"
        }
      ],
      "stateMutability": "view",
      "type": "function"
    },
    {
      "inputs": [],
      "name": "pause",
      "outputs": [],
      "stateMutability": "nonpayable",
      "type": "function"
    },
    {
      "inputs": [],
      "name": "paused",
      "outputs": [
        {
          "internalType": "bool",
          "name": "",
          "type": "bool"
        }
      ],
      "stateMutability": "view",
      "type": "function"
    },
    {
      "inputs": [],
      "name": "platformFeePercentage",
      "outputs": [
        {
          "internalType": "uint256",
          "name": "",
          "type": "uint256"
        }
      ],
      "stateMutability": "view",
      "type": "function"
    },
    {
      "inputs": [],
      "name": "platformTreasury",
      "outputs": [
        {
          "internalType": "address",
          "name": "",
          "type": "address"
        }
      ],
      "stateMutability": "view",
      "type": "function"
    },
    {
      "inputs": [
        {
          "internalType": "string",
          "name": "category",
          "type": "string"
        }
      ],
      "name": "registerCategory",
      "outputs": [],
      "stateMutability": "nonpayable",
      "type": "function"
    },
    {
      "inputs": [
        {
          "internalType": "uint256",
          "name": "offerId",
          "type": "uint256"
        }
      ],
      "name": "rejectOffer",
      "outputs": [],
      "stateMutability": "nonpayable",
      "type": "function"
    },
    {
      "inputs": [
        {
          "internalType": "address",
          "name": "user",
          "type": "address"
        }
      ],
      "name": "removeFromBlacklist",
      "outputs": [],
      "stateMutability": "nonpayable",
      "type": "function"
    },
    {
      "inputs": [
        {
          "internalType": "bytes32",
          "name": "role",
          "type": "bytes32"
        },
        {
          "internalType": "address",
          "name": "account",
          "type": "address"
        }
      ],
      "name": "renounceRole",
      "outputs": [],
      "stateMutability": "nonpayable",
      "type": "function"
    },
    {
      "inputs": [
        {
          "internalType": "bytes32",
          "name": "role",
          "type": "bytes32"
        },
        {
          "internalType": "address",
          "name": "account",
          "type": "address"
        }
      ],
      "name": "revokeRole",
      "outputs": [],
      "stateMutability": "nonpayable",
      "type": "function"
    },
    {
      "inputs": [
        {
          "internalType": "uint256",
          "name": "tokenId",
          "type": "uint256"
        },
        {
          "internalType": "uint256",
          "name": "salePrice",
          "type": "uint256"
        }
      ],
      "name": "royaltyInfo",
      "outputs": [
        {
          "internalType": "address",
          "name": "",
          "type": "address"
        },
        {
          "internalType": "uint256",
          "name": "",
          "type": "uint256"
        }
      ],
      "stateMutability": "view",
      "type": "function"
    },
    {
      "inputs": [
        {
          "internalType": "address",
          "name": "from",
          "type": "address"
        },
        {
          "internalType": "address",
          "name": "to",
          "type": "address"
        },
        {
          "internalType": "uint256",
          "name": "tokenId",
          "type": "uint256"
        }
      ],
      "name": "safeTransferFrom",
      "outputs": [],
      "stateMutability": "nonpayable",
      "type": "function"
    },
    {
      "inputs": [
        {
          "internalType": "address",
          "name": "from",
          "type": "address"
        },
        {
          "internalType": "address",
          "name": "to",
          "type": "address"
        },
        {
          "internalType": "uint256",
          "name": "tokenId",
          "type": "uint256"
        },
        {
          "internalType": "bytes",
          "name": "data",
          "type": "bytes"
        }
      ],
      "name": "safeTransferFrom",
      "outputs": [],
      "stateMutability": "nonpayable",
      "type": "function"
    },
    {
      "inputs": [
        {
          "internalType": "uint8",
          "name": "",
          "type": "uint8"
        }
      ],
      "name": "sectionPaused",
      "outputs": [
        {
          "internalType": "bool",
          "name": "",
          "type": "bool"
        }
      ],
      "stateMutability": "view",
      "type": "function"
    },
    {
      "inputs": [
        {
          "internalType": "address",
          "name": "operator",
          "type": "address"
        },
        {
          "internalType": "bool",
          "name": "approved",
          "type": "bool"
        }
      ],
      "name": "setApprovalForAll",
      "outputs": [],
      "stateMutability": "nonpayable",
      "type": "function"
    },
    {
      "inputs": [
        {
          "internalType": "uint96",
          "name": "newRoyaltyPercentage",
          "type": "uint96"
        }
      ],
      "name": "setDefaultRoyalty",
      "outputs": [],
      "stateMutability": "nonpayable",
      "type": "function"
    },
    {
      "inputs": [
        {
          "internalType": "uint256",
          "name": "newFeePercentage",
          "type": "uint256"
        }
      ],
      "name": "setPlatformFee",
      "outputs": [],
      "stateMutability": "nonpayable",
      "type": "function"
    },
    {
      "inputs": [
        {
          "internalType": "address",
          "name": "_treasury",
          "type": "address"
        }
      ],
      "name": "setPlatformTreasury",
      "outputs": [],
      "stateMutability": "nonpayable",
      "type": "function"
    },
    {
      "inputs": [
        {
          "internalType": "uint8",
          "name": "section",
          "type": "uint8"
        },
        {
          "internalType": "bool",
          "name": "paused",
          "type": "bool"
        }
      ],
      "name": "setSectionPaused",
      "outputs": [],
      "stateMutability": "nonpayable",
      "type": "function"
    },
    {
      "inputs": [
        {
          "internalType": "bytes4",
          "name": "interfaceId",
          "type": "bytes4"
        }
      ],
      "name": "supportsInterface",
      "outputs": [
        {
          "internalType": "bool",
          "name": "",
          "type": "bool"
        }
      ],
      "stateMutability": "view",
      "type": "function"
    },
    {
      "inputs": [],
      "name": "symbol",
      "outputs": [
        {
          "internalType": "string",
          "name": "",
          "type": "string"
        }
      ],
      "stateMutability": "view",
      "type": "function"
    },
    {
      "inputs": [
        {
          "internalType": "uint256",
          "name": "tokenId",
          "type": "uint256"
        },
        {
          "internalType": "bool",
          "name": "like",
          "type": "bool"
        }
      ],
      "name": "toggleLike",
      "outputs": [],
      "stateMutability": "nonpayable",
      "type": "function"
    },
    {
      "inputs": [
        {
          "internalType": "uint256",
          "name": "tokenId",
          "type": "uint256"
        }
      ],
      "name": "tokenURI",
      "outputs": [
        {
          "internalType": "string",
          "name": "",
          "type": "string"
        }
      ],
      "stateMutability": "view",
      "type": "function"
    },
    {
      "inputs": [
        {
          "internalType": "address",
          "name": "from",
          "type": "address"
        },
        {
          "internalType": "address",
          "name": "to",
          "type": "address"
        },
        {
          "internalType": "uint256",
          "name": "tokenId",
          "type": "uint256"
        }
      ],
      "name": "transferFrom",
      "outputs": [],
      "stateMutability": "nonpayable",
      "type": "function"
    },
    {
      "inputs": [
        {
          "internalType": "uint256",
          "name": "tokenId",
          "type": "uint256"
        }
      ],
      "name": "unlistedToken",
      "outputs": [],
      "stateMutability": "nonpayable",
      "type": "function"
    },
    {
      "inputs": [],
      "name": "unpause",
      "outputs": [],
      "stateMutability": "nonpayable",
      "type": "function"
    },
    {
      "inputs": [
        {
          "internalType": "uint256",
          "name": "tokenId",
          "type": "uint256"
        },
        {
          "internalType": "uint256",
          "name": "newPrice",
          "type": "uint256"
        }
      ],
      "name": "updatePrice",
      "outputs": [],
      "stateMutability": "nonpayable",
      "type": "function"
    },
    {
      "inputs": [],
      "name": "withdrawPlatformFees",
      "outputs": [],
      "stateMutability": "nonpayable",
      "type": "function"
    }
  ],
  "bytecode": "0x60c06040523461052557604051610017604082610529565b600a8152694e75766f73204e46547360b01b602082015260405161003c604082610529565b60048152634e46542b60e01b602082015281516001600160401b03811161043857600254600181811c9116801561051b575b602082101461041a57601f81116104b8575b50602092601f821160011461045757928192935f9261044c575b50508160011b915f199060031b1c1916176002555b80516001600160401b03811161043857600354600181811c9116801561042e575b602082101461041a57601f81116103b7575b50602091601f8211600114610357579181925f9261034c575b50508160011b915f199060031b1c1916176003555b6001600955600a805460ff191690557fa49807205ce4d355092ef5a8a18f56e8913cf4a201fbe287825b095693c217756080527f71f3d55856e4058ed06ee057d79ada615f65cdf5f9ee88181b914225088f834f60a0526005600f55601080546001600160601b03191660fa179055335f9081525f516020614bd25f395f51905f52602052604090205460ff161561030f575b6101af3360805161054c565b6101bb3360a05161054c565b600e80546001600160a01b03191633179055604080516101f4916101df9082610529565b6003815262185c9d60ea1b60208201526105be565b610222604051610205604082610529565b600b81526a70686f746f67726170687960a81b60208201526105be565b61024a604051610233604082610529565b60058152646d7573696360d81b60208201526105be565b61027260405161025b604082610529565b6005815264766964656f60d81b60208201526105be565b6102a1604051610283604082610529565b600c81526b636f6c6c65637469626c657360a01b60208201526105be565b60405161453290816106808239608051818181610871015281816109a40152818161180101528181611949015281816119da01528181611b8801528181612496015281816125fb015281816126cc0152612bec015260a0518181816104ae0152818161077501526119a00152f35b335f8181525f516020614bd25f395f51905f5260205260408120805460ff1916600117905581905f516020614bb25f395f51905f528180a46101a3565b015190505f806100fb565b601f1982169260035f52805f20915f5b85811061039f57508360019510610387575b505050811b01600355610110565b01515f1960f88460031b161c191690555f8080610379565b91926020600181928685015181550194019201610367565b60035f527fc2575a0e9e593c00f959f8c92f12db2869c3395a3b0502d05e2516446f71f85b601f830160051c81019160208410610410575b601f0160051c01905b81811061040557506100e2565b5f81556001016103f8565b90915081906103ef565b634e487b7160e01b5f52602260045260245ffd5b90607f16906100d0565b634e487b7160e01b5f52604160045260245ffd5b015190505f8061009a565b601f1982169360025f52805f20915f5b8681106104a05750836001959610610488575b505050811b016002556100af565b01515f1960f88460031b161c191690555f808061047a565b91926020600181928685015181550194019201610467565b60025f527f405787fa12a823e0f2b7631cc41b3ba8828b3321ca811111fa75cd3aa3bb5ace601f830160051c81019160208410610511575b601f0160051c01905b8181106105065750610080565b5f81556001016104f9565b90915081906104f0565b90607f169061006e565b5f80fd5b601f909101601f19168101906001600160401b0382119082101761043857604052565b805f52600b60205260405f2060018060a01b0383165f5260205260ff60405f20541615610577575050565b5f818152600b602090815260408083206001600160a01b0395909516808452949091528120805460ff19166001179055339291905f516020614bb25f395f51905f529080a4565b80511561067057604051602081018251916105f3602082818701958087875e81015f838201520301601f198101835282610529565b519020805f52601860205260ff60405f205416610670577f3735abe6d37d9ef031373b241641b39aa1b4bd92a1123b14abe463f461ac5dca926040915f526018602052815f20600160ff198254161790558151928391602083525180918160208501528484015e5f828201840152601f01601f19168101030190a1565b63b4fa3fb360e01b5f5260045ffdfe6080806040526004361015610012575f80fd5b5f3560e01c90816301ffc9a714612e635750806306fdde0314612dbe578063081812fc14612da0578063095ea7b314612c1d57806312e8e2c314612bd3578063139d832514612bad57806323b872dd14612b89578063248a9ca314612b565780632a55205a14612b225780632d296bf1146128765780632f2ff15d146127ba57806336568abe1461271a57806339a7846c146126a35780633f4ba83a146125e6578063402f0fa01461257557806342842e0e146125415780634579268a146124d4578063537df3b61461246d578063578eaf44146121045780635c975abb146120e2578063602dcf2914611e705780636349471e14611e555780636352211e14611e265780636818ba1d14611c015780636ff1c9bc14611b5e57806370a0823114611ab557806370bb609a146119fd57806375b238fc146119c3578063797669c9146119895780637cd86d601461192357806382367b2d146118665780638456cb59146117ec57806388b10c751461173c57806391d14854146116f257806395d89b4114611628578063a160a5df146115db578063a217fddf146115c1578063a22cb465146114ee578063aa7e568314611237578063ad9f20a61461063d578063b2cc52191461103f578063b70d475014611008578063b88d4fde14610f82578063c815729d14610d0b578063c87b56dd14610cd8578063cdd78cfc14610cbb578063ce2ecf4614610a1a578063cfdbf254146109ff578063d0b7830b1461098f578063d547741f1461094c578063d5c71275146108c2578063d6948b7514610847578063df901d511461072e578063e0990c5a14610668578063e138818c14610642578063e4c9adf61461063d578063e985e9c5146105e4578063ef706adf146104ef578063f3290d75146104855763f3eb744e146102b0575f80fd5b34610481576040366003190112610481576004356102cc612fcc565b6102d461395d565b335f52601760205260ff60405f20541661047257610306825f5260046020526001600160a01b0360405f205416151590565b1561046357815f52601360205260405f20908080610441575b156103a857506001600160a01b0333165f526001810160205260405f20600160ff1982541617905580545f19811461039457600101908190556040805133815260208101929092527feea8a105c4c7b3434e7353965670d0156bb0797cfa2e136aa6e7bdb22a053b719190819081015b0390a2005b634e487b7160e01b5f52601160045260245ffd5b1580610420575b6103b6575b005b61038f7f2d91c40ad0ad3d0d104a8013aaac58b5a45744f29824426c711330de63a9404b916001600160a01b0333165f526001810160205260405f2060ff19815416905561040481546134b3565b9081905560408051338152602081019290925290918291820190565b506001600160a01b0333165f526001810160205260ff60405f2054166103af565b506001600160a01b0333165f526001820160205260ff60405f2054161561031f565b63677510db60e11b5f5260045ffd5b632652747360e21b5f5260045ffd5b5f80fd5b34610481576020366003190112610481576103b46001600160a01b036104a9612f40565b6104d27f00000000000000000000000000000000000000000000000000000000000000006134bf565b16805f52601760205260405f20600160ff19825416179055614222565b346104815760203660031901126104815760043561050b613907565b61051361395d565b805f52601560205260405f20600481019081549060ff8260a01c16156105d557336001600160a01b038316036105c7575f8093926001600160a01b03829460018560ff60a01b196002879801549516835501548452601b60205261057a8860408620614171565b5054165af1610587613484565b50156105b8577fc28b4aed030bfacc245c0501326e1beb8c0ef0d60e4edc21067fdeb52da2a7aa5f80a26001600955005b6312171d8360e31b5f5260045ffd5b6282b42960e81b5f5260045ffd5b634d80826b60e11b5f5260045ffd5b34610481576040366003190112610481576105fd612f40565b6001600160a01b0361060d612f56565b91165f5260076020526001600160a01b0360405f2091165f52602052602060ff60405f2054166040519015158152f35b61303c565b34610481575f3660031901126104815760206001600160a01b03600e5416604051908152f35b346104815760203660031901126104815760043561068461395d565b335f52601760205260ff60405f205416610472576106b6815f5260046020526001600160a01b0360405f205416151590565b1561046357805f52601260205260405f20336001600160a01b036106d9846133ea565b16036105c757600401805460ff8160a01c161561071f5760ff60a01b191690557fe0bba5d0bdeddbcc4ef688b9d8170c81883fb4c4a7065d8970c58b47996dd2d75f80a2005b63037eff1360e21b5f5260045ffd5b346104815760203660031901126104815760043567ffffffffffffffff81116104815736602382011215610481576107709036906024816004013591016130c8565b6107997f00000000000000000000000000000000000000000000000000000000000000006134bf565b8051156108385760405160208101906107cc602082855180838801875e81015f838201520301601f19810183528261308a565b519020805f52601860205260ff60405f205416610838577f3735abe6d37d9ef031373b241641b39aa1b4bd92a1123b14abe463f461ac5dca91610833915f52601860205260405f20600160ff19825416179055604051918291602083526020830190612f1c565b0390a1005b63b4fa3fb360e01b5f5260045ffd5b34610481576020366003190112610481576004356001600160601b038116809103610481576108957f00000000000000000000000000000000000000000000000000000000000000006134bf565b6103e881116108b3576001600160601b031960105416176010555f80f35b63c2b03beb60e01b5f5260045ffd5b34610481576020366003190112610481576001600160a01b036108e3612f40565b165f52601a60205260405f206040519081602082549182815201915f5260205f20905f5b818110610936576109328561091e8187038261308a565b604051918291602083526020830190613009565b0390f35b8254845260209093019260019283019201610907565b34610481576040366003190112610481576103b460043561096b612f56565b9061098a610985825f52600b602052600160405f20015490565b6134bf565b613b4f565b34610481575f366003190112610481576109c87f00000000000000000000000000000000000000000000000000000000000000006134bf565b6109d0613907565b478015610838575f808080936001600160a01b03600e54165af16109f2613484565b50156105b8576001600955005b34610481575f36600319011261048157602060405160148152f35b346104815760803660031901126104815760043567ffffffffffffffff811161048157610a4b903690600401612fdb565b9060243567ffffffffffffffff811161048157610a6c903690600401612fdb565b91610a75613058565b93606435610a8161395d565b60035f5260116020527f9bfbaa59f8e10e7868f8b402de9d605a390c45ddaebd8c9de3c6f31e733c87ff5460ff16610cac57335f52601760205260ff60405f20541661047257610ad23686866130c8565b604051610afe6020828180820195805191829101875e81015f838201520301601f19810183528261308a565b5190205f52601860205260ff60405f20541615610c9d578115610838576001600160601b038616956103e887116108b35781158015610c92575b61083857610b4582613425565b9615610c80575b335f5b838110610c08578888610b6f89610b67368a8c6130c8565b9236916130c8565b82516103e8811115610c0257506103e8915b5f5b838110610ba0576040516020808252819061093290820188613009565b80610bad60019287613470565b5160405190604082527f6ba4530d5d6ba1c70cd3ba604c4bb87dcdcd3a32b216cc8e9ee4083db04be513610be46040840187612f1c565b92808403602082015280610bf933958a612f1c565b0390a301610b83565b91610b81565b60019081600c540180600c55610c1f853383613bd3565b610c298133613cec565b610c3d610c3736898b6130c8565b82613dfe565b805f52601960205260405f20846001600160a01b0319825416179055335f52601a602052610c6e8160405f2061427c565b50610c79828c613470565b5201610b4f565b506001600160601b0360105416610b4c565b506103e88211610b38565b6347ab1f8160e11b5f5260045ffd5b630df56d4f60e21b5f5260045ffd5b34610481575f366003190112610481576020600f54604051908152f35b3461048157602036600319011261048157610932610cf7600435614065565b604051918291602083526020830190612f1c565b3461048157602036600319011261048157600435610d27613907565b610d2f61395d565b60025f5260116020527f08037d7b151cc412d25674a4e66b334d9ae9d2e5517a7feaae5cdb828bf1c6285460ff16610cac57335f52601760205260ff60405f20541661047257805f52601560205260405f2090600482019182549260ff8460a01c16156105d557600382015442101561083857600182015493336001600160a01b03610dba876133ea565b16036105c7575f808060026001600160a01b0382951696015494610e236064610de5600f5489613286565b0480610f67575b83908b855260196020526001600160a01b036040862054168015159081610f5c575b50610ecc575b610e1e908961333b565b61333b565b90898352601260205260ff600460408520015460a01c16610ead575b60ff60a01b198154169055610e53896139cb565b610e5e8988336137ed565b335af1610e69613484565b50156105b8577f537afea1137614386dde2e3f3f603a09e8ba6fbcd0a9d59b286a6f7e5fc93848916060916040519133835260208301526040820152a36001600955005b89835260126020526004604084200160ff60a01b198154169055610e3f565b9050610e1e610edb898d613299565b8d81949282151580610f4a575b610ef7575b5050509050610e14565b6001600160a01b0316918880808084875af1610f11613484565b5015610eed5760207ff670029fc6f5302baba881b4ae845d1453acdf752b4c19ed81fe0fa6a686409b91604051908152a38d8d81610eed565b506001600160a01b0381161515610ee8565b90503314158d610e0e565b610f7c816001600160a01b03600e54166139ae565b50610dec565b3461048157608036600319011261048157610f9b612f40565b610fa3612f56565b906064359060443567ffffffffffffffff83116104815736602384011215610481576103b493610fe06110039436906024816004013591016130c8565b92610ff3610fee8433613711565b613214565b610ffe8383836137ed565b614447565b613ff3565b346104815760203660031901126104815760ff611023612fbc565b165f526011602052602060ff60405f2054166040519015158152f35b346104815760603660031901126104815760043567ffffffffffffffff811161048157611070903690600401612fdb565b9060243567ffffffffffffffff811161048157611091903690600401612fdb565b9161109a613058565b926110a361395d565b60035f5260116020527f9bfbaa59f8e10e7868f8b402de9d605a390c45ddaebd8c9de3c6f31e733c87ff5460ff16610cac57335f52601760205260ff60405f205416610472576110f43682856130c8565b6040516111206020828180820195805191829101875e81015f838201520301601f19810183528261308a565b5190205f52601860205260ff60405f20541615610c9d578415610838576001600160601b038416916103e883116108b3576020956112177f6ba4530d5d6ba1c70cd3ba604c4bb87dcdcd3a32b216cc8e9ee4083db04be513936001600c540197889687600c5515155f146112225761119a905b3388613bd3565b6111a48633613cec565b6111b86111b23685876130c8565b87613dfe565b855f526019895260405f206001600160a01b0333166001600160a01b0319825416179055335f52601a89526111f08660405f2061427c565b50611208604051948594604086526040860191613348565b908382038a8501523397613348565b0390a3604051908152f35b5061119a6001600160601b0360105416611193565b346104815760403660031901126104815760043560243567ffffffffffffffff81116104815761126b903690600401612fdb565b919061127561395d565b335f52601760205260ff60405f205416610472576112a7825f5260046020526001600160a01b0360405f205416151590565b1561046357821580156114e3575b61083857604051926060840184811067ffffffffffffffff8211176114bc576040523384526112e53682846130c8565b936020810194855260408101428152845f52601460205260405f208054680100000000000000008110156114bc5761132291600182018155613457565b9290926114d0576001600160a01b0380915116166001600160a01b031983541617825560018201955195865167ffffffffffffffff81116114bc5761136782546130fe565b601f8111611477575b506020601f82116001146113ef57908060029493927fcc2d7dd2085ae6644799a42c0174adf9afc10a43f26db5eac3ddd1f96d1d64be999a5f926113e4575b50508160011b915f199060031b1c19161790555b5191015561038f604051928392338452604060208501526040840191613348565b015190508a806113af565b601f19821698835f52815f20995f5b81811061145f575099600192849260029796957fcc2d7dd2085ae6644799a42c0174adf9afc10a43f26db5eac3ddd1f96d1d64be9c9d10611447575b505050811b0190556113c3565b01515f1960f88460031b161c191690558a808061143a565b838301518c556001909b019a602093840193016113fe565b825f5260205f20601f830160051c810191602084106114b2575b601f0160051c01905b8181106114a75750611370565b5f815560010161149a565b9091508190611491565b634e487b7160e01b5f52604160045260245ffd5b634e487b7160e01b5f525f60045260245ffd5b5061011883116112b5565b3461048157604036600319011261048157611507612f40565b6001600160a01b03611517612fcc565b91169081331461157c57335f52600760205260405f20825f5260205261154c8160405f209060ff801983541691151516179055565b60405190151581527f17307eab39ab6107e8899845ad3d59bd9653f200f220920489ca2b5937696c3160203392a3005b60405162461bcd60e51b815260206004820152601960248201527f4552433732313a20617070726f766520746f2063616c6c6572000000000000006044820152606490fd5b34610481575f3660031901126104815760206040515f8152f35b346104815760203660031901126104815760043561160d815f5260046020526001600160a01b0360405f205416151590565b15610463575f526013602052602060405f2054604051908152f35b34610481575f366003190112610481576040515f600354611648816130fe565b80845290600181169081156116ce5750600114611670575b61093283610cf78185038261308a565b60035f9081527fc2575a0e9e593c00f959f8c92f12db2869c3395a3b0502d05e2516446f71f85b939250905b8082106116b457509091508101602001610cf7611660565b91926001816020925483858801015201910190929161169c565b60ff191660208086019190915291151560051b84019091019150610cf79050611660565b346104815760403660031901126104815761170b612f56565b6004355f52600b6020526001600160a01b0360405f2091165f52602052602060ff60405f2054166040519015158152f35b346104815760203660031901126104815760043561175861395d565b335f52601760205260ff60405f20541661047257805f52601560205260405f206004810180549160ff8360a01c16156105d5576001015491336001600160a01b036117a2856133ea565b16036105c75760ff60a01b191690555f52601b6020526117c58160405f20614171565b507facb9cd98d41dc8854281172ab2a764d949b62b51776edd911f85376ed2eca64b5f80a2005b34610481575f366003190112610481576118257f00000000000000000000000000000000000000000000000000000000000000006134bf565b61182d61395d565b600160ff19600a541617600a557f62e78cea01bee320cd4e420270b5ea74000d11b0c9f74754ebdbfc544b05a2586020604051338152a1005b346104815761187436612fa6565b61187c61395d565b335f52601760205260ff60405f205416610472576118ae825f5260046020526001600160a01b0360405f205416151590565b1561046357815f52601260205260405f20336001600160a01b036118d1856133ea565b16036105c75760ff600482015460a01c161561071f576103e8821061083857817fd9cc159fa79112d02593601db522a6696e6c5c82d9e9ca9332f89ec824935bb09260016020930155604051908152a2005b34610481576020366003190112610481576001600160a01b03611944612f40565b61196d7f00000000000000000000000000000000000000000000000000000000000000006134bf565b168015610838576001600160a01b0319600e541617600e555f80f35b34610481575f3660031901126104815760206040517f00000000000000000000000000000000000000000000000000000000000000008152f35b34610481575f3660031901126104815760206040517f00000000000000000000000000000000000000000000000000000000000000008152f35b3461048157602036600319011261048157600435611a2f815f5260046020526001600160a01b0360405f205416151590565b15610463575f52601260205260405f2080546109326001600160a01b036003840154169260048101549060ff600182015492611a72600560028501549401613136565b93604051978897885260208801526001600160a01b0382166040880152606087015260a01c161515608085015260a084015260e060c084015260e0830190612f1c565b34610481576020366003190112610481576001600160a01b03611ad6612f40565b168015611af3575f526005602052602060405f2054604051908152f35b60405162461bcd60e51b815260206004820152602960248201527f4552433732313a2061646472657373207a65726f206973206e6f74206120766160448201527f6c6964206f776e657200000000000000000000000000000000000000000000006064820152608490fd5b34610481576020366003190112610481576004356001600160a01b03811680910361048157611bac7f00000000000000000000000000000000000000000000000000000000000000006134bf565b611bb4613907565b80156108385747908115610838575f80809381937f23d6711a1d031134a36921253c75aa59e967d38e369ac625992824315e204f2060408051838152846020820152a15af16109f2613484565b346104815760603660031901126104815760043560243590611c37815f5260046020526001600160a01b0360405f205416151590565b15610463575f52601460205260405f2090611c6b81611c5860443582613368565b8454808211611e1e575b5093929361333b565b90611c758261340d565b90611c83604051928361308a565b828252611c8f8361340d565b602083019390601f1901368537611ca58161340d565b91611cb3604051938461308a565b818352601f19611cc28361340d565b015f5b818110611e0b575050611cd782613425565b955f5b838110611d9c5750505050604051938492606084019060608552518091526080840194905f5b818110611d7a575050508284036020840152815180855260208501946020808360051b8301019401955f915b838310611d4757868061093288888382036040850152613009565b919395509193602080611d66600193601f198682030187528a51612f1c565b980193019301909287959396949296611d2c565b82516001600160a01b0316875260209687019688965090920191600101611d00565b806002611dba611db4600194869c9a9c9b999b613368565b86613457565b506001600160a01b03815416611dd0848d613470565b52611ddc848201613136565b611de6848c613470565b52611df1838b613470565b500154611dfe8289613470565b5201969496959395611cda565b6060602082870181019190915201611cc5565b905085611c62565b34610481576020366003190112610481576020611e446004356133ea565b6001600160a01b0360405191168152f35b34610481575f36600319011261048157602060405160328152f35b60403660031901126104815760043560243560ff811680910361048157611e95613907565b611e9d61395d565b60025f5260116020527f08037d7b151cc412d25674a4e66b334d9ae9d2e5517a7feaae5cdb828bf1c6285460ff16610cac57335f52601760205260ff60405f20541661047257611f01825f5260046020526001600160a01b0360405f205416151590565b15610463576103e834111561083857801580156120d8575b61083857336001600160a01b03611f2f846133ea565b161461083857815f52601b602052603260405f205410156120c957620151800262ffffff811690810361039457611f669042613368565b906001600d540180600d5560405160c081019080821067ffffffffffffffff8311176114bc5761201c91604052828152602081018481526001600160a01b038060046040850194348652606081018a8152608082019633885260a0830196600188528a5f52601560205260405f209351845551600184015551600283015551600382015501935116166001600160a01b031983541617825551151560ff60a01b1960ff60a01b835492151560a01b169116179055565b815f52601660205260405f206001600160a01b0333165f5260205260405f208054680100000000000000008110156114bc57612062818493600161207894018155613375565b819391549060031b91821b915f19901b19161790565b9055815f52601b60205261208f8160405f2061427c565b506040519234845260208401527f8bdb6541b99259f92b7d7c61d0f892fdd62042bd96c57fca917a3553af72b27060403394a46001600955005b63cd08663960e01b5f5260045ffd5b50601e8111611f19565b34610481575f36600319011261048157602060ff600a54166040519015158152f35b346104815760603660031901126104815760243560043560443567ffffffffffffffff81116104815761213b903690600401612fdb565b919061214561395d565b5f805260116020527f4ad3b33220dddc71b994a52d72c06b10862965f7d926534c05c00fb7e819e7b75460ff16610cac57335f52601760205260ff60405f205416610472576121a8825f5260046020526001600160a01b0360405f205416151590565b15610463576121b83684836130c8565b6040516121e46020828180820195805191829101875e81015f838201520301601f19810183528261308a565b5190205f52601860205260ff60405f20541615610c9d57336001600160a01b0361220d846133ea565b16036105c7576103e88410610838576040519360e0850185811067ffffffffffffffff8211176114bc57604052828552600560208601958287526122fe6040820142815260608301903382526001600160a01b03608085019233845260a08601926001845261227d368d8c6130c8565b9c60c088019d8e528b5f52601260205260405f209751885551600188015551600287015551166001600160a01b036003860191166001600160a01b03198254161790556001600160a01b038060048601935116166001600160a01b031983541617825551151560ff60a01b1960ff60a01b835492151560a01b169116179055565b01945194855167ffffffffffffffff81116114bc5761231d82546130fe565b601f8111612428575b506020601f82116001146123a35781907f0504f02e56fa83645f2ed13b141a022acf7376b2278ba8f333da09dd0eda278b9697985f92612398575b50508160011b915f199060031b1c19161790555b61239360405192839283526040602084015233966040840191613348565b0390a3005b015190508880612361565b601f19821697835f52815f20985f5b8181106124105750917f0504f02e56fa83645f2ed13b141a022acf7376b2278ba8f333da09dd0eda278b979899918460019594106123f8575b505050811b019055612375565b01515f1960f88460031b161c191690558880806123eb565b838301518b556001909a0199602093840193016123b2565b825f5260205f20601f830160051c81019160208410612463575b601f0160051c01905b8181106124585750612326565b5f815560010161244b565b9091508190612442565b34610481576020366003190112610481576103b46001600160a01b03612491612f40565b6124ba7f00000000000000000000000000000000000000000000000000000000000000006134bf565b16805f52601760205260405f2060ff1981541690556140ac565b34610481576020366003190112610481576004355f52601560205260c060405f2060ff8154916001810154600482015491600360028201549101549160405195865260208601526001600160a01b03831660408601526060850152608084015260a01c16151560a0820152f35b34610481576103b461100361255536612f6c565b906040519261256560208561308a565b5f8452610ff3610fee8433613711565b3461048157604036600319011261048157600435612591612f56565b906125b0815f5260046020526001600160a01b0360405f205416151590565b15610463575f5260136020526001600160a01b03600160405f200191165f52602052602060ff60405f2054166040519015158152f35b34610481575f3660031901126104815761261f7f00000000000000000000000000000000000000000000000000000000000000006134bf565b600a5460ff81161561265e5760ff1916600a557f5db9ee0a495bf2e6ff9c91a7834c1ba4fdd244a5e8aa4e537bd38aeae4b073aa6020604051338152a1005b60405162461bcd60e51b815260206004820152601460248201527f5061757361626c653a206e6f74207061757365640000000000000000000000006044820152606490fd5b34610481576040366003190112610481576126bc612fbc565b60ff6126c6612fcc565b916126f07f00000000000000000000000000000000000000000000000000000000000000006134bf565b169060038211610838576103b4915f52601160205260405f209060ff801983541691151516179055565b3461048157604036600319011261048157612733612f56565b336001600160a01b0382160361274f576103b490600435613b4f565b60405162461bcd60e51b815260206004820152602f60248201527f416363657373436f6e74726f6c3a2063616e206f6e6c792072656e6f756e636560448201527f20726f6c657320666f722073656c6600000000000000000000000000000000006064820152608490fd5b34610481576040366003190112610481576004356127d6612f56565b906127f0610985825f52600b602052600160405f20015490565b805f52600b60205260405f206001600160a01b0383165f5260205260ff60405f2054161561281a57005b805f52600b60205260405f206001600160a01b0383165f5260205260405f20600160ff198254161790556001600160a01b03339216907f2f8788117e7eff1d82e926ec794901d17c78024a50270940304540a733656f0d5f80a4005b60203660031901126104815760043561288d613907565b61289561395d565b60015f5260116020527f17bc176d2408558f6e4111feebc3cab4e16b63e967be91cde721f4c8a488b5525460ff16610cac57335f52601760205260ff60405f205416610472576128f9815f5260046020526001600160a01b0360405f205416151590565b1561046357805f52601260205260405f2090600482019060ff825460a01c161561071f57600183015492833410612b13576003016001600160a01b0381541692338414610838575f80809381936129926064612957600f548c613286565b0480612af8575b849089865260196020526001600160a01b036040872054168b8115159182612aed575b5050612a5d575b610e1e908c61333b565b916001600160a01b0333166001600160a01b03198354161782556001600160a01b0333166001600160a01b031982541617905560ff60a01b1981541690556129d9866139cb565b6129e48633896137ed565b865af16129ef613484565b50156105b857823411612a30575b6040519283527f3d5eb834b5d6cadc063c171c3f25f60bca8ea892ba9db25342278927d0af955660203394a46001600955005b5f808080612a3e873461333b565b335af1612a49613484565b506129fd576312171d8360e31b5f5260045ffd5b9050610e1e612a6c8c8b613299565b8b81949282151580612adb575b612a88575b5050509050612988565b6001600160a01b0316918980808084875af1612aa2613484565b5015612a7e5760207ff670029fc6f5302baba881b4ae845d1453acdf752b4c19ed81fe0fa6a686409b91604051908152a38d8b81612a7e565b506001600160a01b0381161515612a79565b141590508b8e612981565b612b0d816001600160a01b03600e54166139ae565b5061295e565b63356680b760e01b5f5260045ffd5b3461048157612b39612b3336612fa6565b90613299565b604080516001600160a01b03939093168352602083019190915290f35b34610481576020366003190112610481576020612b816004355f52600b602052600160405f20015490565b604051908152f35b34610481576103b4612b9a36612f6c565b91612ba8610fee8433613711565b6137ed565b34610481575f3660031901126104815760206001600160601b0360105416604051908152f35b3461048157602036600319011261048157600435612c107f00000000000000000000000000000000000000000000000000000000000000006134bf565b600a811161083857600f55005b3461048157604036600319011261048157612c36612f40565b602435906001600160a01b0380612c4c846133ea565b16911690808214612d5157803314908115612d27575b5015612cbc57815f52600660205260405f20816001600160a01b03198254161790556001600160a01b03612c95836133ea565b167f8c5be1e5ebec7d5bd14f71427d1e84f3dd0314c0f7b2291e5b200ac8c7c3b9255f80a4005b60405162461bcd60e51b815260206004820152603d60248201527f4552433732313a20617070726f76652063616c6c6572206973206e6f7420746f60448201527f6b656e206f776e6572206f7220617070726f76656420666f7220616c6c0000006064820152608490fd5b90505f52600760205260405f206001600160a01b0333165f5260205260ff60405f20541683612c62565b60405162461bcd60e51b815260206004820152602160248201527f4552433732313a20617070726f76616c20746f2063757272656e74206f776e656044820152603960f91b6064820152608490fd5b34610481576020366003190112610481576020611e446004356131d6565b34610481575f366003190112610481576040515f600254612dde816130fe565b80845290600181169081156116ce5750600114612e055761093283610cf78185038261308a565b60025f9081527f405787fa12a823e0f2b7631cc41b3ba8828b3321ca811111fa75cd3aa3bb5ace939250905b808210612e4957509091508101602001610cf7611660565b919260018160209254838588010152019101909291612e31565b34610481576020366003190112610481576004359063ffffffff60e01b821680920361048157602091637965db0b60e01b8114908115612ea5575b5015158152f35b632483248360e11b811491508115612ebf575b5083612e9e565b6380ac58cd60e01b811491508115612f0b575b8115612ee0575b5083612eb8565b63152a902d60e11b811491508115612efa575b5083612ed9565b6301ffc9a760e01b14905083612ef3565b635b5e139f60e01b81149150612ed2565b805180835260209291819084018484015e5f828201840152601f01601f1916010190565b600435906001600160a01b038216820361048157565b602435906001600160a01b038216820361048157565b6060906003190112610481576004356001600160a01b038116810361048157906024356001600160a01b0381168103610481579060443590565b6040906003190112610481576004359060243590565b6004359060ff8216820361048157565b60243590811515820361048157565b9181601f840112156104815782359167ffffffffffffffff8311610481576020838186019501011161048157565b90602080835192838152019201905f5b8181106130265750505090565b8251845260209384019390920191600101613019565b34610481575f3660031901126104815760206040516103e88152f35b604435906001600160601b038216820361048157565b6040810190811067ffffffffffffffff8211176114bc57604052565b90601f8019910116810190811067ffffffffffffffff8211176114bc57604052565b67ffffffffffffffff81116114bc57601f01601f191660200190565b9291926130d4826130ac565b916130e2604051938461308a565b829481845281830111610481578281602093845f960137010152565b90600182811c9216801561312c575b602083101461311857565b634e487b7160e01b5f52602260045260245ffd5b91607f169161310d565b9060405191825f825492613149846130fe565b80845293600181169081156131b45750600114613170575b5061316e9250038361308a565b565b90505f9291925260205f20905f915b81831061319857505090602061316e928201015f613161565b602091935080600191548385890101520191019091849261317f565b90506020925061316e94915060ff191682840152151560051b8201015f613161565b6131fc6131f7825f5260046020526001600160a01b0360405f205416151590565b61339e565b5f5260066020526001600160a01b0360405f20541690565b1561321b57565b60405162461bcd60e51b815260206004820152602d60248201527f4552433732313a2063616c6c6572206973206e6f7420746f6b656e206f776e6560448201527f72206f7220617070726f766564000000000000000000000000000000000000006064820152608490fd5b8181029291811591840414171561039457565b9190915f52600160205260405f2091604051926132b58461306e565b546001600160a01b038116845260a01c60208401526001600160a01b0383511615613306575b6127106132fe6001600160a01b03926001600160601b0360208701511690613286565b049251169190565b91506001600160a01b036127106132fe6040516133228161306e565b5f54848116825260a01c602082015294925050506132db565b9190820391821161039457565b908060209392818452848401375f828201840152601f01601f1916010190565b9190820180921161039457565b805482101561338a575f5260205f2001905f90565b634e487b7160e01b5f52603260045260245ffd5b156133a557565b60405162461bcd60e51b815260206004820152601860248201527f4552433732313a20696e76616c696420746f6b656e20494400000000000000006044820152606490fd5b5f5260046020526001600160a01b0360405f20541661340a81151561339e565b90565b67ffffffffffffffff81116114bc5760051b60200190565b9061342f8261340d565b61343c604051918261308a565b828152809261344d601f199161340d565b0190602036910137565b805482101561338a575f52600360205f20910201905f90565b805182101561338a5760209160051b010190565b3d156134ae573d90613495826130ac565b916134a3604051938461308a565b82523d5f602084013e565b606090565b8015610394575f190190565b805f52600b60205260405f206001600160a01b0333165f5260205260ff60405f205416156134ea5750565b336134f5602a6130ac565b91613503604051938461308a565b602a8352613511602a6130ac565b602084019290601f190136843783511561338a576030835383516001101561338a576078602185015360295b600181116136da57506136555761355460426130ac565b90613562604051928361308a565b6042825261357060426130ac565b602083019190601f190136833782511561338a576030825382516001101561338a576078602184015360415b600181116136995750613655576136519360376011928461363195506040519687947f416363657373436f6e74726f6c3a206163636f756e742000000000000000000060208701525180918587015e8401907f206973206d697373696e6720726f6c652000000000000000000000000000000084830152518092604883015e01015f838201520301601f19810183528261308a565b60405162461bcd60e51b8152602060048201529182916024830190612f1c565b0390fd5b606460405162461bcd60e51b815260206004820152602060248201527f537472696e67733a20686578206c656e67746820696e73756666696369656e746044820152fd5b90600f811690601082101561338a576f181899199a1a9b1b9c1cb0b131b232b360811b6136d5921a6136cb848761449f565b5360041c916134b3565b61359c565b90600f811690601082101561338a576f181899199a1a9b1b9c1cb0b131b232b360811b61370c921a6136cb848861449f565b61353d565b906001600160a01b0380613724836133ea565b16921690828214928315613758575b50821561373f57505090565b6001600160a01b03919250613753906131d6565b161490565b9092505f52600760205260405f20815f5260205260ff60405f205416915f613733565b1561378257565b60405162461bcd60e51b815260206004820152602560248201527f4552433732313a207472616e736665722066726f6d20696e636f72726563742060448201527f6f776e65720000000000000000000000000000000000000000000000000000006064820152608490fd5b6001600160a01b0391613810839283613805876133ea565b91169416841461377b565b169081156138b657613834816001600160a01b0361382d866133ea565b161461377b565b825f52600660205260405f206001600160a01b03198154169055805f52600560205260405f205f198154019055815f52600560205260405f2060018154019055825f52600460205260405f20826001600160a01b03198254161790557fddf252ad1be2c89b69c2b068fc378daa952ba7f163c4a11628f55a4df523b3ef5f80a4565b60405162461bcd60e51b8152602060048201526024808201527f4552433732313a207472616e7366657220746f20746865207a65726f206164646044820152637265737360e01b6064820152608490fd5b600260095414613918576002600955565b60405162461bcd60e51b815260206004820152601f60248201527f5265656e7472616e637947756172643a207265656e7472616e742063616c6c006044820152606490fd5b60ff600a541661396957565b60405162461bcd60e51b815260206004820152601060248201527f5061757361626c653a20706175736564000000000000000000000000000000006044820152606490fd5b5f8080936001600160a01b038294165af16139c7613484565b5090565b90815f52601b60205260405f2091604051808460208296549384815201905f5260205f20925f5b818110613b36575050613a079250038461308a565b60328351116120c9575f5b8351811015613aef5780613a2860019286613470565b515f52601560205260405f206004810180549060ff8260a01c16613a50575b50505001613a12565b60ff60a01b19821681555f80808060028701956001600160a01b03875491165af1613a79613484565b5015613aaf575050547fc28b4aed030bfacc245c0501326e1beb8c0ef0d60e4edc21067fdeb52da2a7aa5f80a25b5f8080613a47565b909160206001600160a01b037f6b047d8dc1f7b38d6f9a960ffc93bf185e2218056f75b0d410b2e64567f942a192549354169354604051908152a3613aa7565b5091505b815f52601b60205260405f205415613b32575f828152601b60205260409020805481901561338a57613b2c915f5260205f205490614171565b50613af3565b9050565b84548352600194850194889450602090930192016139f2565b805f52600b60205260405f206001600160a01b0383165f5260205260ff60405f205416613b7a575050565b805f52600b60205260405f206001600160a01b0383165f5260205260405f2060ff1981541690556001600160a01b03339216907ff6391f5c32d9c69d2a47ea670b442974b53935d1edc7fd64eb21e047a839171b5f80a4565b916001600160601b0316906127108211613c81576001600160a01b0316918215613c3c5760405192613c048461306e565b835260208084019283525f91825260019052604090209151905160a01b6001600160a01b0319166001600160a01b0391909116179055565b60405162461bcd60e51b815260206004820152601b60248201527f455243323938313a20496e76616c696420706172616d657465727300000000006044820152606490fd5b60405162461bcd60e51b815260206004820152602a60248201527f455243323938313a20726f79616c7479206665652077696c6c2065786365656460448201527f2073616c655072696365000000000000000000000000000000000000000000006064820152608490fd5b60405191906020613cfd818561308a565b5f84526001600160a01b038216908115613dbb5791838092600461316e9795613d46613d40611003995f5260046020526001600160a01b0360405f205416151590565b156144b0565b613d67613d40855f5260046020526001600160a01b0360405f205416151590565b825f526005815260405f2060018154019055835f525260405f20816001600160a01b03198254161790555f7fddf252ad1be2c89b69c2b068fc378daa952ba7f163c4a11628f55a4df523b3ef8180a46142d5565b6064906040519062461bcd60e51b825280600483015260248201527f4552433732313a206d696e7420746f20746865207a65726f20616464726573736044820152fd5b919091613e1f815f5260046020526001600160a01b0360405f205416151590565b15613f8857805f52600860205260405f20835167ffffffffffffffff81116114bc57613e4b82546130fe565b601f8111613f43575b506020601f8211600114613ebb57908060209493927ff8e1a15aba9398e019f0b49df1a4fde98ee17ae345cb5f6b5e2c27f5033e8ce796975f92613eb0575b50508160011b915f199060031b1c19161790555b604051908152a1565b015190505f80613e93565b601f19821695835f52815f20965f5b818110613f2b575096600192849260209796957ff8e1a15aba9398e019f0b49df1a4fde98ee17ae345cb5f6b5e2c27f5033e8ce7999a10613f13575b505050811b019055613ea7565b01515f1960f88460031b161c191690555f8080613f06565b83830151895560019098019760209384019301613eca565b825f5260205f20601f830160051c81019160208410613f7e575b601f0160051c01905b818110613f735750613e54565b5f8155600101613f66565b9091508190613f5d565b60405162461bcd60e51b815260206004820152602e60248201527f45524337323155524953746f726167653a2055524920736574206f66206e6f6e60448201527f6578697374656e7420746f6b656e0000000000000000000000000000000000006064820152608490fd5b15613ffa57565b60405162461bcd60e51b815260206004820152603260248201527f4552433732313a207472616e7366657220746f206e6f6e20455243373231526560448201527f63656976657220696d706c656d656e74657200000000000000000000000000006064820152608490fd5b6140866131f7825f5260046020526001600160a01b0360405f205416151590565b5f52600860205261409960405f20613136565b5f6040516140a860208261308a565b5290565b5f818152601d6020526040902054801561416b575f19810181811161039457601c545f1981019190821161039457808203614133575b505050601c54801561411f575f19016140fc81601c613375565b8154905f199060031b1b19169055601c555f52601d6020525f6040812055600190565b634e487b7160e01b5f52603160045260245ffd5b61415561414461206293601c613375565b90549060031b1c928392601c613375565b90555f52601d60205260405f20555f80806140e2565b50505f90565b906001820191815f528260205260405f20548015155f1461421a575f1981018181116103945782545f19810191908211610394578082036141e5575b5050508054801561411f575f1901906141c68282613375565b8154905f199060031b1b19169055555f526020525f6040812055600190565b6142056141f56120629386613375565b90549060031b1c92839286613375565b90555f528360205260405f20555f80806141ad565b505050505f90565b805f52601d60205260405f2054155f1461427757601c54680100000000000000008110156114bc57614260612062826001859401601c55601c613375565b9055601c54905f52601d60205260405f2055600190565b505f90565b6001810190825f528160205260405f2054155f146142ce578054680100000000000000008110156114bc576142bb612062826001879401855584613375565b905554915f5260205260405f2055600190565b5050505f90565b91823b1561443f57614322926020925f6001600160a01b03604051809781968295630a85bd0160e11b84523360048501528560248501526044840152608060648401526084830190612f1c565b0393165af15f91816143e2575b506143b45761433c613484565b805190816143af5760405162461bcd60e51b815260206004820152603260248201527f4552433732313a207472616e7366657220746f206e6f6e20455243373231526560448201527f63656976657220696d706c656d656e74657200000000000000000000000000006064820152608490fd5b602001fd5b7fffffffff0000000000000000000000000000000000000000000000000000000016630a85bd0160e11b1490565b9091506020813d602011614437575b816143fe6020938361308a565b8101031261048157517fffffffff000000000000000000000000000000000000000000000000000000008116810361048157905f61432f565b3d91506143f1565b505050600190565b9190803b15614496576001600160a01b035f8160209561432260405198899788968794630a85bd0160e11b86523360048701521660248501526044840152608060648401526084830190612f1c565b50505050600190565b90815181101561338a570160200190565b156144b757565b60405162461bcd60e51b815260206004820152601c60248201527f4552433732313a20746f6b656e20616c7265616479206d696e746564000000006044820152606490fdfea26469706673582212202302fa5556158b9d5e0da985f2641820e0636bce1d574dbe5748aa27e8cd0a6564736f6c634300081c00332f8788117e7eff1d82e926ec794901d17c78024a50270940304540a733656f0ddf7de25b7f1fd6d0b5205f0e18f1f35bd7b8d84cce336588d184533ce43a6f76",
  "linkReferences": {},
  "deployedLinkReferences": {}
}