{
  "_format": "hh-sol-artifact-1",
  "contractName": "ReferralSystem",
  "sourceName": "contracts/Marketplace/ReferralSystem.sol",
  "abi": [
    {
      "inputs": [],
      "stateMutability": "nonpayable",
      "type": "constructor"
    },
    {
      "anonymous": false,
      "inputs": [
        {
          "indexed": false,
          "internalType": "address",
          "name": "previousAdmin",
          "type": "address"
        },
        {
          "indexed": false,
          "internalType": "address",
          "name": "newAdmin",
          "type": "address"
        }
      ],
      "name": "AdminChanged",
      "type": "event"
    },
    {
      "anonymous": false,
      "inputs": [
        {
          "indexed": true,
          "internalType": "address",
          "name": "beacon",
          "type": "address"
        }
      ],
      "name": "BeaconUpgraded",
      "type": "event"
    },
    {
      "anonymous": false,
      "inputs": [
        {
          "indexed": false,
          "internalType": "uint8",
          "name": "version",
          "type": "uint8"
        }
      ],
      "name": "Initialized",
      "type": "event"
    },
    {
      "anonymous": false,
      "inputs": [
        {
          "indexed": true,
          "internalType": "address",
          "name": "referrer",
          "type": "address"
        },
        {
          "indexed": false,
          "internalType": "uint256",
          "name": "xpAmount",
          "type": "uint256"
        },
        {
          "indexed": false,
          "internalType": "string",
          "name": "reason",
          "type": "string"
        }
      ],
      "name": "ReferralBonusEarned",
      "type": "event"
    },
    {
      "anonymous": false,
      "inputs": [
        {
          "indexed": true,
          "internalType": "address",
          "name": "buyer",
          "type": "address"
        },
        {
          "indexed": false,
          "internalType": "uint256",
          "name": "xpAmount",
          "type": "uint256"
        }
      ],
      "name": "ReferralBonusGiven",
      "type": "event"
    },
    {
      "anonymous": false,
      "inputs": [
        {
          "indexed": true,
          "internalType": "address",
          "name": "user",
          "type": "address"
        },
        {
          "indexed": true,
          "internalType": "bytes32",
          "name": "code",
          "type": "bytes32"
        }
      ],
      "name": "ReferralCodeGenerated",
      "type": "event"
    },
    {
      "anonymous": false,
      "inputs": [
        {
          "indexed": true,
          "internalType": "address",
          "name": "user",
          "type": "address"
        },
        {
          "indexed": true,
          "internalType": "address",
          "name": "referrer",
          "type": "address"
        }
      ],
      "name": "ReferralRegistered",
      "type": "event"
    },
    {
      "anonymous": false,
      "inputs": [
        {
          "indexed": true,
          "internalType": "bytes32",
          "name": "role",
          "type": "bytes32"
        },
        {
          "indexed": true,
          "internalType": "bytes32",
          "name": "previousAdminRole",
          "type": "bytes32"
        },
        {
          "indexed": true,
          "internalType": "bytes32",
          "name": "newAdminRole",
          "type": "bytes32"
        }
      ],
      "name": "RoleAdminChanged",
      "type": "event"
    },
    {
      "anonymous": false,
      "inputs": [
        {
          "indexed": true,
          "internalType": "bytes32",
          "name": "role",
          "type": "bytes32"
        },
        {
          "indexed": true,
          "internalType": "address",
          "name": "account",
          "type": "address"
        },
        {
          "indexed": true,
          "internalType": "address",
          "name": "sender",
          "type": "address"
        }
      ],
      "name": "RoleGranted",
      "type": "event"
    },
    {
      "anonymous": false,
      "inputs": [
        {
          "indexed": true,
          "internalType": "bytes32",
          "name": "role",
          "type": "bytes32"
        },
        {
          "indexed": true,
          "internalType": "address",
          "name": "account",
          "type": "address"
        },
        {
          "indexed": true,
          "internalType": "address",
          "name": "sender",
          "type": "address"
        }
      ],
      "name": "RoleRevoked",
      "type": "event"
    },
    {
      "anonymous": false,
      "inputs": [
        {
          "indexed": true,
          "internalType": "address",
          "name": "implementation",
          "type": "address"
        }
      ],
      "name": "Upgraded",
      "type": "event"
    },
    {
      "inputs": [],
      "name": "ADMIN_ROLE",
      "outputs": [
        {
          "internalType": "bytes32",
          "name": "",
          "type": "bytes32"
        }
      ],
      "stateMutability": "view",
      "type": "function"
    },
    {
      "inputs": [],
      "name": "BUYER_REFERRAL_BONUS_XP",
      "outputs": [
        {
          "internalType": "uint256",
          "name": "",
          "type": "uint256"
        }
      ],
      "stateMutability": "view",
      "type": "function"
    },
    {
      "inputs": [],
      "name": "DEFAULT_ADMIN_ROLE",
      "outputs": [
        {
          "internalType": "bytes32",
          "name": "",
          "type": "bytes32"
        }
      ],
      "stateMutability": "view",
      "type": "function"
    },
    {
      "inputs": [],
      "name": "MARKETPLACE_ROLE",
      "outputs": [
        {
          "internalType": "bytes32",
          "name": "",
          "type": "bytes32"
        }
      ],
      "stateMutability": "view",
      "type": "function"
    },
    {
      "inputs": [],
      "name": "REFERRER_BASE_XP",
      "outputs": [
        {
          "internalType": "uint256",
          "name": "",
          "type": "uint256"
        }
      ],
      "stateMutability": "view",
      "type": "function"
    },
    {
      "inputs": [],
      "name": "UPGRADER_ROLE",
      "outputs": [
        {
          "internalType": "bytes32",
          "name": "",
          "type": "bytes32"
        }
      ],
      "stateMutability": "view",
      "type": "function"
    },
    {
      "inputs": [
        {
          "internalType": "address",
          "name": "user",
          "type": "address"
        }
      ],
      "name": "generateReferralCode",
      "outputs": [
        {
          "internalType": "bytes32",
          "name": "",
          "type": "bytes32"
        }
      ],
      "stateMutability": "nonpayable",
      "type": "function"
    },
    {
      "inputs": [
        {
          "internalType": "address",
          "name": "user",
          "type": "address"
        }
      ],
      "name": "getReferralCode",
      "outputs": [
        {
          "internalType": "bytes32",
          "name": "",
          "type": "bytes32"
        }
      ],
      "stateMutability": "view",
      "type": "function"
    },
    {
      "inputs": [
        {
          "internalType": "bytes32",
          "name": "role",
          "type": "bytes32"
        }
      ],
      "name": "getRoleAdmin",
      "outputs": [
        {
          "internalType": "bytes32",
          "name": "",
          "type": "bytes32"
        }
      ],
      "stateMutability": "view",
      "type": "function"
    },
    {
      "inputs": [
        {
          "internalType": "address",
          "name": "user",
          "type": "address"
        }
      ],
      "name": "getUserReferralStats",
      "outputs": [
        {
          "internalType": "uint256",
          "name": "totalCount",
          "type": "uint256"
        },
        {
          "internalType": "uint256",
          "name": "totalXPEarned",
          "type": "uint256"
        },
        {
          "internalType": "address[]",
          "name": "referralList",
          "type": "address[]"
        }
      ],
      "stateMutability": "view",
      "type": "function"
    },
    {
      "inputs": [
        {
          "internalType": "address",
          "name": "user",
          "type": "address"
        }
      ],
      "name": "getUserReferrer",
      "outputs": [
        {
          "internalType": "address",
          "name": "",
          "type": "address"
        }
      ],
      "stateMutability": "view",
      "type": "function"
    },
    {
      "inputs": [
        {
          "internalType": "bytes32",
          "name": "role",
          "type": "bytes32"
        },
        {
          "internalType": "address",
          "name": "account",
          "type": "address"
        }
      ],
      "name": "grantRole",
      "outputs": [],
      "stateMutability": "nonpayable",
      "type": "function"
    },
    {
      "inputs": [
        {
          "internalType": "address",
          "name": "",
          "type": "address"
        }
      ],
      "name": "hasReferrer",
      "outputs": [
        {
          "internalType": "bool",
          "name": "",
          "type": "bool"
        }
      ],
      "stateMutability": "view",
      "type": "function"
    },
    {
      "inputs": [
        {
          "internalType": "bytes32",
          "name": "role",
          "type": "bytes32"
        },
        {
          "internalType": "address",
          "name": "account",
          "type": "address"
        }
      ],
      "name": "hasRole",
      "outputs": [
        {
          "internalType": "bool",
          "name": "",
          "type": "bool"
        }
      ],
      "stateMutability": "view",
      "type": "function"
    },
    {
      "inputs": [
        {
          "internalType": "address",
          "name": "platformAdmin",
          "type": "address"
        }
      ],
      "name": "initialize",
      "outputs": [],
      "stateMutability": "nonpayable",
      "type": "function"
    },
    {
      "inputs": [
        {
          "internalType": "bytes32",
          "name": "code",
          "type": "bytes32"
        }
      ],
      "name": "isValidReferralCode",
      "outputs": [
        {
          "internalType": "bool",
          "name": "",
          "type": "bool"
        }
      ],
      "stateMutability": "view",
      "type": "function"
    },
    {
      "inputs": [],
      "name": "proxiableUUID",
      "outputs": [
        {
          "internalType": "bytes32",
          "name": "",
          "type": "bytes32"
        }
      ],
      "stateMutability": "view",
      "type": "function"
    },
    {
      "inputs": [
        {
          "internalType": "address",
          "name": "buyer",
          "type": "address"
        },
        {
          "internalType": "uint256",
          "name": "xpAmount",
          "type": "uint256"
        }
      ],
      "name": "recordBuyerReferralBonus",
      "outputs": [],
      "stateMutability": "nonpayable",
      "type": "function"
    },
    {
      "inputs": [
        {
          "internalType": "address",
          "name": "referrerAddress",
          "type": "address"
        },
        {
          "internalType": "uint256",
          "name": "xpAmount",
          "type": "uint256"
        },
        {
          "internalType": "string",
          "name": "reason",
          "type": "string"
        }
      ],
      "name": "recordReferralXP",
      "outputs": [],
      "stateMutability": "nonpayable",
      "type": "function"
    },
    {
      "inputs": [
        {
          "internalType": "address",
          "name": "",
          "type": "address"
        }
      ],
      "name": "referralCode",
      "outputs": [
        {
          "internalType": "bytes32",
          "name": "",
          "type": "bytes32"
        }
      ],
      "stateMutability": "view",
      "type": "function"
    },
    {
      "inputs": [
        {
          "internalType": "bytes32",
          "name": "",
          "type": "bytes32"
        }
      ],
      "name": "referralCodeOwner",
      "outputs": [
        {
          "internalType": "address",
          "name": "",
          "type": "address"
        }
      ],
      "stateMutability": "view",
      "type": "function"
    },
    {
      "inputs": [
        {
          "internalType": "address",
          "name": "",
          "type": "address"
        }
      ],
      "name": "referralCount",
      "outputs": [
        {
          "internalType": "uint256",
          "name": "",
          "type": "uint256"
        }
      ],
      "stateMutability": "view",
      "type": "function"
    },
    {
      "inputs": [
        {
          "internalType": "address",
          "name": "",
          "type": "address"
        }
      ],
      "name": "referralXPEarned",
      "outputs": [
        {
          "internalType": "uint256",
          "name": "",
          "type": "uint256"
        }
      ],
      "stateMutability": "view",
      "type": "function"
    },
    {
      "inputs": [
        {
          "internalType": "address",
          "name": "",
          "type": "address"
        },
        {
          "internalType": "uint256",
          "name": "",
          "type": "uint256"
        }
      ],
      "name": "referrals",
      "outputs": [
        {
          "internalType": "address",
          "name": "",
          "type": "address"
        }
      ],
      "stateMutability": "view",
      "type": "function"
    },
    {
      "inputs": [
        {
          "internalType": "address",
          "name": "",
          "type": "address"
        }
      ],
      "name": "referrer",
      "outputs": [
        {
          "internalType": "address",
          "name": "",
          "type": "address"
        }
      ],
      "stateMutability": "view",
      "type": "function"
    },
    {
      "inputs": [
        {
          "internalType": "address",
          "name": "user",
          "type": "address"
        },
        {
          "internalType": "bytes32",
          "name": "code",
          "type": "bytes32"
        }
      ],
      "name": "registerWithReferralCode",
      "outputs": [
        {
          "internalType": "bool",
          "name": "",
          "type": "bool"
        }
      ],
      "stateMutability": "nonpayable",
      "type": "function"
    },
    {
      "inputs": [
        {
          "internalType": "bytes32",
          "name": "role",
          "type": "bytes32"
        },
        {
          "internalType": "address",
          "name": "account",
          "type": "address"
        }
      ],
      "name": "renounceRole",
      "outputs": [],
      "stateMutability": "nonpayable",
      "type": "function"
    },
    {
      "inputs": [
        {
          "internalType": "bytes32",
          "name": "role",
          "type": "bytes32"
        },
        {
          "internalType": "address",
          "name": "account",
          "type": "address"
        }
      ],
      "name": "revokeRole",
      "outputs": [],
      "stateMutability": "nonpayable",
      "type": "function"
    },
    {
      "inputs": [
        {
          "internalType": "bytes4",
          "name": "interfaceId",
          "type": "bytes4"
        }
      ],
      "name": "supportsInterface",
      "outputs": [
        {
          "internalType": "bool",
          "name": "",
          "type": "bool"
        }
      ],
      "stateMutability": "view",
      "type": "function"
    },
    {
      "inputs": [
        {
          "internalType": "address",
          "name": "newImplementation",
          "type": "address"
        }
      ],
      "name": "upgradeTo",
      "outputs": [],
      "stateMutability": "nonpayable",
      "type": "function"
    },
    {
      "inputs": [
        {
          "internalType": "address",
          "name": "newImplementation",
          "type": "address"
        },
        {
          "internalType": "bytes",
          "name": "data",
          "type": "bytes"
        }
      ],
      "name": "upgradeToAndCall",
      "outputs": [],
      "stateMutability": "payable",
      "type": "function"
    },
    {
      "inputs": [
        {
          "internalType": "address",
          "name": "user",
          "type": "address"
        }
      ],
      "name": "userHasReferrer",
      "outputs": [
        {
          "internalType": "bool",
          "name": "",
          "type": "bool"
        }
      ],
      "stateMutability": "view",
      "type": "function"
    }
  ],
  "bytecode": "0x60a06040523461003257610011610036565b6040516122c96101c58239608051818181610ca20152610e3601526122c990f35b5f80fd5b61003e61007d565b610046610155565b565b61005c9061005f906001600160a01b031682565b90565b6001600160a01b031690565b61005c90610048565b61005c9061006b565b61008630610074565b608052565b61005c9060081c5b60ff1690565b61005c905461008b565b60208082526027908201527f496e697469616c697a61626c653a20636f6e747261637420697320696e697469604082015266616c697a696e6760c81b606082015260800190565b156100f157565b60405162461bcd60e51b81528061010a600482016100a3565b0390fd5b61005c90610093565b61005c905461010e565b61009361005c61005c9260ff1690565b9061014161005c61015192610121565b825460ff191660ff919091161790565b9055565b61016e6101696101656001610099565b1590565b6100ea565b6101786001610117565b60ff9081160361018457565b61019060ff6001610131565b7f7f26b83ff96e1f2b6a682f133852f6798a09c465da95921460cefb38474024986101ba60405190565b60ff8152602090a156fe60806040526004361015610011575f80fd5b5f3560e01c806301ffc9a71461021057806318452cd81461020b5780631be0d12114610206578063248a9ca3146102015780632cf003c2146101fc5780632f2ff15d146101f757806336144c9a146101f257806336568abe146101ed5780633659cfe6146101e85780634f1ef286146101e357806352d1902d146101de5780635af0244c146101d95780636c9c7b63146101d457806375b238fc146101cf5780637d05c50c146101ca57806391d14854146101c5578063924a20e1146101c057806392c40344146101bb57806393bc0a49146101b65780639a50afdb146101b1578063a217fddf146101ac578063aa0decff146101a7578063acf881b4146101a2578063c108a07e1461019d578063c3439f3f14610198578063c4d66de814610193578063c4f343fd1461018e578063d547741f14610189578063db02e94d14610184578063db74559b1461017f578063e697b5d81461017a5763f72c0d8b0361021557610a15565b6109f9565b61097e565b610953565b61093a565b61091f565b6108f2565b6108cc565b6108b3565b610875565b61084b565b610806565b6107da565b6107ad565b610792565b610777565b61073c565b610712565b610650565b610635565b61061c565b6105bf565b6105a1565b61048e565b610475565b61045a565b61043c565b6103e4565b61038c565b61034a565b61032f565b610256565b5f80fd5b6001600160e01b031981165b0361021557565b9050359061023982610219565b565b906020828203126102155761024f9161022c565b90565b9052565b346102155761028361027161026c36600461023b565b610a4e565b60405191829182901515815260200190565b0390f35b6001600160a01b031690565b6001600160a01b038116610225565b9050359061023982610293565b906020828203126102155761024f916102a2565b61028761024f61024f926001600160a01b031690565b61024f906102c3565b61024f906102d9565b906102f5906102e2565b5f5260205260405f2090565b61024f916008021c5b60ff1690565b9061024f9154610301565b5f61032a61024f9260066102eb565b610310565b34610215576102836102716103453660046102af565b61031b565b34610215576102836102716103603660046102af565b610a9b565b80610225565b9050359061023982610365565b906020828203126102155761024f9161036b565b34610215576102836103a76103a2366004610378565b610ac7565b6040515b9182918290815260200190565b61024f916008021c610287565b9061024f91546103b8565b5f6103df61024f9260046102eb565b6103c5565b34610215576102836103ff6103fa3660046102af565b6103d0565b604051918291826001600160a01b03909116815260200190565b91906040838203126102155761024f906020610435828661036b565b94016102a2565b346102155761045561044f366004610419565b90610b04565b604051005b34610215576102836103ff6104703660046102af565b610b21565b3461021557610455610488366004610419565b90610ba5565b34610215576104556104a13660046102af565b610d6e565b634e487b7160e01b5f52604160045260245ffd5b90601f01601f1916810190811067ffffffffffffffff8211176104dc57604052565b6104a6565b906102396104ee60405190565b92836104ba565b67ffffffffffffffff81116104dc57602090601f01601f19160190565b0190565b90825f939282370152565b90929192610536610531826104f5565b6104e1565b938185528183011161021557610239916020850190610516565b9080601f830112156102155781602061024f93359101610521565b9190916040818403126102155761058283826102a2565b92602082013567ffffffffffffffff81116102155761024f9201610550565b6104556105af36600461056b565b90610d9d565b5f91031261021557565b34610215576105cf3660046105b5565b6102836103a7610e98565b91606083830312610215576105ef82846102a2565b926105fd836020830161036b565b92604082013567ffffffffffffffff81116102155761024f9201610550565b346102155761045561062f3660046105da565b91611061565b34610215576102836103a761064b3660046102af565b61112a565b34610215576106603660046105b5565b6102837fa49807205ce4d355092ef5a8a18f56e8913cf4a201fbe287825b095693c217756103a7565b906106a96106a2610698845190565b8084529260200190565b9260200190565b905f5b8181106106b95750505090565b9091926106df6106d860019286516001600160a01b0316815260200190565b9460200190565b9291016106ac565b61070561024f9492936106fe60608401955f850152565b6020830152565b6040818403910152610689565b346102155761028361072d6107283660046102af565b61128b565b604051919391938493846106e7565b3461021557610283610271610752366004610419565b906112c4565b61024f61024f61024f9290565b61024f6005610758565b61024f610765565b34610215576107873660046105b5565b6102836103a761076f565b34610215576102836103a76107a83660046102af565b6112e4565b34610215576102836102716107c3366004610378565b6112fa565b61024f600a610758565b61024f6107c8565b34610215576107ea3660046105b5565b6102836103a76107d2565b61024f5f610758565b61024f6107f5565b34610215576108163660046105b5565b6102836103a76107fe565b61024f916008021c81565b9061024f9154610821565b5f61084661024f9260076102eb565b61082c565b34610215576102836103a76108613660046102af565b610837565b5f61084661024f9260036102eb565b34610215576102836103a761088b3660046102af565b610866565b91906040838203126102155761024f9060206108ac82866102a2565b940161036b565b34610215576104556108c6366004610890565b906113d2565b34610215576108dc3660046105b5565b6102835f5160206122745f395f51905f526103a7565b34610215576104556109053660046102af565b6116a3565b906102f5565b5f6103df61024f92600261090a565b34610215576102836103ff610935366004610378565b610910565b346102155761045561094d366004610419565b906116c7565b3461021557610283610271610969366004610890565b90611a06565b5f61084661024f9260086102eb565b34610215576102836103a76109943660046102af565b61096f565b634e487b7160e01b5f52603260045260245ffd5b80548210156109cd576109c56001915f5260205f2090565b910201905f90565b610999565b6109dd9060056102eb565b80548210156102155761024f916109f3916109ad565b906103c5565b34610215576102836103ff610a0f366004610890565b906109d2565b3461021557610a253660046105b5565b6102837f189ab7a9244df0848122154315af71fe140f3db0fe014031783b0946b8c9d2e36103a7565b637965db0b60e01b6001600160e01b0319821614908115610a6d575090565b61024f91506001600160e01b0319166301ffc9a760e01b1490565b61024f9061030a565b61024f9054610a88565b610ab161024f91610aa95f90565b5060066102eb565b610a91565b61024f9081565b61024f9054610ab6565b6001610ade61024f92610ad75f90565b505f61090a565b01610abd565b9061023991610afa610af582610ac7565b611a11565b9061023991611a1c565b9061023991610ae4565b61024f90610287565b61024f9054610b0e565b610b3761024f91610b2f5f90565b5060046102eb565b610b17565b15610b4357565b60405162461bcd60e51b815260206004820152602f60248201527f416363657373436f6e74726f6c3a2063616e206f6e6c792072656e6f756e636560448201526e103937b632b9903337b91039b2b63360891b606482015280608481015b0390fd5b6102399190610bc6610bb633610287565b6001600160a01b03841614610b3c565b611a89565b15610bd257565b60405162461bcd60e51b815260206004820152602c60248201527f46756e6374696f6e206d7573742062652063616c6c6564207468726f7567682060448201526b19195b1959d85d1958d85b1b60a21b6064820152608490fd5b15610c3357565b60405162461bcd60e51b815260206004820152602c60248201527f46756e6374696f6e206d7573742062652063616c6c6564207468726f7567682060448201526b6163746976652070726f787960a01b6064820152608490fd5b61023990610d0a610c9d306102e2565b610ce97f000000000000000000000000000000000000000000000000000000000000000091610ce2610cd5846001600160a01b031690565b916001600160a01b031690565b1415610bcb565b610d04610cd5610cf7611ae7565b926001600160a01b031690565b14610c2c565b610d49565b90610d1c610531836104f5565b918252565b369037565b90610239610d3c610d3684610d0f565b936104f5565b601f190160208401610d21565b5f61023991610d5781611b26565b610d68610d6383610758565b610d26565b90611bd7565b61023990610c8d565b9061023991610d88610c9d306102e2565b61023991600191610d9881611b26565b611bd7565b9061023991610d77565b15610dae57565b60405162461bcd60e51b815260206004820152603860248201527f555550535570677261646561626c653a206d757374206e6f742062652063616c60448201527f6c6564207468726f7567682064656c656761746563616c6c00000000000000006064820152608490fd5b61024f90610e61610e29306102e2565b610e5b6001600160a01b037f000000000000000000000000000000000000000000000000000000000000000016610cd5565b14610da7565b610e8f565b61024f7f360894a13ba1a3210667c828492db98dca3e2076cc3735a920a3ca505d382bbc610758565b5061024f610e66565b61024f5f610e19565b610239929190610ebd5f5160206122745f395f51905f52611a11565b610fd4565b61028761024f61024f9290565b61024f90610ec2565b15610edf57565b60405162461bcd60e51b815260206004820152601060248201526f24b73b30b634b2103932b332b93932b960811b6044820152606490fd5b634e487b7160e01b5f52601160045260245ffd5b91908201809211610f3857565b610f17565b905f19905b9181191691161790565b90610f5c61024f610f6392610758565b8254610f3d565b9055565b5f5b838110610f785750505f910152565b8181015183820152602001610f69565b610fa9610fb260209361051293610f9d815190565b80835293849260200190565b95869101610f67565b601f01601f191690565b90815260406020820181905261024f92910190610f88565b916110467f3b0c9cf3ee7eac3d84586374eabf93652ed1aaec58b4910eed1e74508cb06c83929361101b61100a6102875f610ecf565b6001600160a01b0383161415610ed8565b6110416110298260076102eb565b61103b8761103683610abd565b610f2b565b90610f4c565b6102e2565b9261105c61105360405190565b92839283610fbc565b0390a2565b906102399291610ea1565b1561107357565b60405162461bcd60e51b815260206004820152601460248201527f496e76616c6964207573657220616464726573730000000000000000000000006044820152606490fd5b91908203918211610f3857565b610252906001600160a01b031660601b90565b602093926110f06014836110f08895610512976110c5565b01918252565b906001600160a01b0390610f42565b9061111561024f610f63926102e2565b82546110f6565b90610f5c61024f610f639290565b61114a6111396102875f610ecf565b6001600160a01b038316141561106c565b6111c761116061115a6001610758565b436110b8565b61118b61116c60405190565b809261117f6020830191404288846110d8565b908103825203826104ba565b61119d611196825190565b9160200190565b20916111b3816111ae85600261090a565b611105565b611041836111c28360036102eb565b61111c565b81907f8920d361bf79cd161c43fb7a91fe9358e63f23539ac70cba2fb25dc89a1d4a396111f360405190565b5f90a390565b90611212611208610698845490565b925f5260205f2090565b905f5b8181106112225750505090565b90919261124f61124860019261123787610b17565b6001600160a01b0316815260200190565b9460010190565b929101611215565b9061024f916111f9565b9061023961127b9261127260405190565b93848092611257565b03836104ba565b61024f90611261565b9061129f61129a8360086102eb565b610abd565b9061024f6112bc6112b461129a8660076102eb565b9460056102eb565b929392611282565b61024f915f6112de610ab1936112d75f90565b508261090a565b016102eb565b61129a61024f916112f25f90565b5060036102eb565b610b37611310916113085f90565b50600261090a565b61131f610cd56102875f610ecf565b141590565b610239919061133f5f5160206122745f395f51905f52611a11565b611380565b1561134b57565b60405162461bcd60e51b815260206004820152600d60248201526c24b73b30b634b210313abcb2b960991b6044820152606490fd5b61105c6113c87f13433820f813b7d4a54ebf48376c5137156c4127e9adaf630d52a319bea56aa2926110416113b76102875f610ecf565b6001600160a01b0383161415611344565b926103ab60405190565b9061023991611324565b61024f9060081c61030a565b61024f90546113dc565b61030a61024f61024f9290565b1561140657565b60405162461bcd60e51b815260206004820152602e60248201527f496e697469616c697a61626c653a20636f6e747261637420697320616c72656160448201526d191e481a5b9a5d1a585b1a5e995960921b6064820152608490fd5b9060ff90610f42565b61030a61024f61024f9260ff1690565b9061148b61024f610f639261146b565b8254611462565b9061ff009060081b610f42565b906114af61024f610f6392151590565b8254611492565b610252906113f2565b60208101929161023991906114b6565b6114e06114dc60016113e8565b1590565b80806115b4575b801561156f575b6114f7906113ff565b6115196001928261151061150a866113f2565b8661147b565b6115605761161e565b6115205750565b61155b8161154f5f7f7f26b83ff96e1f2b6a682f133852f6798a09c465da95921460cefb38474024989461149f565b604051918291826114bf565b0390a1565b61156a848061149f565b61161e565b506115846114dc61157f306102e2565b611ce8565b80156114ee57506114f76115986001610a91565b6115ac6115a560016113f2565b9160ff1690565b1490506114ee565b506115bf6001610a91565b6115cc6115a560016113f2565b106114e7565b156115d957565b60405162461bcd60e51b815260206004820152601660248201527f496e76616c696420706c6174666f726d2061646d696e000000000000000000006044820152606490fd5b610239906116426116316102875f610ecf565b6001600160a01b03831614156115d2565b6116538161164e6107f5565b611a1c565b61167d817fa49807205ce4d355092ef5a8a18f56e8913cf4a201fbe287825b095693c21775611a1c565b7f189ab7a9244df0848122154315af71fe140f3db0fe014031783b0946b8c9d2e3611a1c565b610239906114cf565b90610239916116bd610af582610ac7565b9061023991611a89565b90610239916116ac565b61024f9291906116ed5f5160206122745f395f51905f52611a11565b6118d0565b156116f957565b60405162461bcd60e51b815260206004820152600c60248201526b24b73b30b634b2103ab9b2b960a11b6044820152606490fd5b1561173457565b60405162461bcd60e51b815260206004820152600c60248201526b496e76616c696420636f646560a01b6044820152606490fd5b1561176f57565b60405162461bcd60e51b815260206004820152601960248201527f5573657220616c726561647920686173207265666572726572000000000000006044820152606490fd5b156117bb57565b60405162461bcd60e51b815260206004820152601560248201527f496e76616c696420726566657272616c20636f646500000000000000000000006044820152606490fd5b1561180757565b60405162461bcd60e51b815260206004820152601d60248201527f43616e6e6f742072656769737465722077697468206f776e20636f64650000006044820152606490fd5b9061148b61024f610f6392151590565b91906008610f429102916118766001600160a01b03841b90565b921b90565b919061188c61024f610f63936102e2565b90835461185c565b90815491680100000000000000008310156104dc57826118bc916001610239950181556109ad565b9061187b565b5f198114610f385760010190565b611972610b376119d393946119cd93506119006118ef6102875f610ecf565b6001600160a01b03881614156116f2565b61191761190f61024f5f610758565b82141561172d565b61193061192b6114dc610ab18960066102eb565b611768565b61194161193c826112fa565b6117b4565b61196b611952610b3783600261090a565b6119646001600160a01b038916610cd5565b1415611800565b600261090a565b92611982846111ae8360046102eb565b61199760016119928360066102eb565b61184c565b6119ae816119a961024f8760056102eb565b611894565b6110416119bc8560086102eb565b61103b6119c882610abd565b6118c2565b916102e2565b907f5f1ca2fcc108b751843a763e60d2201f593516109d7dbb1b700468f2d4190bb76119fe60405190565b5f90a3600190565b61024f91905f6116d1565b610239903390611d8f565b611a296114dc83836112c4565b611a31575050565b611a456001611992845f6112de868261090a565b611a596119cd611a53339390565b936102e2565b917f2f8788117e7eff1d82e926ec794901d17c78024a50270940304540a733656f0d611a8460405190565b5f90a4565b611a9382826112c4565b611a9b575050565b611aae5f61199284826112de868261090a565b611abc6119cd611a53339390565b917ff6391f5c32d9c69d2a47ea670b442974b53935d1edc7fd64eb21e047a839171b611a8460405190565b61024f5f611af661024f610e66565b01610b17565b506102397f189ab7a9244df0848122154315af71fe140f3db0fe014031783b0946b8c9d2e3611a11565b61023990611afc565b61024f7f4910fdfa16fed3260ed0e7147f7cc6da11a60208b5b9406d12a635614ffd9143610758565b9050519061023982610365565b906020828203126102155761024f91611b58565b15611b8057565b60405162461bcd60e51b815260206004820152602960248201527f45524331393637557067726164653a20756e737570706f727465642070726f786044820152681a58589b195555525160ba1b6064820152608490fd5b9190611bee5f611be861024f611b2f565b01610a91565b15611bfe57505061023990611ea8565b611c0a611041846102e2565b926020611c1660405190565b6352d1902d60e01b815294859060049082905afa5f9481611cb7575b50611c935760405162461bcd60e51b815260206004820152602e60248201527f45524331393637557067726164653a206e657720696d706c656d656e7461746960448201526d6f6e206973206e6f74205555505360901b6064820152608490fd5b611cb261023994611cac611ca861024f610e66565b9190565b14611b79565b611e08565b611cda91955060203d602011611ce1575b611cd281836104ba565b810190611b65565b935f611c32565b503d611cc8565b3b611cf5611ca85f610758565b1190565b61024f90610758565b610512611d1a92602092611d14815190565b94859290565b93849101610f67565b611d6161024f9392611d5b611d5b937f416363657373436f6e74726f6c3a206163636f756e7420000000000000000000815260170190565b90611d02565b7001034b99036b4b9b9b4b733903937b6329607d1b815260110190565b602080825261024f92910190610f88565b90611d9d6114dc82846112c4565b611da5575050565b61117f61024f610ba193611dd7611dc7611dc1611def96611eff565b92611cf9565b611dd16020610758565b90611fcb565b90611de160405190565b938492602084019283611d23565b6040515b62461bcd60e51b815291829160048301611d7e565b91611e12836120e4565b8151611e20611ca85f610758565b11908115611e3e575b50611e32575050565b611e3b9161216d565b50565b90505f611e29565b15611e4d57565b60405162461bcd60e51b815260206004820152602d60248201527f455243313936373a206e657720696d706c656d656e746174696f6e206973206e60448201526c1bdd08184818dbdb9d1c9858dd609a1b6064820152608490fd5b61023990611ebd611eb882611ce8565b611e46565b5f611ec961024f610e66565b01611105565b61024f61024f61024f926001600160a01b031690565b61024f60146113f2565b61024f61024f61024f9260ff1690565b611f1c611f1761024f92611f11606090565b506102d9565b611ecf565b611dd1611f27611ee5565b611eef565b81810292918115918404141715610f3857565b90611f48825190565b8110156109cd570160200190565b8015610f38575f190190565b61024f90611f76611ca861024f9460ff1690565b901c90565b15611f8257565b60405162461bcd60e51b815280610ba1600482016020808252818101527f537472696e67733a20686578206c656e67746820696e73756666696369656e74604082015260600190565b611ff4610d63611fe484611fdf6002610758565b611f2c565b611fee6002610758565b90610f2b565b9160306120096120035f610758565b85611f3f565b53600f60fb1b61204261203960019384935f1a61202e61202886610758565b89611f3f565b53611fdf6002610758565b611fee83610758565b915b612065575b50509061024f61024f9261205f611ca85f610758565b14611f7b565b909161207082610758565b8311156120de576f181899199a1a9b1b9c1cb0b131b232b360811b612095600f610758565b82169060108210156109cd5783926120b56120d2926120d8941a60f81b90565b5f1a6120c18789611f3f565b536120cc60046113f2565b90611f62565b93611f56565b91612044565b91612049565b6120f19061104181611ea8565b7fbc7cd75a20ee27fd9adebab32041f755214dbc6bffa90cc0225b39da2e5c2d3b61211b60405190565b808061105c565b61212c6027610d0f565b7f416464726573733a206c6f772d6c6576656c2064656c65676174652063616c6c6020820152660819985a5b195960ca1b604082015290565b61024f612122565b61024f91612179612165565b9161219d565b3d156121985761218e3d610d0f565b903d5f602084013e565b606090565b5f8061024f94936121ac606090565b50602081519101845af46121be61217f565b91612210565b156121cb57565b60405162461bcd60e51b815260206004820152601d60248201527f416464726573733a2063616c6c20746f206e6f6e2d636f6e74726163740000006044820152606490fd5b9192901561224157508151612227611ca85f610758565b14612230575090565b61223c61024f91611ce8565b6121c4565b829061224b825190565b612257611ca85f610758565b11156122665750805190602001fd5b610ba190611df36040519056fe0ea61da3a8a09ad801432653699f8c1860b1ae9d2ea4a141fadfd63227717bc8a2646970667358221220bb3d7bda31aa9006daa1c54d71234fb734e04a34df5386850c9b7f83ff96c7d164736f6c634300081c0033",
  "linkReferences": {},
  "deployedLinkReferences": {}
}