{
  "_format": "hh-sol-artifact-1",
  "contractName": "SmartStaking",
  "sourceName": "contracts/SmartStaking/SmartStaking.sol",
  "abi": [
    {
      "inputs": [
        {
          "internalType": "address",
          "name": "_treasury",
          "type": "address"
        }
      ],
      "stateMutability": "nonpayable",
      "type": "constructor"
    },
    {
      "inputs": [],
      "name": "AlreadyMigrated",
      "type": "error"
    },
    {
      "inputs": [],
      "name": "ContractIsMigrated",
      "type": "error"
    },
    {
      "inputs": [
        {
          "internalType": "uint256",
          "name": "availableToWithdraw",
          "type": "uint256"
        }
      ],
      "name": "DailyWithdrawalLimitExceeded",
      "type": "error"
    },
    {
      "inputs": [
        {
          "internalType": "uint256",
          "name": "provided",
          "type": "uint256"
        },
        {
          "internalType": "uint256",
          "name": "maximum",
          "type": "uint256"
        }
      ],
      "name": "DepositTooHigh",
      "type": "error"
    },
    {
      "inputs": [
        {
          "internalType": "uint256",
          "name": "provided",
          "type": "uint256"
        },
        {
          "internalType": "uint256",
          "name": "minimum",
          "type": "uint256"
        }
      ],
      "name": "DepositTooLow",
      "type": "error"
    },
    {
      "inputs": [],
      "name": "FundsAreLocked",
      "type": "error"
    },
    {
      "inputs": [],
      "name": "InsufficientBalance",
      "type": "error"
    },
    {
      "inputs": [],
      "name": "InvalidAddress",
      "type": "error"
    },
    {
      "inputs": [],
      "name": "InvalidLockupDuration",
      "type": "error"
    },
    {
      "inputs": [
        {
          "internalType": "address",
          "name": "user",
          "type": "address"
        },
        {
          "internalType": "uint16",
          "name": "maxDeposits",
          "type": "uint16"
        }
      ],
      "name": "MaxDepositsReached",
      "type": "error"
    },
    {
      "inputs": [],
      "name": "NoDepositsFound",
      "type": "error"
    },
    {
      "inputs": [],
      "name": "NoPendingCommission",
      "type": "error"
    },
    {
      "inputs": [],
      "name": "NoRewardsAvailable",
      "type": "error"
    },
    {
      "inputs": [],
      "name": "UnauthorizedSender",
      "type": "error"
    },
    {
      "anonymous": false,
      "inputs": [
        {
          "indexed": false,
          "internalType": "uint256",
          "name": "amount",
          "type": "uint256"
        },
        {
          "indexed": true,
          "internalType": "uint256",
          "name": "timestamp",
          "type": "uint256"
        }
      ],
      "name": "BalanceAdded",
      "type": "event"
    },
    {
      "anonymous": false,
      "inputs": [
        {
          "indexed": true,
          "internalType": "address",
          "name": "receiver",
          "type": "address"
        },
        {
          "indexed": false,
          "internalType": "uint256",
          "name": "amount",
          "type": "uint256"
        },
        {
          "indexed": true,
          "internalType": "uint256",
          "name": "timestamp",
          "type": "uint256"
        }
      ],
      "name": "CommissionPaid",
      "type": "event"
    },
    {
      "anonymous": false,
      "inputs": [
        {
          "indexed": true,
          "internalType": "address",
          "name": "newContract",
          "type": "address"
        },
        {
          "indexed": true,
          "internalType": "uint256",
          "name": "timestamp",
          "type": "uint256"
        }
      ],
      "name": "ContractMigrated",
      "type": "event"
    },
    {
      "anonymous": false,
      "inputs": [
        {
          "indexed": true,
          "internalType": "address",
          "name": "owner",
          "type": "address"
        },
        {
          "indexed": true,
          "internalType": "uint256",
          "name": "timestamp",
          "type": "uint256"
        }
      ],
      "name": "ContractPaused",
      "type": "event"
    },
    {
      "anonymous": false,
      "inputs": [
        {
          "indexed": true,
          "internalType": "address",
          "name": "owner",
          "type": "address"
        },
        {
          "indexed": true,
          "internalType": "uint256",
          "name": "timestamp",
          "type": "uint256"
        }
      ],
      "name": "ContractUnpaused",
      "type": "event"
    },
    {
      "anonymous": false,
      "inputs": [
        {
          "indexed": true,
          "internalType": "address",
          "name": "user",
          "type": "address"
        },
        {
          "indexed": true,
          "internalType": "uint256",
          "name": "depositId",
          "type": "uint256"
        },
        {
          "indexed": false,
          "internalType": "uint256",
          "name": "amount",
          "type": "uint256"
        },
        {
          "indexed": false,
          "internalType": "uint256",
          "name": "commission",
          "type": "uint256"
        },
        {
          "indexed": true,
          "internalType": "uint256",
          "name": "timestamp",
          "type": "uint256"
        }
      ],
      "name": "DepositMade",
      "type": "event"
    },
    {
      "anonymous": false,
      "inputs": [
        {
          "indexed": true,
          "internalType": "address",
          "name": "owner",
          "type": "address"
        },
        {
          "indexed": true,
          "internalType": "address",
          "name": "to",
          "type": "address"
        },
        {
          "indexed": false,
          "internalType": "uint256",
          "name": "amount",
          "type": "uint256"
        },
        {
          "indexed": true,
          "internalType": "uint256",
          "name": "timestamp",
          "type": "uint256"
        }
      ],
      "name": "EmergencyWithdrawOwner",
      "type": "event"
    },
    {
      "anonymous": false,
      "inputs": [
        {
          "indexed": true,
          "internalType": "address",
          "name": "user",
          "type": "address"
        },
        {
          "indexed": false,
          "internalType": "uint256",
          "name": "amount",
          "type": "uint256"
        },
        {
          "indexed": true,
          "internalType": "uint256",
          "name": "timestamp",
          "type": "uint256"
        }
      ],
      "name": "EmergencyWithdrawUser",
      "type": "event"
    },
    {
      "anonymous": false,
      "inputs": [
        {
          "indexed": true,
          "internalType": "address",
          "name": "previousOwner",
          "type": "address"
        },
        {
          "indexed": true,
          "internalType": "address",
          "name": "newOwner",
          "type": "address"
        }
      ],
      "name": "OwnershipTransferred",
      "type": "event"
    },
    {
      "anonymous": false,
      "inputs": [
        {
          "indexed": false,
          "internalType": "address",
          "name": "account",
          "type": "address"
        }
      ],
      "name": "Paused",
      "type": "event"
    },
    {
      "anonymous": false,
      "inputs": [
        {
          "indexed": true,
          "internalType": "address",
          "name": "user",
          "type": "address"
        },
        {
          "indexed": false,
          "internalType": "uint256",
          "name": "amount",
          "type": "uint256"
        }
      ],
      "name": "RewardsCompounded",
      "type": "event"
    },
    {
      "anonymous": false,
      "inputs": [
        {
          "indexed": true,
          "internalType": "address",
          "name": "previousTreasury",
          "type": "address"
        },
        {
          "indexed": true,
          "internalType": "address",
          "name": "newTreasury",
          "type": "address"
        },
        {
          "indexed": true,
          "internalType": "uint256",
          "name": "timestamp",
          "type": "uint256"
        }
      ],
      "name": "TreasuryAddressChanged",
      "type": "event"
    },
    {
      "anonymous": false,
      "inputs": [
        {
          "indexed": false,
          "internalType": "address",
          "name": "account",
          "type": "address"
        }
      ],
      "name": "Unpaused",
      "type": "event"
    },
    {
      "anonymous": false,
      "inputs": [
        {
          "indexed": true,
          "internalType": "address",
          "name": "user",
          "type": "address"
        },
        {
          "indexed": false,
          "internalType": "uint256",
          "name": "amount",
          "type": "uint256"
        },
        {
          "indexed": false,
          "internalType": "uint256",
          "name": "commission",
          "type": "uint256"
        },
        {
          "indexed": true,
          "internalType": "uint256",
          "name": "timestamp",
          "type": "uint256"
        },
        {
          "indexed": false,
          "internalType": "uint256",
          "name": "depositId",
          "type": "uint256"
        }
      ],
      "name": "WithdrawalMade",
      "type": "event"
    },
    {
      "inputs": [],
      "name": "addBalance",
      "outputs": [],
      "stateMutability": "payable",
      "type": "function"
    },
    {
      "inputs": [
        {
          "internalType": "address",
          "name": "_user",
          "type": "address"
        }
      ],
      "name": "calculateRewards",
      "outputs": [
        {
          "internalType": "uint256",
          "name": "",
          "type": "uint256"
        }
      ],
      "stateMutability": "view",
      "type": "function"
    },
    {
      "inputs": [
        {
          "internalType": "address",
          "name": "_newTreasury",
          "type": "address"
        }
      ],
      "name": "changeTreasuryAddress",
      "outputs": [],
      "stateMutability": "nonpayable",
      "type": "function"
    },
    {
      "inputs": [
        {
          "internalType": "uint64",
          "name": "_lockupDuration",
          "type": "uint64"
        }
      ],
      "name": "compound",
      "outputs": [],
      "stateMutability": "nonpayable",
      "type": "function"
    },
    {
      "inputs": [
        {
          "internalType": "uint64",
          "name": "_lockupDuration",
          "type": "uint64"
        }
      ],
      "name": "deposit",
      "outputs": [],
      "stateMutability": "payable",
      "type": "function"
    },
    {
      "inputs": [],
      "name": "emergencyUserWithdraw",
      "outputs": [],
      "stateMutability": "nonpayable",
      "type": "function"
    },
    {
      "inputs": [
        {
          "internalType": "address",
          "name": "to",
          "type": "address"
        }
      ],
      "name": "emergencyWithdraw",
      "outputs": [],
      "stateMutability": "nonpayable",
      "type": "function"
    },
    {
      "inputs": [],
      "name": "getContractBalance",
      "outputs": [
        {
          "internalType": "uint256",
          "name": "",
          "type": "uint256"
        }
      ],
      "stateMutability": "view",
      "type": "function"
    },
    {
      "inputs": [],
      "name": "getContractVersion",
      "outputs": [
        {
          "internalType": "uint256",
          "name": "",
          "type": "uint256"
        }
      ],
      "stateMutability": "pure",
      "type": "function"
    },
    {
      "inputs": [
        {
          "internalType": "address",
          "name": "userAddress",
          "type": "address"
        }
      ],
      "name": "getTotalDeposit",
      "outputs": [
        {
          "internalType": "uint256",
          "name": "",
          "type": "uint256"
        }
      ],
      "stateMutability": "view",
      "type": "function"
    },
    {
      "inputs": [
        {
          "internalType": "address",
          "name": "userAddress",
          "type": "address"
        }
      ],
      "name": "getUserDeposits",
      "outputs": [
        {
          "components": [
            {
              "internalType": "uint128",
              "name": "amount",
              "type": "uint128"
            },
            {
              "internalType": "uint64",
              "name": "timestamp",
              "type": "uint64"
            },
            {
              "internalType": "uint64",
              "name": "lastClaimTime",
              "type": "uint64"
            },
            {
              "internalType": "uint64",
              "name": "lockupDuration",
              "type": "uint64"
            }
          ],
          "internalType": "struct SmartStaking.Deposit[]",
          "name": "",
          "type": "tuple[]"
        }
      ],
      "stateMutability": "view",
      "type": "function"
    },
    {
      "inputs": [
        {
          "internalType": "address",
          "name": "userAddress",
          "type": "address"
        }
      ],
      "name": "getUserInfo",
      "outputs": [
        {
          "components": [
            {
              "internalType": "uint256",
              "name": "totalDeposited",
              "type": "uint256"
            },
            {
              "internalType": "uint256",
              "name": "pendingRewards",
              "type": "uint256"
            },
            {
              "internalType": "uint256",
              "name": "lastWithdraw",
              "type": "uint256"
            }
          ],
          "internalType": "struct SmartStaking.UserInfo",
          "name": "",
          "type": "tuple"
        }
      ],
      "stateMutability": "view",
      "type": "function"
    },
    {
      "inputs": [
        {
          "internalType": "address",
          "name": "_newContractAddress",
          "type": "address"
        }
      ],
      "name": "migrateToNewContract",
      "outputs": [],
      "stateMutability": "nonpayable",
      "type": "function"
    },
    {
      "inputs": [],
      "name": "migrated",
      "outputs": [
        {
          "internalType": "bool",
          "name": "",
          "type": "bool"
        }
      ],
      "stateMutability": "view",
      "type": "function"
    },
    {
      "inputs": [],
      "name": "newContractAddress",
      "outputs": [
        {
          "internalType": "address",
          "name": "",
          "type": "address"
        }
      ],
      "stateMutability": "view",
      "type": "function"
    },
    {
      "inputs": [],
      "name": "owner",
      "outputs": [
        {
          "internalType": "address",
          "name": "",
          "type": "address"
        }
      ],
      "stateMutability": "view",
      "type": "function"
    },
    {
      "inputs": [],
      "name": "pause",
      "outputs": [],
      "stateMutability": "nonpayable",
      "type": "function"
    },
    {
      "inputs": [],
      "name": "paused",
      "outputs": [
        {
          "internalType": "bool",
          "name": "",
          "type": "bool"
        }
      ],
      "stateMutability": "view",
      "type": "function"
    },
    {
      "inputs": [],
      "name": "pendingCommission",
      "outputs": [
        {
          "internalType": "uint256",
          "name": "",
          "type": "uint256"
        }
      ],
      "stateMutability": "view",
      "type": "function"
    },
    {
      "inputs": [],
      "name": "renounceOwnership",
      "outputs": [],
      "stateMutability": "nonpayable",
      "type": "function"
    },
    {
      "inputs": [],
      "name": "totalPoolBalance",
      "outputs": [
        {
          "internalType": "uint256",
          "name": "",
          "type": "uint256"
        }
      ],
      "stateMutability": "view",
      "type": "function"
    },
    {
      "inputs": [
        {
          "internalType": "address",
          "name": "newOwner",
          "type": "address"
        }
      ],
      "name": "transferOwnership",
      "outputs": [],
      "stateMutability": "nonpayable",
      "type": "function"
    },
    {
      "inputs": [],
      "name": "treasury",
      "outputs": [
        {
          "internalType": "address",
          "name": "",
          "type": "address"
        }
      ],
      "stateMutability": "view",
      "type": "function"
    },
    {
      "inputs": [],
      "name": "uniqueUsersCount",
      "outputs": [
        {
          "internalType": "uint256",
          "name": "",
          "type": "uint256"
        }
      ],
      "stateMutability": "view",
      "type": "function"
    },
    {
      "inputs": [],
      "name": "unpause",
      "outputs": [],
      "stateMutability": "nonpayable",
      "type": "function"
    },
    {
      "inputs": [],
      "name": "withdraw",
      "outputs": [],
      "stateMutability": "nonpayable",
      "type": "function"
    },
    {
      "inputs": [],
      "name": "withdrawAll",
      "outputs": [],
      "stateMutability": "nonpayable",
      "type": "function"
    },
    {
      "inputs": [],
      "name": "withdrawPendingCommission",
      "outputs": [],
      "stateMutability": "nonpayable",
      "type": "function"
    },
    {
      "stateMutability": "payable",
      "type": "receive"
    }
  ],
  "bytecode": "0x60803460d357601f611b7038819003918201601f19168301916001600160401b0383118484101760d75780849260209460405283398101031260d357516001600160a01b0381169081900360d3575f8054604051929133906001600160a01b038316907f8be0079c531659141344cd1fd0a4f28419497f9722a3daafe3b4186f6b6457e09080a36001600160a81b0319163360ff60a01b1916175f5560018055801560c457600280546001600160a01b031916919091179055611a8490816100ec8239f35b63e6c4247b60e01b5f5260045ffd5b5f80fd5b634e487b7160e01b5f52604160045260245ffdfe6080604052600436101561003b575b3615610018575f80fd5b6001600160a01b0360025416330361002c57005b630101292160e31b5f5260045ffd5b5f3560e01c806313765838146111dc5780632a5bf6d2146110805780632c678c641461105e5780633ccfd60b14610e145780633f4ba83a14610d975780635026d63e14610d7a5780635c975abb14610d5657806361d027b314610d305780636386c1c714610c9957806364ab867514610c625780636af04a5714610c3c5780636f9fb98a14610c215780636ff1c9bc14610baa578063715018a614610b535780638456cb5914610abf578063853828b614610829578063857184d1146107e55780638aa10435146107ca5780638da5cb5b146107a5578063a6f353f01461072d578063b163cc38146106bf578063b34fea67146104a7578063b8362bc714610418578063c9f8234f146103fb578063f01daef1146103de578063f2fde38b14610300578063fe0f869f146102175763fe1e05b50361000e5734610213576020366003190112610213576004356001600160a01b038116809103610213576101a0611953565b80156102045760075460ff81166101f557600380546001600160a01b0319168317905560ff191660011760075542907fa98abbd66d7b82d36401253301a8962d537e861495aac48844ac6f7d61b221f75f80a3005b6332870f2f60e21b5f5260045ffd5b63e6c4247b60e01b5f5260045ffd5b5f80fd5b34610213575f3660031901126102135761022f61175c565b6102376119fa565b335f52600860205260405f2060018101541580156102ee575b6102df576001600160801b039054168047106102d057610272816004546113fe565b6004555f1960065401600655335f52600860205261029260405f206116b8565b61029c813361187b565b60405190815242907f977aab5cb43bd7923db8ec4aa8569ff05a87062b287df31ed125e4202ba53bf660203392a360018055005b631e9acf1760e31b5f5260045ffd5b636f16c5e960e11b5f5260045ffd5b506001600160801b0381541615610250565b34610213576020366003190112610213576004356001600160a01b0381168091036102135761032d611953565b8015610373576001600160a01b035f54826001600160a01b03198216175f55167f8be0079c531659141344cd1fd0a4f28419497f9722a3daafe3b4186f6b6457e05f80a3005b60405162461bcd60e51b815260206004820152602660248201527f4f776e61626c653a206e6577206f776e657220697320746865207a65726f206160448201527f64647265737300000000000000000000000000000000000000000000000000006064820152608490fd5b34610213575f366003190112610213576020600554604051908152f35b34610213575f366003190112610213576020600654604051908152f35b34610213575f36600319011261021357610430611953565b6005548015610498575f6005555f808080846001600160a01b03600254165af1610458611721565b50156102d0576001600160a01b03600254166040519182527fe37b2ae9cc03ec700b9146c4df2fc797e7a1119c08fc25513755ab5315faa6d260204293a3005b635bac54f360e11b5f5260045ffd5b346102135760203660031901126102135760043567ffffffffffffffff8116808203610213576104d561175c565b6104dd6117b2565b60ff600754166106b05780151590816106a4575b81610698575b8161068c575b8161067f575b5061067057335f52600860205260405f2060018101805461012c8110156106575761052d336115c5565b9384156106485767ffffffffffffffff4216915f5b8181106105ee5750509161059461059d926105646001600160801b0395611438565b9267ffffffffffffffff8689169461057a61145d565b9386855280602086015260408501521660608301526114f0565b82845416611418565b166001600160801b03198254161790556105b98160045461140b565b6004556040519081527f8ce0a2fad3764c1fd039c26f784a2d7490f96db7928a834db2330abc1efd294460203392a260018055005b80610642856105ff600194896114c3565b509077ffffffffffffffffffffffffffffffffffffffffffffffff77ffffffffffffffffffffffffffffffffffffffffffffffff1983549260c01b169116179055565b01610542565b63afb0be3360e01b5f5260045ffd5b63756a320d60e11b5f523360045261012c60245260445ffd5b631ab8aa1760e21b5f5260045ffd5b61016d9150141582610503565b60b481141591506104fd565b605a81141591506104f7565b601e81141591506104f1565b63f2bcabb960e01b5f5260045ffd5b5f366003190112610213576106d2611953565b3415610715576106e43460045461140b565b6004556040513481527f2f59d1a3b7b985da630a67df5848afd649a7ac56a4f65c399458a7b1219d255660204292a2005b63ea691a4b60e01b5f525f600452600160245260445ffd5b34610213576020366003190112610213576004356001600160a01b0381168091036102135761075a611953565b80156102045760025490806001600160a01b03198316176002556001600160a01b034292167fb60b491be4b0e8f92e7d52f768ee5f0a27e956a74b6cf69560df226b0127778e5f80a4005b34610213575f3660031901126102135760206001600160a01b035f5416604051908152f35b34610213575f36600319011261021357602060405160038152f35b34610213576020366003190112610213576004356001600160a01b038116809103610213575f52600860205260206001600160801b0360405f205416604051908152f35b34610213575f3660031901126102135761084161175c565b6108496117b2565b60ff600754166106b057335f52600860205260405f206001810180549081156102df575f5b828110610a59578367ffffffffffffffff62015180420416335f52600a60205267ffffffffffffffff60405f2054168111610a1e575b506108ae336115c5565b906108c3826001600160801b0383541661140b565b91335f52600960205260405f2054683635c9adc5dea0000003683635c9adc5dea000008111610a0a578084116109f8575061092c6127106109246001600160801b0393335f52600960205260405f2061091d88825461140b565b90556113d3565b0480946113fe565b915416914761093b828461140b565b116102d05761094c836004546113fe565b6004555f1960065401600655335f52600860205261096c60405f206116b8565b610976823361187b565b806109ea575b60405191825260208201525f19604082015242907f92f2787b755dae547f1701582fe74c7abf277ec14db316dd01abc69cacf7a25960603392a360405190815242907f977aab5cb43bd7923db8ec4aa8569ff05a87062b287df31ed125e4202ba53bf660203392a360018055005b6109f381611805565b61097c565b631aefe80360e21b5f5260045260245ffd5b634e487b7160e01b5f52601160045260245ffd5b335f5260096020525f6040812055335f52600a60205267ffffffffffffffff60405f20911667ffffffffffffffff19825416179055816108a4565b610a6381836114c3565b5067ffffffffffffffff6001820154168015159182610a9a575b5050610a8b5760010161086e565b633b20f1c360e21b5f5260045ffd5b67ffffffffffffffff809350610ab592915460801c166115a3565b1642108580610a7d565b34610213575f36600319011261021357610ad7611953565b610adf6117b2565b7401000000000000000000000000000000000000000060ff60a01b195f5416175f557f62e78cea01bee320cd4e420270b5ea74000d11b0c9f74754ebdbfc544b05a2586020604051338152a142337f80170b5fcdd2bf1e0660ef4b8851f86685f64d41b1a19de1471947ece8725aac5f80a3005b34610213575f36600319011261021357610b6b611953565b5f6001600160a01b0381546001600160a01b031981168355167f8be0079c531659141344cd1fd0a4f28419497f9722a3daafe3b4186f6b6457e08280a3005b34610213576020366003190112610213576004356001600160a01b03811680910361021357610bd7611953565b610bdf6119fa565b8015610204574790610bf1828261187b565b60405191825242917fa9936b0b3bd9c38a0b53648f98d600d5e84f608f58aab150ade90176579b271b60203392a4005b34610213575f36600319011261021357602047604051908152f35b34610213575f3660031901126102135760206001600160a01b0360035416604051908152f35b34610213576020366003190112610213576004356001600160a01b038116810361021357610c916020916115c5565b604051908152f35b34610213576020366003190112610213576004356001600160a01b03811690818103610213576060915f6040610ccd61147d565b82815282602082015201525f52600860205260405f2054610cf76001600160801b038216926115c5565b67ffffffffffffffff6040610d0a61147d565b85815260208101938452019260801c168252604051928352516020830152516040820152f35b34610213575f3660031901126102135760206001600160a01b0360025416604051908152f35b34610213575f36600319011261021357602060ff5f5460a01c166040519015158152f35b34610213575f366003190112610213576020600454604051908152f35b34610213575f36600319011261021357610daf611953565b610db76119fa565b60ff60a01b195f54165f557f5db9ee0a495bf2e6ff9c91a7834c1ba4fdd244a5e8aa4e537bd38aeae4b073aa6020604051338152a142337f107553d8191d85b405879cf752997865edd48d94e20bda4dd27223c94b31a7cc5f80a3005b34610213575f36600319011261021357610e2c61175c565b610e346117b2565b60ff600754166106b057335f52600860205260405f206001810190815467ffffffffffffffff62015180420416335f52600a60205267ffffffffffffffff60405f2054168111611023575b50610e89336115c5565b90811561064857335f52600960205260405f2054683635c9adc5dea0000003683635c9adc5dea000008111610a0a578083116109f857505f5b818110610fcc5750335f52600960205260405f20610ee183825461140b565b9055610efa612710610ef2846113d3565b0480936113fe565b9247610f06848661140b565b116102d05767ffffffffffffffff4216915f5b818110610fb557505090610f6391907fffffffffffffffff0000000000000000ffffffffffffffffffffffffffffffff67ffffffffffffffff60801b83549260801b169116179055565b610f6c81611805565b610f76823361187b565b60405191825260208201525f604082015242907f92f2787b755dae547f1701582fe74c7abf277ec14db316dd01abc69cacf7a25960603392a360018055005b80610fc6856105ff6001948b6114c3565b01610f19565b610fd681866114c3565b5067ffffffffffffffff6001820154168015159182610ffe575b5050610a8b57600101610ec2565b67ffffffffffffffff80935061101992915460801c166115a3565b1642108680610ff0565b335f5260096020525f6040812055335f52600a60205267ffffffffffffffff60405f20911667ffffffffffffffff1982541617905583610e7f565b34610213575f36600319011261021357602060ff600754166040519015158152f35b34610213576020366003190112610213576004356001600160a01b038116809103610213578015610204575f526008602052600160405f200180549067ffffffffffffffff82116111c8576110da60208360051b0161149d565b918083526020830180925f5260205f205f915b838310611170578486604051918291602083019060208452518091526040830191905f5b81811061111f575050500390f35b919350916020608060019267ffffffffffffffff606088516001600160801b038151168452828682015116868501528260408201511660408501520151166060820152019401910191849392611111565b6002602060019261117f61145d565b85546001600160801b038116825267ffffffffffffffff8160801c168483015260c01c604082015267ffffffffffffffff858701541660608201528152019201920191906110ed565b634e487b7160e01b5f52604160045260245ffd5b60203660031901126102135760043567ffffffffffffffff81168082036102135761120561175c565b61120d6117b2565b60ff600754166106b057674563918244f4000034106113b45769021e19e0c9bab24000003411611393578015159081611387575b8161137b575b8161136f575b81611362575b5061067057335f52600860205260405f20906001820180549261012c8410156106575761131290612710611286346113d3565b049261129284346113fe565b9515611354575b6112a58660045461140b565b6004556001600160801b038616916001600160801b036112c88482845416611418565b166001600160801b031982541617905567ffffffffffffffff8154956112f082421691611438565b906112f961145d565b94855280602086015260408501521660608301526114f0565b61131b81611805565b604051928352602083015242917ff0c0eca9f6ed9ad8da1bc85eb9c9ee44f49b92275543eec272134ef0b091d10a60403392a460018055005b600160065401600655611299565b61016d9150141582611253565b60b4811415915061124d565b605a8114159150611247565b601e8114159150611241565b6330250a5b60e11b5f523460045269021e19e0c9bab240000060245260445ffd5b63ea691a4b60e01b5f5234600452674563918244f4000060245260445ffd5b906102588202918083046102581490151715610a0a57565b81810292918115918404141715610a0a57565b91908203918211610a0a57565b91908201809211610a0a57565b906001600160801b03809116911601906001600160801b038211610a0a57565b67ffffffffffffffff620151809116029067ffffffffffffffff8216918203610a0a57565b604051906080820182811067ffffffffffffffff8211176111c857604052565b604051906060820182811067ffffffffffffffff8211176111c857604052565b6040519190601f01601f1916820167ffffffffffffffff8111838210176111c857604052565b80548210156114dc575f5260205f209060011b01905f90565b634e487b7160e01b5f52603260045260245ffd5b8054680100000000000000008110156111c857611512916001820181556114c3565b9190916115905780516020820151604083015160c01b77ffffffffffffffffffffffffffffffffffffffffffffffff19166001600160801b0390921660809190911b67ffffffffffffffff60801b1617178255606001516001909101805467ffffffffffffffff191667ffffffffffffffff92909216919091179055565b634e487b7160e01b5f525f60045260245ffd5b9067ffffffffffffffff8091169116019067ffffffffffffffff8211610a0a57565b6001600160a01b03165f52600860205260405f2060015f91018054905f5b8281106115f05750505090565b6115fa81836114c3565b50805461160a8160c01c426113fe565b6301e1338081116116ad575b610e109004918261162d575b5050506001016115e3565b6402540be4006116646001600160801b0361165b67ffffffffffffffff60016130d4969c999c0154166119aa565b941693846113eb565b049102926001600160801b038416938403610a0a5761168d61169c9361271060019604936113eb565b918083116116a5575b5061140b565b93905f80611622565b91505f611696565b506301e13380611616565b6001905f8155018054905f8155816116ce575050565b7f7fffffffffffffffffffffffffffffffffffffffffffffffffffffffffffffff82168203610a0a575f5260205f209060011b8101905b818110611710575050565b5f8082556001820155600201611705565b3d15611757573d9067ffffffffffffffff82116111c85761174b601f8301601f191660200161149d565b9182523d5f602084013e565b606090565b60026001541461176d576002600155565b60405162461bcd60e51b815260206004820152601f60248201527f5265656e7472616e637947756172643a207265656e7472616e742063616c6c006044820152606490fd5b60ff5f5460a01c166117c057565b60405162461bcd60e51b815260206004820152601060248201527f5061757361626c653a20706175736564000000000000000000000000000000006044820152606490fd5b8061180d5750565b5f808080846001600160a01b03600254166108fcf161182a611721565b501561186a576001600160a01b03600254166040519182527fe37b2ae9cc03ec700b9146c4df2fc797e7a1119c08fc25513755ab5315faa6d260204293a3565b6118769060055461140b565b600555565b81471061190e575f8080936001600160a01b038294165af161189b611721565b50156118a357565b60405162461bcd60e51b815260206004820152603a60248201527f416464726573733a20756e61626c6520746f2073656e642076616c75652c207260448201527f6563697069656e74206d617920686176652072657665727465640000000000006064820152608490fd5b60405162461bcd60e51b815260206004820152601d60248201527f416464726573733a20696e73756666696369656e742062616c616e63650000006044820152606490fd5b6001600160a01b035f5416330361196657565b606460405162461bcd60e51b815260206004820152602060248201527f4f776e61626c653a2063616c6c6572206973206e6f7420746865206f776e65726044820152fd5b806119b55750606490565b62278d0081036119c55750607890565b6276a70081036119d5575060a090565b62ed4e0081036119e5575060c890565b6301e13380036119f55761012c90565b606490565b60ff5f5460a01c1615611a0957565b60405162461bcd60e51b815260206004820152601460248201527f5061757361626c653a206e6f74207061757365640000000000000000000000006044820152606490fdfea26469706673582212207b9b9f3039e7b4904b2eb1d6a1ea2ef424ba9323124a48785439f94453cb9bde64736f6c634300081c0033",
  "linkReferences": {},
  "deployedLinkReferences": {}
}