{
  "_format": "hh-sol-artifact-1",
  "contractName": "LevelingSystem",
  "sourceName": "contracts/Marketplace/LevelingSystem.sol",
  "abi": [
    {
      "inputs": [],
      "stateMutability": "nonpayable",
      "type": "constructor"
    },
    {
      "anonymous": false,
      "inputs": [
        {
          "indexed": false,
          "internalType": "address",
          "name": "previousAdmin",
          "type": "address"
        },
        {
          "indexed": false,
          "internalType": "address",
          "name": "newAdmin",
          "type": "address"
        }
      ],
      "name": "AdminChanged",
      "type": "event"
    },
    {
      "anonymous": false,
      "inputs": [
        {
          "indexed": true,
          "internalType": "address",
          "name": "user",
          "type": "address"
        },
        {
          "indexed": false,
          "internalType": "uint256",
          "name": "badgeId",
          "type": "uint256"
        },
        {
          "indexed": false,
          "internalType": "string",
          "name": "name",
          "type": "string"
        }
      ],
      "name": "BadgeEarned",
      "type": "event"
    },
    {
      "anonymous": false,
      "inputs": [
        {
          "indexed": true,
          "internalType": "address",
          "name": "beacon",
          "type": "address"
        }
      ],
      "name": "BeaconUpgraded",
      "type": "event"
    },
    {
      "anonymous": false,
      "inputs": [
        {
          "indexed": false,
          "internalType": "uint8",
          "name": "version",
          "type": "uint8"
        }
      ],
      "name": "Initialized",
      "type": "event"
    },
    {
      "anonymous": false,
      "inputs": [
        {
          "indexed": true,
          "internalType": "address",
          "name": "user",
          "type": "address"
        },
        {
          "indexed": false,
          "internalType": "uint8",
          "name": "newLevel",
          "type": "uint8"
        }
      ],
      "name": "LevelUp",
      "type": "event"
    },
    {
      "anonymous": false,
      "inputs": [
        {
          "indexed": true,
          "internalType": "address",
          "name": "buyer",
          "type": "address"
        }
      ],
      "name": "NFTBought",
      "type": "event"
    },
    {
      "anonymous": false,
      "inputs": [
        {
          "indexed": true,
          "internalType": "address",
          "name": "creator",
          "type": "address"
        }
      ],
      "name": "NFTCreated",
      "type": "event"
    },
    {
      "anonymous": false,
      "inputs": [
        {
          "indexed": true,
          "internalType": "address",
          "name": "owner",
          "type": "address"
        }
      ],
      "name": "NFTOwned",
      "type": "event"
    },
    {
      "anonymous": false,
      "inputs": [
        {
          "indexed": true,
          "internalType": "address",
          "name": "seller",
          "type": "address"
        }
      ],
      "name": "NFTSold",
      "type": "event"
    },
    {
      "anonymous": false,
      "inputs": [
        {
          "indexed": true,
          "internalType": "address",
          "name": "user",
          "type": "address"
        },
        {
          "indexed": false,
          "internalType": "uint256",
          "name": "amount",
          "type": "uint256"
        }
      ],
      "name": "RewardPaid",
      "type": "event"
    },
    {
      "anonymous": false,
      "inputs": [
        {
          "indexed": true,
          "internalType": "bytes32",
          "name": "role",
          "type": "bytes32"
        },
        {
          "indexed": true,
          "internalType": "bytes32",
          "name": "previousAdminRole",
          "type": "bytes32"
        },
        {
          "indexed": true,
          "internalType": "bytes32",
          "name": "newAdminRole",
          "type": "bytes32"
        }
      ],
      "name": "RoleAdminChanged",
      "type": "event"
    },
    {
      "anonymous": false,
      "inputs": [
        {
          "indexed": true,
          "internalType": "bytes32",
          "name": "role",
          "type": "bytes32"
        },
        {
          "indexed": true,
          "internalType": "address",
          "name": "account",
          "type": "address"
        },
        {
          "indexed": true,
          "internalType": "address",
          "name": "sender",
          "type": "address"
        }
      ],
      "name": "RoleGranted",
      "type": "event"
    },
    {
      "anonymous": false,
      "inputs": [
        {
          "indexed": true,
          "internalType": "bytes32",
          "name": "role",
          "type": "bytes32"
        },
        {
          "indexed": true,
          "internalType": "address",
          "name": "account",
          "type": "address"
        },
        {
          "indexed": true,
          "internalType": "address",
          "name": "sender",
          "type": "address"
        }
      ],
      "name": "RoleRevoked",
      "type": "event"
    },
    {
      "anonymous": false,
      "inputs": [
        {
          "indexed": true,
          "internalType": "address",
          "name": "implementation",
          "type": "address"
        }
      ],
      "name": "Upgraded",
      "type": "event"
    },
    {
      "anonymous": false,
      "inputs": [
        {
          "indexed": true,
          "internalType": "address",
          "name": "user",
          "type": "address"
        },
        {
          "indexed": false,
          "internalType": "uint256",
          "name": "amount",
          "type": "uint256"
        },
        {
          "indexed": false,
          "internalType": "string",
          "name": "reason",
          "type": "string"
        }
      ],
      "name": "XPGained",
      "type": "event"
    },
    {
      "inputs": [],
      "name": "ADMIN_ROLE",
      "outputs": [
        {
          "internalType": "bytes32",
          "name": "",
          "type": "bytes32"
        }
      ],
      "stateMutability": "view",
      "type": "function"
    },
    {
      "inputs": [],
      "name": "DEFAULT_ADMIN_ROLE",
      "outputs": [
        {
          "internalType": "bytes32",
          "name": "",
          "type": "bytes32"
        }
      ],
      "stateMutability": "view",
      "type": "function"
    },
    {
      "inputs": [],
      "name": "MARKETPLACE_ROLE",
      "outputs": [
        {
          "internalType": "bytes32",
          "name": "",
          "type": "bytes32"
        }
      ],
      "stateMutability": "view",
      "type": "function"
    },
    {
      "inputs": [],
      "name": "UPGRADER_ROLE",
      "outputs": [
        {
          "internalType": "bytes32",
          "name": "",
          "type": "bytes32"
        }
      ],
      "stateMutability": "view",
      "type": "function"
    },
    {
      "inputs": [
        {
          "internalType": "address",
          "name": "user",
          "type": "address"
        },
        {
          "internalType": "uint256",
          "name": "amount",
          "type": "uint256"
        }
      ],
      "name": "addXP",
      "outputs": [],
      "stateMutability": "nonpayable",
      "type": "function"
    },
    {
      "inputs": [
        {
          "internalType": "address",
          "name": "user",
          "type": "address"
        },
        {
          "internalType": "uint256",
          "name": "id",
          "type": "uint256"
        },
        {
          "internalType": "string",
          "name": "name",
          "type": "string"
        },
        {
          "internalType": "string",
          "name": "description",
          "type": "string"
        }
      ],
      "name": "awardBadge",
      "outputs": [],
      "stateMutability": "nonpayable",
      "type": "function"
    },
    {
      "inputs": [
        {
          "internalType": "address",
          "name": "",
          "type": "address"
        }
      ],
      "name": "dailyXPGained",
      "outputs": [
        {
          "internalType": "uint256",
          "name": "",
          "type": "uint256"
        }
      ],
      "stateMutability": "view",
      "type": "function"
    },
    {
      "inputs": [],
      "name": "getBadgeStats",
      "outputs": [
        {
          "internalType": "uint256",
          "name": "totalBadgesAwarded",
          "type": "uint256"
        },
        {
          "internalType": "uint256",
          "name": "uniqueBadgeTypes",
          "type": "uint256"
        },
        {
          "internalType": "uint256[]",
          "name": "badgeIds",
          "type": "uint256[]"
        },
        {
          "internalType": "uint256[]",
          "name": "awardCounts",
          "type": "uint256[]"
        }
      ],
      "stateMutability": "pure",
      "type": "function"
    },
    {
      "inputs": [],
      "name": "getLevelDistribution",
      "outputs": [
        {
          "internalType": "uint8[]",
          "name": "levels",
          "type": "uint8[]"
        },
        {
          "internalType": "uint256[]",
          "name": "userCounts",
          "type": "uint256[]"
        }
      ],
      "stateMutability": "pure",
      "type": "function"
    },
    {
      "inputs": [
        {
          "internalType": "uint256",
          "name": "_totalXP",
          "type": "uint256"
        }
      ],
      "name": "getLevelFromXP",
      "outputs": [
        {
          "internalType": "uint8",
          "name": "",
          "type": "uint8"
        }
      ],
      "stateMutability": "pure",
      "type": "function"
    },
    {
      "inputs": [],
      "name": "getLevelingStats",
      "outputs": [
        {
          "internalType": "uint256",
          "name": "totalUsers",
          "type": "uint256"
        },
        {
          "internalType": "uint256",
          "name": "totalXPAwarded",
          "type": "uint256"
        },
        {
          "internalType": "uint8",
          "name": "averageLevel",
          "type": "uint8"
        },
        {
          "internalType": "uint8",
          "name": "highestLevel",
          "type": "uint8"
        },
        {
          "internalType": "uint256",
          "name": "maxLevelUsers",
          "type": "uint256"
        }
      ],
      "stateMutability": "pure",
      "type": "function"
    },
    {
      "inputs": [
        {
          "internalType": "bytes32",
          "name": "role",
          "type": "bytes32"
        }
      ],
      "name": "getRoleAdmin",
      "outputs": [
        {
          "internalType": "bytes32",
          "name": "",
          "type": "bytes32"
        }
      ],
      "stateMutability": "view",
      "type": "function"
    },
    {
      "inputs": [
        {
          "internalType": "address",
          "name": "user",
          "type": "address"
        }
      ],
      "name": "getUserBadges",
      "outputs": [
        {
          "components": [
            {
              "internalType": "uint256",
              "name": "id",
              "type": "uint256"
            },
            {
              "internalType": "string",
              "name": "name",
              "type": "string"
            },
            {
              "internalType": "string",
              "name": "description",
              "type": "string"
            },
            {
              "internalType": "uint256",
              "name": "dateEarned",
              "type": "uint256"
            }
          ],
          "internalType": "struct LevelingSystem.Badge[]",
          "name": "",
          "type": "tuple[]"
        }
      ],
      "stateMutability": "view",
      "type": "function"
    },
    {
      "inputs": [
        {
          "internalType": "address",
          "name": "_user",
          "type": "address"
        }
      ],
      "name": "getUserLevelProgress",
      "outputs": [
        {
          "internalType": "uint8",
          "name": "currentLevel",
          "type": "uint8"
        },
        {
          "internalType": "uint256",
          "name": "currentLevelXP",
          "type": "uint256"
        },
        {
          "internalType": "uint256",
          "name": "xpInCurrentLevel",
          "type": "uint256"
        },
        {
          "internalType": "uint256",
          "name": "xpNeededForNext",
          "type": "uint256"
        },
        {
          "internalType": "uint256",
          "name": "progressPercentage",
          "type": "uint256"
        }
      ],
      "stateMutability": "view",
      "type": "function"
    },
    {
      "inputs": [
        {
          "internalType": "address",
          "name": "user",
          "type": "address"
        }
      ],
      "name": "getUserProfile",
      "outputs": [
        {
          "components": [
            {
              "internalType": "uint256",
              "name": "totalXP",
              "type": "uint256"
            },
            {
              "internalType": "uint8",
              "name": "level",
              "type": "uint8"
            },
            {
              "internalType": "uint256",
              "name": "nftsCreated",
              "type": "uint256"
            },
            {
              "internalType": "uint256",
              "name": "nftsOwned",
              "type": "uint256"
            },
            {
              "internalType": "uint32",
              "name": "nftsSold",
              "type": "uint32"
            },
            {
              "internalType": "uint32",
              "name": "nftsBought",
              "type": "uint32"
            }
          ],
          "internalType": "struct LevelingSystem.UserProfile",
          "name": "",
          "type": "tuple"
        }
      ],
      "stateMutability": "view",
      "type": "function"
    },
    {
      "inputs": [
        {
          "internalType": "address",
          "name": "user",
          "type": "address"
        }
      ],
      "name": "getUserProfileDetailed",
      "outputs": [
        {
          "internalType": "uint256",
          "name": "totalXP",
          "type": "uint256"
        },
        {
          "internalType": "uint8",
          "name": "level",
          "type": "uint8"
        },
        {
          "internalType": "uint256",
          "name": "nftsCreated",
          "type": "uint256"
        },
        {
          "internalType": "uint256",
          "name": "nftsOwned",
          "type": "uint256"
        },
        {
          "internalType": "uint32",
          "name": "nftsSold",
          "type": "uint32"
        },
        {
          "internalType": "uint32",
          "name": "nftsBought",
          "type": "uint32"
        },
        {
          "internalType": "uint256",
          "name": "xpForCurrentLevel",
          "type": "uint256"
        },
        {
          "internalType": "uint256",
          "name": "xpForNextLevel",
          "type": "uint256"
        }
      ],
      "stateMutability": "view",
      "type": "function"
    },
    {
      "inputs": [
        {
          "internalType": "address",
          "name": "",
          "type": "address"
        }
      ],
      "name": "getUserRanking",
      "outputs": [
        {
          "internalType": "uint256",
          "name": "rank",
          "type": "uint256"
        },
        {
          "internalType": "uint256",
          "name": "totalUsers",
          "type": "uint256"
        },
        {
          "internalType": "uint256",
          "name": "percentile",
          "type": "uint256"
        }
      ],
      "stateMutability": "pure",
      "type": "function"
    },
    {
      "inputs": [
        {
          "internalType": "uint256",
          "name": "_limit",
          "type": "uint256"
        }
      ],
      "name": "getXPLeaderboard",
      "outputs": [
        {
          "internalType": "address[]",
          "name": "users",
          "type": "address[]"
        },
        {
          "internalType": "uint256[]",
          "name": "xpAmounts",
          "type": "uint256[]"
        },
        {
          "internalType": "uint8[]",
          "name": "levels",
          "type": "uint8[]"
        }
      ],
      "stateMutability": "pure",
      "type": "function"
    },
    {
      "inputs": [
        {
          "internalType": "uint8",
          "name": "_level",
          "type": "uint8"
        }
      ],
      "name": "getXPRequiredForLevel",
      "outputs": [
        {
          "internalType": "uint256",
          "name": "",
          "type": "uint256"
        }
      ],
      "stateMutability": "pure",
      "type": "function"
    },
    {
      "inputs": [
        {
          "internalType": "bytes32",
          "name": "role",
          "type": "bytes32"
        },
        {
          "internalType": "address",
          "name": "account",
          "type": "address"
        }
      ],
      "name": "grantRole",
      "outputs": [],
      "stateMutability": "nonpayable",
      "type": "function"
    },
    {
      "inputs": [
        {
          "internalType": "bytes32",
          "name": "role",
          "type": "bytes32"
        },
        {
          "internalType": "address",
          "name": "account",
          "type": "address"
        }
      ],
      "name": "hasRole",
      "outputs": [
        {
          "internalType": "bool",
          "name": "",
          "type": "bool"
        }
      ],
      "stateMutability": "view",
      "type": "function"
    },
    {
      "inputs": [
        {
          "internalType": "address",
          "name": "user",
          "type": "address"
        }
      ],
      "name": "incrementNftsOwned",
      "outputs": [],
      "stateMutability": "nonpayable",
      "type": "function"
    },
    {
      "inputs": [
        {
          "internalType": "address",
          "name": "platformAdmin",
          "type": "address"
        }
      ],
      "name": "initialize",
      "outputs": [],
      "stateMutability": "nonpayable",
      "type": "function"
    },
    {
      "inputs": [
        {
          "internalType": "address",
          "name": "",
          "type": "address"
        }
      ],
      "name": "lastXPDay",
      "outputs": [
        {
          "internalType": "uint256",
          "name": "",
          "type": "uint256"
        }
      ],
      "stateMutability": "view",
      "type": "function"
    },
    {
      "inputs": [],
      "name": "proxiableUUID",
      "outputs": [
        {
          "internalType": "bytes32",
          "name": "",
          "type": "bytes32"
        }
      ],
      "stateMutability": "view",
      "type": "function"
    },
    {
      "inputs": [
        {
          "internalType": "address",
          "name": "buyer",
          "type": "address"
        }
      ],
      "name": "recordNFTBought",
      "outputs": [],
      "stateMutability": "nonpayable",
      "type": "function"
    },
    {
      "inputs": [
        {
          "internalType": "address",
          "name": "creator",
          "type": "address"
        }
      ],
      "name": "recordNFTCreated",
      "outputs": [],
      "stateMutability": "nonpayable",
      "type": "function"
    },
    {
      "inputs": [
        {
          "internalType": "address",
          "name": "creator",
          "type": "address"
        },
        {
          "internalType": "uint256",
          "name": "count",
          "type": "uint256"
        }
      ],
      "name": "recordNFTCreatedBatch",
      "outputs": [
        {
          "internalType": "uint256",
          "name": "",
          "type": "uint256"
        }
      ],
      "stateMutability": "nonpayable",
      "type": "function"
    },
    {
      "inputs": [
        {
          "internalType": "address",
          "name": "owner",
          "type": "address"
        }
      ],
      "name": "recordNFTOwned",
      "outputs": [],
      "stateMutability": "nonpayable",
      "type": "function"
    },
    {
      "inputs": [
        {
          "internalType": "address",
          "name": "seller",
          "type": "address"
        }
      ],
      "name": "recordNFTSold",
      "outputs": [],
      "stateMutability": "nonpayable",
      "type": "function"
    },
    {
      "inputs": [
        {
          "internalType": "bytes32",
          "name": "role",
          "type": "bytes32"
        },
        {
          "internalType": "address",
          "name": "account",
          "type": "address"
        }
      ],
      "name": "renounceRole",
      "outputs": [],
      "stateMutability": "nonpayable",
      "type": "function"
    },
    {
      "inputs": [
        {
          "internalType": "bytes32",
          "name": "role",
          "type": "bytes32"
        },
        {
          "internalType": "address",
          "name": "account",
          "type": "address"
        }
      ],
      "name": "revokeRole",
      "outputs": [],
      "stateMutability": "nonpayable",
      "type": "function"
    },
    {
      "inputs": [
        {
          "internalType": "bytes4",
          "name": "interfaceId",
          "type": "bytes4"
        }
      ],
      "name": "supportsInterface",
      "outputs": [
        {
          "internalType": "bool",
          "name": "",
          "type": "bool"
        }
      ],
      "stateMutability": "view",
      "type": "function"
    },
    {
      "inputs": [
        {
          "internalType": "address",
          "name": "user",
          "type": "address"
        },
        {
          "internalType": "uint256",
          "name": "xpAmount",
          "type": "uint256"
        },
        {
          "internalType": "string",
          "name": "reason",
          "type": "string"
        }
      ],
      "name": "updateUserXP",
      "outputs": [],
      "stateMutability": "nonpayable",
      "type": "function"
    },
    {
      "inputs": [
        {
          "internalType": "address",
          "name": "newImplementation",
          "type": "address"
        }
      ],
      "name": "upgradeTo",
      "outputs": [],
      "stateMutability": "nonpayable",
      "type": "function"
    },
    {
      "inputs": [
        {
          "internalType": "address",
          "name": "newImplementation",
          "type": "address"
        },
        {
          "internalType": "bytes",
          "name": "data",
          "type": "bytes"
        }
      ],
      "name": "upgradeToAndCall",
      "outputs": [],
      "stateMutability": "payable",
      "type": "function"
    },
    {
      "inputs": [
        {
          "internalType": "address",
          "name": "",
          "type": "address"
        },
        {
          "internalType": "uint256",
          "name": "",
          "type": "uint256"
        }
      ],
      "name": "userBadges",
      "outputs": [
        {
          "internalType": "uint256",
          "name": "id",
          "type": "uint256"
        },
        {
          "internalType": "string",
          "name": "name",
          "type": "string"
        },
        {
          "internalType": "string",
          "name": "description",
          "type": "string"
        },
        {
          "internalType": "uint256",
          "name": "dateEarned",
          "type": "uint256"
        }
      ],
      "stateMutability": "view",
      "type": "function"
    },
    {
      "inputs": [
        {
          "internalType": "address",
          "name": "",
          "type": "address"
        }
      ],
      "name": "userProfiles",
      "outputs": [
        {
          "internalType": "uint256",
          "name": "totalXP",
          "type": "uint256"
        },
        {
          "internalType": "uint8",
          "name": "level",
          "type": "uint8"
        },
        {
          "internalType": "uint256",
          "name": "nftsCreated",
          "type": "uint256"
        },
        {
          "internalType": "uint256",
          "name": "nftsOwned",
          "type": "uint256"
        },
        {
          "internalType": "uint32",
          "name": "nftsSold",
          "type": "uint32"
        },
        {
          "internalType": "uint32",
          "name": "nftsBought",
          "type": "uint32"
        }
      ],
      "stateMutability": "view",
      "type": "function"
    },
    {
      "stateMutability": "payable",
      "type": "receive"
    }
  ],
  "bytecode": "0x60a06040523461003257610011610036565b60405161385d6101c582396080518181816117e80152612011015261385d90f35b5f80fd5b61003e61007d565b610046610155565b565b61005c9061005f906001600160a01b031682565b90565b6001600160a01b031690565b61005c90610048565b61005c9061006b565b61008630610074565b608052565b61005c9060081c5b60ff1690565b61005c905461008b565b60208082526027908201527f496e697469616c697a61626c653a20636f6e747261637420697320696e697469604082015266616c697a696e6760c81b606082015260800190565b156100f157565b60405162461bcd60e51b81528061010a600482016100a3565b0390fd5b61005c90610093565b61005c905461010e565b61009361005c61005c9260ff1690565b9061014161005c61015192610121565b825460ff191660ff919091161790565b9055565b61016e6101696101656001610099565b1590565b6100ea565b6101786001610117565b60ff9081160361018457565b61019060ff6001610131565b7f7f26b83ff96e1f2b6a682f133852f6798a09c465da95921460cefb38474024986101ba60405190565b60ff8152602090a156fe6080604052600436101561001a575b3615610018575f80fd5b005b5f3560e01c80629573e51461027857806301ffc9a71461027357806320de46ca1461026e578063248a9ca3146102695780632f2ff15d14610264578063332d56d71461025f57806336568abe1461025a5780633659cfe61461025557806337c245fe146102505780633d4358cd1461024b5780633d6931e8146102465780633e3721a2146102415780634f1ef2861461023c5780634f41e1bd146102375780634fbf87931461023257806352d1902d1461022d57806375b238fc146102285780638068b830146102235780638efa571f1461021e57806391d1485414610219578063987ee156146102145780639ae7ad5e1461020f578063a217fddf1461020a578063a40ade0a14610205578063c3439f3f14610200578063c4d66de8146101fb578063ccef8318146101f6578063d0654f35146101f1578063d1668261146101ec578063d2555cc5146101e7578063d547741f146101e2578063d9c68690146101dd578063dc8a7851146101d8578063df91cc23146101d3578063e81b4534146101ce578063f0b7729f146101c9578063f72c0d8b146101c45763fdcbaf970361000e57611115565b6110dc565b6110c4565b61109a565b610fe8565b610e03565b610deb565b610dd2565b610da4565b610d0e565b610cbe565b610c64565b610c4c565b610c26565b610c0d565b610bf2565b610ba3565b610af0565b610a6e565b610a56565b610a25565b6109af565b610994565b610972565b610957565b610919565b6108c7565b610779565b61073d565b610707565b6105ce565b6105b5565b610581565b610463565b610425565b6103f6565b61034d565b6102eb565b6001600160a01b031690565b90565b6001600160a01b0381165b0361029e57565b5f80fd5b905035906102af8261028c565b565b80610297565b905035906102af826102b1565b919060408382031261029e576102899060206102e082866102a2565b94016102b7565b9052565b3461029e576103186103076103013660046102c4565b906115fa565b6040515b9182918290815260200190565b0390f35b6001600160e01b03198116610297565b905035906102af8261031c565b9060208282031261029e576102899161032c565b3461029e57610318610368610363366004610339565b611605565b60405191829182901515815260200190565b9060208282031261029e57610289916102a2565b61027d610289610289926001600160a01b031690565b6102899061038e565b610289906103a4565b906103c0906103ad565b5f5260205260405f2090565b610289916008021c81565b9061028991546103cc565b5f6103f16102899260036103b6565b6103d7565b3461029e5761031861030761040c36600461037a565b6103e2565b9060208282031261029e57610289916102b7565b3461029e5761031861030761043b366004610411565b611645565b919060408382031261029e5761028990602061045c82866102b7565b94016102a2565b3461029e5761047c610476366004610440565b9061167d565b604051005b6102899081565b6102899054610481565b610289905b60ff1690565b6102899054610492565b610289905b63ffffffff1690565b61028990546104a7565b6102899060201c6104ac565b61028990546104bf565b6104e09060026103b6565b906104ea82610488565b916104f76001820161049d565b9161050460028301610488565b9161051160038201610488565b9161028960046105228185016104b5565b93016104cb565b91946105686105759298979561056160a09661055a6102af9a61055060c08a019e5f8b0152565b60ff166020890152565b6040870152565b6060850152565b63ffffffff166080830152565b019063ffffffff169052565b3461029e5761031861059c61059736600461037a565b6104d5565b926105ac96949692919260405190565b96879687610529565b3461029e5761047c6105c8366004610440565b906116eb565b3461029e5761047c6105e136600461037a565b6118a2565b5f5b8381106105f75750505f910152565b81810151838201526020016105e8565b61062861063160209361063b9361061c815190565b80835293849260200190565b958691016105e6565b601f01601f191690565b0190565b8051825290610289906060806106796106676080850160208801518682036020880152610607565b60408701518582036040870152610607565b940151910152565b906102899161063f565b906106a1610697835190565b8083529160200190565b90816106b36020830284019460200190565b925f915b8383106106c657505050505090565b909192939460206106e96106e283856001950387528951610681565b9760200190565b93019301919392906106b7565b60208082526102899291019061068b565b3461029e5761031861072261071d36600461037a565b611993565b604051918291826106f6565b5f6103f16102899260046103b6565b3461029e5761031861030761075336600461037a565b61072e565b9081526060810193926102af929091604091610775906020830152565b0152565b3461029e5761031861079461078f36600461037a565b6119af565b60405191939193849384610758565b634e487b7160e01b5f52604160045260245ffd5b90601f01601f1916810190811067ffffffffffffffff8211176107d957604052565b6107a3565b906102af6107eb60405190565b92836107b7565b67ffffffffffffffff81116107d957602090601f01601f19160190565b90825f939282370152565b9092919261082f61082a826107f2565b6107de565b938185528183011161029e576102af91602085019061080f565b9080601f8301121561029e578160206102899335910161081a565b9060808282031261029e5761087981836102a2565b9261088782602085016102b7565b92604081013567ffffffffffffffff811161029e57836108a8918301610849565b92606082013567ffffffffffffffff811161029e576102899201610849565b3461029e5761047c6108da366004610864565b92919091611cb4565b91909160408184031261029e576108fa83826102a2565b92602082013567ffffffffffffffff811161029e576102899201610849565b61047c6109273660046108e3565b90611ce6565b60ff8116610297565b905035906102af8261092d565b9060208282031261029e5761028991610936565b3461029e5761031861030761096d366004610943565b611d43565b3461029e5761047c61098536600461037a565b611f79565b5f91031261029e57565b3461029e576109a436600461098a565b610318610307612073565b3461029e576109bf36600461098a565b6103187fa49807205ce4d355092ef5a8a18f56e8913cf4a201fbe287825b095693c21775610307565b909594926102af94610a1e61077592610a17608096610a1060a088019c5f89019060ff169052565b6020870152565b6040850152565b6060830152565b3461029e57610318610a40610a3b36600461037a565b61213e565b91610a4d95939560405190565b958695866109e8565b3461029e5761047c610a6936600461037a565b612378565b3461029e57610318610368610a84366004610440565b90612381565b805182526102af919060a090819060208181015160ff1690850152610ab460408201516040860152565b610ac360608201516060860152565b60808181015163ffffffff1690850152015163ffffffff16910152565b60c0810192916102af9190610a8a565b3461029e57610318610b0b610b0636600461037a565b6123d9565b60405191829182610ae0565b90610b37610b30610b26845190565b8084529260200190565b9260200190565b905f5b818110610b475750505090565b909192610b64610b5d6001928651815260200190565b9460200190565b929101610b3a565b9290610b9591610b886102899694610a1060808801945f890152565b8482036040860152610b17565b916060818403910152610b17565b3461029e57610bb336600461098a565b610318610bbe6123fe565b90610bcb94929460405190565b94859485610b6c565b6102896102896102899290565b6102895f610bd4565b610289610be1565b3461029e57610c0236600461098a565b610318610307610bea565b3461029e5761047c610c203660046102c4565b90612522565b3461029e57610c3636600461098a565b6103185f5160206138085f395f51905f52610307565b3461029e5761047c610c5f36600461037a565b6127df565b3461029e5761047c610c7736600461037a565b6128af565b9160608383031261029e57610c9182846102a2565b92610c9f83602083016102b7565b92604082013567ffffffffffffffff811161029e576102899201610849565b3461029e5761047c610cd1366004610c7c565b916128df565b909594926102af94610d0461077592610cfa608096610a1060a088019c5f890152565b60ff166040850152565b60ff166060830152565b3461029e57610d1e36600461098a565b610318610d296128ea565b91610d3695939560405190565b95869586610cd7565b90610d4e610b30610b26845190565b905f5b818110610d5e5750505090565b909192610d77610b5d600192865160ff16815260200190565b929101610d51565b6040808252610289939192610d9691840190610d3f565b916020818403910152610b17565b3461029e57610db436600461098a565b610dbc61292f565b90610318610dc960405190565b92839283610d7f565b3461029e5761047c610de5366004610440565b906129f7565b3461029e5761047c610dfe36600461037a565b612aba565b3461029e57610318610e1e610e19366004610411565b612ad4565b6040519182918260ff909116815260200190565b634e487b7160e01b5f52603260045260245ffd5b8054821015610e6657610e5e6004915f5260205f2090565b910201905f90565b610e32565b634e487b7160e01b5f52602260045260245ffd5b9060016002830492168015610e9f575b6020831014610e9a57565b610e6b565b91607f1691610e8f565b80545f939291610ec5610ebb83610e7f565b8085529360200190565b9160018116908115610f145750600114610ede57505050565b610eef91929394505f5260205f2090565b915f925b818410610f005750500190565b805484840152602090930192600101610ef3565b92949550505060ff1916825215156020020190565b9061028991610ea9565b906102af610f4d92610f4460405190565b93848092610f29565b03836107b7565b610f5f9060056103b6565b90610f68825490565b81101561029e57610f7891610e46565b5090610f8382610488565b91610f9060018201610f33565b916102896003610fa260028501610f33565b9301610488565b9493916102af93610fd5606093610fe393610fc860808b01925f8c0152565b89820360208b0152610607565b908782036040890152610607565b940152565b3461029e57610318611004610ffe3660046102c4565b90610f54565b9061101194929460405190565b94859485610fa9565b90611029610b30610b26845190565b905f5b8181106110395750505090565b909192611058610b5d60019286516001600160a01b0316815260200190565b92910161102c565b9161108c9061107e610289959360608601908682035f88015261101a565b908482036020860152610b17565b916040818403910152610d3f565b3461029e576103186110b56110b0366004610411565b612b5e565b60405191939193849384611060565b3461029e5761047c6110d736600461037a565b612bbc565b3461029e576110ec36600461098a565b6103187f189ab7a9244df0848122154315af71fe140f3db0fe014031783b0946b8c9d2e3610307565b3461029e5761031861113061112b36600461037a565b612bc5565b9461114398969894919493929360405190565b9889988990815261010081019897969095909490939092909160ff1660208701526040860152606085015263ffffffff16608084015263ffffffff1660a083015260c082015260e00152565b6102899291906111b05f5160206138085f395f51905f52612cfd565b612cfd565b611353565b61027d6102896102899290565b610289906111b5565b156111d257565b60405162461bcd60e51b815260206004820152600f60248201526e24b73b30b634b21031b932b0ba37b960891b604482015280606481015b0390fd5b1561121557565b60405162461bcd60e51b815260206004820152600d60248201526c125b9d985b1a590818dbdd5b9d609a1b6044820152606490fd5b634e487b7160e01b5f52601260045260245ffd5b634e487b7160e01b5f52601160045260245ffd5b9061127c565b9190565b908115611287570490565b61124a565b905f19905b9181191691161790565b906112ab6102896112b292610bd4565b825461128c565b9055565b818102929181159184041417156112c957565b61125e565b6102896101f4610bd4565b919082018092116112c957565b610289600a610bd4565b61028960fa610bd4565b6102896103e8610bd4565b919082039182116112c957565b9061131f61082a836107f2565b918252565b61132e6011611312565b7009c8ca8be86a48a82a88a88be8482a8869607b1b602082015290565b610289611324565b5061137461136361027d5f6111c2565b6001600160a01b03831614156111cb565b61137d5f610bd4565b8211806115e1575b61138e9061120e565b6113a361139d62015180610bd4565b42611272565b6113b66113b18360046103b6565b610488565b8190036115b0575b50612710906113f76113e96113db6113d585610bd4565b866112b6565b6113e36112ce565b90611272565b6113f284610bd4565b6112d9565b91613a988361140861127883610bd4565b1161159a575b50611437906113e36114316114216112e6565b9561142c88886112b6565b6112b6565b91610bd4565b61143f6112f0565b90818111156115925750915b60039061145b6113b184846103b6565b6114636112fa565b90811115611582576114829061147c6113b186866103b6565b90611305565b935b8481111561157c5750835b8461149c6112785f610bd4565b148061156b575b61154f575b50506114c89293826114b95f610bd4565b86116114f8575b5050506103ad565b7f3754da1a98214dd62255f52efe5c8d68ba410e5c19339cc7883a5fba3df0adf26114f260405190565b5f90a290565b611535926115236115289361151d600261151286826103b6565b01916113f283610488565b9061129b565b6103b6565b61151d856113f283610488565b61154761154061134b565b8483612d53565b5f80826114c0565b6114c8945081811061156457505b925f6114a8565b905061155d565b506115755f610bd4565b81116114a3565b9361148f565b5061158c5f610bd4565b93611484565b90509161144b565b6114379193506115a990610bd4565b929061140e565b6115db906115d06115c05f610bd4565b6115cb8560036103b6565b61129b565b6115cb8360046103b6565b5f6113be565b5061138e6115f06101f4610bd4565b8311159050611385565b61028991905f61118f565b637965db0b60e01b6001600160e01b0319821614908115611624575090565b61028991506001600160e01b0319166301ffc9a760e01b1490565b906103c0565b600161165c610289926116555f90565b505f61163f565b01610488565b906102af916116736111ab82611645565b906102af91612e75565b906102af91611662565b1561168e57565b60405162461bcd60e51b815260206004820152602f60248201527f416363657373436f6e74726f6c3a2063616e206f6e6c792072656e6f756e636560448201526e103937b632b9903337b91039b2b63360891b6064820152608490fd5b6102af919061170c6116fc3361027d565b6001600160a01b03841614611687565b612eed565b1561171857565b60405162461bcd60e51b815260206004820152602c60248201527f46756e6374696f6e206d7573742062652063616c6c6564207468726f7567682060448201526b19195b1959d85d1958d85b1b60a21b6064820152608490fd5b1561177957565b60405162461bcd60e51b815260206004820152602c60248201527f46756e6374696f6e206d7573742062652063616c6c6564207468726f7567682060448201526b6163746976652070726f787960a01b6064820152608490fd5b6102af906118506117e3306103ad565b61182f7f00000000000000000000000000000000000000000000000000000000000000009161182861181b846001600160a01b031690565b916001600160a01b031690565b1415611711565b61184a61181b61183d612f5e565b926001600160a01b031690565b14611772565b61187d565b369037565b906102af61187061186a84611312565b936107f2565b601f190160208401611855565b5f6102af9161188b81612f9d565b61189c61189783610bd4565b61185a565b9061304e565b6102af906117d3565b67ffffffffffffffff81116107d95760208091020190565b9061131f61082a836118ab565b61028960806107de565b906102af61192860036118eb6118d0565b946118fc6118f882610488565b8752565b61191261190b60018301610f33565b6020880152565b61165c61192160028301610f33565b6040880152565b6060840152565b610289906118da565b90611941825490565b61194a816118c3565b9261195c60208501915f5260205f2090565b5f915b83831061196c5750505050565b6004602060019261197c8561192f565b81520192019201919061195f565b61028990611938565b6119aa610289916119a2606090565b5060056103b6565b61198a565b506119ba6001610bd4565b9081906102896064610bd4565b6102af939291906119e45f5160206138085f395f51905f52612cfd565b611c25565b634e487b7160e01b5f525f60045260245ffd5b915f1960089290920291821b911b611291565b9190611a206102896112b293610bd4565b9083546119fc565b6102af915f91611a0f565b818110611a3e575050565b80611a4b5f600193611a28565b01611a33565b9190601f8111611a6057505050565b611a706102af935f5260205f2090565b906020601f840181900483019310611a92575b6020601f909101040190611a33565b9091508190611a83565b90611aa5815190565b9067ffffffffffffffff82116107d957611ac982611ac38554610e7f565b85611a51565b602090601f8311600114611b02576112b292915f9183611af7575b50505f19600883021c1916906002021790565b015190505f80611ae4565b601f19831691611b15855f5260205f2090565b925f5b818110611b5157509160029391856001969410611b39575b50505002019055565b01515f196008601f8516021c191690555f8080611b30565b91936020600181928787015181550195019201611b18565b906102af91611a9c565b6003611bc460606102af94611b91611b8b5f83015190565b8661129b565b611ba8611b9f602083015190565b60018701611b69565b611bbf611bb6604083015190565b60028701611b69565b015190565b910161129b565b9190611bda576102af91611b73565b6119e9565b90815491680100000000000000008310156107d95782611c079160016102af95018155610e46565b90611bcb565b90815260406020820181905261028992910190610607565b611c9990611c947fee48ad85a8081671a3e9ea552bb829b3619542eb24eccc4f98e740e44441ef53949395611c5e6102898460056103b6565b611c84611c696118d0565b92611c728a8552565b611c7d886020860152565b6040840152565b611c8f426060840152565b611bdf565b6103ad565b92611caf611ca660405190565b92839283611c0d565b0390a2565b906102af9392916119c7565b906102af91611cd16117e3306103ad565b6102af91600191611ce181612f9d565b61304e565b906102af91611cc0565b6104976102896102899290565b6102896032611cf0565b15611d0e57565b60405162461bcd60e51b815260206004820152600d60248201526c125b9d985b1a59081b195d995b609a1b6044820152606490fd5b611d4d6001611cf0565b60ff8216101580611ded575b611d6290611d07565b611d6c600a611cf0565b60ff82161115611de257611d806014611cf0565b60ff82161115611dd757611d94601e611cf0565b60ff82161115611dcc57611db2611dab6028611cf0565b9160ff1690565b1115611dc25761028960fa610bd4565b61028960c8610bd4565b506102896096610bd4565b506102896064610bd4565b506102896032610bd4565b50611d62611dfc610497611cfd565b60ff831611159050611d59565b6102af90611e235f5160206138085f395f51905f52612cfd565b611ee0565b15611e2f57565b60405162461bcd60e51b815260206004820152600d60248201526c24b73b30b634b210313abcb2b960991b6044820152606490fd5b63ffffffff1663ffffffff81146112c95760010190565b9067ffffffff000000009060201b611291565b6104ac6102896102899263ffffffff1690565b90611eb16102896112b292611e8e565b8254611e7b565b611ec2600a611312565b6913919517d093d551d21560b21b602082015290565b610289611eb8565b611f4890611f04611ef361027d5f6111c2565b6001600160a01b0383161415611e28565b611f2c6004611f148360026103b6565b01611f26611f21826104cb565b611e64565b90611ea1565b611c94611f39600f610bd4565b611f41611ed8565b9083612d53565b7f1df60a1f5061f2e3c9803a2d1a320981bc61f7befcdbce8be656374d553bf194611f7260405190565b8080611caf565b6102af90611e09565b15611f8957565b60405162461bcd60e51b815260206004820152603860248201527f555550535570677261646561626c653a206d757374206e6f742062652063616c60448201527f6c6564207468726f7567682064656c656761746563616c6c00000000000000006064820152608490fd5b6102899061203c612004306103ad565b6120366001600160a01b037f00000000000000000000000000000000000000000000000000000000000000001661181b565b14611f82565b61206a565b6102897f360894a13ba1a3210667c828492db98dca3e2076cc3735a920a3ca505d382bbc610bd4565b50610289612041565b6102895f611ff4565b61028960c06107de565b906102af612103600461209761207c565b946120a46118f882610488565b6120bd6120b36001830161049d565b60ff166020880152565b6120cc61192160028301610488565b6120e26120db60038301610488565b6060880152565b6120fd6120f08383016104b5565b63ffffffff166080880152565b016104cb565b63ffffffff1660a0840152565b61028990612086565b6001610289910160ff1690565b6121329060ff16611dab565b019060ff82116112c957565b6121546121599161214c5f90565b5060026103b6565b612110565b602081015160ff16809261216c5f610bd4565b90819360018061217c6001611cf0565b915b612214575b50508051859081101561220c5761219b6121a0925190565b611305565b80936121ad610497611cfd565b60ff821610156122055761096d6121ce916121c86001611cf0565b90612126565b80936121d78290565b11156121f9576121f4610289926121ee6064610bd4565b906112b6565b611272565b50506102896064610bd4565b50826121ce565b5050816121a0565b909560ff861660ff881610156122475761223a6122409161223489611d43565b906112d9565b96612119565b908061217e565b95612183565b6102af906122675f5160206138085f395f51905f52612cfd565b6122f2565b1561227357565b60405162461bcd60e51b815260206004820152600e60248201526d24b73b30b634b21039b2b63632b960911b6044820152606490fd5b9063ffffffff90611291565b906122c56102896112b292611e8e565b82546122a9565b6122d66008611312565b6713919517d4d3d31160c21b602082015290565b6102896122cc565b61234e9061231661230561027d5f6111c2565b6001600160a01b038316141561226c565b61233960046123268360026103b6565b01612333611f21826104b5565b906122b5565b611c946123466014610bd4565b611f416122ea565b7fcfcbd50fb6f62a364cb9f5e315814e5714383adf7af1898c84aa67dc1b000b06611f7260405190565b6102af9061224d565b610289915f61239b6123a1936123945f90565b508261163f565b016103b6565b61049d565b6123ae61207c565b905f82526020808080808087015f8152015f8152015f8152015f8152015f905250565b6102896123a6565b6121546102899161214c6123d1565b906102af6118706123f8846118c3565b936118ab565b6124075f610bd4565b90818091610289612417836123e8565b926123e8565b6102af91906124385f5160206138085f395f51905f52612cfd565b6124dc565b1561244457565b60405162461bcd60e51b815260206004820152600c60248201526b24b73b30b634b2103ab9b2b960a11b6044820152606490fd5b1561247f57565b60405162461bcd60e51b815260206004820152600e60248201526d125b9d985b1a5908185b5bdd5b9d60921b6044820152606490fd5b6124bf6009611312565b6804449524543545f58560bc1b602082015290565b6102896124b5565b6102af916125016124ef61027d5f6111c2565b6001600160a01b0384165b141561243d565b61251461250d5f610bd4565b8211612478565b61251c6124d4565b91612d53565b906102af9161241d565b6102899060081c610497565b610289905461252c565b1561254957565b60405162461bcd60e51b815260206004820152602e60248201527f496e697469616c697a61626c653a20636f6e747261637420697320616c72656160448201526d191e481a5b9a5d1a585b1a5e995960921b6064820152608490fd5b9060ff90611291565b6104976102896102899260ff1690565b906125ce6102896112b2926125ae565b82546125a5565b9061ff009060081b611291565b906125f26102896112b292151590565b82546125d5565b6102e790611cf0565b6020810192916102af91906125f9565b61262361261f6001612538565b1590565b80806126f0575b80156126b2575b61263a90612542565b61265c6001928261265361264d86611cf0565b866125be565b6126a35761275a565b6126635750565b61269e816126925f7f7f26b83ff96e1f2b6a682f133852f6798a09c465da95921460cefb3847402498946125e2565b60405191829182612602565b0390a1565b6126ad84806125e2565b61275a565b506126c761261f6126c2306103ad565b61315b565b8015612631575061263a6126db600161049d565b6126e8611dab6001611cf0565b149050612631565b506126fb600161049d565b612708611dab6001611cf0565b1061262a565b1561271557565b60405162461bcd60e51b815260206004820152601660248201527f496e76616c696420706c6174666f726d2061646d696e000000000000000000006044820152606490fd5b6102af9061277e61276d61027d5f6111c2565b6001600160a01b038316141561270e565b61278f8161278a610be1565b612e75565b6127b9817fa49807205ce4d355092ef5a8a18f56e8913cf4a201fbe287825b095693c21775612e75565b7f189ab7a9244df0848122154315af71fe140f3db0fe014031783b0946b8c9d2e3612e75565b6102af90612612565b6102af906128025f5160206138085f395f51905f52612cfd565b61283e565b5f1981146112c95760010190565b61281f600b611312565b6a13919517d0d4915055115160aa1b602082015290565b610289612815565b6128859061285161136361027d5f6111c2565b612872600261286083826103b6565b0161151d61286d82610488565b612807565b611c9461287d6112e6565b611f41612836565b7f3754da1a98214dd62255f52efe5c8d68ba410e5c19339cc7883a5fba3df0adf2611f7260405190565b6102af906127e8565b6102af9291906128d45f5160206138085f395f51905f52612cfd565b906102af9291612d53565b906102af92916128b8565b6128f35f610bd4565b8091816128ff5f611cf0565b91829190565b6102896102896102899260ff1690565b9061291e825190565b811015610e66576020809102010190565b612937611cfd565b61294081612905565b612949816123e8565b9061295482916123e8565b9384906129605f611cf0565b60ff86165b60ff821610156129d3576129cc612965916129a661298c6129866001611cf0565b83612126565b61299e61299884612905565b8a612915565b9060ff169052565b6129c76129b25f610bd4565b6129c46129be84612905565b8c612915565b52565b612119565b9050612960565b50925092509250565b906102af916129ed6111ab82611645565b906102af91612eed565b906102af916129dc565b6102af90612a1b5f5160206138085f395f51905f52612cfd565b612a5c565b15612a2757565b60405162461bcd60e51b815260206004820152600d60248201526c24b73b30b634b21037bbb732b960991b6044820152606490fd5b612a9090612a80612a6f61027d5f6111c2565b6001600160a01b0383161415612a20565b611c9460036128608360026103b6565b7f0350ff25ae499e67547a932dad94cad34fbe054498b3808c1397487ce7c452ca611f7260405190565b6102af90612a01565b60ff1660ff81146112c95760010190565b612add5f610bd4565b8114612b5457612aec5f610bd4565b9060018092612afb6001611cf0565b915b612b0e575b50505050610289611cfd565b612b19610497611cfd565b60ff831611612b4f57612b2f9061223483611d43565b9081831115612b4857612b4190612ac3565b9083612afd565b9250505090565b612b02565b506102895f611cf0565b612b67816123e8565b91610289612417836123e8565b6102af90612b8e5f5160206138085f395f51905f52612cfd565b60036128606102af92612bb5612ba661027d5f6111c2565b6001600160a01b0383166124fa565b60026103b6565b6102af90612b74565b612154612bd39161214c5f90565b612bdc5f610bd4565b916020820191612bed835160ff1690565b612bf9611dab5f611cf0565b11612ca5575b8392612c0c815160ff1690565b612c1a611dab610497611cfd565b10612c79575b612c33612c2b835190565b915160ff1690565b94612c3f604084015190565b94612c4b606085015190565b94612c6e60a0612c62608088015163ffffffff1690565b96015163ffffffff1690565b939796959493929190565b9250612c9f612c9961096d612c8f865160ff1690565b6121c86001611cf0565b856112d9565b92612c20565b600180612cb26001611cf0565b915b612cc0575b5050612bff565b9094612cd0610497865160ff1690565b60ff87161015612cf757612cea612cf09161223488611d43565b95612119565b9080612cb4565b94612cb9565b6102af903390613202565b15612d0f57565b60405162461bcd60e51b8152602060048201526011602482015270125b9d985b1a5908161408185b5bdd5b9d607a1b6044820152606490fd5b610289611d4c610bd4565b612d62612ba661027d5f6111c2565b612d75612d6e5f610bd4565b8311612d08565b612e10612d866102898360026103b6565b6001810193612dce612dc75f612d9b8861049d565b9401612daa846113f283610488565b9081612db4612d48565b908110612e5b575b5081610e199161129b565b80966125be565b7fbc485bf8e37db28d327f937baa2ba28235470b977aa1200fd7eedfd31f24ac45612df8856103ad565b968792612e07611ca660405190565b0390a260ff1690565b60ff831611612e1e57505050565b6102af927fa49b8576e012f713baa7dceadb7d709aaec8773b498ecfe582d8b9c0c8fd074f612e4c60405190565b60ff85168152602090a26132a5565b9150610e19612dbc565b906125ce6102896112b292151590565b612e8261261f8383612381565b612e8a575050565b612ea36001612e9e845f61239b868261163f565b612e65565b612ebd612eb7612eb1339390565b936103ad565b916103ad565b917f2f8788117e7eff1d82e926ec794901d17c78024a50270940304540a733656f0d612ee860405190565b5f90a4565b612ef78282612381565b612eff575050565b612f125f612e9e848261239b868261163f565b612f20612eb7612eb1339390565b917ff6391f5c32d9c69d2a47ea670b442974b53935d1edc7fd64eb21e047a839171b612ee860405190565b6102899061027d565b6102899054612f4b565b6102895f612f6d610289612041565b01612f54565b506102af7f189ab7a9244df0848122154315af71fe140f3db0fe014031783b0946b8c9d2e3612cfd565b6102af90612f73565b6102897f4910fdfa16fed3260ed0e7147f7cc6da11a60208b5b9406d12a635614ffd9143610bd4565b905051906102af826102b1565b9060208282031261029e5761028991612fcf565b15612ff757565b60405162461bcd60e51b815260206004820152602960248201527f45524331393637557067726164653a20756e737570706f727465642070726f786044820152681a58589b195555525160ba1b6064820152608490fd5b91906130655f61305f610289612fa6565b0161049d565b156130755750506102af906133eb565b613081611c94846103ad565b92602061308d60405190565b6352d1902d60e01b815294859060049082905afa5f948161312a575b5061310a5760405162461bcd60e51b815260206004820152602e60248201527f45524331393637557067726164653a206e657720696d706c656d656e7461746960448201526d6f6e206973206e6f74205555505360901b6064820152608490fd5b6131256102af9461311f611278610289612041565b14612ff0565b613325565b61314d91955060203d602011613154575b61314581836107b7565b810190612fdc565b935f6130a9565b503d61313b565b3b6131686112785f610bd4565b1190565b61028990610bd4565b61063b61318d92602092613187815190565b94859290565b938491016105e6565b6131d461028993926131ce6131ce937f416363657373436f6e74726f6c3a206163636f756e7420000000000000000000815260170190565b90613175565b7001034b99036b4b9b9b4b733903937b6329607d1b815260110190565b602080825261028992910190610607565b9061321061261f8284612381565b613218575050565b61326261028961120a9361324a61323a61323461326e96613432565b9261316c565b6132446020610bd4565b906134eb565b9061325460405190565b938492602084019283613196565b908103825203826107b7565b6040515b62461bcd60e51b8152918291600483016131f1565b3d156132a0576132963d611312565b903d5f602084013e565b606090565b906132af9061361b565b906132b9306103ad565b82903110156132c6575050565b5f806132d4611c94846103ad565b6040515f9186905af16132e5613287565b506132ee575050565b611caf61331b7fe2403640ba68fed3a2f88b7557551d1993f84b99bb10ff833f0cf8db0c5e0486926103ad565b9261030b60405190565b9161332f836136a2565b815161333d6112785f610bd4565b1190811561335b575b5061334f575050565b61335891613724565b50565b90505f613346565b1561336a57565b60405162461bcd60e51b815260206004820152602d60248201527f455243313936373a206e657720696d706c656d656e746174696f6e206973206e60448201526c1bdd08184818dbdb9d1c9858dd609a1b6064820152608490fd5b906001600160a01b0390611291565b906133e46102896112b2926103ad565b82546133c5565b6102af906134006133fb8261315b565b613363565b5f61340c610289612041565b016133d4565b610289610289610289926001600160a01b031690565b6102896014611cf0565b61344f61344a61028992613444606090565b506103a4565b613412565b61324461345a613428565b612905565b90613468825190565b811015610e66570160200190565b80156112c9575f190190565b610289906134966112786102899460ff1690565b901c90565b156134a257565b60405162461bcd60e51b81528061120a600482016020808252818101527f537472696e67733a20686578206c656e67746820696e73756666696369656e74604082015260600190565b6135096118976134ff8461142c6002610bd4565b6122346002610bd4565b91603061351e6135185f610bd4565b8561345f565b53600f60fb1b61355761354e60019384935f1a61354361353d86610bd4565b8961345f565b5361142c6002610bd4565b61223483610bd4565b915b61357a575b505090610289610289926135746112785f610bd4565b1461349b565b909161358582610bd4565b8311156135f3576f181899199a1a9b1b9c1cb0b131b232b360811b6135aa600f610bd4565b8216906010821015610e665783926135ca6135e7926135ed941a60f81b90565b5f1a6135d6878961345f565b536135e16004611cf0565b90613482565b93613476565b91613559565b9161355e565b610289670de0b6b3a7640000610bd4565b610289674563918244f40000610bd4565b61366e906136296001611cf0565b60ff8216101580613686575b61363e90611d07565b61223461366661365561364f6135f9565b93612905565b6121ee670de0b6b3a7640000610bd4565b6113e36112e6565b61367661360a565b808211613681575090565b905090565b5061363e613695610497611cfd565b60ff831611159050613635565b6136af90611c94816133eb565b7fbc7cd75a20ee27fd9adebab32041f755214dbc6bffa90cc0225b39da2e5c2d3b611f7260405190565b6136e36027611312565b7f416464726573733a206c6f772d6c6576656c2064656c65676174652063616c6c6020820152660819985a5b195960ca1b604082015290565b6102896136d9565b6102899161373061371c565b915f806102899493613740606090565b50602081519101845af4613752613287565b916137a4565b1561375f57565b60405162461bcd60e51b815260206004820152601d60248201527f416464726573733a2063616c6c20746f206e6f6e2d636f6e74726163740000006044820152606490fd5b919290156137d5575081516137bb6112785f610bd4565b146137c4575090565b6137d06102899161315b565b613758565b82906137df825190565b6137eb6112785f610bd4565b11156137fa5750805190602001fd5b61120a906132726040519056fe0ea61da3a8a09ad801432653699f8c1860b1ae9d2ea4a141fadfd63227717bc8a2646970667358221220098b168a1439b746fcd6b165b509e31d61ef7e260c43c8b1f8ba02ef6d37fa8164736f6c634300081c0033",
  "linkReferences": {},
  "deployedLinkReferences": {}
}