{
  "_format": "hh-sol-artifact-1",
  "contractName": "CollaboratorBadgeRewards",
  "sourceName": "contracts/Marketplace/CollaboratorBadgeRewards.sol",
  "abi": [
    {
      "inputs": [],
      "stateMutability": "nonpayable",
      "type": "constructor"
    },
    {
      "inputs": [],
      "name": "InsufficientBalance",
      "type": "error"
    },
    {
      "inputs": [],
      "name": "InvalidAddress",
      "type": "error"
    },
    {
      "inputs": [],
      "name": "NoPendingRewards",
      "type": "error"
    },
    {
      "inputs": [],
      "name": "NotQuestAdmin",
      "type": "error"
    },
    {
      "inputs": [],
      "name": "QuestAlreadyCompleted",
      "type": "error"
    },
    {
      "inputs": [],
      "name": "QuestExpired",
      "type": "error"
    },
    {
      "inputs": [],
      "name": "QuestMaxCompletions",
      "type": "error"
    },
    {
      "inputs": [],
      "name": "QuestNotActive",
      "type": "error"
    },
    {
      "inputs": [],
      "name": "QuestNotStarted",
      "type": "error"
    },
    {
      "inputs": [],
      "name": "TransferFailed",
      "type": "error"
    },
    {
      "anonymous": false,
      "inputs": [
        {
          "indexed": false,
          "internalType": "address",
          "name": "previousAdmin",
          "type": "address"
        },
        {
          "indexed": false,
          "internalType": "address",
          "name": "newAdmin",
          "type": "address"
        }
      ],
      "name": "AdminChanged",
      "type": "event"
    },
    {
      "anonymous": false,
      "inputs": [
        {
          "indexed": false,
          "internalType": "uint256",
          "name": "newCount",
          "type": "uint256"
        }
      ],
      "name": "BadgeHolderCountUpdated",
      "type": "event"
    },
    {
      "anonymous": false,
      "inputs": [
        {
          "indexed": true,
          "internalType": "address",
          "name": "beacon",
          "type": "address"
        }
      ],
      "name": "BeaconUpgraded",
      "type": "event"
    },
    {
      "anonymous": false,
      "inputs": [
        {
          "indexed": false,
          "internalType": "uint256",
          "name": "amount",
          "type": "uint256"
        }
      ],
      "name": "CommissionReceived",
      "type": "event"
    },
    {
      "anonymous": false,
      "inputs": [
        {
          "indexed": false,
          "internalType": "uint8",
          "name": "version",
          "type": "uint8"
        }
      ],
      "name": "Initialized",
      "type": "event"
    },
    {
      "anonymous": false,
      "inputs": [
        {
          "indexed": true,
          "internalType": "address",
          "name": "previousOwner",
          "type": "address"
        },
        {
          "indexed": true,
          "internalType": "address",
          "name": "newOwner",
          "type": "address"
        }
      ],
      "name": "OwnershipTransferred",
      "type": "event"
    },
    {
      "anonymous": false,
      "inputs": [
        {
          "indexed": true,
          "internalType": "address",
          "name": "admin",
          "type": "address"
        },
        {
          "indexed": false,
          "internalType": "bool",
          "name": "authorized",
          "type": "bool"
        }
      ],
      "name": "QuestAdminUpdated",
      "type": "event"
    },
    {
      "anonymous": false,
      "inputs": [
        {
          "indexed": true,
          "internalType": "address",
          "name": "user",
          "type": "address"
        },
        {
          "indexed": true,
          "internalType": "uint256",
          "name": "questId",
          "type": "uint256"
        },
        {
          "indexed": false,
          "internalType": "uint256",
          "name": "reward",
          "type": "uint256"
        }
      ],
      "name": "QuestCompleted",
      "type": "event"
    },
    {
      "anonymous": false,
      "inputs": [
        {
          "indexed": true,
          "internalType": "uint256",
          "name": "questId",
          "type": "uint256"
        },
        {
          "indexed": false,
          "internalType": "string",
          "name": "description",
          "type": "string"
        },
        {
          "indexed": false,
          "internalType": "uint256",
          "name": "reward",
          "type": "uint256"
        },
        {
          "indexed": false,
          "internalType": "uint256",
          "name": "start",
          "type": "uint256"
        },
        {
          "indexed": false,
          "internalType": "uint256",
          "name": "end",
          "type": "uint256"
        }
      ],
      "name": "QuestCreated",
      "type": "event"
    },
    {
      "anonymous": false,
      "inputs": [
        {
          "indexed": true,
          "internalType": "uint256",
          "name": "questId",
          "type": "uint256"
        }
      ],
      "name": "QuestDeactivated",
      "type": "event"
    },
    {
      "anonymous": false,
      "inputs": [
        {
          "indexed": true,
          "internalType": "address",
          "name": "oldWallet",
          "type": "address"
        },
        {
          "indexed": true,
          "internalType": "address",
          "name": "newWallet",
          "type": "address"
        }
      ],
      "name": "QuestWalletUpdated",
      "type": "event"
    },
    {
      "anonymous": false,
      "inputs": [
        {
          "indexed": true,
          "internalType": "address",
          "name": "user",
          "type": "address"
        },
        {
          "indexed": false,
          "internalType": "uint256",
          "name": "amount",
          "type": "uint256"
        }
      ],
      "name": "RewardsClaimed",
      "type": "event"
    },
    {
      "anonymous": false,
      "inputs": [
        {
          "indexed": false,
          "internalType": "uint256",
          "name": "amount",
          "type": "uint256"
        }
      ],
      "name": "TreasuryReceived",
      "type": "event"
    },
    {
      "anonymous": false,
      "inputs": [
        {
          "indexed": true,
          "internalType": "address",
          "name": "implementation",
          "type": "address"
        }
      ],
      "name": "Upgraded",
      "type": "event"
    },
    {
      "inputs": [
        {
          "internalType": "uint256",
          "name": "",
          "type": "uint256"
        }
      ],
      "name": "activeQuestIds",
      "outputs": [
        {
          "internalType": "uint256",
          "name": "",
          "type": "uint256"
        }
      ],
      "stateMutability": "view",
      "type": "function"
    },
    {
      "inputs": [
        {
          "internalType": "address[]",
          "name": "_users",
          "type": "address[]"
        },
        {
          "internalType": "uint256",
          "name": "_questId",
          "type": "uint256"
        }
      ],
      "name": "batchCompleteQuest",
      "outputs": [],
      "stateMutability": "nonpayable",
      "type": "function"
    },
    {
      "inputs": [],
      "name": "claimRewards",
      "outputs": [],
      "stateMutability": "nonpayable",
      "type": "function"
    },
    {
      "inputs": [
        {
          "internalType": "address",
          "name": "_user",
          "type": "address"
        },
        {
          "internalType": "uint256",
          "name": "_questId",
          "type": "uint256"
        }
      ],
      "name": "completeQuestForUser",
      "outputs": [],
      "stateMutability": "nonpayable",
      "type": "function"
    },
    {
      "inputs": [
        {
          "internalType": "string",
          "name": "_description",
          "type": "string"
        },
        {
          "internalType": "uint256",
          "name": "_rewardAmount",
          "type": "uint256"
        },
        {
          "internalType": "uint256",
          "name": "_startTime",
          "type": "uint256"
        },
        {
          "internalType": "uint256",
          "name": "_endTime",
          "type": "uint256"
        },
        {
          "internalType": "uint256",
          "name": "_maxCompletions",
          "type": "uint256"
        }
      ],
      "name": "createQuest",
      "outputs": [
        {
          "internalType": "uint256",
          "name": "questId",
          "type": "uint256"
        }
      ],
      "stateMutability": "nonpayable",
      "type": "function"
    },
    {
      "inputs": [
        {
          "internalType": "uint256",
          "name": "_questId",
          "type": "uint256"
        }
      ],
      "name": "deactivateQuest",
      "outputs": [],
      "stateMutability": "nonpayable",
      "type": "function"
    },
    {
      "inputs": [],
      "name": "depositFromTreasury",
      "outputs": [],
      "stateMutability": "payable",
      "type": "function"
    },
    {
      "inputs": [
        {
          "internalType": "address",
          "name": "_to",
          "type": "address"
        },
        {
          "internalType": "uint256",
          "name": "_amount",
          "type": "uint256"
        }
      ],
      "name": "emergencyWithdraw",
      "outputs": [],
      "stateMutability": "nonpayable",
      "type": "function"
    },
    {
      "inputs": [],
      "name": "getActiveQuests",
      "outputs": [
        {
          "internalType": "uint256[]",
          "name": "questIds",
          "type": "uint256[]"
        },
        {
          "components": [
            {
              "internalType": "string",
              "name": "description",
              "type": "string"
            },
            {
              "internalType": "uint256",
              "name": "rewardAmount",
              "type": "uint256"
            },
            {
              "internalType": "uint256",
              "name": "startTime",
              "type": "uint256"
            },
            {
              "internalType": "uint256",
              "name": "endTime",
              "type": "uint256"
            },
            {
              "internalType": "bool",
              "name": "active",
              "type": "bool"
            },
            {
              "internalType": "uint256",
              "name": "completionCount",
              "type": "uint256"
            },
            {
              "internalType": "uint256",
              "name": "maxCompletions",
              "type": "uint256"
            }
          ],
          "internalType": "struct CollaboratorBadgeRewards.CollaboratorQuest[]",
          "name": "questData",
          "type": "tuple[]"
        }
      ],
      "stateMutability": "view",
      "type": "function"
    },
    {
      "inputs": [
        {
          "internalType": "address",
          "name": "_user",
          "type": "address"
        }
      ],
      "name": "getBadgeHolderRewardsSummary",
      "outputs": [
        {
          "internalType": "uint256",
          "name": "pending",
          "type": "uint256"
        },
        {
          "internalType": "uint256",
          "name": "poolBalance",
          "type": "uint256"
        },
        {
          "internalType": "uint256",
          "name": "totalCommission",
          "type": "uint256"
        },
        {
          "internalType": "uint256",
          "name": "totalTreasury",
          "type": "uint256"
        }
      ],
      "stateMutability": "view",
      "type": "function"
    },
    {
      "inputs": [
        {
          "internalType": "uint256",
          "name": "_questId",
          "type": "uint256"
        }
      ],
      "name": "getQuest",
      "outputs": [
        {
          "components": [
            {
              "internalType": "string",
              "name": "description",
              "type": "string"
            },
            {
              "internalType": "uint256",
              "name": "rewardAmount",
              "type": "uint256"
            },
            {
              "internalType": "uint256",
              "name": "startTime",
              "type": "uint256"
            },
            {
              "internalType": "uint256",
              "name": "endTime",
              "type": "uint256"
            },
            {
              "internalType": "bool",
              "name": "active",
              "type": "bool"
            },
            {
              "internalType": "uint256",
              "name": "completionCount",
              "type": "uint256"
            },
            {
              "internalType": "uint256",
              "name": "maxCompletions",
              "type": "uint256"
            }
          ],
          "internalType": "struct CollaboratorBadgeRewards.CollaboratorQuest",
          "name": "",
          "type": "tuple"
        }
      ],
      "stateMutability": "view",
      "type": "function"
    },
    {
      "inputs": [],
      "name": "getStats",
      "outputs": [
        {
          "internalType": "uint256",
          "name": "balance",
          "type": "uint256"
        },
        {
          "internalType": "uint256",
          "name": "commission",
          "type": "uint256"
        },
        {
          "internalType": "uint256",
          "name": "treasury",
          "type": "uint256"
        },
        {
          "internalType": "uint256",
          "name": "paid",
          "type": "uint256"
        },
        {
          "internalType": "uint256",
          "name": "holders",
          "type": "uint256"
        },
        {
          "internalType": "uint256",
          "name": "questCount",
          "type": "uint256"
        }
      ],
      "stateMutability": "view",
      "type": "function"
    },
    {
      "inputs": [
        {
          "internalType": "address",
          "name": "_user",
          "type": "address"
        },
        {
          "internalType": "uint256",
          "name": "_questId",
          "type": "uint256"
        }
      ],
      "name": "hasCompletedQuest",
      "outputs": [
        {
          "internalType": "bool",
          "name": "",
          "type": "bool"
        }
      ],
      "stateMutability": "view",
      "type": "function"
    },
    {
      "inputs": [],
      "name": "initialize",
      "outputs": [],
      "stateMutability": "nonpayable",
      "type": "function"
    },
    {
      "inputs": [],
      "name": "nextQuestId",
      "outputs": [
        {
          "internalType": "uint256",
          "name": "",
          "type": "uint256"
        }
      ],
      "stateMutability": "view",
      "type": "function"
    },
    {
      "inputs": [],
      "name": "owner",
      "outputs": [
        {
          "internalType": "address",
          "name": "",
          "type": "address"
        }
      ],
      "stateMutability": "view",
      "type": "function"
    },
    {
      "inputs": [
        {
          "internalType": "address",
          "name": "",
          "type": "address"
        }
      ],
      "name": "pendingRewards",
      "outputs": [
        {
          "internalType": "uint256",
          "name": "",
          "type": "uint256"
        }
      ],
      "stateMutability": "view",
      "type": "function"
    },
    {
      "inputs": [],
      "name": "proxiableUUID",
      "outputs": [
        {
          "internalType": "bytes32",
          "name": "",
          "type": "bytes32"
        }
      ],
      "stateMutability": "view",
      "type": "function"
    },
    {
      "inputs": [
        {
          "internalType": "address",
          "name": "",
          "type": "address"
        }
      ],
      "name": "questAdmins",
      "outputs": [
        {
          "internalType": "bool",
          "name": "",
          "type": "bool"
        }
      ],
      "stateMutability": "view",
      "type": "function"
    },
    {
      "inputs": [
        {
          "internalType": "address",
          "name": "",
          "type": "address"
        },
        {
          "internalType": "uint256",
          "name": "",
          "type": "uint256"
        }
      ],
      "name": "questCompleted",
      "outputs": [
        {
          "internalType": "bool",
          "name": "",
          "type": "bool"
        }
      ],
      "stateMutability": "view",
      "type": "function"
    },
    {
      "inputs": [],
      "name": "questWallet",
      "outputs": [
        {
          "internalType": "address",
          "name": "",
          "type": "address"
        }
      ],
      "stateMutability": "view",
      "type": "function"
    },
    {
      "inputs": [
        {
          "internalType": "uint256",
          "name": "",
          "type": "uint256"
        }
      ],
      "name": "quests",
      "outputs": [
        {
          "internalType": "string",
          "name": "description",
          "type": "string"
        },
        {
          "internalType": "uint256",
          "name": "rewardAmount",
          "type": "uint256"
        },
        {
          "internalType": "uint256",
          "name": "startTime",
          "type": "uint256"
        },
        {
          "internalType": "uint256",
          "name": "endTime",
          "type": "uint256"
        },
        {
          "internalType": "bool",
          "name": "active",
          "type": "bool"
        },
        {
          "internalType": "uint256",
          "name": "completionCount",
          "type": "uint256"
        },
        {
          "internalType": "uint256",
          "name": "maxCompletions",
          "type": "uint256"
        }
      ],
      "stateMutability": "view",
      "type": "function"
    },
    {
      "inputs": [],
      "name": "renounceOwnership",
      "outputs": [],
      "stateMutability": "nonpayable",
      "type": "function"
    },
    {
      "inputs": [
        {
          "internalType": "address",
          "name": "_admin",
          "type": "address"
        },
        {
          "internalType": "bool",
          "name": "_authorized",
          "type": "bool"
        }
      ],
      "name": "setQuestAdmin",
      "outputs": [],
      "stateMutability": "nonpayable",
      "type": "function"
    },
    {
      "inputs": [
        {
          "internalType": "address",
          "name": "_questWallet",
          "type": "address"
        }
      ],
      "name": "setQuestWallet",
      "outputs": [],
      "stateMutability": "nonpayable",
      "type": "function"
    },
    {
      "inputs": [],
      "name": "totalBadgeHolders",
      "outputs": [
        {
          "internalType": "uint256",
          "name": "",
          "type": "uint256"
        }
      ],
      "stateMutability": "view",
      "type": "function"
    },
    {
      "inputs": [],
      "name": "totalCommissionReceived",
      "outputs": [
        {
          "internalType": "uint256",
          "name": "",
          "type": "uint256"
        }
      ],
      "stateMutability": "view",
      "type": "function"
    },
    {
      "inputs": [],
      "name": "totalRewardsPaid",
      "outputs": [
        {
          "internalType": "uint256",
          "name": "",
          "type": "uint256"
        }
      ],
      "stateMutability": "view",
      "type": "function"
    },
    {
      "inputs": [],
      "name": "totalTreasuryReceived",
      "outputs": [
        {
          "internalType": "uint256",
          "name": "",
          "type": "uint256"
        }
      ],
      "stateMutability": "view",
      "type": "function"
    },
    {
      "inputs": [
        {
          "internalType": "address",
          "name": "newOwner",
          "type": "address"
        }
      ],
      "name": "transferOwnership",
      "outputs": [],
      "stateMutability": "nonpayable",
      "type": "function"
    },
    {
      "inputs": [
        {
          "internalType": "uint256",
          "name": "_count",
          "type": "uint256"
        }
      ],
      "name": "updateBadgeHolderCount",
      "outputs": [],
      "stateMutability": "nonpayable",
      "type": "function"
    },
    {
      "inputs": [
        {
          "internalType": "uint256",
          "name": "_questId",
          "type": "uint256"
        },
        {
          "internalType": "uint256",
          "name": "_newRewardAmount",
          "type": "uint256"
        }
      ],
      "name": "updateQuestReward",
      "outputs": [],
      "stateMutability": "nonpayable",
      "type": "function"
    },
    {
      "inputs": [
        {
          "internalType": "address",
          "name": "newImplementation",
          "type": "address"
        }
      ],
      "name": "upgradeTo",
      "outputs": [],
      "stateMutability": "nonpayable",
      "type": "function"
    },
    {
      "inputs": [
        {
          "internalType": "address",
          "name": "newImplementation",
          "type": "address"
        },
        {
          "internalType": "bytes",
          "name": "data",
          "type": "bytes"
        }
      ],
      "name": "upgradeToAndCall",
      "outputs": [],
      "stateMutability": "payable",
      "type": "function"
    },
    {
      "stateMutability": "payable",
      "type": "receive"
    }
  ],
  "bytecode": "0x60a06040523461003257610011610036565b604051612cf36101c2823960805181818161157901526118e10152612cf390f35b5f80fd5b61003e61007d565b610046610155565b565b61005c9061005f906001600160a01b031682565b90565b6001600160a01b031690565b61005c90610048565b61005c9061006b565b61008630610074565b608052565b61005c9060081c5b60ff1690565b61005c905461008b565b60208082526027908201527f496e697469616c697a61626c653a20636f6e747261637420697320696e697469604082015266616c697a696e6760c81b606082015260800190565b156100f157565b60405162461bcd60e51b81528061010a600482016100a3565b0390fd5b61005c90610093565b61005c905461010e565b61009361005c61005c9260ff1690565b9061014161005c61015192610121565b825460ff191660ff919091161790565b9055565b61016d6101686101645f610099565b1590565b6100ea565b6101765f610117565b60ff9081160361018257565b61018d60ff5f610131565b7f7f26b83ff96e1f2b6a682f133852f6798a09c465da95921460cefb38474024986101b760405190565b60ff8152602090a156fe60806040526004361015610022575b3615610018575f80fd5b61002061260f565b005b5f3560e01c8063029a8c58146102415780631d1d9a801461023c5780632a49ea131461023757806331d7a262146102325780633659cfe61461022d578063372500ab146102285780633de535ba146102235780633fbce87f1461021e57806349f86f34146102195780634f1ef28614610214578063505b5e571461020f57806352d1902d1461020a57806366a5809d14610205578063715018a61461020057806374958e35146101fb5780638129fc1c146101f65780638578de01146101f15780638da5cb5b146101ec57806395ccea67146101e75780639a22427d146101e2578063b5c548b5146101dd578063b663c26a146101d8578063badf162d146101d3578063c59d4847146101ce578063d3f20746146101c9578063d638c983146101c4578063dac297c2146101bf578063dded1376146101ba578063e085f980146101b5578063e9d2821d146101b0578063f12c575b146101ab578063f2fde38b146101a6578063f4aa1982146101a15763f8be73470361000e57610e9e565b610e83565b610e60565b610e45565b610dd5565b610da1565b610bc2565b610ba9565b610b8e565b610b60565b610aa3565b610a45565b610a27565b610a0e565b6109ba565b610971565b61093a565b610921565b6108e6565b6108cb565b6108a8565b61087a565b610830565b6107ff565b6107bb565b61069d565b610674565b61062b565b6105f0565b6105d8565b6105bd565b610502565b6104c3565b610412565b5f91031261025057565b5f80fd5b9052565b0190565b9061027c61027561026b845190565b8084529260200190565b9260200190565b905f5b81811061028c5750505090565b9091926102a96102a26001928651815260200190565b9460200190565b92910161027f565b5f5b8381106102c25750505f910152565b81810151838201526020016102b3565b6102f36102fc602093610258936102e7815190565b80835293849260200190565b958691016102b1565b601f01601f191690565b906103759060c08061032560e084015f8701518582035f8701526102d2565b9461033560208201516020860152565b61034460408201516040860152565b61035360608201516060860152565b60808181015115159085015261036e60a082015160a0860152565b0151910152565b90565b9061037591610306565b9061039861038e835190565b8083529160200190565b90816103aa6020830284019460200190565b925f915b8383106103bd57505050505090565b909192939460206103e06103d983856001950387528951610378565b9760200190565b93019301919392906103ae565b60408082526103759391926104049184019061025c565b916020818403910152610382565b3461025057610422366004610246565b61042a611078565b9061044061043760405190565b928392836103ed565b0390f35b909182601f830112156102505781359167ffffffffffffffff831161025057602001926020830284011161025057565b805b0361025057565b9050359061048a82610474565b565b9160408383031261025057823567ffffffffffffffff811161025057826104ba602094610375938701610444565b9490950161047d565b34610250576104dc6104d636600461048c565b91611492565b604051005b610375916008021c81565b9061037591546104e1565b6103755f60fc6104ec565b3461025057610512366004610246565b61044061051d6104f7565b6040515b9182918290815260200190565b6001600160a01b031690565b6001600160a01b038116610476565b9050359061048a8261053a565b906020828203126102505761037591610549565b61052e610375610375926001600160a01b031690565b6103759061056a565b61037590610580565b9061059c90610589565b5f5260205260405f2090565b5f6105b861037592610102610592565b6104ec565b346102505761044061051d6105d3366004610556565b6105a8565b34610250576104dc6105eb366004610556565b61162e565b3461025057610600366004610246565b6104dc611779565b610375916008021c61052e565b906103759154610608565b6103755f60fb610615565b346102505761063b366004610246565b610440610646610620565b604051918291826001600160a01b03909116815260200190565b90602082820312610250576103759161047d565b34610250576104dc610687366004610660565b6117c2565b602080825261037592910190610306565b34610250576104406106b86106b3366004610660565b6117cb565b6040519182918261068c565b634e487b7160e01b5f52604160045260245ffd5b90601f01601f1916810190811067ffffffffffffffff8211176106fa57604052565b6106c4565b9061048a61070c60405190565b92836106d8565b67ffffffffffffffff81116106fa57602090601f01601f19160190565b90825f939282370152565b9092919261075061074b82610713565b6106ff565b93818552818301116102505761048a916020850190610730565b9080601f83011215610250578160206103759335910161073b565b9190916040818403126102505761079c8382610549565b92602082013567ffffffffffffffff811161025057610375920161076a565b6104dc6107c9366004610785565b90611809565b6107fb61048a946107f46060949897956107ed608086019a5f870152565b6020850152565b6040830152565b0152565b346102505761044061081a610815366004610556565b611813565b9061082794929460405190565b948594856107cf565b3461025057610840366004610246565b61044061051d611943565b610375916008021c5b60ff1690565b90610375915461084b565b5f61087561037592610105610592565b61085a565b3461025057610440610895610890366004610556565b610865565b6040515b91829182901515815260200190565b34610250576108b8366004610246565b6104dc611983565b6103755f60fe6104ec565b34610250576108db366004610246565b61044061051d6108c0565b34610250576108f6366004610246565b6104dc611b92565b91906040838203126102505761037590602061091a828661047d565b940161047d565b34610250576104dc6109343660046108fe565b90611c41565b346102505761094a366004610246565b610440610646611c5e565b91906040838203126102505761037590602061091a8286610549565b34610250576104dc610984366004610955565b90611d33565b6103756103756103759290565b9061059c9061098a565b610875610375926109b55f93610101610592565b610997565b34610250576104406108956109d0366004610955565b906109a1565b801515610476565b9050359061048a826109d6565b919060408382031261025057610375906020610a078286610549565b94016109de565b34610250576104dc610a213660046109eb565b90611da7565b610a32366004610246565b6104dc611db1565b6103755f60fd6104ec565b3461025057610a55366004610246565b61044061051d610a3a565b9194610a9c6107fb92989795610a9560a096610a8e61048a9a610a8760c08a019e5f8b0152565b6020890152565b6040870152565b6060850152565b6080830152565b3461025057610ab3366004610246565b610440610abe611e06565b92610ace96949692919260405190565b96879687610a60565b909182601f830112156102505781359167ffffffffffffffff831161025057602001926001830284011161025057565b9160a08383031261025057823567ffffffffffffffff81116102505782610b2f918501610ad7565b929093610b3f826020830161047d565b92610375610b50846040850161047d565b93608061091a826060870161047d565b346102505761044061051d610b76366004610b07565b94939093929192612283565b6103755f6101046104ec565b3461025057610b9e366004610246565b61044061051d610b82565b34610250576104dc610bbc366004610955565b9061241a565b34610250576104dc610bd5366004610556565b6124c3565b634e487b7160e01b5f52602260045260245ffd5b9060016002830492168015610c0e575b6020831014610c0957565b610bda565b91607f1691610bfe565b80545f939291610c34610c2a83610bee565b8085529360200190565b9160018116908115610c835750600114610c4d57505050565b610c5e91929394505f5260205f2090565b915f925b818410610c6f5750500190565b805484840152602090930192600101610c62565b92949550505060ff1916825215156020020190565b9061037591610c18565b9061048a610cbc92610cb360405190565b93848092610c98565b03836106d8565b6103759081565b6103759054610cc3565b61037590610854565b6103759054610cd4565b610cf390610100610997565b610cfc81610ca2565b91610d0960018301610cca565b91610d1660028201610cca565b91610d2360038301610cca565b91610d3060048201610cdd565b916103756006610d4260058501610cca565b9301610cca565b926107fb92989795610d9160c096610d8a610d9a94610d83610d7b61048a9d9860e08c01908c5f8184039101526102d2565b9e60208b0152565b6040890152565b6060870152565b15156080850152565b60a0830152565b3461025057610440610dbc610db7366004610660565b610ce7565b93610dcc97959793919360405190565b97889788610d49565b34610250576104dc610de8366004610660565b612552565b634e487b7160e01b5f52603260045260245ffd5b8054821015610e2157610e196001915f5260205f2090565b910201905f90565b610ded565b61010380548210156102505761037591610e3f91610e01565b906104ec565b346102505761044061051d610e5b366004610660565b610e26565b34610250576104dc610e73366004610556565b6125eb565b6103755f60ff6104ec565b3461025057610e93366004610246565b61044061051d610e78565b3461025057610440610895610eb4366004610955565b906125f4565b634e487b7160e01b5f52601160045260245ffd5b5f198114610edc5760010190565b610eba565b67ffffffffffffffff81116106fa5760208091020190565b90610f0661074b83610ee1565b918252565b369037565b9061048a610f26610f2084610ef9565b93610ee1565b601f190160208401610f0b565b61037560e06106ff565b610f45610f33565b9060608252602080808080808088015f8152015f8152015f8152015f8152015f8152015f905250565b610375610f3d565b5f5b828110610f8457505050565b602090610f8f610f6e565b8184015201610f78565b9061048a610fa9610f2084610ef9565b601f190160208401610f76565b90610fbf825190565b811015610e21576020809102010190565b9061048a6110686006610fe1610f33565b94610ff2610fee82610ca2565b8752565b61100861100160018301610cca565b6020880152565b61101e61101760028301610cca565b6040880152565b61103461102d60038301610cca565b6060880152565b61104c61104360048301610cdd565b15156080880152565b61106261105b60058301610cca565b60a0880152565b01610cca565b60c0840152565b61037590610fd0565b6110815f61098a565b90815b610103611092610375825490565b8210156110e55760046110b86110be926110b2610e3f8661010093610e01565b90610997565b01610cdd565b6110d0575b600101611084565b611084565b916110dd6110cb91610ece565b9290506110c3565b50506110f082610f10565b6110fa8193610f99565b91826111055f61098a565b94855b610103611116610375825490565b8210156111b3576101009061113c60046110b8611136610e3f8786610e01565b85610997565b611150575b5050600101611108565b611108565b9761119061118b6111ab936110b2610e3f878e819f8e6111838a61117d610e3f61114b9f61118696610e01565b92610fb6565b52565b610e01565b61106f565b61119a8287610fb6565b526111a58186610fb6565b50610ece565b96905f611141565b50509450509050565b91906111d96111d56111d033610105610592565b610cdd565b1590565b806111fd575b6111ec5761048a92611282565b6373cbbcc560e11b5f908152600490fd5b5061120961052e611c5e565b3314156111df565b9190811015610e21576020020190565b356103758161053a565b9060ff905b9181191691161790565b9061124a61037561125192151590565b825461122b565b9055565b905f1990611230565b9061126e6103756112519261098a565b8254611255565b91908201809211610edc57565b90929161129461037582610100610997565b6112a36111d560048301610cdd565b611481576112b661037560028301610cca565b4210611470576112cb61037560038301610cca565b421161145f576112da5f61098a565b858110156114575761010161130b6111d56111d0866109b5611305611300888e8d611211565b611221565b86610592565b61131e575b506001016112da565b6112da565b6006830161132b81610cca565b61133b6113375f61098a565b9190565b119081611432575b5061142957908661137586611370876109b56113199761136a611300896001998a98611211565b90610592565b61123a565b6113936005850161138d61138882610cca565b610ece565b9061125e565b83016113c98861138d6113ba8961136a611300886113b089610cca565b9661010294611211565b916113c483610cca565b611275565b6113e96113e36113dd611300858c8b611211565b92610cca565b91610589565b7fe0b5124b12e878158288d1002ed1fb960faff0ec1c7b3168f86d9d1afd1b0d8b6114206114168861098a565b9361052160405190565b0390a390611310565b50505050509050565b905061144f61133761037561144960058801610cca565b93610cca565b10155f611343565b505050509050565b637bcc439b60e01b5f908152600490fd5b635971011360e01b5f908152600490fd5b630bb6646b60e01b5f908152600490fd5b9061048a92916111bc565b156114a457565b60405162461bcd60e51b815260206004820152602c60248201527f46756e6374696f6e206d7573742062652063616c6c6564207468726f7567682060448201526b19195b1959d85d1958d85b1b60a21b606482015280608481015b0390fd5b1561150a57565b60405162461bcd60e51b815260206004820152602c60248201527f46756e6374696f6e206d7573742062652063616c6c6564207468726f7567682060448201526b6163746976652070726f787960a01b6064820152608490fd5b61048a906115e161157430610589565b6115c07f0000000000000000000000000000000000000000000000000000000000000000916115b96115ac846001600160a01b031690565b916001600160a01b031690565b141561149d565b6115db6115ac6115ce612650565b926001600160a01b031690565b14611503565b611609565b90610f0661074b83610713565b9061048a610f26611603846115e6565b93610713565b5f61048a916116178161266e565b6116286116238361098a565b6115f3565b9061271f565b61048a90611564565b61163f61287c565b61164761166d565b61048a6128ae565b3d156116685761165e3d6115e6565b903d5f602084013e565b606090565b61010261168261167d3383610592565b610cca565b9061168c5f61098a565b82146117685761169b30610589565b82903110611757576116c0906116bb6116b35f61098a565b913390610592565b61125e565b6116d86116d1826113c460fe610cca565b60fe61125e565b6117065f806116ee6116e933610589565b610589565b6040518581805b03925af161170161164f565b501590565b611746577ffc30cddea38e2bf4d6ea7d3f9ed3b6ad7f176419f4963bd81318067a4aee73fe61174161173733610589565b9261052160405190565b0390a2565b6312171d8360e31b5f908152600490fd5b631e9acf1760e31b5f908152600490fd5b635b8f50bf60e11b5f908152600490fd5b61048a611637565b61048a9061178d612909565b6117bd7fa64af0ab999dcc60e2ddc979eeef021f2ec104c537f4edb3bad8249ad1f08ecb9161051d8160ff61125e565b0390a1565b61048a90611781565b61118b610375916117da610f6e565b50610100610997565b9061048a916117f461157430610589565b61048a916001916118048161266e565b61271f565b9061048a916117e3565b61167d61182a916118215f90565b50610102610592565b9061183430610589565b319161184060fc610cca565b9161184b60fd610cca565b9193929190565b1561185957565b60405162461bcd60e51b815260206004820152603860248201527f555550535570677261646561626c653a206d757374206e6f742062652063616c60448201527f6c6564207468726f7567682064656c656761746563616c6c00000000000000006064820152608490fd5b6103759061190c6118d430610589565b6119066001600160a01b037f0000000000000000000000000000000000000000000000000000000000000000166115ac565b14611852565b61193a565b6103757f360894a13ba1a3210667c828492db98dca3e2076cc3735a920a3ca505d382bbc61098a565b50610375611911565b6103755f6118c4565b611954612909565b61048a611972565b61052e6103756103759290565b6103759061195c565b61048a61197e5f611969565b612926565b61048a61194c565b6103759060081c610854565b610375905461198b565b6108546103756103759290565b156119b557565b60405162461bcd60e51b815260206004820152602e60248201527f496e697469616c697a61626c653a20636f6e747261637420697320616c72656160448201526d191e481a5b9a5d1a585b1a5e995960921b6064820152608490fd5b6108546103756103759260ff1690565b9061124a61037561125192611a11565b9061ff009060081b611230565b90611a4e61037561125192151590565b8254611a31565b610254906119a1565b60208101929161048a9190611a55565b611a7a6111d55f611997565b8080611b4c575b8015611b08575b611a91906119ae565b80611aa5611a9f60016119a1565b5f611a21565b611af8575b611ab2611b69565b611ab857565b611ac25f80611a3e565b7f7f26b83ff96e1f2b6a682f133852f6798a09c465da95921460cefb3847402498611aec60405190565b806117bd600182611a5e565b611b0360015f611a3e565b611aaa565b50611b1d6111d5611b1830610589565b61296c565b8015611a885750611a91611b305f610cdd565b611b44611b3d60016119a1565b9160ff1690565b149050611a88565b50611b565f610cdd565b611b63611b3d60016119a1565b10611a81565b611b716129f9565b611b79612a18565b611b81612a2c565b61048a600161137033610105610592565b61048a611a6e565b90611bad6111d56111d033610105610592565b80611bc0575b6111ec5761048a91611c15565b50611bcc61052e611c5e565b331415611bb3565b15611bdb57565b60405162461bcd60e51b81526020600482015260126024820152710526577617264206d757374206265203e20360741b6044820152606490fd5b906001611c3b61048a93611c33611c2b5f61098a565b855b11611bd4565b610100610997565b0161125e565b9061048a91611b9a565b6103759061052e565b6103759054611c4b565b6103756033611c54565b9061048a91611c75612909565b611cc6565b15611c8157565b60405162461bcd60e51b815260206004820152601460248201527f496e73756666696369656e742062616c616e63650000000000000000000000006044820152606490fd5b90611cd361052e5f611969565b6001600160a01b03831614611d22575f8091611d0a6116e9611d1c956116e9611d02611cfe30610589565b3190565b851115611c7a565b90611d1460405190565b9081806116f5565b61174657565b63e6c4247b60e01b5f908152600490fd5b9061048a91611c68565b9061048a91611d4a612909565b611d5661052e5f611969565b6001600160a01b03821614611d2257611741611d9d826116e9856113707f0b250dad1d1e25cbfd5d7b39133c2988fbb7d9cfcb0ed558d583cc40c3cbd6d796610105610592565b9261089960405190565b9061048a91611d3d565b611dcf611dc8611dc160fd610cca565b3490611275565b60fd61125e565b7f09d4448c5ba1deddc90135564c087f7f0cad8d8a5b3a82033fdb718c99aa85c0611df960405190565b34815280602081016117bd565b611e0f30610589565b3190611e1b60fc610cca565b91611e2660fd610cca565b91611e3160fe610cca565b91611e3c60ff610cca565b91611e48610104610cca565b91959493929190565b959493929190611e696111d56111d033610105610592565b80611e7c575b6111ec5761037596612177565b50611e8861052e611c5e565b331415611e6f565b15611e9757565b60405162461bcd60e51b8152602060048201526012602482015271496e76616c69642074696d652072616e676560701b6044820152606490fd5b61037591369161073b565b915f1960089290920291821b911b611230565b9190611f006103756112519361098a565b908354611edc565b61048a915f91611eef565b818110611f1e575050565b80611f2b5f600193611f08565b01611f13565b9190601f8111611f4057505050565b611f5061048a935f5260205f2090565b906020601f840181900483019310611f72575b6020601f909101040190611f13565b9091508190611f63565b90611f85815190565b9067ffffffffffffffff82116106fa57611fa982611fa38554610bee565b85611f31565b602090601f8311600114611fe25761125192915f9183611fd7575b50505f19600883021c1916906002021790565b015190505f80611fc4565b601f19831691611ff5855f5260205f2090565b925f5b81811061203157509160029391856001969410612019575b50505002019055565b01515f196008601f8516021c191690555f8080612010565b91936020600181928787015181550195019201611ff8565b9061048a91611f7c565b60066120eb60c061048a9461207161206b5f83015190565b86612049565b61208861207f602083015190565b6001870161125e565b61209f612096604083015190565b6002870161125e565b6120b66120ad606083015190565b6003870161125e565b6120cf6120c66080830151151590565b6004870161123a565b6120e66120dd60a083015190565b6005870161125e565b015190565b910161125e565b9061048a91612053565b90815491680100000000000000008310156106fa578261212491600161048a95018155610e01565b90611eef565b91906102fc81612141816102589560209181520190565b8095610730565b9061048a946107f461216f6107fb936060969a99979a60808701918783035f89015261212a565b986020850152565b947f6165dcb03fb6948c3e859de12fd9b788c705f24ac1d36b52494ccc1d7d9c07029461174192939496989798506121b66121af8290565b8311611e90565b6121c86121c25f61098a565b88611c2d565b6122706121d6610104610cca565b6121ea6121e282610ece565b61010461125e565b61225f819b61224e6121fa610f33565b9161220c6122088c8c611ed1565b8452565b6122178d6020850152565b612222876040850152565b61222d886060850152565b600160808401526122476122405f61098a565b60a0850152565b60c0830152565b61225a83610100610997565b6120f2565b61226b816101036120fc565b61098a565b9661227a60405190565b95869586612148565b6103759594939291905f611e51565b906122a56111d56111d033610105610592565b806122b8575b6111ec5761048a916122cc565b506122c461052e611c5e565b3314156122ab565b906122dc61037582610100610997565b6122eb6111d560048301610cdd565b611481576101016123036111d0846109b58785610592565b6124095761231661037560028401610cca565b42106114705761232b61037560038401610cca565b421161145f576006820161233e81610cca565b61234a6113375f61098a565b1190816123ea575b506123d9576114166123ce6123c860017fe0b5124b12e878158288d1002ed1fb960faff0ec1c7b3168f86d9d1afd1b0d8b95612399826113708a6109b58d6123d49b610592565b6123ac6005820161138d61138882610cca565b0161167d6123b982610cca565b61138d6113ba8b610102610592565b95610589565b9361098a565b0390a3565b632081a35f60e21b5f908152600490fd5b905061240161133761037561144960058701610cca565b10155f612352565b63b969af7f60e01b5f908152600490fd5b9061048a91612292565b61048a90612430612909565b61245b565b906001600160a01b0390611230565b9061245461037561125192610589565b8254612435565b61246761052e5f611969565b6001600160a01b03821614611d22576124916113e361248660fb611c54565b6116e98460fb612444565b907f1d9ead3e71f233f06ce8378b54f9b7b73c0c4f596ff35694f78fd3991274bd2a6124bc60405190565b80806123d4565b61048a90612424565b6124de6111d56111d033610105610592565b806124f1575b6111ec5761048a90612505565b506124fd61052e611c5e565b3314156124e4565b6125219061226b5f600461251b84610100610997565b0161123a565b7ffe9e2f781236bffd062f9dfcd0b9b06f51589ac3187e0cb8532d990a0d3fe96461254b60405190565b8080611741565b61048a906124cc565b61048a90612567612909565b6125c7565b1561257357565b60405162461bcd60e51b815260206004820152602660248201527f4f776e61626c653a206e6577206f776e657220697320746865207a65726f206160448201526564647265737360d01b6064820152608490fd5b61048a9061197e6125da61052e5f611969565b6001600160a01b038316141561256c565b61048a9061255b565b610375916109b56111d0926126065f90565b50610101610592565b61262661261f611dc160fc610cca565b60fc61125e565b7f0711c598590db60d39d72d1b59b59610cd3ae6383d960e0c449c6485069faa82611df960405190565b6103755f61265f610375611911565b01611c54565b5061048a612909565b61048a90612665565b6103757f4910fdfa16fed3260ed0e7147f7cc6da11a60208b5b9406d12a635614ffd914361098a565b9050519061048a82610474565b9060208282031261025057610375916126a0565b156126c857565b60405162461bcd60e51b815260206004820152602960248201527f45524331393637557067726164653a20756e737570706f727465642070726f786044820152681a58589b195555525160ba1b6064820152608490fd5b91906127305f6110b8610375612677565b1561274057505061048a90612ad4565b61274c6116e984610589565b92602061275860405190565b6352d1902d60e01b815294859060049082905afa5f94816127f5575b506127d55760405162461bcd60e51b815260206004820152602e60248201527f45524331393637557067726164653a206e657720696d706c656d656e7461746960448201526d6f6e206973206e6f74205555505360901b6064820152608490fd5b6127f061048a946127ea611337610375611911565b146126c1565b612a34565b61281891955060203d60201161281f575b61281081836106d8565b8101906126ad565b935f612774565b503d612806565b610375600261098a565b1561283757565b60405162461bcd60e51b815260206004820152601f60248201527f5265656e7472616e637947756172643a207265656e7472616e742063616c6c006044820152606490fd5b61048a6128896065610cca565b61289d612894612826565b91821415612830565b606561125e565b610375600161098a565b61048a61289d6128a4565b156128c057565b60405162461bcd60e51b8152806114ff600482016020808252818101527f4f776e61626c653a2063616c6c6572206973206e6f7420746865206f776e6572604082015260600190565b61048a612914611c5e565b6129206115ac3361052e565b146128b9565b6129416113e36129366033611c54565b6116e9846033612444565b907f8be0079c531659141344cd1fd0a4f28419497f9722a3daafe3b4186f6b6457e06124bc60405190565b3b6129796113375f61098a565b1190565b1561298457565b60405162461bcd60e51b815260206004820152602b60248201527f496e697469616c697a61626c653a20636f6e7472616374206973206e6f74206960448201526a6e697469616c697a696e6760a81b6064820152608490fd5b6129ee6129e95f611997565b61297d565b61048a61048a612b11565b61048a6129dd565b612a0d6129e95f611997565b61048a61048a612b25565b61048a612a01565b61048a6129e95f611997565b61048a612a20565b91612a3e83612b2d565b8151612a4c6113375f61098a565b11908115612a6a575b50612a5e575050565b612a6791612baf565b50565b90505f612a55565b15612a7957565b60405162461bcd60e51b815260206004820152602d60248201527f455243313936373a206e657720696d706c656d656e746174696f6e206973206e60448201526c1bdd08184818dbdb9d1c9858dd609a1b6064820152608490fd5b61048a90612ae9612ae48261296c565b612a72565b5f612af5610375611911565b01612444565b612b076129e95f611997565b61048a8033612926565b61048a612afb565b6116476129e95f611997565b61048a612b19565b612b3a906116e981612ad4565b7fbc7cd75a20ee27fd9adebab32041f755214dbc6bffa90cc0225b39da2e5c2d3b61254b60405190565b612b6e60276115e6565b7f416464726573733a206c6f772d6c6576656c2064656c65676174652063616c6c6020820152660819985a5b195960ca1b604082015290565b610375612b64565b61037591612bbb612ba7565b915f806103759493612bcb606090565b50602081519101845af4612bdd61164f565b91612c2f565b15612bea57565b60405162461bcd60e51b815260206004820152601d60248201527f416464726573733a2063616c6c20746f206e6f6e2d636f6e74726163740000006044820152606490fd5b91929015612c6057508151612c466113375f61098a565b14612c4f575090565b612c5b6103759161296c565b612be3565b82612c77565b6020808252610375929101906102d2565b90612c80825190565b612c8c6113375f61098a565b1115612c9b5750805190602001fd5b6114ff90612ca860405190565b62461bcd60e51b815291829160048301612c6656fea2646970667358221220a0936316151e08eb08fdab29097f52cffb029d1e84eb352a109b85bb13abaf9f64736f6c634300081c0033",
  "linkReferences": {},
  "deployedLinkReferences": {}
}